{
  "_format": "hh-sol-artifact-1",
  "contractName": "FlexDaoSetHelperAdapterContract",
  "sourceName": "contracts/flex/adatpers/FlexDaoSetHelperAdapter.sol",
  "abi": [
    {
      "inputs": [
        {
          "internalType": "contract DaoRegistry",
          "name": "dao",
          "type": "address"
        }
      ],
      "name": "isProposalAllDone",
      "outputs": [
        {
          "internalType": "bool",
          "name": "",
          "type": "bool"
        }
      ],
      "stateMutability": "view",
      "type": "function"
    },
    {
      "inputs": [
        {
          "internalType": "contract DaoRegistry",
          "name": "dao",
          "type": "address"
        },
        {
          "internalType": "uint256",
          "name": "flexDaoManagementfee",
          "type": "uint256"
        },
        {
          "internalType": "uint256",
          "name": "flexDaoReturnTokenManagementFee",
          "type": "uint256"
        },
        {
          "internalType": "address",
          "name": "managementFeeAddress",
          "type": "address"
        }
      ],
      "name": "setFees",
      "outputs": [],
      "stateMutability": "nonpayable",
      "type": "function"
    },
    {
      "inputs": [
        {
          "internalType": "contract DaoRegistry",
          "name": "dao",
          "type": "address"
        },
        {
          "internalType": "bool",
          "name": "enable",
          "type": "bool"
        },
        {
          "internalType": "string",
          "name": "name",
          "type": "string"
        },
        {
          "internalType": "uint256",
          "name": "minAmount",
          "type": "uint256"
        },
        {
          "internalType": "address",
          "name": "tokenAddress",
          "type": "address"
        },
        {
          "internalType": "uint256",
          "name": "tokenId",
          "type": "uint256"
        },
        {
          "internalType": "uint8",
          "name": "varifyType",
          "type": "uint8"
        },
        {
          "internalType": "address[]",
          "name": "whitelist",
          "type": "address[]"
        }
      ],
      "name": "setGovernorMembership",
      "outputs": [],
      "stateMutability": "nonpayable",
      "type": "function"
    },
    {
      "inputs": [
        {
          "internalType": "contract DaoRegistry",
          "name": "dao",
          "type": "address"
        },
        {
          "internalType": "bool",
          "name": "enable",
          "type": "bool"
        },
        {
          "internalType": "uint256",
          "name": "cap",
          "type": "uint256"
        }
      ],
      "name": "setInvestorCap",
      "outputs": [],
      "stateMutability": "nonpayable",
      "type": "function"
    },
    {
      "inputs": [
        {
          "internalType": "contract DaoRegistry",
          "name": "dao",
          "type": "address"
        },
        {
          "internalType": "bool",
          "name": "enable",
          "type": "bool"
        },
        {
          "internalType": "string",
          "name": "name",
          "type": "string"
        },
        {
          "internalType": "uint8",
          "name": "varifyType",
          "type": "uint8"
        },
        {
          "internalType": "uint256",
          "name": "minAmount",
          "type": "uint256"
        },
        {
          "internalType": "address",
          "name": "tokenAddress",
          "type": "address"
        },
        {
          "internalType": "uint256",
          "name": "tokenId",
          "type": "uint256"
        },
        {
          "internalType": "address[]",
          "name": "whitelist",
          "type": "address[]"
        }
      ],
      "name": "setInvestorMembership",
      "outputs": [],
      "stateMutability": "nonpayable",
      "type": "function"
    },
    {
      "inputs": [
        {
          "internalType": "contract DaoRegistry",
          "name": "dao",
          "type": "address"
        },
        {
          "internalType": "uint256[9]",
          "name": "uint256Args",
          "type": "uint256[9]"
        },
        {
          "internalType": "address[2]",
          "name": "addressArgs",
          "type": "address[2]"
        },
        {
          "internalType": "address[]",
          "name": "pollvoterMembershipWhitelist",
          "type": "address[]"
        },
        {
          "internalType": "bool",
          "name": "pollEnable",
          "type": "bool"
        },
        {
          "internalType": "string",
          "name": "name",
          "type": "string"
        }
      ],
      "name": "setPollForInvestment",
      "outputs": [],
      "stateMutability": "nonpayable",
      "type": "function"
    },
    {
      "inputs": [
        {
          "internalType": "contract DaoRegistry",
          "name": "dao",
          "type": "address"
        },
        {
          "internalType": "bool",
          "name": "enable",
          "type": "bool"
        },
        {
          "internalType": "string",
          "name": "name",
          "type": "string"
        },
        {
          "internalType": "uint256",
          "name": "flexDaoProposerMembershipMinHolding",
          "type": "uint256"
        },
        {
          "internalType": "uint256",
          "name": "flexDaoProposerMembershipTokenId",
          "type": "uint256"
        },
        {
          "internalType": "uint256",
          "name": "flexDaoProposerMembershipVarifyType",
          "type": "uint256"
        },
        {
          "internalType": "address",
          "name": "flexDaoProposerMembershipTokenAddress",
          "type": "address"
        },
        {
          "internalType": "address[]",
          "name": "_whitelist",
          "type": "address[]"
        }
      ],
      "name": "setProposerMembership",
      "outputs": [],
      "stateMutability": "nonpayable",
      "type": "function"
    },
    {
      "inputs": [
        {
          "internalType": "contract DaoRegistry",
          "name": "dao",
          "type": "address"
        },
        {
          "internalType": "address",
          "name": "tokenAddress",
          "type": "address"
        },
        {
          "internalType": "uint256[8]",
          "name": "uint256Args",
          "type": "uint256[8]"
        },
        {
          "internalType": "address[]",
          "name": "governors",
          "type": "address[]"
        },
        {
          "internalType": "uint256[]",
          "name": "allocations",
          "type": "uint256[]"
        }
      ],
      "name": "setVoting",
      "outputs": [],
      "stateMutability": "nonpayable",
      "type": "function"
    },
    {
      "inputs": [
        {
          "internalType": "contract DaoRegistry",
          "name": "dao",
          "type": "address"
        }
      ],
      "name": "unDoneProposalsCheck",
      "outputs": [
        {
          "internalType": "bool",
          "name": "",
          "type": "bool"
        }
      ],
      "stateMutability": "view",
      "type": "function"
    }
  ],
  "bytecode": "0x608060405234801561001057600080fd5b50613c48806100206000396000f3fe608060405234801561001057600080fd5b50600436106100a35760003560e01c80638bf209e0116100765780639a0242fc1161005b5780639a0242fc146101305780639a32751214610143578063b165abc31461015657600080fd5b80638bf209e01461010a5780638f88c3ce1461011d57600080fd5b806334c49284146100a85780634088f7ae146100bd57806364d6d55a146100d05780637249b22f146100f7575b600080fd5b6100bb6100b636600461375b565b610169565b005b6100bb6100cb3660046138c8565b61088f565b6100e36100de3660046136e8565b610e8a565b604051901515815260200160405180910390f35b6100bb610105366004613ae3565b61110b565b6100bb610118366004613805565b611305565b6100bb61012b366004613b23565b611d35565b6100e361013e3660046136e8565b611f93565b6100bb610151366004613a38565b612854565b6100bb610164366004613997565b612f6f565b6040516317ba7d8560e01b81527f8ceb7c7dc4c27ecfdcfd7ab759513c13202213bb0305fcd8889452f229d798e760048201526001600160a01b038816906317ba7d859060240160206040518083038186803b1580156101c857600080fd5b505afa1580156101dc573d6000803e3d6000fd5b505050506040513d601f19601f82011682018060405250810190610200919061370b565b6001600160a01b0316336001600160a01b03161461024f5760405162461bcd60e51b81526020600482015260076024820152662161636365737360c81b60448201526064015b60405180910390fd5b604051630da0f6c760e41b81527f75b7d343967750d1f6c15979b7559cea8be22ff1a06a51681b9cbef0d2fff4fe6004820152853560248201526001600160a01b0388169063da0f6c7090604401600060405180830381600087803b1580156102b757600080fd5b505af11580156102cb573d6000803e3d6000fd5b5050604051631da7c90d60e11b81527fb5a1ad3f04728d7c38547e3d43006a1ec090a02fce04bbb1d0ee4519a1921e5760048201526001600160a01b0389811660248301528a169250633b4f921a9150604401600060405180830381600087803b15801561033857600080fd5b505af115801561034c573d6000803e3d6000fd5b5050604051630da0f6c760e41b81527e634460a4b60c2e1bf8c87bfc42b6b68fd2a71f4bb2d760816eabc5038b50366004820152602088013560248201526001600160a01b038a16925063da0f6c709150604401600060405180830381600087803b1580156103ba57600080fd5b505af11580156103ce573d6000803e3d6000fd5b505060408051630da0f6c760e41b81527f18ef0b57fe939edb640a200fdf533493bd8f26a274151543a109b64c857e20f360048201529088013560248201526001600160a01b038a16925063da0f6c709150604401600060405180830381600087803b15801561043d57600080fd5b505af1158015610451573d6000803e3d6000fd5b5050604051630da0f6c760e41b81527fe815a3c082eed7f7f7baab546f11a8718682c0eb3017b099ddc301a92f6673e36004820152606088013560248201526001600160a01b038a16925063da0f6c709150604401600060405180830381600087803b1580156104c057600080fd5b505af11580156104d4573d6000803e3d6000fd5b5050604051630da0f6c760e41b81527f730faccfe82f70711a34ce5202c6e1b1f79f421c16fcef745a9d92d06a7c0d4c6004820152608088013560248201526001600160a01b038a16925063da0f6c709150604401600060405180830381600087803b15801561054357600080fd5b505af1158015610557573d6000803e3d6000fd5b5050604051630da0f6c760e41b81527f0324de13a5a6e302ddb95a9fdf81cc736fc8acee2abe558970daac27395904e7600482015260a088013560248201526001600160a01b038a16925063da0f6c709150604401600060405180830381600087803b1580156105c657600080fd5b505af11580156105da573d6000803e3d6000fd5b5050604051630da0f6c760e41b81527fb4c601c38beae7eebb719eda3438f59fcbfd4c6dd7d38c00665b6fd5b432df32600482015260c088013560248201526001600160a01b038a16925063da0f6c709150604401600060405180830381600087803b15801561064957600080fd5b505af115801561065d573d6000803e3d6000fd5b5050604051630da0f6c760e41b81527f9876c0f0505bfb2b1c38d3bbd25ba13159172cd0868972d76927723f5a9480fc600482015260e088013560248201526001600160a01b038a16925063da0f6c709150604401600060405180830381600087803b1580156106cc57600080fd5b505af11580156106e0573d6000803e3d6000fd5b5050841591506108869050576040516317ba7d8560e01b81527f37cbe06c1044f98864ea25736326bc1d488e24e5e23781ea2ad64c4069cb9e6e60048201526000906001600160a01b038916906317ba7d859060240160206040518083038186803b15801561074e57600080fd5b505afa158015610762573d6000803e3d6000fd5b505050506040513d601f19601f82011682018060405250810190610786919061370b565b905060005b60ff811685111561088357816001600160a01b0316635f15b1d98a88888560ff168181106107c957634e487b7160e01b600052603260045260246000fd5b90506020020160208101906107de91906136e8565b87878660ff1681811061080157634e487b7160e01b600052603260045260246000fd5b6040516001600160e01b031960e088901b1681526001600160a01b03958616600482015294909316602485015250602090910201356044820152606401600060405180830381600087803b15801561085857600080fd5b505af115801561086c573d6000803e3d6000fd5b50505050808061087b90613bc0565b91505061078b565b50505b50505050505050565b6040516317ba7d8560e01b81527f869e5d18913d4e9bb387c730a04b58d11e95102194f7217a4b684f6e61dff92060048201526001600160a01b038b16906317ba7d859060240160206040518083038186803b1580156108ee57600080fd5b505afa158015610902573d6000803e3d6000fd5b505050506040513d601f19601f82011682018060405250810190610926919061370b565b6001600160a01b0316336001600160a01b0316146109705760405162461bcd60e51b81526020600482015260076024820152662161636365737360c81b6044820152606401610246565b6001600160a01b038a1663da0f6c707f71ecc01da16acc23ab0eca549b0aaa7659ae183a220304fe5072243bc984fd7960018c1515146109b15760006109b4565b60015b6040516001600160e01b031960e085901b168152600481019290925260ff166024820152604401600060405180830381600087803b1580156109f557600080fd5b505af1158015610a09573d6000803e3d6000fd5b505050508815610e7e57604051630f958b7160e41b81526001600160a01b038b169063f958b71090610a63907fe6fc898f462d48724eb27b66193f38e8f83f214469eb3145fe9431a89411e724908c908c90600401613b6c565b600060405180830381600087803b158015610a7d57600080fd5b505af1158015610a91573d6000803e3d6000fd5b5050604051630da0f6c760e41b81527f84580f9d926113d2c801e908a914b652340b3d8527c171bcea8d1868e92a507c600482015260ff861660248201526001600160a01b038d16925063da0f6c709150604401600060405180830381600087803b158015610aff57600080fd5b505af1158015610b13573d6000803e3d6000fd5b5050604051630da0f6c760e41b81527f50c40dbbb38d5b02b04e0c6d7be02f4391fc8c14a98860284871ef1834c8390b6004820152602481018990526001600160a01b038d16925063da0f6c709150604401600060405180830381600087803b158015610b7f57600080fd5b505af1158015610b93573d6000803e3d6000fd5b5050604051631da7c90d60e11b81527f0bfac56541ded449415df8f96f54b002e55665d7fd2fafc884184e8c17f3c77260048201526001600160a01b0388811660248301528d169250633b4f921a9150604401600060405180830381600087803b158015610c0057600080fd5b505af1158015610c14573d6000803e3d6000fd5b5050604051630da0f6c760e41b81527f93cc40268a57b3f7e5eb22a016a12d19010736289cceac5742a116fea3491b356004820152602481018790526001600160a01b038d16925063da0f6c709150604401600060405180830381600087803b158015610c8057600080fd5b505af1158015610c94573d6000803e3d6000fd5b505082159150610e7e9050576040516317ba7d8560e01b81527fcad7b0867188190920a10bf710c45443f6358175d56a759e7dc109e6d7b5d75360048201526000906001600160a01b038c16906317ba7d859060240160206040518083038186803b158015610d0257600080fd5b505afa158015610d16573d6000803e3d6000fd5b505050506040513d601f19601f82011682018060405250810190610d3a919061370b565b6040517f22c5c2cc0000000000000000000000000000000000000000000000000000000081526001600160a01b038d81166004830152919250908216906322c5c2cc90602401600060405180830381600087803b158015610d9a57600080fd5b505af1158015610dae573d6000803e3d6000fd5b5050505060005b60ff8116831115610e7b57816001600160a01b03166333f7bc0c8d86868560ff16818110610df357634e487b7160e01b600052603260045260246000fd5b9050602002016020810190610e0891906136e8565b6040516001600160e01b031960e085901b1681526001600160a01b03928316600482015291166024820152604401600060405180830381600087803b158015610e5057600080fd5b505af1158015610e64573d6000803e3d6000fd5b505050508080610e7390613bc0565b915050610db5565b50505b50505050505050505050565b6040516317ba7d8560e01b81527f7a8526bca00f0726b2fab8c3bfd5b00bfa84d07f111e48263b13de605eefcdda600482015260009081906001600160a01b038416906317ba7d859060240160206040518083038186803b158015610eee57600080fd5b505afa158015610f02573d6000803e3d6000fd5b505050506040513d601f19601f82011682018060405250810190610f26919061370b565b6040516317ba7d8560e01b81527fcad7b0867188190920a10bf710c45443f6358175d56a759e7dc109e6d7b5d75360048201529091506000906001600160a01b038516906317ba7d859060240160206040518083038186803b158015610f8b57600080fd5b505afa158015610f9f573d6000803e3d6000fd5b505050506040513d601f19601f82011682018060405250810190610fc3919061370b565b6040517f642fc0c00000000000000000000000000000000000000000000000000000000081526001600160a01b0386811660048301529192509083169063642fc0c09060240160206040518083038186803b15801561102157600080fd5b505afa158015611035573d6000803e3d6000fd5b505050506040513d601f19601f820116820180604052508101906110599190613727565b80156110f257506040517f642fc0c00000000000000000000000000000000000000000000000000000000081526001600160a01b03858116600483015282169063642fc0c09060240160206040518083038186803b1580156110ba57600080fd5b505afa1580156110ce573d6000803e3d6000fd5b505050506040513d601f19601f820116820180604052508101906110f29190613727565b15611101575060019392505050565b5060009392505050565b6040516317ba7d8560e01b81527f08f2d2eeda0c9072cdba8b58d442503b4cf9eb6c2f74d75e91dc719111c3189c60048201526001600160a01b038416906317ba7d859060240160206040518083038186803b15801561116a57600080fd5b505afa15801561117e573d6000803e3d6000fd5b505050506040513d601f19601f820116820180604052508101906111a2919061370b565b6001600160a01b0316336001600160a01b0316146111ec5760405162461bcd60e51b81526020600482015260076024820152662161636365737360c81b6044820152606401610246565b6001600160a01b03831663da0f6c707f69f4ffb3ebcb7809550bddd3e4d449a47e737bf6635bc7a730996643997b0e4860018515151461122d576000611230565b60015b6040516001600160e01b031960e085901b168152600481019290925260ff166024820152604401600060405180830381600087803b15801561127157600080fd5b505af1158015611285573d6000803e3d6000fd5b5050604051630da0f6c760e41b81527fecbde689cc6337d29a750b8b8a8abbfa97427b4ac800ab55be2f2c87311510f26004820152602481018490526001600160a01b038616925063da0f6c709150604401600060405180830381600087803b1580156112f157600080fd5b505af1158015610886573d6000803e3d6000fd5b6040516317ba7d8560e01b81527f5f0e8d109045653360289a7a02d5dc2a99e382006a42ef93f66de55ecff3176f60048201526001600160a01b038916906317ba7d859060240160206040518083038186803b15801561136457600080fd5b505afa158015611378573d6000803e3d6000fd5b505050506040513d601f19601f8201168201806040525081019061139c919061370b565b6001600160a01b0316336001600160a01b0316146113e65760405162461bcd60e51b81526020600482015260076024820152662161636365737360c81b6044820152606401610246565b604051630da0f6c760e41b81527fee63cc82ca6990a4cc5fa3ca10d8a5281ae1758a8d8f22892c4badb7cacd111e6004820152873560248201526001600160a01b0389169063da0f6c7090604401600060405180830381600087803b15801561144e57600080fd5b505af1158015611462573d6000803e3d6000fd5b5050604051630da0f6c760e41b81527f18ccfaf5deb9f2b0bd666344fa9c46950fbcee85fbfd05c3959876dfe502c209600482015260208a013560248201526001600160a01b038b16925063da0f6c709150604401600060405180830381600087803b1580156114d157600080fd5b505af11580156114e5573d6000803e3d6000fd5b505060408051630da0f6c760e41b81527f777270e51451e60c2ce5118fc8e5844441dcc4d102e9052e60fb41312dbb848a6004820152908a013560248201526001600160a01b038b16925063da0f6c709150604401600060405180830381600087803b15801561155457600080fd5b505af1158015611568573d6000803e3d6000fd5b5050604051630da0f6c760e41b81527f7789eea44dccd66529026559d1b36215cb5766016b41a8a8f16e08b2ec875837600482015260608a013560248201526001600160a01b038b16925063da0f6c709150604401600060405180830381600087803b1580156115d757600080fd5b505af11580156115eb573d6000803e3d6000fd5b5050604051630da0f6c760e41b81527ff873703084a7a9b6b81a595d5038f888fd90f4f9a530d4950a46c89eab021188600482015260808a013560248201526001600160a01b038b16925063da0f6c709150604401600060405180830381600087803b15801561165a57600080fd5b505af115801561166e573d6000803e3d6000fd5b5050604051630da0f6c760e41b81527f4e640b0dd9bf7618f23df95b8d516df2ff38868970d2d109c5b4b0455980659f600482015260a08a013560248201526001600160a01b038b16925063da0f6c709150604401600060405180830381600087803b1580156116dd57600080fd5b505af11580156116f1573d6000803e3d6000fd5b5050506001600160a01b0389169050633b4f921a7fa23a2786abcf8c551ce7fba1966ec456144d9caa0db070879d03a4ea4fd9b2fd61173360208a018a6136e8565b6040516001600160e01b031960e085901b16815260048101929092526001600160a01b03166024820152604401600060405180830381600087803b15801561177a57600080fd5b505af115801561178e573d6000803e3d6000fd5b5050604051630f958b7160e41b81526001600160a01b038b16925063f958b71091506117e2907f7bd63360ec775df97ced77d73875245296c41d88ebf2b52f8e630b4e9a51b4489086908690600401613b6c565b600060405180830381600087803b1580156117fc57600080fd5b505af1158015611810573d6000803e3d6000fd5b5050604051630da0f6c760e41b81527f249486eeae30287051f65673dfa390711fd4587950c33b4150a633763f869724600482015260c08a013560248201526001600160a01b038b16925063da0f6c709150604401600060405180830381600087803b15801561187f57600080fd5b505af1158015611893573d6000803e3d6000fd5b5050604051630da0f6c760e41b81527f6839e94cab6f83f7a12a5a3d1d6f3bbcaf0185a49b20b86e6f47b8c78494ac3d600482015260e08a013560248201526001600160a01b038b16925063da0f6c709150604401600060405180830381600087803b15801561190257600080fd5b505af1158015611916573d6000803e3d6000fd5b5050506001600160a01b0389169050633b4f921a7f770ef80745dba2953f780c8b963701e76fd3ac982923200f9214126e80f5f03261195b60408a0160208b016136e8565b6040516001600160e01b031960e085901b16815260048101929092526001600160a01b03166024820152604401600060405180830381600087803b1580156119a257600080fd5b505af11580156119b6573d6000803e3d6000fd5b5050604051630da0f6c760e41b81527ff2b332c307ef460e99eb866928b78eca9f8af0da0626b4b48a13f9b52842fa6a60048201526101008a013560248201526001600160a01b038b16925063da0f6c709150604401600060405180830381600087803b158015611a2657600080fd5b505af1158015611a3a573d6000803e3d6000fd5b505050508215611ac957604051630da0f6c760e41b81527f6e9fd67c3f2ca4e2b4e4b45b33b985dc3a1bffcadea24d12440a5901f72217b56004820152600160248201526001600160a01b0389169063da0f6c7090604401600060405180830381600087803b158015611aac57600080fd5b505af1158015611ac0573d6000803e3d6000fd5b50505050611b4a565b604051630da0f6c760e41b81527f6e9fd67c3f2ca4e2b4e4b45b33b985dc3a1bffcadea24d12440a5901f72217b56004820152600060248201526001600160a01b0389169063da0f6c7090604401600060405180830381600087803b158015611b3157600080fd5b505af1158015611b45573d6000803e3d6000fd5b505050505b8315611d2b576040516317ba7d8560e01b81527f6f48e16963713446db50a1503860d8e1fc3c888da56a85afcaa6dc29503cc61060048201526000906001600160a01b038a16906317ba7d859060240160206040518083038186803b158015611bb257600080fd5b505afa158015611bc6573d6000803e3d6000fd5b505050506040513d601f19601f82011682018060405250810190611bea919061370b565b6040517fd6415cb60000000000000000000000000000000000000000000000000000000081526001600160a01b038b811660048301529192509082169063d6415cb690602401600060405180830381600087803b158015611c4a57600080fd5b505af1158015611c5e573d6000803e3d6000fd5b5050505060005b60ff8116861115610e7e57816001600160a01b0316636f2cd5d38b89898560ff16818110611ca357634e487b7160e01b600052603260045260246000fd5b9050602002016020810190611cb891906136e8565b6040516001600160e01b031960e085901b1681526001600160a01b03928316600482015291166024820152604401600060405180830381600087803b158015611d0057600080fd5b505af1158015611d14573d6000803e3d6000fd5b505050508080611d2390613bc0565b915050611c65565b5050505050505050565b6040516317ba7d8560e01b81527fc6bb47f9566baa74b5032b5c10e5bf4a1e2382ca337c2de674732f6401d52cc060048201526001600160a01b038516906317ba7d859060240160206040518083038186803b158015611d9457600080fd5b505afa158015611da8573d6000803e3d6000fd5b505050506040513d601f19601f82011682018060405250810190611dcc919061370b565b6001600160a01b0316336001600160a01b031614611e165760405162461bcd60e51b81526020600482015260076024820152662161636365737360c81b6044820152606401610246565b604051630da0f6c760e41b81527f64c49ee5084f4940c312104c41603e43791b03dad28152afd6eadb5b960a8a876004820152602481018490526001600160a01b0385169063da0f6c7090604401600060405180830381600087803b158015611e7e57600080fd5b505af1158015611e92573d6000803e3d6000fd5b5050604051631da7c90d60e11b81527f8987d08c67963e4cacd5e5936c122a968c66853d58299dd822c194222710983960048201526001600160a01b03848116602483015287169250633b4f921a9150604401600060405180830381600087803b158015611eff57600080fd5b505af1158015611f13573d6000803e3d6000fd5b5050604051630da0f6c760e41b81527fea659d8e1a730b10af1cecb4f8ee391adf80e75302d6aaeb9642dc8a4a5e5dbb6004820152602481018590526001600160a01b038716925063da0f6c709150604401600060405180830381600087803b158015611f7f57600080fd5b505af1158015611d2b573d6000803e3d6000fd5b6040516317ba7d8560e01b81527fc6bb47f9566baa74b5032b5c10e5bf4a1e2382ca337c2de674732f6401d52cc0600482015260009081906001600160a01b038416906317ba7d859060240160206040518083038186803b158015611ff757600080fd5b505afa15801561200b573d6000803e3d6000fd5b505050506040513d601f19601f8201168201806040525081019061202f919061370b565b6040516317ba7d8560e01b81527f869e5d18913d4e9bb387c730a04b58d11e95102194f7217a4b684f6e61dff92060048201529091506000906001600160a01b038516906317ba7d859060240160206040518083038186803b15801561209457600080fd5b505afa1580156120a8573d6000803e3d6000fd5b505050506040513d601f19601f820116820180604052508101906120cc919061370b565b6040516317ba7d8560e01b81527f08f2d2eeda0c9072cdba8b58d442503b4cf9eb6c2f74d75e91dc719111c3189c60048201529091506000906001600160a01b038616906317ba7d859060240160206040518083038186803b15801561213157600080fd5b505afa158015612145573d6000803e3d6000fd5b505050506040513d601f19601f82011682018060405250810190612169919061370b565b6040516317ba7d8560e01b81527fe6121cbf77e02f965a1829c382f701ad4cec84fbda84c45378db0768d2e4087160048201529091506000906001600160a01b038716906317ba7d859060240160206040518083038186803b1580156121ce57600080fd5b505afa1580156121e2573d6000803e3d6000fd5b505050506040513d601f19601f82011682018060405250810190612206919061370b565b6040516317ba7d8560e01b81527f5f0e8d109045653360289a7a02d5dc2a99e382006a42ef93f66de55ecff3176f60048201529091506000906001600160a01b038816906317ba7d859060240160206040518083038186803b15801561226b57600080fd5b505afa15801561227f573d6000803e3d6000fd5b505050506040513d601f19601f820116820180604052508101906122a3919061370b565b6040516317ba7d8560e01b81527ff3ce48289b9021e92bc5661ccf481e756dcb8de846c2eb9620bb83917cab523760048201529091506000906001600160a01b038916906317ba7d859060240160206040518083038186803b15801561230857600080fd5b505afa15801561231c573d6000803e3d6000fd5b505050506040513d601f19601f82011682018060405250810190612340919061370b565b6040516317ba7d8560e01b81527f8ceb7c7dc4c27ecfdcfd7ab759513c13202213bb0305fcd8889452f229d798e760048201529091506000906001600160a01b038a16906317ba7d859060240160206040518083038186803b1580156123a557600080fd5b505afa1580156123b9573d6000803e3d6000fd5b505050506040513d601f19601f820116820180604052508101906123dd919061370b565b6040517ff8ffc75b0000000000000000000000000000000000000000000000000000000081526001600160a01b038b8116600483015291925060009187169063f8ffc75b9060240160206040518083038186803b15801561243d57600080fd5b505afa158015612451573d6000803e3d6000fd5b505050506040513d601f19601f820116820180604052508101906124759190613743565b14158061251657506040517fbe2176250000000000000000000000000000000000000000000000000000000081526001600160a01b038a811660048301526000919088169063be2176259060240160206040518083038186803b1580156124db57600080fd5b505afa1580156124ef573d6000803e3d6000fd5b505050506040513d601f19601f820116820180604052508101906125139190613743565b14155b806125b557506040517f985460c70000000000000000000000000000000000000000000000000000000081526001600160a01b038a811660048301526000919086169063985460c79060240160206040518083038186803b15801561257a57600080fd5b505afa15801561258e573d6000803e3d6000fd5b505050506040513d601f19601f820116820180604052508101906125b29190613743565b14155b8061265457506040517fb6939b7f0000000000000000000000000000000000000000000000000000000081526001600160a01b038a811660048301526000919083169063b6939b7f9060240160206040518083038186803b15801561261957600080fd5b505afa15801561262d573d6000803e3d6000fd5b505050506040513d601f19601f820116820180604052508101906126519190613743565b14155b806126f357506040517f115111860000000000000000000000000000000000000000000000000000000081526001600160a01b038a811660048301526000919089169063115111869060240160206040518083038186803b1580156126b857600080fd5b505afa1580156126cc573d6000803e3d6000fd5b505050506040513d601f19601f820116820180604052508101906126f09190613743565b14155b8061279257506040517ff2bc1c020000000000000000000000000000000000000000000000000000000081526001600160a01b038a811660048301526000919084169063f2bc1c029060240160206040518083038186803b15801561275757600080fd5b505afa15801561276b573d6000803e3d6000fd5b505050506040513d601f19601f8201168201806040525081019061278f9190613743565b14155b8061283157506040517f791c73ba0000000000000000000000000000000000000000000000000000000081526001600160a01b038a811660048301526000919085169063791c73ba9060240160206040518083038186803b1580156127f657600080fd5b505afa15801561280a573d6000803e3d6000fd5b505050506040513d601f19601f8201168201806040525081019061282e9190613743565b14155b156128455750600098975050505050505050565b50600198975050505050505050565b6040516317ba7d8560e01b81527fe6121cbf77e02f965a1829c382f701ad4cec84fbda84c45378db0768d2e4087160048201526001600160a01b038b16906317ba7d859060240160206040518083038186803b1580156128b357600080fd5b505afa1580156128c7573d6000803e3d6000fd5b505050506040513d601f19601f820116820180604052508101906128eb919061370b565b6001600160a01b0316336001600160a01b0316146129355760405162461bcd60e51b81526020600482015260076024820152662161636365737360c81b6044820152606401610246565b6001600160a01b038a1663da0f6c707ffeddffed075d0686e697569ece0ce2fd26bfbbb18719086f36d16c7117edb55360018c151514612976576000612979565b60015b6040516001600160e01b031960e085901b168152600481019290925260ff166024820152604401600060405180830381600087803b1580156129ba57600080fd5b505af11580156129ce573d6000803e3d6000fd5b505050508815610e7e57604051630f958b7160e41b81526001600160a01b038b169063f958b71090612a28907ffd9a8d4692ffc545577ff1979a0a918c2b536b6b6a891cf324a93b2c43907f83908c908c90600401613b6c565b600060405180830381600087803b158015612a4257600080fd5b505af1158015612a56573d6000803e3d6000fd5b5050604051630da0f6c760e41b81527f80140cd7e0b1d935bee578a67a41547c82987de8e7d6b3827d411b738110258b600482015260ff891660248201526001600160a01b038d16925063da0f6c709150604401600060405180830381600087803b158015612ac457600080fd5b505af1158015612ad8573d6000803e3d6000fd5b50506040516317ba7d8560e01b81527f2207fd6117465cefcba0abc867150698c0464aa41a293ec29ca01b67a6350c3c6004820152600092506001600160a01b038d1691506317ba7d859060240160206040518083038186803b158015612b3e57600080fd5b505afa158015612b52573d6000803e3d6000fd5b505050506040513d601f19601f82011682018060405250810190612b76919061370b565b604051630da0f6c760e41b81527f77041e0d128001928f30b976713fed530b452bc354a9bad49ad1bcf93121f9dc600482015260ff891660248201529091506001600160a01b038c169063da0f6c7090604401600060405180830381600087803b158015612be357600080fd5b505af1158015612bf7573d6000803e3d6000fd5b5050604051630da0f6c760e41b81527fcab672166d6a1c8dae3ca0b03fed2e7258db17c3c3801ac2651987b066d396476004820152602481018990526001600160a01b038e16925063da0f6c709150604401600060405180830381600087803b158015612c6357600080fd5b505af1158015612c77573d6000803e3d6000fd5b5050604051630da0f6c760e41b81527fcdc3057ec9c82a3ea3fd34ef56b1825924525fbab071e1a2b9d664a07f4004806004820152602481018790526001600160a01b038e16925063da0f6c709150604401600060405180830381600087803b158015612ce357600080fd5b505af1158015612cf7573d6000803e3d6000fd5b5050604051631da7c90d60e11b81527f0f57fc3a39a8a66c31f52eab69ced65d5ac74e4a182b215146a45a0281de53e860048201526001600160a01b0388811660248301528e169250633b4f921a9150604401600060405180830381600087803b158015612d6457600080fd5b505af1158015612d78573d6000803e3d6000fd5b505083159150612f629050576040516317ba7d8560e01b81527f2207fd6117465cefcba0abc867150698c0464aa41a293ec29ca01b67a6350c3c60048201526000906001600160a01b038d16906317ba7d859060240160206040518083038186803b158015612de657600080fd5b505afa158015612dfa573d6000803e3d6000fd5b505050506040513d601f19601f82011682018060405250810190612e1e919061370b565b6040517fff8bb0d00000000000000000000000000000000000000000000000000000000081526001600160a01b038e811660048301529192509082169063ff8bb0d090602401600060405180830381600087803b158015612e7e57600080fd5b505af1158015612e92573d6000803e3d6000fd5b5050505060005b60ff8116841115612f5f57826001600160a01b031663ac7e7eba8e87878560ff16818110612ed757634e487b7160e01b600052603260045260246000fd5b9050602002016020810190612eec91906136e8565b6040516001600160e01b031960e085901b1681526001600160a01b03928316600482015291166024820152604401600060405180830381600087803b158015612f3457600080fd5b505af1158015612f48573d6000803e3d6000fd5b505050508080612f5790613bc0565b915050612e99565b50505b5050505050505050505050565b6040516317ba7d8560e01b81527ff3ce48289b9021e92bc5661ccf481e756dcb8de846c2eb9620bb83917cab523760048201526001600160a01b038b16906317ba7d859060240160206040518083038186803b158015612fce57600080fd5b505afa158015612fe2573d6000803e3d6000fd5b505050506040513d601f19601f82011682018060405250810190613006919061370b565b6001600160a01b0316336001600160a01b0316146130505760405162461bcd60e51b81526020600482015260076024820152662161636365737360c81b6044820152606401610246565b88156130db57604051630da0f6c760e41b81527f2073e6ba5c75026b006fdd165596d94b89cada2e00d8e44a99d422de8ea467e06004820152600160248201526001600160a01b038b169063da0f6c7090604401600060405180830381600087803b1580156130be57600080fd5b505af11580156130d2573d6000803e3d6000fd5b5050505061315c565b604051630da0f6c760e41b81527f2073e6ba5c75026b006fdd165596d94b89cada2e00d8e44a99d422de8ea467e06004820152600060248201526001600160a01b038b169063da0f6c7090604401600060405180830381600087803b15801561314357600080fd5b505af1158015613157573d6000803e3d6000fd5b505050505b8815610e7e57604051630da0f6c760e41b81527f2073e6ba5c75026b006fdd165596d94b89cada2e00d8e44a99d422de8ea467e06004820152600160248201526001600160a01b038b169063da0f6c7090604401600060405180830381600087803b1580156131ca57600080fd5b505af11580156131de573d6000803e3d6000fd5b5050604051630f958b7160e41b81526001600160a01b038d16925063f958b7109150613232907fed2fa238da16f9e9bea8f1aa8dc2f0d04c522f8adbda71cc4ea5c11f5a51f32d908c908c90600401613b6c565b600060405180830381600087803b15801561324c57600080fd5b505af1158015613260573d6000803e3d6000fd5b5050604051630da0f6c760e41b81527ff6d5f030b79ca78dad001b87a49239ec96be97e62d13501da94c9a392700509e6004820152602481018990526001600160a01b038d16925063da0f6c709150604401600060405180830381600087803b1580156132cc57600080fd5b505af11580156132e0573d6000803e3d6000fd5b5050604051631da7c90d60e11b81527f30091caaedd0994beeeeb3b7b5734296263687ae0126aaf79e5e0f8e5c1706b260048201526001600160a01b0386811660248301528d169250633b4f921a9150604401600060405180830381600087803b15801561334d57600080fd5b505af1158015613361573d6000803e3d6000fd5b5050604051630da0f6c760e41b81527fb34f156369747125f679c86d97f51861a5a2a9f927a1addd4354acbaaa88ae576004820152602481018890526001600160a01b038d16925063da0f6c709150604401600060405180830381600087803b1580156133cd57600080fd5b505af11580156133e1573d6000803e3d6000fd5b5050604051630da0f6c760e41b81527f57901982635f8a470a3648422f8f769cf08dc2057489be5bf0099fcb44f7d43c6004820152602481018790526001600160a01b038d16925063da0f6c709150604401600060405180830381600087803b15801561344d57600080fd5b505af1158015613461573d6000803e3d6000fd5b505082159150610e7e9050576040516317ba7d8560e01b81527f7a8526bca00f0726b2fab8c3bfd5b00bfa84d07f111e48263b13de605eefcdda60048201526000906001600160a01b038c16906317ba7d859060240160206040518083038186803b1580156134cf57600080fd5b505afa1580156134e3573d6000803e3d6000fd5b505050506040513d601f19601f82011682018060405250810190613507919061370b565b6040517f6e0717e50000000000000000000000000000000000000000000000000000000081526001600160a01b038d8116600483015291925090821690636e0717e590602401600060405180830381600087803b15801561356757600080fd5b505af115801561357b573d6000803e3d6000fd5b5050505060005b60ff8116831115610e7b57816001600160a01b031663c7aa00dd8d86868560ff168181106135c057634e487b7160e01b600052603260045260246000fd5b90506020020160208101906135d591906136e8565b6040516001600160e01b031960e085901b1681526001600160a01b03928316600482015291166024820152604401600060405180830381600087803b15801561361d57600080fd5b505af1158015613631573d6000803e3d6000fd5b50505050808061364090613bc0565b915050613582565b60008083601f840112613659578182fd5b50813567ffffffffffffffff811115613670578182fd5b6020830191508360208260051b850101111561368b57600080fd5b9250929050565b60008083601f8401126136a3578182fd5b50813567ffffffffffffffff8111156136ba578182fd5b60208301915083602082850101111561368b57600080fd5b803560ff811681146136e357600080fd5b919050565b6000602082840312156136f9578081fd5b813561370481613bec565b9392505050565b60006020828403121561371c578081fd5b815161370481613bec565b600060208284031215613738578081fd5b815161370481613c04565b600060208284031215613754578081fd5b5051919050565b6000806000806000806000610180888a031215613776578283fd5b873561378181613bec565b9650602088013561379181613bec565b95506101408801898111156137a4578384fd5b6040890195503567ffffffffffffffff808211156137c0578485fd5b6137cc8b838c01613648565b90965094506101608a01359150808211156137e5578384fd5b506137f28a828b01613648565b989b979a50959850939692959293505050565b6000806000806000806000806101e0898b031215613821578081fd5b883561382c81613bec565b975061014089018a81111561383f578182fd5b60208a0197506101808a018b811115613856578283fd5b9096503567ffffffffffffffff8082111561386f578283fd5b61387b8c838d01613648565b90975095506101a08b0135915061389182613c04565b9093506101c08a013590808211156138a7578283fd5b506138b48b828c01613692565b999c989b5096995094979396929594505050565b6000806000806000806000806000806101008b8d0312156138e7578182fd5b8a356138f281613bec565b995060208b013561390281613c04565b985060408b013567ffffffffffffffff8082111561391e578384fd5b61392a8e838f01613692565b909a50985060608d0135975060808d0135915061394682613bec565b81965060a08d0135955061395c60c08e016136d2565b945060e08d0135915080821115613971578384fd5b5061397e8d828e01613648565b915080935050809150509295989b9194979a5092959850565b6000806000806000806000806000806101008b8d0312156139b6578384fd5b8a356139c181613bec565b995060208b01356139d181613c04565b985060408b013567ffffffffffffffff808211156139ed578586fd5b6139f98e838f01613692565b909a50985060608d0135975060808d0135965060a08d0135955060c08d01359150613a2382613bec565b90935060e08c01359080821115613971578384fd5b6000806000806000806000806000806101008b8d031215613a57578384fd5b8a35613a6281613bec565b995060208b0135613a7281613c04565b985060408b013567ffffffffffffffff80821115613a8e578586fd5b613a9a8e838f01613692565b909a509850889150613aae60608e016136d2565b975060808d0135965060a08d01359150613ac782613bec565b90945060c08c0135935060e08c01359080821115613971578384fd5b600080600060608486031215613af7578081fd5b8335613b0281613bec565b92506020840135613b1281613c04565b929592945050506040919091013590565b60008060008060808587031215613b38578182fd5b8435613b4381613bec565b935060208501359250604085013591506060850135613b6181613bec565b939692955090935050565b83815260406020820152816040820152818360608301376000818301606090810191909152601f9092017fffffffffffffffffffffffffffffffffffffffffffffffffffffffffffffffe016010192915050565b600060ff821660ff811415613be357634e487b7160e01b82526011600452602482fd5b60010192915050565b6001600160a01b0381168114613c0157600080fd5b50565b8015158114613c0157600080fdfea264697066735822122063708974251814033b67ab0eefe82d09b2b70f8bf70203e581bd3575b70a4b7664736f6c63430008040033",
  "linkReferences": {},
  "deployedLinkReferences": {}
}