{
  "_format": "hh-sol-artifact-1",
  "contractName": "FlexInvestmentPoolAdapterContract",
  "sourceName": "contracts/flex/adatpers/FlexFundingPoolAdapter.sol",
  "abi": [
    {
      "inputs": [],
      "name": "ExceedMaxDepositAmount",
      "type": "error"
    },
    {
      "inputs": [],
      "name": "ExceedMaxFundingAmount",
      "type": "error"
    },
    {
      "inputs": [],
      "name": "FundingProposalNotFinalize",
      "type": "error"
    },
    {
      "inputs": [],
      "name": "LessMinDepositAmount",
      "type": "error"
    },
    {
      "inputs": [],
      "name": "MaxInvestorReach",
      "type": "error"
    },
    {
      "inputs": [],
      "name": "NotInFundRaise",
      "type": "error"
    },
    {
      "anonymous": false,
      "inputs": [
        {
          "indexed": false,
          "internalType": "address",
          "name": "daoAddress",
          "type": "address"
        },
        {
          "indexed": false,
          "internalType": "bytes32",
          "name": "proposalId",
          "type": "bytes32"
        },
        {
          "indexed": false,
          "internalType": "uint256",
          "name": "amount",
          "type": "uint256"
        },
        {
          "indexed": false,
          "internalType": "address",
          "name": "account",
          "type": "address"
        }
      ],
      "name": "Deposit",
      "type": "event"
    },
    {
      "anonymous": false,
      "inputs": [
        {
          "indexed": false,
          "internalType": "address",
          "name": "daoAddress",
          "type": "address"
        },
        {
          "indexed": false,
          "internalType": "string",
          "name": "name",
          "type": "string"
        },
        {
          "indexed": false,
          "internalType": "bytes32",
          "name": "hashName",
          "type": "bytes32"
        }
      ],
      "name": "InvestorMembershipCreated",
      "type": "event"
    },
    {
      "anonymous": false,
      "inputs": [
        {
          "indexed": false,
          "internalType": "address",
          "name": "daoAddress",
          "type": "address"
        },
        {
          "indexed": false,
          "internalType": "bytes32",
          "name": "proposalId",
          "type": "bytes32"
        },
        {
          "indexed": false,
          "internalType": "uint256",
          "name": "amount",
          "type": "uint256"
        },
        {
          "indexed": false,
          "internalType": "address",
          "name": "account",
          "type": "address"
        }
      ],
      "name": "WithDraw",
      "type": "event"
    },
    {
      "inputs": [
        {
          "internalType": "contract DaoRegistry",
          "name": "dao",
          "type": "address"
        },
        {
          "internalType": "bytes32",
          "name": "proposalId",
          "type": "bytes32"
        },
        {
          "internalType": "address",
          "name": "account",
          "type": "address"
        }
      ],
      "name": "balanceOf",
      "outputs": [
        {
          "internalType": "uint160",
          "name": "",
          "type": "uint160"
        }
      ],
      "stateMutability": "view",
      "type": "function"
    },
    {
      "inputs": [
        {
          "internalType": "contract DaoRegistry",
          "name": "dao",
          "type": "address"
        }
      ],
      "name": "clearInvestorWhitelist",
      "outputs": [],
      "stateMutability": "nonpayable",
      "type": "function"
    },
    {
      "inputs": [
        {
          "internalType": "contract DaoRegistry",
          "name": "dao",
          "type": "address"
        },
        {
          "internalType": "bytes32",
          "name": "proposalId",
          "type": "bytes32"
        },
        {
          "internalType": "uint256",
          "name": "amount",
          "type": "uint256"
        }
      ],
      "name": "deposit",
      "outputs": [],
      "stateMutability": "nonpayable",
      "type": "function"
    },
    {
      "inputs": [
        {
          "internalType": "contract DaoRegistry",
          "name": "dao",
          "type": "address"
        },
        {
          "internalType": "bytes32",
          "name": "proposalId",
          "type": "bytes32"
        }
      ],
      "name": "escorwExtraFreeInFund",
      "outputs": [],
      "stateMutability": "nonpayable",
      "type": "function"
    },
    {
      "inputs": [
        {
          "internalType": "address",
          "name": "",
          "type": "address"
        },
        {
          "internalType": "bytes32",
          "name": "",
          "type": "bytes32"
        }
      ],
      "name": "freeINPriorityDeposits",
      "outputs": [
        {
          "internalType": "uint256",
          "name": "",
          "type": "uint256"
        }
      ],
      "stateMutability": "view",
      "type": "function"
    },
    {
      "inputs": [
        {
          "internalType": "address",
          "name": "",
          "type": "address"
        },
        {
          "internalType": "bytes32",
          "name": "",
          "type": "bytes32"
        }
      ],
      "name": "freeInExtraAmount",
      "outputs": [
        {
          "internalType": "uint256",
          "name": "",
          "type": "uint256"
        }
      ],
      "stateMutability": "view",
      "type": "function"
    },
    {
      "inputs": [
        {
          "internalType": "contract DaoRegistry",
          "name": "dao",
          "type": "address"
        }
      ],
      "name": "getParticipanWhitelist",
      "outputs": [
        {
          "internalType": "address[]",
          "name": "",
          "type": "address[]"
        }
      ],
      "stateMutability": "view",
      "type": "function"
    },
    {
      "inputs": [
        {
          "internalType": "contract DaoRegistry",
          "name": "dao",
          "type": "address"
        }
      ],
      "name": "getPriorityDepositWhitelist",
      "outputs": [
        {
          "internalType": "address[]",
          "name": "",
          "type": "address[]"
        }
      ],
      "stateMutability": "view",
      "type": "function"
    },
    {
      "inputs": [
        {
          "internalType": "contract DaoRegistry",
          "name": "dao",
          "type": "address"
        },
        {
          "internalType": "bytes32",
          "name": "proposalId",
          "type": "bytes32"
        }
      ],
      "name": "getTotalFundByProposalId",
      "outputs": [
        {
          "internalType": "uint160",
          "name": "",
          "type": "uint160"
        }
      ],
      "stateMutability": "view",
      "type": "function"
    },
    {
      "inputs": [
        {
          "internalType": "contract DaoRegistry",
          "name": "dao",
          "type": "address"
        },
        {
          "internalType": "uint256",
          "name": "timeStamp",
          "type": "uint256"
        }
      ],
      "name": "ifInRedemptionPeriod",
      "outputs": [
        {
          "internalType": "bool",
          "name": "",
          "type": "bool"
        }
      ],
      "stateMutability": "view",
      "type": "function"
    },
    {
      "inputs": [
        {
          "internalType": "address",
          "name": "",
          "type": "address"
        },
        {
          "internalType": "bytes32",
          "name": "",
          "type": "bytes32"
        }
      ],
      "name": "investorMemberShips",
      "outputs": [
        {
          "internalType": "bool",
          "name": "created",
          "type": "bool"
        },
        {
          "internalType": "uint8",
          "name": "varifyType",
          "type": "uint8"
        },
        {
          "internalType": "uint256",
          "name": "minHolding",
          "type": "uint256"
        },
        {
          "internalType": "address",
          "name": "tokenAddress",
          "type": "address"
        },
        {
          "internalType": "uint256",
          "name": "tokenId",
          "type": "uint256"
        }
      ],
      "stateMutability": "view",
      "type": "function"
    },
    {
      "inputs": [
        {
          "internalType": "contract DaoRegistry",
          "name": "dao",
          "type": "address"
        },
        {
          "internalType": "address",
          "name": "_addr",
          "type": "address"
        }
      ],
      "name": "isActiveMember",
      "outputs": [
        {
          "internalType": "bool",
          "name": "",
          "type": "bool"
        }
      ],
      "stateMutability": "view",
      "type": "function"
    },
    {
      "inputs": [
        {
          "internalType": "contract DaoRegistry",
          "name": "dao",
          "type": "address"
        },
        {
          "internalType": "address",
          "name": "account",
          "type": "address"
        }
      ],
      "name": "isInvestorWhiteList",
      "outputs": [
        {
          "internalType": "bool",
          "name": "",
          "type": "bool"
        }
      ],
      "stateMutability": "view",
      "type": "function"
    },
    {
      "inputs": [
        {
          "internalType": "contract DaoRegistry",
          "name": "dao",
          "type": "address"
        },
        {
          "internalType": "address",
          "name": "account",
          "type": "address"
        }
      ],
      "name": "isPriorityDepositWhitelist",
      "outputs": [
        {
          "internalType": "bool",
          "name": "",
          "type": "bool"
        }
      ],
      "stateMutability": "view",
      "type": "function"
    },
    {
      "inputs": [
        {
          "internalType": "contract DaoRegistry",
          "name": "dao",
          "type": "address"
        },
        {
          "internalType": "address",
          "name": "account",
          "type": "address"
        }
      ],
      "name": "registerInvestorWhiteList",
      "outputs": [],
      "stateMutability": "nonpayable",
      "type": "function"
    },
    {
      "inputs": [
        {
          "internalType": "contract DaoRegistry",
          "name": "dao",
          "type": "address"
        },
        {
          "internalType": "address",
          "name": "account",
          "type": "address"
        }
      ],
      "name": "registerPriorityDepositWhiteList",
      "outputs": [],
      "stateMutability": "nonpayable",
      "type": "function"
    },
    {
      "inputs": [
        {
          "internalType": "contract DaoRegistry",
          "name": "dao",
          "type": "address"
        },
        {
          "internalType": "bytes32",
          "name": "proposalId",
          "type": "bytes32"
        },
        {
          "internalType": "uint160",
          "name": "amount",
          "type": "uint160"
        }
      ],
      "name": "withdraw",
      "outputs": [],
      "stateMutability": "nonpayable",
      "type": "function"
    }
  ],
  "bytecode": "0x608060405234801561001057600080fd5b50614b0e806100206000396000f3fe608060405234801561001057600080fd5b506004361061011b5760003560e01c8063861f6752116100b2578063e13efafa11610081578063ec28eb9011610066578063ec28eb90146102a4578063f614aea31461032b578063ff8bb0d01461033e57600080fd5b8063e13efafa1461027e578063eb2243f81461029157600080fd5b8063861f67521461021a5780638ecf772014610245578063ac7e7eba14610258578063aed71fde1461026b57600080fd5b8063239dd228116100ee578063239dd228146101be5780633a844ec0146101d15780634aa587c9146101f457806375e427441461020757600080fd5b80630617b0ce1461012057806307832bfd146101505780631005e5b81461016557806314a6c0561461019e575b600080fd5b61013361012e36600461477b565b610351565b6040516001600160a01b0390911681526020015b60405180910390f35b61016361015e366004614743565b61047a565b005b61019061017336600461448e565b600460209081526000928352604080842090915290825290205481565b604051908152602001610147565b6101b16101ac366004614727565b6104d4565b604051610147919061488d565b6101636101cc36600461478d565b6104f8565b6101e46101df36600461477b565b610b8c565b6040519015158152602001610147565b6101b1610202366004614727565b610edd565b61013361021536600461478d565b610f01565b61019061022836600461448e565b600360209081526000928352604080842090915290825290205481565b6101e4610253366004614743565b61102c565b610163610266366004614743565b6110c2565b6101e4610279366004614743565b611285565b6101e461028c366004614743565b6112a7565b61016361029f3660046147ce565b6112c9565b6102f66102b236600461448e565b60016020818152600093845260408085209091529183529120805491810154600282015460039092015460ff80851694610100900416926001600160a01b03169085565b60408051951515865260ff9094166020860152928401919091526001600160a01b03166060830152608082015260a001610147565b61016361033936600461477b565b6129f2565b61016361034c366004614727565b613683565b604051632c9f4b5b60e11b81527fb12a3847d47fefceb164b75823af125f9aa82b76938df0ddf08c04cd314ba37c600482015260009081906001600160a01b0385169063593e96b69060240160206040518083038186803b1580156103b557600080fd5b505afa1580156103c9573d6000803e3d6000fd5b505050506040513d601f19601f820116820180604052508101906103ed9190614472565b604051636101c11b60e11b81526004810185905261babe60248201529091506001600160a01b0382169063c20382369060440160206040518083038186803b15801561043857600080fd5b505afa15801561044c573d6000803e3d6000fd5b505050506040513d601f19601f820116820180604052508101906104709190614472565b9150505b92915050565b816104858133613814565b6001600160a01b03831660009081526002602052604090206104a7908361386a565b6104cf576001600160a01b03831660009081526002602052604090206104cd908361388c565b505b505050565b6001600160a01b0381166000908152600260205260409020606090610474906138a1565b826000610504826138ae565b604051632c9f4b5b60e11b81527fb12a3847d47fefceb164b75823af125f9aa82b76938df0ddf08c04cd314ba37c60048201529091506000906001600160a01b0387169063593e96b69060240160206040518083038186803b15801561056957600080fd5b505afa15801561057d573d6000803e3d6000fd5b505050506040513d601f19601f820116820180604052508101906105a19190614472565b604051636101c11b60e11b8152600481018790523360248201529091506000906001600160a01b0383169063c20382369060440160206040518083038186803b1580156105ed57600080fd5b505afa158015610601573d6000803e3d6000fd5b505050506040513d601f19601f820116820180604052508101906106259190614472565b6001600160a01b03169050600081118015610649575080856001600160a01b031611155b61069a5760405162461bcd60e51b815260206004820152600760248201527f21616d6f756e740000000000000000000000000000000000000000000000000060448201526064015b60405180910390fd5b6040516317ba7d8560e01b81527f7a8526bca00f0726b2fab8c3bfd5b00bfa84d07f111e48263b13de605eefcdda60048201526000906001600160a01b038916906317ba7d859060240160206040518083038186803b1580156106fc57600080fd5b505afa158015610710573d6000803e3d6000fd5b505050506040513d601f19601f820116820180604052508101906107349190614472565b6040516317ba7d8560e01b81527fc8e81510cbc5ec7970040e233b001587da1ea4484a9f7b8710d3322429c2df2360048201529091506000906001600160a01b038a16906317ba7d859060240160206040518083038186803b15801561079957600080fd5b505afa1580156107ad573d6000803e3d6000fd5b505050506040513d601f19601f820116820180604052508101906107d19190614472565b6040517fbf4999940000000000000000000000000000000000000000000000000000000081526001600160a01b038b81166004830152602482018b905291925060009182919085169063bf4999949060440160006040518083038186803b15801561083b57600080fd5b505afa15801561084f573d6000803e3d6000fd5b505050506040513d6000823e601f3d908101601f1916820160405261087791908101906144b9565b509750505050945050505042826040015111806108c157504282604001511080156108c1575060048160048111156108bf57634e487b7160e01b600052602160045260246000fd5b145b61090d5760405162461bcd60e51b815260206004820152600960248201527f21776974686472617700000000000000000000000000000000000000000000006044820152606401610691565b6040517fbf4999940000000000000000000000000000000000000000000000000000000081526001600160a01b038c81166004830152602482018c90526000919086169063bf4999949060440160006040518083038186803b15801561097257600080fd5b505afa158015610986573d6000803e3d6000fd5b505050506040513d6000823e601f3d908101601f191682016040526109ae91908101906144b9565b50505050505050915050866001600160a01b0316638e0cc1768c3384600001518e6040518563ffffffff1660e01b8152600401610a1094939291909384526001600160a01b039283166020850152908216604084015216606082015260800190565b600060405180830381600087803b158015610a2a57600080fd5b505af1158015610a3e573d6000803e3d6000fd5b50506040517f6d3cc0400000000000000000000000000000000000000000000000000000000081526001600160a01b038f81166004830152602482018f905233604483015287169250636d3cc040915060640160206040518083038186803b158015610aa957600080fd5b505afa158015610abd573d6000803e3d6000fd5b505050506040513d601f19601f82011682018060405250810190610ae191906146e2565b15610b24576001600160a01b038c811660009081526003602090815260408083208f845290915281208054928d1692909190610b1e908490614a24565b90915550505b604080516001600160a01b038e81168252602082018e90528c168183015233606082015290517fb3085ed0819e7a24ea01cc7517959d320c556f8d657f4eb66a77c92362aeccf49181900360800190a150505050505050610b858282613b79565b5050505050565b604051634941d71d60e11b81527fd99dae5492aa0c08830764a319f29225cc739a0ed8683d8fd1b5bc3a8fe31672600482015260009081906001600160a01b03851690639283ae3a9060240160206040518083038186803b158015610bf057600080fd5b505afa158015610c04573d6000803e3d6000fd5b505050506040513d601f19601f82011682018060405250810190610c289190614836565b604051634941d71d60e11b81527f9ce69cf04065e3c7823cc5540c0598d8a694bd7a9a5a2a786d8bccf14ed6e2ea60048201529091506000906001600160a01b03861690639283ae3a9060240160206040518083038186803b158015610c8d57600080fd5b505afa158015610ca1573d6000803e3d6000fd5b505050506040513d601f19601f82011682018060405250810190610cc59190614836565b604051634941d71d60e11b81527f6a2acfe6164f3ec20e6d80e2f4e4f7ae2b9962615c9596c872d01f6cd244aed360048201529091506000906001600160a01b03871690639283ae3a9060240160206040518083038186803b158015610d2a57600080fd5b505afa158015610d3e573d6000803e3d6000fd5b505050506040513d601f19601f82011682018060405250810190610d629190614836565b604051634941d71d60e11b81527f2305fa3a9f84625f75d70f539e621c658cf49e7477ab5af9cacd278ca7904e3060048201529091506000906001600160a01b03881690639283ae3a9060240160206040518083038186803b158015610dc757600080fd5b505afa158015610ddb573d6000803e3d6000fd5b505050506040513d601f19601f82011682018060405250810190610dff9190614836565b90506000610e0d8585614a24565b9050821580610e1a575081155b80610e23575080155b15610e3657600095505050505050610474565b6000610e4284836149c7565b905060008060005b838111610ecb578215610e6657610e6187846149af565b610e70565b610e70878a6149af565b9250610e7c8684614a24565b9150818b118015610e8c5750828b105b8015610e975750888b115b8015610ea25750878b105b15610eb95760019950505050505050505050610474565b610ec46001826149af565b9050610e4a565b5060009b9a5050505050505050505050565b6001600160a01b0381166000908152602081905260409020606090610474906138a1565b604051632c9f4b5b60e11b81527fb12a3847d47fefceb164b75823af125f9aa82b76938df0ddf08c04cd314ba37c600482015260009081906001600160a01b0386169063593e96b69060240160206040518083038186803b158015610f6557600080fd5b505afa158015610f79573d6000803e3d6000fd5b505050506040513d601f19601f82011682018060405250810190610f9d9190614472565b604051636101c11b60e11b8152600481018690526001600160a01b0385811660248301529192509082169063c20382369060440160206040518083038186803b158015610fe957600080fd5b505afa158015610ffd573d6000803e3d6000fd5b505050506040513d601f19601f820116820180604052508101906110219190614472565b9150505b9392505050565b6040517fa230c5240000000000000000000000000000000000000000000000000000000081526001600160a01b0382811660048301526000919084169063a230c5249060240160206040518083038186803b15801561108a57600080fd5b505afa15801561109e573d6000803e3d6000fd5b505050506040513d601f19601f8201168201806040525081019061102591906146e2565b6040516317ba7d8560e01b81527fff9379b98b93eb3bd1fac62fd2258a7955d70d2d5279c40064145b6c9646df3760048201526001600160a01b038316906317ba7d859060240160206040518083038186803b15801561112157600080fd5b505afa158015611135573d6000803e3d6000fd5b505050506040513d601f19601f820116820180604052508101906111599190614472565b6001600160a01b0316336001600160a01b0316148061120357506040517fa230c5240000000000000000000000000000000000000000000000000000000081523360048201526001600160a01b0383169063a230c5249060240160206040518083038186803b1580156111cb57600080fd5b505afa1580156111df573d6000803e3d6000fd5b505050506040513d601f19601f8201168201806040525081019061120391906146e2565b6112395760405162461bcd60e51b81526020600482015260076024820152662161636365737360c81b6044820152606401610691565b6001600160a01b038216600090815260208190526040902061125b908261386a565b611281576001600160a01b03821660009081526020819052604090206104cf908261388c565b5050565b6001600160a01b0382166000908152600260205260408120611025908361386a565b6001600160a01b0382166000908152602081905260408120611025908361386a565b604051634941d71d60e11b81527ffeddffed075d0686e697569ece0ce2fd26bfbbb18719086f36d16c7117edb553600482015283906001600160a01b03821690639283ae3a9060240160206040518083038186803b15801561132a57600080fd5b505afa15801561133e573d6000803e3d6000fd5b505050506040513d601f19601f820116820180604052508101906113629190614836565b60011415611ab4576040516317ba7d8560e01b81527f2207fd6117465cefcba0abc867150698c0464aa41a293ec29ca01b67a6350c3c60048201526000906001600160a01b038316906317ba7d859060240160206040518083038186803b1580156113cc57600080fd5b505afa1580156113e0573d6000803e3d6000fd5b505050506040513d601f19601f820116820180604052508101906114049190614472565b604051634941d71d60e11b81527f77041e0d128001928f30b976713fed530b452bc354a9bad49ad1bcf93121f9dc60048201529091506000906001600160a01b03841690639283ae3a9060240160206040518083038186803b15801561146957600080fd5b505afa15801561147d573d6000803e3d6000fd5b505050506040513d601f19601f820116820180604052508101906114a19190614836565b604051634941d71d60e11b81527fcab672166d6a1c8dae3ca0b03fed2e7258db17c3c3801ac2651987b066d3964760048201529091506000906001600160a01b03851690639283ae3a9060240160206040518083038186803b15801561150657600080fd5b505afa15801561151a573d6000803e3d6000fd5b505050506040513d601f19601f8201168201806040525081019061153e9190614836565b604051634941d71d60e11b81527fcdc3057ec9c82a3ea3fd34ef56b1825924525fbab071e1a2b9d664a07f40048060048201529091506000906001600160a01b03861690639283ae3a9060240160206040518083038186803b1580156115a357600080fd5b505afa1580156115b7573d6000803e3d6000fd5b505050506040513d601f19601f820116820180604052508101906115db9190614836565b6040517ffd310d290000000000000000000000000000000000000000000000000000000081527f0f57fc3a39a8a66c31f52eab69ced65d5ac74e4a182b215146a45a0281de53e860048201529091506000906001600160a01b0387169063fd310d299060240160206040518083038186803b15801561165957600080fd5b505afa15801561166d573d6000803e3d6000fd5b505050506040513d601f19601f820116820180604052508101906116919190614472565b90508361179e576040517f70a0823100000000000000000000000000000000000000000000000000000000815233600482015283906001600160a01b038316906370a082319060240160206040518083038186803b1580156116f257600080fd5b505afa158015611706573d6000803e3d6000fd5b505050506040513d601f19601f8201168201806040525081019061172a9190614836565b101561179e5760405162461bcd60e51b815260206004820152602d60248201527f3c696e766573746f72206d656d6265727368697020657263323020746f6b656e60448201527f206d696e6920686f6c64696e67000000000000000000000000000000000000006064820152608401610691565b83600114156118ad576040517f70a0823100000000000000000000000000000000000000000000000000000000815233600482015283906001600160a01b038316906370a082319060240160206040518083038186803b15801561180157600080fd5b505afa158015611815573d6000803e3d6000fd5b505050506040513d601f19601f820116820180604052508101906118399190614836565b10156118ad5760405162461bcd60e51b815260206004820152602e60248201527f3c696e766573746f72206d656d626572736869702065726337323120746f6b6560448201527f6e206d696e6920686f6c64696e670000000000000000000000000000000000006064820152608401610691565b83600214156119c1576040517efdd58e0000000000000000000000000000000000000000000000000000000081523360048201526024810183905283906001600160a01b0383169062fdd58e9060440160206040518083038186803b15801561191557600080fd5b505afa158015611929573d6000803e3d6000fd5b505050506040513d601f19601f8201168201806040525081019061194d9190614836565b10156119c15760405162461bcd60e51b815260206004820152602f60248201527f3c696e766573746f72206d656d62657273686970206572633131353520746f6b60448201527f656e206d696e6920686f6c64696e6700000000000000000000000000000000006064820152608401610691565b8360031415611aae576040517fe13efafa0000000000000000000000000000000000000000000000000000000081526001600160a01b03878116600483015233602483015286169063e13efafa9060440160206040518083038186803b158015611a2a57600080fd5b505afa158015611a3e573d6000803e3d6000fd5b505050506040513d601f19601f82011682018060405250810190611a6291906146e2565b611aae5760405162461bcd60e51b815260206004820152601e60248201527f21696e766573746f72206d656d626572736869702077686974656c69737400006044820152606401610691565b50505050505b836000611ac0826138ae565b9050611b38604080516101808101825260008082526020820181905291810182905290606082019081526020016000815260200160008152602001600081526020016000815260200160006001600160a01b0316815260200160006001600160a01b0316815260200160008152602001600081525090565b6040516317ba7d8560e01b81527f7a8526bca00f0726b2fab8c3bfd5b00bfa84d07f111e48263b13de605eefcdda60048201526001600160a01b038816906317ba7d859060240160206040518083038186803b158015611b9757600080fd5b505afa158015611bab573d6000803e3d6000fd5b505050506040513d601f19601f82011682018060405250810190611bcf9190614472565b6001600160a01b039081168252604051632c9f4b5b60e11b81527fb12a3847d47fefceb164b75823af125f9aa82b76938df0ddf08c04cd314ba37c60048201529088169063593e96b69060240160206040518083038186803b158015611c3457600080fd5b505afa158015611c48573d6000803e3d6000fd5b505050506040513d601f19601f82011682018060405250810190611c6c9190614472565b6001600160a01b03908116604083810191909152516317ba7d8560e01b81527fc8e81510cbc5ec7970040e233b001587da1ea4484a9f7b8710d3322429c2df236004820152908816906317ba7d859060240160206040518083038186803b158015611cd657600080fd5b505afa158015611cea573d6000803e3d6000fd5b505050506040513d601f19601f82011682018060405250810190611d0e9190614472565b6001600160a01b03908116602083015260408083015190517fe38a5a640000000000000000000000000000000000000000000000000000000081526004810189905291169063e38a5a649060240160006040518083038186803b158015611d7457600080fd5b505afa158015611d88573d6000803e3d6000fd5b505050506040513d6000823e601f3d908101601f19168201604052611db0919081019061462e565b51610160820152604051634941d71d60e11b81527f69f4ffb3ebcb7809550bddd3e4d449a47e737bf6635bc7a730996643997b0e4860048201526001600160a01b03881690639283ae3a9060240160206040518083038186803b158015611e1657600080fd5b505afa158015611e2a573d6000803e3d6000fd5b505050506040513d601f19601f82011682018060405250810190611e4e9190614836565b6001148015611ef85750604051634941d71d60e11b81527fecbde689cc6337d29a750b8b8a8abbfa97427b4ac800ab55be2f2c87311510f260048201526001600160a01b03881690639283ae3a9060240160206040518083038186803b158015611eb757600080fd5b505afa158015611ecb573d6000803e3d6000fd5b505050506040513d601f19601f82011682018060405250810190611eef9190614836565b81610160015110155b8015611f9e575060408082015190517f6ca0b5c8000000000000000000000000000000000000000000000000000000008152600481018890523360248201526001600160a01b0390911690636ca0b5c89060440160206040518083038186803b158015611f6457600080fd5b505afa158015611f78573d6000803e3d6000fd5b505050506040513d601f19601f82011682018060405250810190611f9c91906146e2565b155b15611fd5576040517ff435457800000000000000000000000000000000000000000000000000000000815260040160405180910390fd5b60208101516040517f1ebf58f90000000000000000000000000000000000000000000000000000000081526001600160a01b038981166004830152602482018990526000921690631ebf58f99060440160206040518083038186803b15801561203d57600080fd5b505afa158015612051573d6000803e3d6000fd5b505050506040513d601f19601f82011682018060405250810190612075919061481c565b9050600181600481111561209957634e487b7160e01b600052602160045260246000fd5b146120d0576040517ffb9e169300000000000000000000000000000000000000000000000000000000815260040160405180910390fd5b60208201516040517f80dc31410000000000000000000000000000000000000000000000000000000081526001600160a01b038a81166004830152602482018a9052909116906380dc314190604401604080518083038186803b15801561213657600080fd5b505afa15801561214a573d6000803e3d6000fd5b505050506040513d601f19601f8201168201806040525081019061216e919061484e565b60a08401526080830181905242108061218a57508160a0015142115b156121c1576040517ffb9e169300000000000000000000000000000000000000000000000000000000815260040160405180910390fd5b600086116122115760405162461bcd60e51b815260206004820152600760248201527f21616d6f756e74000000000000000000000000000000000000000000000000006044820152606401610691565b60208201516040517fc3a8f0030000000000000000000000000000000000000000000000000000000081526001600160a01b038a81166004830152602482018a90529091169063c3a8f0039060440160206040518083038186803b15801561227857600080fd5b505afa15801561228c573d6000803e3d6000fd5b505050506040513d601f19601f820116820180604052508101906122b09190614802565b826060019060018111156122d457634e487b7160e01b600052602160045260246000fd5b908160018111156122f557634e487b7160e01b600052602160045260246000fd5b90525060208201516040517fb39f0a790000000000000000000000000000000000000000000000000000000081526001600160a01b038a81166004830152602482018a90529091169063b39f0a799060440160206040518083038186803b15801561235f57600080fd5b505afa158015612373573d6000803e3d6000fd5b505050506040513d601f19601f820116820180604052508101906123979190614836565b61014083015260208201516040517f6666c9bd0000000000000000000000000000000000000000000000000000000081526001600160a01b038a81166004830152602482018a905290911690636666c9bd90604401604080518083038186803b15801561240357600080fd5b505afa158015612417573d6000803e3d6000fd5b505050506040513d601f19601f8201168201806040525081019061243b919061484e565b60e084015260c083018190521580159061245857508160c0015186105b1561248f576040517f10981f1600000000000000000000000000000000000000000000000000000000815260040160405180910390fd5b60008260e001511180156124c457508160e00151866124af8a8a33610f01565b6001600160a01b03166124c291906149af565b115b156124fb576040517f75f4b91100000000000000000000000000000000000000000000000000000000815260040160405180910390fd5b60008260600151600181111561252157634e487b7160e01b600052602160045260246000fd5b14801561253357506000826101400151115b15612597578161014001518661254c8a8a61babe610f01565b6001600160a01b031661255f91906149af565b1115612597576040517f87ea887800000000000000000000000000000000000000000000000000000000815260040160405180910390fd5b60208201516040517f0c8c9a5c0000000000000000000000000000000000000000000000000000000081526001600160a01b038a81166004830152602482018a905290911690630c8c9a5c9060440160206040518083038186803b1580156125fe57600080fd5b505afa158015612612573d6000803e3d6000fd5b505050506040513d601f19601f820116820180604052508101906126369190614472565b6001600160a01b031661012083018190526040517f23b872dd000000000000000000000000000000000000000000000000000000008152336004820152306024820152604481018890526323b872dd90606401602060405180830381600087803b1580156126a357600080fd5b505af11580156126b7573d6000803e3d6000fd5b505050506040513d601f19601f820116820180604052508101906126db91906146e2565b50604051632c9f4b5b60e11b81527fb12a3847d47fefceb164b75823af125f9aa82b76938df0ddf08c04cd314ba37c600482015261278d906001600160a01b038a169063593e96b69060240160206040518083038186803b15801561273f57600080fd5b505afa158015612753573d6000803e3d6000fd5b505050506040513d601f19601f820116820180604052508101906127779190614472565b6101208401516001600160a01b03169088613b84565b6040516317ba7d8560e01b81527fc8e81510cbc5ec7970040e233b001587da1ea4484a9f7b8710d3322429c2df2360048201526001600160a01b038916906317ba7d859060240160206040518083038186803b1580156127ec57600080fd5b505afa158015612800573d6000803e3d6000fd5b505050506040513d601f19601f820116820180604052508101906128249190614472565b6001600160a01b03908116602084018190526040517f6d3cc040000000000000000000000000000000000000000000000000000000008152918a1660048301526024820189905233604483015290636d3cc0409060640160206040518083038186803b15801561289357600080fd5b505afa1580156128a7573d6000803e3d6000fd5b505050506040513d601f19601f820116820180604052508101906128cb91906146e2565b15612909576001600160a01b03881660009081526003602090815260408083208a8452909152812080548892906129039084906149af565b90915550505b60408083015190517ece27c200000000000000000000000000000000000000000000000000000000815260048101899052336024820152604481018890526001600160a01b039091169062ce27c290606401600060405180830381600087803b15801561297557600080fd5b505af1158015612989573d6000803e3d6000fd5b5050604080516001600160a01b038c168152602081018b90529081018990523360608201527fddcff2534e44ab893ab86cadbfcf556c7c257bd657d168b0bfed850311dfe4f89250608001905060405180910390a150506129ea8282613b79565b505050505050565b6040516317ba7d8560e01b81527f7a8526bca00f0726b2fab8c3bfd5b00bfa84d07f111e48263b13de605eefcdda60048201526001600160a01b038316906317ba7d859060240160206040518083038186803b158015612a5157600080fd5b505afa158015612a65573d6000803e3d6000fd5b505050506040513d601f19601f82011682018060405250810190612a899190614472565b6001600160a01b0316336001600160a01b031614612ad35760405162461bcd60e51b81526020600482015260076024820152662161636365737360c81b6044820152606401610691565b6040805161012081018252600080825260208201819052818301819052606082018190526080820181905260a0820181905260c0820181905260e0820181905261010082015290516317ba7d8560e01b81527fc8e81510cbc5ec7970040e233b001587da1ea4484a9f7b8710d3322429c2df2360048201526001600160a01b038416906317ba7d859060240160206040518083038186803b158015612b7757600080fd5b505afa158015612b8b573d6000803e3d6000fd5b505050506040513d601f19601f82011682018060405250810190612baf9190614472565b6001600160a01b0390811682526040516317ba7d8560e01b81527f7a8526bca00f0726b2fab8c3bfd5b00bfa84d07f111e48263b13de605eefcdda6004820152908416906317ba7d859060240160206040518083038186803b158015612c1457600080fd5b505afa158015612c28573d6000803e3d6000fd5b505050506040513d601f19601f82011682018060405250810190612c4c9190614472565b6001600160a01b03908116606083015281516040517fb39f0a7900000000000000000000000000000000000000000000000000000000815285831660048201526024810185905291169063b39f0a799060440160206040518083038186803b158015612cb757600080fd5b505afa158015612ccb573d6000803e3d6000fd5b505050506040513d601f19601f82011682018060405250810190612cef9190614836565b6080820152612d01838361babe610f01565b6001600160a01b031660a0820152600181516040517fc3a8f0030000000000000000000000000000000000000000000000000000000081526001600160a01b038681166004830152602482018690529091169063c3a8f0039060440160206040518083038186803b158015612d7557600080fd5b505afa158015612d89573d6000803e3d6000fd5b505050506040513d601f19601f82011682018060405250810190612dad9190614802565b6001811115612dcc57634e487b7160e01b600052602160045260246000fd5b148015612de0575080608001518160a00151115b156104cf57604051632c9f4b5b60e11b81527fb12a3847d47fefceb164b75823af125f9aa82b76938df0ddf08c04cd314ba37c60048201526001600160a01b0384169063593e96b69060240160206040518083038186803b158015612e4457600080fd5b505afa158015612e58573d6000803e3d6000fd5b505050506040513d601f19601f82011682018060405250810190612e7c9190614472565b6001600160a01b0316602082018190526040517fe38a5a64000000000000000000000000000000000000000000000000000000008152600481018490526000919063e38a5a649060240160006040518083038186803b158015612ede57600080fd5b505afa158015612ef2573d6000803e3d6000fd5b505050506040513d6000823e601f3d908101601f19168201604052612f1a919081019061462e565b600060e084015282516040517f0c8c9a5c0000000000000000000000000000000000000000000000000000000081526001600160a01b03878116600483015260248201879052929350911690630c8c9a5c9060440160206040518083038186803b158015612f8757600080fd5b505afa158015612f9b573d6000803e3d6000fd5b505050506040513d601f19601f82011682018060405250810190612fbf9190614472565b6001600160a01b039081166101008401526040516317ba7d8560e01b81527feae11da953333a83b6467e2193334fb302549e1a42ad5797082aea1ab6be91206004820152908516906317ba7d859060240160206040518083038186803b15801561302857600080fd5b505afa15801561303c573d6000803e3d6000fd5b505050506040513d601f19601f820116820180604052508101906130609190614472565b6001600160a01b0390811660408085019190915290851660009081526003602090815282822086835290529081205460c08401525b81518160ff1610156136335782608001518360c001511061325d5782600001516001600160a01b0316636d3cc0408686858560ff16815181106130e857634e487b7160e01b600052603260045260246000fd5b60200260200101516040518463ffffffff1660e01b815260040161312c939291906001600160a01b0393841681526020810192909252909116604082015260600190565b60206040518083038186803b15801561314457600080fd5b505afa158015613158573d6000803e3d6000fd5b505050506040513d601f19601f8201168201806040525081019061317c91906146e2565b15613222578260c0015183608001516131c08787868660ff16815181106131b357634e487b7160e01b600052603260045260246000fd5b6020026020010151610f01565b6001600160a01b03166131d391906149e7565b6131dd91906149c7565b6132058686858560ff16815181106131b357634e487b7160e01b600052603260045260246000fd5b6001600160a01b03166132189190614a24565b60e08401526133e8565b61324a8585848460ff16815181106131b357634e487b7160e01b600052603260045260246000fd5b6001600160a01b031660e08401526133e8565b82600001516001600160a01b0316636d3cc0408686858560ff168151811061329557634e487b7160e01b600052603260045260246000fd5b60200260200101516040518463ffffffff1660e01b81526004016132d9939291906001600160a01b0393841681526020810192909252909116604082015260600190565b60206040518083038186803b1580156132f157600080fd5b505afa158015613305573d6000803e3d6000fd5b505050506040513d601f19601f8201168201806040525081019061332991906146e2565b1561333a57600060e08401526133e8565b8260c001518360a0015161334e9190614a24565b8360c0015184608001516133629190614a24565b61338a8787868660ff16815181106131b357634e487b7160e01b600052603260045260246000fd5b6001600160a01b031661339d91906149e7565b6133a791906149c7565b6133cf8686858560ff16815181106131b357634e487b7160e01b600052603260045260246000fd5b6001600160a01b03166133e29190614a24565b60e08401525b60e0830151156136215782604001516001600160a01b031663078e209e8686866101000151868660ff168151811061343057634e487b7160e01b600052603260045260246000fd5b60200260200101518860e001516040518663ffffffff1660e01b815260040161348b9594939291906001600160a01b039586168152602081019490945291841660408401529092166060820152608081019190915260a00190565b600060405180830381600087803b1580156134a557600080fd5b505af11580156134b9573d6000803e3d6000fd5b5050505082602001516001600160a01b031663e21ccac185848460ff16815181106134f457634e487b7160e01b600052603260045260246000fd5b6020026020010151886001600160a01b03166317ba7d857feae11da953333a83b6467e2193334fb302549e1a42ad5797082aea1ab6be91206040518263ffffffff1660e01b815260040161354a91815260200190565b60206040518083038186803b15801561356257600080fd5b505afa158015613576573d6000803e3d6000fd5b505050506040513d601f19601f8201168201806040525081019061359a9190614472565b8761010001518860e001516040518663ffffffff1660e01b81526004016135ee9594939291909485526001600160a01b03938416602086015291831660408501529091166060830152608082015260a00190565b600060405180830381600087803b15801561360857600080fd5b505af115801561361c573d6000803e3d6000fd5b505050505b8061362b81614a67565b915050613095565b50613641848461babe610f01565b6001600160a01b03168260a001516136599190614a24565b6001600160a01b038516600090815260046020908152604080832087845290915290205550505050565b6040516317ba7d8560e01b81527fff9379b98b93eb3bd1fac62fd2258a7955d70d2d5279c40064145b6c9646df3760048201526001600160a01b038216906317ba7d859060240160206040518083038186803b1580156136e257600080fd5b505afa1580156136f6573d6000803e3d6000fd5b505050506040513d601f19601f8201168201806040525081019061371a9190614472565b6001600160a01b0316336001600160a01b0316146137645760405162461bcd60e51b81526020600482015260076024820152662161636365737360c81b6044820152606401610691565b6001600160a01b0381166000908152602081905260409020606090613788906138a1565b805190915080156104cf5760005b818160ff1610156104cd57613801838260ff16815181106137c757634e487b7160e01b600052603260045260246000fd5b6020026020010151600080876001600160a01b03166001600160a01b03168152602001908152602001600020613c0490919063ffffffff16565b508061380c81614a67565b915050613796565b61381e828261102c565b6112815760405162461bcd60e51b815260206004820152600c60248201527f6f6e6c79476f7665726e6f7200000000000000000000000000000000000000006044820152606401610691565b6001600160a01b03811660009081526001830160205260408120541515611025565b6000611025836001600160a01b038416613c19565b6060600061102583613c68565b6040805160808101825260008082526020820181905291810182905260608101919091525a81600001818152505043826001600160a01b031663b21634826040518163ffffffff1660e01b815260040160206040518083038186803b15801561391657600080fd5b505afa15801561392a573d6000803e3d6000fd5b505050506040513d601f19601f8201168201806040525081019061394e9190614836565b141561399c5760405162461bcd60e51b815260206004820152601060248201527f7265656e7472616e6379206775617264000000000000000000000000000000006044820152606401610691565b816001600160a01b03166310fdb0a26040518163ffffffff1660e01b8152600401600060405180830381600087803b1580156139d757600080fd5b505af11580156139eb573d6000803e3d6000fd5b50506040517f72c6838f0000000000000000000000000000000000000000000000000000000081527f1f2fd42ad6a6cacd573c4b212beb7a4e2499ad45d742a65337097f130e71daff6004820152600092506001600160a01b03851691506372c6838f9060240160206040518083038186803b158015613a6a57600080fd5b505afa158015613a7e573d6000803e3d6000fd5b505050506040513d601f19601f82011682018060405250810190613aa29190614472565b90506001600160a01b038116613abe5760006020830152613b73565b6001600160a01b038181166060840181905283516040517f43a8a3f1000000000000000000000000000000000000000000000000000000008152928616600484015260248301526000918291906343a8a3f190604401604080518083038186803b158015613b2b57600080fd5b505afa158015613b3f573d6000803e3d6000fd5b505050506040513d601f19601f82011682018060405250810190613b6391906146fc565b9015156020860152604085015250505b50919050565b611281828233613cc4565b604080516001600160a01b038416602482015260448082018490528251808303909101815260649091019091526020810180517bffffffffffffffffffffffffffffffffffffffffffffffffffffffff167fa9059cbb000000000000000000000000000000000000000000000000000000001790526104cf908490613dd2565b6000611025836001600160a01b038416613eb7565b6000818152600183016020526040812054613c6057508154600181810184556000848152602080822090930184905584548482528286019093526040902091909155610474565b506000610474565b606081600001805480602002602001604051908101604052809291908181526020018280548015613cb857602002820191906000526020600020905b815481526020019060010190808311613ca4575b50505050509050919050565b816020015115613d7a5781606001516001600160a01b0316635e5eb01384835a8651613cf09190614a24565b60408088015190517fffffffff0000000000000000000000000000000000000000000000000000000060e087901b1681526001600160a01b03948516600482015293909216602484015260448301526064820152608401600060405180830381600087803b158015613d6157600080fd5b505af1158015613d75573d6000803e3d6000fd5b505050505b826001600160a01b031663d4f7af436040518163ffffffff1660e01b8152600401600060405180830381600087803b158015613db557600080fd5b505af1158015613dc9573d6000803e3d6000fd5b50505050505050565b6000613e27826040518060400160405280602081526020017f5361666545524332303a206c6f772d6c6576656c2063616c6c206661696c6564815250856001600160a01b0316613fd49092919063ffffffff16565b8051909150156104cf5780806020019051810190613e4591906146e2565b6104cf5760405162461bcd60e51b815260206004820152602a60248201527f5361666545524332303a204552433230206f7065726174696f6e20646964206e60448201527f6f742073756363656564000000000000000000000000000000000000000000006064820152608401610691565b60008181526001830160205260408120548015613fca576000613edb600183614a24565b8554909150600090613eef90600190614a24565b9050818114613f70576000866000018281548110613f1d57634e487b7160e01b600052603260045260246000fd5b9060005260206000200154905080876000018481548110613f4e57634e487b7160e01b600052603260045260246000fd5b6000918252602080832090910192909255918252600188019052604090208390555b8554869080613f8f57634e487b7160e01b600052603160045260246000fd5b600190038181906000526020600020016000905590558560010160008681526020019081526020016000206000905560019350505050610474565b6000915050610474565b6060613fe38484600085613feb565b949350505050565b6060824710156140635760405162461bcd60e51b815260206004820152602660248201527f416464726573733a20696e73756666696369656e742062616c616e636520666f60448201527f722063616c6c00000000000000000000000000000000000000000000000000006064820152608401610691565b6001600160a01b0385163b6140ba5760405162461bcd60e51b815260206004820152601d60248201527f416464726573733a2063616c6c20746f206e6f6e2d636f6e74726163740000006044820152606401610691565b600080866001600160a01b031685876040516140d69190614871565b60006040518083038185875af1925050503d8060008114614113576040519150601f19603f3d011682016040523d82523d6000602084013e614118565b606091505b5091509150614128828286614133565b979650505050505050565b60608315614142575081611025565b8251156141525782518084602001fd5b8160405162461bcd60e51b815260040161069191906148da565b805161417781614ab3565b919050565b8051801515811461417757600080fd5b80516002811061417757600080fd5b80516005811061417757600080fd5b600082601f8301126141ba578081fd5b815167ffffffffffffffff8111156141d4576141d4614a9d565b6141e76020601f19601f8401160161497e565b8181528460208386010111156141fb578283fd5b613fe3826020830160208701614a3b565b6000610200828403121561421e578081fd5b604051610100810181811067ffffffffffffffff8211171561424257614242614a9d565b6040529050806142518361418c565b81526020830151602082015260408301516040820152606083015160608201526080830151608082015261428760a0840161417c565b60a08201526142998460c085016142b8565b60c08201526142ac84610160850161432b565b60e08201525092915050565b600060a082840312156142c9578081fd5b6142d161490d565b905081516142de81614acb565b8152602082015163ffffffff811681146142f757600080fd5b6020820152604082015161430a81614ab3565b80604083015250606082015160608201526080820151608082015292915050565b600060a0828403121561433c578081fd5b61434461490d565b905061434f8261417c565b815260208201516142f781614acb565b600060408284031215614370578081fd5b6040516040810181811067ffffffffffffffff8211171561439357614393614a9d565b604052825181526020928301519281019290925250919050565b600061012082840312156143bf578081fd5b6143c7614936565b9050815181526020820151602082015260408201516040820152606082015160608201526080820151608082015261440160a0830161417c565b60a082015261441260c0830161416c565b60c082015260e082015167ffffffffffffffff8082111561443257600080fd5b61443e858386016141aa565b60e08401526101009150818401518181111561445957600080fd5b614465868287016141aa565b8385015250505092915050565b600060208284031215614483578081fd5b815161102581614ab3565b600080604083850312156144a0578081fd5b82356144ab81614ab3565b946020939093013593505050565b6000806000806000806000806000898b036104a08112156144d8578586fd5b8a516144e381614ab3565b99506101a0601f1982018113156144f8578687fd5b61450061495a565b915061450e60208d0161416c565b825260408c0151602083015260608c0151604083015260808c0151606083015260a08c0151608083015261454460c08d0161417c565b60a083015261455560e08d0161416c565b60c0830152610100808d015160e0840152610120808e0151828501526101409150818e01518185015250610160808e015182850152610180915061459a828f0161416c565b908401526145a98d830161416c565b90830152506101c08b015190985067ffffffffffffffff8111156145cb578586fd5b6145d78c828d016143ad565b9750506145e88b6101e08c0161420c565b95506145f88b6103e08c0161435f565b94506104208a015193506104408a015192506146176104608b0161419b565b91506104808a015190509295985092959850929598565b60006020808385031215614640578182fd5b825167ffffffffffffffff80821115614657578384fd5b818501915085601f83011261466a578384fd5b81518181111561467c5761467c614a9d565b8060051b915061468d84830161497e565b8181528481019084860184860187018a10156146a7578788fd5b8795505b838610156146d557805194506146c085614ab3565b848352600195909501949186019186016146ab565b5098975050505050505050565b6000602082840312156146f3578081fd5b6110258261417c565b6000806040838503121561470e578182fd5b6147178361417c565b9150602083015190509250929050565b600060208284031215614738578081fd5b813561102581614ab3565b60008060408385031215614755578182fd5b823561476081614ab3565b9150602083013561477081614ab3565b809150509250929050565b600080604083850312156144a0578182fd5b6000806000606084860312156147a1578081fd5b83356147ac81614ab3565b92506020840135915060408401356147c381614ab3565b809150509250925092565b6000806000606084860312156147e2578081fd5b83356147ed81614ab3565b95602085013595506040909401359392505050565b600060208284031215614813578081fd5b6110258261418c565b60006020828403121561482d578081fd5b6110258261419b565b600060208284031215614847578081fd5b5051919050565b60008060408385031215614860578182fd5b505080516020909101519092909150565b60008251614883818460208701614a3b565b9190910192915050565b6020808252825182820181905260009190848201906040850190845b818110156148ce5783516001600160a01b0316835292840192918401916001016148a9565b50909695505050505050565b60208152600082518060208401526148f9816040850160208701614a3b565b601f01601f19169190910160400192915050565b60405160a0810167ffffffffffffffff8111828210171561493057614930614a9d565b60405290565b604051610120810167ffffffffffffffff8111828210171561493057614930614a9d565b6040516101a0810167ffffffffffffffff8111828210171561493057614930614a9d565b604051601f8201601f1916810167ffffffffffffffff811182821017156149a7576149a7614a9d565b604052919050565b600082198211156149c2576149c2614a87565b500190565b6000826149e257634e487b7160e01b81526012600452602481fd5b500490565b6000817fffffffffffffffffffffffffffffffffffffffffffffffffffffffffffffffff0483118215151615614a1f57614a1f614a87565b500290565b600082821015614a3657614a36614a87565b500390565b60005b83811015614a56578181015183820152602001614a3e565b838111156104cd5750506000910152565b600060ff821660ff811415614a7e57614a7e614a87565b60010192915050565b634e487b7160e01b600052601160045260246000fd5b634e487b7160e01b600052604160045260246000fd5b6001600160a01b0381168114614ac857600080fd5b50565b60048110614ac857600080fdfea2646970667358221220e171eb3e0156e5d7e472a1eec6d43f7a2729e500f2b0096304c01d4b5d4f4e2d64736f6c63430008040033",
  "linkReferences": {},
  "deployedLinkReferences": {}
}