{
  "_format": "hh-sol-artifact-1",
  "contractName": "VintageVotingContract",
  "sourceName": "contracts/vintage/adapters/VintageVoting.sol",
  "abi": [
    {
      "anonymous": false,
      "inputs": [
        {
          "indexed": false,
          "internalType": "uint256",
          "name": "votingPeriod",
          "type": "uint256"
        },
        {
          "indexed": false,
          "internalType": "uint256",
          "name": "gracePeriod",
          "type": "uint256"
        }
      ],
      "name": "ConfigureDao",
      "type": "event"
    },
    {
      "anonymous": false,
      "inputs": [
        {
          "indexed": false,
          "internalType": "bytes32",
          "name": "proposalId",
          "type": "bytes32"
        },
        {
          "indexed": false,
          "internalType": "uint256",
          "name": "blocktime",
          "type": "uint256"
        },
        {
          "indexed": false,
          "internalType": "address",
          "name": "voter",
          "type": "address"
        },
        {
          "indexed": false,
          "internalType": "uint128",
          "name": "origenalVotingWeight",
          "type": "uint128"
        },
        {
          "indexed": false,
          "internalType": "uint256",
          "name": "origenalVoteValue",
          "type": "uint256"
        }
      ],
      "name": "RevokeVote",
      "type": "event"
    },
    {
      "anonymous": false,
      "inputs": [
        {
          "indexed": false,
          "internalType": "address",
          "name": "daoAddr",
          "type": "address"
        },
        {
          "indexed": false,
          "internalType": "bytes32",
          "name": "proposalId",
          "type": "bytes32"
        },
        {
          "indexed": false,
          "internalType": "uint256",
          "name": "votestartingTime",
          "type": "uint256"
        },
        {
          "indexed": false,
          "internalType": "uint256",
          "name": "voteblockNumber",
          "type": "uint256"
        }
      ],
      "name": "StartNewVotingForProposal",
      "type": "event"
    },
    {
      "anonymous": false,
      "inputs": [
        {
          "indexed": false,
          "internalType": "address",
          "name": "daoAddr",
          "type": "address"
        },
        {
          "indexed": false,
          "internalType": "bytes32",
          "name": "proposalId",
          "type": "bytes32"
        },
        {
          "indexed": false,
          "internalType": "uint256",
          "name": "votingTime",
          "type": "uint256"
        },
        {
          "indexed": false,
          "internalType": "uint256",
          "name": "voteStartTime",
          "type": "uint256"
        },
        {
          "indexed": false,
          "internalType": "uint256",
          "name": "voteStopTime",
          "type": "uint256"
        },
        {
          "indexed": false,
          "internalType": "address",
          "name": "voter",
          "type": "address"
        },
        {
          "indexed": false,
          "internalType": "uint256",
          "name": "voteValue",
          "type": "uint256"
        },
        {
          "indexed": false,
          "internalType": "uint256",
          "name": "nbYes",
          "type": "uint256"
        },
        {
          "indexed": false,
          "internalType": "uint256",
          "name": "nbNo",
          "type": "uint256"
        },
        {
          "indexed": false,
          "internalType": "uint256",
          "name": "currentQuorum",
          "type": "uint256"
        },
        {
          "indexed": false,
          "internalType": "uint256",
          "name": "currentSupport",
          "type": "uint256"
        }
      ],
      "name": "SubmitVote",
      "type": "event"
    },
    {
      "anonymous": false,
      "inputs": [
        {
          "indexed": false,
          "internalType": "bytes32",
          "name": "proposalId",
          "type": "bytes32"
        },
        {
          "indexed": false,
          "internalType": "uint256",
          "name": "blocktime",
          "type": "uint256"
        },
        {
          "indexed": false,
          "internalType": "address",
          "name": "voter",
          "type": "address"
        },
        {
          "indexed": false,
          "internalType": "uint128",
          "name": "oldVotingWeight",
          "type": "uint128"
        },
        {
          "indexed": false,
          "internalType": "uint128",
          "name": "newVotingWeight",
          "type": "uint128"
        },
        {
          "indexed": false,
          "internalType": "uint128",
          "name": "nbYes",
          "type": "uint128"
        },
        {
          "indexed": false,
          "internalType": "uint128",
          "name": "nbNo",
          "type": "uint128"
        }
      ],
      "name": "UpdateVoteWeight",
      "type": "event"
    },
    {
      "inputs": [],
      "name": "ADAPTER_NAME",
      "outputs": [
        {
          "internalType": "string",
          "name": "",
          "type": "string"
        }
      ],
      "stateMutability": "view",
      "type": "function"
    },
    {
      "inputs": [
        {
          "internalType": "contract DaoRegistry",
          "name": "dao",
          "type": "address"
        },
        {
          "internalType": "bytes32",
          "name": "proposalId",
          "type": "bytes32"
        },
        {
          "internalType": "address",
          "name": "voterAddr",
          "type": "address"
        }
      ],
      "name": "checkIfVoted",
      "outputs": [
        {
          "internalType": "bool",
          "name": "",
          "type": "bool"
        }
      ],
      "stateMutability": "view",
      "type": "function"
    },
    {
      "inputs": [
        {
          "internalType": "contract DaoRegistry",
          "name": "dao",
          "type": "address"
        },
        {
          "internalType": "uint256",
          "name": "votingPeriod",
          "type": "uint256"
        },
        {
          "internalType": "uint256",
          "name": "gracePeriod",
          "type": "uint256"
        }
      ],
      "name": "configureDao",
      "outputs": [],
      "stateMutability": "nonpayable",
      "type": "function"
    },
    {
      "inputs": [],
      "name": "getAdapterName",
      "outputs": [
        {
          "internalType": "string",
          "name": "",
          "type": "string"
        }
      ],
      "stateMutability": "pure",
      "type": "function"
    },
    {
      "inputs": [
        {
          "internalType": "contract DaoRegistry",
          "name": "dao",
          "type": "address"
        }
      ],
      "name": "getAllGovernorWeight",
      "outputs": [
        {
          "internalType": "uint128",
          "name": "",
          "type": "uint128"
        }
      ],
      "stateMutability": "view",
      "type": "function"
    },
    {
      "inputs": [
        {
          "internalType": "contract DaoRegistry",
          "name": "dao",
          "type": "address"
        },
        {
          "internalType": "bytes32",
          "name": "proposalId",
          "type": "bytes32"
        }
      ],
      "name": "getAllGovernorWeightByProposalId",
      "outputs": [
        {
          "internalType": "uint128",
          "name": "",
          "type": "uint128"
        }
      ],
      "stateMutability": "view",
      "type": "function"
    },
    {
      "inputs": [
        {
          "internalType": "contract DaoRegistry",
          "name": "",
          "type": "address"
        },
        {
          "internalType": "address",
          "name": "",
          "type": "address"
        },
        {
          "internalType": "bytes",
          "name": "",
          "type": "bytes"
        },
        {
          "internalType": "address",
          "name": "sender",
          "type": "address"
        }
      ],
      "name": "getSenderAddress",
      "outputs": [
        {
          "internalType": "address",
          "name": "",
          "type": "address"
        }
      ],
      "stateMutability": "pure",
      "type": "function"
    },
    {
      "inputs": [
        {
          "internalType": "contract DaoRegistry",
          "name": "dao",
          "type": "address"
        },
        {
          "internalType": "address",
          "name": "account",
          "type": "address"
        }
      ],
      "name": "getVotingWeight",
      "outputs": [
        {
          "internalType": "uint128",
          "name": "",
          "type": "uint128"
        }
      ],
      "stateMutability": "view",
      "type": "function"
    },
    {
      "inputs": [
        {
          "internalType": "contract DaoRegistry",
          "name": "dao",
          "type": "address"
        },
        {
          "internalType": "bytes32",
          "name": "proposalId",
          "type": "bytes32"
        },
        {
          "internalType": "uint256",
          "name": "projectVotingTimestamp",
          "type": "uint256"
        },
        {
          "internalType": "bytes",
          "name": "",
          "type": "bytes"
        }
      ],
      "name": "startNewVotingForProposal",
      "outputs": [],
      "stateMutability": "nonpayable",
      "type": "function"
    },
    {
      "inputs": [
        {
          "internalType": "contract DaoRegistry",
          "name": "dao",
          "type": "address"
        },
        {
          "internalType": "bytes32",
          "name": "proposalId",
          "type": "bytes32"
        },
        {
          "internalType": "uint256",
          "name": "voteValue",
          "type": "uint256"
        }
      ],
      "name": "submitVote",
      "outputs": [],
      "stateMutability": "nonpayable",
      "type": "function"
    },
    {
      "inputs": [
        {
          "internalType": "contract DaoRegistry",
          "name": "dao",
          "type": "address"
        },
        {
          "internalType": "bytes32",
          "name": "proposalId",
          "type": "bytes32"
        }
      ],
      "name": "voteResult",
      "outputs": [
        {
          "internalType": "enum IVintageVoting.VotingState",
          "name": "state",
          "type": "uint8"
        },
        {
          "internalType": "uint128",
          "name": "nbYes",
          "type": "uint128"
        },
        {
          "internalType": "uint128",
          "name": "nbNo",
          "type": "uint128"
        }
      ],
      "stateMutability": "view",
      "type": "function"
    },
    {
      "inputs": [
        {
          "internalType": "address",
          "name": "",
          "type": "address"
        },
        {
          "internalType": "bytes32",
          "name": "",
          "type": "bytes32"
        },
        {
          "internalType": "address",
          "name": "",
          "type": "address"
        }
      ],
      "name": "voteWeights",
      "outputs": [
        {
          "internalType": "uint128",
          "name": "",
          "type": "uint128"
        }
      ],
      "stateMutability": "view",
      "type": "function"
    },
    {
      "inputs": [
        {
          "internalType": "address",
          "name": "",
          "type": "address"
        },
        {
          "internalType": "bytes32",
          "name": "",
          "type": "bytes32"
        }
      ],
      "name": "votes",
      "outputs": [
        {
          "internalType": "uint128",
          "name": "nbYes",
          "type": "uint128"
        },
        {
          "internalType": "uint128",
          "name": "nbNo",
          "type": "uint128"
        },
        {
          "internalType": "uint256",
          "name": "startingTime",
          "type": "uint256"
        },
        {
          "internalType": "uint256",
          "name": "stopTime",
          "type": "uint256"
        },
        {
          "internalType": "uint256",
          "name": "voters",
          "type": "uint256"
        }
      ],
      "stateMutability": "view",
      "type": "function"
    }
  ],
  "bytecode": "0x608060405234801561001057600080fd5b50613795806100206000396000f3fe608060405234801561001057600080fd5b50600436106100df5760003560e01c806376225e731161008c57806391d2fd531161006657806391d2fd5314610296578063966917d0146102cf578063a60e68fe146102fc578063f2b95da01461030f57600080fd5b806376225e73146102255780637fd3cd8b1461024757806387b9e9591461028357600080fd5b806326078cd0116100bd57806326078cd0146101d2578063325b72f2146101e7578063669fd0ca146101fa57600080fd5b80631db5ade8146100e45780631f86f5b31461016d57806324a2cceb146101af575b600080fd5b6101356100f23660046130fd565b6001602081815260009384526040808520909152918352912080549181015460028201546003909201546001600160801b0380851694600160801b900416929085565b604080516001600160801b039687168152959094166020860152928401919091526060830152608082015260a0015b60405180910390f35b60408051808201909152600e81527f566f74696e67436f6e747261637400000000000000000000000000000000000060208201525b6040516101649190613523565b6101c26101bd366004613128565b610322565b6040519015158152602001610164565b6101e56101e03660046133bf565b610371565b005b6101e56101f536600461338b565b610569565b61020d610208366004613379565b610c6a565b6040516001600160801b039091168152602001610164565b610238610233366004613379565b610c81565b604051610164939291906134f1565b6101a26040518060400160405280600e81526020017f566f74696e67436f6e747261637400000000000000000000000000000000000081525081565b61020d61029136600461327e565b611359565b61020d6102a4366004613128565b600060208181529381526040808220855292815282812090935282529020546001600160801b031681565b6102e46102dd3660046132b6565b9392505050565b6040516001600160a01b039091168152602001610164565b6101e561030a36600461338b565b611365565b61020d61031d366004613262565b61143f565b6001600160a01b03808416600090815260016020908152604080832086845282528083209385168352600484019091528120549091906103665760009150506102dd565b506001949350505050565b6040516368c18beb60e01b815233600482015285906001600160a01b038216906368c18beb9060240160206040518083038186803b1580156103b257600080fd5b505afa1580156103c6573d6000803e3d6000fd5b505050506040513d601f19601f820116820180604052508101906103ea919061321d565b806103f957506103f98161144b565b61044a5760405162461bcd60e51b815260206004820152600b60248201527f6f6e6c794164617074657200000000000000000000000000000000000000000060448201526064015b60405180910390fd5b6001600160a01b03861660008181526001602081815260408084208a8552909152918290209081018790559051634941d71d60e11b81527f9876c0f0505bfb2b1c38d3bbd25ba13159172cd0868972d76927723f5a9480fc6004820152909190639283ae3a9060240160206040518083038186803b1580156104cb57600080fd5b505afa1580156104df573d6000803e3d6000fd5b505050506040513d601f19601f8201168201806040525081019061050391906134b5565b61050d90426135d2565b6002820155604080516001600160a01b038916815260208101889052428183015243606082015290517f21af5d881aa8442475abc2be295d24c036524242db2bebe1b628b51ae5aba5289181900360800190a150505050505050565b82610574813361166b565b8360006105808261174d565b6040517ff941f6910000000000000000000000000000000000000000000000000000000081529091506001600160a01b0387169063f941f691906105cb9088906001906004016134cd565b60206040518083038186803b1580156105e357600080fd5b505afa1580156105f7573d6000803e3d6000fd5b505050506040513d601f19601f8201168201806040525081019061061b919061321d565b61068d5760405162461bcd60e51b815260206004820152602760248201527f7468652070726f706f73616c20686173206e6f74206265656e2073706f6e736f60448201527f72656420796574000000000000000000000000000000000000000000000000006064820152608401610441565b6040517ff941f6910000000000000000000000000000000000000000000000000000000081526001600160a01b0387169063f941f691906106d59088906002906004016134cd565b60206040518083038186803b1580156106ed57600080fd5b505afa158015610701573d6000803e3d6000fd5b505050506040513d601f19601f82011682018060405250810190610725919061321d565b156107985760405162461bcd60e51b815260206004820152602760248201527f7468652070726f706f73616c2068617320616c7265616479206265656e20707260448201527f6f636573736564000000000000000000000000000000000000000000000000006064820152608401610441565b6003841080156107a85750600084115b61081a5760405162461bcd60e51b815260206004820152602b60248201527f6f6e6c79207965732028312920616e64206e6f202832292061726520706f737360448201527f69626c652076616c7565730000000000000000000000000000000000000000006064820152608401610441565b6001600160a01b03861660009081526001602081815260408084208985529091529091209081015442118015610854575060008160010154115b6108c65760405162461bcd60e51b815260206004820152603860248201527f566f74696e673a3a7375626d6974566f74653a3a746869732070726f706f736160448201527f6c496420686173206e6f7420737461727420766f74696e6700000000000000006064820152608401610441565b806002015442106109195760405162461bcd60e51b815260206004820152600c60248201527f766f74696e6720656e64656400000000000000000000000000000000000000006044820152606401610441565b336000908152600482016020526040902054156109785760405162461bcd60e51b815260206004820152601860248201527f6d656d6265722068617320616c726561647920766f74656400000000000000006044820152606401610441565b60006109848833611a18565b6001600160a01b0389166000908152602081815260408083208b84528252808320338452825280832080547fffffffffffffffffffffffffffffffff00000000000000000000000000000000166001600160801b038616179055600486019091528120889055600384018054929350600192909190610a049084906135d2565b90915550506001861415610a60578154610a289082906001600160801b03166135a7565b82547fffffffffffffffffffffffffffffffff00000000000000000000000000000000166001600160801b0391909116178255610a9f565b8560021415610a9f578154610a86908290600160801b90046001600160801b03166135a7565b82546001600160801b03918216600160801b0291161782555b8154600090610ac0906001600160801b03600160801b8204811691166135a7565b6001600160801b031615610b11578254610aec906001600160801b03600160801b8204811691166135a7565b8354610b02906001600160801b03166064613624565b610b0c91906135ea565b610b14565b60005b6001600160801b031690506000610b2a8a6128a0565b8454610b48906001600160801b03600160801b8204811691166135a7565b610b53906064613624565b6001600160801b0316610b669190613610565b90507f702c2a29993fe1e5ce4c366928ffc1d53e245b20536bf8192399abb82b66c7108a8a4287600101548860020154338e8b60000160009054906101000a90046001600160801b03168c60000160109054906101000a90046001600160801b03168b8b604051610c4c9b9a999897969594939291906001600160a01b039b8c168152602081019a909a5260408a0198909852606089019690965260808801949094529190961660a086015260c08501959095526001600160801b0394851660e08501529093166101008301526101208201929092526101408101919091526101600190565b60405180910390a150505050610c628282612a7c565b505050505050565b600080610c778484612a87565b9150505b92915050565b6001600160a01b0382166000908152600160208181526040808420858552909152822090810154829182914211610cd45754600093506001600160801b038082169350600160801b909104169050611352565b604051634941d71d60e11b81527f9876c0f0505bfb2b1c38d3bbd25ba13159172cd0868972d76927723f5a9480fc60048201526001600160a01b03871690639283ae3a9060240160206040518083038186803b158015610d3357600080fd5b505afa158015610d47573d6000803e3d6000fd5b505050506040513d601f19601f82011682018060405250810190610d6b91906134b5565b8160010154610d7a91906135d2565b4211610da25754600493506001600160801b038082169350600160801b909104169050611352565b604051634941d71d60e11b81527f561bc86bc227a0f760218574791a84f180f6f9f02be9519a1f99c14fce07a31060048201526000906001600160a01b03881690639283ae3a9060240160206040518083038186803b158015610e0457600080fd5b505afa158015610e18573d6000803e3d6000fd5b505050506040513d601f19601f82011682018060405250810190610e3c91906134b5565b604051634941d71d60e11b81527f8097540b5ab8a4c18e0b10cfbfd2c69e65e8da78f4f0485467006bafa393596460048201529091506000906001600160a01b03891690639283ae3a9060240160206040518083038186803b158015610ea157600080fd5b505afa158015610eb5573d6000803e3d6000fd5b505050506040513d601f19601f82011682018060405250810190610ed991906134b5565b90506000610ee78989612a87565b8454909150600090610f0b906001600160801b03600160801b8204811691166135a7565b6001600160801b031690508261100957604051634941d71d60e11b81527f0324de13a5a6e302ddb95a9fdf81cc736fc8acee2abe558970daac27395904e760048201526000906064906001600160a01b038d1690639283ae3a9060240160206040518083038186803b158015610f8057600080fd5b505afa158015610f94573d6000803e3d6000fd5b505050506040513d601f19601f82011682018060405250810190610fb891906134b5565b610fcb906001600160801b038616613653565b610fd59190613610565b90508082116110075750509254600396506001600160801b038082169650600160801b90910416935061135292505050565b505b82600114156110d757604051634941d71d60e11b81527f0324de13a5a6e302ddb95a9fdf81cc736fc8acee2abe558970daac27395904e760048201526001600160a01b038b1690639283ae3a9060240160206040518083038186803b15801561107157600080fd5b505afa158015611085573d6000803e3d6000fd5b505050506040513d601f19601f820116820180604052508101906110a991906134b5565b81116110d75750509154600395506001600160801b038082169550600160801b909104169250611352915050565b8361120f57604051634941d71d60e11b81527fb4c601c38beae7eebb719eda3438f59fcbfd4c6dd7d38c00665b6fd5b432df3260048201526000906064906001600160a01b038d1690639283ae3a9060240160206040518083038186803b15801561114157600080fd5b505afa158015611155573d6000803e3d6000fd5b505050506040513d601f19601f8201168201806040525081019061117991906134b5565b6111839084613653565b61118d9190613610565b9050801580156111a5575085546001600160801b0316155b156111d35750509254600196506001600160801b038082169650600160801b90910416935061135292505050565b85546001600160801b0316811061120d5750509254600396506001600160801b038082169650600160801b90910416935061135292505050565b505b836001141561132f5784546000906001600160801b03600160801b820481169116101561123d57600061125b565b855461125b906001600160801b03600160801b820481169116613690565b604051634941d71d60e11b81527fb4c601c38beae7eebb719eda3438f59fcbfd4c6dd7d38c00665b6fd5b432df3260048201529091506001600160a01b038c1690639283ae3a9060240160206040518083038186803b1580156112bd57600080fd5b505afa1580156112d1573d6000803e3d6000fd5b505050506040513d601f19601f820116820180604052508101906112f591906134b5565b816001600160801b03161161132d5750509254600396506001600160801b038082169650600160801b90910416935061135292505050565b505b50509154600295506001600160801b038082169550600160801b90910416925050505b9250925092565b60006102dd8383611a18565b6040516368c18beb60e01b815233600482015283906001600160a01b038216906368c18beb9060240160206040518083038186803b1580156113a657600080fd5b505afa1580156113ba573d6000803e3d6000fd5b505050506040513d601f19601f820116820180604052508101906113de919061321d565b806113ed57506113ed8161144b565b6114395760405162461bcd60e51b815260206004820152600b60248201527f6f6e6c79416461707465720000000000000000000000000000000000000000006044820152606401610441565b50505050565b6000806102dd83612db3565b600080826001600160a01b031663c19d93fb6040518163ffffffff1660e01b815260040160206040518083038186803b15801561148757600080fd5b505afa15801561149b573d6000803e3d6000fd5b505050506040513d601f19601f820116820180604052508101906114bf9190613450565b60018111156114de57634e487b7160e01b600052602160045260246000fd5b148015610c7b5750816001600160a01b031663c67143666040518163ffffffff1660e01b815260040160206040518083038186803b15801561151f57600080fd5b505afa158015611533573d6000803e3d6000fd5b505050506040513d601f19601f8201168201806040525081019061155791906134b5565b15806115ee57506040517fa230c5240000000000000000000000000000000000000000000000000000000081523360048201526001600160a01b0383169063a230c5249060240160206040518083038186803b1580156115b657600080fd5b505afa1580156115ca573d6000803e3d6000fd5b505050506040513d601f19601f820116820180604052508101906115ee919061321d565b80610c7b57506040516368c18beb60e01b81523360048201526001600160a01b038316906368c18beb9060240160206040518083038186803b15801561163357600080fd5b505afa158015611647573d6000803e3d6000fd5b505050506040513d601f19601f82011682018060405250810190610c7b919061321d565b6040517fa230c5240000000000000000000000000000000000000000000000000000000081526001600160a01b03828116600483015283169063a230c5249060240160206040518083038186803b1580156116c557600080fd5b505afa1580156116d9573d6000803e3d6000fd5b505050506040513d601f19601f820116820180604052508101906116fd919061321d565b6117495760405162461bcd60e51b815260206004820152600c60248201527f6f6e6c79476f7665726e6f7200000000000000000000000000000000000000006044820152606401610441565b5050565b6040805160808101825260008082526020820181905291810182905260608101919091525a81600001818152505043826001600160a01b031663b21634826040518163ffffffff1660e01b815260040160206040518083038186803b1580156117b557600080fd5b505afa1580156117c9573d6000803e3d6000fd5b505050506040513d601f19601f820116820180604052508101906117ed91906134b5565b141561183b5760405162461bcd60e51b815260206004820152601060248201527f7265656e7472616e6379206775617264000000000000000000000000000000006044820152606401610441565b816001600160a01b03166310fdb0a26040518163ffffffff1660e01b8152600401600060405180830381600087803b15801561187657600080fd5b505af115801561188a573d6000803e3d6000fd5b50506040517f72c6838f0000000000000000000000000000000000000000000000000000000081527f1f2fd42ad6a6cacd573c4b212beb7a4e2499ad45d742a65337097f130e71daff6004820152600092506001600160a01b03851691506372c6838f9060240160206040518083038186803b15801561190957600080fd5b505afa15801561191d573d6000803e3d6000fd5b505050506040513d601f19601f8201168201806040525081019061194191906130e1565b90506001600160a01b03811661195d5760006020830152611a12565b6001600160a01b038181166060840181905283516040517f43a8a3f1000000000000000000000000000000000000000000000000000000008152928616600484015260248301526000918291906343a8a3f190604401604080518083038186803b1580156119ca57600080fd5b505afa1580156119de573d6000803e3d6000fd5b505050506040513d601f19601f82011682018060405250810190611a029190613237565b9015156020860152604085015250505b50919050565b6040516317ba7d8560e01b81527faaff643bdbd909f604d46ce015336f7e20fee3ac4a55cef3610188dee176c892600482015260009081906001600160a01b038516906317ba7d859060240160206040518083038186803b158015611a7c57600080fd5b505afa158015611a90573d6000803e3d6000fd5b505050506040513d601f19601f82011682018060405250810190611ab491906130e1565b6040516317ba7d8560e01b81527fa837e34a29b67bf52f684a1c93def79b84b9c012732becee4e5df62809df64ed60048201529091506000906001600160a01b038616906317ba7d859060240160206040518083038186803b158015611b1957600080fd5b505afa158015611b2d573d6000803e3d6000fd5b505050506040513d601f19601f82011682018060405250810190611b5191906130e1565b6040516317ba7d8560e01b81527f1fa6846b165d822fff79e37c67625706652fa9380c2aa49fd513ce534cc72ed460048201529091506000906001600160a01b038716906317ba7d859060240160206040518083038186803b158015611bb657600080fd5b505afa158015611bca573d6000803e3d6000fd5b505050506040513d601f19601f82011682018060405250810190611bee91906130e1565b604051634941d71d60e11b81527f686efe7bd1699b408d306db6bbee658ed667971c52d48d6912d7ee496e36e62760048201529091506000906001600160a01b03881690639283ae3a9060240160206040518083038186803b158015611c5357600080fd5b505afa158015611c67573d6000803e3d6000fd5b505050506040513d601f19601f82011682018060405250810190611c8b91906134b5565b604051634941d71d60e11b81527fb75eae231d9582c6afc6491273df4a0ffbccd48ab2c48dbce59e5d68f2d19dc460048201529091506000906001600160a01b03891690639283ae3a9060240160206040518083038186803b158015611cf057600080fd5b505afa158015611d04573d6000803e3d6000fd5b505050506040513d601f19601f82011682018060405250810190611d2891906134b5565b604051634941d71d60e11b81527e634460a4b60c2e1bf8c87bfc42b6b68fd2a71f4bb2d760816eabc5038b503660048201529091506000906001600160a01b038a1690639283ae3a9060240160206040518083038186803b158015611d8c57600080fd5b505afa158015611da0573d6000803e3d6000fd5b505050506040513d601f19601f82011682018060405250810190611dc491906134b5565b6040517ffd310d290000000000000000000000000000000000000000000000000000000081527fcd9b30ab6388c165d825b60b7d393528191ba59d975b4b1b52b7184b63b8a97c60048201529091506000906001600160a01b038b169063fd310d299060240160206040518083038186803b158015611e4257600080fd5b505afa158015611e56573d6000803e3d6000fd5b505050506040513d601f19601f82011682018060405250810190611e7a91906130e1565b905082600114156122f557600084611f22576040516370a0823160e01b81526001600160a01b038b81166004830152670de0b6b3a764000091908416906370a08231906024015b60206040518083038186803b158015611ed957600080fd5b505afa158015611eed573d6000803e3d6000fd5b505050506040513d601f19601f82011682018060405250810190611f1191906134b5565b611f1b9190613610565b9050612286565b8460011415611fa5576040516370a0823160e01b81526001600160a01b038b811660048301528316906370a08231906024015b60206040518083038186803b158015611f6d57600080fd5b505afa158015611f81573d6000803e3d6000fd5b505050506040513d601f19601f82011682018060405250810190611f1b91906134b5565b8460021415611fe157604051627eeac760e11b81526001600160a01b038b811660048301526024820185905283169062fdd58e90604401611f55565b8460031415612020576040516329b6517360e21b81526001600160a01b038c811660048301528b8116602483015287169063a6d945cc90604401611f55565b84600414156122755760026040517f1ee1a2b00000000000000000000000000000000000000000000000000000000081526001600160a01b038d811660048301528a1690631ee1a2b09060240160206040518083038186803b15801561208557600080fd5b505afa158015612099573d6000803e3d6000fd5b505050506040513d601f19601f820116820180604052508101906120bd919061346f565b60038111156120dc57634e487b7160e01b600052602160045260246000fd5b14801561217e5750604051634941d71d60e11b81527f9ce69cf04065e3c7823cc5540c0598d8a694bd7a9a5a2a786d8bccf14ed6e2ea60048201526001600160a01b038c1690639283ae3a9060240160206040518083038186803b15801561214357600080fd5b505afa158015612157573d6000803e3d6000fd5b505050506040513d601f19601f8201168201806040525081019061217b91906134b5565b42105b801561221e57506040517f4fc0a76d0000000000000000000000000000000000000000000000000000000081526001600160a01b038c8116600483015260019190891690634fc0a76d9060240160206040518083038186803b1580156121e357600080fd5b505afa1580156121f7573d6000803e3d6000fd5b505050506040513d601f19601f8201168201806040525081019061221b91906134b5565b10155b1561226457604051633de222bb60e21b81526001600160a01b038c811660048301528b81166024830152670de0b6b3a764000091908a169063f7888aec90604401611ec1565b600198505050505050505050610c7b565b600098505050505050505050610c7b565b6000811161229f57600098505050505050505050610c7b565b677fffffffffffffff81106122bf57603298505050505050505050610c7b565b60006122da6122d56122d084612e82565b612ea0565b612f97565b67ffffffffffffffff169950610c7b98505050505050505050565b82600214156124ac5760008461239c576040516370a0823160e01b81526001600160a01b038b81166004830152600091908416906370a08231906024015b60206040518083038186803b15801561234b57600080fd5b505afa15801561235f573d6000803e3d6000fd5b505050506040513d601f19601f8201168201806040525081019061238391906134b5565b1161238f576000612392565b60015b60ff16905061249d565b84600114156123d7576040516370a0823160e01b81526001600160a01b038b81166004830152600091908416906370a0823190602401612333565b846002141561241757604051627eeac760e11b81526001600160a01b038b81166004830152602482018590526000919084169062fdd58e90604401612333565b846003141561245a576040516329b6517360e21b81526001600160a01b038c811660048301528b811660248301526000919088169063a6d945cc90604401612333565b846004141561227557604051633de222bb60e21b81526001600160a01b038c811660048301528b81166024830152600091908a169063f7888aec90604401612333565b9750610c7b9650505050505050565b826128905760008461254e576040516370a0823160e01b81526001600160a01b038b81166004830152670de0b6b3a764000091908416906370a08231906024015b60206040518083038186803b15801561250557600080fd5b505afa158015612519573d6000803e3d6000fd5b505050506040513d601f19601f8201168201806040525081019061253d91906134b5565b6125479190613610565b905061249d565b84600114156125d1576040516370a0823160e01b81526001600160a01b038b811660048301528316906370a08231906024015b60206040518083038186803b15801561259957600080fd5b505afa1580156125ad573d6000803e3d6000fd5b505050506040513d601f19601f8201168201806040525081019061254791906134b5565b846002141561260d57604051627eeac760e11b81526001600160a01b038b811660048301526024820185905283169062fdd58e90604401612581565b846003141561264c576040516329b6517360e21b81526001600160a01b038c811660048301528b8116602483015287169063a6d945cc90604401612581565b84600414156122755760026040517f1ee1a2b00000000000000000000000000000000000000000000000000000000081526001600160a01b038d811660048301528a1690631ee1a2b09060240160206040518083038186803b1580156126b157600080fd5b505afa1580156126c5573d6000803e3d6000fd5b505050506040513d601f19601f820116820180604052508101906126e9919061346f565b600381111561270857634e487b7160e01b600052602160045260246000fd5b1480156127aa5750604051634941d71d60e11b81527f9ce69cf04065e3c7823cc5540c0598d8a694bd7a9a5a2a786d8bccf14ed6e2ea60048201526001600160a01b038c1690639283ae3a9060240160206040518083038186803b15801561276f57600080fd5b505afa158015612783573d6000803e3d6000fd5b505050506040513d601f19601f820116820180604052508101906127a791906134b5565b42105b801561284a57506040517f4fc0a76d0000000000000000000000000000000000000000000000000000000081526001600160a01b038c8116600483015260019190891690634fc0a76d9060240160206040518083038186803b15801561280f57600080fd5b505afa158015612823573d6000803e3d6000fd5b505050506040513d601f19601f8201168201806040525081019061284791906134b5565b10155b1561226457604051633de222bb60e21b81526001600160a01b038c811660048301528b81166024830152670de0b6b3a764000091908a169063f7888aec906044016124ed565b6000975050505050505050610c7b565b600080826001600160a01b031663c67143666040518163ffffffff1660e01b815260040160206040518083038186803b1580156128dc57600080fd5b505afa1580156128f0573d6000803e3d6000fd5b505050506040513d601f19601f8201168201806040525081019061291491906134b5565b90506000805b828160ff161015612a74576040517f9029444a00000000000000000000000000000000000000000000000000000000815260ff821660048201526001600160a01b0386169063a230c524908290639029444a9060240160206040518083038186803b15801561298857600080fd5b505afa15801561299c573d6000803e3d6000fd5b505050506040513d601f19601f820116820180604052508101906129c091906130e1565b6040517fffffffff0000000000000000000000000000000000000000000000000000000060e084901b1681526001600160a01b03909116600482015260240160206040518083038186803b158015612a1757600080fd5b505afa158015612a2b573d6000803e3d6000fd5b505050506040513d601f19601f82011682018060405250810190612a4f919061321d565b15612a6257612a5f6001836135d2565b91505b80612a6c816136cf565b91505061291a565b509392505050565b611749828233612fb3565b600080836001600160a01b031663a6f636416040518163ffffffff1660e01b815260040160006040518083038186803b158015612ac357600080fd5b505afa158015612ad7573d6000803e3d6000fd5b505050506040513d6000823e601f3d908101601f19168201604052612aff9190810190613169565b6040516317ba7d8560e01b81527fd3999c37f8f35da86f802a74f9bf032c4aeb46e49abd9c861f489ef4cb40d0a8600482015290915060009081906001600160a01b038716906317ba7d859060240160206040518083038186803b158015612b6657600080fd5b505afa158015612b7a573d6000803e3d6000fd5b505050506040513d601f19601f82011682018060405250810190612b9e91906130e1565b905060005b83518160ff161015612da857816001600160a01b03166324a2cceb8888878560ff1681518110612be357634e487b7160e01b600052603260045260246000fd5b60200260200101516040518463ffffffff1660e01b8152600401612c27939291906001600160a01b0393841681526020810192909252909116604082015260600190565b60206040518083038186803b158015612c3f57600080fd5b505afa158015612c53573d6000803e3d6000fd5b505050506040513d601f19601f82011682018060405250810190612c77919061321d565b15612d5557816001600160a01b03166391d2fd538888878560ff1681518110612cb057634e487b7160e01b600052603260045260246000fd5b60200260200101516040518463ffffffff1660e01b8152600401612cf4939291906001600160a01b0393841681526020810192909252909116604082015260600190565b60206040518083038186803b158015612d0c57600080fd5b505afa158015612d20573d6000803e3d6000fd5b505050506040513d601f19601f82011682018060405250810190612d44919061348e565b612d4e90846135a7565b9250612d96565b612d8987858360ff1681518110612d7c57634e487b7160e01b600052603260045260246000fd5b6020026020010151611a18565b612d9390846135a7565b92505b80612da0816136cf565b915050612ba3565b509095945050505050565b600080826001600160a01b031663a6f636416040518163ffffffff1660e01b815260040160006040518083038186803b158015612def57600080fd5b505afa158015612e03573d6000803e3d6000fd5b505050506040513d6000823e601f3d908101601f19168201604052612e2b9190810190613169565b90506000805b82518160ff161015612a7457612e6485848360ff1681518110612d7c57634e487b7160e01b600052603260045260246000fd5b612e6e90836135a7565b915080612e7a816136cf565b915050612e31565b6000677fffffffffffffff821115612e9957600080fd5b5060401b90565b60008082600f0b13612eb157600080fd5b6000600f83900b680100000000000000008112612ed0576040918201911d5b6401000000008112612ee4576020918201911d5b620100008112612ef6576010918201911d5b6101008112612f07576008918201911d5b60108112612f17576004918201911d5b60048112612f27576002918201911d5b60028112612f36576001820191505b7fffffffffffffffffffffffffffffffffffffffffffffffffffffffffffffffc0820160401b600f85900b607f8490031b6780000000000000005b6000811315612da85790800260ff81901c8281029390930192607f011c9060011d612f71565b60008082600f0b1215612fa957600080fd5b50600f0b60401d90565b8160200151156130695781606001516001600160a01b0316635e5eb01384835a8651612fdf91906136b8565b60408088015190517fffffffff0000000000000000000000000000000000000000000000000000000060e087901b1681526001600160a01b03948516600482015293909216602484015260448301526064820152608401600060405180830381600087803b15801561305057600080fd5b505af1158015613064573d6000803e3d6000fd5b505050505b826001600160a01b031663d4f7af436040518163ffffffff1660e01b8152600401600060405180830381600087803b1580156130a457600080fd5b505af11580156130b8573d6000803e3d6000fd5b50505050505050565b80356130cc81613747565b919050565b805180151581146130cc57600080fd5b6000602082840312156130f2578081fd5b81516102dd81613747565b6000806040838503121561310f578081fd5b823561311a81613747565b946020939093013593505050565b60008060006060848603121561313c578081fd5b833561314781613747565b925060208401359150604084013561315e81613747565b809150509250925092565b6000602080838503121561317b578182fd5b825167ffffffffffffffff80821115613192578384fd5b818501915085601f8301126131a5578384fd5b8151818111156131b7576131b7613731565b8060051b91506131c8848301613576565b8181528481019084860184860187018a10156131e2578788fd5b8795505b8386101561321057805194506131fb85613747565b848352600195909501949186019186016131e6565b5098975050505050505050565b60006020828403121561322e578081fd5b6102dd826130d1565b60008060408385031215613249578182fd5b613252836130d1565b9150602083015190509250929050565b600060208284031215613273578081fd5b81356102dd81613747565b60008060408385031215613290578182fd5b823561329b81613747565b915060208301356132ab81613747565b809150509250929050565b600080600080608085870312156132cb578081fd5b84356132d681613747565b93506020858101356132e781613747565b9350604086013567ffffffffffffffff80821115613303578384fd5b818801915088601f830112613316578384fd5b81358181111561332857613328613731565b61333a84601f19601f84011601613576565b9150808252898482850101111561334f578485fd5b8084840185840137810190920183905250915061336e606086016130c1565b905092959194509250565b6000806040838503121561310f578182fd5b60008060006060848603121561339f578081fd5b83356133aa81613747565b95602085013595506040909401359392505050565b6000806000806000608086880312156133d6578283fd5b85356133e181613747565b94506020860135935060408601359250606086013567ffffffffffffffff8082111561340b578283fd5b818801915088601f83011261341e578283fd5b81358181111561342c578384fd5b89602082850101111561343d578384fd5b9699959850939650602001949392505050565b600060208284031215613461578081fd5b8151600281106102dd578182fd5b600060208284031215613480578081fd5b8151600481106102dd578182fd5b60006020828403121561349f578081fd5b81516001600160801b03811681146102dd578182fd5b6000602082840312156134c6578081fd5b5051919050565b82815260408101600383106134e4576134e461371b565b8260208301529392505050565b60608101600685106135055761350561371b565b9381526001600160801b039283166020820152911660409091015290565b6000602080835283518082850152825b8181101561354f57858101830151858201604001528201613533565b818111156135605783604083870101525b50601f01601f1916929092016040019392505050565b604051601f8201601f1916810167ffffffffffffffff8111828210171561359f5761359f613731565b604052919050565b60006001600160801b038083168185168083038211156135c9576135c96136ef565b01949350505050565b600082198211156135e5576135e56136ef565b500190565b60006001600160801b038084168061360457613604613705565b92169190910492915050565b60008261361f5761361f613705565b500490565b60006001600160801b038083168185168183048111821515161561364a5761364a6136ef565b02949350505050565b6000817fffffffffffffffffffffffffffffffffffffffffffffffffffffffffffffffff048311821515161561368b5761368b6136ef565b500290565b60006001600160801b03838116908316818110156136b0576136b06136ef565b039392505050565b6000828210156136ca576136ca6136ef565b500390565b600060ff821660ff8114156136e6576136e66136ef565b60010192915050565b634e487b7160e01b600052601160045260246000fd5b634e487b7160e01b600052601260045260246000fd5b634e487b7160e01b600052602160045260246000fd5b634e487b7160e01b600052604160045260246000fd5b6001600160a01b038116811461375c57600080fd5b5056fea2646970667358221220e6a3fecd0ac75c53d77e1c6d8706cace995be61c2a364abd65ef7a4743fa77f864736f6c63430008040033",
  "linkReferences": {},
  "deployedLinkReferences": {}
}