{
  "_format": "hh-sol-artifact-1",
  "contractName": "CollectiveEscrowFundAdapterContract",
  "sourceName": "contracts/collective/adapters/CollectiveEscrowFundAdapter.sol",
  "abi": [
    {
      "inputs": [],
      "name": "ACCESS_DENIED",
      "type": "error"
    },
    {
      "inputs": [],
      "name": "NO_FUND_TO_WITHDRAW",
      "type": "error"
    },
    {
      "anonymous": false,
      "inputs": [
        {
          "indexed": false,
          "internalType": "address",
          "name": "dao",
          "type": "address"
        },
        {
          "indexed": false,
          "internalType": "address",
          "name": "token",
          "type": "address"
        },
        {
          "indexed": false,
          "internalType": "address",
          "name": "account",
          "type": "address"
        },
        {
          "indexed": false,
          "internalType": "uint256",
          "name": "amount",
          "type": "uint256"
        }
      ],
      "name": "EscrowFund",
      "type": "event"
    },
    {
      "anonymous": false,
      "inputs": [
        {
          "indexed": false,
          "internalType": "address",
          "name": "dao",
          "type": "address"
        },
        {
          "indexed": false,
          "internalType": "address",
          "name": "token",
          "type": "address"
        },
        {
          "indexed": false,
          "internalType": "address",
          "name": "account",
          "type": "address"
        },
        {
          "indexed": false,
          "internalType": "uint256",
          "name": "amount",
          "type": "uint256"
        },
        {
          "indexed": false,
          "internalType": "uint256",
          "name": "fundRaisingId",
          "type": "uint256"
        }
      ],
      "name": "EscrowFundFromFailedFundRaising",
      "type": "event"
    },
    {
      "anonymous": false,
      "inputs": [
        {
          "indexed": false,
          "internalType": "address",
          "name": "dao",
          "type": "address"
        },
        {
          "indexed": false,
          "internalType": "address",
          "name": "token",
          "type": "address"
        },
        {
          "indexed": false,
          "internalType": "address",
          "name": "account",
          "type": "address"
        },
        {
          "indexed": false,
          "internalType": "uint256",
          "name": "amount",
          "type": "uint256"
        },
        {
          "indexed": false,
          "internalType": "uint256",
          "name": "liquidationId",
          "type": "uint256"
        }
      ],
      "name": "EscrowFundFromLiquidation",
      "type": "event"
    },
    {
      "anonymous": false,
      "inputs": [
        {
          "indexed": false,
          "internalType": "address",
          "name": "dao",
          "type": "address"
        },
        {
          "indexed": false,
          "internalType": "address",
          "name": "token",
          "type": "address"
        },
        {
          "indexed": false,
          "internalType": "address",
          "name": "account",
          "type": "address"
        },
        {
          "indexed": false,
          "internalType": "uint256",
          "name": "amount",
          "type": "uint256"
        },
        {
          "indexed": false,
          "internalType": "uint256",
          "name": "fundRaisingId",
          "type": "uint256"
        }
      ],
      "name": "EscrowFundFromOverRaised",
      "type": "event"
    },
    {
      "anonymous": false,
      "inputs": [
        {
          "indexed": false,
          "internalType": "address",
          "name": "dao",
          "type": "address"
        },
        {
          "indexed": false,
          "internalType": "address",
          "name": "token",
          "type": "address"
        },
        {
          "indexed": false,
          "internalType": "address",
          "name": "account",
          "type": "address"
        },
        {
          "indexed": false,
          "internalType": "uint256",
          "name": "amount",
          "type": "uint256"
        },
        {
          "indexed": false,
          "internalType": "uint256",
          "name": "fundRaisingId",
          "type": "uint256"
        }
      ],
      "name": "WithdrawFromFailedFundRaising",
      "type": "event"
    },
    {
      "anonymous": false,
      "inputs": [
        {
          "indexed": false,
          "internalType": "address",
          "name": "dao",
          "type": "address"
        },
        {
          "indexed": false,
          "internalType": "address",
          "name": "token",
          "type": "address"
        },
        {
          "indexed": false,
          "internalType": "address",
          "name": "account",
          "type": "address"
        },
        {
          "indexed": false,
          "internalType": "uint256",
          "name": "amount",
          "type": "uint256"
        },
        {
          "indexed": false,
          "internalType": "uint256",
          "name": "liquidationId",
          "type": "uint256"
        }
      ],
      "name": "WithdrawFromLiquidation",
      "type": "event"
    },
    {
      "anonymous": false,
      "inputs": [
        {
          "indexed": false,
          "internalType": "address",
          "name": "dao",
          "type": "address"
        },
        {
          "indexed": false,
          "internalType": "address",
          "name": "token",
          "type": "address"
        },
        {
          "indexed": false,
          "internalType": "address",
          "name": "account",
          "type": "address"
        },
        {
          "indexed": false,
          "internalType": "uint256",
          "name": "amount",
          "type": "uint256"
        },
        {
          "indexed": false,
          "internalType": "uint256",
          "name": "fundRaisingId",
          "type": "uint256"
        }
      ],
      "name": "WithdrawFromOverRaised",
      "type": "event"
    },
    {
      "inputs": [
        {
          "internalType": "contract DaoRegistry",
          "name": "dao",
          "type": "address"
        },
        {
          "internalType": "address",
          "name": "token",
          "type": "address"
        },
        {
          "internalType": "address",
          "name": "account",
          "type": "address"
        },
        {
          "internalType": "uint256",
          "name": "amount",
          "type": "uint256"
        },
        {
          "internalType": "uint256",
          "name": "fundRaisingId",
          "type": "uint256"
        }
      ],
      "name": "escrowFundFromFailedFundRaising",
      "outputs": [],
      "stateMutability": "nonpayable",
      "type": "function"
    },
    {
      "inputs": [
        {
          "internalType": "contract DaoRegistry",
          "name": "dao",
          "type": "address"
        },
        {
          "internalType": "address",
          "name": "token",
          "type": "address"
        },
        {
          "internalType": "address",
          "name": "account",
          "type": "address"
        },
        {
          "internalType": "uint256",
          "name": "amount",
          "type": "uint256"
        },
        {
          "internalType": "uint256",
          "name": "liquidationId",
          "type": "uint256"
        }
      ],
      "name": "escrowFundFromLiquidation",
      "outputs": [],
      "stateMutability": "nonpayable",
      "type": "function"
    },
    {
      "inputs": [
        {
          "internalType": "contract DaoRegistry",
          "name": "dao",
          "type": "address"
        },
        {
          "internalType": "address",
          "name": "token",
          "type": "address"
        },
        {
          "internalType": "address",
          "name": "account",
          "type": "address"
        },
        {
          "internalType": "uint256",
          "name": "amount",
          "type": "uint256"
        },
        {
          "internalType": "uint256",
          "name": "fundRaisingId",
          "type": "uint256"
        }
      ],
      "name": "escrowFundFromOverRaised",
      "outputs": [],
      "stateMutability": "nonpayable",
      "type": "function"
    },
    {
      "inputs": [
        {
          "internalType": "address",
          "name": "",
          "type": "address"
        },
        {
          "internalType": "address",
          "name": "",
          "type": "address"
        },
        {
          "internalType": "address",
          "name": "",
          "type": "address"
        }
      ],
      "name": "escrowFunds",
      "outputs": [
        {
          "internalType": "uint256",
          "name": "",
          "type": "uint256"
        }
      ],
      "stateMutability": "view",
      "type": "function"
    },
    {
      "inputs": [
        {
          "internalType": "address",
          "name": "",
          "type": "address"
        },
        {
          "internalType": "address",
          "name": "",
          "type": "address"
        },
        {
          "internalType": "address",
          "name": "",
          "type": "address"
        },
        {
          "internalType": "uint256",
          "name": "",
          "type": "uint256"
        }
      ],
      "name": "escrowFundsFromFailedFundRaise",
      "outputs": [
        {
          "internalType": "uint256",
          "name": "",
          "type": "uint256"
        }
      ],
      "stateMutability": "view",
      "type": "function"
    },
    {
      "inputs": [
        {
          "internalType": "address",
          "name": "",
          "type": "address"
        },
        {
          "internalType": "address",
          "name": "",
          "type": "address"
        },
        {
          "internalType": "address",
          "name": "",
          "type": "address"
        },
        {
          "internalType": "uint256",
          "name": "",
          "type": "uint256"
        }
      ],
      "name": "escrowFundsFromLiquidation",
      "outputs": [
        {
          "internalType": "uint256",
          "name": "",
          "type": "uint256"
        }
      ],
      "stateMutability": "view",
      "type": "function"
    },
    {
      "inputs": [
        {
          "internalType": "address",
          "name": "",
          "type": "address"
        },
        {
          "internalType": "address",
          "name": "",
          "type": "address"
        },
        {
          "internalType": "address",
          "name": "",
          "type": "address"
        },
        {
          "internalType": "uint256",
          "name": "",
          "type": "uint256"
        }
      ],
      "name": "escrowFundsFromOverRaised",
      "outputs": [
        {
          "internalType": "uint256",
          "name": "",
          "type": "uint256"
        }
      ],
      "stateMutability": "view",
      "type": "function"
    },
    {
      "inputs": [
        {
          "internalType": "contract DaoRegistry",
          "name": "dao",
          "type": "address"
        },
        {
          "internalType": "address",
          "name": "token",
          "type": "address"
        },
        {
          "internalType": "uint256",
          "name": "fundRaisingId",
          "type": "uint256"
        }
      ],
      "name": "withdrawFromFailedFundRaising",
      "outputs": [],
      "stateMutability": "nonpayable",
      "type": "function"
    },
    {
      "inputs": [
        {
          "internalType": "contract DaoRegistry",
          "name": "dao",
          "type": "address"
        },
        {
          "internalType": "address",
          "name": "token",
          "type": "address"
        },
        {
          "internalType": "uint256",
          "name": "liquidationId",
          "type": "uint256"
        }
      ],
      "name": "withdrawFromLiquidation",
      "outputs": [],
      "stateMutability": "nonpayable",
      "type": "function"
    },
    {
      "inputs": [
        {
          "internalType": "contract DaoRegistry",
          "name": "dao",
          "type": "address"
        },
        {
          "internalType": "address",
          "name": "token",
          "type": "address"
        },
        {
          "internalType": "uint256",
          "name": "fundRaisingId",
          "type": "uint256"
        }
      ],
      "name": "withdrawFromOverRaised",
      "outputs": [],
      "stateMutability": "nonpayable",
      "type": "function"
    }
  ],
  "bytecode": "0x608060405234801561001057600080fd5b50611686806100206000396000f3fe608060405234801561001057600080fd5b50600436106100be5760003560e01c806387890aa611610076578063a9c5a75c1161005b578063a9c5a75c14610183578063d447484f146101b3578063ea5f7bbc146101ed57600080fd5b806387890aa6146101245780638f8f4d211461017057600080fd5b806335d8f1dd116100a757806335d8f1dd146100eb57806369b5e0c9146100fe5780636b99029e1461011157600080fd5b806301144ffd146100c3578063181b2efa146100d8575b600080fd5b6100d66100d136600461148b565b610227565b005b6100d66100e63660046114e5565b6103a2565b6100d66100f93660046114e5565b6105b4565b6100d661010c3660046114e5565b6107af565b6100d661011f36600461148b565b6109aa565b61015e6101323660046113f6565b600160209081526000948552604080862082529385528385208152918452828420909152825290205481565b60405190815260200160405180910390f35b6100d661017e36600461148b565b610b1a565b61015e6101913660046113ac565b6000602081815293815260408082208552928152828120909352825290205481565b61015e6101c13660046113f6565b600360209081526000948552604080862082529385528385208152918452828420909152825290205481565b61015e6101fb3660046113f6565b600260209081526000948552604080862082529385528385208152918452828420909152825290205481565b6040516317ba7d8560e01b81527f8f5b4aabbdb8527d420a29cc90ae207773ad49b73c632c3cfd2f29eb8776f2ea60048201526001600160a01b038616906317ba7d859060240160206040518083038186803b15801561028657600080fd5b505afa15801561029a573d6000803e3d6000fd5b505050506040513d601f19601f820116820180604052508101906102be9190611390565b6001600160a01b0316336001600160a01b0316146102ef576040516395383ea160e01b815260040160405180910390fd5b6001600160a01b038086166000908152600360209081526040808320888516845282528083209387168352928152828220848352905290812080548492906103389084906115aa565b9091555050604080516001600160a01b038088168252808716602083015285169181019190915260608101839052608081018290527f2f38d07682c516918065ea0ba9d214790a163810e313ef87a34b7c7f5dd9440d9060a0015b60405180910390a15050505050565b8260006103ae82610c8a565b6001600160a01b038087166000908152600160209081526040808320938916835292815282822033835281528282208783529052205490915080610405576040516368d838ed60e01b815260040160405180910390fd5b6040516370a0823160e01b8152306004820152819081906001600160a01b038816906370a082319060240160206040518083038186803b15801561044857600080fd5b505afa15801561045c573d6000803e3d6000fd5b505050506040513d601f19601f820116820180604052508101906104809190611525565b1015610500576040516370a0823160e01b81523060048201526001600160a01b038716906370a082319060240160206040518083038186803b1580156104c557600080fd5b505afa1580156104d9573d6000803e3d6000fd5b505050506040513d601f19601f820116820180604052508101906104fd9190611525565b90505b6105146001600160a01b0387163383610f5a565b6001600160a01b038781166000818152600160209081526040808320948b16808452948252808320338085529083528184208b85528352818420939093558051938452908301939093529181019190915260608101829052608081018690527fd8303661789172fdca9a9d990e2e0441e78f94f36ce6e9c7860d9c205fd736e39060a0015b60405180910390a150506105ad8282610fdf565b5050505050565b8260006105c082610c8a565b6001600160a01b038087166000908152600260209081526040808320938916835292815282822033835281528282208783529052205490915080610617576040516368d838ed60e01b815260040160405180910390fd5b6040516370a0823160e01b8152306004820152819081906001600160a01b038816906370a082319060240160206040518083038186803b15801561065a57600080fd5b505afa15801561066e573d6000803e3d6000fd5b505050506040513d601f19601f820116820180604052508101906106929190611525565b1015610712576040516370a0823160e01b81523060048201526001600160a01b038716906370a082319060240160206040518083038186803b1580156106d757600080fd5b505afa1580156106eb573d6000803e3d6000fd5b505050506040513d601f19601f8201168201806040525081019061070f9190611525565b90505b6107266001600160a01b0387163383610f5a565b6001600160a01b038781166000818152600260209081526040808320948b16808452948252808320338085529083528184208b85528352818420939093558051938452908301939093529181019190915260608101829052608081018690527f0aeada6f52eba076f0ab252960d79fbe38cb4473c6f7cc0604236790b575eca29060a001610599565b8260006107bb82610c8a565b6001600160a01b038087166000908152600360209081526040808320938916835292815282822033835281528282208783529052205490915080610812576040516368d838ed60e01b815260040160405180910390fd5b6040516370a0823160e01b8152306004820152819081906001600160a01b038816906370a082319060240160206040518083038186803b15801561085557600080fd5b505afa158015610869573d6000803e3d6000fd5b505050506040513d601f19601f8201168201806040525081019061088d9190611525565b101561090d576040516370a0823160e01b81523060048201526001600160a01b038716906370a082319060240160206040518083038186803b1580156108d257600080fd5b505afa1580156108e6573d6000803e3d6000fd5b505050506040513d601f19601f8201168201806040525081019061090a9190611525565b90505b6109216001600160a01b0387163383610f5a565b6001600160a01b038781166000818152600360209081526040808320948b16808452948252808320338085529083528184208b85528352818420939093558051938452908301939093529181019190915260608101829052608081018690527fc274a4e16673fbe9a493194c96f45030a8940f0f40837b07b5b2b4c7c63130ee9060a001610599565b6040516317ba7d8560e01b81527f8f5b4aabbdb8527d420a29cc90ae207773ad49b73c632c3cfd2f29eb8776f2ea60048201526001600160a01b038616906317ba7d859060240160206040518083038186803b158015610a0957600080fd5b505afa158015610a1d573d6000803e3d6000fd5b505050506040513d601f19601f82011682018060405250810190610a419190611390565b6001600160a01b0316336001600160a01b031614610a72576040516395383ea160e01b815260040160405180910390fd5b6001600160a01b03808616600090815260026020908152604080832088851684528252808320938716835292815282822084835290529081208054849290610abb9084906115aa565b9091555050604080516001600160a01b038088168252808716602083015285169181019190915260608101839052608081018290527f81e601e1c715541c390318c9304b5d2fd41f0358ddf476b3fa70c423d941d8569060a001610393565b6040516317ba7d8560e01b81527f8f5b4aabbdb8527d420a29cc90ae207773ad49b73c632c3cfd2f29eb8776f2ea60048201526001600160a01b038616906317ba7d859060240160206040518083038186803b158015610b7957600080fd5b505afa158015610b8d573d6000803e3d6000fd5b505050506040513d601f19601f82011682018060405250810190610bb19190611390565b6001600160a01b0316336001600160a01b031614610be2576040516395383ea160e01b815260040160405180910390fd5b6001600160a01b03808616600090815260016020908152604080832088851684528252808320938716835292815282822084835290529081208054849290610c2b9084906115aa565b9091555050604080516001600160a01b038088168252808716602083015285169181019190915260608101839052608081018290527f4d3bc3717e7dc84087428bdec06852a6ac110d7761ce39dfe610da9aca024c0c9060a001610393565b6040805160808101825260008082526020820181905291810182905260608101919091525a81600001818152505043826001600160a01b031663b21634826040518163ffffffff1660e01b815260040160206040518083038186803b158015610cf257600080fd5b505afa158015610d06573d6000803e3d6000fd5b505050506040513d601f19601f82011682018060405250810190610d2a9190611525565b1415610d7d5760405162461bcd60e51b815260206004820152601060248201527f7265656e7472616e63792067756172640000000000000000000000000000000060448201526064015b60405180910390fd5b816001600160a01b03166310fdb0a26040518163ffffffff1660e01b8152600401600060405180830381600087803b158015610db857600080fd5b505af1158015610dcc573d6000803e3d6000fd5b50506040517f72c6838f0000000000000000000000000000000000000000000000000000000081527f1f2fd42ad6a6cacd573c4b212beb7a4e2499ad45d742a65337097f130e71daff6004820152600092506001600160a01b03851691506372c6838f9060240160206040518083038186803b158015610e4b57600080fd5b505afa158015610e5f573d6000803e3d6000fd5b505050506040513d601f19601f82011682018060405250810190610e839190611390565b90506001600160a01b038116610e9f5760006020830152610f54565b6001600160a01b038181166060840181905283516040517f43a8a3f1000000000000000000000000000000000000000000000000000000008152928616600484015260248301526000918291906343a8a3f190604401604080518083038186803b158015610f0c57600080fd5b505afa158015610f20573d6000803e3d6000fd5b505050506040513d601f19601f82011682018060405250810190610f449190611460565b9015156020860152604085015250505b50919050565b604080516001600160a01b038416602482015260448082018490528251808303909101815260649091019091526020810180517bffffffffffffffffffffffffffffffffffffffffffffffffffffffff167fa9059cbb00000000000000000000000000000000000000000000000000000000179052610fda908490610fee565b505050565b610fea8282336110d3565b5050565b6000611043826040518060400160405280602081526020017f5361666545524332303a206c6f772d6c6576656c2063616c6c206661696c6564815250856001600160a01b03166111e19092919063ffffffff16565b805190915015610fda57808060200190518101906110619190611446565b610fda5760405162461bcd60e51b815260206004820152602a60248201527f5361666545524332303a204552433230206f7065726174696f6e20646964206e60448201527f6f742073756363656564000000000000000000000000000000000000000000006064820152608401610d74565b8160200151156111895781606001516001600160a01b0316635e5eb01384835a86516110ff91906115c2565b60408088015190517fffffffff0000000000000000000000000000000000000000000000000000000060e087901b1681526001600160a01b03948516600482015293909216602484015260448301526064820152608401600060405180830381600087803b15801561117057600080fd5b505af1158015611184573d6000803e3d6000fd5b505050505b826001600160a01b031663d4f7af436040518163ffffffff1660e01b8152600401600060405180830381600087803b1580156111c457600080fd5b505af11580156111d8573d6000803e3d6000fd5b50505050505050565b60606111f084846000856111fa565b90505b9392505050565b6060824710156112725760405162461bcd60e51b815260206004820152602660248201527f416464726573733a20696e73756666696369656e742062616c616e636520666f60448201527f722063616c6c00000000000000000000000000000000000000000000000000006064820152608401610d74565b6001600160a01b0385163b6112c95760405162461bcd60e51b815260206004820152601d60248201527f416464726573733a2063616c6c20746f206e6f6e2d636f6e74726163740000006044820152606401610d74565b600080866001600160a01b031685876040516112e5919061153d565b60006040518083038185875af1925050503d8060008114611322576040519150601f19603f3d011682016040523d82523d6000602084013e611327565b606091505b5091509150611337828286611342565b979650505050505050565b606083156113515750816111f3565b8251156113615782518084602001fd5b8160405162461bcd60e51b8152600401610d749190611559565b8051801515811461138b57600080fd5b919050565b6000602082840312156113a1578081fd5b81516111f381611638565b6000806000606084860312156113c0578182fd5b83356113cb81611638565b925060208401356113db81611638565b915060408401356113eb81611638565b809150509250925092565b6000806000806080858703121561140b578081fd5b843561141681611638565b9350602085013561142681611638565b9250604085013561143681611638565b9396929550929360600135925050565b600060208284031215611457578081fd5b6111f38261137b565b60008060408385031215611472578182fd5b61147b8361137b565b9150602083015190509250929050565b600080600080600060a086880312156114a2578081fd5b85356114ad81611638565b945060208601356114bd81611638565b935060408601356114cd81611638565b94979396509394606081013594506080013592915050565b6000806000606084860312156114f9578283fd5b833561150481611638565b9250602084013561151481611638565b929592945050506040919091013590565b600060208284031215611536578081fd5b5051919050565b6000825161154f8184602087016115d9565b9190910192915050565b60208152600082518060208401526115788160408501602087016115d9565b601f017fffffffffffffffffffffffffffffffffffffffffffffffffffffffffffffffe0169190910160400192915050565b600082198211156115bd576115bd611609565b500190565b6000828210156115d4576115d4611609565b500390565b60005b838110156115f45781810151838201526020016115dc565b83811115611603576000848401525b50505050565b7f4e487b7100000000000000000000000000000000000000000000000000000000600052601160045260246000fd5b6001600160a01b038116811461164d57600080fd5b5056fea2646970667358221220db11188588c68ca1d7ad4d951aaccf0862dd5981b69dba611c01e6334fa41f3864736f6c63430008040033",
  "linkReferences": {},
  "deployedLinkReferences": {}
}