{
  "_format": "hh-sol-artifact-1",
  "contractName": "CollectiveRedemptionFeeEscrowAdapterContract",
  "sourceName": "contracts/collective/adapters/CollectiveRedemptionFeeEscrowAdapter.sol",
  "abi": [
    {
      "inputs": [],
      "name": "ACCESS_DENIED",
      "type": "error"
    },
    {
      "inputs": [],
      "name": "NO_FUND_WITHDRAW",
      "type": "error"
    },
    {
      "inputs": [],
      "name": "WITHDRAW_ALREADY",
      "type": "error"
    },
    {
      "anonymous": false,
      "inputs": [
        {
          "indexed": false,
          "internalType": "address",
          "name": "dao",
          "type": "address"
        },
        {
          "indexed": false,
          "internalType": "address",
          "name": "tokenAddr",
          "type": "address"
        },
        {
          "indexed": false,
          "internalType": "uint256",
          "name": "amount",
          "type": "uint256"
        }
      ],
      "name": "EscrowFund",
      "type": "event"
    },
    {
      "anonymous": false,
      "inputs": [
        {
          "indexed": false,
          "internalType": "address",
          "name": "dao",
          "type": "address"
        },
        {
          "indexed": false,
          "internalType": "address",
          "name": "tokenAddr",
          "type": "address"
        },
        {
          "indexed": false,
          "internalType": "uint256",
          "name": "amount",
          "type": "uint256"
        }
      ],
      "name": "Withdraw",
      "type": "event"
    },
    {
      "inputs": [
        {
          "internalType": "contract DaoRegistry",
          "name": "dao",
          "type": "address"
        },
        {
          "internalType": "uint256",
          "name": "blockNum",
          "type": "uint256"
        },
        {
          "internalType": "address",
          "name": "tokenAddr",
          "type": "address"
        },
        {
          "internalType": "uint256",
          "name": "amount",
          "type": "uint256"
        }
      ],
      "name": "escrowRedemptionFee",
      "outputs": [],
      "stateMutability": "nonpayable",
      "type": "function"
    },
    {
      "inputs": [
        {
          "internalType": "address",
          "name": "",
          "type": "address"
        },
        {
          "internalType": "uint256",
          "name": "",
          "type": "uint256"
        }
      ],
      "name": "escrowedRedemptionFeeByBlockNum",
      "outputs": [
        {
          "internalType": "uint256",
          "name": "",
          "type": "uint256"
        }
      ],
      "stateMutability": "view",
      "type": "function"
    },
    {
      "inputs": [
        {
          "internalType": "address",
          "name": "",
          "type": "address"
        },
        {
          "internalType": "address",
          "name": "",
          "type": "address"
        }
      ],
      "name": "escrowedRedemptionFees",
      "outputs": [
        {
          "internalType": "uint256",
          "name": "",
          "type": "uint256"
        }
      ],
      "stateMutability": "view",
      "type": "function"
    },
    {
      "inputs": [
        {
          "internalType": "contract DaoRegistry",
          "name": "dao",
          "type": "address"
        },
        {
          "internalType": "address",
          "name": "tokenAddr",
          "type": "address"
        }
      ],
      "name": "getBlockNumByTokenAddr",
      "outputs": [
        {
          "internalType": "uint256[]",
          "name": "",
          "type": "uint256[]"
        }
      ],
      "stateMutability": "view",
      "type": "function"
    },
    {
      "inputs": [
        {
          "internalType": "contract DaoRegistry",
          "name": "dao",
          "type": "address"
        },
        {
          "internalType": "address",
          "name": "tokenAddr",
          "type": "address"
        },
        {
          "internalType": "address",
          "name": "account",
          "type": "address"
        }
      ],
      "name": "getRedemptionFeeAmount",
      "outputs": [
        {
          "internalType": "uint256",
          "name": "",
          "type": "uint256"
        }
      ],
      "stateMutability": "view",
      "type": "function"
    },
    {
      "inputs": [
        {
          "internalType": "contract DaoRegistry",
          "name": "dao",
          "type": "address"
        },
        {
          "internalType": "address",
          "name": "tokenAddr",
          "type": "address"
        }
      ],
      "name": "withDrawRedemptionFee",
      "outputs": [],
      "stateMutability": "nonpayable",
      "type": "function"
    },
    {
      "inputs": [
        {
          "internalType": "address",
          "name": "",
          "type": "address"
        },
        {
          "internalType": "address",
          "name": "",
          "type": "address"
        },
        {
          "internalType": "address",
          "name": "",
          "type": "address"
        }
      ],
      "name": "withdrawAmount",
      "outputs": [
        {
          "internalType": "uint256",
          "name": "",
          "type": "uint256"
        }
      ],
      "stateMutability": "view",
      "type": "function"
    }
  ],
  "bytecode": "0x608060405234801561001057600080fd5b5061125f806100206000396000f3fe608060405234801561001057600080fd5b506004361061007d5760003560e01c8063dfdd0ce81161005b578063dfdd0ce8146100f9578063e24fc67014610121578063e5509c0014610152578063ece0c17a1461016557600080fd5b806374ef9d2614610082578063871c2237146100ab578063a3ae0539146100c0575b600080fd5b610095610090366004610fd9565b610178565b6040516100a29190611092565b60405180910390f35b6100be6100b9366004610fff565b6101b2565b005b6100eb6100ce366004610ec7565b600160209081526000928352604080842090915290825290205481565b6040519081526020016100a2565b6100eb610107366004610e45565b600060208181529281526040808220909352908152205481565b6100eb61012f366004610e7d565b600360209081526000938452604080852082529284528284209052825290205481565b6100eb610160366004610feb565b61042c565b6100be610173366004610fd9565b61090b565b6001600160a01b0380831660009081526004602090815260408083209385168352929052206060906101a990610a36565b90505b92915050565b6040517f17ba7d850000000000000000000000000000000000000000000000000000000081527f8f5b4aabbdb8527d420a29cc90ae207773ad49b73c632c3cfd2f29eb8776f2ea60048201526001600160a01b038516906317ba7d859060240160206040518083038186803b15801561022a57600080fd5b505afa15801561023e573d6000803e3d6000fd5b505050506040513d601f19601f820116820180604052508101906102629190610e29565b6001600160a01b0316336001600160a01b0316146102ac576040517f95383ea100000000000000000000000000000000000000000000000000000000815260040160405180910390fd5b6040805180820182526001600160a01b03848116825260208083018581528883166000818152600284528681208a82528452868120955186547fffffffffffffffffffffffff0000000000000000000000000000000000000000169516949094178555905160019485015582529182528281208682529091529081208054839290610338908490611109565b90915550506001600160a01b0380851660009081526020818152604080832093861683529290529081208054839290610372908490611109565b90915550506001600160a01b0380851660009081526004602090815260408083209386168352929052206103a69084610a43565b6103db576001600160a01b0380851660009081526004602090815260408083209386168352929052206103d99084610a5b565b505b604080516001600160a01b038087168252841660208201529081018290527fa5b745e757d5751df8061a2511b998d3cf55ba56a65d9f8253bc5130bc82eb9c9060600160405180910390a150505050565b6040517f593e96b60000000000000000000000000000000000000000000000000000000081527f3909e87234f428ccb8748126e2c93f66a62f92a70d315fa5803dec6362be07ab600482015260009081906001600160a01b0386169063593e96b69060240160206040518083038186803b1580156104a957600080fd5b505afa1580156104bd573d6000803e3d6000fd5b505050506040513d601f19601f820116820180604052508101906104e19190610e29565b6001600160a01b03808716600090815260046020908152604080832093891683529290529081209192509061051590610a36565b9050600080825111156108c45760005b82518160ff1610156108c25743838260ff168151811061055557634e487b7160e01b600052603260045260246000fd5b602002602001015110610567576108c2565b6000846001600160a01b031663faaf38b3888a878660ff168151811061059d57634e487b7160e01b600052603260045260246000fd5b60209081029190910101516040517fffffffff0000000000000000000000000000000000000000000000000000000060e086901b1681526001600160a01b039384166004820152929091166024830152604482015260640160206040518083038186803b15801561060d57600080fd5b505afa158015610621573d6000803e3d6000fd5b505050506040513d601f19601f820116820180604052508101906106459190611046565b6fffffffffffffffffffffffffffffffff1690506000856001600160a01b031663faaf38b361decd8b888760ff168151811061069157634e487b7160e01b600052603260045260246000fd5b60209081029190910101516040517fffffffff0000000000000000000000000000000000000000000000000000000060e086901b1681526001600160a01b039384166004820152929091166024830152604482015260640160206040518083038186803b15801561070157600080fd5b505afa158015610715573d6000803e3d6000fd5b505050506040513d601f19601f820116820180604052508101906107399190611046565b6fffffffffffffffffffffffffffffffff16905060008a6001600160a01b031663a6f636416040518163ffffffff1660e01b815260040160006040518083038186803b15801561078857600080fd5b505afa15801561079c573d6000803e3d6000fd5b505050506040513d6000823e601f3d908101601f191682016040526107c49190810190610ef2565b516001141561082b576001600160a01b038b1660009081526001602052604081208751909190889060ff881690811061080d57634e487b7160e01b600052603260045260246000fd5b602002602001015181526020019081526020016000205490506108a0565b81156108a0576001600160a01b038b1660009081526001602052604081208751849290899060ff891690811061087157634e487b7160e01b600052603260045260246000fd5b6020026020010151815260200190815260200160002054846108939190611141565b61089d9190611121565b90505b6108aa8186611109565b945050505080806108ba906111c5565b915050610525565b505b6001600160a01b0380881660009081526003602090815260408083208a851684528252808320938916835292905220546108fe908261117e565b93505050505b9392505050565b600061091883833361042c565b905060008111610954576040517ffc059ee100000000000000000000000000000000000000000000000000000000815260040160405180910390fd5b6109686001600160a01b0383163383610a67565b6001600160a01b038084166000908152602081815260408083209386168352929052908120805483929061099d90849061117e565b90915550506001600160a01b0380841660009081526003602090815260408083209386168352928152828220338352905290812080548392906109e1908490611109565b9091555050604080516001600160a01b038086168252841660208201529081018290527f9b1bfa7fa9ee420a16e124f794c35ac9f90472acc99140eb2f6447c714cad8eb9060600160405180910390a1505050565b6060600061090483610aec565b600081815260018301602052604081205415156101a9565b60006101a98383610b48565b604080516001600160a01b038416602482015260448082018490528251808303909101815260649091019091526020810180517bffffffffffffffffffffffffffffffffffffffffffffffffffffffff167fa9059cbb00000000000000000000000000000000000000000000000000000000179052610ae7908490610b97565b505050565b606081600001805480602002602001604051908101604052809291908181526020018280548015610b3c57602002820191906000526020600020905b815481526020019060010190808311610b28575b50505050509050919050565b6000818152600183016020526040812054610b8f575081546001818101845560008481526020808220909301849055845484825282860190935260409020919091556101ac565b5060006101ac565b6000610bec826040518060400160405280602081526020017f5361666545524332303a206c6f772d6c6576656c2063616c6c206661696c6564815250856001600160a01b0316610c819092919063ffffffff16565b805190915015610ae75780806020019051810190610c0a9190610fb9565b610ae75760405162461bcd60e51b815260206004820152602a60248201527f5361666545524332303a204552433230206f7065726174696f6e20646964206e60448201527f6f7420737563636565640000000000000000000000000000000000000000000060648201526084015b60405180910390fd5b6060610c908484600085610c98565b949350505050565b606082471015610d105760405162461bcd60e51b815260206004820152602660248201527f416464726573733a20696e73756666696369656e742062616c616e636520666f60448201527f722063616c6c00000000000000000000000000000000000000000000000000006064820152608401610c78565b6001600160a01b0385163b610d675760405162461bcd60e51b815260206004820152601d60248201527f416464726573733a2063616c6c20746f206e6f6e2d636f6e74726163740000006044820152606401610c78565b600080866001600160a01b03168587604051610d839190611076565b60006040518083038185875af1925050503d8060008114610dc0576040519150601f19603f3d011682016040523d82523d6000602084013e610dc5565b606091505b5091509150610dd5828286610de0565b979650505050505050565b60608315610def575081610904565b825115610dff5782518084602001fd5b8160405162461bcd60e51b8152600401610c7891906110d6565b8051610e2481611211565b919050565b600060208284031215610e3a578081fd5b815161090481611211565b60008060408385031215610e57578081fd5b8235610e6281611211565b91506020830135610e7281611211565b809150509250929050565b600080600060608486031215610e91578081fd5b8335610e9c81611211565b92506020840135610eac81611211565b91506040840135610ebc81611211565b809150509250925092565b60008060408385031215610ed9578182fd5b8235610ee481611211565b946020939093013593505050565b60006020808385031215610f04578182fd5b825167ffffffffffffffff80821115610f1b578384fd5b818501915085601f830112610f2e578384fd5b815181811115610f4057610f406111fb565b8060051b604051601f19603f83011681018181108582111715610f6557610f656111fb565b604052828152858101935084860182860187018a1015610f83578788fd5b8795505b83861015610fac57610f9881610e19565b855260019590950194938601938601610f87565b5098975050505050505050565b600060208284031215610fca578081fd5b81518015158114610904578182fd5b60008060408385031215610e57578182fd5b600080600060608486031215610e91578283fd5b60008060008060808587031215611014578081fd5b843561101f81611211565b935060208501359250604085013561103681611211565b9396929550929360600135925050565b600060208284031215611057578081fd5b81516fffffffffffffffffffffffffffffffff81168114610904578182fd5b60008251611088818460208701611195565b9190910192915050565b6020808252825182820181905260009190848201906040850190845b818110156110ca578351835292840192918401916001016110ae565b50909695505050505050565b60208152600082518060208401526110f5816040850160208701611195565b601f01601f19169190910160400192915050565b6000821982111561111c5761111c6111e5565b500190565b60008261113c57634e487b7160e01b81526012600452602481fd5b500490565b6000817fffffffffffffffffffffffffffffffffffffffffffffffffffffffffffffffff0483118215151615611179576111796111e5565b500290565b600082821015611190576111906111e5565b500390565b60005b838110156111b0578181015183820152602001611198565b838111156111bf576000848401525b50505050565b600060ff821660ff8114156111dc576111dc6111e5565b60010192915050565b634e487b7160e01b600052601160045260246000fd5b634e487b7160e01b600052604160045260246000fd5b6001600160a01b038116811461122657600080fd5b5056fea2646970667358221220db957990266b2f67b6af547a95d49daa8ec6e39109e528febe0bd06102f001c364736f6c63430008040033",
  "linkReferences": {},
  "deployedLinkReferences": {}
}