{
  "_format": "hh-sol-artifact-1",
  "contractName": "NFTDescriptorTest",
  "sourceName": "contracts/test/NFTDescriptorTest.sol",
  "abi": [
    {
      "inputs": [
        {
          "internalType": "string",
          "name": "tokenName",
          "type": "string"
        },
        {
          "internalType": "address",
          "name": "tokenAddr",
          "type": "address"
        },
        {
          "internalType": "uint256[5]",
          "name": "uint256Params",
          "type": "uint256[5]"
        }
      ],
      "name": "generateSVG",
      "outputs": [
        {
          "internalType": "string",
          "name": "svg",
          "type": "string"
        }
      ],
      "stateMutability": "view",
      "type": "function"
    },
    {
      "inputs": [
        {
          "internalType": "uint256",
          "name": "amount",
          "type": "uint256"
        }
      ],
      "name": "integerToString",
      "outputs": [
        {
          "internalType": "string",
          "name": "",
          "type": "string"
        }
      ],
      "stateMutability": "pure",
      "type": "function"
    },
    {
      "inputs": [],
      "name": "test",
      "outputs": [
        {
          "internalType": "address",
          "name": "",
          "type": "address"
        }
      ],
      "stateMutability": "pure",
      "type": "function"
    }
  ],
  "bytecode": "0x608060405234801561001057600080fd5b5061373a806100206000396000f3fe608060405234801561001057600080fd5b50600436106100415760003560e01c8063c88a371014610046578063f5c8273e1461006f578063f8a8fd6d14610082575b600080fd5b610059610054366004611ffe565b610092565b6040516100669190613586565b60405180910390f35b61005961007d366004611f4c565b6100a3565b60405161decd8152602001610066565b606061009d826100b8565b92915050565b60606100b0848484610864565b949350505050565b60606000806000806000683635c9adc5dea000008710156102ac576100e466038d7ea4c6800088613602565b94506100f3620186a086613602565b9350610107670de0b6b3a764000088613602565b9350600a60646103e861012267016345785d8a00008b613602565b61012c91906136ae565b61013691906136ae565b61014091906136ae565b9250600a60646103e861271061015d662386f26fc100008c613602565b61016791906136ae565b61017191906136ae565b61017b91906136ae565b61018591906136ae565b9150600a60646103e8612710620186a06101a666038d7ea4c680008d613602565b6101b091906136ae565b6101ba91906136ae565b6101c491906136ae565b6101ce91906136ae565b6101d891906136ae565b90506005811061027f5760098210156101fd576101f66001836135ea565b915061027f565b60009150600983101561021c576102156001846135ea565b925061027f565b600092506103e78410610271576040517f312e30304b00000000000000000000000000000000000000000000000000000060208201526025015b60405160208183030381529060405295505050505050919050565b61027c6001856135ea565b93505b61028884610975565b61029184610975565b61029a84610975565b6040516020016102569392919061216a565b683635c9adc5dea0000087101580156102ce575069d3c21bcecceda100000087105b1561047d576102e6683635c9adc5dea0000088613602565b945060646102f6866103e8613616565b610308670de0b6b3a76400008a613602565b6103129190613635565b61031c9190613602565b9350600a61032b856064613616565b610337876103e8613616565b610349670de0b6b3a76400008b613602565b6103539190613635565b61035d9190613635565b6103679190613602565b925061037483600a613616565b61037f856064613616565b61038b876103e8613616565b61039d670de0b6b3a76400008b613602565b6103a79190613635565b6103b19190613635565b6103bb9190613635565b9150600582106104505760098310156103e0576103d96001846135ea565b9250610450565b6000925060098410156103ff576103f86001856135ea565b9350610450565b600093506103e785101561041f576104186001866135ea565b9450610450565b6040517f312e30304d0000000000000000000000000000000000000000000000000000006020820152602501610256565b61045985610975565b61046285610975565b61046b85610975565b60405160200161025693929190612334565b69d3c21bcecceda100000087101580156104a257506b033b2e3c9fd0803ce800000087105b156105f1576104b9670de0b6b3a764000088613602565b9450620f42406104d1670de0b6b3a764000089613602565b6104db9190613602565b9350620186a06104ee620f4240876136ae565b6104f89190613602565b925061271061050a620186a0876136ae565b6105149190613602565b91506103e8610525612710876136ae565b61052f9190613602565b9050600581106105c45760098210156105545761054d6001836135ea565b91506105c4565b6000915060098310156105735761056c6001846135ea565b92506105c4565b600092506103e78410156105935761058c6001866135ea565b94506105c4565b6040517f312e3030420000000000000000000000000000000000000000000000000000006020820152602501610256565b6105cd84610975565b6105d684610975565b6105df84610975565b6040516020016102569392919061223a565b6b033b2e3c9fd0803ce8000000871015801561061957506c0c9f2c9cd04674edea4000000087105b1561075c57610630670de0b6b3a764000088613602565b9450610640633b9aca0086613602565b93506305f5e100610655633b9aca00876136ae565b61065f9190613602565b9250629896806106736305f5e100876136ae565b61067d9190613602565b9150620f424061069062989680876136ae565b61069a9190613602565b90506005811061072f5760098210156106bf576106b86001836135ea565b915061072f565b6000915060098310156106de576106d76001846135ea565b925061072f565b600092506103e78410156106fe576106f76001856135ea565b935061072f565b6040517f312e3030540000000000000000000000000000000000000000000000000000006020820152602501610256565b61073884610975565b61074184610975565b61074a84610975565b604051602001610256939291906121bd565b61076e670de0b6b3a764000088613602565b945061077f64e8d4a5100086613602565b935064174876e80061079664e8d4a51000876136ae565b6107a09190613602565b92506402540be4006107b764174876e800876136ae565b6107c19190613602565b9150633b9aca006107d76402540be400876136ae565b6107e19190613602565b905060058110610837576009821015610806576107ff6001836135ea565b9150610837565b6000915060098310156108255761081e6001846135ea565b9250610837565b600092506108346001856135ea565b93505b61084084610975565b61084984610975565b61085284610975565b604051602001610256939291906122b7565b606061086e610ac3565b6108788585610afa565b8351610885908790610b7c565b61088d610bdb565b6109496040518060800160405280886003600581106108bc57634e487b7160e01b600052603260045260246000fd5b60200201518152602001886004600581106108e757634e487b7160e01b600052603260045260246000fd5b602002015181526020018860026005811061091257634e487b7160e01b600052603260045260246000fd5b602002015181526020018860016005811061093d57634e487b7160e01b600052603260045260246000fd5b60200201519052610bec565b60405160200161095d9594939291906120d7565b60405160208183030381529060405290509392505050565b6060816109b557505060408051808201909152600181527f3000000000000000000000000000000000000000000000000000000000000000602082015290565b8160005b81156109df57806109c981613693565b91506109d89050600a83613602565b91506109b9565b60008167ffffffffffffffff811115610a0857634e487b7160e01b600052604160045260246000fd5b6040519080825280601f01601f191660200182016040528015610a32576020820181803683370190505b5090505b84156100b057610a47600183613635565b9150610a54600a866136ae565b610a5f9060306135ea565b60f81b818381518110610a8257634e487b7160e01b600052603260045260246000fd5b60200101907effffffffffffffffffffffffffffffffffffffffffffffffffffffffffffff1916908160001a905350610abc600a86613602565b9450610a36565b6060610acd610d5a565b610ad5610ee6565b604051602001610ae6929190613493565b604051602081830303815290604052905090565b60606000610b1f8373ffffffffffffffffffffffffffffffffffffffff16601461109a565b84604051602001610b319291906123b1565b6040516020818303038152906040529050610b4a61132e565b610b5382611642565b604051602001610b64929190612fa4565b60405160208183030381529060405291505092915050565b60606000610b89836100b8565b9050600084604051602001610b9e9190612687565b60405160208183030381529060405290508082604051602001610bc2929190612ac2565b6040516020818303038152906040529250505092915050565b6060604051602001610ae69061304f565b6060610c3660405180610100016040528060608152602001606081526020016000815260200160008152602001600081526020016060815260200160608152602001606081525090565b82516020840151610c47919061166d565b81526060830151610c57906100b8565b60208201528251610c6790611792565b6080840152606083018190526040830191909152610c8490610975565b610c918260800151610975565b610c9e8360400151610975565b604051602001610cb093929190612409565b60408051601f1981840301815291905260c0820152610cd583600260200201516117b1565b60e0820152610ce2611989565b610cef8260200151611aa2565b610cf7611ab5565b8351610d0290611ba8565b610d0a611bbb565b610d178660c00151611cae565b610d1f611cc1565b610d2c8860e00151611dda565b604051602001610d43989796959493929190612032565b604051602081830303815290604052915050919050565b6040517f3c646566733e000000000000000000000000000000000000000000000000000060208201527f3c636c6970506174682069643d22636f726e657273223e3c726563742077696460268201527f74683d2232393022206865696768743d22353030222072783d2234322220727960468201527f3d22343222202f3e3c2f636c6970506174683e0000000000000000000000000060668201527f3c706174682069643d22746578742d706174682d612220643d224d343020313260798201527f204832353020413238203238203020302031203237382034302056343630204160998201527f323820323820302030203120323530203438382048343020413238203238203060b98201527f203020312031322034363020563430204132382032382030203020312034302060d98201527f3132207a22202f3e00000000000000000000000000000000000000000000000060f98201527f3c2f646566733e0000000000000000000000000000000000000000000000000061010182015260609061010801610ae6565b6040517f3c6720636c69702d706174683d2275726c2823636f726e65727329223e00000060208201527f3c726563742066696c6c3d226261373937302220783d223070782220793d2230603d8201527f7078222077696474683d22323930707822206865696768743d22353030707822605d8201527f202f3e0000000000000000000000000000000000000000000000000000000000607d8201527f3c67207374796c653d2266696c7465723a75726c2823746f702d726567696f6e60808201527f2d626c7572293b207472616e73666f726d3a7363616c6528312e35293b20747260a08201527f616e73666f726d2d6f726967696e3a63656e74657220746f703b223e3c72656360c08201527f742066696c6c3d226e6f6e652220783d223070782220793d223070782220776960e08201527f6474683d22323930707822206865696768743d22353030707822202f3e203c2f6101008201527f673e0000000000000000000000000000000000000000000000000000000000006101208201527f3c2f673e0000000000000000000000000000000000000000000000000000000061012282015260609061012601610ae6565b606060006110a9836002613616565b6110b49060026135ea565b67ffffffffffffffff8111156110da57634e487b7160e01b600052604160045260246000fd5b6040519080825280601f01601f191660200182016040528015611104576020820181803683370190505b5090507f30000000000000000000000000000000000000000000000000000000000000008160008151811061114957634e487b7160e01b600052603260045260246000fd5b60200101907effffffffffffffffffffffffffffffffffffffffffffffffffffffffffffff1916908160001a9053507f7800000000000000000000000000000000000000000000000000000000000000816001815181106111ba57634e487b7160e01b600052603260045260246000fd5b60200101907effffffffffffffffffffffffffffffffffffffffffffffffffffffffffffff1916908160001a90535060006111f6846002613616565b6112019060016135ea565b90505b60018111156112ba577f303132333435363738396162636465660000000000000000000000000000000085600f166010811061125057634e487b7160e01b600052603260045260246000fd5b1a60f81b82828151811061127457634e487b7160e01b600052603260045260246000fd5b60200101907effffffffffffffffffffffffffffffffffffffffffffffffffffffffffffff1916908160001a90535060049490941c936112b38161367c565b9050611204565b508315611327576040517f08c379a000000000000000000000000000000000000000000000000000000000815260206004820181905260248201527f537472696e67733a20686578206c656e67746820696e73756666696369656e74604482015260640160405180910390fd5b9392505050565b6060604051602001610ae6907f3c74657874506174682073746172744f66667365743d222d313030252220666981527f6c6c3d2277686974652220666f6e742d66616d696c793d2227436f757269657260208201527f204e6577272c206d6f6e6f73706163652220666f6e742d73697a653d2231307060408201527f782220786c696e6b3a687265663d2223746578742d706174682d61223e44414f60608201527f53717561726520496e63756261746f722056656e747572652044414f2056657360808201527f74696e673c616e696d6174652061646469746976653d2273756d22206174747260a08201527f69627574654e616d653d2273746172744f6666736574222066726f6d3d22302560c08201527f2220746f3d22313030252220626567696e3d22307322206475723d223330732260e08201527f20726570656174436f756e743d22696e646566696e69746522202f3e3c2f74656101008201527f7874506174683e000000000000000000000000000000000000000000000000006101208201527f3c74657874506174682073746172744f66667365743d223025222066696c6c3d6101278201527f2277686974652220666f6e742d66616d696c793d2227436f7572696572204e656101478201527f77272c206d6f6e6f73706163652220666f6e742d73697a653d223130707822206101678201527f786c696e6b3a687265663d2223746578742d706174682d61223e44414f5371756101878201527f61726520496e63756261746f722056656e747572652044414f2056657374696e6101a78201527f673c616e696d6174652061646469746976653d2273756d2220617474726962756101c78201527f74654e616d653d2273746172744f6666736574222066726f6d3d2230252220746101e78201527f6f3d22313030252220626567696e3d22307322206475723d22333073222072656102078201527f70656174436f756e743d22696e646566696e69746522202f3e203c2f746578746102278201527f506174683e00000000000000000000000000000000000000000000000000000061024782015261024c0190565b606081826040516020016116579291906127d0565b6040516020818303038152906040529050919050565b606060008311801561167e57508242105b156116c6576040517f4c6f636b7570000000000000000000000000000000000000000000000000000060208201526026015b604051602081830303815290604052905061009d565b82421180156116d457508142105b1561170a576040517f52656c656173696e67000000000000000000000000000000000000000000000060208201526029016116b0565b81421180156117195750600082115b1561174f576040517f456e64000000000000000000000000000000000000000000000000000000000060208201526023016116b0565b6040517f556e6b6e6f7700000000000000000000000000000000000000000000000000006020820152602601604051602081830303815290604052905092915050565b600080806117a4620151808504611ded565b9196909550909350915050565b606081610e1014156117ee576040517f486f7572730000000000000000000000000000000000000000000000000000006020820152602501611657565b8162015180141561182a576040517f44617973000000000000000000000000000000000000000000000000000000006020820152602401611657565b8162093a801415611866576040517f5765656b730000000000000000000000000000000000000000000000000000006020820152602501611657565b8162278d0014156118a2576040517f4d6f6e74687300000000000000000000000000000000000000000000000000006020820152602601611657565b816301e1338014156118df576040517f59656172730000000000000000000000000000000000000000000000000000006020820152602501611657565b81603c1415611919576040517f4d696e75746573000000000000000000000000000000000000000000000000006020820152602701611657565b8160011415611953576040517f5365636f6e6473000000000000000000000000000000000000000000000000006020820152602701611657565b6040517f556e6b6e6f7700000000000000000000000000000000000000000000000000006020820152602601611657565b919050565b6060604051602001610ae6907f3c67206d61736b3d2275726c2823666164652d73796d626f6c29223e3c74657881527f742066696c6c3d2277686974652220786d6c3a73706163653d2270726573657260208201527f766522207374796c653d2277686974652d73706163653a207072652220666f6e60408201527f742d66616d696c793d22436f7572696572204e65772220666f6e742d73697a6560608201527f3d22313222206c65747465722d73706163696e673d2230656d223e3c7473706160808201527f6e20783d2233322220793d223338312e313933223e546f74616c3c2f7473706160a08201527f6e3e3c2f746578743e000000000000000000000000000000000000000000000060c082015260c90190565b6060816040516020016116579190612583565b6060604051602001610ae6907f3c746578742066696c6c3d2277686974652220786d6c3a73706163653d22707281527f65736572766522207374796c653d2277686974652d73706163653a207072652260208201527f20666f6e742d66616d696c793d22436f7572696572204e65772220666f6e742d60408201527f73697a653d22313222206c65747465722d73706163696e673d2230656d223e3c60608201527f747370616e20783d223135342220793d223338312e313933223e53746174653c60808201527f2f747370616e3e3c2f746578743e00000000000000000000000000000000000060a082015260ae0190565b60608160405160200161165791906126cc565b6060604051602001610ae6907f3c746578742066696c6c3d2277686974652220786d6c3a73706163653d22707281527f65736572766522207374796c653d2277686974652d73706163653a207072652260208201527f20666f6e742d66616d696c793d22436f7572696572204e65772220666f6e742d60408201527f73697a653d22313222206c65747465722d73706163696e673d2230656d223e3c60608201527f747370616e20783d2233322220793d223433332e313933223e436c61696d205360808201527f746172743c2f747370616e3e3c2f746578743e0000000000000000000000000060a082015260b30190565b6060816040516020016116579190612ed4565b6060604051602001610ae6907f3c6720636c69702d706174683d2275726c2823636c6970315f31373331365f3381527f3937303429223e3c746578742066696c6c3d2277686974652220786d6c3a737060208201527f6163653d22707265736572766522207374796c653d2277686974652d7370616360408201527f653a207072652220666f6e742d66616d696c793d22436f7572696572204e657760608201527f2220666f6e742d73697a653d22313222206c65747465722d73706163696e673d60808201527f2230656d223e3c747370616e20783d223135342220793d223433332e3139332260a08201527f3e496e74657276616c3c2f747370616e3e3c2f746578743e000000000000000060c082015260d80190565b606081604051602001611657919061247f565b60008080836226496581018262023ab1600483020590506004600362023ab18302010590910390600062164b09610fa0600185010205905060046105b58202058303601f019250600061098f8460500281611e5857634e487b7160e01b600052601260045260246000fd5b0590506000605061098f83020585039050600b82057fffffffffffffffffffffffffffffffffffffffffffffffffffffffffffffffcf94909401606402929092018301996002600c90940290910392909201975095509350505050565b803573ffffffffffffffffffffffffffffffffffffffff8116811461198457600080fd5b600082601f830112611ee9578081fd5b60405160a0810181811067ffffffffffffffff82111715611f0c57611f0c6136ee565b604052808360a08101861015611f20578384fd5b835b6005811015611f41578135835260209283019290910190600101611f22565b509195945050505050565b600080600060e08486031215611f60578283fd5b833567ffffffffffffffff80821115611f77578485fd5b818601915086601f830112611f8a578485fd5b8135602082821115611f9e57611f9e6136ee565b611fb081601f19601f850116016135b9565b92508183528881838601011115611fc5578687fd5b818185018285013786818385010152829650611fe2818901611eb5565b955050505050611ff58560408601611ed9565b90509250925092565b60006020828403121561200f578081fd5b5035919050565b6000815161202881856020860161364c565b9290920192915050565b6000895160206120458285838f0161364c565b8a51918401916120588184848f0161364c565b8a5192019161206a8184848e0161364c565b895192019161207c8184848d0161364c565b885192019161208e8184848c0161364c565b87519201916120a08184848b0161364c565b86519201916120b28184848a0161364c565b85519201916120c4818484890161364c565b919091019b9a5050505050505050505050565b600086516120e9818460208b0161364c565b8651908301906120fd818360208b0161364c565b8651910190612110818360208a0161364c565b855191019061212381836020890161364c565b845191019061213681836020880161364c565b7f3c2f7376673e00000000000000000000000000000000000000000000000000009101908152600601979650505050505050565b6000845161217c81846020890161364c565b601760f91b908301908152845161219a81600184016020890161364c565b84519101906121b081600184016020880161364c565b0160010195945050505050565b600084516121cf81846020890161364c565b601760f91b90830190815284516121ed81600184016020890161364c565b845191019061220381600184016020880161364c565b7f42000000000000000000000000000000000000000000000000000000000000006001929091019182015260020195945050505050565b6000845161224c81846020890161364c565b601760f91b908301908152845161226a81600184016020890161364c565b845191019061228081600184016020880161364c565b7f4d000000000000000000000000000000000000000000000000000000000000006001929091019182015260020195945050505050565b600084516122c981846020890161364c565b601760f91b90830190815284516122e781600184016020890161364c565b84519101906122fd81600184016020880161364c565b7f54000000000000000000000000000000000000000000000000000000000000006001929091019182015260020195945050505050565b6000845161234681846020890161364c565b601760f91b908301908152845161236481600184016020890161364c565b845191019061237a81600184016020880161364c565b7f4b000000000000000000000000000000000000000000000000000000000000006001929091019182015260020195945050505050565b600083516123c381846020880161364c565b7f20e280a22000000000000000000000000000000000000000000000000000000090830190815283516123fd81600584016020880161364c565b01600501949350505050565b6000845161241b81846020890161364c565b80830190507f2f000000000000000000000000000000000000000000000000000000000000008082528551612457816001850160208a0161364c565b6001920191820152835161247281600284016020880161364c565b0160020195945050505050565b7f3c746578742066696c6c3d22233933373446462220786d6c3a73706163653d2281527f707265736572766522207374796c653d2277686974652d73706163653a20707260208201527f652220666f6e742d66616d696c793d22436f7572696572204e65772220666f6e60408201527f742d73697a653d22313222206c65747465722d73706163696e673d2230656d2260608201527f3e3c747370616e20783d223135342220793d223435312e313933223e0000000060808201526000825161254f81609c85016020870161364c565b7f3c2f747370616e3e3c2f746578743e3c2f673e3c2f673e000000000000000000609c93909101928301525060b301919050565b7f3c746578742066696c6c3d22233933373446462220786d6c3a73706163653d2281527f707265736572766522207374796c653d2277686974652d73706163653a20707260208201527f652220666f6e742d66616d696c793d22436f7572696572204e65772220666f6e60408201527f742d73697a653d22313222206c65747465722d73706163696e673d2230656d2260608201527f3e3c747370616e20783d2233322220793d223339392e313933223e000000000060808201526000825161265381609b85016020870161364c565b7f3c2f747370616e3e3c2f746578743e0000000000000000000000000000000000609b93909101928301525060aa01919050565b7f24000000000000000000000000000000000000000000000000000000000000008152600082516126bf81600185016020870161364c565b9190910160010192915050565b7f3c746578742066696c6c3d22233933373446462220786d6c3a73706163653d2281527f707265736572766522207374796c653d2277686974652d73706163653a20707260208201527f652220666f6e742d66616d696c793d22436f7572696572204e65772220666f6e60408201527f742d73697a653d22313222206c65747465722d73706163696e673d2230656d2260608201527f3e3c747370616e20783d223135342220793d223339392e313933223e0000000060808201526000825161279c81609c85016020870161364c565b7f3c2f747370616e3e3c2f746578743e0000000000000000000000000000000000609c93909101928301525060ab01919050565b7f3c74657874506174682073746172744f66667365743d22353025222066696c6c81527f3d2277686974652220666f6e742d66616d696c793d2227436f7572696572204e60208201527f6577272c206d6f6e6f73706163652220666f6e742d73697a653d22313070782260408201527f20786c696e6b3a687265663d2223746578742d706174682d61223e000000000060608201526000835161287a81607b85016020880161364c565b612944607b828501017f3c616e696d6174652061646469746976653d2273756d2220617474726962757481527f654e616d653d2273746172744f6666736574222066726f6d3d2230252220746f60208201527f3d22313030252220626567696e3d22307322206475723d22333073222072657060408201527f656174436f756e743d22696e646566696e69746522202f3e3c2f74657874506160608201527f74683e0000000000000000000000000000000000000000000000000000000000608082015260830190565b90507f3c74657874506174682073746172744f66667365743d222d353025222066696c81527f6c3d2277686974652220666f6e742d66616d696c793d2227436f75726965722060208201527f4e6577272c206d6f6e6f73706163652220666f6e742d73697a653d223130707860408201527f2220786c696e6b3a687265663d2223746578742d706174682d61223e00000000606082015283516129ee81607c84016020880161364c565b612ab8607c828401017f3c616e696d6174652061646469746976653d2273756d2220617474726962757481527f654e616d653d2273746172744f6666736574222066726f6d3d2230252220746f60208201527f3d22313030252220626567696e3d22307322206475723d22333073222072657060408201527f656174436f756e743d22696e646566696e69746522202f3e3c2f74657874506160608201527f74683e0000000000000000000000000000000000000000000000000000000000608082015260830190565b9695505050505050565b7f3c67206d61736b3d2275726c2823666164652d73796d626f6c29223e00000000815260007f3c746578742066696c6c3d2277686974652220786d6c3a73706163653d22707280601c8401527f65736572766522207374796c653d2277686974652d73706163653a207072652280603c8501527f20666f6e742d66616d696c793d2227436f7572696572204e6577272220666f6e80605c8601527f742d73697a653d2233362220666f6e742d7765696768743d22373022206c6574607c8601527f7465722d73706163696e673d2230656d223e3c747370616e20783d2233322220609c8601527f793d2236342e30383031223e000000000000000000000000000000000000000060bc8601528651612be18160c8880160208b0161364c565b80860190507f3c2f747370616e3e3c2f746578743e000000000000000000000000000000000060c88201528360d78201528260f7820152816101178201527f742d73697a653d2231362220666f6e742d7765696768743d22323022206c65746101378201527f7465722d73706163696e673d2230656d223e3c747370616e20783d22313239226101578201527f20793d2235382e37353738223e3c2f747370616e3e3c2f746578743e00000000610177820152612ec8612dbb612d92612d8c61019385017f3c746578742066696c6c3d22233933373446462220786d6c3a73706163653d2281527f707265736572766522207374796c653d2277686974652d73706163653a20707260208201527f652220666f6e742d66616d696c793d2227436f7572696572204e65772722206660408201527f6f6e742d73697a653d2233362220666f6e742d7765696768743d22333022206c60608201527f65747465722d73706163696e673d2230656d223e3c747370616e20783d22333260808201527f2220793d223130392e3038223e0000000000000000000000000000000000000060a082015260ad0190565b8a612016565b7f3c2f747370616e3e3c2f746578743e00000000000000000000000000000000008152600f0190565b7f3c746578742066696c6c3d2277686974652220786d6c3a73706163653d22707281527f65736572766522207374796c653d2277686974652d73706163653a207072652260208201527f20666f6e742d66616d696c793d2227436f7572696572204e6577272220666f6e60408201527f742d73697a653d2231362220666f6e742d7765696768743d22323022206c657460608201527f7465722d73706163696e673d2230656d223e3c747370616e20783d223332222060808201527f793d223133392e3038223e52656d61696e696e6720546f20426520436c61696d60a08201527f65643c2f747370616e3e3c2f746578743e3c2f673e000000000000000000000060c082015260d50190565b98975050505050505050565b7f3c746578742066696c6c3d22233933373446462220786d6c3a73706163653d2281527f707265736572766522207374796c653d2277686974652d73706163653a20707260208201527f652220666f6e742d66616d696c793d22436f7572696572204e65772220666f6e60408201527f742d73697a653d22313222206c65747465722d73706163696e673d2230656d2260608201527f3e3c747370616e20783d2233322220793d223435312e313933223e000000000060808201526000825161265381609b85016020870161364c565b7f3c7465787420746578742d72656e646572696e673d226f7074696d697a65537081527f656564223e00000000000000000000000000000000000000000000000000000060208201526000835161300281602585016020880161364c565b83519083019061301981602584016020880161364c565b7f3c2f746578743e0000000000000000000000000000000000000000000000000060259290910191820152602c01949350505050565b7f3c6c696e6561724772616469656e742069643d227061696e74335f6c696e656181527f725f31373331365f3339373034222078313d223635222079313d22313838222060208201527f78323d223135382e333939222079323d223237332e313634222067726164696560408201527f6e74556e6974733d227573657253706163654f6e557365223e3c73746f70207360608201527f746f702d636f6c6f723d2223393337344646222073746f702d6f70616369747960808201527f3d22302e33222f3e3c73746f70206f66667365743d2231222073746f702d636f60a08201527f6c6f723d2223393337344646222073746f702d6f7061636974793d2230222f3e60c08201527f3c2f6c696e6561724772616469656e743e00000000000000000000000000000060e08201527f3c7265637420783d2231362220793d223136222077696474683d22323538222060f18201527f6865696768743d22343638222072783d223236222072793d223236222066696c6101118201527f6c3d227267626128302c302c302c302922207374726f6b653d227267626128326101318201527f35352c3235352c3235352c302e3229222f3e00000000000000000000000000006101518201527f3c6d61736b2069643d22706174682d31342d696e736964652d315f31373331366101638201527f5f3339373034222066696c6c3d227768697465223e3c7061746820643d224d366101838201527f35203138384832323556333136483635563138385a222f3e3c2f6d61736b3e006101a38201527f3c7061746820643d224d3635203138384832323556333136483635563138385a6101c28201527f222066696c6c3d2275726c28237061696e74335f6c696e6561725f31373331366101e28201527f5f333937303429222f3e000000000000000000000000000000000000000000006102028201527f3c7061746820643d224d36352031383856313837483634563138384836355a4d61020c8201527f3635203138394832323556313837483635563138395a4d36362033313656313861022c8201527f38483634563331364836365a222066696c6c3d222339333734464622206d617361024c8201527f6b3d2275726c2823706174682d31342d696e736964652d315f31373331365f3361026c8201527f3937303429222f3e00000000000000000000000000000000000000000000000061028c8201527f3c7061746820643d224d3932203139324339342e3230393120313932203936206102948201527f3139302e32303920393620313838433936203138352e3739312039342e3230396102b48201527f3120313834203932203138344338392e3739303920313834203838203138352e6102d48201527f37393120383820313838433838203139302e3230392038392e373930392031396102f48201527f32203932203139325a222066696c6c3d2223393337344646222f3e0000000000610314820152600061032f820161009d565b7f3c7376672077696474683d2232393022206865696768743d223530302220766981527f6577426f783d2230203020323930203530302220786d6c6e733d22687474703a60208201527f2f2f7777772e77332e6f72672f323030302f7376672220786d6c6e733a786c6960408201527f6e6b3d22687474703a2f2f7777772e77332e6f72672f313939392f786c696e6b60608201527f223e00000000000000000000000000000000000000000000000000000000000060808201526000835161356381608285016020880161364c565b83519083019061357a81608284016020880161364c565b01608201949350505050565b60208152600082518060208401526135a581604085016020870161364c565b601f01601f19169190910160400192915050565b604051601f8201601f1916810167ffffffffffffffff811182821017156135e2576135e26136ee565b604052919050565b600082198211156135fd576135fd6136c2565b500190565b600082613611576136116136d8565b500490565b6000816000190483118215151615613630576136306136c2565b500290565b600082821015613647576136476136c2565b500390565b60005b8381101561366757818101518382015260200161364f565b83811115613676576000848401525b50505050565b60008161368b5761368b6136c2565b506000190190565b60006000198214156136a7576136a76136c2565b5060010190565b6000826136bd576136bd6136d8565b500690565b634e487b7160e01b600052601160045260246000fd5b634e487b7160e01b600052601260045260246000fd5b634e487b7160e01b600052604160045260246000fdfea264697066735822122012bf33461835cbdec89b04150baf6856a43a2c4eb5f2dcd1efcdd09389794a3764736f6c63430008040033",
  "linkReferences": {},
  "deployedLinkReferences": {}
}