{
  "_format": "hh-sol-artifact-1",
  "contractName": "VintageVestingERC721",
  "sourceName": "contracts/vintage/adapters/VintageVestingERC721.sol",
  "abi": [
    {
      "inputs": [
        {
          "internalType": "string",
          "name": "name",
          "type": "string"
        },
        {
          "internalType": "string",
          "name": "symbol",
          "type": "string"
        },
        {
          "internalType": "address",
          "name": "_vestAddr",
          "type": "address"
        },
        {
          "internalType": "address",
          "name": "_vestERC721Helper",
          "type": "address"
        }
      ],
      "stateMutability": "nonpayable",
      "type": "constructor"
    },
    {
      "anonymous": false,
      "inputs": [
        {
          "indexed": true,
          "internalType": "address",
          "name": "owner",
          "type": "address"
        },
        {
          "indexed": true,
          "internalType": "address",
          "name": "spender",
          "type": "address"
        },
        {
          "indexed": true,
          "internalType": "uint256",
          "name": "id",
          "type": "uint256"
        }
      ],
      "name": "Approval",
      "type": "event"
    },
    {
      "anonymous": false,
      "inputs": [
        {
          "indexed": true,
          "internalType": "address",
          "name": "owner",
          "type": "address"
        },
        {
          "indexed": true,
          "internalType": "address",
          "name": "operator",
          "type": "address"
        },
        {
          "indexed": false,
          "internalType": "bool",
          "name": "approved",
          "type": "bool"
        }
      ],
      "name": "ApprovalForAll",
      "type": "event"
    },
    {
      "anonymous": false,
      "inputs": [
        {
          "indexed": true,
          "internalType": "address",
          "name": "from",
          "type": "address"
        },
        {
          "indexed": true,
          "internalType": "address",
          "name": "to",
          "type": "address"
        },
        {
          "indexed": true,
          "internalType": "uint256",
          "name": "id",
          "type": "uint256"
        }
      ],
      "name": "Transfer",
      "type": "event"
    },
    {
      "inputs": [],
      "name": "_owner",
      "outputs": [
        {
          "internalType": "address",
          "name": "",
          "type": "address"
        }
      ],
      "stateMutability": "view",
      "type": "function"
    },
    {
      "inputs": [
        {
          "internalType": "address",
          "name": "spender",
          "type": "address"
        },
        {
          "internalType": "uint256",
          "name": "id",
          "type": "uint256"
        }
      ],
      "name": "approve",
      "outputs": [],
      "stateMutability": "nonpayable",
      "type": "function"
    },
    {
      "inputs": [
        {
          "internalType": "address",
          "name": "owner",
          "type": "address"
        }
      ],
      "name": "balanceOf",
      "outputs": [
        {
          "internalType": "uint256",
          "name": "",
          "type": "uint256"
        }
      ],
      "stateMutability": "view",
      "type": "function"
    },
    {
      "inputs": [],
      "name": "contractURI",
      "outputs": [
        {
          "internalType": "string",
          "name": "",
          "type": "string"
        }
      ],
      "stateMutability": "pure",
      "type": "function"
    },
    {
      "inputs": [
        {
          "internalType": "uint256",
          "name": "",
          "type": "uint256"
        }
      ],
      "name": "getApproved",
      "outputs": [
        {
          "internalType": "address",
          "name": "",
          "type": "address"
        }
      ],
      "stateMutability": "view",
      "type": "function"
    },
    {
      "inputs": [
        {
          "internalType": "uint256",
          "name": "tokenId",
          "type": "uint256"
        }
      ],
      "name": "getSvg",
      "outputs": [
        {
          "internalType": "string",
          "name": "",
          "type": "string"
        }
      ],
      "stateMutability": "view",
      "type": "function"
    },
    {
      "inputs": [
        {
          "internalType": "address",
          "name": "",
          "type": "address"
        },
        {
          "internalType": "address",
          "name": "",
          "type": "address"
        }
      ],
      "name": "isApprovedForAll",
      "outputs": [
        {
          "internalType": "bool",
          "name": "",
          "type": "bool"
        }
      ],
      "stateMutability": "view",
      "type": "function"
    },
    {
      "inputs": [],
      "name": "maxTotalSupply",
      "outputs": [
        {
          "internalType": "uint256",
          "name": "",
          "type": "uint256"
        }
      ],
      "stateMutability": "view",
      "type": "function"
    },
    {
      "inputs": [],
      "name": "name",
      "outputs": [
        {
          "internalType": "string",
          "name": "",
          "type": "string"
        }
      ],
      "stateMutability": "view",
      "type": "function"
    },
    {
      "inputs": [
        {
          "internalType": "uint256",
          "name": "id",
          "type": "uint256"
        }
      ],
      "name": "ownerOf",
      "outputs": [
        {
          "internalType": "address",
          "name": "owner",
          "type": "address"
        }
      ],
      "stateMutability": "view",
      "type": "function"
    },
    {
      "inputs": [
        {
          "internalType": "address",
          "name": "to",
          "type": "address"
        }
      ],
      "name": "safeMint",
      "outputs": [
        {
          "internalType": "uint256",
          "name": "id",
          "type": "uint256"
        }
      ],
      "stateMutability": "nonpayable",
      "type": "function"
    },
    {
      "inputs": [
        {
          "internalType": "address",
          "name": "from",
          "type": "address"
        },
        {
          "internalType": "address",
          "name": "to",
          "type": "address"
        },
        {
          "internalType": "uint256",
          "name": "id",
          "type": "uint256"
        }
      ],
      "name": "safeTransferFrom",
      "outputs": [],
      "stateMutability": "nonpayable",
      "type": "function"
    },
    {
      "inputs": [
        {
          "internalType": "address",
          "name": "from",
          "type": "address"
        },
        {
          "internalType": "address",
          "name": "to",
          "type": "address"
        },
        {
          "internalType": "uint256",
          "name": "id",
          "type": "uint256"
        },
        {
          "internalType": "bytes",
          "name": "data",
          "type": "bytes"
        }
      ],
      "name": "safeTransferFrom",
      "outputs": [],
      "stateMutability": "nonpayable",
      "type": "function"
    },
    {
      "inputs": [
        {
          "internalType": "address",
          "name": "operator",
          "type": "address"
        },
        {
          "internalType": "bool",
          "name": "approved",
          "type": "bool"
        }
      ],
      "name": "setApprovalForAll",
      "outputs": [],
      "stateMutability": "nonpayable",
      "type": "function"
    },
    {
      "inputs": [
        {
          "internalType": "bytes4",
          "name": "interfaceId",
          "type": "bytes4"
        }
      ],
      "name": "supportsInterface",
      "outputs": [
        {
          "internalType": "bool",
          "name": "",
          "type": "bool"
        }
      ],
      "stateMutability": "view",
      "type": "function"
    },
    {
      "inputs": [],
      "name": "symbol",
      "outputs": [
        {
          "internalType": "string",
          "name": "",
          "type": "string"
        }
      ],
      "stateMutability": "view",
      "type": "function"
    },
    {
      "inputs": [
        {
          "internalType": "uint256",
          "name": "_tokenId",
          "type": "uint256"
        }
      ],
      "name": "tokenURI",
      "outputs": [
        {
          "internalType": "string",
          "name": "",
          "type": "string"
        }
      ],
      "stateMutability": "view",
      "type": "function"
    },
    {
      "inputs": [],
      "name": "totalSupply",
      "outputs": [
        {
          "internalType": "uint256",
          "name": "",
          "type": "uint256"
        }
      ],
      "stateMutability": "view",
      "type": "function"
    },
    {
      "inputs": [
        {
          "internalType": "address",
          "name": "from",
          "type": "address"
        },
        {
          "internalType": "address",
          "name": "to",
          "type": "address"
        },
        {
          "internalType": "uint256",
          "name": "id",
          "type": "uint256"
        }
      ],
      "name": "transferFrom",
      "outputs": [],
      "stateMutability": "nonpayable",
      "type": "function"
    },
    {
      "inputs": [],
      "name": "vestAddress",
      "outputs": [
        {
          "internalType": "address",
          "name": "",
          "type": "address"
        }
      ],
      "stateMutability": "view",
      "type": "function"
    },
    {
      "inputs": [],
      "name": "vestERC721Helper",
      "outputs": [
        {
          "internalType": "address",
          "name": "",
          "type": "address"
        }
      ],
      "stateMutability": "view",
      "type": "function"
    }
  ],
  "bytecode": "0x60806040523480156200001157600080fd5b5060405162001c9538038062001c95833981016040819052620000349162000220565b8351849084906200004d906000906020850190620000aa565b50805162000063906001906020840190620000aa565b5050600780546001600160a01b03199081163317909155600880546001600160a01b03958616908316179055600980549390941692169190911790915550620002ff915050565b828054620000b890620002ac565b90600052602060002090601f016020900481019282620000dc576000855562000127565b82601f10620000f757805160ff191683800117855562000127565b8280016001018555821562000127579182015b82811115620001275782518255916020019190600101906200010a565b506200013592915062000139565b5090565b5b808211156200013557600081556001016200013a565b80516001600160a01b03811681146200016857600080fd5b919050565b600082601f8301126200017e578081fd5b81516001600160401b03808211156200019b576200019b620002e9565b604051601f8301601f19908116603f01168101908282118183101715620001c657620001c6620002e9565b81604052838152602092508683858801011115620001e2578485fd5b8491505b83821015620002055785820183015181830184015290820190620001e6565b838211156200021657848385830101525b9695505050505050565b6000806000806080858703121562000236578384fd5b84516001600160401b03808211156200024d578586fd5b6200025b888389016200016d565b9550602087015191508082111562000271578485fd5b5062000280878288016200016d565b935050620002916040860162000150565b9150620002a16060860162000150565b905092959194509250565b600181811c90821680620002c157607f821691505b60208210811415620002e357634e487b7160e01b600052602260045260246000fd5b50919050565b634e487b7160e01b600052604160045260246000fd5b611986806200030f6000396000f3fe608060405234801561001057600080fd5b50600436106101765760003560e01c80636352211e116100d8578063b0dc78fa1161008c578063c87b56dd11610066578063c87b56dd14610302578063e8a3d48514610315578063e985e9c51461031d57600080fd5b8063b0dc78fa146102c9578063b2bdfa7b146102dc578063b88d4fde146102ef57600080fd5b80637b6e5574116100bd5780637b6e55741461029b57806395d89b41146102ae578063a22cb465146102b657600080fd5b80636352211e1461027557806370a082311461028857600080fd5b806318160ddd1161012f5780632ab4d052116101145780632ab4d0521461024657806340d097c31461024f57806342842e0e1461026257600080fd5b806318160ddd1461022157806323b872dd1461023357600080fd5b806306fdde031161016057806306fdde03146101ce578063081812fc146101e3578063095ea7b31461020c57600080fd5b8062b5d3491461017b57806301ffc9a7146101ab575b600080fd5b60085461018e906001600160a01b031681565b6040516001600160a01b0390911681526020015b60405180910390f35b6101be6101b9366004611257565b61034b565b60405190151581526020016101a2565b6101d66103e8565b6040516101a291906113e6565b61018e6101f1366004611338565b6004602052600090815260409020546001600160a01b031681565b61021f61021a36600461122e565b610476565b005b600a545b6040519081526020016101a2565b61021f610241366004611123565b610579565b610225600a5481565b61022561025d3660046110d0565b61077b565b61021f610270366004611123565b6107c1565b61018e610283366004611338565b6108d5565b6102256102963660046110d0565b61093f565b60095461018e906001600160a01b031681565b6101d66109b3565b61021f6102c43660046111f4565b6109c0565b6101d66102d7366004611338565b610a4a565b60075461018e906001600160a01b031681565b61021f6102fd36600461115e565b610af9565b6101d6610310366004611338565b610bfd565b6101d6610c5c565b6101be61032b3660046110f1565b600560209081526000928352604080842090915290825290205460ff1681565b60007f01ffc9a7000000000000000000000000000000000000000000000000000000006001600160e01b0319831614806103ae57507f80ac58cd000000000000000000000000000000000000000000000000000000006001600160e01b03198316145b806103e257507f5b5e139f000000000000000000000000000000000000000000000000000000006001600160e01b03198316145b92915050565b600080546103f5906114a0565b80601f0160208091040260200160405190810160405280929190818152602001828054610421906114a0565b801561046e5780601f106104435761010080835404028352916020019161046e565b820191906000526020600020905b81548152906001019060200180831161045157829003601f168201915b505050505081565b6000818152600260205260409020546001600160a01b0316338114806104bf57506001600160a01b038116600090815260056020908152604080832033845290915290205460ff165b6105105760405162461bcd60e51b815260206004820152600e60248201527f4e4f545f415554484f52495a454400000000000000000000000000000000000060448201526064015b60405180910390fd5b600082815260046020526040808220805473ffffffffffffffffffffffffffffffffffffffff19166001600160a01b0387811691821790925591518593918516917f8c5be1e5ebec7d5bd14f71427d1e84f3dd0314c0f7b2291e5b200ac8c7c3b92591a4505050565b6000818152600260205260409020546001600160a01b038481169116146105e25760405162461bcd60e51b815260206004820152600a60248201527f57524f4e475f46524f4d000000000000000000000000000000000000000000006044820152606401610507565b6001600160a01b0382166106385760405162461bcd60e51b815260206004820152601160248201527f494e56414c49445f524543495049454e540000000000000000000000000000006044820152606401610507565b336001600160a01b038416148061067257506001600160a01b038316600090815260056020908152604080832033845290915290205460ff165b8061069357506000818152600460205260409020546001600160a01b031633145b6106df5760405162461bcd60e51b815260206004820152600e60248201527f4e4f545f415554484f52495a45440000000000000000000000000000000000006044820152606401610507565b6001600160a01b03808416600081815260036020908152604080832080546000190190559386168083528483208054600101905585835260028252848320805473ffffffffffffffffffffffffffffffffffffffff199081168317909155600490925284832080549092169091559251849392917fddf252ad1be2c89b69c2b068fc378daa952ba7f163c4a11628f55a4df523b3ef91a4505050565b600061078b600680546001019055565b600061079660065490565b90506107a28382610cac565b6001600a60008282546107b59190611419565b90915550909392505050565b6107cc838383610579565b6001600160a01b0382163b15806108845750604051630a85bd0160e11b8082523360048301526001600160a01b03858116602484015260448301849052608060648401526000608484015290919084169063150b7a029060a401602060405180830381600087803b15801561084057600080fd5b505af1158015610854573d6000803e3d6000fd5b505050506040513d601f19601f820116820180604052508101906108789190611273565b6001600160e01b031916145b6108d05760405162461bcd60e51b815260206004820152601060248201527f554e534146455f524543495049454e54000000000000000000000000000000006044820152606401610507565b505050565b6000818152600260205260409020546001600160a01b03168061093a5760405162461bcd60e51b815260206004820152600a60248201527f4e4f545f4d494e544544000000000000000000000000000000000000000000006044820152606401610507565b919050565b60006001600160a01b0382166109975760405162461bcd60e51b815260206004820152600c60248201527f5a45524f5f4144445245535300000000000000000000000000000000000000006044820152606401610507565b506001600160a01b031660009081526003602052604090205490565b600180546103f5906114a0565b3360008181526005602090815260408083206001600160a01b0387168085529083529281902080547fffffffffffffffffffffffffffffffffffffffffffffffffffffffffffffff001686151590811790915590519081529192917f17307eab39ab6107e8899845ad3d59bd9653f200f220920489ca2b5937696c31910160405180910390a35050565b6009546008546040517f278b2425000000000000000000000000000000000000000000000000000000008152600481018490523060248201526001600160a01b039182166044820152606092919091169063278b2425906064015b60006040518083038186803b158015610abd57600080fd5b505afa158015610ad1573d6000803e3d6000fd5b505050506040513d6000823e601f3d908101601f191682016040526103e2919081019061128f565b610b04858585610579565b6001600160a01b0384163b1580610baa5750604051630a85bd0160e11b808252906001600160a01b0386169063150b7a0290610b4c9033908a90899089908990600401611395565b602060405180830381600087803b158015610b6657600080fd5b505af1158015610b7a573d6000803e3d6000fd5b505050506040513d601f19601f82011682018060405250810190610b9e9190611273565b6001600160e01b031916145b610bf65760405162461bcd60e51b815260206004820152601060248201527f554e534146455f524543495049454e54000000000000000000000000000000006044820152606401610507565b5050505050565b6009546008546040517f989b81f8000000000000000000000000000000000000000000000000000000008152600481018490523060248201526001600160a01b039182166044820152606092919091169063989b81f890606401610aa5565b606060006040518061042001604052806103f081526020016115216103f091399050610c8781610dbb565b604051602001610c979190611350565b60405160208183030381529060405291505090565b610cb68282610f86565b6001600160a01b0382163b1580610d6b5750604051630a85bd0160e11b80825233600483015260006024830181905260448301849052608060648401526084830152906001600160a01b0384169063150b7a029060a401602060405180830381600087803b158015610d2757600080fd5b505af1158015610d3b573d6000803e3d6000fd5b505050506040513d601f19601f82011682018060405250810190610d5f9190611273565b6001600160e01b031916145b610db75760405162461bcd60e51b815260206004820152601060248201527f554e534146455f524543495049454e54000000000000000000000000000000006044820152606401610507565b5050565b6060815160001415610ddb57505060408051602081019091526000815290565b60006040518060600160405280604081526020016119116040913990506000600384516002610e0a9190611419565b610e149190611431565b610e1f906004611451565b90506000610e2e826020611419565b67ffffffffffffffff811115610e5457634e487b7160e01b600052604160045260246000fd5b6040519080825280601f01601f191660200182016040528015610e7e576020820181803683370190505b509050818152600183018586518101602084015b81831015610eec5760039283018051603f601282901c811687015160f890811b8552600c83901c8216880151811b6001860152600683901c8216880151811b60028601529116860151901b93820193909352600401610e92565b600389510660018114610f065760028114610f5057610f78565b7f3d3d0000000000000000000000000000000000000000000000000000000000007ffffffffffffffffffffffffffffffffffffffffffffffffffffffffffffffffe830152610f78565b7f3d000000000000000000000000000000000000000000000000000000000000006000198301525b509398975050505050505050565b6001600160a01b038216610fdc5760405162461bcd60e51b815260206004820152601160248201527f494e56414c49445f524543495049454e540000000000000000000000000000006044820152606401610507565b6000818152600260205260409020546001600160a01b0316156110415760405162461bcd60e51b815260206004820152600e60248201527f414c52454144595f4d494e5445440000000000000000000000000000000000006044820152606401610507565b6001600160a01b0382166000818152600360209081526040808320805460010190558483526002909152808220805473ffffffffffffffffffffffffffffffffffffffff19168417905551839291907fddf252ad1be2c89b69c2b068fc378daa952ba7f163c4a11628f55a4df523b3ef908290a45050565b80356001600160a01b038116811461093a57600080fd5b6000602082840312156110e1578081fd5b6110ea826110b9565b9392505050565b60008060408385031215611103578081fd5b61110c836110b9565b915061111a602084016110b9565b90509250929050565b600080600060608486031215611137578081fd5b611140846110b9565b925061114e602085016110b9565b9150604084013590509250925092565b600080600080600060808688031215611175578081fd5b61117e866110b9565b945061118c602087016110b9565b935060408601359250606086013567ffffffffffffffff808211156111af578283fd5b818801915088601f8301126111c2578283fd5b8135818111156111d0578384fd5b8960208285010111156111e1578384fd5b9699959850939650602001949392505050565b60008060408385031215611206578182fd5b61120f836110b9565b915060208301358015158114611223578182fd5b809150509250929050565b60008060408385031215611240578182fd5b611249836110b9565b946020939093013593505050565b600060208284031215611268578081fd5b81356110ea81611507565b600060208284031215611284578081fd5b81516110ea81611507565b6000602082840312156112a0578081fd5b815167ffffffffffffffff808211156112b7578283fd5b818401915084601f8301126112ca578283fd5b8151818111156112dc576112dc6114f1565b604051601f8201601f19908116603f01168101908382118183101715611304576113046114f1565b8160405282815287602084870101111561131c578586fd5b61132d836020830160208801611470565b979650505050505050565b600060208284031215611349578081fd5b5035919050565b7f646174613a6170706c69636174696f6e2f6a736f6e3b6261736536342c00000081526000825161138881601d850160208701611470565b91909101601d0192915050565b60006001600160a01b03808816835280871660208401525084604083015260806060830152826080830152828460a084013781830160a090810191909152601f909201601f19160101949350505050565b6020815260008251806020840152611405816040850160208701611470565b601f01601f19169190910160400192915050565b6000821982111561142c5761142c6114db565b500190565b60008261144c57634e487b7160e01b81526012600452602481fd5b500490565b600081600019048311821515161561146b5761146b6114db565b500290565b60005b8381101561148b578181015183820152602001611473565b8381111561149a576000848401525b50505050565b600181811c908216806114b457607f821691505b602082108114156114d557634e487b7160e01b600052602260045260246000fd5b50919050565b634e487b7160e01b600052601160045260246000fd5b634e487b7160e01b600052604160045260246000fd5b6001600160e01b03198116811461151d57600080fd5b5056fe7b226e616d65223a202244414f53717561726520496e766573746d656e742056657374696e67222c226465736372697074696f6e223a22546865204e46547320696e2044414f53717561726520496e766573746d656e742056657374696e6720436f6c6c656374696f6e206172652067656e6572617465642066726f6d20696e766573746d656e7473206d6164652062792056656e747572652044414f7320696e2044414f53717561726520496e63756261746f722c207768696368206861766520757365642074686520457363726f772066756e6374696f6e20616e642061637469766174656420746865204e46542066756e6374696f6e2e2045616368204e465420726570726573656e74732074686520726967687420746f20636c61696d205061796261636b20546f6b656e7320666f7220616e20696e766573746d656e74206d61646520627920616e20696e766573746f722e20546865736520746f6b656e732068617665206265656e20657363726f77656420746f2074686520457363726f7720736d61727420636f6e747261637420616e642077696c6c206265206175746f6d61746963616c6c792072656c656173656420746f20746865204e465420686f6c646572207468726f756768207468652056657374696e67206d6f64756c65206f662044414f53717561726520496e63756261746f72206163636f7264696e6720746f207468652056657374696e67205363686564756c6520696e2074686520736d61727420636f6e74726163742e20596f752063616e2076696577207468652064796e616d696320646174612028696d6167652920616e642070726f7065727469657320696e666f726d6174696f6e206f662065616368204e465420746f20636865636b207768657468657220746865204e46542069732063757272656e746c792076616c696420616e64207468652073706563696669632072696768747320696e666f726d6174696f6e2e204e46547320696e207468697320636f6c6c656374696f6e20617265207472616e7366657261626c652e204e465420686f6c646572732063616e20757365207468657365204e46547320746f20636c61696d205061796261636b20546f6b656e73207468726f756768207468652044414f53717561726520496e63756261746f72732056657374696e67206d6f64756c652c207265676172646c657373206f662077686f20746865206f726967696e616c20696e766573746f722069732e222c22696d616765223a2268747470733a2f2f692e6962622e636f2f4a784e636d66342f436f6c6c656374696f6e2d4c6f676f2e706e67222c2265787465726e616c5f6c696e6b223a2268747470733a2f2f64616f7371756172652e6669227d4142434445464748494a4b4c4d4e4f505152535455565758595a6162636465666768696a6b6c6d6e6f707172737475767778797a303132333435363738392b2fa2646970667358221220b7074b33700ca41ad8505b22099a46790e002cfea16856529f08cf23c23b287464736f6c63430008040033",
  "linkReferences": {},
  "deployedLinkReferences": {}
}