{
  "_format": "hh-sol-artifact-1",
  "contractName": "FlexDaoSetFeesAdapterContract",
  "sourceName": "contracts/flex/adatpers/FlexDaoSetFeesAdapter.sol",
  "abi": [
    {
      "inputs": [],
      "name": "VOTING_NOT_FINISH",
      "type": "error"
    },
    {
      "anonymous": false,
      "inputs": [
        {
          "indexed": false,
          "internalType": "address",
          "name": "daoAddr",
          "type": "address"
        },
        {
          "indexed": false,
          "internalType": "bytes32",
          "name": "proposalId",
          "type": "bytes32"
        },
        {
          "indexed": false,
          "internalType": "enum FlexDaosetLibrary.ProposalType",
          "name": "pType",
          "type": "uint8"
        }
      ],
      "name": "ProposalCreated",
      "type": "event"
    },
    {
      "anonymous": false,
      "inputs": [
        {
          "indexed": false,
          "internalType": "address",
          "name": "daoAddr",
          "type": "address"
        },
        {
          "indexed": false,
          "internalType": "bytes32",
          "name": "proposalId",
          "type": "bytes32"
        },
        {
          "indexed": false,
          "internalType": "uint256",
          "name": "voteResult",
          "type": "uint256"
        },
        {
          "indexed": false,
          "internalType": "uint128",
          "name": "allVotingWeight",
          "type": "uint128"
        },
        {
          "indexed": false,
          "internalType": "uint256",
          "name": "nbYes",
          "type": "uint256"
        },
        {
          "indexed": false,
          "internalType": "uint256",
          "name": "nbNo",
          "type": "uint256"
        }
      ],
      "name": "ProposalProcessed",
      "type": "event"
    },
    {
      "inputs": [
        {
          "internalType": "address",
          "name": "",
          "type": "address"
        },
        {
          "internalType": "bytes32",
          "name": "",
          "type": "bytes32"
        }
      ],
      "name": "feesProposals",
      "outputs": [
        {
          "internalType": "uint256",
          "name": "flexDaoManagementfee",
          "type": "uint256"
        },
        {
          "internalType": "uint256",
          "name": "returnTokenManagementFee",
          "type": "uint256"
        },
        {
          "internalType": "address",
          "name": "managementFeeAddress",
          "type": "address"
        },
        {
          "internalType": "uint256",
          "name": "creationTime",
          "type": "uint256"
        },
        {
          "internalType": "uint256",
          "name": "stopVoteTime",
          "type": "uint256"
        },
        {
          "internalType": "enum FlexDaosetLibrary.ProposalState",
          "name": "state",
          "type": "uint8"
        }
      ],
      "stateMutability": "view",
      "type": "function"
    },
    {
      "inputs": [
        {
          "internalType": "contract DaoRegistry",
          "name": "dao",
          "type": "address"
        },
        {
          "internalType": "address",
          "name": "_addr",
          "type": "address"
        }
      ],
      "name": "isActiveMember",
      "outputs": [
        {
          "internalType": "bool",
          "name": "",
          "type": "bool"
        }
      ],
      "stateMutability": "view",
      "type": "function"
    },
    {
      "inputs": [
        {
          "internalType": "address",
          "name": "",
          "type": "address"
        }
      ],
      "name": "ongoingFeesProposal",
      "outputs": [
        {
          "internalType": "bytes32",
          "name": "",
          "type": "bytes32"
        }
      ],
      "stateMutability": "view",
      "type": "function"
    },
    {
      "inputs": [
        {
          "internalType": "contract DaoRegistry",
          "name": "dao",
          "type": "address"
        },
        {
          "internalType": "bytes32",
          "name": "proposalId",
          "type": "bytes32"
        }
      ],
      "name": "processFeesProposal",
      "outputs": [],
      "stateMutability": "nonpayable",
      "type": "function"
    },
    {
      "inputs": [
        {
          "internalType": "contract DaoRegistry",
          "name": "dao",
          "type": "address"
        },
        {
          "internalType": "uint256",
          "name": "flexDaoManagementfee",
          "type": "uint256"
        },
        {
          "internalType": "uint256",
          "name": "returnTokenManagementFee",
          "type": "uint256"
        },
        {
          "internalType": "address",
          "name": "managementFeeAddress",
          "type": "address"
        }
      ],
      "name": "submitFeesProposal",
      "outputs": [],
      "stateMutability": "nonpayable",
      "type": "function"
    }
  ],
  "bytecode": "0x608060405234801561001057600080fd5b50612718806100206000396000f3fe608060405234801561001057600080fd5b50600436106100675760003560e01c80635bd72f0c116100505780635bd72f0c1461010a5780638ecf77201461011f578063eb1147721461014257600080fd5b8063115111861461006c5780634ad743cc1461009f575b600080fd5b61008c61007a36600461219e565b60006020819052908152604090205481565b6040519081526020015b60405180910390f35b6100f86100ad3660046121dd565b6001602081815260009384526040808520909152918352912080549181015460028201546003830154600484015460059094015492936001600160a01b039092169290919060ff1686565b60405161009696959493929190612515565b61011d61011836600461235e565b610155565b005b61013261012d366004612314565b610766565b6040519015158152602001610096565b61011d61015036600461234c565b610805565b83610160813361095a565b84600061016c826109b4565b6040516317ba7d8560e01b81527fff9379b98b93eb3bd1fac62fd2258a7955d70d2d5279c40064145b6c9646df3760048201529091506001600160a01b038816906317ba7d859060240160206040518083038186803b1580156101ce57600080fd5b505afa1580156101e2573d6000803e3d6000fd5b505050506040513d601f19601f8201168201806040525081019061020691906121c1565b6040517f64d6d55a0000000000000000000000000000000000000000000000000000000081526001600160a01b03898116600483015291909116906364d6d55a9060240160206040518083038186803b15801561026257600080fd5b505afa158015610276573d6000803e3d6000fd5b505050506040513d601f19601f8201168201806040525081019061029a91906122cf565b6102eb5760405162461bcd60e51b815260206004820152601060248201527f756e446f6e652050726f706f73616c730000000000000000000000000000000060448201526064015b60405180910390fd5b6040516317ba7d8560e01b81527fff9379b98b93eb3bd1fac62fd2258a7955d70d2d5279c40064145b6c9646df3760048201526001600160a01b038816906317ba7d859060240160206040518083038186803b15801561034a57600080fd5b505afa15801561035e573d6000803e3d6000fd5b505050506040513d601f19601f8201168201806040525081019061038291906121c1565b6040517f9a0242fc0000000000000000000000000000000000000000000000000000000081526001600160a01b0389811660048301529190911690639a0242fc9060240160206040518083038186803b1580156103de57600080fd5b505afa1580156103f2573d6000803e3d6000fd5b505050506040513d601f19601f8201168201806040525081019061041691906122cf565b6104625760405162461bcd60e51b815260206004820152601660248201527f756e446f6e652044616f7365742050726f706f73616c0000000000000000000060448201526064016102e2565b866001600160a01b031663091a3e9c6040518163ffffffff1660e01b8152600401600060405180830381600087803b15801561049d57600080fd5b505af11580156104b1573d6000803e3d6000fd5b50505050600061055c8860c01b6105378a6001600160a01b031663f8385b2d6040518163ffffffff1660e01b815260040160206040518083038186803b1580156104fa57600080fd5b505afa15801561050e573d6000803e3d6000fd5b505050506040513d601f19601f820116820180604052508101906105329190612410565b610c7f565b604051602001610548929190612428565b604051602081830303815290604052610dd5565b90506040518060c00160405280888152602001878152602001866001600160a01b03168152602001428152602001896001600160a01b0316639283ae3a7f9876c0f0505bfb2b1c38d3bbd25ba13159172cd0868972d76927723f5a9480fc6040518263ffffffff1660e01b81526004016105d891815260200190565b60206040518083038186803b1580156105f057600080fd5b505afa158015610604573d6000803e3d6000fd5b505050506040513d601f19601f820116820180604052508101906106289190612410565b6106329042612596565b8152600060209182018190526001600160a01b038b8116825260018084526040808420878552855292839020855181559385015184820155918401516002840180547fffffffffffffffffffffffff0000000000000000000000000000000000000000169190921617905560608301516003808401919091556080840151600484015560a08401516005840180549193909260ff199092169184908111156106ea57634e487b7160e01b600052602160045260246000fd5b021790555050506001600160a01b03881660009081526020819052604090208190556107168882610df1565b7fa65d0c07e3b0d876ee52e871c234a4b150b9bf17a08f356f5aeda8d6782cc31a8882600460405161074a93929190612496565b60405180910390a15061075d8282610fff565b50505050505050565b6040517fa230c5240000000000000000000000000000000000000000000000000000000081526001600160a01b0382811660048301526000919084169063a230c5249060240160206040518083038186803b1580156107c457600080fd5b505afa1580156107d8573d6000803e3d6000fd5b505050506040513d601f19601f820116820180604052508101906107fc91906122cf565b90505b92915050565b816000610811826109b4565b6001600160a01b03851660009081526001602090815260408083208784529091528120919250610841868661100a565b509091506002905081600581111561086957634e487b7160e01b600052602160045260246000fd5b14156108955761087986836112b9565b6005820180546002919060ff19166001835b021790555061092f565b60038160058111156108b757634e487b7160e01b600052602160045260246000fd5b14806108e2575060018160058111156108e057634e487b7160e01b600052602160045260246000fd5b145b156108fd576005820180546003919060ff191660018361088b565b6040517f70fc772800000000000000000000000000000000000000000000000000000000815260040160405180910390fd5b50506001600160a01b0384166000908152602081905260408120556109548282610fff565b50505050565b6109648282610766565b6109b05760405162461bcd60e51b815260206004820152600c60248201527f6f6e6c79476f7665726e6f72000000000000000000000000000000000000000060448201526064016102e2565b5050565b6040805160808101825260008082526020820181905291810182905260608101919091525a81600001818152505043826001600160a01b031663b21634826040518163ffffffff1660e01b815260040160206040518083038186803b158015610a1c57600080fd5b505afa158015610a30573d6000803e3d6000fd5b505050506040513d601f19601f82011682018060405250810190610a549190612410565b1415610aa25760405162461bcd60e51b815260206004820152601060248201527f7265656e7472616e63792067756172640000000000000000000000000000000060448201526064016102e2565b816001600160a01b03166310fdb0a26040518163ffffffff1660e01b8152600401600060405180830381600087803b158015610add57600080fd5b505af1158015610af1573d6000803e3d6000fd5b50506040517f72c6838f0000000000000000000000000000000000000000000000000000000081527f1f2fd42ad6a6cacd573c4b212beb7a4e2499ad45d742a65337097f130e71daff6004820152600092506001600160a01b03851691506372c6838f9060240160206040518083038186803b158015610b7057600080fd5b505afa158015610b84573d6000803e3d6000fd5b505050506040513d601f19601f82011682018060405250810190610ba891906121c1565b90506001600160a01b038116610bc45760006020830152610c79565b6001600160a01b038181166060840181905283516040517f43a8a3f1000000000000000000000000000000000000000000000000000000008152928616600484015260248301526000918291906343a8a3f190604401604080518083038186803b158015610c3157600080fd5b505afa158015610c45573d6000803e3d6000fd5b505050506040513d601f19601f82011682018060405250810190610c6991906122e9565b9015156020860152604085015250505b50919050565b606081610cbf57505060408051808201909152600181527f3000000000000000000000000000000000000000000000000000000000000000602082015290565b8160005b8115610ce95780610cd381612605565b9150610ce29050600a836125ae565b9150610cc3565b60008167ffffffffffffffff811115610d1257634e487b7160e01b600052604160045260246000fd5b6040519080825280601f01601f191660200182016040528015610d3c576020820181803683370190505b5090505b8415610dcd57610d516001836125c2565b9150610d5e600a8661265e565b610d69906030612596565b60f81b818381518110610d8c57634e487b7160e01b600052603260045260246000fd5b60200101907effffffffffffffffffffffffffffffffffffffffffffffffffffffffffffff1916908160001a905350610dc6600a866125ae565b9450610d40565b949350505050565b6000815160001415610de957506000919050565b506020015190565b6040517fb73dc389000000000000000000000000000000000000000000000000000000008152600481018290526001600160a01b0383169063b73dc38990602401600060405180830381600087803b158015610e4c57600080fd5b505af1158015610e60573d6000803e3d6000fd5b50506040516317ba7d8560e01b81527f0d479c38716a0298633b1dbf1ce145a3fbd1d79ca4527de172afc3bad04a2ba76004820152600092506001600160a01b03851691506317ba7d859060240160206040518083038186803b158015610ec657600080fd5b505afa158015610eda573d6000803e3d6000fd5b505050506040513d601f19601f82011682018060405250810190610efe91906121c1565b604080516020810182526000815290517f2b0974d00000000000000000000000000000000000000000000000000000000081529192506001600160a01b03831691632b0974d091610f5591879187916004016124cb565b600060405180830381600087803b158015610f6f57600080fd5b505af1158015610f83573d6000803e3d6000fd5b50506040517f815a2bf4000000000000000000000000000000000000000000000000000000008152600481018590526001600160a01b0384811660248301528616925063815a2bf491506044015b600060405180830381600087803b158015610feb57600080fd5b505af115801561075d573d6000803e3d6000fd5b6109b08282336113c0565b6000806000846001600160a01b03166330490e91856040518263ffffffff1660e01b815260040161103d91815260200190565b600060405180830381600087803b15801561105757600080fd5b505af115801561106b573d6000803e3d6000fd5b50506040516317ba7d8560e01b81527f0d479c38716a0298633b1dbf1ce145a3fbd1d79ca4527de172afc3bad04a2ba76004820152600092506001600160a01b03881691506317ba7d859060240160206040518083038186803b1580156110d157600080fd5b505afa1580156110e5573d6000803e3d6000fd5b505050506040513d601f19601f8201168201806040525081019061110991906121c1565b90506001600160a01b0381166111615760405162461bcd60e51b815260206004820152600f60248201527f21766f74696e67436f6e7472616374000000000000000000000000000000000060448201526064016102e2565b6040517f76225e730000000000000000000000000000000000000000000000000000000081526001600160a01b0387811660048301526024820187905260009182918291908516906376225e7390604401606060405180830381600087803b1580156111cc57600080fd5b505af11580156111e0573d6000803e3d6000fd5b505050506040513d601f19601f8201168201806040525081019061120491906123a7565b92509250925060006112168a8a6114b1565b90507f31079f5404bf31284c3985351ef8eff4247cd77140001bc77841d2ecc855cf688a8a86600581111561125b57634e487b7160e01b600052602160045260246000fd5b604080516001600160a01b0390941684526020840192909252908201526fffffffffffffffffffffffffffffffff831660608201526080810185905260a0810184905260c00160405180910390a15091955093509150509250925092565b6040516317ba7d8560e01b81527fff9379b98b93eb3bd1fac62fd2258a7955d70d2d5279c40064145b6c9646df3760048201526000906001600160a01b038416906317ba7d859060240160206040518083038186803b15801561131b57600080fd5b505afa15801561132f573d6000803e3d6000fd5b505050506040513d601f19601f8201168201806040525081019061135391906121c1565b8254600184015460028501546040517f8f88c3ce0000000000000000000000000000000000000000000000000000000081526001600160a01b0388811660048301526024820194909452604481019290925282166064820152919250821690638f88c3ce90608401610fd1565b8160200151156114765781606001516001600160a01b0316635e5eb01384835a86516113ec91906125c2565b60408088015190517fffffffff0000000000000000000000000000000000000000000000000000000060e087901b1681526001600160a01b03948516600482015293909216602484015260448301526064820152608401600060405180830381600087803b15801561145d57600080fd5b505af1158015611471573d6000803e3d6000fd5b505050505b826001600160a01b031663d4f7af436040518163ffffffff1660e01b8152600401600060405180830381600087803b158015610feb57600080fd5b6000806114bd84611771565b6040516317ba7d8560e01b81527f0d479c38716a0298633b1dbf1ce145a3fbd1d79ca4527de172afc3bad04a2ba7600482015290915060009081906001600160a01b038716906317ba7d859060240160206040518083038186803b15801561152457600080fd5b505afa158015611538573d6000803e3d6000fd5b505050506040513d601f19601f8201168201806040525081019061155c91906121c1565b905060005b83518160ff16101561176657816001600160a01b03166324a2cceb8888878560ff16815181106115a157634e487b7160e01b600052603260045260246000fd5b60200260200101516040518463ffffffff1660e01b81526004016115e5939291906001600160a01b0393841681526020810192909252909116604082015260600190565b60206040518083038186803b1580156115fd57600080fd5b505afa158015611611573d6000803e3d6000fd5b505050506040513d601f19601f8201168201806040525081019061163591906122cf565b1561171357816001600160a01b03166391d2fd538888878560ff168151811061166e57634e487b7160e01b600052603260045260246000fd5b60200260200101516040518463ffffffff1660e01b81526004016116b2939291906001600160a01b0393841681526020810192909252909116604082015260600190565b60206040518083038186803b1580156116ca57600080fd5b505afa1580156116de573d6000803e3d6000fd5b505050506040513d601f19601f8201168201806040525081019061170291906123e0565b61170c9084612562565b9250611754565b61174787858360ff168151811061173a57634e487b7160e01b600052603260045260246000fd5b60200260200101516117e8565b6117519084612562565b92505b8061175e8161263e565b915050611561565b509095945050505050565b6060816001600160a01b031663a6f636416040518163ffffffff1660e01b815260040160006040518083038186803b1580156117ac57600080fd5b505afa1580156117c0573d6000803e3d6000fd5b505050506040513d6000823e601f3d908101601f191682016040526107ff9190810190612208565b604051634941d71d60e11b81527f75b7d343967750d1f6c15979b7559cea8be22ff1a06a51681b9cbef0d2fff4fe600482015260009081906001600160a01b03851690639283ae3a9060240160206040518083038186803b15801561184c57600080fd5b505afa158015611860573d6000803e3d6000fd5b505050506040513d601f19601f820116820180604052508101906118849190612410565b604051634941d71d60e11b81527f18ef0b57fe939edb640a200fdf533493bd8f26a274151543a109b64c857e20f360048201529091506000906001600160a01b03861690639283ae3a9060240160206040518083038186803b1580156118e957600080fd5b505afa1580156118fd573d6000803e3d6000fd5b505050506040513d601f19601f820116820180604052508101906119219190612410565b6040516317ba7d8560e01b81527f37cbe06c1044f98864ea25736326bc1d488e24e5e23781ea2ad64c4069cb9e6e60048201529091506000906001600160a01b038716906317ba7d859060240160206040518083038186803b15801561198657600080fd5b505afa15801561199a573d6000803e3d6000fd5b505050506040513d601f19601f820116820180604052508101906119be91906121c1565b604051634941d71d60e11b81527f77b1580d1632c74a32483c26a7156260a89ae4138b020ea7d09b0dcf24f1ea2460048201529091506000906001600160a01b03881690639283ae3a9060240160206040518083038186803b158015611a2357600080fd5b505afa158015611a37573d6000803e3d6000fd5b505050506040513d601f19601f82011682018060405250810190611a5b9190612410565b6040517ffd310d290000000000000000000000000000000000000000000000000000000081527fb5a1ad3f04728d7c38547e3d43006a1ec090a02fce04bbb1d0ee4519a1921e5760048201529091506000906001600160a01b0389169063fd310d299060240160206040518083038186803b158015611ad957600080fd5b505afa158015611aed573d6000803e3d6000fd5b505050506040513d601f19601f82011682018060405250810190611b1191906121c1565b90508360011415611d2e57600085611bb8576040516370a0823160e01b81526001600160a01b038981166004830152670de0b6b3a764000091908416906370a082319060240160206040518083038186803b158015611b6f57600080fd5b505afa158015611b83573d6000803e3d6000fd5b505050506040513d601f19601f82011682018060405250810190611ba79190612410565b611bb191906125ae565b9050611cc5565b8560011415611c3b576040516370a0823160e01b81526001600160a01b0389811660048301528316906370a08231906024015b60206040518083038186803b158015611c0357600080fd5b505afa158015611c17573d6000803e3d6000fd5b505050506040513d601f19601f82011682018060405250810190611bb19190612410565b8560021415611c7757604051627eeac760e11b81526001600160a01b0389811660048301526024820185905283169062fdd58e90604401611beb565b8560031415611cb6576040516329b6517360e21b81526001600160a01b038a81166004830152898116602483015285169063a6d945cc90604401611beb565b600096505050505050506107ff565b60008111611cdc57600096505050505050506107ff565b677fffffffffffffff8110611cfa57603296505050505050506107ff565b6000611d15611d10611d0b8461204d565b61206b565b612162565b67ffffffffffffffff1697506107ff9650505050505050565b8360021415611ea057600085611dd5576040516370a0823160e01b81526001600160a01b038981166004830152600091908416906370a08231906024015b60206040518083038186803b158015611d8457600080fd5b505afa158015611d98573d6000803e3d6000fd5b505050506040513d601f19601f82011682018060405250810190611dbc9190612410565b11611dc8576000611dcb565b60015b60ff169050611e93565b8560011415611e10576040516370a0823160e01b81526001600160a01b038981166004830152600091908416906370a0823190602401611d6c565b8560021415611e5057604051627eeac760e11b81526001600160a01b038981166004830152602482018590526000919084169062fdd58e90604401611d6c565b8560031415611cb6576040516329b6517360e21b81526001600160a01b038a8116600483015289811660248301526000919086169063a6d945cc90604401611d6c565b95506107ff945050505050565b8361203f57600085611f41576040516370a0823160e01b81526001600160a01b038981166004830152670de0b6b3a764000091908416906370a082319060240160206040518083038186803b158015611ef857600080fd5b505afa158015611f0c573d6000803e3d6000fd5b505050506040513d601f19601f82011682018060405250810190611f309190612410565b611f3a91906125ae565b9050611e93565b8560011415611fc4576040516370a0823160e01b81526001600160a01b0389811660048301528316906370a08231906024015b60206040518083038186803b158015611f8c57600080fd5b505afa158015611fa0573d6000803e3d6000fd5b505050506040513d601f19601f82011682018060405250810190611f3a9190612410565b856002141561200057604051627eeac760e11b81526001600160a01b0389811660048301526024820185905283169062fdd58e90604401611f74565b8560031415611cb6576040516329b6517360e21b81526001600160a01b038a81166004830152898116602483015285169063a6d945cc90604401611f74565b6000955050505050506107ff565b6000677fffffffffffffff82111561206457600080fd5b5060401b90565b60008082600f0b1361207c57600080fd5b6000600f83900b68010000000000000000811261209b576040918201911d5b64010000000081126120af576020918201911d5b6201000081126120c1576010918201911d5b61010081126120d2576008918201911d5b601081126120e2576004918201911d5b600481126120f2576002918201911d5b60028112612101576001820191505b7fffffffffffffffffffffffffffffffffffffffffffffffffffffffffffffffc0820160401b600f85900b607f8490031b6780000000000000005b60008113156117665790800260ff81901c8281029390930192607f011c9060011d61213c565b60008082600f0b121561217457600080fd5b50600f0b60401d90565b8051612189816126ca565b919050565b8051801515811461218957600080fd5b6000602082840312156121af578081fd5b81356121ba816126ca565b9392505050565b6000602082840312156121d2578081fd5b81516121ba816126ca565b600080604083850312156121ef578081fd5b82356121fa816126ca565b946020939093013593505050565b6000602080838503121561221a578182fd5b825167ffffffffffffffff80821115612231578384fd5b818501915085601f830112612244578384fd5b815181811115612256576122566126b4565b8060051b604051601f19603f8301168101818110858211171561227b5761227b6126b4565b604052828152858101935084860182860187018a1015612299578788fd5b8795505b838610156122c2576122ae8161217e565b85526001959095019493860193860161229d565b5098975050505050505050565b6000602082840312156122e0578081fd5b6107fc8261218e565b600080604083850312156122fb578182fd5b6123048361218e565b9150602083015190509250929050565b60008060408385031215612326578182fd5b8235612331816126ca565b91506020830135612341816126ca565b809150509250929050565b600080604083850312156121ef578182fd5b60008060008060808587031215612373578182fd5b843561237e816126ca565b93506020850135925060408501359150606085013561239c816126ca565b939692955090935050565b6000806000606084860312156123bb578283fd5b8351600681106123c9578384fd5b602085015160409095015190969495509392505050565b6000602082840312156123f1578081fd5b81516fffffffffffffffffffffffffffffffff811681146121ba578182fd5b600060208284031215612421578081fd5b5051919050565b7fffffffffffffffff000000000000000000000000000000000000000000000000831681527f466565732023000000000000000000000000000000000000000000000000000060088201526000825161248881600e8501602087016125d9565b91909101600e019392505050565b6001600160a01b03841681526020810183905260608101600783106124bd576124bd61269e565b826040830152949350505050565b6001600160a01b038416815282602082015260606040820152600082518060608401526124ff8160808501602087016125d9565b601f01601f191691909101608001949350505050565b600060c0820190508782528660208301526001600160a01b0386166040830152846060830152836080830152600483106125515761255161269e565b8260a0830152979650505050505050565b60006fffffffffffffffffffffffffffffffff80831681851680830382111561258d5761258d612672565b01949350505050565b600082198211156125a9576125a9612672565b500190565b6000826125bd576125bd612688565b500490565b6000828210156125d4576125d4612672565b500390565b60005b838110156125f45781810151838201526020016125dc565b838111156109545750506000910152565b60007fffffffffffffffffffffffffffffffffffffffffffffffffffffffffffffffff82141561263757612637612672565b5060010190565b600060ff821660ff81141561265557612655612672565b60010192915050565b60008261266d5761266d612688565b500690565b634e487b7160e01b600052601160045260246000fd5b634e487b7160e01b600052601260045260246000fd5b634e487b7160e01b600052602160045260246000fd5b634e487b7160e01b600052604160045260246000fd5b6001600160a01b03811681146126df57600080fd5b5056fea2646970667358221220430e281310a499daec1e24471fd03f8ddc50e692cdcc752814afa03d569fbba164736f6c63430008040033",
  "linkReferences": {},
  "deployedLinkReferences": {}
}