{
  "_format": "hh-sol-artifact-1",
  "contractName": "CollectivePaybackTokenAdapterContract",
  "sourceName": "contracts/collective/adapters/CollectivePaybackTokenAdapter.sol",
  "abi": [
    {
      "inputs": [
        {
          "internalType": "address",
          "name": "",
          "type": "address"
        },
        {
          "internalType": "bytes32",
          "name": "",
          "type": "bytes32"
        },
        {
          "internalType": "address",
          "name": "",
          "type": "address"
        },
        {
          "internalType": "address",
          "name": "",
          "type": "address"
        }
      ],
      "name": "approvedInfos",
      "outputs": [
        {
          "internalType": "uint256",
          "name": "",
          "type": "uint256"
        }
      ],
      "stateMutability": "view",
      "type": "function"
    },
    {
      "inputs": [
        {
          "internalType": "uint256",
          "name": "escrowAmount",
          "type": "uint256"
        },
        {
          "internalType": "contract DaoRegistry",
          "name": "dao",
          "type": "address"
        },
        {
          "internalType": "address",
          "name": "approver",
          "type": "address"
        },
        {
          "internalType": "address",
          "name": "erc20",
          "type": "address"
        },
        {
          "internalType": "bytes32",
          "name": "proposalId",
          "type": "bytes32"
        }
      ],
      "name": "escrowPaybackToken",
      "outputs": [
        {
          "internalType": "bool",
          "name": "",
          "type": "bool"
        }
      ],
      "stateMutability": "nonpayable",
      "type": "function"
    },
    {
      "inputs": [
        {
          "internalType": "address",
          "name": "",
          "type": "address"
        },
        {
          "internalType": "bytes32",
          "name": "",
          "type": "bytes32"
        },
        {
          "internalType": "address",
          "name": "",
          "type": "address"
        }
      ],
      "name": "escrowedPaybackTokens",
      "outputs": [
        {
          "internalType": "uint256",
          "name": "",
          "type": "uint256"
        }
      ],
      "stateMutability": "view",
      "type": "function"
    },
    {
      "inputs": [
        {
          "internalType": "address",
          "name": "dao",
          "type": "address"
        },
        {
          "internalType": "bytes32",
          "name": "proposalId",
          "type": "bytes32"
        },
        {
          "internalType": "address",
          "name": "erc20",
          "type": "address"
        },
        {
          "internalType": "uint256",
          "name": "amount",
          "type": "uint256"
        }
      ],
      "name": "setFundingApprove",
      "outputs": [
        {
          "internalType": "bool",
          "name": "",
          "type": "bool"
        }
      ],
      "stateMutability": "nonpayable",
      "type": "function"
    },
    {
      "inputs": [
        {
          "internalType": "contract DaoRegistry",
          "name": "dao",
          "type": "address"
        },
        {
          "internalType": "bytes32",
          "name": "proposalId",
          "type": "bytes32"
        },
        {
          "internalType": "address",
          "name": "erc20",
          "type": "address"
        },
        {
          "internalType": "address",
          "name": "approver",
          "type": "address"
        },
        {
          "internalType": "enum ICollectiveFunding.ProposalState",
          "name": "state",
          "type": "uint8"
        }
      ],
      "name": "withdrawPaybackToken",
      "outputs": [
        {
          "internalType": "bool",
          "name": "",
          "type": "bool"
        }
      ],
      "stateMutability": "nonpayable",
      "type": "function"
    }
  ],
  "bytecode": "0x608060405234801561001057600080fd5b50610d8f806100206000396000f3fe608060405234801561001057600080fd5b50600436106100675760003560e01c806354fcae871161005057806354fcae87146100e957806373204f371461010c57806394f1d45a1461015657600080fd5b80630121f4701461006c578063416c5ddd146100b0575b600080fd5b61009d61007a366004610b0d565b600160209081526000938452604080852082529284528284209052825290205481565b6040519081526020015b60405180910390f35b61009d6100be366004610b4e565b6000602081815294815260408082208652938152838120855291825282822090935291825290205481565b6100fc6100f7366004610c89565b610169565b60405190151581526020016100a7565b6100fc61011a366004610ba0565b6001600160a01b039384166000908152602081815260408083209583529481528482203383528152848220939095168152919093522055600190565b6100fc610164366004610c07565b610794565b6040516317ba7d8560e01b81527f72894213a5c7f56b36b2947fa6ea18963d6bb1a68746b46d7f552cca76e1a7a860048201526000906001600160a01b038616906317ba7d859060240160206040518083038186803b1580156101cb57600080fd5b505afa1580156101df573d6000803e3d6000fd5b505050506040513d601f19601f820116820180604052508101906102039190610aea565b6001600160a01b0316336001600160a01b0316146102685760405162461bcd60e51b815260206004820152600760248201527f216163636573730000000000000000000000000000000000000000000000000060448201526064015b60405180910390fd5b6001600160a01b038086166000908152602081815260408083208684528252808320888516845282528083209387168352929052205486118061034357506040517fdd62ed3e0000000000000000000000000000000000000000000000000000000081526001600160a01b03858116600483015230602483015287919085169063dd62ed3e9060440160206040518083038186803b15801561030957600080fd5b505afa15801561031d573d6000803e3d6000fd5b505050506040513d601f19601f820116820180604052508101906103419190610c71565b105b806103e057506040517f70a082310000000000000000000000000000000000000000000000000000000081526001600160a01b0385811660048301528791908516906370a082319060240160206040518083038186803b1580156103a657600080fd5b505afa1580156103ba573d6000803e3d6000fd5b505050506040513d601f19601f820116820180604052508101906103de9190610c71565b105b156103ed5750600061078b565b6040517f23b872dd0000000000000000000000000000000000000000000000000000000081526001600160a01b038581166004830152306024830152604482018890528416906323b872dd90606401602060405180830381600087803b15801561045657600080fd5b505af115801561046a573d6000803e3d6000fd5b505050506040513d601f19601f8201168201806040525081019061048e9190610be7565b506001600160a01b03808616600090815260208181526040808320868452825280832088851684528252808320938716835292905290812080548892906104d6908490610cfb565b90915550506001600160a01b038581166000818152600160209081526040808320878452825280832089861684529091528082208a9055516317ba7d8560e01b81527fbba99fd05ef530e2ad5cae360774c7ec6b1f135b279ab165354152f7dc991c106004820152909289929087169163dd62ed3e9130916317ba7d859060240160206040518083038186803b15801561056f57600080fd5b505afa158015610583573d6000803e3d6000fd5b505050506040513d601f19601f820116820180604052508101906105a79190610aea565b6040517fffffffff0000000000000000000000000000000000000000000000000000000060e085901b1681526001600160a01b0392831660048201529116602482015260440160206040518083038186803b15801561060557600080fd5b505afa158015610619573d6000803e3d6000fd5b505050506040513d601f19601f8201168201806040525081019061063d9190610c71565b6106479190610ce3565b6040516317ba7d8560e01b81527fbba99fd05ef530e2ad5cae360774c7ec6b1f135b279ab165354152f7dc991c1060048201529091506001600160a01b038086169163095ea7b3918916906317ba7d859060240160206040518083038186803b1580156106b357600080fd5b505afa1580156106c7573d6000803e3d6000fd5b505050506040513d601f19601f820116820180604052508101906106eb9190610aea565b6040517fffffffff0000000000000000000000000000000000000000000000000000000060e084901b1681526001600160a01b039091166004820152602481018490526044015b602060405180830381600087803b15801561074c57600080fd5b505af1158015610760573d6000803e3d6000fd5b505050506040513d601f19601f820116820180604052508101906107849190610be7565b5060019150505b95945050505050565b6040516317ba7d8560e01b81527f72894213a5c7f56b36b2947fa6ea18963d6bb1a68746b46d7f552cca76e1a7a860048201526000906001600160a01b038716906317ba7d859060240160206040518083038186803b1580156107f657600080fd5b505afa15801561080a573d6000803e3d6000fd5b505050506040513d601f19601f8201168201806040525081019061082e9190610aea565b6001600160a01b0316336001600160a01b03161461088e5760405162461bcd60e51b815260206004820152600760248201527f2161636365737300000000000000000000000000000000000000000000000000604482015260640161025f565b6001600160a01b038087166000908152600160209081526040808320898452825280832093871683529290522054806109095760405162461bcd60e51b815260206004820152600960248201527f21657363726f7765640000000000000000000000000000000000000000000000604482015260640161025f565b6040517f70a0823100000000000000000000000000000000000000000000000000000000815230600482015281906001600160a01b038716906370a082319060240160206040518083038186803b15801561096357600080fd5b505afa158015610977573d6000803e3d6000fd5b505050506040513d601f19601f8201168201806040525081019061099b9190610c71565b10156109e95760405162461bcd60e51b815260206004820152600560248201527f2166756e64000000000000000000000000000000000000000000000000000000604482015260640161025f565b6004836004811115610a24577f4e487b7100000000000000000000000000000000000000000000000000000000600052602160045260246000fd5b14610a715760405162461bcd60e51b815260206004820152600e60248201527f2166756e64696e67207374617465000000000000000000000000000000000000604482015260640161025f565b6001600160a01b0387811660009081526001602090815260408083208a8452825280832088851680855292528083209290925590517fa9059cbb0000000000000000000000000000000000000000000000000000000081526004810191909152602481018390529086169063a9059cbb90604401610732565b600060208284031215610afb578081fd5b8151610b0681610d41565b9392505050565b600080600060608486031215610b21578182fd5b8335610b2c81610d41565b9250602084013591506040840135610b4381610d41565b809150509250925092565b60008060008060808587031215610b63578081fd5b8435610b6e81610d41565b9350602085013592506040850135610b8581610d41565b91506060850135610b9581610d41565b939692955090935050565b60008060008060808587031215610bb5578384fd5b8435610bc081610d41565b9350602085013592506040850135610bd781610d41565b9396929550929360600135925050565b600060208284031215610bf8578081fd5b81518015158114610b06578182fd5b600080600080600060a08688031215610c1e578081fd5b8535610c2981610d41565b9450602086013593506040860135610c4081610d41565b92506060860135610c5081610d41565b9150608086013560058110610c63578182fd5b809150509295509295909350565b600060208284031215610c82578081fd5b5051919050565b600080600080600060a08688031215610ca0578081fd5b853594506020860135610cb281610d41565b93506040860135610cc281610d41565b92506060860135610cd281610d41565b949793965091946080013592915050565b60008219821115610cf657610cf6610d12565b500190565b600082821015610d0d57610d0d610d12565b500390565b7f4e487b7100000000000000000000000000000000000000000000000000000000600052601160045260246000fd5b6001600160a01b0381168114610d5657600080fd5b5056fea26469706673582212200d4b6a4cefedb0882172d4508b9aaf240aba3f86eab3395352190fc9dbae8a2e64736f6c63430008040033",
  "linkReferences": {},
  "deployedLinkReferences": {}
}