{
  "_format": "hh-sol-artifact-1",
  "contractName": "FlexInvestmentReceiptERC721",
  "sourceName": "contracts/flex/adatpers/FlexInvestmentReceiptERC721.sol",
  "abi": [
    {
      "inputs": [
        {
          "internalType": "string",
          "name": "name",
          "type": "string"
        },
        {
          "internalType": "string",
          "name": "symbol",
          "type": "string"
        },
        {
          "internalType": "address",
          "name": "_investmentContrAddress",
          "type": "address"
        },
        {
          "internalType": "address",
          "name": "_ercHelperContrAddress",
          "type": "address"
        }
      ],
      "stateMutability": "nonpayable",
      "type": "constructor"
    },
    {
      "anonymous": false,
      "inputs": [
        {
          "indexed": true,
          "internalType": "address",
          "name": "owner",
          "type": "address"
        },
        {
          "indexed": true,
          "internalType": "address",
          "name": "spender",
          "type": "address"
        },
        {
          "indexed": true,
          "internalType": "uint256",
          "name": "id",
          "type": "uint256"
        }
      ],
      "name": "Approval",
      "type": "event"
    },
    {
      "anonymous": false,
      "inputs": [
        {
          "indexed": true,
          "internalType": "address",
          "name": "owner",
          "type": "address"
        },
        {
          "indexed": true,
          "internalType": "address",
          "name": "operator",
          "type": "address"
        },
        {
          "indexed": false,
          "internalType": "bool",
          "name": "approved",
          "type": "bool"
        }
      ],
      "name": "ApprovalForAll",
      "type": "event"
    },
    {
      "anonymous": false,
      "inputs": [
        {
          "indexed": true,
          "internalType": "address",
          "name": "from",
          "type": "address"
        },
        {
          "indexed": true,
          "internalType": "address",
          "name": "to",
          "type": "address"
        },
        {
          "indexed": true,
          "internalType": "uint256",
          "name": "id",
          "type": "uint256"
        }
      ],
      "name": "Transfer",
      "type": "event"
    },
    {
      "inputs": [],
      "name": "_owner",
      "outputs": [
        {
          "internalType": "address",
          "name": "",
          "type": "address"
        }
      ],
      "stateMutability": "view",
      "type": "function"
    },
    {
      "inputs": [
        {
          "internalType": "address",
          "name": "spender",
          "type": "address"
        },
        {
          "internalType": "uint256",
          "name": "id",
          "type": "uint256"
        }
      ],
      "name": "approve",
      "outputs": [],
      "stateMutability": "nonpayable",
      "type": "function"
    },
    {
      "inputs": [
        {
          "internalType": "address",
          "name": "owner",
          "type": "address"
        }
      ],
      "name": "balanceOf",
      "outputs": [
        {
          "internalType": "uint256",
          "name": "",
          "type": "uint256"
        }
      ],
      "stateMutability": "view",
      "type": "function"
    },
    {
      "inputs": [],
      "name": "contractURI",
      "outputs": [
        {
          "internalType": "string",
          "name": "",
          "type": "string"
        }
      ],
      "stateMutability": "pure",
      "type": "function"
    },
    {
      "inputs": [],
      "name": "ercHelperCOntrAddress",
      "outputs": [
        {
          "internalType": "address",
          "name": "",
          "type": "address"
        }
      ],
      "stateMutability": "view",
      "type": "function"
    },
    {
      "inputs": [
        {
          "internalType": "uint256",
          "name": "",
          "type": "uint256"
        }
      ],
      "name": "getApproved",
      "outputs": [
        {
          "internalType": "address",
          "name": "",
          "type": "address"
        }
      ],
      "stateMutability": "view",
      "type": "function"
    },
    {
      "inputs": [],
      "name": "investmentContrAddress",
      "outputs": [
        {
          "internalType": "address",
          "name": "",
          "type": "address"
        }
      ],
      "stateMutability": "view",
      "type": "function"
    },
    {
      "inputs": [
        {
          "internalType": "bytes32",
          "name": "",
          "type": "bytes32"
        },
        {
          "internalType": "address",
          "name": "",
          "type": "address"
        }
      ],
      "name": "investmentIdToTokenId",
      "outputs": [
        {
          "internalType": "uint256",
          "name": "",
          "type": "uint256"
        }
      ],
      "stateMutability": "view",
      "type": "function"
    },
    {
      "inputs": [
        {
          "internalType": "address",
          "name": "",
          "type": "address"
        },
        {
          "internalType": "address",
          "name": "",
          "type": "address"
        }
      ],
      "name": "isApprovedForAll",
      "outputs": [
        {
          "internalType": "bool",
          "name": "",
          "type": "bool"
        }
      ],
      "stateMutability": "view",
      "type": "function"
    },
    {
      "inputs": [],
      "name": "maxTotalSupply",
      "outputs": [
        {
          "internalType": "uint256",
          "name": "",
          "type": "uint256"
        }
      ],
      "stateMutability": "view",
      "type": "function"
    },
    {
      "inputs": [],
      "name": "name",
      "outputs": [
        {
          "internalType": "string",
          "name": "",
          "type": "string"
        }
      ],
      "stateMutability": "view",
      "type": "function"
    },
    {
      "inputs": [
        {
          "internalType": "uint256",
          "name": "id",
          "type": "uint256"
        }
      ],
      "name": "ownerOf",
      "outputs": [
        {
          "internalType": "address",
          "name": "owner",
          "type": "address"
        }
      ],
      "stateMutability": "view",
      "type": "function"
    },
    {
      "inputs": [
        {
          "internalType": "address",
          "name": "daoAddr",
          "type": "address"
        },
        {
          "internalType": "bytes32",
          "name": "investmentProposalId",
          "type": "bytes32"
        },
        {
          "internalType": "string",
          "name": "executedTxHash",
          "type": "string"
        },
        {
          "internalType": "string",
          "name": "projectName",
          "type": "string"
        },
        {
          "internalType": "string",
          "name": "description",
          "type": "string"
        }
      ],
      "name": "safeMint",
      "outputs": [
        {
          "internalType": "uint256",
          "name": "id",
          "type": "uint256"
        }
      ],
      "stateMutability": "nonpayable",
      "type": "function"
    },
    {
      "inputs": [
        {
          "internalType": "address",
          "name": "from",
          "type": "address"
        },
        {
          "internalType": "address",
          "name": "to",
          "type": "address"
        },
        {
          "internalType": "uint256",
          "name": "id",
          "type": "uint256"
        }
      ],
      "name": "safeTransferFrom",
      "outputs": [],
      "stateMutability": "nonpayable",
      "type": "function"
    },
    {
      "inputs": [
        {
          "internalType": "address",
          "name": "from",
          "type": "address"
        },
        {
          "internalType": "address",
          "name": "to",
          "type": "address"
        },
        {
          "internalType": "uint256",
          "name": "id",
          "type": "uint256"
        },
        {
          "internalType": "bytes",
          "name": "data",
          "type": "bytes"
        }
      ],
      "name": "safeTransferFrom",
      "outputs": [],
      "stateMutability": "nonpayable",
      "type": "function"
    },
    {
      "inputs": [
        {
          "internalType": "address",
          "name": "operator",
          "type": "address"
        },
        {
          "internalType": "bool",
          "name": "approved",
          "type": "bool"
        }
      ],
      "name": "setApprovalForAll",
      "outputs": [],
      "stateMutability": "nonpayable",
      "type": "function"
    },
    {
      "inputs": [
        {
          "internalType": "bytes4",
          "name": "interfaceId",
          "type": "bytes4"
        }
      ],
      "name": "supportsInterface",
      "outputs": [
        {
          "internalType": "bool",
          "name": "",
          "type": "bool"
        }
      ],
      "stateMutability": "view",
      "type": "function"
    },
    {
      "inputs": [],
      "name": "symbol",
      "outputs": [
        {
          "internalType": "string",
          "name": "",
          "type": "string"
        }
      ],
      "stateMutability": "view",
      "type": "function"
    },
    {
      "inputs": [
        {
          "internalType": "uint256",
          "name": "",
          "type": "uint256"
        }
      ],
      "name": "tokenIdToInvestmentProposalInfo",
      "outputs": [
        {
          "internalType": "address",
          "name": "daoAddress",
          "type": "address"
        },
        {
          "internalType": "bytes32",
          "name": "investmentProposalId",
          "type": "bytes32"
        },
        {
          "internalType": "uint256",
          "name": "proposalExecutedBlockNum",
          "type": "uint256"
        },
        {
          "internalType": "string",
          "name": "executedTxHash",
          "type": "string"
        },
        {
          "internalType": "uint256",
          "name": "totalInvestedAmount",
          "type": "uint256"
        },
        {
          "internalType": "uint256",
          "name": "myInvestedAmount",
          "type": "uint256"
        },
        {
          "components": [
            {
              "internalType": "address",
              "name": "tokenAddress",
              "type": "address"
            },
            {
              "internalType": "string",
              "name": "tokenSymbol",
              "type": "string"
            },
            {
              "internalType": "string",
              "name": "tokenName",
              "type": "string"
            }
          ],
          "internalType": "struct FlexInvestmentReceiptERC721.ERC20Info",
          "name": "erc20",
          "type": "tuple"
        },
        {
          "internalType": "string",
          "name": "projectName",
          "type": "string"
        },
        {
          "internalType": "string",
          "name": "description",
          "type": "string"
        },
        {
          "internalType": "string",
          "name": "investmentProposalLink",
          "type": "string"
        }
      ],
      "stateMutability": "view",
      "type": "function"
    },
    {
      "inputs": [
        {
          "internalType": "uint256",
          "name": "tokenId",
          "type": "uint256"
        }
      ],
      "name": "tokenURI",
      "outputs": [
        {
          "internalType": "string",
          "name": "",
          "type": "string"
        }
      ],
      "stateMutability": "view",
      "type": "function"
    },
    {
      "inputs": [],
      "name": "totalSupply",
      "outputs": [
        {
          "internalType": "uint256",
          "name": "",
          "type": "uint256"
        }
      ],
      "stateMutability": "view",
      "type": "function"
    },
    {
      "inputs": [
        {
          "internalType": "address",
          "name": "from",
          "type": "address"
        },
        {
          "internalType": "address",
          "name": "to",
          "type": "address"
        },
        {
          "internalType": "uint256",
          "name": "id",
          "type": "uint256"
        }
      ],
      "name": "transferFrom",
      "outputs": [],
      "stateMutability": "nonpayable",
      "type": "function"
    }
  ],
  "bytecode": "0x60806040523480156200001157600080fd5b506040516200393f3803806200393f833981016040819052620000349162000220565b8351849084906200004d906000906020850190620000aa565b50805162000063906001906020840190620000aa565b5050600780546001600160a01b03199081163317909155600880546001600160a01b03958616908316179055600980549390941692169190911790915550620002ff915050565b828054620000b890620002ac565b90600052602060002090601f016020900481019282620000dc576000855562000127565b82601f10620000f757805160ff191683800117855562000127565b8280016001018555821562000127579182015b82811115620001275782518255916020019190600101906200010a565b506200013592915062000139565b5090565b5b808211156200013557600081556001016200013a565b80516001600160a01b03811681146200016857600080fd5b919050565b600082601f8301126200017e578081fd5b81516001600160401b03808211156200019b576200019b620002e9565b604051601f8301601f19908116603f01168101908282118183101715620001c657620001c6620002e9565b81604052838152602092508683858801011115620001e2578485fd5b8491505b83821015620002055785820183015181830184015290820190620001e6565b838211156200021657848385830101525b9695505050505050565b6000806000806080858703121562000236578384fd5b84516001600160401b03808211156200024d578586fd5b6200025b888389016200016d565b9550602087015191508082111562000271578485fd5b5062000280878288016200016d565b935050620002916040860162000150565b9150620002a16060860162000150565b905092959194509250565b600181811c90821680620002c157607f821691505b60208210811415620002e357634e487b7160e01b600052602260045260246000fd5b50919050565b634e487b7160e01b600052604160045260246000fd5b613630806200030f6000396000f3fe608060405234801561001057600080fd5b50600436106101825760003560e01c80638865a249116100d8578063b88d4fde1161008c578063e32616e611610066578063e32616e614610339578063e8a3d48514610362578063e985e9c51461036a57600080fd5b8063b88d4fde14610300578063c87b56dd14610313578063d69dd9711461032657600080fd5b80639ba42d48116100bd5780639ba42d48146102c7578063a22cb465146102da578063b2bdfa7b146102ed57600080fd5b80638865a2491461029457806395d89b41146102bf57600080fd5b80631b2149221161013a57806342842e0e1161011457806342842e0e1461025b5780636352211e1461026e57806370a082311461028157600080fd5b80631b2149221461022c57806323b872dd1461023f5780632ab4d0521461025257600080fd5b8063081812fc1161016b578063081812fc146101c4578063095ea7b31461020557806318160ddd1461021a57600080fd5b806301ffc9a71461018757806306fdde03146101af575b600080fd5b61019a610195366004612c1d565b610398565b60405190151581526020015b60405180910390f35b6101b7610435565b6040516101a69190612ff9565b6101ed6101d2366004612c88565b6004602052600090815260409020546001600160a01b031681565b6040516001600160a01b0390911681526020016101a6565b610218610213366004612ba1565b6104c3565b005b600a545b6040519081526020016101a6565b6009546101ed906001600160a01b031681565b61021861024d366004612890565b6105c6565b61021e600a5481565b610218610269366004612890565b6107c8565b6101ed61027c366004612c88565b6108dc565b61021e61028f366004612820565b610946565b61021e6102a2366004612bf9565b600b60209081526000928352604080842090915290825290205481565b6101b76109ba565b6008546101ed906001600160a01b031681565b6102186102e836600461296a565b6109c7565b6007546101ed906001600160a01b031681565b61021861030e3660046128d0565b610a51565b6101b7610321366004612c88565b610b55565b61021e610334366004612997565b611030565b61034c610347366004612c88565b6117db565b6040516101a69a99989796959493929190612f29565b6101b7611b9a565b61019a610378366004612858565b600560209081526000928352604080842090915290825290205460ff1681565b60007f01ffc9a7000000000000000000000000000000000000000000000000000000006001600160e01b0319831614806103fb57507f80ac58cd000000000000000000000000000000000000000000000000000000006001600160e01b03198316145b8061042f57507f5b5e139f000000000000000000000000000000000000000000000000000000006001600160e01b03198316145b92915050565b6000805461044290613206565b80601f016020809104026020016040519081016040528092919081815260200182805461046e90613206565b80156104bb5780601f10610490576101008083540402835291602001916104bb565b820191906000526020600020905b81548152906001019060200180831161049e57829003601f168201915b505050505081565b6000818152600260205260409020546001600160a01b03163381148061050c57506001600160a01b038116600090815260056020908152604080832033845290915290205460ff165b61055d5760405162461bcd60e51b815260206004820152600e60248201527f4e4f545f415554484f52495a454400000000000000000000000000000000000060448201526064015b60405180910390fd5b600082815260046020526040808220805473ffffffffffffffffffffffffffffffffffffffff19166001600160a01b0387811691821790925591518593918516917f8c5be1e5ebec7d5bd14f71427d1e84f3dd0314c0f7b2291e5b200ac8c7c3b92591a4505050565b6000818152600260205260409020546001600160a01b0384811691161461062f5760405162461bcd60e51b815260206004820152600a60248201527f57524f4e475f46524f4d000000000000000000000000000000000000000000006044820152606401610554565b6001600160a01b0382166106855760405162461bcd60e51b815260206004820152601160248201527f494e56414c49445f524543495049454e540000000000000000000000000000006044820152606401610554565b336001600160a01b03841614806106bf57506001600160a01b038316600090815260056020908152604080832033845290915290205460ff165b806106e057506000818152600460205260409020546001600160a01b031633145b61072c5760405162461bcd60e51b815260206004820152600e60248201527f4e4f545f415554484f52495a45440000000000000000000000000000000000006044820152606401610554565b6001600160a01b03808416600081815260036020908152604080832080546000190190559386168083528483208054600101905585835260028252848320805473ffffffffffffffffffffffffffffffffffffffff199081168317909155600490925284832080549092169091559251849392917fddf252ad1be2c89b69c2b068fc378daa952ba7f163c4a11628f55a4df523b3ef91a4505050565b6107d38383836105c6565b6001600160a01b0382163b158061088b5750604051630a85bd0160e11b8082523360048301526001600160a01b03858116602484015260448301849052608060648401526000608484015290919084169063150b7a029060a401602060405180830381600087803b15801561084757600080fd5b505af115801561085b573d6000803e3d6000fd5b505050506040513d601f19601f8201168201806040525081019061087f9190612c39565b6001600160e01b031916145b6108d75760405162461bcd60e51b815260206004820152601060248201527f554e534146455f524543495049454e54000000000000000000000000000000006044820152606401610554565b505050565b6000818152600260205260409020546001600160a01b0316806109415760405162461bcd60e51b815260206004820152600a60248201527f4e4f545f4d494e544544000000000000000000000000000000000000000000006044820152606401610554565b919050565b60006001600160a01b03821661099e5760405162461bcd60e51b815260206004820152600c60248201527f5a45524f5f4144445245535300000000000000000000000000000000000000006044820152606401610554565b506001600160a01b031660009081526003602052604090205490565b6001805461044290613206565b3360008181526005602090815260408083206001600160a01b0387168085529083529281902080547fffffffffffffffffffffffffffffffffffffffffffffffffffffffffffffff001686151590811790915590519081529192917f17307eab39ab6107e8899845ad3d59bd9653f200f220920489ca2b5937696c31910160405180910390a35050565b610a5c8585856105c6565b6001600160a01b0384163b1580610b025750604051630a85bd0160e11b808252906001600160a01b0386169063150b7a0290610aa49033908a90899089908990600401612ed8565b602060405180830381600087803b158015610abe57600080fd5b505af1158015610ad2573d6000803e3d6000fd5b505050506040513d601f19601f82011682018060405250810190610af69190612c39565b6001600160e01b031916145b610b4e5760405162461bcd60e51b815260206004820152601060248201527f554e534146455f524543495049454e54000000000000000000000000000000006044820152606401610554565b5050505050565b6000818152600c6020908152604080832081516101408101835281546001600160a01b0316815260018201549381019390935260028101549183019190915260038101805460609493929183860191610bad90613206565b80601f0160208091040260200160405190810160405280929190818152602001828054610bd990613206565b8015610c265780601f10610bfb57610100808354040283529160200191610c26565b820191906000526020600020905b815481529060010190602001808311610c0957829003601f168201915b505050505081526020016004820154815260200160058201548152602001600682016040518060600160405290816000820160009054906101000a90046001600160a01b03166001600160a01b03166001600160a01b03168152602001600182018054610c9290613206565b80601f0160208091040260200160405190810160405280929190818152602001828054610cbe90613206565b8015610d0b5780601f10610ce057610100808354040283529160200191610d0b565b820191906000526020600020905b815481529060010190602001808311610cee57829003601f168201915b50505050508152602001600282018054610d2490613206565b80601f0160208091040260200160405190810160405280929190818152602001828054610d5090613206565b8015610d9d5780601f10610d7257610100808354040283529160200191610d9d565b820191906000526020600020905b815481529060010190602001808311610d8057829003601f168201915b5050505050815250508152602001600982018054610dba90613206565b80601f0160208091040260200160405190810160405280929190818152602001828054610de690613206565b8015610e335780601f10610e0857610100808354040283529160200191610e33565b820191906000526020600020905b815481529060010190602001808311610e1657829003601f168201915b50505050508152602001600a82018054610e4c90613206565b80601f0160208091040260200160405190810160405280929190818152602001828054610e7890613206565b8015610ec55780601f10610e9a57610100808354040283529160200191610ec5565b820191906000526020600020905b815481529060010190602001808311610ea857829003601f168201915b50505050508152602001600b82018054610ede90613206565b80601f0160208091040260200160405190810160405280929190818152602001828054610f0a90613206565b8015610f575780601f10610f2c57610100808354040283529160200191610f57565b820191906000526020600020905b815481529060010190602001808311610f3a57829003601f168201915b505050919092525050600954606083015160e084015160c085015160200151610120860151608087015160a08801516101008901516040517f2a26c3ef000000000000000000000000000000000000000000000000000000008152999a506001600160a01b0390971698632a26c3ef9850610fd5979060040161300c565b60006040518083038186803b158015610fed57600080fd5b505afa158015611001573d6000803e3d6000fd5b505050506040513d6000823e601f3d908101601f191682016040526110299190810190612c55565b9392505050565b6000848152600b60209081526040808320338452909152812054156110975760405162461bcd60e51b815260206004820152600e60248201527f616c7265646179206d696e7465640000000000000000000000000000000000006044820152606401610554565b6008546040517fbf4999940000000000000000000000000000000000000000000000000000000081526001600160a01b03888116600483015260248201889052600092839291169063bf4999949060440160006040518083038186803b15801561110057600080fd5b505afa158015611114573d6000803e3d6000fd5b505050506040513d6000823e601f3d908101601f1916820160405261113c9190810190612a38565b98505050505050509250506000886001600160a01b03166317ba7d857feae11da953333a83b6467e2193334fb302549e1a42ad5797082aea1ab6be91206040518263ffffffff1660e01b815260040161119791815260200190565b60206040518083038186803b1580156111af57600080fd5b505afa1580156111c3573d6000803e3d6000fd5b505050506040513d601f19601f820116820180604052508101906111e7919061283c565b6040517e75e7eb0000000000000000000000000000000000000000000000000000000081526001600160a01b038b81166004830152602482018b905233604483015291909116906275e7eb90606401604080518083038186803b15801561124d57600080fd5b505afa158015611261573d6000803e3d6000fd5b505050506040513d601f19601f820116820180604052508101906112859190612bcc565b6040517f593e96b60000000000000000000000000000000000000000000000000000000081527fb12a3847d47fefceb164b75823af125f9aa82b76938df0ddf08c04cd314ba37c60048201529092506000915082906001600160a01b038c169063593e96b69060240160206040518083038186803b15801561130657600080fd5b505afa15801561131a573d6000803e3d6000fd5b505050506040513d601f19601f8201168201806040525081019061133e919061283c565b6001600160a01b0316639e3f2d908b336113596001896131a8565b6040516001600160e01b031960e086901b16815260048101939093526001600160a01b039091166024830152604482015260640160206040518083038186803b1580156113a557600080fd5b505afa1580156113b9573d6000803e3d6000fd5b505050506040513d601f19601f820116820180604052508101906113dd9190612ca0565b6113e791906131a8565b9050600081116114395760405162461bcd60e51b815260206004820152600a60248201527f756e6d696e7461626c65000000000000000000000000000000000000000000006044820152606401610554565b611447600680546001019055565b600061145260065490565b905061145e3382611c03565b60008a8152600b602090815260408083203384529091528120829055600a80546001929061148d908490613151565b90915550600090506114a96001600160a01b038d166014611d12565b6114b28c611f81565b6114bf60808e901b611f81565b6040517f307800000000000000000000000000000000000000000000000000000000000060208201526022810192909252604282015260620160408051601f19818403018152908290526115169291602001612dc2565b60405160208183030381529060405290506040518061014001604052808d6001600160a01b031681526020018c81526020018681526020018b815260200187606001518152602001848152602001604051806060016040528089600001516001600160a01b0316815260200189600001516001600160a01b03166395d89b416040518163ffffffff1660e01b815260040160006040518083038186803b1580156115bf57600080fd5b505afa1580156115d3573d6000803e3d6000fd5b505050506040513d6000823e601f3d908101601f191682016040526115fb9190810190612c55565b815260200189600001516001600160a01b03166306fdde036040518163ffffffff1660e01b815260040160006040518083038186803b15801561163d57600080fd5b505afa158015611651573d6000803e3d6000fd5b505050506040513d6000823e601f3d908101601f191682016040526116799190810190612c55565b9052815260208082018c905260408083018c905260609283018590526000868152600c83528190208451815473ffffffffffffffffffffffffffffffffffffffff19166001600160a01b039091161781558483015160018201559084015160028201559183015180516116f2926003850192019061244f565b506080820151600482015560a0820151600582015560c0820151805160068301805473ffffffffffffffffffffffffffffffffffffffff19166001600160a01b039092169190911781556020808301518051611754926007870192019061244f565b506040820151805161177091600284019160209091019061244f565b50505060e0820151805161178e91600984019160209091019061244f565b5061010082015180516117ab91600a84019160209091019061244f565b5061012082015180516117c891600b84019160209091019061244f565b50929d9c50505050505050505050505050565b600c6020526000908152604090208054600182015460028301546003840180546001600160a01b0390941694929391929161181590613206565b80601f016020809104026020016040519081016040528092919081815260200182805461184190613206565b801561188e5780601f106118635761010080835404028352916020019161188e565b820191906000526020600020905b81548152906001019060200180831161187157829003601f168201915b505050506004830154600584015460408051606081019091526006860180546001600160a01b03168252600787018054969794969395509192909160208401916118d790613206565b80601f016020809104026020016040519081016040528092919081815260200182805461190390613206565b80156119505780601f1061192557610100808354040283529160200191611950565b820191906000526020600020905b81548152906001019060200180831161193357829003601f168201915b5050505050815260200160028201805461196990613206565b80601f016020809104026020016040519081016040528092919081815260200182805461199590613206565b80156119e25780601f106119b7576101008083540402835291602001916119e2565b820191906000526020600020905b8154815290600101906020018083116119c557829003601f168201915b505050505081525050908060090180546119fb90613206565b80601f0160208091040260200160405190810160405280929190818152602001828054611a2790613206565b8015611a745780601f10611a4957610100808354040283529160200191611a74565b820191906000526020600020905b815481529060010190602001808311611a5757829003601f168201915b50505050509080600a018054611a8990613206565b80601f0160208091040260200160405190810160405280929190818152602001828054611ab590613206565b8015611b025780601f10611ad757610100808354040283529160200191611b02565b820191906000526020600020905b815481529060010190602001808311611ae557829003601f168201915b50505050509080600b018054611b1790613206565b80601f0160208091040260200160405190810160405280929190818152602001828054611b4390613206565b8015611b905780601f10611b6557610100808354040283529160200191611b90565b820191906000526020600020905b815481529060010190602001808311611b7357829003601f168201915b505050505090508a565b6060611bdf60405180610340016040528061030481526020016132f76103049139604051602001611bcb9190612ce4565b604051602081830303815290604052612151565b604051602001611bef9190612e93565b604051602081830303815290604052905090565b611c0d828261231c565b6001600160a01b0382163b1580611cc25750604051630a85bd0160e11b80825233600483015260006024830181905260448301849052608060648401526084830152906001600160a01b0384169063150b7a029060a401602060405180830381600087803b158015611c7e57600080fd5b505af1158015611c92573d6000803e3d6000fd5b505050506040513d601f19601f82011682018060405250810190611cb69190612c39565b6001600160e01b031916145b611d0e5760405162461bcd60e51b815260206004820152601060248201527f554e534146455f524543495049454e54000000000000000000000000000000006044820152606401610554565b5050565b60606000611d21836002613189565b611d2c906002613151565b67ffffffffffffffff811115611d5257634e487b7160e01b600052604160045260246000fd5b6040519080825280601f01601f191660200182016040528015611d7c576020820181803683370190505b5090507f300000000000000000000000000000000000000000000000000000000000000081600081518110611dc157634e487b7160e01b600052603260045260246000fd5b60200101907effffffffffffffffffffffffffffffffffffffffffffffffffffffffffffff1916908160001a9053507f780000000000000000000000000000000000000000000000000000000000000081600181518110611e3257634e487b7160e01b600052603260045260246000fd5b60200101907effffffffffffffffffffffffffffffffffffffffffffffffffffffffffffff1916908160001a9053506000611e6e846002613189565b611e79906001613151565b90505b6001811115611f32577f303132333435363738396162636465660000000000000000000000000000000085600f1660108110611ec857634e487b7160e01b600052603260045260246000fd5b1a60f81b828281518110611eec57634e487b7160e01b600052603260045260246000fd5b60200101907effffffffffffffffffffffffffffffffffffffffffffffffffffffffffffff1916908160001a90535060049490941c93611f2b816131ef565b9050611e7c565b5083156110295760405162461bcd60e51b815260206004820181905260248201527f537472696e67733a20686578206c656e67746820696e73756666696369656e746044820152606401610554565b7aff00000000000000ff00000000000000ff00000000000000ff00006bffffffff0000000000000000604083901c9081167bffffffff00000000000000000000000000000000000000000000000084161760201c6fffffffff000000000000000000000000919091166001600160e01b031984161717601081901c9182167eff00000000000000ff00000000000000ff00000000000000ff000000000000821617600890811c7bff00000000000000ff00000000000000ff00000000000000ff000000939093167fff00000000000000ff00000000000000ff00000000000000ff000000000000009290921691909117919091179081901c7e0f000f000f000f000f000f000f000f000f000f000f000f000f000f000f000f167f0f000f000f000f000f000f000f000f000f000f000f000f000f000f000f000f00600492831c1617906120ed827f0606060606060606060606060606060606060606060606060606060606060606613151565b901c7f0f0f0f0f0f0f0f0f0f0f0f0f0f0f0f0f0f0f0f0f0f0f0f0f0f0f0f0f0f0f0f0f16600761211d9190613189565b612147827f3030303030303030303030303030303030303030303030303030303030303030613151565b61042f9190613151565b606081516000141561217157505060408051602081019091526000815290565b60006040518060600160405280604081526020016132b760409139905060006003845160026121a09190613151565b6121aa9190613169565b6121b5906004613189565b905060006121c4826020613151565b67ffffffffffffffff8111156121ea57634e487b7160e01b600052604160045260246000fd5b6040519080825280601f01601f191660200182016040528015612214576020820181803683370190505b509050818152600183018586518101602084015b818310156122825760039283018051603f601282901c811687015160f890811b8552600c83901c8216880151811b6001860152600683901c8216880151811b60028601529116860151901b93820193909352600401612228565b60038951066001811461229c57600281146122e65761230e565b7f3d3d0000000000000000000000000000000000000000000000000000000000007ffffffffffffffffffffffffffffffffffffffffffffffffffffffffffffffffe83015261230e565b7f3d000000000000000000000000000000000000000000000000000000000000006000198301525b509398975050505050505050565b6001600160a01b0382166123725760405162461bcd60e51b815260206004820152601160248201527f494e56414c49445f524543495049454e540000000000000000000000000000006044820152606401610554565b6000818152600260205260409020546001600160a01b0316156123d75760405162461bcd60e51b815260206004820152600e60248201527f414c52454144595f4d494e5445440000000000000000000000000000000000006044820152606401610554565b6001600160a01b0382166000818152600360209081526040808320805460010190558483526002909152808220805473ffffffffffffffffffffffffffffffffffffffff19168417905551839291907fddf252ad1be2c89b69c2b068fc378daa952ba7f163c4a11628f55a4df523b3ef908290a45050565b82805461245b90613206565b90600052602060002090601f01602090048101928261247d57600085556124c3565b82601f1061249657805160ff19168380011785556124c3565b828001600101855582156124c3579182015b828111156124c35782518255916020019190600101906124a8565b506124cf9291506124d3565b5090565b5b808211156124cf57600081556001016124d4565b80516109418161326d565b805161094181613285565b80516002811061094157600080fd5b80516005811061094157600080fd5b600082601f83011261252c578081fd5b813561253f61253a82613129565b6130f8565b818152846020838601011115612553578283fd5b816020850160208301379081016020019190915292915050565b600082601f83011261257d578081fd5b815161258b61253a82613129565b81815284602083860101111561259f578283fd5b6125b08260208301602087016131bf565b949350505050565b600061020082840312156125ca578081fd5b604051610100810181811067ffffffffffffffff821117156125ee576125ee613257565b6040529050806125fd836124fe565b81526020830151602082015260408301516040820152606083015160608201526080830151608082015261263360a084016124f3565b60a08201526126458460c08501612664565b60c08201526126588461016085016126d7565b60e08201525092915050565b600060a08284031215612675578081fd5b61267d613087565b9050815161268a816132a9565b8152602082015163ffffffff811681146126a357600080fd5b602082015260408201516126b68161326d565b80604083015250606082015160608201526080820151608082015292915050565b600060a082840312156126e8578081fd5b6126f0613087565b905081516126fd81613285565b815260208201516126a3816132a9565b60006040828403121561271e578081fd5b6040516040810181811067ffffffffffffffff8211171561274157612741613257565b604052825181526020928301519281019290925250919050565b6000610120828403121561276d578081fd5b6127756130b0565b905081518152602082015160208201526040820151604082015260608201516060820152608082015160808201526127af60a083016124f3565b60a08201526127c060c083016124e8565b60c082015260e082015167ffffffffffffffff808211156127e057600080fd5b6127ec8583860161256d565b60e08401526101009150818401518181111561280757600080fd5b6128138682870161256d565b8385015250505092915050565b600060208284031215612831578081fd5b81356110298161326d565b60006020828403121561284d578081fd5b81516110298161326d565b6000806040838503121561286a578081fd5b82356128758161326d565b915060208301356128858161326d565b809150509250929050565b6000806000606084860312156128a4578081fd5b83356128af8161326d565b925060208401356128bf8161326d565b929592945050506040919091013590565b6000806000806000608086880312156128e7578283fd5b85356128f28161326d565b945060208601356129028161326d565b935060408601359250606086013567ffffffffffffffff80821115612925578283fd5b818801915088601f830112612938578283fd5b813581811115612946578384fd5b896020828501011115612957578384fd5b9699959850939650602001949392505050565b6000806040838503121561297c578182fd5b82356129878161326d565b9150602083013561288581613285565b600080600080600060a086880312156129ae578283fd5b85356129b98161326d565b945060208601359350604086013567ffffffffffffffff808211156129dc578485fd5b6129e889838a0161251c565b945060608801359150808211156129fd578283fd5b612a0989838a0161251c565b93506080880135915080821115612a1e578283fd5b50612a2b8882890161251c565b9150509295509295909350565b6000806000806000806000806000898b03610480811215612a57578788fd5b8a51612a628161326d565b9950610180601f198201811315612a77578889fd5b612a7f6130d4565b9150612a8d60208d016124e8565b825260408c0151602083015260608c0151604083015260808c01516060830152612ab960a08d016124f3565b6080830152612aca60c08d016124e8565b60a083015260e08c015160c0830152610100808d015160e0840152610120808e0151828501526101409150818e01518185015250610160612b0c818f016124e8565b82850152612b1b838f016124e8565b9084015250506101a08b015190985067ffffffffffffffff811115612b3e578788fd5b612b4a8c828d0161275b565b975050612b5b8b6101c08c016125b8565b9550612b6b8b6103c08c0161270d565b94506104008a015193506104208a01519250612b8a6104408b0161250d565b91506104608a015190509295985092959850929598565b60008060408385031215612bb3578182fd5b8235612bbe8161326d565b946020939093013593505050565b60008060408385031215612bde578182fd5b8251612be98161326d565b6020939093015192949293505050565b60008060408385031215612c0b578182fd5b8235915060208301356128858161326d565b600060208284031215612c2e578081fd5b813561102981613293565b600060208284031215612c4a578081fd5b815161102981613293565b600060208284031215612c66578081fd5b815167ffffffffffffffff811115612c7c578182fd5b6125b08482850161256d565b600060208284031215612c99578081fd5b5035919050565b600060208284031215612cb1578081fd5b5051919050565b60008151808452612cd08160208601602086016131bf565b601f01601f19169290920160200192915050565b7f7b226e616d65223a202244414f53717561726520496e766573746d656e74205281527f656365697074222c226465736372697074696f6e223a22000000000000000000602082015260008251612d428160378501602087016131bf565b7f222c22696d616765223a2268747470733a2f2f692e6962622e636f2f4a784e6360379390910192830152507f6d66342f436f6c6c656374696f6e2d4c6f676f2e706e67222c2265787465726e60578201527f616c5f6c696e6b223a2268747470733a2f2f64616f7371756172652e6669227d6077820152609701919050565b7f68747470733a2f2f67726170682e70686f656e69782e66692f76656e7475726581527f64616f732f666c65782f00000000000000000000000000000000000000000000602082015260008351612e2081602a8501602088016131bf565b7f2f70726f706f73616c732f000000000000000000000000000000000000000000602a918401918201528351612e5d8160358401602088016131bf565b7f2f696e766573746d656e7400000000000000000000000000000000000000000060359290910191820152604001949350505050565b7f646174613a6170706c69636174696f6e2f6a736f6e3b6261736536342c000000815260008251612ecb81601d8501602087016131bf565b91909101601d0192915050565b60006001600160a01b03808816835280871660208401525084604083015260806060830152826080830152828460a084013781830160a090810191909152601f909201601f19160101949350505050565b60006101406001600160a01b03808e1684528c60208501528b6040850152816060850152612f598285018c612cb8565b91508960808501528860a085015283820360c085015280885116825250602087015160606020830152612f8f6060830182612cb8565b905060408801518282036040840152612fa88282612cb8565b9250505082810360e0840152612fbe8187612cb8565b9050828103610100840152612fd38186612cb8565b9050828103610120840152612fe88185612cb8565b9d9c50505050505050505050505050565b6020815260006110296020830184612cb8565b60e08152600061301f60e083018a612cb8565b8281036020840152613031818a612cb8565b905082810360408401526130458189612cb8565b905082810360608401526130598188612cb8565b90508560808401528460a084015282810360c08401526130798185612cb8565b9a9950505050505050505050565b60405160a0810167ffffffffffffffff811182821017156130aa576130aa613257565b60405290565b604051610120810167ffffffffffffffff811182821017156130aa576130aa613257565b604051610180810167ffffffffffffffff811182821017156130aa576130aa613257565b604051601f8201601f1916810167ffffffffffffffff8111828210171561312157613121613257565b604052919050565b600067ffffffffffffffff82111561314357613143613257565b50601f01601f191660200190565b6000821982111561316457613164613241565b500190565b60008261318457634e487b7160e01b81526012600452602481fd5b500490565b60008160001904831182151516156131a3576131a3613241565b500290565b6000828210156131ba576131ba613241565b500390565b60005b838110156131da5781810151838201526020016131c2565b838111156131e9576000848401525b50505050565b6000816131fe576131fe613241565b506000190190565b600181811c9082168061321a57607f821691505b6020821081141561323b57634e487b7160e01b600052602260045260246000fd5b50919050565b634e487b7160e01b600052601160045260246000fd5b634e487b7160e01b600052604160045260246000fd5b6001600160a01b038116811461328257600080fd5b50565b801515811461328257600080fd5b6001600160e01b03198116811461328257600080fd5b6004811061328257600080fdfe4142434445464748494a4b4c4d4e4f505152535455565758595a6162636465666768696a6b6c6d6e6f707172737475767778797a303132333435363738392b2f546865204e46547320696e207468652044414f53717561726520496e766573746d656e74205265636569707420436f6c6c656374696f6e206172652067656e6572617465642066726f6d20696e766573746d656e7473206d6164652062792056656e747572652044414f7320696e207468652044414f53717561726520496e63756261746f722c2077686963682061637469766174656420746865204e46542066756e6374696f6e20574954484f5554207573696e672074686520457363726f772046756e6374696f6e2e2045616368204e465420726570726573656e747320616e20696e766573746f72e280997320696e766573746d656e74207265636f7264206f6620696e76657374696e6720696e20612050726f6a656374207468726f75676820612044414f20696e2044414f53717561726520496e63756261746f722c206c696b65206120726563656970742e20596f752063616e2076696577207468652064796e616d696320646174612028696d6167652920616e642070726f7065727469657320696e666f726d6174696f6e206f662065616368204e465420746f20636865636b207768657468657220746865204e46542069732063757272656e746c792076616c696420616e642074686520696e766573746d656e74207265636f7264732e205468652050726f6a656374206f722044414f206d61792070726f6d69736520746f20676976652062656e656669747320746f204e465420686f6c646572732c207265676172646c657373206f6620746865206f726967696e616c20696e766573746f722e20204e46547320696e207468697320636f6c6c656374696f6e20617265207472616e7366657261626c652e20205468652066756c66696c6c6d656e74206f6620616e792070726f6d697365206261736564206f6e20746865204e465420646570656e6473206f6e207468652070726f6d69736572202850726f6a656374206f722044414f292c20776869636820746865204e465420697473656c662063616e6e6f742067756172616e74656520746563686e6963616c6c792ea26469706673582212204ec9411868418150b256a14eaf98c826578e03cb7e3541aabe206fb69028b6a664736f6c63430008040033",
  "linkReferences": {},
  "deployedLinkReferences": {}
}