{
  "_format": "hh-sol-artifact-1",
  "contractName": "VintageFundingPoolExtension",
  "sourceName": "contracts/vintage/extensions/fundingpool/VintageFundingPool.sol",
  "abi": [
    {
      "inputs": [],
      "stateMutability": "nonpayable",
      "type": "constructor"
    },
    {
      "anonymous": false,
      "inputs": [
        {
          "indexed": false,
          "internalType": "address",
          "name": "distributeTo",
          "type": "address"
        },
        {
          "indexed": false,
          "internalType": "address",
          "name": "tokenAddr",
          "type": "address"
        },
        {
          "indexed": false,
          "internalType": "uint256",
          "name": "amount",
          "type": "uint256"
        }
      ],
      "name": "DistributeFund",
      "type": "event"
    },
    {
      "anonymous": false,
      "inputs": [
        {
          "indexed": false,
          "internalType": "uint256",
          "name": "chargedTime",
          "type": "uint256"
        },
        {
          "indexed": false,
          "internalType": "address",
          "name": "lpAddress",
          "type": "address"
        },
        {
          "indexed": false,
          "internalType": "uint256",
          "name": "amount",
          "type": "uint256"
        }
      ],
      "name": "ManagementFeeCharged",
      "type": "event"
    },
    {
      "anonymous": false,
      "inputs": [
        {
          "indexed": false,
          "internalType": "address",
          "name": "member",
          "type": "address"
        },
        {
          "indexed": false,
          "internalType": "address",
          "name": "tokenAddr",
          "type": "address"
        },
        {
          "indexed": false,
          "internalType": "uint128",
          "name": "amount",
          "type": "uint128"
        }
      ],
      "name": "NewBalance",
      "type": "event"
    },
    {
      "anonymous": false,
      "inputs": [
        {
          "indexed": false,
          "internalType": "address",
          "name": "token",
          "type": "address"
        },
        {
          "indexed": false,
          "internalType": "uint256",
          "name": "amount",
          "type": "uint256"
        }
      ],
      "name": "Recovered",
      "type": "event"
    },
    {
      "anonymous": false,
      "inputs": [
        {
          "indexed": false,
          "internalType": "uint256",
          "name": "chargedTime",
          "type": "uint256"
        },
        {
          "indexed": false,
          "internalType": "address",
          "name": "lpAddress",
          "type": "address"
        },
        {
          "indexed": false,
          "internalType": "uint256",
          "name": "amount",
          "type": "uint256"
        }
      ],
      "name": "RedeptionFeeCharged",
      "type": "event"
    },
    {
      "anonymous": false,
      "inputs": [
        {
          "indexed": false,
          "internalType": "uint256",
          "name": "reward",
          "type": "uint256"
        }
      ],
      "name": "RewardAdded",
      "type": "event"
    },
    {
      "anonymous": false,
      "inputs": [
        {
          "indexed": true,
          "internalType": "address",
          "name": "user",
          "type": "address"
        },
        {
          "indexed": false,
          "internalType": "uint256",
          "name": "reward",
          "type": "uint256"
        }
      ],
      "name": "RewardPaid",
      "type": "event"
    },
    {
      "anonymous": false,
      "inputs": [
        {
          "indexed": false,
          "internalType": "uint256",
          "name": "newDuration",
          "type": "uint256"
        }
      ],
      "name": "RewardsDurationUpdated",
      "type": "event"
    },
    {
      "anonymous": false,
      "inputs": [
        {
          "indexed": true,
          "internalType": "address",
          "name": "user",
          "type": "address"
        },
        {
          "indexed": false,
          "internalType": "uint256",
          "name": "amount",
          "type": "uint256"
        }
      ],
      "name": "Staked",
      "type": "event"
    },
    {
      "anonymous": false,
      "inputs": [
        {
          "indexed": false,
          "internalType": "address",
          "name": "account",
          "type": "address"
        },
        {
          "indexed": false,
          "internalType": "address",
          "name": "tokenAddr",
          "type": "address"
        },
        {
          "indexed": false,
          "internalType": "uint128",
          "name": "amount",
          "type": "uint128"
        }
      ],
      "name": "Withdraw",
      "type": "event"
    },
    {
      "anonymous": false,
      "inputs": [
        {
          "indexed": true,
          "internalType": "address",
          "name": "user",
          "type": "address"
        },
        {
          "indexed": false,
          "internalType": "uint256",
          "name": "amount",
          "type": "uint256"
        }
      ],
      "name": "Withdrawn",
      "type": "event"
    },
    {
      "inputs": [
        {
          "internalType": "address",
          "name": "depositer",
          "type": "address"
        },
        {
          "internalType": "uint256",
          "name": "amount",
          "type": "uint256"
        }
      ],
      "name": "addToBalance",
      "outputs": [],
      "stateMutability": "nonpayable",
      "type": "function"
    },
    {
      "inputs": [
        {
          "internalType": "address",
          "name": "",
          "type": "address"
        }
      ],
      "name": "availableTokens",
      "outputs": [
        {
          "internalType": "bool",
          "name": "",
          "type": "bool"
        }
      ],
      "stateMutability": "view",
      "type": "function"
    },
    {
      "inputs": [
        {
          "internalType": "address",
          "name": "investorAddr",
          "type": "address"
        }
      ],
      "name": "balanceOf",
      "outputs": [
        {
          "internalType": "uint256",
          "name": "",
          "type": "uint256"
        }
      ],
      "stateMutability": "view",
      "type": "function"
    },
    {
      "inputs": [
        {
          "internalType": "address",
          "name": "",
          "type": "address"
        },
        {
          "internalType": "address",
          "name": "",
          "type": "address"
        },
        {
          "internalType": "uint32",
          "name": "",
          "type": "uint32"
        }
      ],
      "name": "checkpoints",
      "outputs": [
        {
          "internalType": "uint96",
          "name": "fromBlock",
          "type": "uint96"
        },
        {
          "internalType": "uint128",
          "name": "amount",
          "type": "uint128"
        }
      ],
      "stateMutability": "view",
      "type": "function"
    },
    {
      "inputs": [],
      "name": "dao",
      "outputs": [
        {
          "internalType": "contract DaoRegistry",
          "name": "",
          "type": "address"
        }
      ],
      "stateMutability": "view",
      "type": "function"
    },
    {
      "inputs": [
        {
          "internalType": "address",
          "name": "recipientAddr",
          "type": "address"
        },
        {
          "internalType": "address",
          "name": "tokenAddr",
          "type": "address"
        },
        {
          "internalType": "uint256",
          "name": "amount",
          "type": "uint256"
        }
      ],
      "name": "distributeFunds",
      "outputs": [],
      "stateMutability": "nonpayable",
      "type": "function"
    },
    {
      "inputs": [
        {
          "internalType": "address",
          "name": "",
          "type": "address"
        },
        {
          "internalType": "address",
          "name": "",
          "type": "address"
        },
        {
          "internalType": "uint32",
          "name": "",
          "type": "uint32"
        }
      ],
      "name": "feeCheckpoints",
      "outputs": [
        {
          "internalType": "uint96",
          "name": "fromBlock",
          "type": "uint96"
        },
        {
          "internalType": "uint128",
          "name": "amount",
          "type": "uint128"
        }
      ],
      "stateMutability": "view",
      "type": "function"
    },
    {
      "inputs": [
        {
          "internalType": "address",
          "name": "",
          "type": "address"
        }
      ],
      "name": "fundRaises",
      "outputs": [
        {
          "internalType": "enum DaoHelper.FundRaiseState",
          "name": "state",
          "type": "uint8"
        }
      ],
      "stateMutability": "view",
      "type": "function"
    },
    {
      "inputs": [],
      "name": "fundRaisingTokenAddress",
      "outputs": [
        {
          "internalType": "address",
          "name": "",
          "type": "address"
        }
      ],
      "stateMutability": "view",
      "type": "function"
    },
    {
      "inputs": [],
      "name": "getFundRaisingTokenAddress",
      "outputs": [
        {
          "internalType": "address",
          "name": "",
          "type": "address"
        }
      ],
      "stateMutability": "view",
      "type": "function"
    },
    {
      "inputs": [],
      "name": "getInvestors",
      "outputs": [
        {
          "internalType": "address[]",
          "name": "",
          "type": "address[]"
        }
      ],
      "stateMutability": "view",
      "type": "function"
    },
    {
      "inputs": [
        {
          "internalType": "address",
          "name": "account",
          "type": "address"
        },
        {
          "internalType": "address",
          "name": "tokenAddr",
          "type": "address"
        },
        {
          "internalType": "uint256",
          "name": "blockNumber",
          "type": "uint256"
        }
      ],
      "name": "getPriorAmount",
      "outputs": [
        {
          "internalType": "uint128",
          "name": "",
          "type": "uint128"
        }
      ],
      "stateMutability": "view",
      "type": "function"
    },
    {
      "inputs": [
        {
          "internalType": "contract DaoRegistry",
          "name": "_dao",
          "type": "address"
        },
        {
          "internalType": "address",
          "name": "creator",
          "type": "address"
        }
      ],
      "name": "initialize",
      "outputs": [],
      "stateMutability": "nonpayable",
      "type": "function"
    },
    {
      "inputs": [],
      "name": "initialized",
      "outputs": [
        {
          "internalType": "bool",
          "name": "",
          "type": "bool"
        }
      ],
      "stateMutability": "view",
      "type": "function"
    },
    {
      "inputs": [],
      "name": "investorAmount",
      "outputs": [
        {
          "internalType": "uint256",
          "name": "",
          "type": "uint256"
        }
      ],
      "stateMutability": "view",
      "type": "function"
    },
    {
      "inputs": [
        {
          "internalType": "address",
          "name": "account",
          "type": "address"
        }
      ],
      "name": "isInvestor",
      "outputs": [
        {
          "internalType": "bool",
          "name": "",
          "type": "bool"
        }
      ],
      "stateMutability": "view",
      "type": "function"
    },
    {
      "inputs": [
        {
          "internalType": "address",
          "name": "token",
          "type": "address"
        }
      ],
      "name": "isTokenAllowed",
      "outputs": [
        {
          "internalType": "bool",
          "name": "",
          "type": "bool"
        }
      ],
      "stateMutability": "view",
      "type": "function"
    },
    {
      "inputs": [
        {
          "internalType": "address",
          "name": "addr",
          "type": "address"
        }
      ],
      "name": "isValidInvestor",
      "outputs": [
        {
          "internalType": "bool",
          "name": "",
          "type": "bool"
        }
      ],
      "stateMutability": "view",
      "type": "function"
    },
    {
      "inputs": [
        {
          "internalType": "address",
          "name": "",
          "type": "address"
        }
      ],
      "name": "lastLPChargedManagentFeeTime",
      "outputs": [
        {
          "internalType": "uint256",
          "name": "",
          "type": "uint256"
        }
      ],
      "stateMutability": "view",
      "type": "function"
    },
    {
      "inputs": [],
      "name": "lastUpdateTime",
      "outputs": [
        {
          "internalType": "uint256",
          "name": "",
          "type": "uint256"
        }
      ],
      "stateMutability": "view",
      "type": "function"
    },
    {
      "inputs": [
        {
          "internalType": "address",
          "name": "",
          "type": "address"
        }
      ],
      "name": "lpChargedManagementFees",
      "outputs": [
        {
          "internalType": "uint256",
          "name": "",
          "type": "uint256"
        }
      ],
      "stateMutability": "view",
      "type": "function"
    },
    {
      "inputs": [],
      "name": "maxExternalTokens",
      "outputs": [
        {
          "internalType": "uint8",
          "name": "",
          "type": "uint8"
        }
      ],
      "stateMutability": "view",
      "type": "function"
    },
    {
      "inputs": [
        {
          "internalType": "address",
          "name": "",
          "type": "address"
        },
        {
          "internalType": "address",
          "name": "",
          "type": "address"
        }
      ],
      "name": "numCheckpoints",
      "outputs": [
        {
          "internalType": "uint32",
          "name": "",
          "type": "uint32"
        }
      ],
      "stateMutability": "view",
      "type": "function"
    },
    {
      "inputs": [],
      "name": "periodFinish",
      "outputs": [
        {
          "internalType": "uint256",
          "name": "",
          "type": "uint256"
        }
      ],
      "stateMutability": "view",
      "type": "function"
    },
    {
      "inputs": [],
      "name": "projectSnapFunds",
      "outputs": [
        {
          "internalType": "uint256",
          "name": "",
          "type": "uint256"
        }
      ],
      "stateMutability": "view",
      "type": "function"
    },
    {
      "inputs": [],
      "name": "projectSnapRice",
      "outputs": [
        {
          "internalType": "uint256",
          "name": "",
          "type": "uint256"
        }
      ],
      "stateMutability": "view",
      "type": "function"
    },
    {
      "inputs": [
        {
          "internalType": "address",
          "name": "tokenAddress",
          "type": "address"
        },
        {
          "internalType": "uint256",
          "name": "tokenAmount",
          "type": "uint256"
        },
        {
          "internalType": "address",
          "name": "recipientAddress",
          "type": "address"
        }
      ],
      "name": "recoverERC20",
      "outputs": [],
      "stateMutability": "nonpayable",
      "type": "function"
    },
    {
      "inputs": [],
      "name": "rewardPerTokenStored",
      "outputs": [
        {
          "internalType": "uint256",
          "name": "",
          "type": "uint256"
        }
      ],
      "stateMutability": "view",
      "type": "function"
    },
    {
      "inputs": [],
      "name": "rewardRate",
      "outputs": [
        {
          "internalType": "uint256",
          "name": "",
          "type": "uint256"
        }
      ],
      "stateMutability": "view",
      "type": "function"
    },
    {
      "inputs": [
        {
          "internalType": "address",
          "name": "",
          "type": "address"
        }
      ],
      "name": "rewards",
      "outputs": [
        {
          "internalType": "uint256",
          "name": "",
          "type": "uint256"
        }
      ],
      "stateMutability": "view",
      "type": "function"
    },
    {
      "inputs": [],
      "name": "rewardsDuration",
      "outputs": [
        {
          "internalType": "uint256",
          "name": "",
          "type": "uint256"
        }
      ],
      "stateMutability": "view",
      "type": "function"
    },
    {
      "inputs": [],
      "name": "riceTokenAddress",
      "outputs": [
        {
          "internalType": "address",
          "name": "",
          "type": "address"
        }
      ],
      "stateMutability": "view",
      "type": "function"
    },
    {
      "inputs": [],
      "name": "serviceFeeRatio",
      "outputs": [
        {
          "internalType": "uint256",
          "name": "",
          "type": "uint256"
        }
      ],
      "stateMutability": "view",
      "type": "function"
    },
    {
      "inputs": [
        {
          "internalType": "uint8",
          "name": "maxTokens",
          "type": "uint8"
        }
      ],
      "name": "setMaxExternalTokens",
      "outputs": [],
      "stateMutability": "nonpayable",
      "type": "function"
    },
    {
      "inputs": [
        {
          "internalType": "address",
          "name": "riceAddr",
          "type": "address"
        }
      ],
      "name": "setRiceTokenAddress",
      "outputs": [],
      "stateMutability": "nonpayable",
      "type": "function"
    },
    {
      "inputs": [
        {
          "internalType": "uint256",
          "name": "serviceFee",
          "type": "uint256"
        }
      ],
      "name": "setServiceFeeRatio",
      "outputs": [],
      "stateMutability": "nonpayable",
      "type": "function"
    },
    {
      "inputs": [
        {
          "internalType": "uint128",
          "name": "weightRadix",
          "type": "uint128"
        }
      ],
      "name": "setVotingWeightRadix",
      "outputs": [],
      "stateMutability": "nonpayable",
      "type": "function"
    },
    {
      "inputs": [],
      "name": "snapFunds",
      "outputs": [
        {
          "internalType": "uint256",
          "name": "",
          "type": "uint256"
        }
      ],
      "stateMutability": "view",
      "type": "function"
    },
    {
      "inputs": [
        {
          "internalType": "address",
          "name": "token",
          "type": "address"
        },
        {
          "internalType": "uint256",
          "name": "amount",
          "type": "uint256"
        }
      ],
      "name": "subtractAllFromBalance",
      "outputs": [],
      "stateMutability": "nonpayable",
      "type": "function"
    },
    {
      "inputs": [
        {
          "internalType": "address",
          "name": "member",
          "type": "address"
        },
        {
          "internalType": "address",
          "name": "token",
          "type": "address"
        },
        {
          "internalType": "uint256",
          "name": "amount",
          "type": "uint256"
        }
      ],
      "name": "subtractFromBalance",
      "outputs": [],
      "stateMutability": "nonpayable",
      "type": "function"
    },
    {
      "inputs": [
        {
          "internalType": "bytes4",
          "name": "interfaceId",
          "type": "bytes4"
        }
      ],
      "name": "supportsInterface",
      "outputs": [
        {
          "internalType": "bool",
          "name": "",
          "type": "bool"
        }
      ],
      "stateMutability": "view",
      "type": "function"
    },
    {
      "inputs": [
        {
          "internalType": "uint256",
          "name": "",
          "type": "uint256"
        }
      ],
      "name": "tokens",
      "outputs": [
        {
          "internalType": "address",
          "name": "",
          "type": "address"
        }
      ],
      "stateMutability": "view",
      "type": "function"
    },
    {
      "inputs": [],
      "name": "totalSupply",
      "outputs": [
        {
          "internalType": "uint256",
          "name": "",
          "type": "uint256"
        }
      ],
      "stateMutability": "view",
      "type": "function"
    },
    {
      "inputs": [
        {
          "internalType": "address",
          "name": "token",
          "type": "address"
        },
        {
          "internalType": "uint256",
          "name": "amount",
          "type": "uint256"
        },
        {
          "internalType": "uint8",
          "name": "updateType",
          "type": "uint8"
        }
      ],
      "name": "updateTotalGPsBalance",
      "outputs": [],
      "stateMutability": "nonpayable",
      "type": "function"
    },
    {
      "inputs": [
        {
          "internalType": "address",
          "name": "",
          "type": "address"
        }
      ],
      "name": "userRewardPerTokenPaid",
      "outputs": [
        {
          "internalType": "uint256",
          "name": "",
          "type": "uint256"
        }
      ],
      "stateMutability": "view",
      "type": "function"
    },
    {
      "inputs": [],
      "name": "votingWeightAddend",
      "outputs": [
        {
          "internalType": "uint128",
          "name": "",
          "type": "uint128"
        }
      ],
      "stateMutability": "view",
      "type": "function"
    },
    {
      "inputs": [],
      "name": "votingWeightMultiplier",
      "outputs": [
        {
          "internalType": "uint128",
          "name": "",
          "type": "uint128"
        }
      ],
      "stateMutability": "view",
      "type": "function"
    },
    {
      "inputs": [],
      "name": "votingWeightRadix",
      "outputs": [
        {
          "internalType": "uint128",
          "name": "",
          "type": "uint128"
        }
      ],
      "stateMutability": "view",
      "type": "function"
    },
    {
      "inputs": [
        {
          "internalType": "address",
          "name": "recipientAddr",
          "type": "address"
        },
        {
          "internalType": "uint256",
          "name": "amount",
          "type": "uint256"
        }
      ],
      "name": "withdraw",
      "outputs": [],
      "stateMutability": "nonpayable",
      "type": "function"
    }
  ],
  "bytecode": "0x60806040526007805460ff60801b191690556000600a819055600b5562093a80600c5534801561002e57600080fd5b50600160005561342b806100436000396000f3fe608060405234801561001057600080fd5b506004361061032b5760003560e01c80638b876347116101b2578063bfecff12116100f9578063df136d65116100a2578063ebe2b12b1161007c578063ebe2b12b146107d4578063f3fef3a3146107dd578063f9eaee0d146107f0578063faaf38b31461081c57600080fd5b8063df136d65146107a5578063e176b35e146107ae578063e3a05cc1146107c157600080fd5b8063c8f33c91116100d3578063c8f33c911461074b578063ce46cc9414610754578063cee2a9cf1461049c57600080fd5b8063bfecff1214610712578063c3c7645c14610725578063c68491ea1461073857600080fd5b8063a807411e1161015b578063b2f5a54c11610135578063b2f5a54c146106e2578063b51609b4146106f7578063bca576471461070a57600080fd5b8063a807411e146106be578063a87af66c146106c7578063b08079a6146106cf57600080fd5b806394cb09471161018c57806394cb0947146106695780639d9ccd7d1461068c578063a2f1021f146106ab57600080fd5b80638b876347146106235780638d9a4dd2146106435780638f0248781461065657600080fd5b80634f64b2be1161027657806370a082311161021f5780637d6f98a2116101f95780637d6f98a2146105b457806385e61613146105bd57806387c672ee146105dd57600080fd5b806370a082311461056857806373b884631461057b5780637b0a47ee146105ab57600080fd5b806363e3df6a1161025057806363e3df6a146104cf57806370328c5b146104d85780637082e63d146104eb57600080fd5b80634f64b2be146104895780635092538a1461049c578063576e626e146104af57600080fd5b80632d2d9eda116102d85780634162169f116102b25780634162169f14610442578063442d345e1461046d578063485cc9551461047657600080fd5b80632d2d9eda14610411578063386a9525146104265780633dfa8b0f1461042f57600080fd5b80630dd06f8d116103095780630dd06f8d146103e2578063158ef93e146103f557806318160ddd1461040957600080fd5b806301ffc9a7146103305780630700037d146103825780630a28a67b146103b0575b600080fd5b61036d61033e3660046130c8565b6001600160e01b0319167f01ffc9a7000000000000000000000000000000000000000000000000000000001490565b60405190151581526020015b60405180910390f35b6103a2610390366004612f08565b60186020526000908152604090205481565b604051908152602001610379565b6006546103ca90600160801b90046001600160801b031681565b6040516001600160801b039091168152602001610379565b6007546103ca906001600160801b031681565b60075461036d90600160801b900460ff1681565b6103a261082f565b61042461041f366004613148565b610841565b005b6103a2600c5481565b6006546103ca906001600160801b031681565b600f54610455906001600160a01b031681565b6040516001600160a01b039091168152602001610379565b6103a260035481565b6104246104843660046130f0565b61094e565b610455610497366004613148565b610aec565b61036d6104aa366004612f08565b610b16565b6103a26104bd366004612f08565b601b6020526000908152604090205481565b6103a260045481565b6104246104e6366004612f08565b610b38565b61053c6104f9366004612fb8565b60146020908152600093845260408085208252928452828420905282529020546bffffffffffffffffffffffff811690600160601b90046001600160801b031682565b604080516bffffffffffffffffffffffff90931683526001600160801b03909116602083015201610379565b6103a2610576366004612f08565b610d31565b61059e610589366004612f08565b60196020526000908152604090205460ff1681565b60405161037991906131fb565b6103a2600b5481565b6103a260055481565b6103a26105cb366004612f08565b601a6020526000908152604090205481565b61060e6105eb366004612f40565b601560209081526000928352604080842090915290825290205463ffffffff1681565b60405163ffffffff9091168152602001610379565b6103a2610631366004612f08565b60176020526000908152604090205481565b600854610455906001600160a01b031681565b610424610664366004613178565b610de3565b61036d610677366004612f08565b60136020526000908152604090205460ff1681565b6001546106999060ff1681565b60405160ff9091168152602001610379565b6104246106b9366004613121565b610efa565b6103a260025481565b610455610fb4565b6104246106dd36600461300a565b611069565b6106ea61134e565b60405161037991906131ae565b610424610705366004613035565b61135a565b6103a26115a7565b61042461072036600461306b565b6115b3565b61042461073336600461300a565b61174d565b600954610455906001600160a01b031681565b6103a2600d5481565b61053c610762366004612fb8565b60166020908152600093845260408085208252928452828420905282529020546bffffffffffffffffffffffff811690600160601b90046001600160801b031682565b6103a2600e5481565b6104246107bc366004612f78565b611931565b6104246107cf366004612f78565b611c7c565b6103a2600a5481565b6104246107eb36600461300a565b611f51565b61036d6107fe366004612f08565b6001600160a01b031660009081526013602052604090205460ff1690565b6103ca61082a366004612f78565b612123565b600061083c61decd610d31565b905090565b600754600160801b900460ff16156108c65760405162461bcd60e51b815260206004820152602160248201527f666f756e64696e6720706f6f6c20616c726561647920696e697469616c697a6560448201527f640000000000000000000000000000000000000000000000000000000000000060648201526084015b60405180910390fd5b6000811180156108d7575060648111155b6109495760405162461bcd60e51b815260206004820152602360248201527f736572766963652066656520726174696f2073686f756c642062652028302c3160448201527f303029000000000000000000000000000000000000000000000000000000000060648201526084016108bd565b600255565b600754600160801b900460ff16156109a85760405162461bcd60e51b815260206004820181905260248201527f666f756e64696e67706f6f6c20616c726561647920696e697469616c697a656460448201526064016108bd565b60405163288c314960e21b81526001600160a01b03828116600483015283169063a230c5249060240160206040518083038186803b1580156109e957600080fd5b505afa1580156109fd573d6000803e3d6000fd5b505050506040513d601f19601f82011682018060405250810190610a2191906130a8565b610a6d5760405162461bcd60e51b815260206004820152601860248201527f666f756e64696e67706f6f6c3a3a6e6f74206d656d626572000000000000000060448201526064016108bd565b50600f80546001600160a01b039092167fffffffffffffffffffffffff0000000000000000000000000000000000000000909216919091179055600780547001000000000000000000000000000000026006557fffffffffffffffffffffffffffffff000000000000000000000000000000000016600160801b179055565b60108181548110610afc57600080fd5b6000918252602090912001546001600160a01b0316905081565b6001600160a01b03811660009081526012602052604081205415155b92915050565b600d30331480610b525750600f546001600160a01b031633145b80610b6d5750600f54610b6d906001600160a01b0316612437565b80610c2e5750600f546001600160a01b0316636cfdc32e333084600e811115610ba657634e487b7160e01b600052602160045260246000fd5b6040516001600160e01b031960e086901b1681526001600160a01b03938416600482015292909116602483015260ff16604482015260640160206040518083038186803b158015610bf657600080fd5b505afa158015610c0a573d6000803e3d6000fd5b505050506040513d601f19601f82011682018060405250810190610c2e91906130a8565b610c7a5760405162461bcd60e51b815260206004820152601b60248201527f666f756e64696e67706f6f6c3a3a61636365737344656e6965643a000000000060448201526064016108bd565b6001600160a01b038216610cf65760405162461bcd60e51b815260206004820152603960248201527f46756e64696e67506f6f6c4578743a3a73657452696365546f6b656e4164647260448201527f6573733a3a696e76616c6964207269636520616464726573730000000000000060648201526084016108bd565b50600880547fffffffffffffffffffffffff0000000000000000000000000000000000000000166001600160a01b0392909216919091179055565b600080610d3c610fb4565b6001600160a01b0380821660009081526015602090815260408083209388168352929052205490915063ffffffff1680610d77576000610dd2565b6001600160a01b038083166000908152601460209081526040808320938816835292905290812090610daa60018461333f565b63ffffffff168152602081019190915260400160002054600160601b90046001600160801b03165b6001600160801b0316949350505050565b600754600160801b900460ff1615610e3d5760405162461bcd60e51b815260206004820152601860248201527f62616e6b20616c726561647920696e697469616c697a6564000000000000000060448201526064016108bd565b60008160ff16118015610e54575060c860ff821611155b610ec65760405162461bcd60e51b815260206004820152602f60248201527f6d6178206e756d626572206f662065787465726e616c20746f6b656e7320736860448201527f6f756c642062652028302c32303029000000000000000000000000000000000060648201526084016108bd565b600180547fffffffffffffffffffffffffffffffffffffffffffffffffffffffffffffff001660ff92909216919091179055565b600754600160801b900460ff1615610f7a5760405162461bcd60e51b815260206004820152602160248201527f666f756e64696e6720706f6f6c20616c726561647920696e697469616c697a6560448201527f640000000000000000000000000000000000000000000000000000000000000060648201526084016108bd565b600680547fffffffffffffffffffffffffffffffff00000000000000000000000000000000166001600160801b0392909216919091179055565b600f546040517ffd310d290000000000000000000000000000000000000000000000000000000081527f7fa36390a0e9b8b8004035572fd8345b1128cea12d1763a1baf8fbd4fb7b202760048201526000916001600160a01b03169063fd310d299060240160206040518083038186803b15801561103157600080fd5b505afa158015611045573d6000803e3d6000fd5b505050506040513d601f19601f8201168201806040525081019061083c9190612f24565b6000303314806110835750600f546001600160a01b031633145b8061109e5750600f5461109e906001600160a01b0316612437565b8061115f5750600f546001600160a01b0316636cfdc32e333084600e8111156110d757634e487b7160e01b600052602160045260246000fd5b6040516001600160e01b031960e086901b1681526001600160a01b03938416600482015292909116602483015260ff16604482015260640160206040518083038186803b15801561112757600080fd5b505afa15801561113b573d6000803e3d6000fd5b505050506040513d601f19601f8201168201806040525081019061115f91906130a8565b6111ab5760405162461bcd60e51b815260206004820152601b60248201527f666f756e64696e67706f6f6c3a3a61636365737344656e6965643a000000000060448201526064016108bd565b60006111b5610fb4565b90506111c084612657565b8060006111cc86610d31565b905060006111db611111610d31565b905060006111ea61decd610d31565b600f5460405163288c314960e21b81526001600160a01b038b8116600483015292935091169063a230c5249060240160206040518083038186803b15801561123157600080fd5b505afa158015611245573d6000803e3d6000fd5b505050506040513d601f19601f8201168201806040525081019061126991906130a8565b15611284576112846111118661127f8a86613274565b612700565b611293888661127f8a87613274565b6112a461decd8661127f8a85613274565b6040517f23b872dd000000000000000000000000000000000000000000000000000000008152336004820152306024820152604481018890526001600160a01b038516906323b872dd90606401602060405180830381600087803b15801561130b57600080fd5b505af115801561131f573d6000803e3d6000fd5b505050506040513d601f19601f8201168201806040525081019061134391906130a8565b505050505050505050565b606061083c6011612960565b600b303314806113745750600f546001600160a01b031633145b8061138f5750600f5461138f906001600160a01b0316612437565b806114505750600f546001600160a01b0316636cfdc32e333084600e8111156113c857634e487b7160e01b600052602160045260246000fd5b6040516001600160e01b031960e086901b1681526001600160a01b03938416600482015292909116602483015260ff16604482015260640160206040518083038186803b15801561141857600080fd5b505afa15801561142c573d6000803e3d6000fd5b505050506040513d601f19601f8201168201806040525081019061145091906130a8565b61149c5760405162461bcd60e51b815260206004820152601b60248201527f666f756e64696e67706f6f6c3a3a61636365737344656e6965643a000000000060448201526064016108bd565b60106000815481106114be57634e487b7160e01b600052603260045260246000fd5b6000918252602090912001546001600160a01b038581169116141561154b5760405162461bcd60e51b815260206004820152602160248201527f43616e6e6f7420776974686472617720746865207374616b696e6720746f6b6560448201527f6e0000000000000000000000000000000000000000000000000000000000000060648201526084016108bd565b61155f6001600160a01b038516838561296d565b604080516001600160a01b0386168152602081018590527f8c1256b8896378cd5044f80c202f9772b9d77dc85c8a6eb51967210b09bfaa28910160405180910390a150505050565b600061083c60116129f2565b600e303314806115cd5750600f546001600160a01b031633145b806115e85750600f546115e8906001600160a01b0316612437565b806116a95750600f546001600160a01b0316636cfdc32e333084600e81111561162157634e487b7160e01b600052602160045260246000fd5b6040516001600160e01b031960e086901b1681526001600160a01b03938416600482015292909116602483015260ff16604482015260640160206040518083038186803b15801561167157600080fd5b505afa158015611685573d6000803e3d6000fd5b505050506040513d601f19601f820116820180604052508101906116a991906130a8565b6116f55760405162461bcd60e51b815260206004820152601b60248201527f666f756e64696e67706f6f6c3a3a61636365737344656e6965643a000000000060448201526064016108bd565b6000611702611111610d31565b905060008360ff166001141561171f5761171c8583613328565b90505b8360ff1660021415611738576117358583613274565b90505b6117456111118783612700565b505050505050565b6001303314806117675750600f546001600160a01b031633145b806117825750600f54611782906001600160a01b0316612437565b806118435750600f546001600160a01b0316636cfdc32e333084600e8111156117bb57634e487b7160e01b600052602160045260246000fd5b6040516001600160e01b031960e086901b1681526001600160a01b03938416600482015292909116602483015260ff16604482015260640160206040518083038186803b15801561180b57600080fd5b505afa15801561181f573d6000803e3d6000fd5b505050506040513d601f19601f8201168201806040525081019061184391906130a8565b61188f5760405162461bcd60e51b815260206004820152601b60248201527f666f756e64696e67706f6f6c3a3a61636365737344656e6965643a000000000060448201526064016108bd565b600061189c61decd610d31565b905060006118aa6011612960565b905060005b81518160ff161015611745576000828260ff16815181106118e057634e487b7160e01b600052603260045260246000fd5b6020026020010151905060006118f582610d31565b111561191e5761191e81888661190a85610d31565b611914908b6132eb565b6107cf91906132b4565b508061192981613394565b9150506118af565b60043033148061194b5750600f546001600160a01b031633145b806119665750600f54611966906001600160a01b0316612437565b80611a275750600f546001600160a01b0316636cfdc32e333084600e81111561199f57634e487b7160e01b600052602160045260246000fd5b6040516001600160e01b031960e086901b1681526001600160a01b03938416600482015292909116602483015260ff16604482015260640160206040518083038186803b1580156119ef57600080fd5b505afa158015611a03573d6000803e3d6000fd5b505050506040513d601f19601f82011682018060405250810190611a2791906130a8565b611a735760405162461bcd60e51b815260206004820152601b60248201527f666f756e64696e67706f6f6c3a3a61636365737344656e6965643a000000000060448201526064016108bd565b60008211611ae95760405162461bcd60e51b815260206004820152602d60248201527f46756e64696e67506f6f6c3a3a6469737472696275746546756e64733a3a616d60448201527f6f756e74206d757374203e20300000000000000000000000000000000000000060648201526084016108bd565b6040517f70a0823100000000000000000000000000000000000000000000000000000000815230600482015282906001600160a01b038516906370a082319060240160206040518083038186803b158015611b4357600080fd5b505afa158015611b57573d6000803e3d6000fd5b505050506040513d601f19601f82011682018060405250810190611b7b9190613160565b831115611c15576040517f70a082310000000000000000000000000000000000000000000000000000000081523060048201526001600160a01b038516906370a082319060240160206040518083038186803b158015611bda57600080fd5b505afa158015611bee573d6000803e3d6000fd5b505050506040513d601f19601f82011682018060405250810190611c129190613160565b90505b611c296001600160a01b038516868361296d565b604080516001600160a01b038088168252861660208201529081018290527fb70fe816339ea1444b2c894b640eb98aaf56d35020a1805e2dbd4c3f56b854bd906060015b60405180910390a15050505050565b600130331480611c965750600f546001600160a01b031633145b80611cb15750600f54611cb1906001600160a01b0316612437565b80611d725750600f546001600160a01b0316636cfdc32e333084600e811115611cea57634e487b7160e01b600052602160045260246000fd5b6040516001600160e01b031960e086901b1681526001600160a01b03938416600482015292909116602483015260ff16604482015260640160206040518083038186803b158015611d3a57600080fd5b505afa158015611d4e573d6000803e3d6000fd5b505050506040513d601f19601f82011682018060405250810190611d7291906130a8565b611dbe5760405162461bcd60e51b815260206004820152601b60248201527f666f756e64696e67706f6f6c3a3a61636365737344656e6965643a000000000060448201526064016108bd565b81611dc885610d31565b10158015611de0575081611ddd61decd610d31565b10155b611e525760405162461bcd60e51b815260206004820152603360248201527f46756e64696e67506f6f6c3a3a737562747261637446726f6d42616c616e636560448201527f3a3a496e73756666696369656e742046756e640000000000000000000000000060648201526084016108bd565b600082611e5e86610d31565b611e689190613328565b9050600083611e7861decd610d31565b611e829190613328565b9050611e9161decd8683612700565b600f5460405163288c314960e21b81526001600160a01b0388811660048301529091169063a230c5249060240160206040518083038186803b158015611ed657600080fd5b505afa158015611eea573d6000803e3d6000fd5b505050506040513d601f19601f82011682018060405250810190611f0e91906130a8565b15611f35576000611f20611111610d31565b9050848103611f326111118883612700565b50505b60008211611f4657611f46866129fc565b611745868684612700565b600230331480611f6b5750600f546001600160a01b031633145b80611f865750600f54611f86906001600160a01b0316612437565b806120475750600f546001600160a01b0316636cfdc32e333084600e811115611fbf57634e487b7160e01b600052602160045260246000fd5b6040516001600160e01b031960e086901b1681526001600160a01b03938416600482015292909116602483015260ff16604482015260640160206040518083038186803b15801561200f57600080fd5b505afa158015612023573d6000803e3d6000fd5b505050506040513d601f19601f8201168201806040525081019061204791906130a8565b6120935760405162461bcd60e51b815260206004820152601b60248201527f666f756e64696e67706f6f6c3a3a61636365737344656e6965643a000000000060448201526064016108bd565b600061209d610fb4565b905082806120aa86610d31565b10156120bc576120b985610d31565b90505b6120d06001600160a01b038316868361296d565b604080516001600160a01b038088168252841660208201526001600160801b038316918101919091527ff7c94207a71e9e28815faa70ca42021f47a1d25c25fbec0973eb7beb92f4219290606001611c6d565b600043821061219a5760405162461bcd60e51b815260206004820152602760248201527f556e693a3a6765745072696f72416d6f756e743a206e6f74207965742064657460448201527f65726d696e65640000000000000000000000000000000000000000000000000060648201526084016108bd565b6001600160a01b0380841660009081526015602090815260408083209388168352929052205463ffffffff16806121d5576000915050612430565b6001600160a01b0380851660009081526014602090815260408083209389168352929052908120849161220960018561333f565b63ffffffff1681526020810191909152604001600020546bffffffffffffffffffffffff1611612296576001600160a01b03808516600090815260146020908152604080832093891683529290529081209061226660018461333f565b63ffffffff168152602081019190915260400160002054600160601b90046001600160801b031691506124309050565b6001600160a01b0380851660009081526014602090815260408083209389168352928152828220828052905220546bffffffffffffffffffffffff168310156122e3576000915050612430565b6000806122f160018461333f565b90505b8163ffffffff168163ffffffff1611156123e25760006002612316848461333f565b61232091906132c8565b61232a908361333f565b6001600160a01b038881166000908152601460209081526040808320938d16835292815282822063ffffffff851683528152908290208251808401909352546bffffffffffffffffffffffff8116808452600160601b9091046001600160801b031691830191909152919250908714156123ae576020015194506124309350505050565b80516bffffffffffffffffffffffff168711156123cd578193506123db565b6123d860018361333f565b92505b50506122f4565b506001600160a01b038086166000908152601460209081526040808320938a16835292815282822063ffffffff9094168252929092529020546001600160801b03600160601b909104169150505b9392505050565b600080826001600160a01b031663c19d93fb6040518163ffffffff1660e01b815260040160206040518083038186803b15801561247357600080fd5b505afa158015612487573d6000803e3d6000fd5b505050506040513d601f19601f820116820180604052508101906124ab9190613102565b60018111156124ca57634e487b7160e01b600052602160045260246000fd5b148015610b325750816001600160a01b031663c67143666040518163ffffffff1660e01b815260040160206040518083038186803b15801561250b57600080fd5b505afa15801561251f573d6000803e3d6000fd5b505050506040513d601f19601f820116820180604052508101906125439190613160565b15806125c1575060405163288c314960e21b81523360048201526001600160a01b0383169063a230c5249060240160206040518083038186803b15801561258957600080fd5b505afa15801561259d573d6000803e3d6000fd5b505050506040513d601f19601f820116820180604052508101906125c191906130a8565b80610b3257506040517f68c18beb0000000000000000000000000000000000000000000000000000000081523360048201526001600160a01b038316906368c18beb9060240160206040518083038186803b15801561261f57600080fd5b505afa158015612633573d6000803e3d6000fd5b505050506040513d601f19601f82011682018060405250810190610b3291906130a8565b6001600160a01b0381166126d35760405162461bcd60e51b815260206004820152603360248201527f46756e64696e67506f6f6c3a3a5f6e6577496e766573746f723a3a696e76616c60448201527f696420696e766573746f7220616464726573730000000000000000000000000060648201526084016108bd565b6001600160a01b0381166000908152601260205260409020546126fd576126fb601182612a83565b505b50565b6001600160a01b03808316600090815260156020908152604080832093871683529290522054819063ffffffff16801580159061279357506001600160a01b0380851660009081526014602090815260408083209389168352929052908120439161276c60018561333f565b63ffffffff1681526020810191909152604001600020546bffffffffffffffffffffffff16145b15612825576001600160a01b038085166000908152601460209081526040808320938916835292905290812083916127cc60018561333f565b63ffffffff168152602081019190915260400160002080546001600160801b0392909216600160601b027fffffffff00000000000000000000000000000000ffffffffffffffffffffffff90921691909117905561290d565b6040805180820182526bffffffffffffffffffffffff43811682526001600160801b0380861660208085019182526001600160a01b03808b16600090815260148352878120918d16815290825286812063ffffffff8916825290915294909420925183549451909116600160601b026001600160e01b03199094169116179190911790556128b481600161328c565b6001600160a01b038581166000908152601560209081526040808320938a1683529290522080547fffffffffffffffffffffffffffffffffffffffffffffffffffffffff000000001663ffffffff929092169190911790555b604080516001600160a01b038088168252861660208201526001600160801b038416918101919091527f11ab57c509be320eba133349628aa1de2b83999db8fb30a70930086aad67e95190606001611c6d565b6060600061243083612a98565b604080516001600160a01b038416602482015260448082018490528251808303909101815260649091019091526020810180517bffffffffffffffffffffffffffffffffffffffffffffffffffffffff167fa9059cbb000000000000000000000000000000000000000000000000000000001790526129ed908490612af4565b505050565b6000610b32825490565b6001600160a01b038116612a785760405162461bcd60e51b815260206004820152603a60248201527f46756e64696e67506f6f6c3a3a5f72656d6f7665496e766573746f723a3a696e60448201527f76616c696420696e766573746f7241646472206164647265737300000000000060648201526084016108bd565b6126fb601182612bd9565b6000612430836001600160a01b038416612bee565b606081600001805480602002602001604051908101604052809291908181526020018280548015612ae857602002820191906000526020600020905b815481526020019060010190808311612ad4575b50505050509050919050565b6000612b49826040518060400160405280602081526020017f5361666545524332303a206c6f772d6c6576656c2063616c6c206661696c6564815250856001600160a01b0316612c3d9092919063ffffffff16565b8051909150156129ed5780806020019051810190612b6791906130a8565b6129ed5760405162461bcd60e51b815260206004820152602a60248201527f5361666545524332303a204552433230206f7065726174696f6e20646964206e60448201527f6f7420737563636565640000000000000000000000000000000000000000000060648201526084016108bd565b6000612430836001600160a01b038416612c54565b6000818152600183016020526040812054612c3557508154600181810184556000848152602080822090930184905584548482528286019093526040902091909155610b32565b506000610b32565b6060612c4c8484600085612d71565b949350505050565b60008181526001830160205260408120548015612d67576000612c78600183613328565b8554909150600090612c8c90600190613328565b9050818114612d0d576000866000018281548110612cba57634e487b7160e01b600052603260045260246000fd5b9060005260206000200154905080876000018481548110612ceb57634e487b7160e01b600052603260045260246000fd5b6000918252602080832090910192909255918252600188019052604090208390555b8554869080612d2c57634e487b7160e01b600052603160045260246000fd5b600190038181906000526020600020016000905590558560010160008681526020019081526020016000206000905560019350505050610b32565b6000915050610b32565b606082471015612de95760405162461bcd60e51b815260206004820152602660248201527f416464726573733a20696e73756666696369656e742062616c616e636520666f60448201527f722063616c6c000000000000000000000000000000000000000000000000000060648201526084016108bd565b6001600160a01b0385163b612e405760405162461bcd60e51b815260206004820152601d60248201527f416464726573733a2063616c6c20746f206e6f6e2d636f6e747261637400000060448201526064016108bd565b600080866001600160a01b03168587604051612e5c9190613192565b60006040518083038185875af1925050503d8060008114612e99576040519150601f19603f3d011682016040523d82523d6000602084013e612e9e565b606091505b5091509150612eae828286612eb9565b979650505050505050565b60608315612ec8575081612430565b825115612ed85782518084602001fd5b8160405162461bcd60e51b81526004016108bd9190613223565b803560ff81168114612f0357600080fd5b919050565b600060208284031215612f19578081fd5b8135612430816133e0565b600060208284031215612f35578081fd5b8151612430816133e0565b60008060408385031215612f52578081fd5b8235612f5d816133e0565b91506020830135612f6d816133e0565b809150509250929050565b600080600060608486031215612f8c578081fd5b8335612f97816133e0565b92506020840135612fa7816133e0565b929592945050506040919091013590565b600080600060608486031215612fcc578283fd5b8335612fd7816133e0565b92506020840135612fe7816133e0565b9150604084013563ffffffff81168114612fff578182fd5b809150509250925092565b6000806040838503121561301c578182fd5b8235613027816133e0565b946020939093013593505050565b600080600060608486031215613049578283fd5b8335613054816133e0565b9250602084013591506040840135612fff816133e0565b60008060006060848603121561307f578283fd5b833561308a816133e0565b92506020840135915061309f60408501612ef2565b90509250925092565b6000602082840312156130b9578081fd5b81518015158114612430578182fd5b6000602082840312156130d9578081fd5b81356001600160e01b031981168114612430578182fd5b60008060408385031215612f52578182fd5b600060208284031215613113578081fd5b815160028110612430578182fd5b600060208284031215613132578081fd5b81356001600160801b0381168114612430578182fd5b600060208284031215613159578081fd5b5035919050565b600060208284031215613171578081fd5b5051919050565b600060208284031215613189578081fd5b61243082612ef2565b600082516131a4818460208701613364565b9190910192915050565b6020808252825182820181905260009190848201906040850190845b818110156131ef5783516001600160a01b0316835292840192918401916001016131ca565b50909695505050505050565b602081016004831061321d57634e487b7160e01b600052602160045260246000fd5b91905290565b6020815260008251806020840152613242816040850160208701613364565b601f017fffffffffffffffffffffffffffffffffffffffffffffffffffffffffffffffe0169190910160400192915050565b60008219821115613287576132876133b4565b500190565b600063ffffffff8083168185168083038211156132ab576132ab6133b4565b01949350505050565b6000826132c3576132c36133ca565b500490565b600063ffffffff808416806132df576132df6133ca565b92169190910492915050565b6000817fffffffffffffffffffffffffffffffffffffffffffffffffffffffffffffffff0483118215151615613323576133236133b4565b500290565b60008282101561333a5761333a6133b4565b500390565b600063ffffffff8381169083168181101561335c5761335c6133b4565b039392505050565b60005b8381101561337f578181015183820152602001613367565b8381111561338e576000848401525b50505050565b600060ff821660ff8114156133ab576133ab6133b4565b60010192915050565b634e487b7160e01b600052601160045260246000fd5b634e487b7160e01b600052601260045260246000fd5b6001600160a01b03811681146126fd57600080fdfea2646970667358221220e2027d4d3cc119abaa5f693b44e47b11ff048ea7f598f911abfce87054f6f6e364736f6c63430008040033",
  "linkReferences": {},
  "deployedLinkReferences": {}
}