{
  "_format": "hh-sol-artifact-1",
  "contractName": "VestingERC721Helper",
  "sourceName": "contracts/helpers/VestingERC721Helper.sol",
  "abi": [
    {
      "inputs": [
        {
          "internalType": "uint256",
          "name": "tokenId",
          "type": "uint256"
        },
        {
          "internalType": "uint8",
          "name": "flag",
          "type": "uint8"
        },
        {
          "internalType": "address",
          "name": "vestingNFTAddress",
          "type": "address"
        },
        {
          "internalType": "address",
          "name": "vestingContAdddr",
          "type": "address"
        }
      ],
      "name": "getSvg",
      "outputs": [
        {
          "internalType": "string",
          "name": "",
          "type": "string"
        }
      ],
      "stateMutability": "view",
      "type": "function"
    },
    {
      "inputs": [
        {
          "internalType": "uint256",
          "name": "_tokenId",
          "type": "uint256"
        },
        {
          "internalType": "uint8",
          "name": "flag",
          "type": "uint8"
        },
        {
          "internalType": "address",
          "name": "vestAddress",
          "type": "address"
        },
        {
          "internalType": "address",
          "name": "vestingNFTAddress",
          "type": "address"
        }
      ],
      "name": "getTokenURI",
      "outputs": [
        {
          "internalType": "string",
          "name": "",
          "type": "string"
        }
      ],
      "stateMutability": "view",
      "type": "function"
    }
  ],
  "bytecode": "0x608060405234801561001057600080fd5b5061588180620000216000396000f3fe608060405234801561001057600080fd5b50600436106100365760003560e01c806393d357e21461003b578063bb89c16414610064575b600080fd5b61004e610049366004613a34565b610077565b60405161005b9190615659565b60405180910390f35b61004e610072366004613a34565b6107e0565b60606101a7604080516101e081018252600080825260208083018290528284018290526060808401839052608080850184905260a080860183905260c0860185905260e08601859052610100860185905286518083018852858152808501869052808801869052808401869052610120870152865180820188528381528085018490528088018690528084018690528083018690526101408701528651808301885285815280850186905280880186905280840186905261016087015286518082018852838152808501849052808801869052808401869052808301869052610180870152865180830188528581528085018690528088018690528084018690526101a087015286519081018752828152928301829052948201839052810182905292830152906101c082015290565b8460ff16600214156103b657604051631614f0cb60e11b81526001600160a01b038581166004830152602482018890528491600091831690632c29e1969060440160206040518083038186803b15801561020057600080fd5b505afa158015610214573d6000803e3d6000fd5b505050506040513d601f19601f8201168201806040525081019061023891906139ef565b6040516328ef7aab60e11b8152600481018290529091506001600160a01b038316906351def5569060240160006040518083038186803b15801561027b57600080fd5b505afa15801561028f573d6000803e3d6000fd5b505050506040513d6000823e601f3d908101601f191682016040526102b791908101906139a0565b6101808b0152506101608901819052606081015163ffffffff168952604081015190516102ec965090945092506156a4915050565b63ffffffff908116602085810191909152610160850151015116604080850191909152610180840151608001516001600160a01b0390811660c08601529051633d219a7160e11b81528782166004820152602481018a905290831690637a4334e2906044015b60606040518083038186803b15801561036a57600080fd5b505afa15801561037e573d6000803e3d6000fd5b505050506040513d601f19601f820116820180604052508101906103a29190613a07565b61010086015260e085015250610714915050565b8460ff166001141561056557604051631614f0cb60e11b81526001600160a01b038581166004830152602482018890528491600091831690632c29e1969060440160206040518083038186803b15801561040f57600080fd5b505afa158015610423573d6000803e3d6000fd5b505050506040513d601f19601f8201168201806040525081019061044791906139ef565b6040516328ef7aab60e11b8152600481018290529091506001600160a01b038316906351def5569060240160006040518083038186803b15801561048a57600080fd5b505afa15801561049e573d6000803e3d6000fd5b505050506040513d6000823e601f3d908101601f191682016040526104c691908101906139a0565b6101408b0152506101208901819052606081015163ffffffff168952604081015190516104fb965090945092506156a4915050565b63ffffffff908116602085810191909152610120850151015116604080850191909152610140840151608001516001600160a01b0390811660c08601529051633d219a7160e11b81528782166004820152602481018a905290831690637a4334e290604401610352565b8460ff166003141561071457604051631614f0cb60e11b81526001600160a01b038581166004830152602482018890528491600091831690632c29e1969060440160206040518083038186803b1580156105be57600080fd5b505afa1580156105d2573d6000803e3d6000fd5b505050506040513d601f19601f820116820180604052508101906105f691906139ef565b6040516328ef7aab60e11b8152600481018290529091506001600160a01b038316906351def5569060240160006040518083038186803b15801561063957600080fd5b505afa15801561064d573d6000803e3d6000fd5b505050506040513d6000823e601f3d908101601f1916820160405261067591908101906138f6565b6101c08b0152506101a08901819052606081015163ffffffff168952604081015190516106aa965090945092506156a4915050565b63ffffffff9081166020858101919091526101a08501510151166040808501919091526101c0840151608001516001600160a01b0390811660c08601529051633d219a7160e11b81528782166004820152602481018a905290831690637a4334e290604401610352565b6107d68160c001516001600160a01b03166395d89b416040518163ffffffff1660e01b815260040160006040518083038186803b15801561075457600080fd5b505afa158015610768573d6000803e3d6000fd5b505050506040513d6000823e601f3d908101601f1916820160405261079091908101906139bc565b8260c001516040518060a001604052808560e001518152602001856101000151815260200185600001518152602001856020015181526020018560400151815250611063565b9695505050505050565b6060610910604080516101e081018252600080825260208083018290528284018290526060808401839052608080850184905260a080860183905260c0860185905260e08601859052610100860185905286518083018852858152808501869052808801869052808401869052610120870152865180820188528381528085018490528088018690528084018690528083018690526101408701528651808301885285815280850186905280880186905280840186905261016087015286518082018852838152808501849052808801869052808401869052808301869052610180870152865180830188528581528085018690528088018690528084018690526101a087015286519081018752828152928301829052948201839052810182905292830152906101c082015290565b8460ff1660021415610b4257604051631614f0cb60e11b81526001600160a01b038481166004830152602482018890528591600091831690632c29e1969060440160206040518083038186803b15801561096957600080fd5b505afa15801561097d573d6000803e3d6000fd5b505050506040513d601f19601f820116820180604052508101906109a191906139ef565b6040516328ef7aab60e11b8152600481018290529091506001600160a01b038316906351def5569060240160006040518083038186803b1580156109e457600080fd5b505afa1580156109f8573d6000803e3d6000fd5b505050506040513d6000823e601f3d908101601f19168201604052610a2091908101906139a0565b6101808b015250610160890181905260808901949094525050506001600160a01b0390911660608086019190915281015163ffffffff16845260408101519051610a6a91906156a4565b63ffffffff9081166020858101919091526101608501518101519091166040808601919091526101808501519182015160a08601526080909101516001600160a01b0390811660c08601529051633d219a7160e11b81528682166004820152602481018a905290831690637a4334e2906044015b60606040518083038186803b158015610af657600080fd5b505afa158015610b0a573d6000803e3d6000fd5b505050506040513d601f19601f82011682018060405250810190610b2e9190613a07565b61010086015260e085015250610ee6915050565b8460ff1660011415610d1457604051631614f0cb60e11b81526001600160a01b038481166004830152602482018890528591600091831690632c29e1969060440160206040518083038186803b158015610b9b57600080fd5b505afa158015610baf573d6000803e3d6000fd5b505050506040513d601f19601f82011682018060405250810190610bd391906139ef565b6040516328ef7aab60e11b8152600481018290529091506001600160a01b038316906351def5569060240160006040518083038186803b158015610c1657600080fd5b505afa158015610c2a573d6000803e3d6000fd5b505050506040513d6000823e601f3d908101601f19168201604052610c5291908101906139a0565b6101408b015250610120890181905260808901949094525050506001600160a01b0390911660608086019190915281015163ffffffff16845260408101519051610c9c91906156a4565b63ffffffff9081166020858101919091526101208501518101519091166040808601919091526101408501519182015160a08601526080909101516001600160a01b0390811660c08601529051633d219a7160e11b81528682166004820152602481018a905290831690637a4334e290604401610ade565b8460ff1660031415610ee657604051631614f0cb60e11b81526001600160a01b038481166004830152602482018890528591600091831690632c29e1969060440160206040518083038186803b158015610d6d57600080fd5b505afa158015610d81573d6000803e3d6000fd5b505050506040513d601f19601f82011682018060405250810190610da591906139ef565b6040516328ef7aab60e11b8152600481018290529091506001600160a01b038316906351def5569060240160006040518083038186803b158015610de857600080fd5b505afa158015610dfc573d6000803e3d6000fd5b505050506040513d6000823e601f3d908101601f19168201604052610e2491908101906138f6565b6101c08b0152506101a0890181905260808901949094525050506001600160a01b0390911660608086019190915281015163ffffffff16845260408101519051610e6e91906156a4565b63ffffffff9081166020858101919091526101208501518101519091166040808601919091526101c08501519182015160a08601526080909101516001600160a01b0390811660c08601529051633d219a7160e11b81528682166004820152602481018a905290831690637a4334e290604401610ade565b6000610f0082606001516001600160a01b03166014611078565b610f6e610f10846080015161130e565b610f2160808660800151901b61130e565b6040517f30780000000000000000000000000000000000000000000000000000000000006020820152602281019290925260428201526062016040516020818303038152906040526114f6565b604051602001610f7f9291906141dc565b60405160208183030381529060405290506110588260a001518360c001516001600160a01b03166395d89b416040518163ffffffff1660e01b815260040160006040518083038186803b158015610fd557600080fd5b505afa158015610fe9573d6000803e3d6000fd5b505050506040513d6000823e601f3d908101601f1916820160405261101191908101906139bc565b838560c001516040518060a00160405280886000015181526020018860e00151815260200188610100015181526020018860200151815260200188604001518152506115bc565b979650505050505050565b6060611070848484611786565b949350505050565b60606000611087836002615705565b61109290600261568c565b67ffffffffffffffff8111156110b857634e487b7160e01b600052604160045260246000fd5b6040519080825280601f01601f1916602001820160405280156110e2576020820181803683370190505b5090507f30000000000000000000000000000000000000000000000000000000000000008160008151811061112757634e487b7160e01b600052603260045260246000fd5b60200101907effffffffffffffffffffffffffffffffffffffffffffffffffffffffffffff1916908160001a9053507f78000000000000000000000000000000000000000000000000000000000000008160018151811061119857634e487b7160e01b600052603260045260246000fd5b60200101907effffffffffffffffffffffffffffffffffffffffffffffffffffffffffffff1916908160001a90535060006111d4846002615705565b6111df90600161568c565b90505b6001811115611298577f303132333435363738396162636465660000000000000000000000000000000085600f166010811061122e57634e487b7160e01b600052603260045260246000fd5b1a60f81b82828151811061125257634e487b7160e01b600052603260045260246000fd5b60200101907effffffffffffffffffffffffffffffffffffffffffffffffffffffffffffff1916908160001a90535060049490941c936112918161576b565b90506111e2565b508315611305576040517f08c379a000000000000000000000000000000000000000000000000000000000815260206004820181905260248201527f537472696e67733a20686578206c656e67746820696e73756666696369656e74604482015260640160405180910390fd5b90505b92915050565b7aff00000000000000ff00000000000000ff00000000000000ff00006bffffffff0000000000000000604083901c9081167bffffffff00000000000000000000000000000000000000000000000084161760201c6fffffffff000000000000000000000000919091167fffffffff0000000000000000000000000000000000000000000000000000000084161717601081901c9182167eff00000000000000ff00000000000000ff00000000000000ff000000000000821617600890811c7bff00000000000000ff00000000000000ff00000000000000ff000000939093167fff00000000000000ff00000000000000ff00000000000000ff000000000000009290921691909117919091179081901c7e0f000f000f000f000f000f000f000f000f000f000f000f000f000f000f000f167f0f000f000f000f000f000f000f000f000f000f000f000f000f000f000f000f00600492831c161790611492827f060606060606060606060606060606060606060606060606060606060606060661568c565b901c7f0f0f0f0f0f0f0f0f0f0f0f0f0f0f0f0f0f0f0f0f0f0f0f0f0f0f0f0f0f0f0f0f1660076114c29190615705565b6114ec827f303030303030303030303030303030303030303030303030303030303030303061568c565b611308919061568c565b60608160005b81518110156115b55761155482828151811061152857634e487b7160e01b600052603260045260246000fd5b01602001517fff0000000000000000000000000000000000000000000000000000000000000016611897565b82828151811061157457634e487b7160e01b600052603260045260246000fd5b60200101907effffffffffffffffffffffffffffffffffffffffffffffffffffffffffffff1916908160001a905350806115ad81615782565b9150506114fc565b5092915050565b606060006116a986856040518060a00160405280876001600581106115f157634e487b7160e01b600052603260045260246000fd5b602002015181526020018760026005811061161c57634e487b7160e01b600052603260045260246000fd5b602002015181526020018760006005811061164757634e487b7160e01b600052603260045260246000fd5b602002015181526020018760036005811061167257634e487b7160e01b600052603260045260246000fd5b602002015181526020018760046005811061169d57634e487b7160e01b600052603260045260246000fd5b60200201519052611063565b905060006116b68261194e565b6040516020016116c69190613aa7565b60405160208183030381529060405290506000876040516020016116ea9190613e42565b60408051808303601f190181529181526020870151908701518751606089015160808a0151949550600094611726948e948d9491939092611b19565b9050611758828b8a8487604051602001611744959493929190613f51565b60405160208183030381529060405261194e565b6040516020016117689190614b5c565b60405160208183030381529060405294505050505095945050505050565b6060611790611b68565b61179a8585611b9f565b83516117a7908790611c14565b6117af611c73565b61186b6040518060800160405280886003600581106117de57634e487b7160e01b600052603260045260246000fd5b602002015181526020018860046005811061180957634e487b7160e01b600052603260045260246000fd5b602002015181526020018860026005811061183457634e487b7160e01b600052603260045260246000fd5b602002015181526020018860016005811061185f57634e487b7160e01b600052603260045260246000fd5b60200201519052611c84565b60405160200161187f959493929190613b68565b60405160208183030381529060405290509392505050565b60007f41000000000000000000000000000000000000000000000000000000000000007fff0000000000000000000000000000000000000000000000000000000000000083161080159061192d57507f5a000000000000000000000000000000000000000000000000000000000000007fff00000000000000000000000000000000000000000000000000000000000000831611155b1561194a5761194160f883901c60206156cc565b60f81b92915050565b5090565b606081516000141561196e57505060408051602081019091526000815290565b600060405180606001604052806040815260200161580c604091399050600060038451600261199d919061568c565b6119a791906156f1565b6119b2906004615705565b905060006119c182602061568c565b67ffffffffffffffff8111156119e757634e487b7160e01b600052604160045260246000fd5b6040519080825280601f01601f191660200182016040528015611a11576020820181803683370190505b509050818152600183018586518101602084015b81831015611a7f5760039283018051603f601282901c811687015160f890811b8552600c83901c8216880151811b6001860152600683901c8216880151811b60028601529116860151901b93820193909352600401611a25565b600389510660018114611a995760028114611ae357611b0b565b7f3d3d0000000000000000000000000000000000000000000000000000000000007ffffffffffffffffffffffffffffffffffffffffffffffffffffffffffffffffe830152611b0b565b7f3d000000000000000000000000000000000000000000000000000000000000006000198301525b509398975050505050505050565b6060611b258888611df2565b611b2f8787611e26565b611b3a868686611e4b565b604051602001611b4c939291906143b1565b6040516020818303038152906040529050979650505050505050565b6060611b72611e71565b611b7a611ffd565b604051602001611b8b929190615566565b604051602081830303815290604052905090565b60606000611bb7836001600160a01b03166014611078565b84604051602001611bc9929190613e83565b6040516020818303038152906040529050611be26121b1565b611beb826124c5565b604051602001611bfc929190615077565b60405160208183030381529060405291505092915050565b60606000611c21836124f0565b9050600084604051602001611c36919061472b565b60405160208183030381529060405290508082604051602001611c5a929190614ba1565b6040516020818303038152906040529250505092915050565b6060604051602001611b8b90615122565b6060611cce60405180610100016040528060608152602001606081526020016000815260200160008152602001600081526020016060815260200160608152602001606081525090565b82516020840151611cdf9190612c9c565b81526060830151611cef906124f0565b60208201528251611cff90612daf565b6080840152606083018190526040830191909152611d1c90612dce565b611d298260800151612dce565b611d368360400151612dce565b604051602001611d4893929190613edb565b60408051601f1981840301815291905260c0820152611d6d8360026020020151612f1c565b60e0820152611d7a6130f4565b611d87826020015161320d565b611d8f613220565b8351611d9a90613313565b611da2613326565b611daf8660c00151613419565b611db761342c565b611dc48860e00151613545565b604051602001611ddb989796959493929190613ac3565b604051602081830303815290604052915050919050565b606082611dfe83613558565b604051602001611e0f92919061444d565b604051602081830303815290604052905092915050565b6060611e31836124f0565b611e3a836124f0565b604051602001611e0f929190614643565b6060611e578383612c9c565b611e6085612f1c565b60405160200161187f92919061455b565b6040517f3c646566733e000000000000000000000000000000000000000000000000000060208201527f3c636c6970506174682069643d22636f726e657273223e3c726563742077696460268201527f74683d2232393022206865696768743d22353030222072783d2234322220727960468201527f3d22343222202f3e3c2f636c6970506174683e0000000000000000000000000060668201527f3c706174682069643d22746578742d706174682d612220643d224d343020313260798201527f204832353020413238203238203020302031203237382034302056343630204160998201527f323820323820302030203120323530203438382048343020413238203238203060b98201527f203020312031322034363020563430204132382032382030203020312034302060d98201527f3132207a22202f3e00000000000000000000000000000000000000000000000060f98201527f3c2f646566733e0000000000000000000000000000000000000000000000000061010182015260609061010801611b8b565b6040517f3c6720636c69702d706174683d2275726c2823636f726e65727329223e00000060208201527f3c726563742066696c6c3d226261373937302220783d223070782220793d2230603d8201527f7078222077696474683d22323930707822206865696768743d22353030707822605d8201527f202f3e0000000000000000000000000000000000000000000000000000000000607d8201527f3c67207374796c653d2266696c7465723a75726c2823746f702d726567696f6e60808201527f2d626c7572293b207472616e73666f726d3a7363616c6528312e35293b20747260a08201527f616e73666f726d2d6f726967696e3a63656e74657220746f703b223e3c72656360c08201527f742066696c6c3d226e6f6e652220783d223070782220793d223070782220776960e08201527f6474683d22323930707822206865696768743d22353030707822202f3e203c2f6101008201527f673e0000000000000000000000000000000000000000000000000000000000006101208201527f3c2f673e0000000000000000000000000000000000000000000000000000000061012282015260609061012601611b8b565b6060604051602001611b8b907f3c74657874506174682073746172744f66667365743d222d313030252220666981527f6c6c3d2277686974652220666f6e742d66616d696c793d2227436f757269657260208201527f204e6577272c206d6f6e6f73706163652220666f6e742d73697a653d2231307060408201527f782220786c696e6b3a687265663d2223746578742d706174682d61223e44414f60608201527f53717561726520496e63756261746f722056656e747572652044414f2056657360808201527f74696e673c616e696d6174652061646469746976653d2273756d22206174747260a08201527f69627574654e616d653d2273746172744f6666736574222066726f6d3d22302560c08201527f2220746f3d22313030252220626567696e3d22307322206475723d223330732260e08201527f20726570656174436f756e743d22696e646566696e69746522202f3e3c2f74656101008201527f7874506174683e000000000000000000000000000000000000000000000000006101208201527f3c74657874506174682073746172744f66667365743d223025222066696c6c3d6101278201527f2277686974652220666f6e742d66616d696c793d2227436f7572696572204e656101478201527f77272c206d6f6e6f73706163652220666f6e742d73697a653d223130707822206101678201527f786c696e6b3a687265663d2223746578742d706174682d61223e44414f5371756101878201527f61726520496e63756261746f722056656e747572652044414f2056657374696e6101a78201527f673c616e696d6174652061646469746976653d2273756d2220617474726962756101c78201527f74654e616d653d2273746172744f6666736574222066726f6d3d2230252220746101e78201527f6f3d22313030252220626567696e3d22307322206475723d22333073222072656102078201527f70656174436f756e743d22696e646566696e69746522202f3e203c2f746578746102278201527f506174683e00000000000000000000000000000000000000000000000000000061024782015261024c0190565b606081826040516020016124da929190614874565b6040516020818303038152906040529050919050565b60606000806000806000683635c9adc5dea000008710156126e45761251c66038d7ea4c68000886156f1565b945061252b620186a0866156f1565b935061253f670de0b6b3a7640000886156f1565b9350600a60646103e861255a67016345785d8a00008b6156f1565b612564919061579d565b61256e919061579d565b612578919061579d565b9250600a60646103e8612710612595662386f26fc100008c6156f1565b61259f919061579d565b6125a9919061579d565b6125b3919061579d565b6125bd919061579d565b9150600a60646103e8612710620186a06125de66038d7ea4c680008d6156f1565b6125e8919061579d565b6125f2919061579d565b6125fc919061579d565b612606919061579d565b612610919061579d565b9050600581106126b75760098210156126355761262e60018361568c565b91506126b7565b6000915060098310156126545761264d60018461568c565b92506126b7565b600092506103e784106126a9576040517f312e30304b00000000000000000000000000000000000000000000000000000060208201526025015b60405160208183030381529060405295505050505050919050565b6126b460018561568c565b93505b6126c084612dce565b6126c984612dce565b6126d284612dce565b60405160200161268e93929190613bfb565b683635c9adc5dea000008710158015612706575069d3c21bcecceda100000087105b156128b55761271e683635c9adc5dea00000886156f1565b9450606461272e866103e8615705565b612740670de0b6b3a76400008a6156f1565b61274a9190615724565b61275491906156f1565b9350600a612763856064615705565b61276f876103e8615705565b612781670de0b6b3a76400008b6156f1565b61278b9190615724565b6127959190615724565b61279f91906156f1565b92506127ac83600a615705565b6127b7856064615705565b6127c3876103e8615705565b6127d5670de0b6b3a76400008b6156f1565b6127df9190615724565b6127e99190615724565b6127f39190615724565b9150600582106128885760098310156128185761281160018461568c565b9250612888565b6000925060098410156128375761283060018561568c565b9350612888565b600093506103e78510156128575761285060018661568c565b9450612888565b6040517f312e30304d000000000000000000000000000000000000000000000000000000602082015260250161268e565b61289185612dce565b61289a85612dce565b6128a385612dce565b60405160200161268e93929190613dc5565b69d3c21bcecceda100000087101580156128da57506b033b2e3c9fd0803ce800000087105b15612a29576128f1670de0b6b3a7640000886156f1565b9450620f4240612909670de0b6b3a7640000896156f1565b61291391906156f1565b9350620186a0612926620f42408761579d565b61293091906156f1565b9250612710612942620186a08761579d565b61294c91906156f1565b91506103e861295d6127108761579d565b61296791906156f1565b9050600581106129fc57600982101561298c5761298560018361568c565b91506129fc565b6000915060098310156129ab576129a460018461568c565b92506129fc565b600092506103e78410156129cb576129c460018661568c565b94506129fc565b6040517f312e303042000000000000000000000000000000000000000000000000000000602082015260250161268e565b612a0584612dce565b612a0e84612dce565b612a1784612dce565b60405160200161268e93929190613ccb565b6b033b2e3c9fd0803ce80000008710158015612a5157506c0c9f2c9cd04674edea4000000087105b15612b9457612a68670de0b6b3a7640000886156f1565b9450612a78633b9aca00866156f1565b93506305f5e100612a8d633b9aca008761579d565b612a9791906156f1565b925062989680612aab6305f5e1008761579d565b612ab591906156f1565b9150620f4240612ac8629896808761579d565b612ad291906156f1565b905060058110612b67576009821015612af757612af060018361568c565b9150612b67565b600091506009831015612b1657612b0f60018461568c565b9250612b67565b600092506103e7841015612b3657612b2f60018561568c565b9350612b67565b6040517f312e303054000000000000000000000000000000000000000000000000000000602082015260250161268e565b612b7084612dce565b612b7984612dce565b612b8284612dce565b60405160200161268e93929190613c4e565b612ba6670de0b6b3a7640000886156f1565b9450612bb764e8d4a51000866156f1565b935064174876e800612bce64e8d4a510008761579d565b612bd891906156f1565b92506402540be400612bef64174876e8008761579d565b612bf991906156f1565b9150633b9aca00612c0f6402540be4008761579d565b612c1991906156f1565b905060058110612c6f576009821015612c3e57612c3760018361568c565b9150612c6f565b600091506009831015612c5d57612c5660018461568c565b9250612c6f565b60009250612c6c60018561568c565b93505b612c7884612dce565b612c8184612dce565b612c8a84612dce565b60405160200161268e93929190613d48565b6060600083118015612cad57508242105b15612cf5576040517f4c6f636b7570000000000000000000000000000000000000000000000000000060208201526026015b6040516020818303038152906040529050611308565b8242118015612d0357508142105b15612d39576040517f52656c656173696e6700000000000000000000000000000000000000000000006020820152602901612cdf565b8142118015612d485750600082115b15612d7e576040517f456e6400000000000000000000000000000000000000000000000000000000006020820152602301612cdf565b6040517f556e6b6e6f7700000000000000000000000000000000000000000000000000006020820152602601611e0f565b60008080612dc162015180850461356e565b9196909550909350915050565b606081612e0e57505060408051808201909152600181527f3000000000000000000000000000000000000000000000000000000000000000602082015290565b8160005b8115612e385780612e2281615782565b9150612e319050600a836156f1565b9150612e12565b60008167ffffffffffffffff811115612e6157634e487b7160e01b600052604160045260246000fd5b6040519080825280601f01601f191660200182016040528015612e8b576020820181803683370190505b5090505b841561107057612ea0600183615724565b9150612ead600a8661579d565b612eb890603061568c565b60f81b818381518110612edb57634e487b7160e01b600052603260045260246000fd5b60200101907effffffffffffffffffffffffffffffffffffffffffffffffffffffffffffff1916908160001a905350612f15600a866156f1565b9450612e8f565b606081610e101415612f59576040517f486f75727300000000000000000000000000000000000000000000000000000060208201526025016124da565b81620151801415612f95576040517f446179730000000000000000000000000000000000000000000000000000000060208201526024016124da565b8162093a801415612fd1576040517f5765656b7300000000000000000000000000000000000000000000000000000060208201526025016124da565b8162278d00141561300d576040517f4d6f6e746873000000000000000000000000000000000000000000000000000060208201526026016124da565b816301e13380141561304a576040517f596561727300000000000000000000000000000000000000000000000000000060208201526025016124da565b81603c1415613084576040517f4d696e757465730000000000000000000000000000000000000000000000000060208201526027016124da565b81600114156130be576040517f5365636f6e64730000000000000000000000000000000000000000000000000060208201526027016124da565b6040517f556e6b6e6f77000000000000000000000000000000000000000000000000000060208201526026016124da565b919050565b6060604051602001611b8b907f3c67206d61736b3d2275726c2823666164652d73796d626f6c29223e3c74657881527f742066696c6c3d2277686974652220786d6c3a73706163653d2270726573657260208201527f766522207374796c653d2277686974652d73706163653a207072652220666f6e60408201527f742d66616d696c793d22436f7572696572204e65772220666f6e742d73697a6560608201527f3d22313222206c65747465722d73706163696e673d2230656d223e3c7473706160808201527f6e20783d2233322220793d223338312e313933223e546f74616c3c2f7473706160a08201527f6e3e3c2f746578743e000000000000000000000000000000000000000000000060c082015260c90190565b6060816040516020016124da91906142ad565b6060604051602001611b8b907f3c746578742066696c6c3d2277686974652220786d6c3a73706163653d22707281527f65736572766522207374796c653d2277686974652d73706163653a207072652260208201527f20666f6e742d66616d696c793d22436f7572696572204e65772220666f6e742d60408201527f73697a653d22313222206c65747465722d73706163696e673d2230656d223e3c60608201527f747370616e20783d223135342220793d223338312e313933223e53746174653c60808201527f2f747370616e3e3c2f746578743e00000000000000000000000000000000000060a082015260ae0190565b6060816040516020016124da9190614770565b6060604051602001611b8b907f3c746578742066696c6c3d2277686974652220786d6c3a73706163653d22707281527f65736572766522207374796c653d2277686974652d73706163653a207072652260208201527f20666f6e742d66616d696c793d22436f7572696572204e65772220666f6e742d60408201527f73697a653d22313222206c65747465722d73706163696e673d2230656d223e3c60608201527f747370616e20783d2233322220793d223433332e313933223e436c61696d205360808201527f746172743c2f747370616e3e3c2f746578743e0000000000000000000000000060a082015260b30190565b6060816040516020016124da9190614fa7565b6060604051602001611b8b907f3c6720636c69702d706174683d2275726c2823636c6970315f31373331365f3381527f3937303429223e3c746578742066696c6c3d2277686974652220786d6c3a737060208201527f6163653d22707265736572766522207374796c653d2277686974652d7370616360408201527f653a207072652220666f6e742d66616d696c793d22436f7572696572204e657760608201527f2220666f6e742d73697a653d22313222206c65747465722d73706163696e673d60808201527f2230656d223e3c747370616e20783d223135342220793d223433332e3139332260a08201527f3e496e74657276616c3c2f747370616e3e3c2f746578743e000000000000000060c082015260d80190565b6060816040516020016124da91906140d8565b6060611308826001600160a01b03166014611078565b60008080836226496581018262023ab1600483020590506004600362023ab18302010590910390600062164b09610fa0600185010205905060046105b58202058303601f019250600061098f84605002816135d957634e487b7160e01b600052601260045260246000fd5b0590506000605061098f83020585039050600b82057fffffffffffffffffffffffffffffffffffffffffffffffffffffffffffffffcf94909401606402929092018301996002600c90940290910392909201975095509350505050565b80516130ef816157f3565b600082601f830112613651578081fd5b815167ffffffffffffffff8082111561366c5761366c6157dd565b604051601f8301601f19908116603f01168101908282118183101715613694576136946157dd565b816040528381528660208588010111156136ac578485fd5b6107d684602083016020890161573b565b6000606082840312156136ce578081fd5b6040516060810181811067ffffffffffffffff821117156136f1576136f16157dd565b604052905080613700836138e2565b815261370e602084016138c2565b602082015261371f604084016138c2565b60408201525092915050565b60006080828403121561373c578081fd5b6040516080810181811067ffffffffffffffff8211171561375f5761375f6157dd565b60405290508061376e836138e2565b815261377c602084016138e2565b602082015261378d604084016138e2565b604082015261379e606084016138e2565b60608201525092915050565b600060a082840312156137bb578081fd5b60405160a0810167ffffffffffffffff82821081831117156137df576137df6157dd565b8160405282935084519150808211156137f757600080fd5b61380386838701613641565b8352602085015191508082111561381957600080fd5b5061382685828601613641565b602083015250604083015161383a816157f3565b604082015261384b60608401613636565b606082015261385c60808401613636565b60808201525092915050565b600060408284031215613879578081fd5b6040516040810181811067ffffffffffffffff8211171561389c5761389c6157dd565b806040525080915082516138af816157f3565b8152602092830151920191909152919050565b80516fffffffffffffffffffffffffffffffff811681146130ef57600080fd5b805163ffffffff811681146130ef57600080fd5b6000806000806000806000806101c0898b031215613912578384fd5b885161391d816157f3565b60208a0151909850965061393360408a016138c2565b9550606089015194506139498a60808b016136bd565b93506139588a60e08b0161372b565b92506139688a6101608b01613868565b91506101a089015167ffffffffffffffff811115613984578182fd5b6139908b828c016137aa565b9150509295985092959890939650565b6000806000806000806000806101c0898b031215613912578182fd5b6000602082840312156139cd578081fd5b815167ffffffffffffffff8111156139e3578182fd5b61107084828501613641565b600060208284031215613a00578081fd5b5051919050565b600080600060608486031215613a1b578081fd5b8351925060208401519150604084015190509250925092565b60008060008060808587031215613a49578182fd5b84359350602085013560ff81168114613a60578283fd5b92506040850135613a70816157f3565b91506060850135613a80816157f3565b939692955090935050565b60008151613a9d81856020860161573b565b9290920192915050565b60008251613ab981846020870161573b565b9190910192915050565b600089516020613ad68285838f0161573b565b8a5191840191613ae98184848f0161573b565b8a51920191613afb8184848e0161573b565b8951920191613b0d8184848d0161573b565b8851920191613b1f8184848c0161573b565b8751920191613b318184848b0161573b565b8651920191613b438184848a0161573b565b8551920191613b55818484890161573b565b919091019b9a5050505050505050505050565b60008651613b7a818460208b0161573b565b865190830190613b8e818360208b0161573b565b8651910190613ba1818360208a0161573b565b8551910190613bb481836020890161573b565b8451910190613bc781836020880161573b565b7f3c2f7376673e00000000000000000000000000000000000000000000000000009101908152600601979650505050505050565b60008451613c0d81846020890161573b565b601760f91b9083019081528451613c2b81600184016020890161573b565b8451910190613c4181600184016020880161573b565b0160010195945050505050565b60008451613c6081846020890161573b565b601760f91b9083019081528451613c7e81600184016020890161573b565b8451910190613c9481600184016020880161573b565b7f42000000000000000000000000000000000000000000000000000000000000006001929091019182015260020195945050505050565b60008451613cdd81846020890161573b565b601760f91b9083019081528451613cfb81600184016020890161573b565b8451910190613d1181600184016020880161573b565b7f4d000000000000000000000000000000000000000000000000000000000000006001929091019182015260020195945050505050565b60008451613d5a81846020890161573b565b601760f91b9083019081528451613d7881600184016020890161573b565b8451910190613d8e81600184016020880161573b565b7f54000000000000000000000000000000000000000000000000000000000000006001929091019182015260020195945050505050565b60008451613dd781846020890161573b565b601760f91b9083019081528451613df581600184016020890161573b565b8451910190613e0b81600184016020880161573b565b7f4b000000000000000000000000000000000000000000000000000000000000006001929091019182015260020195945050505050565b60008251613e5481846020870161573b565b7f2056657374696e67000000000000000000000000000000000000000000000000920191825250600801919050565b60008351613e9581846020880161573b565b7f20e280a2200000000000000000000000000000000000000000000000000000009083019081528351613ecf81600584016020880161573b565b01600501949350505050565b60008451613eed81846020890161573b565b80830190507f2f000000000000000000000000000000000000000000000000000000000000008082528551613f29816001850160208a0161573b565b60019201918201528351613f4481600284016020880161573b565b0160020195945050505050565b7f7b226e616d65223a220000000000000000000000000000000000000000000000815260008651613f89816009850160208b0161573b565b7f222c20226465736372697074696f6e223a2200000000000000000000000000006009918401918201528651613fc681601b840160208b0161573b565b7f5c6e50726f706f73616c206c696e6b3a20000000000000000000000000000000601b9290910191820152855161400481602c840160208a0161573b565b7f222c202261747472696275746573223a20000000000000000000000000000000602c9290910191820152845161404281603d84016020890161573b565b7f2c2022696d616765223a20220000000000000000000000000000000000000000603d92909101918201527f646174613a696d6167652f7376672b786d6c3b6261736536342c00000000000060498201526140cc6140a36063830186613a8b565b7f227d000000000000000000000000000000000000000000000000000000000000815260020190565b98975050505050505050565b7f3c746578742066696c6c3d22233933373446462220786d6c3a73706163653d2281527f707265736572766522207374796c653d2277686974652d73706163653a20707260208201527f652220666f6e742d66616d696c793d22436f7572696572204e65772220666f6e60408201527f742d73697a653d22313222206c65747465722d73706163696e673d2230656d2260608201527f3e3c747370616e20783d223135342220793d223435312e313933223e000000006080820152600082516141a881609c85016020870161573b565b7f3c2f747370616e3e3c2f746578743e3c2f673e3c2f673e000000000000000000609c93909101928301525060b301919050565b7f68747470733a2f2f67726170682e70686f656e69782e66692f76656e7475726581527f64616f732f666c65782f0000000000000000000000000000000000000000000060208201526000835161423a81602a85016020880161573b565b7f2f70726f706f73616c732f000000000000000000000000000000000000000000602a91840191820152835161427781603584016020880161573b565b7f2f696e766573746d656e7400000000000000000000000000000000000000000060359290910191820152604001949350505050565b7f3c746578742066696c6c3d22233933373446462220786d6c3a73706163653d2281527f707265736572766522207374796c653d2277686974652d73706163653a20707260208201527f652220666f6e742d66616d696c793d22436f7572696572204e65772220666f6e60408201527f742d73697a653d22313222206c65747465722d73706163696e673d2230656d2260608201527f3e3c747370616e20783d2233322220793d223339392e313933223e000000000060808201526000825161437d81609b85016020870161573b565b7f3c2f747370616e3e3c2f746578743e0000000000000000000000000000000000609b93909101928301525060aa01919050565b7f5b000000000000000000000000000000000000000000000000000000000000008152600084516143e981600185016020890161573b565b84519083019061440081600184016020890161573b565b845191019061441681600184016020880161573b565b7f5d000000000000000000000000000000000000000000000000000000000000006001929091019182015260020195945050505050565b607b60f81b81527f2274726169745f74797065223a2256657374696e6720546f6b656e2053796d6260018201527f6f6c222c2276616c7565223a22000000000000000000000000000000000000006021820152600083516144b581602e85016020880161573b565b63227d2c7b60e01b602e918401918201527f2274726169745f74797065223a2256657374696e6720546f6b656e20436f6e7460328201527f72616374222c2276616c7565223a2200000000000000000000000000000000006052820152835161452581606184016020880161573b565b7f227d2c000000000000000000000000000000000000000000000000000000000060619290910191820152606401949350505050565b607b60f81b81527f2274726169745f74797065223a225374617465222c2276616c7565223a22000060018201526000835161459d81601f85016020880161573b565b63227d2c7b60e01b601f918401918201527f2274726169745f74797065223a22496e74657276616c222c2276616c7565223a60238201527f22000000000000000000000000000000000000000000000000000000000000006043820152835161460d81604484016020880161573b565b7f227d00000000000000000000000000000000000000000000000000000000000060449290910191820152604601949350505050565b607b60f81b81527f2274726169745f74797065223a2252656d61696e696e67222c2276616c75652260018201527f3a220000000000000000000000000000000000000000000000000000000000006021820152600083516146ab81602385016020880161573b565b63227d2c7b60e01b6023918401918201527f2274726169745f74797065223a22546f74616c222c2276616c7565223a220000602782015283516146f581604584016020880161573b565b7f227d2c000000000000000000000000000000000000000000000000000000000060459290910191820152604801949350505050565b7f240000000000000000000000000000000000000000000000000000000000000081526000825161476381600185016020870161573b565b9190910160010192915050565b7f3c746578742066696c6c3d22233933373446462220786d6c3a73706163653d2281527f707265736572766522207374796c653d2277686974652d73706163653a20707260208201527f652220666f6e742d66616d696c793d22436f7572696572204e65772220666f6e60408201527f742d73697a653d22313222206c65747465722d73706163696e673d2230656d2260608201527f3e3c747370616e20783d223135342220793d223339392e313933223e0000000060808201526000825161484081609c85016020870161573b565b7f3c2f747370616e3e3c2f746578743e0000000000000000000000000000000000609c93909101928301525060ab01919050565b7f3c74657874506174682073746172744f66667365743d22353025222066696c6c81527f3d2277686974652220666f6e742d66616d696c793d2227436f7572696572204e60208201527f6577272c206d6f6e6f73706163652220666f6e742d73697a653d22313070782260408201527f20786c696e6b3a687265663d2223746578742d706174682d61223e000000000060608201526000835161491e81607b85016020880161573b565b6149e8607b828501017f3c616e696d6174652061646469746976653d2273756d2220617474726962757481527f654e616d653d2273746172744f6666736574222066726f6d3d2230252220746f60208201527f3d22313030252220626567696e3d22307322206475723d22333073222072657060408201527f656174436f756e743d22696e646566696e69746522202f3e3c2f74657874506160608201527f74683e0000000000000000000000000000000000000000000000000000000000608082015260830190565b90507f3c74657874506174682073746172744f66667365743d222d353025222066696c81527f6c3d2277686974652220666f6e742d66616d696c793d2227436f75726965722060208201527f4e6577272c206d6f6e6f73706163652220666f6e742d73697a653d223130707860408201527f2220786c696e6b3a687265663d2223746578742d706174682d61223e0000000060608201528351614a9281607c84016020880161573b565b6107d6607c828401017f3c616e696d6174652061646469746976653d2273756d2220617474726962757481527f654e616d653d2273746172744f6666736574222066726f6d3d2230252220746f60208201527f3d22313030252220626567696e3d22307322206475723d22333073222072657060408201527f656174436f756e743d22696e646566696e69746522202f3e3c2f74657874506160608201527f74683e0000000000000000000000000000000000000000000000000000000000608082015260830190565b7f646174613a6170706c69636174696f6e2f6a736f6e3b6261736536342c000000815260008251614b9481601d85016020870161573b565b91909101601d0192915050565b7f3c67206d61736b3d2275726c2823666164652d73796d626f6c29223e00000000815260007f3c746578742066696c6c3d2277686974652220786d6c3a73706163653d22707280601c8401527f65736572766522207374796c653d2277686974652d73706163653a207072652280603c8501527f20666f6e742d66616d696c793d2227436f7572696572204e6577272220666f6e80605c8601527f742d73697a653d2233362220666f6e742d7765696768743d22373022206c6574607c8601527f7465722d73706163696e673d2230656d223e3c747370616e20783d2233322220609c8601527f793d2236342e30383031223e000000000000000000000000000000000000000060bc8601528651614cc08160c8880160208b0161573b565b80860190507f3c2f747370616e3e3c2f746578743e000000000000000000000000000000000060c88201528360d78201528260f7820152816101178201527f742d73697a653d2231362220666f6e742d7765696768743d22323022206c65746101378201527f7465722d73706163696e673d2230656d223e3c747370616e20783d22313239226101578201527f20793d2235382e37353738223e3c2f747370616e3e3c2f746578743e000000006101778201526140cc614e9a614e71614e6b61019385017f3c746578742066696c6c3d22233933373446462220786d6c3a73706163653d2281527f707265736572766522207374796c653d2277686974652d73706163653a20707260208201527f652220666f6e742d66616d696c793d2227436f7572696572204e65772722206660408201527f6f6e742d73697a653d2233362220666f6e742d7765696768743d22333022206c60608201527f65747465722d73706163696e673d2230656d223e3c747370616e20783d22333260808201527f2220793d223130392e3038223e0000000000000000000000000000000000000060a082015260ad0190565b8a613a8b565b7f3c2f747370616e3e3c2f746578743e00000000000000000000000000000000008152600f0190565b7f3c746578742066696c6c3d2277686974652220786d6c3a73706163653d22707281527f65736572766522207374796c653d2277686974652d73706163653a207072652260208201527f20666f6e742d66616d696c793d2227436f7572696572204e6577272220666f6e60408201527f742d73697a653d2231362220666f6e742d7765696768743d22323022206c657460608201527f7465722d73706163696e673d2230656d223e3c747370616e20783d223332222060808201527f793d223133392e3038223e52656d61696e696e6720546f20426520436c61696d60a08201527f65643c2f747370616e3e3c2f746578743e3c2f673e000000000000000000000060c082015260d50190565b7f3c746578742066696c6c3d22233933373446462220786d6c3a73706163653d2281527f707265736572766522207374796c653d2277686974652d73706163653a20707260208201527f652220666f6e742d66616d696c793d22436f7572696572204e65772220666f6e60408201527f742d73697a653d22313222206c65747465722d73706163696e673d2230656d2260608201527f3e3c747370616e20783d2233322220793d223435312e313933223e000000000060808201526000825161437d81609b85016020870161573b565b7f3c7465787420746578742d72656e646572696e673d226f7074696d697a65537081527f656564223e0000000000000000000000000000000000000000000000000000006020820152600083516150d581602585016020880161573b565b8351908301906150ec81602584016020880161573b565b7f3c2f746578743e0000000000000000000000000000000000000000000000000060259290910191820152602c01949350505050565b7f3c6c696e6561724772616469656e742069643d227061696e74335f6c696e656181527f725f31373331365f3339373034222078313d223635222079313d22313838222060208201527f78323d223135382e333939222079323d223237332e313634222067726164696560408201527f6e74556e6974733d227573657253706163654f6e557365223e3c73746f70207360608201527f746f702d636f6c6f723d2223393337344646222073746f702d6f70616369747960808201527f3d22302e33222f3e3c73746f70206f66667365743d2231222073746f702d636f60a08201527f6c6f723d2223393337344646222073746f702d6f7061636974793d2230222f3e60c08201527f3c2f6c696e6561724772616469656e743e00000000000000000000000000000060e08201527f3c7265637420783d2231362220793d223136222077696474683d22323538222060f18201527f6865696768743d22343638222072783d223236222072793d223236222066696c6101118201527f6c3d227267626128302c302c302c302922207374726f6b653d227267626128326101318201527f35352c3235352c3235352c302e3229222f3e00000000000000000000000000006101518201527f3c6d61736b2069643d22706174682d31342d696e736964652d315f31373331366101638201527f5f3339373034222066696c6c3d227768697465223e3c7061746820643d224d366101838201527f35203138384832323556333136483635563138385a222f3e3c2f6d61736b3e006101a38201527f3c7061746820643d224d3635203138384832323556333136483635563138385a6101c28201527f222066696c6c3d2275726c28237061696e74335f6c696e6561725f31373331366101e28201527f5f333937303429222f3e000000000000000000000000000000000000000000006102028201527f3c7061746820643d224d36352031383856313837483634563138384836355a4d61020c8201527f3635203138394832323556313837483635563138395a4d36362033313656313861022c8201527f38483634563331364836365a222066696c6c3d222339333734464622206d617361024c8201527f6b3d2275726c2823706174682d31342d696e736964652d315f31373331365f3361026c8201527f3937303429222f3e00000000000000000000000000000000000000000000000061028c8201527f3c7061746820643d224d3932203139324339342e3230393120313932203936206102948201527f3139302e32303920393620313838433936203138352e3739312039342e3230396102b48201527f3120313834203932203138344338392e3739303920313834203838203138352e6102d48201527f37393120383820313838433838203139302e3230392038392e373930392031396102f48201527f32203932203139325a222066696c6c3d2223393337344646222f3e0000000000610314820152600061032f8201611308565b7f3c7376672077696474683d2232393022206865696768743d223530302220766981527f6577426f783d2230203020323930203530302220786d6c6e733d22687474703a60208201527f2f2f7777772e77332e6f72672f323030302f7376672220786d6c6e733a786c6960408201527f6e6b3d22687474703a2f2f7777772e77332e6f72672f313939392f786c696e6b60608201527f223e00000000000000000000000000000000000000000000000000000000000060808201526000835161563681608285016020880161573b565b83519083019061564d81608284016020880161573b565b01608201949350505050565b602081526000825180602084015261567881604085016020870161573b565b601f01601f19169190910160400192915050565b6000821982111561569f5761569f6157b1565b500190565b600063ffffffff8083168185168083038211156156c3576156c36157b1565b01949350505050565b600060ff821660ff84168060ff038211156156e9576156e96157b1565b019392505050565b600082615700576157006157c7565b500490565b600081600019048311821515161561571f5761571f6157b1565b500290565b600082821015615736576157366157b1565b500390565b60005b8381101561575657818101518382015260200161573e565b83811115615765576000848401525b50505050565b60008161577a5761577a6157b1565b506000190190565b6000600019821415615796576157966157b1565b5060010190565b6000826157ac576157ac6157c7565b500690565b634e487b7160e01b600052601160045260246000fd5b634e487b7160e01b600052601260045260246000fd5b634e487b7160e01b600052604160045260246000fd5b6001600160a01b038116811461580857600080fd5b5056fe4142434445464748494a4b4c4d4e4f505152535455565758595a6162636465666768696a6b6c6d6e6f707172737475767778797a303132333435363738392b2fa26469706673582212205866c90a72e38783b785232a1185edd6e3cdeda9f8247b6aad124d5b3055f72764736f6c63430008040033",
  "linkReferences": {},
  "deployedLinkReferences": {}
}