{"contracts/adapters/vesting/contracts/flat/BentoBoxV1Flat.sol":{"BentoBoxV1":{"abi":[{"inputs":[],"stateMutability":"nonpayable","type":"constructor"},{"anonymous":false,"inputs":[{"indexed":true,"internalType":"address","name":"masterContract","type":"address"},{"indexed":false,"internalType":"bytes","name":"data","type":"bytes"},{"indexed":true,"internalType":"address","name":"cloneAddress","type":"address"}],"name":"LogDeploy","type":"event"},{"anonymous":false,"inputs":[{"indexed":true,"internalType":"contract IERC20","name":"token","type":"address"},{"indexed":true,"internalType":"address","name":"from","type":"address"},{"indexed":true,"internalType":"address","name":"to","type":"address"},{"indexed":false,"internalType":"uint256","name":"amount","type":"uint256"},{"indexed":false,"internalType":"uint256","name":"share","type":"uint256"}],"name":"LogDeposit","type":"event"},{"anonymous":false,"inputs":[{"indexed":true,"internalType":"address","name":"borrower","type":"address"},{"indexed":true,"internalType":"contract IERC20","name":"token","type":"address"},{"indexed":false,"internalType":"uint256","name":"amount","type":"uint256"},{"indexed":false,"internalType":"uint256","name":"feeAmount","type":"uint256"},{"indexed":true,"internalType":"address","name":"receiver","type":"address"}],"name":"LogFlashLoan","type":"event"},{"anonymous":false,"inputs":[{"indexed":true,"internalType":"address","name":"protocol","type":"address"}],"name":"LogRegisterProtocol","type":"event"},{"anonymous":false,"inputs":[{"indexed":true,"internalType":"address","name":"masterContract","type":"address"},{"indexed":true,"internalType":"address","name":"user","type":"address"},{"indexed":false,"internalType":"bool","name":"approved","type":"bool"}],"name":"LogSetMasterContractApproval","type":"event"},{"anonymous":false,"inputs":[{"indexed":true,"internalType":"contract IERC20","name":"token","type":"address"},{"indexed":false,"internalType":"uint256","name":"amount","type":"uint256"}],"name":"LogStrategyDivest","type":"event"},{"anonymous":false,"inputs":[{"indexed":true,"internalType":"contract IERC20","name":"token","type":"address"},{"indexed":false,"internalType":"uint256","name":"amount","type":"uint256"}],"name":"LogStrategyInvest","type":"event"},{"anonymous":false,"inputs":[{"indexed":true,"internalType":"contract IERC20","name":"token","type":"address"},{"indexed":false,"internalType":"uint256","name":"amount","type":"uint256"}],"name":"LogStrategyLoss","type":"event"},{"anonymous":false,"inputs":[{"indexed":true,"internalType":"contract IERC20","name":"token","type":"address"},{"indexed":false,"internalType":"uint256","name":"amount","type":"uint256"}],"name":"LogStrategyProfit","type":"event"},{"anonymous":false,"inputs":[{"indexed":true,"internalType":"contract IERC20","name":"token","type":"address"},{"indexed":true,"internalType":"contract IStrategy","name":"strategy","type":"address"}],"name":"LogStrategyQueued","type":"event"},{"anonymous":false,"inputs":[{"indexed":true,"internalType":"contract IERC20","name":"token","type":"address"},{"indexed":true,"internalType":"contract IStrategy","name":"strategy","type":"address"}],"name":"LogStrategySet","type":"event"},{"anonymous":false,"inputs":[{"indexed":true,"internalType":"contract IERC20","name":"token","type":"address"},{"indexed":false,"internalType":"uint256","name":"targetPercentage","type":"uint256"}],"name":"LogStrategyTargetPercentage","type":"event"},{"anonymous":false,"inputs":[{"indexed":true,"internalType":"contract IERC20","name":"token","type":"address"},{"indexed":true,"internalType":"address","name":"from","type":"address"},{"indexed":true,"internalType":"address","name":"to","type":"address"},{"indexed":false,"internalType":"uint256","name":"share","type":"uint256"}],"name":"LogTransfer","type":"event"},{"anonymous":false,"inputs":[{"indexed":true,"internalType":"address","name":"masterContract","type":"address"},{"indexed":false,"internalType":"bool","name":"approved","type":"bool"}],"name":"LogWhiteListMasterContract","type":"event"},{"anonymous":false,"inputs":[{"indexed":true,"internalType":"contract IERC20","name":"token","type":"address"},{"indexed":true,"internalType":"address","name":"from","type":"address"},{"indexed":true,"internalType":"address","name":"to","type":"address"},{"indexed":false,"internalType":"uint256","name":"amount","type":"uint256"},{"indexed":false,"internalType":"uint256","name":"share","type":"uint256"}],"name":"LogWithdraw","type":"event"},{"anonymous":false,"inputs":[{"indexed":true,"internalType":"address","name":"previousOwner","type":"address"},{"indexed":true,"internalType":"address","name":"newOwner","type":"address"}],"name":"OwnershipTransferred","type":"event"},{"inputs":[],"name":"DOMAIN_SEPARATOR","outputs":[{"internalType":"bytes32","name":"","type":"bytes32"}],"stateMutability":"view","type":"function"},{"inputs":[{"internalType":"contract IERC20","name":"","type":"address"},{"internalType":"address","name":"","type":"address"}],"name":"balanceOf","outputs":[{"internalType":"uint256","name":"","type":"uint256"}],"stateMutability":"view","type":"function"},{"inputs":[{"internalType":"bytes[]","name":"calls","type":"bytes[]"},{"internalType":"bool","name":"revertOnFail","type":"bool"}],"name":"batch","outputs":[{"internalType":"bool[]","name":"successes","type":"bool[]"},{"internalType":"bytes[]","name":"results","type":"bytes[]"}],"stateMutability":"payable","type":"function"},{"inputs":[],"name":"claimOwnership","outputs":[],"stateMutability":"nonpayable","type":"function"},{"inputs":[{"internalType":"address","name":"masterContract","type":"address"},{"internalType":"bytes","name":"data","type":"bytes"},{"internalType":"bool","name":"useCreate2","type":"bool"}],"name":"deploy","outputs":[{"internalType":"address","name":"cloneAddress","type":"address"}],"stateMutability":"payable","type":"function"},{"inputs":[{"internalType":"contract IERC20","name":"token_","type":"address"},{"internalType":"address","name":"from","type":"address"},{"internalType":"address","name":"to","type":"address"},{"internalType":"uint256","name":"amount","type":"uint256"},{"internalType":"uint256","name":"share","type":"uint256"}],"name":"deposit","outputs":[{"internalType":"uint256","name":"amountOut","type":"uint256"},{"internalType":"uint256","name":"shareOut","type":"uint256"}],"stateMutability":"payable","type":"function"},{"inputs":[{"internalType":"address","name":"","type":"address"},{"internalType":"address","name":"","type":"address"}],"name":"masterContractApproved","outputs":[{"internalType":"bool","name":"","type":"bool"}],"stateMutability":"view","type":"function"},{"inputs":[{"internalType":"address","name":"","type":"address"}],"name":"masterContractOf","outputs":[{"internalType":"address","name":"","type":"address"}],"stateMutability":"view","type":"function"},{"inputs":[{"internalType":"address","name":"","type":"address"}],"name":"nonces","outputs":[{"internalType":"uint256","name":"","type":"uint256"}],"stateMutability":"view","type":"function"},{"inputs":[],"name":"owner","outputs":[{"internalType":"address","name":"","type":"address"}],"stateMutability":"view","type":"function"},{"inputs":[],"name":"pendingOwner","outputs":[{"internalType":"address","name":"","type":"address"}],"stateMutability":"view","type":"function"},{"inputs":[{"internalType":"contract IERC20","name":"","type":"address"}],"name":"pendingStrategy","outputs":[{"internalType":"contract IStrategy","name":"","type":"address"}],"stateMutability":"view","type":"function"},{"inputs":[{"internalType":"contract IERC20","name":"token","type":"address"},{"internalType":"address","name":"from","type":"address"},{"internalType":"address","name":"to","type":"address"},{"internalType":"uint256","name":"amount","type":"uint256"},{"internalType":"uint256","name":"deadline","type":"uint256"},{"internalType":"uint8","name":"v","type":"uint8"},{"internalType":"bytes32","name":"r","type":"bytes32"},{"internalType":"bytes32","name":"s","type":"bytes32"}],"name":"permitToken","outputs":[],"stateMutability":"nonpayable","type":"function"},{"inputs":[],"name":"registerProtocol","outputs":[],"stateMutability":"nonpayable","type":"function"},{"inputs":[{"internalType":"address","name":"user","type":"address"},{"internalType":"address","name":"masterContract","type":"address"},{"internalType":"bool","name":"approved","type":"bool"},{"internalType":"uint8","name":"v","type":"uint8"},{"internalType":"bytes32","name":"r","type":"bytes32"},{"internalType":"bytes32","name":"s","type":"bytes32"}],"name":"setMasterContractApproval","outputs":[],"stateMutability":"nonpayable","type":"function"},{"inputs":[{"internalType":"contract IERC20","name":"token","type":"address"},{"internalType":"contract IStrategy","name":"newStrategy","type":"address"}],"name":"setStrategy","outputs":[],"stateMutability":"nonpayable","type":"function"},{"inputs":[{"internalType":"contract IERC20","name":"token","type":"address"},{"internalType":"uint64","name":"targetPercentage_","type":"uint64"}],"name":"setStrategyTargetPercentage","outputs":[],"stateMutability":"nonpayable","type":"function"},{"inputs":[{"internalType":"contract IERC20","name":"","type":"address"}],"name":"strategy","outputs":[{"internalType":"contract IStrategy","name":"","type":"address"}],"stateMutability":"view","type":"function"},{"inputs":[{"internalType":"contract IERC20","name":"","type":"address"}],"name":"strategyData","outputs":[{"internalType":"uint64","name":"strategyStartDate","type":"uint64"},{"internalType":"uint64","name":"targetPercentage","type":"uint64"},{"internalType":"uint128","name":"balance","type":"uint128"}],"stateMutability":"view","type":"function"},{"inputs":[{"internalType":"contract IERC20","name":"token","type":"address"},{"internalType":"uint256","name":"share","type":"uint256"},{"internalType":"bool","name":"roundUp","type":"bool"}],"name":"toAmount","outputs":[{"internalType":"uint256","name":"amount","type":"uint256"}],"stateMutability":"view","type":"function"},{"inputs":[{"internalType":"contract IERC20","name":"token","type":"address"},{"internalType":"uint256","name":"amount","type":"uint256"},{"internalType":"bool","name":"roundUp","type":"bool"}],"name":"toShare","outputs":[{"internalType":"uint256","name":"share","type":"uint256"}],"stateMutability":"view","type":"function"},{"inputs":[{"internalType":"contract IERC20","name":"","type":"address"}],"name":"totals","outputs":[{"internalType":"uint128","name":"elastic","type":"uint128"},{"internalType":"uint128","name":"base","type":"uint128"}],"stateMutability":"view","type":"function"},{"inputs":[{"internalType":"contract IERC20","name":"token","type":"address"},{"internalType":"address","name":"from","type":"address"},{"internalType":"address","name":"to","type":"address"},{"internalType":"uint256","name":"share","type":"uint256"}],"name":"transfer","outputs":[],"stateMutability":"nonpayable","type":"function"},{"inputs":[{"internalType":"contract IERC20","name":"token","type":"address"},{"internalType":"address","name":"from","type":"address"},{"internalType":"address[]","name":"tos","type":"address[]"},{"internalType":"uint256[]","name":"shares","type":"uint256[]"}],"name":"transferMultiple","outputs":[],"stateMutability":"nonpayable","type":"function"},{"inputs":[{"internalType":"address","name":"newOwner","type":"address"},{"internalType":"bool","name":"direct","type":"bool"},{"internalType":"bool","name":"renounce","type":"bool"}],"name":"transferOwnership","outputs":[],"stateMutability":"nonpayable","type":"function"},{"inputs":[{"internalType":"address","name":"masterContract","type":"address"},{"internalType":"bool","name":"approved","type":"bool"}],"name":"whitelistMasterContract","outputs":[],"stateMutability":"nonpayable","type":"function"},{"inputs":[{"internalType":"address","name":"","type":"address"}],"name":"whitelistedMasterContracts","outputs":[{"internalType":"bool","name":"","type":"bool"}],"stateMutability":"view","type":"function"},{"inputs":[{"internalType":"contract IERC20","name":"token_","type":"address"},{"internalType":"address","name":"from","type":"address"},{"internalType":"address","name":"to","type":"address"},{"internalType":"uint256","name":"amount","type":"uint256"},{"internalType":"uint256","name":"share","type":"uint256"}],"name":"withdraw","outputs":[{"internalType":"uint256","name":"amountOut","type":"uint256"},{"internalType":"uint256","name":"shareOut","type":"uint256"}],"stateMutability":"nonpayable","type":"function"},{"stateMutability":"payable","type":"receive"}],"evm":{"bytecode":{"linkReferences":{},"object":"60e06040523480156200001157600080fd5b50600080546001600160a01b0319163390811782556040519091907f8be0079c531659141344cd1fd0a4f28419497f9722a3daafe3b4186f6b6457e0908290a34660a0819052620000628162000071565b60805250600060c0526200010d565b60007f8cad95687ba82c2ce50e74f7b754645e5117c3a5bec8151c0726d5857980a8667fd7df266aff736d415a9dc14b4158201d612e70d75b9c7f4e375ccfd20aa5166f8330604051602001620000cc9493929190620000e9565b604051602081830303815290604052805190602001209050919050565b938452602084019290925260408301526001600160a01b0316606082015260800190565b60805160a05160c05160601c6141766200014c600039806105d352806109a95280611fcc52806122295250806112f552508061132a52506141766000f3fe6080604052600436106101bb5760003560e01c80637c516e94116100ec578063c0a47c931161008a578063df23b45b11610064578063df23b45b146104d0578063e30c3978146104ff578063f18d03cc14610514578063f7888aec14610534576101c2565b8063c0a47c931461046f578063d2423b511461048f578063da5139ca146104b0576101c2565b806391e0eab5116100c657806391e0eab5146103fa57806397da6d301461041a578063aee4d1b21461043a578063bafe4f141461044f576101c2565b80637c516e94146103a55780637ecebe00146103c55780638da5cb5b146103e5576101c2565b80633e2a9d4e116101595780635108a558116101335780635108a55814610325578063566231181461034557806372cb5d9714610365578063733a9d7c14610385576101c2565b80633e2a9d4e146102c25780634e71e0c8146102e25780634ffe34db146102f7576101c2565b806312a90c8a1161019557806312a90c8a146102335780631f54245b14610260578063228bfd9f146102805780633644e515146102a0576101c2565b806302b9446c146101c7578063078dfbe7146101f15780630fca884314610213576101c2565b366101c257005b600080fd5b6101da6101d5366004613600565b610554565b6040516101e8929190614021565b60405180910390f35b3480156101fd57600080fd5b5061021161020c36600461345b565b610afd565b005b34801561021f57600080fd5b5061021161022e3660046136e1565b610c88565b34801561023f57600080fd5b5061025361024e366004613368565b61104a565b6040516101e89190613a8c565b61027361026e3660046134a5565b61105f565b6040516101e8919061392c565b34801561028c57600080fd5b5061027361029b366004613368565b6112c8565b3480156102ac57600080fd5b506102b56112f0565b6040516101e89190613a97565b3480156102ce57600080fd5b506102116102dd3660046137a9565b611350565b3480156102ee57600080fd5b50610211611484565b34801561030357600080fd5b50610317610312366004613368565b61156a565b6040516101e8929190613ffe565b34801561033157600080fd5b50610273610340366004613368565b6115a6565b34801561035157600080fd5b506102b5610360366004613773565b6115ce565b34801561037157600080fd5b5061021161038036600461359e565b611645565b34801561039157600080fd5b506102116103a036600461342e565b611c44565b3480156103b157600080fd5b506102116103c036600461365a565b611d61565b3480156103d157600080fd5b506102b56103e0366004613368565b611dfb565b3480156103f157600080fd5b50610273611e0d565b34801561040657600080fd5b50610253610415366004613384565b611e29565b34801561042657600080fd5b506101da610435366004613600565b611e49565b34801561044657600080fd5b506102116123e8565b34801561045b57600080fd5b5061027361046a366004613368565b612447565b34801561047b57600080fd5b5061021161048a3660046133bc565b61246f565b6104a261049d366004613538565b61255b565b6040516101e89291906139f2565b3480156104bc57600080fd5b506102b56104cb366004613773565b612707565b3480156104dc57600080fd5b506104f06104eb366004613368565b612776565b6040516101e893929190614044565b34801561050b57600080fd5b506102736127cb565b34801561052057600080fd5b5061021161052f3660046135b0565b6127e7565b34801561054057600080fd5b506102b561054f36600461359e565b612a41565b60008073ffffffffffffffffffffffffffffffffffffffff85166105ad576040517f08c379a00000000000000000000000000000000000000000000000000000000081526004016105a490613d20565b60405180910390fd5b600073ffffffffffffffffffffffffffffffffffffffff8816156105d157876105f3565b7f00000000000000000000000000000000000000000000000000000000000000005b90506105fd6132e8565b5073ffffffffffffffffffffffffffffffffffffffff81166000908152600760209081526040918290208251808401909352546fffffffffffffffffffffffffffffffff80821680855270010000000000000000000000000000000090920416918301919091521515806106ee575060008273ffffffffffffffffffffffffffffffffffffffff166318160ddd6040518163ffffffff1660e01b815260040160206040518083038186803b1580156106b457600080fd5b505afa1580156106c8573d6000803e3d6000fd5b505050506040513d601f19601f820116820180604052508101906106ec91906137e2565b115b610724576040517f08c379a00000000000000000000000000000000000000000000000000000000081526004016105a490613c44565b8461078e5761073581876000612a5e565b94506103e861076361074687612b1c565b60208401516fffffffffffffffffffffffffffffffff1690612b6c565b6fffffffffffffffffffffffffffffffff16101561078957600080935093505050610af3565b61079d565b61079a81866001612bc4565b95505b73ffffffffffffffffffffffffffffffffffffffff8816301415806107d6575073ffffffffffffffffffffffffffffffffffffffff8916155b8061080757508051610803906fffffffffffffffffffffffffffffffff166107fd84612c67565b90612d4b565b8611155b61083d576040517f08c379a00000000000000000000000000000000000000000000000000000000081526004016105a490613b68565b73ffffffffffffffffffffffffffffffffffffffff8083166000908152600660209081526040808320938b168352929052205461087a9086612d88565b73ffffffffffffffffffffffffffffffffffffffff8084166000908152600660209081526040808320938c16835292905220556108d66108b986612b1c565b60208301516fffffffffffffffffffffffffffffffff1690612b6c565b6fffffffffffffffffffffffffffffffff1660208201526109136108f987612b1c565b82516fffffffffffffffffffffffffffffffff1690612b6c565b6fffffffffffffffffffffffffffffffff908116825273ffffffffffffffffffffffffffffffffffffffff808416600090815260076020908152604090912084518154928601518516700100000000000000000000000000000000029085167fffffffffffffffffffffffffffffffff0000000000000000000000000000000090931692909217909316179091558916610a2d577f000000000000000000000000000000000000000000000000000000000000000073ffffffffffffffffffffffffffffffffffffffff1663d0e30db0876040518263ffffffff1660e01b81526004016000604051808303818588803b158015610a0f57600080fd5b505af1158015610a23573d6000803e3d6000fd5b5050505050610a6c565b73ffffffffffffffffffffffffffffffffffffffff88163014610a6c57610a6c73ffffffffffffffffffffffffffffffffffffffff8316893089612dc5565b8673ffffffffffffffffffffffffffffffffffffffff168873ffffffffffffffffffffffffffffffffffffffff168373ffffffffffffffffffffffffffffffffffffffff167fb2346165e782564f17f5b7e555c21f4fd96fbc93458572bf0113ea35a958fc558989604051610ae2929190614021565b60405180910390a485935084925050505b9550959350505050565b60005473ffffffffffffffffffffffffffffffffffffffff163314610b4e576040517f08c379a00000000000000000000000000000000000000000000000000000000081526004016105a490613d8e565b8115610c425773ffffffffffffffffffffffffffffffffffffffff8316151580610b755750805b610bab576040517f08c379a00000000000000000000000000000000000000000000000000000000081526004016105a490613c0d565b6000805460405173ffffffffffffffffffffffffffffffffffffffff808716939216917f8be0079c531659141344cd1fd0a4f28419497f9722a3daafe3b4186f6b6457e091a36000805473ffffffffffffffffffffffffffffffffffffffff85167fffffffffffffffffffffffff000000000000000000000000000000000000000091821617909155600180549091169055610c83565b600180547fffffffffffffffffffffffff00000000000000000000000000000000000000001673ffffffffffffffffffffffffffffffffffffffff85161790555b505050565b8473ffffffffffffffffffffffffffffffffffffffff81163314801590610cc5575073ffffffffffffffffffffffffffffffffffffffff81163014155b15610d95573360009081526002602052604090205473ffffffffffffffffffffffffffffffffffffffff1680610d27576040517f08c379a00000000000000000000000000000000000000000000000000000000081526004016105a490613ed2565b73ffffffffffffffffffffffffffffffffffffffff80821660009081526003602090815260408083209386168352929052205460ff16610d93576040517f08c379a00000000000000000000000000000000000000000000000000000000081526004016105a490613dc3565b505b600085858281610da157fe5b9050602002016020810190610db69190613368565b73ffffffffffffffffffffffffffffffffffffffff161415610e04576040517f08c379a00000000000000000000000000000000000000000000000000000000081526004016105a490613ce9565b600084815b81811015610fc8576000888883818110610e1f57fe5b9050602002016020810190610e349190613368565b9050610ed7878784818110610e4557fe5b90506020020135600660008e73ffffffffffffffffffffffffffffffffffffffff1673ffffffffffffffffffffffffffffffffffffffff16815260200190815260200160002060008473ffffffffffffffffffffffffffffffffffffffff1673ffffffffffffffffffffffffffffffffffffffff16815260200190815260200160002054612d8890919063ffffffff16565b73ffffffffffffffffffffffffffffffffffffffff808d16600090815260066020908152604080832093861683529290522055610f2f878784818110610f1957fe5b9050602002013585612d8890919063ffffffff16565b93508073ffffffffffffffffffffffffffffffffffffffff168a73ffffffffffffffffffffffffffffffffffffffff168c73ffffffffffffffffffffffffffffffffffffffff167f6eabe333476233fd382224f233210cb808a7bc4c4de64f9d76628bf63c677b1a8a8a87818110610fa357fe5b90506020020135604051610fb79190613a97565b60405180910390a450600101610e09565b5073ffffffffffffffffffffffffffffffffffffffff808a166000908152600660209081526040808320938c16835292905220546110069083612d4b565b73ffffffffffffffffffffffffffffffffffffffff998a1660009081526006602090815260408083209b909c16825299909952989097209790975550505050505050565b60046020526000908152604090205460ff1681565b600073ffffffffffffffffffffffffffffffffffffffff85166110ae576040517f08c379a00000000000000000000000000000000000000000000000000000000081526004016105a490613e66565b606085901b821561113757600085856040516110cb9291906138fd565b604051809103902090506040517f3d602d80600a3d3981f3363d3d373d3d3d363d7300000000000000000000000081528260148201527f5af43d82803e903d91602b57fd5bf300000000000000000000000000000000006028820152816037826000f593505050611193565b6040517f3d602d80600a3d3981f3363d3d373d3d3d363d7300000000000000000000000081528160148201527f5af43d82803e903d91602b57fd5bf3000000000000000000000000000000000060288201526037816000f09250505b73ffffffffffffffffffffffffffffffffffffffff8281166000818152600260205260409081902080547fffffffffffffffffffffffff000000000000000000000000000000000000000016938a169390931790925590517f4ddf47d4000000000000000000000000000000000000000000000000000000008152634ddf47d49034906112269089908990600401613ad1565b6000604051808303818588803b15801561123f57600080fd5b505af1158015611253573d6000803e3d6000fd5b50505050508173ffffffffffffffffffffffffffffffffffffffff168673ffffffffffffffffffffffffffffffffffffffff167fd62166f3c2149208e51788b1401cc356bf5da1fc6c7886a32e18570f57d88b3b87876040516112b7929190613ad1565b60405180910390a350949350505050565b60086020526000908152604090205473ffffffffffffffffffffffffffffffffffffffff1681565b6000467f000000000000000000000000000000000000000000000000000000000000000081146113285761132381612f30565b61134a565b7f00000000000000000000000000000000000000000000000000000000000000005b91505090565b60005473ffffffffffffffffffffffffffffffffffffffff1633146113a1576040517f08c379a00000000000000000000000000000000000000000000000000000000081526004016105a490613d8e565b605f8167ffffffffffffffff1611156113e6576040517f08c379a00000000000000000000000000000000000000000000000000000000081526004016105a490613fac565b73ffffffffffffffffffffffffffffffffffffffff82166000818152600a60205260409081902080547fffffffffffffffffffffffffffffffff0000000000000000ffffffffffffffff166801000000000000000067ffffffffffffffff861602179055517f7543af99b5602c06e62da0631b5308489a5ff859150105a623b6eb15e8deae0b9061147890849061402f565b60405180910390a25050565b60015473ffffffffffffffffffffffffffffffffffffffff163381146114d6576040517f08c379a00000000000000000000000000000000000000000000000000000000081526004016105a490613dfa565b6000805460405173ffffffffffffffffffffffffffffffffffffffff808516939216917f8be0079c531659141344cd1fd0a4f28419497f9722a3daafe3b4186f6b6457e091a36000805473ffffffffffffffffffffffffffffffffffffffff9092167fffffffffffffffffffffffff0000000000000000000000000000000000000000928316179055600180549091169055565b6007602052600090815260409020546fffffffffffffffffffffffffffffffff8082169170010000000000000000000000000000000090041682565b60096020526000908152604090205473ffffffffffffffffffffffffffffffffffffffff1681565b73ffffffffffffffffffffffffffffffffffffffff831660009081526007602090815260408083208151808301909252546fffffffffffffffffffffffffffffffff8082168352700100000000000000000000000000000000909104169181019190915261163d908484612bc4565b949350505050565b60005473ffffffffffffffffffffffffffffffffffffffff163314611696576040517f08c379a00000000000000000000000000000000000000000000000000000000081526004016105a490613d8e565b61169e6132ff565b5073ffffffffffffffffffffffffffffffffffffffff8281166000818152600a602090815260408083208151606081018352905467ffffffffffffffff80821683526801000000000000000082048116838601527001000000000000000000000000000000009091046fffffffffffffffffffffffffffffffff168284015294845260099092529091205481519193169116158061176857508273ffffffffffffffffffffffffffffffffffffffff168173ffffffffffffffffffffffffffffffffffffffff1614155b156118205773ffffffffffffffffffffffffffffffffffffffff848116600090815260096020526040902080547fffffffffffffffffffffffff0000000000000000000000000000000000000000169185169190911790556117c942612fa7565b67ffffffffffffffff16825260405173ffffffffffffffffffffffffffffffffffffffff80851691908616907f6f7ccdf3f86039e5a1dcf6028bf7b4773cbf7a234716ba2e5392b12bb0f8558f90600090a3611b70565b815167ffffffffffffffff16158015906118455750815167ffffffffffffffff164210155b61187b576040517f08c379a00000000000000000000000000000000000000000000000000000000081526004016105a490613d57565b73ffffffffffffffffffffffffffffffffffffffff8481166000908152600860205260409020541615611ad45773ffffffffffffffffffffffffffffffffffffffff808516600090815260086020526040808220548582015191517f7f8661a100000000000000000000000000000000000000000000000000000000815292931691637f8661a19161190f91600401613fe1565b602060405180830381600087803b15801561192957600080fd5b505af115801561193d573d6000803e3d6000fd5b505050506040513d601f19601f8201168201806040525081019061196191906137e2565b905060008113156119f25773ffffffffffffffffffffffffffffffffffffffff85166000908152600760205260409020819061199d9082612feb565b508573ffffffffffffffffffffffffffffffffffffffff167f911c9f20a03edabcbcbd18dca1174cce47a91b234ced7a5a3c60ba0d5b56c5d2826040516119e49190613a97565b60405180910390a250611a80565b6000811215611a805773ffffffffffffffffffffffffffffffffffffffff851660009081526007602052604081209082900390611a2f9082613059565b508573ffffffffffffffffffffffffffffffffffffffff167f8f1f26eb9b6aa8689dbdd519ead1999d9c8819d4738e403b2003b18197d9cf9782604051611a769190613a97565b60405180910390a2505b8473ffffffffffffffffffffffffffffffffffffffff167f39aa22060f8dd4d291720311feedf3b72fef47c06c66ccf5c22b502c62e7550a8460400151604051611aca9190613fe1565b60405180910390a2505b73ffffffffffffffffffffffffffffffffffffffff808516600081815260086020908152604080832080548688167fffffffffffffffffffffffff0000000000000000000000000000000000000000918216179091558388528782018490528484526009909252808320805490921690915551928616927f03e6352a885adc4cc54767592939c3b1bbd65685658c3beaaba66a888120e2179190a35b5073ffffffffffffffffffffffffffffffffffffffff929092166000908152600a6020908152604091829020845181549286015193909501517fffffffffffffffffffffffffffffffffffffffffffffffff000000000000000090921667ffffffffffffffff958616177fffffffffffffffffffffffffffffffff0000000000000000ffffffffffffffff16680100000000000000009590931694909402919091176fffffffffffffffffffffffffffffffff90811670010000000000000000000000000000000091909216021790915550565b60005473ffffffffffffffffffffffffffffffffffffffff163314611c95576040517f08c379a00000000000000000000000000000000000000000000000000000000081526004016105a490613d8e565b73ffffffffffffffffffffffffffffffffffffffff8216611ce2576040517f08c379a00000000000000000000000000000000000000000000000000000000081526004016105a490613b9f565b73ffffffffffffffffffffffffffffffffffffffff82166000818152600460205260409081902080547fffffffffffffffffffffffffffffffffffffffffffffffffffffffffffffff0016841515179055517f31a1e0eac44b54ac6c2a2efa87e92c83405ffcf33fceef02a7bca695130e260090611478908490613a8c565b6040517fd505accf00000000000000000000000000000000000000000000000000000000815273ffffffffffffffffffffffffffffffffffffffff89169063d505accf90611dbf908a908a908a908a908a908a908a9060040161397e565b600060405180830381600087803b158015611dd957600080fd5b505af1158015611ded573d6000803e3d6000fd5b505050505050505050505050565b60056020526000908152604090205481565b60005473ffffffffffffffffffffffffffffffffffffffff1681565b600360209081526000928352604080842090915290825290205460ff1681565b6000808573ffffffffffffffffffffffffffffffffffffffff81163314801590611e89575073ffffffffffffffffffffffffffffffffffffffff81163014155b15611f59573360009081526002602052604090205473ffffffffffffffffffffffffffffffffffffffff1680611eeb576040517f08c379a00000000000000000000000000000000000000000000000000000000081526004016105a490613ed2565b73ffffffffffffffffffffffffffffffffffffffff80821660009081526003602090815260408083209386168352929052205460ff16611f57576040517f08c379a00000000000000000000000000000000000000000000000000000000081526004016105a490613dc3565b505b73ffffffffffffffffffffffffffffffffffffffff8616611fa6576040517f08c379a00000000000000000000000000000000000000000000000000000000081526004016105a490613d20565b600073ffffffffffffffffffffffffffffffffffffffff891615611fca5788611fec565b7f00000000000000000000000000000000000000000000000000000000000000005b9050611ff66132e8565b5073ffffffffffffffffffffffffffffffffffffffff81166000908152600760209081526040918290208251808401909352546fffffffffffffffffffffffffffffffff80821684527001000000000000000000000000000000009091041690820152856120715761206a81886001612a5e565b9550612080565b61207d81876000612bc4565b96505b73ffffffffffffffffffffffffffffffffffffffff8083166000908152600660209081526040808320938d16835292905220546120bd9087612d4b565b73ffffffffffffffffffffffffffffffffffffffff8084166000908152600660209081526040808320938e16835292905220556121166120fc88612b1c565b82516fffffffffffffffffffffffffffffffff169061307d565b6fffffffffffffffffffffffffffffffff16815261215361213687612b1c565b60208301516fffffffffffffffffffffffffffffffff169061307d565b6fffffffffffffffffffffffffffffffff908116602080840191825273ffffffffffffffffffffffffffffffffffffffff8086166000908152600790925260409091208451815493518516700100000000000000000000000000000000029085167fffffffffffffffffffffffffffffffff0000000000000000000000000000000090941693909317909316919091179091558a16612339576040517f2e1a7d4d00000000000000000000000000000000000000000000000000000000815273ffffffffffffffffffffffffffffffffffffffff7f00000000000000000000000000000000000000000000000000000000000000001690632e1a7d4d9061225e908a90600401613a97565b600060405180830381600087803b15801561227857600080fd5b505af115801561228c573d6000803e3d6000fd5b5050505060008873ffffffffffffffffffffffffffffffffffffffff16886040516122b690613929565b60006040518083038185875af1925050503d80600081146122f3576040519150601f19603f3d011682016040523d82523d6000602084013e6122f8565b606091505b5050905080612333576040517f08c379a00000000000000000000000000000000000000000000000000000000081526004016105a490613f3e565b5061235a565b61235a73ffffffffffffffffffffffffffffffffffffffff831689896130cf565b8773ffffffffffffffffffffffffffffffffffffffff168973ffffffffffffffffffffffffffffffffffffffff168373ffffffffffffffffffffffffffffffffffffffff167fad9ab9ee6953d4d177f4a03b3a3ac3178ffcb9816319f348060194aa76b144868a8a6040516123d0929190614021565b60405180910390a45094989397509295505050505050565b3360008181526002602052604080822080547fffffffffffffffffffffffff00000000000000000000000000000000000000001684179055517fdfb44ffabf0d3a8f650d3ce43eff98f6d050e7ea1a396d5794f014e7dadabacb9190a2565b60026020526000908152604090205473ffffffffffffffffffffffffffffffffffffffff1681565b73ffffffffffffffffffffffffffffffffffffffff85166124bc576040517f08c379a00000000000000000000000000000000000000000000000000000000081526004016105a490613e9b565b73ffffffffffffffffffffffffffffffffffffffff8581166000818152600360209081526040808320948b16808452949091529081902080547fffffffffffffffffffffffffffffffffffffffffffffffffffffffffffffff0016881515179055517f5f6ebb64ba012a851c6f014e6cad458ddf213d1512049b31cd06365c2b0592579061254b908890613a8c565b60405180910390a3505050505050565b6060808367ffffffffffffffff8111801561257557600080fd5b5060405190808252806020026020018201604052801561259f578160200160208202803683370190505b5091508367ffffffffffffffff811180156125b957600080fd5b506040519080825280602002602001820160405280156125ed57816020015b60608152602001906001900390816125d85790505b50905060005b848110156126fe57600060603088888581811061260c57fe5b905060200281019061261e919061407a565b60405161262c9291906138fd565b600060405180830381855af49150503d8060008114612667576040519150601f19603f3d011682016040523d82523d6000602084013e61266c565b606091505b5091509150818061267b575085155b61268482613237565b906126bc576040517f08c379a00000000000000000000000000000000000000000000000000000000081526004016105a49190613b1e565b50818584815181106126ca57fe5b602002602001019015159081151581525050808484815181106126e957fe5b602090810291909101015250506001016125f3565b50935093915050565b73ffffffffffffffffffffffffffffffffffffffff831660009081526007602090815260408083208151808301909252546fffffffffffffffffffffffffffffffff8082168352700100000000000000000000000000000000909104169181019190915261163d908484612a5e565b600a6020526000908152604090205467ffffffffffffffff808216916801000000000000000081049091169070010000000000000000000000000000000090046fffffffffffffffffffffffffffffffff1683565b60015473ffffffffffffffffffffffffffffffffffffffff1681565b8273ffffffffffffffffffffffffffffffffffffffff81163314801590612824575073ffffffffffffffffffffffffffffffffffffffff81163014155b156128f4573360009081526002602052604090205473ffffffffffffffffffffffffffffffffffffffff1680612886576040517f08c379a00000000000000000000000000000000000000000000000000000000081526004016105a490613ed2565b73ffffffffffffffffffffffffffffffffffffffff80821660009081526003602090815260408083209386168352929052205460ff166128f2576040517f08c379a00000000000000000000000000000000000000000000000000000000081526004016105a490613dc3565b505b73ffffffffffffffffffffffffffffffffffffffff8316612941576040517f08c379a00000000000000000000000000000000000000000000000000000000081526004016105a490613d20565b73ffffffffffffffffffffffffffffffffffffffff80861660009081526006602090815260408083209388168352929052205461297e9083612d4b565b73ffffffffffffffffffffffffffffffffffffffff8681166000908152600660209081526040808320898516845290915280822093909355908516815220546129c79083612d88565b73ffffffffffffffffffffffffffffffffffffffff80871660008181526006602090815260408083208986168085529252918290209490945551918716917f6eabe333476233fd382224f233210cb808a7bc4c4de64f9d76628bf63c677b1a90612a32908790613a97565b60405180910390a45050505050565b600660209081526000928352604080842090915290825290205481565b82516000906fffffffffffffffffffffffffffffffff16612a80575081612b15565b835160208501516fffffffffffffffffffffffffffffffff91821691612aa891869116613297565b81612aaf57fe5b049050818015612b0557508284602001516fffffffffffffffffffffffffffffffff16612afb86600001516fffffffffffffffffffffffffffffffff168461329790919063ffffffff16565b81612b0257fe5b04105b15612b155761163d816001612d88565b9392505050565b60006fffffffffffffffffffffffffffffffff821115612b68576040517f08c379a00000000000000000000000000000000000000000000000000000000081526004016105a490613c7b565b5090565b8181016fffffffffffffffffffffffffffffffff8083169082161015612bbe576040517f08c379a00000000000000000000000000000000000000000000000000000000081526004016105a490613cb2565b92915050565b600083602001516fffffffffffffffffffffffffffffffff1660001415612bec575081612b15565b602084015184516fffffffffffffffffffffffffffffffff91821691612c1491869116613297565b81612c1b57fe5b049050818015612b0557508284600001516fffffffffffffffffffffffffffffffff16612afb86602001516fffffffffffffffffffffffffffffffff168461329790919063ffffffff16565b73ffffffffffffffffffffffffffffffffffffffff81166000818152600a60205260408082205490517f70a082310000000000000000000000000000000000000000000000000000000081529192612bbe927001000000000000000000000000000000009092046fffffffffffffffffffffffffffffffff16916370a0823190612cf590309060040161392c565b60206040518083038186803b158015612d0d57600080fd5b505afa158015612d21573d6000803e3d6000fd5b505050506040513d601f19601f82011682018060405250810190612d4591906137e2565b90612d88565b80820382811115612bbe576040517f08c379a00000000000000000000000000000000000000000000000000000000081526004016105a490613b31565b81810181811015612bbe576040517f08c379a00000000000000000000000000000000000000000000000000000000081526004016105a490613cb2565b600060608573ffffffffffffffffffffffffffffffffffffffff166323b872dd60e01b868686604051602401612dfd9392919061394d565b604080517fffffffffffffffffffffffffffffffffffffffffffffffffffffffffffffffe08184030181529181526020820180517bffffffffffffffffffffffffffffffffffffffffffffffffffffffff167fffffffff00000000000000000000000000000000000000000000000000000000909416939093179092529051612e86919061390d565b6000604051808303816000865af19150503d8060008114612ec3576040519150601f19603f3d011682016040523d82523d6000602084013e612ec8565b606091505b5091509150818015612ef2575080511580612ef2575080806020019051810190612ef29190613582565b612f28576040517f08c379a00000000000000000000000000000000000000000000000000000000081526004016105a490613f09565b505050505050565b60007f8cad95687ba82c2ce50e74f7b754645e5117c3a5bec8151c0726d5857980a8667fd7df266aff736d415a9dc14b4158201d612e70d75b9c7f4e375ccfd20aa5166f8330604051602001612f899493929190613aa0565b6040516020818303038152906040528051906020012090505b919050565b600067ffffffffffffffff821115612b68576040517f08c379a00000000000000000000000000000000000000000000000000000000081526004016105a490613e2f565b6000613013612ff983612b1c565b84546fffffffffffffffffffffffffffffffff1690612b6c565b83547fffffffffffffffffffffffffffffffff00000000000000000000000000000000166fffffffffffffffffffffffffffffffff919091169081179093555090919050565b600061301361306783612b1c565b84546fffffffffffffffffffffffffffffffff16905b8082036fffffffffffffffffffffffffffffffff8084169082161115612bbe576040517f08c379a00000000000000000000000000000000000000000000000000000000081526004016105a490613b31565b600060608473ffffffffffffffffffffffffffffffffffffffff1663a9059cbb60e01b85856040516024016131059291906139cc565b604080517fffffffffffffffffffffffffffffffffffffffffffffffffffffffffffffffe08184030181529181526020820180517bffffffffffffffffffffffffffffffffffffffffffffffffffffffff167fffffffff0000000000000000000000000000000000000000000000000000000090941693909317909252905161318e919061390d565b6000604051808303816000865af19150503d80600081146131cb576040519150601f19603f3d011682016040523d82523d6000602084013e6131d0565b606091505b50915091508180156131fa5750805115806131fa5750808060200190518101906131fa9190613582565b613230576040517f08c379a00000000000000000000000000000000000000000000000000000000081526004016105a490613bd6565b5050505050565b606060448251101561327d575060408051808201909152601d81527f5472616e73616374696f6e2072657665727465642073696c656e746c790000006020820152612fa2565b60048201915081806020019051810190612bbe91906137fa565b60008115806132b2575050808202828282816132af57fe5b04145b612bbe576040517f08c379a00000000000000000000000000000000000000000000000000000000081526004016105a490613f75565b604080518082019091526000808252602082015290565b604080516060810182526000808252602082018190529181019190915290565b60008083601f840112613330578182fd5b50813567ffffffffffffffff811115613347578182fd5b602083019150836020808302850101111561336157600080fd5b9250929050565b600060208284031215613379578081fd5b8135612b158161410d565b60008060408385031215613396578081fd5b82356133a18161410d565b915060208301356133b18161410d565b809150509250929050565b60008060008060008060c087890312156133d4578182fd5b86356133df8161410d565b955060208701356133ef8161410d565b945060408701356133ff81614132565b9350606087013560ff81168114613414578283fd5b9598949750929560808101359460a0909101359350915050565b60008060408385031215613440578182fd5b823561344b8161410d565b915060208301356133b181614132565b60008060006060848603121561346f578283fd5b833561347a8161410d565b9250602084013561348a81614132565b9150604084013561349a81614132565b809150509250925092565b600080600080606085870312156134ba578384fd5b84356134c58161410d565b9350602085013567ffffffffffffffff808211156134e1578485fd5b818701915087601f8301126134f4578485fd5b813581811115613502578586fd5b886020828501011115613513578586fd5b602083019550809450505050604085013561352d81614132565b939692955090935050565b60008060006040848603121561354c578283fd5b833567ffffffffffffffff811115613562578384fd5b61356e8682870161331f565b909450925050602084013561349a81614132565b600060208284031215613593578081fd5b8151612b1581614132565b60008060408385031215613396578182fd5b600080600080608085870312156135c5578182fd5b84356135d08161410d565b935060208501356135e08161410d565b925060408501356135f08161410d565b9396929550929360600135925050565b600080600080600060a08688031215613617578283fd5b85356136228161410d565b945060208601356136328161410d565b935060408601356136428161410d565b94979396509394606081013594506080013592915050565b600080600080600080600080610100898b031215613676578586fd5b88356136818161410d565b975060208901356136918161410d565b965060408901356136a18161410d565b9550606089013594506080890135935060a089013560ff811681146136c4578283fd5b979a969950949793969295929450505060c08201359160e0013590565b600080600080600080608087890312156136f9578384fd5b86356137048161410d565b955060208701356137148161410d565b9450604087013567ffffffffffffffff80821115613730578586fd5b61373c8a838b0161331f565b90965094506060890135915080821115613754578384fd5b5061376189828a0161331f565b979a9699509497509295939492505050565b600080600060608486031215613787578081fd5b83356137928161410d565b925060208401359150604084013561349a81614132565b600080604083850312156137bb578182fd5b82356137c68161410d565b9150602083013567ffffffffffffffff811681146133b1578182fd5b6000602082840312156137f3578081fd5b5051919050565b60006020828403121561380b578081fd5b815167ffffffffffffffff80821115613822578283fd5b818401915084601f830112613835578283fd5b815181811115613843578384fd5b60405160207fffffffffffffffffffffffffffffffffffffffffffffffffffffffffffffffe0601f8401168201018181108482111715613881578586fd5b604052818152838201602001871015613898578485fd5b6138a98260208301602087016140dd565b9695505050505050565b600081518084526138cb8160208601602086016140dd565b601f017fffffffffffffffffffffffffffffffffffffffffffffffffffffffffffffffe0169290920160200192915050565b6000828483379101908152919050565b6000825161391f8184602087016140dd565b9190910192915050565b90565b73ffffffffffffffffffffffffffffffffffffffff91909116815260200190565b73ffffffffffffffffffffffffffffffffffffffff9384168152919092166020820152604081019190915260600190565b73ffffffffffffffffffffffffffffffffffffffff97881681529590961660208601526040850193909352606084019190915260ff16608083015260a082015260c081019190915260e00190565b73ffffffffffffffffffffffffffffffffffffffff929092168252602082015260400190565b604080825283519082018190526000906020906060840190828701845b82811015613a2d578151151584529284019290840190600101613a0f565b50505083810382850152808551613a448184613a97565b91508192508381028201848801865b83811015613a7d578583038552613a6b8383516138b3565b94870194925090860190600101613a53565b50909998505050505050505050565b901515815260200190565b90815260200190565b9384526020840192909252604083015273ffffffffffffffffffffffffffffffffffffffff16606082015260800190565b60006020825282602083015282846040840137818301604090810191909152601f9092017fffffffffffffffffffffffffffffffffffffffffffffffffffffffffffffffe0160101919050565b600060208252612b1560208301846138b3565b60208082526015908201527f426f72696e674d6174683a20556e646572666c6f770000000000000000000000604082015260600190565b60208082526017908201527f42656e746f426f783a20536b696d20746f6f206d756368000000000000000000604082015260600190565b6020808252601c908201527f4d6173746572434d67723a2043616e6e6f7420617070726f7665203000000000604082015260600190565b6020808252601c908201527f426f72696e6745524332303a205472616e73666572206661696c656400000000604082015260600190565b60208082526015908201527f4f776e61626c653a207a65726f20616464726573730000000000000000000000604082015260600190565b60208082526013908201527f42656e746f426f783a204e6f20746f6b656e7300000000000000000000000000604082015260600190565b6020808252601c908201527f426f72696e674d6174683a2075696e74313238204f766572666c6f7700000000604082015260600190565b60208082526018908201527f426f72696e674d6174683a20416464204f766572666c6f770000000000000000604082015260600190565b60208082526017908201527f42656e746f426f783a20746f5b305d206e6f7420736574000000000000000000604082015260600190565b60208082526014908201527f42656e746f426f783a20746f206e6f7420736574000000000000000000000000604082015260600190565b6020808252601a908201527f53747261746567794d616e616765723a20546f6f206561726c79000000000000604082015260600190565b6020808252818101527f4f776e61626c653a2063616c6c6572206973206e6f7420746865206f776e6572604082015260600190565b6020808252601f908201527f42656e746f426f783a205472616e73666572206e6f7420617070726f76656400604082015260600190565b6020808252818101527f4f776e61626c653a2063616c6c657220213d2070656e64696e67206f776e6572604082015260600190565b6020808252601b908201527f426f72696e674d6174683a2075696e743634204f766572666c6f770000000000604082015260600190565b6020808252818101527f426f72696e67466163746f72793a204e6f206d6173746572436f6e7472616374604082015260600190565b6020808252601b908201527f4d6173746572434d67723a206d617374657243206e6f74207365740000000000604082015260600190565b6020808252601b908201527f42656e746f426f783a206e6f206d6173746572436f6e74726163740000000000604082015260600190565b6020808252818101527f426f72696e6745524332303a205472616e7366657246726f6d206661696c6564604082015260600190565b6020808252601d908201527f42656e746f426f783a20455448207472616e73666572206661696c6564000000604082015260600190565b60208082526018908201527f426f72696e674d6174683a204d756c204f766572666c6f770000000000000000604082015260600190565b6020808252818101527f53747261746567794d616e616765723a2054617267657420746f6f2068696768604082015260600190565b6fffffffffffffffffffffffffffffffff91909116815260200190565b6fffffffffffffffffffffffffffffffff92831681529116602082015260400190565b918252602082015260400190565b67ffffffffffffffff91909116815260200190565b67ffffffffffffffff93841681529190921660208201526fffffffffffffffffffffffffffffffff909116604082015260600190565b60008083357fffffffffffffffffffffffffffffffffffffffffffffffffffffffffffffffe18436030181126140ae578283fd5b83018035915067ffffffffffffffff8211156140c8578283fd5b60200191503681900382131561336157600080fd5b60005b838110156140f85781810151838201526020016140e0565b83811115614107576000848401525b50505050565b73ffffffffffffffffffffffffffffffffffffffff8116811461412f57600080fd5b50565b801515811461412f57600080fdfea264697066735822122042f5d70525048103373e3ac7303790a2bc754c4046c091b9841f419602305cdf64736f6c634300060c0033","opcodes":"PUSH1 0xE0 PUSH1 0x40 MSTORE CALLVALUE DUP1 ISZERO PUSH3 0x11 JUMPI PUSH1 0x0 DUP1 REVERT JUMPDEST POP PUSH1 0x0 DUP1 SLOAD PUSH1 0x1 PUSH1 0x1 PUSH1 0xA0 SHL SUB NOT AND CALLER SWAP1 DUP2 OR DUP3 SSTORE PUSH1 0x40 MLOAD SWAP1 SWAP2 SWAP1 PUSH32 0x8BE0079C531659141344CD1FD0A4F28419497F9722A3DAAFE3B4186F6B6457E0 SWAP1 DUP3 SWAP1 LOG3 CHAINID PUSH1 0xA0 DUP2 SWAP1 MSTORE PUSH3 0x62 DUP2 PUSH3 0x71 JUMP JUMPDEST PUSH1 0x80 MSTORE POP PUSH1 0x0 PUSH1 0xC0 MSTORE PUSH3 0x10D JUMP JUMPDEST PUSH1 0x0 PUSH32 0x8CAD95687BA82C2CE50E74F7B754645E5117C3A5BEC8151C0726D5857980A866 PUSH32 0xD7DF266AFF736D415A9DC14B4158201D612E70D75B9C7F4E375CCFD20AA5166F DUP4 ADDRESS PUSH1 0x40 MLOAD PUSH1 0x20 ADD PUSH3 0xCC SWAP5 SWAP4 SWAP3 SWAP2 SWAP1 PUSH3 0xE9 JUMP JUMPDEST PUSH1 0x40 MLOAD PUSH1 0x20 DUP2 DUP4 SUB SUB DUP2 MSTORE SWAP1 PUSH1 0x40 MSTORE DUP1 MLOAD SWAP1 PUSH1 0x20 ADD KECCAK256 SWAP1 POP SWAP2 SWAP1 POP JUMP JUMPDEST SWAP4 DUP5 MSTORE PUSH1 0x20 DUP5 ADD SWAP3 SWAP1 SWAP3 MSTORE PUSH1 0x40 DUP4 ADD MSTORE PUSH1 0x1 PUSH1 0x1 PUSH1 0xA0 SHL SUB AND PUSH1 0x60 DUP3 ADD MSTORE PUSH1 0x80 ADD SWAP1 JUMP JUMPDEST PUSH1 0x80 MLOAD PUSH1 0xA0 MLOAD PUSH1 0xC0 MLOAD PUSH1 0x60 SHR PUSH2 0x4176 PUSH3 0x14C PUSH1 0x0 CODECOPY DUP1 PUSH2 0x5D3 MSTORE DUP1 PUSH2 0x9A9 MSTORE DUP1 PUSH2 0x1FCC MSTORE DUP1 PUSH2 0x2229 MSTORE POP DUP1 PUSH2 0x12F5 MSTORE POP DUP1 PUSH2 0x132A MSTORE POP PUSH2 0x4176 PUSH1 0x0 RETURN INVALID PUSH1 0x80 PUSH1 0x40 MSTORE PUSH1 0x4 CALLDATASIZE LT PUSH2 0x1BB JUMPI PUSH1 0x0 CALLDATALOAD PUSH1 0xE0 SHR DUP1 PUSH4 0x7C516E94 GT PUSH2 0xEC JUMPI DUP1 PUSH4 0xC0A47C93 GT PUSH2 0x8A JUMPI DUP1 PUSH4 0xDF23B45B GT PUSH2 0x64 JUMPI DUP1 PUSH4 0xDF23B45B EQ PUSH2 0x4D0 JUMPI DUP1 PUSH4 0xE30C3978 EQ PUSH2 0x4FF JUMPI DUP1 PUSH4 0xF18D03CC EQ PUSH2 0x514 JUMPI DUP1 PUSH4 0xF7888AEC EQ PUSH2 0x534 JUMPI PUSH2 0x1C2 JUMP JUMPDEST DUP1 PUSH4 0xC0A47C93 EQ PUSH2 0x46F JUMPI DUP1 PUSH4 0xD2423B51 EQ PUSH2 0x48F JUMPI DUP1 PUSH4 0xDA5139CA EQ PUSH2 0x4B0 JUMPI PUSH2 0x1C2 JUMP JUMPDEST DUP1 PUSH4 0x91E0EAB5 GT PUSH2 0xC6 JUMPI DUP1 PUSH4 0x91E0EAB5 EQ PUSH2 0x3FA JUMPI DUP1 PUSH4 0x97DA6D30 EQ PUSH2 0x41A JUMPI DUP1 PUSH4 0xAEE4D1B2 EQ PUSH2 0x43A JUMPI DUP1 PUSH4 0xBAFE4F14 EQ PUSH2 0x44F JUMPI PUSH2 0x1C2 JUMP JUMPDEST DUP1 PUSH4 0x7C516E94 EQ PUSH2 0x3A5 JUMPI DUP1 PUSH4 0x7ECEBE00 EQ PUSH2 0x3C5 JUMPI DUP1 PUSH4 0x8DA5CB5B EQ PUSH2 0x3E5 JUMPI PUSH2 0x1C2 JUMP JUMPDEST DUP1 PUSH4 0x3E2A9D4E GT PUSH2 0x159 JUMPI DUP1 PUSH4 0x5108A558 GT PUSH2 0x133 JUMPI DUP1 PUSH4 0x5108A558 EQ PUSH2 0x325 JUMPI DUP1 PUSH4 0x56623118 EQ PUSH2 0x345 JUMPI DUP1 PUSH4 0x72CB5D97 EQ PUSH2 0x365 JUMPI DUP1 PUSH4 0x733A9D7C EQ PUSH2 0x385 JUMPI PUSH2 0x1C2 JUMP JUMPDEST DUP1 PUSH4 0x3E2A9D4E EQ PUSH2 0x2C2 JUMPI DUP1 PUSH4 0x4E71E0C8 EQ PUSH2 0x2E2 JUMPI DUP1 PUSH4 0x4FFE34DB EQ PUSH2 0x2F7 JUMPI PUSH2 0x1C2 JUMP JUMPDEST DUP1 PUSH4 0x12A90C8A GT PUSH2 0x195 JUMPI DUP1 PUSH4 0x12A90C8A EQ PUSH2 0x233 JUMPI DUP1 PUSH4 0x1F54245B EQ PUSH2 0x260 JUMPI DUP1 PUSH4 0x228BFD9F EQ PUSH2 0x280 JUMPI DUP1 PUSH4 0x3644E515 EQ PUSH2 0x2A0 JUMPI PUSH2 0x1C2 JUMP JUMPDEST DUP1 PUSH4 0x2B9446C EQ PUSH2 0x1C7 JUMPI DUP1 PUSH4 0x78DFBE7 EQ PUSH2 0x1F1 JUMPI DUP1 PUSH4 0xFCA8843 EQ PUSH2 0x213 JUMPI PUSH2 0x1C2 JUMP JUMPDEST CALLDATASIZE PUSH2 0x1C2 JUMPI STOP JUMPDEST PUSH1 0x0 DUP1 REVERT JUMPDEST PUSH2 0x1DA PUSH2 0x1D5 CALLDATASIZE PUSH1 0x4 PUSH2 0x3600 JUMP JUMPDEST PUSH2 0x554 JUMP JUMPDEST PUSH1 0x40 MLOAD PUSH2 0x1E8 SWAP3 SWAP2 SWAP1 PUSH2 0x4021 JUMP JUMPDEST PUSH1 0x40 MLOAD DUP1 SWAP2 SUB SWAP1 RETURN JUMPDEST CALLVALUE DUP1 ISZERO PUSH2 0x1FD JUMPI PUSH1 0x0 DUP1 REVERT JUMPDEST POP PUSH2 0x211 PUSH2 0x20C CALLDATASIZE PUSH1 0x4 PUSH2 0x345B JUMP JUMPDEST PUSH2 0xAFD JUMP JUMPDEST STOP JUMPDEST CALLVALUE DUP1 ISZERO PUSH2 0x21F JUMPI PUSH1 0x0 DUP1 REVERT JUMPDEST POP PUSH2 0x211 PUSH2 0x22E CALLDATASIZE PUSH1 0x4 PUSH2 0x36E1 JUMP JUMPDEST PUSH2 0xC88 JUMP JUMPDEST CALLVALUE DUP1 ISZERO PUSH2 0x23F JUMPI PUSH1 0x0 DUP1 REVERT JUMPDEST POP PUSH2 0x253 PUSH2 0x24E CALLDATASIZE PUSH1 0x4 PUSH2 0x3368 JUMP JUMPDEST PUSH2 0x104A JUMP JUMPDEST PUSH1 0x40 MLOAD PUSH2 0x1E8 SWAP2 SWAP1 PUSH2 0x3A8C JUMP JUMPDEST PUSH2 0x273 PUSH2 0x26E CALLDATASIZE PUSH1 0x4 PUSH2 0x34A5 JUMP JUMPDEST PUSH2 0x105F JUMP JUMPDEST PUSH1 0x40 MLOAD PUSH2 0x1E8 SWAP2 SWAP1 PUSH2 0x392C JUMP JUMPDEST CALLVALUE DUP1 ISZERO PUSH2 0x28C JUMPI PUSH1 0x0 DUP1 REVERT JUMPDEST POP PUSH2 0x273 PUSH2 0x29B CALLDATASIZE PUSH1 0x4 PUSH2 0x3368 JUMP JUMPDEST PUSH2 0x12C8 JUMP JUMPDEST CALLVALUE DUP1 ISZERO PUSH2 0x2AC JUMPI PUSH1 0x0 DUP1 REVERT JUMPDEST POP PUSH2 0x2B5 PUSH2 0x12F0 JUMP JUMPDEST PUSH1 0x40 MLOAD PUSH2 0x1E8 SWAP2 SWAP1 PUSH2 0x3A97 JUMP JUMPDEST CALLVALUE DUP1 ISZERO PUSH2 0x2CE JUMPI PUSH1 0x0 DUP1 REVERT JUMPDEST POP PUSH2 0x211 PUSH2 0x2DD CALLDATASIZE PUSH1 0x4 PUSH2 0x37A9 JUMP JUMPDEST PUSH2 0x1350 JUMP JUMPDEST CALLVALUE DUP1 ISZERO PUSH2 0x2EE JUMPI PUSH1 0x0 DUP1 REVERT JUMPDEST POP PUSH2 0x211 PUSH2 0x1484 JUMP JUMPDEST CALLVALUE DUP1 ISZERO PUSH2 0x303 JUMPI PUSH1 0x0 DUP1 REVERT JUMPDEST POP PUSH2 0x317 PUSH2 0x312 CALLDATASIZE PUSH1 0x4 PUSH2 0x3368 JUMP JUMPDEST PUSH2 0x156A JUMP JUMPDEST PUSH1 0x40 MLOAD PUSH2 0x1E8 SWAP3 SWAP2 SWAP1 PUSH2 0x3FFE JUMP JUMPDEST CALLVALUE DUP1 ISZERO PUSH2 0x331 JUMPI PUSH1 0x0 DUP1 REVERT JUMPDEST POP PUSH2 0x273 PUSH2 0x340 CALLDATASIZE PUSH1 0x4 PUSH2 0x3368 JUMP JUMPDEST PUSH2 0x15A6 JUMP JUMPDEST CALLVALUE DUP1 ISZERO PUSH2 0x351 JUMPI PUSH1 0x0 DUP1 REVERT JUMPDEST POP PUSH2 0x2B5 PUSH2 0x360 CALLDATASIZE PUSH1 0x4 PUSH2 0x3773 JUMP JUMPDEST PUSH2 0x15CE JUMP JUMPDEST CALLVALUE DUP1 ISZERO PUSH2 0x371 JUMPI PUSH1 0x0 DUP1 REVERT JUMPDEST POP PUSH2 0x211 PUSH2 0x380 CALLDATASIZE PUSH1 0x4 PUSH2 0x359E JUMP JUMPDEST PUSH2 0x1645 JUMP JUMPDEST CALLVALUE DUP1 ISZERO PUSH2 0x391 JUMPI PUSH1 0x0 DUP1 REVERT JUMPDEST POP PUSH2 0x211 PUSH2 0x3A0 CALLDATASIZE PUSH1 0x4 PUSH2 0x342E JUMP JUMPDEST PUSH2 0x1C44 JUMP JUMPDEST CALLVALUE DUP1 ISZERO PUSH2 0x3B1 JUMPI PUSH1 0x0 DUP1 REVERT JUMPDEST POP PUSH2 0x211 PUSH2 0x3C0 CALLDATASIZE PUSH1 0x4 PUSH2 0x365A JUMP JUMPDEST PUSH2 0x1D61 JUMP JUMPDEST CALLVALUE DUP1 ISZERO PUSH2 0x3D1 JUMPI PUSH1 0x0 DUP1 REVERT JUMPDEST POP PUSH2 0x2B5 PUSH2 0x3E0 CALLDATASIZE PUSH1 0x4 PUSH2 0x3368 JUMP JUMPDEST PUSH2 0x1DFB JUMP JUMPDEST CALLVALUE DUP1 ISZERO PUSH2 0x3F1 JUMPI PUSH1 0x0 DUP1 REVERT JUMPDEST POP PUSH2 0x273 PUSH2 0x1E0D JUMP JUMPDEST CALLVALUE DUP1 ISZERO PUSH2 0x406 JUMPI PUSH1 0x0 DUP1 REVERT JUMPDEST POP PUSH2 0x253 PUSH2 0x415 CALLDATASIZE PUSH1 0x4 PUSH2 0x3384 JUMP JUMPDEST PUSH2 0x1E29 JUMP JUMPDEST CALLVALUE DUP1 ISZERO PUSH2 0x426 JUMPI PUSH1 0x0 DUP1 REVERT JUMPDEST POP PUSH2 0x1DA PUSH2 0x435 CALLDATASIZE PUSH1 0x4 PUSH2 0x3600 JUMP JUMPDEST PUSH2 0x1E49 JUMP JUMPDEST CALLVALUE DUP1 ISZERO PUSH2 0x446 JUMPI PUSH1 0x0 DUP1 REVERT JUMPDEST POP PUSH2 0x211 PUSH2 0x23E8 JUMP JUMPDEST CALLVALUE DUP1 ISZERO PUSH2 0x45B JUMPI PUSH1 0x0 DUP1 REVERT JUMPDEST POP PUSH2 0x273 PUSH2 0x46A CALLDATASIZE PUSH1 0x4 PUSH2 0x3368 JUMP JUMPDEST PUSH2 0x2447 JUMP JUMPDEST CALLVALUE DUP1 ISZERO PUSH2 0x47B JUMPI PUSH1 0x0 DUP1 REVERT JUMPDEST POP PUSH2 0x211 PUSH2 0x48A CALLDATASIZE PUSH1 0x4 PUSH2 0x33BC JUMP JUMPDEST PUSH2 0x246F JUMP JUMPDEST PUSH2 0x4A2 PUSH2 0x49D CALLDATASIZE PUSH1 0x4 PUSH2 0x3538 JUMP JUMPDEST PUSH2 0x255B JUMP JUMPDEST PUSH1 0x40 MLOAD PUSH2 0x1E8 SWAP3 SWAP2 SWAP1 PUSH2 0x39F2 JUMP JUMPDEST CALLVALUE DUP1 ISZERO PUSH2 0x4BC JUMPI PUSH1 0x0 DUP1 REVERT JUMPDEST POP PUSH2 0x2B5 PUSH2 0x4CB CALLDATASIZE PUSH1 0x4 PUSH2 0x3773 JUMP JUMPDEST PUSH2 0x2707 JUMP JUMPDEST CALLVALUE DUP1 ISZERO PUSH2 0x4DC JUMPI PUSH1 0x0 DUP1 REVERT JUMPDEST POP PUSH2 0x4F0 PUSH2 0x4EB CALLDATASIZE PUSH1 0x4 PUSH2 0x3368 JUMP JUMPDEST PUSH2 0x2776 JUMP JUMPDEST PUSH1 0x40 MLOAD PUSH2 0x1E8 SWAP4 SWAP3 SWAP2 SWAP1 PUSH2 0x4044 JUMP JUMPDEST CALLVALUE DUP1 ISZERO PUSH2 0x50B JUMPI PUSH1 0x0 DUP1 REVERT JUMPDEST POP PUSH2 0x273 PUSH2 0x27CB JUMP JUMPDEST CALLVALUE DUP1 ISZERO PUSH2 0x520 JUMPI PUSH1 0x0 DUP1 REVERT JUMPDEST POP PUSH2 0x211 PUSH2 0x52F CALLDATASIZE PUSH1 0x4 PUSH2 0x35B0 JUMP JUMPDEST PUSH2 0x27E7 JUMP JUMPDEST CALLVALUE DUP1 ISZERO PUSH2 0x540 JUMPI PUSH1 0x0 DUP1 REVERT JUMPDEST POP PUSH2 0x2B5 PUSH2 0x54F CALLDATASIZE PUSH1 0x4 PUSH2 0x359E JUMP JUMPDEST PUSH2 0x2A41 JUMP JUMPDEST PUSH1 0x0 DUP1 PUSH20 0xFFFFFFFFFFFFFFFFFFFFFFFFFFFFFFFFFFFFFFFF DUP6 AND PUSH2 0x5AD JUMPI PUSH1 0x40 MLOAD PUSH32 0x8C379A000000000000000000000000000000000000000000000000000000000 DUP2 MSTORE PUSH1 0x4 ADD PUSH2 0x5A4 SWAP1 PUSH2 0x3D20 JUMP JUMPDEST PUSH1 0x40 MLOAD DUP1 SWAP2 SUB SWAP1 REVERT JUMPDEST PUSH1 0x0 PUSH20 0xFFFFFFFFFFFFFFFFFFFFFFFFFFFFFFFFFFFFFFFF DUP9 AND ISZERO PUSH2 0x5D1 JUMPI DUP8 PUSH2 0x5F3 JUMP JUMPDEST PUSH32 0x0 JUMPDEST SWAP1 POP PUSH2 0x5FD PUSH2 0x32E8 JUMP JUMPDEST POP PUSH20 0xFFFFFFFFFFFFFFFFFFFFFFFFFFFFFFFFFFFFFFFF DUP2 AND PUSH1 0x0 SWAP1 DUP2 MSTORE PUSH1 0x7 PUSH1 0x20 SWAP1 DUP2 MSTORE PUSH1 0x40 SWAP2 DUP3 SWAP1 KECCAK256 DUP3 MLOAD DUP1 DUP5 ADD SWAP1 SWAP4 MSTORE SLOAD PUSH16 0xFFFFFFFFFFFFFFFFFFFFFFFFFFFFFFFF DUP1 DUP3 AND DUP1 DUP6 MSTORE PUSH17 0x100000000000000000000000000000000 SWAP1 SWAP3 DIV AND SWAP2 DUP4 ADD SWAP2 SWAP1 SWAP2 MSTORE ISZERO ISZERO DUP1 PUSH2 0x6EE JUMPI POP PUSH1 0x0 DUP3 PUSH20 0xFFFFFFFFFFFFFFFFFFFFFFFFFFFFFFFFFFFFFFFF AND PUSH4 0x18160DDD PUSH1 0x40 MLOAD DUP2 PUSH4 0xFFFFFFFF AND PUSH1 0xE0 SHL DUP2 MSTORE PUSH1 0x4 ADD PUSH1 0x20 PUSH1 0x40 MLOAD DUP1 DUP4 SUB DUP2 DUP7 DUP1 EXTCODESIZE ISZERO DUP1 ISZERO PUSH2 0x6B4 JUMPI PUSH1 0x0 DUP1 REVERT JUMPDEST POP GAS STATICCALL ISZERO DUP1 ISZERO PUSH2 0x6C8 JUMPI RETURNDATASIZE PUSH1 0x0 DUP1 RETURNDATACOPY RETURNDATASIZE PUSH1 0x0 REVERT JUMPDEST POP POP POP POP PUSH1 0x40 MLOAD RETURNDATASIZE PUSH1 0x1F NOT PUSH1 0x1F DUP3 ADD AND DUP3 ADD DUP1 PUSH1 0x40 MSTORE POP DUP2 ADD SWAP1 PUSH2 0x6EC SWAP2 SWAP1 PUSH2 0x37E2 JUMP JUMPDEST GT JUMPDEST PUSH2 0x724 JUMPI PUSH1 0x40 MLOAD PUSH32 0x8C379A000000000000000000000000000000000000000000000000000000000 DUP2 MSTORE PUSH1 0x4 ADD PUSH2 0x5A4 SWAP1 PUSH2 0x3C44 JUMP JUMPDEST DUP5 PUSH2 0x78E JUMPI PUSH2 0x735 DUP2 DUP8 PUSH1 0x0 PUSH2 0x2A5E JUMP JUMPDEST SWAP5 POP PUSH2 0x3E8 PUSH2 0x763 PUSH2 0x746 DUP8 PUSH2 0x2B1C JUMP JUMPDEST PUSH1 0x20 DUP5 ADD MLOAD PUSH16 0xFFFFFFFFFFFFFFFFFFFFFFFFFFFFFFFF AND SWAP1 PUSH2 0x2B6C JUMP JUMPDEST PUSH16 0xFFFFFFFFFFFFFFFFFFFFFFFFFFFFFFFF AND LT ISZERO PUSH2 0x789 JUMPI PUSH1 0x0 DUP1 SWAP4 POP SWAP4 POP POP POP PUSH2 0xAF3 JUMP JUMPDEST PUSH2 0x79D JUMP JUMPDEST PUSH2 0x79A DUP2 DUP7 PUSH1 0x1 PUSH2 0x2BC4 JUMP JUMPDEST SWAP6 POP JUMPDEST PUSH20 0xFFFFFFFFFFFFFFFFFFFFFFFFFFFFFFFFFFFFFFFF DUP9 AND ADDRESS EQ ISZERO DUP1 PUSH2 0x7D6 JUMPI POP PUSH20 0xFFFFFFFFFFFFFFFFFFFFFFFFFFFFFFFFFFFFFFFF DUP10 AND ISZERO JUMPDEST DUP1 PUSH2 0x807 JUMPI POP DUP1 MLOAD PUSH2 0x803 SWAP1 PUSH16 0xFFFFFFFFFFFFFFFFFFFFFFFFFFFFFFFF AND PUSH2 0x7FD DUP5 PUSH2 0x2C67 JUMP JUMPDEST SWAP1 PUSH2 0x2D4B JUMP JUMPDEST DUP7 GT ISZERO JUMPDEST PUSH2 0x83D JUMPI PUSH1 0x40 MLOAD PUSH32 0x8C379A000000000000000000000000000000000000000000000000000000000 DUP2 MSTORE PUSH1 0x4 ADD PUSH2 0x5A4 SWAP1 PUSH2 0x3B68 JUMP JUMPDEST PUSH20 0xFFFFFFFFFFFFFFFFFFFFFFFFFFFFFFFFFFFFFFFF DUP1 DUP4 AND PUSH1 0x0 SWAP1 DUP2 MSTORE PUSH1 0x6 PUSH1 0x20 SWAP1 DUP2 MSTORE PUSH1 0x40 DUP1 DUP4 KECCAK256 SWAP4 DUP12 AND DUP4 MSTORE SWAP3 SWAP1 MSTORE KECCAK256 SLOAD PUSH2 0x87A SWAP1 DUP7 PUSH2 0x2D88 JUMP JUMPDEST PUSH20 0xFFFFFFFFFFFFFFFFFFFFFFFFFFFFFFFFFFFFFFFF DUP1 DUP5 AND PUSH1 0x0 SWAP1 DUP2 MSTORE PUSH1 0x6 PUSH1 0x20 SWAP1 DUP2 MSTORE PUSH1 0x40 DUP1 DUP4 KECCAK256 SWAP4 DUP13 AND DUP4 MSTORE SWAP3 SWAP1 MSTORE KECCAK256 SSTORE PUSH2 0x8D6 PUSH2 0x8B9 DUP7 PUSH2 0x2B1C JUMP JUMPDEST PUSH1 0x20 DUP4 ADD MLOAD PUSH16 0xFFFFFFFFFFFFFFFFFFFFFFFFFFFFFFFF AND SWAP1 PUSH2 0x2B6C JUMP JUMPDEST PUSH16 0xFFFFFFFFFFFFFFFFFFFFFFFFFFFFFFFF AND PUSH1 0x20 DUP3 ADD MSTORE PUSH2 0x913 PUSH2 0x8F9 DUP8 PUSH2 0x2B1C JUMP JUMPDEST DUP3 MLOAD PUSH16 0xFFFFFFFFFFFFFFFFFFFFFFFFFFFFFFFF AND SWAP1 PUSH2 0x2B6C JUMP JUMPDEST PUSH16 0xFFFFFFFFFFFFFFFFFFFFFFFFFFFFFFFF SWAP1 DUP2 AND DUP3 MSTORE PUSH20 0xFFFFFFFFFFFFFFFFFFFFFFFFFFFFFFFFFFFFFFFF DUP1 DUP5 AND PUSH1 0x0 SWAP1 DUP2 MSTORE PUSH1 0x7 PUSH1 0x20 SWAP1 DUP2 MSTORE PUSH1 0x40 SWAP1 SWAP2 KECCAK256 DUP5 MLOAD DUP2 SLOAD SWAP3 DUP7 ADD MLOAD DUP6 AND PUSH17 0x100000000000000000000000000000000 MUL SWAP1 DUP6 AND PUSH32 0xFFFFFFFFFFFFFFFFFFFFFFFFFFFFFFFF00000000000000000000000000000000 SWAP1 SWAP4 AND SWAP3 SWAP1 SWAP3 OR SWAP1 SWAP4 AND OR SWAP1 SWAP2 SSTORE DUP10 AND PUSH2 0xA2D JUMPI PUSH32 0x0 PUSH20 0xFFFFFFFFFFFFFFFFFFFFFFFFFFFFFFFFFFFFFFFF AND PUSH4 0xD0E30DB0 DUP8 PUSH1 0x40 MLOAD DUP3 PUSH4 0xFFFFFFFF AND PUSH1 0xE0 SHL DUP2 MSTORE PUSH1 0x4 ADD PUSH1 0x0 PUSH1 0x40 MLOAD DUP1 DUP4 SUB DUP2 DUP6 DUP9 DUP1 EXTCODESIZE ISZERO DUP1 ISZERO PUSH2 0xA0F JUMPI PUSH1 0x0 DUP1 REVERT JUMPDEST POP GAS CALL ISZERO DUP1 ISZERO PUSH2 0xA23 JUMPI RETURNDATASIZE PUSH1 0x0 DUP1 RETURNDATACOPY RETURNDATASIZE PUSH1 0x0 REVERT JUMPDEST POP POP POP POP POP PUSH2 0xA6C JUMP JUMPDEST PUSH20 0xFFFFFFFFFFFFFFFFFFFFFFFFFFFFFFFFFFFFFFFF DUP9 AND ADDRESS EQ PUSH2 0xA6C JUMPI PUSH2 0xA6C PUSH20 0xFFFFFFFFFFFFFFFFFFFFFFFFFFFFFFFFFFFFFFFF DUP4 AND DUP10 ADDRESS DUP10 PUSH2 0x2DC5 JUMP JUMPDEST DUP7 PUSH20 0xFFFFFFFFFFFFFFFFFFFFFFFFFFFFFFFFFFFFFFFF AND DUP9 PUSH20 0xFFFFFFFFFFFFFFFFFFFFFFFFFFFFFFFFFFFFFFFF AND DUP4 PUSH20 0xFFFFFFFFFFFFFFFFFFFFFFFFFFFFFFFFFFFFFFFF AND PUSH32 0xB2346165E782564F17F5B7E555C21F4FD96FBC93458572BF0113EA35A958FC55 DUP10 DUP10 PUSH1 0x40 MLOAD PUSH2 0xAE2 SWAP3 SWAP2 SWAP1 PUSH2 0x4021 JUMP JUMPDEST PUSH1 0x40 MLOAD DUP1 SWAP2 SUB SWAP1 LOG4 DUP6 SWAP4 POP DUP5 SWAP3 POP POP POP JUMPDEST SWAP6 POP SWAP6 SWAP4 POP POP POP POP JUMP JUMPDEST PUSH1 0x0 SLOAD PUSH20 0xFFFFFFFFFFFFFFFFFFFFFFFFFFFFFFFFFFFFFFFF AND CALLER EQ PUSH2 0xB4E JUMPI PUSH1 0x40 MLOAD PUSH32 0x8C379A000000000000000000000000000000000000000000000000000000000 DUP2 MSTORE PUSH1 0x4 ADD PUSH2 0x5A4 SWAP1 PUSH2 0x3D8E JUMP JUMPDEST DUP2 ISZERO PUSH2 0xC42 JUMPI PUSH20 0xFFFFFFFFFFFFFFFFFFFFFFFFFFFFFFFFFFFFFFFF DUP4 AND ISZERO ISZERO DUP1 PUSH2 0xB75 JUMPI POP DUP1 JUMPDEST PUSH2 0xBAB JUMPI PUSH1 0x40 MLOAD PUSH32 0x8C379A000000000000000000000000000000000000000000000000000000000 DUP2 MSTORE PUSH1 0x4 ADD PUSH2 0x5A4 SWAP1 PUSH2 0x3C0D JUMP JUMPDEST PUSH1 0x0 DUP1 SLOAD PUSH1 0x40 MLOAD PUSH20 0xFFFFFFFFFFFFFFFFFFFFFFFFFFFFFFFFFFFFFFFF DUP1 DUP8 AND SWAP4 SWAP3 AND SWAP2 PUSH32 0x8BE0079C531659141344CD1FD0A4F28419497F9722A3DAAFE3B4186F6B6457E0 SWAP2 LOG3 PUSH1 0x0 DUP1 SLOAD PUSH20 0xFFFFFFFFFFFFFFFFFFFFFFFFFFFFFFFFFFFFFFFF DUP6 AND PUSH32 0xFFFFFFFFFFFFFFFFFFFFFFFF0000000000000000000000000000000000000000 SWAP2 DUP3 AND OR SWAP1 SWAP2 SSTORE PUSH1 0x1 DUP1 SLOAD SWAP1 SWAP2 AND SWAP1 SSTORE PUSH2 0xC83 JUMP JUMPDEST PUSH1 0x1 DUP1 SLOAD PUSH32 0xFFFFFFFFFFFFFFFFFFFFFFFF0000000000000000000000000000000000000000 AND PUSH20 0xFFFFFFFFFFFFFFFFFFFFFFFFFFFFFFFFFFFFFFFF DUP6 AND OR SWAP1 SSTORE JUMPDEST POP POP POP JUMP JUMPDEST DUP5 PUSH20 0xFFFFFFFFFFFFFFFFFFFFFFFFFFFFFFFFFFFFFFFF DUP2 AND CALLER EQ DUP1 ISZERO SWAP1 PUSH2 0xCC5 JUMPI POP PUSH20 0xFFFFFFFFFFFFFFFFFFFFFFFFFFFFFFFFFFFFFFFF DUP2 AND ADDRESS EQ ISZERO JUMPDEST ISZERO PUSH2 0xD95 JUMPI CALLER PUSH1 0x0 SWAP1 DUP2 MSTORE PUSH1 0x2 PUSH1 0x20 MSTORE PUSH1 0x40 SWAP1 KECCAK256 SLOAD PUSH20 0xFFFFFFFFFFFFFFFFFFFFFFFFFFFFFFFFFFFFFFFF AND DUP1 PUSH2 0xD27 JUMPI PUSH1 0x40 MLOAD PUSH32 0x8C379A000000000000000000000000000000000000000000000000000000000 DUP2 MSTORE PUSH1 0x4 ADD PUSH2 0x5A4 SWAP1 PUSH2 0x3ED2 JUMP JUMPDEST PUSH20 0xFFFFFFFFFFFFFFFFFFFFFFFFFFFFFFFFFFFFFFFF DUP1 DUP3 AND PUSH1 0x0 SWAP1 DUP2 MSTORE PUSH1 0x3 PUSH1 0x20 SWAP1 DUP2 MSTORE PUSH1 0x40 DUP1 DUP4 KECCAK256 SWAP4 DUP7 AND DUP4 MSTORE SWAP3 SWAP1 MSTORE KECCAK256 SLOAD PUSH1 0xFF AND PUSH2 0xD93 JUMPI PUSH1 0x40 MLOAD PUSH32 0x8C379A000000000000000000000000000000000000000000000000000000000 DUP2 MSTORE PUSH1 0x4 ADD PUSH2 0x5A4 SWAP1 PUSH2 0x3DC3 JUMP JUMPDEST POP JUMPDEST PUSH1 0x0 DUP6 DUP6 DUP3 DUP2 PUSH2 0xDA1 JUMPI INVALID JUMPDEST SWAP1 POP PUSH1 0x20 MUL ADD PUSH1 0x20 DUP2 ADD SWAP1 PUSH2 0xDB6 SWAP2 SWAP1 PUSH2 0x3368 JUMP JUMPDEST PUSH20 0xFFFFFFFFFFFFFFFFFFFFFFFFFFFFFFFFFFFFFFFF AND EQ ISZERO PUSH2 0xE04 JUMPI PUSH1 0x40 MLOAD PUSH32 0x8C379A000000000000000000000000000000000000000000000000000000000 DUP2 MSTORE PUSH1 0x4 ADD PUSH2 0x5A4 SWAP1 PUSH2 0x3CE9 JUMP JUMPDEST PUSH1 0x0 DUP5 DUP2 JUMPDEST DUP2 DUP2 LT ISZERO PUSH2 0xFC8 JUMPI PUSH1 0x0 DUP9 DUP9 DUP4 DUP2 DUP2 LT PUSH2 0xE1F JUMPI INVALID JUMPDEST SWAP1 POP PUSH1 0x20 MUL ADD PUSH1 0x20 DUP2 ADD SWAP1 PUSH2 0xE34 SWAP2 SWAP1 PUSH2 0x3368 JUMP JUMPDEST SWAP1 POP PUSH2 0xED7 DUP8 DUP8 DUP5 DUP2 DUP2 LT PUSH2 0xE45 JUMPI INVALID JUMPDEST SWAP1 POP PUSH1 0x20 MUL ADD CALLDATALOAD PUSH1 0x6 PUSH1 0x0 DUP15 PUSH20 0xFFFFFFFFFFFFFFFFFFFFFFFFFFFFFFFFFFFFFFFF AND PUSH20 0xFFFFFFFFFFFFFFFFFFFFFFFFFFFFFFFFFFFFFFFF AND DUP2 MSTORE PUSH1 0x20 ADD SWAP1 DUP2 MSTORE PUSH1 0x20 ADD PUSH1 0x0 KECCAK256 PUSH1 0x0 DUP5 PUSH20 0xFFFFFFFFFFFFFFFFFFFFFFFFFFFFFFFFFFFFFFFF AND PUSH20 0xFFFFFFFFFFFFFFFFFFFFFFFFFFFFFFFFFFFFFFFF AND DUP2 MSTORE PUSH1 0x20 ADD SWAP1 DUP2 MSTORE PUSH1 0x20 ADD PUSH1 0x0 KECCAK256 SLOAD PUSH2 0x2D88 SWAP1 SWAP2 SWAP1 PUSH4 0xFFFFFFFF AND JUMP JUMPDEST PUSH20 0xFFFFFFFFFFFFFFFFFFFFFFFFFFFFFFFFFFFFFFFF DUP1 DUP14 AND PUSH1 0x0 SWAP1 DUP2 MSTORE PUSH1 0x6 PUSH1 0x20 SWAP1 DUP2 MSTORE PUSH1 0x40 DUP1 DUP4 KECCAK256 SWAP4 DUP7 AND DUP4 MSTORE SWAP3 SWAP1 MSTORE KECCAK256 SSTORE PUSH2 0xF2F DUP8 DUP8 DUP5 DUP2 DUP2 LT PUSH2 0xF19 JUMPI INVALID JUMPDEST SWAP1 POP PUSH1 0x20 MUL ADD CALLDATALOAD DUP6 PUSH2 0x2D88 SWAP1 SWAP2 SWAP1 PUSH4 0xFFFFFFFF AND JUMP JUMPDEST SWAP4 POP DUP1 PUSH20 0xFFFFFFFFFFFFFFFFFFFFFFFFFFFFFFFFFFFFFFFF AND DUP11 PUSH20 0xFFFFFFFFFFFFFFFFFFFFFFFFFFFFFFFFFFFFFFFF AND DUP13 PUSH20 0xFFFFFFFFFFFFFFFFFFFFFFFFFFFFFFFFFFFFFFFF AND PUSH32 0x6EABE333476233FD382224F233210CB808A7BC4C4DE64F9D76628BF63C677B1A DUP11 DUP11 DUP8 DUP2 DUP2 LT PUSH2 0xFA3 JUMPI INVALID JUMPDEST SWAP1 POP PUSH1 0x20 MUL ADD CALLDATALOAD PUSH1 0x40 MLOAD PUSH2 0xFB7 SWAP2 SWAP1 PUSH2 0x3A97 JUMP JUMPDEST PUSH1 0x40 MLOAD DUP1 SWAP2 SUB SWAP1 LOG4 POP PUSH1 0x1 ADD PUSH2 0xE09 JUMP JUMPDEST POP PUSH20 0xFFFFFFFFFFFFFFFFFFFFFFFFFFFFFFFFFFFFFFFF DUP1 DUP11 AND PUSH1 0x0 SWAP1 DUP2 MSTORE PUSH1 0x6 PUSH1 0x20 SWAP1 DUP2 MSTORE PUSH1 0x40 DUP1 DUP4 KECCAK256 SWAP4 DUP13 AND DUP4 MSTORE SWAP3 SWAP1 MSTORE KECCAK256 SLOAD PUSH2 0x1006 SWAP1 DUP4 PUSH2 0x2D4B JUMP JUMPDEST PUSH20 0xFFFFFFFFFFFFFFFFFFFFFFFFFFFFFFFFFFFFFFFF SWAP10 DUP11 AND PUSH1 0x0 SWAP1 DUP2 MSTORE PUSH1 0x6 PUSH1 0x20 SWAP1 DUP2 MSTORE PUSH1 0x40 DUP1 DUP4 KECCAK256 SWAP12 SWAP1 SWAP13 AND DUP3 MSTORE SWAP10 SWAP1 SWAP10 MSTORE SWAP9 SWAP1 SWAP8 KECCAK256 SWAP8 SWAP1 SWAP8 SSTORE POP POP POP POP POP POP POP JUMP JUMPDEST PUSH1 0x4 PUSH1 0x20 MSTORE PUSH1 0x0 SWAP1 DUP2 MSTORE PUSH1 0x40 SWAP1 KECCAK256 SLOAD PUSH1 0xFF AND DUP2 JUMP JUMPDEST PUSH1 0x0 PUSH20 0xFFFFFFFFFFFFFFFFFFFFFFFFFFFFFFFFFFFFFFFF DUP6 AND PUSH2 0x10AE JUMPI PUSH1 0x40 MLOAD PUSH32 0x8C379A000000000000000000000000000000000000000000000000000000000 DUP2 MSTORE PUSH1 0x4 ADD PUSH2 0x5A4 SWAP1 PUSH2 0x3E66 JUMP JUMPDEST PUSH1 0x60 DUP6 SWAP1 SHL DUP3 ISZERO PUSH2 0x1137 JUMPI PUSH1 0x0 DUP6 DUP6 PUSH1 0x40 MLOAD PUSH2 0x10CB SWAP3 SWAP2 SWAP1 PUSH2 0x38FD JUMP JUMPDEST PUSH1 0x40 MLOAD DUP1 SWAP2 SUB SWAP1 KECCAK256 SWAP1 POP PUSH1 0x40 MLOAD PUSH32 0x3D602D80600A3D3981F3363D3D373D3D3D363D73000000000000000000000000 DUP2 MSTORE DUP3 PUSH1 0x14 DUP3 ADD MSTORE PUSH32 0x5AF43D82803E903D91602B57FD5BF30000000000000000000000000000000000 PUSH1 0x28 DUP3 ADD MSTORE DUP2 PUSH1 0x37 DUP3 PUSH1 0x0 CREATE2 SWAP4 POP POP POP PUSH2 0x1193 JUMP JUMPDEST PUSH1 0x40 MLOAD PUSH32 0x3D602D80600A3D3981F3363D3D373D3D3D363D73000000000000000000000000 DUP2 MSTORE DUP2 PUSH1 0x14 DUP3 ADD MSTORE PUSH32 0x5AF43D82803E903D91602B57FD5BF30000000000000000000000000000000000 PUSH1 0x28 DUP3 ADD MSTORE PUSH1 0x37 DUP2 PUSH1 0x0 CREATE SWAP3 POP POP JUMPDEST PUSH20 0xFFFFFFFFFFFFFFFFFFFFFFFFFFFFFFFFFFFFFFFF DUP3 DUP2 AND PUSH1 0x0 DUP2 DUP2 MSTORE PUSH1 0x2 PUSH1 0x20 MSTORE PUSH1 0x40 SWAP1 DUP2 SWAP1 KECCAK256 DUP1 SLOAD PUSH32 0xFFFFFFFFFFFFFFFFFFFFFFFF0000000000000000000000000000000000000000 AND SWAP4 DUP11 AND SWAP4 SWAP1 SWAP4 OR SWAP1 SWAP3 SSTORE SWAP1 MLOAD PUSH32 0x4DDF47D400000000000000000000000000000000000000000000000000000000 DUP2 MSTORE PUSH4 0x4DDF47D4 SWAP1 CALLVALUE SWAP1 PUSH2 0x1226 SWAP1 DUP10 SWAP1 DUP10 SWAP1 PUSH1 0x4 ADD PUSH2 0x3AD1 JUMP JUMPDEST PUSH1 0x0 PUSH1 0x40 MLOAD DUP1 DUP4 SUB DUP2 DUP6 DUP9 DUP1 EXTCODESIZE ISZERO DUP1 ISZERO PUSH2 0x123F JUMPI PUSH1 0x0 DUP1 REVERT JUMPDEST POP GAS CALL ISZERO DUP1 ISZERO PUSH2 0x1253 JUMPI RETURNDATASIZE PUSH1 0x0 DUP1 RETURNDATACOPY RETURNDATASIZE PUSH1 0x0 REVERT JUMPDEST POP POP POP POP POP DUP2 PUSH20 0xFFFFFFFFFFFFFFFFFFFFFFFFFFFFFFFFFFFFFFFF AND DUP7 PUSH20 0xFFFFFFFFFFFFFFFFFFFFFFFFFFFFFFFFFFFFFFFF AND PUSH32 0xD62166F3C2149208E51788B1401CC356BF5DA1FC6C7886A32E18570F57D88B3B DUP8 DUP8 PUSH1 0x40 MLOAD PUSH2 0x12B7 SWAP3 SWAP2 SWAP1 PUSH2 0x3AD1 JUMP JUMPDEST PUSH1 0x40 MLOAD DUP1 SWAP2 SUB SWAP1 LOG3 POP SWAP5 SWAP4 POP POP POP POP JUMP JUMPDEST PUSH1 0x8 PUSH1 0x20 MSTORE PUSH1 0x0 SWAP1 DUP2 MSTORE PUSH1 0x40 SWAP1 KECCAK256 SLOAD PUSH20 0xFFFFFFFFFFFFFFFFFFFFFFFFFFFFFFFFFFFFFFFF AND DUP2 JUMP JUMPDEST PUSH1 0x0 CHAINID PUSH32 0x0 DUP2 EQ PUSH2 0x1328 JUMPI PUSH2 0x1323 DUP2 PUSH2 0x2F30 JUMP JUMPDEST PUSH2 0x134A JUMP JUMPDEST PUSH32 0x0 JUMPDEST SWAP2 POP POP SWAP1 JUMP JUMPDEST PUSH1 0x0 SLOAD PUSH20 0xFFFFFFFFFFFFFFFFFFFFFFFFFFFFFFFFFFFFFFFF AND CALLER EQ PUSH2 0x13A1 JUMPI PUSH1 0x40 MLOAD PUSH32 0x8C379A000000000000000000000000000000000000000000000000000000000 DUP2 MSTORE PUSH1 0x4 ADD PUSH2 0x5A4 SWAP1 PUSH2 0x3D8E JUMP JUMPDEST PUSH1 0x5F DUP2 PUSH8 0xFFFFFFFFFFFFFFFF AND GT ISZERO PUSH2 0x13E6 JUMPI PUSH1 0x40 MLOAD PUSH32 0x8C379A000000000000000000000000000000000000000000000000000000000 DUP2 MSTORE PUSH1 0x4 ADD PUSH2 0x5A4 SWAP1 PUSH2 0x3FAC JUMP JUMPDEST PUSH20 0xFFFFFFFFFFFFFFFFFFFFFFFFFFFFFFFFFFFFFFFF DUP3 AND PUSH1 0x0 DUP2 DUP2 MSTORE PUSH1 0xA PUSH1 0x20 MSTORE PUSH1 0x40 SWAP1 DUP2 SWAP1 KECCAK256 DUP1 SLOAD PUSH32 0xFFFFFFFFFFFFFFFFFFFFFFFFFFFFFFFF0000000000000000FFFFFFFFFFFFFFFF AND PUSH9 0x10000000000000000 PUSH8 0xFFFFFFFFFFFFFFFF DUP7 AND MUL OR SWAP1 SSTORE MLOAD PUSH32 0x7543AF99B5602C06E62DA0631B5308489A5FF859150105A623B6EB15E8DEAE0B SWAP1 PUSH2 0x1478 SWAP1 DUP5 SWAP1 PUSH2 0x402F JUMP JUMPDEST PUSH1 0x40 MLOAD DUP1 SWAP2 SUB SWAP1 LOG2 POP POP JUMP JUMPDEST PUSH1 0x1 SLOAD PUSH20 0xFFFFFFFFFFFFFFFFFFFFFFFFFFFFFFFFFFFFFFFF AND CALLER DUP2 EQ PUSH2 0x14D6 JUMPI PUSH1 0x40 MLOAD PUSH32 0x8C379A000000000000000000000000000000000000000000000000000000000 DUP2 MSTORE PUSH1 0x4 ADD PUSH2 0x5A4 SWAP1 PUSH2 0x3DFA JUMP JUMPDEST PUSH1 0x0 DUP1 SLOAD PUSH1 0x40 MLOAD PUSH20 0xFFFFFFFFFFFFFFFFFFFFFFFFFFFFFFFFFFFFFFFF DUP1 DUP6 AND SWAP4 SWAP3 AND SWAP2 PUSH32 0x8BE0079C531659141344CD1FD0A4F28419497F9722A3DAAFE3B4186F6B6457E0 SWAP2 LOG3 PUSH1 0x0 DUP1 SLOAD PUSH20 0xFFFFFFFFFFFFFFFFFFFFFFFFFFFFFFFFFFFFFFFF SWAP1 SWAP3 AND PUSH32 0xFFFFFFFFFFFFFFFFFFFFFFFF0000000000000000000000000000000000000000 SWAP3 DUP4 AND OR SWAP1 SSTORE PUSH1 0x1 DUP1 SLOAD SWAP1 SWAP2 AND SWAP1 SSTORE JUMP JUMPDEST PUSH1 0x7 PUSH1 0x20 MSTORE PUSH1 0x0 SWAP1 DUP2 MSTORE PUSH1 0x40 SWAP1 KECCAK256 SLOAD PUSH16 0xFFFFFFFFFFFFFFFFFFFFFFFFFFFFFFFF DUP1 DUP3 AND SWAP2 PUSH17 0x100000000000000000000000000000000 SWAP1 DIV AND DUP3 JUMP JUMPDEST PUSH1 0x9 PUSH1 0x20 MSTORE PUSH1 0x0 SWAP1 DUP2 MSTORE PUSH1 0x40 SWAP1 KECCAK256 SLOAD PUSH20 0xFFFFFFFFFFFFFFFFFFFFFFFFFFFFFFFFFFFFFFFF AND DUP2 JUMP JUMPDEST PUSH20 0xFFFFFFFFFFFFFFFFFFFFFFFFFFFFFFFFFFFFFFFF DUP4 AND PUSH1 0x0 SWAP1 DUP2 MSTORE PUSH1 0x7 PUSH1 0x20 SWAP1 DUP2 MSTORE PUSH1 0x40 DUP1 DUP4 KECCAK256 DUP2 MLOAD DUP1 DUP4 ADD SWAP1 SWAP3 MSTORE SLOAD PUSH16 0xFFFFFFFFFFFFFFFFFFFFFFFFFFFFFFFF DUP1 DUP3 AND DUP4 MSTORE PUSH17 0x100000000000000000000000000000000 SWAP1 SWAP2 DIV AND SWAP2 DUP2 ADD SWAP2 SWAP1 SWAP2 MSTORE PUSH2 0x163D SWAP1 DUP5 DUP5 PUSH2 0x2BC4 JUMP JUMPDEST SWAP5 SWAP4 POP POP POP POP JUMP JUMPDEST PUSH1 0x0 SLOAD PUSH20 0xFFFFFFFFFFFFFFFFFFFFFFFFFFFFFFFFFFFFFFFF AND CALLER EQ PUSH2 0x1696 JUMPI PUSH1 0x40 MLOAD PUSH32 0x8C379A000000000000000000000000000000000000000000000000000000000 DUP2 MSTORE PUSH1 0x4 ADD PUSH2 0x5A4 SWAP1 PUSH2 0x3D8E JUMP JUMPDEST PUSH2 0x169E PUSH2 0x32FF JUMP JUMPDEST POP PUSH20 0xFFFFFFFFFFFFFFFFFFFFFFFFFFFFFFFFFFFFFFFF DUP3 DUP2 AND PUSH1 0x0 DUP2 DUP2 MSTORE PUSH1 0xA PUSH1 0x20 SWAP1 DUP2 MSTORE PUSH1 0x40 DUP1 DUP4 KECCAK256 DUP2 MLOAD PUSH1 0x60 DUP2 ADD DUP4 MSTORE SWAP1 SLOAD PUSH8 0xFFFFFFFFFFFFFFFF DUP1 DUP3 AND DUP4 MSTORE PUSH9 0x10000000000000000 DUP3 DIV DUP2 AND DUP4 DUP7 ADD MSTORE PUSH17 0x100000000000000000000000000000000 SWAP1 SWAP2 DIV PUSH16 0xFFFFFFFFFFFFFFFFFFFFFFFFFFFFFFFF AND DUP3 DUP5 ADD MSTORE SWAP5 DUP5 MSTORE PUSH1 0x9 SWAP1 SWAP3 MSTORE SWAP1 SWAP2 KECCAK256 SLOAD DUP2 MLOAD SWAP2 SWAP4 AND SWAP2 AND ISZERO DUP1 PUSH2 0x1768 JUMPI POP DUP3 PUSH20 0xFFFFFFFFFFFFFFFFFFFFFFFFFFFFFFFFFFFFFFFF AND DUP2 PUSH20 0xFFFFFFFFFFFFFFFFFFFFFFFFFFFFFFFFFFFFFFFF AND EQ ISZERO JUMPDEST ISZERO PUSH2 0x1820 JUMPI PUSH20 0xFFFFFFFFFFFFFFFFFFFFFFFFFFFFFFFFFFFFFFFF DUP5 DUP2 AND PUSH1 0x0 SWAP1 DUP2 MSTORE PUSH1 0x9 PUSH1 0x20 MSTORE PUSH1 0x40 SWAP1 KECCAK256 DUP1 SLOAD PUSH32 0xFFFFFFFFFFFFFFFFFFFFFFFF0000000000000000000000000000000000000000 AND SWAP2 DUP6 AND SWAP2 SWAP1 SWAP2 OR SWAP1 SSTORE PUSH2 0x17C9 TIMESTAMP PUSH2 0x2FA7 JUMP JUMPDEST PUSH8 0xFFFFFFFFFFFFFFFF AND DUP3 MSTORE PUSH1 0x40 MLOAD PUSH20 0xFFFFFFFFFFFFFFFFFFFFFFFFFFFFFFFFFFFFFFFF DUP1 DUP6 AND SWAP2 SWAP1 DUP7 AND SWAP1 PUSH32 0x6F7CCDF3F86039E5A1DCF6028BF7B4773CBF7A234716BA2E5392B12BB0F8558F SWAP1 PUSH1 0x0 SWAP1 LOG3 PUSH2 0x1B70 JUMP JUMPDEST DUP2 MLOAD PUSH8 0xFFFFFFFFFFFFFFFF AND ISZERO DUP1 ISZERO SWAP1 PUSH2 0x1845 JUMPI POP DUP2 MLOAD PUSH8 0xFFFFFFFFFFFFFFFF AND TIMESTAMP LT ISZERO JUMPDEST PUSH2 0x187B JUMPI PUSH1 0x40 MLOAD PUSH32 0x8C379A000000000000000000000000000000000000000000000000000000000 DUP2 MSTORE PUSH1 0x4 ADD PUSH2 0x5A4 SWAP1 PUSH2 0x3D57 JUMP JUMPDEST PUSH20 0xFFFFFFFFFFFFFFFFFFFFFFFFFFFFFFFFFFFFFFFF DUP5 DUP2 AND PUSH1 0x0 SWAP1 DUP2 MSTORE PUSH1 0x8 PUSH1 0x20 MSTORE PUSH1 0x40 SWAP1 KECCAK256 SLOAD AND ISZERO PUSH2 0x1AD4 JUMPI PUSH20 0xFFFFFFFFFFFFFFFFFFFFFFFFFFFFFFFFFFFFFFFF DUP1 DUP6 AND PUSH1 0x0 SWAP1 DUP2 MSTORE PUSH1 0x8 PUSH1 0x20 MSTORE PUSH1 0x40 DUP1 DUP3 KECCAK256 SLOAD DUP6 DUP3 ADD MLOAD SWAP2 MLOAD PUSH32 0x7F8661A100000000000000000000000000000000000000000000000000000000 DUP2 MSTORE SWAP3 SWAP4 AND SWAP2 PUSH4 0x7F8661A1 SWAP2 PUSH2 0x190F SWAP2 PUSH1 0x4 ADD PUSH2 0x3FE1 JUMP JUMPDEST PUSH1 0x20 PUSH1 0x40 MLOAD DUP1 DUP4 SUB DUP2 PUSH1 0x0 DUP8 DUP1 EXTCODESIZE ISZERO DUP1 ISZERO PUSH2 0x1929 JUMPI PUSH1 0x0 DUP1 REVERT JUMPDEST POP GAS CALL ISZERO DUP1 ISZERO PUSH2 0x193D JUMPI RETURNDATASIZE PUSH1 0x0 DUP1 RETURNDATACOPY RETURNDATASIZE PUSH1 0x0 REVERT JUMPDEST POP POP POP POP PUSH1 0x40 MLOAD RETURNDATASIZE PUSH1 0x1F NOT PUSH1 0x1F DUP3 ADD AND DUP3 ADD DUP1 PUSH1 0x40 MSTORE POP DUP2 ADD SWAP1 PUSH2 0x1961 SWAP2 SWAP1 PUSH2 0x37E2 JUMP JUMPDEST SWAP1 POP PUSH1 0x0 DUP2 SGT ISZERO PUSH2 0x19F2 JUMPI PUSH20 0xFFFFFFFFFFFFFFFFFFFFFFFFFFFFFFFFFFFFFFFF DUP6 AND PUSH1 0x0 SWAP1 DUP2 MSTORE PUSH1 0x7 PUSH1 0x20 MSTORE PUSH1 0x40 SWAP1 KECCAK256 DUP2 SWAP1 PUSH2 0x199D SWAP1 DUP3 PUSH2 0x2FEB JUMP JUMPDEST POP DUP6 PUSH20 0xFFFFFFFFFFFFFFFFFFFFFFFFFFFFFFFFFFFFFFFF AND PUSH32 0x911C9F20A03EDABCBCBD18DCA1174CCE47A91B234CED7A5A3C60BA0D5B56C5D2 DUP3 PUSH1 0x40 MLOAD PUSH2 0x19E4 SWAP2 SWAP1 PUSH2 0x3A97 JUMP JUMPDEST PUSH1 0x40 MLOAD DUP1 SWAP2 SUB SWAP1 LOG2 POP PUSH2 0x1A80 JUMP JUMPDEST PUSH1 0x0 DUP2 SLT ISZERO PUSH2 0x1A80 JUMPI PUSH20 0xFFFFFFFFFFFFFFFFFFFFFFFFFFFFFFFFFFFFFFFF DUP6 AND PUSH1 0x0 SWAP1 DUP2 MSTORE PUSH1 0x7 PUSH1 0x20 MSTORE PUSH1 0x40 DUP2 KECCAK256 SWAP1 DUP3 SWAP1 SUB SWAP1 PUSH2 0x1A2F SWAP1 DUP3 PUSH2 0x3059 JUMP JUMPDEST POP DUP6 PUSH20 0xFFFFFFFFFFFFFFFFFFFFFFFFFFFFFFFFFFFFFFFF AND PUSH32 0x8F1F26EB9B6AA8689DBDD519EAD1999D9C8819D4738E403B2003B18197D9CF97 DUP3 PUSH1 0x40 MLOAD PUSH2 0x1A76 SWAP2 SWAP1 PUSH2 0x3A97 JUMP JUMPDEST PUSH1 0x40 MLOAD DUP1 SWAP2 SUB SWAP1 LOG2 POP JUMPDEST DUP5 PUSH20 0xFFFFFFFFFFFFFFFFFFFFFFFFFFFFFFFFFFFFFFFF AND PUSH32 0x39AA22060F8DD4D291720311FEEDF3B72FEF47C06C66CCF5C22B502C62E7550A DUP5 PUSH1 0x40 ADD MLOAD PUSH1 0x40 MLOAD PUSH2 0x1ACA SWAP2 SWAP1 PUSH2 0x3FE1 JUMP JUMPDEST PUSH1 0x40 MLOAD DUP1 SWAP2 SUB SWAP1 LOG2 POP JUMPDEST PUSH20 0xFFFFFFFFFFFFFFFFFFFFFFFFFFFFFFFFFFFFFFFF DUP1 DUP6 AND PUSH1 0x0 DUP2 DUP2 MSTORE PUSH1 0x8 PUSH1 0x20 SWAP1 DUP2 MSTORE PUSH1 0x40 DUP1 DUP4 KECCAK256 DUP1 SLOAD DUP7 DUP9 AND PUSH32 0xFFFFFFFFFFFFFFFFFFFFFFFF0000000000000000000000000000000000000000 SWAP2 DUP3 AND OR SWAP1 SWAP2 SSTORE DUP4 DUP9 MSTORE DUP8 DUP3 ADD DUP5 SWAP1 MSTORE DUP5 DUP5 MSTORE PUSH1 0x9 SWAP1 SWAP3 MSTORE DUP1 DUP4 KECCAK256 DUP1 SLOAD SWAP1 SWAP3 AND SWAP1 SWAP2 SSTORE MLOAD SWAP3 DUP7 AND SWAP3 PUSH32 0x3E6352A885ADC4CC54767592939C3B1BBD65685658C3BEAABA66A888120E217 SWAP2 SWAP1 LOG3 JUMPDEST POP PUSH20 0xFFFFFFFFFFFFFFFFFFFFFFFFFFFFFFFFFFFFFFFF SWAP3 SWAP1 SWAP3 AND PUSH1 0x0 SWAP1 DUP2 MSTORE PUSH1 0xA PUSH1 0x20 SWAP1 DUP2 MSTORE PUSH1 0x40 SWAP2 DUP3 SWAP1 KECCAK256 DUP5 MLOAD DUP2 SLOAD SWAP3 DUP7 ADD MLOAD SWAP4 SWAP1 SWAP6 ADD MLOAD PUSH32 0xFFFFFFFFFFFFFFFFFFFFFFFFFFFFFFFFFFFFFFFFFFFFFFFF0000000000000000 SWAP1 SWAP3 AND PUSH8 0xFFFFFFFFFFFFFFFF SWAP6 DUP7 AND OR PUSH32 0xFFFFFFFFFFFFFFFFFFFFFFFFFFFFFFFF0000000000000000FFFFFFFFFFFFFFFF AND PUSH9 0x10000000000000000 SWAP6 SWAP1 SWAP4 AND SWAP5 SWAP1 SWAP5 MUL SWAP2 SWAP1 SWAP2 OR PUSH16 0xFFFFFFFFFFFFFFFFFFFFFFFFFFFFFFFF SWAP1 DUP2 AND PUSH17 0x100000000000000000000000000000000 SWAP2 SWAP1 SWAP3 AND MUL OR SWAP1 SWAP2 SSTORE POP JUMP JUMPDEST PUSH1 0x0 SLOAD PUSH20 0xFFFFFFFFFFFFFFFFFFFFFFFFFFFFFFFFFFFFFFFF AND CALLER EQ PUSH2 0x1C95 JUMPI PUSH1 0x40 MLOAD PUSH32 0x8C379A000000000000000000000000000000000000000000000000000000000 DUP2 MSTORE PUSH1 0x4 ADD PUSH2 0x5A4 SWAP1 PUSH2 0x3D8E JUMP JUMPDEST PUSH20 0xFFFFFFFFFFFFFFFFFFFFFFFFFFFFFFFFFFFFFFFF DUP3 AND PUSH2 0x1CE2 JUMPI PUSH1 0x40 MLOAD PUSH32 0x8C379A000000000000000000000000000000000000000000000000000000000 DUP2 MSTORE PUSH1 0x4 ADD PUSH2 0x5A4 SWAP1 PUSH2 0x3B9F JUMP JUMPDEST PUSH20 0xFFFFFFFFFFFFFFFFFFFFFFFFFFFFFFFFFFFFFFFF DUP3 AND PUSH1 0x0 DUP2 DUP2 MSTORE PUSH1 0x4 PUSH1 0x20 MSTORE PUSH1 0x40 SWAP1 DUP2 SWAP1 KECCAK256 DUP1 SLOAD PUSH32 0xFFFFFFFFFFFFFFFFFFFFFFFFFFFFFFFFFFFFFFFFFFFFFFFFFFFFFFFFFFFFFF00 AND DUP5 ISZERO ISZERO OR SWAP1 SSTORE MLOAD PUSH32 0x31A1E0EAC44B54AC6C2A2EFA87E92C83405FFCF33FCEEF02A7BCA695130E2600 SWAP1 PUSH2 0x1478 SWAP1 DUP5 SWAP1 PUSH2 0x3A8C JUMP JUMPDEST PUSH1 0x40 MLOAD PUSH32 0xD505ACCF00000000000000000000000000000000000000000000000000000000 DUP2 MSTORE PUSH20 0xFFFFFFFFFFFFFFFFFFFFFFFFFFFFFFFFFFFFFFFF DUP10 AND SWAP1 PUSH4 0xD505ACCF SWAP1 PUSH2 0x1DBF SWAP1 DUP11 SWAP1 DUP11 SWAP1 DUP11 SWAP1 DUP11 SWAP1 DUP11 SWAP1 DUP11 SWAP1 DUP11 SWAP1 PUSH1 0x4 ADD PUSH2 0x397E JUMP JUMPDEST PUSH1 0x0 PUSH1 0x40 MLOAD DUP1 DUP4 SUB DUP2 PUSH1 0x0 DUP8 DUP1 EXTCODESIZE ISZERO DUP1 ISZERO PUSH2 0x1DD9 JUMPI PUSH1 0x0 DUP1 REVERT JUMPDEST POP GAS CALL ISZERO DUP1 ISZERO PUSH2 0x1DED JUMPI RETURNDATASIZE PUSH1 0x0 DUP1 RETURNDATACOPY RETURNDATASIZE PUSH1 0x0 REVERT JUMPDEST POP POP POP POP POP POP POP POP POP POP POP POP JUMP JUMPDEST PUSH1 0x5 PUSH1 0x20 MSTORE PUSH1 0x0 SWAP1 DUP2 MSTORE PUSH1 0x40 SWAP1 KECCAK256 SLOAD DUP2 JUMP JUMPDEST PUSH1 0x0 SLOAD PUSH20 0xFFFFFFFFFFFFFFFFFFFFFFFFFFFFFFFFFFFFFFFF AND DUP2 JUMP JUMPDEST PUSH1 0x3 PUSH1 0x20 SWAP1 DUP2 MSTORE PUSH1 0x0 SWAP3 DUP4 MSTORE PUSH1 0x40 DUP1 DUP5 KECCAK256 SWAP1 SWAP2 MSTORE SWAP1 DUP3 MSTORE SWAP1 KECCAK256 SLOAD PUSH1 0xFF AND DUP2 JUMP JUMPDEST PUSH1 0x0 DUP1 DUP6 PUSH20 0xFFFFFFFFFFFFFFFFFFFFFFFFFFFFFFFFFFFFFFFF DUP2 AND CALLER EQ DUP1 ISZERO SWAP1 PUSH2 0x1E89 JUMPI POP PUSH20 0xFFFFFFFFFFFFFFFFFFFFFFFFFFFFFFFFFFFFFFFF DUP2 AND ADDRESS EQ ISZERO JUMPDEST ISZERO PUSH2 0x1F59 JUMPI CALLER PUSH1 0x0 SWAP1 DUP2 MSTORE PUSH1 0x2 PUSH1 0x20 MSTORE PUSH1 0x40 SWAP1 KECCAK256 SLOAD PUSH20 0xFFFFFFFFFFFFFFFFFFFFFFFFFFFFFFFFFFFFFFFF AND DUP1 PUSH2 0x1EEB JUMPI PUSH1 0x40 MLOAD PUSH32 0x8C379A000000000000000000000000000000000000000000000000000000000 DUP2 MSTORE PUSH1 0x4 ADD PUSH2 0x5A4 SWAP1 PUSH2 0x3ED2 JUMP JUMPDEST PUSH20 0xFFFFFFFFFFFFFFFFFFFFFFFFFFFFFFFFFFFFFFFF DUP1 DUP3 AND PUSH1 0x0 SWAP1 DUP2 MSTORE PUSH1 0x3 PUSH1 0x20 SWAP1 DUP2 MSTORE PUSH1 0x40 DUP1 DUP4 KECCAK256 SWAP4 DUP7 AND DUP4 MSTORE SWAP3 SWAP1 MSTORE KECCAK256 SLOAD PUSH1 0xFF AND PUSH2 0x1F57 JUMPI PUSH1 0x40 MLOAD PUSH32 0x8C379A000000000000000000000000000000000000000000000000000000000 DUP2 MSTORE PUSH1 0x4 ADD PUSH2 0x5A4 SWAP1 PUSH2 0x3DC3 JUMP JUMPDEST POP JUMPDEST PUSH20 0xFFFFFFFFFFFFFFFFFFFFFFFFFFFFFFFFFFFFFFFF DUP7 AND PUSH2 0x1FA6 JUMPI PUSH1 0x40 MLOAD PUSH32 0x8C379A000000000000000000000000000000000000000000000000000000000 DUP2 MSTORE PUSH1 0x4 ADD PUSH2 0x5A4 SWAP1 PUSH2 0x3D20 JUMP JUMPDEST PUSH1 0x0 PUSH20 0xFFFFFFFFFFFFFFFFFFFFFFFFFFFFFFFFFFFFFFFF DUP10 AND ISZERO PUSH2 0x1FCA JUMPI DUP9 PUSH2 0x1FEC JUMP JUMPDEST PUSH32 0x0 JUMPDEST SWAP1 POP PUSH2 0x1FF6 PUSH2 0x32E8 JUMP JUMPDEST POP PUSH20 0xFFFFFFFFFFFFFFFFFFFFFFFFFFFFFFFFFFFFFFFF DUP2 AND PUSH1 0x0 SWAP1 DUP2 MSTORE PUSH1 0x7 PUSH1 0x20 SWAP1 DUP2 MSTORE PUSH1 0x40 SWAP2 DUP3 SWAP1 KECCAK256 DUP3 MLOAD DUP1 DUP5 ADD SWAP1 SWAP4 MSTORE SLOAD PUSH16 0xFFFFFFFFFFFFFFFFFFFFFFFFFFFFFFFF DUP1 DUP3 AND DUP5 MSTORE PUSH17 0x100000000000000000000000000000000 SWAP1 SWAP2 DIV AND SWAP1 DUP3 ADD MSTORE DUP6 PUSH2 0x2071 JUMPI PUSH2 0x206A DUP2 DUP9 PUSH1 0x1 PUSH2 0x2A5E JUMP JUMPDEST SWAP6 POP PUSH2 0x2080 JUMP JUMPDEST PUSH2 0x207D DUP2 DUP8 PUSH1 0x0 PUSH2 0x2BC4 JUMP JUMPDEST SWAP7 POP JUMPDEST PUSH20 0xFFFFFFFFFFFFFFFFFFFFFFFFFFFFFFFFFFFFFFFF DUP1 DUP4 AND PUSH1 0x0 SWAP1 DUP2 MSTORE PUSH1 0x6 PUSH1 0x20 SWAP1 DUP2 MSTORE PUSH1 0x40 DUP1 DUP4 KECCAK256 SWAP4 DUP14 AND DUP4 MSTORE SWAP3 SWAP1 MSTORE KECCAK256 SLOAD PUSH2 0x20BD SWAP1 DUP8 PUSH2 0x2D4B JUMP JUMPDEST PUSH20 0xFFFFFFFFFFFFFFFFFFFFFFFFFFFFFFFFFFFFFFFF DUP1 DUP5 AND PUSH1 0x0 SWAP1 DUP2 MSTORE PUSH1 0x6 PUSH1 0x20 SWAP1 DUP2 MSTORE PUSH1 0x40 DUP1 DUP4 KECCAK256 SWAP4 DUP15 AND DUP4 MSTORE SWAP3 SWAP1 MSTORE KECCAK256 SSTORE PUSH2 0x2116 PUSH2 0x20FC DUP9 PUSH2 0x2B1C JUMP JUMPDEST DUP3 MLOAD PUSH16 0xFFFFFFFFFFFFFFFFFFFFFFFFFFFFFFFF AND SWAP1 PUSH2 0x307D JUMP JUMPDEST PUSH16 0xFFFFFFFFFFFFFFFFFFFFFFFFFFFFFFFF AND DUP2 MSTORE PUSH2 0x2153 PUSH2 0x2136 DUP8 PUSH2 0x2B1C JUMP JUMPDEST PUSH1 0x20 DUP4 ADD MLOAD PUSH16 0xFFFFFFFFFFFFFFFFFFFFFFFFFFFFFFFF AND SWAP1 PUSH2 0x307D JUMP JUMPDEST PUSH16 0xFFFFFFFFFFFFFFFFFFFFFFFFFFFFFFFF SWAP1 DUP2 AND PUSH1 0x20 DUP1 DUP5 ADD SWAP2 DUP3 MSTORE PUSH20 0xFFFFFFFFFFFFFFFFFFFFFFFFFFFFFFFFFFFFFFFF DUP1 DUP7 AND PUSH1 0x0 SWAP1 DUP2 MSTORE PUSH1 0x7 SWAP1 SWAP3 MSTORE PUSH1 0x40 SWAP1 SWAP2 KECCAK256 DUP5 MLOAD DUP2 SLOAD SWAP4 MLOAD DUP6 AND PUSH17 0x100000000000000000000000000000000 MUL SWAP1 DUP6 AND PUSH32 0xFFFFFFFFFFFFFFFFFFFFFFFFFFFFFFFF00000000000000000000000000000000 SWAP1 SWAP5 AND SWAP4 SWAP1 SWAP4 OR SWAP1 SWAP4 AND SWAP2 SWAP1 SWAP2 OR SWAP1 SWAP2 SSTORE DUP11 AND PUSH2 0x2339 JUMPI PUSH1 0x40 MLOAD PUSH32 0x2E1A7D4D00000000000000000000000000000000000000000000000000000000 DUP2 MSTORE PUSH20 0xFFFFFFFFFFFFFFFFFFFFFFFFFFFFFFFFFFFFFFFF PUSH32 0x0 AND SWAP1 PUSH4 0x2E1A7D4D SWAP1 PUSH2 0x225E SWAP1 DUP11 SWAP1 PUSH1 0x4 ADD PUSH2 0x3A97 JUMP JUMPDEST PUSH1 0x0 PUSH1 0x40 MLOAD DUP1 DUP4 SUB DUP2 PUSH1 0x0 DUP8 DUP1 EXTCODESIZE ISZERO DUP1 ISZERO PUSH2 0x2278 JUMPI PUSH1 0x0 DUP1 REVERT JUMPDEST POP GAS CALL ISZERO DUP1 ISZERO PUSH2 0x228C JUMPI RETURNDATASIZE PUSH1 0x0 DUP1 RETURNDATACOPY RETURNDATASIZE PUSH1 0x0 REVERT JUMPDEST POP POP POP POP PUSH1 0x0 DUP9 PUSH20 0xFFFFFFFFFFFFFFFFFFFFFFFFFFFFFFFFFFFFFFFF AND DUP9 PUSH1 0x40 MLOAD PUSH2 0x22B6 SWAP1 PUSH2 0x3929 JUMP JUMPDEST PUSH1 0x0 PUSH1 0x40 MLOAD DUP1 DUP4 SUB DUP2 DUP6 DUP8 GAS CALL SWAP3 POP POP POP RETURNDATASIZE DUP1 PUSH1 0x0 DUP2 EQ PUSH2 0x22F3 JUMPI PUSH1 0x40 MLOAD SWAP2 POP PUSH1 0x1F NOT PUSH1 0x3F RETURNDATASIZE ADD AND DUP3 ADD PUSH1 0x40 MSTORE RETURNDATASIZE DUP3 MSTORE RETURNDATASIZE PUSH1 0x0 PUSH1 0x20 DUP5 ADD RETURNDATACOPY PUSH2 0x22F8 JUMP JUMPDEST PUSH1 0x60 SWAP2 POP JUMPDEST POP POP SWAP1 POP DUP1 PUSH2 0x2333 JUMPI PUSH1 0x40 MLOAD PUSH32 0x8C379A000000000000000000000000000000000000000000000000000000000 DUP2 MSTORE PUSH1 0x4 ADD PUSH2 0x5A4 SWAP1 PUSH2 0x3F3E JUMP JUMPDEST POP PUSH2 0x235A JUMP JUMPDEST PUSH2 0x235A PUSH20 0xFFFFFFFFFFFFFFFFFFFFFFFFFFFFFFFFFFFFFFFF DUP4 AND DUP10 DUP10 PUSH2 0x30CF JUMP JUMPDEST DUP8 PUSH20 0xFFFFFFFFFFFFFFFFFFFFFFFFFFFFFFFFFFFFFFFF AND DUP10 PUSH20 0xFFFFFFFFFFFFFFFFFFFFFFFFFFFFFFFFFFFFFFFF AND DUP4 PUSH20 0xFFFFFFFFFFFFFFFFFFFFFFFFFFFFFFFFFFFFFFFF AND PUSH32 0xAD9AB9EE6953D4D177F4A03B3A3AC3178FFCB9816319F348060194AA76B14486 DUP11 DUP11 PUSH1 0x40 MLOAD PUSH2 0x23D0 SWAP3 SWAP2 SWAP1 PUSH2 0x4021 JUMP JUMPDEST PUSH1 0x40 MLOAD DUP1 SWAP2 SUB SWAP1 LOG4 POP SWAP5 SWAP9 SWAP4 SWAP8 POP SWAP3 SWAP6 POP POP POP POP POP POP JUMP JUMPDEST CALLER PUSH1 0x0 DUP2 DUP2 MSTORE PUSH1 0x2 PUSH1 0x20 MSTORE PUSH1 0x40 DUP1 DUP3 KECCAK256 DUP1 SLOAD PUSH32 0xFFFFFFFFFFFFFFFFFFFFFFFF0000000000000000000000000000000000000000 AND DUP5 OR SWAP1 SSTORE MLOAD PUSH32 0xDFB44FFABF0D3A8F650D3CE43EFF98F6D050E7EA1A396D5794F014E7DADABACB SWAP2 SWAP1 LOG2 JUMP JUMPDEST PUSH1 0x2 PUSH1 0x20 MSTORE PUSH1 0x0 SWAP1 DUP2 MSTORE PUSH1 0x40 SWAP1 KECCAK256 SLOAD PUSH20 0xFFFFFFFFFFFFFFFFFFFFFFFFFFFFFFFFFFFFFFFF AND DUP2 JUMP JUMPDEST PUSH20 0xFFFFFFFFFFFFFFFFFFFFFFFFFFFFFFFFFFFFFFFF DUP6 AND PUSH2 0x24BC JUMPI PUSH1 0x40 MLOAD PUSH32 0x8C379A000000000000000000000000000000000000000000000000000000000 DUP2 MSTORE PUSH1 0x4 ADD PUSH2 0x5A4 SWAP1 PUSH2 0x3E9B JUMP JUMPDEST PUSH20 0xFFFFFFFFFFFFFFFFFFFFFFFFFFFFFFFFFFFFFFFF DUP6 DUP2 AND PUSH1 0x0 DUP2 DUP2 MSTORE PUSH1 0x3 PUSH1 0x20 SWAP1 DUP2 MSTORE PUSH1 0x40 DUP1 DUP4 KECCAK256 SWAP5 DUP12 AND DUP1 DUP5 MSTORE SWAP5 SWAP1 SWAP2 MSTORE SWAP1 DUP2 SWAP1 KECCAK256 DUP1 SLOAD PUSH32 0xFFFFFFFFFFFFFFFFFFFFFFFFFFFFFFFFFFFFFFFFFFFFFFFFFFFFFFFFFFFFFF00 AND DUP9 ISZERO ISZERO OR SWAP1 SSTORE MLOAD PUSH32 0x5F6EBB64BA012A851C6F014E6CAD458DDF213D1512049B31CD06365C2B059257 SWAP1 PUSH2 0x254B SWAP1 DUP9 SWAP1 PUSH2 0x3A8C JUMP JUMPDEST PUSH1 0x40 MLOAD DUP1 SWAP2 SUB SWAP1 LOG3 POP POP POP POP POP POP JUMP JUMPDEST PUSH1 0x60 DUP1 DUP4 PUSH8 0xFFFFFFFFFFFFFFFF DUP2 GT DUP1 ISZERO PUSH2 0x2575 JUMPI PUSH1 0x0 DUP1 REVERT JUMPDEST POP PUSH1 0x40 MLOAD SWAP1 DUP1 DUP3 MSTORE DUP1 PUSH1 0x20 MUL PUSH1 0x20 ADD DUP3 ADD PUSH1 0x40 MSTORE DUP1 ISZERO PUSH2 0x259F JUMPI DUP2 PUSH1 0x20 ADD PUSH1 0x20 DUP3 MUL DUP1 CALLDATASIZE DUP4 CALLDATACOPY ADD SWAP1 POP JUMPDEST POP SWAP2 POP DUP4 PUSH8 0xFFFFFFFFFFFFFFFF DUP2 GT DUP1 ISZERO PUSH2 0x25B9 JUMPI PUSH1 0x0 DUP1 REVERT JUMPDEST POP PUSH1 0x40 MLOAD SWAP1 DUP1 DUP3 MSTORE DUP1 PUSH1 0x20 MUL PUSH1 0x20 ADD DUP3 ADD PUSH1 0x40 MSTORE DUP1 ISZERO PUSH2 0x25ED JUMPI DUP2 PUSH1 0x20 ADD JUMPDEST PUSH1 0x60 DUP2 MSTORE PUSH1 0x20 ADD SWAP1 PUSH1 0x1 SWAP1 SUB SWAP1 DUP2 PUSH2 0x25D8 JUMPI SWAP1 POP JUMPDEST POP SWAP1 POP PUSH1 0x0 JUMPDEST DUP5 DUP2 LT ISZERO PUSH2 0x26FE JUMPI PUSH1 0x0 PUSH1 0x60 ADDRESS DUP9 DUP9 DUP6 DUP2 DUP2 LT PUSH2 0x260C JUMPI INVALID JUMPDEST SWAP1 POP PUSH1 0x20 MUL DUP2 ADD SWAP1 PUSH2 0x261E SWAP2 SWAP1 PUSH2 0x407A JUMP JUMPDEST PUSH1 0x40 MLOAD PUSH2 0x262C SWAP3 SWAP2 SWAP1 PUSH2 0x38FD JUMP JUMPDEST PUSH1 0x0 PUSH1 0x40 MLOAD DUP1 DUP4 SUB DUP2 DUP6 GAS DELEGATECALL SWAP2 POP POP RETURNDATASIZE DUP1 PUSH1 0x0 DUP2 EQ PUSH2 0x2667 JUMPI PUSH1 0x40 MLOAD SWAP2 POP PUSH1 0x1F NOT PUSH1 0x3F RETURNDATASIZE ADD AND DUP3 ADD PUSH1 0x40 MSTORE RETURNDATASIZE DUP3 MSTORE RETURNDATASIZE PUSH1 0x0 PUSH1 0x20 DUP5 ADD RETURNDATACOPY PUSH2 0x266C JUMP JUMPDEST PUSH1 0x60 SWAP2 POP JUMPDEST POP SWAP2 POP SWAP2 POP DUP2 DUP1 PUSH2 0x267B JUMPI POP DUP6 ISZERO JUMPDEST PUSH2 0x2684 DUP3 PUSH2 0x3237 JUMP JUMPDEST SWAP1 PUSH2 0x26BC JUMPI PUSH1 0x40 MLOAD PUSH32 0x8C379A000000000000000000000000000000000000000000000000000000000 DUP2 MSTORE PUSH1 0x4 ADD PUSH2 0x5A4 SWAP2 SWAP1 PUSH2 0x3B1E JUMP JUMPDEST POP DUP2 DUP6 DUP5 DUP2 MLOAD DUP2 LT PUSH2 0x26CA JUMPI INVALID JUMPDEST PUSH1 0x20 MUL PUSH1 0x20 ADD ADD SWAP1 ISZERO ISZERO SWAP1 DUP2 ISZERO ISZERO DUP2 MSTORE POP POP DUP1 DUP5 DUP5 DUP2 MLOAD DUP2 LT PUSH2 0x26E9 JUMPI INVALID JUMPDEST PUSH1 0x20 SWAP1 DUP2 MUL SWAP2 SWAP1 SWAP2 ADD ADD MSTORE POP POP PUSH1 0x1 ADD PUSH2 0x25F3 JUMP JUMPDEST POP SWAP4 POP SWAP4 SWAP2 POP POP JUMP JUMPDEST PUSH20 0xFFFFFFFFFFFFFFFFFFFFFFFFFFFFFFFFFFFFFFFF DUP4 AND PUSH1 0x0 SWAP1 DUP2 MSTORE PUSH1 0x7 PUSH1 0x20 SWAP1 DUP2 MSTORE PUSH1 0x40 DUP1 DUP4 KECCAK256 DUP2 MLOAD DUP1 DUP4 ADD SWAP1 SWAP3 MSTORE SLOAD PUSH16 0xFFFFFFFFFFFFFFFFFFFFFFFFFFFFFFFF DUP1 DUP3 AND DUP4 MSTORE PUSH17 0x100000000000000000000000000000000 SWAP1 SWAP2 DIV AND SWAP2 DUP2 ADD SWAP2 SWAP1 SWAP2 MSTORE PUSH2 0x163D SWAP1 DUP5 DUP5 PUSH2 0x2A5E JUMP JUMPDEST PUSH1 0xA PUSH1 0x20 MSTORE PUSH1 0x0 SWAP1 DUP2 MSTORE PUSH1 0x40 SWAP1 KECCAK256 SLOAD PUSH8 0xFFFFFFFFFFFFFFFF DUP1 DUP3 AND SWAP2 PUSH9 0x10000000000000000 DUP2 DIV SWAP1 SWAP2 AND SWAP1 PUSH17 0x100000000000000000000000000000000 SWAP1 DIV PUSH16 0xFFFFFFFFFFFFFFFFFFFFFFFFFFFFFFFF AND DUP4 JUMP JUMPDEST PUSH1 0x1 SLOAD PUSH20 0xFFFFFFFFFFFFFFFFFFFFFFFFFFFFFFFFFFFFFFFF AND DUP2 JUMP JUMPDEST DUP3 PUSH20 0xFFFFFFFFFFFFFFFFFFFFFFFFFFFFFFFFFFFFFFFF DUP2 AND CALLER EQ DUP1 ISZERO SWAP1 PUSH2 0x2824 JUMPI POP PUSH20 0xFFFFFFFFFFFFFFFFFFFFFFFFFFFFFFFFFFFFFFFF DUP2 AND ADDRESS EQ ISZERO JUMPDEST ISZERO PUSH2 0x28F4 JUMPI CALLER PUSH1 0x0 SWAP1 DUP2 MSTORE PUSH1 0x2 PUSH1 0x20 MSTORE PUSH1 0x40 SWAP1 KECCAK256 SLOAD PUSH20 0xFFFFFFFFFFFFFFFFFFFFFFFFFFFFFFFFFFFFFFFF AND DUP1 PUSH2 0x2886 JUMPI PUSH1 0x40 MLOAD PUSH32 0x8C379A000000000000000000000000000000000000000000000000000000000 DUP2 MSTORE PUSH1 0x4 ADD PUSH2 0x5A4 SWAP1 PUSH2 0x3ED2 JUMP JUMPDEST PUSH20 0xFFFFFFFFFFFFFFFFFFFFFFFFFFFFFFFFFFFFFFFF DUP1 DUP3 AND PUSH1 0x0 SWAP1 DUP2 MSTORE PUSH1 0x3 PUSH1 0x20 SWAP1 DUP2 MSTORE PUSH1 0x40 DUP1 DUP4 KECCAK256 SWAP4 DUP7 AND DUP4 MSTORE SWAP3 SWAP1 MSTORE KECCAK256 SLOAD PUSH1 0xFF AND PUSH2 0x28F2 JUMPI PUSH1 0x40 MLOAD PUSH32 0x8C379A000000000000000000000000000000000000000000000000000000000 DUP2 MSTORE PUSH1 0x4 ADD PUSH2 0x5A4 SWAP1 PUSH2 0x3DC3 JUMP JUMPDEST POP JUMPDEST PUSH20 0xFFFFFFFFFFFFFFFFFFFFFFFFFFFFFFFFFFFFFFFF DUP4 AND PUSH2 0x2941 JUMPI PUSH1 0x40 MLOAD PUSH32 0x8C379A000000000000000000000000000000000000000000000000000000000 DUP2 MSTORE PUSH1 0x4 ADD PUSH2 0x5A4 SWAP1 PUSH2 0x3D20 JUMP JUMPDEST PUSH20 0xFFFFFFFFFFFFFFFFFFFFFFFFFFFFFFFFFFFFFFFF DUP1 DUP7 AND PUSH1 0x0 SWAP1 DUP2 MSTORE PUSH1 0x6 PUSH1 0x20 SWAP1 DUP2 MSTORE PUSH1 0x40 DUP1 DUP4 KECCAK256 SWAP4 DUP9 AND DUP4 MSTORE SWAP3 SWAP1 MSTORE KECCAK256 SLOAD PUSH2 0x297E SWAP1 DUP4 PUSH2 0x2D4B JUMP JUMPDEST PUSH20 0xFFFFFFFFFFFFFFFFFFFFFFFFFFFFFFFFFFFFFFFF DUP7 DUP2 AND PUSH1 0x0 SWAP1 DUP2 MSTORE PUSH1 0x6 PUSH1 0x20 SWAP1 DUP2 MSTORE PUSH1 0x40 DUP1 DUP4 KECCAK256 DUP10 DUP6 AND DUP5 MSTORE SWAP1 SWAP2 MSTORE DUP1 DUP3 KECCAK256 SWAP4 SWAP1 SWAP4 SSTORE SWAP1 DUP6 AND DUP2 MSTORE KECCAK256 SLOAD PUSH2 0x29C7 SWAP1 DUP4 PUSH2 0x2D88 JUMP JUMPDEST PUSH20 0xFFFFFFFFFFFFFFFFFFFFFFFFFFFFFFFFFFFFFFFF DUP1 DUP8 AND PUSH1 0x0 DUP2 DUP2 MSTORE PUSH1 0x6 PUSH1 0x20 SWAP1 DUP2 MSTORE PUSH1 0x40 DUP1 DUP4 KECCAK256 DUP10 DUP7 AND DUP1 DUP6 MSTORE SWAP3 MSTORE SWAP2 DUP3 SWAP1 KECCAK256 SWAP5 SWAP1 SWAP5 SSTORE MLOAD SWAP2 DUP8 AND SWAP2 PUSH32 0x6EABE333476233FD382224F233210CB808A7BC4C4DE64F9D76628BF63C677B1A SWAP1 PUSH2 0x2A32 SWAP1 DUP8 SWAP1 PUSH2 0x3A97 JUMP JUMPDEST PUSH1 0x40 MLOAD DUP1 SWAP2 SUB SWAP1 LOG4 POP POP POP POP POP JUMP JUMPDEST PUSH1 0x6 PUSH1 0x20 SWAP1 DUP2 MSTORE PUSH1 0x0 SWAP3 DUP4 MSTORE PUSH1 0x40 DUP1 DUP5 KECCAK256 SWAP1 SWAP2 MSTORE SWAP1 DUP3 MSTORE SWAP1 KECCAK256 SLOAD DUP2 JUMP JUMPDEST DUP3 MLOAD PUSH1 0x0 SWAP1 PUSH16 0xFFFFFFFFFFFFFFFFFFFFFFFFFFFFFFFF AND PUSH2 0x2A80 JUMPI POP DUP2 PUSH2 0x2B15 JUMP JUMPDEST DUP4 MLOAD PUSH1 0x20 DUP6 ADD MLOAD PUSH16 0xFFFFFFFFFFFFFFFFFFFFFFFFFFFFFFFF SWAP2 DUP3 AND SWAP2 PUSH2 0x2AA8 SWAP2 DUP7 SWAP2 AND PUSH2 0x3297 JUMP JUMPDEST DUP2 PUSH2 0x2AAF JUMPI INVALID JUMPDEST DIV SWAP1 POP DUP2 DUP1 ISZERO PUSH2 0x2B05 JUMPI POP DUP3 DUP5 PUSH1 0x20 ADD MLOAD PUSH16 0xFFFFFFFFFFFFFFFFFFFFFFFFFFFFFFFF AND PUSH2 0x2AFB DUP7 PUSH1 0x0 ADD MLOAD PUSH16 0xFFFFFFFFFFFFFFFFFFFFFFFFFFFFFFFF AND DUP5 PUSH2 0x3297 SWAP1 SWAP2 SWAP1 PUSH4 0xFFFFFFFF AND JUMP JUMPDEST DUP2 PUSH2 0x2B02 JUMPI INVALID JUMPDEST DIV LT JUMPDEST ISZERO PUSH2 0x2B15 JUMPI PUSH2 0x163D DUP2 PUSH1 0x1 PUSH2 0x2D88 JUMP JUMPDEST SWAP4 SWAP3 POP POP POP JUMP JUMPDEST PUSH1 0x0 PUSH16 0xFFFFFFFFFFFFFFFFFFFFFFFFFFFFFFFF DUP3 GT ISZERO PUSH2 0x2B68 JUMPI PUSH1 0x40 MLOAD PUSH32 0x8C379A000000000000000000000000000000000000000000000000000000000 DUP2 MSTORE PUSH1 0x4 ADD PUSH2 0x5A4 SWAP1 PUSH2 0x3C7B JUMP JUMPDEST POP SWAP1 JUMP JUMPDEST DUP2 DUP2 ADD PUSH16 0xFFFFFFFFFFFFFFFFFFFFFFFFFFFFFFFF DUP1 DUP4 AND SWAP1 DUP3 AND LT ISZERO PUSH2 0x2BBE JUMPI PUSH1 0x40 MLOAD PUSH32 0x8C379A000000000000000000000000000000000000000000000000000000000 DUP2 MSTORE PUSH1 0x4 ADD PUSH2 0x5A4 SWAP1 PUSH2 0x3CB2 JUMP JUMPDEST SWAP3 SWAP2 POP POP JUMP JUMPDEST PUSH1 0x0 DUP4 PUSH1 0x20 ADD MLOAD PUSH16 0xFFFFFFFFFFFFFFFFFFFFFFFFFFFFFFFF AND PUSH1 0x0 EQ ISZERO PUSH2 0x2BEC JUMPI POP DUP2 PUSH2 0x2B15 JUMP JUMPDEST PUSH1 0x20 DUP5 ADD MLOAD DUP5 MLOAD PUSH16 0xFFFFFFFFFFFFFFFFFFFFFFFFFFFFFFFF SWAP2 DUP3 AND SWAP2 PUSH2 0x2C14 SWAP2 DUP7 SWAP2 AND PUSH2 0x3297 JUMP JUMPDEST DUP2 PUSH2 0x2C1B JUMPI INVALID JUMPDEST DIV SWAP1 POP DUP2 DUP1 ISZERO PUSH2 0x2B05 JUMPI POP DUP3 DUP5 PUSH1 0x0 ADD MLOAD PUSH16 0xFFFFFFFFFFFFFFFFFFFFFFFFFFFFFFFF AND PUSH2 0x2AFB DUP7 PUSH1 0x20 ADD MLOAD PUSH16 0xFFFFFFFFFFFFFFFFFFFFFFFFFFFFFFFF AND DUP5 PUSH2 0x3297 SWAP1 SWAP2 SWAP1 PUSH4 0xFFFFFFFF AND JUMP JUMPDEST PUSH20 0xFFFFFFFFFFFFFFFFFFFFFFFFFFFFFFFFFFFFFFFF DUP2 AND PUSH1 0x0 DUP2 DUP2 MSTORE PUSH1 0xA PUSH1 0x20 MSTORE PUSH1 0x40 DUP1 DUP3 KECCAK256 SLOAD SWAP1 MLOAD PUSH32 0x70A0823100000000000000000000000000000000000000000000000000000000 DUP2 MSTORE SWAP2 SWAP3 PUSH2 0x2BBE SWAP3 PUSH17 0x100000000000000000000000000000000 SWAP1 SWAP3 DIV PUSH16 0xFFFFFFFFFFFFFFFFFFFFFFFFFFFFFFFF AND SWAP2 PUSH4 0x70A08231 SWAP1 PUSH2 0x2CF5 SWAP1 ADDRESS SWAP1 PUSH1 0x4 ADD PUSH2 0x392C JUMP JUMPDEST PUSH1 0x20 PUSH1 0x40 MLOAD DUP1 DUP4 SUB DUP2 DUP7 DUP1 EXTCODESIZE ISZERO DUP1 ISZERO PUSH2 0x2D0D JUMPI PUSH1 0x0 DUP1 REVERT JUMPDEST POP GAS STATICCALL ISZERO DUP1 ISZERO PUSH2 0x2D21 JUMPI RETURNDATASIZE PUSH1 0x0 DUP1 RETURNDATACOPY RETURNDATASIZE PUSH1 0x0 REVERT JUMPDEST POP POP POP POP PUSH1 0x40 MLOAD RETURNDATASIZE PUSH1 0x1F NOT PUSH1 0x1F DUP3 ADD AND DUP3 ADD DUP1 PUSH1 0x40 MSTORE POP DUP2 ADD SWAP1 PUSH2 0x2D45 SWAP2 SWAP1 PUSH2 0x37E2 JUMP JUMPDEST SWAP1 PUSH2 0x2D88 JUMP JUMPDEST DUP1 DUP3 SUB DUP3 DUP2 GT ISZERO PUSH2 0x2BBE JUMPI PUSH1 0x40 MLOAD PUSH32 0x8C379A000000000000000000000000000000000000000000000000000000000 DUP2 MSTORE PUSH1 0x4 ADD PUSH2 0x5A4 SWAP1 PUSH2 0x3B31 JUMP JUMPDEST DUP2 DUP2 ADD DUP2 DUP2 LT ISZERO PUSH2 0x2BBE JUMPI PUSH1 0x40 MLOAD PUSH32 0x8C379A000000000000000000000000000000000000000000000000000000000 DUP2 MSTORE PUSH1 0x4 ADD PUSH2 0x5A4 SWAP1 PUSH2 0x3CB2 JUMP JUMPDEST PUSH1 0x0 PUSH1 0x60 DUP6 PUSH20 0xFFFFFFFFFFFFFFFFFFFFFFFFFFFFFFFFFFFFFFFF AND PUSH4 0x23B872DD PUSH1 0xE0 SHL DUP7 DUP7 DUP7 PUSH1 0x40 MLOAD PUSH1 0x24 ADD PUSH2 0x2DFD SWAP4 SWAP3 SWAP2 SWAP1 PUSH2 0x394D JUMP JUMPDEST PUSH1 0x40 DUP1 MLOAD PUSH32 0xFFFFFFFFFFFFFFFFFFFFFFFFFFFFFFFFFFFFFFFFFFFFFFFFFFFFFFFFFFFFFFE0 DUP2 DUP5 SUB ADD DUP2 MSTORE SWAP2 DUP2 MSTORE PUSH1 0x20 DUP3 ADD DUP1 MLOAD PUSH28 0xFFFFFFFFFFFFFFFFFFFFFFFFFFFFFFFFFFFFFFFFFFFFFFFFFFFFFFFF AND PUSH32 0xFFFFFFFF00000000000000000000000000000000000000000000000000000000 SWAP1 SWAP5 AND SWAP4 SWAP1 SWAP4 OR SWAP1 SWAP3 MSTORE SWAP1 MLOAD PUSH2 0x2E86 SWAP2 SWAP1 PUSH2 0x390D JUMP JUMPDEST PUSH1 0x0 PUSH1 0x40 MLOAD DUP1 DUP4 SUB DUP2 PUSH1 0x0 DUP7 GAS CALL SWAP2 POP POP RETURNDATASIZE DUP1 PUSH1 0x0 DUP2 EQ PUSH2 0x2EC3 JUMPI PUSH1 0x40 MLOAD SWAP2 POP PUSH1 0x1F NOT PUSH1 0x3F RETURNDATASIZE ADD AND DUP3 ADD PUSH1 0x40 MSTORE RETURNDATASIZE DUP3 MSTORE RETURNDATASIZE PUSH1 0x0 PUSH1 0x20 DUP5 ADD RETURNDATACOPY PUSH2 0x2EC8 JUMP JUMPDEST PUSH1 0x60 SWAP2 POP JUMPDEST POP SWAP2 POP SWAP2 POP DUP2 DUP1 ISZERO PUSH2 0x2EF2 JUMPI POP DUP1 MLOAD ISZERO DUP1 PUSH2 0x2EF2 JUMPI POP DUP1 DUP1 PUSH1 0x20 ADD SWAP1 MLOAD DUP2 ADD SWAP1 PUSH2 0x2EF2 SWAP2 SWAP1 PUSH2 0x3582 JUMP JUMPDEST PUSH2 0x2F28 JUMPI PUSH1 0x40 MLOAD PUSH32 0x8C379A000000000000000000000000000000000000000000000000000000000 DUP2 MSTORE PUSH1 0x4 ADD PUSH2 0x5A4 SWAP1 PUSH2 0x3F09 JUMP JUMPDEST POP POP POP POP POP POP JUMP JUMPDEST PUSH1 0x0 PUSH32 0x8CAD95687BA82C2CE50E74F7B754645E5117C3A5BEC8151C0726D5857980A866 PUSH32 0xD7DF266AFF736D415A9DC14B4158201D612E70D75B9C7F4E375CCFD20AA5166F DUP4 ADDRESS PUSH1 0x40 MLOAD PUSH1 0x20 ADD PUSH2 0x2F89 SWAP5 SWAP4 SWAP3 SWAP2 SWAP1 PUSH2 0x3AA0 JUMP JUMPDEST PUSH1 0x40 MLOAD PUSH1 0x20 DUP2 DUP4 SUB SUB DUP2 MSTORE SWAP1 PUSH1 0x40 MSTORE DUP1 MLOAD SWAP1 PUSH1 0x20 ADD KECCAK256 SWAP1 POP JUMPDEST SWAP2 SWAP1 POP JUMP JUMPDEST PUSH1 0x0 PUSH8 0xFFFFFFFFFFFFFFFF DUP3 GT ISZERO PUSH2 0x2B68 JUMPI PUSH1 0x40 MLOAD PUSH32 0x8C379A000000000000000000000000000000000000000000000000000000000 DUP2 MSTORE PUSH1 0x4 ADD PUSH2 0x5A4 SWAP1 PUSH2 0x3E2F JUMP JUMPDEST PUSH1 0x0 PUSH2 0x3013 PUSH2 0x2FF9 DUP4 PUSH2 0x2B1C JUMP JUMPDEST DUP5 SLOAD PUSH16 0xFFFFFFFFFFFFFFFFFFFFFFFFFFFFFFFF AND SWAP1 PUSH2 0x2B6C JUMP JUMPDEST DUP4 SLOAD PUSH32 0xFFFFFFFFFFFFFFFFFFFFFFFFFFFFFFFF00000000000000000000000000000000 AND PUSH16 0xFFFFFFFFFFFFFFFFFFFFFFFFFFFFFFFF SWAP2 SWAP1 SWAP2 AND SWAP1 DUP2 OR SWAP1 SWAP4 SSTORE POP SWAP1 SWAP2 SWAP1 POP JUMP JUMPDEST PUSH1 0x0 PUSH2 0x3013 PUSH2 0x3067 DUP4 PUSH2 0x2B1C JUMP JUMPDEST DUP5 SLOAD PUSH16 0xFFFFFFFFFFFFFFFFFFFFFFFFFFFFFFFF AND SWAP1 JUMPDEST DUP1 DUP3 SUB PUSH16 0xFFFFFFFFFFFFFFFFFFFFFFFFFFFFFFFF DUP1 DUP5 AND SWAP1 DUP3 AND GT ISZERO PUSH2 0x2BBE JUMPI PUSH1 0x40 MLOAD PUSH32 0x8C379A000000000000000000000000000000000000000000000000000000000 DUP2 MSTORE PUSH1 0x4 ADD PUSH2 0x5A4 SWAP1 PUSH2 0x3B31 JUMP JUMPDEST PUSH1 0x0 PUSH1 0x60 DUP5 PUSH20 0xFFFFFFFFFFFFFFFFFFFFFFFFFFFFFFFFFFFFFFFF AND PUSH4 0xA9059CBB PUSH1 0xE0 SHL DUP6 DUP6 PUSH1 0x40 MLOAD PUSH1 0x24 ADD PUSH2 0x3105 SWAP3 SWAP2 SWAP1 PUSH2 0x39CC JUMP JUMPDEST PUSH1 0x40 DUP1 MLOAD PUSH32 0xFFFFFFFFFFFFFFFFFFFFFFFFFFFFFFFFFFFFFFFFFFFFFFFFFFFFFFFFFFFFFFE0 DUP2 DUP5 SUB ADD DUP2 MSTORE SWAP2 DUP2 MSTORE PUSH1 0x20 DUP3 ADD DUP1 MLOAD PUSH28 0xFFFFFFFFFFFFFFFFFFFFFFFFFFFFFFFFFFFFFFFFFFFFFFFFFFFFFFFF AND PUSH32 0xFFFFFFFF00000000000000000000000000000000000000000000000000000000 SWAP1 SWAP5 AND SWAP4 SWAP1 SWAP4 OR SWAP1 SWAP3 MSTORE SWAP1 MLOAD PUSH2 0x318E SWAP2 SWAP1 PUSH2 0x390D JUMP JUMPDEST PUSH1 0x0 PUSH1 0x40 MLOAD DUP1 DUP4 SUB DUP2 PUSH1 0x0 DUP7 GAS CALL SWAP2 POP POP RETURNDATASIZE DUP1 PUSH1 0x0 DUP2 EQ PUSH2 0x31CB JUMPI PUSH1 0x40 MLOAD SWAP2 POP PUSH1 0x1F NOT PUSH1 0x3F RETURNDATASIZE ADD AND DUP3 ADD PUSH1 0x40 MSTORE RETURNDATASIZE DUP3 MSTORE RETURNDATASIZE PUSH1 0x0 PUSH1 0x20 DUP5 ADD RETURNDATACOPY PUSH2 0x31D0 JUMP JUMPDEST PUSH1 0x60 SWAP2 POP JUMPDEST POP SWAP2 POP SWAP2 POP DUP2 DUP1 ISZERO PUSH2 0x31FA JUMPI POP DUP1 MLOAD ISZERO DUP1 PUSH2 0x31FA JUMPI POP DUP1 DUP1 PUSH1 0x20 ADD SWAP1 MLOAD DUP2 ADD SWAP1 PUSH2 0x31FA SWAP2 SWAP1 PUSH2 0x3582 JUMP JUMPDEST PUSH2 0x3230 JUMPI PUSH1 0x40 MLOAD PUSH32 0x8C379A000000000000000000000000000000000000000000000000000000000 DUP2 MSTORE PUSH1 0x4 ADD PUSH2 0x5A4 SWAP1 PUSH2 0x3BD6 JUMP JUMPDEST POP POP POP POP POP JUMP JUMPDEST PUSH1 0x60 PUSH1 0x44 DUP3 MLOAD LT ISZERO PUSH2 0x327D JUMPI POP PUSH1 0x40 DUP1 MLOAD DUP1 DUP3 ADD SWAP1 SWAP2 MSTORE PUSH1 0x1D DUP2 MSTORE PUSH32 0x5472616E73616374696F6E2072657665727465642073696C656E746C79000000 PUSH1 0x20 DUP3 ADD MSTORE PUSH2 0x2FA2 JUMP JUMPDEST PUSH1 0x4 DUP3 ADD SWAP2 POP DUP2 DUP1 PUSH1 0x20 ADD SWAP1 MLOAD DUP2 ADD SWAP1 PUSH2 0x2BBE SWAP2 SWAP1 PUSH2 0x37FA JUMP JUMPDEST PUSH1 0x0 DUP2 ISZERO DUP1 PUSH2 0x32B2 JUMPI POP POP DUP1 DUP3 MUL DUP3 DUP3 DUP3 DUP2 PUSH2 0x32AF JUMPI INVALID JUMPDEST DIV EQ JUMPDEST PUSH2 0x2BBE JUMPI PUSH1 0x40 MLOAD PUSH32 0x8C379A000000000000000000000000000000000000000000000000000000000 DUP2 MSTORE PUSH1 0x4 ADD PUSH2 0x5A4 SWAP1 PUSH2 0x3F75 JUMP JUMPDEST PUSH1 0x40 DUP1 MLOAD DUP1 DUP3 ADD SWAP1 SWAP2 MSTORE PUSH1 0x0 DUP1 DUP3 MSTORE PUSH1 0x20 DUP3 ADD MSTORE SWAP1 JUMP JUMPDEST PUSH1 0x40 DUP1 MLOAD PUSH1 0x60 DUP2 ADD DUP3 MSTORE PUSH1 0x0 DUP1 DUP3 MSTORE PUSH1 0x20 DUP3 ADD DUP2 SWAP1 MSTORE SWAP2 DUP2 ADD SWAP2 SWAP1 SWAP2 MSTORE SWAP1 JUMP JUMPDEST PUSH1 0x0 DUP1 DUP4 PUSH1 0x1F DUP5 ADD SLT PUSH2 0x3330 JUMPI DUP2 DUP3 REVERT JUMPDEST POP DUP2 CALLDATALOAD PUSH8 0xFFFFFFFFFFFFFFFF DUP2 GT ISZERO PUSH2 0x3347 JUMPI DUP2 DUP3 REVERT JUMPDEST PUSH1 0x20 DUP4 ADD SWAP2 POP DUP4 PUSH1 0x20 DUP1 DUP4 MUL DUP6 ADD ADD GT ISZERO PUSH2 0x3361 JUMPI PUSH1 0x0 DUP1 REVERT JUMPDEST SWAP3 POP SWAP3 SWAP1 POP JUMP JUMPDEST PUSH1 0x0 PUSH1 0x20 DUP3 DUP5 SUB SLT ISZERO PUSH2 0x3379 JUMPI DUP1 DUP2 REVERT JUMPDEST DUP2 CALLDATALOAD PUSH2 0x2B15 DUP2 PUSH2 0x410D JUMP JUMPDEST PUSH1 0x0 DUP1 PUSH1 0x40 DUP4 DUP6 SUB SLT ISZERO PUSH2 0x3396 JUMPI DUP1 DUP2 REVERT JUMPDEST DUP3 CALLDATALOAD PUSH2 0x33A1 DUP2 PUSH2 0x410D JUMP JUMPDEST SWAP2 POP PUSH1 0x20 DUP4 ADD CALLDATALOAD PUSH2 0x33B1 DUP2 PUSH2 0x410D JUMP JUMPDEST DUP1 SWAP2 POP POP SWAP3 POP SWAP3 SWAP1 POP JUMP JUMPDEST PUSH1 0x0 DUP1 PUSH1 0x0 DUP1 PUSH1 0x0 DUP1 PUSH1 0xC0 DUP8 DUP10 SUB SLT ISZERO PUSH2 0x33D4 JUMPI DUP2 DUP3 REVERT JUMPDEST DUP7 CALLDATALOAD PUSH2 0x33DF DUP2 PUSH2 0x410D JUMP JUMPDEST SWAP6 POP PUSH1 0x20 DUP8 ADD CALLDATALOAD PUSH2 0x33EF DUP2 PUSH2 0x410D JUMP JUMPDEST SWAP5 POP PUSH1 0x40 DUP8 ADD CALLDATALOAD PUSH2 0x33FF DUP2 PUSH2 0x4132 JUMP JUMPDEST SWAP4 POP PUSH1 0x60 DUP8 ADD CALLDATALOAD PUSH1 0xFF DUP2 AND DUP2 EQ PUSH2 0x3414 JUMPI DUP3 DUP4 REVERT JUMPDEST SWAP6 SWAP9 SWAP5 SWAP8 POP SWAP3 SWAP6 PUSH1 0x80 DUP2 ADD CALLDATALOAD SWAP5 PUSH1 0xA0 SWAP1 SWAP2 ADD CALLDATALOAD SWAP4 POP SWAP2 POP POP JUMP JUMPDEST PUSH1 0x0 DUP1 PUSH1 0x40 DUP4 DUP6 SUB SLT ISZERO PUSH2 0x3440 JUMPI DUP2 DUP3 REVERT JUMPDEST DUP3 CALLDATALOAD PUSH2 0x344B DUP2 PUSH2 0x410D JUMP JUMPDEST SWAP2 POP PUSH1 0x20 DUP4 ADD CALLDATALOAD PUSH2 0x33B1 DUP2 PUSH2 0x4132 JUMP JUMPDEST PUSH1 0x0 DUP1 PUSH1 0x0 PUSH1 0x60 DUP5 DUP7 SUB SLT ISZERO PUSH2 0x346F JUMPI DUP3 DUP4 REVERT JUMPDEST DUP4 CALLDATALOAD PUSH2 0x347A DUP2 PUSH2 0x410D JUMP JUMPDEST SWAP3 POP PUSH1 0x20 DUP5 ADD CALLDATALOAD PUSH2 0x348A DUP2 PUSH2 0x4132 JUMP JUMPDEST SWAP2 POP PUSH1 0x40 DUP5 ADD CALLDATALOAD PUSH2 0x349A DUP2 PUSH2 0x4132 JUMP JUMPDEST DUP1 SWAP2 POP POP SWAP3 POP SWAP3 POP SWAP3 JUMP JUMPDEST PUSH1 0x0 DUP1 PUSH1 0x0 DUP1 PUSH1 0x60 DUP6 DUP8 SUB SLT ISZERO PUSH2 0x34BA JUMPI DUP4 DUP5 REVERT JUMPDEST DUP5 CALLDATALOAD PUSH2 0x34C5 DUP2 PUSH2 0x410D JUMP JUMPDEST SWAP4 POP PUSH1 0x20 DUP6 ADD CALLDATALOAD PUSH8 0xFFFFFFFFFFFFFFFF DUP1 DUP3 GT ISZERO PUSH2 0x34E1 JUMPI DUP5 DUP6 REVERT JUMPDEST DUP2 DUP8 ADD SWAP2 POP DUP8 PUSH1 0x1F DUP4 ADD SLT PUSH2 0x34F4 JUMPI DUP5 DUP6 REVERT JUMPDEST DUP2 CALLDATALOAD DUP2 DUP2 GT ISZERO PUSH2 0x3502 JUMPI DUP6 DUP7 REVERT JUMPDEST DUP9 PUSH1 0x20 DUP3 DUP6 ADD ADD GT ISZERO PUSH2 0x3513 JUMPI DUP6 DUP7 REVERT JUMPDEST PUSH1 0x20 DUP4 ADD SWAP6 POP DUP1 SWAP5 POP POP POP POP PUSH1 0x40 DUP6 ADD CALLDATALOAD PUSH2 0x352D DUP2 PUSH2 0x4132 JUMP JUMPDEST SWAP4 SWAP7 SWAP3 SWAP6 POP SWAP1 SWAP4 POP POP JUMP JUMPDEST PUSH1 0x0 DUP1 PUSH1 0x0 PUSH1 0x40 DUP5 DUP7 SUB SLT ISZERO PUSH2 0x354C JUMPI DUP3 DUP4 REVERT JUMPDEST DUP4 CALLDATALOAD PUSH8 0xFFFFFFFFFFFFFFFF DUP2 GT ISZERO PUSH2 0x3562 JUMPI DUP4 DUP5 REVERT JUMPDEST PUSH2 0x356E DUP7 DUP3 DUP8 ADD PUSH2 0x331F JUMP JUMPDEST SWAP1 SWAP5 POP SWAP3 POP POP PUSH1 0x20 DUP5 ADD CALLDATALOAD PUSH2 0x349A DUP2 PUSH2 0x4132 JUMP JUMPDEST PUSH1 0x0 PUSH1 0x20 DUP3 DUP5 SUB SLT ISZERO PUSH2 0x3593 JUMPI DUP1 DUP2 REVERT JUMPDEST DUP2 MLOAD PUSH2 0x2B15 DUP2 PUSH2 0x4132 JUMP JUMPDEST PUSH1 0x0 DUP1 PUSH1 0x40 DUP4 DUP6 SUB SLT ISZERO PUSH2 0x3396 JUMPI DUP2 DUP3 REVERT JUMPDEST PUSH1 0x0 DUP1 PUSH1 0x0 DUP1 PUSH1 0x80 DUP6 DUP8 SUB SLT ISZERO PUSH2 0x35C5 JUMPI DUP2 DUP3 REVERT JUMPDEST DUP5 CALLDATALOAD PUSH2 0x35D0 DUP2 PUSH2 0x410D JUMP JUMPDEST SWAP4 POP PUSH1 0x20 DUP6 ADD CALLDATALOAD PUSH2 0x35E0 DUP2 PUSH2 0x410D JUMP JUMPDEST SWAP3 POP PUSH1 0x40 DUP6 ADD CALLDATALOAD PUSH2 0x35F0 DUP2 PUSH2 0x410D JUMP JUMPDEST SWAP4 SWAP7 SWAP3 SWAP6 POP SWAP3 SWAP4 PUSH1 0x60 ADD CALLDATALOAD SWAP3 POP POP JUMP JUMPDEST PUSH1 0x0 DUP1 PUSH1 0x0 DUP1 PUSH1 0x0 PUSH1 0xA0 DUP7 DUP9 SUB SLT ISZERO PUSH2 0x3617 JUMPI DUP3 DUP4 REVERT JUMPDEST DUP6 CALLDATALOAD PUSH2 0x3622 DUP2 PUSH2 0x410D JUMP JUMPDEST SWAP5 POP PUSH1 0x20 DUP7 ADD CALLDATALOAD PUSH2 0x3632 DUP2 PUSH2 0x410D JUMP JUMPDEST SWAP4 POP PUSH1 0x40 DUP7 ADD CALLDATALOAD PUSH2 0x3642 DUP2 PUSH2 0x410D JUMP JUMPDEST SWAP5 SWAP8 SWAP4 SWAP7 POP SWAP4 SWAP5 PUSH1 0x60 DUP2 ADD CALLDATALOAD SWAP5 POP PUSH1 0x80 ADD CALLDATALOAD SWAP3 SWAP2 POP POP JUMP JUMPDEST PUSH1 0x0 DUP1 PUSH1 0x0 DUP1 PUSH1 0x0 DUP1 PUSH1 0x0 DUP1 PUSH2 0x100 DUP10 DUP12 SUB SLT ISZERO PUSH2 0x3676 JUMPI DUP6 DUP7 REVERT JUMPDEST DUP9 CALLDATALOAD PUSH2 0x3681 DUP2 PUSH2 0x410D JUMP JUMPDEST SWAP8 POP PUSH1 0x20 DUP10 ADD CALLDATALOAD PUSH2 0x3691 DUP2 PUSH2 0x410D JUMP JUMPDEST SWAP7 POP PUSH1 0x40 DUP10 ADD CALLDATALOAD PUSH2 0x36A1 DUP2 PUSH2 0x410D JUMP JUMPDEST SWAP6 POP PUSH1 0x60 DUP10 ADD CALLDATALOAD SWAP5 POP PUSH1 0x80 DUP10 ADD CALLDATALOAD SWAP4 POP PUSH1 0xA0 DUP10 ADD CALLDATALOAD PUSH1 0xFF DUP2 AND DUP2 EQ PUSH2 0x36C4 JUMPI DUP3 DUP4 REVERT JUMPDEST SWAP8 SWAP11 SWAP7 SWAP10 POP SWAP5 SWAP8 SWAP4 SWAP7 SWAP3 SWAP6 SWAP3 SWAP5 POP POP POP PUSH1 0xC0 DUP3 ADD CALLDATALOAD SWAP2 PUSH1 0xE0 ADD CALLDATALOAD SWAP1 JUMP JUMPDEST PUSH1 0x0 DUP1 PUSH1 0x0 DUP1 PUSH1 0x0 DUP1 PUSH1 0x80 DUP8 DUP10 SUB SLT ISZERO PUSH2 0x36F9 JUMPI DUP4 DUP5 REVERT JUMPDEST DUP7 CALLDATALOAD PUSH2 0x3704 DUP2 PUSH2 0x410D JUMP JUMPDEST SWAP6 POP PUSH1 0x20 DUP8 ADD CALLDATALOAD PUSH2 0x3714 DUP2 PUSH2 0x410D JUMP JUMPDEST SWAP5 POP PUSH1 0x40 DUP8 ADD CALLDATALOAD PUSH8 0xFFFFFFFFFFFFFFFF DUP1 DUP3 GT ISZERO PUSH2 0x3730 JUMPI DUP6 DUP7 REVERT JUMPDEST PUSH2 0x373C DUP11 DUP4 DUP12 ADD PUSH2 0x331F JUMP JUMPDEST SWAP1 SWAP7 POP SWAP5 POP PUSH1 0x60 DUP10 ADD CALLDATALOAD SWAP2 POP DUP1 DUP3 GT ISZERO PUSH2 0x3754 JUMPI DUP4 DUP5 REVERT JUMPDEST POP PUSH2 0x3761 DUP10 DUP3 DUP11 ADD PUSH2 0x331F JUMP JUMPDEST SWAP8 SWAP11 SWAP7 SWAP10 POP SWAP5 SWAP8 POP SWAP3 SWAP6 SWAP4 SWAP5 SWAP3 POP POP POP JUMP JUMPDEST PUSH1 0x0 DUP1 PUSH1 0x0 PUSH1 0x60 DUP5 DUP7 SUB SLT ISZERO PUSH2 0x3787 JUMPI DUP1 DUP2 REVERT JUMPDEST DUP4 CALLDATALOAD PUSH2 0x3792 DUP2 PUSH2 0x410D JUMP JUMPDEST SWAP3 POP PUSH1 0x20 DUP5 ADD CALLDATALOAD SWAP2 POP PUSH1 0x40 DUP5 ADD CALLDATALOAD PUSH2 0x349A DUP2 PUSH2 0x4132 JUMP JUMPDEST PUSH1 0x0 DUP1 PUSH1 0x40 DUP4 DUP6 SUB SLT ISZERO PUSH2 0x37BB JUMPI DUP2 DUP3 REVERT JUMPDEST DUP3 CALLDATALOAD PUSH2 0x37C6 DUP2 PUSH2 0x410D JUMP JUMPDEST SWAP2 POP PUSH1 0x20 DUP4 ADD CALLDATALOAD PUSH8 0xFFFFFFFFFFFFFFFF DUP2 AND DUP2 EQ PUSH2 0x33B1 JUMPI DUP2 DUP3 REVERT JUMPDEST PUSH1 0x0 PUSH1 0x20 DUP3 DUP5 SUB SLT ISZERO PUSH2 0x37F3 JUMPI DUP1 DUP2 REVERT JUMPDEST POP MLOAD SWAP2 SWAP1 POP JUMP JUMPDEST PUSH1 0x0 PUSH1 0x20 DUP3 DUP5 SUB SLT ISZERO PUSH2 0x380B JUMPI DUP1 DUP2 REVERT JUMPDEST DUP2 MLOAD PUSH8 0xFFFFFFFFFFFFFFFF DUP1 DUP3 GT ISZERO PUSH2 0x3822 JUMPI DUP3 DUP4 REVERT JUMPDEST DUP2 DUP5 ADD SWAP2 POP DUP5 PUSH1 0x1F DUP4 ADD SLT PUSH2 0x3835 JUMPI DUP3 DUP4 REVERT JUMPDEST DUP2 MLOAD DUP2 DUP2 GT ISZERO PUSH2 0x3843 JUMPI DUP4 DUP5 REVERT JUMPDEST PUSH1 0x40 MLOAD PUSH1 0x20 PUSH32 0xFFFFFFFFFFFFFFFFFFFFFFFFFFFFFFFFFFFFFFFFFFFFFFFFFFFFFFFFFFFFFFE0 PUSH1 0x1F DUP5 ADD AND DUP3 ADD ADD DUP2 DUP2 LT DUP5 DUP3 GT OR ISZERO PUSH2 0x3881 JUMPI DUP6 DUP7 REVERT JUMPDEST PUSH1 0x40 MSTORE DUP2 DUP2 MSTORE DUP4 DUP3 ADD PUSH1 0x20 ADD DUP8 LT ISZERO PUSH2 0x3898 JUMPI DUP5 DUP6 REVERT JUMPDEST PUSH2 0x38A9 DUP3 PUSH1 0x20 DUP4 ADD PUSH1 0x20 DUP8 ADD PUSH2 0x40DD JUMP JUMPDEST SWAP7 SWAP6 POP POP POP POP POP POP JUMP JUMPDEST PUSH1 0x0 DUP2 MLOAD DUP1 DUP5 MSTORE PUSH2 0x38CB DUP2 PUSH1 0x20 DUP7 ADD PUSH1 0x20 DUP7 ADD PUSH2 0x40DD JUMP JUMPDEST PUSH1 0x1F ADD PUSH32 0xFFFFFFFFFFFFFFFFFFFFFFFFFFFFFFFFFFFFFFFFFFFFFFFFFFFFFFFFFFFFFFE0 AND SWAP3 SWAP1 SWAP3 ADD PUSH1 0x20 ADD SWAP3 SWAP2 POP POP JUMP JUMPDEST PUSH1 0x0 DUP3 DUP5 DUP4 CALLDATACOPY SWAP2 ADD SWAP1 DUP2 MSTORE SWAP2 SWAP1 POP JUMP JUMPDEST PUSH1 0x0 DUP3 MLOAD PUSH2 0x391F DUP2 DUP5 PUSH1 0x20 DUP8 ADD PUSH2 0x40DD JUMP JUMPDEST SWAP2 SWAP1 SWAP2 ADD SWAP3 SWAP2 POP POP JUMP JUMPDEST SWAP1 JUMP JUMPDEST PUSH20 0xFFFFFFFFFFFFFFFFFFFFFFFFFFFFFFFFFFFFFFFF SWAP2 SWAP1 SWAP2 AND DUP2 MSTORE PUSH1 0x20 ADD SWAP1 JUMP JUMPDEST PUSH20 0xFFFFFFFFFFFFFFFFFFFFFFFFFFFFFFFFFFFFFFFF SWAP4 DUP5 AND DUP2 MSTORE SWAP2 SWAP1 SWAP3 AND PUSH1 0x20 DUP3 ADD MSTORE PUSH1 0x40 DUP2 ADD SWAP2 SWAP1 SWAP2 MSTORE PUSH1 0x60 ADD SWAP1 JUMP JUMPDEST PUSH20 0xFFFFFFFFFFFFFFFFFFFFFFFFFFFFFFFFFFFFFFFF SWAP8 DUP9 AND DUP2 MSTORE SWAP6 SWAP1 SWAP7 AND PUSH1 0x20 DUP7 ADD MSTORE PUSH1 0x40 DUP6 ADD SWAP4 SWAP1 SWAP4 MSTORE PUSH1 0x60 DUP5 ADD SWAP2 SWAP1 SWAP2 MSTORE PUSH1 0xFF AND PUSH1 0x80 DUP4 ADD MSTORE PUSH1 0xA0 DUP3 ADD MSTORE PUSH1 0xC0 DUP2 ADD SWAP2 SWAP1 SWAP2 MSTORE PUSH1 0xE0 ADD SWAP1 JUMP JUMPDEST PUSH20 0xFFFFFFFFFFFFFFFFFFFFFFFFFFFFFFFFFFFFFFFF SWAP3 SWAP1 SWAP3 AND DUP3 MSTORE PUSH1 0x20 DUP3 ADD MSTORE PUSH1 0x40 ADD SWAP1 JUMP JUMPDEST PUSH1 0x40 DUP1 DUP3 MSTORE DUP4 MLOAD SWAP1 DUP3 ADD DUP2 SWAP1 MSTORE PUSH1 0x0 SWAP1 PUSH1 0x20 SWAP1 PUSH1 0x60 DUP5 ADD SWAP1 DUP3 DUP8 ADD DUP5 JUMPDEST DUP3 DUP2 LT ISZERO PUSH2 0x3A2D JUMPI DUP2 MLOAD ISZERO ISZERO DUP5 MSTORE SWAP3 DUP5 ADD SWAP3 SWAP1 DUP5 ADD SWAP1 PUSH1 0x1 ADD PUSH2 0x3A0F JUMP JUMPDEST POP POP POP DUP4 DUP2 SUB DUP3 DUP6 ADD MSTORE DUP1 DUP6 MLOAD PUSH2 0x3A44 DUP2 DUP5 PUSH2 0x3A97 JUMP JUMPDEST SWAP2 POP DUP2 SWAP3 POP DUP4 DUP2 MUL DUP3 ADD DUP5 DUP9 ADD DUP7 JUMPDEST DUP4 DUP2 LT ISZERO PUSH2 0x3A7D JUMPI DUP6 DUP4 SUB DUP6 MSTORE PUSH2 0x3A6B DUP4 DUP4 MLOAD PUSH2 0x38B3 JUMP JUMPDEST SWAP5 DUP8 ADD SWAP5 SWAP3 POP SWAP1 DUP7 ADD SWAP1 PUSH1 0x1 ADD PUSH2 0x3A53 JUMP JUMPDEST POP SWAP1 SWAP10 SWAP9 POP POP POP POP POP POP POP POP POP JUMP JUMPDEST SWAP1 ISZERO ISZERO DUP2 MSTORE PUSH1 0x20 ADD SWAP1 JUMP JUMPDEST SWAP1 DUP2 MSTORE PUSH1 0x20 ADD SWAP1 JUMP JUMPDEST SWAP4 DUP5 MSTORE PUSH1 0x20 DUP5 ADD SWAP3 SWAP1 SWAP3 MSTORE PUSH1 0x40 DUP4 ADD MSTORE PUSH20 0xFFFFFFFFFFFFFFFFFFFFFFFFFFFFFFFFFFFFFFFF AND PUSH1 0x60 DUP3 ADD MSTORE PUSH1 0x80 ADD SWAP1 JUMP JUMPDEST PUSH1 0x0 PUSH1 0x20 DUP3 MSTORE DUP3 PUSH1 0x20 DUP4 ADD MSTORE DUP3 DUP5 PUSH1 0x40 DUP5 ADD CALLDATACOPY DUP2 DUP4 ADD PUSH1 0x40 SWAP1 DUP2 ADD SWAP2 SWAP1 SWAP2 MSTORE PUSH1 0x1F SWAP1 SWAP3 ADD PUSH32 0xFFFFFFFFFFFFFFFFFFFFFFFFFFFFFFFFFFFFFFFFFFFFFFFFFFFFFFFFFFFFFFE0 AND ADD ADD SWAP2 SWAP1 POP JUMP JUMPDEST PUSH1 0x0 PUSH1 0x20 DUP3 MSTORE PUSH2 0x2B15 PUSH1 0x20 DUP4 ADD DUP5 PUSH2 0x38B3 JUMP JUMPDEST PUSH1 0x20 DUP1 DUP3 MSTORE PUSH1 0x15 SWAP1 DUP3 ADD MSTORE PUSH32 0x426F72696E674D6174683A20556E646572666C6F770000000000000000000000 PUSH1 0x40 DUP3 ADD MSTORE PUSH1 0x60 ADD SWAP1 JUMP JUMPDEST PUSH1 0x20 DUP1 DUP3 MSTORE PUSH1 0x17 SWAP1 DUP3 ADD MSTORE PUSH32 0x42656E746F426F783A20536B696D20746F6F206D756368000000000000000000 PUSH1 0x40 DUP3 ADD MSTORE PUSH1 0x60 ADD SWAP1 JUMP JUMPDEST PUSH1 0x20 DUP1 DUP3 MSTORE PUSH1 0x1C SWAP1 DUP3 ADD MSTORE PUSH32 0x4D6173746572434D67723A2043616E6E6F7420617070726F7665203000000000 PUSH1 0x40 DUP3 ADD MSTORE PUSH1 0x60 ADD SWAP1 JUMP JUMPDEST PUSH1 0x20 DUP1 DUP3 MSTORE PUSH1 0x1C SWAP1 DUP3 ADD MSTORE PUSH32 0x426F72696E6745524332303A205472616E73666572206661696C656400000000 PUSH1 0x40 DUP3 ADD MSTORE PUSH1 0x60 ADD SWAP1 JUMP JUMPDEST PUSH1 0x20 DUP1 DUP3 MSTORE PUSH1 0x15 SWAP1 DUP3 ADD MSTORE PUSH32 0x4F776E61626C653A207A65726F20616464726573730000000000000000000000 PUSH1 0x40 DUP3 ADD MSTORE PUSH1 0x60 ADD SWAP1 JUMP JUMPDEST PUSH1 0x20 DUP1 DUP3 MSTORE PUSH1 0x13 SWAP1 DUP3 ADD MSTORE PUSH32 0x42656E746F426F783A204E6F20746F6B656E7300000000000000000000000000 PUSH1 0x40 DUP3 ADD MSTORE PUSH1 0x60 ADD SWAP1 JUMP JUMPDEST PUSH1 0x20 DUP1 DUP3 MSTORE PUSH1 0x1C SWAP1 DUP3 ADD MSTORE PUSH32 0x426F72696E674D6174683A2075696E74313238204F766572666C6F7700000000 PUSH1 0x40 DUP3 ADD MSTORE PUSH1 0x60 ADD SWAP1 JUMP JUMPDEST PUSH1 0x20 DUP1 DUP3 MSTORE PUSH1 0x18 SWAP1 DUP3 ADD MSTORE PUSH32 0x426F72696E674D6174683A20416464204F766572666C6F770000000000000000 PUSH1 0x40 DUP3 ADD MSTORE PUSH1 0x60 ADD SWAP1 JUMP JUMPDEST PUSH1 0x20 DUP1 DUP3 MSTORE PUSH1 0x17 SWAP1 DUP3 ADD MSTORE PUSH32 0x42656E746F426F783A20746F5B305D206E6F7420736574000000000000000000 PUSH1 0x40 DUP3 ADD MSTORE PUSH1 0x60 ADD SWAP1 JUMP JUMPDEST PUSH1 0x20 DUP1 DUP3 MSTORE PUSH1 0x14 SWAP1 DUP3 ADD MSTORE PUSH32 0x42656E746F426F783A20746F206E6F7420736574000000000000000000000000 PUSH1 0x40 DUP3 ADD MSTORE PUSH1 0x60 ADD SWAP1 JUMP JUMPDEST PUSH1 0x20 DUP1 DUP3 MSTORE PUSH1 0x1A SWAP1 DUP3 ADD MSTORE PUSH32 0x53747261746567794D616E616765723A20546F6F206561726C79000000000000 PUSH1 0x40 DUP3 ADD MSTORE PUSH1 0x60 ADD SWAP1 JUMP JUMPDEST PUSH1 0x20 DUP1 DUP3 MSTORE DUP2 DUP2 ADD MSTORE PUSH32 0x4F776E61626C653A2063616C6C6572206973206E6F7420746865206F776E6572 PUSH1 0x40 DUP3 ADD MSTORE PUSH1 0x60 ADD SWAP1 JUMP JUMPDEST PUSH1 0x20 DUP1 DUP3 MSTORE PUSH1 0x1F SWAP1 DUP3 ADD MSTORE PUSH32 0x42656E746F426F783A205472616E73666572206E6F7420617070726F76656400 PUSH1 0x40 DUP3 ADD MSTORE PUSH1 0x60 ADD SWAP1 JUMP JUMPDEST PUSH1 0x20 DUP1 DUP3 MSTORE DUP2 DUP2 ADD MSTORE PUSH32 0x4F776E61626C653A2063616C6C657220213D2070656E64696E67206F776E6572 PUSH1 0x40 DUP3 ADD MSTORE PUSH1 0x60 ADD SWAP1 JUMP JUMPDEST PUSH1 0x20 DUP1 DUP3 MSTORE PUSH1 0x1B SWAP1 DUP3 ADD MSTORE PUSH32 0x426F72696E674D6174683A2075696E743634204F766572666C6F770000000000 PUSH1 0x40 DUP3 ADD MSTORE PUSH1 0x60 ADD SWAP1 JUMP JUMPDEST PUSH1 0x20 DUP1 DUP3 MSTORE DUP2 DUP2 ADD MSTORE PUSH32 0x426F72696E67466163746F72793A204E6F206D6173746572436F6E7472616374 PUSH1 0x40 DUP3 ADD MSTORE PUSH1 0x60 ADD SWAP1 JUMP JUMPDEST PUSH1 0x20 DUP1 DUP3 MSTORE PUSH1 0x1B SWAP1 DUP3 ADD MSTORE PUSH32 0x4D6173746572434D67723A206D617374657243206E6F74207365740000000000 PUSH1 0x40 DUP3 ADD MSTORE PUSH1 0x60 ADD SWAP1 JUMP JUMPDEST PUSH1 0x20 DUP1 DUP3 MSTORE PUSH1 0x1B SWAP1 DUP3 ADD MSTORE PUSH32 0x42656E746F426F783A206E6F206D6173746572436F6E74726163740000000000 PUSH1 0x40 DUP3 ADD MSTORE PUSH1 0x60 ADD SWAP1 JUMP JUMPDEST PUSH1 0x20 DUP1 DUP3 MSTORE DUP2 DUP2 ADD MSTORE PUSH32 0x426F72696E6745524332303A205472616E7366657246726F6D206661696C6564 PUSH1 0x40 DUP3 ADD MSTORE PUSH1 0x60 ADD SWAP1 JUMP JUMPDEST PUSH1 0x20 DUP1 DUP3 MSTORE PUSH1 0x1D SWAP1 DUP3 ADD MSTORE PUSH32 0x42656E746F426F783A20455448207472616E73666572206661696C6564000000 PUSH1 0x40 DUP3 ADD MSTORE PUSH1 0x60 ADD SWAP1 JUMP JUMPDEST PUSH1 0x20 DUP1 DUP3 MSTORE PUSH1 0x18 SWAP1 DUP3 ADD MSTORE PUSH32 0x426F72696E674D6174683A204D756C204F766572666C6F770000000000000000 PUSH1 0x40 DUP3 ADD MSTORE PUSH1 0x60 ADD SWAP1 JUMP JUMPDEST PUSH1 0x20 DUP1 DUP3 MSTORE DUP2 DUP2 ADD MSTORE PUSH32 0x53747261746567794D616E616765723A2054617267657420746F6F2068696768 PUSH1 0x40 DUP3 ADD MSTORE PUSH1 0x60 ADD SWAP1 JUMP JUMPDEST PUSH16 0xFFFFFFFFFFFFFFFFFFFFFFFFFFFFFFFF SWAP2 SWAP1 SWAP2 AND DUP2 MSTORE PUSH1 0x20 ADD SWAP1 JUMP JUMPDEST PUSH16 0xFFFFFFFFFFFFFFFFFFFFFFFFFFFFFFFF SWAP3 DUP4 AND DUP2 MSTORE SWAP2 AND PUSH1 0x20 DUP3 ADD MSTORE PUSH1 0x40 ADD SWAP1 JUMP JUMPDEST SWAP2 DUP3 MSTORE PUSH1 0x20 DUP3 ADD MSTORE PUSH1 0x40 ADD SWAP1 JUMP JUMPDEST PUSH8 0xFFFFFFFFFFFFFFFF SWAP2 SWAP1 SWAP2 AND DUP2 MSTORE PUSH1 0x20 ADD SWAP1 JUMP JUMPDEST PUSH8 0xFFFFFFFFFFFFFFFF SWAP4 DUP5 AND DUP2 MSTORE SWAP2 SWAP1 SWAP3 AND PUSH1 0x20 DUP3 ADD MSTORE PUSH16 0xFFFFFFFFFFFFFFFFFFFFFFFFFFFFFFFF SWAP1 SWAP2 AND PUSH1 0x40 DUP3 ADD MSTORE PUSH1 0x60 ADD SWAP1 JUMP JUMPDEST PUSH1 0x0 DUP1 DUP4 CALLDATALOAD PUSH32 0xFFFFFFFFFFFFFFFFFFFFFFFFFFFFFFFFFFFFFFFFFFFFFFFFFFFFFFFFFFFFFFE1 DUP5 CALLDATASIZE SUB ADD DUP2 SLT PUSH2 0x40AE JUMPI DUP3 DUP4 REVERT JUMPDEST DUP4 ADD DUP1 CALLDATALOAD SWAP2 POP PUSH8 0xFFFFFFFFFFFFFFFF DUP3 GT ISZERO PUSH2 0x40C8 JUMPI DUP3 DUP4 REVERT JUMPDEST PUSH1 0x20 ADD SWAP2 POP CALLDATASIZE DUP2 SWAP1 SUB DUP3 SGT ISZERO PUSH2 0x3361 JUMPI PUSH1 0x0 DUP1 REVERT JUMPDEST PUSH1 0x0 JUMPDEST DUP4 DUP2 LT ISZERO PUSH2 0x40F8 JUMPI DUP2 DUP2 ADD MLOAD DUP4 DUP3 ADD MSTORE PUSH1 0x20 ADD PUSH2 0x40E0 JUMP JUMPDEST DUP4 DUP2 GT ISZERO PUSH2 0x4107 JUMPI PUSH1 0x0 DUP5 DUP5 ADD MSTORE JUMPDEST POP POP POP POP JUMP JUMPDEST PUSH20 0xFFFFFFFFFFFFFFFFFFFFFFFFFFFFFFFFFFFFFFFF DUP2 AND DUP2 EQ PUSH2 0x412F JUMPI PUSH1 0x0 DUP1 REVERT JUMPDEST POP JUMP JUMPDEST DUP1 ISZERO ISZERO DUP2 EQ PUSH2 0x412F JUMPI PUSH1 0x0 DUP1 REVERT INVALID LOG2 PUSH5 0x6970667358 0x22 SLT KECCAK256 TIMESTAMP CREATE2 0xD7 SDIV 0x25 DIV DUP2 SUB CALLDATACOPY RETURNDATACOPY GASPRICE 0xC7 ADDRESS CALLDATACOPY SWAP1 LOG2 0xBC PUSH22 0x4C4046C091B9841F419602305CDF64736F6C63430006 0xC STOP CALLER "},"methodIdentifiers":{"DOMAIN_SEPARATOR()":"3644e515","balanceOf(address,address)":"f7888aec","batch(bytes[],bool)":"d2423b51","claimOwnership()":"4e71e0c8","deploy(address,bytes,bool)":"1f54245b","deposit(address,address,address,uint256,uint256)":"02b9446c","masterContractApproved(address,address)":"91e0eab5","masterContractOf(address)":"bafe4f14","nonces(address)":"7ecebe00","owner()":"8da5cb5b","pendingOwner()":"e30c3978","pendingStrategy(address)":"5108a558","permitToken(address,address,address,uint256,uint256,uint8,bytes32,bytes32)":"7c516e94","registerProtocol()":"aee4d1b2","setMasterContractApproval(address,address,bool,uint8,bytes32,bytes32)":"c0a47c93","setStrategy(address,address)":"72cb5d97","setStrategyTargetPercentage(address,uint64)":"3e2a9d4e","strategy(address)":"228bfd9f","strategyData(address)":"df23b45b","toAmount(address,uint256,bool)":"56623118","toShare(address,uint256,bool)":"da5139ca","totals(address)":"4ffe34db","transfer(address,address,address,uint256)":"f18d03cc","transferMultiple(address,address,address[],uint256[])":"0fca8843","transferOwnership(address,bool,bool)":"078dfbe7","whitelistMasterContract(address,bool)":"733a9d7c","whitelistedMasterContracts(address)":"12a90c8a","withdraw(address,address,address,uint256,uint256)":"97da6d30"}}}}}