{
  "_format": "hh-sol-artifact-1",
  "contractName": "FlexAllocationAdapterContract",
  "sourceName": "contracts/flex/adatpers/FlexAllocation.sol",
  "abi": [
    {
      "anonymous": false,
      "inputs": [
        {
          "indexed": false,
          "internalType": "bytes32",
          "name": "proposalId",
          "type": "bytes32"
        },
        {
          "indexed": false,
          "internalType": "address",
          "name": "daoAddr",
          "type": "address"
        },
        {
          "indexed": false,
          "internalType": "address",
          "name": "proposer",
          "type": "address"
        },
        {
          "indexed": false,
          "internalType": "address[]",
          "name": "lps",
          "type": "address[]"
        }
      ],
      "name": "AllocateToken",
      "type": "event"
    },
    {
      "anonymous": false,
      "inputs": [
        {
          "indexed": false,
          "internalType": "uint256",
          "name": "gpAllocationBonusRadio",
          "type": "uint256"
        },
        {
          "indexed": false,
          "internalType": "uint256",
          "name": "riceStakeAllocationRadio",
          "type": "uint256"
        }
      ],
      "name": "ConfigureDao",
      "type": "event"
    },
    {
      "inputs": [
        {
          "internalType": "contract DaoRegistry",
          "name": "dao",
          "type": "address"
        },
        {
          "internalType": "address",
          "name": "tokenAddress",
          "type": "address"
        },
        {
          "internalType": "address",
          "name": "proposerAddr",
          "type": "address"
        },
        {
          "internalType": "bytes32",
          "name": "proposalId",
          "type": "bytes32"
        },
        {
          "internalType": "uint256[5]",
          "name": "uint256Args",
          "type": "uint256[5]"
        }
      ],
      "name": "allocateProjectToken",
      "outputs": [],
      "stateMutability": "nonpayable",
      "type": "function"
    },
    {
      "inputs": [
        {
          "internalType": "contract DaoRegistry",
          "name": "dao",
          "type": "address"
        },
        {
          "internalType": "uint256",
          "name": "gpAllocationBonusRadio",
          "type": "uint256"
        },
        {
          "internalType": "uint256",
          "name": "riceStakeAllocationRadio",
          "type": "uint256"
        }
      ],
      "name": "configureDao",
      "outputs": [],
      "stateMutability": "nonpayable",
      "type": "function"
    },
    {
      "inputs": [
        {
          "internalType": "contract DaoRegistry",
          "name": "dao",
          "type": "address"
        },
        {
          "internalType": "bytes32",
          "name": "proposalId",
          "type": "bytes32"
        },
        {
          "internalType": "address",
          "name": "investor",
          "type": "address"
        }
      ],
      "name": "getInvestmentRewards",
      "outputs": [
        {
          "internalType": "uint256",
          "name": "",
          "type": "uint256"
        }
      ],
      "stateMutability": "view",
      "type": "function"
    },
    {
      "inputs": [
        {
          "internalType": "contract DaoRegistry",
          "name": "dao",
          "type": "address"
        },
        {
          "internalType": "bytes32",
          "name": "proposalId",
          "type": "bytes32"
        },
        {
          "internalType": "address",
          "name": "account",
          "type": "address"
        }
      ],
      "name": "getNoEscrowInvestmentShare",
      "outputs": [
        {
          "internalType": "uint256",
          "name": "",
          "type": "uint256"
        }
      ],
      "stateMutability": "view",
      "type": "function"
    },
    {
      "inputs": [
        {
          "internalType": "contract DaoRegistry",
          "name": "dao",
          "type": "address"
        },
        {
          "internalType": "bytes32",
          "name": "proposalId",
          "type": "bytes32"
        },
        {
          "internalType": "uint256",
          "name": "tokenAmount",
          "type": "uint256"
        }
      ],
      "name": "getProposerBonus",
      "outputs": [
        {
          "internalType": "uint256",
          "name": "",
          "type": "uint256"
        }
      ],
      "stateMutability": "view",
      "type": "function"
    },
    {
      "inputs": [
        {
          "internalType": "contract DaoRegistry",
          "name": "dao",
          "type": "address"
        },
        {
          "internalType": "bytes32",
          "name": "proposalId",
          "type": "bytes32"
        },
        {
          "internalType": "address",
          "name": "recipient",
          "type": "address"
        }
      ],
      "name": "ifEligible",
      "outputs": [
        {
          "internalType": "bool",
          "name": "",
          "type": "bool"
        }
      ],
      "stateMutability": "view",
      "type": "function"
    },
    {
      "inputs": [
        {
          "internalType": "contract DaoRegistry",
          "name": "dao",
          "type": "address"
        },
        {
          "internalType": "bytes32",
          "name": "proposalId",
          "type": "bytes32"
        },
        {
          "internalType": "address",
          "name": "recepient",
          "type": "address"
        }
      ],
      "name": "isNFTMinted",
      "outputs": [
        {
          "internalType": "bool",
          "name": "",
          "type": "bool"
        }
      ],
      "stateMutability": "view",
      "type": "function"
    },
    {
      "inputs": [
        {
          "internalType": "contract DaoRegistry",
          "name": "dao",
          "type": "address"
        },
        {
          "internalType": "bytes32",
          "name": "proposalId",
          "type": "bytes32"
        },
        {
          "internalType": "address",
          "name": "recepient",
          "type": "address"
        }
      ],
      "name": "isVestCreated",
      "outputs": [
        {
          "internalType": "bool",
          "name": "",
          "type": "bool"
        }
      ],
      "stateMutability": "view",
      "type": "function"
    },
    {
      "inputs": [
        {
          "internalType": "contract DaoRegistry",
          "name": "dao",
          "type": "address"
        },
        {
          "internalType": "bytes32",
          "name": "proposalId",
          "type": "bytes32"
        },
        {
          "internalType": "address",
          "name": "recipient",
          "type": "address"
        }
      ],
      "name": "nftMinted",
      "outputs": [
        {
          "internalType": "bool",
          "name": "",
          "type": "bool"
        }
      ],
      "stateMutability": "nonpayable",
      "type": "function"
    },
    {
      "inputs": [
        {
          "internalType": "contract DaoRegistry",
          "name": "dao",
          "type": "address"
        },
        {
          "internalType": "bytes32",
          "name": "proposalId",
          "type": "bytes32"
        },
        {
          "internalType": "address",
          "name": "recipient",
          "type": "address"
        }
      ],
      "name": "vestCreated",
      "outputs": [
        {
          "internalType": "bool",
          "name": "",
          "type": "bool"
        }
      ],
      "stateMutability": "nonpayable",
      "type": "function"
    },
    {
      "inputs": [
        {
          "internalType": "address",
          "name": "",
          "type": "address"
        },
        {
          "internalType": "bytes32",
          "name": "",
          "type": "bytes32"
        },
        {
          "internalType": "address",
          "name": "",
          "type": "address"
        }
      ],
      "name": "vestingInfos",
      "outputs": [
        {
          "internalType": "uint256",
          "name": "tokenAmount",
          "type": "uint256"
        },
        {
          "internalType": "bool",
          "name": "created",
          "type": "bool"
        }
      ],
      "stateMutability": "view",
      "type": "function"
    }
  ],
  "bytecode": "0x608060405234801561001057600080fd5b50612f21806100206000396000f3fe608060405234801561001057600080fd5b50600436106100c95760003560e01c80635d5cdb32116100815780636da0ce361161005b5780636da0ce36146101b5578063a60e68fe146101c8578063cb22a226146101db57600080fd5b80635d5cdb321461018d578063620ee042146101a25780636cb4e9eb146100ce57600080fd5b8063309f0118116100b2578063309f011814610146578063560dbdd714610159578063595857981461016c57600080fd5b806301e6aa02146100ce5780631190b0a6146100f6575b600080fd5b6100e16100dc366004612c79565b6101ee565b60405190151581526020015b60405180910390f35b610131610104366004612928565b60026020908152600093845260408085208252928452828420905282529020805460019091015460ff1682565b604080519283529015156020830152016100ed565b6100e1610154366004612c79565b61022a565b6100e1610167366004612c79565b610673565b61017f61017a366004612c79565b6107da565b6040519081526020016100ed565b6101a061019b366004612bcd565b610f0a565b005b6100e16101b0366004612c79565b611bb5565b61017f6101c3366004612c8d565b611cd5565b6101a06101d6366004612c8d565b611e51565b61017f6101e9366004612c79565b611f44565b6001600160a01b03808416600090815260026020908152604080832086845282528083209385168352929052206001015460ff165b9392505050565b604051632c9f4b5b60e11b81527fb12a3847d47fefceb164b75823af125f9aa82b76938df0ddf08c04cd314ba37c600482015260009081906001600160a01b0386169063593e96b69060240160206040518083038186803b15801561028e57600080fd5b505afa1580156102a2573d6000803e3d6000fd5b505050506040513d601f19601f820116820180604052508101906102c6919061290c565b6040516317ba7d8560e01b81527f7a8526bca00f0726b2fab8c3bfd5b00bfa84d07f111e48263b13de605eefcdda60048201529091506000906001600160a01b038716906317ba7d859060240160206040518083038186803b15801561032b57600080fd5b505afa15801561033f573d6000803e3d6000fd5b505050506040513d601f19601f82011682018060405250810190610363919061290c565b6040516317ba7d8560e01b81527feae11da953333a83b6467e2193334fb302549e1a42ad5797082aea1ab6be912060048201529091506000906001600160a01b038816906317ba7d859060240160206040518083038186803b1580156103c857600080fd5b505afa1580156103dc573d6000803e3d6000fd5b505050506040513d601f19601f82011682018060405250810190610400919061290c565b604051632fd2666560e21b81526001600160a01b0389811660048301526024820189905291925060009182919085169063bf4999949060440160006040518083038186803b15801561045157600080fd5b505afa158015610465573d6000803e3d6000fd5b505050506040513d6000823e601f3d908101601f1916820160405261048d9190810190612969565b98509850505050505050506000836001600160a01b03166275e7eb8b8b8b6040518463ffffffff1660e01b81526004016104e7939291906001600160a01b0393841681526020810192909252909116604082015260600190565b604080518083038186803b1580156104fe57600080fd5b505afa158015610512573d6000803e3d6000fd5b505050506040513d601f19601f820116820180604052508101906105369190612ad2565b915060009050816001600160a01b038816639e3f2d908c8c610559600189612e76565b6040516001600160e01b031960e086901b16815260048101939093526001600160a01b039091166024830152604482015260640160206040518083038186803b1580156105a557600080fd5b505afa1580156105b9573d6000803e3d6000fd5b505050506040513d601f19601f820116820180604052508101906105dd9190612cdd565b6105e79190612e76565b9050600384600481111561060b57634e487b7160e01b600052602160045260246000fd5b14801561064e5750600081118061064e57506001600160a01b03808c1660009081526002602090815260408083208e84528252808320938d168352929052205415155b15610663576001975050505050505050610223565b6000975050505050505050610223565b6040516317ba7d8560e01b81527f3c11b775c25636cc8a8e9190d176c127f201e732c93f4d80e9e1d8e36c9d7ecd60048201526000906001600160a01b038516906317ba7d859060240160206040518083038186803b1580156106d557600080fd5b505afa1580156106e9573d6000803e3d6000fd5b505050506040513d601f19601f8201168201806040525081019061070d919061290c565b6001600160a01b0316336001600160a01b0316146107985760405162461bcd60e51b815260206004820152602b60248201527f416c6c6f636174696f6e416461707465723a73747265616d437265617465643a60448201527f4163636573732064656e7900000000000000000000000000000000000000000060648201526084015b60405180910390fd5b506001600160a01b039283166000908152600260209081526040808320948352938152838220929094168152925290206001908101805460ff19168217905590565b60006107e46124de565b604051632c9f4b5b60e11b81527fb12a3847d47fefceb164b75823af125f9aa82b76938df0ddf08c04cd314ba37c60048201526001600160a01b0386169063593e96b69060240160206040518083038186803b15801561084357600080fd5b505afa158015610857573d6000803e3d6000fd5b505050506040513d601f19601f8201168201806040525081019061087b919061290c565b6001600160a01b0390811682526040516317ba7d8560e01b81527f7a8526bca00f0726b2fab8c3bfd5b00bfa84d07f111e48263b13de605eefcdda6004820152908616906317ba7d859060240160206040518083038186803b1580156108e057600080fd5b505afa1580156108f4573d6000803e3d6000fd5b505050506040513d601f19601f82011682018060405250810190610918919061290c565b6001600160a01b0390811660208301526040516317ba7d8560e01b81527feae11da953333a83b6467e2193334fb302549e1a42ad5797082aea1ab6be91206004820152908616906317ba7d859060240160206040518083038186803b15801561098057600080fd5b505afa158015610994573d6000803e3d6000fd5b505050506040513d601f19601f820116820180604052508101906109b8919061290c565b6001600160a01b03908116604083810191909152516317ba7d8560e01b81527f2207fd6117465cefcba0abc867150698c0464aa41a293ec29ca01b67a6350c3c6004820152908616906317ba7d859060240160206040518083038186803b158015610a2257600080fd5b505afa158015610a36573d6000803e3d6000fd5b505050506040513d601f19601f82011682018060405250810190610a5a919061290c565b6001600160a01b0390811660608301526020820151604051632fd2666560e21b8152878316600482015260248101879052600092919091169063bf4999949060440160006040518083038186803b158015610ab457600080fd5b505afa158015610ac8573d6000803e3d6000fd5b505050506040513d6000823e601f3d908101601f19168201604052610af09190810190612969565b60808b019790975250505060608701516040517f1005e5b80000000000000000000000000000000000000000000000000000000081526001600160a01b038d81166004830152602482018d905295975060009650941693631005e5b893506044019150610b5a9050565b60206040518083038186803b158015610b7257600080fd5b505afa158015610b86573d6000803e3d6000fd5b505050506040513d601f19601f82011682018060405250810190610baa9190612cdd565b83516001600160a01b0316639e3f2d908861babe610bc9600188612e76565b6040516001600160e01b031960e086901b16815260048101939093526001600160a01b039091166024830152604482015260640160206040518083038186803b158015610c1557600080fd5b505afa158015610c29573d6000803e3d6000fd5b505050506040513d601f19601f82011682018060405250810190610c4d9190612cdd565b610c579190612e76565b60408085015190517e75e7eb0000000000000000000000000000000000000000000000000000000081526001600160a01b038a81166004830152602482018a90528881166044830152929350600092909116906275e7eb90606401604080518083038186803b158015610cc957600080fd5b505afa158015610cdd573d6000803e3d6000fd5b505050506040513d601f19601f82011682018060405250810190610d019190612ad2565b85519092506000915082906001600160a01b0316639e3f2d908a8a610d2760018a612e76565b6040516001600160e01b031960e086901b16815260048101939093526001600160a01b039091166024830152604482015260640160206040518083038186803b158015610d7357600080fd5b505afa158015610d87573d6000803e3d6000fd5b505050506040513d601f19601f82011682018060405250810190610dab9190612cdd565b610db59190612e76565b608086015160c001516040517f9283ae3a0000000000000000000000000000000000000000000000000000000081527fea659d8e1a730b10af1cecb4f8ee391adf80e75302d6aaeb9642dc8a4a5e5dbb600482015291925090600090670de0b6b3a7640000906001600160a01b038d1690639283ae3a9060240160206040518083038186803b158015610e4757600080fd5b505afa158015610e5b573d6000803e3d6000fd5b505050506040513d601f19601f82011682018060405250810190610e7f9190612cdd565b610e899084612e39565b610e939190612e19565b90506000610ea28c8c85611cd5565b905080610eaf8385612e76565b610eb99190612e76565b9250851580610ec6575083155b80610ecf575082155b15610ee557600098505050505050505050610223565b85610ef08486612e39565b610efa9190612e19565b9c9b505050505050505050505050565b6040516317ba7d8560e01b81527f7a8526bca00f0726b2fab8c3bfd5b00bfa84d07f111e48263b13de605eefcdda60048201526001600160a01b038616906317ba7d859060240160206040518083038186803b158015610f6957600080fd5b505afa158015610f7d573d6000803e3d6000fd5b505050506040513d601f19601f82011682018060405250810190610fa1919061290c565b6001600160a01b0316336001600160a01b0316146110275760405162461bcd60e51b815260206004820152602160248201527f616c6c6f6361746550726f6a656374546f6b656e3a3a6163636573732064656e60448201527f7900000000000000000000000000000000000000000000000000000000000000606482015260840161078f565b6110e360405180610260016040528060006001600160a01b0316815260200160006001600160a01b03168152602001600081526020016000815260200160008152602001600060ff1681526020016000815260200160008152602001600081526020016000815260200160008152602001600081526020016000815260200160006001600160a01b0316815260200160006001600160a01b03168152602001600081526020016000815260200160008152602001600081525090565b815161010082015260208201516101208201526040808301516101408301526060830151610160830152608083015161018083015251632c9f4b5b60e11b81527fb12a3847d47fefceb164b75823af125f9aa82b76938df0ddf08c04cd314ba37c60048201526001600160a01b0387169063593e96b69060240160206040518083038186803b15801561117557600080fd5b505afa158015611189573d6000803e3d6000fd5b505050506040513d601f19601f820116820180604052508101906111ad919061290c565b6001600160a01b0390811682526101008201516040516317ba7d8560e01b81527f43f8439a5cef099d0d9a92b15a64e34ff49963bb29d65f63204eda6591b810a1600482015290918781169163dd62ed3e918a16906317ba7d859060240160206040518083038186803b15801561122357600080fd5b505afa158015611237573d6000803e3d6000fd5b505050506040513d601f19601f8201168201806040525081019061125b919061290c565b6040516001600160e01b031960e084901b1681526001600160a01b03909116600482015230602482015260440160206040518083038186803b1580156112a057600080fd5b505afa1580156112b4573d6000803e3d6000fd5b505050506040513d601f19601f820116820180604052508101906112d89190612cdd565b101561134c5760405162461bcd60e51b815260206004820152603f60248201527f416c6c6f636174696f6e416461707465723a3a616c6c6f6361746550726f6a6560448201527f6374546f6b656e3a3a696e73756666696369656e7420616c6c6f77616e636500606482015260840161078f565b6040516317ba7d8560e01b81527f43f8439a5cef099d0d9a92b15a64e34ff49963bb29d65f63204eda6591b810a160048201526001600160a01b03808716916323b872dd918916906317ba7d859060240160206040518083038186803b1580156113b557600080fd5b505afa1580156113c9573d6000803e3d6000fd5b505050506040513d601f19601f820116820180604052508101906113ed919061290c565b6101008401516040516001600160e01b031960e085901b1681526001600160a01b0390921660048301523060248301526044820152606401602060405180830381600087803b15801561143f57600080fd5b505af1158015611453573d6000803e3d6000fd5b505050506040513d601f19601f820116820180604052508101906114779190612bb3565b506040517f9283ae3a0000000000000000000000000000000000000000000000000000000081527fea659d8e1a730b10af1cecb4f8ee391adf80e75302d6aaeb9642dc8a4a5e5dbb6004820152670de0b6b3a7640000906001600160a01b03881690639283ae3a9060240160206040518083038186803b1580156114fa57600080fd5b505afa15801561150e573d6000803e3d6000fd5b505050506040513d601f19601f820116820180604052508101906115329190612cdd565b8261010001516115429190612e39565b61154c9190612e19565b6102408201526101008101516115659087908590611cd5565b60e0820152610240810151156116f1576040517ffd310d290000000000000000000000000000000000000000000000000000000081527f8987d08c67963e4cacd5e5936c122a968c66853d58299dd822c194222710983960048201526001600160a01b0387169063fd310d299060240160206040518083038186803b1580156115ed57600080fd5b505afa158015611601573d6000803e3d6000fd5b505050506040513d601f19601f82011682018060405250810190611625919061290c565b6001600160a01b039081166101c083019081526040805180820182526102408501518a85166000908152600260209081528482208a8352815284822095519096168152939094529120549091829161167d9190612e01565b8152600060209182018190526001600160a01b03898116825260028352604080832088845284528083206101c08701519092168352908352908190208351815592909101516001909201805460ff19169215159290921790915561024082015190820180516116ed908390612e01565b9052505b80516040517fe38a5a64000000000000000000000000000000000000000000000000000000008152600481018590526000916001600160a01b03169063e38a5a649060240160006040518083038186803b15801561174e57600080fd5b505afa158015611762573d6000803e3d6000fd5b505050506040513d6000823e601f3d908101601f1916820160405261178a9190810190612aff565b90506001600160a01b0385161561185e5760e08201511561185e5760408051808201825260e08401516001600160a01b03808b166000908152600260209081528582208a83528152858220928b168252919091529290922054909182916117f19190612e01565b8152600060209182018190526001600160a01b038a811682526002835260408083208984528452808320918a168352908352908190208351815592909101516001909201805460ff19169215159290921790915560e0830151908301805161185a908390612e01565b9052505b816101000151826040015111156119035760405162461bcd60e51b815260206004820152605c60248201527f416c6c6f636174696f6e416461707465723a3a616c6c6f6361746550726f6a6560448201527f6374546f6b656e3a3a6469737472696275746520746f6b656e20616d6f756e7460648201527f2065786365656473207472616e64696e67206f666620616d6f756e7400000000608482015260a40161078f565b856001600160a01b031663dd62ed3e30896001600160a01b03166317ba7d857fdfea78be99560632cc4c199ca1b0d68ffe0bbbb07b685976cefc8820374ac73a6040518263ffffffff1660e01b815260040161196191815260200190565b60206040518083038186803b15801561197957600080fd5b505afa15801561198d573d6000803e3d6000fd5b505050506040513d601f19601f820116820180604052508101906119b1919061290c565b6040516001600160e01b031960e085901b1681526001600160a01b0392831660048201529116602482015260440160206040518083038186803b1580156119f757600080fd5b505afa158015611a0b573d6000803e3d6000fd5b505050506040513d601f19601f82011682018060405250810190611a2f9190612cdd565b60608301819052610100830151611a4591612e01565b60808301526040516317ba7d8560e01b81527fdfea78be99560632cc4c199ca1b0d68ffe0bbbb07b685976cefc8820374ac73a60048201526001600160a01b038781169163095ea7b3918a16906317ba7d859060240160206040518083038186803b158015611ab357600080fd5b505afa158015611ac7573d6000803e3d6000fd5b505050506040513d601f19601f82011682018060405250810190611aeb919061290c565b60808501516040516001600160e01b031960e085901b1681526001600160a01b0390921660048301526024820152604401602060405180830381600087803b158015611b3657600080fd5b505af1158015611b4a573d6000803e3d6000fd5b505050506040513d601f19601f82011682018060405250810190611b6e9190612bb3565b507f7e0d2bb4312363eed7035f178b6a354ed747e50a3c12bd89e44a676e0d81ab0f84888784604051611ba49493929190612cf5565b60405180910390a150505050505050565b6040516317ba7d8560e01b81527ffacef1ff9551e6c96f09b108d715442c90dfae3b4f77a7691c0ddff9cef28d3560048201526000906001600160a01b038516906317ba7d859060240160206040518083038186803b158015611c1757600080fd5b505afa158015611c2b573d6000803e3d6000fd5b505050506040513d601f19601f82011682018060405250810190611c4f919061290c565b6001600160a01b0316336001600160a01b0316146107985760405162461bcd60e51b815260206004820152602760248201527f416c6c6f636174696f6e416461707465723a6e66744d696e7465643a4163636560448201527f73732064656e7900000000000000000000000000000000000000000000000000606482015260840161078f565b6040516317ba7d8560e01b81527f7a8526bca00f0726b2fab8c3bfd5b00bfa84d07f111e48263b13de605eefcdda600482015260009081906001600160a01b038616906317ba7d859060240160206040518083038186803b158015611d3957600080fd5b505afa158015611d4d573d6000803e3d6000fd5b505050506040513d601f19601f82011682018060405250810190611d71919061290c565b9050611d90604051806040016040528060008152602001600081525090565b604051632fd2666560e21b81526001600160a01b0387811660048301526024820187905283169063bf4999949060440160006040518083038186803b158015611dd857600080fd5b505afa158015611dec573d6000803e3d6000fd5b505050506040513d6000823e601f3d908101601f19168201604052611e149190810190612969565b5050825192975060009650670de0b6b3a76400009550611e3c9450919250899150612e399050565b611e469190612e19565b979650505050505050565b6040517f68c18beb00000000000000000000000000000000000000000000000000000000815233600482015283906001600160a01b038216906368c18beb9060240160206040518083038186803b158015611eab57600080fd5b505afa158015611ebf573d6000803e3d6000fd5b505050506040513d601f19601f82011682018060405250810190611ee39190612bb3565b80611ef25750611ef28161229f565b611f3e5760405162461bcd60e51b815260206004820152600b60248201527f6f6e6c7941646170746572000000000000000000000000000000000000000000604482015260640161078f565b50505050565b6040516317ba7d8560e01b81527f7a8526bca00f0726b2fab8c3bfd5b00bfa84d07f111e48263b13de605eefcdda600482015260009081906001600160a01b038616906317ba7d859060240160206040518083038186803b158015611fa857600080fd5b505afa158015611fbc573d6000803e3d6000fd5b505050506040513d601f19601f82011682018060405250810190611fe0919061290c565b604051632c9f4b5b60e11b81527fb12a3847d47fefceb164b75823af125f9aa82b76938df0ddf08c04cd314ba37c60048201529091506000906001600160a01b0387169063593e96b69060240160206040518083038186803b15801561204557600080fd5b505afa158015612059573d6000803e3d6000fd5b505050506040513d601f19601f8201168201806040525081019061207d919061290c565b604051632fd2666560e21b81526001600160a01b0388811660048301526024820188905291925060009184169063bf4999949060440160006040518083038186803b1580156120cb57600080fd5b505afa1580156120df573d6000803e3d6000fd5b505050506040513d6000823e601f3d908101601f191682016040526121079190810190612969565b98506000975050506001600160a01b0388169450639e3f2d9093508b92508a91506121359050600187612e76565b6040516001600160e01b031960e086901b16815260048101939093526001600160a01b039091166024830152604482015260640160206040518083038186803b15801561218157600080fd5b505afa158015612195573d6000803e3d6000fd5b505050506040513d601f19601f820116820180604052508101906121b99190612cdd565b905060006001600160a01b038416639e3f2d908961babe6121db600188612e76565b6040516001600160e01b031960e086901b16815260048101939093526001600160a01b039091166024830152604482015260640160206040518083038186803b15801561222757600080fd5b505afa15801561223b573d6000803e3d6000fd5b505050506040513d601f19601f8201168201806040525081019061225f9190612cdd565b90508015612290578061227a83670de0b6b3a7640000612e39565b6122849190612e19565b95505050505050610223565b50600098975050505050505050565b600080826001600160a01b031663c19d93fb6040518163ffffffff1660e01b815260040160206040518083038186803b1580156122db57600080fd5b505afa1580156122ef573d6000803e3d6000fd5b505050506040513d601f19601f820116820180604052508101906123139190612cc1565b600181111561233257634e487b7160e01b600052602160045260246000fd5b1480156124d85750816001600160a01b031663c67143666040518163ffffffff1660e01b815260040160206040518083038186803b15801561237357600080fd5b505afa158015612387573d6000803e3d6000fd5b505050506040513d601f19601f820116820180604052508101906123ab9190612cdd565b158061244257506040517fa230c5240000000000000000000000000000000000000000000000000000000081523360048201526001600160a01b0383169063a230c5249060240160206040518083038186803b15801561240a57600080fd5b505afa15801561241e573d6000803e3d6000fd5b505050506040513d601f19601f820116820180604052508101906124429190612bb3565b806124d857506040517f68c18beb0000000000000000000000000000000000000000000000000000000081523360048201526001600160a01b038316906368c18beb9060240160206040518083038186803b1580156124a057600080fd5b505afa1580156124b4573d6000803e3d6000fd5b505050506040513d601f19601f820116820180604052508101906124d89190612bb3565b92915050565b60405180610160016040528060006001600160a01b0316815260200160006001600160a01b0316815260200160006001600160a01b0316815260200160006001600160a01b031681526020016125b460405180610180016040528060006001600160a01b0316815260200160008152602001600081526020016000815260200160001515815260200160006001600160a01b031681526020016000815260200160008152602001600081526020016000815260200160006001600160a01b0316815260200160006001600160a01b031681525090565b81526020016000815260200160008152602001600081526020016000815260200160008152602001600081525090565b80516125ef81612eb9565b919050565b805180151581146125ef57600080fd5b80516125ef81612ed1565b8051600581106125ef57600080fd5b600082601f83011261262e578081fd5b815167ffffffffffffffff81111561264857612648612ea3565b602061265c81601f19601f85011601612dd0565b828152858284870101111561266f578384fd5b835b8381101561268c578581018301518282018401528201612671565b8381111561269c57848385840101525b5095945050505050565b600061020082840312156126b8578081fd5b604051610100810181811067ffffffffffffffff821117156126dc576126dc612ea3565b6040529050806126eb83612604565b81526020830151602082015260408301516040820152606083015160608201526080830151608082015261272160a084016125f4565b60a08201526127338460c08501612752565b60c08201526127468461016085016127c5565b60e08201525092915050565b600060a08284031215612763578081fd5b61276b612d5f565b9050815161277881612ede565b8152602082015163ffffffff8116811461279157600080fd5b602082015260408201516127a481612eb9565b80604083015250606082015160608201526080820151608082015292915050565b600060a082840312156127d6578081fd5b6127de612d5f565b90506127e9826125f4565b8152602082015161279181612ede565b60006040828403121561280a578081fd5b6040516040810181811067ffffffffffffffff8211171561282d5761282d612ea3565b604052825181526020928301519281019290925250919050565b60006101208284031215612859578081fd5b612861612d88565b9050815181526020820151602082015260408201516040820152606082015160608201526080820151608082015261289b60a083016125f4565b60a08201526128ac60c083016125e4565b60c082015260e082015167ffffffffffffffff808211156128cc57600080fd5b6128d88583860161261e565b60e0840152610100915081840151818111156128f357600080fd5b6128ff8682870161261e565b8385015250505092915050565b60006020828403121561291d578081fd5b815161022381612eb9565b60008060006060848603121561293c578182fd5b833561294781612eb9565b925060208401359150604084013561295e81612eb9565b809150509250925092565b6000806000806000806000806000898b03610480811215612988578788fd5b8a5161299381612eb9565b9950610180601f1982018113156129a8578889fd5b6129b0612dac565b91506129be60208d016125e4565b825260408c0151602083015260608c0151604083015260808c015160608301526129ea60a08d016125f4565b60808301526129fb60c08d016125e4565b60a083015260e08c015160c0830152610100808d015160e0840152610120808e0151828501526101409150818e01518185015250610160612a3d818f016125e4565b82850152612a4c838f016125e4565b9084015250506101a08b015190985067ffffffffffffffff811115612a6f578788fd5b612a7b8c828d01612847565b975050612a8c8b6101c08c016126a6565b9550612a9c8b6103c08c016127f9565b94506104008a015193506104208a01519250612abb6104408b0161260f565b91506104608a015190509295985092959850929598565b60008060408385031215612ae4578182fd5b8251612aef81612eb9565b6020939093015192949293505050565b60006020808385031215612b11578182fd5b825167ffffffffffffffff80821115612b28578384fd5b818501915085601f830112612b3b578384fd5b815181811115612b4d57612b4d612ea3565b8060051b9150612b5e848301612dd0565b8181528481019084860184860187018a1015612b78578788fd5b8795505b83861015612ba65780519450612b9185612eb9565b84835260019590950194918601918601612b7c565b5098975050505050505050565b600060208284031215612bc4578081fd5b610223826125f4565b6000806000806000610120808789031215612be6578384fd5b8635612bf181612eb9565b9550602087810135612c0281612eb9565b95506040880135612c1281612eb9565b945060608801359350609f88018913612c29578283fd5b612c31612d5f565b8060808a018b858c011115612c44578586fd5b8594505b6005851015612c67578035835260019490940193918301918301612c48565b50809450505050509295509295909350565b60008060006060848603121561293c578081fd5b600080600060608486031215612ca1578081fd5b8335612cac81612eb9565b95602085013595506040909401359392505050565b600060208284031215612cd2578081fd5b815161022381612ed1565b600060208284031215612cee578081fd5b5051919050565b60006080820186835260206001600160a01b038088168286015280871660408601526080606086015282865180855260a0870191508388019450855b81811015612d4f578551841683529484019491840191600101612d31565b50909a9950505050505050505050565b60405160a0810167ffffffffffffffff81118282101715612d8257612d82612ea3565b60405290565b604051610120810167ffffffffffffffff81118282101715612d8257612d82612ea3565b604051610180810167ffffffffffffffff81118282101715612d8257612d82612ea3565b604051601f8201601f1916810167ffffffffffffffff81118282101715612df957612df9612ea3565b604052919050565b60008219821115612e1457612e14612e8d565b500190565b600082612e3457634e487b7160e01b81526012600452602481fd5b500490565b6000817fffffffffffffffffffffffffffffffffffffffffffffffffffffffffffffffff0483118215151615612e7157612e71612e8d565b500290565b600082821015612e8857612e88612e8d565b500390565b634e487b7160e01b600052601160045260246000fd5b634e487b7160e01b600052604160045260246000fd5b6001600160a01b0381168114612ece57600080fd5b50565b60028110612ece57600080fd5b60048110612ece57600080fdfea2646970667358221220b1aebca16eb4b8b6bc0e6f1dabc6869ffff90b763f3b39bd586bd2b4915a42a464736f6c63430008040033",
  "linkReferences": {},
  "deployedLinkReferences": {}
}