{
  "_format": "hh-sol-artifact-1",
  "contractName": "ColletiveFundRaiseProposalAdapterContract",
  "sourceName": "contracts/collective/adapters/CollectiveFundRaiseProposalAdapter.sol",
  "abi": [
    {
      "inputs": [],
      "name": "INVALID_PARAM",
      "type": "error"
    },
    {
      "inputs": [],
      "name": "LAST_NEW_FUND_PROPOSAL_NOT_FINISH",
      "type": "error"
    },
    {
      "inputs": [],
      "name": "UNEXECUTE",
      "type": "error"
    },
    {
      "inputs": [],
      "name": "VOTING_NOT_FINISH",
      "type": "error"
    },
    {
      "anonymous": false,
      "inputs": [
        {
          "indexed": false,
          "internalType": "address",
          "name": "daoAddr",
          "type": "address"
        },
        {
          "indexed": false,
          "internalType": "bytes32",
          "name": "proposalId",
          "type": "bytes32"
        }
      ],
      "name": "ProposalCreated",
      "type": "event"
    },
    {
      "anonymous": false,
      "inputs": [
        {
          "indexed": false,
          "internalType": "address",
          "name": "daoAddr",
          "type": "address"
        },
        {
          "indexed": false,
          "internalType": "bytes32",
          "name": "proposalId",
          "type": "bytes32"
        },
        {
          "indexed": false,
          "internalType": "enum ICollectiveFundRaise.ProposalState",
          "name": "state",
          "type": "uint8"
        },
        {
          "indexed": false,
          "internalType": "uint256",
          "name": "allVotingWeight",
          "type": "uint256"
        },
        {
          "indexed": false,
          "internalType": "uint256",
          "name": "nbYes",
          "type": "uint256"
        },
        {
          "indexed": false,
          "internalType": "uint256",
          "name": "nbNo",
          "type": "uint256"
        },
        {
          "indexed": false,
          "internalType": "uint256",
          "name": "voteResult",
          "type": "uint256"
        }
      ],
      "name": "proposalExecuted",
      "type": "event"
    },
    {
      "inputs": [
        {
          "internalType": "contract DaoRegistry",
          "name": "dao",
          "type": "address"
        }
      ],
      "name": "allDone",
      "outputs": [
        {
          "internalType": "bool",
          "name": "",
          "type": "bool"
        }
      ],
      "stateMutability": "view",
      "type": "function"
    },
    {
      "inputs": [
        {
          "internalType": "address",
          "name": "",
          "type": "address"
        }
      ],
      "name": "fundRaisingId",
      "outputs": [
        {
          "internalType": "uint256",
          "name": "",
          "type": "uint256"
        }
      ],
      "stateMutability": "view",
      "type": "function"
    },
    {
      "inputs": [
        {
          "internalType": "contract DaoRegistry",
          "name": "dao",
          "type": "address"
        },
        {
          "internalType": "bytes32",
          "name": "proposalId",
          "type": "bytes32"
        }
      ],
      "name": "getPriorityDepositeWhiteList",
      "outputs": [
        {
          "internalType": "address[]",
          "name": "",
          "type": "address[]"
        }
      ],
      "stateMutability": "view",
      "type": "function"
    },
    {
      "inputs": [
        {
          "internalType": "contract DaoRegistry",
          "name": "dao",
          "type": "address"
        },
        {
          "internalType": "address",
          "name": "_addr",
          "type": "address"
        }
      ],
      "name": "isActiveMember",
      "outputs": [
        {
          "internalType": "bool",
          "name": "",
          "type": "bool"
        }
      ],
      "stateMutability": "view",
      "type": "function"
    },
    {
      "inputs": [
        {
          "internalType": "contract DaoRegistry",
          "name": "dao",
          "type": "address"
        },
        {
          "internalType": "bytes32",
          "name": "proposalId",
          "type": "bytes32"
        },
        {
          "internalType": "address",
          "name": "account",
          "type": "address"
        }
      ],
      "name": "isPriorityDepositer",
      "outputs": [
        {
          "internalType": "bool",
          "name": "",
          "type": "bool"
        }
      ],
      "stateMutability": "view",
      "type": "function"
    },
    {
      "inputs": [
        {
          "internalType": "address",
          "name": "",
          "type": "address"
        }
      ],
      "name": "lastProposalIds",
      "outputs": [
        {
          "internalType": "bytes32",
          "name": "",
          "type": "bytes32"
        }
      ],
      "stateMutability": "view",
      "type": "function"
    },
    {
      "inputs": [
        {
          "internalType": "contract DaoRegistry",
          "name": "dao",
          "type": "address"
        },
        {
          "internalType": "bytes32",
          "name": "proposalId",
          "type": "bytes32"
        }
      ],
      "name": "processProposal",
      "outputs": [],
      "stateMutability": "nonpayable",
      "type": "function"
    },
    {
      "inputs": [
        {
          "internalType": "contract DaoRegistry",
          "name": "",
          "type": "address"
        },
        {
          "internalType": "bytes32",
          "name": "",
          "type": "bytes32"
        }
      ],
      "name": "proposals",
      "outputs": [
        {
          "components": [
            {
              "internalType": "uint256",
              "name": "startTime",
              "type": "uint256"
            },
            {
              "internalType": "uint256",
              "name": "endTime",
              "type": "uint256"
            }
          ],
          "internalType": "struct ICollectiveFundRaise.FundRaiseTimeInfo",
          "name": "timeInfo",
          "type": "tuple"
        },
        {
          "components": [
            {
              "internalType": "address",
              "name": "tokenAddress",
              "type": "address"
            },
            {
              "internalType": "uint256",
              "name": "miniTarget",
              "type": "uint256"
            },
            {
              "internalType": "uint256",
              "name": "maxCap",
              "type": "uint256"
            },
            {
              "internalType": "uint256",
              "name": "miniDeposit",
              "type": "uint256"
            },
            {
              "internalType": "uint256",
              "name": "maxDeposit",
              "type": "uint256"
            }
          ],
          "internalType": "struct ICollectiveFundRaise.FundInfo",
          "name": "fundInfo",
          "type": "tuple"
        },
        {
          "components": [
            {
              "internalType": "bool",
              "name": "enable",
              "type": "bool"
            },
            {
              "internalType": "uint8",
              "name": "valifyType",
              "type": "uint8"
            },
            {
              "internalType": "address",
              "name": "tokenAddress",
              "type": "address"
            },
            {
              "internalType": "uint256",
              "name": "tokenId",
              "type": "uint256"
            },
            {
              "internalType": "uint256",
              "name": "miniHolding",
              "type": "uint256"
            },
            {
              "internalType": "address[]",
              "name": "whitelist",
              "type": "address[]"
            }
          ],
          "internalType": "struct ICollectiveFundRaise.PriorityDepositorInfo",
          "name": "priorityDepositor",
          "type": "tuple"
        },
        {
          "internalType": "uint8",
          "name": "fundRaiseType",
          "type": "uint8"
        },
        {
          "internalType": "enum ICollectiveFundRaise.ProposalState",
          "name": "state",
          "type": "uint8"
        },
        {
          "internalType": "uint256",
          "name": "creationTime",
          "type": "uint256"
        },
        {
          "internalType": "uint256",
          "name": "stopVoteTime",
          "type": "uint256"
        }
      ],
      "stateMutability": "view",
      "type": "function"
    },
    {
      "inputs": [
        {
          "components": [
            {
              "internalType": "contract DaoRegistry",
              "name": "dao",
              "type": "address"
            },
            {
              "internalType": "uint8",
              "name": "fundRaiseType",
              "type": "uint8"
            },
            {
              "components": [
                {
                  "internalType": "address",
                  "name": "tokenAddress",
                  "type": "address"
                },
                {
                  "internalType": "uint256",
                  "name": "miniTarget",
                  "type": "uint256"
                },
                {
                  "internalType": "uint256",
                  "name": "maxCap",
                  "type": "uint256"
                },
                {
                  "internalType": "uint256",
                  "name": "miniDeposit",
                  "type": "uint256"
                },
                {
                  "internalType": "uint256",
                  "name": "maxDeposit",
                  "type": "uint256"
                }
              ],
              "internalType": "struct ICollectiveFundRaise.FundInfo",
              "name": "fundInfo",
              "type": "tuple"
            },
            {
              "components": [
                {
                  "internalType": "uint256",
                  "name": "startTime",
                  "type": "uint256"
                },
                {
                  "internalType": "uint256",
                  "name": "endTime",
                  "type": "uint256"
                }
              ],
              "internalType": "struct ICollectiveFundRaise.FundRaiseTimeInfo",
              "name": "timeInfo",
              "type": "tuple"
            },
            {
              "components": [
                {
                  "internalType": "bool",
                  "name": "enable",
                  "type": "bool"
                },
                {
                  "internalType": "uint8",
                  "name": "valifyType",
                  "type": "uint8"
                },
                {
                  "internalType": "address",
                  "name": "tokenAddress",
                  "type": "address"
                },
                {
                  "internalType": "uint256",
                  "name": "tokenId",
                  "type": "uint256"
                },
                {
                  "internalType": "uint256",
                  "name": "miniHolding",
                  "type": "uint256"
                },
                {
                  "internalType": "address[]",
                  "name": "whitelist",
                  "type": "address[]"
                }
              ],
              "internalType": "struct ICollectiveFundRaise.PriorityDepositorInfo",
              "name": "priorityDepositor",
              "type": "tuple"
            }
          ],
          "internalType": "struct ICollectiveFundRaise.ProposalParams",
          "name": "params",
          "type": "tuple"
        }
      ],
      "name": "submitProposal",
      "outputs": [
        {
          "internalType": "bool",
          "name": "",
          "type": "bool"
        }
      ],
      "stateMutability": "nonpayable",
      "type": "function"
    }
  ],
  "bytecode": "0x608060405234801561001057600080fd5b50614457806100206000396000f3fe608060405234801561001057600080fd5b50600436106100a35760003560e01c80636d3cc040116100765780639573167d1161005b5780639573167d1461016a578063baf175bc1461017f578063e956369e1461019257600080fd5b80636d3cc040146101445780638ecf77201461015757600080fd5b806301c22a3d146100a8578063315b39eb146100db5780635cb75276146100fb578063642fc0c014610121575b600080fd5b6100c86100b6366004613cb9565b60036020526000908152604090205481565b6040519081526020015b60405180910390f35b6100ee6100e9366004613e6d565b6101b2565b6040516100d2919061410d565b61010e610109366004613e6d565b6101e8565b6040516100d2979695949392919061416a565b61013461012f366004613cb9565b61032d565b60405190151581526020016100d2565b610134610152366004613e98565b610364565b610134610165366004613e35565b6108e2565b61017d610178366004613e6d565b610978565b005b61013461018d366004613f31565b6110d3565b6100c86101a0366004613cb9565b60046020526000908152604090205481565b6001600160a01b03821660009081526020818152604080832084845290915290206060906101df90612381565b90505b92915050565b600160208181526000938452604080852082529284529282902082518084018452815481529181015482850152825160a0808201855260028301546001600160a01b03908116835260038401548388015260048401548387015260058401546060808501919091526006850154608080860191909152875160c08101895260078701805460ff80821615158452610100820416838d0152620100009004909416818a0152600887015492810192909252600986015490820152600a850180548851818b0281018b01909952808952969894979596919592949386019390919083018282801561030057602002820191906000526020600020905b81546001600160a01b031681526001909101906020018083116102e2575b50505091909252505050600b820154600c830154600d90930154919260ff80831693610100909304169187565b6001600160a01b038116600090815260026020526040812081906103509061238e565b1161035c5760016101e2565b600092915050565b604051634941d71d60e11b81527f87f768842f3bb4c7742d189f32b11c2bf0d7f4a6bad0b4b7a45937b15319e9fb60048201526000906001600160a01b03851690639283ae3a9060240160206040518083038186803b1580156103c657600080fd5b505afa1580156103da573d6000803e3d6000fd5b505050506040513d601f19601f820116820180604052508101906103fe9190613e1d565b600114156108d757604051634941d71d60e11b81527f5cd8f6e95e052e3c0e0cc859654925ecc6c0d54b86a47d5ab47f1e8fc71daad960048201526000906001600160a01b03861690639283ae3a9060240160206040518083038186803b15801561046857600080fd5b505afa15801561047c573d6000803e3d6000fd5b505050506040513d601f19601f820116820180604052508101906104a09190613e1d565b6040517ffd310d290000000000000000000000000000000000000000000000000000000081527f6468a9b13d5f0011479da2d9211ad507a42070e4a58df895adf3136147416db260048201529091506000906001600160a01b0387169063fd310d299060240160206040518083038186803b15801561051e57600080fd5b505afa158015610532573d6000803e3d6000fd5b505050506040513d601f19601f820116820180604052508101906105569190613cd5565b604051634941d71d60e11b81527f0ebc415f2a9c53ba3b90c65925f402605b16daf54b8f18bc2a4ac5cf2026ff5360048201529091506000906001600160a01b03881690639283ae3a9060240160206040518083038186803b1580156105bb57600080fd5b505afa1580156105cf573d6000803e3d6000fd5b505050506040513d601f19601f820116820180604052508101906105f39190613e1d565b604051634941d71d60e11b81527f52cf9e13c44455102d3bdf6a2d2539e3a78562a7c366394927a7d6cff60a27a660048201529091506000906001600160a01b03891690639283ae3a9060240160206040518083038186803b15801561065857600080fd5b505afa15801561066c573d6000803e3d6000fd5b505050506040513d601f19601f820116820180604052508101906106909190613e1d565b90508315801561071a57506040516370a0823160e01b81526001600160a01b0387811660048301528391908516906370a082319060240160206040518083038186803b1580156106df57600080fd5b505afa1580156106f3573d6000803e3d6000fd5b505050506040513d601f19601f820116820180604052508101906107179190613e1d565b10155b1561072c5760019450505050506108db565b8360011480156107b657506040516370a0823160e01b81526001600160a01b0387811660048301528391908516906370a082319060240160206040518083038186803b15801561077b57600080fd5b505afa15801561078f573d6000803e3d6000fd5b505050506040513d601f19601f820116820180604052508101906107b39190613e1d565b10155b156107c85760019450505050506108db565b83600214801561087057506040517efdd58e0000000000000000000000000000000000000000000000000000000081526001600160a01b0387811660048301526024820183905283919085169062fdd58e9060440160206040518083038186803b15801561083557600080fd5b505afa158015610849573d6000803e3d6000fd5b505050506040513d601f19601f8201168201806040525081019061086d9190613e1d565b10155b156108825760019450505050506108db565b8360031480156108b857506001600160a01b0388166000908152602081815260408083208a845290915290206108b89087612398565b156108ca5760019450505050506108db565b60009450505050506108db565b5060005b9392505050565b6040517fa230c5240000000000000000000000000000000000000000000000000000000081526001600160a01b0382811660048301526000919084169063a230c5249060240160206040518083038186803b15801561094057600080fd5b505afa158015610954573d6000803e3d6000fd5b505050506040513d601f19601f820116820180604052508101906101df9190613dd4565b816000610984826123ba565b905061098e613b07565b6001600160a01b03851660008181526001602090815260408083208884529091529081902090517f30490e91000000000000000000000000000000000000000000000000000000008152600481018790529091906330490e9190602401600060405180830381600087803b158015610a0557600080fd5b505af1158015610a19573d6000803e3d6000fd5b50506040516317ba7d8560e01b81527f8f5b4aabbdb8527d420a29cc90ae207773ad49b73c632c3cfd2f29eb8776f2ea60048201526001600160a01b03891692506317ba7d85915060240160206040518083038186803b158015610a7c57600080fd5b505afa158015610a90573d6000803e3d6000fd5b505050506040513d601f19601f82011682018060405250810190610ab49190613cd5565b6001600160a01b0390811683526040517f40de703e00000000000000000000000000000000000000000000000000000000815260048101879052908716906340de703e9060240160206040518083038186803b158015610b1357600080fd5b505afa158015610b27573d6000803e3d6000fd5b505050506040513d601f19601f82011682018060405250810190610b4b9190613cd5565b6001600160a01b031660208301819052610bac5760405162461bcd60e51b815260206004820152601860248201527f766f74696e672061646170746572206e6f7420666f756e64000000000000000060448201526064015b60405180910390fd5b60208201516040517f76225e730000000000000000000000000000000000000000000000000000000081526001600160a01b03888116600483015260248201889052909116906376225e739060440160606040518083038186803b158015610c1357600080fd5b505afa158015610c27573d6000803e3d6000fd5b505050506040513d601f19601f82011682018060405250810190610c4b9190613ef8565b608085018190526060850182905260408501836005811115610c7d57634e487b7160e01b600052602160045260246000fd5b6005811115610c9c57634e487b7160e01b600052602160045260246000fd5b90525060029150610caa9050565b82604001516005811115610cce57634e487b7160e01b600052602160045260246000fd5b1415610f4557600b8101805461ff0019166101009081179091556040805161012081018252835460e082019081526001850154828501528152815160a0808201845260028601546001600160a01b03908116835260038701546020808501919091526004880154848701526005880154606080860191909152600689015460808087019190915282870195909552865160c08101885260078a01805460ff808216151584529a8104909a16828501526201000090990490931683880152600889015490830152600988015493820193909352600a870180548651818602810186018852818152610e83988f988b979089019691949186019390830182828015610e0057602002820191906000526020600020905b81546001600160a01b03168152600190910190602001808311610de2575b505050919092525050508152600b82015460ff8082166020840152604090920191610100909104166003811115610e4757634e487b7160e01b600052602160045260246000fd5b6003811115610e6657634e487b7160e01b600052602160045260246000fd5b8152602001600c8201548152602001600d82015481525050612685565b6001600160a01b0386166000908152600460205260408120805460019290610eac9084906142dd565b909155505081516040517ff10e6b6b0000000000000000000000000000000000000000000000000000000081526001600160a01b0388811660048301529091169063f10e6b6b90602401600060405180830381600087803b158015610f1057600080fd5b505af1158015610f24573d6000803e3d6000fd5b505050600b820180546002925061ff001916610100835b0217905550610fe9565b600382604001516005811115610f6b57634e487b7160e01b600052602160045260246000fd5b1480610f9a5750600182604001516005811115610f9857634e487b7160e01b600052602160045260246000fd5b145b15610fb757600b810180546003919061ff00191661010083610f3b565b6040517f70fc772800000000000000000000000000000000000000000000000000000000815260040160405180910390fd5b6001600160a01b038616600090815260026020526040902061100b9086612855565b15611034576001600160a01b0386166000908152600260205260409020611032908661286d565b505b600061103f87612879565b90507fdcc911819967718b3aa2f12f31ede4b5b207e7a5c1b86cbfa291fe31dee26644878784600b0160019054906101000a900460ff168487606001518860800151896040015160058111156110a557634e487b7160e01b600052602160045260246000fd5b6040516110b897969594939291906140b3565b60405180910390a15050506110cd828261295d565b50505050565b60006110e26020830183613cb9565b60006110ed826123ba565b90506110fc6020850185613cb9565b6111068133612968565b6040805160e081018252600080825260208201819052918101829052606081018290526080810182905260a0810182905260c0810191909152600060038161115160208a018a613cb9565b6001600160a01b03166001600160a01b0316815260200190815260200160002054141580156112d9575060006001600061118e60208a018a613cb9565b6001600160a01b03166001600160a01b031681526020019081526020016000206000600360008a60000160208101906111c79190613cb9565b6001600160a01b03166001600160a01b03168152602001908152602001600020548152602001908152602001600020600b0160019054906101000a900460ff16600381111561122657634e487b7160e01b600052602160045260246000fd5b14806112d95750600180600061123f60208a018a613cb9565b6001600160a01b03166001600160a01b031681526020019081526020016000206000600360008a60000160208101906112789190613cb9565b6001600160a01b03166001600160a01b03168152602001908152602001600020548152602001908152602001600020600b0160019054906101000a900460ff1660038111156112d757634e487b7160e01b600052602160045260246000fd5b145b15611310576040517fc49f1f0a00000000000000000000000000000000000000000000000000000000815260040160405180910390fd5b61131d6020870187613cb9565b6040516317ba7d8560e01b81527fdac6d9ce728ebc92a61253866b4e5a4c73b76ba0aa11e7297a633f6232f5423760048201526001600160a01b0391909116906317ba7d859060240160206040518083038186803b15801561137e57600080fd5b505afa158015611392573d6000803e3d6000fd5b505050506040513d601f19601f820116820180604052508101906113b69190613cd5565b6001600160a01b0316808252639a0242fc6113d46020890189613cb9565b6040516001600160e01b031960e084901b1681526001600160a01b03909116600482015260240160206040518083038186803b15801561141357600080fd5b505afa158015611427573d6000803e3d6000fd5b505050506040513d601f19601f8201168201806040525081019061144b9190613dd4565b6114975760405162461bcd60e51b815260206004820152601660248201527f44616f5365742050726f706f73616c20556e646f6e65000000000000000000006044820152606401610ba3565b6114a46020870187613cb9565b6040516317ba7d8560e01b81527f72894213a5c7f56b36b2947fa6ea18963d6bb1a68746b46d7f552cca76e1a7a860048201526001600160a01b0391909116906317ba7d859060240160206040518083038186803b15801561150557600080fd5b505afa158015611519573d6000803e3d6000fd5b505050506040513d601f19601f8201168201806040525081019061153d9190613cd5565b6001600160a01b03166040820181905260009063a5d6fb1361156260208a018a613cb9565b6040516001600160e01b031960e084901b1681526001600160a01b03909116600482015260240160206040518083038186803b1580156115a157600080fd5b505afa1580156115b5573d6000803e3d6000fd5b505050506040513d601f19601f820116820180604052508101906115d99190613e1d565b1115801561167e575060408101516000906001600160a01b03166362e86df561160560208a018a613cb9565b6040516001600160e01b031960e084901b1681526001600160a01b03909116600482015260240160206040518083038186803b15801561164457600080fd5b505afa158015611658573d6000803e3d6000fd5b505050506040513d601f19601f8201168201806040525081019061167c9190613e1d565b145b6116ca5760405162461bcd60e51b815260206004820152601a60248201527f556e646f6e6520496e766573746d656e742050726f706f73616c0000000000006044820152606401610ba3565b6116d76020870187613cb9565b6040516317ba7d8560e01b81527f8f5b4aabbdb8527d420a29cc90ae207773ad49b73c632c3cfd2f29eb8776f2ea60048201526001600160a01b0391909116906317ba7d859060240160206040518083038186803b15801561173857600080fd5b505afa15801561174c573d6000803e3d6000fd5b505050506040513d601f19601f820116820180604052508101906117709190613cd5565b6001600160a01b031660608201819052600190630c916bae61179560208a018a613cb9565b6040516001600160e01b031960e084901b1681526001600160a01b03909116600482015260240160206040518083038186803b1580156117d457600080fd5b505afa1580156117e8573d6000803e3d6000fd5b505050506040513d601f19601f8201168201806040525081019061180c9190613ed9565b600381111561182b57634e487b7160e01b600052602160045260246000fd5b1415611863576040517f997cddba00000000000000000000000000000000000000000000000000000000815260040160405180910390fd5b80606001516001600160a01b031663b0e21e8a6040518163ffffffff1660e01b815260040160206040518083038186803b1580156118a057600080fd5b505afa1580156118b4573d6000803e3d6000fd5b505050506040513d601f19601f820116820180604052508101906118d89190613e1d565b60c0820152606086013515806119035750608086013515801590611903575060608601356080870135105b8061190c575060005b8061192d575060c08601351580159061192d575060a086013560c087013511155b8061193b57504260e0870135105b8061194e575060e0860135610100870135105b15611985576040517f22ee6ae700000000000000000000000000000000000000000000000000000000815260040160405180910390fd5b6119926020870187613cb9565b6001600160a01b0316630b9411ba6040518163ffffffff1660e01b8152600401600060405180830381600087803b1580156119cc57600080fd5b505af11580156119e0573d6000803e3d6000fd5b50611aa392506119f69150506020880188613cb9565b60c01b611a7e611a0960208a018a613cb9565b6001600160a01b031663a25950c56040518163ffffffff1660e01b815260040160206040518083038186803b158015611a4157600080fd5b505afa158015611a55573d6000803e3d6000fd5b505050506040513d601f19601f82011682018060405250810190611a799190613e1d565b6129be565b604051602001611a8f929190614045565b604051602081830303815290604052612b14565b602080830191909152604080516101208101825260e089810135908201908152610100808b0135908301528152815160a08101835290928301918190611aef9060608c01908c01613cb9565b6001600160a01b03168152602001896040016020013581526020018960400160400135815260200189604001606001358152602001896040016080013581525081526020016040518060c0016040528089806101200190611b50919061426c565b611b5e906020810190613db8565b15158152602001611b736101208b018b61426c565b611b84906040810190602001613f6a565b60ff168152602001611b9a6101208b018b61426c565b611bab906060810190604001613cb9565b6001600160a01b03168152602001611bc76101208b018b61426c565b606001358152602001611bde6101208b018b61426c565b608001358152602001611bf56101208b018b61426c565b611c039060a08101906141ff565b8080602002602001604051908101604052809392919081815260200183836020028082843760009201919091525050509152508152602090810190611c4e9060408a01908a01613f6a565b60ff16815260200160008152602001428152602001876000016020810190611c769190613cb9565b604051634941d71d60e11b81527f9876c0f0505bfb2b1c38d3bbd25ba13159172cd0868972d76927723f5a9480fc60048201526001600160a01b039190911690639283ae3a9060240160206040518083038186803b158015611cd757600080fd5b505afa158015611ceb573d6000803e3d6000fd5b505050506040513d601f19601f82011682018060405250810190611d0f9190613e1d565b611d1990426142dd565b905260016000611d2c60208a018a613cb9565b6001600160a01b03908116825260208083019390935260409182016000908120868501518252845282902084518051825584015160018201558484015180516002830180547fffffffffffffffffffffffff00000000000000000000000000000000000000001691851691909117905580850151600383015580840151600483015560608082015160058401556080918201516006840155868501518051600785018054838a01519884015161ffff1990911692151561ff0019169290921761010060ff90991698909802979097177fffffffffffffffffffff0000000000000000000000000000000000000000ffff166201000091909616029490941785558301516008830155820151600982015560a082015180519194929392611e5a92600a87019290910190613b49565b5050506060820151600b8201805460ff9092167fffffffffffffffffffffffffffffffffffffffffffffffffffffffffffffff0083168117825560808501519261ffff191617610100836003811115611ec357634e487b7160e01b600052602160045260246000fd5b021790555060a0820151600c82015560c090910151600d909101556000611eee61012088018861426c565b611efc9060a08101906141ff565b90501115611fd85760005b611f1561012088018861426c565b611f239060a08101906141ff565b90508160ff161015611fd657611fc3611f4061012089018961426c565b611f4e9060a08101906141ff565b8360ff16818110611f6f57634e487b7160e01b600052603260045260246000fd5b9050602002016020810190611f849190613cb9565b600080611f9460208c018c613cb9565b6001600160a01b0316815260208082019290925260409081016000908120878401518252909252902090612b30565b5080611fce81614385565b915050611f07565b505b611fe56020870187613cb9565b6001600160a01b031663b73dc38982602001516040518263ffffffff1660e01b815260040161201691815260200190565b600060405180830381600087803b15801561203057600080fd5b505af1158015612044573d6000803e3d6000fd5b50612056925050506020870187613cb9565b6001600160a01b031663815a2bf4826020015188600001602081019061207c9190613cb9565b6040516317ba7d8560e01b81527f907642cbfe4e58ddd14eaa320923fbe4c29721dd0950ae4cb3b2626e292791ae60048201526001600160a01b0391909116906317ba7d859060240160206040518083038186803b1580156120dd57600080fd5b505afa1580156120f1573d6000803e3d6000fd5b505050506040513d601f19601f820116820180604052508101906121159190613cd5565b6040516001600160e01b031960e085901b16815260048101929092526001600160a01b03166024820152604401600060405180830381600087803b15801561215c57600080fd5b505af1158015612170573d6000803e3d6000fd5b50600092506121859150506020880188613cb9565b6040516317ba7d8560e01b81527f907642cbfe4e58ddd14eaa320923fbe4c29721dd0950ae4cb3b2626e292791ae60048201526001600160a01b0391909116906317ba7d859060240160206040518083038186803b1580156121e657600080fd5b505afa1580156121fa573d6000803e3d6000fd5b505050506040513d601f19601f8201168201806040525081019061221e9190613cd5565b90506001600160a01b038116632b0974d061223c60208a018a613cb9565b60208086015160408051928301815260008352516001600160e01b031960e086901b16815261226f939290600401614120565b600060405180830381600087803b15801561228957600080fd5b505af115801561229d573d6000803e3d6000fd5b505050506122df8260200151600260008a60000160208101906122c09190613cb9565b6001600160a01b03168152602081019190915260400160002090612b45565b50602080830151906003906000906122f9908b018b613cb9565b6001600160a01b03168152602080820192909252604001600020919091557ffe22c13d0cc04eef2a813c30901da5f8cd64f5ba91866fccce71c606ce4648749061234590890189613cb9565b602080850151604080516001600160a01b039094168452918301520160405180910390a16001955050505061237a828261295d565b5050919050565b606060006108db83612b51565b60006101e2825490565b6001600160a01b038116600090815260018301602052604081205415156101df565b6040805160808101825260008082526020820181905291810182905260608101919091525a81600001818152505043826001600160a01b031663b21634826040518163ffffffff1660e01b815260040160206040518083038186803b15801561242257600080fd5b505afa158015612436573d6000803e3d6000fd5b505050506040513d601f19601f8201168201806040525081019061245a9190613e1d565b14156124a85760405162461bcd60e51b815260206004820152601060248201527f7265656e7472616e6379206775617264000000000000000000000000000000006044820152606401610ba3565b816001600160a01b03166310fdb0a26040518163ffffffff1660e01b8152600401600060405180830381600087803b1580156124e357600080fd5b505af11580156124f7573d6000803e3d6000fd5b50506040517f72c6838f0000000000000000000000000000000000000000000000000000000081527f1f2fd42ad6a6cacd573c4b212beb7a4e2499ad45d742a65337097f130e71daff6004820152600092506001600160a01b03851691506372c6838f9060240160206040518083038186803b15801561257657600080fd5b505afa15801561258a573d6000803e3d6000fd5b505050506040513d601f19601f820116820180604052508101906125ae9190613cd5565b90506001600160a01b0381166125ca576000602083015261267f565b6001600160a01b038181166060840181905283516040517f43a8a3f1000000000000000000000000000000000000000000000000000000008152928616600484015260248301526000918291906343a8a3f190604401604080518083038186803b15801561263757600080fd5b505afa15801561264b573d6000803e3d6000fd5b505050506040513d601f19601f8201168201806040525081019061266f9190613df0565b9015156020860152604085015250505b50919050565b6060810151604051630da0f6c760e41b81527ff301d5aec67a9d816d38f9b645cac1e79a3308ff9803564bbe63a862db82f46b600482015260ff90911660248201526001600160a01b0383169063da0f6c7090604401600060405180830381600087803b1580156126f557600080fd5b505af1158015612709573d6000803e3d6000fd5b50505050612757826040518060800160405280846020015160200151815260200184602001516040015181526020018460200151606001518152602001846020015160800151815250612bad565b60408051808201909152815151815281516020908101519082015261277d908390612dd0565b6020810151516040517f3b4f921a0000000000000000000000000000000000000000000000000000000081527f7fa36390a0e9b8b8004035572fd8345b1128cea12d1763a1baf8fbd4fb7b202760048201526001600160a01b03918216602482015290831690633b4f921a90604401600060405180830381600087803b15801561280657600080fd5b505af115801561281a573d6000803e3d6000fd5b5050505060408101515115612851576040808201516020810151918101516060820151608090920151612851938693909291612e8c565b5050565b600081815260018301602052604081205415156101df565b60006101df838361312f565b600080826001600160a01b031663a6f636416040518163ffffffff1660e01b815260040160006040518083038186803b1580156128b557600080fd5b505afa1580156128c9573d6000803e3d6000fd5b505050506040513d6000823e601f3d908101601f191682016040526128f19190810190613cf1565b90506000805b82518160ff1610156129555761293785848360ff168151811061292a57634e487b7160e01b600052603260045260246000fd5b602002602001015161324c565b61294190836142a9565b91508061294d81614385565b9150506128f7565b509392505050565b612851828233613886565b61297282826108e2565b6128515760405162461bcd60e51b815260206004820152600c60248201527f6f6e6c79476f7665726e6f7200000000000000000000000000000000000000006044820152606401610ba3565b6060816129fe57505060408051808201909152600181527f3000000000000000000000000000000000000000000000000000000000000000602082015290565b8160005b8115612a285780612a128161434c565b9150612a219050600a836142f5565b9150612a02565b60008167ffffffffffffffff811115612a5157634e487b7160e01b600052604160045260246000fd5b6040519080825280601f01601f191660200182016040528015612a7b576020820181803683370190505b5090505b8415612b0c57612a90600183614309565b9150612a9d600a866143a5565b612aa89060306142dd565b60f81b818381518110612acb57634e487b7160e01b600052603260045260246000fd5b60200101907effffffffffffffffffffffffffffffffffffffffffffffffffffffffffffff1916908160001a905350612b05600a866142f5565b9450612a7f565b949350505050565b6000815160001415612b2857506000919050565b506020015190565b60006101df836001600160a01b03841661397c565b60006101df838361397c565b606081600001805480602002602001604051908101604052809291908181526020018280548015612ba157602002820191906000526020600020905b815481526020019060010190808311612b8d575b50505050509050919050565b8051604051630da0f6c760e41b81527f31af571e53636dddd77f772cce9d30b42075760f2da731636acc6962da2fbef8600482015260248101919091526001600160a01b0383169063da0f6c7090604401600060405180830381600087803b158015612c1857600080fd5b505af1158015612c2c573d6000803e3d6000fd5b5050506020820151604051630da0f6c760e41b81527f7e07fb4530796d057ca1d76d83f47aa8629dbb7e942ac28f30ad6f5e9e8d4189600482015260248101919091526001600160a01b038416915063da0f6c7090604401600060405180830381600087803b158015612c9e57600080fd5b505af1158015612cb2573d6000803e3d6000fd5b5050506040808301519051630da0f6c760e41b81527fbdd40865e74210f0a46799ae63462c62010da92014a08cbc32f1d049d0a22c6b600482015260248101919091526001600160a01b038416915063da0f6c7090604401600060405180830381600087803b158015612d2457600080fd5b505af1158015612d38573d6000803e3d6000fd5b5050506001600160a01b038316905063da0f6c707f5fa39c8100b49336846e52d39403e353bf782275f905a885f09224779ff1c9248360035b60200201516040516001600160e01b031960e085901b16815260048101929092526024820152604401600060405180830381600087803b158015612db457600080fd5b505af1158015612dc8573d6000803e3d6000fd5b505050505050565b8051604051630da0f6c760e41b81527fbd04d44792b7dbfe3b50b0f9f2006f7ef449e374a39021cb9bfa7cd0bdd850d7600482015260248101919091526001600160a01b0383169063da0f6c7090604401600060405180830381600087803b158015612e3b57600080fd5b505af1158015612e4f573d6000803e3d6000fd5b5050506001600160a01b038316905063da0f6c707f533afc15b6312917b5e28e2272ea69d44e5ea8e00d3bd57cada1275c2f14c9e8836001612d71565b604051630da0f6c760e41b81527f87f768842f3bb4c7742d189f32b11c2bf0d7f4a6bad0b4b7a45937b15319e9fb6004820152600160248201526001600160a01b0386169063da0f6c7090604401600060405180830381600087803b158015612ef457600080fd5b505af1158015612f08573d6000803e3d6000fd5b5050604051630da0f6c760e41b81527f5cd8f6e95e052e3c0e0cc859654925ecc6c0d54b86a47d5ab47f1e8fc71daad9600482015260ff871660248201526001600160a01b038816925063da0f6c709150604401600060405180830381600087803b158015612f7657600080fd5b505af1158015612f8a573d6000803e3d6000fd5b5050604051630da0f6c760e41b81527f52cf9e13c44455102d3bdf6a2d2539e3a78562a7c366394927a7d6cff60a27a66004820152602481018590526001600160a01b038816925063da0f6c709150604401600060405180830381600087803b158015612ff657600080fd5b505af115801561300a573d6000803e3d6000fd5b5050604051630da0f6c760e41b81527f0ebc415f2a9c53ba3b90c65925f402605b16daf54b8f18bc2a4ac5cf2026ff536004820152602481018490526001600160a01b038816925063da0f6c709150604401600060405180830381600087803b15801561307657600080fd5b505af115801561308a573d6000803e3d6000fd5b50506040517f3b4f921a0000000000000000000000000000000000000000000000000000000081527f6468a9b13d5f0011479da2d9211ad507a42070e4a58df895adf3136147416db260048201526001600160a01b03868116602483015288169250633b4f921a9150604401600060405180830381600087803b15801561311057600080fd5b505af1158015613124573d6000803e3d6000fd5b505050505050505050565b60008181526001830160205260408120548015613242576000613153600183614309565b855490915060009061316790600190614309565b90508181146131e857600086600001828154811061319557634e487b7160e01b600052603260045260246000fd5b90600052602060002001549050808760000184815481106131c657634e487b7160e01b600052603260045260246000fd5b6000918252602080832090910192909255918252600188019052604090208390555b855486908061320757634e487b7160e01b600052603160045260246000fd5b6001900381819060005260206000200160009055905585600101600086815260200190815260200160002060009055600193505050506101e2565b60009150506101e2565b604051634941d71d60e11b81527feee23dc9ab95b6666db01c2b6cae6a5ef706099a25926e21e0a2e043fe885604600482015260009081906001600160a01b03851690639283ae3a9060240160206040518083038186803b1580156132b057600080fd5b505afa1580156132c4573d6000803e3d6000fd5b505050506040513d601f19601f820116820180604052508101906132e89190613e1d565b604051634941d71d60e11b81527fd093d4a34a12a221b19c0a6689d5449f1346aa769d15cca4e9782c36fda9339a60048201529091506000906001600160a01b03861690639283ae3a9060240160206040518083038186803b15801561334d57600080fd5b505afa158015613361573d6000803e3d6000fd5b505050506040513d601f19601f820116820180604052508101906133859190613e1d565b6040516317ba7d8560e01b81527f8f5b4aabbdb8527d420a29cc90ae207773ad49b73c632c3cfd2f29eb8776f2ea60048201529091506000906001600160a01b038716906317ba7d859060240160206040518083038186803b1580156133ea57600080fd5b505afa1580156133fe573d6000803e3d6000fd5b505050506040513d601f19601f820116820180604052508101906134229190613cd5565b6040517f593e96b60000000000000000000000000000000000000000000000000000000081527f3909e87234f428ccb8748126e2c93f66a62f92a70d315fa5803dec6362be07ab60048201529091506000906001600160a01b0388169063593e96b69060240160206040518083038186803b1580156134a057600080fd5b505afa1580156134b4573d6000803e3d6000fd5b505050506040513d601f19601f820116820180604052508101906134d89190613cd5565b6040516370a0823160e01b815261decd60048201526001600160a01b0391909116906370a082319060240160206040518083038186803b15801561351b57600080fd5b505afa15801561352f573d6000803e3d6000fd5b505050506040513d601f19601f820116820180604052508101906135539190613e1d565b111580156135ee57506040517fa230c5240000000000000000000000000000000000000000000000000000000081526001600160a01b03868116600483015287169063a230c5249060240160206040518083038186803b1580156135b657600080fd5b505afa1580156135ca573d6000803e3d6000fd5b505050506040513d601f19601f820116820180604052508101906135ee9190613dd4565b156135ff57600193505050506101e2565b816001141561371c576000836136ac57604051633de222bb60e21b81526001600160a01b0388811660048301528781166024830152670de0b6b3a7640000919084169063f7888aec9060440160206040518083038186803b15801561366357600080fd5b505afa158015613677573d6000803e3d6000fd5b505050506040513d601f19601f8201168201806040525081019061369b9190613e1d565b6136a591906142f5565b90506136b9565b60009450505050506101e2565b600081116136ce5760009450505050506101e2565b677fffffffffffffff81106136ea5760329450505050506101e2565b60006137056137006136fb846139cb565b6139e9565b613aeb565b67ffffffffffffffff1695506101e2945050505050565b81600214156137d1576000836136ac57604051633de222bb60e21b81526001600160a01b03888116600483015287811660248301526000919084169063f7888aec9060440160206040518083038186803b15801561377957600080fd5b505afa15801561378d573d6000803e3d6000fd5b505050506040513d601f19601f820116820180604052508101906137b19190613e1d565b116137bd5760006137c0565b60015b60ff1690505b93506101e292505050565b8161387a576000836136ac57604051633de222bb60e21b81526001600160a01b0388811660048301528781166024830152670de0b6b3a7640000919084169063f7888aec9060440160206040518083038186803b15801561383157600080fd5b505afa158015613845573d6000803e3d6000fd5b505050506040513d601f19601f820116820180604052508101906138699190613e1d565b61387391906142f5565b90506137c6565b600093505050506101e2565b8160200151156139245781606001516001600160a01b0316635e5eb01384835a86516138b29190614309565b60408088015190516001600160e01b031960e087901b1681526001600160a01b03948516600482015293909216602484015260448301526064820152608401600060405180830381600087803b15801561390b57600080fd5b505af115801561391f573d6000803e3d6000fd5b505050505b826001600160a01b031663d4f7af436040518163ffffffff1660e01b8152600401600060405180830381600087803b15801561395f57600080fd5b505af1158015613973573d6000803e3d6000fd5b50505050505050565b60008181526001830160205260408120546139c3575081546001818101845560008481526020808220909301849055845484825282860190935260409020919091556101e2565b5060006101e2565b6000677fffffffffffffff8211156139e257600080fd5b5060401b90565b60008082600f0b136139fa57600080fd5b6000600f83900b680100000000000000008112613a19576040918201911d5b6401000000008112613a2d576020918201911d5b620100008112613a3f576010918201911d5b6101008112613a50576008918201911d5b60108112613a60576004918201911d5b60048112613a70576002918201911d5b60028112613a7f576001820191505b7fffffffffffffffffffffffffffffffffffffffffffffffffffffffffffffffc0820160401b600f85900b607f8490031b6780000000000000005b6000811315613ae05790800260ff81901c8281029390930192607f011c9060011d613aba565b509095945050505050565b60008082600f0b1215613afd57600080fd5b50600f0b60401d90565b6040805160e08101825260008082526020820181905290918201908152602001600081526020016000815260200160008152602001613b44613bc6565b905290565b828054828255906000526020600020908101928215613bb6579160200282015b82811115613bb657825182547fffffffffffffffffffffffff0000000000000000000000000000000000000000166001600160a01b03909116178255602090920191600190910190613b69565b50613bc2929150613c94565b5090565b604080516101208101909152600060e0820181815261010083019190915281908152602001613c266040518060a0016040528060006001600160a01b03168152602001600081526020016000815260200160008152602001600081525090565b8152602001613c726040518060c00160405280600015158152602001600060ff16815260200160006001600160a01b031681526020016000815260200160008152602001606081525090565b8152600060208201819052604082018190526060820181905260809091015290565b5b80821115613bc25760008155600101613c95565b8051613cb4816143fb565b919050565b600060208284031215613cca578081fd5b81356108db816143fb565b600060208284031215613ce6578081fd5b81516108db816143fb565b60006020808385031215613d03578182fd5b825167ffffffffffffffff80821115613d1a578384fd5b818501915085601f830112613d2d578384fd5b815181811115613d3f57613d3f6143e5565b8060051b604051601f19603f83011681018181108582111715613d6457613d646143e5565b604052828152858101935084860182860187018a1015613d82578788fd5b8795505b83861015613dab57613d9781613ca9565b855260019590950194938601938601613d86565b5098975050505050505050565b600060208284031215613dc9578081fd5b81356108db81614413565b600060208284031215613de5578081fd5b81516108db81614413565b60008060408385031215613e02578081fd5b8251613e0d81614413565b6020939093015192949293505050565b600060208284031215613e2e578081fd5b5051919050565b60008060408385031215613e47578182fd5b8235613e52816143fb565b91506020830135613e62816143fb565b809150509250929050565b60008060408385031215613e7f578182fd5b8235613e8a816143fb565b946020939093013593505050565b600080600060608486031215613eac578081fd5b8335613eb7816143fb565b9250602084013591506040840135613ece816143fb565b809150509250925092565b600060208284031215613eea578081fd5b8151600481106108db578182fd5b600080600060608486031215613f0c578283fd5b835160068110613f1a578384fd5b602085015160409095015190969495509392505050565b600060208284031215613f42578081fd5b813567ffffffffffffffff811115613f58578182fd5b820161014081850312156108db578182fd5b600060208284031215613f7b578081fd5b813560ff811681146108db578182fd5b6000815180845260208085019450808401835b83811015613fc35781516001600160a01b031687529582019590820190600101613f9e565b509495945050505050565b60048110613fec57634e487b7160e01b600052602160045260246000fd5b9052565b80511515825260ff60208201511660208301526001600160a01b0360408201511660408301526060810151606083015260808101516080830152600060a082015160c060a0850152612b0c60c0850182613f8b565b7fffffffffffffffff000000000000000000000000000000000000000000000000831681527f46756e6445737461626c6973686d656e742300000000000000000000000000006008820152600082516140a581601a850160208701614320565b91909101601a019392505050565b6001600160a01b03881681526020810187905260e081016140d76040830188613fce565b6fffffffffffffffffffffffffffffffff861660608301528460808301528360a08301528260c083015298975050505050505050565b6020815260006101df6020830184613f8b565b6001600160a01b03841681528260208201526060604082015260008251806060840152614154816080850160208701614320565b601f01601f191691909101608001949350505050565b60006101808951835260208a015160208401526001600160a01b0389511660408401526020890151606084015260408901516080840152606089015160a0840152608089015160c08401528060e08401526141c781840189613ff0565b9150506141da61010083018760ff169052565b6141e8610120830186613fce565b610140820193909352610160015295945050505050565b60008083357fffffffffffffffffffffffffffffffffffffffffffffffffffffffffffffffe1843603018112614233578283fd5b83018035915067ffffffffffffffff82111561424d578283fd5b6020019150600581901b360382131561426557600080fd5b9250929050565b600082357fffffffffffffffffffffffffffffffffffffffffffffffffffffffffffffff4183360301811261429f578182fd5b9190910192915050565b60006fffffffffffffffffffffffffffffffff8083168185168083038211156142d4576142d46143b9565b01949350505050565b600082198211156142f0576142f06143b9565b500190565b600082614304576143046143cf565b500490565b60008282101561431b5761431b6143b9565b500390565b60005b8381101561433b578181015183820152602001614323565b838111156110cd5750506000910152565b60007fffffffffffffffffffffffffffffffffffffffffffffffffffffffffffffffff82141561437e5761437e6143b9565b5060010190565b600060ff821660ff81141561439c5761439c6143b9565b60010192915050565b6000826143b4576143b46143cf565b500690565b634e487b7160e01b600052601160045260246000fd5b634e487b7160e01b600052601260045260246000fd5b634e487b7160e01b600052604160045260246000fd5b6001600160a01b038116811461441057600080fd5b50565b801515811461441057600080fdfea264697066735822122002009d3d5c3b63ca1965fc21f34c59e1f67d466308fcd21ef1c8b1fda2f7f4e664736f6c63430008040033",
  "linkReferences": {},
  "deployedLinkReferences": {}
}