{
  "_format": "hh-sol-artifact-1",
  "contractName": "FlexSetRiceReceiverProposalAdapterContract",
  "sourceName": "contracts/flex/adatpers/FlexSetRiceReceiverProposalAdapter.sol",
  "abi": [
    {
      "inputs": [],
      "name": "ADAPTER_NOT_FUND",
      "type": "error"
    },
    {
      "inputs": [],
      "name": "INVALID_GOVERNOR",
      "type": "error"
    },
    {
      "inputs": [],
      "name": "PROPOSAL_ALREADY_PROCESSED",
      "type": "error"
    },
    {
      "inputs": [],
      "name": "PROPOSAL_HAS_NOT_BEEN_VOTED_ON_YET",
      "type": "error"
    },
    {
      "anonymous": false,
      "inputs": [
        {
          "indexed": false,
          "internalType": "address",
          "name": "daoAddr",
          "type": "address"
        },
        {
          "indexed": false,
          "internalType": "bytes32",
          "name": "proposalId",
          "type": "bytes32"
        },
        {
          "indexed": false,
          "internalType": "uint256",
          "name": "stopVoteTime",
          "type": "uint256"
        }
      ],
      "name": "ProposalCreated",
      "type": "event"
    },
    {
      "anonymous": false,
      "inputs": [
        {
          "indexed": false,
          "internalType": "address",
          "name": "daoAddr",
          "type": "address"
        },
        {
          "indexed": false,
          "internalType": "bytes32",
          "name": "proposalId",
          "type": "bytes32"
        },
        {
          "indexed": false,
          "internalType": "enum FlexSetRiceReceiverProposalAdapterContract.ProposalState",
          "name": "state",
          "type": "uint8"
        },
        {
          "indexed": false,
          "internalType": "uint128",
          "name": "allVotingWeight",
          "type": "uint128"
        },
        {
          "indexed": false,
          "internalType": "uint256",
          "name": "nbYes",
          "type": "uint256"
        },
        {
          "indexed": false,
          "internalType": "uint256",
          "name": "nbNo",
          "type": "uint256"
        },
        {
          "indexed": false,
          "internalType": "uint256",
          "name": "voteResult",
          "type": "uint256"
        }
      ],
      "name": "ProposalProcessed",
      "type": "event"
    },
    {
      "inputs": [
        {
          "internalType": "contract DaoRegistry",
          "name": "dao",
          "type": "address"
        },
        {
          "internalType": "address",
          "name": "_addr",
          "type": "address"
        }
      ],
      "name": "isActiveMember",
      "outputs": [
        {
          "internalType": "bool",
          "name": "",
          "type": "bool"
        }
      ],
      "stateMutability": "view",
      "type": "function"
    },
    {
      "inputs": [
        {
          "internalType": "contract DaoRegistry",
          "name": "",
          "type": "address"
        }
      ],
      "name": "ongoingProposal",
      "outputs": [
        {
          "internalType": "bytes32",
          "name": "",
          "type": "bytes32"
        }
      ],
      "stateMutability": "view",
      "type": "function"
    },
    {
      "inputs": [
        {
          "internalType": "contract DaoRegistry",
          "name": "dao",
          "type": "address"
        },
        {
          "internalType": "bytes32",
          "name": "proposalId",
          "type": "bytes32"
        }
      ],
      "name": "processProposal",
      "outputs": [],
      "stateMutability": "nonpayable",
      "type": "function"
    },
    {
      "inputs": [
        {
          "internalType": "contract DaoRegistry",
          "name": "",
          "type": "address"
        },
        {
          "internalType": "bytes32",
          "name": "",
          "type": "bytes32"
        }
      ],
      "name": "proposals",
      "outputs": [
        {
          "internalType": "address",
          "name": "proposer",
          "type": "address"
        },
        {
          "internalType": "address",
          "name": "riceReceiver",
          "type": "address"
        },
        {
          "internalType": "uint256",
          "name": "creationTime",
          "type": "uint256"
        },
        {
          "internalType": "uint256",
          "name": "stopVoteTime",
          "type": "uint256"
        },
        {
          "internalType": "enum FlexSetRiceReceiverProposalAdapterContract.ProposalState",
          "name": "state",
          "type": "uint8"
        }
      ],
      "stateMutability": "view",
      "type": "function"
    },
    {
      "inputs": [
        {
          "internalType": "contract DaoRegistry",
          "name": "dao",
          "type": "address"
        },
        {
          "internalType": "address",
          "name": "riceReceiver",
          "type": "address"
        }
      ],
      "name": "submitProposal",
      "outputs": [],
      "stateMutability": "nonpayable",
      "type": "function"
    }
  ],
  "bytecode": "0x608060405234801561001057600080fd5b5061251d806100206000396000f3fe608060405234801561001057600080fd5b50600436106100675760003560e01c80638ecf7720116100505780638ecf7720146101085780639573167d1461012b578063e4780fc51461014057600080fd5b80635cb752761461006c57806362e86df5146100da575b600080fd5b6100c061007a366004612134565b6000602081815292815260408082209093529081522080546001820154600283015460038401546004909401546001600160a01b03938416949390921692909160ff1685565b6040516100d1959493929190612262565b60405180910390f35b6100fa6100e83660046120e0565b60016020526000908152604090205481565b6040519081526020016100d1565b61011b6101163660046120fc565b610153565b60405190151581526020016100d1565b61013e610139366004612134565b6101f2565b005b61013e61014e3660046120fc565b6106ef565b6040517fa230c5240000000000000000000000000000000000000000000000000000000081526001600160a01b0382811660048301526000919084169063a230c5249060240160206040518083038186803b1580156101b157600080fd5b505afa1580156101c5573d6000803e3d6000fd5b505050506040513d601f19601f820116820180604052508101906101e9919061209b565b90505b92915050565b6001600160a01b0382166000818152602081815260408083208584529091529081902090517ff941f69100000000000000000000000000000000000000000000000000000000815290919063f941f691906102549085906002906004016122f9565b60206040518083038186803b15801561026c57600080fd5b505afa158015610280573d6000803e3d6000fd5b505050506040513d601f19601f820116820180604052508101906102a4919061209b565b156102db576040517f35153ac400000000000000000000000000000000000000000000000000000000815260040160405180910390fd5b6040516317ba7d8560e01b81527f0d479c38716a0298633b1dbf1ce145a3fbd1d79ca4527de172afc3bad04a2ba760048201526000906001600160a01b038516906317ba7d859060240160206040518083038186803b15801561033d57600080fd5b505afa158015610351573d6000803e3d6000fd5b505050506040513d601f19601f820116820180604052508101906103759190611fb1565b90506001600160a01b0381166103b7576040517f5d78cd3c00000000000000000000000000000000000000000000000000000000815260040160405180910390fd5b6040517f76225e730000000000000000000000000000000000000000000000000000000081526001600160a01b0385811660048301526024820185905260009182918291908516906376225e7390604401606060405180830381600087803b15801561042257600080fd5b505af1158015610436573d6000803e3d6000fd5b505050506040513d601f19601f8201168201806040525081019061045a919061215f565b91945092509050600061046d8888610cdb565b6040517f30490e91000000000000000000000000000000000000000000000000000000008152600481018990529091506001600160a01b038916906330490e9190602401600060405180830381600087803b1580156104cb57600080fd5b505af11580156104df573d6000803e3d6000fd5b50600292506104ec915050565b84600581111561050c57634e487b7160e01b600052602160045260246000fd5b14156105df576004868101805460ff191660019081179091558701546040517f3b4f921a0000000000000000000000000000000000000000000000000000000081527fc77068975ba2254bd67080aa196783f213ee682a15d902d03f33782130cf737d928101929092526001600160a01b039081166024830152891690633b4f921a90604401600060405180830381600087803b1580156105ac57600080fd5b505af11580156105c0573d6000803e3d6000fd5b5050506004870180546002925060ff19166001835b0217905550610679565b600384600581111561060157634e487b7160e01b600052602160045260246000fd5b148061062c5750600184600581111561062a57634e487b7160e01b600052602160045260246000fd5b145b15610647576004860180546003919060ff19166001836105d5565b6040517fe2489e3300000000000000000000000000000000000000000000000000000000815260040160405180910390fd5b60048601547f7ab29e6deeb60f3b76461422909b7ae5bda1be890b270b70c56a32d54cd2a456908990899060ff168487878a60058111156106ca57634e487b7160e01b600052602160045260246000fd5b6040516106dd979695949392919061229f565b60405180910390a15050505050505050565b8160006106fb82610f9b565b9050836107088133611285565b846001600160a01b031663d1480ddc6040518163ffffffff1660e01b8152600401600060405180830381600087803b15801561074357600080fd5b505af1158015610757573d6000803e3d6000fd5b5050505060006108028660c01b6107dd886001600160a01b031663e34bf3f86040518163ffffffff1660e01b815260040160206040518083038186803b1580156107a057600080fd5b505afa1580156107b4573d6000803e3d6000fd5b505050506040513d601f19601f820116820180604052508101906107d891906121c8565b6112f9565b6040516020016107ee9291906121f4565b60405160208183030381529060405261144f565b604051634941d71d60e11b81527f9876c0f0505bfb2b1c38d3bbd25ba13159172cd0868972d76927723f5a9480fc60048201529091506000906001600160a01b03881690639283ae3a9060240160206040518083038186803b15801561086757600080fd5b505afa15801561087b573d6000803e3d6000fd5b505050506040513d601f19601f8201168201806040525081019061089f91906121c8565b6108a9904261239b565b90506040518060a00160405280336001600160a01b03168152602001876001600160a01b031681526020014281526020018281526020016000600381111561090157634e487b7160e01b600052602160045260246000fd5b90526001600160a01b03808916600090815260208181526040808320878452825291829020845181549085167fffffffffffffffffffffffff00000000000000000000000000000000000000009182161782559185015160018083018054929096169190931617909355908301516002830155606083015160038084019190915560808401516004840180549193909260ff199092169184908111156109b757634e487b7160e01b600052602160045260246000fd5b021790555050506001600160a01b038716600081815260016020526040808220859055516317ba7d8560e01b81527f0d479c38716a0298633b1dbf1ce145a3fbd1d79ca4527de172afc3bad04a2ba760048201529091906317ba7d859060240160206040518083038186803b158015610a2f57600080fd5b505afa158015610a43573d6000803e3d6000fd5b505050506040513d601f19601f82011682018060405250810190610a679190611fb1565b6040517fb73dc389000000000000000000000000000000000000000000000000000000008152600481018590529091506001600160a01b0389169063b73dc38990602401600060405180830381600087803b158015610ac557600080fd5b505af1158015610ad9573d6000803e3d6000fd5b50506040516317ba7d8560e01b81527f0d479c38716a0298633b1dbf1ce145a3fbd1d79ca4527de172afc3bad04a2ba760048201526001600160a01b038b16925063815a2bf49150859083906317ba7d859060240160206040518083038186803b158015610b4657600080fd5b505afa158015610b5a573d6000803e3d6000fd5b505050506040513d601f19601f82011682018060405250810190610b7e9190611fb1565b6040517fffffffff0000000000000000000000000000000000000000000000000000000060e085901b16815260048101929092526001600160a01b03166024820152604401600060405180830381600087803b158015610bdd57600080fd5b505af1158015610bf1573d6000803e3d6000fd5b5050604080516020810182526000815290517f2b0974d00000000000000000000000000000000000000000000000000000000081526001600160a01b0385169350632b0974d09250610c4a918c9188919060040161231d565b600060405180830381600087803b158015610c6457600080fd5b505af1158015610c78573d6000803e3d6000fd5b5050604080516001600160a01b038c168152602081018790529081018590527f0fef2f1eff490a8ecaed292189fdb442791838a79d374099131204263ec8f7d69250606001905060405180910390a150505050610cd5828261146b565b50505050565b600080610ce784611476565b6040516317ba7d8560e01b81527f0d479c38716a0298633b1dbf1ce145a3fbd1d79ca4527de172afc3bad04a2ba7600482015290915060009081906001600160a01b038716906317ba7d859060240160206040518083038186803b158015610d4e57600080fd5b505afa158015610d62573d6000803e3d6000fd5b505050506040513d601f19601f82011682018060405250810190610d869190611fb1565b905060005b83518160ff161015610f9057816001600160a01b03166324a2cceb8888878560ff1681518110610dcb57634e487b7160e01b600052603260045260246000fd5b60200260200101516040518463ffffffff1660e01b8152600401610e0f939291906001600160a01b0393841681526020810192909252909116604082015260600190565b60206040518083038186803b158015610e2757600080fd5b505afa158015610e3b573d6000803e3d6000fd5b505050506040513d601f19601f82011682018060405250810190610e5f919061209b565b15610f3d57816001600160a01b03166391d2fd538888878560ff1681518110610e9857634e487b7160e01b600052603260045260246000fd5b60200260200101516040518463ffffffff1660e01b8152600401610edc939291906001600160a01b0393841681526020810192909252909116604082015260600190565b60206040518083038186803b158015610ef457600080fd5b505afa158015610f08573d6000803e3d6000fd5b505050506040513d601f19601f82011682018060405250810190610f2c9190612198565b610f369084612367565b9250610f7e565b610f7187858360ff1681518110610f6457634e487b7160e01b600052603260045260246000fd5b60200260200101516114ed565b610f7b9084612367565b92505b80610f8881612443565b915050610d8b565b509095945050505050565b6040805160808101825260008082526020820181905291810182905260608101919091525a81600001818152505043826001600160a01b031663b21634826040518163ffffffff1660e01b815260040160206040518083038186803b15801561100357600080fd5b505afa158015611017573d6000803e3d6000fd5b505050506040513d601f19601f8201168201806040525081019061103b91906121c8565b14156110a8576040517f08c379a000000000000000000000000000000000000000000000000000000000815260206004820152601060248201527f7265656e7472616e63792067756172640000000000000000000000000000000060448201526064015b60405180910390fd5b816001600160a01b03166310fdb0a26040518163ffffffff1660e01b8152600401600060405180830381600087803b1580156110e357600080fd5b505af11580156110f7573d6000803e3d6000fd5b50506040517f72c6838f0000000000000000000000000000000000000000000000000000000081527f1f2fd42ad6a6cacd573c4b212beb7a4e2499ad45d742a65337097f130e71daff6004820152600092506001600160a01b03851691506372c6838f9060240160206040518083038186803b15801561117657600080fd5b505afa15801561118a573d6000803e3d6000fd5b505050506040513d601f19601f820116820180604052508101906111ae9190611fb1565b90506001600160a01b0381166111ca576000602083015261127f565b6001600160a01b038181166060840181905283516040517f43a8a3f1000000000000000000000000000000000000000000000000000000008152928616600484015260248301526000918291906343a8a3f190604401604080518083038186803b15801561123757600080fd5b505afa15801561124b573d6000803e3d6000fd5b505050506040513d601f19601f8201168201806040525081019061126f91906120b5565b9015156020860152604085015250505b50919050565b61128f8282610153565b6112f5576040517f08c379a000000000000000000000000000000000000000000000000000000000815260206004820152600c60248201527f6f6e6c79476f7665726e6f720000000000000000000000000000000000000000604482015260640161109f565b5050565b60608161133957505060408051808201909152600181527f3000000000000000000000000000000000000000000000000000000000000000602082015290565b8160005b8115611363578061134d8161240a565b915061135c9050600a836123b3565b915061133d565b60008167ffffffffffffffff81111561138c57634e487b7160e01b600052604160045260246000fd5b6040519080825280601f01601f1916602001820160405280156113b6576020820181803683370190505b5090505b8415611447576113cb6001836123c7565b91506113d8600a86612463565b6113e390603061239b565b60f81b81838151811061140657634e487b7160e01b600052603260045260246000fd5b60200101907effffffffffffffffffffffffffffffffffffffffffffffffffffffffffffff1916908160001a905350611440600a866123b3565b94506113ba565b949350505050565b600081516000141561146357506000919050565b506020015190565b6112f5828233611d52565b6060816001600160a01b031663a6f636416040518163ffffffff1660e01b815260040160006040518083038186803b1580156114b157600080fd5b505afa1580156114c5573d6000803e3d6000fd5b505050506040513d6000823e601f3d908101601f191682016040526101ec9190810190611fd4565b604051634941d71d60e11b81527f75b7d343967750d1f6c15979b7559cea8be22ff1a06a51681b9cbef0d2fff4fe600482015260009081906001600160a01b03851690639283ae3a9060240160206040518083038186803b15801561155157600080fd5b505afa158015611565573d6000803e3d6000fd5b505050506040513d601f19601f8201168201806040525081019061158991906121c8565b604051634941d71d60e11b81527f18ef0b57fe939edb640a200fdf533493bd8f26a274151543a109b64c857e20f360048201529091506000906001600160a01b03861690639283ae3a9060240160206040518083038186803b1580156115ee57600080fd5b505afa158015611602573d6000803e3d6000fd5b505050506040513d601f19601f8201168201806040525081019061162691906121c8565b6040516317ba7d8560e01b81527f37cbe06c1044f98864ea25736326bc1d488e24e5e23781ea2ad64c4069cb9e6e60048201529091506000906001600160a01b038716906317ba7d859060240160206040518083038186803b15801561168b57600080fd5b505afa15801561169f573d6000803e3d6000fd5b505050506040513d601f19601f820116820180604052508101906116c39190611fb1565b604051634941d71d60e11b81527f77b1580d1632c74a32483c26a7156260a89ae4138b020ea7d09b0dcf24f1ea2460048201529091506000906001600160a01b03881690639283ae3a9060240160206040518083038186803b15801561172857600080fd5b505afa15801561173c573d6000803e3d6000fd5b505050506040513d601f19601f8201168201806040525081019061176091906121c8565b6040517ffd310d290000000000000000000000000000000000000000000000000000000081527fb5a1ad3f04728d7c38547e3d43006a1ec090a02fce04bbb1d0ee4519a1921e5760048201529091506000906001600160a01b0389169063fd310d299060240160206040518083038186803b1580156117de57600080fd5b505afa1580156117f2573d6000803e3d6000fd5b505050506040513d601f19601f820116820180604052508101906118169190611fb1565b90508360011415611a33576000856118bd576040516370a0823160e01b81526001600160a01b038981166004830152670de0b6b3a764000091908416906370a082319060240160206040518083038186803b15801561187457600080fd5b505afa158015611888573d6000803e3d6000fd5b505050506040513d601f19601f820116820180604052508101906118ac91906121c8565b6118b691906123b3565b90506119ca565b8560011415611940576040516370a0823160e01b81526001600160a01b0389811660048301528316906370a08231906024015b60206040518083038186803b15801561190857600080fd5b505afa15801561191c573d6000803e3d6000fd5b505050506040513d601f19601f820116820180604052508101906118b691906121c8565b856002141561197c57604051627eeac760e11b81526001600160a01b0389811660048301526024820185905283169062fdd58e906044016118f0565b85600314156119bb576040516329b6517360e21b81526001600160a01b038a81166004830152898116602483015285169063a6d945cc906044016118f0565b600096505050505050506101ec565b600081116119e157600096505050505050506101ec565b677fffffffffffffff81106119ff57603296505050505050506101ec565b6000611a1a611a15611a1084611e60565b611e7e565b611f75565b67ffffffffffffffff1697506101ec9650505050505050565b8360021415611ba557600085611ada576040516370a0823160e01b81526001600160a01b038981166004830152600091908416906370a08231906024015b60206040518083038186803b158015611a8957600080fd5b505afa158015611a9d573d6000803e3d6000fd5b505050506040513d601f19601f82011682018060405250810190611ac191906121c8565b11611acd576000611ad0565b60015b60ff169050611b98565b8560011415611b15576040516370a0823160e01b81526001600160a01b038981166004830152600091908416906370a0823190602401611a71565b8560021415611b5557604051627eeac760e11b81526001600160a01b038981166004830152602482018590526000919084169062fdd58e90604401611a71565b85600314156119bb576040516329b6517360e21b81526001600160a01b038a8116600483015289811660248301526000919086169063a6d945cc90604401611a71565b95506101ec945050505050565b83611d4457600085611c46576040516370a0823160e01b81526001600160a01b038981166004830152670de0b6b3a764000091908416906370a082319060240160206040518083038186803b158015611bfd57600080fd5b505afa158015611c11573d6000803e3d6000fd5b505050506040513d601f19601f82011682018060405250810190611c3591906121c8565b611c3f91906123b3565b9050611b98565b8560011415611cc9576040516370a0823160e01b81526001600160a01b0389811660048301528316906370a08231906024015b60206040518083038186803b158015611c9157600080fd5b505afa158015611ca5573d6000803e3d6000fd5b505050506040513d601f19601f82011682018060405250810190611c3f91906121c8565b8560021415611d0557604051627eeac760e11b81526001600160a01b0389811660048301526024820185905283169062fdd58e90604401611c79565b85600314156119bb576040516329b6517360e21b81526001600160a01b038a81166004830152898116602483015285169063a6d945cc90604401611c79565b6000955050505050506101ec565b816020015115611e085781606001516001600160a01b0316635e5eb01384835a8651611d7e91906123c7565b60408088015190517fffffffff0000000000000000000000000000000000000000000000000000000060e087901b1681526001600160a01b03948516600482015293909216602484015260448301526064820152608401600060405180830381600087803b158015611def57600080fd5b505af1158015611e03573d6000803e3d6000fd5b505050505b826001600160a01b031663d4f7af436040518163ffffffff1660e01b8152600401600060405180830381600087803b158015611e4357600080fd5b505af1158015611e57573d6000803e3d6000fd5b50505050505050565b6000677fffffffffffffff821115611e7757600080fd5b5060401b90565b60008082600f0b13611e8f57600080fd5b6000600f83900b680100000000000000008112611eae576040918201911d5b6401000000008112611ec2576020918201911d5b620100008112611ed4576010918201911d5b6101008112611ee5576008918201911d5b60108112611ef5576004918201911d5b60048112611f05576002918201911d5b60028112611f14576001820191505b7fffffffffffffffffffffffffffffffffffffffffffffffffffffffffffffffc0820160401b600f85900b607f8490031b6780000000000000005b6000811315610f905790800260ff81901c8281029390930192607f011c9060011d611f4f565b60008082600f0b1215611f8757600080fd5b50600f0b60401d90565b8051611f9c816124cf565b919050565b80518015158114611f9c57600080fd5b600060208284031215611fc2578081fd5b8151611fcd816124cf565b9392505050565b60006020808385031215611fe6578182fd5b825167ffffffffffffffff80821115611ffd578384fd5b818501915085601f830112612010578384fd5b815181811115612022576120226124b9565b8060051b604051601f19603f83011681018181108582111715612047576120476124b9565b604052828152858101935084860182860187018a1015612065578788fd5b8795505b8386101561208e5761207a81611f91565b855260019590950194938601938601612069565b5098975050505050505050565b6000602082840312156120ac578081fd5b6101e982611fa1565b600080604083850312156120c7578081fd5b6120d083611fa1565b9150602083015190509250929050565b6000602082840312156120f1578081fd5b8135611fcd816124cf565b6000806040838503121561210e578182fd5b8235612119816124cf565b91506020830135612129816124cf565b809150509250929050565b60008060408385031215612146578182fd5b8235612151816124cf565b946020939093013593505050565b600080600060608486031215612173578081fd5b835160068110612181578182fd5b602085015160409095015190969495509392505050565b6000602082840312156121a9578081fd5b81516fffffffffffffffffffffffffffffffff81168114611fcd578182fd5b6000602082840312156121d9578081fd5b5051919050565b600481106121f0576121f06124a3565b9052565b7fffffffffffffffff000000000000000000000000000000000000000000000000831681527f53657452696365526563656976657223000000000000000000000000000000006008820152600082516122548160188501602087016123de565b919091016018019392505050565b6001600160a01b03868116825285166020820152604081018490526060810183905260a0810161229560808301846121e0565b9695505050505050565b6001600160a01b03881681526020810187905260e081016122c360408301886121e0565b6fffffffffffffffffffffffffffffffff861660608301528460808301528360a08301528260c083015298975050505050505050565b8281526040810160038310612310576123106124a3565b8260208301529392505050565b6001600160a01b038416815282602082015260606040820152600082518060608401526123518160808501602087016123de565b601f01601f191691909101608001949350505050565b60006fffffffffffffffffffffffffffffffff80831681851680830382111561239257612392612477565b01949350505050565b600082198211156123ae576123ae612477565b500190565b6000826123c2576123c261248d565b500490565b6000828210156123d9576123d9612477565b500390565b60005b838110156123f95781810151838201526020016123e1565b83811115610cd55750506000910152565b60007fffffffffffffffffffffffffffffffffffffffffffffffffffffffffffffffff82141561243c5761243c612477565b5060010190565b600060ff821660ff81141561245a5761245a612477565b60010192915050565b6000826124725761247261248d565b500690565b634e487b7160e01b600052601160045260246000fd5b634e487b7160e01b600052601260045260246000fd5b634e487b7160e01b600052602160045260246000fd5b634e487b7160e01b600052604160045260246000fd5b6001600160a01b03811681146124e457600080fd5b5056fea2646970667358221220a7706189c42fa1424114382446d64ea21c95a68735f8f249774321a7d4a0cff064736f6c63430008040033",
  "linkReferences": {},
  "deployedLinkReferences": {}
}