{
  "_format": "hh-sol-artifact-1",
  "contractName": "CollectiveInvestmentPoolExtension",
  "sourceName": "contracts/collective/extensions/CollectiveFundingPool.sol",
  "abi": [
    {
      "inputs": [],
      "stateMutability": "nonpayable",
      "type": "constructor"
    },
    {
      "anonymous": false,
      "inputs": [
        {
          "indexed": false,
          "internalType": "address",
          "name": "distributeTo",
          "type": "address"
        },
        {
          "indexed": false,
          "internalType": "address",
          "name": "tokenAddr",
          "type": "address"
        },
        {
          "indexed": false,
          "internalType": "uint256",
          "name": "amount",
          "type": "uint256"
        }
      ],
      "name": "DistributeFund",
      "type": "event"
    },
    {
      "anonymous": false,
      "inputs": [
        {
          "indexed": false,
          "internalType": "uint256",
          "name": "chargedTime",
          "type": "uint256"
        },
        {
          "indexed": false,
          "internalType": "address",
          "name": "lpAddress",
          "type": "address"
        },
        {
          "indexed": false,
          "internalType": "uint256",
          "name": "amount",
          "type": "uint256"
        }
      ],
      "name": "ManagementFeeCharged",
      "type": "event"
    },
    {
      "anonymous": false,
      "inputs": [
        {
          "indexed": false,
          "internalType": "address",
          "name": "member",
          "type": "address"
        },
        {
          "indexed": false,
          "internalType": "address",
          "name": "tokenAddr",
          "type": "address"
        },
        {
          "indexed": false,
          "internalType": "uint128",
          "name": "amount",
          "type": "uint128"
        }
      ],
      "name": "NewBalance",
      "type": "event"
    },
    {
      "anonymous": false,
      "inputs": [
        {
          "indexed": false,
          "internalType": "address",
          "name": "token",
          "type": "address"
        },
        {
          "indexed": false,
          "internalType": "uint256",
          "name": "amount",
          "type": "uint256"
        }
      ],
      "name": "Recovered",
      "type": "event"
    },
    {
      "anonymous": false,
      "inputs": [
        {
          "indexed": false,
          "internalType": "uint256",
          "name": "chargedTime",
          "type": "uint256"
        },
        {
          "indexed": false,
          "internalType": "address",
          "name": "lpAddress",
          "type": "address"
        },
        {
          "indexed": false,
          "internalType": "uint256",
          "name": "amount",
          "type": "uint256"
        }
      ],
      "name": "RedeptionFeeCharged",
      "type": "event"
    },
    {
      "anonymous": false,
      "inputs": [
        {
          "indexed": false,
          "internalType": "uint256",
          "name": "reward",
          "type": "uint256"
        }
      ],
      "name": "RewardAdded",
      "type": "event"
    },
    {
      "anonymous": false,
      "inputs": [
        {
          "indexed": true,
          "internalType": "address",
          "name": "user",
          "type": "address"
        },
        {
          "indexed": false,
          "internalType": "uint256",
          "name": "reward",
          "type": "uint256"
        }
      ],
      "name": "RewardPaid",
      "type": "event"
    },
    {
      "anonymous": false,
      "inputs": [
        {
          "indexed": false,
          "internalType": "uint256",
          "name": "newDuration",
          "type": "uint256"
        }
      ],
      "name": "RewardsDurationUpdated",
      "type": "event"
    },
    {
      "anonymous": false,
      "inputs": [
        {
          "indexed": true,
          "internalType": "address",
          "name": "user",
          "type": "address"
        },
        {
          "indexed": false,
          "internalType": "uint256",
          "name": "amount",
          "type": "uint256"
        }
      ],
      "name": "Staked",
      "type": "event"
    },
    {
      "anonymous": false,
      "inputs": [
        {
          "indexed": false,
          "internalType": "address",
          "name": "account",
          "type": "address"
        },
        {
          "indexed": false,
          "internalType": "address",
          "name": "tokenAddr",
          "type": "address"
        },
        {
          "indexed": false,
          "internalType": "uint160",
          "name": "amount",
          "type": "uint160"
        }
      ],
      "name": "Withdraw",
      "type": "event"
    },
    {
      "anonymous": false,
      "inputs": [
        {
          "indexed": false,
          "internalType": "address",
          "name": "accountFrom",
          "type": "address"
        },
        {
          "indexed": false,
          "internalType": "address",
          "name": "accountTo",
          "type": "address"
        },
        {
          "indexed": false,
          "internalType": "address",
          "name": "tokenAddr",
          "type": "address"
        },
        {
          "indexed": false,
          "internalType": "uint160",
          "name": "amount",
          "type": "uint160"
        }
      ],
      "name": "WithdrawTo",
      "type": "event"
    },
    {
      "anonymous": false,
      "inputs": [
        {
          "indexed": false,
          "internalType": "address",
          "name": "accountTo",
          "type": "address"
        },
        {
          "indexed": false,
          "internalType": "address",
          "name": "tokenAddr",
          "type": "address"
        },
        {
          "indexed": false,
          "internalType": "uint160",
          "name": "amount",
          "type": "uint160"
        }
      ],
      "name": "WithdrawToFromAll",
      "type": "event"
    },
    {
      "anonymous": false,
      "inputs": [
        {
          "indexed": true,
          "internalType": "address",
          "name": "user",
          "type": "address"
        },
        {
          "indexed": false,
          "internalType": "uint256",
          "name": "amount",
          "type": "uint256"
        }
      ],
      "name": "Withdrawn",
      "type": "event"
    },
    {
      "inputs": [
        {
          "internalType": "address",
          "name": "depositer",
          "type": "address"
        },
        {
          "internalType": "uint256",
          "name": "amount",
          "type": "uint256"
        }
      ],
      "name": "addToBalance",
      "outputs": [],
      "stateMutability": "nonpayable",
      "type": "function"
    },
    {
      "inputs": [
        {
          "internalType": "address",
          "name": "depositer",
          "type": "address"
        },
        {
          "internalType": "address",
          "name": "fundTokenAddr",
          "type": "address"
        },
        {
          "internalType": "uint256",
          "name": "amount",
          "type": "uint256"
        }
      ],
      "name": "addToBalance",
      "outputs": [],
      "stateMutability": "nonpayable",
      "type": "function"
    },
    {
      "inputs": [
        {
          "internalType": "address",
          "name": "",
          "type": "address"
        }
      ],
      "name": "availableTokens",
      "outputs": [
        {
          "internalType": "bool",
          "name": "",
          "type": "bool"
        }
      ],
      "stateMutability": "view",
      "type": "function"
    },
    {
      "inputs": [
        {
          "internalType": "address",
          "name": "investorAddr",
          "type": "address"
        }
      ],
      "name": "balanceOf",
      "outputs": [
        {
          "internalType": "uint256",
          "name": "",
          "type": "uint256"
        }
      ],
      "stateMutability": "view",
      "type": "function"
    },
    {
      "inputs": [
        {
          "internalType": "address",
          "name": "investorAddr",
          "type": "address"
        },
        {
          "internalType": "address",
          "name": "token",
          "type": "address"
        }
      ],
      "name": "balanceOfToken",
      "outputs": [
        {
          "internalType": "uint256",
          "name": "",
          "type": "uint256"
        }
      ],
      "stateMutability": "view",
      "type": "function"
    },
    {
      "inputs": [
        {
          "internalType": "address",
          "name": "",
          "type": "address"
        },
        {
          "internalType": "address",
          "name": "",
          "type": "address"
        },
        {
          "internalType": "uint32",
          "name": "",
          "type": "uint32"
        }
      ],
      "name": "checkpoints",
      "outputs": [
        {
          "internalType": "uint96",
          "name": "fromBlock",
          "type": "uint96"
        },
        {
          "internalType": "uint128",
          "name": "amount",
          "type": "uint128"
        }
      ],
      "stateMutability": "view",
      "type": "function"
    },
    {
      "inputs": [],
      "name": "dao",
      "outputs": [
        {
          "internalType": "contract DaoRegistry",
          "name": "",
          "type": "address"
        }
      ],
      "stateMutability": "view",
      "type": "function"
    },
    {
      "inputs": [
        {
          "internalType": "address",
          "name": "recipientAddr",
          "type": "address"
        },
        {
          "internalType": "address",
          "name": "tokenAddr",
          "type": "address"
        },
        {
          "internalType": "uint256",
          "name": "amount",
          "type": "uint256"
        }
      ],
      "name": "distributeFunds",
      "outputs": [],
      "stateMutability": "nonpayable",
      "type": "function"
    },
    {
      "inputs": [
        {
          "internalType": "address",
          "name": "",
          "type": "address"
        },
        {
          "internalType": "address",
          "name": "",
          "type": "address"
        },
        {
          "internalType": "uint32",
          "name": "",
          "type": "uint32"
        }
      ],
      "name": "feeCheckpoints",
      "outputs": [
        {
          "internalType": "uint96",
          "name": "fromBlock",
          "type": "uint96"
        },
        {
          "internalType": "uint128",
          "name": "amount",
          "type": "uint128"
        }
      ],
      "stateMutability": "view",
      "type": "function"
    },
    {
      "inputs": [
        {
          "internalType": "address",
          "name": "",
          "type": "address"
        }
      ],
      "name": "fundRaises",
      "outputs": [
        {
          "internalType": "enum DaoHelper.FundRaiseState",
          "name": "state",
          "type": "uint8"
        }
      ],
      "stateMutability": "view",
      "type": "function"
    },
    {
      "inputs": [],
      "name": "getFundRaisingTokenAddress",
      "outputs": [
        {
          "internalType": "address",
          "name": "",
          "type": "address"
        }
      ],
      "stateMutability": "view",
      "type": "function"
    },
    {
      "inputs": [
        {
          "internalType": "address",
          "name": "account",
          "type": "address"
        },
        {
          "internalType": "address",
          "name": "tokenAddr",
          "type": "address"
        },
        {
          "internalType": "uint256",
          "name": "blockNumber",
          "type": "uint256"
        }
      ],
      "name": "getPriorAmount",
      "outputs": [
        {
          "internalType": "uint128",
          "name": "",
          "type": "uint128"
        }
      ],
      "stateMutability": "view",
      "type": "function"
    },
    {
      "inputs": [
        {
          "internalType": "contract DaoRegistry",
          "name": "_dao",
          "type": "address"
        },
        {
          "internalType": "address",
          "name": "creator",
          "type": "address"
        }
      ],
      "name": "initialize",
      "outputs": [],
      "stateMutability": "nonpayable",
      "type": "function"
    },
    {
      "inputs": [],
      "name": "initialized",
      "outputs": [
        {
          "internalType": "bool",
          "name": "",
          "type": "bool"
        }
      ],
      "stateMutability": "view",
      "type": "function"
    },
    {
      "inputs": [
        {
          "internalType": "contract DaoRegistry",
          "name": "dao",
          "type": "address"
        },
        {
          "internalType": "address",
          "name": "_addr",
          "type": "address"
        }
      ],
      "name": "isActiveMember",
      "outputs": [
        {
          "internalType": "bool",
          "name": "",
          "type": "bool"
        }
      ],
      "stateMutability": "view",
      "type": "function"
    },
    {
      "inputs": [
        {
          "internalType": "address",
          "name": "investorAddr",
          "type": "address"
        }
      ],
      "name": "isInvestor",
      "outputs": [
        {
          "internalType": "bool",
          "name": "",
          "type": "bool"
        }
      ],
      "stateMutability": "view",
      "type": "function"
    },
    {
      "inputs": [
        {
          "internalType": "address",
          "name": "",
          "type": "address"
        }
      ],
      "name": "lastLPChargedManagentFeeTime",
      "outputs": [
        {
          "internalType": "uint256",
          "name": "",
          "type": "uint256"
        }
      ],
      "stateMutability": "view",
      "type": "function"
    },
    {
      "inputs": [
        {
          "internalType": "address",
          "name": "",
          "type": "address"
        }
      ],
      "name": "lpChargedManagementFees",
      "outputs": [
        {
          "internalType": "uint256",
          "name": "",
          "type": "uint256"
        }
      ],
      "stateMutability": "view",
      "type": "function"
    },
    {
      "inputs": [
        {
          "internalType": "address",
          "name": "",
          "type": "address"
        },
        {
          "internalType": "address",
          "name": "",
          "type": "address"
        }
      ],
      "name": "numCheckpoints",
      "outputs": [
        {
          "internalType": "uint32",
          "name": "",
          "type": "uint32"
        }
      ],
      "stateMutability": "view",
      "type": "function"
    },
    {
      "inputs": [
        {
          "internalType": "address",
          "name": "",
          "type": "address"
        }
      ],
      "name": "rewards",
      "outputs": [
        {
          "internalType": "uint256",
          "name": "",
          "type": "uint256"
        }
      ],
      "stateMutability": "view",
      "type": "function"
    },
    {
      "inputs": [
        {
          "internalType": "address",
          "name": "token",
          "type": "address"
        },
        {
          "internalType": "uint256",
          "name": "amount",
          "type": "uint256"
        }
      ],
      "name": "subtractAllFromBalance",
      "outputs": [],
      "stateMutability": "nonpayable",
      "type": "function"
    },
    {
      "inputs": [
        {
          "internalType": "address",
          "name": "member",
          "type": "address"
        },
        {
          "internalType": "address",
          "name": "token",
          "type": "address"
        },
        {
          "internalType": "uint256",
          "name": "amount",
          "type": "uint256"
        }
      ],
      "name": "subtractFromBalance",
      "outputs": [],
      "stateMutability": "nonpayable",
      "type": "function"
    },
    {
      "inputs": [
        {
          "internalType": "bytes4",
          "name": "interfaceId",
          "type": "bytes4"
        }
      ],
      "name": "supportsInterface",
      "outputs": [
        {
          "internalType": "bool",
          "name": "",
          "type": "bool"
        }
      ],
      "stateMutability": "view",
      "type": "function"
    },
    {
      "inputs": [],
      "name": "totalSupply",
      "outputs": [
        {
          "internalType": "uint256",
          "name": "",
          "type": "uint256"
        }
      ],
      "stateMutability": "view",
      "type": "function"
    },
    {
      "inputs": [
        {
          "internalType": "address",
          "name": "",
          "type": "address"
        }
      ],
      "name": "userRewardPerTokenPaid",
      "outputs": [
        {
          "internalType": "uint256",
          "name": "",
          "type": "uint256"
        }
      ],
      "stateMutability": "view",
      "type": "function"
    },
    {
      "inputs": [
        {
          "internalType": "address",
          "name": "account",
          "type": "address"
        },
        {
          "internalType": "address",
          "name": "tokenAddr",
          "type": "address"
        },
        {
          "internalType": "uint256",
          "name": "amount",
          "type": "uint256"
        }
      ],
      "name": "withdraw",
      "outputs": [],
      "stateMutability": "nonpayable",
      "type": "function"
    },
    {
      "inputs": [
        {
          "internalType": "address",
          "name": "toAddress",
          "type": "address"
        },
        {
          "internalType": "address",
          "name": "tokenAddr",
          "type": "address"
        },
        {
          "internalType": "uint256",
          "name": "amount",
          "type": "uint256"
        }
      ],
      "name": "withdrawFromAll",
      "outputs": [],
      "stateMutability": "nonpayable",
      "type": "function"
    },
    {
      "inputs": [
        {
          "internalType": "address",
          "name": "memberFrom",
          "type": "address"
        },
        {
          "internalType": "address payable",
          "name": "memberTo",
          "type": "address"
        },
        {
          "internalType": "address",
          "name": "tokenAddr",
          "type": "address"
        },
        {
          "internalType": "uint256",
          "name": "amount",
          "type": "uint256"
        }
      ],
      "name": "withdrawTo",
      "outputs": [],
      "stateMutability": "nonpayable",
      "type": "function"
    }
  ],
  "bytecode": "0x60806040526000805460ff1916905534801561001a57600080fd5b506130498061002a6000396000f3fe608060405234801561001057600080fd5b50600436106101c45760003560e01c80638b876347116100f9578063ce46cc9411610097578063e176b35e11610071578063e176b35e1461050e578063e3a05cc114610521578063f59e38b714610534578063faaf38b31461054757600080fd5b8063ce46cc941461048e578063cee2a9cf146104e8578063d9caed12146104fb57600080fd5b8063a87af66c116100d3578063a87af66c1461044d578063b08079a614610455578063c3c7645c14610468578063c57d5fe91461047b57600080fd5b80638b876347146103f75780638ecf77201461041757806394cb09471461042a57600080fd5b8063485cc9551161016657806370a082311161014057806370a082311461034e57806373b884631461036157806385e616131461039157806387c672ee146103b157600080fd5b8063485cc9551461028c578063576e626e1461029f5780637082e63d146102bf57600080fd5b80631267aef2116101a25780631267aef214610234578063158ef93e1461024757806318160ddd146102545780634162169f1461025c57600080fd5b806301ffc9a7146101c957806306c0b3cc146101f15780630700037d14610206575b600080fd5b6101dc6101d7366004612d8c565b61057b565b60405190151581526020015b60405180910390f35b6102046101ff366004612c5f565b61069b565b005b610226610214366004612bef565b60066020526000908152604090205481565b6040519081526020016101e8565b610204610242366004612caf565b610914565b6000546101dc9060ff1681565b610226610b4f565b6000546102749061010090046001600160a01b031681565b6040516001600160a01b0390911681526020016101e8565b61020461029a366004612db4565b610b61565b6102266102ad366004612bef565b60096020526000908152604090205481565b6103196102cd366004612cef565b60026020908152600093845260408085208252928452828420905282529020546bffffffffffffffffffffffff811690600160601b90046fffffffffffffffffffffffffffffffff1682565b604080516bffffffffffffffffffffffff90931683526fffffffffffffffffffffffffffffffff9091166020830152016101e8565b61022661035c366004612bef565b610d07565b61038461036f366004612bef565b60076020526000908152604090205460ff1681565b6040516101e89190612e19565b61022661039f366004612bef565b60086020526000908152604090205481565b6103e26103bf366004612c27565b600360209081526000928352604080842090915290825290205463ffffffff1681565b60405163ffffffff90911681526020016101e8565b610226610405366004612bef565b60056020526000908152604090205481565b6101dc610425366004612db4565b610dcb565b6101dc610438366004612bef565b60016020526000908152604090205460ff1681565b610274610e4f565b610204610463366004612d41565b610f08565b610204610476366004612d41565b611204565b610204610489366004612caf565b6113ff565b61031961049c366004612cef565b60046020908152600093845260408085208252928452828420905282529020546bffffffffffffffffffffffff811690600160601b90046fffffffffffffffffffffffffffffffff1682565b6101dc6104f6366004612bef565b611691565b610204610509366004612caf565b61169e565b61020461051c366004612caf565b6118cd565b61020461052f366004612caf565b611bea565b610226610542366004612c27565b611e19565b61055a610555366004612caf565b611e86565b6040516fffffffffffffffffffffffffffffffff90911681526020016101e8565b60007f01ffc9a7000000000000000000000000000000000000000000000000000000006001600160e01b0319831614806105de57507fe3a05cc1000000000000000000000000000000000000000000000000000000006001600160e01b03198316145b8061061257507ffaaf38b3000000000000000000000000000000000000000000000000000000006001600160e01b03198316145b8061062d57506370a0823160e01b6001600160e01b03198316145b8061066157507fd9caed12000000000000000000000000000000000000000000000000000000006001600160e01b03198316145b8061069557507f06c0b3cc000000000000000000000000000000000000000000000000000000006001600160e01b03198316145b92915050565b6002303314806106ba575060005461010090046001600160a01b031633145b806106da57506000546106da9061010090046001600160a01b03166121af565b806107a0575060005461010090046001600160a01b0316636cfdc32e333084600e81111561071857634e487b7160e01b600052602160045260246000fd5b6040516001600160e01b031960e086901b1681526001600160a01b03938416600482015292909116602483015260ff16604482015260640160206040518083038186803b15801561076857600080fd5b505afa15801561077c573d6000803e3d6000fd5b505050506040513d601f19601f820116820180604052508101906107a09190612d6c565b6107f15760405162461bcd60e51b815260206004820181905260248201527f666c65782066756e64696e6720706f6f6c3a3a61636365737344656e6965643a60448201526064015b60405180910390fd5b816107fb86610d07565b101561086f5760405162461bcd60e51b815260206004820152602d60248201527f666c65782066756e64696e6720706f6f6c3a3a77697468647261773a3a6e6f7460448201527f20656e6f7567682066756e64730000000000000000000000000000000000000060648201526084016107e8565b61087a858484611bea565b6001600160a01b0383166108a05761089b6001600160a01b038516836123cf565b6108b4565b6108b46001600160a01b03841685846124ed565b604080516001600160a01b03808816825280871660208301528086169282019290925290831660608201527f9c5c430cfa10ced1876365001f2481344decb32bf815e01e3e5706ebe533f975906080015b60405180910390a15050505050565b600230331480610933575060005461010090046001600160a01b031633145b8061095357506000546109539061010090046001600160a01b03166121af565b80610a19575060005461010090046001600160a01b0316636cfdc32e333084600e81111561099157634e487b7160e01b600052602160045260246000fd5b6040516001600160e01b031960e086901b1681526001600160a01b03938416600482015292909116602483015260ff16604482015260640160206040518083038186803b1580156109e157600080fd5b505afa1580156109f5573d6000803e3d6000fd5b505050506040513d601f19601f82011682018060405250810190610a199190612d6c565b610a655760405162461bcd60e51b815260206004820181905260248201527f666c65782066756e64696e6720706f6f6c3a3a61636365737344656e6965643a60448201526064016107e8565b81610a7161babe610d07565b1015610ae55760405162461bcd60e51b815260206004820152602d60248201527f666c65782066756e64696e6720706f6f6c3a3a77697468647261773a3a6e6f7460448201527f20656e6f7567682066756e64730000000000000000000000000000000000000060648201526084016107e8565b610af96001600160a01b03841685846124ed565b604080516001600160a01b03808716825280861660208301528416918101919091527fede32f53632f476b275a5d994aa0c640845bf9088e592e43cefc14d81c76bb40906060015b60405180910390a150505050565b6000610b5c61decd610d07565b905090565b60005460ff1615610bda5760405162461bcd60e51b815260206004820152602560248201527f666c65782066756e64696e6720706f6f6c20616c726561647920696e6974696160448201527f6c697a656400000000000000000000000000000000000000000000000000000060648201526084016107e8565b60405163288c314960e21b81526001600160a01b03828116600483015283169063a230c5249060240160206040518083038186803b158015610c1b57600080fd5b505afa158015610c2f573d6000803e3d6000fd5b505050506040513d601f19601f82011682018060405250810190610c539190612d6c565b610c9f5760405162461bcd60e51b815260206004820152601d60248201527f666c65782066756e64696e6720706f6f6c3a3a6e6f74206d656d62657200000060448201526064016107e8565b50600080547fffffffffffffffffffffffffffffffffffffffffffffffffffffffffffffff006001600160a01b0390931661010002929092167fffffffffffffffffffffff000000000000000000000000000000000000000000909216919091176001179055565b600080610d12610e4f565b6001600160a01b0380821660009081526003602090815260408083209388168352929052205490915063ffffffff1680610d4d576000610db1565b6001600160a01b038083166000908152600260209081526040808320938816835292905290812090610d80600184612f5d565b63ffffffff168152602081019190915260400160002054600160601b90046fffffffffffffffffffffffffffffffff165b6fffffffffffffffffffffffffffffffff16949350505050565b60405163288c314960e21b81526001600160a01b0382811660048301526000919084169063a230c5249060240160206040518083038186803b158015610e1057600080fd5b505afa158015610e24573d6000803e3d6000fd5b505050506040513d601f19601f82011682018060405250810190610e489190612d6c565b9392505050565b600080546040517ffd310d290000000000000000000000000000000000000000000000000000000081527f7fa36390a0e9b8b8004035572fd8345b1128cea12d1763a1baf8fbd4fb7b202760048201526101009091046001600160a01b03169063fd310d299060240160206040518083038186803b158015610ed057600080fd5b505afa158015610ee4573d6000803e3d6000fd5b505050506040513d601f19601f82011682018060405250810190610b5c9190612c0b565b600030331480610f27575060005461010090046001600160a01b031633145b80610f475750600054610f479061010090046001600160a01b03166121af565b8061100d575060005461010090046001600160a01b0316636cfdc32e333084600e811115610f8557634e487b7160e01b600052602160045260246000fd5b6040516001600160e01b031960e086901b1681526001600160a01b03938416600482015292909116602483015260ff16604482015260640160206040518083038186803b158015610fd557600080fd5b505afa158015610fe9573d6000803e3d6000fd5b505050506040513d601f19601f8201168201806040525081019061100d9190612d6c565b6110595760405162461bcd60e51b815260206004820181905260248201527f666c65782066756e64696e6720706f6f6c3a3a61636365737344656e6965643a60448201526064016107e8565b6000611063610e4f565b905061106e8461256d565b80600061107a86610d07565b90506000611089611111610d07565b9050600061109861decd610d07565b60005460405163288c314960e21b81526001600160a01b038b811660048301529293506101009091049091169063a230c5249060240160206040518083038186803b1580156110e657600080fd5b505afa1580156110fa573d6000803e3d6000fd5b505050506040513d601f19601f8201168201806040525081019061111e9190612d6c565b1561113957611139611111866111348a86612e92565b612608565b61114888866111348a87612e92565b61115961decd866111348a85612e92565b6040517f23b872dd000000000000000000000000000000000000000000000000000000008152336004820152306024820152604481018890526001600160a01b038516906323b872dd906064015b602060405180830381600087803b1580156111c157600080fd5b505af11580156111d5573d6000803e3d6000fd5b505050506040513d601f19601f820116820180604052508101906111f99190612d6c565b505050505050505050565b600130331480611223575060005461010090046001600160a01b031633145b8061124357506000546112439061010090046001600160a01b03166121af565b80611309575060005461010090046001600160a01b0316636cfdc32e333084600e81111561128157634e487b7160e01b600052602160045260246000fd5b6040516001600160e01b031960e086901b1681526001600160a01b03938416600482015292909116602483015260ff16604482015260640160206040518083038186803b1580156112d157600080fd5b505afa1580156112e5573d6000803e3d6000fd5b505050506040513d601f19601f820116820180604052508101906113099190612d6c565b6113555760405162461bcd60e51b815260206004820181905260248201527f666c65782066756e64696e6720706f6f6c3a3a61636365737344656e6965643a60448201526064016107e8565b600061136261decd610d07565b90506000611370600a612883565b905060005b81518160ff1610156113f7576000828260ff16815181106113a657634e487b7160e01b600052603260045260246000fd5b6020026020010151905060006113bb82610d07565b11156113e4576113e48188866113d085610d07565b6113da908b612f09565b61052f9190612ed2565b50806113ef81612fb2565b915050611375565b505050505050565b60003033148061141e575060005461010090046001600160a01b031633145b8061143e575060005461143e9061010090046001600160a01b03166121af565b80611504575060005461010090046001600160a01b0316636cfdc32e333084600e81111561147c57634e487b7160e01b600052602160045260246000fd5b6040516001600160e01b031960e086901b1681526001600160a01b03938416600482015292909116602483015260ff16604482015260640160206040518083038186803b1580156114cc57600080fd5b505afa1580156114e0573d6000803e3d6000fd5b505050506040513d601f19601f820116820180604052508101906115049190612d6c565b6115505760405162461bcd60e51b815260206004820181905260248201527f666c65782066756e64696e6720706f6f6c3a3a61636365737344656e6965643a60448201526064016107e8565b6115598461256d565b82600061156586610d07565b90506000611574611111610d07565b9050600061158361decd610d07565b60005460405163288c314960e21b81526001600160a01b038b811660048301529293506101009091049091169063a230c5249060240160206040518083038186803b1580156115d157600080fd5b505afa1580156115e5573d6000803e3d6000fd5b505050506040513d601f19601f820116820180604052508101906116099190612d6c565b1561161f5761161f611111886111348986612e92565b61162e88886111348987612e92565b61163f61decd886111348985612e92565b6040517f23b872dd000000000000000000000000000000000000000000000000000000008152336004820152306024820152604481018790526001600160a01b038516906323b872dd906064016111a7565b6000610695600a83612890565b6002303314806116bd575060005461010090046001600160a01b031633145b806116dd57506000546116dd9061010090046001600160a01b03166121af565b806117a3575060005461010090046001600160a01b0316636cfdc32e333084600e81111561171b57634e487b7160e01b600052602160045260246000fd5b6040516001600160e01b031960e086901b1681526001600160a01b03938416600482015292909116602483015260ff16604482015260640160206040518083038186803b15801561176b57600080fd5b505afa15801561177f573d6000803e3d6000fd5b505050506040513d601f19601f820116820180604052508101906117a39190612d6c565b6117ef5760405162461bcd60e51b815260206004820181905260248201527f666c65782066756e64696e6720706f6f6c3a3a61636365737344656e6965643a60448201526064016107e8565b816117f985610d07565b101561186d5760405162461bcd60e51b815260206004820152602d60248201527f666c65782066756e64696e6720706f6f6c3a3a77697468647261773a3a6e6f7460448201527f20656e6f7567682066756e64730000000000000000000000000000000000000060648201526084016107e8565b6118816001600160a01b03841685846124ed565b604080516001600160a01b03808716825280861660208301528416918101919091527ff4d47ca48b90728e6b853fff159bd92cdbd2be6ce116e9ebd8ca4f7f68ce4c8d90606001610b41565b6004303314806118ec575060005461010090046001600160a01b031633145b8061190c575060005461190c9061010090046001600160a01b03166121af565b806119d2575060005461010090046001600160a01b0316636cfdc32e333084600e81111561194a57634e487b7160e01b600052602160045260246000fd5b6040516001600160e01b031960e086901b1681526001600160a01b03938416600482015292909116602483015260ff16604482015260640160206040518083038186803b15801561199a57600080fd5b505afa1580156119ae573d6000803e3d6000fd5b505050506040513d601f19601f820116820180604052508101906119d29190612d6c565b611a1e5760405162461bcd60e51b815260206004820181905260248201527f666c65782066756e64696e6720706f6f6c3a3a61636365737344656e6965643a60448201526064016107e8565b60008211611a945760405162461bcd60e51b815260206004820152602d60248201527f46756e64696e67506f6f6c3a3a6469737472696275746546756e64733a3a616d60448201527f6f756e74206d757374203e20300000000000000000000000000000000000000060648201526084016107e8565b6040516370a0823160e01b815230600482015282906001600160a01b038516906370a082319060240160206040518083038186803b158015611ad557600080fd5b505afa158015611ae9573d6000803e3d6000fd5b505050506040513d601f19601f82011682018060405250810190611b0d9190612de5565b831115611b8e576040516370a0823160e01b81523060048201526001600160a01b038516906370a082319060240160206040518083038186803b158015611b5357600080fd5b505afa158015611b67573d6000803e3d6000fd5b505050506040513d601f19601f82011682018060405250810190611b8b9190612de5565b90505b611ba26001600160a01b03851686836124ed565b604080516001600160a01b038088168252861660208201529081018290527fb70fe816339ea1444b2c894b640eb98aaf56d35020a1805e2dbd4c3f56b854bd90606001610905565b600130331480611c09575060005461010090046001600160a01b031633145b80611c295750600054611c299061010090046001600160a01b03166121af565b80611cef575060005461010090046001600160a01b0316636cfdc32e333084600e811115611c6757634e487b7160e01b600052602160045260246000fd5b6040516001600160e01b031960e086901b1681526001600160a01b03938416600482015292909116602483015260ff16604482015260640160206040518083038186803b158015611cb757600080fd5b505afa158015611ccb573d6000803e3d6000fd5b505050506040513d601f19601f82011682018060405250810190611cef9190612d6c565b611d3b5760405162461bcd60e51b815260206004820181905260248201527f666c65782066756e64696e6720706f6f6c3a3a61636365737344656e6965643a60448201526064016107e8565b81611d4585610d07565b10158015611d5d575081611d5a61decd610d07565b10155b611dcf5760405162461bcd60e51b815260206004820152603360248201527f46756e64696e67506f6f6c3a3a737562747261637446726f6d42616c616e636560448201527f3a3a496e73756666696369656e742046756e640000000000000000000000000060648201526084016107e8565b600082611ddb86610d07565b611de59190612f46565b9050600083611df561decd610d07565b611dff9190612f46565b9050611e0e61decd8683612608565b6113f7868684612608565b6001600160a01b03808216600090815260036020908152604080832093861683529290529081205463ffffffff1680611e53576000610db1565b6001600160a01b038084166000908152600260209081526040808320938816835292905290812090610d80600184612f5d565b6000438210611efd5760405162461bcd60e51b815260206004820152602760248201527f556e693a3a6765745072696f72416d6f756e743a206e6f74207965742064657460448201527f65726d696e65640000000000000000000000000000000000000000000000000060648201526084016107e8565b6001600160a01b0380841660009081526003602090815260408083209388168352929052205463ffffffff1680611f38576000915050610e48565b6001600160a01b03808516600090815260026020908152604080832093891683529290529081208491611f6c600185612f5d565b63ffffffff1681526020810191909152604001600020546bffffffffffffffffffffffff1611612002576001600160a01b038085166000908152600260209081526040808320938916835292905290812090611fc9600184612f5d565b63ffffffff168152602081019190915260400160002054600160601b90046fffffffffffffffffffffffffffffffff169150610e489050565b6001600160a01b0380851660009081526002602090815260408083209389168352928152828220828052905220546bffffffffffffffffffffffff1683101561204f576000915050610e48565b60008061205d600184612f5d565b90505b8163ffffffff168163ffffffff16111561215757600060026120828484612f5d565b61208c9190612ee6565b6120969083612f5d565b6001600160a01b038881166000908152600260209081526040808320938d16835292815282822063ffffffff851683528152908290208251808401909352546bffffffffffffffffffffffff8116808452600160601b9091046fffffffffffffffffffffffffffffffff16918301919091529192509087141561212357602001519450610e489350505050565b80516bffffffffffffffffffffffff1687111561214257819350612150565b61214d600183612f5d565b92505b5050612060565b506001600160a01b03948516600090815260026020908152604080832098909716825296875285812063ffffffff9290921681529552505050902054600160601b90046fffffffffffffffffffffffffffffffff1690565b600080826001600160a01b031663c19d93fb6040518163ffffffff1660e01b815260040160206040518083038186803b1580156121eb57600080fd5b505afa1580156121ff573d6000803e3d6000fd5b505050506040513d601f19601f820116820180604052508101906122239190612dc6565b600181111561224257634e487b7160e01b600052602160045260246000fd5b1480156106955750816001600160a01b031663c67143666040518163ffffffff1660e01b815260040160206040518083038186803b15801561228357600080fd5b505afa158015612297573d6000803e3d6000fd5b505050506040513d601f19601f820116820180604052508101906122bb9190612de5565b1580612339575060405163288c314960e21b81523360048201526001600160a01b0383169063a230c5249060240160206040518083038186803b15801561230157600080fd5b505afa158015612315573d6000803e3d6000fd5b505050506040513d601f19601f820116820180604052508101906123399190612d6c565b8061069557506040517f68c18beb0000000000000000000000000000000000000000000000000000000081523360048201526001600160a01b038316906368c18beb9060240160206040518083038186803b15801561239757600080fd5b505afa1580156123ab573d6000803e3d6000fd5b505050506040513d601f19601f820116820180604052508101906106959190612d6c565b8047101561241f5760405162461bcd60e51b815260206004820152601d60248201527f416464726573733a20696e73756666696369656e742062616c616e636500000060448201526064016107e8565b6000826001600160a01b03168260405160006040518083038185875af1925050503d806000811461246c576040519150601f19603f3d011682016040523d82523d6000602084013e612471565b606091505b50509050806124e85760405162461bcd60e51b815260206004820152603a60248201527f416464726573733a20756e61626c6520746f2073656e642076616c75652c207260448201527f6563697069656e74206d6179206861766520726576657274656400000000000060648201526084016107e8565b505050565b604080516001600160a01b038416602482015260448082018490528251808303909101815260649091019091526020810180517bffffffffffffffffffffffffffffffffffffffffffffffffffffffff167fa9059cbb000000000000000000000000000000000000000000000000000000001790526124e89084906128b2565b6001600160a01b0381166125e95760405162461bcd60e51b815260206004820152603360248201527f46756e64696e67506f6f6c3a3a5f6e6577496e766573746f723a3a696e76616c60448201527f696420696e766573746f7220616464726573730000000000000000000000000060648201526084016107e8565b6125f4600a82612890565b61260557612603600a82612997565b505b50565b6001600160a01b03808316600090815260036020908152604080832093871683529290522054819063ffffffff16801580159061269b57506001600160a01b03808516600090815260026020908152604080832093891683529290529081204391612674600185612f5d565b63ffffffff1681526020810191909152604001600020546bffffffffffffffffffffffff16145b15612736576001600160a01b038085166000908152600260209081526040808320938916835292905290812083916126d4600185612f5d565b63ffffffff168152602081019190915260400160002080546fffffffffffffffffffffffffffffffff92909216600160601b027fffffffff00000000000000000000000000000000ffffffffffffffffffffffff909216919091179055612827565b6040805180820182526bffffffffffffffffffffffff43811682526fffffffffffffffffffffffffffffffff80861660208085019182526001600160a01b03808b16600090815260028352878120918d16815290825286812063ffffffff8916825290915294909420925183549451909116600160601b026001600160e01b03199094169116179190911790556127ce816001612eaa565b6001600160a01b038581166000908152600360209081526040808320938a1683529290522080547fffffffffffffffffffffffffffffffffffffffffffffffffffffffff000000001663ffffffff929092169190911790555b604080516001600160a01b038088168252861660208201526fffffffffffffffffffffffffffffffff8416918101919091527f11ab57c509be320eba133349628aa1de2b83999db8fb30a70930086aad67e95190606001610905565b60606000610e48836129ac565b6001600160a01b03811660009081526001830160205260408120541515610e48565b6000612907826040518060400160405280602081526020017f5361666545524332303a206c6f772d6c6576656c2063616c6c206661696c6564815250856001600160a01b0316612a089092919063ffffffff16565b8051909150156124e857808060200190518101906129259190612d6c565b6124e85760405162461bcd60e51b815260206004820152602a60248201527f5361666545524332303a204552433230206f7065726174696f6e20646964206e60448201527f6f7420737563636565640000000000000000000000000000000000000000000060648201526084016107e8565b6000610e48836001600160a01b038416612a1f565b6060816000018054806020026020016040519081016040528092919081815260200182805480156129fc57602002820191906000526020600020905b8154815260200190600101908083116129e8575b50505050509050919050565b6060612a178484600085612a6e565b949350505050565b6000818152600183016020526040812054612a6657508154600181810184556000848152602080822090930184905584548482528286019093526040902091909155610695565b506000610695565b606082471015612ae65760405162461bcd60e51b815260206004820152602660248201527f416464726573733a20696e73756666696369656e742062616c616e636520666f60448201527f722063616c6c000000000000000000000000000000000000000000000000000060648201526084016107e8565b6001600160a01b0385163b612b3d5760405162461bcd60e51b815260206004820152601d60248201527f416464726573733a2063616c6c20746f206e6f6e2d636f6e747261637400000060448201526064016107e8565b600080866001600160a01b03168587604051612b599190612dfd565b60006040518083038185875af1925050503d8060008114612b96576040519150601f19603f3d011682016040523d82523d6000602084013e612b9b565b606091505b5091509150612bab828286612bb6565b979650505050505050565b60608315612bc5575081610e48565b825115612bd55782518084602001fd5b8160405162461bcd60e51b81526004016107e89190612e41565b600060208284031215612c00578081fd5b8135610e4881612ffe565b600060208284031215612c1c578081fd5b8151610e4881612ffe565b60008060408385031215612c39578081fd5b8235612c4481612ffe565b91506020830135612c5481612ffe565b809150509250929050565b60008060008060808587031215612c74578182fd5b8435612c7f81612ffe565b93506020850135612c8f81612ffe565b92506040850135612c9f81612ffe565b9396929550929360600135925050565b600080600060608486031215612cc3578283fd5b8335612cce81612ffe565b92506020840135612cde81612ffe565b929592945050506040919091013590565b600080600060608486031215612d03578283fd5b8335612d0e81612ffe565b92506020840135612d1e81612ffe565b9150604084013563ffffffff81168114612d36578182fd5b809150509250925092565b60008060408385031215612d53578182fd5b8235612d5e81612ffe565b946020939093013593505050565b600060208284031215612d7d578081fd5b81518015158114610e48578182fd5b600060208284031215612d9d578081fd5b81356001600160e01b031981168114610e48578182fd5b60008060408385031215612c39578182fd5b600060208284031215612dd7578081fd5b815160028110610e48578182fd5b600060208284031215612df6578081fd5b5051919050565b60008251612e0f818460208701612f82565b9190910192915050565b6020810160048310612e3b57634e487b7160e01b600052602160045260246000fd5b91905290565b6020815260008251806020840152612e60816040850160208701612f82565b601f017fffffffffffffffffffffffffffffffffffffffffffffffffffffffffffffffe0169190910160400192915050565b60008219821115612ea557612ea5612fd2565b500190565b600063ffffffff808316818516808303821115612ec957612ec9612fd2565b01949350505050565b600082612ee157612ee1612fe8565b500490565b600063ffffffff80841680612efd57612efd612fe8565b92169190910492915050565b6000817fffffffffffffffffffffffffffffffffffffffffffffffffffffffffffffffff0483118215151615612f4157612f41612fd2565b500290565b600082821015612f5857612f58612fd2565b500390565b600063ffffffff83811690831681811015612f7a57612f7a612fd2565b039392505050565b60005b83811015612f9d578181015183820152602001612f85565b83811115612fac576000848401525b50505050565b600060ff821660ff811415612fc957612fc9612fd2565b60010192915050565b634e487b7160e01b600052601160045260246000fd5b634e487b7160e01b600052601260045260246000fd5b6001600160a01b038116811461260557600080fdfea2646970667358221220bbe4c3344b6acbdbb807796ab754de10c498ae0f993a367b778b8b934b3baf2264736f6c63430008040033",
  "linkReferences": {},
  "deployedLinkReferences": {}
}