{
  "_format": "hh-sol-artifact-1",
  "contractName": "InvestmentReceiptERC721",
  "sourceName": "contracts/InvestmentReceiptERC721.sol",
  "abi": [
    {
      "inputs": [
        {
          "internalType": "string",
          "name": "name",
          "type": "string"
        },
        {
          "internalType": "string",
          "name": "symbol",
          "type": "string"
        },
        {
          "internalType": "address",
          "name": "_flexInvestmentContrAddress",
          "type": "address"
        },
        {
          "internalType": "address",
          "name": "_vintageInvestmentontrAddress",
          "type": "address"
        },
        {
          "internalType": "address",
          "name": "_collectiveInvestmentContrAddress",
          "type": "address"
        },
        {
          "internalType": "address",
          "name": "_ercHelperContrAddress",
          "type": "address"
        }
      ],
      "stateMutability": "nonpayable",
      "type": "constructor"
    },
    {
      "anonymous": false,
      "inputs": [
        {
          "indexed": true,
          "internalType": "address",
          "name": "owner",
          "type": "address"
        },
        {
          "indexed": true,
          "internalType": "address",
          "name": "spender",
          "type": "address"
        },
        {
          "indexed": true,
          "internalType": "uint256",
          "name": "id",
          "type": "uint256"
        }
      ],
      "name": "Approval",
      "type": "event"
    },
    {
      "anonymous": false,
      "inputs": [
        {
          "indexed": true,
          "internalType": "address",
          "name": "owner",
          "type": "address"
        },
        {
          "indexed": true,
          "internalType": "address",
          "name": "operator",
          "type": "address"
        },
        {
          "indexed": false,
          "internalType": "bool",
          "name": "approved",
          "type": "bool"
        }
      ],
      "name": "ApprovalForAll",
      "type": "event"
    },
    {
      "anonymous": false,
      "inputs": [
        {
          "indexed": true,
          "internalType": "address",
          "name": "from",
          "type": "address"
        },
        {
          "indexed": true,
          "internalType": "address",
          "name": "to",
          "type": "address"
        },
        {
          "indexed": true,
          "internalType": "uint256",
          "name": "id",
          "type": "uint256"
        }
      ],
      "name": "Transfer",
      "type": "event"
    },
    {
      "inputs": [],
      "name": "_owner",
      "outputs": [
        {
          "internalType": "address",
          "name": "",
          "type": "address"
        }
      ],
      "stateMutability": "view",
      "type": "function"
    },
    {
      "inputs": [
        {
          "internalType": "address",
          "name": "spender",
          "type": "address"
        },
        {
          "internalType": "uint256",
          "name": "id",
          "type": "uint256"
        }
      ],
      "name": "approve",
      "outputs": [],
      "stateMutability": "nonpayable",
      "type": "function"
    },
    {
      "inputs": [
        {
          "internalType": "address",
          "name": "owner",
          "type": "address"
        }
      ],
      "name": "balanceOf",
      "outputs": [
        {
          "internalType": "uint256",
          "name": "",
          "type": "uint256"
        }
      ],
      "stateMutability": "view",
      "type": "function"
    },
    {
      "inputs": [],
      "name": "collectiveInvestmentContrAddress",
      "outputs": [
        {
          "internalType": "address",
          "name": "",
          "type": "address"
        }
      ],
      "stateMutability": "view",
      "type": "function"
    },
    {
      "inputs": [],
      "name": "contractURI",
      "outputs": [
        {
          "internalType": "string",
          "name": "",
          "type": "string"
        }
      ],
      "stateMutability": "pure",
      "type": "function"
    },
    {
      "inputs": [],
      "name": "flexInvestmentContrAddress",
      "outputs": [
        {
          "internalType": "address",
          "name": "",
          "type": "address"
        }
      ],
      "stateMutability": "view",
      "type": "function"
    },
    {
      "inputs": [
        {
          "internalType": "uint256",
          "name": "",
          "type": "uint256"
        }
      ],
      "name": "getApproved",
      "outputs": [
        {
          "internalType": "address",
          "name": "",
          "type": "address"
        }
      ],
      "stateMutability": "view",
      "type": "function"
    },
    {
      "inputs": [
        {
          "internalType": "bytes32",
          "name": "",
          "type": "bytes32"
        },
        {
          "internalType": "address",
          "name": "",
          "type": "address"
        }
      ],
      "name": "investmentIdToTokenId",
      "outputs": [
        {
          "internalType": "uint256",
          "name": "",
          "type": "uint256"
        }
      ],
      "stateMutability": "view",
      "type": "function"
    },
    {
      "inputs": [
        {
          "internalType": "address",
          "name": "",
          "type": "address"
        },
        {
          "internalType": "address",
          "name": "",
          "type": "address"
        }
      ],
      "name": "isApprovedForAll",
      "outputs": [
        {
          "internalType": "bool",
          "name": "",
          "type": "bool"
        }
      ],
      "stateMutability": "view",
      "type": "function"
    },
    {
      "inputs": [],
      "name": "maxTotalSupply",
      "outputs": [
        {
          "internalType": "uint256",
          "name": "",
          "type": "uint256"
        }
      ],
      "stateMutability": "view",
      "type": "function"
    },
    {
      "inputs": [],
      "name": "name",
      "outputs": [
        {
          "internalType": "string",
          "name": "",
          "type": "string"
        }
      ],
      "stateMutability": "view",
      "type": "function"
    },
    {
      "inputs": [
        {
          "internalType": "uint256",
          "name": "id",
          "type": "uint256"
        }
      ],
      "name": "ownerOf",
      "outputs": [
        {
          "internalType": "address",
          "name": "owner",
          "type": "address"
        }
      ],
      "stateMutability": "view",
      "type": "function"
    },
    {
      "inputs": [],
      "name": "receiptERC721HelperContrAddress",
      "outputs": [
        {
          "internalType": "address",
          "name": "",
          "type": "address"
        }
      ],
      "stateMutability": "view",
      "type": "function"
    },
    {
      "inputs": [
        {
          "internalType": "address",
          "name": "daoAddr",
          "type": "address"
        },
        {
          "internalType": "bytes32",
          "name": "investmentProposalId",
          "type": "bytes32"
        },
        {
          "internalType": "uint8",
          "name": "mode",
          "type": "uint8"
        },
        {
          "internalType": "string",
          "name": "executedTxHash",
          "type": "string"
        },
        {
          "internalType": "string",
          "name": "projectName",
          "type": "string"
        },
        {
          "internalType": "string",
          "name": "description",
          "type": "string"
        }
      ],
      "name": "safeMint",
      "outputs": [
        {
          "internalType": "uint256",
          "name": "id",
          "type": "uint256"
        }
      ],
      "stateMutability": "nonpayable",
      "type": "function"
    },
    {
      "inputs": [
        {
          "internalType": "address",
          "name": "from",
          "type": "address"
        },
        {
          "internalType": "address",
          "name": "to",
          "type": "address"
        },
        {
          "internalType": "uint256",
          "name": "id",
          "type": "uint256"
        }
      ],
      "name": "safeTransferFrom",
      "outputs": [],
      "stateMutability": "nonpayable",
      "type": "function"
    },
    {
      "inputs": [
        {
          "internalType": "address",
          "name": "from",
          "type": "address"
        },
        {
          "internalType": "address",
          "name": "to",
          "type": "address"
        },
        {
          "internalType": "uint256",
          "name": "id",
          "type": "uint256"
        },
        {
          "internalType": "bytes",
          "name": "data",
          "type": "bytes"
        }
      ],
      "name": "safeTransferFrom",
      "outputs": [],
      "stateMutability": "nonpayable",
      "type": "function"
    },
    {
      "inputs": [
        {
          "internalType": "address",
          "name": "operator",
          "type": "address"
        },
        {
          "internalType": "bool",
          "name": "approved",
          "type": "bool"
        }
      ],
      "name": "setApprovalForAll",
      "outputs": [],
      "stateMutability": "nonpayable",
      "type": "function"
    },
    {
      "inputs": [
        {
          "internalType": "bytes4",
          "name": "interfaceId",
          "type": "bytes4"
        }
      ],
      "name": "supportsInterface",
      "outputs": [
        {
          "internalType": "bool",
          "name": "",
          "type": "bool"
        }
      ],
      "stateMutability": "view",
      "type": "function"
    },
    {
      "inputs": [],
      "name": "symbol",
      "outputs": [
        {
          "internalType": "string",
          "name": "",
          "type": "string"
        }
      ],
      "stateMutability": "view",
      "type": "function"
    },
    {
      "inputs": [
        {
          "internalType": "uint256",
          "name": "",
          "type": "uint256"
        }
      ],
      "name": "tokenIdToInvestmentProposalInfo",
      "outputs": [
        {
          "internalType": "address",
          "name": "daoAddress",
          "type": "address"
        },
        {
          "internalType": "bytes32",
          "name": "investmentProposalId",
          "type": "bytes32"
        },
        {
          "internalType": "uint256",
          "name": "proposalExecutedBlockNum",
          "type": "uint256"
        },
        {
          "internalType": "string",
          "name": "executedTxHash",
          "type": "string"
        },
        {
          "internalType": "uint256",
          "name": "totalInvestedAmount",
          "type": "uint256"
        },
        {
          "internalType": "uint256",
          "name": "myInvestedAmount",
          "type": "uint256"
        },
        {
          "components": [
            {
              "internalType": "address",
              "name": "tokenAddress",
              "type": "address"
            },
            {
              "internalType": "string",
              "name": "tokenSymbol",
              "type": "string"
            },
            {
              "internalType": "string",
              "name": "tokenName",
              "type": "string"
            }
          ],
          "internalType": "struct InvestmentReceiptERC721.ERC20Info",
          "name": "erc20",
          "type": "tuple"
        },
        {
          "internalType": "string",
          "name": "projectName",
          "type": "string"
        },
        {
          "internalType": "string",
          "name": "description",
          "type": "string"
        },
        {
          "internalType": "string",
          "name": "investmentProposalLink",
          "type": "string"
        }
      ],
      "stateMutability": "view",
      "type": "function"
    },
    {
      "inputs": [
        {
          "internalType": "uint256",
          "name": "tokenId",
          "type": "uint256"
        }
      ],
      "name": "tokenURI",
      "outputs": [
        {
          "internalType": "string",
          "name": "",
          "type": "string"
        }
      ],
      "stateMutability": "view",
      "type": "function"
    },
    {
      "inputs": [],
      "name": "totalSupply",
      "outputs": [
        {
          "internalType": "uint256",
          "name": "",
          "type": "uint256"
        }
      ],
      "stateMutability": "view",
      "type": "function"
    },
    {
      "inputs": [
        {
          "internalType": "address",
          "name": "from",
          "type": "address"
        },
        {
          "internalType": "address",
          "name": "to",
          "type": "address"
        },
        {
          "internalType": "uint256",
          "name": "id",
          "type": "uint256"
        }
      ],
      "name": "transferFrom",
      "outputs": [],
      "stateMutability": "nonpayable",
      "type": "function"
    },
    {
      "inputs": [],
      "name": "vintageInvestmentContrAddress",
      "outputs": [
        {
          "internalType": "address",
          "name": "",
          "type": "address"
        }
      ],
      "stateMutability": "view",
      "type": "function"
    }
  ],
  "bytecode": "0x60806040523480156200001157600080fd5b50604051620046183803806200461883398101604081905262000034916200023d565b8551869086906200004d906000906020850190620000c7565b50805162000063906001906020840190620000c7565b505060078054336001600160a01b0319918216179091556008805482166001600160a01b039788161790556009805482169587169590951790945550600a8054841692851692909217909155600b8054909216921691909117905550620003409050565b828054620000d590620002ed565b90600052602060002090601f016020900481019282620000f9576000855562000144565b82601f106200011457805160ff191683800117855562000144565b8280016001018555821562000144579182015b828111156200014457825182559160200191906001019062000127565b506200015292915062000156565b5090565b5b8082111562000152576000815560010162000157565b80516001600160a01b03811681146200018557600080fd5b919050565b600082601f8301126200019b578081fd5b81516001600160401b0380821115620001b857620001b86200032a565b604051601f8301601f19908116603f01168101908282118183101715620001e357620001e36200032a565b81604052838152602092508683858801011115620001ff578485fd5b8491505b8382101562000222578582018301518183018401529082019062000203565b838211156200023357848385830101525b9695505050505050565b60008060008060008060c0878903121562000256578182fd5b86516001600160401b03808211156200026d578384fd5b6200027b8a838b016200018a565b9750602089015191508082111562000291578384fd5b50620002a089828a016200018a565b955050620002b1604088016200016d565b9350620002c1606088016200016d565b9250620002d1608088016200016d565b9150620002e160a088016200016d565b90509295509295509295565b600181811c908216806200030257607f821691505b602082108114156200032457634e487b7160e01b600052602260045260246000fd5b50919050565b634e487b7160e01b600052604160045260246000fd5b6142c880620003506000396000f3fe608060405234801561001057600080fd5b50600436106101975760003560e01c806370a08231116100e3578063b88d4fde1161008c578063e8a3d48511610066578063e8a3d4851461038e578063e985e9c514610396578063ed5d606e146103c457600080fd5b8063b88d4fde1461033f578063c87b56dd14610352578063e32616e61461036557600080fd5b8063a22cb465116100bd578063a22cb46514610306578063a2c5076714610319578063b2bdfa7b1461032c57600080fd5b806370a08231146102c05780638865a249146102d357806395d89b41146102fe57600080fd5b80630e1edcfa116101455780632ab4d0521161011f5780632ab4d0521461029157806342842e0e1461029a5780636352211e146102ad57600080fd5b80630e1edcfa1461025557806318160ddd1461027657806323b872dd1461027e57600080fd5b8063081812fc11610176578063081812fc14610204578063095ea7b31461022d5780630b0ba8651461024257600080fd5b8062979e5f1461019c57806301ffc9a7146101cc57806306fdde03146101ef575b600080fd5b600b546101af906001600160a01b031681565b6040516001600160a01b0390911681526020015b60405180910390f35b6101df6101da36600461371c565b6103d7565b60405190151581526020016101c3565b6101f7610474565b6040516101c39190613c4b565b6101af61021236600461389b565b6004602052600090815260409020546001600160a01b031681565b61024061023b3660046135cf565b610502565b005b600a546101af906001600160a01b031681565b6102686102633660046133af565b610605565b6040519081526020016101c3565b600c54610268565b61024061028c3660046132a8565b611428565b610268600c5481565b6102406102a83660046132a8565b61162a565b6101af6102bb36600461389b565b61173e565b6102686102ce366004613238565b6117a8565b6102686102e13660046136f8565b600d60209081526000928352604080842090915290825290205481565b6101f761181c565b610240610314366004613382565b611829565b6009546101af906001600160a01b031681565b6007546101af906001600160a01b031681565b61024061034d3660046132e8565b6118b3565b6101f761036036600461389b565b6119b7565b61037861037336600461389b565b611e92565b6040516101c39a99989796959493929190613b7b565b6101f7612251565b6101df6103a4366004613270565b600560209081526000928352604080842090915290825290205460ff1681565b6008546101af906001600160a01b031681565b60007f01ffc9a7000000000000000000000000000000000000000000000000000000006001600160e01b03198316148061043a57507f80ac58cd000000000000000000000000000000000000000000000000000000006001600160e01b03198316145b8061046e57507f5b5e139f000000000000000000000000000000000000000000000000000000006001600160e01b03198316145b92915050565b6000805461048190613e9e565b80601f01602080910402602001604051908101604052809291908181526020018280546104ad90613e9e565b80156104fa5780601f106104cf576101008083540402835291602001916104fa565b820191906000526020600020905b8154815290600101906020018083116104dd57829003601f168201915b505050505081565b6000818152600260205260409020546001600160a01b03163381148061054b57506001600160a01b038116600090815260056020908152604080832033845290915290205460ff165b61059c5760405162461bcd60e51b815260206004820152600e60248201527f4e4f545f415554484f52495a454400000000000000000000000000000000000060448201526064015b60405180910390fd5b600082815260046020526040808220805473ffffffffffffffffffffffffffffffffffffffff19166001600160a01b0387811691821790925591518593918516917f8c5be1e5ebec7d5bd14f71427d1e84f3dd0314c0f7b2291e5b200ac8c7c3b92591a4505050565b6000858152600d602090815260408083203384529091528120541561066c5760405162461bcd60e51b815260206004820152600e60248201527f616c7265646179206d696e7465640000000000000000000000000000000000006044820152606401610593565b610674612b06565b60ff86166109ed576008546040517fbf4999940000000000000000000000000000000000000000000000000000000081526001600160a01b038a81166004830152602482018a90529091169063bf4999949060440160006040518083038186803b1580156106e157600080fd5b505afa1580156106f5573d6000803e3d6000fd5b505050506040513d6000823e601f3d908101601f1916820160405261071d9190810190613466565b60608a015250505050608085018390525050516001600160a01b0390811660c08401526040517f17ba7d850000000000000000000000000000000000000000000000000000000081527feae11da953333a83b6467e2193334fb302549e1a42ad5797082aea1ab6be9120600482015260009250908a16906317ba7d859060240160206040518083038186803b1580156107b557600080fd5b505afa1580156107c9573d6000803e3d6000fd5b505050506040513d601f19601f820116820180604052508101906107ed9190613254565b6040517e75e7eb0000000000000000000000000000000000000000000000000000000081526001600160a01b038b81166004830152602482018b905233604483015291909116906275e7eb90606401604080518083038186803b15801561085357600080fd5b505afa158015610867573d6000803e3d6000fd5b505050506040513d601f19601f8201168201806040525081019061088b91906135fa565b604051632c9f4b5b60e11b81527fb12a3847d47fefceb164b75823af125f9aa82b76938df0ddf08c04cd314ba37c60048201529092508291506001600160a01b038b169063593e96b69060240160206040518083038186803b1580156108f057600080fd5b505afa158015610904573d6000803e3d6000fd5b505050506040513d601f19601f820116820180604052508101906109289190613254565b6001600160a01b0316639e3f2d908a33600187606001516109499190613e40565b6040516001600160e01b031960e086901b16815260048101939093526001600160a01b039091166024830152604482015260640160206040518083038186803b15801561099557600080fd5b505afa1580156109a9573d6000803e3d6000fd5b505050506040513d601f19601f820116820180604052508101906109cd91906138b3565b6109d79190613e40565b8252506080810151606001516020820152610f70565b8560ff1660011415610cf9576009546040517f5cb752760000000000000000000000000000000000000000000000000000000081526001600160a01b038a81166004830152602482018a905290911690635cb752769060440160006040518083038186803b158015610a5e57600080fd5b505afa158015610a72573d6000803e3d6000fd5b505050506040513d6000823e601f3d908101601f19168201604052610a9a9190810190613627565b60608c0152505050506020870194909452505050506001600160a01b0390811660c0830152604051632c9f4b5b60e11b81527f161fca6912f107b0f13c9c7275de7391b32d2ea1c52ffba65a3c961880a0c60f60048201529089169063593e96b69060240160206040518083038186803b158015610b1757600080fd5b505afa158015610b2b573d6000803e3d6000fd5b505050506040513d601f19601f82011682018060405250810190610b4f9190613254565b6001600160a01b0316610100820181905260c0820151606083015163faaf38b39161decd91610b8090600190613e40565b6040516001600160e01b031960e086901b1681526001600160a01b039384166004820152929091166024830152604482015260640160206040518083038186803b158015610bcd57600080fd5b505afa158015610be1573d6000803e3d6000fd5b505050506040513d601f19601f82011682018060405250810190610c05919061386b565b6fffffffffffffffffffffffffffffffff1681602001518261010001516001600160a01b031663faaf38b3338560c0015160018760600151610c479190613e40565b6040516001600160e01b031960e086901b1681526001600160a01b039384166004820152929091166024830152604482015260640160206040518083038186803b158015610c9457600080fd5b505afa158015610ca8573d6000803e3d6000fd5b505050506040513d601f19601f82011682018060405250810190610ccc919061386b565b6fffffffffffffffffffffffffffffffff16610ce89190613e21565b610cf29190613e01565b8152610f70565b8560ff1660021415610f7057600a546040517f5cb752760000000000000000000000000000000000000000000000000000000081526001600160a01b038a81166004830152602482018a905290911690635cb752769060440160006040518083038186803b158015610d6a57600080fd5b505afa158015610d7e573d6000803e3d6000fd5b505050506040513d6000823e601f3d908101601f19168201604052610da69190810190613787565b506060870152505050506101208201819052602080820151604080850191909152918201519083015251632c9f4b5b60e11b81527f3909e87234f428ccb8748126e2c93f66a62f92a70d315fa5803dec6362be07ab60048201526001600160a01b0389169063593e96b69060240160206040518083038186803b158015610e2c57600080fd5b505afa158015610e40573d6000803e3d6000fd5b505050506040513d601f19601f82011682018060405250810190610e649190613254565b6001600160a01b039081166101408301819052610120830151805190921660c08401529051606083015163faaf38b39161decd91610ea490600190613e40565b6040516001600160e01b031960e086901b1681526001600160a01b039384166004820152929091166024830152604482015260640160206040518083038186803b158015610ef157600080fd5b505afa158015610f05573d6000803e3d6000fd5b505050506040513d601f19601f82011682018060405250810190610f29919061386b565b6fffffffffffffffffffffffffffffffff1681602001518261014001516001600160a01b031663faaf38b3338561012001516000015160018760600151610c479190613e40565b8051610fbe5760405162461bcd60e51b815260206004820152600a60248201527f756e6d696e7461626c65000000000000000000000000000000000000000000006044820152606401610593565b610fcc600680546001019055565b6000610fd760065490565b9050610fe333826122ba565b6000888152600d602090815260408083203384529091528120829055600c805460019290611012908490613de9565b909155506000905060ff8816156110a4578760ff16600114611069576040518060400160405280600a81526020017f636f6c6c656374697665000000000000000000000000000000000000000000008152506110db565b6040518060400160405280600781526020017f76696e74616765000000000000000000000000000000000000000000000000008152506110db565b6040518060400160405280600481526020017f666c6578000000000000000000000000000000000000000000000000000000008152505b6110ef8b6001600160a01b031660146123c9565b6110f88b612638565b61110560808d901b612638565b6040517f307800000000000000000000000000000000000000000000000000000000000060208201526022810192909252604282015260620160408051601f198184030181529082905261115d9392916020016138f7565b60405160208183030381529060405290506040518061014001604052808b6001600160a01b031681526020018a815260200184606001518152602001888152602001846020015181526020018460000151815260200160405180606001604052808660c001516001600160a01b031681526020018660c001516001600160a01b03166395d89b416040518163ffffffff1660e01b815260040160006040518083038186803b15801561120e57600080fd5b505afa158015611222573d6000803e3d6000fd5b505050506040513d6000823e601f3d908101601f1916820160405261124a9190810190613754565b81526020018660c001516001600160a01b03166306fdde036040518163ffffffff1660e01b815260040160006040518083038186803b15801561128c57600080fd5b505afa1580156112a0573d6000803e3d6000fd5b505050506040513d6000823e601f3d908101601f191682016040526112c89190810190613754565b905281526020808201899052604080830189905260609283018590526000868152600e83528190208451815473ffffffffffffffffffffffffffffffffffffffff19166001600160a01b039091161781558483015160018201559084015160028201559183015180516113419260038501920190612c73565b506080820151600482015560a0820151600582015560c0820151805160068301805473ffffffffffffffffffffffffffffffffffffffff19166001600160a01b0390921691909117815560208083015180516113a39260078701920190612c73565b50604082015180516113bf916002840191602090910190612c73565b50505060e082015180516113dd916009840191602090910190612c73565b5061010082015180516113fa91600a840191602090910190612c73565b50610120820151805161141791600b840191602090910190612c73565b50929b9a5050505050505050505050565b6000818152600260205260409020546001600160a01b038481169116146114915760405162461bcd60e51b815260206004820152600a60248201527f57524f4e475f46524f4d000000000000000000000000000000000000000000006044820152606401610593565b6001600160a01b0382166114e75760405162461bcd60e51b815260206004820152601160248201527f494e56414c49445f524543495049454e540000000000000000000000000000006044820152606401610593565b336001600160a01b038416148061152157506001600160a01b038316600090815260056020908152604080832033845290915290205460ff165b8061154257506000818152600460205260409020546001600160a01b031633145b61158e5760405162461bcd60e51b815260206004820152600e60248201527f4e4f545f415554484f52495a45440000000000000000000000000000000000006044820152606401610593565b6001600160a01b03808416600081815260036020908152604080832080546000190190559386168083528483208054600101905585835260028252848320805473ffffffffffffffffffffffffffffffffffffffff199081168317909155600490925284832080549092169091559251849392917fddf252ad1be2c89b69c2b068fc378daa952ba7f163c4a11628f55a4df523b3ef91a4505050565b611635838383611428565b6001600160a01b0382163b15806116ed5750604051630a85bd0160e11b8082523360048301526001600160a01b03858116602484015260448301849052608060648401526000608484015290919084169063150b7a029060a401602060405180830381600087803b1580156116a957600080fd5b505af11580156116bd573d6000803e3d6000fd5b505050506040513d601f19601f820116820180604052508101906116e19190613738565b6001600160e01b031916145b6117395760405162461bcd60e51b815260206004820152601060248201527f554e534146455f524543495049454e54000000000000000000000000000000006044820152606401610593565b505050565b6000818152600260205260409020546001600160a01b0316806117a35760405162461bcd60e51b815260206004820152600a60248201527f4e4f545f4d494e544544000000000000000000000000000000000000000000006044820152606401610593565b919050565b60006001600160a01b0382166118005760405162461bcd60e51b815260206004820152600c60248201527f5a45524f5f4144445245535300000000000000000000000000000000000000006044820152606401610593565b506001600160a01b031660009081526003602052604090205490565b6001805461048190613e9e565b3360008181526005602090815260408083206001600160a01b0387168085529083529281902080547fffffffffffffffffffffffffffffffffffffffffffffffffffffffffffffff001686151590811790915590519081529192917f17307eab39ab6107e8899845ad3d59bd9653f200f220920489ca2b5937696c31910160405180910390a35050565b6118be858585611428565b6001600160a01b0384163b15806119645750604051630a85bd0160e11b808252906001600160a01b0386169063150b7a02906119069033908a90899089908990600401613b2a565b602060405180830381600087803b15801561192057600080fd5b505af1158015611934573d6000803e3d6000fd5b505050506040513d601f19601f820116820180604052508101906119589190613738565b6001600160e01b031916145b6119b05760405162461bcd60e51b815260206004820152601060248201527f554e534146455f524543495049454e54000000000000000000000000000000006044820152606401610593565b5050505050565b6000818152600e6020908152604080832081516101408101835281546001600160a01b0316815260018201549381019390935260028101549183019190915260038101805460609493929183860191611a0f90613e9e565b80601f0160208091040260200160405190810160405280929190818152602001828054611a3b90613e9e565b8015611a885780601f10611a5d57610100808354040283529160200191611a88565b820191906000526020600020905b815481529060010190602001808311611a6b57829003601f168201915b505050505081526020016004820154815260200160058201548152602001600682016040518060600160405290816000820160009054906101000a90046001600160a01b03166001600160a01b03166001600160a01b03168152602001600182018054611af490613e9e565b80601f0160208091040260200160405190810160405280929190818152602001828054611b2090613e9e565b8015611b6d5780601f10611b4257610100808354040283529160200191611b6d565b820191906000526020600020905b815481529060010190602001808311611b5057829003601f168201915b50505050508152602001600282018054611b8690613e9e565b80601f0160208091040260200160405190810160405280929190818152602001828054611bb290613e9e565b8015611bff5780601f10611bd457610100808354040283529160200191611bff565b820191906000526020600020905b815481529060010190602001808311611be257829003601f168201915b5050505050815250508152602001600982018054611c1c90613e9e565b80601f0160208091040260200160405190810160405280929190818152602001828054611c4890613e9e565b8015611c955780601f10611c6a57610100808354040283529160200191611c95565b820191906000526020600020905b815481529060010190602001808311611c7857829003601f168201915b50505050508152602001600a82018054611cae90613e9e565b80601f0160208091040260200160405190810160405280929190818152602001828054611cda90613e9e565b8015611d275780601f10611cfc57610100808354040283529160200191611d27565b820191906000526020600020905b815481529060010190602001808311611d0a57829003601f168201915b50505050508152602001600b82018054611d4090613e9e565b80601f0160208091040260200160405190810160405280929190818152602001828054611d6c90613e9e565b8015611db95780601f10611d8e57610100808354040283529160200191611db9565b820191906000526020600020905b815481529060010190602001808311611d9c57829003601f168201915b505050919092525050600b54606083015160e084015160c085015160200151610120860151608087015160a08801516101008901516040517f2a26c3ef000000000000000000000000000000000000000000000000000000008152999a506001600160a01b0390971698632a26c3ef9850611e379790600401613c5e565b60006040518083038186803b158015611e4f57600080fd5b505afa158015611e63573d6000803e3d6000fd5b505050506040513d6000823e601f3d908101601f19168201604052611e8b9190810190613754565b9392505050565b600e6020526000908152604090208054600182015460028301546003840180546001600160a01b03909416949293919291611ecc90613e9e565b80601f0160208091040260200160405190810160405280929190818152602001828054611ef890613e9e565b8015611f455780601f10611f1a57610100808354040283529160200191611f45565b820191906000526020600020905b815481529060010190602001808311611f2857829003601f168201915b505050506004830154600584015460408051606081019091526006860180546001600160a01b0316825260078701805496979496939550919290916020840191611f8e90613e9e565b80601f0160208091040260200160405190810160405280929190818152602001828054611fba90613e9e565b80156120075780601f10611fdc57610100808354040283529160200191612007565b820191906000526020600020905b815481529060010190602001808311611fea57829003601f168201915b5050505050815260200160028201805461202090613e9e565b80601f016020809104026020016040519081016040528092919081815260200182805461204c90613e9e565b80156120995780601f1061206e57610100808354040283529160200191612099565b820191906000526020600020905b81548152906001019060200180831161207c57829003601f168201915b505050505081525050908060090180546120b290613e9e565b80601f01602080910402602001604051908101604052809291908181526020018280546120de90613e9e565b801561212b5780601f106121005761010080835404028352916020019161212b565b820191906000526020600020905b81548152906001019060200180831161210e57829003601f168201915b50505050509080600a01805461214090613e9e565b80601f016020809104026020016040519081016040528092919081815260200182805461216c90613e9e565b80156121b95780601f1061218e576101008083540402835291602001916121b9565b820191906000526020600020905b81548152906001019060200180831161219c57829003601f168201915b50505050509080600b0180546121ce90613e9e565b80601f01602080910402602001604051908101604052809291908181526020018280546121fa90613e9e565b80156122475780601f1061221c57610100808354040283529160200191612247565b820191906000526020600020905b81548152906001019060200180831161222a57829003601f168201915b505050505090508a565b60606122966040518061034001604052806103048152602001613f8f61030491396040516020016122829190613a07565b604051602081830303815290604052612808565b6040516020016122a69190613ae5565b604051602081830303815290604052905090565b6122c482826129d3565b6001600160a01b0382163b15806123795750604051630a85bd0160e11b80825233600483015260006024830181905260448301849052608060648401526084830152906001600160a01b0384169063150b7a029060a401602060405180830381600087803b15801561233557600080fd5b505af1158015612349573d6000803e3d6000fd5b505050506040513d601f19601f8201168201806040525081019061236d9190613738565b6001600160e01b031916145b6123c55760405162461bcd60e51b815260206004820152601060248201527f554e534146455f524543495049454e54000000000000000000000000000000006044820152606401610593565b5050565b606060006123d8836002613e21565b6123e3906002613de9565b67ffffffffffffffff81111561240957634e487b7160e01b600052604160045260246000fd5b6040519080825280601f01601f191660200182016040528015612433576020820181803683370190505b5090507f30000000000000000000000000000000000000000000000000000000000000008160008151811061247857634e487b7160e01b600052603260045260246000fd5b60200101907effffffffffffffffffffffffffffffffffffffffffffffffffffffffffffff1916908160001a9053507f7800000000000000000000000000000000000000000000000000000000000000816001815181106124e957634e487b7160e01b600052603260045260246000fd5b60200101907effffffffffffffffffffffffffffffffffffffffffffffffffffffffffffff1916908160001a9053506000612525846002613e21565b612530906001613de9565b90505b60018111156125e9577f303132333435363738396162636465660000000000000000000000000000000085600f166010811061257f57634e487b7160e01b600052603260045260246000fd5b1a60f81b8282815181106125a357634e487b7160e01b600052603260045260246000fd5b60200101907effffffffffffffffffffffffffffffffffffffffffffffffffffffffffffff1916908160001a90535060049490941c936125e281613e87565b9050612533565b508315611e8b5760405162461bcd60e51b815260206004820181905260248201527f537472696e67733a20686578206c656e67746820696e73756666696369656e746044820152606401610593565b7aff00000000000000ff00000000000000ff00000000000000ff00006bffffffff0000000000000000604083901c9081167bffffffff00000000000000000000000000000000000000000000000084161760201c6fffffffff000000000000000000000000919091166001600160e01b031984161717601081901c9182167eff00000000000000ff00000000000000ff00000000000000ff000000000000821617600890811c7bff00000000000000ff00000000000000ff00000000000000ff000000939093167fff00000000000000ff00000000000000ff00000000000000ff000000000000009290921691909117919091179081901c7e0f000f000f000f000f000f000f000f000f000f000f000f000f000f000f000f167f0f000f000f000f000f000f000f000f000f000f000f000f000f000f000f000f00600492831c1617906127a4827f0606060606060606060606060606060606060606060606060606060606060606613de9565b901c7f0f0f0f0f0f0f0f0f0f0f0f0f0f0f0f0f0f0f0f0f0f0f0f0f0f0f0f0f0f0f0f0f1660076127d49190613e21565b6127fe827f3030303030303030303030303030303030303030303030303030303030303030613de9565b61046e9190613de9565b606081516000141561282857505060408051602081019091526000815290565b6000604051806060016040528060408152602001613f4f60409139905060006003845160026128579190613de9565b6128619190613e01565b61286c906004613e21565b9050600061287b826020613de9565b67ffffffffffffffff8111156128a157634e487b7160e01b600052604160045260246000fd5b6040519080825280601f01601f1916602001820160405280156128cb576020820181803683370190505b509050818152600183018586518101602084015b818310156129395760039283018051603f601282901c811687015160f890811b8552600c83901c8216880151811b6001860152600683901c8216880151811b60028601529116860151901b938201939093526004016128df565b600389510660018114612953576002811461299d576129c5565b7f3d3d0000000000000000000000000000000000000000000000000000000000007ffffffffffffffffffffffffffffffffffffffffffffffffffffffffffffffffe8301526129c5565b7f3d000000000000000000000000000000000000000000000000000000000000006000198301525b509398975050505050505050565b6001600160a01b038216612a295760405162461bcd60e51b815260206004820152601160248201527f494e56414c49445f524543495049454e540000000000000000000000000000006044820152606401610593565b6000818152600260205260409020546001600160a01b031615612a8e5760405162461bcd60e51b815260206004820152600e60248201527f414c52454144595f4d494e5445440000000000000000000000000000000000006044820152606401610593565b6001600160a01b0382166000818152600360209081526040808320805460010190558483526002909152808220805473ffffffffffffffffffffffffffffffffffffffff19168417905551839291907fddf252ad1be2c89b69c2b068fc378daa952ba7f163c4a11628f55a4df523b3ef908290a45050565b60405180610160016040528060008152602001600081526020016000815260200160008152602001612bb860405180610180016040528060006001600160a01b0316815260200160008152602001600081526020016000815260200160001515815260200160006001600160a01b031681526020016000815260200160008152602001600081526020016000815260200160006001600160a01b0316815260200160006001600160a01b031681525090565b8152602001612bfd6040518060e00160405280606081526020016060815260200160008152602001600081526020016000815260200160008152602001600081525090565b815260200160006001600160a01b031681526020016000815260200160006001600160a01b03168152602001612c66604051806080016040528060006001600160a01b03168152602001600081526020016000815260200160006001600160a01b031681525090565b8152600060209091015290565b828054612c7f90613e9e565b90600052602060002090601f016020900481019282612ca15760008555612ce7565b82601f10612cba57805160ff1916838001178555612ce7565b82800160010185558215612ce7579182015b82811115612ce7578251825591602001919060010190612ccc565b50612cf3929150612cf7565b5090565b5b80821115612cf35760008155600101612cf8565b80516117a381613f05565b80516117a381613f1d565b8051600281106117a357600080fd5b8051600581106117a357600080fd5b600082601f830112612d50578081fd5b8135612d63612d5e82613dc1565b613d90565b818152846020838601011115612d77578283fd5b816020850160208301379081016020019190915292915050565b600082601f830112612da1578081fd5b8151612daf612d5e82613dc1565b818152846020838601011115612dc3578283fd5b612dd4826020830160208701613e57565b949350505050565b600060a08284031215612ded578081fd5b612df5613cd9565b90508151612e0281613f1d565b81526020820151612e1281613f05565b8060208301525060408201516040820152606082015160608201526080820151612e3b81613f05565b608082015292915050565b60006102008284031215612e58578081fd5b604051610100810181811067ffffffffffffffff82111715612e7c57612e7c613eef565b604052905080612e8b83612d22565b815260208301516020820152604083015160408201526060830151606082015260808301516080820152612ec160a08401612d17565b60a0820152612ed38460c08501612ef2565b60c0820152612ee6846101608501612f65565b60e08201525092915050565b600060a08284031215612f03578081fd5b612f0b613cd9565b90508151612f1881613f41565b8152602082015163ffffffff81168114612f3157600080fd5b60208201526040820151612f4481613f05565b80604083015250606082015160608201526080820151608082015292915050565b600060a08284031215612f76578081fd5b612f7e613cd9565b90508151612f8b81613f1d565b81526020820151612f3181613f41565b600060c08284031215612fac578081fd5b60405160c0810181811067ffffffffffffffff82111715612fcf57612fcf613eef565b80604052508091508251612fe281613f1d565b81526020830151612ff281613f05565b602082015260408381015190820152606083015161300f81613f05565b6060820152608083015161302281613f1d565b608082015260a083015161303581613f05565b60a0919091015292915050565b600060808284031215613053578081fd5b61305b613d02565b90508151815260208201516020820152604082015160408201526060820151606082015292915050565b600060408284031215613096578081fd5b6040516040810181811067ffffffffffffffff821117156130b9576130b9613eef565b604052825181526020928301519281019290925250919050565b600061012082840312156130e5578081fd5b6130ed613d25565b9050815181526020820151602082015260408201516040820152606082015160608201526080820151608082015261312760a08301612d17565b60a082015261313860c08301612d0c565b60c082015260e082015167ffffffffffffffff8082111561315857600080fd5b61316485838601612d91565b60e08401526101009150818401518181111561317f57600080fd5b61318b86828701612d91565b8385015250505092915050565b600060e082840312156131a9578081fd5b6131b1613d49565b9050815167ffffffffffffffff808211156131cb57600080fd5b6131d785838601612d91565b835260208401519150808211156131ed57600080fd5b506131fa84828501612d91565b60208301525060408201516040820152606082015160608201526080820151608082015260a082015160a082015260c082015160c082015292915050565b600060208284031215613249578081fd5b8135611e8b81613f05565b600060208284031215613265578081fd5b8151611e8b81613f05565b60008060408385031215613282578081fd5b823561328d81613f05565b9150602083013561329d81613f05565b809150509250929050565b6000806000606084860312156132bc578081fd5b83356132c781613f05565b925060208401356132d781613f05565b929592945050506040919091013590565b6000806000806000608086880312156132ff578283fd5b853561330a81613f05565b9450602086013561331a81613f05565b935060408601359250606086013567ffffffffffffffff8082111561333d578283fd5b818801915088601f830112613350578283fd5b81358181111561335e578384fd5b89602082850101111561336f578384fd5b9699959850939650602001949392505050565b60008060408385031215613394578182fd5b823561339f81613f05565b9150602083013561329d81613f1d565b60008060008060008060c087890312156133c7578384fd5b86356133d281613f05565b955060208701359450604087013560ff811681146133ee578485fd5b9350606087013567ffffffffffffffff8082111561340a578283fd5b6134168a838b01612d40565b9450608089013591508082111561342b578283fd5b6134378a838b01612d40565b935060a089013591508082111561344c578283fd5b5061345989828a01612d40565b9150509295509295509295565b6000806000806000806000806000898b03610480811215613485578788fd5b8a5161349081613f05565b9950610180601f1982018113156134a5578889fd5b6134ad613d6c565b91506134bb60208d01612d0c565b825260408c0151602083015260608c0151604083015260808c015160608301526134e760a08d01612d17565b60808301526134f860c08d01612d0c565b60a083015260e08c015160c0830152610100808d015160e0840152610120808e0151828501526101409150818e0151818501525061016061353a818f01612d0c565b82850152613549838f01612d0c565b9084015250506101a08b015190985067ffffffffffffffff81111561356c578788fd5b6135788c828d016130d3565b9750506135898b6101c08c01612e46565b95506135998b6103c08c01613085565b94506104008a015193506104208a015192506135b86104408b01612d31565b91506104608a015190509295985092959850929598565b600080604083850312156135e1578182fd5b82356135ec81613f05565b946020939093013593505050565b6000806040838503121561360c578182fd5b825161361781613f05565b6020939093015192949293505050565b60008060008060008060008060008060006102608c8e031215613648578485fd5b8b5161365381613f05565b809b505060208c0151995060408c0151985060608c0151975060808c015161367a81613f05565b965061368860a08d01612d0c565b955061369660c08d01612d31565b945060e08c015167ffffffffffffffff8111156136b1578283fd5b6136bd8e828f01613198565b9450506136ce8d6101008e01612f9b565b92506136de8d6101c08e01613042565b91506102408c015190509295989b509295989b9093969950565b6000806040838503121561370a578182fd5b82359150602083013561329d81613f05565b60006020828403121561372d578081fd5b8135611e8b81613f2b565b600060208284031215613749578081fd5b8151611e8b81613f2b565b600060208284031215613765578081fd5b815167ffffffffffffffff81111561377b578182fd5b612dd484828501612d91565b60008060008060008060008789036101e08112156137a3578182fd5b60808112156137b0578182fd5b506137b9613d02565b88516137c481613f05565b80825250602089015160208201526040890151604082015260608901516137ea81613f05565b606082015296506137fe8960808a01612ddc565b955061012088015167ffffffffffffffff81111561381a578182fd5b6138268a828b016130d3565b955050613837896101408a01613085565b93506138466101808901612d0c565b92506101a0880151915061385d6101c08901612d31565b905092959891949750929550565b60006020828403121561387c578081fd5b81516fffffffffffffffffffffffffffffffff81168114611e8b578182fd5b6000602082840312156138ac578081fd5b5035919050565b6000602082840312156138c4578081fd5b5051919050565b600081518084526138e3816020860160208601613e57565b601f01601f19169290920160200192915050565b7f68747470733a2f2f67726170682e70686f656e69782e66692f76656e7475726581527f64616f732f000000000000000000000000000000000000000000000000000000602082015260008451613955816025850160208901613e57565b7f2f000000000000000000000000000000000000000000000000000000000000006025918401918201528451613992816026840160208901613e57565b7f2f70726f706f73616c732f0000000000000000000000000000000000000000006026929091019182015283516139d0816031840160208801613e57565b7f2f696e766573746d656e7400000000000000000000000000000000000000000060319290910191820152603c0195945050505050565b7f7b226e616d65223a202244414f53717561726520496e766573746d656e74205281527f656365697074222c226465736372697074696f6e223a22000000000000000000602082015260008251613a65816037850160208701613e57565b7f222c22696d616765223a2268747470733a2f2f692e6962622e636f2f4a784e6360379390910192830152507f6d66342f436f6c6c656374696f6e2d4c6f676f2e706e67222c2265787465726e60578201527f616c5f6c696e6b223a2268747470733a2f2f64616f7371756172652e6669227d6077820152609701919050565b7f646174613a6170706c69636174696f6e2f6a736f6e3b6261736536342c000000815260008251613b1d81601d850160208701613e57565b91909101601d0192915050565b60006001600160a01b03808816835280871660208401525084604083015260806060830152826080830152828460a084013781830160a090810191909152601f909201601f19160101949350505050565b60006101406001600160a01b03808e1684528c60208501528b6040850152816060850152613bab8285018c6138cb565b91508960808501528860a085015283820360c085015280885116825250602087015160606020830152613be160608301826138cb565b905060408801518282036040840152613bfa82826138cb565b9250505082810360e0840152613c1081876138cb565b9050828103610100840152613c2581866138cb565b9050828103610120840152613c3a81856138cb565b9d9c50505050505050505050505050565b602081526000611e8b60208301846138cb565b60e081526000613c7160e083018a6138cb565b8281036020840152613c83818a6138cb565b90508281036040840152613c9781896138cb565b90508281036060840152613cab81886138cb565b90508560808401528460a084015282810360c0840152613ccb81856138cb565b9a9950505050505050505050565b60405160a0810167ffffffffffffffff81118282101715613cfc57613cfc613eef565b60405290565b6040516080810167ffffffffffffffff81118282101715613cfc57613cfc613eef565b604051610120810167ffffffffffffffff81118282101715613cfc57613cfc613eef565b60405160e0810167ffffffffffffffff81118282101715613cfc57613cfc613eef565b604051610180810167ffffffffffffffff81118282101715613cfc57613cfc613eef565b604051601f8201601f1916810167ffffffffffffffff81118282101715613db957613db9613eef565b604052919050565b600067ffffffffffffffff821115613ddb57613ddb613eef565b50601f01601f191660200190565b60008219821115613dfc57613dfc613ed9565b500190565b600082613e1c57634e487b7160e01b81526012600452602481fd5b500490565b6000816000190483118215151615613e3b57613e3b613ed9565b500290565b600082821015613e5257613e52613ed9565b500390565b60005b83811015613e72578181015183820152602001613e5a565b83811115613e81576000848401525b50505050565b600081613e9657613e96613ed9565b506000190190565b600181811c90821680613eb257607f821691505b60208210811415613ed357634e487b7160e01b600052602260045260246000fd5b50919050565b634e487b7160e01b600052601160045260246000fd5b634e487b7160e01b600052604160045260246000fd5b6001600160a01b0381168114613f1a57600080fd5b50565b8015158114613f1a57600080fd5b6001600160e01b031981168114613f1a57600080fd5b60048110613f1a57600080fdfe4142434445464748494a4b4c4d4e4f505152535455565758595a6162636465666768696a6b6c6d6e6f707172737475767778797a303132333435363738392b2f546865204e46547320696e207468652044414f53717561726520496e766573746d656e74205265636569707420436f6c6c656374696f6e206172652067656e6572617465642066726f6d20696e766573746d656e7473206d6164652062792056656e747572652044414f7320696e207468652044414f53717561726520496e63756261746f722c2077686963682061637469766174656420746865204e46542066756e6374696f6e20574954484f5554207573696e672074686520457363726f772046756e6374696f6e2e2045616368204e465420726570726573656e747320616e20696e766573746f72e280997320696e766573746d656e74207265636f7264206f6620696e76657374696e6720696e20612050726f6a656374207468726f75676820612044414f20696e2044414f53717561726520496e63756261746f722c206c696b65206120726563656970742e20596f752063616e2076696577207468652064796e616d696320646174612028696d6167652920616e642070726f7065727469657320696e666f726d6174696f6e206f662065616368204e465420746f20636865636b207768657468657220746865204e46542069732063757272656e746c792076616c696420616e642074686520696e766573746d656e74207265636f7264732e205468652050726f6a656374206f722044414f206d61792070726f6d69736520746f20676976652062656e656669747320746f204e465420686f6c646572732c207265676172646c657373206f6620746865206f726967696e616c20696e766573746f722e20204e46547320696e207468697320636f6c6c656374696f6e20617265207472616e7366657261626c652e20205468652066756c66696c6c6d656e74206f6620616e792070726f6d697365206261736564206f6e20746865204e465420646570656e6473206f6e207468652070726f6d69736572202850726f6a656374206f722044414f292c20776869636820746865204e465420697473656c662063616e6e6f742067756172616e74656520746563686e6963616c6c792ea2646970667358221220041e03de6f8cb8a1a3b6e44e04fa3446efc030ecb08577ff8afbc55c294e983264736f6c63430008040033",
  "linkReferences": {},
  "deployedLinkReferences": {}
}