{
  "_format": "hh-sol-artifact-1",
  "contractName": "InvestmentReceiptERC721",
  "sourceName": "contracts/InvestmentReceiptERC721.sol",
  "abi": [
    {
      "inputs": [
        {
          "internalType": "string",
          "name": "name",
          "type": "string"
        },
        {
          "internalType": "string",
          "name": "symbol",
          "type": "string"
        },
        {
          "internalType": "address",
          "name": "_flexInvestmentContrAddress",
          "type": "address"
        },
        {
          "internalType": "address",
          "name": "_vintageInvestmentontrAddress",
          "type": "address"
        },
        {
          "internalType": "address",
          "name": "_collectiveInvestmentContrAddress",
          "type": "address"
        },
        {
          "internalType": "address",
          "name": "_ercHelperContrAddress",
          "type": "address"
        }
      ],
      "stateMutability": "nonpayable",
      "type": "constructor"
    },
    {
      "inputs": [],
      "name": "ALREADY_MINTED",
      "type": "error"
    },
    {
      "inputs": [],
      "name": "UN_MINTABLE",
      "type": "error"
    },
    {
      "anonymous": false,
      "inputs": [
        {
          "indexed": true,
          "internalType": "address",
          "name": "owner",
          "type": "address"
        },
        {
          "indexed": true,
          "internalType": "address",
          "name": "spender",
          "type": "address"
        },
        {
          "indexed": true,
          "internalType": "uint256",
          "name": "id",
          "type": "uint256"
        }
      ],
      "name": "Approval",
      "type": "event"
    },
    {
      "anonymous": false,
      "inputs": [
        {
          "indexed": true,
          "internalType": "address",
          "name": "owner",
          "type": "address"
        },
        {
          "indexed": true,
          "internalType": "address",
          "name": "operator",
          "type": "address"
        },
        {
          "indexed": false,
          "internalType": "bool",
          "name": "approved",
          "type": "bool"
        }
      ],
      "name": "ApprovalForAll",
      "type": "event"
    },
    {
      "anonymous": false,
      "inputs": [
        {
          "indexed": true,
          "internalType": "address",
          "name": "from",
          "type": "address"
        },
        {
          "indexed": true,
          "internalType": "address",
          "name": "to",
          "type": "address"
        },
        {
          "indexed": true,
          "internalType": "uint256",
          "name": "id",
          "type": "uint256"
        }
      ],
      "name": "Transfer",
      "type": "event"
    },
    {
      "inputs": [],
      "name": "_owner",
      "outputs": [
        {
          "internalType": "address",
          "name": "",
          "type": "address"
        }
      ],
      "stateMutability": "view",
      "type": "function"
    },
    {
      "inputs": [
        {
          "internalType": "address",
          "name": "spender",
          "type": "address"
        },
        {
          "internalType": "uint256",
          "name": "id",
          "type": "uint256"
        }
      ],
      "name": "approve",
      "outputs": [],
      "stateMutability": "nonpayable",
      "type": "function"
    },
    {
      "inputs": [
        {
          "internalType": "address",
          "name": "owner",
          "type": "address"
        }
      ],
      "name": "balanceOf",
      "outputs": [
        {
          "internalType": "uint256",
          "name": "",
          "type": "uint256"
        }
      ],
      "stateMutability": "view",
      "type": "function"
    },
    {
      "inputs": [],
      "name": "collectiveInvestmentContrAddress",
      "outputs": [
        {
          "internalType": "address",
          "name": "",
          "type": "address"
        }
      ],
      "stateMutability": "view",
      "type": "function"
    },
    {
      "inputs": [],
      "name": "contractURI",
      "outputs": [
        {
          "internalType": "string",
          "name": "",
          "type": "string"
        }
      ],
      "stateMutability": "pure",
      "type": "function"
    },
    {
      "inputs": [],
      "name": "flexInvestmentContrAddress",
      "outputs": [
        {
          "internalType": "address",
          "name": "",
          "type": "address"
        }
      ],
      "stateMutability": "view",
      "type": "function"
    },
    {
      "inputs": [
        {
          "internalType": "uint256",
          "name": "",
          "type": "uint256"
        }
      ],
      "name": "getApproved",
      "outputs": [
        {
          "internalType": "address",
          "name": "",
          "type": "address"
        }
      ],
      "stateMutability": "view",
      "type": "function"
    },
    {
      "inputs": [
        {
          "internalType": "bytes32",
          "name": "",
          "type": "bytes32"
        },
        {
          "internalType": "address",
          "name": "",
          "type": "address"
        }
      ],
      "name": "investmentIdToTokenId",
      "outputs": [
        {
          "internalType": "uint256",
          "name": "",
          "type": "uint256"
        }
      ],
      "stateMutability": "view",
      "type": "function"
    },
    {
      "inputs": [
        {
          "internalType": "address",
          "name": "",
          "type": "address"
        },
        {
          "internalType": "address",
          "name": "",
          "type": "address"
        }
      ],
      "name": "isApprovedForAll",
      "outputs": [
        {
          "internalType": "bool",
          "name": "",
          "type": "bool"
        }
      ],
      "stateMutability": "view",
      "type": "function"
    },
    {
      "inputs": [],
      "name": "maxTotalSupply",
      "outputs": [
        {
          "internalType": "uint256",
          "name": "",
          "type": "uint256"
        }
      ],
      "stateMutability": "view",
      "type": "function"
    },
    {
      "inputs": [],
      "name": "name",
      "outputs": [
        {
          "internalType": "string",
          "name": "",
          "type": "string"
        }
      ],
      "stateMutability": "view",
      "type": "function"
    },
    {
      "inputs": [
        {
          "internalType": "uint256",
          "name": "id",
          "type": "uint256"
        }
      ],
      "name": "ownerOf",
      "outputs": [
        {
          "internalType": "address",
          "name": "owner",
          "type": "address"
        }
      ],
      "stateMutability": "view",
      "type": "function"
    },
    {
      "inputs": [],
      "name": "receiptERC721HelperContrAddress",
      "outputs": [
        {
          "internalType": "address",
          "name": "",
          "type": "address"
        }
      ],
      "stateMutability": "view",
      "type": "function"
    },
    {
      "inputs": [
        {
          "internalType": "address",
          "name": "daoAddr",
          "type": "address"
        },
        {
          "internalType": "bytes32",
          "name": "investmentProposalId",
          "type": "bytes32"
        },
        {
          "internalType": "uint8",
          "name": "mode",
          "type": "uint8"
        },
        {
          "internalType": "string",
          "name": "executedTxHash",
          "type": "string"
        },
        {
          "internalType": "string",
          "name": "projectName",
          "type": "string"
        },
        {
          "internalType": "string",
          "name": "description",
          "type": "string"
        }
      ],
      "name": "safeMint",
      "outputs": [
        {
          "internalType": "uint256",
          "name": "id",
          "type": "uint256"
        }
      ],
      "stateMutability": "nonpayable",
      "type": "function"
    },
    {
      "inputs": [
        {
          "internalType": "address",
          "name": "from",
          "type": "address"
        },
        {
          "internalType": "address",
          "name": "to",
          "type": "address"
        },
        {
          "internalType": "uint256",
          "name": "id",
          "type": "uint256"
        }
      ],
      "name": "safeTransferFrom",
      "outputs": [],
      "stateMutability": "nonpayable",
      "type": "function"
    },
    {
      "inputs": [
        {
          "internalType": "address",
          "name": "from",
          "type": "address"
        },
        {
          "internalType": "address",
          "name": "to",
          "type": "address"
        },
        {
          "internalType": "uint256",
          "name": "id",
          "type": "uint256"
        },
        {
          "internalType": "bytes",
          "name": "data",
          "type": "bytes"
        }
      ],
      "name": "safeTransferFrom",
      "outputs": [],
      "stateMutability": "nonpayable",
      "type": "function"
    },
    {
      "inputs": [
        {
          "internalType": "address",
          "name": "operator",
          "type": "address"
        },
        {
          "internalType": "bool",
          "name": "approved",
          "type": "bool"
        }
      ],
      "name": "setApprovalForAll",
      "outputs": [],
      "stateMutability": "nonpayable",
      "type": "function"
    },
    {
      "inputs": [
        {
          "internalType": "bytes4",
          "name": "interfaceId",
          "type": "bytes4"
        }
      ],
      "name": "supportsInterface",
      "outputs": [
        {
          "internalType": "bool",
          "name": "",
          "type": "bool"
        }
      ],
      "stateMutability": "view",
      "type": "function"
    },
    {
      "inputs": [],
      "name": "symbol",
      "outputs": [
        {
          "internalType": "string",
          "name": "",
          "type": "string"
        }
      ],
      "stateMutability": "view",
      "type": "function"
    },
    {
      "inputs": [
        {
          "internalType": "uint256",
          "name": "",
          "type": "uint256"
        }
      ],
      "name": "tokenIdToInvestmentProposalInfo",
      "outputs": [
        {
          "internalType": "address",
          "name": "daoAddress",
          "type": "address"
        },
        {
          "internalType": "bytes32",
          "name": "investmentProposalId",
          "type": "bytes32"
        },
        {
          "internalType": "uint256",
          "name": "proposalExecutedBlockNum",
          "type": "uint256"
        },
        {
          "internalType": "string",
          "name": "executedTxHash",
          "type": "string"
        },
        {
          "internalType": "uint256",
          "name": "totalInvestedAmount",
          "type": "uint256"
        },
        {
          "internalType": "uint256",
          "name": "myInvestedAmount",
          "type": "uint256"
        },
        {
          "components": [
            {
              "internalType": "address",
              "name": "tokenAddress",
              "type": "address"
            },
            {
              "internalType": "string",
              "name": "tokenSymbol",
              "type": "string"
            },
            {
              "internalType": "string",
              "name": "tokenName",
              "type": "string"
            }
          ],
          "internalType": "struct InvestmentReceiptERC721.ERC20Info",
          "name": "erc20",
          "type": "tuple"
        },
        {
          "internalType": "string",
          "name": "projectName",
          "type": "string"
        },
        {
          "internalType": "string",
          "name": "description",
          "type": "string"
        },
        {
          "internalType": "string",
          "name": "investmentProposalLink",
          "type": "string"
        }
      ],
      "stateMutability": "view",
      "type": "function"
    },
    {
      "inputs": [
        {
          "internalType": "uint256",
          "name": "tokenId",
          "type": "uint256"
        }
      ],
      "name": "tokenURI",
      "outputs": [
        {
          "internalType": "string",
          "name": "",
          "type": "string"
        }
      ],
      "stateMutability": "view",
      "type": "function"
    },
    {
      "inputs": [],
      "name": "totalSupply",
      "outputs": [
        {
          "internalType": "uint256",
          "name": "",
          "type": "uint256"
        }
      ],
      "stateMutability": "view",
      "type": "function"
    },
    {
      "inputs": [
        {
          "internalType": "address",
          "name": "from",
          "type": "address"
        },
        {
          "internalType": "address",
          "name": "to",
          "type": "address"
        },
        {
          "internalType": "uint256",
          "name": "id",
          "type": "uint256"
        }
      ],
      "name": "transferFrom",
      "outputs": [],
      "stateMutability": "nonpayable",
      "type": "function"
    },
    {
      "inputs": [],
      "name": "vintageInvestmentContrAddress",
      "outputs": [
        {
          "internalType": "address",
          "name": "",
          "type": "address"
        }
      ],
      "stateMutability": "view",
      "type": "function"
    }
  ],
  "bytecode": "0x60806040523480156200001157600080fd5b506040516200462c3803806200462c83398101604081905262000034916200023d565b8551869086906200004d906000906020850190620000c7565b50805162000063906001906020840190620000c7565b505060078054336001600160a01b0319918216179091556008805482166001600160a01b039788161790556009805482169587169590951790945550600a8054841692851692909217909155600b8054909216921691909117905550620003409050565b828054620000d590620002ed565b90600052602060002090601f016020900481019282620000f9576000855562000144565b82601f106200011457805160ff191683800117855562000144565b8280016001018555821562000144579182015b828111156200014457825182559160200191906001019062000127565b506200015292915062000156565b5090565b5b8082111562000152576000815560010162000157565b80516001600160a01b03811681146200018557600080fd5b919050565b600082601f8301126200019b578081fd5b81516001600160401b0380821115620001b857620001b86200032a565b604051601f8301601f19908116603f01168101908282118183101715620001e357620001e36200032a565b81604052838152602092508683858801011115620001ff578485fd5b8491505b8382101562000222578582018301518183018401529082019062000203565b838211156200023357848385830101525b9695505050505050565b60008060008060008060c0878903121562000256578182fd5b86516001600160401b03808211156200026d578384fd5b6200027b8a838b016200018a565b9750602089015191508082111562000291578384fd5b50620002a089828a016200018a565b955050620002b1604088016200016d565b9350620002c1606088016200016d565b9250620002d1608088016200016d565b9150620002e160a088016200016d565b90509295509295509295565b600181811c908216806200030257607f821691505b602082108114156200032457634e487b7160e01b600052602260045260246000fd5b50919050565b634e487b7160e01b600052604160045260246000fd5b6142dc80620003506000396000f3fe608060405234801561001057600080fd5b50600436106101975760003560e01c806370a08231116100e3578063b88d4fde1161008c578063e8a3d48511610066578063e8a3d4851461038e578063e985e9c514610396578063ed5d606e146103c457600080fd5b8063b88d4fde1461033f578063c87b56dd14610352578063e32616e61461036557600080fd5b8063a22cb465116100bd578063a22cb46514610306578063a2c5076714610319578063b2bdfa7b1461032c57600080fd5b806370a08231146102c05780638865a249146102d357806395d89b41146102fe57600080fd5b80630e1edcfa116101455780632ab4d0521161011f5780632ab4d0521461029157806342842e0e1461029a5780636352211e146102ad57600080fd5b80630e1edcfa1461025557806318160ddd1461027657806323b872dd1461027e57600080fd5b8063081812fc11610176578063081812fc14610204578063095ea7b31461022d5780630b0ba8651461024257600080fd5b8062979e5f1461019c57806301ffc9a7146101cc57806306fdde03146101ef575b600080fd5b600b546101af906001600160a01b031681565b6040516001600160a01b0390911681526020015b60405180910390f35b6101df6101da366004613730565b6103d7565b60405190151581526020016101c3565b6101f7610474565b6040516101c39190613c5f565b6101af6102123660046138af565b6004602052600090815260409020546001600160a01b031681565b61024061023b3660046135e3565b610502565b005b600a546101af906001600160a01b031681565b6102686102633660046133b7565b610605565b6040519081526020016101c3565b600c54610268565b61024061028c3660046132b0565b611429565b610268600c5481565b6102406102a83660046132b0565b61162b565b6101af6102bb3660046138af565b61173f565b6102686102ce366004613240565b6117a9565b6102686102e136600461370c565b600d60209081526000928352604080842090915290825290205481565b6101f761181d565b61024061031436600461338a565b61182a565b6009546101af906001600160a01b031681565b6007546101af906001600160a01b031681565b61024061034d3660046132f0565b6118b4565b6101f76103603660046138af565b6119b8565b6103786103733660046138af565b611e93565b6040516101c39a99989796959493929190613b8f565b6101f7612252565b6101df6103a4366004613278565b600560209081526000928352604080842090915290825290205460ff1681565b6008546101af906001600160a01b031681565b60007f01ffc9a7000000000000000000000000000000000000000000000000000000006001600160e01b03198316148061043a57507f80ac58cd000000000000000000000000000000000000000000000000000000006001600160e01b03198316145b8061046e57507f5b5e139f000000000000000000000000000000000000000000000000000000006001600160e01b03198316145b92915050565b6000805461048190613eb2565b80601f01602080910402602001604051908101604052809291908181526020018280546104ad90613eb2565b80156104fa5780601f106104cf576101008083540402835291602001916104fa565b820191906000526020600020905b8154815290600101906020018083116104dd57829003601f168201915b505050505081565b6000818152600260205260409020546001600160a01b03163381148061054b57506001600160a01b038116600090815260056020908152604080832033845290915290205460ff165b61059c5760405162461bcd60e51b815260206004820152600e60248201527f4e4f545f415554484f52495a454400000000000000000000000000000000000060448201526064015b60405180910390fd5b600082815260046020526040808220805473ffffffffffffffffffffffffffffffffffffffff19166001600160a01b0387811691821790925591518593918516917f8c5be1e5ebec7d5bd14f71427d1e84f3dd0314c0f7b2291e5b200ac8c7c3b92591a4505050565b6000858152600d6020908152604080832033845290915281205415610656576040517fdfa4c0d500000000000000000000000000000000000000000000000000000000815260040160405180910390fd5b61065e612b07565b60ff8616610a05576008546040517fbf4999940000000000000000000000000000000000000000000000000000000081526001600160a01b038a81166004830152602482018a90529091169063bf4999949060440160006040518083038186803b1580156106cb57600080fd5b505afa1580156106df573d6000803e3d6000fd5b505050506040513d6000823e601f3d908101601f19168201604052610707919081019061346e565b60608a015250505050608085018390525050516001600160a01b0390811660c08401526040517f17ba7d850000000000000000000000000000000000000000000000000000000081527feae11da953333a83b6467e2193334fb302549e1a42ad5797082aea1ab6be9120600482015260009250908a16906317ba7d859060240160206040518083038186803b15801561079f57600080fd5b505afa1580156107b3573d6000803e3d6000fd5b505050506040513d601f19601f820116820180604052508101906107d7919061325c565b6040517e75e7eb0000000000000000000000000000000000000000000000000000000081526001600160a01b038b81166004830152602482018b905233604483015291909116906275e7eb90606401604080518083038186803b15801561083d57600080fd5b505afa158015610851573d6000803e3d6000fd5b505050506040513d601f19601f82011682018060405250810190610875919061360e565b604051632c9f4b5b60e11b81527fb12a3847d47fefceb164b75823af125f9aa82b76938df0ddf08c04cd314ba37c60048201529092508291506001600160a01b038b169063593e96b69060240160206040518083038186803b1580156108da57600080fd5b505afa1580156108ee573d6000803e3d6000fd5b505050506040513d601f19601f82011682018060405250810190610912919061325c565b6001600160a01b0316639e3f2d908a33600187606001516109339190613e54565b6040516001600160e01b031960e086901b16815260048101939093526001600160a01b039091166024830152604482015260640160206040518083038186803b15801561097f57600080fd5b505afa158015610993573d6000803e3d6000fd5b505050506040513d601f19601f820116820180604052508101906109b791906138c7565b6109c19190613e54565b8083526080808401516060810180516040870152910151905190916109e69190613e35565b6109f09190613e15565b82525060808082015101516020820152610f87565b8560ff1660011415610d10576009546040517f5cb752760000000000000000000000000000000000000000000000000000000081526001600160a01b038a81166004830152602482018a905290911690635cb752769060440160006040518083038186803b158015610a7657600080fd5b505afa158015610a8a573d6000803e3d6000fd5b505050506040513d6000823e601f3d908101601f19168201604052610ab2919081019061363b565b60608c015250505050604080880195909552505050506001600160a01b0391821660c084015251632c9f4b5b60e11b81527f161fca6912f107b0f13c9c7275de7391b32d2ea1c52ffba65a3c961880a0c60f60048201529089169063593e96b69060240160206040518083038186803b158015610b2e57600080fd5b505afa158015610b42573d6000803e3d6000fd5b505050506040513d601f19601f82011682018060405250810190610b66919061325c565b6001600160a01b0316610100820181905260c0820151606083015163faaf38b39161decd91610b9790600190613e54565b6040516001600160e01b031960e086901b1681526001600160a01b039384166004820152929091166024830152604482015260640160206040518083038186803b158015610be457600080fd5b505afa158015610bf8573d6000803e3d6000fd5b505050506040513d601f19601f82011682018060405250810190610c1c919061387f565b6fffffffffffffffffffffffffffffffff1681604001518261010001516001600160a01b031663faaf38b3338560c0015160018760600151610c5e9190613e54565b6040516001600160e01b031960e086901b1681526001600160a01b039384166004820152929091166024830152604482015260640160206040518083038186803b158015610cab57600080fd5b505afa158015610cbf573d6000803e3d6000fd5b505050506040513d601f19601f82011682018060405250810190610ce3919061387f565b6fffffffffffffffffffffffffffffffff16610cff9190613e35565b610d099190613e15565b8152610f87565b8560ff1660021415610f8757600a546040517f5cb752760000000000000000000000000000000000000000000000000000000081526001600160a01b038a81166004830152602482018a905290911690635cb752769060440160006040518083038186803b158015610d8157600080fd5b505afa158015610d95573d6000803e3d6000fd5b505050506040513d6000823e601f3d908101601f19168201604052610dbd919081019061379b565b506060870152505050506101208201819052602080820151604080850191909152918201519083015251632c9f4b5b60e11b81527f3909e87234f428ccb8748126e2c93f66a62f92a70d315fa5803dec6362be07ab60048201526001600160a01b0389169063593e96b69060240160206040518083038186803b158015610e4357600080fd5b505afa158015610e57573d6000803e3d6000fd5b505050506040513d601f19601f82011682018060405250810190610e7b919061325c565b6001600160a01b039081166101408301819052610120830151805190921660c08401529051606083015163faaf38b39161decd91610ebb90600190613e54565b6040516001600160e01b031960e086901b1681526001600160a01b039384166004820152929091166024830152604482015260640160206040518083038186803b158015610f0857600080fd5b505afa158015610f1c573d6000803e3d6000fd5b505050506040513d601f19601f82011682018060405250810190610f40919061387f565b6fffffffffffffffffffffffffffffffff1681604001518261014001516001600160a01b031663faaf38b3338561012001516000015160018760600151610c5e9190613e54565b8051610fbf576040517f3ffd124200000000000000000000000000000000000000000000000000000000815260040160405180910390fd5b610fcd600680546001019055565b6000610fd860065490565b9050610fe433826122bb565b6000888152600d602090815260408083203384529091528120829055600c805460019290611013908490613dfd565b909155506000905060ff8816156110a5578760ff1660011461106a576040518060400160405280600a81526020017f636f6c6c656374697665000000000000000000000000000000000000000000008152506110dc565b6040518060400160405280600781526020017f76696e74616765000000000000000000000000000000000000000000000000008152506110dc565b6040518060400160405280600481526020017f666c6578000000000000000000000000000000000000000000000000000000008152505b6110f08b6001600160a01b031660146123ca565b6110f98b612639565b61110660808d901b612639565b6040517f307800000000000000000000000000000000000000000000000000000000000060208201526022810192909252604282015260620160408051601f198184030181529082905261115e93929160200161390b565b60405160208183030381529060405290506040518061014001604052808b6001600160a01b031681526020018a815260200184606001518152602001888152602001846040015181526020018460000151815260200160405180606001604052808660c001516001600160a01b031681526020018660c001516001600160a01b03166395d89b416040518163ffffffff1660e01b815260040160006040518083038186803b15801561120f57600080fd5b505afa158015611223573d6000803e3d6000fd5b505050506040513d6000823e601f3d908101601f1916820160405261124b9190810190613768565b81526020018660c001516001600160a01b03166306fdde036040518163ffffffff1660e01b815260040160006040518083038186803b15801561128d57600080fd5b505afa1580156112a1573d6000803e3d6000fd5b505050506040513d6000823e601f3d908101601f191682016040526112c99190810190613768565b905281526020808201899052604080830189905260609283018590526000868152600e83528190208451815473ffffffffffffffffffffffffffffffffffffffff19166001600160a01b039091161781558483015160018201559084015160028201559183015180516113429260038501920190612c7b565b506080820151600482015560a0820151600582015560c0820151805160068301805473ffffffffffffffffffffffffffffffffffffffff19166001600160a01b0390921691909117815560208083015180516113a49260078701920190612c7b565b50604082015180516113c0916002840191602090910190612c7b565b50505060e082015180516113de916009840191602090910190612c7b565b5061010082015180516113fb91600a840191602090910190612c7b565b50610120820151805161141891600b840191602090910190612c7b565b50929b9a5050505050505050505050565b6000818152600260205260409020546001600160a01b038481169116146114925760405162461bcd60e51b815260206004820152600a60248201527f57524f4e475f46524f4d000000000000000000000000000000000000000000006044820152606401610593565b6001600160a01b0382166114e85760405162461bcd60e51b815260206004820152601160248201527f494e56414c49445f524543495049454e540000000000000000000000000000006044820152606401610593565b336001600160a01b038416148061152257506001600160a01b038316600090815260056020908152604080832033845290915290205460ff165b8061154357506000818152600460205260409020546001600160a01b031633145b61158f5760405162461bcd60e51b815260206004820152600e60248201527f4e4f545f415554484f52495a45440000000000000000000000000000000000006044820152606401610593565b6001600160a01b03808416600081815260036020908152604080832080546000190190559386168083528483208054600101905585835260028252848320805473ffffffffffffffffffffffffffffffffffffffff199081168317909155600490925284832080549092169091559251849392917fddf252ad1be2c89b69c2b068fc378daa952ba7f163c4a11628f55a4df523b3ef91a4505050565b611636838383611429565b6001600160a01b0382163b15806116ee5750604051630a85bd0160e11b8082523360048301526001600160a01b03858116602484015260448301849052608060648401526000608484015290919084169063150b7a029060a401602060405180830381600087803b1580156116aa57600080fd5b505af11580156116be573d6000803e3d6000fd5b505050506040513d601f19601f820116820180604052508101906116e2919061374c565b6001600160e01b031916145b61173a5760405162461bcd60e51b815260206004820152601060248201527f554e534146455f524543495049454e54000000000000000000000000000000006044820152606401610593565b505050565b6000818152600260205260409020546001600160a01b0316806117a45760405162461bcd60e51b815260206004820152600a60248201527f4e4f545f4d494e544544000000000000000000000000000000000000000000006044820152606401610593565b919050565b60006001600160a01b0382166118015760405162461bcd60e51b815260206004820152600c60248201527f5a45524f5f4144445245535300000000000000000000000000000000000000006044820152606401610593565b506001600160a01b031660009081526003602052604090205490565b6001805461048190613eb2565b3360008181526005602090815260408083206001600160a01b0387168085529083529281902080547fffffffffffffffffffffffffffffffffffffffffffffffffffffffffffffff001686151590811790915590519081529192917f17307eab39ab6107e8899845ad3d59bd9653f200f220920489ca2b5937696c31910160405180910390a35050565b6118bf858585611429565b6001600160a01b0384163b15806119655750604051630a85bd0160e11b808252906001600160a01b0386169063150b7a02906119079033908a90899089908990600401613b3e565b602060405180830381600087803b15801561192157600080fd5b505af1158015611935573d6000803e3d6000fd5b505050506040513d601f19601f82011682018060405250810190611959919061374c565b6001600160e01b031916145b6119b15760405162461bcd60e51b815260206004820152601060248201527f554e534146455f524543495049454e54000000000000000000000000000000006044820152606401610593565b5050505050565b6000818152600e6020908152604080832081516101408101835281546001600160a01b0316815260018201549381019390935260028101549183019190915260038101805460609493929183860191611a1090613eb2565b80601f0160208091040260200160405190810160405280929190818152602001828054611a3c90613eb2565b8015611a895780601f10611a5e57610100808354040283529160200191611a89565b820191906000526020600020905b815481529060010190602001808311611a6c57829003601f168201915b505050505081526020016004820154815260200160058201548152602001600682016040518060600160405290816000820160009054906101000a90046001600160a01b03166001600160a01b03166001600160a01b03168152602001600182018054611af590613eb2565b80601f0160208091040260200160405190810160405280929190818152602001828054611b2190613eb2565b8015611b6e5780601f10611b4357610100808354040283529160200191611b6e565b820191906000526020600020905b815481529060010190602001808311611b5157829003601f168201915b50505050508152602001600282018054611b8790613eb2565b80601f0160208091040260200160405190810160405280929190818152602001828054611bb390613eb2565b8015611c005780601f10611bd557610100808354040283529160200191611c00565b820191906000526020600020905b815481529060010190602001808311611be357829003601f168201915b5050505050815250508152602001600982018054611c1d90613eb2565b80601f0160208091040260200160405190810160405280929190818152602001828054611c4990613eb2565b8015611c965780601f10611c6b57610100808354040283529160200191611c96565b820191906000526020600020905b815481529060010190602001808311611c7957829003601f168201915b50505050508152602001600a82018054611caf90613eb2565b80601f0160208091040260200160405190810160405280929190818152602001828054611cdb90613eb2565b8015611d285780601f10611cfd57610100808354040283529160200191611d28565b820191906000526020600020905b815481529060010190602001808311611d0b57829003601f168201915b50505050508152602001600b82018054611d4190613eb2565b80601f0160208091040260200160405190810160405280929190818152602001828054611d6d90613eb2565b8015611dba5780601f10611d8f57610100808354040283529160200191611dba565b820191906000526020600020905b815481529060010190602001808311611d9d57829003601f168201915b505050919092525050600b54606083015160e084015160c085015160200151610120860151608087015160a08801516101008901516040517f2a26c3ef000000000000000000000000000000000000000000000000000000008152999a506001600160a01b0390971698632a26c3ef9850611e389790600401613c72565b60006040518083038186803b158015611e5057600080fd5b505afa158015611e64573d6000803e3d6000fd5b505050506040513d6000823e601f3d908101601f19168201604052611e8c9190810190613768565b9392505050565b600e6020526000908152604090208054600182015460028301546003840180546001600160a01b03909416949293919291611ecd90613eb2565b80601f0160208091040260200160405190810160405280929190818152602001828054611ef990613eb2565b8015611f465780601f10611f1b57610100808354040283529160200191611f46565b820191906000526020600020905b815481529060010190602001808311611f2957829003601f168201915b505050506004830154600584015460408051606081019091526006860180546001600160a01b0316825260078701805496979496939550919290916020840191611f8f90613eb2565b80601f0160208091040260200160405190810160405280929190818152602001828054611fbb90613eb2565b80156120085780601f10611fdd57610100808354040283529160200191612008565b820191906000526020600020905b815481529060010190602001808311611feb57829003601f168201915b5050505050815260200160028201805461202190613eb2565b80601f016020809104026020016040519081016040528092919081815260200182805461204d90613eb2565b801561209a5780601f1061206f5761010080835404028352916020019161209a565b820191906000526020600020905b81548152906001019060200180831161207d57829003601f168201915b505050505081525050908060090180546120b390613eb2565b80601f01602080910402602001604051908101604052809291908181526020018280546120df90613eb2565b801561212c5780601f106121015761010080835404028352916020019161212c565b820191906000526020600020905b81548152906001019060200180831161210f57829003601f168201915b50505050509080600a01805461214190613eb2565b80601f016020809104026020016040519081016040528092919081815260200182805461216d90613eb2565b80156121ba5780601f1061218f576101008083540402835291602001916121ba565b820191906000526020600020905b81548152906001019060200180831161219d57829003601f168201915b50505050509080600b0180546121cf90613eb2565b80601f01602080910402602001604051908101604052809291908181526020018280546121fb90613eb2565b80156122485780601f1061221d57610100808354040283529160200191612248565b820191906000526020600020905b81548152906001019060200180831161222b57829003601f168201915b505050505090508a565b60606122976040518061034001604052806103048152602001613fa361030491396040516020016122839190613a1b565b604051602081830303815290604052612809565b6040516020016122a79190613af9565b604051602081830303815290604052905090565b6122c582826129d4565b6001600160a01b0382163b158061237a5750604051630a85bd0160e11b80825233600483015260006024830181905260448301849052608060648401526084830152906001600160a01b0384169063150b7a029060a401602060405180830381600087803b15801561233657600080fd5b505af115801561234a573d6000803e3d6000fd5b505050506040513d601f19601f8201168201806040525081019061236e919061374c565b6001600160e01b031916145b6123c65760405162461bcd60e51b815260206004820152601060248201527f554e534146455f524543495049454e54000000000000000000000000000000006044820152606401610593565b5050565b606060006123d9836002613e35565b6123e4906002613dfd565b67ffffffffffffffff81111561240a57634e487b7160e01b600052604160045260246000fd5b6040519080825280601f01601f191660200182016040528015612434576020820181803683370190505b5090507f30000000000000000000000000000000000000000000000000000000000000008160008151811061247957634e487b7160e01b600052603260045260246000fd5b60200101907effffffffffffffffffffffffffffffffffffffffffffffffffffffffffffff1916908160001a9053507f7800000000000000000000000000000000000000000000000000000000000000816001815181106124ea57634e487b7160e01b600052603260045260246000fd5b60200101907effffffffffffffffffffffffffffffffffffffffffffffffffffffffffffff1916908160001a9053506000612526846002613e35565b612531906001613dfd565b90505b60018111156125ea577f303132333435363738396162636465660000000000000000000000000000000085600f166010811061258057634e487b7160e01b600052603260045260246000fd5b1a60f81b8282815181106125a457634e487b7160e01b600052603260045260246000fd5b60200101907effffffffffffffffffffffffffffffffffffffffffffffffffffffffffffff1916908160001a90535060049490941c936125e381613e9b565b9050612534565b508315611e8c5760405162461bcd60e51b815260206004820181905260248201527f537472696e67733a20686578206c656e67746820696e73756666696369656e746044820152606401610593565b7aff00000000000000ff00000000000000ff00000000000000ff00006bffffffff0000000000000000604083901c9081167bffffffff00000000000000000000000000000000000000000000000084161760201c6fffffffff000000000000000000000000919091166001600160e01b031984161717601081901c9182167eff00000000000000ff00000000000000ff00000000000000ff000000000000821617600890811c7bff00000000000000ff00000000000000ff00000000000000ff000000939093167fff00000000000000ff00000000000000ff00000000000000ff000000000000009290921691909117919091179081901c7e0f000f000f000f000f000f000f000f000f000f000f000f000f000f000f000f167f0f000f000f000f000f000f000f000f000f000f000f000f000f000f000f000f00600492831c1617906127a5827f0606060606060606060606060606060606060606060606060606060606060606613dfd565b901c7f0f0f0f0f0f0f0f0f0f0f0f0f0f0f0f0f0f0f0f0f0f0f0f0f0f0f0f0f0f0f0f0f1660076127d59190613e35565b6127ff827f3030303030303030303030303030303030303030303030303030303030303030613dfd565b61046e9190613dfd565b606081516000141561282957505060408051602081019091526000815290565b6000604051806060016040528060408152602001613f6360409139905060006003845160026128589190613dfd565b6128629190613e15565b61286d906004613e35565b9050600061287c826020613dfd565b67ffffffffffffffff8111156128a257634e487b7160e01b600052604160045260246000fd5b6040519080825280601f01601f1916602001820160405280156128cc576020820181803683370190505b509050818152600183018586518101602084015b8183101561293a5760039283018051603f601282901c811687015160f890811b8552600c83901c8216880151811b6001860152600683901c8216880151811b60028601529116860151901b938201939093526004016128e0565b600389510660018114612954576002811461299e576129c6565b7f3d3d0000000000000000000000000000000000000000000000000000000000007ffffffffffffffffffffffffffffffffffffffffffffffffffffffffffffffffe8301526129c6565b7f3d000000000000000000000000000000000000000000000000000000000000006000198301525b509398975050505050505050565b6001600160a01b038216612a2a5760405162461bcd60e51b815260206004820152601160248201527f494e56414c49445f524543495049454e540000000000000000000000000000006044820152606401610593565b6000818152600260205260409020546001600160a01b031615612a8f5760405162461bcd60e51b815260206004820152600e60248201527f414c52454144595f4d494e5445440000000000000000000000000000000000006044820152606401610593565b6001600160a01b0382166000818152600360209081526040808320805460010190558483526002909152808220805473ffffffffffffffffffffffffffffffffffffffff19168417905551839291907fddf252ad1be2c89b69c2b068fc378daa952ba7f163c4a11628f55a4df523b3ef908290a45050565b60405180610160016040528060008152602001600081526020016000815260200160008152602001612bc0604051806101a0016040528060006001600160a01b031681526020016000815260200160008152602001600081526020016000815260200160001515815260200160006001600160a01b031681526020016000815260200160008152602001600081526020016000815260200160006001600160a01b0316815260200160006001600160a01b031681525090565b8152602001612c056040518060e00160405280606081526020016060815260200160008152602001600081526020016000815260200160008152602001600081525090565b815260200160006001600160a01b031681526020016000815260200160006001600160a01b03168152602001612c6e604051806080016040528060006001600160a01b03168152602001600081526020016000815260200160006001600160a01b031681525090565b8152600060209091015290565b828054612c8790613eb2565b90600052602060002090601f016020900481019282612ca95760008555612cef565b82601f10612cc257805160ff1916838001178555612cef565b82800160010185558215612cef579182015b82811115612cef578251825591602001919060010190612cd4565b50612cfb929150612cff565b5090565b5b80821115612cfb5760008155600101612d00565b80516117a481613f19565b80516117a481613f31565b8051600281106117a457600080fd5b8051600581106117a457600080fd5b600082601f830112612d58578081fd5b8135612d6b612d6682613dd5565b613da4565b818152846020838601011115612d7f578283fd5b816020850160208301379081016020019190915292915050565b600082601f830112612da9578081fd5b8151612db7612d6682613dd5565b818152846020838601011115612dcb578283fd5b612ddc826020830160208701613e6b565b949350505050565b600060a08284031215612df5578081fd5b612dfd613ced565b90508151612e0a81613f31565b81526020820151612e1a81613f19565b8060208301525060408201516040820152606082015160608201526080820151612e4381613f19565b608082015292915050565b60006102008284031215612e60578081fd5b604051610100810181811067ffffffffffffffff82111715612e8457612e84613f03565b604052905080612e9383612d2a565b815260208301516020820152604083015160408201526060830151606082015260808301516080820152612ec960a08401612d1f565b60a0820152612edb8460c08501612efa565b60c0820152612eee846101608501612f6d565b60e08201525092915050565b600060a08284031215612f0b578081fd5b612f13613ced565b90508151612f2081613f55565b8152602082015163ffffffff81168114612f3957600080fd5b60208201526040820151612f4c81613f19565b80604083015250606082015160608201526080820151608082015292915050565b600060a08284031215612f7e578081fd5b612f86613ced565b90508151612f9381613f31565b81526020820151612f3981613f55565b600060c08284031215612fb4578081fd5b60405160c0810181811067ffffffffffffffff82111715612fd757612fd7613f03565b80604052508091508251612fea81613f31565b81526020830151612ffa81613f19565b602082015260408381015190820152606083015161301781613f19565b6060820152608083015161302a81613f31565b608082015260a083015161303d81613f19565b60a0919091015292915050565b60006080828403121561305b578081fd5b613063613d16565b90508151815260208201516020820152604082015160408201526060820151606082015292915050565b60006040828403121561309e578081fd5b6040516040810181811067ffffffffffffffff821117156130c1576130c1613f03565b604052825181526020928301519281019290925250919050565b600061012082840312156130ed578081fd5b6130f5613d39565b9050815181526020820151602082015260408201516040820152606082015160608201526080820151608082015261312f60a08301612d1f565b60a082015261314060c08301612d14565b60c082015260e082015167ffffffffffffffff8082111561316057600080fd5b61316c85838601612d99565b60e08401526101009150818401518181111561318757600080fd5b61319386828701612d99565b8385015250505092915050565b600060e082840312156131b1578081fd5b6131b9613d5d565b9050815167ffffffffffffffff808211156131d357600080fd5b6131df85838601612d99565b835260208401519150808211156131f557600080fd5b5061320284828501612d99565b60208301525060408201516040820152606082015160608201526080820151608082015260a082015160a082015260c082015160c082015292915050565b600060208284031215613251578081fd5b8135611e8c81613f19565b60006020828403121561326d578081fd5b8151611e8c81613f19565b6000806040838503121561328a578081fd5b823561329581613f19565b915060208301356132a581613f19565b809150509250929050565b6000806000606084860312156132c4578081fd5b83356132cf81613f19565b925060208401356132df81613f19565b929592945050506040919091013590565b600080600080600060808688031215613307578283fd5b853561331281613f19565b9450602086013561332281613f19565b935060408601359250606086013567ffffffffffffffff80821115613345578283fd5b818801915088601f830112613358578283fd5b813581811115613366578384fd5b896020828501011115613377578384fd5b9699959850939650602001949392505050565b6000806040838503121561339c578182fd5b82356133a781613f19565b915060208301356132a581613f31565b60008060008060008060c087890312156133cf578384fd5b86356133da81613f19565b955060208701359450604087013560ff811681146133f6578485fd5b9350606087013567ffffffffffffffff80821115613412578283fd5b61341e8a838b01612d48565b94506080890135915080821115613433578283fd5b61343f8a838b01612d48565b935060a0890135915080821115613454578283fd5b5061346189828a01612d48565b9150509295509295509295565b6000806000806000806000806000898b036104a081121561348d578788fd5b8a5161349881613f19565b99506101a0601f1982018113156134ad578889fd5b6134b5613d80565b91506134c360208d01612d14565b825260408c0151602083015260608c0151604083015260808c0151606083015260a08c015160808301526134f960c08d01612d1f565b60a083015261350a60e08d01612d14565b60c0830152610100808d015160e0840152610120808e0151828501526101409150818e01518185015250610160808e015182850152610180915061354f828f01612d14565b9084015261355e8d8301612d14565b90830152506101c08b015190985067ffffffffffffffff811115613580578788fd5b61358c8c828d016130db565b97505061359d8b6101e08c01612e4e565b95506135ad8b6103e08c0161308d565b94506104208a015193506104408a015192506135cc6104608b01612d39565b91506104808a015190509295985092959850929598565b600080604083850312156135f5578182fd5b823561360081613f19565b946020939093013593505050565b60008060408385031215613620578182fd5b825161362b81613f19565b6020939093015192949293505050565b60008060008060008060008060008060006102608c8e03121561365c578485fd5b8b5161366781613f19565b809b505060208c0151995060408c0151985060608c0151975060808c015161368e81613f19565b965061369c60a08d01612d14565b95506136aa60c08d01612d39565b945060e08c015167ffffffffffffffff8111156136c5578283fd5b6136d18e828f016131a0565b9450506136e28d6101008e01612fa3565b92506136f28d6101c08e0161304a565b91506102408c015190509295989b509295989b9093969950565b6000806040838503121561371e578182fd5b8235915060208301356132a581613f19565b600060208284031215613741578081fd5b8135611e8c81613f3f565b60006020828403121561375d578081fd5b8151611e8c81613f3f565b600060208284031215613779578081fd5b815167ffffffffffffffff81111561378f578182fd5b612ddc84828501612d99565b60008060008060008060008789036101e08112156137b7578182fd5b60808112156137c4578182fd5b506137cd613d16565b88516137d881613f19565b80825250602089015160208201526040890151604082015260608901516137fe81613f19565b606082015296506138128960808a01612de4565b955061012088015167ffffffffffffffff81111561382e578182fd5b61383a8a828b016130db565b95505061384b896101408a0161308d565b935061385a6101808901612d14565b92506101a088015191506138716101c08901612d39565b905092959891949750929550565b600060208284031215613890578081fd5b81516fffffffffffffffffffffffffffffffff81168114611e8c578182fd5b6000602082840312156138c0578081fd5b5035919050565b6000602082840312156138d8578081fd5b5051919050565b600081518084526138f7816020860160208601613e6b565b601f01601f19169290920160200192915050565b7f68747470733a2f2f67726170682e70686f656e69782e66692f76656e7475726581527f64616f732f000000000000000000000000000000000000000000000000000000602082015260008451613969816025850160208901613e6b565b7f2f0000000000000000000000000000000000000000000000000000000000000060259184019182015284516139a6816026840160208901613e6b565b7f2f70726f706f73616c732f0000000000000000000000000000000000000000006026929091019182015283516139e4816031840160208801613e6b565b7f2f696e766573746d656e7400000000000000000000000000000000000000000060319290910191820152603c0195945050505050565b7f7b226e616d65223a202244414f53717561726520496e766573746d656e74205281527f656365697074222c226465736372697074696f6e223a22000000000000000000602082015260008251613a79816037850160208701613e6b565b7f222c22696d616765223a2268747470733a2f2f692e6962622e636f2f4a784e6360379390910192830152507f6d66342f436f6c6c656374696f6e2d4c6f676f2e706e67222c2265787465726e60578201527f616c5f6c696e6b223a2268747470733a2f2f64616f7371756172652e6669227d6077820152609701919050565b7f646174613a6170706c69636174696f6e2f6a736f6e3b6261736536342c000000815260008251613b3181601d850160208701613e6b565b91909101601d0192915050565b60006001600160a01b03808816835280871660208401525084604083015260806060830152826080830152828460a084013781830160a090810191909152601f909201601f19160101949350505050565b60006101406001600160a01b03808e1684528c60208501528b6040850152816060850152613bbf8285018c6138df565b91508960808501528860a085015283820360c085015280885116825250602087015160606020830152613bf560608301826138df565b905060408801518282036040840152613c0e82826138df565b9250505082810360e0840152613c2481876138df565b9050828103610100840152613c3981866138df565b9050828103610120840152613c4e81856138df565b9d9c50505050505050505050505050565b602081526000611e8c60208301846138df565b60e081526000613c8560e083018a6138df565b8281036020840152613c97818a6138df565b90508281036040840152613cab81896138df565b90508281036060840152613cbf81886138df565b90508560808401528460a084015282810360c0840152613cdf81856138df565b9a9950505050505050505050565b60405160a0810167ffffffffffffffff81118282101715613d1057613d10613f03565b60405290565b6040516080810167ffffffffffffffff81118282101715613d1057613d10613f03565b604051610120810167ffffffffffffffff81118282101715613d1057613d10613f03565b60405160e0810167ffffffffffffffff81118282101715613d1057613d10613f03565b6040516101a0810167ffffffffffffffff81118282101715613d1057613d10613f03565b604051601f8201601f1916810167ffffffffffffffff81118282101715613dcd57613dcd613f03565b604052919050565b600067ffffffffffffffff821115613def57613def613f03565b50601f01601f191660200190565b60008219821115613e1057613e10613eed565b500190565b600082613e3057634e487b7160e01b81526012600452602481fd5b500490565b6000816000190483118215151615613e4f57613e4f613eed565b500290565b600082821015613e6657613e66613eed565b500390565b60005b83811015613e86578181015183820152602001613e6e565b83811115613e95576000848401525b50505050565b600081613eaa57613eaa613eed565b506000190190565b600181811c90821680613ec657607f821691505b60208210811415613ee757634e487b7160e01b600052602260045260246000fd5b50919050565b634e487b7160e01b600052601160045260246000fd5b634e487b7160e01b600052604160045260246000fd5b6001600160a01b0381168114613f2e57600080fd5b50565b8015158114613f2e57600080fd5b6001600160e01b031981168114613f2e57600080fd5b60048110613f2e57600080fdfe4142434445464748494a4b4c4d4e4f505152535455565758595a6162636465666768696a6b6c6d6e6f707172737475767778797a303132333435363738392b2f546865204e46547320696e207468652044414f53717561726520496e766573746d656e74205265636569707420436f6c6c656374696f6e206172652067656e6572617465642066726f6d20696e766573746d656e7473206d6164652062792056656e747572652044414f7320696e207468652044414f53717561726520496e63756261746f722c2077686963682061637469766174656420746865204e46542066756e6374696f6e20574954484f5554207573696e672074686520457363726f772046756e6374696f6e2e2045616368204e465420726570726573656e747320616e20696e766573746f72e280997320696e766573746d656e74207265636f7264206f6620696e76657374696e6720696e20612050726f6a656374207468726f75676820612044414f20696e2044414f53717561726520496e63756261746f722c206c696b65206120726563656970742e20596f752063616e2076696577207468652064796e616d696320646174612028696d6167652920616e642070726f7065727469657320696e666f726d6174696f6e206f662065616368204e465420746f20636865636b207768657468657220746865204e46542069732063757272656e746c792076616c696420616e642074686520696e766573746d656e74207265636f7264732e205468652050726f6a656374206f722044414f206d61792070726f6d69736520746f20676976652062656e656669747320746f204e465420686f6c646572732c207265676172646c657373206f6620746865206f726967696e616c20696e766573746f722e20204e46547320696e207468697320636f6c6c656374696f6e20617265207472616e7366657261626c652e20205468652066756c66696c6c6d656e74206f6620616e792070726f6d697365206261736564206f6e20746865204e465420646570656e6473206f6e207468652070726f6d69736572202850726f6a656374206f722044414f292c20776869636820746865204e465420697473656c662063616e6e6f742067756172616e74656520746563686e6963616c6c792ea2646970667358221220719eed14e98f70ab8bfb53630ee2c7307dbc06d6d6b62dbfaf2e33037c41609464736f6c63430008040033",
  "linkReferences": {},
  "deployedLinkReferences": {}
}