{
  "_format": "hh-sol-artifact-1",
  "contractName": "ColletiveFundingPoolAdapterContract",
  "sourceName": "contracts/collective/adapters/CollectiveFundingPoolAdapter.sol",
  "abi": [
    {
      "inputs": [],
      "name": "ACCESS_DENIED",
      "type": "error"
    },
    {
      "inputs": [],
      "name": "AMOUNT_EXCEED_FUND_RAISING_DEPOSIT",
      "type": "error"
    },
    {
      "inputs": [],
      "name": "EXECUTED_ALREADY",
      "type": "error"
    },
    {
      "inputs": [],
      "name": "FUNDRAISE_ENDTIME_NOT_UP",
      "type": "error"
    },
    {
      "inputs": [],
      "name": "GREATER_MAX_DEPOSIT_AMOUNT",
      "type": "error"
    },
    {
      "inputs": [],
      "name": "GREATER_MAX_FUND_RAISE_AMOUNT",
      "type": "error"
    },
    {
      "inputs": [],
      "name": "INSUFFICIENT_ALLOWANCE",
      "type": "error"
    },
    {
      "inputs": [],
      "name": "INSUFFICIENT_FUND",
      "type": "error"
    },
    {
      "inputs": [],
      "name": "INVALID_AMOUNT",
      "type": "error"
    },
    {
      "inputs": [],
      "name": "INVESTMENT_GRACE_PERIOD",
      "type": "error"
    },
    {
      "inputs": [],
      "name": "LESS_MIN_DEPOSIT_AMOUNT",
      "type": "error"
    },
    {
      "inputs": [],
      "name": "MAX_PATICIPANT_AMOUNT_REACH",
      "type": "error"
    },
    {
      "inputs": [],
      "name": "NOT_CLEAR_FUND_TIME",
      "type": "error"
    },
    {
      "inputs": [],
      "name": "NOT_IN_FUND_RAISE_WINDOW",
      "type": "error"
    },
    {
      "anonymous": false,
      "inputs": [
        {
          "indexed": false,
          "internalType": "address",
          "name": "daoAddress",
          "type": "address"
        },
        {
          "indexed": false,
          "internalType": "uint256",
          "name": "escrowAmount",
          "type": "uint256"
        },
        {
          "indexed": false,
          "internalType": "address",
          "name": "executer",
          "type": "address"
        }
      ],
      "name": "ClearFund",
      "type": "event"
    },
    {
      "anonymous": false,
      "inputs": [
        {
          "indexed": false,
          "internalType": "address",
          "name": "daoAddress",
          "type": "address"
        },
        {
          "indexed": false,
          "internalType": "uint256",
          "name": "amount",
          "type": "uint256"
        },
        {
          "indexed": false,
          "internalType": "address",
          "name": "account",
          "type": "address"
        }
      ],
      "name": "Deposit",
      "type": "event"
    },
    {
      "anonymous": false,
      "inputs": [
        {
          "indexed": false,
          "internalType": "address",
          "name": "daoAddress",
          "type": "address"
        },
        {
          "indexed": false,
          "internalType": "address",
          "name": "account",
          "type": "address"
        },
        {
          "indexed": false,
          "internalType": "uint256",
          "name": "receivedAmount",
          "type": "uint256"
        }
      ],
      "name": "DistributeRedemptionFee",
      "type": "event"
    },
    {
      "anonymous": false,
      "inputs": [
        {
          "indexed": false,
          "internalType": "address",
          "name": "daoAddress",
          "type": "address"
        },
        {
          "indexed": false,
          "internalType": "enum ColletiveFundingPoolAdapterContract.FundState",
          "name": "state",
          "type": "uint8"
        },
        {
          "indexed": false,
          "internalType": "uint256",
          "name": "totalRaised",
          "type": "uint256"
        }
      ],
      "name": "ProcessFundRaise",
      "type": "event"
    },
    {
      "anonymous": false,
      "inputs": [
        {
          "indexed": false,
          "internalType": "address",
          "name": "daoAddress",
          "type": "address"
        },
        {
          "indexed": false,
          "internalType": "uint256",
          "name": "amount",
          "type": "uint256"
        },
        {
          "indexed": false,
          "internalType": "address",
          "name": "account",
          "type": "address"
        }
      ],
      "name": "WithDraw",
      "type": "event"
    },
    {
      "inputs": [
        {
          "internalType": "address",
          "name": "",
          "type": "address"
        }
      ],
      "name": "accumulateRaiseAmount",
      "outputs": [
        {
          "internalType": "uint256",
          "name": "",
          "type": "uint256"
        }
      ],
      "stateMutability": "view",
      "type": "function"
    },
    {
      "inputs": [
        {
          "internalType": "contract DaoRegistry",
          "name": "dao",
          "type": "address"
        },
        {
          "internalType": "address",
          "name": "investorAddr",
          "type": "address"
        }
      ],
      "name": "balanceOf",
      "outputs": [
        {
          "internalType": "uint256",
          "name": "",
          "type": "uint256"
        }
      ],
      "stateMutability": "view",
      "type": "function"
    },
    {
      "inputs": [
        {
          "internalType": "contract DaoRegistry",
          "name": "dao",
          "type": "address"
        }
      ],
      "name": "clearFund",
      "outputs": [],
      "stateMutability": "nonpayable",
      "type": "function"
    },
    {
      "inputs": [
        {
          "internalType": "contract DaoRegistry",
          "name": "dao",
          "type": "address"
        },
        {
          "internalType": "uint256",
          "name": "amount",
          "type": "uint256"
        }
      ],
      "name": "deposit",
      "outputs": [],
      "stateMutability": "nonpayable",
      "type": "function"
    },
    {
      "inputs": [
        {
          "internalType": "address",
          "name": "",
          "type": "address"
        },
        {
          "internalType": "bytes32",
          "name": "",
          "type": "bytes32"
        }
      ],
      "name": "freeINPriorityDeposits",
      "outputs": [
        {
          "internalType": "uint256",
          "name": "",
          "type": "uint256"
        }
      ],
      "stateMutability": "view",
      "type": "function"
    },
    {
      "inputs": [
        {
          "internalType": "address",
          "name": "",
          "type": "address"
        },
        {
          "internalType": "bytes32",
          "name": "",
          "type": "bytes32"
        }
      ],
      "name": "fundRaisedByProposalId",
      "outputs": [
        {
          "internalType": "uint256",
          "name": "",
          "type": "uint256"
        }
      ],
      "stateMutability": "view",
      "type": "function"
    },
    {
      "inputs": [
        {
          "internalType": "address",
          "name": "",
          "type": "address"
        }
      ],
      "name": "fundState",
      "outputs": [
        {
          "internalType": "enum ColletiveFundingPoolAdapterContract.FundState",
          "name": "",
          "type": "uint8"
        }
      ],
      "stateMutability": "view",
      "type": "function"
    },
    {
      "inputs": [
        {
          "internalType": "contract DaoRegistry",
          "name": "dao",
          "type": "address"
        }
      ],
      "name": "getAllInvestors",
      "outputs": [
        {
          "internalType": "address[]",
          "name": "",
          "type": "address[]"
        }
      ],
      "stateMutability": "view",
      "type": "function"
    },
    {
      "inputs": [
        {
          "internalType": "address",
          "name": "",
          "type": "address"
        },
        {
          "internalType": "bytes32",
          "name": "",
          "type": "bytes32"
        },
        {
          "internalType": "address",
          "name": "",
          "type": "address"
        }
      ],
      "name": "investorsDepositAmountByFundRaise",
      "outputs": [
        {
          "internalType": "uint256",
          "name": "",
          "type": "uint256"
        }
      ],
      "stateMutability": "view",
      "type": "function"
    },
    {
      "inputs": [
        {
          "internalType": "address",
          "name": "",
          "type": "address"
        }
      ],
      "name": "liquidationId",
      "outputs": [
        {
          "internalType": "uint256",
          "name": "",
          "type": "uint256"
        }
      ],
      "stateMutability": "view",
      "type": "function"
    },
    {
      "inputs": [
        {
          "internalType": "contract DaoRegistry",
          "name": "dao",
          "type": "address"
        }
      ],
      "name": "poolBalance",
      "outputs": [
        {
          "internalType": "uint256",
          "name": "",
          "type": "uint256"
        }
      ],
      "stateMutability": "view",
      "type": "function"
    },
    {
      "inputs": [
        {
          "internalType": "address",
          "name": "",
          "type": "address"
        },
        {
          "internalType": "bytes32",
          "name": "",
          "type": "bytes32"
        },
        {
          "internalType": "address",
          "name": "",
          "type": "address"
        }
      ],
      "name": "priorityDepositers",
      "outputs": [
        {
          "internalType": "bool",
          "name": "",
          "type": "bool"
        }
      ],
      "stateMutability": "view",
      "type": "function"
    },
    {
      "inputs": [
        {
          "internalType": "contract DaoRegistry",
          "name": "dao",
          "type": "address"
        }
      ],
      "name": "processFundRaise",
      "outputs": [
        {
          "internalType": "bool",
          "name": "",
          "type": "bool"
        }
      ],
      "stateMutability": "nonpayable",
      "type": "function"
    },
    {
      "inputs": [],
      "name": "protocolFee",
      "outputs": [
        {
          "internalType": "uint256",
          "name": "",
          "type": "uint256"
        }
      ],
      "stateMutability": "view",
      "type": "function"
    },
    {
      "inputs": [
        {
          "internalType": "contract DaoRegistry",
          "name": "dao",
          "type": "address"
        }
      ],
      "name": "resetFundRaiseState",
      "outputs": [],
      "stateMutability": "nonpayable",
      "type": "function"
    },
    {
      "inputs": [
        {
          "internalType": "address",
          "name": "",
          "type": "address"
        }
      ],
      "name": "resetFundStateBlockNum",
      "outputs": [
        {
          "internalType": "uint256",
          "name": "",
          "type": "uint256"
        }
      ],
      "stateMutability": "view",
      "type": "function"
    },
    {
      "inputs": [
        {
          "internalType": "contract DaoRegistry",
          "name": "dao",
          "type": "address"
        },
        {
          "internalType": "address",
          "name": "account",
          "type": "address"
        },
        {
          "internalType": "bool",
          "name": "redempitonFee",
          "type": "bool"
        }
      ],
      "name": "returnFundToQuitGovernor",
      "outputs": [
        {
          "internalType": "bool",
          "name": "",
          "type": "bool"
        }
      ],
      "stateMutability": "nonpayable",
      "type": "function"
    },
    {
      "inputs": [
        {
          "internalType": "contract DaoRegistry",
          "name": "dao",
          "type": "address"
        },
        {
          "internalType": "uint256",
          "name": "feeProtocol",
          "type": "uint256"
        }
      ],
      "name": "setProtocolFee",
      "outputs": [],
      "stateMutability": "nonpayable",
      "type": "function"
    },
    {
      "inputs": [
        {
          "internalType": "contract DaoRegistry",
          "name": "dao",
          "type": "address"
        },
        {
          "internalType": "uint256",
          "name": "amount",
          "type": "uint256"
        }
      ],
      "name": "withdraw",
      "outputs": [],
      "stateMutability": "nonpayable",
      "type": "function"
    }
  ],
  "bytecode": "0x6080604052660aa87bee538000600a5534801561001b57600080fd5b506158d6806200002c6000396000f3fe608060405234801561001057600080fd5b50600436106101515760003560e01c8063861f6752116100cd578063d5d7d2df11610081578063f3fef3a311610066578063f3fef3a31461034d578063f5a9b5d914610360578063f7888aec1461038b57600080fd5b8063d5d7d2df14610327578063f10e6b6b1461033a57600080fd5b8063b0936452116100b2578063b0936452146102eb578063b0e21e8a1461030b578063b5b3ca2c1461031457600080fd5b8063861f6752146102ad57806396609c42146102d857600080fd5b806350d9e6881161012457806368abb5e01161010957806368abb5e01461025657806381227bf11461026957806383cffffe1461029a57600080fd5b806350d9e688146101f25780635e1d06061461021257600080fd5b80630c916bae146101565780630cf6aae71461018f5780631c0ecc7f146101bd57806347e7ef24146101dd575b600080fd5b6101796101643660046154a5565b60036020526000908152604090205460ff1681565b6040516101869190615794565b60405180910390f35b6101af61019d3660046154a5565b60096020526000908152604090205481565b604051908152602001610186565b6101af6101cb3660046154a5565b60056020526000908152604090205481565b6101f06101eb3660046156e8565b61039e565b005b6102056102003660046154a5565b6111e1565b6040516101869190615747565b610246610220366004615508565b600860209081526000938452604080852082529284528284209052825290205460ff1681565b6040519015158152602001610186565b6101af6102643660046154a5565b61120b565b6101af610277366004615508565b600260209081526000938452604080852082529284528284209052825290205481565b6101f06102a83660046154a5565b61132a565b6101af6102bb3660046154dd565b600660209081526000928352604080842090915290825290205481565b6102466102e63660046154a5565b611ad9565b6101af6102f93660046154a5565b60046020526000908152604090205481565b6101af600a5481565b6101f06103223660046156e8565b611ed2565b6102466103353660046156a9565b611f37565b6101f06103483660046154a5565b612326565b6101f061035b3660046156e8565b612463565b6101af61036e3660046154dd565b600760209081526000928352604080842090915290825290205481565b6101af610399366004615671565b612ec3565b8160006103aa82612fe4565b9050600083116103e6576040517ffae8279100000000000000000000000000000000000000000000000000000000815260040160405180910390fd5b61042a6040518060a0016040528060008152602001600081526020016000815260200160006001600160a01b0316815260200160006001600160a01b031681525090565b6040516317ba7d8560e01b81527f3a06648a49edffe95b8384794dfe9cf3ab34782fab0130b4c91bfd53f3407e6b60048201526001600160a01b038616906317ba7d859060240160206040518083038186803b15801561048957600080fd5b505afa15801561049d573d6000803e3d6000fd5b505050506040513d601f19601f820116820180604052508101906104c191906154c1565b6001600160a01b039081166080830152604051634941d71d60e11b81527f5fa39c8100b49336846e52d39403e353bf782275f905a885f09224779ff1c924600482015290861690639283ae3a9060240160206040518083038186803b15801561052957600080fd5b505afa15801561053d573d6000803e3d6000fd5b505050506040513d601f19601f820116820180604052508101906105619190615659565b8152604051634941d71d60e11b81527fbdd40865e74210f0a46799ae63462c62010da92014a08cbc32f1d049d0a22c6b60048201526001600160a01b03861690639283ae3a9060240160206040518083038186803b1580156105c257600080fd5b505afa1580156105d6573d6000803e3d6000fd5b505050506040513d601f19601f820116820180604052508101906105fa9190615659565b602082015260808101516040516301c22a3d60e01b81526001600160a01b03878116600483015260009216906301c22a3d9060240160206040518083038186803b15801561064757600080fd5b505afa15801561065b573d6000803e3d6000fd5b505050506040513d601f19601f8201168201806040525081019061067f9190615659565b604051634941d71d60e11b81527f7e07fb4530796d057ca1d76d83f47aa8629dbb7e942ac28f30ad6f5e9e8d418960048201529091506001600160a01b03871690639283ae3a9060240160206040518083038186803b1580156106e157600080fd5b505afa1580156106f5573d6000803e3d6000fd5b505050506040513d601f19601f820116820180604052508101906107199190615659565b6040830152602082015115610766578160200151851015610766576040517f0f3fbd1c00000000000000000000000000000000000000000000000000000000815260040160405180910390fd5b8151156107dd5781516001600160a01b038716600090815260026020908152604080832085845282528083203384529091529020546107a590876157a2565b11156107dd576040517f75d3208400000000000000000000000000000000000000000000000000000000815260040160405180910390fd5b604051634941d71d60e11b81527fbd04d44792b7dbfe3b50b0f9f2006f7ef449e374a39021cb9bfa7cd0bdd850d7600482015242906001600160a01b03881690639283ae3a9060240160206040518083038186803b15801561083e57600080fd5b505afa158015610852573d6000803e3d6000fd5b505050506040513d601f19601f820116820180604052508101906108769190615659565b11806109185750604051634941d71d60e11b81527f533afc15b6312917b5e28e2272ea69d44e5ea8e00d3bd57cada1275c2f14c9e8600482015242906001600160a01b03881690639283ae3a9060240160206040518083038186803b1580156108de57600080fd5b505afa1580156108f2573d6000803e3d6000fd5b505050506040513d601f19601f820116820180604052508101906109169190615659565b105b1561094f576040517fa8ec9ad500000000000000000000000000000000000000000000000000000000815260040160405180910390fd5b604051634941d71d60e11b81527ff301d5aec67a9d816d38f9b645cac1e79a3308ff9803564bbe63a862db82f46b60048201526001600160a01b03871690639283ae3a9060240160206040518083038186803b1580156109ae57600080fd5b505afa1580156109c2573d6000803e3d6000fd5b505050506040513d601f19601f820116820180604052508101906109e69190615659565b1580156109f7575060008260400151115b15610a68576040808301516001600160a01b03881660009081526007602090815283822085835290529190912054610a309087906157a2565b1115610a68576040517fd3b07c5200000000000000000000000000000000000000000000000000000000815260040160405180910390fd5b604051632c9f4b5b60e11b81527f3909e87234f428ccb8748126e2c93f66a62f92a70d315fa5803dec6362be07ab60048201526001600160a01b0387169063593e96b69060240160206040518083038186803b158015610ac757600080fd5b505afa158015610adb573d6000803e3d6000fd5b505050506040513d601f19601f82011682018060405250810190610aff91906154c1565b6001600160a01b03166060830152610b188682336132cd565b15610b4f576040517ffa088e8a00000000000000000000000000000000000000000000000000000000815260040160405180910390fd5b600082606001516001600160a01b031663a87af66c6040518163ffffffff1660e01b815260040160206040518083038186803b158015610b8e57600080fd5b505afa158015610ba2573d6000803e3d6000fd5b505050506040513d601f19601f82011682018060405250810190610bc691906154c1565b6040516370a0823160e01b815233600482015290915086906001600160a01b038316906370a082319060240160206040518083038186803b158015610c0a57600080fd5b505afa158015610c1e573d6000803e3d6000fd5b505050506040513d601f19601f82011682018060405250810190610c429190615659565b1015610c7a576040517f5cabbf5000000000000000000000000000000000000000000000000000000000815260040160405180910390fd5b6040517fdd62ed3e00000000000000000000000000000000000000000000000000000000815233600482015230602482015286906001600160a01b0383169063dd62ed3e9060440160206040518083038186803b158015610cda57600080fd5b505afa158015610cee573d6000803e3d6000fd5b505050506040513d601f19601f82011682018060405250810190610d129190615659565b1015610d4a576040517f0fd3919300000000000000000000000000000000000000000000000000000000815260040160405180910390fd5b6040517f23b872dd000000000000000000000000000000000000000000000000000000008152336004820152306024820152604481018790526001600160a01b038216906323b872dd90606401602060405180830381600087803b158015610db157600080fd5b505af1158015610dc5573d6000803e3d6000fd5b505050506040513d601f19601f82011682018060405250810190610de99190615610565b50604051632c9f4b5b60e11b81527f3909e87234f428ccb8748126e2c93f66a62f92a70d315fa5803dec6362be07ab60048201526001600160a01b038083169163095ea7b3918a169063593e96b69060240160206040518083038186803b158015610e5357600080fd5b505afa158015610e67573d6000803e3d6000fd5b505050506040513d601f19601f82011682018060405250810190610e8b91906154c1565b6040516001600160e01b031960e084901b1681526001600160a01b03909116600482015260248101899052604401602060405180830381600087803b158015610ed357600080fd5b505af1158015610ee7573d6000803e3d6000fd5b505050506040513d601f19601f82011682018060405250810190610f0b9190615610565b5060608301516040517fb08079a6000000000000000000000000000000000000000000000000000000008152336004820152602481018890526001600160a01b039091169063b08079a690604401600060405180830381600087803b158015610f7357600080fd5b505af1158015610f87573d6000803e3d6000fd5b50505050610f9587336136b1565b6001600160a01b03871660009081526001602090815260408083208584529091529020610fc290336137f2565b610ff5576001600160a01b03871660009081526001602090815260408083208584529091529020610ff39033613814565b505b60808301516040517f6d3cc0400000000000000000000000000000000000000000000000000000000081526001600160a01b0389811660048301526024820185905233604483015290911690636d3cc0409060640160206040518083038186803b15801561106257600080fd5b505afa158015611076573d6000803e3d6000fd5b505050506040513d601f19601f8201168201806040525081019061109a9190615610565b1561110e576001600160a01b0387166000908152600660209081526040808320858452909152812080548892906110d29084906157a2565b90915550506001600160a01b038716600090815260086020908152604080832085845282528083203384529091529020805460ff191660011790555b6001600160a01b03871660009081526002602090815260408083208584528252808320338452909152812080548892906111499084906157a2565b90915550506001600160a01b0387166000908152600760209081526040808320858452909152812080548892906111819084906157a2565b9091555050604080516001600160a01b038916815260208101889052338183015290517fe31c7b8d08ee7db0afa68782e1028ef92305caeea8626633ad44d413e30f6b2f9181900360600190a15050506111db8282613829565b50505050565b6001600160a01b038116600090815260208190526040902060609061120590613834565b92915050565b604051632c9f4b5b60e11b81527f3909e87234f428ccb8748126e2c93f66a62f92a70d315fa5803dec6362be07ab600482015260009081906001600160a01b0384169063593e96b69060240160206040518083038186803b15801561126f57600080fd5b505afa158015611283573d6000803e3d6000fd5b505050506040513d601f19601f820116820180604052508101906112a791906154c1565b6040516370a0823160e01b815261decd60048201529091506001600160a01b038216906370a082319060240160206040518083038186803b1580156112eb57600080fd5b505afa1580156112ff573d6000803e3d6000fd5b505050506040513d601f19601f820116820180604052508101906113239190615659565b9392505050565b6040516317ba7d8560e01b81527f851d65965a45a40b902ee7de04ff05b19ff7fde56dd486fd3108dc5cd9249f0660048201526001600160a01b038216906317ba7d859060240160206040518083038186803b15801561138957600080fd5b505afa15801561139d573d6000803e3d6000fd5b505050506040513d601f19601f820116820180604052508101906113c191906154c1565b6001600160a01b0316336001600160a01b0316146113f2576040516395383ea160e01b815260040160405180910390fd5b604051634941d71d60e11b81527f533afc15b6312917b5e28e2272ea69d44e5ea8e00d3bd57cada1275c2f14c9e860048201526001600160a01b03821690639283ae3a9060240160206040518083038186803b15801561145157600080fd5b505afa158015611465573d6000803e3d6000fd5b505050506040513d601f19601f820116820180604052508101906114899190615659565b4210801561151657506001600160a01b038116600090815260036020819052604082205460ff16908111156114ce57634e487b7160e01b600052602160045260246000fd5b1480611516575060016001600160a01b03821660009081526003602081905260409091205460ff169081111561151457634e487b7160e01b600052602160045260246000fd5b145b1561154d576040517f465e5dc900000000000000000000000000000000000000000000000000000000815260040160405180910390fd5b604051632c9f4b5b60e11b81527f3909e87234f428ccb8748126e2c93f66a62f92a70d315fa5803dec6362be07ab60048201526000906001600160a01b0383169063593e96b69060240160206040518083038186803b1580156115af57600080fd5b505afa1580156115c3573d6000803e3d6000fd5b505050506040513d601f19601f820116820180604052508101906115e791906154c1565b90506000816001600160a01b031663a87af66c6040518163ffffffff1660e01b815260040160206040518083038186803b15801561162457600080fd5b505afa158015611638573d6000803e3d6000fd5b505050506040513d601f19601f8201168201806040525081019061165c91906154c1565b6001600160a01b03841660009081526020819052604081209192509061168190613834565b8051909150156111db576001600160a01b038416600090815260096020526040812080546001919083906116b69084906157a2565b90915550600090505b82518160ff161015611a7357600061170187858460ff16815181106116f457634e487b7160e01b600052603260045260246000fd5b6020026020010151612ec3565b90508015611a2c576040516317ba7d8560e01b81527f372fda66f626a705d3a459960a1457403a7c3564acccedc00092ea70262b708360048201526000906001600160a01b038916906317ba7d859060240160206040518083038186803b15801561176b57600080fd5b505afa15801561177f573d6000803e3d6000fd5b505050506040513d601f19601f820116820180604052508101906117a391906154c1565b9050806001600160a01b0316638f8f4d218988888760ff16815181106117d957634e487b7160e01b600052603260045260246000fd5b6020908102919091018101516001600160a01b03808f16600090815260099093526040928390205492516001600160e01b031960e088901b1681529481166004860152928316602485015291909116604483015260648201869052608482015260a401600060405180830381600087803b15801561185657600080fd5b505af115801561186a573d6000803e3d6000fd5b50506040516317ba7d8560e01b81527f372fda66f626a705d3a459960a1457403a7c3564acccedc00092ea70262b708360048201526001600160a01b03808b16935063e176b35e92508b16906317ba7d859060240160206040518083038186803b1580156118d757600080fd5b505afa1580156118eb573d6000803e3d6000fd5b505050506040513d601f19601f8201168201806040525081019061190f91906154c1565b6040516001600160e01b031960e084901b1681526001600160a01b039182166004820152908916602482015260448101859052606401600060405180830381600087803b15801561195f57600080fd5b505af1158015611973573d6000803e3d6000fd5b50505050866001600160a01b031663e3a05cc1868560ff16815181106119a957634e487b7160e01b600052603260045260246000fd5b60209081029190910101516040516001600160e01b031960e084901b1681526001600160a01b039182166004820152908916602482015260448101859052606401600060405180830381600087803b158015611a0457600080fd5b505af1158015611a18573d6000803e3d6000fd5b505050508184611a2891906157a2565b9350505b611a6087858460ff1681518110611a5357634e487b7160e01b600052603260045260246000fd5b6020026020010151613841565b5080611a6b8161582e565b9150506116bf565b506001600160a01b038516600081815260036020908152604091829020805460ff19169055815192835282018390523382820152517f12d0dcfe23709357491021067eb05d73fa0b1f1aeb69310c2071218e089f057f9181900360600190a15050505050565b604051634941d71d60e11b81527f533afc15b6312917b5e28e2272ea69d44e5ea8e00d3bd57cada1275c2f14c9e860048201526000906001600160a01b03831690639283ae3a9060240160206040518083038186803b158015611b3b57600080fd5b505afa158015611b4f573d6000803e3d6000fd5b505050506040513d601f19601f82011682018060405250810190611b739190615659565b4211611bab576040517ff082211800000000000000000000000000000000000000000000000000000000815260040160405180910390fd5b6040516317ba7d8560e01b81527f3a06648a49edffe95b8384794dfe9cf3ab34782fab0130b4c91bfd53f3407e6b60048201526000906001600160a01b038416906317ba7d859060240160206040518083038186803b158015611c0d57600080fd5b505afa158015611c21573d6000803e3d6000fd5b505050506040513d601f19601f82011682018060405250810190611c4591906154c1565b6040516301c22a3d60e01b81526001600160a01b03858116600483015291909116906301c22a3d9060240160206040518083038186803b158015611c8857600080fd5b505afa158015611c9c573d6000803e3d6000fd5b505050506040513d601f19601f82011682018060405250810190611cc09190615659565b905060016001600160a01b03841660009081526003602081905260409091205460ff1690811115611d0157634e487b7160e01b600052602160045260246000fd5b1415611e97576001600160a01b038316600081815260076020908152604080832085845290915290819020549051634941d71d60e11b81527f31af571e53636dddd77f772cce9d30b42075760f2da731636acc6962da2fbef86004820152909190639283ae3a9060240160206040518083038186803b158015611d8357600080fd5b505afa158015611d97573d6000803e3d6000fd5b505050506040513d601f19601f82011682018060405250810190611dbb9190615659565b8110611dfc57611dca846139b7565b611dd484836144f0565b6001600160a01b0384166000908152600360205260409020805460ff19166002179055611e39565b6001600160a01b03841660009081526003602081905260408220805460ff19169091179055611e2a8561120b565b1115611e3957611e398461469d565b6001600160a01b038416600090815260036020526040908190205490517fe9975264b50cb635621ce71b45426b9994cf2bf91f3aa9d73b337a96cf2d728391611e8991879160ff1690859061571c565b60405180910390a150611ec9565b6040517ff918bf6c00000000000000000000000000000000000000000000000000000000815260040160405180910390fd5b50600192915050565b816000611ede82612fe4565b905083611eea81614e8e565b6001600160a01b0316336001600160a01b031614611f0757600080fd5b670de0b6b3a764000084108015611f1e5750600084115b611f2757600080fd5b50600a8390556111db8282613829565b600080611f448585612ec3565b11611f5157506000611323565b6040516317ba7d8560e01b81527f1a4f1390baec30049008138e650571a3c4374eba88116bc89dc192f2f9295efe60048201526001600160a01b038516906317ba7d859060240160206040518083038186803b158015611fb057600080fd5b505afa158015611fc4573d6000803e3d6000fd5b505050506040513d601f19601f82011682018060405250810190611fe891906154c1565b6001600160a01b0316336001600160a01b031614612019576040516395383ea160e01b815260040160405180910390fd5b60006120258585612ec3565b9050600083156120e757604051634941d71d60e11b81527f51cc27e85946200c558b984a0c15cad2122655d647f9c02ebe9529f2a0b25a2f6004820152670de0b6b3a7640000906001600160a01b03881690639283ae3a9060240160206040518083038186803b15801561209857600080fd5b505afa1580156120ac573d6000803e3d6000fd5b505050506040513d601f19601f820116820180604052508101906120d09190615659565b6120da90846157da565b6120e491906157ba565b90505b604051632c9f4b5b60e11b81527f3909e87234f428ccb8748126e2c93f66a62f92a70d315fa5803dec6362be07ab60048201526000906001600160a01b0388169063593e96b69060240160206040518083038186803b15801561214957600080fd5b505afa15801561215d573d6000803e3d6000fd5b505050506040513d601f19601f8201168201806040525081019061218191906154c1565b90506000816001600160a01b031663a87af66c6040518163ffffffff1660e01b815260040160206040518083038186803b1580156121be57600080fd5b505afa1580156121d2573d6000803e3d6000fd5b505050506040513d601f19601f820116820180604052508101906121f691906154c1565b90506001600160a01b03821663d9caed1288836122138789615817565b6040516001600160e01b031960e086901b1681526001600160a01b0393841660048201529290911660248301526044820152606401600060405180830381600087803b15801561226257600080fd5b505af1158015612276573d6000803e3d6000fd5b50506040517fe3a05cc10000000000000000000000000000000000000000000000000000000081526001600160a01b038a811660048301528481166024830152604482018890528516925063e3a05cc19150606401600060405180830381600087803b1580156122e557600080fd5b505af11580156122f9573d6000803e3d6000fd5b505050506123078888613841565b821561231857612318888285614f71565b506001979650505050505050565b6040516317ba7d8560e01b81527f3a06648a49edffe95b8384794dfe9cf3ab34782fab0130b4c91bfd53f3407e6b60048201526001600160a01b038216906317ba7d859060240160206040518083038186803b15801561238557600080fd5b505afa158015612399573d6000803e3d6000fd5b505050506040513d601f19601f820116820180604052508101906123bd91906154c1565b6001600160a01b0316336001600160a01b0316146123ee576040516395383ea160e01b815260040160405180910390fd5b6001600160a01b0381166000908152600360205260409020805460ff1916600117905561241a8161120b565b6001600160a01b038216600090815260046020526040812080549091906124429084906157a2565b90915550506001600160a01b03166000908152600560205260409020439055565b81600061246f82612fe4565b6040516317ba7d8560e01b81527f72894213a5c7f56b36b2947fa6ea18963d6bb1a68746b46d7f552cca76e1a7a860048201529091506001600160a01b038516906317ba7d859060240160206040518083038186803b1580156124d157600080fd5b505afa1580156124e5573d6000803e3d6000fd5b505050506040513d601f19601f8201168201806040525081019061250991906154c1565b6040517f4fd194f60000000000000000000000000000000000000000000000000000000081526001600160a01b0386811660048301529190911690634fd194f69060240160206040518083038186803b15801561256557600080fd5b505afa158015612579573d6000803e3d6000fd5b505050506040513d601f19601f8201168201806040525081019061259d9190615610565b6125d3576040517f6132398d00000000000000000000000000000000000000000000000000000000815260040160405180910390fd5b604051632c9f4b5b60e11b81527f3909e87234f428ccb8748126e2c93f66a62f92a70d315fa5803dec6362be07ab60048201526000906001600160a01b0386169063593e96b69060240160206040518083038186803b15801561263557600080fd5b505afa158015612649573d6000803e3d6000fd5b505050506040513d601f19601f8201168201806040525081019061266d91906154c1565b6040516317ba7d8560e01b81527f3a06648a49edffe95b8384794dfe9cf3ab34782fab0130b4c91bfd53f3407e6b60048201529091506000906001600160a01b038716906317ba7d859060240160206040518083038186803b1580156126d257600080fd5b505afa1580156126e6573d6000803e3d6000fd5b505050506040513d601f19601f8201168201806040525081019061270a91906154c1565b6040516301c22a3d60e01b81526001600160a01b0388811660048301529192506000918316906301c22a3d9060240160206040518083038186803b15801561275157600080fd5b505afa158015612765573d6000803e3d6000fd5b505050506040513d601f19601f820116820180604052508101906127899190615659565b90506000836001600160a01b031663a87af66c6040518163ffffffff1660e01b815260040160206040518083038186803b1580156127c657600080fd5b505afa1580156127da573d6000803e3d6000fd5b505050506040513d601f19601f820116820180604052508101906127fe91906154c1565b90506000871161283a576040517ffae8279100000000000000000000000000000000000000000000000000000000815260040160405180910390fd5b6128448833612ec3565b87111561287d576040517f5cabbf5000000000000000000000000000000000000000000000000000000000815260040160405180910390fd5b604051634941d71d60e11b81527fbd04d44792b7dbfe3b50b0f9f2006f7ef449e374a39021cb9bfa7cd0bdd850d760048201526001600160a01b03891690639283ae3a9060240160206040518083038186803b1580156128dc57600080fd5b505afa1580156128f0573d6000803e3d6000fd5b505050506040513d601f19601f820116820180604052508101906129149190615659565b421180156129b75750604051634941d71d60e11b81527f533afc15b6312917b5e28e2272ea69d44e5ea8e00d3bd57cada1275c2f14c9e860048201526001600160a01b03891690639283ae3a9060240160206040518083038186803b15801561297c57600080fd5b505afa158015612990573d6000803e3d6000fd5b505050506040513d601f19601f820116820180604052508101906129b49190615659565b42105b15612a9a576001600160a01b03881660009081526002602090815260408083208584528252808320338452909152902054871115612a21576040517f290cc5d400000000000000000000000000000000000000000000000000000000815260040160405180910390fd5b6001600160a01b0388166000908152600260209081526040808320858452825280832033845290915281208054899290612a5c908490615817565b90915550506001600160a01b038816600090815260076020908152604080832085845290915281208054899290612a94908490615817565b90915550505b604051634941d71d60e11b81527f533afc15b6312917b5e28e2272ea69d44e5ea8e00d3bd57cada1275c2f14c9e860048201526000906001600160a01b038a1690639283ae3a9060240160206040518083038186803b158015612afc57600080fd5b505afa158015612b10573d6000803e3d6000fd5b505050506040513d601f19601f82011682018060405250810190612b349190615659565b421115612bf357604051634941d71d60e11b81527f51cc27e85946200c558b984a0c15cad2122655d647f9c02ebe9529f2a0b25a2f6004820152670de0b6b3a7640000906001600160a01b038b1690639283ae3a9060240160206040518083038186803b158015612ba457600080fd5b505afa158015612bb8573d6000803e3d6000fd5b505050506040513d601f19601f82011682018060405250810190612bdc9190615659565b612be6908a6157da565b612bf091906157ba565b90505b6001600160a01b03851663d9caed123384612c0e858d615817565b6040516001600160e01b031960e086901b1681526001600160a01b0393841660048201529290911660248301526044820152606401600060405180830381600087803b158015612c5d57600080fd5b505af1158015612c71573d6000803e3d6000fd5b50506040517fe3a05cc10000000000000000000000000000000000000000000000000000000081523360048201526001600160a01b038581166024830152604482018c90528816925063e3a05cc19150606401600060405180830381600087803b158015612cde57600080fd5b505af1158015612cf2573d6000803e3d6000fd5b505050506000612d028a33612ec3565b11612d4057612d118933613841565b6001600160a01b03891660009081526001602090815260408083208684529091529020612d3e90336151c2565b505b8015612d5157612d51898383614f71565b6001600160a01b0389166000908152600860209081526040808320868452825280832033845290915290205460ff168015612e215750604051634941d71d60e11b81527f533afc15b6312917b5e28e2272ea69d44e5ea8e00d3bd57cada1275c2f14c9e860048201526001600160a01b038a1690639283ae3a9060240160206040518083038186803b158015612de657600080fd5b505afa158015612dfa573d6000803e3d6000fd5b505050506040513d601f19601f82011682018060405250810190612e1e9190615659565b42105b15612e5f576001600160a01b0389166000908152600660209081526040808320868452909152812080548a9290612e59908490615817565b90915550505b7fd432fbc5f79eaeefd01acbebd76cf4b0d5f43d8372c2fd3e23761c06a60a75f189612e8b838b615817565b604080516001600160a01b0390931683526020830191909152339082015260600160405180910390a150505050506111db8282613829565b604051632c9f4b5b60e11b81527f3909e87234f428ccb8748126e2c93f66a62f92a70d315fa5803dec6362be07ab600482015260009081906001600160a01b0385169063593e96b69060240160206040518083038186803b158015612f2757600080fd5b505afa158015612f3b573d6000803e3d6000fd5b505050506040513d601f19601f82011682018060405250810190612f5f91906154c1565b6040516370a0823160e01b81526001600160a01b038581166004830152919250908216906370a082319060240160206040518083038186803b158015612fa457600080fd5b505afa158015612fb8573d6000803e3d6000fd5b505050506040513d601f19601f82011682018060405250810190612fdc9190615659565b949350505050565b6040805160808101825260008082526020820181905291810182905260608101919091525a81600001818152505043826001600160a01b031663b21634826040518163ffffffff1660e01b815260040160206040518083038186803b15801561304c57600080fd5b505afa158015613060573d6000803e3d6000fd5b505050506040513d601f19601f820116820180604052508101906130849190615659565b14156130f0576040517f08c379a000000000000000000000000000000000000000000000000000000000815260206004820152601060248201527f7265656e7472616e637920677561726400000000000000000000000000000000604482015260640160405180910390fd5b816001600160a01b03166310fdb0a26040518163ffffffff1660e01b8152600401600060405180830381600087803b15801561312b57600080fd5b505af115801561313f573d6000803e3d6000fd5b50506040517f72c6838f0000000000000000000000000000000000000000000000000000000081527f1f2fd42ad6a6cacd573c4b212beb7a4e2499ad45d742a65337097f130e71daff6004820152600092506001600160a01b03851691506372c6838f9060240160206040518083038186803b1580156131be57600080fd5b505afa1580156131d2573d6000803e3d6000fd5b505050506040513d601f19601f820116820180604052508101906131f691906154c1565b90506001600160a01b03811661321257600060208301526132c7565b6001600160a01b038181166060840181905283516040517f43a8a3f1000000000000000000000000000000000000000000000000000000008152928616600484015260248301526000918291906343a8a3f190604401604080518083038186803b15801561327f57600080fd5b505afa158015613293573d6000803e3d6000fd5b505050506040513d601f19601f820116820180604052508101906132b7919061562c565b9015156020860152604085015250505b50919050565b6001600160a01b0383166000908152600160209081526040808320858452909152812081906132fb90613834565b51856001600160a01b031663a6f636416040518163ffffffff1660e01b815260040160006040518083038186803b15801561333557600080fd5b505afa158015613349573d6000803e3d6000fd5b505050506040513d6000823e601f3d908101601f191682016040526133719190810190615549565b5161337c91906157a2565b6001600160a01b03861660009081526001602090815260408083208884529091528120919250906133ac90613834565b8051909150156134a15760005b81518160ff16101561349f57866001600160a01b031663a230c524838360ff16815181106133f757634e487b7160e01b600052603260045260246000fd5b60200260200101516040518263ffffffff1660e01b815260040161342a91906001600160a01b0391909116815260200190565b60206040518083038186803b15801561344257600080fd5b505afa158015613456573d6000803e3d6000fd5b505050506040513d601f19601f8201168201806040525081019061347a9190615610565b1561348d5761348a600184615817565b92505b806134978161582e565b9150506133b9565b505b604051634941d71d60e11b81527f69f4ffb3ebcb7809550bddd3e4d449a47e737bf6635bc7a730996643997b0e4860048201526001600160a01b03871690639283ae3a9060240160206040518083038186803b15801561350057600080fd5b505afa158015613514573d6000803e3d6000fd5b505050506040513d601f19601f820116820180604052508101906135389190615659565b60011480156135dd5750604051634941d71d60e11b81527fecbde689cc6337d29a750b8b8a8abbfa97427b4ac800ab55be2f2c87311510f260048201526001600160a01b03871690639283ae3a9060240160206040518083038186803b1580156135a157600080fd5b505afa1580156135b5573d6000803e3d6000fd5b505050506040513d601f19601f820116820180604052508101906135d99190615659565b8210155b801561365f575060405163288c314960e21b81526001600160a01b03858116600483015287169063a230c5249060240160206040518083038186803b15801561362557600080fd5b505afa158015613639573d6000803e3d6000fd5b505050506040513d601f19601f8201168201806040525081019061365d9190615610565b155b801561369557506001600160a01b0386166000908152600160209081526040808320888452909152902061369390856137f2565b155b156136a557600192505050611323565b50600095945050505050565b6001600160a01b03821660009081526020819052604090206136d390826137f2565b6136fb576001600160a01b03821660009081526020819052604090206136f99082613814565b505b60405163288c314960e21b81526001600160a01b03828116600483015283169063a230c5249060240160206040518083038186803b15801561373c57600080fd5b505afa158015613750573d6000803e3d6000fd5b505050506040513d601f19601f820116820180604052508101906137749190615610565b6137ee576040517fdc929f4a0000000000000000000000000000000000000000000000000000000081526001600160a01b03828116600483015283169063dc929f4a906024015b600060405180830381600087803b1580156137d557600080fd5b505af11580156137e9573d6000803e3d6000fd5b505050505b5050565b6001600160a01b03811660009081526001830160205260408120541515611323565b6000611323836001600160a01b0384166151d7565b6137ee828233615226565b606060006113238361531c565b6001600160a01b038216600090815260208190526040902061386390826151c2565b5060405163288c314960e21b81526001600160a01b03828116600483015283169063a230c5249060240160206040518083038186803b1580156138a557600080fd5b505afa1580156138b9573d6000803e3d6000fd5b505050506040513d601f19601f820116820180604052508101906138dd9190615610565b801561396b5750806001600160a01b0316826001600160a01b031663149acf9a6040518163ffffffff1660e01b815260040160206040518083038186803b15801561392757600080fd5b505afa15801561393b573d6000803e3d6000fd5b505050506040513d601f19601f8201168201806040525081019061395f91906154c1565b6001600160a01b031614155b156137ee576040517f0b1ca49a0000000000000000000000000000000000000000000000000000000081526001600160a01b038281166004830152831690630b1ca49a906024016137bb565b6040805161014081018252600080825260208201819052818301819052606082018190526080820181905260a0820181905260c0820181905260e08201819052610100820181905261012082015290516317ba7d8560e01b81527f372fda66f626a705d3a459960a1457403a7c3564acccedc00092ea70262b708360048201526001600160a01b038316906317ba7d859060240160206040518083038186803b158015613a6357600080fd5b505afa158015613a77573d6000803e3d6000fd5b505050506040513d601f19601f82011682018060405250810190613a9b91906154c1565b6001600160a01b039081166101208301526040516317ba7d8560e01b81527f3a06648a49edffe95b8384794dfe9cf3ab34782fab0130b4c91bfd53f3407e6b6004820152908316906317ba7d859060240160206040518083038186803b158015613b0457600080fd5b505afa158015613b18573d6000803e3d6000fd5b505050506040513d601f19601f82011682018060405250810190613b3c91906154c1565b6001600160a01b03908116606083018190526040516301c22a3d60e01b81529184166004830152906301c22a3d9060240160206040518083038186803b158015613b8557600080fd5b505afa158015613b99573d6000803e3d6000fd5b505050506040513d601f19601f82011682018060405250810190613bbd9190615659565b60e0820152604051634941d71d60e11b81527ff301d5aec67a9d816d38f9b645cac1e79a3308ff9803564bbe63a862db82f46b60048201526001600160a01b03831690639283ae3a9060240160206040518083038186803b158015613c2157600080fd5b505afa158015613c35573d6000803e3d6000fd5b505050506040513d601f19601f82011682018060405250810190613c599190615659565b6001148015613d245750604051634941d71d60e11b81527f7e07fb4530796d057ca1d76d83f47aa8629dbb7e942ac28f30ad6f5e9e8d418960048201526001600160a01b03831690639283ae3a9060240160206040518083038186803b158015613cc257600080fd5b505afa158015613cd6573d6000803e3d6000fd5b505050506040513d601f19601f82011682018060405250810190613cfa9190615659565b6001600160a01b038316600090815260076020908152604080832060e08601518452909152902054115b156137ee57604051632c9f4b5b60e11b81527f3909e87234f428ccb8748126e2c93f66a62f92a70d315fa5803dec6362be07ab60048201526001600160a01b0383169063593e96b69060240160206040518083038186803b158015613d8857600080fd5b505afa158015613d9c573d6000803e3d6000fd5b505050506040513d601f19601f82011682018060405250810190613dc091906154c1565b6001600160a01b0390811682528216600090815260016020908152604080832060e085015184529091528120613df590613834565b9050600082602001818152505081600001516001600160a01b031663a87af66c6040518163ffffffff1660e01b815260040160206040518083038186803b158015613e3f57600080fd5b505afa158015613e53573d6000803e3d6000fd5b505050506040513d601f19601f82011682018060405250810190613e7791906154c1565b6001600160a01b0390811660408481019190915251634941d71d60e11b81527f7e07fb4530796d057ca1d76d83f47aa8629dbb7e942ac28f30ad6f5e9e8d4189600482015290841690639283ae3a9060240160206040518083038186803b158015613ee157600080fd5b505afa158015613ef5573d6000803e3d6000fd5b505050506040513d601f19601f82011682018060405250810190613f199190615659565b60808301526001600160a01b038316600081815260066020908152604080832060e08701805185529083528184205460a088015293835260078252808320935183529290529081205460c08401525b81518160ff1610156111db576001600160a01b038416600090815260026020908152604080832060e0870151845290915281208351909190849060ff8516908110613fc357634e487b7160e01b600052603260045260246000fd5b60200260200101516001600160a01b03166001600160a01b03168152602001908152602001600020548361010001818152505082608001518360a00151106140ce576001600160a01b038416600090815260086020908152604080832060e0870151845290915281208351909190849060ff851690811061405457634e487b7160e01b600052603260045260246000fd5b6020908102919091018101516001600160a01b031682528101919091526040016000205460ff16156140be578260a00151836080015184610100015161409a91906157da565b6140a491906157ba565b8361010001516140b49190615817565b60208401526141ad565b61010083015160208401526141ad565b6001600160a01b038416600090815260086020908152604080832060e0870151845290915281208351909190849060ff851690811061411d57634e487b7160e01b600052603260045260246000fd5b6020908102919091018101516001600160a01b031682528101919091526040016000205460ff161561415557600060208401526141ad565b8260a001518360c001516141699190615817565b8360a00151846080015161417d9190615817565b84610100015161418d91906157da565b61419791906157ba565b8361010001516141a79190615817565b60208401525b6020830151156144de578261012001516001600160a01b03166301144ffd858560400151858560ff16815181106141f457634e487b7160e01b600052603260045260246000fd5b6020908102919091018101519088015160608901516040517fe956369e0000000000000000000000000000000000000000000000000000000081526001600160a01b038c811660048301529091169063e956369e9060240160206040518083038186803b15801561426457600080fd5b505afa158015614278573d6000803e3d6000fd5b505050506040513d601f19601f8201168201806040525081019061429c9190615659565b6040516001600160e01b031960e088901b1681526001600160a01b03958616600482015293851660248501529390911660448301526064820152608481019190915260a401600060405180830381600087803b1580156142fb57600080fd5b505af115801561430f573d6000803e3d6000fd5b505084516040516317ba7d8560e01b81527f372fda66f626a705d3a459960a1457403a7c3564acccedc00092ea70262b708360048201526001600160a01b03918216935063e176b35e9250908716906317ba7d859060240160206040518083038186803b15801561437f57600080fd5b505afa158015614393573d6000803e3d6000fd5b505050506040513d601f19601f820116820180604052508101906143b791906154c1565b604080870151602088015191516001600160e01b031960e086901b1681526001600160a01b039384166004820152921660248301526044820152606401600060405180830381600087803b15801561440e57600080fd5b505af1158015614422573d6000803e3d6000fd5b5050505082600001516001600160a01b031663e3a05cc1838360ff168151811061445c57634e487b7160e01b600052603260045260246000fd5b6020026020010151856040015186602001516040518463ffffffff1660e01b81526004016144ab939291906001600160a01b039384168152919092166020820152604081019190915260600190565b600060405180830381600087803b1580156144c557600080fd5b505af11580156144d9573d6000803e3d6000fd5b505050505b806144e88161582e565b915050613f68565b6001600160a01b0382166000908152600160209081526040808320848452909152812061451c90613834565b8051909150156146985760005b81518160ff1610156111db57836001600160a01b031663a230c524838360ff168151811061456757634e487b7160e01b600052603260045260246000fd5b60200260200101516040518263ffffffff1660e01b815260040161459a91906001600160a01b0391909116815260200190565b60206040518083038186803b1580156145b257600080fd5b505afa1580156145c6573d6000803e3d6000fd5b505050506040513d601f19601f820116820180604052508101906145ea9190615610565b61468657836001600160a01b031663dc929f4a838360ff168151811061462057634e487b7160e01b600052603260045260246000fd5b60200260200101516040518263ffffffff1660e01b815260040161465391906001600160a01b0391909116815260200190565b600060405180830381600087803b15801561466d57600080fd5b505af1158015614681573d6000803e3d6000fd5b505050505b806146908161582e565b915050614529565b505050565b6040805160e08101825260008082526020820181905281830181905260608083018290526080830182905260a083015260c08201529051632c9f4b5b60e11b81527f3909e87234f428ccb8748126e2c93f66a62f92a70d315fa5803dec6362be07ab60048201526001600160a01b0383169063593e96b69060240160206040518083038186803b15801561473057600080fd5b505afa158015614744573d6000803e3d6000fd5b505050506040513d601f19601f8201168201806040525081019061476891906154c1565b6001600160a01b0390811682526040516317ba7d8560e01b81527f3a06648a49edffe95b8384794dfe9cf3ab34782fab0130b4c91bfd53f3407e6b6004820152908316906317ba7d859060240160206040518083038186803b1580156147cd57600080fd5b505afa1580156147e1573d6000803e3d6000fd5b505050506040513d601f19601f8201168201806040525081019061480591906154c1565b6001600160a01b03908116602083018190526040516301c22a3d60e01b81529184166004830152906301c22a3d9060240160206040518083038186803b15801561484e57600080fd5b505afa158015614862573d6000803e3d6000fd5b505050506040513d601f19601f820116820180604052508101906148869190615659565b81606001818152505080600001516001600160a01b031663a87af66c6040518163ffffffff1660e01b815260040160206040518083038186803b1580156148cc57600080fd5b505afa1580156148e0573d6000803e3d6000fd5b505050506040513d601f19601f8201168201806040525081019061490491906154c1565b6001600160a01b0390811660808301528216600090815260016020908152604080832060608501518452909152902061493c90613834565b60a0820181905251156137ee5760005b8160a00151518160ff161015614698576001600160a01b038316600090815260026020908152604080832060608601518452909152812060a0840151805191929160ff85169081106149ae57634e487b7160e01b600052603260045260246000fd5b6020908102919091018101516001600160a01b031682528101919091526040016000205460c0830181905215614d9b576040516317ba7d8560e01b81527f372fda66f626a705d3a459960a1457403a7c3564acccedc00092ea70262b708360048201526001600160a01b038416906317ba7d859060240160206040518083038186803b158015614a3d57600080fd5b505afa158015614a51573d6000803e3d6000fd5b505050506040513d601f19601f82011682018060405250810190614a7591906154c1565b6001600160a01b031660408301819052608083015160a08401518051636b99029e928792909160ff8716908110614abc57634e487b7160e01b600052603260045260246000fd5b60200260200101518660c0015187602001516001600160a01b031663e956369e8a6040518263ffffffff1660e01b8152600401614b0891906001600160a01b0391909116815260200190565b60206040518083038186803b158015614b2057600080fd5b505afa158015614b34573d6000803e3d6000fd5b505050506040513d601f19601f82011682018060405250810190614b589190615659565b6040516001600160e01b031960e088901b1681526001600160a01b03958616600482015293851660248501529390911660448301526064820152608481019190915260a401600060405180830381600087803b158015614bb757600080fd5b505af1158015614bcb573d6000803e3d6000fd5b505083516040516317ba7d8560e01b81527f372fda66f626a705d3a459960a1457403a7c3564acccedc00092ea70262b708360048201526001600160a01b03918216935063e176b35e9250908616906317ba7d859060240160206040518083038186803b158015614c3b57600080fd5b505afa158015614c4f573d6000803e3d6000fd5b505050506040513d601f19601f82011682018060405250810190614c7391906154c1565b608085015160c08601516040516001600160e01b031960e086901b1681526001600160a01b0393841660048201529290911660248301526044820152606401600060405180830381600087803b158015614ccc57600080fd5b505af1158015614ce0573d6000803e3d6000fd5b5050505081600001516001600160a01b031663e3a05cc18360a001518360ff1681518110614d1e57634e487b7160e01b600052603260045260246000fd5b6020908102919091010151608085015160c08601516040516001600160e01b031960e086901b1681526001600160a01b0393841660048201529290911660248301526044820152606401600060405180830381600087803b158015614d8257600080fd5b505af1158015614d96573d6000803e3d6000fd5b505050505b6001600160a01b038316600090815260026020908152604080832060608601518452909152812060a0840151805183919060ff8616908110614ded57634e487b7160e01b600052603260045260246000fd5b60200260200101516001600160a01b03166001600160a01b0316815260200190815260200160002081905550614e7b8260a001518260ff1681518110614e4357634e487b7160e01b600052603260045260246000fd5b6020908102919091018101516001600160a01b03861660009081526001835260408082206060880151835290935291909120906151c2565b5080614e868161582e565b91505061494c565b6000816001600160a01b03166348f7f2a36040518163ffffffff1660e01b815260040160206040518083038186803b158015614ec957600080fd5b505afa158015614edd573d6000803e3d6000fd5b505050506040513d601f19601f82011682018060405250810190614f0191906154c1565b6001600160a01b0316638da5cb5b6040518163ffffffff1660e01b815260040160206040518083038186803b158015614f3957600080fd5b505afa158015614f4d573d6000803e3d6000fd5b505050506040513d601f19601f8201168201806040525081019061120591906154c1565b6040516317ba7d8560e01b81527f1ec3ab9b73a5166bb51de3096776c3fb06df7dc0a5e2df3038eb0588fad3adbc60048201526000906001600160a01b038516906317ba7d859060240160206040518083038186803b158015614fd357600080fd5b505afa158015614fe7573d6000803e3d6000fd5b505050506040513d601f19601f8201168201806040525081019061500b91906154c1565b604051632c9f4b5b60e11b81527f3909e87234f428ccb8748126e2c93f66a62f92a70d315fa5803dec6362be07ab600482015290915081906000906001600160a01b0387169063593e96b69060240160206040518083038186803b15801561507257600080fd5b505afa158015615086573d6000803e3d6000fd5b505050506040513d601f19601f820116820180604052508101906150aa91906154c1565b6040517f871c22370000000000000000000000000000000000000000000000000000000081526001600160a01b0388811660048301524360248301528781166044830152606482018790529192509083169063871c223790608401600060405180830381600087803b15801561511f57600080fd5b505af1158015615133573d6000803e3d6000fd5b50506040517fe176b35e0000000000000000000000000000000000000000000000000000000081526001600160a01b0386811660048301528881166024830152604482018890528416925063e176b35e9150606401600060405180830381600087803b1580156151a257600080fd5b505af11580156151b6573d6000803e3d6000fd5b50505050505050505050565b6000611323836001600160a01b038416615378565b600081815260018301602052604081205461521e57508154600181810184556000848152602080822090930184905584548482528286019093526040902091909155611205565b506000611205565b8160200151156152c45781606001516001600160a01b0316635e5eb01384835a86516152529190615817565b60408088015190516001600160e01b031960e087901b1681526001600160a01b03948516600482015293909216602484015260448301526064820152608401600060405180830381600087803b1580156152ab57600080fd5b505af11580156152bf573d6000803e3d6000fd5b505050505b826001600160a01b031663d4f7af436040518163ffffffff1660e01b8152600401600060405180830381600087803b1580156152ff57600080fd5b505af1158015615313573d6000803e3d6000fd5b50505050505050565b60608160000180548060200260200160405190810160405280929190818152602001828054801561536c57602002820191906000526020600020905b815481526020019060010190808311615358575b50505050509050919050565b6000818152600183016020526040812054801561548b57600061539c600183615817565b85549091506000906153b090600190615817565b90508181146154315760008660000182815481106153de57634e487b7160e01b600052603260045260246000fd5b906000526020600020015490508087600001848154811061540f57634e487b7160e01b600052603260045260246000fd5b6000918252602080832090910192909255918252600188019052604090208390555b855486908061545057634e487b7160e01b600052603160045260246000fd5b600190038181906000526020600020016000905590558560010160008681526020019081526020016000206000905560019350505050611205565b6000915050611205565b80516154a08161587a565b919050565b6000602082840312156154b6578081fd5b81356113238161587a565b6000602082840312156154d2578081fd5b81516113238161587a565b600080604083850312156154ef578081fd5b82356154fa8161587a565b946020939093013593505050565b60008060006060848603121561551c578081fd5b83356155278161587a565b925060208401359150604084013561553e8161587a565b809150509250925092565b6000602080838503121561555b578182fd5b825167ffffffffffffffff80821115615572578384fd5b818501915085601f830112615585578384fd5b81518181111561559757615597615864565b8060051b604051601f19603f830116810181811085821117156155bc576155bc615864565b604052828152858101935084860182860187018a10156155da578788fd5b8795505b83861015615603576155ef81615495565b8552600195909501949386019386016155de565b5098975050505050505050565b600060208284031215615621578081fd5b815161132381615892565b6000806040838503121561563e578182fd5b825161564981615892565b6020939093015192949293505050565b60006020828403121561566a578081fd5b5051919050565b60008060408385031215615683578182fd5b823561568e8161587a565b9150602083013561569e8161587a565b809150509250929050565b6000806000606084860312156156bd578283fd5b83356156c88161587a565b925060208401356156d88161587a565b9150604084013561553e81615892565b600080604083850312156154ef578182fd5b6004811061571857634e487b7160e01b600052602160045260246000fd5b9052565b6001600160a01b03841681526060810161573960208301856156fa565b826040830152949350505050565b6020808252825182820181905260009190848201906040850190845b818110156157885783516001600160a01b031683529284019291840191600101615763565b50909695505050505050565b6020810161120582846156fa565b600082198211156157b5576157b561584e565b500190565b6000826157d557634e487b7160e01b81526012600452602481fd5b500490565b6000817fffffffffffffffffffffffffffffffffffffffffffffffffffffffffffffffff04831182151516156158125761581261584e565b500290565b6000828210156158295761582961584e565b500390565b600060ff821660ff8114156158455761584561584e565b60010192915050565b634e487b7160e01b600052601160045260246000fd5b634e487b7160e01b600052604160045260246000fd5b6001600160a01b038116811461588f57600080fd5b50565b801515811461588f57600080fdfea26469706673582212206b693fb4304827a869da421e614d215fcf87b97f3eb6af679762af1355679b7464736f6c63430008040033",
  "linkReferences": {},
  "deployedLinkReferences": {}
}