{
  "_format": "hh-sol-artifact-1",
  "contractName": "VestingERC721",
  "sourceName": "contracts/VestingERC721.sol",
  "abi": [
    {
      "inputs": [
        {
          "internalType": "string",
          "name": "name",
          "type": "string"
        },
        {
          "internalType": "string",
          "name": "symbol",
          "type": "string"
        },
        {
          "internalType": "address",
          "name": "_flexvestAddr",
          "type": "address"
        },
        {
          "internalType": "address",
          "name": "_vintageVestAddr",
          "type": "address"
        },
        {
          "internalType": "address",
          "name": "_collectiveVestAddr",
          "type": "address"
        },
        {
          "internalType": "address",
          "name": "_vestingNFTHelper",
          "type": "address"
        }
      ],
      "stateMutability": "nonpayable",
      "type": "constructor"
    },
    {
      "anonymous": false,
      "inputs": [
        {
          "indexed": true,
          "internalType": "address",
          "name": "owner",
          "type": "address"
        },
        {
          "indexed": true,
          "internalType": "address",
          "name": "spender",
          "type": "address"
        },
        {
          "indexed": true,
          "internalType": "uint256",
          "name": "id",
          "type": "uint256"
        }
      ],
      "name": "Approval",
      "type": "event"
    },
    {
      "anonymous": false,
      "inputs": [
        {
          "indexed": true,
          "internalType": "address",
          "name": "owner",
          "type": "address"
        },
        {
          "indexed": true,
          "internalType": "address",
          "name": "operator",
          "type": "address"
        },
        {
          "indexed": false,
          "internalType": "bool",
          "name": "approved",
          "type": "bool"
        }
      ],
      "name": "ApprovalForAll",
      "type": "event"
    },
    {
      "anonymous": false,
      "inputs": [
        {
          "indexed": true,
          "internalType": "address",
          "name": "from",
          "type": "address"
        },
        {
          "indexed": true,
          "internalType": "address",
          "name": "to",
          "type": "address"
        },
        {
          "indexed": true,
          "internalType": "uint256",
          "name": "id",
          "type": "uint256"
        }
      ],
      "name": "Transfer",
      "type": "event"
    },
    {
      "inputs": [],
      "name": "_owner",
      "outputs": [
        {
          "internalType": "address",
          "name": "",
          "type": "address"
        }
      ],
      "stateMutability": "view",
      "type": "function"
    },
    {
      "inputs": [
        {
          "internalType": "address",
          "name": "spender",
          "type": "address"
        },
        {
          "internalType": "uint256",
          "name": "id",
          "type": "uint256"
        }
      ],
      "name": "approve",
      "outputs": [],
      "stateMutability": "nonpayable",
      "type": "function"
    },
    {
      "inputs": [
        {
          "internalType": "address",
          "name": "owner",
          "type": "address"
        }
      ],
      "name": "balanceOf",
      "outputs": [
        {
          "internalType": "uint256",
          "name": "",
          "type": "uint256"
        }
      ],
      "stateMutability": "view",
      "type": "function"
    },
    {
      "inputs": [],
      "name": "collectiveVestContrAddress",
      "outputs": [
        {
          "internalType": "address",
          "name": "",
          "type": "address"
        }
      ],
      "stateMutability": "view",
      "type": "function"
    },
    {
      "inputs": [],
      "name": "contractURI",
      "outputs": [
        {
          "internalType": "string",
          "name": "",
          "type": "string"
        }
      ],
      "stateMutability": "pure",
      "type": "function"
    },
    {
      "inputs": [],
      "name": "flexVestContrAddress",
      "outputs": [
        {
          "internalType": "address",
          "name": "",
          "type": "address"
        }
      ],
      "stateMutability": "view",
      "type": "function"
    },
    {
      "inputs": [
        {
          "internalType": "uint256",
          "name": "",
          "type": "uint256"
        }
      ],
      "name": "getApproved",
      "outputs": [
        {
          "internalType": "address",
          "name": "",
          "type": "address"
        }
      ],
      "stateMutability": "view",
      "type": "function"
    },
    {
      "inputs": [
        {
          "internalType": "uint256",
          "name": "tokenId",
          "type": "uint256"
        }
      ],
      "name": "getSvg",
      "outputs": [
        {
          "internalType": "string",
          "name": "",
          "type": "string"
        }
      ],
      "stateMutability": "view",
      "type": "function"
    },
    {
      "inputs": [
        {
          "internalType": "address",
          "name": "",
          "type": "address"
        },
        {
          "internalType": "address",
          "name": "",
          "type": "address"
        }
      ],
      "name": "isApprovedForAll",
      "outputs": [
        {
          "internalType": "bool",
          "name": "",
          "type": "bool"
        }
      ],
      "stateMutability": "view",
      "type": "function"
    },
    {
      "inputs": [],
      "name": "maxTotalSupply",
      "outputs": [
        {
          "internalType": "uint256",
          "name": "",
          "type": "uint256"
        }
      ],
      "stateMutability": "view",
      "type": "function"
    },
    {
      "inputs": [],
      "name": "name",
      "outputs": [
        {
          "internalType": "string",
          "name": "",
          "type": "string"
        }
      ],
      "stateMutability": "view",
      "type": "function"
    },
    {
      "inputs": [
        {
          "internalType": "uint256",
          "name": "id",
          "type": "uint256"
        }
      ],
      "name": "ownerOf",
      "outputs": [
        {
          "internalType": "address",
          "name": "owner",
          "type": "address"
        }
      ],
      "stateMutability": "view",
      "type": "function"
    },
    {
      "inputs": [
        {
          "internalType": "address",
          "name": "to",
          "type": "address"
        }
      ],
      "name": "safeMint",
      "outputs": [
        {
          "internalType": "uint256",
          "name": "id",
          "type": "uint256"
        }
      ],
      "stateMutability": "nonpayable",
      "type": "function"
    },
    {
      "inputs": [
        {
          "internalType": "address",
          "name": "from",
          "type": "address"
        },
        {
          "internalType": "address",
          "name": "to",
          "type": "address"
        },
        {
          "internalType": "uint256",
          "name": "id",
          "type": "uint256"
        }
      ],
      "name": "safeTransferFrom",
      "outputs": [],
      "stateMutability": "nonpayable",
      "type": "function"
    },
    {
      "inputs": [
        {
          "internalType": "address",
          "name": "from",
          "type": "address"
        },
        {
          "internalType": "address",
          "name": "to",
          "type": "address"
        },
        {
          "internalType": "uint256",
          "name": "id",
          "type": "uint256"
        },
        {
          "internalType": "bytes",
          "name": "data",
          "type": "bytes"
        }
      ],
      "name": "safeTransferFrom",
      "outputs": [],
      "stateMutability": "nonpayable",
      "type": "function"
    },
    {
      "inputs": [
        {
          "internalType": "address",
          "name": "operator",
          "type": "address"
        },
        {
          "internalType": "bool",
          "name": "approved",
          "type": "bool"
        }
      ],
      "name": "setApprovalForAll",
      "outputs": [],
      "stateMutability": "nonpayable",
      "type": "function"
    },
    {
      "inputs": [
        {
          "internalType": "bytes4",
          "name": "interfaceId",
          "type": "bytes4"
        }
      ],
      "name": "supportsInterface",
      "outputs": [
        {
          "internalType": "bool",
          "name": "",
          "type": "bool"
        }
      ],
      "stateMutability": "view",
      "type": "function"
    },
    {
      "inputs": [],
      "name": "symbol",
      "outputs": [
        {
          "internalType": "string",
          "name": "",
          "type": "string"
        }
      ],
      "stateMutability": "view",
      "type": "function"
    },
    {
      "inputs": [
        {
          "internalType": "uint256",
          "name": "_tokenId",
          "type": "uint256"
        }
      ],
      "name": "tokenURI",
      "outputs": [
        {
          "internalType": "string",
          "name": "",
          "type": "string"
        }
      ],
      "stateMutability": "view",
      "type": "function"
    },
    {
      "inputs": [],
      "name": "totalSupply",
      "outputs": [
        {
          "internalType": "uint256",
          "name": "",
          "type": "uint256"
        }
      ],
      "stateMutability": "view",
      "type": "function"
    },
    {
      "inputs": [
        {
          "internalType": "address",
          "name": "from",
          "type": "address"
        },
        {
          "internalType": "address",
          "name": "to",
          "type": "address"
        },
        {
          "internalType": "uint256",
          "name": "id",
          "type": "uint256"
        }
      ],
      "name": "transferFrom",
      "outputs": [],
      "stateMutability": "nonpayable",
      "type": "function"
    },
    {
      "inputs": [],
      "name": "vestingNFTHelper",
      "outputs": [
        {
          "internalType": "address",
          "name": "",
          "type": "address"
        }
      ],
      "stateMutability": "view",
      "type": "function"
    },
    {
      "inputs": [],
      "name": "vintageVestContrAddress",
      "outputs": [
        {
          "internalType": "address",
          "name": "",
          "type": "address"
        }
      ],
      "stateMutability": "view",
      "type": "function"
    }
  ],
  "bytecode": "0x60806040523480156200001157600080fd5b50604051620020f5380380620020f583398101604081905262000034916200023d565b8551869086906200004d906000906020850190620000c7565b50805162000063906001906020840190620000c7565b505060078054336001600160a01b0319918216179091556008805482166001600160a01b039788161790556009805482169587169590951790945550600a8054841692851692909217909155600b8054909216921691909117905550620003409050565b828054620000d590620002ed565b90600052602060002090601f016020900481019282620000f9576000855562000144565b82601f106200011457805160ff191683800117855562000144565b8280016001018555821562000144579182015b828111156200014457825182559160200191906001019062000127565b506200015292915062000156565b5090565b5b8082111562000152576000815560010162000157565b80516001600160a01b03811681146200018557600080fd5b919050565b600082601f8301126200019b578081fd5b81516001600160401b0380821115620001b857620001b86200032a565b604051601f8301601f19908116603f01168101908282118183101715620001e357620001e36200032a565b81604052838152602092508683858801011115620001ff578485fd5b8491505b8382101562000222578582018301518183018401529082019062000203565b838211156200023357848385830101525b9695505050505050565b60008060008060008060c0878903121562000256578182fd5b86516001600160401b03808211156200026d578384fd5b6200027b8a838b016200018a565b9750602089015191508082111562000291578384fd5b50620002a089828a016200018a565b955050620002b1604088016200016d565b9350620002c1606088016200016d565b9250620002d1608088016200016d565b9150620002e160a088016200016d565b90509295509295509295565b600181811c908216806200030257607f821691505b602082108114156200032457634e487b7160e01b600052602260045260246000fd5b50919050565b634e487b7160e01b600052604160045260246000fd5b611da580620003506000396000f3fe608060405234801561001057600080fd5b506004361061018d5760003560e01c806370a08231116100e3578063b88d4fde1161008c578063e8a3d48511610066578063e8a3d4851461033f578063e985e9c514610347578063f702a3141461037557600080fd5b8063b88d4fde14610306578063bc2920de14610319578063c87b56dd1461032c57600080fd5b8063a7fc5186116100bd578063a7fc5186146102cd578063b0dc78fa146102e0578063b2bdfa7b146102f357600080fd5b806370a082311461029f57806395d89b41146102b2578063a22cb465146102ba57600080fd5b806323b872dd1161014557806342842e0e1161011f57806342842e0e14610266578063472e41ca146102795780636352211e1461028c57600080fd5b806323b872dd146102375780632ab4d0521461024a57806340d097c31461025357600080fd5b8063081812fc11610176578063081812fc146101cf578063095ea7b31461021057806318160ddd1461022557600080fd5b806301ffc9a71461019257806306fdde03146101ba575b600080fd5b6101a56101a036600461165e565b610388565b60405190151581526020015b60405180910390f35b6101c2610425565b6040516101b19190611805565b6101f86101dd36600461173f565b6004602052600090815260409020546001600160a01b031681565b6040516001600160a01b0390911681526020016101b1565b61022361021e366004611635565b6104b3565b005b600c545b6040519081526020016101b1565b61022361024536600461152a565b6105b6565b610229600c5481565b6102296102613660046114d7565b6107b8565b61022361027436600461152a565b6107fe565b600a546101f8906001600160a01b031681565b6101f861029a36600461173f565b610912565b6102296102ad3660046114d7565b61097c565b6101c26109f0565b6102236102c83660046115fb565b6109fd565b600b546101f8906001600160a01b031681565b6101c26102ee36600461173f565b610a87565b6007546101f8906001600160a01b031681565b610223610314366004611565565b610d1f565b6009546101f8906001600160a01b031681565b6101c261033a36600461173f565b610e23565b6101c2611063565b6101a56103553660046114f8565b600560209081526000928352604080842090915290825290205460ff1681565b6008546101f8906001600160a01b031681565b60007f01ffc9a7000000000000000000000000000000000000000000000000000000006001600160e01b0319831614806103eb57507f80ac58cd000000000000000000000000000000000000000000000000000000006001600160e01b03198316145b8061041f57507f5b5e139f000000000000000000000000000000000000000000000000000000006001600160e01b03198316145b92915050565b60008054610432906118bf565b80601f016020809104026020016040519081016040528092919081815260200182805461045e906118bf565b80156104ab5780601f10610480576101008083540402835291602001916104ab565b820191906000526020600020905b81548152906001019060200180831161048e57829003601f168201915b505050505081565b6000818152600260205260409020546001600160a01b0316338114806104fc57506001600160a01b038116600090815260056020908152604080832033845290915290205460ff165b61054d5760405162461bcd60e51b815260206004820152600e60248201527f4e4f545f415554484f52495a454400000000000000000000000000000000000060448201526064015b60405180910390fd5b600082815260046020526040808220805473ffffffffffffffffffffffffffffffffffffffff19166001600160a01b0387811691821790925591518593918516917f8c5be1e5ebec7d5bd14f71427d1e84f3dd0314c0f7b2291e5b200ac8c7c3b92591a4505050565b6000818152600260205260409020546001600160a01b0384811691161461061f5760405162461bcd60e51b815260206004820152600a60248201527f57524f4e475f46524f4d000000000000000000000000000000000000000000006044820152606401610544565b6001600160a01b0382166106755760405162461bcd60e51b815260206004820152601160248201527f494e56414c49445f524543495049454e540000000000000000000000000000006044820152606401610544565b336001600160a01b03841614806106af57506001600160a01b038316600090815260056020908152604080832033845290915290205460ff165b806106d057506000818152600460205260409020546001600160a01b031633145b61071c5760405162461bcd60e51b815260206004820152600e60248201527f4e4f545f415554484f52495a45440000000000000000000000000000000000006044820152606401610544565b6001600160a01b03808416600081815260036020908152604080832080546000190190559386168083528483208054600101905585835260028252848320805473ffffffffffffffffffffffffffffffffffffffff199081168317909155600490925284832080549092169091559251849392917fddf252ad1be2c89b69c2b068fc378daa952ba7f163c4a11628f55a4df523b3ef91a4505050565b60006107c8600680546001019055565b60006107d360065490565b90506107df83826110b3565b6001600c60008282546107f29190611838565b90915550909392505050565b6108098383836105b6565b6001600160a01b0382163b15806108c15750604051630a85bd0160e11b8082523360048301526001600160a01b03858116602484015260448301849052608060648401526000608484015290919084169063150b7a029060a401602060405180830381600087803b15801561087d57600080fd5b505af1158015610891573d6000803e3d6000fd5b505050506040513d601f19601f820116820180604052508101906108b5919061167a565b6001600160e01b031916145b61090d5760405162461bcd60e51b815260206004820152601060248201527f554e534146455f524543495049454e54000000000000000000000000000000006044820152606401610544565b505050565b6000818152600260205260409020546001600160a01b0316806109775760405162461bcd60e51b815260206004820152600a60248201527f4e4f545f4d494e544544000000000000000000000000000000000000000000006044820152606401610544565b919050565b60006001600160a01b0382166109d45760405162461bcd60e51b815260206004820152600c60248201527f5a45524f5f4144445245535300000000000000000000000000000000000000006044820152606401610544565b506001600160a01b031660009081526003602052604090205490565b60018054610432906118bf565b3360008181526005602090815260408083206001600160a01b0387168085529083529281902080547fffffffffffffffffffffffffffffffffffffffffffffffffffffffffffffff001686151590811790915590519081529192917f17307eab39ab6107e8899845ad3d59bd9653f200f220920489ca2b5937696c31910160405180910390a35050565b600854604051633427dd6760e01b815230600482015260248101839052606091600091829182916001600160a01b0390911690633427dd679060440160206040518083038186803b158015610adb57600080fd5b505afa158015610aef573d6000803e3d6000fd5b505050506040513d601f19601f82011682018060405250810190610b139190611757565b1115610b2e5750506008546001600160a01b03166001610c66565b600954604051633427dd6760e01b8152306004820152602481018690526000916001600160a01b031690633427dd679060440160206040518083038186803b158015610b7957600080fd5b505afa158015610b8d573d6000803e3d6000fd5b505050506040513d601f19601f82011682018060405250810190610bb19190611757565b1115610bcc5750506009546001600160a01b03166002610c66565b600a54604051633427dd6760e01b8152306004820152602481018690526000916001600160a01b031690633427dd679060440160206040518083038186803b158015610c1757600080fd5b505afa158015610c2b573d6000803e3d6000fd5b505050506040513d601f19601f82011682018060405250810190610c4f9190611757565b1115610c66575050600a546001600160a01b031660035b600b546040517f93d357e20000000000000000000000000000000000000000000000000000000081526004810186905260ff831660248201523060448201526001600160a01b038481166064830152909116906393d357e2906084015b60006040518083038186803b158015610cdb57600080fd5b505afa158015610cef573d6000803e3d6000fd5b505050506040513d6000823e601f3d908101601f19168201604052610d179190810190611696565b949350505050565b610d2a8585856105b6565b6001600160a01b0384163b1580610dd05750604051630a85bd0160e11b808252906001600160a01b0386169063150b7a0290610d729033908a908990899089906004016117b4565b602060405180830381600087803b158015610d8c57600080fd5b505af1158015610da0573d6000803e3d6000fd5b505050506040513d601f19601f82011682018060405250810190610dc4919061167a565b6001600160e01b031916145b610e1c5760405162461bcd60e51b815260206004820152601060248201527f554e534146455f524543495049454e54000000000000000000000000000000006044820152606401610544565b5050505050565b600854604051633427dd6760e01b815230600482015260248101839052606091600091829182916001600160a01b0390911690633427dd679060440160206040518083038186803b158015610e7757600080fd5b505afa158015610e8b573d6000803e3d6000fd5b505050506040513d601f19601f82011682018060405250810190610eaf9190611757565b1115610eca5750506008546001600160a01b03166001611002565b600954604051633427dd6760e01b8152306004820152602481018690526000916001600160a01b031690633427dd679060440160206040518083038186803b158015610f1557600080fd5b505afa158015610f29573d6000803e3d6000fd5b505050506040513d601f19601f82011682018060405250810190610f4d9190611757565b1115610f685750506009546001600160a01b03166002611002565b600a54604051633427dd6760e01b8152306004820152602481018690526000916001600160a01b031690633427dd679060440160206040518083038186803b158015610fb357600080fd5b505afa158015610fc7573d6000803e3d6000fd5b505050506040513d601f19601f82011682018060405250810190610feb9190611757565b1115611002575050600a546001600160a01b031660035b600b546040517fbb89c1640000000000000000000000000000000000000000000000000000000081526004810186905260ff831660248201526001600160a01b0384811660448301523060648301529091169063bb89c16490608401610cc3565b606060006040518061042001604052806103f081526020016119406103f09139905061108e816111c2565b60405160200161109e919061176f565b60405160208183030381529060405291505090565b6110bd828261138d565b6001600160a01b0382163b15806111725750604051630a85bd0160e11b80825233600483015260006024830181905260448301849052608060648401526084830152906001600160a01b0384169063150b7a029060a401602060405180830381600087803b15801561112e57600080fd5b505af1158015611142573d6000803e3d6000fd5b505050506040513d601f19601f82011682018060405250810190611166919061167a565b6001600160e01b031916145b6111be5760405162461bcd60e51b815260206004820152601060248201527f554e534146455f524543495049454e54000000000000000000000000000000006044820152606401610544565b5050565b60608151600014156111e257505060408051602081019091526000815290565b6000604051806060016040528060408152602001611d3060409139905060006003845160026112119190611838565b61121b9190611850565b611226906004611870565b90506000611235826020611838565b67ffffffffffffffff81111561125b57634e487b7160e01b600052604160045260246000fd5b6040519080825280601f01601f191660200182016040528015611285576020820181803683370190505b509050818152600183018586518101602084015b818310156112f35760039283018051603f601282901c811687015160f890811b8552600c83901c8216880151811b6001860152600683901c8216880151811b60028601529116860151901b93820193909352600401611299565b60038951066001811461130d57600281146113575761137f565b7f3d3d0000000000000000000000000000000000000000000000000000000000007ffffffffffffffffffffffffffffffffffffffffffffffffffffffffffffffffe83015261137f565b7f3d000000000000000000000000000000000000000000000000000000000000006000198301525b509398975050505050505050565b6001600160a01b0382166113e35760405162461bcd60e51b815260206004820152601160248201527f494e56414c49445f524543495049454e540000000000000000000000000000006044820152606401610544565b6000818152600260205260409020546001600160a01b0316156114485760405162461bcd60e51b815260206004820152600e60248201527f414c52454144595f4d494e5445440000000000000000000000000000000000006044820152606401610544565b6001600160a01b0382166000818152600360209081526040808320805460010190558483526002909152808220805473ffffffffffffffffffffffffffffffffffffffff19168417905551839291907fddf252ad1be2c89b69c2b068fc378daa952ba7f163c4a11628f55a4df523b3ef908290a45050565b80356001600160a01b038116811461097757600080fd5b6000602082840312156114e8578081fd5b6114f1826114c0565b9392505050565b6000806040838503121561150a578081fd5b611513836114c0565b9150611521602084016114c0565b90509250929050565b60008060006060848603121561153e578081fd5b611547846114c0565b9250611555602085016114c0565b9150604084013590509250925092565b60008060008060006080868803121561157c578081fd5b611585866114c0565b9450611593602087016114c0565b935060408601359250606086013567ffffffffffffffff808211156115b6578283fd5b818801915088601f8301126115c9578283fd5b8135818111156115d7578384fd5b8960208285010111156115e8578384fd5b9699959850939650602001949392505050565b6000806040838503121561160d578182fd5b611616836114c0565b91506020830135801515811461162a578182fd5b809150509250929050565b60008060408385031215611647578182fd5b611650836114c0565b946020939093013593505050565b60006020828403121561166f578081fd5b81356114f181611926565b60006020828403121561168b578081fd5b81516114f181611926565b6000602082840312156116a7578081fd5b815167ffffffffffffffff808211156116be578283fd5b818401915084601f8301126116d1578283fd5b8151818111156116e3576116e3611910565b604051601f8201601f19908116603f0116810190838211818310171561170b5761170b611910565b81604052828152876020848701011115611723578586fd5b61173483602083016020880161188f565b979650505050505050565b600060208284031215611750578081fd5b5035919050565b600060208284031215611768578081fd5b5051919050565b7f646174613a6170706c69636174696f6e2f6a736f6e3b6261736536342c0000008152600082516117a781601d85016020870161188f565b91909101601d0192915050565b60006001600160a01b03808816835280871660208401525084604083015260806060830152826080830152828460a084013781830160a090810191909152601f909201601f19160101949350505050565b602081526000825180602084015261182481604085016020870161188f565b601f01601f19169190910160400192915050565b6000821982111561184b5761184b6118fa565b500190565b60008261186b57634e487b7160e01b81526012600452602481fd5b500490565b600081600019048311821515161561188a5761188a6118fa565b500290565b60005b838110156118aa578181015183820152602001611892565b838111156118b9576000848401525b50505050565b600181811c908216806118d357607f821691505b602082108114156118f457634e487b7160e01b600052602260045260246000fd5b50919050565b634e487b7160e01b600052601160045260246000fd5b634e487b7160e01b600052604160045260246000fd5b6001600160e01b03198116811461193c57600080fd5b5056fe7b226e616d65223a202244414f53717561726520496e766573746d656e742056657374696e67222c226465736372697074696f6e223a22546865204e46547320696e2044414f53717561726520496e766573746d656e742056657374696e6720436f6c6c656374696f6e206172652067656e6572617465642066726f6d20696e766573746d656e7473206d6164652062792056656e747572652044414f7320696e2044414f53717561726520496e63756261746f722c207768696368206861766520757365642074686520457363726f772066756e6374696f6e20616e642061637469766174656420746865204e46542066756e6374696f6e2e2045616368204e465420726570726573656e74732074686520726967687420746f20636c61696d205061796261636b20546f6b656e7320666f7220616e20696e766573746d656e74206d61646520627920616e20696e766573746f722e20546865736520746f6b656e732068617665206265656e20657363726f77656420746f2074686520457363726f7720736d61727420636f6e747261637420616e642077696c6c206265206175746f6d61746963616c6c792072656c656173656420746f20746865204e465420686f6c646572207468726f756768207468652056657374696e67206d6f64756c65206f662044414f53717561726520496e63756261746f72206163636f7264696e6720746f207468652056657374696e67205363686564756c6520696e2074686520736d61727420636f6e74726163742e20596f752063616e2076696577207468652064796e616d696320646174612028696d6167652920616e642070726f7065727469657320696e666f726d6174696f6e206f662065616368204e465420746f20636865636b207768657468657220746865204e46542069732063757272656e746c792076616c696420616e64207468652073706563696669632072696768747320696e666f726d6174696f6e2e204e46547320696e207468697320636f6c6c656374696f6e20617265207472616e7366657261626c652e204e465420686f6c646572732063616e20757365207468657365204e46547320746f20636c61696d205061796261636b20546f6b656e73207468726f756768207468652044414f53717561726520496e63756261746f72732056657374696e67206d6f64756c652c207265676172646c657373206f662077686f20746865206f726967696e616c20696e766573746f722069732e222c22696d616765223a2268747470733a2f2f692e6962622e636f2f4a784e636d66342f436f6c6c656374696f6e2d4c6f676f2e706e67222c2265787465726e616c5f6c696e6b223a2268747470733a2f2f64616f7371756172652e6669227d4142434445464748494a4b4c4d4e4f505152535455565758595a6162636465666768696a6b6c6d6e6f707172737475767778797a303132333435363738392b2fa26469706673582212203681bf5c592e7b3a687d6c7726a6ee141b7cb825dfb1e98b64b5f616506253f864736f6c63430008040033",
  "linkReferences": {},
  "deployedLinkReferences": {}
}