{
  "_format": "hh-sol-artifact-1",
  "contractName": "SummonDao",
  "sourceName": "contracts/SummonDao.sol",
  "abi": [
    {
      "inputs": [],
      "stateMutability": "nonpayable",
      "type": "constructor"
    },
    {
      "anonymous": false,
      "inputs": [
        {
          "indexed": false,
          "internalType": "address",
          "name": "daoFactoryAddress",
          "type": "address"
        },
        {
          "indexed": false,
          "internalType": "address",
          "name": "daoAddr",
          "type": "address"
        },
        {
          "indexed": false,
          "internalType": "string",
          "name": "name",
          "type": "string"
        },
        {
          "indexed": false,
          "internalType": "address",
          "name": "creator",
          "type": "address"
        }
      ],
      "name": "FlexDaoCreated",
      "type": "event"
    },
    {
      "inputs": [
        {
          "components": [
            {
              "internalType": "address",
              "name": "target",
              "type": "address"
            },
            {
              "internalType": "bytes",
              "name": "callData",
              "type": "bytes"
            }
          ],
          "internalType": "struct SummonDao.Call[9]",
          "name": "calls",
          "type": "tuple[9]"
        }
      ],
      "name": "multiCall",
      "outputs": [],
      "stateMutability": "nonpayable",
      "type": "function"
    },
    {
      "inputs": [
        {
          "components": [
            {
              "internalType": "address[]",
              "name": "daoFactoriesAddress",
              "type": "address[]"
            },
            {
              "components": [
                {
                  "internalType": "bytes32",
                  "name": "id",
                  "type": "bytes32"
                },
                {
                  "internalType": "address",
                  "name": "addr",
                  "type": "address"
                },
                {
                  "internalType": "uint128",
                  "name": "flags",
                  "type": "uint128"
                }
              ],
              "internalType": "struct DaoFactory.Adapter[]",
              "name": "enalbeAdapters",
              "type": "tuple[]"
            },
            {
              "components": [
                {
                  "internalType": "bytes32",
                  "name": "id",
                  "type": "bytes32"
                },
                {
                  "internalType": "address",
                  "name": "addr",
                  "type": "address"
                },
                {
                  "internalType": "uint128",
                  "name": "flags",
                  "type": "uint128"
                }
              ],
              "internalType": "struct DaoFactory.Adapter[]",
              "name": "adapters1",
              "type": "tuple[]"
            },
            {
              "internalType": "bool",
              "name": "fundingPollEnable",
              "type": "bool"
            },
            {
              "components": [
                {
                  "internalType": "bool",
                  "name": "enable",
                  "type": "bool"
                },
                {
                  "internalType": "uint256",
                  "name": "maxInvestorsAmount",
                  "type": "uint256"
                }
              ],
              "internalType": "struct SummonDao.flexDaoInvestorCapInfo",
              "name": "_flexDaoInvestorCapInfo",
              "type": "tuple"
            },
            {
              "internalType": "bool",
              "name": "flexDaoInvestorMembetshipEnable",
              "type": "bool"
            },
            {
              "components": [
                {
                  "internalType": "uint8",
                  "name": "varifyType",
                  "type": "uint8"
                },
                {
                  "internalType": "string",
                  "name": "name",
                  "type": "string"
                },
                {
                  "internalType": "uint256",
                  "name": "minHolding",
                  "type": "uint256"
                },
                {
                  "internalType": "address",
                  "name": "tokenAddress",
                  "type": "address"
                },
                {
                  "internalType": "uint256",
                  "name": "tokenId",
                  "type": "uint256"
                },
                {
                  "internalType": "address[]",
                  "name": "whiteList",
                  "type": "address[]"
                }
              ],
              "internalType": "struct SummonDao.flexDaoPaticipantMembershipInfo",
              "name": "_flexDaoPaticipantMembershipInfos",
              "type": "tuple"
            },
            {
              "internalType": "bool",
              "name": "flexDaoPriorityDepositEnalbe",
              "type": "bool"
            },
            {
              "components": [
                {
                  "internalType": "uint8",
                  "name": "varifyType",
                  "type": "uint8"
                },
                {
                  "internalType": "uint256",
                  "name": "minHolding",
                  "type": "uint256"
                },
                {
                  "internalType": "address",
                  "name": "tokenAddress",
                  "type": "address"
                },
                {
                  "internalType": "uint256",
                  "name": "tokenId",
                  "type": "uint256"
                },
                {
                  "internalType": "address[]",
                  "name": "whiteList",
                  "type": "address[]"
                },
                {
                  "internalType": "uint256",
                  "name": "priorityPeriod",
                  "type": "uint256"
                }
              ],
              "internalType": "struct SummonDao.flexDaoPriorityMembershipInfo",
              "name": "_flexDaoPriorityMembershipInfo",
              "type": "tuple"
            },
            {
              "components": [
                {
                  "internalType": "bool",
                  "name": "enable",
                  "type": "bool"
                },
                {
                  "internalType": "string",
                  "name": "name",
                  "type": "string"
                },
                {
                  "internalType": "uint256",
                  "name": "varifyType",
                  "type": "uint256"
                },
                {
                  "internalType": "uint256",
                  "name": "minHolding",
                  "type": "uint256"
                },
                {
                  "internalType": "address",
                  "name": "tokenAddress",
                  "type": "address"
                },
                {
                  "internalType": "uint256",
                  "name": "tokenId",
                  "type": "uint256"
                },
                {
                  "internalType": "address[]",
                  "name": "whiteList",
                  "type": "address[]"
                }
              ],
              "internalType": "struct SummonDao.flexDaoGovernorMembershipInfo",
              "name": "_flexDaoGovernorMembershipInfo",
              "type": "tuple"
            },
            {
              "components": [
                {
                  "internalType": "uint256",
                  "name": "votingAssetType",
                  "type": "uint256"
                },
                {
                  "internalType": "address",
                  "name": "tokenAddress",
                  "type": "address"
                },
                {
                  "internalType": "uint256",
                  "name": "tokenID",
                  "type": "uint256"
                },
                {
                  "internalType": "uint256",
                  "name": "votingPeriod",
                  "type": "uint256"
                },
                {
                  "internalType": "uint8",
                  "name": "votingPower",
                  "type": "uint8"
                },
                {
                  "internalType": "uint256",
                  "name": "superMajority",
                  "type": "uint256"
                },
                {
                  "internalType": "uint256",
                  "name": "quorum",
                  "type": "uint256"
                },
                {
                  "internalType": "uint256",
                  "name": "supportType",
                  "type": "uint256"
                },
                {
                  "internalType": "uint256",
                  "name": "quorumType",
                  "type": "uint256"
                }
              ],
              "internalType": "struct SummonDao.flexDaoVotingInfo",
              "name": "_flexDaoVotingInfo",
              "type": "tuple"
            },
            {
              "components": [
                {
                  "internalType": "uint8",
                  "name": "varifyType",
                  "type": "uint8"
                },
                {
                  "internalType": "string",
                  "name": "name",
                  "type": "string"
                },
                {
                  "internalType": "uint256",
                  "name": "minHolding",
                  "type": "uint256"
                },
                {
                  "internalType": "address",
                  "name": "tokenAddress",
                  "type": "address"
                },
                {
                  "internalType": "uint256",
                  "name": "tokenId",
                  "type": "uint256"
                },
                {
                  "internalType": "address[]",
                  "name": "whiteList",
                  "type": "address[]"
                }
              ],
              "internalType": "struct SummonDao.flexDaoPollVoterMembershipInfo",
              "name": "_flexDaoPollVoterMembershipInfo",
              "type": "tuple"
            },
            {
              "components": [
                {
                  "internalType": "uint256",
                  "name": "votingPeriod",
                  "type": "uint256"
                },
                {
                  "internalType": "uint8",
                  "name": "votingPower",
                  "type": "uint8"
                },
                {
                  "internalType": "uint256",
                  "name": "superMajority",
                  "type": "uint256"
                },
                {
                  "internalType": "uint256",
                  "name": "quorum",
                  "type": "uint256"
                },
                {
                  "internalType": "uint256",
                  "name": "votingAssetType",
                  "type": "uint256"
                },
                {
                  "internalType": "address",
                  "name": "tokenAddress",
                  "type": "address"
                },
                {
                  "internalType": "uint256",
                  "name": "tokenID",
                  "type": "uint256"
                },
                {
                  "internalType": "uint256",
                  "name": "supportType",
                  "type": "uint256"
                },
                {
                  "internalType": "uint256",
                  "name": "quorumType",
                  "type": "uint256"
                }
              ],
              "internalType": "struct SummonDao.flexDaoPollingInfo",
              "name": "_flexDaoPollingInfo",
              "type": "tuple"
            },
            {
              "components": [
                {
                  "internalType": "bool",
                  "name": "proposerMembershipEnable",
                  "type": "bool"
                },
                {
                  "internalType": "string",
                  "name": "name",
                  "type": "string"
                },
                {
                  "internalType": "uint8",
                  "name": "varifyType",
                  "type": "uint8"
                },
                {
                  "internalType": "uint256",
                  "name": "minHolding",
                  "type": "uint256"
                },
                {
                  "internalType": "address",
                  "name": "tokenAddress",
                  "type": "address"
                },
                {
                  "internalType": "uint256",
                  "name": "tokenId",
                  "type": "uint256"
                },
                {
                  "internalType": "address[]",
                  "name": "whiteList",
                  "type": "address[]"
                }
              ],
              "internalType": "struct SummonDao.flexDaoProposerMembershipInfo",
              "name": "_flexDaoProposerMembershipInfo",
              "type": "tuple"
            },
            {
              "components": [
                {
                  "internalType": "string",
                  "name": "name",
                  "type": "string"
                },
                {
                  "internalType": "address",
                  "name": "creator",
                  "type": "address"
                },
                {
                  "internalType": "uint256",
                  "name": "flexDaoManagementfee",
                  "type": "uint256"
                },
                {
                  "internalType": "uint256",
                  "name": "returnTokenManagementFee",
                  "type": "uint256"
                },
                {
                  "internalType": "address",
                  "name": "managementFeeAddress",
                  "type": "address"
                },
                {
                  "internalType": "address[]",
                  "name": "flexDaoGenesisStewards",
                  "type": "address[]"
                },
                {
                  "internalType": "uint256[]",
                  "name": "allocations",
                  "type": "uint256[]"
                },
                {
                  "internalType": "address",
                  "name": "riceRewardReceiver",
                  "type": "address"
                }
              ],
              "internalType": "struct SummonDao.flexDaoInfo",
              "name": "_flexDaoInfo",
              "type": "tuple"
            }
          ],
          "internalType": "struct SummonDao.FlexDaoParams",
          "name": "params",
          "type": "tuple"
        }
      ],
      "name": "summonFlexDao",
      "outputs": [],
      "stateMutability": "nonpayable",
      "type": "function"
    },
    {
      "inputs": [
        {
          "internalType": "address",
          "name": "daoFacAddr",
          "type": "address"
        },
        {
          "internalType": "string",
          "name": "daoName",
          "type": "string"
        },
        {
          "internalType": "address",
          "name": "creator",
          "type": "address"
        }
      ],
      "name": "summonFlexDao1",
      "outputs": [
        {
          "internalType": "bool",
          "name": "",
          "type": "bool"
        }
      ],
      "stateMutability": "nonpayable",
      "type": "function"
    },
    {
      "inputs": [
        {
          "internalType": "bool",
          "name": "flexDaoPriorityDepositEnalbe",
          "type": "bool"
        },
        {
          "internalType": "uint256",
          "name": "flexDaoPriorityMembershipVarifyType",
          "type": "uint256"
        },
        {
          "internalType": "uint256",
          "name": "flexDaoPriorityMembershipPriorityPeriod",
          "type": "uint256"
        },
        {
          "internalType": "uint256",
          "name": "flexDaoPriorityMembershipMinHolding",
          "type": "uint256"
        },
        {
          "internalType": "uint256",
          "name": "flexDaoPriorityMembershipTokenId",
          "type": "uint256"
        },
        {
          "internalType": "address[]",
          "name": "flexDaoPriorityMembershipWhiteList",
          "type": "address[]"
        },
        {
          "internalType": "address",
          "name": "flexDaoPriorityMembershipTokenAddress",
          "type": "address"
        },
        {
          "internalType": "address",
          "name": "newDaoAddr",
          "type": "address"
        }
      ],
      "name": "summonFlexDao10",
      "outputs": [
        {
          "internalType": "bool",
          "name": "",
          "type": "bool"
        }
      ],
      "stateMutability": "nonpayable",
      "type": "function"
    },
    {
      "inputs": [
        {
          "internalType": "address",
          "name": "flexFundingPoolFacAddr",
          "type": "address"
        },
        {
          "internalType": "address",
          "name": "newDaoAddr",
          "type": "address"
        },
        {
          "internalType": "address",
          "name": "creator",
          "type": "address"
        }
      ],
      "name": "summonFlexDao2",
      "outputs": [
        {
          "internalType": "bool",
          "name": "",
          "type": "bool"
        }
      ],
      "stateMutability": "nonpayable",
      "type": "function"
    },
    {
      "inputs": [
        {
          "internalType": "address",
          "name": "daoFacAddr",
          "type": "address"
        },
        {
          "components": [
            {
              "internalType": "bytes32",
              "name": "id",
              "type": "bytes32"
            },
            {
              "internalType": "address",
              "name": "addr",
              "type": "address"
            },
            {
              "internalType": "uint128",
              "name": "flags",
              "type": "uint128"
            }
          ],
          "internalType": "struct DaoFactory.Adapter[]",
          "name": "enalbeAdapters",
          "type": "tuple[]"
        },
        {
          "internalType": "address",
          "name": "newDaoAddr",
          "type": "address"
        }
      ],
      "name": "summonFlexDao3",
      "outputs": [
        {
          "internalType": "bool",
          "name": "",
          "type": "bool"
        }
      ],
      "stateMutability": "nonpayable",
      "type": "function"
    },
    {
      "inputs": [
        {
          "internalType": "address",
          "name": "daoFacAddr",
          "type": "address"
        },
        {
          "internalType": "address",
          "name": "flexFundingPoolFacAddr",
          "type": "address"
        },
        {
          "components": [
            {
              "internalType": "bytes32",
              "name": "id",
              "type": "bytes32"
            },
            {
              "internalType": "address",
              "name": "addr",
              "type": "address"
            },
            {
              "internalType": "uint128",
              "name": "flags",
              "type": "uint128"
            }
          ],
          "internalType": "struct DaoFactory.Adapter[]",
          "name": "adapters1",
          "type": "tuple[]"
        },
        {
          "internalType": "address",
          "name": "newDaoAddr",
          "type": "address"
        }
      ],
      "name": "summonFlexDao4",
      "outputs": [
        {
          "internalType": "bool",
          "name": "",
          "type": "bool"
        }
      ],
      "stateMutability": "nonpayable",
      "type": "function"
    },
    {
      "inputs": [
        {
          "internalType": "uint256",
          "name": "flexDaoManagementfee",
          "type": "uint256"
        },
        {
          "internalType": "address",
          "name": "managementFeeAddress",
          "type": "address"
        },
        {
          "internalType": "uint256",
          "name": "flexDaoReturnTokenManagementFee",
          "type": "uint256"
        },
        {
          "internalType": "address",
          "name": "newDaoAddr",
          "type": "address"
        },
        {
          "internalType": "uint8",
          "name": "votingPower",
          "type": "uint8"
        },
        {
          "internalType": "uint256",
          "name": "tokenID",
          "type": "uint256"
        },
        {
          "internalType": "address",
          "name": "tokenAddress",
          "type": "address"
        },
        {
          "internalType": "uint256[6]",
          "name": "_uint256VoteArgs",
          "type": "uint256[6]"
        },
        {
          "internalType": "address",
          "name": "riceRewardReceiver",
          "type": "address"
        }
      ],
      "name": "summonFlexDao5",
      "outputs": [
        {
          "internalType": "bool",
          "name": "",
          "type": "bool"
        }
      ],
      "stateMutability": "nonpayable",
      "type": "function"
    },
    {
      "inputs": [
        {
          "internalType": "address[]",
          "name": "flexDaoGenesisStewards",
          "type": "address[]"
        },
        {
          "internalType": "uint256[]",
          "name": "allocations",
          "type": "uint256[]"
        },
        {
          "internalType": "address",
          "name": "newDaoAddr",
          "type": "address"
        },
        {
          "internalType": "uint256",
          "name": "votingAssetType",
          "type": "uint256"
        }
      ],
      "name": "summonFlexDao6",
      "outputs": [
        {
          "internalType": "bool",
          "name": "",
          "type": "bool"
        }
      ],
      "stateMutability": "nonpayable",
      "type": "function"
    },
    {
      "inputs": [
        {
          "internalType": "bool[2]",
          "name": "booleanParams",
          "type": "bool[2]"
        },
        {
          "internalType": "string",
          "name": "flexPollVoterMembershipName",
          "type": "string"
        },
        {
          "internalType": "uint256[10]",
          "name": "uint256Params",
          "type": "uint256[10]"
        },
        {
          "internalType": "address[3]",
          "name": "addressParams",
          "type": "address[3]"
        },
        {
          "internalType": "address[]",
          "name": "flexDaoPollVoterMembershipWhiteList",
          "type": "address[]"
        }
      ],
      "name": "summonFlexDao7",
      "outputs": [
        {
          "internalType": "bool",
          "name": "",
          "type": "bool"
        }
      ],
      "stateMutability": "nonpayable",
      "type": "function"
    },
    {
      "inputs": [
        {
          "internalType": "bool",
          "name": "flexDaoStewardMembershipEnable",
          "type": "bool"
        },
        {
          "internalType": "bool",
          "name": "flexDaoProposerMembershipEnable",
          "type": "bool"
        },
        {
          "internalType": "string[2]",
          "name": "stringParams",
          "type": "string[2]"
        },
        {
          "internalType": "uint256[6]",
          "name": "uint256Params",
          "type": "uint256[6]"
        },
        {
          "internalType": "address[3]",
          "name": "addressParams",
          "type": "address[3]"
        },
        {
          "internalType": "address[]",
          "name": "flexDaoStewardMembershipWhitelist",
          "type": "address[]"
        },
        {
          "internalType": "address[]",
          "name": "flexDaoProposerMembershipWhiteList",
          "type": "address[]"
        }
      ],
      "name": "summonFlexDao8",
      "outputs": [
        {
          "internalType": "bool",
          "name": "",
          "type": "bool"
        }
      ],
      "stateMutability": "nonpayable",
      "type": "function"
    },
    {
      "inputs": [
        {
          "internalType": "bool",
          "name": "flexDaoInvestorMembetshipEnable",
          "type": "bool"
        },
        {
          "internalType": "string",
          "name": "name",
          "type": "string"
        },
        {
          "internalType": "uint256",
          "name": "flexDaoPaticipantMembershipVarifyType",
          "type": "uint256"
        },
        {
          "internalType": "uint256",
          "name": "flexDaoPaticipantMembershipMinHolding",
          "type": "uint256"
        },
        {
          "internalType": "uint256",
          "name": "flexDaoPaticipantMembershipTokenId",
          "type": "uint256"
        },
        {
          "internalType": "address",
          "name": "flexDaoPaticipantMembershipTokenAddress",
          "type": "address"
        },
        {
          "internalType": "address[]",
          "name": "flexDaoPaticipantMembershipWhiteList",
          "type": "address[]"
        },
        {
          "internalType": "address",
          "name": "newDaoAddr",
          "type": "address"
        }
      ],
      "name": "summonFlexDao9",
      "outputs": [
        {
          "internalType": "bool",
          "name": "",
          "type": "bool"
        }
      ],
      "stateMutability": "nonpayable",
      "type": "function"
    }
  ],
  "bytecode": "0x608060405234801561001057600080fd5b5061593880620000216000396000f3fe608060405234801561001057600080fd5b50600436106100d45760003560e01c8063a22dff6d11610081578063d2bdd0671161005b578063d2bdd0671461019a578063e23fdcb2146101ad578063e9f2e405146101c057600080fd5b8063a22dff6d14610161578063a694adaa14610174578063c60670501461018757600080fd5b806339c653df116100b257806339c653df14610126578063724c80111461013b5780637c0805221461014e57600080fd5b806301accef7146100d957806328e037521461010057806332c575f614610113575b600080fd5b6100ec6100e73660046149bc565b6101d3565b604051901515815260200160405180910390f35b6100ec61010e366004614beb565b6104b1565b6100ec6101213660046148ec565b610b55565b610139610134366004614e31565b610d49565b005b610139610149366004614aac565b611cfc565b6100ec61015c366004614e6a565b611e21565b6100ec61016f36600461480b565b61252e565b6100ec6101823660046147c1565b612667565b6100ec610195366004614933565b612825565b6100ec6101a8366004614d92565b612850565b6100ec6101bb366004614ccf565b612ac5565b6100ec6101ce366004614886565b612b8f565b6000806101e66040860160208701614782565b90503033146101f457600080fd5b88511561039057604051630da0f6c760e41b81527f6e9fd67c3f2ca4e2b4e4b45b33b985dc3a1bffcadea24d12440a5901f72217b56004820152600160248201526001600160a01b0382169063da0f6c7090604401600060405180830381600087803b15801561026357600080fd5b505af1158015610277573d6000803e3d6000fd5b505050506102e881876000600a81106102a057634e487b7160e01b600052603260045260246000fd5b6020020151886001602002015189600260200201518a600360200201518b600460200201518c600560200201518c60026020020160208101906102e39190614782565b612be9565b61039081898960405180606001604052808b6006600a811061031a57634e487b7160e01b600052603260045260246000fd5b602002015181526020018b6007600a811061034557634e487b7160e01b600052603260045260246000fd5b602002015181526020018b6008600a811061037057634e487b7160e01b600052603260045260246000fd5b60209081029190910151909152610389908b018b614782565b8989612f9b565b6020890151156104a257604051630da0f6c760e41b81527f69f4ffb3ebcb7809550bddd3e4d449a47e737bf6635bc7a730996643997b0e486004820152600160248201526001600160a01b0382169063da0f6c7090604401600060405180830381600087803b15801561040257600080fd5b505af1158015610416573d6000803e3d6000fd5b505050610120870151604051630da0f6c760e41b81527fecbde689cc6337d29a750b8b8a8abbfa97427b4ac800ab55be2f2c87311510f2600482015260248101919091526001600160a01b038316915063da0f6c7090604401600060405180830381600087803b15801561048957600080fd5b505af115801561049d573d6000803e3d6000fd5b505050505b50600198975050505050505050565b6000806104c46060880160408901614782565b90503033146104d257600080fd5b8a156109dc57604051630da0f6c760e41b81527f71ecc01da16acc23ab0eca549b0aaa7659ae183a220304fe5072243bc984fd796004820152600160248201526001600160a01b0382169063da0f6c7090604401600060405180830381600087803b15801561054057600080fd5b505af1158015610554573d6000803e3d6000fd5b5050506001600160a01b038216905063f958b7107fe6fc898f462d48724eb27b66193f38e8f83f214469eb3145fe9431a89411e7246105938c8061564b565b6040518463ffffffff1660e01b81526004016105b193929190615485565b600060405180830381600087803b1580156105cb57600080fd5b505af11580156105df573d6000803e3d6000fd5b50508951604051630da0f6c760e41b81527f84580f9d926113d2c801e908a914b652340b3d8527c171bcea8d1868e92a507c600482015260248101919091526001600160a01b038416925063da0f6c709150604401600060405180830381600087803b15801561064e57600080fd5b505af1158015610662573d6000803e3d6000fd5b505050508760006006811061068757634e487b7160e01b600052603260045260246000fd5b60200201511580610699575087516001145b806106a5575087516002145b156107ce576020880151604051630da0f6c760e41b81527f50c40dbbb38d5b02b04e0c6d7be02f4391fc8c14a98860284871ef1834c8390b600482015260248101919091526001600160a01b0382169063da0f6c7090604401600060405180830381600087803b15801561071857600080fd5b505af115801561072c573d6000803e3d6000fd5b5050506001600160a01b0382169050633b4f921a7f0bfac56541ded449415df8f96f54b002e55665d7fd2fafc884184e8c17f3c77261076e60208b018b614782565b6040516001600160e01b031960e085901b16815260048101929092526001600160a01b03166024820152604401600060405180830381600087803b1580156107b557600080fd5b505af11580156107c9573d6000803e3d6000fd5b505050505b87516002141561085f576040808901519051630da0f6c760e41b81527f93cc40268a57b3f7e5eb22a016a12d19010736289cceac5742a116fea3491b35600482015260248101919091526001600160a01b0382169063da0f6c7090604401600060405180830381600087803b15801561084657600080fd5b505af115801561085a573d6000803e3d6000fd5b505050505b8751600314801561086f57508415155b156109dc576040516317ba7d8560e01b81527fcad7b0867188190920a10bf710c45443f6358175d56a759e7dc109e6d7b5d75360048201526000906001600160a01b038316906317ba7d859060240160206040518083038186803b1580156108d657600080fd5b505afa1580156108ea573d6000803e3d6000fd5b505050506040513d601f19601f8201168201806040525081019061090e91906147a5565b905060005b60ff81168711156109d957816001600160a01b03166333f7bc0c848a8a8560ff1681811061095157634e487b7160e01b600052603260045260246000fd5b90506020020160208101906109669190614782565b6040516001600160e01b031960e085901b1681526001600160a01b03928316600482015291166024820152604401600060405180830381600087803b1580156109ae57600080fd5b505af11580156109c2573d6000803e3d6000fd5b5050505080806109d190615874565b915050610913565b50505b8915610b4457604051630da0f6c760e41b81527f2073e6ba5c75026b006fdd165596d94b89cada2e00d8e44a99d422de8ea467e06004820152600160248201526001600160a01b0382169063da0f6c7090604401600060405180830381600087803b158015610a4a57600080fd5b505af1158015610a5e573d6000803e3d6000fd5b5050506001600160a01b038216905063f958b7107fed2fa238da16f9e9bea8f1aa8dc2f0d04c522f8adbda71cc4ea5c11f5a51f32d610aa060208d018d61564b565b6040518463ffffffff1660e01b8152600401610abe93929190615485565b600060405180830381600087803b158015610ad857600080fd5b505af1158015610aec573d6000803e3d6000fd5b50505050610b448189600360068110610b1557634e487b7160e01b600052603260045260246000fd5b60200201518a600560200201518a6001602002016020810190610b389190614782565b60808d015189896132b4565b5060019a9950505050505050505050565b6000303314610b6357600080fd5b6040517f3baeff3f00000000000000000000000000000000000000000000000000000000815285906001600160a01b03821690633baeff3f90610bae90889088908890600401615516565b600060405180830381600087803b158015610bc857600080fd5b505af1158015610bdc573d6000803e3d6000fd5b50506040517f1d1f0a27000000000000000000000000000000000000000000000000000000008152600092506001600160a01b0384169150631d1f0a2790610c2a9089908990600401615502565b60206040518083038186803b158015610c4257600080fd5b505afa158015610c56573d6000803e3d6000fd5b505050506040513d601f19601f82011682018060405250810190610c7a91906147a5565b90506001600160a01b038116610cfd5760405162461bcd60e51b815260206004820152602c60248201527f53756d6d6d6f6e44616f3a3a73756d6d6f6e466c657844616f3a3a637265617460448201527f652064616f206661696c6564000000000000000000000000000000000000000060648201526084015b60405180910390fd5b7f90b4d575a386848fdb50424cc74bd3396f96cbd019887f6e1cad00bf90b920bf8782888888604051610d34959493929190615143565b60405180910390a15060019695505050505050565b806000610d5a6103e08301836156c3565b6040013510158015610d845750670de0b6b3a7640000610d7e6103e08301836156c3565b60400135105b610df65760405162461bcd60e51b815260206004820152602e60248201527f53756d6d6f6e20466c65782044414f3a3a496e76616c6964204d616e6167656d60448201527f656e742046656520416d6f756e740000000000000000000000000000000000006064820152608401610cf4565b610dfe6144df565b610e0883806155bc565b6000818110610e2757634e487b7160e01b600052603260045260246000fd5b9050602002016020810190610e3c9190614782565b610e4a6103e08501856156c3565b610e54908061564b565b610e626103e08701876156c3565b610e73906040810190602001614782565b604051602401610e8694939291906151a7565b60408051601f198184030181529181526020820180516001600160e01b03167f32c575f600000000000000000000000000000000000000000000000000000000179052818352513091610ed89161507a565b6000604051808303816000865af19150503d8060008114610f15576040519150601f19603f3d011682016040523d82523d6000602084013e610f1a565b606091505b5061016083015215156101408201819052610f9d5760405162461bcd60e51b815260206004820152603060248201527f6c6f772d6c6576656c2063616c6c206f662066756e6374696f6e2073756d6d6f60448201527f6e466c657844616f31206661696c6564000000000000000000000000000000006064820152608401610cf4565b6000610fad6103e08501856156c3565b610fb7908061564b565b604051602401610fc8929190615502565b60408051601f198184030181529190526020810180516001600160e01b03167f1d1f0a2700000000000000000000000000000000000000000000000000000000179052905061101784806155bc565b600081811061103657634e487b7160e01b600052603260045260246000fd5b905060200201602081019061104b9190614782565b6001600160a01b031681604051611062919061507a565b6000604051808303816000865af19150503d806000811461109f576040519150601f19603f3d011682016040523d82523d6000602084013e6110a4565b606091505b5061016084018190529015801561014085018190526020909201516001600160a01b03166101808501526110e557506101808201516001600160a01b031615155b6110ee57600080fd5b6110f884806155bc565b600181811061111757634e487b7160e01b600052603260045260246000fd5b905060200201602081019061112c9190614782565b6101808301516111406103e08701876156c3565b611151906040810190602001614782565b6040516001600160a01b0393841660248201529183166044830152909116606482015260840160408051601f19818403018152919052602080820180516001600160e01b03167fa694adaa000000000000000000000000000000000000000000000000000000001790528301526111c884806155bc565b60008181106111e757634e487b7160e01b600052603260045260246000fd5b90506020020160208101906111fc9190614782565b6112096020860186615604565b846101800151604051602401611222949392919061516f565b60408051601f198184030181529181526020820180516001600160e01b03167fe9f2e4050000000000000000000000000000000000000000000000000000000017905283015261127284806155bc565b600081811061129157634e487b7160e01b600052603260045260246000fd5b90506020020160208101906112a69190614782565b6112b085806155bc565b60018181106112cf57634e487b7160e01b600052603260045260246000fd5b90506020020160208101906112e49190614782565b6112f16040870187615604565b85610180015160405160240161130b959493929190615102565b60408051601f19818403018152918152602080830180516001600160e01b03167fa22dff6d00000000000000000000000000000000000000000000000000000000179052606080860193909352815160c0810183526101c08801358152610200880135918101919091526101608701359181019190915261022086013591810191909152610240850135608082015261026085013560a08201526113b36103e08601866156c3565b604001356113c56103e08701876156c3565b6113d69060a0810190608001614782565b6113e46103e08801886156c3565b61018086015160609190910135906114046102008a016101e08b01614ef9565b6101a08a0180359061141a906101808d01614782565b876114296103e08e018e6156c3565b61143b9061010081019060e001614782565b60405160240161145399989796959493929190615556565b60408051601f198184030181529190526020810180516001600160e01b03167f7c0805220000000000000000000000000000000000000000000000000000000017905260808401526114a96103e08601866156c3565b6114b79060a08101906155bc565b6114c56103e08801886156c3565b6114d39060c08101906155bc565b6101808701516040516114f49594939291906101608c0135906024016151cb565b60408051601f19818403018152918152602080830180516001600160e01b03167fc60670500000000000000000000000000000000000000000000000000000000017905260a0860192909252805161014081019091526102a0870135815260009181016115696102e089016102c08a01614ef9565b60ff1681526102e0880135602082015261030088013560408201526103208801356060820152610360880135608082015260a0016115ab6102808901896156f6565b6115b9906020810190614ef9565b60ff1681526020016115cf6102808901896156f6565b6040013581526020016115e66102808901896156f6565b608001358152602001876080016020013581525090506000604051806040016040528088606001602081019061161c9190614bd1565b1515815260200161163360a08a0160808b01614bd1565b151590529050806116486102808901896156f6565b61165690602081019061564b565b8460405180606001604052808c80610280019061167391906156f6565b611684906080810190606001614782565b6001600160a01b0390811682526101808c01511660208201526040016116b26103608e016103408f01614782565b6001600160a01b031690526116cb6102808d018d6156f6565b6116d99060a08101906155bc565b6040516024016116ef9796959493929190615245565b60408051601f198184030181529181526020820180516001600160e01b03167f01accef70000000000000000000000000000000000000000000000000000000017905260c08088019290925280519182019052600090806117546101408b018b615690565b60400135815260200161176b6101408b018b615690565b6060013581526020016117826101408b018b615690565b60a0013581526020016117996103c08b018b615690565b6117aa906060810190604001614ef9565b60ff1681526020016117c06103c08b018b615690565b60a0013581526020016117d76103c08b018b615690565b60600135905290506117ed610140890189615690565b6117fb906020810190614bd1565b6118096103c08a018a615690565b611817906020810190614bd1565b60408051808201909152806118306101408d018d615690565b61183e90602081019061564b565b8080601f0160208091040260200160405190810160405280939291908181526020018383808284376000920191909152505050908252506020016118866103c08d018d615690565b61189490602081019061564b565b8080601f016020809104026020016040519081016040528093929190818152602001838380828437600092019190915250505091525060408051606081019091528490806118e66101408f018f615690565b6118f79060a0810190608001614782565b6001600160a01b031681526020016119136103c08f018f615690565b6119249060a0810190608001614782565b6001600160a01b0390811682526101808d01511660209091015261194c6101408e018e615690565b61195a9060c08101906155bc565b8e806103c0019061196b9190615690565b6119799060c08101906155bc565b604051602401611991999897969594939291906152e0565b60408051601f198184030181529190526020810180516001600160e01b03167f28e037520000000000000000000000000000000000000000000000000000000017905260e0808801919091526119ec90890160c08a01614bd1565b6119f960e08a018a6156f6565b611a0790602081019061564b565b611a1460e08c018c6156f6565b611a22906020810190614ef9565b611a2f60e08d018d6156f6565b60400135611a4060e08e018e6156f6565b60800135611a5160e08f018f6156f6565b611a62906080810190606001614782565b8e8060e00190611a7291906156f6565b611a809060a08101906155bc565b8e6101800151604051602401611a9f9a999897969594939291906153b1565b60408051601f198184030181529190526020810180516001600160e01b03167fe23fdcb20000000000000000000000000000000000000000000000000000000017905261010080880191909152611afd906101208a01908a01614bd1565b611b0b6101208a018a6156f6565b611b19906020810190614ef9565b611b276101208b018b6156f6565b60a00135611b396101208c018c6156f6565b60200135611b4b6101208d018d6156f6565b60600135611b5d6101208e018e6156f6565b611b6b9060808101906155bc565b8e806101200190611b7c91906156f6565b611b8d906060810190604001614782565b8d6101800151604051602401611bab99989796959493929190615423565b60408051601f19818403018152918152602080830180516001600160e01b03167fd2bdd06700000000000000000000000000000000000000000000000000000000179052610120890192835281518083018352308082528a830151828401526101a08b01805192909252835180850185528181528b850151818501528251840152835180850185528181526060808d0151828601528351860191909152845180860186528281526080808e0151828701528451909201528451808601865282815260a0808e0151828701528451909201528451808601865282815260c0808e0151828701528451909201528451808601865282815260e0808e015182870152845190920152845180860186528281526101008d015181860152835190910152835180850190945283529251908201529051600860200201526101a0860151611cf290611cfc565b5050505050505050565b60005b6009811015611e1d576000828260098110611d2a57634e487b7160e01b600052603260045260246000fd5b6020020151516001600160a01b0316838360098110611d5957634e487b7160e01b600052603260045260246000fd5b602002015160200151604051611d6f919061507a565b6000604051808303816000865af19150503d8060008114611dac576040519150601f19603f3d011682016040523d82523d6000602084013e611db1565b606091505b5050905080611dcb836002611dc691906157a7565b6134f1565b604051602001611ddb9190615096565b60405160208183030381529060405290611e085760405162461bcd60e51b8152600401610cf49190615543565b50508080611e159061583b565b915050611cff565b5050565b600086303314611e3057600080fd5b604051630da0f6c760e41b81527f64c49ee5084f4940c312104c41603e43791b03dad28152afd6eadb5b960a8a876004820152602481018c90526001600160a01b0382169063da0f6c7090604401600060405180830381600087803b158015611e9857600080fd5b505af1158015611eac573d6000803e3d6000fd5b5050604051631da7c90d60e11b81527f8987d08c67963e4cacd5e5936c122a968c66853d58299dd822c194222710983960048201526001600160a01b038d8116602483015284169250633b4f921a9150604401600060405180830381600087803b158015611f1957600080fd5b505af1158015611f2d573d6000803e3d6000fd5b5050604051630da0f6c760e41b81527fea659d8e1a730b10af1cecb4f8ee391adf80e75302d6aaeb9642dc8a4a5e5dbb6004820152602481018c90526001600160a01b038416925063da0f6c709150604401600060405180830381600087803b158015611f9957600080fd5b505af1158015611fad573d6000803e3d6000fd5b5050604051631da7c90d60e11b81527fc77068975ba2254bd67080aa196783f213ee682a15d902d03f33782130cf737d60048201526001600160a01b03868116602483015284169250633b4f921a9150604401600060405180830381600087803b15801561201a57600080fd5b505af115801561202e573d6000803e3d6000fd5b5050604051630da0f6c760e41b81527f9876c0f0505bfb2b1c38d3bbd25ba13159172cd0868972d76927723f5a9480fc6004820152863560248201526001600160a01b038416925063da0f6c709150604401600060405180830381600087803b15801561209a57600080fd5b505af11580156120ae573d6000803e3d6000fd5b5050604051630da0f6c760e41b81527fb4c601c38beae7eebb719eda3438f59fcbfd4c6dd7d38c00665b6fd5b432df326004820152602087013560248201526001600160a01b038416925063da0f6c709150604401600060405180830381600087803b15801561211d57600080fd5b505af1158015612131573d6000803e3d6000fd5b505060408051630da0f6c760e41b81527f75b7d343967750d1f6c15979b7559cea8be22ff1a06a51681b9cbef0d2fff4fe60048201529087013560248201526001600160a01b038416925063da0f6c709150604401600060405180830381600087803b1580156121a057600080fd5b505af11580156121b4573d6000803e3d6000fd5b5050604051630da0f6c760e41b81527f18ef0b57fe939edb640a200fdf533493bd8f26a274151543a109b64c857e20f3600482015260ff8a1660248201526001600160a01b038416925063da0f6c709150604401600060405180830381600087803b15801561222257600080fd5b505af1158015612236573d6000803e3d6000fd5b505050508360026006811061225b57634e487b7160e01b600052603260045260246000fd5b6020020135600214156122e957604051630da0f6c760e41b81527f77b1580d1632c74a32483c26a7156260a89ae4138b020ea7d09b0dcf24f1ea246004820152602481018790526001600160a01b0382169063da0f6c7090604401600060405180830381600087803b1580156122d057600080fd5b505af11580156122e4573d6000803e3d6000fd5b505050505b604084013515806122fe575060016040850135145b8061230d575060408401356002145b1561239457604051631da7c90d60e11b81527fb5a1ad3f04728d7c38547e3d43006a1ec090a02fce04bbb1d0ee4519a1921e5760048201526001600160a01b038681166024830152821690633b4f921a90604401600060405180830381600087803b15801561237b57600080fd5b505af115801561238f573d6000803e3d6000fd5b505050505b604051630da0f6c760e41b81527f0324de13a5a6e302ddb95a9fdf81cc736fc8acee2abe558970daac27395904e76004820152606085013560248201526001600160a01b0382169063da0f6c7090604401600060405180830381600087803b1580156123ff57600080fd5b505af1158015612413573d6000803e3d6000fd5b5050604051630da0f6c760e41b81527fe815a3c082eed7f7f7baab546f11a8718682c0eb3017b099ddc301a92f6673e36004820152608087013560248201526001600160a01b038416925063da0f6c709150604401600060405180830381600087803b15801561248257600080fd5b505af1158015612496573d6000803e3d6000fd5b5050604051630da0f6c760e41b81527f730faccfe82f70711a34ce5202c6e1b1f79f421c16fcef745a9d92d06a7c0d4c600482015260a087013560248201526001600160a01b038416925063da0f6c709150604401600060405180830381600087803b15801561250557600080fd5b505af1158015612519573d6000803e3d6000fd5b5060019e9d5050505050505050505050505050565b60008130331461253d57600080fd5b6040517f3146637e0000000000000000000000000000000000000000000000000000000081526001600160a01b0384811660048301528891889160009190831690633146637e9060240160206040518083038186803b15801561259f57600080fd5b505afa1580156125b3573d6000803e3d6000fd5b505050506040513d601f19601f820116820180604052508101906125d791906147a5565b6040517f29ca12ed0000000000000000000000000000000000000000000000000000000081529091506001600160a01b038416906329ca12ed9061262590879085908d908d906004016154a8565b600060405180830381600087803b15801561263f57600080fd5b505af1158015612653573d6000803e3d6000fd5b5060019d9c50505050505050505050505050565b600030331461267557600080fd5b6040517f9ed933180000000000000000000000000000000000000000000000000000000081526001600160a01b038481166004830152859190821690639ed9331890602401600060405180830381600087803b1580156126d457600080fd5b505af11580156126e8573d6000803e3d6000fd5b50506040517f3146637e0000000000000000000000000000000000000000000000000000000081526001600160a01b0387811660048301526000935084169150633146637e9060240160206040518083038186803b15801561274957600080fd5b505afa15801561275d573d6000803e3d6000fd5b505050506040513d601f19601f8201168201806040525081019061278191906147a5565b6040517fc130c6390000000000000000000000000000000000000000000000000000000081527fb12a3847d47fefceb164b75823af125f9aa82b76938df0ddf08c04cd314ba37c60048201526001600160a01b0380831660248301528681166044830152919250869182169063c130c639906064015b600060405180830381600087803b15801561281157600080fd5b505af1158015610b44573d6000803e3d6000fd5b60008230331461283457600080fd5b61284281848a8a8a8a613647565b506001979650505050505050565b60008130331461285f57600080fd5b8a1561287557612875818b8b8b8b8b8b8b6138c8565b806001600160a01b0316630b1ca49a826001600160a01b03166348f7f2a36040518163ffffffff1660e01b815260040160206040518083038186803b1580156128bd57600080fd5b505afa1580156128d1573d6000803e3d6000fd5b505050506040513d601f19601f820116820180604052508101906128f591906147a5565b6040516001600160e01b031960e084901b1681526001600160a01b039091166004820152602401600060405180830381600087803b15801561293657600080fd5b505af115801561294a573d6000803e3d6000fd5b50505050806001600160a01b0316636503287f6040518163ffffffff1660e01b8152600401600060405180830381600087803b15801561298957600080fd5b505af115801561299d573d6000803e3d6000fd5b50506040516317ba7d8560e01b81527fcad7b0867188190920a10bf710c45443f6358175d56a759e7dc109e6d7b5d7536004820152600092506001600160a01b03841691506317ba7d859060240160206040518083038186803b158015612a0357600080fd5b505afa158015612a17573d6000803e3d6000fd5b505050506040513d601f19601f82011682018060405250810190612a3b91906147a5565b6040517fd32b91dd0000000000000000000000000000000000000000000000000000000081526001600160a01b0384811660048301529192509082169063d32b91dd90602401600060405180830381600087803b158015612a9b57600080fd5b505af1158015612aaf573d6000803e3d6000fd5b5060019f9e505050505050505050505050505050565b600081303314612ad457600080fd5b8b15612b7d57604051630da0f6c760e41b81527ffeddffed075d0686e697569ece0ce2fd26bfbbb18719086f36d16c7117edb5536004820152600160248201526001600160a01b0382169063da0f6c7090604401600060405180830381600087803b158015612b4257600080fd5b505af1158015612b56573d6000803e3d6000fd5b50505050612b69818c8c8c8c8c8c613c07565b8860031415612b7d57612b7d818686613eac565b5060019b9a5050505050505050505050565b600081303314612b9e57600080fd5b6040517f9bb2008400000000000000000000000000000000000000000000000000000000815286906001600160a01b03821690639bb20084906127f79085908a908a906004016154df565b604051630da0f6c760e41b81527fee63cc82ca6990a4cc5fa3ca10d8a5281ae1758a8d8f22892c4badb7cacd111e6004820152602481018890526001600160a01b0389169063da0f6c7090604401600060405180830381600087803b158015612c5157600080fd5b505af1158015612c65573d6000803e3d6000fd5b5050604051630da0f6c760e41b81527f18ccfaf5deb9f2b0bd666344fa9c46950fbcee85fbfd05c3959876dfe502c2096004820152602481018990526001600160a01b038b16925063da0f6c709150604401600060405180830381600087803b158015612cd157600080fd5b505af1158015612ce5573d6000803e3d6000fd5b5050604051630da0f6c760e41b81527f777270e51451e60c2ce5118fc8e5844441dcc4d102e9052e60fb41312dbb848a6004820152602481018890526001600160a01b038b16925063da0f6c709150604401600060405180830381600087803b158015612d5157600080fd5b505af1158015612d65573d6000803e3d6000fd5b5050604051630da0f6c760e41b81527f7789eea44dccd66529026559d1b36215cb5766016b41a8a8f16e08b2ec8758376004820152602481018790526001600160a01b038b16925063da0f6c709150604401600060405180830381600087803b158015612dd157600080fd5b505af1158015612de5573d6000803e3d6000fd5b5050604051630da0f6c760e41b81527ff873703084a7a9b6b81a595d5038f888fd90f4f9a530d4950a46c89eab0211886004820152602481018690526001600160a01b038b16925063da0f6c709150604401600060405180830381600087803b158015612e5157600080fd5b505af1158015612e65573d6000803e3d6000fd5b505050508260021415612ef357604051630da0f6c760e41b81527f4e640b0dd9bf7618f23df95b8d516df2ff38868970d2d109c5b4b0455980659f6004820152602481018390526001600160a01b0389169063da0f6c7090604401600060405180830381600087803b158015612eda57600080fd5b505af1158015612eee573d6000803e3d6000fd5b505050505b821580612f005750826001145b80612f0b5750826002145b15611cf257604051631da7c90d60e11b81527fa23a2786abcf8c551ce7fba1966ec456144d9caa0db070879d03a4ea4fd9b2fd60048201526001600160a01b038281166024830152891690633b4f921a90604401600060405180830381600087803b158015612f7957600080fd5b505af1158015612f8d573d6000803e3d6000fd5b505050505050505050505050565b8351604051630da0f6c760e41b81527f249486eeae30287051f65673dfa390711fd4587950c33b4150a633763f869724600482015260248101919091526001600160a01b0388169063da0f6c7090604401600060405180830381600087803b15801561300657600080fd5b505af115801561301a573d6000803e3d6000fd5b50506040517ff958b7100000000000000000000000000000000000000000000000000000000081526001600160a01b038a16925063f958b7109150613087907f7bd63360ec775df97ced77d73875245296c41d88ebf2b52f8e630b4e9a51b448908a908a90600401615485565b600060405180830381600087803b1580156130a157600080fd5b505af11580156130b5573d6000803e3d6000fd5b50505050836000600381106130da57634e487b7160e01b600052603260045260246000fd5b602002015115806130ec575083516001145b806130f8575083516002145b15613205576020840151604051630da0f6c760e41b81527f6839e94cab6f83f7a12a5a3d1d6f3bbcaf0185a49b20b86e6f47b8c78494ac3d600482015260248101919091526001600160a01b0388169063da0f6c7090604401600060405180830381600087803b15801561316b57600080fd5b505af115801561317f573d6000803e3d6000fd5b5050604051631da7c90d60e11b81527f770ef80745dba2953f780c8b963701e76fd3ac982923200f9214126e80f5f03260048201526001600160a01b0386811660248301528a169250633b4f921a9150604401600060405180830381600087803b1580156131ec57600080fd5b505af1158015613200573d6000803e3d6000fd5b505050505b835160021415613296576040808501519051630da0f6c760e41b81527ff2b332c307ef460e99eb866928b78eca9f8af0da0626b4b48a13f9b52842fa6a600482015260248101919091526001600160a01b0388169063da0f6c7090604401600060405180830381600087803b15801561327d57600080fd5b505af1158015613291573d6000803e3d6000fd5b505050505b8351600314156132ab576132ab87838361401f565b50505050505050565b8515806132c15750856001145b806132cc5750856002145b156133d357604051630da0f6c760e41b81527ff6d5f030b79ca78dad001b87a49239ec96be97e62d13501da94c9a392700509e6004820152602481018690526001600160a01b0388169063da0f6c7090604401600060405180830381600087803b15801561333957600080fd5b505af115801561334d573d6000803e3d6000fd5b5050604051631da7c90d60e11b81527f30091caaedd0994beeeeb3b7b5734296263687ae0126aaf79e5e0f8e5c1706b260048201526001600160a01b0387811660248301528a169250633b4f921a9150604401600060405180830381600087803b1580156133ba57600080fd5b505af11580156133ce573d6000803e3d6000fd5b505050505b856002141561345d57604051630da0f6c760e41b81527fb34f156369747125f679c86d97f51861a5a2a9f927a1addd4354acbaaa88ae576004820152602481018490526001600160a01b0388169063da0f6c7090604401600060405180830381600087803b15801561344457600080fd5b505af1158015613458573d6000803e3d6000fd5b505050505b604051630da0f6c760e41b81527f57901982635f8a470a3648422f8f769cf08dc2057489be5bf0099fcb44f7d43c6004820152602481018790526001600160a01b0388169063da0f6c7090604401600060405180830381600087803b1580156134c557600080fd5b505af11580156134d9573d6000803e3d6000fd5b5050505085600314156132ab576132ab87838361418a565b60608161353157505060408051808201909152600181527f3000000000000000000000000000000000000000000000000000000000000000602082015290565b8160005b811561355b57806135458161583b565b91506135549050600a836157e4565b9150613535565b60008167ffffffffffffffff81111561358457634e487b7160e01b600052604160045260246000fd5b6040519080825280601f01601f1916602001820160405280156135ae576020820181803683370190505b5090505b841561363f576135c36001836157f8565b91506135d0600a86615894565b6135db9060306157a7565b60f81b8183815181106135fe57634e487b7160e01b600052603260045260246000fd5b60200101907effffffffffffffffffffffffffffffffffffffffffffffffffffffffffffff1916908160001a905350613638600a866157e4565b94506135b2565b949350505050565b6040516317ba7d8560e01b81527f37cbe06c1044f98864ea25736326bc1d488e24e5e23781ea2ad64c4069cb9e6e60048201526000906001600160a01b038816906317ba7d859060240160206040518083038186803b1580156136a957600080fd5b505afa1580156136bd573d6000803e3d6000fd5b505050506040513d601f19601f820116820180604052508101906136e191906147a5565b9050856003141561378f5761378f8188896001600160a01b031663149acf9a6040518163ffffffff1660e01b815260040160206040518083038186803b15801561372a57600080fd5b505afa15801561373e573d6000803e3d6000fd5b505050506040513d601f19601f8201168201806040525081019061376291906147a5565b8686600081811061378357634e487b7160e01b600052603260045260246000fd5b905060200201356142f5565b83156132ab5760005b60ff8116851115611cf257876001600160a01b031663dc929f4a87878460ff168181106137d557634e487b7160e01b600052603260045260246000fd5b90506020020160208101906137ea9190614782565b6040516001600160e01b031960e084901b1681526001600160a01b039091166004820152602401600060405180830381600087803b15801561382b57600080fd5b505af115801561383f573d6000803e3d6000fd5b5050505086600314156138b6576138b6828988888560ff1681811061387457634e487b7160e01b600052603260045260246000fd5b90506020020160208101906138899190614782565b87876138968760016157bf565b60ff1681811061378357634e487b7160e01b600052603260045260246000fd5b806138c081615874565b915050613798565b604051630da0f6c760e41b81527f522d712abf06d7a4ec6dac3c77461903ee7523b623709d23acad0c6ae24dccc26004820152600160248201526001600160a01b0389169063da0f6c7090604401600060405180830381600087803b15801561393057600080fd5b505af1158015613944573d6000803e3d6000fd5b5050604051630da0f6c760e41b81527fb1f9461b62129e5e1283e29f3e1ced18d2e86af86241cfcb424f6ba4fb7f454c6004820152602481018a90526001600160a01b038b16925063da0f6c709150604401600060405180830381600087803b1580156139b057600080fd5b505af11580156139c4573d6000803e3d6000fd5b5050604051630da0f6c760e41b81527f46021a9d9de6e72975a5d8d7d00e797ad1d45b789f6119571dc599350897dcb56004820152602481018990526001600160a01b038b16925063da0f6c709150604401600060405180830381600087803b158015613a3057600080fd5b505af1158015613a44573d6000803e3d6000fd5b505050508660001480613a575750866001145b80613a625750866002145b15613b6957604051630da0f6c760e41b81527fa8b1c741b883d35410d6186bbec4278982b7e509115b304ea7443665f139cc5a6004820152602481018690526001600160a01b0389169063da0f6c7090604401600060405180830381600087803b158015613acf57600080fd5b505af1158015613ae3573d6000803e3d6000fd5b5050604051631da7c90d60e11b81527fea1256a286695b4929ba634b6e0a36015d2a908045a29f78da51cee1a0d82b6b60048201526001600160a01b0384811660248301528b169250633b4f921a9150604401600060405180830381600087803b158015613b5057600080fd5b505af1158015613b64573d6000803e3d6000fd5b505050505b8660021415613bf357604051630da0f6c760e41b81527f461c66a772f861188d09f9684d5e0953afbfc97e19709fe20d9f2757f401e7816004820152602481018590526001600160a01b0389169063da0f6c7090604401600060405180830381600087803b158015613bda57600080fd5b505af1158015613bee573d6000803e3d6000fd5b505050505b8660031415611cf257611cf2888484614374565b6040517ff958b7100000000000000000000000000000000000000000000000000000000081526001600160a01b0388169063f958b71090613c70907ffd9a8d4692ffc545577ff1979a0a918c2b536b6b6a891cf324a93b2c43907f83908a908a90600401615485565b600060405180830381600087803b158015613c8a57600080fd5b505af1158015613c9e573d6000803e3d6000fd5b5050604051630da0f6c760e41b81527f77041e0d128001928f30b976713fed530b452bc354a9bad49ad1bcf93121f9dc6004820152602481018790526001600160a01b038a16925063da0f6c709150604401600060405180830381600087803b158015613d0a57600080fd5b505af1158015613d1e573d6000803e3d6000fd5b5050604051630da0f6c760e41b81527fcab672166d6a1c8dae3ca0b03fed2e7258db17c3c3801ac2651987b066d396476004820152602481018690526001600160a01b038a16925063da0f6c709150604401600060405180830381600087803b158015613d8a57600080fd5b505af1158015613d9e573d6000803e3d6000fd5b5050604051630da0f6c760e41b81527fcdc3057ec9c82a3ea3fd34ef56b1825924525fbab071e1a2b9d664a07f4004806004820152602481018590526001600160a01b038a16925063da0f6c709150604401600060405180830381600087803b158015613e0a57600080fd5b505af1158015613e1e573d6000803e3d6000fd5b5050604051631da7c90d60e11b81527f0f57fc3a39a8a66c31f52eab69ced65d5ac74e4a182b215146a45a0281de53e860048201526001600160a01b0384811660248301528a169250633b4f921a9150604401600060405180830381600087803b158015613e8b57600080fd5b505af1158015613e9f573d6000803e3d6000fd5b5050505050505050505050565b801561401a576040516317ba7d8560e01b81527f2207fd6117465cefcba0abc867150698c0464aa41a293ec29ca01b67a6350c3c60048201526000906001600160a01b038516906317ba7d859060240160206040518083038186803b158015613f1457600080fd5b505afa158015613f28573d6000803e3d6000fd5b505050506040513d601f19601f82011682018060405250810190613f4c91906147a5565b905060005b60ff811683111561401757816001600160a01b031663ac7e7eba8686868560ff16818110613f8f57634e487b7160e01b600052603260045260246000fd5b9050602002016020810190613fa49190614782565b6040516001600160e01b031960e085901b1681526001600160a01b03928316600482015291166024820152604401600060405180830381600087803b158015613fec57600080fd5b505af1158015614000573d6000803e3d6000fd5b50505050808061400f90615874565b915050613f51565b50505b505050565b801561401a576040516317ba7d8560e01b81527f6f48e16963713446db50a1503860d8e1fc3c888da56a85afcaa6dc29503cc61060048201526000906001600160a01b038516906317ba7d859060240160206040518083038186803b15801561408757600080fd5b505afa15801561409b573d6000803e3d6000fd5b505050506040513d601f19601f820116820180604052508101906140bf91906147a5565b905060005b60ff811683111561401757816001600160a01b0316636f2cd5d38686868560ff1681811061410257634e487b7160e01b600052603260045260246000fd5b90506020020160208101906141179190614782565b6040516001600160e01b031960e085901b1681526001600160a01b03928316600482015291166024820152604401600060405180830381600087803b15801561415f57600080fd5b505af1158015614173573d6000803e3d6000fd5b50505050808061418290615874565b9150506140c4565b801561401a576040516317ba7d8560e01b81527f7a8526bca00f0726b2fab8c3bfd5b00bfa84d07f111e48263b13de605eefcdda60048201526000906001600160a01b038516906317ba7d859060240160206040518083038186803b1580156141f257600080fd5b505afa158015614206573d6000803e3d6000fd5b505050506040513d601f19601f8201168201806040525081019061422a91906147a5565b905060005b60ff811683111561401757816001600160a01b031663c7aa00dd8686868560ff1681811061426d57634e487b7160e01b600052603260045260246000fd5b90506020020160208101906142829190614782565b6040516001600160e01b031960e085901b1681526001600160a01b03928316600482015291166024820152604401600060405180830381600087803b1580156142ca57600080fd5b505af11580156142de573d6000803e3d6000fd5b5050505080806142ed90615874565b91505061422f565b6040517f5f15b1d90000000000000000000000000000000000000000000000000000000081526001600160a01b038481166004830152838116602483015260448201839052851690635f15b1d990606401600060405180830381600087803b15801561436057600080fd5b505af1158015611cf2573d6000803e3d6000fd5b801561401a576040516317ba7d8560e01b81527f2207fd6117465cefcba0abc867150698c0464aa41a293ec29ca01b67a6350c3c60048201526000906001600160a01b038516906317ba7d859060240160206040518083038186803b1580156143dc57600080fd5b505afa1580156143f0573d6000803e3d6000fd5b505050506040513d601f19601f8201168201806040525081019061441491906147a5565b905060005b60ff811683111561401757816001600160a01b03166307832bfd8686868560ff1681811061445757634e487b7160e01b600052603260045260246000fd5b905060200201602081019061446c9190614782565b6040516001600160e01b031960e085901b1681526001600160a01b03928316600482015291166024820152604401600060405180830381600087803b1580156144b457600080fd5b505af11580156144c8573d6000803e3d6000fd5b5050505080806144d790615874565b915050614419565b604051806101c00160405280606081526020016060815260200160608152602001606081526020016060815260200160608152602001606081526020016060815260200160608152602001606081526020016000151581526020016060815260200160006001600160a01b0316815260200161455961455e565b905290565b6040518061012001604052806009905b60408051808201909152600081526060602082015281526020019060019003908161456e5790505090565b80606081018310156145aa57600080fd5b92915050565b60008083601f8401126145c1578182fd5b50813567ffffffffffffffff8111156145d8578182fd5b6020830191508360208260051b85010111156145f357600080fd5b9250929050565b60008083601f84011261460b578182fd5b50813567ffffffffffffffff811115614622578182fd5b6020830191508360206060830285010111156145f357600080fd5b600082601f83011261464d578081fd5b60405161014080820182811067ffffffffffffffff82111715614672576146726158d4565b6040528184828101871015614685578485fd5b8492505b600a8310156146a957803582526001929092019160209182019101614689565b509195945050505050565b600082601f8301126146c4578081fd5b60405160c0810181811067ffffffffffffffff821117156146e7576146e76158d4565b604052808360c081018610156146fb578384fd5b835b60068110156146a95781358352602092830192909101906001016146fd565b8035801515811461472c57600080fd5b919050565b60008083601f840112614742578182fd5b50813567ffffffffffffffff811115614759578182fd5b6020830191508360208285010111156145f357600080fd5b803560ff8116811461472c57600080fd5b600060208284031215614793578081fd5b813561479e816158ea565b9392505050565b6000602082840312156147b6578081fd5b815161479e816158ea565b6000806000606084860312156147d5578182fd5b83356147e0816158ea565b925060208401356147f0816158ea565b91506040840135614800816158ea565b809150509250925092565b600080600080600060808688031215614822578283fd5b853561482d816158ea565b9450602086013561483d816158ea565b9350604086013567ffffffffffffffff811115614858578384fd5b614864888289016145fa565b9094509250506060860135614878816158ea565b809150509295509295909350565b6000806000806060858703121561489b578182fd5b84356148a6816158ea565b9350602085013567ffffffffffffffff8111156148c1578283fd5b6148cd878288016145fa565b90945092505060408501356148e1816158ea565b939692955090935050565b60008060008060608587031215614901578182fd5b843561490c816158ea565b9350602085013567ffffffffffffffff811115614927578283fd5b6148cd87828801614731565b6000806000806000806080878903121561494b578384fd5b863567ffffffffffffffff80821115614962578586fd5b61496e8a838b016145b0565b90985096506020890135915080821115614986578586fd5b5061499389828a016145b0565b90955093505060408701356149a7816158ea565b80925050606087013590509295509295509295565b6000806000806000806000610220888a0312156149d7578485fd5b88601f8901126149e5578485fd5b6149ed615729565b808960408b018c8111156149ff578889fd5b885b6002811015614a2857614a138361471c565b85526020948501949290920191600101614a01565b509199505035905067ffffffffffffffff80821115614a45578687fd5b614a518b838c01614731565b9098509650869150614a668b60608c0161463d565b9550614a768b6101a08c01614599565b94506102008a0135915080821115614a8c578283fd5b50614a998a828b016145b0565b989b979a50959850939692959293505050565b60006020808385031215614abe578182fd5b823567ffffffffffffffff80821115614ad5578384fd5b8185019150601f8681840112614ae9578485fd5b614af1615752565b80848961012087011115614b03578788fd5b875b6009811015614bc257813586811115614b1c57898afd5b87016040818d031215614b2d57898afd5b614b35615729565b8135614b40816158ea565b8152818a013588811115614b52578b8cfd5b8083019250508c87830112614b65578a8bfd5b813588811115614b7757614b776158d4565b614b888b601f198a84011601615776565b8181528e8c838601011115614b9b578c8dfd5b818c85018d8301379081018b018c9052818b01528552509287019290870190600101614b05565b50909998505050505050505050565b600060208284031215614be2578081fd5b61479e8261471c565b60008060008060008060008060006101c08a8c031215614c09578283fd5b614c128a61471c565b9850614c2060208b0161471c565b975060408a013567ffffffffffffffff80821115614c3c578485fd5b818c0191508c604083011115614c50578485fd5b819850614c608d60608e016146b4565b9750614c708d6101208e01614599565b96506101808c0135915080821115614c86578485fd5b614c928d838e016145b0565b90965094506101a08c0135915080821115614cab578384fd5b50614cb88c828d016145b0565b915080935050809150509295985092959850929598565b6000806000806000806000806000806101008b8d031215614cee578384fd5b614cf78b61471c565b995060208b013567ffffffffffffffff80821115614d13578586fd5b614d1f8e838f01614731565b909b50995060408d0135985060608d0135975060808d0135965060a08d01359150614d49826158ea565b90945060c08c01359080821115614d5e578283fd5b50614d6b8d828e016145b0565b90945092505060e08b0135614d7f816158ea565b809150509295989b9194979a5092959850565b60008060008060008060008060006101008a8c031215614db0578283fd5b614db98a61471c565b985060208a0135975060408a0135965060608a0135955060808a0135945060a08a013567ffffffffffffffff811115614df0578384fd5b614dfc8c828d016145b0565b90955093505060c08a0135614e10816158ea565b915060e08a0135614e20816158ea565b809150509295985092959850929598565b600060208284031215614e42578081fd5b813567ffffffffffffffff811115614e58578182fd5b8201610400818503121561479e578182fd5b60008060008060008060008060006101c08a8c031215614e88578283fd5b8935985060208a0135614e9a816158ea565b975060408a0135965060608a0135614eb1816158ea565b9550614ebf60808b01614771565b945060a08a0135935060c08a0135614ed6816158ea565b92506101a08a018b811115614ee9578283fd5b60e08b01925035614e20816158ea565b600060208284031215614f0a578081fd5b61479e82614771565b8060005b6003811015614f3f5781516001600160a01b0316845260209384019390910190600101614f17565b50505050565b81835260006020808501945082825b85811015614f82578135614f67816158ea565b6001600160a01b031687529582019590820190600101614f54565b509495945050505050565b81835260006020808501945082825b85811015614f82578135875282820135614fb5816158ea565b6001600160a01b0316878401526040828101356fffffffffffffffffffffffffffffffff8116808214614fe6578687fd5b91890191909152506060968701969190910190600101614f9c565b8060005b6006811015614f3f578151845260209384019390910190600101615005565b8183528181602085013750600080602083850101526020601f19601f840116840101905092915050565b6000815180845261506681602086016020860161580f565b601f01601f19169290920160200192915050565b6000825161508c81846020870161580f565b9190910192915050565b7f6c6f772d6c6576656c2063616c6c206f662073756d6d6f6e466c657844616f008152600082516150ce81601f85016020870161580f565b7f206661696c656400000000000000000000000000000000000000000000000000601f939091019283015250602601919050565b60006001600160a01b03808816835280871660208401526080604084015261512e608084018688614f8d565b91508084166060840152509695505050505050565b60006001600160a01b03808816835280871660208401526080604084015261512e608084018688615024565b60006001600160a01b03808716835260606020840152615193606084018688614f8d565b915080841660408401525095945050505050565b60006001600160a01b03808716835260606020840152615193606084018688615024565b6080815260006151df60808301888a614f45565b82810360208401528581527f07ffffffffffffffffffffffffffffffffffffffffffffffffffffffffffffff861115615216578182fd5b8560051b80886020840137016020019081526001600160a01b0393909316604082015260600152949350505050565b6000610220828a835b600281101561526f578151151583526020928301929091019060010161524e565b505050806040840152615285818401898b615024565b90506060830187835b600a8110156152ad57815183526020928301929091019060010161528e565b5050506152be6101a0840187614f13565b8281036102008401526152d2818587614f45565b9a9950505050505050505050565b89151581528815156020808301919091526101c060408301819052600091908301906102008401908b845b6002811015615358577ffffffffffffffffffffffffffffffffffffffffffffffffffffffffffffffe4087850301855261534684835161504e565b9483019493509082019060010161530b565b505050615368606085018b615001565b61537661012085018a614f13565b83810361018085015261538a81888a614f45565b9150508281036101a08401526153a1818587614f45565b9c9b505050505050505050505050565b60006101008c151583528060208401526153ce8184018c8e615024565b905060ff8a1660408401528860608401528760808401526001600160a01b0380881660a085015283820360c0850152615408828789614f45565b925080851660e085015250509b9a5050505050505050505050565b60006101008b1515835260ff8b1660208401528960408401528860608401528760808401528060a084015261545b8184018789614f45565b9150506001600160a01b0380851660c084015280841660e0840152509a9950505050505050505050565b83815260406020820152600061549f604083018486615024565b95945050505050565b60006001600160a01b038087168352808616602084015250606060408301526154d5606083018486614f8d565b9695505050505050565b6001600160a01b038416815260406020820152600061549f604083018486614f8d565b60208152600061363f602083018486615024565b60408152600061552a604083018587615024565b90506001600160a01b0383166020830152949350505050565b60208152600061479e602083018461504e565b60006101c0820190508a82526001600160a01b03808b166020840152896040840152808916606084015260ff881660808401528660a084015280861660c08401526155a460e0840186615001565b8084166101a0840152509a9950505050505050505050565b6000808335601e198436030181126155d2578283fd5b83018035915067ffffffffffffffff8211156155ec578283fd5b6020019150600581901b36038213156145f357600080fd5b6000808335601e1984360301811261561a578283fd5b83018035915067ffffffffffffffff821115615634578283fd5b60200191506060810236038213156145f357600080fd5b6000808335601e19843603018112615661578283fd5b83018035915067ffffffffffffffff82111561567b578283fd5b6020019150368190038213156145f357600080fd5b600082357fffffffffffffffffffffffffffffffffffffffffffffffffffffffffffffff2183360301811261508c578182fd5b600082357fffffffffffffffffffffffffffffffffffffffffffffffffffffffffffffff0183360301811261508c578182fd5b600082357fffffffffffffffffffffffffffffffffffffffffffffffffffffffffffffff4183360301811261508c578182fd5b6040805190810167ffffffffffffffff8111828210171561574c5761574c6158d4565b60405290565b604051610120810167ffffffffffffffff8111828210171561574c5761574c6158d4565b604051601f8201601f1916810167ffffffffffffffff8111828210171561579f5761579f6158d4565b604052919050565b600082198211156157ba576157ba6158a8565b500190565b600060ff821660ff84168060ff038211156157dc576157dc6158a8565b019392505050565b6000826157f3576157f36158be565b500490565b60008282101561580a5761580a6158a8565b500390565b60005b8381101561582a578181015183820152602001615812565b83811115614f3f5750506000910152565b60007fffffffffffffffffffffffffffffffffffffffffffffffffffffffffffffffff82141561586d5761586d6158a8565b5060010190565b600060ff821660ff81141561588b5761588b6158a8565b60010192915050565b6000826158a3576158a36158be565b500690565b634e487b7160e01b600052601160045260246000fd5b634e487b7160e01b600052601260045260246000fd5b634e487b7160e01b600052604160045260246000fd5b6001600160a01b03811681146158ff57600080fd5b5056fea2646970667358221220aac3398104dea0f3db464250685e97c536d515bcc18d6dd06983339f095a570a64736f6c63430008040033",
  "linkReferences": {},
  "deployedLinkReferences": {}
}