{
  "_format": "hh-sol-artifact-1",
  "contractName": "ColletiveTopUpProposalAdapterContract",
  "sourceName": "contracts/collective/adapters/CollectiveTopUpProposalAdapter.sol",
  "abi": [
    {
      "inputs": [],
      "name": "UNDONE_INVESTMENT_PROPOSAL",
      "type": "error"
    },
    {
      "inputs": [],
      "name": "VOTE_NOT_START",
      "type": "error"
    },
    {
      "anonymous": false,
      "inputs": [
        {
          "indexed": false,
          "internalType": "address",
          "name": "daoAddr",
          "type": "address"
        },
        {
          "indexed": false,
          "internalType": "bytes32",
          "name": "proposalId",
          "type": "bytes32"
        }
      ],
      "name": "ProposalCreated",
      "type": "event"
    },
    {
      "anonymous": false,
      "inputs": [
        {
          "indexed": false,
          "internalType": "address",
          "name": "daoAddr",
          "type": "address"
        },
        {
          "indexed": false,
          "internalType": "bytes32",
          "name": "proposalId",
          "type": "bytes32"
        },
        {
          "indexed": false,
          "internalType": "enum ColletiveTopUpProposalAdapterContract.ProposalState",
          "name": "state",
          "type": "uint8"
        },
        {
          "indexed": false,
          "internalType": "uint256",
          "name": "voteResult",
          "type": "uint256"
        },
        {
          "indexed": false,
          "internalType": "uint256",
          "name": "allVotingWeight",
          "type": "uint256"
        },
        {
          "indexed": false,
          "internalType": "uint256",
          "name": "nbYes",
          "type": "uint256"
        },
        {
          "indexed": false,
          "internalType": "uint256",
          "name": "nbNo",
          "type": "uint256"
        }
      ],
      "name": "ProposalProcessed",
      "type": "event"
    },
    {
      "anonymous": false,
      "inputs": [
        {
          "indexed": false,
          "internalType": "address",
          "name": "daoAddr",
          "type": "address"
        },
        {
          "indexed": false,
          "internalType": "bytes32",
          "name": "proposalId",
          "type": "bytes32"
        },
        {
          "indexed": false,
          "internalType": "enum ColletiveTopUpProposalAdapterContract.ProposalState",
          "name": "state",
          "type": "uint8"
        }
      ],
      "name": "StartVoting",
      "type": "event"
    },
    {
      "inputs": [
        {
          "internalType": "contract DaoRegistry",
          "name": "dao",
          "type": "address"
        }
      ],
      "name": "allDone",
      "outputs": [
        {
          "internalType": "bool",
          "name": "",
          "type": "bool"
        }
      ],
      "stateMutability": "view",
      "type": "function"
    },
    {
      "inputs": [
        {
          "internalType": "contract DaoRegistry",
          "name": "dao",
          "type": "address"
        },
        {
          "internalType": "bytes32",
          "name": "proposalId",
          "type": "bytes32"
        }
      ],
      "name": "processProposal",
      "outputs": [
        {
          "internalType": "bool",
          "name": "",
          "type": "bool"
        }
      ],
      "stateMutability": "nonpayable",
      "type": "function"
    },
    {
      "inputs": [
        {
          "internalType": "address",
          "name": "",
          "type": "address"
        },
        {
          "internalType": "bytes32",
          "name": "",
          "type": "bytes32"
        }
      ],
      "name": "proposals",
      "outputs": [
        {
          "internalType": "address",
          "name": "account",
          "type": "address"
        },
        {
          "internalType": "address",
          "name": "token",
          "type": "address"
        },
        {
          "internalType": "uint256",
          "name": "amount",
          "type": "uint256"
        },
        {
          "internalType": "uint256",
          "name": "creationTime",
          "type": "uint256"
        },
        {
          "internalType": "uint256",
          "name": "stopVoteTime",
          "type": "uint256"
        },
        {
          "internalType": "enum ColletiveTopUpProposalAdapterContract.ProposalState",
          "name": "state",
          "type": "uint8"
        }
      ],
      "stateMutability": "view",
      "type": "function"
    },
    {
      "inputs": [
        {
          "internalType": "contract DaoRegistry",
          "name": "dao",
          "type": "address"
        },
        {
          "internalType": "bytes32",
          "name": "proposalId",
          "type": "bytes32"
        }
      ],
      "name": "startVoting",
      "outputs": [],
      "stateMutability": "nonpayable",
      "type": "function"
    },
    {
      "inputs": [
        {
          "internalType": "contract DaoRegistry",
          "name": "dao",
          "type": "address"
        },
        {
          "internalType": "address",
          "name": "token",
          "type": "address"
        },
        {
          "internalType": "uint256",
          "name": "amount",
          "type": "uint256"
        }
      ],
      "name": "summbitProposal",
      "outputs": [],
      "stateMutability": "nonpayable",
      "type": "function"
    }
  ],
  "bytecode": "0x608060405234801561001057600080fd5b50612bb3806100206000396000f3fe608060405234801561001057600080fd5b50600436106100675760003560e01c8063642fc0c011610050578063642fc0c0146100f75780639573167d1461011a578063fbb65b701461012d57600080fd5b806337c6b2e71461006c5780635cb7527614610081575b600080fd5b61007f61007a3660046127a3565b610140565b005b6100dc61008f366004612650565b60006020818152928152604080822090935290815220805460018201546002830154600384015460048501546005909501546001600160a01b039485169593909416939192909160ff1686565b6040516100ee969594939291906128c8565b60405180910390f35b61010a610105366004612787565b61085a565b60405190151581526020016100ee565b61010a6101283660046127e3565b610892565b61007f61013b3660046127e3565b610dbd565b8261014b813361118a565b8360006101578261126c565b6040516317ba7d8560e01b81527fdac6d9ce728ebc92a61253866b4e5a4c73b76ba0aa11e7297a633f6232f5423760048201529091506001600160a01b038716906317ba7d859060240160206040518083038186803b1580156101b957600080fd5b505afa1580156101cd573d6000803e3d6000fd5b505050506040513d601f19601f820116820180604052508101906101f19190612634565b6040517f9a0242fc0000000000000000000000000000000000000000000000000000000081526001600160a01b0388811660048301529190911690639a0242fc9060240160206040518083038186803b15801561024d57600080fd5b505afa158015610261573d6000803e3d6000fd5b505050506040513d601f19601f820116820180604052508101906102859190612742565b6102d65760405162461bcd60e51b815260206004820152601660248201527f44616f5365742050726f706f73616c20556e646f6e650000000000000000000060448201526064015b60405180910390fd5b6040516317ba7d8560e01b81527f72894213a5c7f56b36b2947fa6ea18963d6bb1a68746b46d7f552cca76e1a7a860048201526001600160a01b038716906317ba7d859060240160206040518083038186803b15801561033557600080fd5b505afa158015610349573d6000803e3d6000fd5b505050506040513d601f19601f8201168201806040525081019061036d9190612634565b6040517f642fc0c00000000000000000000000000000000000000000000000000000000081526001600160a01b038881166004830152919091169063642fc0c09060240160206040518083038186803b1580156103c957600080fd5b505afa1580156103dd573d6000803e3d6000fd5b505050506040513d601f19601f820116820180604052508101906104019190612742565b610437576040517f1721fd7900000000000000000000000000000000000000000000000000000000815260040160405180910390fd5b856001600160a01b031663236197426040518163ffffffff1660e01b8152600401600060405180830381600087803b15801561047257600080fd5b505af1158015610486573d6000803e3d6000fd5b5050505060006105318760c01b61050c896001600160a01b031663b21f370e6040518163ffffffff1660e01b815260040160206040518083038186803b1580156104cf57600080fd5b505afa1580156104e3573d6000803e3d6000fd5b505050506040513d601f19601f82011682018060405250810190610507919061282e565b611537565b60405160200161051d92919061285a565b60405160208183030381529060405261168d565b90506040518060c00160405280336001600160a01b03168152602001876001600160a01b03168152602001868152602001428152602001600081526020016000600481111561059057634e487b7160e01b600052602160045260246000fd5b90526001600160a01b03808916600090815260208181526040808320868452825291829020845181549085167fffffffffffffffffffffffff0000000000000000000000000000000000000000918216178255918501516001808301805492909616919093161790935590830151600283015560608301516003830155608083015160048084019190915560a08401516005840180549193909260ff1990921691849081111561065057634e487b7160e01b600052602160045260246000fd5b0217905550506040517fb73dc389000000000000000000000000000000000000000000000000000000008152600481018390526001600160a01b038916915063b73dc38990602401600060405180830381600087803b1580156106b257600080fd5b505af11580156106c6573d6000803e3d6000fd5b50506040516317ba7d8560e01b81527f907642cbfe4e58ddd14eaa320923fbe4c29721dd0950ae4cb3b2626e292791ae60048201526001600160a01b038a16925063815a2bf49150839083906317ba7d859060240160206040518083038186803b15801561073357600080fd5b505afa158015610747573d6000803e3d6000fd5b505050506040513d601f19601f8201168201806040525081019061076b9190612634565b6040517fffffffff0000000000000000000000000000000000000000000000000000000060e085901b16815260048101929092526001600160a01b03166024820152604401600060405180830381600087803b1580156107ca57600080fd5b505af11580156107de573d6000803e3d6000fd5b5050506001600160a01b03881660009081526001602052604090206108049150826116a9565b50604080516001600160a01b0389168152602081018390527ffe22c13d0cc04eef2a813c30901da5f8cd64f5ba91866fccce71c606ce464874910160405180910390a15061085282826116bc565b505050505050565b6001600160a01b0381166000908152600160205260408120819061087d906116c7565b1161088957600161088c565b60005b92915050565b60008260006108a08261126c565b6001600160a01b0386166000818152602081815260408083208984529091529081902090517ff941f6910000000000000000000000000000000000000000000000000000000081529293509163f941f6919061090390889060029060040161298b565b60206040518083038186803b15801561091b57600080fd5b505afa15801561092f573d6000803e3d6000fd5b505050506040513d601f19601f820116820180604052508101906109539190612742565b156109a05760405162461bcd60e51b815260206004820152601a60248201527f70726f706f73616c20616c72656164792070726f63657373656400000000000060448201526064016102cd565b6040516317ba7d8560e01b81527f907642cbfe4e58ddd14eaa320923fbe4c29721dd0950ae4cb3b2626e292791ae60048201526000906001600160a01b038816906317ba7d859060240160206040518083038186803b158015610a0257600080fd5b505afa158015610a16573d6000803e3d6000fd5b505050506040513d601f19601f82011682018060405250810190610a3a9190612634565b90506001600160a01b038116610a925760405162461bcd60e51b815260206004820152601160248201527f61646170746572206e6f7420666f756e6400000000000000000000000000000060448201526064016102cd565b6040517f76225e730000000000000000000000000000000000000000000000000000000081526001600160a01b0388811660048301526024820188905260009182918291908516906376225e7390604401606060405180830381600087803b158015610afd57600080fd5b505af1158015610b11573d6000803e3d6000fd5b505050506040513d601f19601f82011682018060405250810190610b3591906127f5565b919450925090506000610b478b6116d1565b6040517f30490e91000000000000000000000000000000000000000000000000000000008152600481018c90529091506001600160a01b038c16906330490e9190602401600060405180830381600087803b158015610ba557600080fd5b505af1158015610bb9573d6000803e3d6000fd5b5060029250610bc6915050565b846005811115610be657634e487b7160e01b600052602160045260246000fd5b1415610c4957600186015486546002880154610c12928e926001600160a01b03918216929116906117b5565b15610c33576005860180546003919060ff19166001835b0217905550610ce3565b6005860180546004919060ff1916600183610c29565b6003846005811115610c6b57634e487b7160e01b600052602160045260246000fd5b1480610c9657506001846005811115610c9457634e487b7160e01b600052602160045260246000fd5b145b15610cb1576005860180546004919060ff1916600183610c29565b6040517f97cbb52b00000000000000000000000000000000000000000000000000000000815260040160405180910390fd5b6001600160a01b038b166000908152600160205260409020610d05908b611c00565b15610d2e576001600160a01b038b166000908152600160205260409020610d2c908b611c18565b505b7ff3d22b9e73b9947a3edd70bd6279f80eda44c15f3cc8af46dc57bfb8191edd2b8b8b8860050160009054906101000a900460ff168487878a6005811115610d8657634e487b7160e01b600052602160045260246000fd5b604051610d999796959493929190612931565b60405180910390a160019850505050505050610db582826116bc565b505092915050565b81610dc8813361118a565b6001600160a01b038316600090815260208181526040808320858452909152812090600582015460ff166004811115610e1157634e487b7160e01b600052602160045260246000fd5b14610e5e5760405162461bcd60e51b815260206004820152600a60248201527f215375626d69747465640000000000000000000000000000000000000000000060448201526064016102cd565b6002810154600182015482546040517fdd62ed3e0000000000000000000000000000000000000000000000000000000081526001600160a01b03918216600482015230602482015291169063dd62ed3e9060440160206040518083038186803b158015610eca57600080fd5b505afa158015610ede573d6000803e3d6000fd5b505050506040513d601f19601f82011682018060405250810190610f02919061282e565b106110e5576040516317ba7d8560e01b81527f907642cbfe4e58ddd14eaa320923fbe4c29721dd0950ae4cb3b2626e292791ae60048201526000906001600160a01b038616906317ba7d859060240160206040518083038186803b158015610f6957600080fd5b505afa158015610f7d573d6000803e3d6000fd5b505050506040513d601f19601f82011682018060405250810190610fa19190612634565b604080516020810182526000815290517f2b0974d00000000000000000000000000000000000000000000000000000000081529192506001600160a01b03831691632b0974d091610ff891899189916004016129af565b600060405180830381600087803b15801561101257600080fd5b505af1158015611026573d6000803e3d6000fd5b5050505060058201805460ff19166001179055604051634941d71d60e11b81527f9876c0f0505bfb2b1c38d3bbd25ba13159172cd0868972d76927723f5a9480fc60048201526001600160a01b03861690639283ae3a9060240160206040518083038186803b15801561109857600080fd5b505afa1580156110ac573d6000803e3d6000fd5b505050506040513d601f19601f820116820180604052508101906110d0919061282e565b6110da9042612a2d565b60048301555061113f565b60058101805460ff191660041790556001600160a01b03841660009081526001602052604090206111169084611c00565b1561113f576001600160a01b038416600090815260016020526040902061113d9084611c18565b505b60058101546040517f9ecc19ca84ca06f3a7c6274f324cff08c1fb13840039c4caaf14d27de923de879161117c918791879160ff9091169061290d565b60405180910390a150505050565b6040517fa230c5240000000000000000000000000000000000000000000000000000000081526001600160a01b03828116600483015283169063a230c5249060240160206040518083038186803b1580156111e457600080fd5b505afa1580156111f8573d6000803e3d6000fd5b505050506040513d601f19601f8201168201806040525081019061121c9190612742565b6112685760405162461bcd60e51b815260206004820152600c60248201527f6f6e6c79476f7665726e6f72000000000000000000000000000000000000000060448201526064016102cd565b5050565b6040805160808101825260008082526020820181905291810182905260608101919091525a81600001818152505043826001600160a01b031663b21634826040518163ffffffff1660e01b815260040160206040518083038186803b1580156112d457600080fd5b505afa1580156112e8573d6000803e3d6000fd5b505050506040513d601f19601f8201168201806040525081019061130c919061282e565b141561135a5760405162461bcd60e51b815260206004820152601060248201527f7265656e7472616e63792067756172640000000000000000000000000000000060448201526064016102cd565b816001600160a01b03166310fdb0a26040518163ffffffff1660e01b8152600401600060405180830381600087803b15801561139557600080fd5b505af11580156113a9573d6000803e3d6000fd5b50506040517f72c6838f0000000000000000000000000000000000000000000000000000000081527f1f2fd42ad6a6cacd573c4b212beb7a4e2499ad45d742a65337097f130e71daff6004820152600092506001600160a01b03851691506372c6838f9060240160206040518083038186803b15801561142857600080fd5b505afa15801561143c573d6000803e3d6000fd5b505050506040513d601f19601f820116820180604052508101906114609190612634565b90506001600160a01b03811661147c5760006020830152611531565b6001600160a01b038181166060840181905283516040517f43a8a3f1000000000000000000000000000000000000000000000000000000008152928616600484015260248301526000918291906343a8a3f190604401604080518083038186803b1580156114e957600080fd5b505afa1580156114fd573d6000803e3d6000fd5b505050506040513d601f19601f82011682018060405250810190611521919061275c565b9015156020860152604085015250505b50919050565b60608161157757505060408051808201909152600181527f3000000000000000000000000000000000000000000000000000000000000000602082015290565b8160005b81156115a1578061158b81612aa0565b915061159a9050600a83612a45565b915061157b565b60008167ffffffffffffffff8111156115ca57634e487b7160e01b600052604160045260246000fd5b6040519080825280601f01601f1916602001820160405280156115f4576020820181803683370190505b5090505b841561168557611609600183612a59565b9150611616600a86612af9565b611621906030612a2d565b60f81b81838151811061164457634e487b7160e01b600052603260045260246000fd5b60200101907effffffffffffffffffffffffffffffffffffffffffffffffffffffffffffff1916908160001a90535061167e600a86612a45565b94506115f8565b949350505050565b60008151600014156116a157506000919050565b506020015190565b60006116b58383611c24565b9392505050565b611268828233611c73565b600061088c825490565b600080826001600160a01b031663a6f636416040518163ffffffff1660e01b815260040160006040518083038186803b15801561170d57600080fd5b505afa158015611721573d6000803e3d6000fd5b505050506040513d6000823e601f3d908101601f19168201604052611749919081019061267b565b90506000805b82518160ff1610156117ad5761178f85848360ff168151811061178257634e487b7160e01b600052603260045260246000fd5b6020026020010151611d81565b61179990836129f9565b9150806117a581612ad9565b91505061174f565b509392505050565b6040517f70a082310000000000000000000000000000000000000000000000000000000081526001600160a01b03838116600483015260009183918616906370a082319060240160206040518083038186803b15801561181457600080fd5b505afa158015611828573d6000803e3d6000fd5b505050506040513d601f19601f8201168201806040525081019061184c919061282e565b10806118f057506040517fdd62ed3e0000000000000000000000000000000000000000000000000000000081526001600160a01b03848116600483015230602483015283919086169063dd62ed3e9060440160206040518083038186803b1580156118b657600080fd5b505afa1580156118ca573d6000803e3d6000fd5b505050506040513d601f19601f820116820180604052508101906118ee919061282e565b105b156118fd57506000611685565b6040517f23b872dd0000000000000000000000000000000000000000000000000000000081526001600160a01b038481166004830152306024830152604482018490528516906323b872dd90606401602060405180830381600087803b15801561196657600080fd5b505af115801561197a573d6000803e3d6000fd5b505050506040513d601f19601f8201168201806040525081019061199e9190612742565b50604051632c9f4b5b60e11b81527f3909e87234f428ccb8748126e2c93f66a62f92a70d315fa5803dec6362be07ab60048201526001600160a01b038086169163095ea7b39188169063593e96b69060240160206040518083038186803b158015611a0857600080fd5b505afa158015611a1c573d6000803e3d6000fd5b505050506040513d601f19601f82011682018060405250810190611a409190612634565b6040517fffffffff0000000000000000000000000000000000000000000000000000000060e084901b1681526001600160a01b03909116600482015260248101859052604401602060405180830381600087803b158015611aa057600080fd5b505af1158015611ab4573d6000803e3d6000fd5b505050506040513d601f19601f82011682018060405250810190611ad89190612742565b50604051632c9f4b5b60e11b81527f3909e87234f428ccb8748126e2c93f66a62f92a70d315fa5803dec6362be07ab60048201526001600160a01b0386169063593e96b69060240160206040518083038186803b158015611b3857600080fd5b505afa158015611b4c573d6000803e3d6000fd5b505050506040513d601f19601f82011682018060405250810190611b709190612634565b6040517fc57d5fe90000000000000000000000000000000000000000000000000000000081526001600160a01b038581166004830152868116602483015260448201859052919091169063c57d5fe990606401600060405180830381600087803b158015611bdd57600080fd5b505af1158015611bf1573d6000803e3d6000fd5b50600198975050505050505050565b600081815260018301602052604081205415156116b5565b60006116b583836123bb565b6000818152600183016020526040812054611c6b5750815460018181018455600084815260208082209093018490558454848252828601909352604090209190915561088c565b50600061088c565b816020015115611d295781606001516001600160a01b0316635e5eb01384835a8651611c9f9190612a59565b60408088015190517fffffffff0000000000000000000000000000000000000000000000000000000060e087901b1681526001600160a01b03948516600482015293909216602484015260448301526064820152608401600060405180830381600087803b158015611d1057600080fd5b505af1158015611d24573d6000803e3d6000fd5b505050505b826001600160a01b031663d4f7af436040518163ffffffff1660e01b8152600401600060405180830381600087803b158015611d6457600080fd5b505af1158015611d78573d6000803e3d6000fd5b50505050505050565b604051634941d71d60e11b81527feee23dc9ab95b6666db01c2b6cae6a5ef706099a25926e21e0a2e043fe885604600482015260009081906001600160a01b03851690639283ae3a9060240160206040518083038186803b158015611de557600080fd5b505afa158015611df9573d6000803e3d6000fd5b505050506040513d601f19601f82011682018060405250810190611e1d919061282e565b604051634941d71d60e11b81527fd093d4a34a12a221b19c0a6689d5449f1346aa769d15cca4e9782c36fda9339a60048201529091506000906001600160a01b03861690639283ae3a9060240160206040518083038186803b158015611e8257600080fd5b505afa158015611e96573d6000803e3d6000fd5b505050506040513d601f19601f82011682018060405250810190611eba919061282e565b6040516317ba7d8560e01b81527f8f5b4aabbdb8527d420a29cc90ae207773ad49b73c632c3cfd2f29eb8776f2ea60048201529091506000906001600160a01b038716906317ba7d859060240160206040518083038186803b158015611f1f57600080fd5b505afa158015611f33573d6000803e3d6000fd5b505050506040513d601f19601f82011682018060405250810190611f579190612634565b604051632c9f4b5b60e11b81527f3909e87234f428ccb8748126e2c93f66a62f92a70d315fa5803dec6362be07ab60048201529091506000906001600160a01b0388169063593e96b69060240160206040518083038186803b158015611fbc57600080fd5b505afa158015611fd0573d6000803e3d6000fd5b505050506040513d601f19601f82011682018060405250810190611ff49190612634565b6040517f70a0823100000000000000000000000000000000000000000000000000000000815261decd60048201526001600160a01b0391909116906370a082319060240160206040518083038186803b15801561205057600080fd5b505afa158015612064573d6000803e3d6000fd5b505050506040513d601f19601f82011682018060405250810190612088919061282e565b1115801561212357506040517fa230c5240000000000000000000000000000000000000000000000000000000081526001600160a01b03868116600483015287169063a230c5249060240160206040518083038186803b1580156120eb57600080fd5b505afa1580156120ff573d6000803e3d6000fd5b505050506040513d601f19601f820116820180604052508101906121239190612742565b15612134576001935050505061088c565b8160011415612251576000836121e157604051633de222bb60e21b81526001600160a01b0388811660048301528781166024830152670de0b6b3a7640000919084169063f7888aec9060440160206040518083038186803b15801561219857600080fd5b505afa1580156121ac573d6000803e3d6000fd5b505050506040513d601f19601f820116820180604052508101906121d0919061282e565b6121da9190612a45565b90506121ee565b600094505050505061088c565b6000811161220357600094505050505061088c565b677fffffffffffffff811061221f57603294505050505061088c565b600061223a612235612230846124d8565b6124f6565b6125f8565b67ffffffffffffffff16955061088c945050505050565b8160021415612306576000836121e157604051633de222bb60e21b81526001600160a01b03888116600483015287811660248301526000919084169063f7888aec9060440160206040518083038186803b1580156122ae57600080fd5b505afa1580156122c2573d6000803e3d6000fd5b505050506040513d601f19601f820116820180604052508101906122e6919061282e565b116122f25760006122f5565b60015b60ff1690505b935061088c92505050565b816123af576000836121e157604051633de222bb60e21b81526001600160a01b0388811660048301528781166024830152670de0b6b3a7640000919084169063f7888aec9060440160206040518083038186803b15801561236657600080fd5b505afa15801561237a573d6000803e3d6000fd5b505050506040513d601f19601f8201168201806040525081019061239e919061282e565b6123a89190612a45565b90506122fb565b6000935050505061088c565b600081815260018301602052604081205480156124ce5760006123df600183612a59565b85549091506000906123f390600190612a59565b905081811461247457600086600001828154811061242157634e487b7160e01b600052603260045260246000fd5b906000526020600020015490508087600001848154811061245257634e487b7160e01b600052603260045260246000fd5b6000918252602080832090910192909255918252600188019052604090208390555b855486908061249357634e487b7160e01b600052603160045260246000fd5b60019003818190600052602060002001600090559055856001016000868152602001908152602001600020600090556001935050505061088c565b600091505061088c565b6000677fffffffffffffff8211156124ef57600080fd5b5060401b90565b60008082600f0b1361250757600080fd5b6000600f83900b680100000000000000008112612526576040918201911d5b640100000000811261253a576020918201911d5b62010000811261254c576010918201911d5b610100811261255d576008918201911d5b6010811261256d576004918201911d5b6004811261257d576002918201911d5b6002811261258c576001820191505b7fffffffffffffffffffffffffffffffffffffffffffffffffffffffffffffffc0820160401b600f85900b607f8490031b6780000000000000005b60008113156125ed5790800260ff81901c8281029390930192607f011c9060011d6125c7565b509095945050505050565b60008082600f0b121561260a57600080fd5b50600f0b60401d90565b805161261f81612b65565b919050565b8051801515811461261f57600080fd5b600060208284031215612645578081fd5b81516116b581612b65565b60008060408385031215612662578081fd5b823561266d81612b65565b946020939093013593505050565b6000602080838503121561268d578182fd5b825167ffffffffffffffff808211156126a4578384fd5b818501915085601f8301126126b7578384fd5b8151818111156126c9576126c9612b4f565b8060051b604051601f19603f830116810181811085821117156126ee576126ee612b4f565b604052828152858101935084860182860187018a101561270c578788fd5b8795505b838610156127355761272181612614565b855260019590950194938601938601612710565b5098975050505050505050565b600060208284031215612753578081fd5b6116b582612624565b6000806040838503121561276e578182fd5b61277783612624565b9150602083015190509250929050565b600060208284031215612798578081fd5b81356116b581612b65565b6000806000606084860312156127b7578081fd5b83356127c281612b65565b925060208401356127d281612b65565b929592945050506040919091013590565b60008060408385031215612662578182fd5b600080600060608486031215612809578283fd5b835160068110612817578384fd5b602085015160409095015190969495509392505050565b60006020828403121561283f578081fd5b5051919050565b6005811061285657612856612b39565b9052565b7fffffffffffffffff000000000000000000000000000000000000000000000000831681527f546f7055702300000000000000000000000000000000000000000000000000006008820152600082516128ba81600e850160208701612a70565b91909101600e019392505050565b6001600160a01b0387811682528616602082015260408101859052606081018490526080810183905260c0810161290260a0830184612846565b979650505050505050565b6001600160a01b038416815260208101839052606081016116856040830184612846565b6001600160a01b03881681526020810187905260e081016129556040830188612846565b6fffffffffffffffffffffffffffffffff861660608301528460808301528360a08301528260c083015298975050505050505050565b82815260408101600383106129a2576129a2612b39565b8260208301529392505050565b6001600160a01b038416815282602082015260606040820152600082518060608401526129e3816080850160208701612a70565b601f01601f191691909101608001949350505050565b60006fffffffffffffffffffffffffffffffff808316818516808303821115612a2457612a24612b0d565b01949350505050565b60008219821115612a4057612a40612b0d565b500190565b600082612a5457612a54612b23565b500490565b600082821015612a6b57612a6b612b0d565b500390565b60005b83811015612a8b578181015183820152602001612a73565b83811115612a9a576000848401525b50505050565b60007fffffffffffffffffffffffffffffffffffffffffffffffffffffffffffffffff821415612ad257612ad2612b0d565b5060010190565b600060ff821660ff811415612af057612af0612b0d565b60010192915050565b600082612b0857612b08612b23565b500690565b634e487b7160e01b600052601160045260246000fd5b634e487b7160e01b600052601260045260246000fd5b634e487b7160e01b600052602160045260246000fd5b634e487b7160e01b600052604160045260246000fd5b6001600160a01b0381168114612b7a57600080fd5b5056fea2646970667358221220970d0b06cc4501b4ccfa46d476094b586a0549794a24a1301d88cec04049c9cf64736f6c63430008040033",
  "linkReferences": {},
  "deployedLinkReferences": {}
}