{
  "_format": "hh-sol-artifact-1",
  "contractName": "FlexDaoSetProposerMembershipAdapterContract",
  "sourceName": "contracts/flex/adatpers/FlexDaoSetProposerMembershipAdapter.sol",
  "abi": [
    {
      "inputs": [],
      "name": "VOTING_NOT_FINISH",
      "type": "error"
    },
    {
      "anonymous": false,
      "inputs": [
        {
          "indexed": false,
          "internalType": "address",
          "name": "daoAddr",
          "type": "address"
        },
        {
          "indexed": false,
          "internalType": "bytes32",
          "name": "proposalId",
          "type": "bytes32"
        },
        {
          "indexed": false,
          "internalType": "enum FlexDaosetLibrary.ProposalType",
          "name": "pType",
          "type": "uint8"
        }
      ],
      "name": "ProposalCreated",
      "type": "event"
    },
    {
      "anonymous": false,
      "inputs": [
        {
          "indexed": false,
          "internalType": "address",
          "name": "daoAddr",
          "type": "address"
        },
        {
          "indexed": false,
          "internalType": "bytes32",
          "name": "proposalId",
          "type": "bytes32"
        },
        {
          "indexed": false,
          "internalType": "uint256",
          "name": "voteResult",
          "type": "uint256"
        },
        {
          "indexed": false,
          "internalType": "uint128",
          "name": "allVotingWeight",
          "type": "uint128"
        },
        {
          "indexed": false,
          "internalType": "uint256",
          "name": "nbYes",
          "type": "uint256"
        },
        {
          "indexed": false,
          "internalType": "uint256",
          "name": "nbNo",
          "type": "uint256"
        }
      ],
      "name": "ProposalProcessed",
      "type": "event"
    },
    {
      "inputs": [
        {
          "internalType": "bytes32",
          "name": "proposalId",
          "type": "bytes32"
        }
      ],
      "name": "getProposerMembershipWhitelist",
      "outputs": [
        {
          "internalType": "address[]",
          "name": "",
          "type": "address[]"
        }
      ],
      "stateMutability": "view",
      "type": "function"
    },
    {
      "inputs": [
        {
          "internalType": "contract DaoRegistry",
          "name": "dao",
          "type": "address"
        },
        {
          "internalType": "address",
          "name": "_addr",
          "type": "address"
        }
      ],
      "name": "isActiveMember",
      "outputs": [
        {
          "internalType": "bool",
          "name": "",
          "type": "bool"
        }
      ],
      "stateMutability": "view",
      "type": "function"
    },
    {
      "inputs": [
        {
          "internalType": "address",
          "name": "",
          "type": "address"
        }
      ],
      "name": "ongoingProposerMembershipProposal",
      "outputs": [
        {
          "internalType": "bytes32",
          "name": "",
          "type": "bytes32"
        }
      ],
      "stateMutability": "view",
      "type": "function"
    },
    {
      "inputs": [
        {
          "internalType": "contract DaoRegistry",
          "name": "dao",
          "type": "address"
        },
        {
          "internalType": "bytes32",
          "name": "proposalId",
          "type": "bytes32"
        }
      ],
      "name": "processProposerMembershipProposal",
      "outputs": [
        {
          "internalType": "enum IFlexVoting.VotingState",
          "name": "",
          "type": "uint8"
        },
        {
          "internalType": "uint256",
          "name": "",
          "type": "uint256"
        },
        {
          "internalType": "uint256",
          "name": "",
          "type": "uint256"
        },
        {
          "internalType": "uint128",
          "name": "",
          "type": "uint128"
        }
      ],
      "stateMutability": "nonpayable",
      "type": "function"
    },
    {
      "inputs": [
        {
          "internalType": "address",
          "name": "",
          "type": "address"
        },
        {
          "internalType": "bytes32",
          "name": "",
          "type": "bytes32"
        }
      ],
      "name": "proposerMembershipProposals",
      "outputs": [
        {
          "internalType": "bool",
          "name": "proposerMembershipEnable",
          "type": "bool"
        },
        {
          "internalType": "string",
          "name": "name",
          "type": "string"
        },
        {
          "internalType": "uint8",
          "name": "varifyType",
          "type": "uint8"
        },
        {
          "internalType": "uint256",
          "name": "minHolding",
          "type": "uint256"
        },
        {
          "internalType": "address",
          "name": "tokenAddress",
          "type": "address"
        },
        {
          "internalType": "uint256",
          "name": "tokenId",
          "type": "uint256"
        },
        {
          "internalType": "uint256",
          "name": "creationTime",
          "type": "uint256"
        },
        {
          "internalType": "uint256",
          "name": "stopVoteTime",
          "type": "uint256"
        },
        {
          "internalType": "enum FlexDaosetLibrary.ProposalState",
          "name": "state",
          "type": "uint8"
        }
      ],
      "stateMutability": "view",
      "type": "function"
    },
    {
      "inputs": [
        {
          "components": [
            {
              "internalType": "contract DaoRegistry",
              "name": "dao",
              "type": "address"
            },
            {
              "internalType": "bool",
              "name": "proposerMembershipEnable",
              "type": "bool"
            },
            {
              "internalType": "string",
              "name": "name",
              "type": "string"
            },
            {
              "internalType": "uint8",
              "name": "varifyType",
              "type": "uint8"
            },
            {
              "internalType": "uint256",
              "name": "minHolding",
              "type": "uint256"
            },
            {
              "internalType": "address",
              "name": "tokenAddress",
              "type": "address"
            },
            {
              "internalType": "uint256",
              "name": "tokenId",
              "type": "uint256"
            },
            {
              "internalType": "address[]",
              "name": "whiteList",
              "type": "address[]"
            }
          ],
          "internalType": "struct FlexDaosetLibrary.ProposerMembershipParams",
          "name": "params",
          "type": "tuple"
        }
      ],
      "name": "submitProposerMembershipProposal",
      "outputs": [
        {
          "internalType": "bytes32",
          "name": "",
          "type": "bytes32"
        }
      ],
      "stateMutability": "nonpayable",
      "type": "function"
    }
  ],
  "bytecode": "0x608060405234801561001057600080fd5b50612ea9806100206000396000f3fe608060405234801561001057600080fd5b50600436106100725760003560e01c8063d0740c2c11610050578063d0740c2c146100eb578063f2bc1c021461010c578063f7d0c6ec1461012c57600080fd5b806302395759146100775780638ecf7720146100a0578063ab1a2798146100c3575b600080fd5b61008a6100853660046127cb565b61014f565b6040516100979190612a1a565b60405180910390f35b6100b36100ae3660046127e3565b61016f565b6040519015158152602001610097565b6100d66100d1366004612674565b61020c565b60405161009799989796959493929190612a2d565b6100fe6100f9366004612866565b6102fb565b604051908152602001610097565b6100fe61011a36600461263c565b60006020819052908152604090205481565b61013f61013a36600461281b565b610b6e565b6040516100979493929190612bd6565b600081815260026020526040902060609061016990610cdf565b92915050565b6040517fa230c5240000000000000000000000000000000000000000000000000000000081526001600160a01b0382811660048301526000919084169063a230c5249060240160206040518083038186803b1580156101cd57600080fd5b505afa1580156101e1573d6000803e3d6000fd5b505050506040513d601f19601f820116820180604052508101906102059190612782565b9392505050565b600160208181526000938452604080852090915291835291208054918101805460ff9093169261023b90612d53565b80601f016020809104026020016040519081016040528092919081815260200182805461026790612d53565b80156102b45780601f10610289576101008083540402835291602001916102b4565b820191906000526020600020905b81548152906001019060200180831161029757829003601f168201915b505050600284015460038501546004860154600587015460068801546007890154600890990154979860ff958616989497506001600160a01b039093169550909390921689565b600061030a602083018361263c565b6103148133610cec565b610321602084018461263c565b600061032c82610d46565b905061033b602086018661263c565b6040516317ba7d8560e01b81527fff9379b98b93eb3bd1fac62fd2258a7955d70d2d5279c40064145b6c9646df3760048201526001600160a01b0391909116906317ba7d859060240160206040518083038186803b15801561039c57600080fd5b505afa1580156103b0573d6000803e3d6000fd5b505050506040513d601f19601f820116820180604052508101906103d49190612658565b6001600160a01b03166364d6d55a6103ef602088018861263c565b6040517fffffffff0000000000000000000000000000000000000000000000000000000060e084901b1681526001600160a01b03909116600482015260240160206040518083038186803b15801561044657600080fd5b505afa15801561045a573d6000803e3d6000fd5b505050506040513d601f19601f8201168201806040525081019061047e9190612782565b6104cf5760405162461bcd60e51b815260206004820152601060248201527f756e446f6e652050726f706f73616c730000000000000000000000000000000060448201526064015b60405180910390fd5b6104dc602086018661263c565b6040516317ba7d8560e01b81527fff9379b98b93eb3bd1fac62fd2258a7955d70d2d5279c40064145b6c9646df3760048201526001600160a01b0391909116906317ba7d859060240160206040518083038186803b15801561053d57600080fd5b505afa158015610551573d6000803e3d6000fd5b505050506040513d601f19601f820116820180604052508101906105759190612658565b6001600160a01b0316639a0242fc610590602088018861263c565b6040517fffffffff0000000000000000000000000000000000000000000000000000000060e084901b1681526001600160a01b03909116600482015260240160206040518083038186803b1580156105e757600080fd5b505afa1580156105fb573d6000803e3d6000fd5b505050506040513d601f19601f8201168201806040525081019061061f9190612782565b61066b5760405162461bcd60e51b815260206004820152601660248201527f756e446f6e652044616f7365742050726f706f73616c0000000000000000000060448201526064016104c6565b610678602086018661263c565b6001600160a01b031663b34dd9436040518163ffffffff1660e01b8152600401600060405180830381600087803b1580156106b257600080fd5b505af11580156106c6573d6000803e3d6000fd5b506000925061078c91506106df9050602088018861263c565b60c01b6107676106f260208a018a61263c565b6001600160a01b031663c43d70086040518163ffffffff1660e01b815260040160206040518083038186803b15801561072a57600080fd5b505afa15801561073e573d6000803e3d6000fd5b505050506040513d601f19601f8201168201806040525081019061076291906128cf565b611011565b604051602001610778929190612977565b604051602081830303815290604052611167565b90506040518061012001604052808760200160208101906107ad9190612766565b151581526020016107c16040890189612c67565b8080601f01602080910402602001604051908101604052809392919081815260200183838082843760009201919091525050509082525060200161080b6080890160608a016128e7565b60ff1681526080880135602082015260400161082d60c0890160a08a0161263c565b6001600160a01b031681526020018760c00135815260200142815260200187600001602081019061085e919061263c565b604051634941d71d60e11b81527f9876c0f0505bfb2b1c38d3bbd25ba13159172cd0868972d76927723f5a9480fc60048201526001600160a01b039190911690639283ae3a9060240160206040518083038186803b1580156108bf57600080fd5b505afa1580156108d3573d6000803e3d6000fd5b505050506040513d601f19601f820116820180604052508101906108f791906128cf565b6109019042612ce0565b8152602001600090526001600061091b60208a018a61263c565b6001600160a01b03168152602080820192909252604090810160009081208582528352208251815460ff1916901515178155828201518051919261096792600185019290910190612593565b50604082015160028201805460ff90921660ff19928316179055606083015160038084019190915560808401516004840180546001600160a01b039092167fffffffffffffffffffffffff000000000000000000000000000000000000000090921691909117905560a0840151600584015560c0840151600684015560e08401516007840155610100840151600884018054919390929116906001908490811115610a2257634e487b7160e01b600052602160045260246000fd5b021790555060009150610a3a905060e0880188612c18565b90501115610acd5760005b610a5260e0880188612c18565b90508160ff161015610acb57610ab8610a6e60e0890189612c18565b8360ff16818110610a8f57634e487b7160e01b600052603260045260246000fd5b9050602002016020810190610aa4919061263c565b600084815260026020526040902090611183565b5080610ac381612dc1565b915050610a45565b505b80600080610ade60208a018a61263c565b6001600160a01b0316815260208082019290925260400160002091909155610b1290610b0c9088018861263c565b82611198565b7fa65d0c07e3b0d876ee52e871c234a4b150b9bf17a08f356f5aeda8d6782cc31a610b40602088018861263c565b826005604051610b52939291906129e5565b60405180910390a19350610b6682826113ae565b505050919050565b600080600080856000610b8082610d46565b6001600160a01b03891660009081526001602090815260408083208b84529091528120919250808080610bb38d8d6113b9565b929650909450925090506002846005811115610bdf57634e487b7160e01b600052602160045260246000fd5b1415610c0c57610bf08d8d876115d9565b6008850180546002919060ff19166001835b0217905550610ca6565b6003846005811115610c2e57634e487b7160e01b600052602160045260246000fd5b1480610c5957506001846005811115610c5757634e487b7160e01b600052602160045260246000fd5b145b15610c74576008850180546003919060ff1916600183610c02565b6040517f70fc772800000000000000000000000000000000000000000000000000000000815260040160405180910390fd5b6001600160a01b038d166000908152602081905260408120559299509097509550935050610cd482826113ae565b505092959194509250565b606060006102058361172a565b610cf6828261016f565b610d425760405162461bcd60e51b815260206004820152600c60248201527f6f6e6c79476f7665726e6f72000000000000000000000000000000000000000060448201526064016104c6565b5050565b6040805160808101825260008082526020820181905291810182905260608101919091525a81600001818152505043826001600160a01b031663b21634826040518163ffffffff1660e01b815260040160206040518083038186803b158015610dae57600080fd5b505afa158015610dc2573d6000803e3d6000fd5b505050506040513d601f19601f82011682018060405250810190610de691906128cf565b1415610e345760405162461bcd60e51b815260206004820152601060248201527f7265656e7472616e63792067756172640000000000000000000000000000000060448201526064016104c6565b816001600160a01b03166310fdb0a26040518163ffffffff1660e01b8152600401600060405180830381600087803b158015610e6f57600080fd5b505af1158015610e83573d6000803e3d6000fd5b50506040517f72c6838f0000000000000000000000000000000000000000000000000000000081527f1f2fd42ad6a6cacd573c4b212beb7a4e2499ad45d742a65337097f130e71daff6004820152600092506001600160a01b03851691506372c6838f9060240160206040518083038186803b158015610f0257600080fd5b505afa158015610f16573d6000803e3d6000fd5b505050506040513d601f19601f82011682018060405250810190610f3a9190612658565b90506001600160a01b038116610f56576000602083015261100b565b6001600160a01b038181166060840181905283516040517f43a8a3f1000000000000000000000000000000000000000000000000000000008152928616600484015260248301526000918291906343a8a3f190604401604080518083038186803b158015610fc357600080fd5b505afa158015610fd7573d6000803e3d6000fd5b505050506040513d601f19601f82011682018060405250810190610ffb919061279e565b9015156020860152604085015250505b50919050565b60608161105157505060408051808201909152600181527f3000000000000000000000000000000000000000000000000000000000000000602082015290565b8160005b811561107b578061106581612d88565b91506110749050600a83612cf8565b9150611055565b60008167ffffffffffffffff8111156110a457634e487b7160e01b600052604160045260246000fd5b6040519080825280601f01601f1916602001820160405280156110ce576020820181803683370190505b5090505b841561115f576110e3600183612d0c565b91506110f0600a86612de1565b6110fb906030612ce0565b60f81b81838151811061111e57634e487b7160e01b600052603260045260246000fd5b60200101907effffffffffffffffffffffffffffffffffffffffffffffffffffffffffffff1916908160001a905350611158600a86612cf8565b94506110d2565b949350505050565b600081516000141561117b57506000919050565b506020015190565b6000610205836001600160a01b038416611786565b6040517fb73dc389000000000000000000000000000000000000000000000000000000008152600481018290526001600160a01b0383169063b73dc38990602401600060405180830381600087803b1580156111f357600080fd5b505af1158015611207573d6000803e3d6000fd5b50506040516317ba7d8560e01b81527f0d479c38716a0298633b1dbf1ce145a3fbd1d79ca4527de172afc3bad04a2ba76004820152600092506001600160a01b03851691506317ba7d859060240160206040518083038186803b15801561126d57600080fd5b505afa158015611281573d6000803e3d6000fd5b505050506040513d601f19601f820116820180604052508101906112a59190612658565b604080516020810182526000815290517f2b0974d00000000000000000000000000000000000000000000000000000000081529192506001600160a01b03831691632b0974d0916112fc9187918791600401612ba5565b600060405180830381600087803b15801561131657600080fd5b505af115801561132a573d6000803e3d6000fd5b50506040517f815a2bf4000000000000000000000000000000000000000000000000000000008152600481018590526001600160a01b0384811660248301528616925063815a2bf49150604401600060405180830381600087803b15801561139157600080fd5b505af11580156113a5573d6000803e3d6000fd5b50505050505050565b610d428282336117d5565b600080600080856001600160a01b03166330490e91866040518263ffffffff1660e01b81526004016113ed91815260200190565b600060405180830381600087803b15801561140757600080fd5b505af115801561141b573d6000803e3d6000fd5b50506040516317ba7d8560e01b81527f0d479c38716a0298633b1dbf1ce145a3fbd1d79ca4527de172afc3bad04a2ba76004820152600092506001600160a01b03891691506317ba7d859060240160206040518083038186803b15801561148157600080fd5b505afa158015611495573d6000803e3d6000fd5b505050506040513d601f19601f820116820180604052508101906114b99190612658565b90506001600160a01b0381166115115760405162461bcd60e51b815260206004820152600f60248201527f21766f74696e67436f6e7472616374000000000000000000000000000000000060448201526064016104c6565b6040517f76225e730000000000000000000000000000000000000000000000000000000081526001600160a01b0388811660048301526024820188905260009182918291908516906376225e7390604401606060405180830381600087803b15801561157c57600080fd5b505af1158015611590573d6000803e3d6000fd5b505050506040513d601f19601f820116820180604052508101906115b4919061282d565b92509250925060006115c68b8b6118c6565b939b929a50909850919650945050505050565b6040516317ba7d8560e01b81527fff9379b98b93eb3bd1fac62fd2258a7955d70d2d5279c40064145b6c9646df3760048201526000906001600160a01b038516906317ba7d859060240160206040518083038186803b15801561163b57600080fd5b505afa15801561164f573d6000803e3d6000fd5b505050506040513d601f19601f820116820180604052508101906116739190612658565b825460038401546005850154600280870154600488015460008a815260209390935260409092209596506001600160a01b038088169663b165abc3968c9660ff9182169660018d0196919590949216929116906116cf90610cdf565b6040518963ffffffff1660e01b81526004016116f2989796959493929190612aa1565b600060405180830381600087803b15801561170c57600080fd5b505af1158015611720573d6000803e3d6000fd5b5050505050505050565b60608160000180548060200260200160405190810160405280929190818152602001828054801561177a57602002820191906000526020600020905b815481526020019060010190808311611766575b50505050509050919050565b60008181526001830160205260408120546117cd57508154600181810184556000848152602080822090930184905584548482528286019093526040902091909155610169565b506000610169565b81602001511561188b5781606001516001600160a01b0316635e5eb01384835a86516118019190612d0c565b60408088015190517fffffffff0000000000000000000000000000000000000000000000000000000060e087901b1681526001600160a01b03948516600482015293909216602484015260448301526064820152608401600060405180830381600087803b15801561187257600080fd5b505af1158015611886573d6000803e3d6000fd5b505050505b826001600160a01b031663d4f7af436040518163ffffffff1660e01b8152600401600060405180830381600087803b15801561139157600080fd5b6000806118d284611b86565b6040516317ba7d8560e01b81527f0d479c38716a0298633b1dbf1ce145a3fbd1d79ca4527de172afc3bad04a2ba7600482015290915060009081906001600160a01b038716906317ba7d859060240160206040518083038186803b15801561193957600080fd5b505afa15801561194d573d6000803e3d6000fd5b505050506040513d601f19601f820116820180604052508101906119719190612658565b905060005b83518160ff161015611b7b57816001600160a01b03166324a2cceb8888878560ff16815181106119b657634e487b7160e01b600052603260045260246000fd5b60200260200101516040518463ffffffff1660e01b81526004016119fa939291906001600160a01b0393841681526020810192909252909116604082015260600190565b60206040518083038186803b158015611a1257600080fd5b505afa158015611a26573d6000803e3d6000fd5b505050506040513d601f19601f82011682018060405250810190611a4a9190612782565b15611b2857816001600160a01b03166391d2fd538888878560ff1681518110611a8357634e487b7160e01b600052603260045260246000fd5b60200260200101516040518463ffffffff1660e01b8152600401611ac7939291906001600160a01b0393841681526020810192909252909116604082015260600190565b60206040518083038186803b158015611adf57600080fd5b505afa158015611af3573d6000803e3d6000fd5b505050506040513d601f19601f82011682018060405250810190611b17919061289f565b611b219084612cac565b9250611b69565b611b5c87858360ff1681518110611b4f57634e487b7160e01b600052603260045260246000fd5b6020026020010151611bfd565b611b669084612cac565b92505b80611b7381612dc1565b915050611976565b509095945050505050565b6060816001600160a01b031663a6f636416040518163ffffffff1660e01b815260040160006040518083038186803b158015611bc157600080fd5b505afa158015611bd5573d6000803e3d6000fd5b505050506040513d6000823e601f3d908101601f19168201604052610169919081019061269f565b604051634941d71d60e11b81527f75b7d343967750d1f6c15979b7559cea8be22ff1a06a51681b9cbef0d2fff4fe600482015260009081906001600160a01b03851690639283ae3a9060240160206040518083038186803b158015611c6157600080fd5b505afa158015611c75573d6000803e3d6000fd5b505050506040513d601f19601f82011682018060405250810190611c9991906128cf565b604051634941d71d60e11b81527f18ef0b57fe939edb640a200fdf533493bd8f26a274151543a109b64c857e20f360048201529091506000906001600160a01b03861690639283ae3a9060240160206040518083038186803b158015611cfe57600080fd5b505afa158015611d12573d6000803e3d6000fd5b505050506040513d601f19601f82011682018060405250810190611d3691906128cf565b6040516317ba7d8560e01b81527f37cbe06c1044f98864ea25736326bc1d488e24e5e23781ea2ad64c4069cb9e6e60048201529091506000906001600160a01b038716906317ba7d859060240160206040518083038186803b158015611d9b57600080fd5b505afa158015611daf573d6000803e3d6000fd5b505050506040513d601f19601f82011682018060405250810190611dd39190612658565b604051634941d71d60e11b81527f77b1580d1632c74a32483c26a7156260a89ae4138b020ea7d09b0dcf24f1ea2460048201529091506000906001600160a01b03881690639283ae3a9060240160206040518083038186803b158015611e3857600080fd5b505afa158015611e4c573d6000803e3d6000fd5b505050506040513d601f19601f82011682018060405250810190611e7091906128cf565b6040517ffd310d290000000000000000000000000000000000000000000000000000000081527fb5a1ad3f04728d7c38547e3d43006a1ec090a02fce04bbb1d0ee4519a1921e5760048201529091506000906001600160a01b0389169063fd310d299060240160206040518083038186803b158015611eee57600080fd5b505afa158015611f02573d6000803e3d6000fd5b505050506040513d601f19601f82011682018060405250810190611f269190612658565b9050836001141561214357600085611fcd576040516370a0823160e01b81526001600160a01b038981166004830152670de0b6b3a764000091908416906370a082319060240160206040518083038186803b158015611f8457600080fd5b505afa158015611f98573d6000803e3d6000fd5b505050506040513d601f19601f82011682018060405250810190611fbc91906128cf565b611fc69190612cf8565b90506120da565b8560011415612050576040516370a0823160e01b81526001600160a01b0389811660048301528316906370a08231906024015b60206040518083038186803b15801561201857600080fd5b505afa15801561202c573d6000803e3d6000fd5b505050506040513d601f19601f82011682018060405250810190611fc691906128cf565b856002141561208c57604051627eeac760e11b81526001600160a01b0389811660048301526024820185905283169062fdd58e90604401612000565b85600314156120cb576040516329b6517360e21b81526001600160a01b038a81166004830152898116602483015285169063a6d945cc90604401612000565b60009650505050505050610169565b600081116120f15760009650505050505050610169565b677fffffffffffffff811061210f5760329650505050505050610169565b600061212a61212561212084612462565b612480565b612577565b67ffffffffffffffff1697506101699650505050505050565b83600214156122b5576000856121ea576040516370a0823160e01b81526001600160a01b038981166004830152600091908416906370a08231906024015b60206040518083038186803b15801561219957600080fd5b505afa1580156121ad573d6000803e3d6000fd5b505050506040513d601f19601f820116820180604052508101906121d191906128cf565b116121dd5760006121e0565b60015b60ff1690506122a8565b8560011415612225576040516370a0823160e01b81526001600160a01b038981166004830152600091908416906370a0823190602401612181565b856002141561226557604051627eeac760e11b81526001600160a01b038981166004830152602482018590526000919084169062fdd58e90604401612181565b85600314156120cb576040516329b6517360e21b81526001600160a01b038a8116600483015289811660248301526000919086169063a6d945cc90604401612181565b9550610169945050505050565b8361245457600085612356576040516370a0823160e01b81526001600160a01b038981166004830152670de0b6b3a764000091908416906370a082319060240160206040518083038186803b15801561230d57600080fd5b505afa158015612321573d6000803e3d6000fd5b505050506040513d601f19601f8201168201806040525081019061234591906128cf565b61234f9190612cf8565b90506122a8565b85600114156123d9576040516370a0823160e01b81526001600160a01b0389811660048301528316906370a08231906024015b60206040518083038186803b1580156123a157600080fd5b505afa1580156123b5573d6000803e3d6000fd5b505050506040513d601f19601f8201168201806040525081019061234f91906128cf565b856002141561241557604051627eeac760e11b81526001600160a01b0389811660048301526024820185905283169062fdd58e90604401612389565b85600314156120cb576040516329b6517360e21b81526001600160a01b038a81166004830152898116602483015285169063a6d945cc90604401612389565b600095505050505050610169565b6000677fffffffffffffff82111561247957600080fd5b5060401b90565b60008082600f0b1361249157600080fd5b6000600f83900b6801000000000000000081126124b0576040918201911d5b64010000000081126124c4576020918201911d5b6201000081126124d6576010918201911d5b61010081126124e7576008918201911d5b601081126124f7576004918201911d5b60048112612507576002918201911d5b60028112612516576001820191505b7fffffffffffffffffffffffffffffffffffffffffffffffffffffffffffffffc0820160401b600f85900b607f8490031b6780000000000000005b6000811315611b7b5790800260ff81901c8281029390930192607f011c9060011d612551565b60008082600f0b121561258957600080fd5b50600f0b60401d90565b82805461259f90612d53565b90600052602060002090601f0160209004810192826125c15760008555612607565b82601f106125da57805160ff1916838001178555612607565b82800160010185558215612607579182015b828111156126075782518255916020019190600101906125ec565b50612613929150612617565b5090565b5b808211156126135760008155600101612618565b805161263781612e4d565b919050565b60006020828403121561264d578081fd5b813561020581612e4d565b600060208284031215612669578081fd5b815161020581612e4d565b60008060408385031215612686578081fd5b823561269181612e4d565b946020939093013593505050565b600060208083850312156126b1578182fd5b825167ffffffffffffffff808211156126c8578384fd5b818501915085601f8301126126db578384fd5b8151818111156126ed576126ed612e37565b8060051b604051601f19603f8301168101818110858211171561271257612712612e37565b604052828152858101935084860182860187018a1015612730578788fd5b8795505b83861015612759576127458161262c565b855260019590950194938601938601612734565b5098975050505050505050565b600060208284031215612777578081fd5b813561020581612e65565b600060208284031215612793578081fd5b815161020581612e65565b600080604083850312156127b0578182fd5b82516127bb81612e65565b6020939093015192949293505050565b6000602082840312156127dc578081fd5b5035919050565b600080604083850312156127f5578182fd5b823561280081612e4d565b9150602083013561281081612e4d565b809150509250929050565b60008060408385031215612686578182fd5b600080600060608486031215612841578081fd5b83516006811061284f578182fd5b602085015160409095015190969495509392505050565b600060208284031215612877578081fd5b813567ffffffffffffffff81111561288d578182fd5b82016101008185031215610205578182fd5b6000602082840312156128b0578081fd5b81516fffffffffffffffffffffffffffffffff81168114610205578182fd5b6000602082840312156128e0578081fd5b5051919050565b6000602082840312156128f8578081fd5b813560ff81168114610205578182fd5b6000815180845260208085019450808401835b838110156129405781516001600160a01b03168752958201959082019060010161291b565b509495945050505050565b60008151808452612963816020860160208601612d23565b601f01601f19169290920160200192915050565b7fffffffffffffffff000000000000000000000000000000000000000000000000831681527f50726f706f736572204d656d62657273686970202300000000000000000000006008820152600082516129d781601d850160208701612d23565b91909101601d019392505050565b6001600160a01b0384168152602081018390526060810160078310612a0c57612a0c612e21565b826040830152949350505050565b6020815260006102056020830184612908565b60006101208b15158352806020840152612a498184018c61294b565b91505060ff891660408301528760608301526001600160a01b03871660808301528560a08301528460c08301528360e083015260048310612a8c57612a8c612e21565b826101008301529a9950505050505050505050565b60006101006001600160a01b038b168352891515602084015280604084015281895483600182811c915080831680612ada57607f831692505b60208310811415612af957634e487b7160e01b87526022600452602487fd5b94870182815260200194808015612b175760018114612b2957612b54565b60ff1985168752602087019550612b54565b60008f815260209020885b85811015612b4e5781548982015290840190602001612b34565b88019650505b5050505050886060850152876080850152612b7460a085018860ff169052565b6001600160a01b03861660c085015283810360e0850152612b958186612908565b9c9b505050505050505050505050565b6001600160a01b0384168152826020820152606060408201526000612bcd606083018461294b565b95945050505050565b6080810160068610612bea57612bea612e21565b948152602081019390935260408301919091526fffffffffffffffffffffffffffffffff1660609091015290565b6000808335601e19843603018112612c2e578283fd5b83018035915067ffffffffffffffff821115612c48578283fd5b6020019150600581901b3603821315612c6057600080fd5b9250929050565b6000808335601e19843603018112612c7d578182fd5b83018035915067ffffffffffffffff821115612c97578283fd5b602001915036819003821315612c6057600080fd5b60006fffffffffffffffffffffffffffffffff808316818516808303821115612cd757612cd7612df5565b01949350505050565b60008219821115612cf357612cf3612df5565b500190565b600082612d0757612d07612e0b565b500490565b600082821015612d1e57612d1e612df5565b500390565b60005b83811015612d3e578181015183820152602001612d26565b83811115612d4d576000848401525b50505050565b600181811c90821680612d6757607f821691505b6020821081141561100b57634e487b7160e01b600052602260045260246000fd5b60007fffffffffffffffffffffffffffffffffffffffffffffffffffffffffffffffff821415612dba57612dba612df5565b5060010190565b600060ff821660ff811415612dd857612dd8612df5565b60010192915050565b600082612df057612df0612e0b565b500690565b634e487b7160e01b600052601160045260246000fd5b634e487b7160e01b600052601260045260246000fd5b634e487b7160e01b600052602160045260246000fd5b634e487b7160e01b600052604160045260246000fd5b6001600160a01b0381168114612e6257600080fd5b50565b8015158114612e6257600080fdfea2646970667358221220078f3672fce47c7e847c27aa901a92433a0245de5eac1f21a52e0ccd193bb10364736f6c63430008040033",
  "linkReferences": {},
  "deployedLinkReferences": {}
}