{
  "_format": "hh-sol-artifact-1",
  "contractName": "FlexDaoSetGovernorMembershipAdapterContract",
  "sourceName": "contracts/flex/adatpers/FlexDaoSetGovernorMembershipAdapter.sol",
  "abi": [
    {
      "inputs": [],
      "name": "VOTING_NOT_FINISH",
      "type": "error"
    },
    {
      "anonymous": false,
      "inputs": [
        {
          "indexed": false,
          "internalType": "address",
          "name": "daoAddr",
          "type": "address"
        },
        {
          "indexed": false,
          "internalType": "bytes32",
          "name": "proposalId",
          "type": "bytes32"
        },
        {
          "indexed": false,
          "internalType": "enum FlexDaosetLibrary.ProposalType",
          "name": "pType",
          "type": "uint8"
        }
      ],
      "name": "ProposalCreated",
      "type": "event"
    },
    {
      "anonymous": false,
      "inputs": [
        {
          "indexed": false,
          "internalType": "address",
          "name": "daoAddr",
          "type": "address"
        },
        {
          "indexed": false,
          "internalType": "bytes32",
          "name": "proposalId",
          "type": "bytes32"
        },
        {
          "indexed": false,
          "internalType": "uint256",
          "name": "voteResult",
          "type": "uint256"
        },
        {
          "indexed": false,
          "internalType": "uint128",
          "name": "allVotingWeight",
          "type": "uint128"
        },
        {
          "indexed": false,
          "internalType": "uint256",
          "name": "nbYes",
          "type": "uint256"
        },
        {
          "indexed": false,
          "internalType": "uint256",
          "name": "nbNo",
          "type": "uint256"
        }
      ],
      "name": "ProposalProcessed",
      "type": "event"
    },
    {
      "inputs": [
        {
          "internalType": "bytes32",
          "name": "proposalId",
          "type": "bytes32"
        }
      ],
      "name": "getGovernorWhitelist",
      "outputs": [
        {
          "internalType": "address[]",
          "name": "",
          "type": "address[]"
        }
      ],
      "stateMutability": "view",
      "type": "function"
    },
    {
      "inputs": [
        {
          "internalType": "address",
          "name": "",
          "type": "address"
        },
        {
          "internalType": "bytes32",
          "name": "",
          "type": "bytes32"
        }
      ],
      "name": "governorMembershipProposals",
      "outputs": [
        {
          "internalType": "bool",
          "name": "enable",
          "type": "bool"
        },
        {
          "internalType": "string",
          "name": "name",
          "type": "string"
        },
        {
          "internalType": "uint8",
          "name": "varifyType",
          "type": "uint8"
        },
        {
          "internalType": "uint256",
          "name": "minAmount",
          "type": "uint256"
        },
        {
          "internalType": "address",
          "name": "tokenAddress",
          "type": "address"
        },
        {
          "internalType": "uint256",
          "name": "tokenId",
          "type": "uint256"
        },
        {
          "internalType": "uint256",
          "name": "creationTime",
          "type": "uint256"
        },
        {
          "internalType": "uint256",
          "name": "stopVoteTime",
          "type": "uint256"
        },
        {
          "internalType": "enum FlexDaosetLibrary.ProposalState",
          "name": "state",
          "type": "uint8"
        }
      ],
      "stateMutability": "view",
      "type": "function"
    },
    {
      "inputs": [
        {
          "internalType": "contract DaoRegistry",
          "name": "dao",
          "type": "address"
        },
        {
          "internalType": "address",
          "name": "_addr",
          "type": "address"
        }
      ],
      "name": "isActiveMember",
      "outputs": [
        {
          "internalType": "bool",
          "name": "",
          "type": "bool"
        }
      ],
      "stateMutability": "view",
      "type": "function"
    },
    {
      "inputs": [
        {
          "internalType": "address",
          "name": "",
          "type": "address"
        }
      ],
      "name": "ongoingGovernorMembershipProposal",
      "outputs": [
        {
          "internalType": "bytes32",
          "name": "",
          "type": "bytes32"
        }
      ],
      "stateMutability": "view",
      "type": "function"
    },
    {
      "inputs": [
        {
          "internalType": "contract DaoRegistry",
          "name": "dao",
          "type": "address"
        },
        {
          "internalType": "bytes32",
          "name": "proposalId",
          "type": "bytes32"
        }
      ],
      "name": "processGovernorMembershipProposal",
      "outputs": [],
      "stateMutability": "nonpayable",
      "type": "function"
    },
    {
      "inputs": [
        {
          "components": [
            {
              "internalType": "contract DaoRegistry",
              "name": "dao",
              "type": "address"
            },
            {
              "internalType": "bool",
              "name": "enable",
              "type": "bool"
            },
            {
              "internalType": "string",
              "name": "name",
              "type": "string"
            },
            {
              "internalType": "uint8",
              "name": "varifyType",
              "type": "uint8"
            },
            {
              "internalType": "uint256",
              "name": "minAmount",
              "type": "uint256"
            },
            {
              "internalType": "address",
              "name": "tokenAddress",
              "type": "address"
            },
            {
              "internalType": "uint256",
              "name": "tokenId",
              "type": "uint256"
            },
            {
              "internalType": "address[]",
              "name": "whiteList",
              "type": "address[]"
            }
          ],
          "internalType": "struct FlexDaosetLibrary.GovernorMembershipParams",
          "name": "params",
          "type": "tuple"
        }
      ],
      "name": "submitGovernorMembershipProposal",
      "outputs": [],
      "stateMutability": "nonpayable",
      "type": "function"
    }
  ],
  "bytecode": "0x608060405234801561001057600080fd5b50612ec4806100206000396000f3fe608060405234801561001057600080fd5b50600436106100725760003560e01c80638e3588dc116100505780638e3588dc146100dd5780638ecf7720146100f0578063be2176251461011357600080fd5b80630791e1de146100775780631eb1cf39146100a0578063229bb5f4146100c8575b600080fd5b61008a610085366004612826565b610141565b6040516100979190612a75565b60405180910390f35b6100b36100ae3660046126cf565b610161565b60405161009799989796959493929190612a88565b6100db6100d63660046128c1565b610252565b005b6100db6100eb366004612876565b610ac1565b6101036100fe36600461283e565b610c11565b6040519015158152602001610097565b610133610121366004612697565b60016020526000908152604090205481565b604051908152602001610097565b600081815260208190526040902060609061015b90610cae565b92915050565b60026020908152600092835260408084209091529082529020805460018201805460ff909216929161019290612d6e565b80601f01602080910402602001604051908101604052809291908181526020018280546101be90612d6e565b801561020b5780601f106101e05761010080835404028352916020019161020b565b820191906000526020600020905b8154815290600101906020018083116101ee57829003601f168201915b505050600284015460038501546004860154600587015460068801546007890154600890990154979860ff958616989497506001600160a01b039093169550909390921689565b61025f6020820182612697565b6102698133610cbb565b6102766020830183612697565b600061028182610d15565b90506102906020850185612697565b6040516317ba7d8560e01b81527fff9379b98b93eb3bd1fac62fd2258a7955d70d2d5279c40064145b6c9646df3760048201526001600160a01b0391909116906317ba7d859060240160206040518083038186803b1580156102f157600080fd5b505afa158015610305573d6000803e3d6000fd5b505050506040513d601f19601f8201168201806040525081019061032991906126b3565b6001600160a01b03166364d6d55a6103446020870187612697565b6040517fffffffff0000000000000000000000000000000000000000000000000000000060e084901b1681526001600160a01b03909116600482015260240160206040518083038186803b15801561039b57600080fd5b505afa1580156103af573d6000803e3d6000fd5b505050506040513d601f19601f820116820180604052508101906103d391906127dd565b6104245760405162461bcd60e51b815260206004820152601060248201527f756e446f6e652050726f706f73616c730000000000000000000000000000000060448201526064015b60405180910390fd5b6104316020850185612697565b6040516317ba7d8560e01b81527fff9379b98b93eb3bd1fac62fd2258a7955d70d2d5279c40064145b6c9646df3760048201526001600160a01b0391909116906317ba7d859060240160206040518083038186803b15801561049257600080fd5b505afa1580156104a6573d6000803e3d6000fd5b505050506040513d601f19601f820116820180604052508101906104ca91906126b3565b6001600160a01b0316639a0242fc6104e56020870187612697565b6040517fffffffff0000000000000000000000000000000000000000000000000000000060e084901b1681526001600160a01b03909116600482015260240160206040518083038186803b15801561053c57600080fd5b505afa158015610550573d6000803e3d6000fd5b505050506040513d601f19601f8201168201806040525081019061057491906127dd565b6105c05760405162461bcd60e51b815260206004820152601660248201527f756e446f6e652044616f7365742050726f706f73616c00000000000000000000604482015260640161041b565b6105cd6020850185612697565b6001600160a01b031663c7e820cc6040518163ffffffff1660e01b8152600401600060405180830381600087803b15801561060757600080fd5b505af115801561061b573d6000803e3d6000fd5b50600092506106e1915061063490506020870187612697565b60c01b6106bc6106476020890189612697565b6001600160a01b0316639e42c4036040518163ffffffff1660e01b815260040160206040518083038186803b15801561067f57600080fd5b505afa158015610693573d6000803e3d6000fd5b505050506040513d601f19601f820116820180604052508101906106b7919061292a565b610fe0565b6040516020016106cd9291906129d2565b604051602081830303815290604052611136565b905060405180610120016040528086602001602081019061070291906127c1565b151581526020016107166040880188612c86565b8080601f0160208091040260200160405190810160405280939291908181526020018383808284376000920191909152505050908252506020016107606080880160608901612942565b60ff1681526080870135602082015260400161078260c0880160a08901612697565b6001600160a01b031681526020018660c0013581526020014281526020018660000160208101906107b39190612697565b604051634941d71d60e11b81527f9876c0f0505bfb2b1c38d3bbd25ba13159172cd0868972d76927723f5a9480fc60048201526001600160a01b039190911690639283ae3a9060240160206040518083038186803b15801561081457600080fd5b505afa158015610828573d6000803e3d6000fd5b505050506040513d601f19601f8201168201806040525081019061084c919061292a565b6108569042612cff565b815260200160009052600260006108706020890189612697565b6001600160a01b03168152602080820192909252604090810160009081208582528352208251815460ff191690151517815582820151805191926108bc926001850192909101906125ee565b50604082015160028201805460ff90921660ff19928316179055606083015160038084019190915560808401516004840180546001600160a01b039092167fffffffffffffffffffffffff000000000000000000000000000000000000000090921691909117905560a0840151600584015560c0840151600684015560e0840151600784015561010084015160088401805491939092911690600190849081111561097757634e487b7160e01b600052602160045260246000fd5b02179055506000915061098f905060e0870187612c37565b90501115610a225760005b6109a760e0870187612c37565b90508160ff161015610a2057610a0d6109c360e0880188612c37565b8360ff168181106109e457634e487b7160e01b600052603260045260246000fd5b90506020020160208101906109f99190612697565b600084815260208190526040902090611152565b5080610a1881612ddc565b91505061099a565b505b8060016000610a346020890189612697565b6001600160a01b0316815260208082019290925260400160002091909155610a6890610a6290870187612697565b82611167565b7fa65d0c07e3b0d876ee52e871c234a4b150b9bf17a08f356f5aeda8d6782cc31a610a966020870187612697565b826001604051610aa893929190612a40565b60405180910390a150610abb828261137d565b50505050565b816000610acd82610d15565b6001600160a01b03851660009081526002602090815260408083208784529091528120919250610afd8686611388565b5090915060029050816005811115610b2557634e487b7160e01b600052602160045260246000fd5b1415610b5257610b36868684611637565b6008820180546002919060ff19166001835b0217905550610bec565b6003816005811115610b7457634e487b7160e01b600052602160045260246000fd5b1480610b9f57506001816005811115610b9d57634e487b7160e01b600052602160045260246000fd5b145b15610bba576008820180546003919060ff1916600183610b48565b6040517f70fc772800000000000000000000000000000000000000000000000000000000815260040160405180910390fd5b50506001600160a01b038416600090815260016020526040812055610abb828261137d565b6040517fa230c5240000000000000000000000000000000000000000000000000000000081526001600160a01b0382811660048301526000919084169063a230c5249060240160206040518083038186803b158015610c6f57600080fd5b505afa158015610c83573d6000803e3d6000fd5b505050506040513d601f19601f82011682018060405250810190610ca791906127dd565b9392505050565b60606000610ca783611785565b610cc58282610c11565b610d115760405162461bcd60e51b815260206004820152600c60248201527f6f6e6c79476f7665726e6f720000000000000000000000000000000000000000604482015260640161041b565b5050565b6040805160808101825260008082526020820181905291810182905260608101919091525a81600001818152505043826001600160a01b031663b21634826040518163ffffffff1660e01b815260040160206040518083038186803b158015610d7d57600080fd5b505afa158015610d91573d6000803e3d6000fd5b505050506040513d601f19601f82011682018060405250810190610db5919061292a565b1415610e035760405162461bcd60e51b815260206004820152601060248201527f7265656e7472616e637920677561726400000000000000000000000000000000604482015260640161041b565b816001600160a01b03166310fdb0a26040518163ffffffff1660e01b8152600401600060405180830381600087803b158015610e3e57600080fd5b505af1158015610e52573d6000803e3d6000fd5b50506040517f72c6838f0000000000000000000000000000000000000000000000000000000081527f1f2fd42ad6a6cacd573c4b212beb7a4e2499ad45d742a65337097f130e71daff6004820152600092506001600160a01b03851691506372c6838f9060240160206040518083038186803b158015610ed157600080fd5b505afa158015610ee5573d6000803e3d6000fd5b505050506040513d601f19601f82011682018060405250810190610f0991906126b3565b90506001600160a01b038116610f255760006020830152610fda565b6001600160a01b038181166060840181905283516040517f43a8a3f1000000000000000000000000000000000000000000000000000000008152928616600484015260248301526000918291906343a8a3f190604401604080518083038186803b158015610f9257600080fd5b505afa158015610fa6573d6000803e3d6000fd5b505050506040513d601f19601f82011682018060405250810190610fca91906127f9565b9015156020860152604085015250505b50919050565b60608161102057505060408051808201909152600181527f3000000000000000000000000000000000000000000000000000000000000000602082015290565b8160005b811561104a578061103481612da3565b91506110439050600a83612d17565b9150611024565b60008167ffffffffffffffff81111561107357634e487b7160e01b600052604160045260246000fd5b6040519080825280601f01601f19166020018201604052801561109d576020820181803683370190505b5090505b841561112e576110b2600183612d2b565b91506110bf600a86612dfc565b6110ca906030612cff565b60f81b8183815181106110ed57634e487b7160e01b600052603260045260246000fd5b60200101907effffffffffffffffffffffffffffffffffffffffffffffffffffffffffffff1916908160001a905350611127600a86612d17565b94506110a1565b949350505050565b600081516000141561114a57506000919050565b506020015190565b6000610ca7836001600160a01b0384166117e1565b6040517fb73dc389000000000000000000000000000000000000000000000000000000008152600481018290526001600160a01b0383169063b73dc38990602401600060405180830381600087803b1580156111c257600080fd5b505af11580156111d6573d6000803e3d6000fd5b50506040516317ba7d8560e01b81527f0d479c38716a0298633b1dbf1ce145a3fbd1d79ca4527de172afc3bad04a2ba76004820152600092506001600160a01b03851691506317ba7d859060240160206040518083038186803b15801561123c57600080fd5b505afa158015611250573d6000803e3d6000fd5b505050506040513d601f19601f8201168201806040525081019061127491906126b3565b604080516020810182526000815290517f2b0974d00000000000000000000000000000000000000000000000000000000081529192506001600160a01b03831691632b0974d0916112cb9187918791600401612c06565b600060405180830381600087803b1580156112e557600080fd5b505af11580156112f9573d6000803e3d6000fd5b50506040517f815a2bf4000000000000000000000000000000000000000000000000000000008152600481018590526001600160a01b0384811660248301528616925063815a2bf49150604401600060405180830381600087803b15801561136057600080fd5b505af1158015611374573d6000803e3d6000fd5b50505050505050565b610d11828233611830565b6000806000846001600160a01b03166330490e91856040518263ffffffff1660e01b81526004016113bb91815260200190565b600060405180830381600087803b1580156113d557600080fd5b505af11580156113e9573d6000803e3d6000fd5b50506040516317ba7d8560e01b81527f0d479c38716a0298633b1dbf1ce145a3fbd1d79ca4527de172afc3bad04a2ba76004820152600092506001600160a01b03881691506317ba7d859060240160206040518083038186803b15801561144f57600080fd5b505afa158015611463573d6000803e3d6000fd5b505050506040513d601f19601f8201168201806040525081019061148791906126b3565b90506001600160a01b0381166114df5760405162461bcd60e51b815260206004820152600f60248201527f21766f74696e67436f6e74726163740000000000000000000000000000000000604482015260640161041b565b6040517f76225e730000000000000000000000000000000000000000000000000000000081526001600160a01b0387811660048301526024820187905260009182918291908516906376225e7390604401606060405180830381600087803b15801561154a57600080fd5b505af115801561155e573d6000803e3d6000fd5b505050506040513d601f19601f820116820180604052508101906115829190612888565b92509250925060006115948a8a611921565b90507f31079f5404bf31284c3985351ef8eff4247cd77140001bc77841d2ecc855cf688a8a8660058111156115d957634e487b7160e01b600052602160045260246000fd5b604080516001600160a01b0390941684526020840192909252908201526fffffffffffffffffffffffffffffffff831660608201526080810185905260a0810184905260c00160405180910390a15091955093509150509250925092565b6040516317ba7d8560e01b81527fff9379b98b93eb3bd1fac62fd2258a7955d70d2d5279c40064145b6c9646df3760048201526000906001600160a01b038516906317ba7d859060240160206040518083038186803b15801561169957600080fd5b505afa1580156116ad573d6000803e3d6000fd5b505050506040513d601f19601f820116820180604052508101906116d191906126b3565b8254600384015460048501546005860154600287015460008981526020819052604090209596506001600160a01b0380881696634088f7ae968c9660ff9182169660018d01969195941693909291169061172a90610cae565b6040518963ffffffff1660e01b815260040161174d989796959493929190612afc565b600060405180830381600087803b15801561176757600080fd5b505af115801561177b573d6000803e3d6000fd5b5050505050505050565b6060816000018054806020026020016040519081016040528092919081815260200182805480156117d557602002820191906000526020600020905b8154815260200190600101908083116117c1575b50505050509050919050565b60008181526001830160205260408120546118285750815460018181018455600084815260208082209093018490558454848252828601909352604090209190915561015b565b50600061015b565b8160200151156118e65781606001516001600160a01b0316635e5eb01384835a865161185c9190612d2b565b60408088015190517fffffffff0000000000000000000000000000000000000000000000000000000060e087901b1681526001600160a01b03948516600482015293909216602484015260448301526064820152608401600060405180830381600087803b1580156118cd57600080fd5b505af11580156118e1573d6000803e3d6000fd5b505050505b826001600160a01b031663d4f7af436040518163ffffffff1660e01b8152600401600060405180830381600087803b15801561136057600080fd5b60008061192d84611be1565b6040516317ba7d8560e01b81527f0d479c38716a0298633b1dbf1ce145a3fbd1d79ca4527de172afc3bad04a2ba7600482015290915060009081906001600160a01b038716906317ba7d859060240160206040518083038186803b15801561199457600080fd5b505afa1580156119a8573d6000803e3d6000fd5b505050506040513d601f19601f820116820180604052508101906119cc91906126b3565b905060005b83518160ff161015611bd657816001600160a01b03166324a2cceb8888878560ff1681518110611a1157634e487b7160e01b600052603260045260246000fd5b60200260200101516040518463ffffffff1660e01b8152600401611a55939291906001600160a01b0393841681526020810192909252909116604082015260600190565b60206040518083038186803b158015611a6d57600080fd5b505afa158015611a81573d6000803e3d6000fd5b505050506040513d601f19601f82011682018060405250810190611aa591906127dd565b15611b8357816001600160a01b03166391d2fd538888878560ff1681518110611ade57634e487b7160e01b600052603260045260246000fd5b60200260200101516040518463ffffffff1660e01b8152600401611b22939291906001600160a01b0393841681526020810192909252909116604082015260600190565b60206040518083038186803b158015611b3a57600080fd5b505afa158015611b4e573d6000803e3d6000fd5b505050506040513d601f19601f82011682018060405250810190611b7291906128fa565b611b7c9084612ccb565b9250611bc4565b611bb787858360ff1681518110611baa57634e487b7160e01b600052603260045260246000fd5b6020026020010151611c58565b611bc19084612ccb565b92505b80611bce81612ddc565b9150506119d1565b509095945050505050565b6060816001600160a01b031663a6f636416040518163ffffffff1660e01b815260040160006040518083038186803b158015611c1c57600080fd5b505afa158015611c30573d6000803e3d6000fd5b505050506040513d6000823e601f3d908101601f1916820160405261015b91908101906126fa565b604051634941d71d60e11b81527f75b7d343967750d1f6c15979b7559cea8be22ff1a06a51681b9cbef0d2fff4fe600482015260009081906001600160a01b03851690639283ae3a9060240160206040518083038186803b158015611cbc57600080fd5b505afa158015611cd0573d6000803e3d6000fd5b505050506040513d601f19601f82011682018060405250810190611cf4919061292a565b604051634941d71d60e11b81527f18ef0b57fe939edb640a200fdf533493bd8f26a274151543a109b64c857e20f360048201529091506000906001600160a01b03861690639283ae3a9060240160206040518083038186803b158015611d5957600080fd5b505afa158015611d6d573d6000803e3d6000fd5b505050506040513d601f19601f82011682018060405250810190611d91919061292a565b6040516317ba7d8560e01b81527f37cbe06c1044f98864ea25736326bc1d488e24e5e23781ea2ad64c4069cb9e6e60048201529091506000906001600160a01b038716906317ba7d859060240160206040518083038186803b158015611df657600080fd5b505afa158015611e0a573d6000803e3d6000fd5b505050506040513d601f19601f82011682018060405250810190611e2e91906126b3565b604051634941d71d60e11b81527f77b1580d1632c74a32483c26a7156260a89ae4138b020ea7d09b0dcf24f1ea2460048201529091506000906001600160a01b03881690639283ae3a9060240160206040518083038186803b158015611e9357600080fd5b505afa158015611ea7573d6000803e3d6000fd5b505050506040513d601f19601f82011682018060405250810190611ecb919061292a565b6040517ffd310d290000000000000000000000000000000000000000000000000000000081527fb5a1ad3f04728d7c38547e3d43006a1ec090a02fce04bbb1d0ee4519a1921e5760048201529091506000906001600160a01b0389169063fd310d299060240160206040518083038186803b158015611f4957600080fd5b505afa158015611f5d573d6000803e3d6000fd5b505050506040513d601f19601f82011682018060405250810190611f8191906126b3565b9050836001141561219e57600085612028576040516370a0823160e01b81526001600160a01b038981166004830152670de0b6b3a764000091908416906370a082319060240160206040518083038186803b158015611fdf57600080fd5b505afa158015611ff3573d6000803e3d6000fd5b505050506040513d601f19601f82011682018060405250810190612017919061292a565b6120219190612d17565b9050612135565b85600114156120ab576040516370a0823160e01b81526001600160a01b0389811660048301528316906370a08231906024015b60206040518083038186803b15801561207357600080fd5b505afa158015612087573d6000803e3d6000fd5b505050506040513d601f19601f82011682018060405250810190612021919061292a565b85600214156120e757604051627eeac760e11b81526001600160a01b0389811660048301526024820185905283169062fdd58e9060440161205b565b8560031415612126576040516329b6517360e21b81526001600160a01b038a81166004830152898116602483015285169063a6d945cc9060440161205b565b6000965050505050505061015b565b6000811161214c576000965050505050505061015b565b677fffffffffffffff811061216a576032965050505050505061015b565b600061218561218061217b846124bd565b6124db565b6125d2565b67ffffffffffffffff16975061015b9650505050505050565b836002141561231057600085612245576040516370a0823160e01b81526001600160a01b038981166004830152600091908416906370a08231906024015b60206040518083038186803b1580156121f457600080fd5b505afa158015612208573d6000803e3d6000fd5b505050506040513d601f19601f8201168201806040525081019061222c919061292a565b1161223857600061223b565b60015b60ff169050612303565b8560011415612280576040516370a0823160e01b81526001600160a01b038981166004830152600091908416906370a08231906024016121dc565b85600214156122c057604051627eeac760e11b81526001600160a01b038981166004830152602482018590526000919084169062fdd58e906044016121dc565b8560031415612126576040516329b6517360e21b81526001600160a01b038a8116600483015289811660248301526000919086169063a6d945cc906044016121dc565b955061015b945050505050565b836124af576000856123b1576040516370a0823160e01b81526001600160a01b038981166004830152670de0b6b3a764000091908416906370a082319060240160206040518083038186803b15801561236857600080fd5b505afa15801561237c573d6000803e3d6000fd5b505050506040513d601f19601f820116820180604052508101906123a0919061292a565b6123aa9190612d17565b9050612303565b8560011415612434576040516370a0823160e01b81526001600160a01b0389811660048301528316906370a08231906024015b60206040518083038186803b1580156123fc57600080fd5b505afa158015612410573d6000803e3d6000fd5b505050506040513d601f19601f820116820180604052508101906123aa919061292a565b856002141561247057604051627eeac760e11b81526001600160a01b0389811660048301526024820185905283169062fdd58e906044016123e4565b8560031415612126576040516329b6517360e21b81526001600160a01b038a81166004830152898116602483015285169063a6d945cc906044016123e4565b60009550505050505061015b565b6000677fffffffffffffff8211156124d457600080fd5b5060401b90565b60008082600f0b136124ec57600080fd5b6000600f83900b68010000000000000000811261250b576040918201911d5b640100000000811261251f576020918201911d5b620100008112612531576010918201911d5b6101008112612542576008918201911d5b60108112612552576004918201911d5b60048112612562576002918201911d5b60028112612571576001820191505b7fffffffffffffffffffffffffffffffffffffffffffffffffffffffffffffffc0820160401b600f85900b607f8490031b6780000000000000005b6000811315611bd65790800260ff81901c8281029390930192607f011c9060011d6125ac565b60008082600f0b12156125e457600080fd5b50600f0b60401d90565b8280546125fa90612d6e565b90600052602060002090601f01602090048101928261261c5760008555612662565b82601f1061263557805160ff1916838001178555612662565b82800160010185558215612662579182015b82811115612662578251825591602001919060010190612647565b5061266e929150612672565b5090565b5b8082111561266e5760008155600101612673565b805161269281612e68565b919050565b6000602082840312156126a8578081fd5b8135610ca781612e68565b6000602082840312156126c4578081fd5b8151610ca781612e68565b600080604083850312156126e1578081fd5b82356126ec81612e68565b946020939093013593505050565b6000602080838503121561270c578182fd5b825167ffffffffffffffff80821115612723578384fd5b818501915085601f830112612736578384fd5b81518181111561274857612748612e52565b8060051b604051601f19603f8301168101818110858211171561276d5761276d612e52565b604052828152858101935084860182860187018a101561278b578788fd5b8795505b838610156127b4576127a081612687565b85526001959095019493860193860161278f565b5098975050505050505050565b6000602082840312156127d2578081fd5b8135610ca781612e80565b6000602082840312156127ee578081fd5b8151610ca781612e80565b6000806040838503121561280b578182fd5b825161281681612e80565b6020939093015192949293505050565b600060208284031215612837578081fd5b5035919050565b60008060408385031215612850578182fd5b823561285b81612e68565b9150602083013561286b81612e68565b809150509250929050565b600080604083850312156126e1578182fd5b60008060006060848603121561289c578081fd5b8351600681106128aa578182fd5b602085015160409095015190969495509392505050565b6000602082840312156128d2578081fd5b813567ffffffffffffffff8111156128e8578182fd5b82016101008185031215610ca7578182fd5b60006020828403121561290b578081fd5b81516fffffffffffffffffffffffffffffffff81168114610ca7578182fd5b60006020828403121561293b578081fd5b5051919050565b600060208284031215612953578081fd5b813560ff81168114610ca7578182fd5b6000815180845260208085019450808401835b8381101561299b5781516001600160a01b031687529582019590820190600101612976565b509495945050505050565b600081518084526129be816020860160208601612d42565b601f01601f19169290920160200192915050565b7fffffffffffffffff000000000000000000000000000000000000000000000000831681527f476f7665726e6f72204d656d6265727368697020230000000000000000000000600882015260008251612a3281601d850160208701612d42565b91909101601d019392505050565b6001600160a01b0384168152602081018390526060810160078310612a6757612a67612e3c565b826040830152949350505050565b602081526000610ca76020830184612963565b60006101208b15158352806020840152612aa48184018c6129a6565b91505060ff891660408301528760608301526001600160a01b03871660808301528560a08301528460c08301528360e083015260048310612ae757612ae7612e3c565b826101008301529a9950505050505050505050565b60006101006001600160a01b038b16835260208a151581850152816040850152828a54848160011c90506001821680612b3657607f821691505b848210811415612b5457634e487b7160e01b87526022600452602487fd5b94870181815260200194808015612b725760018114612b8357612baf565b60ff19841687528587019450612baf565b60008f815260209020885b84811015612ba9578154898201526001909101908701612b8e565b88019550505b50505050896060860152612bce608086018a6001600160a01b03169052565b8760a0860152612be360c086018860ff169052565b84810360e0860152612bf58187612963565b9d9c50505050505050505050505050565b6001600160a01b0384168152826020820152606060408201526000612c2e60608301846129a6565b95945050505050565b6000808335601e19843603018112612c4d578283fd5b83018035915067ffffffffffffffff821115612c67578283fd5b6020019150600581901b3603821315612c7f57600080fd5b9250929050565b6000808335601e19843603018112612c9c578182fd5b83018035915067ffffffffffffffff821115612cb6578283fd5b602001915036819003821315612c7f57600080fd5b60006fffffffffffffffffffffffffffffffff808316818516808303821115612cf657612cf6612e10565b01949350505050565b60008219821115612d1257612d12612e10565b500190565b600082612d2657612d26612e26565b500490565b600082821015612d3d57612d3d612e10565b500390565b60005b83811015612d5d578181015183820152602001612d45565b83811115610abb5750506000910152565b600181811c90821680612d8257607f821691505b60208210811415610fda57634e487b7160e01b600052602260045260246000fd5b60007fffffffffffffffffffffffffffffffffffffffffffffffffffffffffffffffff821415612dd557612dd5612e10565b5060010190565b600060ff821660ff811415612df357612df3612e10565b60010192915050565b600082612e0b57612e0b612e26565b500690565b634e487b7160e01b600052601160045260246000fd5b634e487b7160e01b600052601260045260246000fd5b634e487b7160e01b600052602160045260246000fd5b634e487b7160e01b600052604160045260246000fd5b6001600160a01b0381168114612e7d57600080fd5b50565b8015158114612e7d57600080fdfea26469706673582212206b0f00dae3414c9fb221deaacd96103445693cfa8f389adf13513c44207dc8b964736f6c63430008040033",
  "linkReferences": {},
  "deployedLinkReferences": {}
}