{
  "_format": "hh-sol-artifact-1",
  "contractName": "FlexDaoSetInvestorCapAdapterContract",
  "sourceName": "contracts/flex/adatpers/FlexDaoSetInvestorCapAdapter.sol",
  "abi": [
    {
      "inputs": [],
      "name": "VOTING_NOT_FINISH",
      "type": "error"
    },
    {
      "anonymous": false,
      "inputs": [
        {
          "indexed": false,
          "internalType": "address",
          "name": "daoAddr",
          "type": "address"
        },
        {
          "indexed": false,
          "internalType": "bytes32",
          "name": "proposalId",
          "type": "bytes32"
        },
        {
          "indexed": false,
          "internalType": "enum FlexDaosetLibrary.ProposalType",
          "name": "pType",
          "type": "uint8"
        }
      ],
      "name": "ProposalCreated",
      "type": "event"
    },
    {
      "anonymous": false,
      "inputs": [
        {
          "indexed": false,
          "internalType": "address",
          "name": "daoAddr",
          "type": "address"
        },
        {
          "indexed": false,
          "internalType": "bytes32",
          "name": "proposalId",
          "type": "bytes32"
        },
        {
          "indexed": false,
          "internalType": "uint256",
          "name": "voteResult",
          "type": "uint256"
        },
        {
          "indexed": false,
          "internalType": "uint128",
          "name": "allVotingWeight",
          "type": "uint128"
        },
        {
          "indexed": false,
          "internalType": "uint256",
          "name": "nbYes",
          "type": "uint256"
        },
        {
          "indexed": false,
          "internalType": "uint256",
          "name": "nbNo",
          "type": "uint256"
        }
      ],
      "name": "ProposalProcessed",
      "type": "event"
    },
    {
      "inputs": [
        {
          "internalType": "address",
          "name": "",
          "type": "address"
        },
        {
          "internalType": "bytes32",
          "name": "",
          "type": "bytes32"
        }
      ],
      "name": "investorCapProposals",
      "outputs": [
        {
          "internalType": "bool",
          "name": "enable",
          "type": "bool"
        },
        {
          "internalType": "uint256",
          "name": "cap",
          "type": "uint256"
        },
        {
          "internalType": "uint256",
          "name": "creationTime",
          "type": "uint256"
        },
        {
          "internalType": "uint256",
          "name": "stopVoteTime",
          "type": "uint256"
        },
        {
          "internalType": "enum FlexDaosetLibrary.ProposalState",
          "name": "state",
          "type": "uint8"
        }
      ],
      "stateMutability": "view",
      "type": "function"
    },
    {
      "inputs": [
        {
          "internalType": "contract DaoRegistry",
          "name": "dao",
          "type": "address"
        },
        {
          "internalType": "address",
          "name": "_addr",
          "type": "address"
        }
      ],
      "name": "isActiveMember",
      "outputs": [
        {
          "internalType": "bool",
          "name": "",
          "type": "bool"
        }
      ],
      "stateMutability": "view",
      "type": "function"
    },
    {
      "inputs": [
        {
          "internalType": "address",
          "name": "",
          "type": "address"
        }
      ],
      "name": "ongoingInvestorCapProposal",
      "outputs": [
        {
          "internalType": "bytes32",
          "name": "",
          "type": "bytes32"
        }
      ],
      "stateMutability": "view",
      "type": "function"
    },
    {
      "inputs": [
        {
          "internalType": "contract DaoRegistry",
          "name": "dao",
          "type": "address"
        },
        {
          "internalType": "bytes32",
          "name": "proposalId",
          "type": "bytes32"
        }
      ],
      "name": "processInvestorCapProposal",
      "outputs": [],
      "stateMutability": "nonpayable",
      "type": "function"
    },
    {
      "inputs": [
        {
          "internalType": "contract DaoRegistry",
          "name": "dao",
          "type": "address"
        },
        {
          "internalType": "bool",
          "name": "enable",
          "type": "bool"
        },
        {
          "internalType": "uint256",
          "name": "cap",
          "type": "uint256"
        }
      ],
      "name": "submitInvestorCapProposal",
      "outputs": [],
      "stateMutability": "nonpayable",
      "type": "function"
    }
  ],
  "bytecode": "0x608060405234801561001057600080fd5b506126c2806100206000396000f3fe608060405234801561001057600080fd5b50600436106100675760003560e01c80638ecf7720116100505780638ecf7720146100e6578063ae98454514610109578063f8ffc75b1461011c57600080fd5b8063034f82fe1461006c57806307dc8eb8146100d1575b600080fd5b6100b761007a36600461218c565b600160208181526000938452604080852090915291835291208054918101546002820154600383015460049093015460ff94851694929391921685565b6040516100c8959493929190612475565b60405180910390f35b6100e46100df36600461233f565b61014a565b005b6100f96100f43660046122c7565b61029f565b60405190151581526020016100c8565b6100e46101173660046122ff565b61033e565b61013c61012a36600461214d565b60006020819052908152604090205481565b6040519081526020016100c8565b81600061015682610918565b6001600160a01b038516600090815260016020908152604080832087845290915281209192506101868686610be3565b50909150600290508160058111156101ae57634e487b7160e01b600052602160045260246000fd5b14156101da576101be8683610e92565b6004820180546002919060ff19166001835b0217905550610274565b60038160058111156101fc57634e487b7160e01b600052602160045260246000fd5b14806102275750600181600581111561022557634e487b7160e01b600052602160045260246000fd5b145b15610242576004820180546003919060ff19166001836101d0565b6040517f70fc772800000000000000000000000000000000000000000000000000000000815260040160405180910390fd5b50506001600160a01b0384166000908152602081905260408120556102998282610fc4565b50505050565b6040517fa230c5240000000000000000000000000000000000000000000000000000000081526001600160a01b0382811660048301526000919084169063a230c5249060240160206040518083038186803b1580156102fd57600080fd5b505afa158015610311573d6000803e3d6000fd5b505050506040513d601f19601f82011682018060405250810190610335919061227e565b90505b92915050565b826103498133610fd3565b83600061035582610918565b6040516317ba7d8560e01b81527fff9379b98b93eb3bd1fac62fd2258a7955d70d2d5279c40064145b6c9646df3760048201529091506001600160a01b038716906317ba7d859060240160206040518083038186803b1580156103b757600080fd5b505afa1580156103cb573d6000803e3d6000fd5b505050506040513d601f19601f820116820180604052508101906103ef9190612170565b6040517f64d6d55a0000000000000000000000000000000000000000000000000000000081526001600160a01b03888116600483015291909116906364d6d55a9060240160206040518083038186803b15801561044b57600080fd5b505afa15801561045f573d6000803e3d6000fd5b505050506040513d601f19601f82011682018060405250810190610483919061227e565b6104d45760405162461bcd60e51b815260206004820152601060248201527f756e446f6e652050726f706f73616c730000000000000000000000000000000060448201526064015b60405180910390fd5b6040516317ba7d8560e01b81527fff9379b98b93eb3bd1fac62fd2258a7955d70d2d5279c40064145b6c9646df3760048201526001600160a01b038716906317ba7d859060240160206040518083038186803b15801561053357600080fd5b505afa158015610547573d6000803e3d6000fd5b505050506040513d601f19601f8201168201806040525081019061056b9190612170565b6040517f9a0242fc0000000000000000000000000000000000000000000000000000000081526001600160a01b0388811660048301529190911690639a0242fc9060240160206040518083038186803b1580156105c757600080fd5b505afa1580156105db573d6000803e3d6000fd5b505050506040513d601f19601f820116820180604052508101906105ff919061227e565b61064b5760405162461bcd60e51b815260206004820152601660248201527f756e446f6e652044616f7365742050726f706f73616c0000000000000000000060448201526064016104cb565b856001600160a01b0316631785092b6040518163ffffffff1660e01b8152600401600060405180830381600087803b15801561068657600080fd5b505af115801561069a573d6000803e3d6000fd5b5050505060006107458760c01b610720896001600160a01b0316633f8a3d496040518163ffffffff1660e01b815260040160206040518083038186803b1580156106e357600080fd5b505afa1580156106f7573d6000803e3d6000fd5b505050506040513d601f19601f8201168201806040525081019061071b91906123ba565b611029565b6040516020016107319291906123d2565b60405160208183030381529060405261117f565b90506040518060a001604052808715158152602001868152602001428152602001886001600160a01b0316639283ae3a7f9876c0f0505bfb2b1c38d3bbd25ba13159172cd0868972d76927723f5a9480fc6040518263ffffffff1660e01b81526004016107b491815260200190565b60206040518083038186803b1580156107cc57600080fd5b505afa1580156107e0573d6000803e3d6000fd5b505050506040513d601f19601f8201168201806040525081019061080491906123ba565b61080e9042612532565b8152602001600090526001600160a01b03881660009081526001602081815260408084208685528252928390208451815490151560ff19918216178255918501518184015592840151600284015560608401516003808501919091556080850151600485018054919490939190911691849081111561089d57634e487b7160e01b600052602160045260246000fd5b021790555050506001600160a01b03871660009081526020819052604090208190556108c9878261119b565b7fa65d0c07e3b0d876ee52e871c234a4b150b9bf17a08f356f5aeda8d6782cc31a878260006040516108fd93929190612440565b60405180910390a1506109108282610fc4565b505050505050565b6040805160808101825260008082526020820181905291810182905260608101919091525a81600001818152505043826001600160a01b031663b21634826040518163ffffffff1660e01b815260040160206040518083038186803b15801561098057600080fd5b505afa158015610994573d6000803e3d6000fd5b505050506040513d601f19601f820116820180604052508101906109b891906123ba565b1415610a065760405162461bcd60e51b815260206004820152601060248201527f7265656e7472616e63792067756172640000000000000000000000000000000060448201526064016104cb565b816001600160a01b03166310fdb0a26040518163ffffffff1660e01b8152600401600060405180830381600087803b158015610a4157600080fd5b505af1158015610a55573d6000803e3d6000fd5b50506040517f72c6838f0000000000000000000000000000000000000000000000000000000081527f1f2fd42ad6a6cacd573c4b212beb7a4e2499ad45d742a65337097f130e71daff6004820152600092506001600160a01b03851691506372c6838f9060240160206040518083038186803b158015610ad457600080fd5b505afa158015610ae8573d6000803e3d6000fd5b505050506040513d601f19601f82011682018060405250810190610b0c9190612170565b90506001600160a01b038116610b285760006020830152610bdd565b6001600160a01b038181166060840181905283516040517f43a8a3f1000000000000000000000000000000000000000000000000000000008152928616600484015260248301526000918291906343a8a3f190604401604080518083038186803b158015610b9557600080fd5b505afa158015610ba9573d6000803e3d6000fd5b505050506040513d601f19601f82011682018060405250810190610bcd919061229a565b9015156020860152604085015250505b50919050565b6000806000846001600160a01b03166330490e91856040518263ffffffff1660e01b8152600401610c1691815260200190565b600060405180830381600087803b158015610c3057600080fd5b505af1158015610c44573d6000803e3d6000fd5b50506040516317ba7d8560e01b81527f0d479c38716a0298633b1dbf1ce145a3fbd1d79ca4527de172afc3bad04a2ba76004820152600092506001600160a01b03881691506317ba7d859060240160206040518083038186803b158015610caa57600080fd5b505afa158015610cbe573d6000803e3d6000fd5b505050506040513d601f19601f82011682018060405250810190610ce29190612170565b90506001600160a01b038116610d3a5760405162461bcd60e51b815260206004820152600f60248201527f21766f74696e67436f6e7472616374000000000000000000000000000000000060448201526064016104cb565b6040517f76225e730000000000000000000000000000000000000000000000000000000081526001600160a01b0387811660048301526024820187905260009182918291908516906376225e7390604401606060405180830381600087803b158015610da557600080fd5b505af1158015610db9573d6000803e3d6000fd5b505050506040513d601f19601f82011682018060405250810190610ddd9190612351565b9250925092506000610def8a8a61137f565b90507f31079f5404bf31284c3985351ef8eff4247cd77140001bc77841d2ecc855cf688a8a866005811115610e3457634e487b7160e01b600052602160045260246000fd5b604080516001600160a01b0390941684526020840192909252908201526fffffffffffffffffffffffffffffffff831660608201526080810185905260a0810184905260c00160405180910390a15091955093509150509250925092565b6040516317ba7d8560e01b81527fff9379b98b93eb3bd1fac62fd2258a7955d70d2d5279c40064145b6c9646df3760048201526000906001600160a01b038416906317ba7d859060240160206040518083038186803b158015610ef457600080fd5b505afa158015610f08573d6000803e3d6000fd5b505050506040513d601f19601f82011682018060405250810190610f2c9190612170565b825460018401546040517f7249b22f0000000000000000000000000000000000000000000000000000000081526001600160a01b03878116600483015260ff909316151560248201526044810191909152919250821690637249b22f906064015b600060405180830381600087803b158015610fa757600080fd5b505af1158015610fbb573d6000803e3d6000fd5b50505050505050565b610fcf82823361163f565b5050565b610fdd828261029f565b610fcf5760405162461bcd60e51b815260206004820152600c60248201527f6f6e6c79476f7665726e6f72000000000000000000000000000000000000000060448201526064016104cb565b60608161106957505060408051808201909152600181527f3000000000000000000000000000000000000000000000000000000000000000602082015290565b8160005b8115611093578061107d816125a1565b915061108c9050600a8361254a565b915061106d565b60008167ffffffffffffffff8111156110bc57634e487b7160e01b600052604160045260246000fd5b6040519080825280601f01601f1916602001820160405280156110e6576020820181803683370190505b5090505b8415611177576110fb60018361255e565b9150611108600a866125fa565b611113906030612532565b60f81b81838151811061113657634e487b7160e01b600052603260045260246000fd5b60200101907effffffffffffffffffffffffffffffffffffffffffffffffffffffffffffff1916908160001a905350611170600a8661254a565b94506110ea565b949350505050565b600081516000141561119357506000919050565b506020015190565b6040517fb73dc389000000000000000000000000000000000000000000000000000000008152600481018290526001600160a01b0383169063b73dc38990602401600060405180830381600087803b1580156111f657600080fd5b505af115801561120a573d6000803e3d6000fd5b50506040516317ba7d8560e01b81527f0d479c38716a0298633b1dbf1ce145a3fbd1d79ca4527de172afc3bad04a2ba76004820152600092506001600160a01b03851691506317ba7d859060240160206040518083038186803b15801561127057600080fd5b505afa158015611284573d6000803e3d6000fd5b505050506040513d601f19601f820116820180604052508101906112a89190612170565b604080516020810182526000815290517f2b0974d00000000000000000000000000000000000000000000000000000000081529192506001600160a01b03831691632b0974d0916112ff91879187916004016124b4565b600060405180830381600087803b15801561131957600080fd5b505af115801561132d573d6000803e3d6000fd5b50506040517f815a2bf4000000000000000000000000000000000000000000000000000000008152600481018590526001600160a01b0384811660248301528616925063815a2bf49150604401610f8d565b60008061138b84611730565b6040516317ba7d8560e01b81527f0d479c38716a0298633b1dbf1ce145a3fbd1d79ca4527de172afc3bad04a2ba7600482015290915060009081906001600160a01b038716906317ba7d859060240160206040518083038186803b1580156113f257600080fd5b505afa158015611406573d6000803e3d6000fd5b505050506040513d601f19601f8201168201806040525081019061142a9190612170565b905060005b83518160ff16101561163457816001600160a01b03166324a2cceb8888878560ff168151811061146f57634e487b7160e01b600052603260045260246000fd5b60200260200101516040518463ffffffff1660e01b81526004016114b3939291906001600160a01b0393841681526020810192909252909116604082015260600190565b60206040518083038186803b1580156114cb57600080fd5b505afa1580156114df573d6000803e3d6000fd5b505050506040513d601f19601f82011682018060405250810190611503919061227e565b156115e157816001600160a01b03166391d2fd538888878560ff168151811061153c57634e487b7160e01b600052603260045260246000fd5b60200260200101516040518463ffffffff1660e01b8152600401611580939291906001600160a01b0393841681526020810192909252909116604082015260600190565b60206040518083038186803b15801561159857600080fd5b505afa1580156115ac573d6000803e3d6000fd5b505050506040513d601f19601f820116820180604052508101906115d0919061238a565b6115da90846124fe565b9250611622565b61161587858360ff168151811061160857634e487b7160e01b600052603260045260246000fd5b60200260200101516117a7565b61161f90846124fe565b92505b8061162c816125da565b91505061142f565b509095945050505050565b8160200151156116f55781606001516001600160a01b0316635e5eb01384835a865161166b919061255e565b60408088015190517fffffffff0000000000000000000000000000000000000000000000000000000060e087901b1681526001600160a01b03948516600482015293909216602484015260448301526064820152608401600060405180830381600087803b1580156116dc57600080fd5b505af11580156116f0573d6000803e3d6000fd5b505050505b826001600160a01b031663d4f7af436040518163ffffffff1660e01b8152600401600060405180830381600087803b158015610fa757600080fd5b6060816001600160a01b031663a6f636416040518163ffffffff1660e01b815260040160006040518083038186803b15801561176b57600080fd5b505afa15801561177f573d6000803e3d6000fd5b505050506040513d6000823e601f3d908101601f1916820160405261033891908101906121b7565b604051634941d71d60e11b81527f75b7d343967750d1f6c15979b7559cea8be22ff1a06a51681b9cbef0d2fff4fe600482015260009081906001600160a01b03851690639283ae3a9060240160206040518083038186803b15801561180b57600080fd5b505afa15801561181f573d6000803e3d6000fd5b505050506040513d601f19601f8201168201806040525081019061184391906123ba565b604051634941d71d60e11b81527f18ef0b57fe939edb640a200fdf533493bd8f26a274151543a109b64c857e20f360048201529091506000906001600160a01b03861690639283ae3a9060240160206040518083038186803b1580156118a857600080fd5b505afa1580156118bc573d6000803e3d6000fd5b505050506040513d601f19601f820116820180604052508101906118e091906123ba565b6040516317ba7d8560e01b81527f37cbe06c1044f98864ea25736326bc1d488e24e5e23781ea2ad64c4069cb9e6e60048201529091506000906001600160a01b038716906317ba7d859060240160206040518083038186803b15801561194557600080fd5b505afa158015611959573d6000803e3d6000fd5b505050506040513d601f19601f8201168201806040525081019061197d9190612170565b604051634941d71d60e11b81527f77b1580d1632c74a32483c26a7156260a89ae4138b020ea7d09b0dcf24f1ea2460048201529091506000906001600160a01b03881690639283ae3a9060240160206040518083038186803b1580156119e257600080fd5b505afa1580156119f6573d6000803e3d6000fd5b505050506040513d601f19601f82011682018060405250810190611a1a91906123ba565b6040517ffd310d290000000000000000000000000000000000000000000000000000000081527fb5a1ad3f04728d7c38547e3d43006a1ec090a02fce04bbb1d0ee4519a1921e5760048201529091506000906001600160a01b0389169063fd310d299060240160206040518083038186803b158015611a9857600080fd5b505afa158015611aac573d6000803e3d6000fd5b505050506040513d601f19601f82011682018060405250810190611ad09190612170565b90508360011415611ced57600085611b77576040516370a0823160e01b81526001600160a01b038981166004830152670de0b6b3a764000091908416906370a082319060240160206040518083038186803b158015611b2e57600080fd5b505afa158015611b42573d6000803e3d6000fd5b505050506040513d601f19601f82011682018060405250810190611b6691906123ba565b611b70919061254a565b9050611c84565b8560011415611bfa576040516370a0823160e01b81526001600160a01b0389811660048301528316906370a08231906024015b60206040518083038186803b158015611bc257600080fd5b505afa158015611bd6573d6000803e3d6000fd5b505050506040513d601f19601f82011682018060405250810190611b7091906123ba565b8560021415611c3657604051627eeac760e11b81526001600160a01b0389811660048301526024820185905283169062fdd58e90604401611baa565b8560031415611c75576040516329b6517360e21b81526001600160a01b038a81166004830152898116602483015285169063a6d945cc90604401611baa565b60009650505050505050610338565b60008111611c9b5760009650505050505050610338565b677fffffffffffffff8110611cb95760329650505050505050610338565b6000611cd4611ccf611cca8461200c565b61202a565b612121565b67ffffffffffffffff1697506103389650505050505050565b8360021415611e5f57600085611d94576040516370a0823160e01b81526001600160a01b038981166004830152600091908416906370a08231906024015b60206040518083038186803b158015611d4357600080fd5b505afa158015611d57573d6000803e3d6000fd5b505050506040513d601f19601f82011682018060405250810190611d7b91906123ba565b11611d87576000611d8a565b60015b60ff169050611e52565b8560011415611dcf576040516370a0823160e01b81526001600160a01b038981166004830152600091908416906370a0823190602401611d2b565b8560021415611e0f57604051627eeac760e11b81526001600160a01b038981166004830152602482018590526000919084169062fdd58e90604401611d2b565b8560031415611c75576040516329b6517360e21b81526001600160a01b038a8116600483015289811660248301526000919086169063a6d945cc90604401611d2b565b9550610338945050505050565b83611ffe57600085611f00576040516370a0823160e01b81526001600160a01b038981166004830152670de0b6b3a764000091908416906370a082319060240160206040518083038186803b158015611eb757600080fd5b505afa158015611ecb573d6000803e3d6000fd5b505050506040513d601f19601f82011682018060405250810190611eef91906123ba565b611ef9919061254a565b9050611e52565b8560011415611f83576040516370a0823160e01b81526001600160a01b0389811660048301528316906370a08231906024015b60206040518083038186803b158015611f4b57600080fd5b505afa158015611f5f573d6000803e3d6000fd5b505050506040513d601f19601f82011682018060405250810190611ef991906123ba565b8560021415611fbf57604051627eeac760e11b81526001600160a01b0389811660048301526024820185905283169062fdd58e90604401611f33565b8560031415611c75576040516329b6517360e21b81526001600160a01b038a81166004830152898116602483015285169063a6d945cc90604401611f33565b600095505050505050610338565b6000677fffffffffffffff82111561202357600080fd5b5060401b90565b60008082600f0b1361203b57600080fd5b6000600f83900b68010000000000000000811261205a576040918201911d5b640100000000811261206e576020918201911d5b620100008112612080576010918201911d5b6101008112612091576008918201911d5b601081126120a1576004918201911d5b600481126120b1576002918201911d5b600281126120c0576001820191505b7fffffffffffffffffffffffffffffffffffffffffffffffffffffffffffffffc0820160401b600f85900b607f8490031b6780000000000000005b60008113156116345790800260ff81901c8281029390930192607f011c9060011d6120fb565b60008082600f0b121561213357600080fd5b50600f0b60401d90565b805161214881612666565b919050565b60006020828403121561215e578081fd5b813561216981612666565b9392505050565b600060208284031215612181578081fd5b815161216981612666565b6000806040838503121561219e578081fd5b82356121a981612666565b946020939093013593505050565b600060208083850312156121c9578182fd5b825167ffffffffffffffff808211156121e0578384fd5b818501915085601f8301126121f3578384fd5b81518181111561220557612205612650565b8060051b604051601f19603f8301168101818110858211171561222a5761222a612650565b604052828152858101935084860182860187018a1015612248578788fd5b8795505b838610156122715761225d8161213d565b85526001959095019493860193860161224c565b5098975050505050505050565b60006020828403121561228f578081fd5b81516121698161267e565b600080604083850312156122ac578182fd5b82516122b78161267e565b6020939093015192949293505050565b600080604083850312156122d9578182fd5b82356122e481612666565b915060208301356122f481612666565b809150509250929050565b600080600060608486031215612313578081fd5b833561231e81612666565b9250602084013561232e8161267e565b929592945050506040919091013590565b6000806040838503121561219e578182fd5b600080600060608486031215612365578283fd5b835160068110612373578384fd5b602085015160409095015190969495509392505050565b60006020828403121561239b578081fd5b81516fffffffffffffffffffffffffffffffff81168114612169578182fd5b6000602082840312156123cb578081fd5b5051919050565b7fffffffffffffffff000000000000000000000000000000000000000000000000831681527f496e7673746f7220436170202300000000000000000000000000000000000000600882015260008251612432816015850160208701612575565b919091016015019392505050565b6001600160a01b03841681526020810183905260608101600783106124675761246761263a565b826040830152949350505050565b600060a0820190508615158252856020830152846040830152836060830152600483106124a4576124a461263a565b8260808301529695505050505050565b6001600160a01b038416815282602082015260606040820152600082518060608401526124e8816080850160208701612575565b601f01601f191691909101608001949350505050565b60006fffffffffffffffffffffffffffffffff8083168185168083038211156125295761252961260e565b01949350505050565b600082198211156125455761254561260e565b500190565b60008261255957612559612624565b500490565b6000828210156125705761257061260e565b500390565b60005b83811015612590578181015183820152602001612578565b838111156102995750506000910152565b60007fffffffffffffffffffffffffffffffffffffffffffffffffffffffffffffffff8214156125d3576125d361260e565b5060010190565b600060ff821660ff8114156125f1576125f161260e565b60010192915050565b60008261260957612609612624565b500690565b634e487b7160e01b600052601160045260246000fd5b634e487b7160e01b600052601260045260246000fd5b634e487b7160e01b600052602160045260246000fd5b634e487b7160e01b600052604160045260246000fd5b6001600160a01b038116811461267b57600080fd5b50565b801515811461267b57600080fdfea2646970667358221220d58a95f0de45b433a7824fcee1d2d92694f98d861cb456cc69d20eae73498cc764736f6c63430008040033",
  "linkReferences": {},
  "deployedLinkReferences": {}
}