{
  "_format": "hh-sol-artifact-1",
  "contractName": "FlexVestingERC721Helper",
  "sourceName": "contracts/flex/adatpers/FlexVestingERC721Helper.sol",
  "abi": [
    {
      "inputs": [
        {
          "internalType": "uint256",
          "name": "tokenId",
          "type": "uint256"
        },
        {
          "internalType": "address",
          "name": "vestingNFTAddress",
          "type": "address"
        },
        {
          "internalType": "address",
          "name": "vestingContAdddr",
          "type": "address"
        }
      ],
      "name": "getSvg",
      "outputs": [
        {
          "internalType": "string",
          "name": "",
          "type": "string"
        }
      ],
      "stateMutability": "view",
      "type": "function"
    },
    {
      "inputs": [
        {
          "internalType": "uint256",
          "name": "_tokenId",
          "type": "uint256"
        },
        {
          "internalType": "address",
          "name": "vestAddress",
          "type": "address"
        },
        {
          "internalType": "address",
          "name": "vestingNFTAddress",
          "type": "address"
        }
      ],
      "name": "getTokenURI",
      "outputs": [
        {
          "internalType": "string",
          "name": "",
          "type": "string"
        }
      ],
      "stateMutability": "view",
      "type": "function"
    }
  ],
  "bytecode": "0x608060405234801561001057600080fd5b50614e03806100206000396000f3fe608060405234801561001057600080fd5b50600436106100365760003560e01c8063278b24251461003b578063989b81f814610064575b600080fd5b61004e610049366004612f69565b610077565b60405161005b9190614bd1565b60405180910390f35b61004e610072366004612f69565b61032c565b6040517f2c29e1960000000000000000000000000000000000000000000000000000000081526001600160a01b03838116600483015260248201859052606091839160009190831690632c29e1969060440160206040518083038186803b1580156100e157600080fd5b505afa1580156100f5573d6000803e3d6000fd5b505050506040513d601f19601f820116820180604052508101906101199190612f51565b9050600080836001600160a01b03166351def556846040518263ffffffff1660e01b815260040161014c91815260200190565b60006040518083038186803b15801561016457600080fd5b505afa158015610178573d6000803e3d6000fd5b505050506040513d6000823e601f3d908101601f191682016040526101a09190810190612e18565b97505096505050505050600080856001600160a01b0316637a4334e28a8c6040518363ffffffff1660e01b81526004016101ef9291906001600160a01b03929092168252602082015260400190565b60606040518083038186803b15801561020757600080fd5b505afa15801561021b573d6000803e3d6000fd5b505050506040513d601f19601f8201168201806040525081019061023f9190612faa565b925092505061031e83608001516001600160a01b03166395d89b416040518163ffffffff1660e01b815260040160006040518083038186803b15801561028457600080fd5b505afa158015610298573d6000803e3d6000fd5b505050506040513d6000823e601f3d908101601f191682016040526102c09190810190612f1e565b84608001516040518060a00160405280868152602001858152602001886060015163ffffffff168152602001886040015189600001516103009190614c4e565b63ffffffff168152602001886020015163ffffffff168152506106c2565b9a9950505050505050505050565b6040517f2c29e1960000000000000000000000000000000000000000000000000000000081526001600160a01b03828116600483015260248201859052606091849160009190831690632c29e1969060440160206040518083038186803b15801561039657600080fd5b505afa1580156103aa573d6000803e3d6000fd5b505050506040513d601f19601f820116820180604052508101906103ce9190612f51565b9050600080600080856001600160a01b03166351def556866040518263ffffffff1660e01b815260040161040491815260200190565b60006040518083038186803b15801561041c57600080fd5b505afa158015610430573d6000803e3d6000fd5b505050506040513d6000823e601f3d908101601f191682016040526104589190810190612e18565b975050965050505093509350600080876001600160a01b0316637a4334e28b8e6040518363ffffffff1660e01b81526004016104a99291906001600160a01b03929092168252602082015260400190565b60606040518083038186803b1580156104c157600080fd5b505afa1580156104d5573d6000803e3d6000fd5b505050506040513d601f19601f820116820180604052508101906104f99190612faa565b925092505061053d6040518060400160405280600681526020017f746f74616c5f0000000000000000000000000000000000000000000000000000815250826106d7565b6000610553876001600160a01b0316601461074e565b61055c876109e4565b610569608089901b6109e4565b6040517f307800000000000000000000000000000000000000000000000000000000000060208201526022810192909252604282015260620160408051601f19818403018152908290526105c09291602001613754565b60405160208183030381529060405290506106b1846020015185608001516001600160a01b03166395d89b416040518163ffffffff1660e01b815260040160006040518083038186803b15801561061657600080fd5b505afa15801561062a573d6000803e3d6000fd5b505050506040513d6000823e601f3d908101601f191682016040526106529190810190612f1e565b8387608001516040518060a001604052808b6060015163ffffffff1681526020018981526020018881526020018b604001518c600001516106939190614c4e565b63ffffffff1681526020018b6020015163ffffffff16815250610bcc565b9d9c50505050505050505050505050565b60606106cf848484610d96565b949350505050565b61074a82826040516024016106ed929190614beb565b60408051601f198184030181529190526020810180517bffffffffffffffffffffffffffffffffffffffffffffffffffffffff167fb60e72cc00000000000000000000000000000000000000000000000000000000179052610ea7565b5050565b6060600061075d836002614c8a565b610768906002614c36565b67ffffffffffffffff81111561078e57634e487b7160e01b600052604160045260246000fd5b6040519080825280601f01601f1916602001820160405280156107b8576020820181803683370190505b5090507f3000000000000000000000000000000000000000000000000000000000000000816000815181106107fd57634e487b7160e01b600052603260045260246000fd5b60200101907effffffffffffffffffffffffffffffffffffffffffffffffffffffffffffff1916908160001a9053507f78000000000000000000000000000000000000000000000000000000000000008160018151811061086e57634e487b7160e01b600052603260045260246000fd5b60200101907effffffffffffffffffffffffffffffffffffffffffffffffffffffffffffff1916908160001a90535060006108aa846002614c8a565b6108b5906001614c36565b90505b600181111561096e577f303132333435363738396162636465660000000000000000000000000000000085600f166010811061090457634e487b7160e01b600052603260045260246000fd5b1a60f81b82828151811061092857634e487b7160e01b600052603260045260246000fd5b60200101907effffffffffffffffffffffffffffffffffffffffffffffffffffffffffffff1916908160001a90535060049490941c9361096781614cf0565b90506108b8565b5083156109db576040517f08c379a000000000000000000000000000000000000000000000000000000000815260206004820181905260248201527f537472696e67733a20686578206c656e67746820696e73756666696369656e74604482015260640160405180910390fd5b90505b92915050565b7aff00000000000000ff00000000000000ff00000000000000ff00006bffffffff0000000000000000604083901c9081167bffffffff00000000000000000000000000000000000000000000000084161760201c6fffffffff000000000000000000000000919091167fffffffff0000000000000000000000000000000000000000000000000000000084161717601081901c9182167eff00000000000000ff00000000000000ff00000000000000ff000000000000821617600890811c7bff00000000000000ff00000000000000ff00000000000000ff000000939093167fff00000000000000ff00000000000000ff00000000000000ff000000000000009290921691909117919091179081901c7e0f000f000f000f000f000f000f000f000f000f000f000f000f000f000f000f167f0f000f000f000f000f000f000f000f000f000f000f000f000f000f000f000f00600492831c161790610b68827f0606060606060606060606060606060606060606060606060606060606060606614c36565b901c7f0f0f0f0f0f0f0f0f0f0f0f0f0f0f0f0f0f0f0f0f0f0f0f0f0f0f0f0f0f0f0f0f166007610b989190614c8a565b610bc2827f3030303030303030303030303030303030303030303030303030303030303030614c36565b6109de9190614c36565b60606000610cb986856040518060a0016040528087600160058110610c0157634e487b7160e01b600052603260045260246000fd5b6020020151815260200187600260058110610c2c57634e487b7160e01b600052603260045260246000fd5b6020020151815260200187600060058110610c5757634e487b7160e01b600052603260045260246000fd5b6020020151815260200187600360058110610c8257634e487b7160e01b600052603260045260246000fd5b6020020151815260200187600460058110610cad57634e487b7160e01b600052603260045260246000fd5b602002015190526106c2565b90506000610cc682610eb3565b604051602001610cd6919061301f565b6040516020818303038152906040529050600087604051602001610cfa91906133ba565b60408051808303601f190181529181526020870151908701518751606089015160808a0151949550600094610d36948e948d949193909261107e565b9050610d68828b8a8487604051602001610d549594939291906134c9565b604051602081830303815290604052610eb3565b604051602001610d7891906140d4565b60405160208183030381529060405294505050505095945050505050565b6060610da06110cd565b610daa8585611104565b8351610db7908790611179565b610dbf6111d8565b610e7b604051806080016040528088600360058110610dee57634e487b7160e01b600052603260045260246000fd5b6020020151815260200188600460058110610e1957634e487b7160e01b600052603260045260246000fd5b6020020151815260200188600260058110610e4457634e487b7160e01b600052603260045260246000fd5b6020020151815260200188600160058110610e6f57634e487b7160e01b600052603260045260246000fd5b602002015190526111e9565b604051602001610e8f9594939291906130e0565b60405160208183030381529060405290509392505050565b610eb081611357565b50565b6060815160001415610ed357505060408051602081019091526000815290565b6000604051806060016040528060408152602001614d8e6040913990506000600384516002610f029190614c36565b610f0c9190614c76565b610f17906004614c8a565b90506000610f26826020614c36565b67ffffffffffffffff811115610f4c57634e487b7160e01b600052604160045260246000fd5b6040519080825280601f01601f191660200182016040528015610f76576020820181803683370190505b509050818152600183018586518101602084015b81831015610fe45760039283018051603f601282901c811687015160f890811b8552600c83901c8216880151811b6001860152600683901c8216880151811b60028601529116860151901b93820193909352600401610f8a565b600389510660018114610ffe576002811461104857611070565b7f3d3d0000000000000000000000000000000000000000000000000000000000007ffffffffffffffffffffffffffffffffffffffffffffffffffffffffffffffffe830152611070565b7f3d000000000000000000000000000000000000000000000000000000000000006000198301525b509398975050505050505050565b606061108a8888611378565b61109487876113ac565b61109f8686866113d1565b6040516020016110b193929190613929565b6040516020818303038152906040529050979650505050505050565b60606110d76113f7565b6110df611583565b6040516020016110f0929190614ade565b604051602081830303815290604052905090565b6060600061111c836001600160a01b0316601461074e565b8460405160200161112e9291906133fb565b6040516020818303038152906040529050611147611737565b61115082611a4b565b6040516020016111619291906145ef565b60405160208183030381529060405291505092915050565b6060600061118683611a76565b905060008460405160200161119b9190613ca3565b604051602081830303815290604052905080826040516020016111bf929190614119565b6040516020818303038152906040529250505092915050565b60606040516020016110f09061469a565b606061123360405180610100016040528060608152602001606081526020016000815260200160008152602001600081526020016060815260200160608152602001606081525090565b825160208401516112449190612222565b8152606083015161125490611a76565b6020820152825161126490612335565b608084015260608301819052604083019190915261128190612354565b61128e8260800151612354565b61129b8360400151612354565b6040516020016112ad93929190613453565b60408051601f1981840301815291905260c08201526112d283600260200201516124a2565b60e08201526112df61267a565b6112ec8260200151612793565b6112f46127a6565b83516112ff90612899565b6113076128ac565b6113148660c0015161299f565b61131c6129b2565b6113298860e00151612acb565b60405160200161134098979695949392919061303b565b604051602081830303815290604052915050919050565b60006a636f6e736f6c652e6c6f679050600080835160208501845afa505050565b60608261138483612ade565b6040516020016113959291906139c5565b604051602081830303815290604052905092915050565b60606113b783611a76565b6113c083611a76565b604051602001611395929190613bbb565b60606113dd8383612222565b6113e6856124a2565b604051602001610e8f929190613ad3565b6040517f3c646566733e000000000000000000000000000000000000000000000000000060208201527f3c636c6970506174682069643d22636f726e657273223e3c726563742077696460268201527f74683d2232393022206865696768743d22353030222072783d2234322220727960468201527f3d22343222202f3e3c2f636c6970506174683e0000000000000000000000000060668201527f3c706174682069643d22746578742d706174682d612220643d224d343020313260798201527f204832353020413238203238203020302031203237382034302056343630204160998201527f323820323820302030203120323530203438382048343020413238203238203060b98201527f203020312031322034363020563430204132382032382030203020312034302060d98201527f3132207a22202f3e00000000000000000000000000000000000000000000000060f98201527f3c2f646566733e00000000000000000000000000000000000000000000000000610101820152606090610108016110f0565b6040517f3c6720636c69702d706174683d2275726c2823636f726e65727329223e00000060208201527f3c726563742066696c6c3d226261373937302220783d223070782220793d2230603d8201527f7078222077696474683d22323930707822206865696768743d22353030707822605d8201527f202f3e0000000000000000000000000000000000000000000000000000000000607d8201527f3c67207374796c653d2266696c7465723a75726c2823746f702d726567696f6e60808201527f2d626c7572293b207472616e73666f726d3a7363616c6528312e35293b20747260a08201527f616e73666f726d2d6f726967696e3a63656e74657220746f703b223e3c72656360c08201527f742066696c6c3d226e6f6e652220783d223070782220793d223070782220776960e08201527f6474683d22323930707822206865696768743d22353030707822202f3e203c2f6101008201527f673e0000000000000000000000000000000000000000000000000000000000006101208201527f3c2f673e00000000000000000000000000000000000000000000000000000000610122820152606090610126016110f0565b60606040516020016110f0907f3c74657874506174682073746172744f66667365743d222d313030252220666981527f6c6c3d2277686974652220666f6e742d66616d696c793d2227436f757269657260208201527f204e6577272c206d6f6e6f73706163652220666f6e742d73697a653d2231307060408201527f782220786c696e6b3a687265663d2223746578742d706174682d61223e44414f60608201527f53717561726520496e63756261746f722056656e747572652044414f2056657360808201527f74696e673c616e696d6174652061646469746976653d2273756d22206174747260a08201527f69627574654e616d653d2273746172744f6666736574222066726f6d3d22302560c08201527f2220746f3d22313030252220626567696e3d22307322206475723d223330732260e08201527f20726570656174436f756e743d22696e646566696e69746522202f3e3c2f74656101008201527f7874506174683e000000000000000000000000000000000000000000000000006101208201527f3c74657874506174682073746172744f66667365743d223025222066696c6c3d6101278201527f2277686974652220666f6e742d66616d696c793d2227436f7572696572204e656101478201527f77272c206d6f6e6f73706163652220666f6e742d73697a653d223130707822206101678201527f786c696e6b3a687265663d2223746578742d706174682d61223e44414f5371756101878201527f61726520496e63756261746f722056656e747572652044414f2056657374696e6101a78201527f673c616e696d6174652061646469746976653d2273756d2220617474726962756101c78201527f74654e616d653d2273746172744f6666736574222066726f6d3d2230252220746101e78201527f6f3d22313030252220626567696e3d22307322206475723d22333073222072656102078201527f70656174436f756e743d22696e646566696e69746522202f3e203c2f746578746102278201527f506174683e00000000000000000000000000000000000000000000000000000061024782015261024c0190565b60608182604051602001611a60929190613dec565b6040516020818303038152906040529050919050565b60606000806000806000683635c9adc5dea00000871015611c6a57611aa266038d7ea4c6800088614c76565b9450611ab1620186a086614c76565b9350611ac5670de0b6b3a764000088614c76565b9350600a60646103e8611ae067016345785d8a00008b614c76565b611aea9190614d22565b611af49190614d22565b611afe9190614d22565b9250600a60646103e8612710611b1b662386f26fc100008c614c76565b611b259190614d22565b611b2f9190614d22565b611b399190614d22565b611b439190614d22565b9150600a60646103e8612710620186a0611b6466038d7ea4c680008d614c76565b611b6e9190614d22565b611b789190614d22565b611b829190614d22565b611b8c9190614d22565b611b969190614d22565b905060058110611c3d576009821015611bbb57611bb4600183614c36565b9150611c3d565b600091506009831015611bda57611bd3600184614c36565b9250611c3d565b600092506103e78410611c2f576040517f312e30304b00000000000000000000000000000000000000000000000000000060208201526025015b60405160208183030381529060405295505050505050919050565b611c3a600185614c36565b93505b611c4684612354565b611c4f84612354565b611c5884612354565b604051602001611c1493929190613173565b683635c9adc5dea000008710158015611c8c575069d3c21bcecceda100000087105b15611e3b57611ca4683635c9adc5dea0000088614c76565b94506064611cb4866103e8614c8a565b611cc6670de0b6b3a76400008a614c76565b611cd09190614ca9565b611cda9190614c76565b9350600a611ce9856064614c8a565b611cf5876103e8614c8a565b611d07670de0b6b3a76400008b614c76565b611d119190614ca9565b611d1b9190614ca9565b611d259190614c76565b9250611d3283600a614c8a565b611d3d856064614c8a565b611d49876103e8614c8a565b611d5b670de0b6b3a76400008b614c76565b611d659190614ca9565b611d6f9190614ca9565b611d799190614ca9565b915060058210611e0e576009831015611d9e57611d97600184614c36565b9250611e0e565b600092506009841015611dbd57611db6600185614c36565b9350611e0e565b600093506103e7851015611ddd57611dd6600186614c36565b9450611e0e565b6040517f312e30304d0000000000000000000000000000000000000000000000000000006020820152602501611c14565b611e1785612354565b611e2085612354565b611e2985612354565b604051602001611c149392919061333d565b69d3c21bcecceda10000008710158015611e6057506b033b2e3c9fd0803ce800000087105b15611faf57611e77670de0b6b3a764000088614c76565b9450620f4240611e8f670de0b6b3a764000089614c76565b611e999190614c76565b9350620186a0611eac620f424087614d22565b611eb69190614c76565b9250612710611ec8620186a087614d22565b611ed29190614c76565b91506103e8611ee361271087614d22565b611eed9190614c76565b905060058110611f82576009821015611f1257611f0b600183614c36565b9150611f82565b600091506009831015611f3157611f2a600184614c36565b9250611f82565b600092506103e7841015611f5157611f4a600186614c36565b9450611f82565b6040517f312e3030420000000000000000000000000000000000000000000000000000006020820152602501611c14565b611f8b84612354565b611f9484612354565b611f9d84612354565b604051602001611c1493929190613243565b6b033b2e3c9fd0803ce80000008710158015611fd757506c0c9f2c9cd04674edea4000000087105b1561211a57611fee670de0b6b3a764000088614c76565b9450611ffe633b9aca0086614c76565b93506305f5e100612013633b9aca0087614d22565b61201d9190614c76565b9250629896806120316305f5e10087614d22565b61203b9190614c76565b9150620f424061204e6298968087614d22565b6120589190614c76565b9050600581106120ed57600982101561207d57612076600183614c36565b91506120ed565b60009150600983101561209c57612095600184614c36565b92506120ed565b600092506103e78410156120bc576120b5600185614c36565b93506120ed565b6040517f312e3030540000000000000000000000000000000000000000000000000000006020820152602501611c14565b6120f684612354565b6120ff84612354565b61210884612354565b604051602001611c14939291906131c6565b61212c670de0b6b3a764000088614c76565b945061213d64e8d4a5100086614c76565b935064174876e80061215464e8d4a5100087614d22565b61215e9190614c76565b92506402540be40061217564174876e80087614d22565b61217f9190614c76565b9150633b9aca006121956402540be40087614d22565b61219f9190614c76565b9050600581106121f55760098210156121c4576121bd600183614c36565b91506121f5565b6000915060098310156121e3576121dc600184614c36565b92506121f5565b600092506121f2600185614c36565b93505b6121fe84612354565b61220784612354565b61221084612354565b604051602001611c14939291906132c0565b606060008311801561223357508242105b1561227b576040517f4c6f636b7570000000000000000000000000000000000000000000000000000060208201526026015b60405160208183030381529060405290506109de565b824211801561228957508142105b156122bf576040517f52656c656173696e6700000000000000000000000000000000000000000000006020820152602901612265565b81421180156122ce5750600082115b15612304576040517f456e6400000000000000000000000000000000000000000000000000000000006020820152602301612265565b6040517f556e6b6e6f7700000000000000000000000000000000000000000000000000006020820152602601611395565b60008080612347620151808504612af4565b9196909550909350915050565b60608161239457505060408051808201909152600181527f3000000000000000000000000000000000000000000000000000000000000000602082015290565b8160005b81156123be57806123a881614d07565b91506123b79050600a83614c76565b9150612398565b60008167ffffffffffffffff8111156123e757634e487b7160e01b600052604160045260246000fd5b6040519080825280601f01601f191660200182016040528015612411576020820181803683370190505b5090505b84156106cf57612426600183614ca9565b9150612433600a86614d22565b61243e906030614c36565b60f81b81838151811061246157634e487b7160e01b600052603260045260246000fd5b60200101907effffffffffffffffffffffffffffffffffffffffffffffffffffffffffffff1916908160001a90535061249b600a86614c76565b9450612415565b606081610e1014156124df576040517f486f7572730000000000000000000000000000000000000000000000000000006020820152602501611a60565b8162015180141561251b576040517f44617973000000000000000000000000000000000000000000000000000000006020820152602401611a60565b8162093a801415612557576040517f5765656b730000000000000000000000000000000000000000000000000000006020820152602501611a60565b8162278d001415612593576040517f4d6f6e74687300000000000000000000000000000000000000000000000000006020820152602601611a60565b816301e1338014156125d0576040517f59656172730000000000000000000000000000000000000000000000000000006020820152602501611a60565b81603c141561260a576040517f4d696e75746573000000000000000000000000000000000000000000000000006020820152602701611a60565b8160011415612644576040517f5365636f6e6473000000000000000000000000000000000000000000000000006020820152602701611a60565b6040517f556e6b6e6f7700000000000000000000000000000000000000000000000000006020820152602601611a60565b919050565b60606040516020016110f0907f3c67206d61736b3d2275726c2823666164652d73796d626f6c29223e3c74657881527f742066696c6c3d2277686974652220786d6c3a73706163653d2270726573657260208201527f766522207374796c653d2277686974652d73706163653a207072652220666f6e60408201527f742d66616d696c793d22436f7572696572204e65772220666f6e742d73697a6560608201527f3d22313222206c65747465722d73706163696e673d2230656d223e3c7473706160808201527f6e20783d2233322220793d223338312e313933223e546f74616c3c2f7473706160a08201527f6e3e3c2f746578743e000000000000000000000000000000000000000000000060c082015260c90190565b606081604051602001611a609190613825565b60606040516020016110f0907f3c746578742066696c6c3d2277686974652220786d6c3a73706163653d22707281527f65736572766522207374796c653d2277686974652d73706163653a207072652260208201527f20666f6e742d66616d696c793d22436f7572696572204e65772220666f6e742d60408201527f73697a653d22313222206c65747465722d73706163696e673d2230656d223e3c60608201527f747370616e20783d223135342220793d223338312e313933223e53746174653c60808201527f2f747370616e3e3c2f746578743e00000000000000000000000000000000000060a082015260ae0190565b606081604051602001611a609190613ce8565b60606040516020016110f0907f3c746578742066696c6c3d2277686974652220786d6c3a73706163653d22707281527f65736572766522207374796c653d2277686974652d73706163653a207072652260208201527f20666f6e742d66616d696c793d22436f7572696572204e65772220666f6e742d60408201527f73697a653d22313222206c65747465722d73706163696e673d2230656d223e3c60608201527f747370616e20783d2233322220793d223433332e313933223e436c61696d205360808201527f746172743c2f747370616e3e3c2f746578743e0000000000000000000000000060a082015260b30190565b606081604051602001611a60919061451f565b60606040516020016110f0907f3c6720636c69702d706174683d2275726c2823636c6970315f31373331365f3381527f3937303429223e3c746578742066696c6c3d2277686974652220786d6c3a737060208201527f6163653d22707265736572766522207374796c653d2277686974652d7370616360408201527f653a207072652220666f6e742d66616d696c793d22436f7572696572204e657760608201527f2220666f6e742d73697a653d22313222206c65747465722d73706163696e673d60808201527f2230656d223e3c747370616e20783d223135342220793d223433332e3139332260a08201527f3e496e74657276616c3c2f747370616e3e3c2f746578743e000000000000000060c082015260d80190565b606081604051602001611a609190613650565b60606109de826001600160a01b0316601461074e565b60008080836226496581018262023ab1600483020590506004600362023ab18302010590910390600062164b09610fa0600185010205905060046105b58202058303601f019250600061098f8460500281612b5f57634e487b7160e01b600052601260045260246000fd5b0590506000605061098f83020585039050600b82057fffffffffffffffffffffffffffffffffffffffffffffffffffffffffffffffcf94909401606402929092018301996002600c90940290910392909201975095509350505050565b805161267581614d78565b600082601f830112612bd7578081fd5b815167ffffffffffffffff80821115612bf257612bf2614d62565b604051601f8301601f19908116603f01168101908282118183101715612c1a57612c1a614d62565b81604052838152866020858801011115612c32578485fd5b612c43846020830160208901614cc0565b9695505050505050565b600060808284031215612c5e578081fd5b6040516080810181811067ffffffffffffffff82111715612c8157612c81614d62565b604052905080612c9083612e04565b8152612c9e60208401612e04565b6020820152612caf60408401612e04565b6040820152612cc060608401612e04565b60608201525092915050565b600060a08284031215612cdd578081fd5b60405160a0810167ffffffffffffffff8282108183111715612d0157612d01614d62565b816040528293508451915080821115612d1957600080fd5b612d2586838701612bc7565b83526020850151915080821115612d3b57600080fd5b50612d4885828601612bc7565b6020830152506040830151612d5c81614d78565b6040820152612d6d60608401612bbc565b6060820152612d7e60808401612bbc565b60808201525092915050565b600060408284031215612d9b578081fd5b6040516040810181811067ffffffffffffffff82111715612dbe57612dbe614d62565b80604052508091508251612dd181614d78565b8152602092830151920191909152919050565b80516fffffffffffffffffffffffffffffffff8116811461267557600080fd5b805163ffffffff8116811461267557600080fd5b600080600080600080600080888a036101c0811215612e35578485fd5b8951612e4081614d78565b60208b01519099509750612e5660408b01612de4565b965060608a0151955060607fffffffffffffffffffffffffffffffffffffffffffffffffffffffffffffff8082011215612e8e578485fd5b50612e97614c0d565b612ea360808b01612e04565b8152612eb160a08b01612de4565b6020820152612ec260c08b01612de4565b60408201529350612ed68a60e08b01612c4d565b9250612ee68a6101608b01612d8a565b91506101a089015167ffffffffffffffff811115612f02578182fd5b612f0e8b828c01612ccc565b9150509295985092959890939650565b600060208284031215612f2f578081fd5b815167ffffffffffffffff811115612f45578182fd5b6106cf84828501612bc7565b600060208284031215612f62578081fd5b5051919050565b600080600060608486031215612f7d578283fd5b833592506020840135612f8f81614d78565b91506040840135612f9f81614d78565b809150509250925092565b600080600060608486031215612fbe578283fd5b8351925060208401519150604084015190509250925092565b60008151808452612fef816020860160208601614cc0565b601f01601f19169290920160200192915050565b60008151613015818560208601614cc0565b9290920192915050565b60008251613031818460208701614cc0565b9190910192915050565b60008951602061304e8285838f01614cc0565b8a51918401916130618184848f01614cc0565b8a519201916130738184848e01614cc0565b89519201916130858184848d01614cc0565b88519201916130978184848c01614cc0565b87519201916130a98184848b01614cc0565b86519201916130bb8184848a01614cc0565b85519201916130cd8184848901614cc0565b919091019b9a5050505050505050505050565b600086516130f2818460208b01614cc0565b865190830190613106818360208b01614cc0565b8651910190613119818360208a01614cc0565b855191019061312c818360208901614cc0565b845191019061313f818360208801614cc0565b7f3c2f7376673e00000000000000000000000000000000000000000000000000009101908152600601979650505050505050565b60008451613185818460208901614cc0565b601760f91b90830190815284516131a3816001840160208901614cc0565b84519101906131b9816001840160208801614cc0565b0160010195945050505050565b600084516131d8818460208901614cc0565b601760f91b90830190815284516131f6816001840160208901614cc0565b845191019061320c816001840160208801614cc0565b7f42000000000000000000000000000000000000000000000000000000000000006001929091019182015260020195945050505050565b60008451613255818460208901614cc0565b601760f91b9083019081528451613273816001840160208901614cc0565b8451910190613289816001840160208801614cc0565b7f4d000000000000000000000000000000000000000000000000000000000000006001929091019182015260020195945050505050565b600084516132d2818460208901614cc0565b601760f91b90830190815284516132f0816001840160208901614cc0565b8451910190613306816001840160208801614cc0565b7f54000000000000000000000000000000000000000000000000000000000000006001929091019182015260020195945050505050565b6000845161334f818460208901614cc0565b601760f91b908301908152845161336d816001840160208901614cc0565b8451910190613383816001840160208801614cc0565b7f4b000000000000000000000000000000000000000000000000000000000000006001929091019182015260020195945050505050565b600082516133cc818460208701614cc0565b7f2056657374696e67000000000000000000000000000000000000000000000000920191825250600801919050565b6000835161340d818460208801614cc0565b7f20e280a2200000000000000000000000000000000000000000000000000000009083019081528351613447816005840160208801614cc0565b01600501949350505050565b60008451613465818460208901614cc0565b80830190507f2f0000000000000000000000000000000000000000000000000000000000000080825285516134a1816001850160208a01614cc0565b600192019182015283516134bc816002840160208801614cc0565b0160020195945050505050565b7f7b226e616d65223a220000000000000000000000000000000000000000000000815260008651613501816009850160208b01614cc0565b7f222c20226465736372697074696f6e223a220000000000000000000000000000600991840191820152865161353e81601b840160208b01614cc0565b7f5c6e50726f706f73616c206c696e6b3a20000000000000000000000000000000601b9290910191820152855161357c81602c840160208a01614cc0565b7f222c202261747472696275746573223a20000000000000000000000000000000602c929091019182015284516135ba81603d840160208901614cc0565b7f2c2022696d616765223a20220000000000000000000000000000000000000000603d92909101918201527f646174613a696d6167652f7376672b786d6c3b6261736536342c000000000000604982015261364461361b6063830186613003565b7f227d000000000000000000000000000000000000000000000000000000000000815260020190565b98975050505050505050565b7f3c746578742066696c6c3d22233933373446462220786d6c3a73706163653d2281527f707265736572766522207374796c653d2277686974652d73706163653a20707260208201527f652220666f6e742d66616d696c793d22436f7572696572204e65772220666f6e60408201527f742d73697a653d22313222206c65747465722d73706163696e673d2230656d2260608201527f3e3c747370616e20783d223135342220793d223435312e313933223e0000000060808201526000825161372081609c850160208701614cc0565b7f3c2f747370616e3e3c2f746578743e3c2f673e3c2f673e000000000000000000609c93909101928301525060b301919050565b7f68747470733a2f2f67726170682e70686f656e69782e66692f76656e7475726581527f64616f732f666c65782f000000000000000000000000000000000000000000006020820152600083516137b281602a850160208801614cc0565b7f2f70726f706f73616c732f000000000000000000000000000000000000000000602a9184019182015283516137ef816035840160208801614cc0565b7f2f696e766573746d656e7400000000000000000000000000000000000000000060359290910191820152604001949350505050565b7f3c746578742066696c6c3d22233933373446462220786d6c3a73706163653d2281527f707265736572766522207374796c653d2277686974652d73706163653a20707260208201527f652220666f6e742d66616d696c793d22436f7572696572204e65772220666f6e60408201527f742d73697a653d22313222206c65747465722d73706163696e673d2230656d2260608201527f3e3c747370616e20783d2233322220793d223339392e313933223e00000000006080820152600082516138f581609b850160208701614cc0565b7f3c2f747370616e3e3c2f746578743e0000000000000000000000000000000000609b93909101928301525060aa01919050565b7f5b00000000000000000000000000000000000000000000000000000000000000815260008451613961816001850160208901614cc0565b845190830190613978816001840160208901614cc0565b845191019061398e816001840160208801614cc0565b7f5d000000000000000000000000000000000000000000000000000000000000006001929091019182015260020195945050505050565b607b60f81b81527f2274726169745f74797065223a2256657374696e6720546f6b656e2053796d6260018201527f6f6c222c2276616c7565223a2200000000000000000000000000000000000000602182015260008351613a2d81602e850160208801614cc0565b63227d2c7b60e01b602e918401918201527f2274726169745f74797065223a2256657374696e6720546f6b656e20436f6e7460328201527f72616374222c2276616c7565223a22000000000000000000000000000000000060528201528351613a9d816061840160208801614cc0565b7f227d2c000000000000000000000000000000000000000000000000000000000060619290910191820152606401949350505050565b607b60f81b81527f2274726169745f74797065223a225374617465222c2276616c7565223a220000600182015260008351613b1581601f850160208801614cc0565b63227d2c7b60e01b601f918401918201527f2274726169745f74797065223a22496e74657276616c222c2276616c7565223a60238201527f220000000000000000000000000000000000000000000000000000000000000060438201528351613b85816044840160208801614cc0565b7f227d00000000000000000000000000000000000000000000000000000000000060449290910191820152604601949350505050565b607b60f81b81527f2274726169745f74797065223a2252656d61696e696e67222c2276616c75652260018201527f3a22000000000000000000000000000000000000000000000000000000000000602182015260008351613c23816023850160208801614cc0565b63227d2c7b60e01b6023918401918201527f2274726169745f74797065223a22546f74616c222c2276616c7565223a22000060278201528351613c6d816045840160208801614cc0565b7f227d2c000000000000000000000000000000000000000000000000000000000060459290910191820152604801949350505050565b7f2400000000000000000000000000000000000000000000000000000000000000815260008251613cdb816001850160208701614cc0565b9190910160010192915050565b7f3c746578742066696c6c3d22233933373446462220786d6c3a73706163653d2281527f707265736572766522207374796c653d2277686974652d73706163653a20707260208201527f652220666f6e742d66616d696c793d22436f7572696572204e65772220666f6e60408201527f742d73697a653d22313222206c65747465722d73706163696e673d2230656d2260608201527f3e3c747370616e20783d223135342220793d223339392e313933223e00000000608082015260008251613db881609c850160208701614cc0565b7f3c2f747370616e3e3c2f746578743e0000000000000000000000000000000000609c93909101928301525060ab01919050565b7f3c74657874506174682073746172744f66667365743d22353025222066696c6c81527f3d2277686974652220666f6e742d66616d696c793d2227436f7572696572204e60208201527f6577272c206d6f6e6f73706163652220666f6e742d73697a653d22313070782260408201527f20786c696e6b3a687265663d2223746578742d706174682d61223e0000000000606082015260008351613e9681607b850160208801614cc0565b613f60607b828501017f3c616e696d6174652061646469746976653d2273756d2220617474726962757481527f654e616d653d2273746172744f6666736574222066726f6d3d2230252220746f60208201527f3d22313030252220626567696e3d22307322206475723d22333073222072657060408201527f656174436f756e743d22696e646566696e69746522202f3e3c2f74657874506160608201527f74683e0000000000000000000000000000000000000000000000000000000000608082015260830190565b90507f3c74657874506174682073746172744f66667365743d222d353025222066696c81527f6c3d2277686974652220666f6e742d66616d696c793d2227436f75726965722060208201527f4e6577272c206d6f6e6f73706163652220666f6e742d73697a653d223130707860408201527f2220786c696e6b3a687265663d2223746578742d706174682d61223e000000006060820152835161400a81607c840160208801614cc0565b612c43607c828401017f3c616e696d6174652061646469746976653d2273756d2220617474726962757481527f654e616d653d2273746172744f6666736574222066726f6d3d2230252220746f60208201527f3d22313030252220626567696e3d22307322206475723d22333073222072657060408201527f656174436f756e743d22696e646566696e69746522202f3e3c2f74657874506160608201527f74683e0000000000000000000000000000000000000000000000000000000000608082015260830190565b7f646174613a6170706c69636174696f6e2f6a736f6e3b6261736536342c00000081526000825161410c81601d850160208701614cc0565b91909101601d0192915050565b7f3c67206d61736b3d2275726c2823666164652d73796d626f6c29223e00000000815260007f3c746578742066696c6c3d2277686974652220786d6c3a73706163653d22707280601c8401527f65736572766522207374796c653d2277686974652d73706163653a207072652280603c8501527f20666f6e742d66616d696c793d2227436f7572696572204e6577272220666f6e80605c8601527f742d73697a653d2233362220666f6e742d7765696768743d22373022206c6574607c8601527f7465722d73706163696e673d2230656d223e3c747370616e20783d2233322220609c8601527f793d2236342e30383031223e000000000000000000000000000000000000000060bc86015286516142388160c8880160208b01614cc0565b80860190507f3c2f747370616e3e3c2f746578743e000000000000000000000000000000000060c88201528360d78201528260f7820152816101178201527f742d73697a653d2231362220666f6e742d7765696768743d22323022206c65746101378201527f7465722d73706163696e673d2230656d223e3c747370616e20783d22313239226101578201527f20793d2235382e37353738223e3c2f747370616e3e3c2f746578743e000000006101778201526136446144126143e96143e361019385017f3c746578742066696c6c3d22233933373446462220786d6c3a73706163653d2281527f707265736572766522207374796c653d2277686974652d73706163653a20707260208201527f652220666f6e742d66616d696c793d2227436f7572696572204e65772722206660408201527f6f6e742d73697a653d2233362220666f6e742d7765696768743d22333022206c60608201527f65747465722d73706163696e673d2230656d223e3c747370616e20783d22333260808201527f2220793d223130392e3038223e0000000000000000000000000000000000000060a082015260ad0190565b8a613003565b7f3c2f747370616e3e3c2f746578743e00000000000000000000000000000000008152600f0190565b7f3c746578742066696c6c3d2277686974652220786d6c3a73706163653d22707281527f65736572766522207374796c653d2277686974652d73706163653a207072652260208201527f20666f6e742d66616d696c793d2227436f7572696572204e6577272220666f6e60408201527f742d73697a653d2231362220666f6e742d7765696768743d22323022206c657460608201527f7465722d73706163696e673d2230656d223e3c747370616e20783d223332222060808201527f793d223133392e3038223e52656d61696e696e6720546f20426520436c61696d60a08201527f65643c2f747370616e3e3c2f746578743e3c2f673e000000000000000000000060c082015260d50190565b7f3c746578742066696c6c3d22233933373446462220786d6c3a73706163653d2281527f707265736572766522207374796c653d2277686974652d73706163653a20707260208201527f652220666f6e742d66616d696c793d22436f7572696572204e65772220666f6e60408201527f742d73697a653d22313222206c65747465722d73706163696e673d2230656d2260608201527f3e3c747370616e20783d2233322220793d223435312e313933223e00000000006080820152600082516138f581609b850160208701614cc0565b7f3c7465787420746578742d72656e646572696e673d226f7074696d697a65537081527f656564223e00000000000000000000000000000000000000000000000000000060208201526000835161464d816025850160208801614cc0565b835190830190614664816025840160208801614cc0565b7f3c2f746578743e0000000000000000000000000000000000000000000000000060259290910191820152602c01949350505050565b7f3c6c696e6561724772616469656e742069643d227061696e74335f6c696e656181527f725f31373331365f3339373034222078313d223635222079313d22313838222060208201527f78323d223135382e333939222079323d223237332e313634222067726164696560408201527f6e74556e6974733d227573657253706163654f6e557365223e3c73746f70207360608201527f746f702d636f6c6f723d2223393337344646222073746f702d6f70616369747960808201527f3d22302e33222f3e3c73746f70206f66667365743d2231222073746f702d636f60a08201527f6c6f723d2223393337344646222073746f702d6f7061636974793d2230222f3e60c08201527f3c2f6c696e6561724772616469656e743e00000000000000000000000000000060e08201527f3c7265637420783d2231362220793d223136222077696474683d22323538222060f18201527f6865696768743d22343638222072783d223236222072793d223236222066696c6101118201527f6c3d227267626128302c302c302c302922207374726f6b653d227267626128326101318201527f35352c3235352c3235352c302e3229222f3e00000000000000000000000000006101518201527f3c6d61736b2069643d22706174682d31342d696e736964652d315f31373331366101638201527f5f3339373034222066696c6c3d227768697465223e3c7061746820643d224d366101838201527f35203138384832323556333136483635563138385a222f3e3c2f6d61736b3e006101a38201527f3c7061746820643d224d3635203138384832323556333136483635563138385a6101c28201527f222066696c6c3d2275726c28237061696e74335f6c696e6561725f31373331366101e28201527f5f333937303429222f3e000000000000000000000000000000000000000000006102028201527f3c7061746820643d224d36352031383856313837483634563138384836355a4d61020c8201527f3635203138394832323556313837483635563138395a4d36362033313656313861022c8201527f38483634563331364836365a222066696c6c3d222339333734464622206d617361024c8201527f6b3d2275726c2823706174682d31342d696e736964652d315f31373331365f3361026c8201527f3937303429222f3e00000000000000000000000000000000000000000000000061028c8201527f3c7061746820643d224d3932203139324339342e3230393120313932203936206102948201527f3139302e32303920393620313838433936203138352e3739312039342e3230396102b48201527f3120313834203932203138344338392e3739303920313834203838203138352e6102d48201527f37393120383820313838433838203139302e3230392038392e373930392031396102f48201527f32203932203139325a222066696c6c3d2223393337344646222f3e0000000000610314820152600061032f82016109de565b7f3c7376672077696474683d2232393022206865696768743d223530302220766981527f6577426f783d2230203020323930203530302220786d6c6e733d22687474703a60208201527f2f2f7777772e77332e6f72672f323030302f7376672220786d6c6e733a786c6960408201527f6e6b3d22687474703a2f2f7777772e77332e6f72672f313939392f786c696e6b60608201527f223e000000000000000000000000000000000000000000000000000000000000608082015260008351614bae816082850160208801614cc0565b835190830190614bc5816082840160208801614cc0565b01608201949350505050565b602081526000614be46020830184612fd7565b9392505050565b604081526000614bfe6040830185612fd7565b90508260208301529392505050565b6040516060810167ffffffffffffffff81118282101715614c3057614c30614d62565b60405290565b60008219821115614c4957614c49614d36565b500190565b600063ffffffff808316818516808303821115614c6d57614c6d614d36565b01949350505050565b600082614c8557614c85614d4c565b500490565b6000816000190483118215151615614ca457614ca4614d36565b500290565b600082821015614cbb57614cbb614d36565b500390565b60005b83811015614cdb578181015183820152602001614cc3565b83811115614cea576000848401525b50505050565b600081614cff57614cff614d36565b506000190190565b6000600019821415614d1b57614d1b614d36565b5060010190565b600082614d3157614d31614d4c565b500690565b634e487b7160e01b600052601160045260246000fd5b634e487b7160e01b600052601260045260246000fd5b634e487b7160e01b600052604160045260246000fd5b6001600160a01b0381168114610eb057600080fdfe4142434445464748494a4b4c4d4e4f505152535455565758595a6162636465666768696a6b6c6d6e6f707172737475767778797a303132333435363738392b2fa2646970667358221220cd7bb5352c1ab4cb7a6355670100251818b0cba2c6e81bdbc354f4137c02b8ea64736f6c63430008040033",
  "linkReferences": {},
  "deployedLinkReferences": {}
}