{
  "_format": "hh-sol-artifact-1",
  "contractName": "VintageInvestmentReceiptERC721",
  "sourceName": "contracts/vintage/adapters/VintageInvestmentReceiptERC721.sol",
  "abi": [
    {
      "inputs": [
        {
          "internalType": "string",
          "name": "name",
          "type": "string"
        },
        {
          "internalType": "string",
          "name": "symbol",
          "type": "string"
        },
        {
          "internalType": "address",
          "name": "_investmentContrAddress",
          "type": "address"
        },
        {
          "internalType": "address",
          "name": "_ercHelperContrAddress",
          "type": "address"
        }
      ],
      "stateMutability": "nonpayable",
      "type": "constructor"
    },
    {
      "anonymous": false,
      "inputs": [
        {
          "indexed": true,
          "internalType": "address",
          "name": "owner",
          "type": "address"
        },
        {
          "indexed": true,
          "internalType": "address",
          "name": "spender",
          "type": "address"
        },
        {
          "indexed": true,
          "internalType": "uint256",
          "name": "id",
          "type": "uint256"
        }
      ],
      "name": "Approval",
      "type": "event"
    },
    {
      "anonymous": false,
      "inputs": [
        {
          "indexed": true,
          "internalType": "address",
          "name": "owner",
          "type": "address"
        },
        {
          "indexed": true,
          "internalType": "address",
          "name": "operator",
          "type": "address"
        },
        {
          "indexed": false,
          "internalType": "bool",
          "name": "approved",
          "type": "bool"
        }
      ],
      "name": "ApprovalForAll",
      "type": "event"
    },
    {
      "anonymous": false,
      "inputs": [
        {
          "indexed": true,
          "internalType": "address",
          "name": "from",
          "type": "address"
        },
        {
          "indexed": true,
          "internalType": "address",
          "name": "to",
          "type": "address"
        },
        {
          "indexed": true,
          "internalType": "uint256",
          "name": "id",
          "type": "uint256"
        }
      ],
      "name": "Transfer",
      "type": "event"
    },
    {
      "inputs": [],
      "name": "_owner",
      "outputs": [
        {
          "internalType": "address",
          "name": "",
          "type": "address"
        }
      ],
      "stateMutability": "view",
      "type": "function"
    },
    {
      "inputs": [
        {
          "internalType": "address",
          "name": "spender",
          "type": "address"
        },
        {
          "internalType": "uint256",
          "name": "id",
          "type": "uint256"
        }
      ],
      "name": "approve",
      "outputs": [],
      "stateMutability": "nonpayable",
      "type": "function"
    },
    {
      "inputs": [
        {
          "internalType": "address",
          "name": "owner",
          "type": "address"
        }
      ],
      "name": "balanceOf",
      "outputs": [
        {
          "internalType": "uint256",
          "name": "",
          "type": "uint256"
        }
      ],
      "stateMutability": "view",
      "type": "function"
    },
    {
      "inputs": [],
      "name": "contractURI",
      "outputs": [
        {
          "internalType": "string",
          "name": "",
          "type": "string"
        }
      ],
      "stateMutability": "pure",
      "type": "function"
    },
    {
      "inputs": [],
      "name": "ercHelperContrAddress",
      "outputs": [
        {
          "internalType": "address",
          "name": "",
          "type": "address"
        }
      ],
      "stateMutability": "view",
      "type": "function"
    },
    {
      "inputs": [
        {
          "internalType": "uint256",
          "name": "",
          "type": "uint256"
        }
      ],
      "name": "getApproved",
      "outputs": [
        {
          "internalType": "address",
          "name": "",
          "type": "address"
        }
      ],
      "stateMutability": "view",
      "type": "function"
    },
    {
      "inputs": [],
      "name": "investmentContrAddress",
      "outputs": [
        {
          "internalType": "address",
          "name": "",
          "type": "address"
        }
      ],
      "stateMutability": "view",
      "type": "function"
    },
    {
      "inputs": [
        {
          "internalType": "bytes32",
          "name": "",
          "type": "bytes32"
        },
        {
          "internalType": "address",
          "name": "",
          "type": "address"
        }
      ],
      "name": "investmentIdToTokenId",
      "outputs": [
        {
          "internalType": "uint256",
          "name": "",
          "type": "uint256"
        }
      ],
      "stateMutability": "view",
      "type": "function"
    },
    {
      "inputs": [
        {
          "internalType": "address",
          "name": "",
          "type": "address"
        },
        {
          "internalType": "address",
          "name": "",
          "type": "address"
        }
      ],
      "name": "isApprovedForAll",
      "outputs": [
        {
          "internalType": "bool",
          "name": "",
          "type": "bool"
        }
      ],
      "stateMutability": "view",
      "type": "function"
    },
    {
      "inputs": [],
      "name": "maxTotalSupply",
      "outputs": [
        {
          "internalType": "uint256",
          "name": "",
          "type": "uint256"
        }
      ],
      "stateMutability": "view",
      "type": "function"
    },
    {
      "inputs": [],
      "name": "name",
      "outputs": [
        {
          "internalType": "string",
          "name": "",
          "type": "string"
        }
      ],
      "stateMutability": "view",
      "type": "function"
    },
    {
      "inputs": [
        {
          "internalType": "uint256",
          "name": "id",
          "type": "uint256"
        }
      ],
      "name": "ownerOf",
      "outputs": [
        {
          "internalType": "address",
          "name": "owner",
          "type": "address"
        }
      ],
      "stateMutability": "view",
      "type": "function"
    },
    {
      "inputs": [
        {
          "internalType": "address",
          "name": "daoAddr",
          "type": "address"
        },
        {
          "internalType": "bytes32",
          "name": "investmentProposalId",
          "type": "bytes32"
        },
        {
          "internalType": "string",
          "name": "executedTxHash",
          "type": "string"
        },
        {
          "internalType": "string",
          "name": "projectName",
          "type": "string"
        },
        {
          "internalType": "string",
          "name": "description",
          "type": "string"
        }
      ],
      "name": "safeMint",
      "outputs": [
        {
          "internalType": "uint256",
          "name": "id",
          "type": "uint256"
        }
      ],
      "stateMutability": "nonpayable",
      "type": "function"
    },
    {
      "inputs": [
        {
          "internalType": "address",
          "name": "from",
          "type": "address"
        },
        {
          "internalType": "address",
          "name": "to",
          "type": "address"
        },
        {
          "internalType": "uint256",
          "name": "id",
          "type": "uint256"
        }
      ],
      "name": "safeTransferFrom",
      "outputs": [],
      "stateMutability": "nonpayable",
      "type": "function"
    },
    {
      "inputs": [
        {
          "internalType": "address",
          "name": "from",
          "type": "address"
        },
        {
          "internalType": "address",
          "name": "to",
          "type": "address"
        },
        {
          "internalType": "uint256",
          "name": "id",
          "type": "uint256"
        },
        {
          "internalType": "bytes",
          "name": "data",
          "type": "bytes"
        }
      ],
      "name": "safeTransferFrom",
      "outputs": [],
      "stateMutability": "nonpayable",
      "type": "function"
    },
    {
      "inputs": [
        {
          "internalType": "address",
          "name": "operator",
          "type": "address"
        },
        {
          "internalType": "bool",
          "name": "approved",
          "type": "bool"
        }
      ],
      "name": "setApprovalForAll",
      "outputs": [],
      "stateMutability": "nonpayable",
      "type": "function"
    },
    {
      "inputs": [
        {
          "internalType": "bytes4",
          "name": "interfaceId",
          "type": "bytes4"
        }
      ],
      "name": "supportsInterface",
      "outputs": [
        {
          "internalType": "bool",
          "name": "",
          "type": "bool"
        }
      ],
      "stateMutability": "view",
      "type": "function"
    },
    {
      "inputs": [],
      "name": "symbol",
      "outputs": [
        {
          "internalType": "string",
          "name": "",
          "type": "string"
        }
      ],
      "stateMutability": "view",
      "type": "function"
    },
    {
      "inputs": [
        {
          "internalType": "uint256",
          "name": "",
          "type": "uint256"
        }
      ],
      "name": "tokenIdToInvestmentProposalInfo",
      "outputs": [
        {
          "internalType": "address",
          "name": "daoAddress",
          "type": "address"
        },
        {
          "internalType": "bytes32",
          "name": "investmentProposalId",
          "type": "bytes32"
        },
        {
          "internalType": "uint256",
          "name": "proposalExecutedBlockNum",
          "type": "uint256"
        },
        {
          "internalType": "string",
          "name": "executedTxHash",
          "type": "string"
        },
        {
          "internalType": "uint256",
          "name": "totalInvestedAmount",
          "type": "uint256"
        },
        {
          "internalType": "uint256",
          "name": "myInvestedAmount",
          "type": "uint256"
        },
        {
          "components": [
            {
              "internalType": "address",
              "name": "tokenAddress",
              "type": "address"
            },
            {
              "internalType": "string",
              "name": "tokenSymbol",
              "type": "string"
            },
            {
              "internalType": "string",
              "name": "tokenName",
              "type": "string"
            }
          ],
          "internalType": "struct VintageInvestmentReceiptERC721.ERC20Info",
          "name": "erc20",
          "type": "tuple"
        },
        {
          "internalType": "string",
          "name": "projectName",
          "type": "string"
        },
        {
          "internalType": "string",
          "name": "description",
          "type": "string"
        },
        {
          "internalType": "string",
          "name": "proposalLink",
          "type": "string"
        }
      ],
      "stateMutability": "view",
      "type": "function"
    },
    {
      "inputs": [
        {
          "internalType": "uint256",
          "name": "tokenId",
          "type": "uint256"
        }
      ],
      "name": "tokenURI",
      "outputs": [
        {
          "internalType": "string",
          "name": "",
          "type": "string"
        }
      ],
      "stateMutability": "view",
      "type": "function"
    },
    {
      "inputs": [],
      "name": "totalSupply",
      "outputs": [
        {
          "internalType": "uint256",
          "name": "",
          "type": "uint256"
        }
      ],
      "stateMutability": "view",
      "type": "function"
    },
    {
      "inputs": [
        {
          "internalType": "address",
          "name": "from",
          "type": "address"
        },
        {
          "internalType": "address",
          "name": "to",
          "type": "address"
        },
        {
          "internalType": "uint256",
          "name": "id",
          "type": "uint256"
        }
      ],
      "name": "transferFrom",
      "outputs": [],
      "stateMutability": "nonpayable",
      "type": "function"
    }
  ],
  "bytecode": "0x60806040523480156200001157600080fd5b50604051620036de380380620036de833981016040819052620000349162000220565b8351849084906200004d906000906020850190620000aa565b50805162000063906001906020840190620000aa565b5050600780546001600160a01b03199081163317909155600880546001600160a01b03958616908316179055600980549390941692169190911790915550620002ff915050565b828054620000b890620002ac565b90600052602060002090601f016020900481019282620000dc576000855562000127565b82601f10620000f757805160ff191683800117855562000127565b8280016001018555821562000127579182015b82811115620001275782518255916020019190600101906200010a565b506200013592915062000139565b5090565b5b808211156200013557600081556001016200013a565b80516001600160a01b03811681146200016857600080fd5b919050565b600082601f8301126200017e578081fd5b81516001600160401b03808211156200019b576200019b620002e9565b604051601f8301601f19908116603f01168101908282118183101715620001c657620001c6620002e9565b81604052838152602092508683858801011115620001e2578485fd5b8491505b83821015620002055785820183015181830184015290820190620001e6565b838211156200021657848385830101525b9695505050505050565b6000806000806080858703121562000236578384fd5b84516001600160401b03808211156200024d578586fd5b6200025b888389016200016d565b9550602087015191508082111562000271578485fd5b5062000280878288016200016d565b935050620002916040860162000150565b9150620002a16060860162000150565b905092959194509250565b600181811c90821680620002c157607f821691505b60208210811415620002e357634e487b7160e01b600052602260045260246000fd5b50919050565b634e487b7160e01b600052604160045260246000fd5b6133cf806200030f6000396000f3fe608060405234801561001057600080fd5b50600436106101815760003560e01c80638865a249116100d8578063b88d4fde1161008c578063e32616e611610066578063e32616e614610338578063e8a3d48514610361578063e985e9c51461036957600080fd5b8063b88d4fde146102ff578063c87b56dd14610312578063d69dd9711461032557600080fd5b80639ba42d48116100bd5780639ba42d48146102c6578063a22cb465146102d9578063b2bdfa7b146102ec57600080fd5b80638865a2491461029357806395d89b41146102be57600080fd5b806318160ddd1161013a57806342842e0e1161011457806342842e0e1461025a5780636352211e1461026d57806370a082311461028057600080fd5b806318160ddd1461022c57806323b872dd1461023e5780632ab4d0521461025157600080fd5b806306fdde031161016b57806306fdde03146101d9578063081812fc146101ee578063095ea7b31461021757600080fd5b8062dc611b1461018657806301ffc9a7146101b6575b600080fd5b600954610199906001600160a01b031681565b6040516001600160a01b0390911681526020015b60405180910390f35b6101c96101c43660046129f9565b610397565b60405190151581526020016101ad565b6101e1610434565b6040516101ad9190612ded565b6101996101fc366004612a94565b6004602052600090815260409020546001600160a01b031681565b61022a6102253660046128d9565b6104c2565b005b600a545b6040519081526020016101ad565b61022a61024c366004612731565b6105c5565b610230600a5481565b61022a610268366004612731565b6107c7565b61019961027b366004612a94565b6108db565b61023061028e3660046126c1565b610945565b6102306102a13660046129d5565b600b60209081526000928352604080842090915290825290205481565b6101e16109b9565b600854610199906001600160a01b031681565b61022a6102e736600461280b565b6109c6565b600754610199906001600160a01b031681565b61022a61030d366004612771565b610a50565b6101e1610320366004612a94565b610b54565b610230610333366004612838565b61102f565b61034b610346366004612a94565b611752565b6040516101ad9a99989796959493929190612d1d565b6101e1611b11565b6101c96103773660046126f9565b600560209081526000928352604080842090915290825290205460ff1681565b60007f01ffc9a7000000000000000000000000000000000000000000000000000000006001600160e01b0319831614806103fa57507f80ac58cd000000000000000000000000000000000000000000000000000000006001600160e01b03198316145b8061042e57507f5b5e139f000000000000000000000000000000000000000000000000000000006001600160e01b03198316145b92915050565b6000805461044190612fb2565b80601f016020809104026020016040519081016040528092919081815260200182805461046d90612fb2565b80156104ba5780601f1061048f576101008083540402835291602001916104ba565b820191906000526020600020905b81548152906001019060200180831161049d57829003601f168201915b505050505081565b6000818152600260205260409020546001600160a01b03163381148061050b57506001600160a01b038116600090815260056020908152604080832033845290915290205460ff165b61055c5760405162461bcd60e51b815260206004820152600e60248201527f4e4f545f415554484f52495a454400000000000000000000000000000000000060448201526064015b60405180910390fd5b600082815260046020526040808220805473ffffffffffffffffffffffffffffffffffffffff19166001600160a01b0387811691821790925591518593918516917f8c5be1e5ebec7d5bd14f71427d1e84f3dd0314c0f7b2291e5b200ac8c7c3b92591a4505050565b6000818152600260205260409020546001600160a01b0384811691161461062e5760405162461bcd60e51b815260206004820152600a60248201527f57524f4e475f46524f4d000000000000000000000000000000000000000000006044820152606401610553565b6001600160a01b0382166106845760405162461bcd60e51b815260206004820152601160248201527f494e56414c49445f524543495049454e540000000000000000000000000000006044820152606401610553565b336001600160a01b03841614806106be57506001600160a01b038316600090815260056020908152604080832033845290915290205460ff165b806106df57506000818152600460205260409020546001600160a01b031633145b61072b5760405162461bcd60e51b815260206004820152600e60248201527f4e4f545f415554484f52495a45440000000000000000000000000000000000006044820152606401610553565b6001600160a01b03808416600081815260036020908152604080832080546000190190559386168083528483208054600101905585835260028252848320805473ffffffffffffffffffffffffffffffffffffffff199081168317909155600490925284832080549092169091559251849392917fddf252ad1be2c89b69c2b068fc378daa952ba7f163c4a11628f55a4df523b3ef91a4505050565b6107d28383836105c5565b6001600160a01b0382163b158061088a5750604051630a85bd0160e11b8082523360048301526001600160a01b03858116602484015260448301849052608060648401526000608484015290919084169063150b7a029060a401602060405180830381600087803b15801561084657600080fd5b505af115801561085a573d6000803e3d6000fd5b505050506040513d601f19601f8201168201806040525081019061087e9190612a15565b6001600160e01b031916145b6108d65760405162461bcd60e51b815260206004820152601060248201527f554e534146455f524543495049454e54000000000000000000000000000000006044820152606401610553565b505050565b6000818152600260205260409020546001600160a01b0316806109405760405162461bcd60e51b815260206004820152600a60248201527f4e4f545f4d494e544544000000000000000000000000000000000000000000006044820152606401610553565b919050565b60006001600160a01b03821661099d5760405162461bcd60e51b815260206004820152600c60248201527f5a45524f5f4144445245535300000000000000000000000000000000000000006044820152606401610553565b506001600160a01b031660009081526003602052604090205490565b6001805461044190612fb2565b3360008181526005602090815260408083206001600160a01b0387168085529083529281902080547fffffffffffffffffffffffffffffffffffffffffffffffffffffffffffffff001686151590811790915590519081529192917f17307eab39ab6107e8899845ad3d59bd9653f200f220920489ca2b5937696c31910160405180910390a35050565b610a5b8585856105c5565b6001600160a01b0384163b1580610b015750604051630a85bd0160e11b808252906001600160a01b0386169063150b7a0290610aa39033908a90899089908990600401612ccc565b602060405180830381600087803b158015610abd57600080fd5b505af1158015610ad1573d6000803e3d6000fd5b505050506040513d601f19601f82011682018060405250810190610af59190612a15565b6001600160e01b031916145b610b4d5760405162461bcd60e51b815260206004820152601060248201527f554e534146455f524543495049454e54000000000000000000000000000000006044820152606401610553565b5050505050565b6000818152600c6020908152604080832081516101408101835281546001600160a01b0316815260018201549381019390935260028101549183019190915260038101805460609493929183860191610bac90612fb2565b80601f0160208091040260200160405190810160405280929190818152602001828054610bd890612fb2565b8015610c255780601f10610bfa57610100808354040283529160200191610c25565b820191906000526020600020905b815481529060010190602001808311610c0857829003601f168201915b505050505081526020016004820154815260200160058201548152602001600682016040518060600160405290816000820160009054906101000a90046001600160a01b03166001600160a01b03166001600160a01b03168152602001600182018054610c9190612fb2565b80601f0160208091040260200160405190810160405280929190818152602001828054610cbd90612fb2565b8015610d0a5780601f10610cdf57610100808354040283529160200191610d0a565b820191906000526020600020905b815481529060010190602001808311610ced57829003601f168201915b50505050508152602001600282018054610d2390612fb2565b80601f0160208091040260200160405190810160405280929190818152602001828054610d4f90612fb2565b8015610d9c5780601f10610d7157610100808354040283529160200191610d9c565b820191906000526020600020905b815481529060010190602001808311610d7f57829003601f168201915b5050505050815250508152602001600982018054610db990612fb2565b80601f0160208091040260200160405190810160405280929190818152602001828054610de590612fb2565b8015610e325780601f10610e0757610100808354040283529160200191610e32565b820191906000526020600020905b815481529060010190602001808311610e1557829003601f168201915b50505050508152602001600a82018054610e4b90612fb2565b80601f0160208091040260200160405190810160405280929190818152602001828054610e7790612fb2565b8015610ec45780601f10610e9957610100808354040283529160200191610ec4565b820191906000526020600020905b815481529060010190602001808311610ea757829003601f168201915b50505050508152602001600b82018054610edd90612fb2565b80601f0160208091040260200160405190810160405280929190818152602001828054610f0990612fb2565b8015610f565780601f10610f2b57610100808354040283529160200191610f56565b820191906000526020600020905b815481529060010190602001808311610f3957829003601f168201915b505050919092525050600954606083015160e084015160c085015160200151610120860151608087015160a08801516101008901516040517f2a26c3ef000000000000000000000000000000000000000000000000000000008152999a506001600160a01b0390971698632a26c3ef9850610fd49790600401612e00565b60006040518083038186803b158015610fec57600080fd5b505afa158015611000573d6000803e3d6000fd5b505050506040513d6000823e601f3d908101601f191682016040526110289190810190612a31565b9392505050565b6000848152600b60209081526040808320338452909152812054156110965760405162461bcd60e51b815260206004820152600e60248201527f616c7265646179206d696e7465640000000000000000000000000000000000006044820152606401610553565b6008546040517f5cb752760000000000000000000000000000000000000000000000000000000081526001600160a01b038881166004830152602482018890526000928392839290911690635cb752769060440160006040518083038186803b15801561110257600080fd5b505afa158015611116573d6000803e3d6000fd5b505050506040513d6000823e601f3d908101601f1916820160405261113e9190810190612904565b9a505050505050505050925092506000896001600160a01b031663593e96b67f161fca6912f107b0f13c9c7275de7391b32d2ea1c52ffba65a3c961880a0c60f6040518263ffffffff1660e01b815260040161119c91815260200190565b60206040518083038186803b1580156111b457600080fd5b505afa1580156111c8573d6000803e3d6000fd5b505050506040513d601f19601f820116820180604052508101906111ec91906126dd565b905060006001600160a01b03821663faaf38b361decd8761120e600188612f54565b6040516001600160e01b031960e086901b1681526001600160a01b039384166004820152929091166024830152604482015260640160206040518083038186803b15801561125b57600080fd5b505afa15801561126f573d6000803e3d6000fd5b505050506040513d601f19601f820116820180604052508101906112939190612a64565b6fffffffffffffffffffffffffffffffff16846001600160a01b03841663faaf38b333896112c260018a612f54565b6040516001600160e01b031960e086901b1681526001600160a01b039384166004820152929091166024830152604482015260640160206040518083038186803b15801561130f57600080fd5b505afa158015611323573d6000803e3d6000fd5b505050506040513d601f19601f820116820180604052508101906113479190612a64565b6fffffffffffffffffffffffffffffffff166113639190612f35565b61136d9190612f15565b9050600081116113bf5760405162461bcd60e51b815260206004820152600a60248201527f756e6d696e7461626c65000000000000000000000000000000000000000000006044820152606401610553565b6113cd600680546001019055565b60006113d860065490565b90506113e43382611b7a565b60008b8152600b602090815260408083203384529091528120829055600a805460019290611413908490612efd565b909155506000905061142f6001600160a01b038e166014611c89565b6114388d611ef8565b61144560808f901b611ef8565b6040517f307800000000000000000000000000000000000000000000000000000000000060208201526022810192909252604282015260620160408051601f198184030181529082905261149c9291602001612bb6565b60405160208183030381529060405290506040518061014001604052808e6001600160a01b031681526020018d81526020018681526020018c815260200187815260200184815260200160405180606001604052808a6001600160a01b031681526020018a6001600160a01b03166395d89b416040518163ffffffff1660e01b815260040160006040518083038186803b15801561153957600080fd5b505afa15801561154d573d6000803e3d6000fd5b505050506040513d6000823e601f3d908101601f191682016040526115759190810190612a31565b81526020018a6001600160a01b03166306fdde036040518163ffffffff1660e01b815260040160006040518083038186803b1580156115b357600080fd5b505afa1580156115c7573d6000803e3d6000fd5b505050506040513d6000823e601f3d908101601f191682016040526115ef9190810190612a31565b9052815260208082018d905260408083018d905260609283018590526000868152600c83528190208451815473ffffffffffffffffffffffffffffffffffffffff19166001600160a01b0390911617815584830151600182015590840151600282015591830151805161166892600385019201906123c6565b506080820151600482015560a0820151600582015560c0820151805160068301805473ffffffffffffffffffffffffffffffffffffffff19166001600160a01b0390921691909117815560208083015180516116ca92600787019201906123c6565b50604082015180516116e69160028401916020909101906123c6565b50505060e082015180516117049160098401916020909101906123c6565b50610100820151805161172191600a8401916020909101906123c6565b50610120820151805161173e91600b8401916020909101906123c6565b50929e9d5050505050505050505050505050565b600c6020526000908152604090208054600182015460028301546003840180546001600160a01b0390941694929391929161178c90612fb2565b80601f01602080910402602001604051908101604052809291908181526020018280546117b890612fb2565b80156118055780601f106117da57610100808354040283529160200191611805565b820191906000526020600020905b8154815290600101906020018083116117e857829003601f168201915b505050506004830154600584015460408051606081019091526006860180546001600160a01b031682526007870180549697949693955091929091602084019161184e90612fb2565b80601f016020809104026020016040519081016040528092919081815260200182805461187a90612fb2565b80156118c75780601f1061189c576101008083540402835291602001916118c7565b820191906000526020600020905b8154815290600101906020018083116118aa57829003601f168201915b505050505081526020016002820180546118e090612fb2565b80601f016020809104026020016040519081016040528092919081815260200182805461190c90612fb2565b80156119595780601f1061192e57610100808354040283529160200191611959565b820191906000526020600020905b81548152906001019060200180831161193c57829003601f168201915b5050505050815250509080600901805461197290612fb2565b80601f016020809104026020016040519081016040528092919081815260200182805461199e90612fb2565b80156119eb5780601f106119c0576101008083540402835291602001916119eb565b820191906000526020600020905b8154815290600101906020018083116119ce57829003601f168201915b50505050509080600a018054611a0090612fb2565b80601f0160208091040260200160405190810160405280929190818152602001828054611a2c90612fb2565b8015611a795780601f10611a4e57610100808354040283529160200191611a79565b820191906000526020600020905b815481529060010190602001808311611a5c57829003601f168201915b50505050509080600b018054611a8e90612fb2565b80601f0160208091040260200160405190810160405280929190818152602001828054611aba90612fb2565b8015611b075780601f10611adc57610100808354040283529160200191611b07565b820191906000526020600020905b815481529060010190602001808311611aea57829003601f168201915b505050505090508a565b6060611b5660405180610340016040528061030481526020016130966103049139604051602001611b429190612ad8565b6040516020818303038152906040526120c8565b604051602001611b669190612c87565b604051602081830303815290604052905090565b611b848282612293565b6001600160a01b0382163b1580611c395750604051630a85bd0160e11b80825233600483015260006024830181905260448301849052608060648401526084830152906001600160a01b0384169063150b7a029060a401602060405180830381600087803b158015611bf557600080fd5b505af1158015611c09573d6000803e3d6000fd5b505050506040513d601f19601f82011682018060405250810190611c2d9190612a15565b6001600160e01b031916145b611c855760405162461bcd60e51b815260206004820152601060248201527f554e534146455f524543495049454e54000000000000000000000000000000006044820152606401610553565b5050565b60606000611c98836002612f35565b611ca3906002612efd565b67ffffffffffffffff811115611cc957634e487b7160e01b600052604160045260246000fd5b6040519080825280601f01601f191660200182016040528015611cf3576020820181803683370190505b5090507f300000000000000000000000000000000000000000000000000000000000000081600081518110611d3857634e487b7160e01b600052603260045260246000fd5b60200101907effffffffffffffffffffffffffffffffffffffffffffffffffffffffffffff1916908160001a9053507f780000000000000000000000000000000000000000000000000000000000000081600181518110611da957634e487b7160e01b600052603260045260246000fd5b60200101907effffffffffffffffffffffffffffffffffffffffffffffffffffffffffffff1916908160001a9053506000611de5846002612f35565b611df0906001612efd565b90505b6001811115611ea9577f303132333435363738396162636465660000000000000000000000000000000085600f1660108110611e3f57634e487b7160e01b600052603260045260246000fd5b1a60f81b828281518110611e6357634e487b7160e01b600052603260045260246000fd5b60200101907effffffffffffffffffffffffffffffffffffffffffffffffffffffffffffff1916908160001a90535060049490941c93611ea281612f9b565b9050611df3565b5083156110285760405162461bcd60e51b815260206004820181905260248201527f537472696e67733a20686578206c656e67746820696e73756666696369656e746044820152606401610553565b7aff00000000000000ff00000000000000ff00000000000000ff00006bffffffff0000000000000000604083901c9081167bffffffff00000000000000000000000000000000000000000000000084161760201c6fffffffff000000000000000000000000919091166001600160e01b031984161717601081901c9182167eff00000000000000ff00000000000000ff00000000000000ff000000000000821617600890811c7bff00000000000000ff00000000000000ff00000000000000ff000000939093167fff00000000000000ff00000000000000ff00000000000000ff000000000000009290921691909117919091179081901c7e0f000f000f000f000f000f000f000f000f000f000f000f000f000f000f000f167f0f000f000f000f000f000f000f000f000f000f000f000f000f000f000f000f00600492831c161790612064827f0606060606060606060606060606060606060606060606060606060606060606612efd565b901c7f0f0f0f0f0f0f0f0f0f0f0f0f0f0f0f0f0f0f0f0f0f0f0f0f0f0f0f0f0f0f0f0f1660076120949190612f35565b6120be827f3030303030303030303030303030303030303030303030303030303030303030612efd565b61042e9190612efd565b60608151600014156120e857505060408051602081019091526000815290565b600060405180606001604052806040815260200161305660409139905060006003845160026121179190612efd565b6121219190612f15565b61212c906004612f35565b9050600061213b826020612efd565b67ffffffffffffffff81111561216157634e487b7160e01b600052604160045260246000fd5b6040519080825280601f01601f19166020018201604052801561218b576020820181803683370190505b509050818152600183018586518101602084015b818310156121f95760039283018051603f601282901c811687015160f890811b8552600c83901c8216880151811b6001860152600683901c8216880151811b60028601529116860151901b9382019390935260040161219f565b600389510660018114612213576002811461225d57612285565b7f3d3d0000000000000000000000000000000000000000000000000000000000007ffffffffffffffffffffffffffffffffffffffffffffffffffffffffffffffffe830152612285565b7f3d000000000000000000000000000000000000000000000000000000000000006000198301525b509398975050505050505050565b6001600160a01b0382166122e95760405162461bcd60e51b815260206004820152601160248201527f494e56414c49445f524543495049454e540000000000000000000000000000006044820152606401610553565b6000818152600260205260409020546001600160a01b03161561234e5760405162461bcd60e51b815260206004820152600e60248201527f414c52454144595f4d494e5445440000000000000000000000000000000000006044820152606401610553565b6001600160a01b0382166000818152600360209081526040808320805460010190558483526002909152808220805473ffffffffffffffffffffffffffffffffffffffff19168417905551839291907fddf252ad1be2c89b69c2b068fc378daa952ba7f163c4a11628f55a4df523b3ef908290a45050565b8280546123d290612fb2565b90600052602060002090601f0160209004810192826123f4576000855561243a565b82601f1061240d57805160ff191683800117855561243a565b8280016001018555821561243a579182015b8281111561243a57825182559160200191906001019061241f565b5061244692915061244a565b5090565b5b80821115612446576000815560010161244b565b805161094081613019565b80516005811061094057600080fd5b600082601f830112612489578081fd5b813561249c61249782612ed5565b612ea4565b8181528460208386010111156124b0578283fd5b816020850160208301379081016020019190915292915050565b600082601f8301126124da578081fd5b81516124e861249782612ed5565b8181528460208386010111156124fc578283fd5b61250d826020830160208701612f6b565b949350505050565b600060c08284031215612526578081fd5b60405160c0810181811067ffffffffffffffff8211171561254957612549613003565b8060405250809150825161255c81613031565b8152602083015161256c81613019565b602082015260408381015190820152606083015161258981613019565b6060820152608083015161259c81613031565b608082015260a08301516125af81613019565b60a0919091015292915050565b6000608082840312156125cd578081fd5b6040516080810181811067ffffffffffffffff821117156125f0576125f0613003565b8060405250809150825181526020830151602082015260408301516040820152606083015160608201525092915050565b600060e08284031215612632578081fd5b61263a612e7b565b9050815167ffffffffffffffff8082111561265457600080fd5b612660858386016124ca565b8352602084015191508082111561267657600080fd5b50612683848285016124ca565b60208301525060408201516040820152606082015160608201526080820151608082015260a082015160a082015260c082015160c082015292915050565b6000602082840312156126d2578081fd5b813561102881613019565b6000602082840312156126ee578081fd5b815161102881613019565b6000806040838503121561270b578081fd5b823561271681613019565b9150602083013561272681613019565b809150509250929050565b600080600060608486031215612745578081fd5b833561275081613019565b9250602084013561276081613019565b929592945050506040919091013590565b600080600080600060808688031215612788578081fd5b853561279381613019565b945060208601356127a381613019565b935060408601359250606086013567ffffffffffffffff808211156127c6578283fd5b818801915088601f8301126127d9578283fd5b8135818111156127e7578384fd5b8960208285010111156127f8578384fd5b9699959850939650602001949392505050565b6000806040838503121561281d578182fd5b823561282881613019565b9150602083013561272681613031565b600080600080600060a0868803121561284f578283fd5b853561285a81613019565b945060208601359350604086013567ffffffffffffffff8082111561287d578485fd5b61288989838a01612479565b9450606088013591508082111561289e578283fd5b6128aa89838a01612479565b935060808801359150808211156128bf578283fd5b506128cc88828901612479565b9150509295509295909350565b600080604083850312156128eb578182fd5b82356128f681613019565b946020939093013593505050565b60008060008060008060008060008060006102608c8e031215612925578889fd5b8b5161293081613019565b809b505060208c0151995060408c0151985060608c0151975060808c015161295781613019565b965061296560a08d0161245f565b955061297360c08d0161246a565b945060e08c015167ffffffffffffffff81111561298e578485fd5b61299a8e828f01612621565b9450506129ab8d6101008e01612515565b92506129bb8d6101c08e016125bc565b91506102408c015190509295989b509295989b9093969950565b600080604083850312156129e7578182fd5b82359150602083013561272681613019565b600060208284031215612a0a578081fd5b81356110288161303f565b600060208284031215612a26578081fd5b81516110288161303f565b600060208284031215612a42578081fd5b815167ffffffffffffffff811115612a58578182fd5b61250d848285016124ca565b600060208284031215612a75578081fd5b81516fffffffffffffffffffffffffffffffff81168114611028578182fd5b600060208284031215612aa5578081fd5b5035919050565b60008151808452612ac4816020860160208601612f6b565b601f01601f19169290920160200192915050565b7f7b226e616d65223a202244414f53717561726520496e766573746d656e74205281527f656365697074222c226465736372697074696f6e223a22000000000000000000602082015260008251612b36816037850160208701612f6b565b7f222c22696d616765223a2268747470733a2f2f692e6962622e636f2f4a784e6360379390910192830152507f6d66342f436f6c6c656374696f6e2d4c6f676f2e706e67222c2265787465726e60578201527f616c5f6c696e6b223a2268747470733a2f2f64616f7371756172652e6669227d6077820152609701919050565b7f68747470733a2f2f67726170682e70686f656e69782e66692f76656e7475726581527f64616f732f76696e746167652f00000000000000000000000000000000000000602082015260008351612c1481602d850160208801612f6b565b7f2f70726f706f73616c732f000000000000000000000000000000000000000000602d918401918201528351612c51816038840160208801612f6b565b7f2f696e766573746d656e7400000000000000000000000000000000000000000060389290910191820152604301949350505050565b7f646174613a6170706c69636174696f6e2f6a736f6e3b6261736536342c000000815260008251612cbf81601d850160208701612f6b565b91909101601d0192915050565b60006001600160a01b03808816835280871660208401525084604083015260806060830152826080830152828460a084013781830160a090810191909152601f909201601f19160101949350505050565b60006101406001600160a01b03808e1684528c60208501528b6040850152816060850152612d4d8285018c612aac565b91508960808501528860a085015283820360c085015280885116825250602087015160606020830152612d836060830182612aac565b905060408801518282036040840152612d9c8282612aac565b9250505082810360e0840152612db28187612aac565b9050828103610100840152612dc78186612aac565b9050828103610120840152612ddc8185612aac565b9d9c50505050505050505050505050565b6020815260006110286020830184612aac565b60e081526000612e1360e083018a612aac565b8281036020840152612e25818a612aac565b90508281036040840152612e398189612aac565b90508281036060840152612e4d8188612aac565b90508560808401528460a084015282810360c0840152612e6d8185612aac565b9a9950505050505050505050565b60405160e0810167ffffffffffffffff81118282101715612e9e57612e9e613003565b60405290565b604051601f8201601f1916810167ffffffffffffffff81118282101715612ecd57612ecd613003565b604052919050565b600067ffffffffffffffff821115612eef57612eef613003565b50601f01601f191660200190565b60008219821115612f1057612f10612fed565b500190565b600082612f3057634e487b7160e01b81526012600452602481fd5b500490565b6000816000190483118215151615612f4f57612f4f612fed565b500290565b600082821015612f6657612f66612fed565b500390565b60005b83811015612f86578181015183820152602001612f6e565b83811115612f95576000848401525b50505050565b600081612faa57612faa612fed565b506000190190565b600181811c90821680612fc657607f821691505b60208210811415612fe757634e487b7160e01b600052602260045260246000fd5b50919050565b634e487b7160e01b600052601160045260246000fd5b634e487b7160e01b600052604160045260246000fd5b6001600160a01b038116811461302e57600080fd5b50565b801515811461302e57600080fd5b6001600160e01b03198116811461302e57600080fdfe4142434445464748494a4b4c4d4e4f505152535455565758595a6162636465666768696a6b6c6d6e6f707172737475767778797a303132333435363738392b2f546865204e46547320696e207468652044414f53717561726520496e766573746d656e74205265636569707420436f6c6c656374696f6e206172652067656e6572617465642066726f6d20696e766573746d656e7473206d6164652062792056656e747572652044414f7320696e207468652044414f53717561726520496e63756261746f722c2077686963682061637469766174656420746865204e46542066756e6374696f6e20574954484f5554207573696e672074686520457363726f772046756e6374696f6e2e2045616368204e465420726570726573656e747320616e20696e766573746f72e280997320696e766573746d656e74207265636f7264206f6620696e76657374696e6720696e20612050726f6a656374207468726f75676820612044414f20696e2044414f53717561726520496e63756261746f722c206c696b65206120726563656970742e20596f752063616e2076696577207468652064796e616d696320646174612028696d6167652920616e642070726f7065727469657320696e666f726d6174696f6e206f662065616368204e465420746f20636865636b207768657468657220746865204e46542069732063757272656e746c792076616c696420616e642074686520696e766573746d656e74207265636f7264732e205468652050726f6a656374206f722044414f206d61792070726f6d69736520746f20676976652062656e656669747320746f204e465420686f6c646572732c207265676172646c657373206f6620746865206f726967696e616c20696e766573746f722e20204e46547320696e207468697320636f6c6c656374696f6e20617265207472616e7366657261626c652e20205468652066756c66696c6c6d656e74206f6620616e792070726f6d697365206261736564206f6e20746865204e465420646570656e6473206f6e207468652070726f6d69736572202850726f6a656374206f722044414f292c20776869636820746865204e465420697473656c662063616e6e6f742067756172616e74656520746563686e6963616c6c792ea264697066735822122047b89469e7315b3b7759ebbdf40a0ca6350f083f56e917e670074359a2fa61d464736f6c63430008040033",
  "linkReferences": {},
  "deployedLinkReferences": {}
}