{
  "_format": "hh-sol-artifact-1",
  "contractName": "VintageDaoSetHelperAdapterContract",
  "sourceName": "contracts/vintage/adapters/VintageDaoSetHelperAdapter.sol",
  "abi": [
    {
      "inputs": [
        {
          "internalType": "contract DaoRegistry",
          "name": "dao",
          "type": "address"
        },
        {
          "internalType": "bool",
          "name": "enable",
          "type": "bool"
        },
        {
          "internalType": "string",
          "name": "name",
          "type": "string"
        },
        {
          "internalType": "uint256",
          "name": "varifyType",
          "type": "uint256"
        },
        {
          "internalType": "uint256",
          "name": "minAmount",
          "type": "uint256"
        },
        {
          "internalType": "uint256",
          "name": "tokenId",
          "type": "uint256"
        },
        {
          "internalType": "address",
          "name": "tokenAddress",
          "type": "address"
        },
        {
          "internalType": "address[]",
          "name": "whitelist",
          "type": "address[]"
        }
      ],
      "name": "setGovernorMembership",
      "outputs": [],
      "stateMutability": "nonpayable",
      "type": "function"
    },
    {
      "inputs": [
        {
          "internalType": "contract DaoRegistry",
          "name": "dao",
          "type": "address"
        },
        {
          "internalType": "bool",
          "name": "enable",
          "type": "bool"
        },
        {
          "internalType": "uint256",
          "name": "cap",
          "type": "uint256"
        }
      ],
      "name": "setInvestorCap",
      "outputs": [],
      "stateMutability": "nonpayable",
      "type": "function"
    },
    {
      "inputs": [
        {
          "internalType": "contract DaoRegistry",
          "name": "dao",
          "type": "address"
        },
        {
          "internalType": "bool",
          "name": "enable",
          "type": "bool"
        },
        {
          "internalType": "string",
          "name": "name",
          "type": "string"
        },
        {
          "internalType": "uint256",
          "name": "varifyType",
          "type": "uint256"
        },
        {
          "internalType": "uint256",
          "name": "minAmount",
          "type": "uint256"
        },
        {
          "internalType": "uint256",
          "name": "tokenId",
          "type": "uint256"
        },
        {
          "internalType": "address",
          "name": "tokenAddress",
          "type": "address"
        },
        {
          "internalType": "address[]",
          "name": "whitelist",
          "type": "address[]"
        }
      ],
      "name": "setInvestorMembership",
      "outputs": [],
      "stateMutability": "nonpayable",
      "type": "function"
    },
    {
      "inputs": [
        {
          "internalType": "contract DaoRegistry",
          "name": "dao",
          "type": "address"
        },
        {
          "internalType": "uint256[9]",
          "name": "uint256Params",
          "type": "uint256[9]"
        },
        {
          "internalType": "address",
          "name": "tokenAddress",
          "type": "address"
        },
        {
          "internalType": "uint256[]",
          "name": "allocs",
          "type": "uint256[]"
        },
        {
          "internalType": "address[]",
          "name": "governors",
          "type": "address[]"
        }
      ],
      "name": "setVoting",
      "outputs": [],
      "stateMutability": "nonpayable",
      "type": "function"
    },
    {
      "inputs": [
        {
          "internalType": "contract DaoRegistry",
          "name": "dao",
          "type": "address"
        }
      ],
      "name": "unDoneOperationProposalsCheck",
      "outputs": [
        {
          "internalType": "bool",
          "name": "",
          "type": "bool"
        }
      ],
      "stateMutability": "view",
      "type": "function"
    }
  ],
  "bytecode": "0x608060405234801561001057600080fd5b50611fb8806100206000396000f3fe608060405234801561001057600080fd5b50600436106100675760003560e01c80638217b1aa116100505780638217b1aa146100945780638faeecd1146100a7578063d1fa9e10146100ba57600080fd5b80637249b22f1461006c57806373cf624f14610081575b600080fd5b61007f61007a366004611e9c565b6100e1565b005b61007f61008f366004611db0565b61030a565b61007f6100a2366004611db0565b610958565b61007f6100b5366004611d05565b611014565b6100cd6100c8366004611c92565b6117d9565b604051901515815260200160405180910390f35b6040516317ba7d8560e01b81527f77cdf6056467142a33aa6f753fc1e3907f6850ebf08c7b63b107b0611a69b04e600482015283906001600160a01b038216906317ba7d859060240160206040518083038186803b15801561014257600080fd5b505afa158015610156573d6000803e3d6000fd5b505050506040513d601f19601f8201168201806040525081019061017a9190611cb5565b6001600160a01b0316336001600160a01b0316146101cf5760405162461bcd60e51b815260206004820152600d60248201526c1058d8d95cdcc811195b9a5959609a1b60448201526064015b60405180910390fd5b6001600160a01b03841663da0f6c707f69f4ffb3ebcb7809550bddd3e4d449a47e737bf6635bc7a730996643997b0e48600186151514610210576000610213565b60015b6040517fffffffff0000000000000000000000000000000000000000000000000000000060e085901b168152600481019290925260ff166024820152604401600060405180830381600087803b15801561026c57600080fd5b505af1158015610280573d6000803e3d6000fd5b5050604051630da0f6c760e41b81527fecbde689cc6337d29a750b8b8a8abbfa97427b4ac800ab55be2f2c87311510f26004820152602481018590526001600160a01b038716925063da0f6c709150604401600060405180830381600087803b1580156102ec57600080fd5b505af1158015610300573d6000803e3d6000fd5b5050505050505050565b6040516317ba7d8560e01b81527f77cdf6056467142a33aa6f753fc1e3907f6850ebf08c7b63b107b0611a69b04e60048201528a906001600160a01b038216906317ba7d859060240160206040518083038186803b15801561036b57600080fd5b505afa15801561037f573d6000803e3d6000fd5b505050506040513d601f19601f820116820180604052508101906103a39190611cb5565b6001600160a01b0316336001600160a01b0316146103f35760405162461bcd60e51b815260206004820152600d60248201526c1058d8d95cdcc811195b9a5959609a1b60448201526064016101c6565b6001600160a01b038b1663da0f6c707f1405d0156cf64c805704fdf6691baebfcfa0d409ea827c231693ff0581b0b77760018d151514610434576000610437565b60015b6040517fffffffff0000000000000000000000000000000000000000000000000000000060e085901b168152600481019290925260ff166024820152604401600060405180830381600087803b15801561049057600080fd5b505af11580156104a4573d6000803e3d6000fd5b50505050891561094b576040517ff958b7100000000000000000000000000000000000000000000000000000000081526001600160a01b038c169063f958b71090610517907f324dfda0ffcc38c4650b5df076e6f7b4938c2b723873af58b1be5e221dd2cc30908d908d90600401611edc565b600060405180830381600087803b15801561053157600080fd5b505af1158015610545573d6000803e3d6000fd5b5050604051630da0f6c760e41b81527f80140cd7e0b1d935bee578a67a41547c82987de8e7d6b3827d411b738110258b6004820152602481018a90526001600160a01b038e16925063da0f6c709150604401600060405180830381600087803b1580156105b157600080fd5b505af11580156105c5573d6000803e3d6000fd5b5050604051630da0f6c760e41b81527f04ecaf460eb9f82aeb70035e3f24c18a3650fa0da9ddbe7e63d70de659b9b9016004820152602481018990526001600160a01b038e16925063da0f6c709150604401600060405180830381600087803b15801561063157600080fd5b505af1158015610645573d6000803e3d6000fd5b5050604051631da7c90d60e11b81527fe373ab56628c86db3f0e36774c2c5e0393f9272ff5c976bc3f0db2db60cdbc1460048201526001600160a01b0387811660248301528e169250633b4f921a9150604401600060405180830381600087803b1580156106b257600080fd5b505af11580156106c6573d6000803e3d6000fd5b5050604051630da0f6c760e41b81527f6cb5bc3796b0717ca4ff665886c96fb0178d6341366eb7b6c737fe79083b836a6004820152602481018890526001600160a01b038e16925063da0f6c709150604401600060405180830381600087803b15801561073257600080fd5b505af1158015610746573d6000803e3d6000fd5b508492505081159050610949576040516317ba7d8560e01b81527faaff643bdbd909f604d46ce015336f7e20fee3ac4a55cef3610188dee176c89260048201526000906001600160a01b038e16906317ba7d859060240160206040518083038186803b1580156107b557600080fd5b505afa1580156107c9573d6000803e3d6000fd5b505050506040513d601f19601f820116820180604052508101906107ed9190611cb5565b6040517fff8bb0d00000000000000000000000000000000000000000000000000000000081526001600160a01b038f811660048301529192509082169063ff8bb0d090602401600060405180830381600087803b15801561084d57600080fd5b505af1158015610861573d6000803e3d6000fd5b5050505060005b828160ff16101561094657816001600160a01b031663ac7e7eba8f88888560ff168181106108a657634e487b7160e01b600052603260045260246000fd5b90506020020160208101906108bb9190611c92565b6040517fffffffff0000000000000000000000000000000000000000000000000000000060e085901b1681526001600160a01b03928316600482015291166024820152604401600060405180830381600087803b15801561091b57600080fd5b505af115801561092f573d6000803e3d6000fd5b50505050808061093e90611f30565b915050610868565b50505b505b5050505050505050505050565b6040516317ba7d8560e01b81527f77cdf6056467142a33aa6f753fc1e3907f6850ebf08c7b63b107b0611a69b04e60048201528a906001600160a01b038216906317ba7d859060240160206040518083038186803b1580156109b957600080fd5b505afa1580156109cd573d6000803e3d6000fd5b505050506040513d601f19601f820116820180604052508101906109f19190611cb5565b6001600160a01b0316336001600160a01b031614610a415760405162461bcd60e51b815260206004820152600d60248201526c1058d8d95cdcc811195b9a5959609a1b60448201526064016101c6565b6001600160a01b038b1663da0f6c707f5b7b19076468102b84afbef323d128866c396a716ce4ce29f84beef8d266f3af60018d151514610a82576000610a85565b60015b6040517fffffffff0000000000000000000000000000000000000000000000000000000060e085901b168152600481019290925260ff166024820152604401600060405180830381600087803b158015610ade57600080fd5b505af1158015610af2573d6000803e3d6000fd5b50505050891561094b576040517ff958b7100000000000000000000000000000000000000000000000000000000081526001600160a01b038c169063f958b71090610b65907fa4b6f581a2d1e8b24bacedf9a91a13c8df6147ffb9d2bd4a770d867d91018da6908d908d90600401611edc565b600060405180830381600087803b158015610b7f57600080fd5b505af1158015610b93573d6000803e3d6000fd5b5050604051630da0f6c760e41b81527f23f0530138a805a7a3c83e0d6298d353102473dc25666f75173de90ac5414c826004820152602481018a90526001600160a01b038e16925063da0f6c709150604401600060405180830381600087803b158015610bff57600080fd5b505af1158015610c13573d6000803e3d6000fd5b5050604051630da0f6c760e41b81527f4481bb4c8bc94e65f81ab5591f704165aab99eb4197df7acf672022476933f586004820152602481018990526001600160a01b038e16925063da0f6c709150604401600060405180830381600087803b158015610c7f57600080fd5b505af1158015610c93573d6000803e3d6000fd5b5050604051631da7c90d60e11b81527faa2cc36fff47c5c104b89a4abef628c92272c0af9c4db27739bc445b2f51e9a260048201526001600160a01b0387811660248301528e169250633b4f921a9150604401600060405180830381600087803b158015610d0057600080fd5b505af1158015610d14573d6000803e3d6000fd5b5050604051630da0f6c760e41b81527fe33a9c3c87c85b9efd09c180b8fd30ca34326eb72e20fdd832b510971ccf71ae6004820152602481018890526001600160a01b038e16925063da0f6c709150604401600060405180830381600087803b158015610d8057600080fd5b505af1158015610d94573d6000803e3d6000fd5b5050604051630da0f6c760e41b81527f38cbcea6ba035c1d1890c83ce99918342ef746d839f9c2e2d4966d30a7e70b346004820152602481018990526001600160a01b038e16925063da0f6c709150604401600060405180830381600087803b158015610e0057600080fd5b505af1158015610e14573d6000803e3d6000fd5b508492505081159050610949576040516317ba7d8560e01b81527fd90e10040720d66c9412cb511e3dbb6ba51669248a7495e763d44ab426893efa60048201526000906001600160a01b038e16906317ba7d859060240160206040518083038186803b158015610e8357600080fd5b505afa158015610e97573d6000803e3d6000fd5b505050506040513d601f19601f82011682018060405250810190610ebb9190611cb5565b6040517f22c5c2cc0000000000000000000000000000000000000000000000000000000081526001600160a01b038f81166004830152919250908216906322c5c2cc90602401600060405180830381600087803b158015610f1b57600080fd5b505af1158015610f2f573d6000803e3d6000fd5b5050505060005b828160ff16101561094657816001600160a01b03166333f7bc0c8f88888560ff16818110610f7457634e487b7160e01b600052603260045260246000fd5b9050602002016020810190610f899190611c92565b6040517fffffffff0000000000000000000000000000000000000000000000000000000060e085901b1681526001600160a01b03928316600482015291166024820152604401600060405180830381600087803b158015610fe957600080fd5b505af1158015610ffd573d6000803e3d6000fd5b50505050808061100c90611f30565b915050610f36565b6040516317ba7d8560e01b81527f77cdf6056467142a33aa6f753fc1e3907f6850ebf08c7b63b107b0611a69b04e600482015287906001600160a01b038216906317ba7d859060240160206040518083038186803b15801561107557600080fd5b505afa158015611089573d6000803e3d6000fd5b505050506040513d601f19601f820116820180604052508101906110ad9190611cb5565b6001600160a01b0316336001600160a01b0316146110fd5760405162461bcd60e51b815260206004820152600d60248201526c1058d8d95cdcc811195b9a5959609a1b60448201526064016101c6565b604051630da0f6c760e41b81527f686efe7bd1699b408d306db6bbee658ed667971c52d48d6912d7ee496e36e6276004820152873560248201526001600160a01b0389169063da0f6c7090604401600060405180830381600087803b15801561116557600080fd5b505af1158015611179573d6000803e3d6000fd5b5050604051631da7c90d60e11b81527fcd9b30ab6388c165d825b60b7d393528191ba59d975b4b1b52b7184b63b8a97c60048201526001600160a01b0389811660248301528b169250633b4f921a9150604401600060405180830381600087803b1580156111e657600080fd5b505af11580156111fa573d6000803e3d6000fd5b5050604051630da0f6c760e41b81527e634460a4b60c2e1bf8c87bfc42b6b68fd2a71f4bb2d760816eabc5038b5036600482015260208a013560248201526001600160a01b038b16925063da0f6c709150604401600060405180830381600087803b15801561126857600080fd5b505af115801561127c573d6000803e3d6000fd5b505060408051630da0f6c760e41b81527fb75eae231d9582c6afc6491273df4a0ffbccd48ab2c48dbce59e5d68f2d19dc46004820152908a013560248201526001600160a01b038b16925063da0f6c709150604401600060405180830381600087803b1580156112eb57600080fd5b505af11580156112ff573d6000803e3d6000fd5b5050604051630da0f6c760e41b81527f561bc86bc227a0f760218574791a84f180f6f9f02be9519a1f99c14fce07a310600482015260608a013560248201526001600160a01b038b16925063da0f6c709150604401600060405180830381600087803b15801561136e57600080fd5b505af1158015611382573d6000803e3d6000fd5b5050604051630da0f6c760e41b81527f8097540b5ab8a4c18e0b10cfbfd2c69e65e8da78f4f0485467006bafa3935964600482015260808a013560248201526001600160a01b038b16925063da0f6c709150604401600060405180830381600087803b1580156113f157600080fd5b505af1158015611405573d6000803e3d6000fd5b5050604051630da0f6c760e41b81527f0324de13a5a6e302ddb95a9fdf81cc736fc8acee2abe558970daac27395904e7600482015260a08a013560248201526001600160a01b038b16925063da0f6c709150604401600060405180830381600087803b15801561147457600080fd5b505af1158015611488573d6000803e3d6000fd5b5050604051630da0f6c760e41b81527fb4c601c38beae7eebb719eda3438f59fcbfd4c6dd7d38c00665b6fd5b432df32600482015260c08a013560248201526001600160a01b038b16925063da0f6c709150604401600060405180830381600087803b1580156114f757600080fd5b505af115801561150b573d6000803e3d6000fd5b5050604051630da0f6c760e41b81527f9876c0f0505bfb2b1c38d3bbd25ba13159172cd0868972d76927723f5a9480fc600482015260e08a013560248201526001600160a01b038b16925063da0f6c709150604401600060405180830381600087803b15801561157a57600080fd5b505af115801561158e573d6000803e3d6000fd5b5050604051630da0f6c760e41b81527f02a3530cbb6e7c084516c86f68bd62c3e3fcd783c6c5d7e138616207f7a3225060048201526101008a013560248201526001600160a01b038b16925063da0f6c709150604401600060405180830381600087803b1580156115fe57600080fd5b505af1158015611612573d6000803e3d6000fd5b5084925050811590506117ce576040516317ba7d8560e01b81527f1fa6846b165d822fff79e37c67625706652fa9380c2aa49fd513ce534cc72ed460048201526000906001600160a01b038b16906317ba7d859060240160206040518083038186803b15801561168157600080fd5b505afa158015611695573d6000803e3d6000fd5b505050506040513d601f19601f820116820180604052508101906116b99190611cb5565b905060005b828160ff16101561094b57816001600160a01b0316635f15b1d98c88888560ff168181106116fc57634e487b7160e01b600052603260045260246000fd5b90506020020160208101906117119190611c92565b8b8b8660ff1681811061173457634e487b7160e01b600052603260045260246000fd5b6040517fffffffff0000000000000000000000000000000000000000000000000000000060e088901b1681526001600160a01b03958616600482015294909316602485015250602090910201356044820152606401600060405180830381600087803b1580156117a357600080fd5b505af11580156117b7573d6000803e3d6000fd5b5050505080806117c690611f30565b9150506116be565b505050505050505050565b6040516317ba7d8560e01b81527f0fd8cce4ef00a7a8c0c5f91194bc80f122deefe664dd2a2384687da62ab117d1600482015260009081906001600160a01b038416906317ba7d859060240160206040518083038186803b15801561183d57600080fd5b505afa158015611851573d6000803e3d6000fd5b505050506040513d601f19601f820116820180604052508101906118759190611cb5565b6040516317ba7d8560e01b81527fa837e34a29b67bf52f684a1c93def79b84b9c012732becee4e5df62809df64ed60048201529091506000906001600160a01b038516906317ba7d859060240160206040518083038186803b1580156118da57600080fd5b505afa1580156118ee573d6000803e3d6000fd5b505050506040513d601f19601f820116820180604052508101906119129190611cb5565b6040516317ba7d8560e01b81527fd90e10040720d66c9412cb511e3dbb6ba51669248a7495e763d44ab426893efa60048201529091506000906001600160a01b038616906317ba7d859060240160206040518083038186803b15801561197757600080fd5b505afa15801561198b573d6000803e3d6000fd5b505050506040513d601f19601f820116820180604052508101906119af9190611cb5565b6040517f642fc0c00000000000000000000000000000000000000000000000000000000081526001600160a01b0387811660048301529192509083169063642fc0c09060240160206040518083038186803b158015611a0d57600080fd5b505afa158015611a21573d6000803e3d6000fd5b505050506040513d601f19601f82011682018060405250810190611a459190611cd1565b8015611ade57506040517f642fc0c00000000000000000000000000000000000000000000000000000000081526001600160a01b03868116600483015282169063642fc0c09060240160206040518083038186803b158015611aa657600080fd5b505afa158015611aba573d6000803e3d6000fd5b505050506040513d601f19601f82011682018060405250810190611ade9190611cd1565b8015611b7e57506040517fa5d6fb130000000000000000000000000000000000000000000000000000000081526001600160a01b0386811660048301526000919085169063a5d6fb139060240160206040518083038186803b158015611b4357600080fd5b505afa158015611b57573d6000803e3d6000fd5b505050506040513d601f19601f82011682018060405250810190611b7b9190611ced565b11155b8015611c1d57506040517f62e86df50000000000000000000000000000000000000000000000000000000081526001600160a01b038681166004830152600091908516906362e86df59060240160206040518083038186803b158015611be357600080fd5b505afa158015611bf7573d6000803e3d6000fd5b505050506040513d601f19601f82011682018060405250810190611c1b9190611ced565b145b15611c2d57506001949350505050565b506000949350505050565b8035611c4381611f5c565b919050565b60008083601f840112611c59578182fd5b50813567ffffffffffffffff811115611c70578182fd5b6020830191508360208260051b8501011115611c8b57600080fd5b9250929050565b600060208284031215611ca3578081fd5b8135611cae81611f5c565b9392505050565b600060208284031215611cc6578081fd5b8151611cae81611f5c565b600060208284031215611ce2578081fd5b8151611cae81611f74565b600060208284031215611cfe578081fd5b5051919050565b60008060008060008060006101a0888a031215611d20578283fd5b8735611d2b81611f5c565b9650610140880189811115611d3e578384fd5b60208901965035611d4e81611f5c565b945061016088013567ffffffffffffffff80821115611d6b578485fd5b611d778b838c01611c48565b90965094506101808a0135915080821115611d90578384fd5b50611d9d8a828b01611c48565b989b979a50959850939692959293505050565b6000806000806000806000806000806101008b8d031215611dcf578283fd5b8a35611dda81611f5c565b995060208b0135611dea81611f74565b985060408b013567ffffffffffffffff80821115611e06578485fd5b818d0191508d601f830112611e19578485fd5b813581811115611e27578586fd5b8e6020828501011115611e38578586fd5b602083019a50985060608d0135975060808d0135965060a08d01359550611e6160c08e01611c38565b945060e08d0135915080821115611e76578384fd5b50611e838d828e01611c48565b915080935050809150509295989b9194979a5092959850565b600080600060608486031215611eb0578283fd5b8335611ebb81611f5c565b92506020840135611ecb81611f74565b929592945050506040919091013590565b83815260406020820152816040820152818360608301376000818301606090810191909152601f9092017fffffffffffffffffffffffffffffffffffffffffffffffffffffffffffffffe016010192915050565b600060ff821660ff811415611f5357634e487b7160e01b82526011600452602482fd5b60010192915050565b6001600160a01b0381168114611f7157600080fd5b50565b8015158114611f7157600080fdfea26469706673582212200ba6f2ddf1f1ceeaf003fe2da9e5cb3866137f7e2b3d9e864a16a2a45613579164736f6c63430008040033",
  "linkReferences": {},
  "deployedLinkReferences": {}
}