{
  "_format": "hh-sol-artifact-1",
  "contractName": "SafeERC20",
  "sourceName": "contracts/adapters/vesting/contracts/libraries/SafeERC20.sol",
  "abi": [
    {
      "inputs": [
        {
          "internalType": "contract IERC20",
          "name": "token",
          "type": "IERC20"
        }
      ],
      "name": "safeDecimals",
      "outputs": [
        {
          "internalType": "uint8",
          "name": "",
          "type": "uint8"
        }
      ],
      "stateMutability": "view",
      "type": "function"
    }
  ],
  "bytecode": "0x61022961003a600b82828239805160001a60731461002d57634e487b7160e01b600052600060045260246000fd5b30600052607381538281f3fe73000000000000000000000000000000000000000030146080604052600436106100355760003560e01c806372a58ae11461003a575b600080fd5b61004d61004836600461015e565b610063565b60405160ff909116815260200160405180910390f35b60408051600481526024810182526020810180517bffffffffffffffffffffffffffffffffffffffffffffffffffffffff167f313ce5670000000000000000000000000000000000000000000000000000000017905290516000918291829173ffffffffffffffffffffffffffffffffffffffff8616916100e491906101ba565b600060405180830381855afa9150503d806000811461011f576040519150601f19603f3d011682016040523d82523d6000602084013e610124565b606091505b5091509150818015610137575080516020145b610142576012610156565b808060200190518101906101569190610199565b949350505050565b60006020828403121561016f578081fd5b813573ffffffffffffffffffffffffffffffffffffffff81168114610192578182fd5b9392505050565b6000602082840312156101aa578081fd5b815160ff81168114610192578182fd5b60008251815b818110156101da57602081860181015185830152016101c0565b818111156101e85782828501525b50919091019291505056fea264697066735822122095c8e4ad33ad6703d743d4a58388f736a650c22e29fe0dc37af5508781401b5664736f6c63430008040033",
  "linkReferences": {},
  "deployedLinkReferences": {}
}