{
  "_format": "hh-sol-artifact-1",
  "contractName": "FlexDaoSetPollingAdapterContract",
  "sourceName": "contracts/flex/adatpers/FlexDaoSetPollingAdapter.sol",
  "abi": [
    {
      "inputs": [],
      "name": "VOTING_NOT_FINISH",
      "type": "error"
    },
    {
      "anonymous": false,
      "inputs": [
        {
          "indexed": false,
          "internalType": "address",
          "name": "daoAddr",
          "type": "address"
        },
        {
          "indexed": false,
          "internalType": "bytes32",
          "name": "proposalId",
          "type": "bytes32"
        },
        {
          "indexed": false,
          "internalType": "enum FlexDaosetLibrary.ProposalType",
          "name": "pType",
          "type": "uint8"
        }
      ],
      "name": "ProposalCreated",
      "type": "event"
    },
    {
      "anonymous": false,
      "inputs": [
        {
          "indexed": false,
          "internalType": "address",
          "name": "daoAddr",
          "type": "address"
        },
        {
          "indexed": false,
          "internalType": "bytes32",
          "name": "proposalId",
          "type": "bytes32"
        },
        {
          "indexed": false,
          "internalType": "uint256",
          "name": "voteResult",
          "type": "uint256"
        },
        {
          "indexed": false,
          "internalType": "uint128",
          "name": "allVotingWeight",
          "type": "uint128"
        },
        {
          "indexed": false,
          "internalType": "uint256",
          "name": "nbYes",
          "type": "uint256"
        },
        {
          "indexed": false,
          "internalType": "uint256",
          "name": "nbNo",
          "type": "uint256"
        }
      ],
      "name": "ProposalProcessed",
      "type": "event"
    },
    {
      "inputs": [
        {
          "internalType": "bytes32",
          "name": "proposalId",
          "type": "bytes32"
        }
      ],
      "name": "getWhitelist",
      "outputs": [
        {
          "internalType": "address[]",
          "name": "",
          "type": "address[]"
        }
      ],
      "stateMutability": "view",
      "type": "function"
    },
    {
      "inputs": [
        {
          "internalType": "contract DaoRegistry",
          "name": "dao",
          "type": "address"
        },
        {
          "internalType": "address",
          "name": "_addr",
          "type": "address"
        }
      ],
      "name": "isActiveMember",
      "outputs": [
        {
          "internalType": "bool",
          "name": "",
          "type": "bool"
        }
      ],
      "stateMutability": "view",
      "type": "function"
    },
    {
      "inputs": [
        {
          "internalType": "address",
          "name": "",
          "type": "address"
        }
      ],
      "name": "ongoingPollForInvestmentProposal",
      "outputs": [
        {
          "internalType": "bytes32",
          "name": "",
          "type": "bytes32"
        }
      ],
      "stateMutability": "view",
      "type": "function"
    },
    {
      "inputs": [
        {
          "internalType": "address",
          "name": "",
          "type": "address"
        },
        {
          "internalType": "bytes32",
          "name": "",
          "type": "bytes32"
        }
      ],
      "name": "pollForInvestmentProposals",
      "outputs": [
        {
          "internalType": "bool",
          "name": "pollEnable",
          "type": "bool"
        },
        {
          "internalType": "string",
          "name": "name",
          "type": "string"
        },
        {
          "internalType": "uint8",
          "name": "varifyType",
          "type": "uint8"
        },
        {
          "internalType": "uint256",
          "name": "minHolding",
          "type": "uint256"
        },
        {
          "internalType": "address",
          "name": "tokenAddress",
          "type": "address"
        },
        {
          "internalType": "uint256",
          "name": "tokenId",
          "type": "uint256"
        },
        {
          "components": [
            {
              "internalType": "uint256",
              "name": "votingPeriod",
              "type": "uint256"
            },
            {
              "internalType": "uint8",
              "name": "votingPower",
              "type": "uint8"
            },
            {
              "internalType": "uint256",
              "name": "superMajority",
              "type": "uint256"
            },
            {
              "internalType": "uint256",
              "name": "quorum",
              "type": "uint256"
            },
            {
              "internalType": "uint256",
              "name": "votingAssetType",
              "type": "uint256"
            },
            {
              "internalType": "address",
              "name": "tokenAddress",
              "type": "address"
            },
            {
              "internalType": "uint256",
              "name": "tokenID",
              "type": "uint256"
            },
            {
              "internalType": "uint256",
              "name": "supportType",
              "type": "uint256"
            },
            {
              "internalType": "uint256",
              "name": "quorumType",
              "type": "uint256"
            }
          ],
          "internalType": "struct FlexDaosetLibrary.flexDaoPollingInfo",
          "name": "pollingInfo",
          "type": "tuple"
        },
        {
          "internalType": "uint256",
          "name": "creationTime",
          "type": "uint256"
        },
        {
          "internalType": "uint256",
          "name": "stopVoteTime",
          "type": "uint256"
        },
        {
          "internalType": "enum FlexDaosetLibrary.ProposalState",
          "name": "state",
          "type": "uint8"
        }
      ],
      "stateMutability": "view",
      "type": "function"
    },
    {
      "inputs": [
        {
          "internalType": "contract DaoRegistry",
          "name": "dao",
          "type": "address"
        },
        {
          "internalType": "bytes32",
          "name": "proposalId",
          "type": "bytes32"
        }
      ],
      "name": "processPollForInvestmentProposal",
      "outputs": [],
      "stateMutability": "nonpayable",
      "type": "function"
    },
    {
      "inputs": [
        {
          "components": [
            {
              "internalType": "contract DaoRegistry",
              "name": "dao",
              "type": "address"
            },
            {
              "internalType": "bool",
              "name": "pollEnable",
              "type": "bool"
            },
            {
              "components": [
                {
                  "internalType": "string",
                  "name": "name",
                  "type": "string"
                },
                {
                  "internalType": "uint8",
                  "name": "varifyType",
                  "type": "uint8"
                },
                {
                  "internalType": "uint256",
                  "name": "minHolding",
                  "type": "uint256"
                },
                {
                  "internalType": "address",
                  "name": "tokenAddress",
                  "type": "address"
                },
                {
                  "internalType": "uint256",
                  "name": "tokenId",
                  "type": "uint256"
                },
                {
                  "internalType": "address[]",
                  "name": "whiteList",
                  "type": "address[]"
                }
              ],
              "internalType": "struct FlexDaosetLibrary.FlexDaoPollVoterMembershipInfo",
              "name": "pollvoterMembership",
              "type": "tuple"
            },
            {
              "components": [
                {
                  "internalType": "uint256",
                  "name": "votingPeriod",
                  "type": "uint256"
                },
                {
                  "internalType": "uint8",
                  "name": "votingPower",
                  "type": "uint8"
                },
                {
                  "internalType": "uint256",
                  "name": "superMajority",
                  "type": "uint256"
                },
                {
                  "internalType": "uint256",
                  "name": "quorum",
                  "type": "uint256"
                },
                {
                  "internalType": "uint256",
                  "name": "votingAssetType",
                  "type": "uint256"
                },
                {
                  "internalType": "address",
                  "name": "tokenAddress",
                  "type": "address"
                },
                {
                  "internalType": "uint256",
                  "name": "tokenID",
                  "type": "uint256"
                },
                {
                  "internalType": "uint256",
                  "name": "supportType",
                  "type": "uint256"
                },
                {
                  "internalType": "uint256",
                  "name": "quorumType",
                  "type": "uint256"
                }
              ],
              "internalType": "struct FlexDaosetLibrary.flexDaoPollingInfo",
              "name": "pollingInfo",
              "type": "tuple"
            }
          ],
          "internalType": "struct FlexDaosetLibrary.PollForInvestmentParams",
          "name": "params",
          "type": "tuple"
        }
      ],
      "name": "submitPollForInvestmentProposal",
      "outputs": [
        {
          "internalType": "bytes32",
          "name": "",
          "type": "bytes32"
        }
      ],
      "stateMutability": "nonpayable",
      "type": "function"
    }
  ],
  "bytecode": "0x608060405234801561001057600080fd5b50613233806100206000396000f3fe608060405234801561001057600080fd5b50600436106100725760003560e01c8063dabd56a511610050578063dabd56a5146100fa578063ea739f301461011a578063ef2c0e561461012f57600080fd5b80635f8e036114610077578063791c73ba146100a95780638ecf7720146100d7575b600080fd5b61008a610085366004612953565b610142565b6040516100a09a99989796959493929190612dbe565b60405180910390f35b6100c96100b736600461291b565b60006020819052908152604090205481565b6040519081526020016100a0565b6100ea6100e5366004612ac2565b61029b565b60405190151581526020016100a0565b61010d610108366004612aaa565b61033a565b6040516100a09190612dab565b61012d610128366004612afa565b610354565b005b6100c961013d366004612b45565b610545565b600160208181526000938452604080852090915291835291208054918101805460ff90931692610171906130dd565b80601f016020809104026020016040519081016040528092919081815260200182805461019d906130dd565b80156101ea5780601f106101bf576101008083540402835291602001916101ea565b820191906000526020600020905b8154815290600101906020018083116101cd57829003601f168201915b5050506002840154600385015460048601546005870154604080516101208101825260068a0154815260078a015460ff908116602083015260088b01549282019290925260098a01546060820152600a8a01546080820152600b8a01546001600160a01b0390811660a0830152600c8b015460c0830152600d8b015460e0830152600e8b0154610100830152600f8b015460108c01546011909c01549a9b9784169a9699509416965091949193168a565b6040517fa230c5240000000000000000000000000000000000000000000000000000000081526001600160a01b0382811660048301526000919084169063a230c5249060240160206040518083038186803b1580156102f957600080fd5b505afa15801561030d573d6000803e3d6000fd5b505050506040513d601f19601f820116820180604052508101906103319190612a61565b90505b92915050565b600081815260026020526040902060609061033490610f37565b81600061036082610f4b565b6001600160a01b038516600090815260016020908152604080832087845290915281209192508080806103938989611216565b9296509094509250905060028460058111156103bf57634e487b7160e01b600052602160045260246000fd5b14156103ec576103d0898987611436565b6011850180546002919060ff19166001835b0217905550610486565b600384600581111561040e57634e487b7160e01b600052602160045260246000fd5b14806104395750600184600581111561043757634e487b7160e01b600052602160045260246000fd5b145b15610454576011850180546003919060ff19166001836103e2565b6040517f70fc772800000000000000000000000000000000000000000000000000000000815260040160405180910390fd5b6001600160a01b0389166000908152602081905260408120557f31079f5404bf31284c3985351ef8eff4247cd77140001bc77841d2ecc855cf6889898660058111156104e257634e487b7160e01b600052602160045260246000fd5b604080516001600160a01b0390941684526020840192909252908201526fffffffffffffffffffffffffffffffff831660608201526080810185905260a0810184905260c00160405180910390a1505050505061053f8282611607565b50505050565b6000610554602083018361291b565b61055e8133611616565b61056b602084018461291b565b600061057682610f4b565b9050610585602086018661291b565b6040516317ba7d8560e01b81527fff9379b98b93eb3bd1fac62fd2258a7955d70d2d5279c40064145b6c9646df3760048201526001600160a01b0391909116906317ba7d859060240160206040518083038186803b1580156105e657600080fd5b505afa1580156105fa573d6000803e3d6000fd5b505050506040513d601f19601f8201168201806040525081019061061e9190612937565b6001600160a01b03166364d6d55a610639602088018861291b565b6040517fffffffff0000000000000000000000000000000000000000000000000000000060e084901b1681526001600160a01b03909116600482015260240160206040518083038186803b15801561069057600080fd5b505afa1580156106a4573d6000803e3d6000fd5b505050506040513d601f19601f820116820180604052508101906106c89190612a61565b6107195760405162461bcd60e51b815260206004820152601060248201527f756e446f6e652050726f706f73616c730000000000000000000000000000000060448201526064015b60405180910390fd5b610726602086018661291b565b6040516317ba7d8560e01b81527fff9379b98b93eb3bd1fac62fd2258a7955d70d2d5279c40064145b6c9646df3760048201526001600160a01b0391909116906317ba7d859060240160206040518083038186803b15801561078757600080fd5b505afa15801561079b573d6000803e3d6000fd5b505050506040513d601f19601f820116820180604052508101906107bf9190612937565b6001600160a01b0316639a0242fc6107da602088018861291b565b6040517fffffffff0000000000000000000000000000000000000000000000000000000060e084901b1681526001600160a01b03909116600482015260240160206040518083038186803b15801561083157600080fd5b505afa158015610845573d6000803e3d6000fd5b505050506040513d601f19601f820116820180604052508101906108699190612a61565b6108b55760405162461bcd60e51b815260206004820152601660248201527f756e446f6e652044616f7365742050726f706f73616c000000000000000000006044820152606401610710565b6108c2602086018661291b565b6001600160a01b031663018e5bea6040518163ffffffff1660e01b8152600401600060405180830381600087803b1580156108fc57600080fd5b505af1158015610910573d6000803e3d6000fd5b50600092506109d691506109299050602088018861291b565b60c01b6109b161093c60208a018a61291b565b6001600160a01b031663419f45b46040518163ffffffff1660e01b815260040160206040518083038186803b15801561097457600080fd5b505afa158015610988573d6000803e3d6000fd5b505050506040513d601f19601f820116820180604052508101906109ac9190612bae565b61166c565b6040516020016109c2929190612d08565b6040516020818303038152906040526117c2565b90506040518061014001604052808760200160208101906109f79190612a45565b15158152602001610a0b6040890189612ffd565b610a159080612fb8565b8080601f016020809104026020016040519081016040528093929190818152602001838380828437600092019190915250505090825250602001610a5c6040890189612ffd565b610a6d906040810190602001612bc6565b60ff168152602001610a826040890189612ffd565b604001358152602001878060400190610a9b9190612ffd565b610aac90608081019060600161291b565b6001600160a01b03168152602001610ac76040890189612ffd565b60800135815260200160405180610120016040528089606001600001358152602001896060016020016020810190610aff9190612bc6565b60ff16815260a08a0135602082015260c08a0135604082015260e08a01356060820152608001610b376101208b016101008c0161291b565b6001600160a01b031681526020018960600160c0013581526020018960600160e0013581526020018960600161010001358152508152602001428152602001876000016020810190610b89919061291b565b604051634941d71d60e11b81527f9876c0f0505bfb2b1c38d3bbd25ba13159172cd0868972d76927723f5a9480fc60048201526001600160a01b039190911690639283ae3a9060240160206040518083038186803b158015610bea57600080fd5b505afa158015610bfe573d6000803e3d6000fd5b505050506040513d601f19601f82011682018060405250810190610c229190612bae565b610c2c904261306e565b81526020016000905260016000610c4660208a018a61291b565b6001600160a01b03168152602080820192909252604090810160009081208582528352208251815460ff19169015151781558282015180519192610c9292600185019290910190612872565b5060408281015160028301805460ff92831660ff19918216179091556060808601516003808701919091556080808801516004880180546001600160a01b039283167fffffffffffffffffffffffff00000000000000000000000000000000000000009182161790915560a0808b015160058b015560c0808c0151805160068d0155602081015160078d01805491909b16908a16179099559888015160088b01559487015160098a015591860151600a89015592850151600b880180549190941691161790915592820151600c85015560e080830151600d86015561010092830151600e860155850151600f8501559084015160108401556101208401516011840180549193909291909116906001908490811115610dc157634e487b7160e01b600052602160045260246000fd5b021790555060009150610dd990506040880188612ffd565b610de79060a0810190612f69565b90501115610e965760005b610dff6040880188612ffd565b610e0d9060a0810190612f69565b90508160ff161015610e9457610e81610e296040890189612ffd565b610e379060a0810190612f69565b8360ff16818110610e5857634e487b7160e01b600052603260045260246000fd5b9050602002016020810190610e6d919061291b565b6000848152600260205260409020906117de565b5080610e8c8161314b565b915050610df2565b505b80600080610ea760208a018a61291b565b6001600160a01b0316815260208082019290925260400160002091909155610edb90610ed59088018861291b565b826117f3565b7fa65d0c07e3b0d876ee52e871c234a4b150b9bf17a08f356f5aeda8d6782cc31a610f09602088018861291b565b826006604051610f1b93929190612d76565b60405180910390a19350610f2f8282611607565b505050919050565b60606000610f4483611a09565b9392505050565b6040805160808101825260008082526020820181905291810182905260608101919091525a81600001818152505043826001600160a01b031663b21634826040518163ffffffff1660e01b815260040160206040518083038186803b158015610fb357600080fd5b505afa158015610fc7573d6000803e3d6000fd5b505050506040513d601f19601f82011682018060405250810190610feb9190612bae565b14156110395760405162461bcd60e51b815260206004820152601060248201527f7265656e7472616e6379206775617264000000000000000000000000000000006044820152606401610710565b816001600160a01b03166310fdb0a26040518163ffffffff1660e01b8152600401600060405180830381600087803b15801561107457600080fd5b505af1158015611088573d6000803e3d6000fd5b50506040517f72c6838f0000000000000000000000000000000000000000000000000000000081527f1f2fd42ad6a6cacd573c4b212beb7a4e2499ad45d742a65337097f130e71daff6004820152600092506001600160a01b03851691506372c6838f9060240160206040518083038186803b15801561110757600080fd5b505afa15801561111b573d6000803e3d6000fd5b505050506040513d601f19601f8201168201806040525081019061113f9190612937565b90506001600160a01b03811661115b5760006020830152611210565b6001600160a01b038181166060840181905283516040517f43a8a3f1000000000000000000000000000000000000000000000000000000008152928616600484015260248301526000918291906343a8a3f190604401604080518083038186803b1580156111c857600080fd5b505afa1580156111dc573d6000803e3d6000fd5b505050506040513d601f19601f820116820180604052508101906112009190612a7d565b9015156020860152604085015250505b50919050565b600080600080856001600160a01b03166330490e91866040518263ffffffff1660e01b815260040161124a91815260200190565b600060405180830381600087803b15801561126457600080fd5b505af1158015611278573d6000803e3d6000fd5b50506040516317ba7d8560e01b81527f0d479c38716a0298633b1dbf1ce145a3fbd1d79ca4527de172afc3bad04a2ba76004820152600092506001600160a01b03891691506317ba7d859060240160206040518083038186803b1580156112de57600080fd5b505afa1580156112f2573d6000803e3d6000fd5b505050506040513d601f19601f820116820180604052508101906113169190612937565b90506001600160a01b03811661136e5760405162461bcd60e51b815260206004820152600f60248201527f21766f74696e67436f6e747261637400000000000000000000000000000000006044820152606401610710565b6040517f76225e730000000000000000000000000000000000000000000000000000000081526001600160a01b0388811660048301526024820188905260009182918291908516906376225e7390604401606060405180830381600087803b1580156113d957600080fd5b505af11580156113ed573d6000803e3d6000fd5b505050506040513d601f19601f820116820180604052508101906114119190612b0c565b92509250925060006114238b8b611a65565b939b929a50909850919650945050505050565b6040516317ba7d8560e01b81527fff9379b98b93eb3bd1fac62fd2258a7955d70d2d5279c40064145b6c9646df3760048201526000906001600160a01b038516906317ba7d859060240160206040518083038186803b15801561149857600080fd5b505afa1580156114ac573d6000803e3d6000fd5b505050506040513d601f19601f820116820180604052508101906114d09190612937565b604080516101208101825260068501548152600785015460ff90811660208084019190915260088701548385015260098701546060840152600a8701546080840152600c87015460a084015260028088015490921660c0840152600387015460e0840152600587015461010084015283518085018552600b8801546001600160a01b039081168252600489015481168284015260008a81529390925293909120939450841692638bf209e09288929161158890610f37565b87546040517fffffffff0000000000000000000000000000000000000000000000000000000060e088901b1681526115cf959493929160ff169060018b0190600401612e94565b600060405180830381600087803b1580156115e957600080fd5b505af11580156115fd573d6000803e3d6000fd5b5050505050505050565b611612828233611d25565b5050565b611620828261029b565b6116125760405162461bcd60e51b815260206004820152600c60248201527f6f6e6c79476f7665726e6f7200000000000000000000000000000000000000006044820152606401610710565b6060816116ac57505060408051808201909152600181527f3000000000000000000000000000000000000000000000000000000000000000602082015290565b8160005b81156116d657806116c081613112565b91506116cf9050600a83613086565b91506116b0565b60008167ffffffffffffffff8111156116ff57634e487b7160e01b600052604160045260246000fd5b6040519080825280601f01601f191660200182016040528015611729576020820181803683370190505b5090505b84156117ba5761173e60018361309a565b915061174b600a8661316b565b61175690603061306e565b60f81b81838151811061177957634e487b7160e01b600052603260045260246000fd5b60200101907effffffffffffffffffffffffffffffffffffffffffffffffffffffffffffff1916908160001a9053506117b3600a86613086565b945061172d565b949350505050565b60008151600014156117d657506000919050565b506020015190565b6000610331836001600160a01b038416611e16565b6040517fb73dc389000000000000000000000000000000000000000000000000000000008152600481018290526001600160a01b0383169063b73dc38990602401600060405180830381600087803b15801561184e57600080fd5b505af1158015611862573d6000803e3d6000fd5b50506040516317ba7d8560e01b81527f0d479c38716a0298633b1dbf1ce145a3fbd1d79ca4527de172afc3bad04a2ba76004820152600092506001600160a01b03851691506317ba7d859060240160206040518083038186803b1580156118c857600080fd5b505afa1580156118dc573d6000803e3d6000fd5b505050506040513d601f19601f820116820180604052508101906119009190612937565b604080516020810182526000815290517f2b0974d00000000000000000000000000000000000000000000000000000000081529192506001600160a01b03831691632b0974d0916119579187918791600401612f38565b600060405180830381600087803b15801561197157600080fd5b505af1158015611985573d6000803e3d6000fd5b50506040517f815a2bf4000000000000000000000000000000000000000000000000000000008152600481018590526001600160a01b0384811660248301528616925063815a2bf49150604401600060405180830381600087803b1580156119ec57600080fd5b505af1158015611a00573d6000803e3d6000fd5b50505050505050565b606081600001805480602002602001604051908101604052809291908181526020018280548015611a5957602002820191906000526020600020905b815481526020019060010190808311611a45575b50505050509050919050565b600080611a7184611e65565b6040516317ba7d8560e01b81527f0d479c38716a0298633b1dbf1ce145a3fbd1d79ca4527de172afc3bad04a2ba7600482015290915060009081906001600160a01b038716906317ba7d859060240160206040518083038186803b158015611ad857600080fd5b505afa158015611aec573d6000803e3d6000fd5b505050506040513d601f19601f82011682018060405250810190611b109190612937565b905060005b83518160ff161015611d1a57816001600160a01b03166324a2cceb8888878560ff1681518110611b5557634e487b7160e01b600052603260045260246000fd5b60200260200101516040518463ffffffff1660e01b8152600401611b99939291906001600160a01b0393841681526020810192909252909116604082015260600190565b60206040518083038186803b158015611bb157600080fd5b505afa158015611bc5573d6000803e3d6000fd5b505050506040513d601f19601f82011682018060405250810190611be99190612a61565b15611cc757816001600160a01b03166391d2fd538888878560ff1681518110611c2257634e487b7160e01b600052603260045260246000fd5b60200260200101516040518463ffffffff1660e01b8152600401611c66939291906001600160a01b0393841681526020810192909252909116604082015260600190565b60206040518083038186803b158015611c7e57600080fd5b505afa158015611c92573d6000803e3d6000fd5b505050506040513d601f19601f82011682018060405250810190611cb69190612b7e565b611cc0908461303a565b9250611d08565b611cfb87858360ff1681518110611cee57634e487b7160e01b600052603260045260246000fd5b6020026020010151611edc565b611d05908461303a565b92505b80611d128161314b565b915050611b15565b509095945050505050565b816020015115611ddb5781606001516001600160a01b0316635e5eb01384835a8651611d51919061309a565b60408088015190517fffffffff0000000000000000000000000000000000000000000000000000000060e087901b1681526001600160a01b03948516600482015293909216602484015260448301526064820152608401600060405180830381600087803b158015611dc257600080fd5b505af1158015611dd6573d6000803e3d6000fd5b505050505b826001600160a01b031663d4f7af436040518163ffffffff1660e01b8152600401600060405180830381600087803b1580156119ec57600080fd5b6000818152600183016020526040812054611e5d57508154600181810184556000848152602080822090930184905584548482528286019093526040902091909155610334565b506000610334565b6060816001600160a01b031663a6f636416040518163ffffffff1660e01b815260040160006040518083038186803b158015611ea057600080fd5b505afa158015611eb4573d6000803e3d6000fd5b505050506040513d6000823e601f3d908101601f19168201604052610334919081019061297e565b604051634941d71d60e11b81527f75b7d343967750d1f6c15979b7559cea8be22ff1a06a51681b9cbef0d2fff4fe600482015260009081906001600160a01b03851690639283ae3a9060240160206040518083038186803b158015611f4057600080fd5b505afa158015611f54573d6000803e3d6000fd5b505050506040513d601f19601f82011682018060405250810190611f789190612bae565b604051634941d71d60e11b81527f18ef0b57fe939edb640a200fdf533493bd8f26a274151543a109b64c857e20f360048201529091506000906001600160a01b03861690639283ae3a9060240160206040518083038186803b158015611fdd57600080fd5b505afa158015611ff1573d6000803e3d6000fd5b505050506040513d601f19601f820116820180604052508101906120159190612bae565b6040516317ba7d8560e01b81527f37cbe06c1044f98864ea25736326bc1d488e24e5e23781ea2ad64c4069cb9e6e60048201529091506000906001600160a01b038716906317ba7d859060240160206040518083038186803b15801561207a57600080fd5b505afa15801561208e573d6000803e3d6000fd5b505050506040513d601f19601f820116820180604052508101906120b29190612937565b604051634941d71d60e11b81527f77b1580d1632c74a32483c26a7156260a89ae4138b020ea7d09b0dcf24f1ea2460048201529091506000906001600160a01b03881690639283ae3a9060240160206040518083038186803b15801561211757600080fd5b505afa15801561212b573d6000803e3d6000fd5b505050506040513d601f19601f8201168201806040525081019061214f9190612bae565b6040517ffd310d290000000000000000000000000000000000000000000000000000000081527fb5a1ad3f04728d7c38547e3d43006a1ec090a02fce04bbb1d0ee4519a1921e5760048201529091506000906001600160a01b0389169063fd310d299060240160206040518083038186803b1580156121cd57600080fd5b505afa1580156121e1573d6000803e3d6000fd5b505050506040513d601f19601f820116820180604052508101906122059190612937565b90508360011415612422576000856122ac576040516370a0823160e01b81526001600160a01b038981166004830152670de0b6b3a764000091908416906370a082319060240160206040518083038186803b15801561226357600080fd5b505afa158015612277573d6000803e3d6000fd5b505050506040513d601f19601f8201168201806040525081019061229b9190612bae565b6122a59190613086565b90506123b9565b856001141561232f576040516370a0823160e01b81526001600160a01b0389811660048301528316906370a08231906024015b60206040518083038186803b1580156122f757600080fd5b505afa15801561230b573d6000803e3d6000fd5b505050506040513d601f19601f820116820180604052508101906122a59190612bae565b856002141561236b57604051627eeac760e11b81526001600160a01b0389811660048301526024820185905283169062fdd58e906044016122df565b85600314156123aa576040516329b6517360e21b81526001600160a01b038a81166004830152898116602483015285169063a6d945cc906044016122df565b60009650505050505050610334565b600081116123d05760009650505050505050610334565b677fffffffffffffff81106123ee5760329650505050505050610334565b60006124096124046123ff84612741565b61275f565b612856565b67ffffffffffffffff1697506103349650505050505050565b8360021415612594576000856124c9576040516370a0823160e01b81526001600160a01b038981166004830152600091908416906370a08231906024015b60206040518083038186803b15801561247857600080fd5b505afa15801561248c573d6000803e3d6000fd5b505050506040513d601f19601f820116820180604052508101906124b09190612bae565b116124bc5760006124bf565b60015b60ff169050612587565b8560011415612504576040516370a0823160e01b81526001600160a01b038981166004830152600091908416906370a0823190602401612460565b856002141561254457604051627eeac760e11b81526001600160a01b038981166004830152602482018590526000919084169062fdd58e90604401612460565b85600314156123aa576040516329b6517360e21b81526001600160a01b038a8116600483015289811660248301526000919086169063a6d945cc90604401612460565b9550610334945050505050565b8361273357600085612635576040516370a0823160e01b81526001600160a01b038981166004830152670de0b6b3a764000091908416906370a082319060240160206040518083038186803b1580156125ec57600080fd5b505afa158015612600573d6000803e3d6000fd5b505050506040513d601f19601f820116820180604052508101906126249190612bae565b61262e9190613086565b9050612587565b85600114156126b8576040516370a0823160e01b81526001600160a01b0389811660048301528316906370a08231906024015b60206040518083038186803b15801561268057600080fd5b505afa158015612694573d6000803e3d6000fd5b505050506040513d601f19601f8201168201806040525081019061262e9190612bae565b85600214156126f457604051627eeac760e11b81526001600160a01b0389811660048301526024820185905283169062fdd58e90604401612668565b85600314156123aa576040516329b6517360e21b81526001600160a01b038a81166004830152898116602483015285169063a6d945cc90604401612668565b600095505050505050610334565b6000677fffffffffffffff82111561275857600080fd5b5060401b90565b60008082600f0b1361277057600080fd5b6000600f83900b68010000000000000000811261278f576040918201911d5b64010000000081126127a3576020918201911d5b6201000081126127b5576010918201911d5b61010081126127c6576008918201911d5b601081126127d6576004918201911d5b600481126127e6576002918201911d5b600281126127f5576001820191505b7fffffffffffffffffffffffffffffffffffffffffffffffffffffffffffffffc0820160401b600f85900b607f8490031b6780000000000000005b6000811315611d1a5790800260ff81901c8281029390930192607f011c9060011d612830565b60008082600f0b121561286857600080fd5b50600f0b60401d90565b82805461287e906130dd565b90600052602060002090601f0160209004810192826128a057600085556128e6565b82601f106128b957805160ff19168380011785556128e6565b828001600101855582156128e6579182015b828111156128e65782518255916020019190600101906128cb565b506128f29291506128f6565b5090565b5b808211156128f257600081556001016128f7565b8051612916816131d7565b919050565b60006020828403121561292c578081fd5b8135610f44816131d7565b600060208284031215612948578081fd5b8151610f44816131d7565b60008060408385031215612965578081fd5b8235612970816131d7565b946020939093013593505050565b60006020808385031215612990578182fd5b825167ffffffffffffffff808211156129a7578384fd5b818501915085601f8301126129ba578384fd5b8151818111156129cc576129cc6131c1565b8060051b604051601f19603f830116810181811085821117156129f1576129f16131c1565b604052828152858101935084860182860187018a1015612a0f578788fd5b8795505b83861015612a3857612a248161290b565b855260019590950194938601938601612a13565b5098975050505050505050565b600060208284031215612a56578081fd5b8135610f44816131ef565b600060208284031215612a72578081fd5b8151610f44816131ef565b60008060408385031215612a8f578182fd5b8251612a9a816131ef565b6020939093015192949293505050565b600060208284031215612abb578081fd5b5035919050565b60008060408385031215612ad4578182fd5b8235612adf816131d7565b91506020830135612aef816131d7565b809150509250929050565b60008060408385031215612965578182fd5b600080600060608486031215612b20578081fd5b835160068110612b2e578182fd5b602085015160409095015190969495509392505050565b600060208284031215612b56578081fd5b813567ffffffffffffffff811115612b6c578182fd5b82016101808185031215610f44578182fd5b600060208284031215612b8f578081fd5b81516fffffffffffffffffffffffffffffffff81168114610f44578182fd5b600060208284031215612bbf578081fd5b5051919050565b600060208284031215612bd7578081fd5b813560ff81168114610f44578182fd5b6000815180845260208085019450808401835b83811015612c1f5781516001600160a01b031687529582019590820190600101612bfa565b509495945050505050565b60008151808452612c428160208601602086016130b1565b601f01601f19169290920160200192915050565b60048110612c6657612c666131ab565b9052565b8054600090600181811c9080831680612c8457607f831692505b6020808410821415612ca457634e487b7160e01b86526022600452602486fd5b83885260208801828015612cbf5760018114612cd057612cfb565b60ff19871682528282019750612cfb565b60008981526020902060005b87811015612cf557815484820152908601908401612cdc565b83019850505b5050505050505092915050565b7fffffffffffffffff000000000000000000000000000000000000000000000000831681527f506f6c6c20466f7220496e766573746d656e7420230000000000000000000000600882015260008251612d6881601d8501602087016130b1565b91909101601d019392505050565b6001600160a01b0384168152602081018390526060810160078310612d9d57612d9d6131ab565b826040830152949350505050565b6020815260006103316020830184612be7565b60006102408c15158352806020840152612dda8184018d612c2a565b91505060ff8a1660408301528860608301526001600160a01b0380891660808401528760a0840152865160c084015260ff60208801511660e084015260408701516101008181860152606089015161012086015260808901516101408601528260a08a01511661016086015260c089015161018086015260e08901516101a0860152808901516101c0860152505050846101e083015283610200830152612e85610220830184612c56565b9b9a5050505050505050505050565b60006101e06001600160a01b03808a16845260208085018a855b6009811015612ecb57815183529183019190830190600101612eae565b505050610140850189855b6002811015612ef5578151851683529183019190830190600101612ed6565b505050505080610180840152612f0d81840187612be7565b8515156101a085015290508281036101c0840152612f2b8185612c6a565b9998505050505050505050565b6001600160a01b0384168152826020820152606060408201526000612f606060830184612c2a565b95945050505050565b6000808335601e19843603018112612f7f578283fd5b83018035915067ffffffffffffffff821115612f99578283fd5b6020019150600581901b3603821315612fb157600080fd5b9250929050565b6000808335601e19843603018112612fce578182fd5b83018035915067ffffffffffffffff821115612fe8578283fd5b602001915036819003821315612fb157600080fd5b600082357fffffffffffffffffffffffffffffffffffffffffffffffffffffffffffffff41833603018112613030578182fd5b9190910192915050565b60006fffffffffffffffffffffffffffffffff8083168185168083038211156130655761306561317f565b01949350505050565b600082198211156130815761308161317f565b500190565b60008261309557613095613195565b500490565b6000828210156130ac576130ac61317f565b500390565b60005b838110156130cc5781810151838201526020016130b4565b8381111561053f5750506000910152565b600181811c908216806130f157607f821691505b6020821081141561121057634e487b7160e01b600052602260045260246000fd5b60007fffffffffffffffffffffffffffffffffffffffffffffffffffffffffffffffff8214156131445761314461317f565b5060010190565b600060ff821660ff8114156131625761316261317f565b60010192915050565b60008261317a5761317a613195565b500690565b634e487b7160e01b600052601160045260246000fd5b634e487b7160e01b600052601260045260246000fd5b634e487b7160e01b600052602160045260246000fd5b634e487b7160e01b600052604160045260246000fd5b6001600160a01b03811681146131ec57600080fd5b50565b80151581146131ec57600080fdfea2646970667358221220bd57459ac634250d202a0cadbe826179827edd5e47a3e5840e9c01232376925964736f6c63430008040033",
  "linkReferences": {},
  "deployedLinkReferences": {}
}