{
  "_format": "hh-sol-artifact-1",
  "contractName": "ColletiveFundingPoolContract",
  "sourceName": "contracts/collective/adapters/CollectiveFundingPoolAdapter.sol",
  "abi": [
    {
      "inputs": [],
      "name": "MAX_PATICIPANT_AMOUNT_REACH",
      "type": "error"
    },
    {
      "anonymous": false,
      "inputs": [
        {
          "indexed": false,
          "internalType": "address",
          "name": "daoAddress",
          "type": "address"
        },
        {
          "indexed": false,
          "internalType": "uint256",
          "name": "amount",
          "type": "uint256"
        },
        {
          "indexed": false,
          "internalType": "address",
          "name": "account",
          "type": "address"
        }
      ],
      "name": "Deposit",
      "type": "event"
    },
    {
      "anonymous": false,
      "inputs": [
        {
          "indexed": false,
          "internalType": "address",
          "name": "daoAddress",
          "type": "address"
        },
        {
          "indexed": false,
          "internalType": "address",
          "name": "account",
          "type": "address"
        },
        {
          "indexed": false,
          "internalType": "uint256",
          "name": "amount",
          "type": "uint256"
        },
        {
          "indexed": false,
          "internalType": "uint256",
          "name": "redemptionFee",
          "type": "uint256"
        }
      ],
      "name": "RedeptionFeeCharged",
      "type": "event"
    },
    {
      "anonymous": false,
      "inputs": [
        {
          "indexed": false,
          "internalType": "address",
          "name": "daoAddress",
          "type": "address"
        },
        {
          "indexed": false,
          "internalType": "uint256",
          "name": "amount",
          "type": "uint256"
        },
        {
          "indexed": false,
          "internalType": "address",
          "name": "account",
          "type": "address"
        }
      ],
      "name": "WithDraw",
      "type": "event"
    },
    {
      "inputs": [
        {
          "internalType": "contract DaoRegistry",
          "name": "dao",
          "type": "address"
        },
        {
          "internalType": "address",
          "name": "investorAddr",
          "type": "address"
        }
      ],
      "name": "balanceOf",
      "outputs": [
        {
          "internalType": "uint256",
          "name": "",
          "type": "uint256"
        }
      ],
      "stateMutability": "view",
      "type": "function"
    },
    {
      "inputs": [
        {
          "internalType": "contract DaoRegistry",
          "name": "dao",
          "type": "address"
        },
        {
          "internalType": "uint256",
          "name": "amount",
          "type": "uint256"
        }
      ],
      "name": "deposit",
      "outputs": [],
      "stateMutability": "nonpayable",
      "type": "function"
    },
    {
      "inputs": [
        {
          "internalType": "contract DaoRegistry",
          "name": "dao",
          "type": "address"
        },
        {
          "internalType": "uint256",
          "name": "timestamp",
          "type": "uint256"
        }
      ],
      "name": "ifInRedemptionPeriod",
      "outputs": [
        {
          "internalType": "bool",
          "name": "",
          "type": "bool"
        }
      ],
      "stateMutability": "view",
      "type": "function"
    },
    {
      "inputs": [
        {
          "internalType": "contract DaoRegistry",
          "name": "dao",
          "type": "address"
        }
      ],
      "name": "poolBalance",
      "outputs": [
        {
          "internalType": "uint256",
          "name": "",
          "type": "uint256"
        }
      ],
      "stateMutability": "view",
      "type": "function"
    },
    {
      "inputs": [
        {
          "internalType": "contract DaoRegistry",
          "name": "dao",
          "type": "address"
        },
        {
          "internalType": "uint256",
          "name": "amount",
          "type": "uint256"
        }
      ],
      "name": "withdraw",
      "outputs": [],
      "stateMutability": "nonpayable",
      "type": "function"
    }
  ],
  "bytecode": "0x608060405234801561001057600080fd5b50611bc9806100206000396000f3fe608060405234801561001057600080fd5b50600436106100675760003560e01c806368abb5e01161005057806368abb5e0146100ac578063f3fef3a3146100cd578063f7888aec146100e057600080fd5b80633a844ec01461006c57806347e7ef2414610097575b600080fd5b61008261007a366004611ada565b600092915050565b60405190151581526020015b60405180910390f35b6100aa6100a5366004611ada565b6100f3565b005b6100bf6100ba366004611a86565b610e37565b60405190815260200161008e565b6100aa6100db366004611ada565b610f56565b6100bf6100ee366004611aa2565b6114d5565b8160006100ff826115f6565b9050600083116101565760405162461bcd60e51b815260206004820152600760248201527f21616d6f756e740000000000000000000000000000000000000000000000000060448201526064015b60405180910390fd5b6101916040518060a001604052806000815260200160008152602001600081526020016000815260200160006001600160a01b031681525090565b604051634941d71d60e11b81527f5fa39c8100b49336846e52d39403e353bf782275f905a885f09224779ff1c92460048201526001600160a01b03861690639283ae3a9060240160206040518083038186803b1580156101f057600080fd5b505afa158015610204573d6000803e3d6000fd5b505050506040513d601f19601f820116820180604052508101906102289190611b05565b8152604051634941d71d60e11b81527fbdd40865e74210f0a46799ae63462c62010da92014a08cbc32f1d049d0a22c6b60048201526001600160a01b03861690639283ae3a9060240160206040518083038186803b15801561028957600080fd5b505afa15801561029d573d6000803e3d6000fd5b505050506040513d601f19601f820116820180604052508101906102c19190611b05565b6020820152604051634941d71d60e11b81527f7e07fb4530796d057ca1d76d83f47aa8629dbb7e942ac28f30ad6f5e9e8d418960048201526001600160a01b03861690639283ae3a9060240160206040518083038186803b15801561032557600080fd5b505afa158015610339573d6000803e3d6000fd5b505050506040513d601f19601f8201168201806040525081019061035d9190611b05565b60408201526020810151156103c05780602001518410156103c05760405162461bcd60e51b815260206004820152601460248201527f3c206d696e206465706f73697420616d6f756e74000000000000000000000000604482015260640161014d565b80511561042b5780516103d386336114d5565b6103dd9086611b1d565b111561042b5760405162461bcd60e51b815260206004820152601460248201527f3e206d6178206465706f73697420616d6f756e74000000000000000000000000604482015260640161014d565b604051634941d71d60e11b81527fbd04d44792b7dbfe3b50b0f9f2006f7ef449e374a39021cb9bfa7cd0bdd850d7600482015242906001600160a01b03871690639283ae3a9060240160206040518083038186803b15801561048c57600080fd5b505afa1580156104a0573d6000803e3d6000fd5b505050506040513d601f19601f820116820180604052508101906104c49190611b05565b1080156105675750604051634941d71d60e11b81527f533afc15b6312917b5e28e2272ea69d44e5ea8e00d3bd57cada1275c2f14c9e8600482015242906001600160a01b03871690639283ae3a9060240160206040518083038186803b15801561052d57600080fd5b505afa158015610541573d6000803e3d6000fd5b505050506040513d601f19601f820116820180604052508101906105659190611b05565b115b6105b35760405162461bcd60e51b815260206004820152601360248201527f2166756e6472616973696e672077696e646f7700000000000000000000000000604482015260640161014d565b604051634941d71d60e11b81527fbe07eea886ce63e8ab49ef6fd986e9dea247fbb31da43dd1df3e153cc548277a60048201526001600160a01b03861690639283ae3a9060240160206040518083038186803b15801561061257600080fd5b505afa158015610626573d6000803e3d6000fd5b505050506040513d601f19601f8201168201806040525081019061064a9190611b05565b15801561065b575060008160400151115b156106c75780604001518461066f87610e37565b6106799190611b1d565b11156106c75760405162461bcd60e51b815260206004820152601660248201527f3e2046756e647261697365206d617820616d6f756e7400000000000000000000604482015260640161014d565b604051632c9f4b5b60e11b81527f3909e87234f428ccb8748126e2c93f66a62f92a70d315fa5803dec6362be07ab60048201526001600160a01b0386169063593e96b69060240160206040518083038186803b15801561072657600080fd5b505afa15801561073a573d6000803e3d6000fd5b505050506040513d601f19601f8201168201806040525081019061075e9190611a25565b6001600160a01b0316608082015260608101805160019190610781908390611b1d565b905250604051634941d71d60e11b81527f69f4ffb3ebcb7809550bddd3e4d449a47e737bf6635bc7a730996643997b0e4860048201526001600160a01b03861690639283ae3a9060240160206040518083038186803b1580156107e357600080fd5b505afa1580156107f7573d6000803e3d6000fd5b505050506040513d601f19601f8201168201806040525081019061081b9190611b05565b60011480156108ed5750604051634941d71d60e11b81527fecbde689cc6337d29a750b8b8a8abbfa97427b4ac800ab55be2f2c87311510f260048201526001600160a01b03861690639283ae3a9060240160206040518083038186803b15801561088457600080fd5b505afa158015610898573d6000803e3d6000fd5b505050506040513d601f19601f820116820180604052508101906108bc9190611b05565b6001600160a01b0386166000908152602081815260408083206060860151845290915290206108ea906118c1565b10155b801561092557506001600160a01b03851660009081526020818152604080832060608501518452909152902061092390336118d1565b155b1561095c576040517ffa088e8a00000000000000000000000000000000000000000000000000000000815260040160405180910390fd5b600081608001516001600160a01b031663a87af66c6040518163ffffffff1660e01b815260040160206040518083038186803b15801561099b57600080fd5b505afa1580156109af573d6000803e3d6000fd5b505050506040513d601f19601f820116820180604052508101906109d39190611a25565b6040516370a0823160e01b815233600482015290915085906001600160a01b038316906370a082319060240160206040518083038186803b158015610a1757600080fd5b505afa158015610a2b573d6000803e3d6000fd5b505050506040513d601f19601f82011682018060405250810190610a4f9190611b05565b1015610a9d5760405162461bcd60e51b815260206004820152600560248201527f2166756e64000000000000000000000000000000000000000000000000000000604482015260640161014d565b6040517fdd62ed3e00000000000000000000000000000000000000000000000000000000815233600482015230602482015285906001600160a01b0383169063dd62ed3e9060440160206040518083038186803b158015610afd57600080fd5b505afa158015610b11573d6000803e3d6000fd5b505050506040513d601f19601f82011682018060405250810190610b359190611b05565b1015610b835760405162461bcd60e51b815260206004820152600a60248201527f21616c6c6f77616e636500000000000000000000000000000000000000000000604482015260640161014d565b6040517f23b872dd000000000000000000000000000000000000000000000000000000008152336004820152306024820152604481018690526001600160a01b038216906323b872dd90606401602060405180830381600087803b158015610bea57600080fd5b505af1158015610bfe573d6000803e3d6000fd5b505050506040513d601f19601f82011682018060405250810190610c229190611a41565b50604051632c9f4b5b60e11b81527f161fca6912f107b0f13c9c7275de7391b32d2ea1c52ffba65a3c961880a0c60f60048201526001600160a01b038083169163095ea7b39189169063593e96b69060240160206040518083038186803b158015610c8c57600080fd5b505afa158015610ca0573d6000803e3d6000fd5b505050506040513d601f19601f82011682018060405250810190610cc49190611a25565b6040517fffffffff0000000000000000000000000000000000000000000000000000000060e084901b1681526001600160a01b03909116600482015260248101889052604401602060405180830381600087803b158015610d2457600080fd5b505af1158015610d38573d6000803e3d6000fd5b505050506040513d601f19601f82011682018060405250810190610d5c9190611a41565b5060808201516040517fb08079a6000000000000000000000000000000000000000000000000000000008152336004820152602481018790526001600160a01b039091169063b08079a690604401600060405180830381600087803b158015610dc457600080fd5b505af1158015610dd8573d6000803e3d6000fd5b5050604080516001600160a01b038a16815260208101899052338183015290517fe31c7b8d08ee7db0afa68782e1028ef92305caeea8626633ad44d413e30f6b2f9350908190036060019150a15050610e3182826118f3565b50505050565b604051632c9f4b5b60e11b81527f3909e87234f428ccb8748126e2c93f66a62f92a70d315fa5803dec6362be07ab600482015260009081906001600160a01b0384169063593e96b69060240160206040518083038186803b158015610e9b57600080fd5b505afa158015610eaf573d6000803e3d6000fd5b505050506040513d601f19601f82011682018060405250810190610ed39190611a25565b6040516370a0823160e01b815261decd60048201529091506001600160a01b038216906370a082319060240160206040518083038186803b158015610f1757600080fd5b505afa158015610f2b573d6000803e3d6000fd5b505050506040513d601f19601f82011682018060405250810190610f4f9190611b05565b9392505050565b816000610f62826115f6565b604051634941d71d60e11b81527f533afc15b6312917b5e28e2272ea69d44e5ea8e00d3bd57cada1275c2f14c9e860048201529091506001600160a01b03851690639283ae3a9060240160206040518083038186803b158015610fc457600080fd5b505afa158015610fd8573d6000803e3d6000fd5b505050506040513d601f19601f82011682018060405250810190610ffc9190611b05565b4210801561109f5750604051634941d71d60e11b81527fbd04d44792b7dbfe3b50b0f9f2006f7ef449e374a39021cb9bfa7cd0bdd850d760048201526001600160a01b03851690639283ae3a9060240160206040518083038186803b15801561106457600080fd5b505afa158015611078573d6000803e3d6000fd5b505050506040513d601f19601f8201168201806040525081019061109c9190611b05565b42115b806110a8575060005b806111485750604051634941d71d60e11b81527f9ce69cf04065e3c7823cc5540c0598d8a694bd7a9a5a2a786d8bccf14ed6e2ea60048201526001600160a01b03851690639283ae3a9060240160206040518083038186803b15801561110d57600080fd5b505afa158015611121573d6000803e3d6000fd5b505050506040513d601f19601f820116820180604052508101906111459190611b05565b42115b6111945760405162461bcd60e51b815260206004820152600960248201527f2177697468647261770000000000000000000000000000000000000000000000604482015260640161014d565b604051632c9f4b5b60e11b81527f3909e87234f428ccb8748126e2c93f66a62f92a70d315fa5803dec6362be07ab60048201526000906001600160a01b0386169063593e96b69060240160206040518083038186803b1580156111f657600080fd5b505afa15801561120a573d6000803e3d6000fd5b505050506040513d601f19601f8201168201806040525081019061122e9190611a25565b90506000816001600160a01b031663a87af66c6040518163ffffffff1660e01b815260040160206040518083038186803b15801561126b57600080fd5b505afa15801561127f573d6000803e3d6000fd5b505050506040513d601f19601f820116820180604052508101906112a39190611a25565b905060006112b187336114d5565b9050600086116113035760405162461bcd60e51b815260206004820152600760248201527f21616d6f756e7400000000000000000000000000000000000000000000000000604482015260640161014d565b808611156113535760405162461bcd60e51b815260206004820152600860248201527f3e62616c616e6365000000000000000000000000000000000000000000000000604482015260640161014d565b60006001600160a01b03841663d9caed123385611370858c611b35565b6040517fffffffff0000000000000000000000000000000000000000000000000000000060e086901b1681526001600160a01b0393841660048201529290911660248301526044820152606401600060405180830381600087803b1580156113d757600080fd5b505af11580156113eb573d6000803e3d6000fd5b50506040517fe3a05cc10000000000000000000000000000000000000000000000000000000081523360048201526001600160a01b038681166024830152604482018b90528716925063e3a05cc19150606401600060405180830381600087803b15801561145857600080fd5b505af115801561146c573d6000803e3d6000fd5b505050507fd432fbc5f79eaeefd01acbebd76cf4b0d5f43d8372c2fd3e23761c06a60a75f188828961149e9190611b35565b604080516001600160a01b0390931683526020830191909152339082015260600160405180910390a150505050610e3182826118f3565b604051632c9f4b5b60e11b81527f161fca6912f107b0f13c9c7275de7391b32d2ea1c52ffba65a3c961880a0c60f600482015260009081906001600160a01b0385169063593e96b69060240160206040518083038186803b15801561153957600080fd5b505afa15801561154d573d6000803e3d6000fd5b505050506040513d601f19601f820116820180604052508101906115719190611a25565b6040516370a0823160e01b81526001600160a01b038581166004830152919250908216906370a082319060240160206040518083038186803b1580156115b657600080fd5b505afa1580156115ca573d6000803e3d6000fd5b505050506040513d601f19601f820116820180604052508101906115ee9190611b05565b949350505050565b6040805160808101825260008082526020820181905291810182905260608101919091525a81600001818152505043826001600160a01b031663b21634826040518163ffffffff1660e01b815260040160206040518083038186803b15801561165e57600080fd5b505afa158015611672573d6000803e3d6000fd5b505050506040513d601f19601f820116820180604052508101906116969190611b05565b14156116e45760405162461bcd60e51b815260206004820152601060248201527f7265656e7472616e637920677561726400000000000000000000000000000000604482015260640161014d565b816001600160a01b03166310fdb0a26040518163ffffffff1660e01b8152600401600060405180830381600087803b15801561171f57600080fd5b505af1158015611733573d6000803e3d6000fd5b50506040517f72c6838f0000000000000000000000000000000000000000000000000000000081527f1f2fd42ad6a6cacd573c4b212beb7a4e2499ad45d742a65337097f130e71daff6004820152600092506001600160a01b03851691506372c6838f9060240160206040518083038186803b1580156117b257600080fd5b505afa1580156117c6573d6000803e3d6000fd5b505050506040513d601f19601f820116820180604052508101906117ea9190611a25565b90506001600160a01b03811661180657600060208301526118bb565b6001600160a01b038181166060840181905283516040517f43a8a3f1000000000000000000000000000000000000000000000000000000008152928616600484015260248301526000918291906343a8a3f190604401604080518083038186803b15801561187357600080fd5b505afa158015611887573d6000803e3d6000fd5b505050506040513d601f19601f820116820180604052508101906118ab9190611a5b565b9015156020860152604085015250505b50919050565b60006118cb825490565b92915050565b6001600160a01b03811660009081526001830160205260408120541515610f4f565b6118fe828233611902565b5050565b8160200151156119b85781606001516001600160a01b0316635e5eb01384835a865161192e9190611b35565b60408088015190517fffffffff0000000000000000000000000000000000000000000000000000000060e087901b1681526001600160a01b03948516600482015293909216602484015260448301526064820152608401600060405180830381600087803b15801561199f57600080fd5b505af11580156119b3573d6000803e3d6000fd5b505050505b826001600160a01b031663d4f7af436040518163ffffffff1660e01b8152600401600060405180830381600087803b1580156119f357600080fd5b505af1158015611a07573d6000803e3d6000fd5b50505050505050565b80518015158114611a2057600080fd5b919050565b600060208284031215611a36578081fd5b8151610f4f81611b7b565b600060208284031215611a52578081fd5b610f4f82611a10565b60008060408385031215611a6d578081fd5b611a7683611a10565b9150602083015190509250929050565b600060208284031215611a97578081fd5b8135610f4f81611b7b565b60008060408385031215611ab4578182fd5b8235611abf81611b7b565b91506020830135611acf81611b7b565b809150509250929050565b60008060408385031215611aec578182fd5b8235611af781611b7b565b946020939093013593505050565b600060208284031215611b16578081fd5b5051919050565b60008219821115611b3057611b30611b4c565b500190565b600082821015611b4757611b47611b4c565b500390565b7f4e487b7100000000000000000000000000000000000000000000000000000000600052601160045260246000fd5b6001600160a01b0381168114611b9057600080fd5b5056fea2646970667358221220f18ed2fb17bcd3b892fb6fcd9227a9e6e547faec7e136a0b660d1352c04d484064736f6c63430008040033",
  "linkReferences": {},
  "deployedLinkReferences": {}
}