{
  "_format": "hh-sol-artifact-1",
  "contractName": "ColletiveFundingPoolAdapterContract",
  "sourceName": "contracts/collective/adapters/CollectiveFundingPoolAdapter.sol",
  "abi": [
    {
      "inputs": [],
      "name": "MAX_PATICIPANT_AMOUNT_REACH",
      "type": "error"
    },
    {
      "anonymous": false,
      "inputs": [
        {
          "indexed": false,
          "internalType": "address",
          "name": "daoAddress",
          "type": "address"
        },
        {
          "indexed": false,
          "internalType": "uint256",
          "name": "amount",
          "type": "uint256"
        },
        {
          "indexed": false,
          "internalType": "address",
          "name": "account",
          "type": "address"
        }
      ],
      "name": "Deposit",
      "type": "event"
    },
    {
      "anonymous": false,
      "inputs": [
        {
          "indexed": false,
          "internalType": "address",
          "name": "daoAddress",
          "type": "address"
        },
        {
          "indexed": false,
          "internalType": "address",
          "name": "account",
          "type": "address"
        },
        {
          "indexed": false,
          "internalType": "uint256",
          "name": "receivedAmount",
          "type": "uint256"
        }
      ],
      "name": "DistributeRedemptionFee",
      "type": "event"
    },
    {
      "anonymous": false,
      "inputs": [
        {
          "indexed": false,
          "internalType": "address",
          "name": "daoAddress",
          "type": "address"
        },
        {
          "indexed": false,
          "internalType": "enum ColletiveFundingPoolAdapterContract.FundState",
          "name": "state",
          "type": "uint8"
        },
        {
          "indexed": false,
          "internalType": "uint256",
          "name": "totalRaised",
          "type": "uint256"
        }
      ],
      "name": "ProcessFundRaise",
      "type": "event"
    },
    {
      "anonymous": false,
      "inputs": [
        {
          "indexed": false,
          "internalType": "address",
          "name": "daoAddress",
          "type": "address"
        },
        {
          "indexed": false,
          "internalType": "address",
          "name": "account",
          "type": "address"
        },
        {
          "indexed": false,
          "internalType": "uint256",
          "name": "amount",
          "type": "uint256"
        },
        {
          "indexed": false,
          "internalType": "uint256",
          "name": "redemptionFee",
          "type": "uint256"
        }
      ],
      "name": "RedeptionFeeCharged",
      "type": "event"
    },
    {
      "anonymous": false,
      "inputs": [
        {
          "indexed": false,
          "internalType": "address",
          "name": "daoAddress",
          "type": "address"
        },
        {
          "indexed": false,
          "internalType": "uint256",
          "name": "amount",
          "type": "uint256"
        },
        {
          "indexed": false,
          "internalType": "address",
          "name": "account",
          "type": "address"
        }
      ],
      "name": "WithDraw",
      "type": "event"
    },
    {
      "inputs": [
        {
          "internalType": "contract DaoRegistry",
          "name": "dao",
          "type": "address"
        },
        {
          "internalType": "address",
          "name": "investorAddr",
          "type": "address"
        }
      ],
      "name": "balanceOf",
      "outputs": [
        {
          "internalType": "uint256",
          "name": "",
          "type": "uint256"
        }
      ],
      "stateMutability": "view",
      "type": "function"
    },
    {
      "inputs": [
        {
          "internalType": "contract DaoRegistry",
          "name": "dao",
          "type": "address"
        }
      ],
      "name": "clearFund",
      "outputs": [],
      "stateMutability": "nonpayable",
      "type": "function"
    },
    {
      "inputs": [
        {
          "internalType": "contract DaoRegistry",
          "name": "dao",
          "type": "address"
        },
        {
          "internalType": "uint256",
          "name": "amount",
          "type": "uint256"
        }
      ],
      "name": "deposit",
      "outputs": [],
      "stateMutability": "nonpayable",
      "type": "function"
    },
    {
      "inputs": [
        {
          "internalType": "address",
          "name": "",
          "type": "address"
        }
      ],
      "name": "fundState",
      "outputs": [
        {
          "internalType": "enum ColletiveFundingPoolAdapterContract.FundState",
          "name": "",
          "type": "uint8"
        }
      ],
      "stateMutability": "view",
      "type": "function"
    },
    {
      "inputs": [
        {
          "internalType": "contract DaoRegistry",
          "name": "dao",
          "type": "address"
        }
      ],
      "name": "getAllInvestors",
      "outputs": [
        {
          "internalType": "address[]",
          "name": "",
          "type": "address[]"
        }
      ],
      "stateMutability": "view",
      "type": "function"
    },
    {
      "inputs": [
        {
          "internalType": "contract DaoRegistry",
          "name": "dao",
          "type": "address"
        },
        {
          "internalType": "uint256",
          "name": "timestamp",
          "type": "uint256"
        }
      ],
      "name": "ifInRedemptionPeriod",
      "outputs": [
        {
          "internalType": "bool",
          "name": "",
          "type": "bool"
        }
      ],
      "stateMutability": "view",
      "type": "function"
    },
    {
      "inputs": [
        {
          "internalType": "contract DaoRegistry",
          "name": "dao",
          "type": "address"
        }
      ],
      "name": "poolBalance",
      "outputs": [
        {
          "internalType": "uint256",
          "name": "",
          "type": "uint256"
        }
      ],
      "stateMutability": "view",
      "type": "function"
    },
    {
      "inputs": [
        {
          "internalType": "contract DaoRegistry",
          "name": "dao",
          "type": "address"
        }
      ],
      "name": "processFundRaise",
      "outputs": [
        {
          "internalType": "bool",
          "name": "",
          "type": "bool"
        }
      ],
      "stateMutability": "nonpayable",
      "type": "function"
    },
    {
      "inputs": [],
      "name": "protocolFee",
      "outputs": [
        {
          "internalType": "uint256",
          "name": "",
          "type": "uint256"
        }
      ],
      "stateMutability": "view",
      "type": "function"
    },
    {
      "inputs": [
        {
          "internalType": "contract DaoRegistry",
          "name": "dao",
          "type": "address"
        }
      ],
      "name": "resetFundRaiseState",
      "outputs": [],
      "stateMutability": "nonpayable",
      "type": "function"
    },
    {
      "inputs": [
        {
          "internalType": "contract DaoRegistry",
          "name": "dao",
          "type": "address"
        },
        {
          "internalType": "uint256",
          "name": "feeProtocol",
          "type": "uint256"
        }
      ],
      "name": "setProtocolFee",
      "outputs": [],
      "stateMutability": "nonpayable",
      "type": "function"
    },
    {
      "inputs": [
        {
          "internalType": "contract DaoRegistry",
          "name": "dao",
          "type": "address"
        },
        {
          "internalType": "uint256",
          "name": "amount",
          "type": "uint256"
        }
      ],
      "name": "withdraw",
      "outputs": [],
      "stateMutability": "nonpayable",
      "type": "function"
    }
  ],
  "bytecode": "0x6080604052660aa87bee53800060025534801561001b57600080fd5b506126d18061002b6000396000f3fe608060405234801561001057600080fd5b50600436106100d45760003560e01c806396609c4211610081578063f10e6b6b1161005b578063f10e6b6b146101d0578063f3fef3a3146101e3578063f7888aec146101f657600080fd5b806396609c42146101a1578063b0e21e8a146101b4578063b5b3ca2c146101bd57600080fd5b806350d9e688116100b257806350d9e6881461014d57806368abb5e01461016d57806383cffffe1461018e57600080fd5b80630c916bae146100d95780633a844ec01461011257806347e7ef2414610138575b600080fd5b6100fc6100e7366004612421565b60016020526000908152604090205460ff1681565b60405161010991906125b3565b60405180910390f35b6101286101203660046124d6565b600092915050565b6040519015158152602001610109565b61014b6101463660046124d6565b610209565b005b61016061015b366004612421565b610f1f565b6040516101099190612566565b61018061017b366004612421565b610f49565b604051908152602001610109565b61014b61019c366004612421565b611068565b6101286101af366004612421565b611085565b61018060025481565b61014b6101cb3660046124d6565b6112d4565b61014b6101de366004612421565b611339565b61014b6101f13660046124d6565b611470565b61018061020436600461249e565b61189c565b816000610215826119bd565b90506000831161026c5760405162461bcd60e51b815260206004820152600760248201527f21616d6f756e740000000000000000000000000000000000000000000000000060448201526064015b60405180910390fd5b6102a76040518060a001604052806000815260200160008152602001600081526020016000815260200160006001600160a01b031681525090565b604051634941d71d60e11b81527f5fa39c8100b49336846e52d39403e353bf782275f905a885f09224779ff1c92460048201526001600160a01b03861690639283ae3a9060240160206040518083038186803b15801561030657600080fd5b505afa15801561031a573d6000803e3d6000fd5b505050506040513d601f19601f8201168201806040525081019061033e9190612501565b8152604051634941d71d60e11b81527fbdd40865e74210f0a46799ae63462c62010da92014a08cbc32f1d049d0a22c6b60048201526001600160a01b03861690639283ae3a9060240160206040518083038186803b15801561039f57600080fd5b505afa1580156103b3573d6000803e3d6000fd5b505050506040513d601f19601f820116820180604052508101906103d79190612501565b6020820152604051634941d71d60e11b81527f7e07fb4530796d057ca1d76d83f47aa8629dbb7e942ac28f30ad6f5e9e8d418960048201526001600160a01b03861690639283ae3a9060240160206040518083038186803b15801561043b57600080fd5b505afa15801561044f573d6000803e3d6000fd5b505050506040513d601f19601f820116820180604052508101906104739190612501565b60408201526020810151156104d65780602001518410156104d65760405162461bcd60e51b815260206004820152601460248201527f3c206d696e206465706f73697420616d6f756e740000000000000000000000006044820152606401610263565b8051156105415780516104e9863361189c565b6104f390866125c1565b11156105415760405162461bcd60e51b815260206004820152601460248201527f3e206d6178206465706f73697420616d6f756e740000000000000000000000006044820152606401610263565b604051634941d71d60e11b81527fbd04d44792b7dbfe3b50b0f9f2006f7ef449e374a39021cb9bfa7cd0bdd850d7600482015242906001600160a01b03871690639283ae3a9060240160206040518083038186803b1580156105a257600080fd5b505afa1580156105b6573d6000803e3d6000fd5b505050506040513d601f19601f820116820180604052508101906105da9190612501565b10801561067d5750604051634941d71d60e11b81527f533afc15b6312917b5e28e2272ea69d44e5ea8e00d3bd57cada1275c2f14c9e8600482015242906001600160a01b03871690639283ae3a9060240160206040518083038186803b15801561064357600080fd5b505afa158015610657573d6000803e3d6000fd5b505050506040513d601f19601f8201168201806040525081019061067b9190612501565b115b6106c95760405162461bcd60e51b815260206004820152601360248201527f2166756e6472616973696e672077696e646f77000000000000000000000000006044820152606401610263565b604051634941d71d60e11b81527ff301d5aec67a9d816d38f9b645cac1e79a3308ff9803564bbe63a862db82f46b60048201526001600160a01b03861690639283ae3a9060240160206040518083038186803b15801561072857600080fd5b505afa15801561073c573d6000803e3d6000fd5b505050506040513d601f19601f820116820180604052508101906107609190612501565b158015610771575060008160400151115b156107dd5780604001518461078587610f49565b61078f91906125c1565b11156107dd5760405162461bcd60e51b815260206004820152601660248201527f3e2046756e647261697365206d617820616d6f756e74000000000000000000006044820152606401610263565b604051632c9f4b5b60e11b81527f3909e87234f428ccb8748126e2c93f66a62f92a70d315fa5803dec6362be07ab60048201526001600160a01b0386169063593e96b69060240160206040518083038186803b15801561083c57600080fd5b505afa158015610850573d6000803e3d6000fd5b505050506040513d601f19601f82011682018060405250810190610874919061243d565b6001600160a01b039081166080830152604051634941d71d60e11b81527f69f4ffb3ebcb7809550bddd3e4d449a47e737bf6635bc7a730996643997b0e48600482015290861690639283ae3a9060240160206040518083038186803b1580156108dc57600080fd5b505afa1580156108f0573d6000803e3d6000fd5b505050506040513d601f19601f820116820180604052508101906109149190612501565b60011480156109d95750604051634941d71d60e11b81527fecbde689cc6337d29a750b8b8a8abbfa97427b4ac800ab55be2f2c87311510f260048201526001600160a01b03861690639283ae3a9060240160206040518083038186803b15801561097d57600080fd5b505afa158015610991573d6000803e3d6000fd5b505050506040513d601f19601f820116820180604052508101906109b59190612501565b6001600160a01b03861660009081526020819052604090206109d690611c88565b10155b8015610a0457506001600160a01b0385166000908152602081905260409020610a029033611c92565b155b15610a3b576040517ffa088e8a00000000000000000000000000000000000000000000000000000000815260040160405180910390fd5b600081608001516001600160a01b031663a87af66c6040518163ffffffff1660e01b815260040160206040518083038186803b158015610a7a57600080fd5b505afa158015610a8e573d6000803e3d6000fd5b505050506040513d601f19601f82011682018060405250810190610ab2919061243d565b6040516370a0823160e01b815233600482015290915085906001600160a01b038316906370a082319060240160206040518083038186803b158015610af657600080fd5b505afa158015610b0a573d6000803e3d6000fd5b505050506040513d601f19601f82011682018060405250810190610b2e9190612501565b1015610b7c5760405162461bcd60e51b815260206004820152600560248201527f2166756e640000000000000000000000000000000000000000000000000000006044820152606401610263565b6040517fdd62ed3e00000000000000000000000000000000000000000000000000000000815233600482015230602482015285906001600160a01b0383169063dd62ed3e9060440160206040518083038186803b158015610bdc57600080fd5b505afa158015610bf0573d6000803e3d6000fd5b505050506040513d601f19601f82011682018060405250810190610c149190612501565b1015610c625760405162461bcd60e51b815260206004820152600a60248201527f21616c6c6f77616e6365000000000000000000000000000000000000000000006044820152606401610263565b6040517f23b872dd000000000000000000000000000000000000000000000000000000008152336004820152306024820152604481018690526001600160a01b038216906323b872dd90606401602060405180830381600087803b158015610cc957600080fd5b505af1158015610cdd573d6000803e3d6000fd5b505050506040513d601f19601f82011682018060405250810190610d019190612459565b50604051632c9f4b5b60e11b81527f3909e87234f428ccb8748126e2c93f66a62f92a70d315fa5803dec6362be07ab60048201526001600160a01b038083169163095ea7b39189169063593e96b69060240160206040518083038186803b158015610d6b57600080fd5b505afa158015610d7f573d6000803e3d6000fd5b505050506040513d601f19601f82011682018060405250810190610da3919061243d565b6040517fffffffff0000000000000000000000000000000000000000000000000000000060e084901b1681526001600160a01b03909116600482015260248101889052604401602060405180830381600087803b158015610e0357600080fd5b505af1158015610e17573d6000803e3d6000fd5b505050506040513d601f19601f82011682018060405250810190610e3b9190612459565b5060808201516040517fb08079a6000000000000000000000000000000000000000000000000000000008152336004820152602481018790526001600160a01b039091169063b08079a690604401600060405180830381600087803b158015610ea357600080fd5b505af1158015610eb7573d6000803e3d6000fd5b50505050610ec58633611cb4565b604080516001600160a01b038816815260208101879052338183015290517fe31c7b8d08ee7db0afa68782e1028ef92305caeea8626633ad44d413e30f6b2f9181900360600190a15050610f198282611d00565b50505050565b6001600160a01b0381166000908152602081905260409020606090610f4390611d0b565b92915050565b604051632c9f4b5b60e11b81527f3909e87234f428ccb8748126e2c93f66a62f92a70d315fa5803dec6362be07ab600482015260009081906001600160a01b0384169063593e96b69060240160206040518083038186803b158015610fad57600080fd5b505afa158015610fc1573d6000803e3d6000fd5b505050506040513d601f19601f82011682018060405250810190610fe5919061243d565b6040516370a0823160e01b815261decd60048201529091506001600160a01b038216906370a082319060240160206040518083038186803b15801561102957600080fd5b505afa15801561103d573d6000803e3d6000fd5b505050506040513d601f19601f820116820180604052508101906110619190612501565b9392505050565b806000611074826119bd565b90506110808282611d00565b505050565b604051634941d71d60e11b81527f31af571e53636dddd77f772cce9d30b42075760f2da731636acc6962da2fbef8600482015260009081906001600160a01b03841690639283ae3a9060240160206040518083038186803b1580156110e957600080fd5b505afa1580156110fd573d6000803e3d6000fd5b505050506040513d601f19601f820116820180604052508101906111219190612501565b604051634941d71d60e11b81527f533afc15b6312917b5e28e2272ea69d44e5ea8e00d3bd57cada1275c2f14c9e860048201529091506000906001600160a01b03851690639283ae3a9060240160206040518083038186803b15801561118657600080fd5b505afa15801561119a573d6000803e3d6000fd5b505050506040513d601f19601f820116820180604052508101906111be9190612501565b90508042118015611209575060016001600160a01b03851660009081526001602052604090205460ff16600381111561120757634e487b7160e01b600052602160045260246000fd5b145b156112ca578161121885610f49565b10611245576001600160a01b0384166000908152600160205260409020805460ff19166002179055611269565b6001600160a01b0384166000908152600160205260409020805460ff191660031790555b6001600160a01b0384166000908152600160205260409020547fe9975264b50cb635621ce71b45426b9994cf2bf91f3aa9d73b337a96cf2d728390859060ff166112b282610f49565b6040516112c19392919061253b565b60405180910390a15b5060019392505050565b8160006112e0826119bd565b9050836112ec81611d18565b6001600160a01b0316336001600160a01b03161461130957600080fd5b670de0b6b3a7640000841080156113205750600084115b61132957600080fd5b506002839055610f198282611d00565b6040517f17ba7d850000000000000000000000000000000000000000000000000000000081527f3a06648a49edffe95b8384794dfe9cf3ab34782fab0130b4c91bfd53f3407e6b60048201526001600160a01b038216906317ba7d859060240160206040518083038186803b1580156113b157600080fd5b505afa1580156113c5573d6000803e3d6000fd5b505050506040513d601f19601f820116820180604052508101906113e9919061243d565b6001600160a01b0316336001600160a01b0316146114495760405162461bcd60e51b815260206004820152600b60248201527f4163636573732064656e790000000000000000000000000000000000000000006044820152606401610263565b6001600160a01b03166000908152600160208190526040909120805460ff19169091179055565b81600061147c826119bd565b604051632c9f4b5b60e11b81527f3909e87234f428ccb8748126e2c93f66a62f92a70d315fa5803dec6362be07ab60048201529091506000906001600160a01b0386169063593e96b69060240160206040518083038186803b1580156114e157600080fd5b505afa1580156114f5573d6000803e3d6000fd5b505050506040513d601f19601f82011682018060405250810190611519919061243d565b90506000816001600160a01b031663a87af66c6040518163ffffffff1660e01b815260040160206040518083038186803b15801561155657600080fd5b505afa15801561156a573d6000803e3d6000fd5b505050506040513d601f19601f8201168201806040525081019061158e919061243d565b9050600061159c873361189c565b9050600086116115ee5760405162461bcd60e51b815260206004820152600760248201527f21616d6f756e74000000000000000000000000000000000000000000000000006044820152606401610263565b8086111561163e5760405162461bcd60e51b815260206004820152600860248201527f3e62616c616e63650000000000000000000000000000000000000000000000006044820152606401610263565b604051634941d71d60e11b81527f51cc27e85946200c558b984a0c15cad2122655d647f9c02ebe9529f2a0b25a2f6004820152600090670de0b6b3a7640000906001600160a01b038a1690639283ae3a9060240160206040518083038186803b1580156116aa57600080fd5b505afa1580156116be573d6000803e3d6000fd5b505050506040513d601f19601f820116820180604052508101906116e29190612501565b6116ec90896125f9565b6116f691906125d9565b90506001600160a01b03841663d9caed123385611713858c612636565b6040517fffffffff0000000000000000000000000000000000000000000000000000000060e086901b1681526001600160a01b0393841660048201529290911660248301526044820152606401600060405180830381600087803b15801561177a57600080fd5b505af115801561178e573d6000803e3d6000fd5b50506040517fe3a05cc10000000000000000000000000000000000000000000000000000000081523360048201526001600160a01b038681166024830152604482018b90528716925063e3a05cc19150606401600060405180830381600087803b1580156117fb57600080fd5b505af115801561180f573d6000803e3d6000fd5b50505050600061181f893361189c565b1161182e5761182e8833611dfb565b611839888483611e1d565b7fd432fbc5f79eaeefd01acbebd76cf4b0d5f43d8372c2fd3e23761c06a60a75f188611865838a612636565b604080516001600160a01b0390931683526020830191909152339082015260600160405180910390a150505050610f198282611d00565b604051632c9f4b5b60e11b81527f3909e87234f428ccb8748126e2c93f66a62f92a70d315fa5803dec6362be07ab600482015260009081906001600160a01b0385169063593e96b69060240160206040518083038186803b15801561190057600080fd5b505afa158015611914573d6000803e3d6000fd5b505050506040513d601f19601f82011682018060405250810190611938919061243d565b6040516370a0823160e01b81526001600160a01b038581166004830152919250908216906370a082319060240160206040518083038186803b15801561197d57600080fd5b505afa158015611991573d6000803e3d6000fd5b505050506040513d601f19601f820116820180604052508101906119b59190612501565b949350505050565b6040805160808101825260008082526020820181905291810182905260608101919091525a81600001818152505043826001600160a01b031663b21634826040518163ffffffff1660e01b815260040160206040518083038186803b158015611a2557600080fd5b505afa158015611a39573d6000803e3d6000fd5b505050506040513d601f19601f82011682018060405250810190611a5d9190612501565b1415611aab5760405162461bcd60e51b815260206004820152601060248201527f7265656e7472616e6379206775617264000000000000000000000000000000006044820152606401610263565b816001600160a01b03166310fdb0a26040518163ffffffff1660e01b8152600401600060405180830381600087803b158015611ae657600080fd5b505af1158015611afa573d6000803e3d6000fd5b50506040517f72c6838f0000000000000000000000000000000000000000000000000000000081527f1f2fd42ad6a6cacd573c4b212beb7a4e2499ad45d742a65337097f130e71daff6004820152600092506001600160a01b03851691506372c6838f9060240160206040518083038186803b158015611b7957600080fd5b505afa158015611b8d573d6000803e3d6000fd5b505050506040513d601f19601f82011682018060405250810190611bb1919061243d565b90506001600160a01b038116611bcd5760006020830152611c82565b6001600160a01b038181166060840181905283516040517f43a8a3f1000000000000000000000000000000000000000000000000000000008152928616600484015260248301526000918291906343a8a3f190604401604080518083038186803b158015611c3a57600080fd5b505afa158015611c4e573d6000803e3d6000fd5b505050506040513d601f19601f82011682018060405250810190611c729190612473565b9015156020860152604085015250505b50919050565b6000610f43825490565b6001600160a01b03811660009081526001830160205260408120541515611061565b6001600160a01b0382166000908152602081905260409020611cd69082611c92565b611cfc576001600160a01b0382166000908152602081905260409020611080908261210c565b5050565b611cfc828233612121565b606060006110618361222f565b6000816001600160a01b03166348f7f2a36040518163ffffffff1660e01b815260040160206040518083038186803b158015611d5357600080fd5b505afa158015611d67573d6000803e3d6000fd5b505050506040513d601f19601f82011682018060405250810190611d8b919061243d565b6001600160a01b0316638da5cb5b6040518163ffffffff1660e01b815260040160206040518083038186803b158015611dc357600080fd5b505afa158015611dd7573d6000803e3d6000fd5b505050506040513d601f19601f82011682018060405250810190610f43919061243d565b6001600160a01b0382166000908152602081905260409020611080908261228b565b60005b6001600160a01b0384166000908152602081905260409020611e4190611c88565b8160ff161015610f19576000611e5685610f49565b83611eb687611e876000808b6001600160a01b03166001600160a01b03168152602001908152602001600020611d0b565b8660ff1681518110611ea957634e487b7160e01b600052603260045260246000fd5b602002602001015161189c565b611ec091906125f9565b611eca91906125d9565b604051632c9f4b5b60e11b81527f3909e87234f428ccb8748126e2c93f66a62f92a70d315fa5803dec6362be07ab60048201529091506000906001600160a01b0387169063593e96b69060240160206040518083038186803b158015611f2f57600080fd5b505afa158015611f43573d6000803e3d6000fd5b505050506040513d601f19601f82011682018060405250810190611f67919061243d565b9050806001600160a01b031663e176b35e611fa46000808a6001600160a01b03166001600160a01b03168152602001908152602001600020611d0b565b8560ff1681518110611fc657634e487b7160e01b600052603260045260246000fd5b60209081029190910101516040517fffffffff0000000000000000000000000000000000000000000000000000000060e084901b1681526001600160a01b039182166004820152908816602482015260448101859052606401600060405180830381600087803b15801561203957600080fd5b505af115801561204d573d6000803e3d6000fd5b5050506001600160a01b03871660009081526020819052604090207f8f18627dd3013a46ee91228b93403cafa1ac7501566ee460bd8b40e5c551c7d39150879061209690611d0b565b8560ff16815181106120b857634e487b7160e01b600052603260045260246000fd5b6020026020010151846040516120ef939291906001600160a01b039384168152919092166020820152604081019190915260600190565b60405180910390a1505080806121049061264d565b915050611e20565b6000611061836001600160a01b0384166122a0565b8160200151156121d75781606001516001600160a01b0316635e5eb01384835a865161214d9190612636565b60408088015190517fffffffff0000000000000000000000000000000000000000000000000000000060e087901b1681526001600160a01b03948516600482015293909216602484015260448301526064820152608401600060405180830381600087803b1580156121be57600080fd5b505af11580156121d2573d6000803e3d6000fd5b505050505b826001600160a01b031663d4f7af436040518163ffffffff1660e01b8152600401600060405180830381600087803b15801561221257600080fd5b505af1158015612226573d6000803e3d6000fd5b50505050505050565b60608160000180548060200260200160405190810160405280929190818152602001828054801561227f57602002820191906000526020600020905b81548152602001906001019080831161226b575b50505050509050919050565b6000611061836001600160a01b0384166122ef565b60008181526001830160205260408120546122e757508154600181810184556000848152602080822090930184905584548482528286019093526040902091909155610f43565b506000610f43565b60008181526001830160205260408120548015612402576000612313600183612636565b855490915060009061232790600190612636565b90508181146123a857600086600001828154811061235557634e487b7160e01b600052603260045260246000fd5b906000526020600020015490508087600001848154811061238657634e487b7160e01b600052603260045260246000fd5b6000918252602080832090910192909255918252600188019052604090208390555b85548690806123c757634e487b7160e01b600052603160045260246000fd5b600190038181906000526020600020016000905590558560010160008681526020019081526020016000206000905560019350505050610f43565b6000915050610f43565b8051801515811461241c57600080fd5b919050565b600060208284031215612432578081fd5b813561106181612683565b60006020828403121561244e578081fd5b815161106181612683565b60006020828403121561246a578081fd5b6110618261240c565b60008060408385031215612485578081fd5b61248e8361240c565b9150602083015190509250929050565b600080604083850312156124b0578182fd5b82356124bb81612683565b915060208301356124cb81612683565b809150509250929050565b600080604083850312156124e8578182fd5b82356124f381612683565b946020939093013593505050565b600060208284031215612512578081fd5b5051919050565b6004811061253757634e487b7160e01b600052602160045260246000fd5b9052565b6001600160a01b0384168152606081016125586020830185612519565b826040830152949350505050565b6020808252825182820181905260009190848201906040850190845b818110156125a75783516001600160a01b031683529284019291840191600101612582565b50909695505050505050565b60208101610f438284612519565b600082198211156125d4576125d461266d565b500190565b6000826125f457634e487b7160e01b81526012600452602481fd5b500490565b6000817fffffffffffffffffffffffffffffffffffffffffffffffffffffffffffffffff04831182151516156126315761263161266d565b500290565b6000828210156126485761264861266d565b500390565b600060ff821660ff8114156126645761266461266d565b60010192915050565b634e487b7160e01b600052601160045260246000fd5b6001600160a01b038116811461269857600080fd5b5056fea26469706673582212206b5763b0afa234119425355d577f995ffb8830ecd8261aacb6e608b973d75a8664736f6c63430008040033",
  "linkReferences": {},
  "deployedLinkReferences": {}
}