{
  "_format": "hh-sol-artifact-1",
  "contractName": "ColletiveDaoSetProposalAdapterContract",
  "sourceName": "contracts/collective/adapters/CollectiveDaoSetProposalAdapter.sol",
  "abi": [
    {
      "inputs": [
        {
          "internalType": "contract DaoRegistry",
          "name": "dao",
          "type": "address"
        }
      ],
      "name": "isProposalAllDone",
      "outputs": [
        {
          "internalType": "bool",
          "name": "",
          "type": "bool"
        }
      ],
      "stateMutability": "view",
      "type": "function"
    }
  ],
  "bytecode": "0x608060405234801561001057600080fd5b5060c18061001f6000396000f3fe6080604052348015600f57600080fd5b506004361060285760003560e01c80639a0242fc14602d575b600080fd5b603e60383660046052565b50600190565b604051901515815260200160405180910390f35b6000602082840312156062578081fd5b813573ffffffffffffffffffffffffffffffffffffffff811681146084578182fd5b939250505056fea26469706673582212200225297cfa03c852ec888b442a6785d2b89c2b5e92c47679b819e2d929ed5bed64736f6c63430008040033",
  "linkReferences": {},
  "deployedLinkReferences": {}
}