{
  "_format": "hh-sol-artifact-1",
  "contractName": "CollectiveRedemptionFeeEscrowAdapterContract",
  "sourceName": "contracts/collective/adapters/CollectiveRedemptionFeeEscrowAdapter.sol",
  "abi": [
    {
      "inputs": [],
      "name": "ACCESS_DENIED",
      "type": "error"
    },
    {
      "inputs": [],
      "name": "NO_FUND_WITHDRAW",
      "type": "error"
    },
    {
      "inputs": [],
      "name": "WITHDRAW_ALREADY",
      "type": "error"
    },
    {
      "anonymous": false,
      "inputs": [
        {
          "indexed": false,
          "internalType": "address",
          "name": "dao",
          "type": "address"
        },
        {
          "indexed": false,
          "internalType": "address",
          "name": "tokenAddr",
          "type": "address"
        },
        {
          "indexed": false,
          "internalType": "uint256",
          "name": "amount",
          "type": "uint256"
        }
      ],
      "name": "EscrowFund",
      "type": "event"
    },
    {
      "anonymous": false,
      "inputs": [
        {
          "indexed": false,
          "internalType": "address",
          "name": "dao",
          "type": "address"
        },
        {
          "indexed": false,
          "internalType": "address",
          "name": "tokenAddr",
          "type": "address"
        },
        {
          "indexed": false,
          "internalType": "uint256",
          "name": "amount",
          "type": "uint256"
        }
      ],
      "name": "Withdraw",
      "type": "event"
    },
    {
      "inputs": [
        {
          "internalType": "contract DaoRegistry",
          "name": "dao",
          "type": "address"
        },
        {
          "internalType": "uint256",
          "name": "blockNum",
          "type": "uint256"
        },
        {
          "internalType": "address",
          "name": "tokenAddr",
          "type": "address"
        },
        {
          "internalType": "uint256",
          "name": "amount",
          "type": "uint256"
        }
      ],
      "name": "escrowRedemptionFee",
      "outputs": [],
      "stateMutability": "nonpayable",
      "type": "function"
    },
    {
      "inputs": [
        {
          "internalType": "address",
          "name": "",
          "type": "address"
        },
        {
          "internalType": "uint256",
          "name": "",
          "type": "uint256"
        }
      ],
      "name": "escrowedRedemptionFeeByBlockNum",
      "outputs": [
        {
          "internalType": "uint256",
          "name": "",
          "type": "uint256"
        }
      ],
      "stateMutability": "view",
      "type": "function"
    },
    {
      "inputs": [
        {
          "internalType": "address",
          "name": "",
          "type": "address"
        },
        {
          "internalType": "address",
          "name": "",
          "type": "address"
        }
      ],
      "name": "escrowedRedemptionFees",
      "outputs": [
        {
          "internalType": "uint256",
          "name": "",
          "type": "uint256"
        }
      ],
      "stateMutability": "view",
      "type": "function"
    },
    {
      "inputs": [
        {
          "internalType": "contract DaoRegistry",
          "name": "dao",
          "type": "address"
        },
        {
          "internalType": "address",
          "name": "tokenAddr",
          "type": "address"
        },
        {
          "internalType": "address",
          "name": "account",
          "type": "address"
        }
      ],
      "name": "getRedemptionFeeAmount",
      "outputs": [
        {
          "internalType": "uint256",
          "name": "",
          "type": "uint256"
        }
      ],
      "stateMutability": "nonpayable",
      "type": "function"
    },
    {
      "inputs": [
        {
          "internalType": "contract DaoRegistry",
          "name": "dao",
          "type": "address"
        },
        {
          "internalType": "address",
          "name": "tokenAddr",
          "type": "address"
        }
      ],
      "name": "withDrawRedemptionFee",
      "outputs": [],
      "stateMutability": "nonpayable",
      "type": "function"
    },
    {
      "inputs": [
        {
          "internalType": "address",
          "name": "",
          "type": "address"
        },
        {
          "internalType": "address",
          "name": "",
          "type": "address"
        },
        {
          "internalType": "address",
          "name": "",
          "type": "address"
        }
      ],
      "name": "withdrawAmount",
      "outputs": [
        {
          "internalType": "uint256",
          "name": "",
          "type": "uint256"
        }
      ],
      "stateMutability": "view",
      "type": "function"
    }
  ],
  "bytecode": "0x608060405234801561001057600080fd5b50610fe2806100206000396000f3fe608060405234801561001057600080fd5b50600436106100725760003560e01c8063e24fc67011610050578063e24fc670146100f1578063e5509c0014610122578063ece0c17a1461013557600080fd5b8063871c223714610077578063a3ae05391461008c578063dfdd0ce8146100c9575b600080fd5b61008a610085366004610dbe565b610148565b005b6100b761009a366004610d4d565b600160209081526000928352604080842090915290825290205481565b60405190815260200160405180910390f35b6100b76100d7366004610ccb565b600060208181529281526040808220909352908152205481565b6100b76100ff366004610d03565b600360209081526000938452604080852082529284528284209052825290205481565b6100b7610130366004610daa565b6103c2565b61008a610143366004610d98565b610754565b6040517f17ba7d850000000000000000000000000000000000000000000000000000000081527f8f5b4aabbdb8527d420a29cc90ae207773ad49b73c632c3cfd2f29eb8776f2ea60048201526001600160a01b038516906317ba7d859060240160206040518083038186803b1580156101c057600080fd5b505afa1580156101d4573d6000803e3d6000fd5b505050506040513d601f19601f820116820180604052508101906101f89190610caf565b6001600160a01b0316336001600160a01b031614610242576040517f95383ea100000000000000000000000000000000000000000000000000000000815260040160405180910390fd5b6040805180820182526001600160a01b03848116825260208083018581528883166000818152600284528681208a82528452868120955186547fffffffffffffffffffffffff00000000000000000000000000000000000000001695169490941785559051600194850155825291825282812086825290915290812080548392906102ce908490610ea2565b90915550506001600160a01b0380851660009081526020818152604080832093861683529290529081208054839290610308908490610ea2565b90915550506001600160a01b03808516600090815260046020908152604080832093861683529290522061033c90846108c7565b610371576001600160a01b03808516600090815260046020908152604080832093861683529290522061036f90846108e4565b505b604080516001600160a01b038087168252841660208201529081018290527fa5b745e757d5751df8061a2511b998d3cf55ba56a65d9f8253bc5130bc82eb9c9060600160405180910390a150505050565b6040517f593e96b60000000000000000000000000000000000000000000000000000000081527f3909e87234f428ccb8748126e2c93f66a62f92a70d315fa5803dec6362be07ab600482015260009081906001600160a01b0386169063593e96b69060240160206040518083038186803b15801561043f57600080fd5b505afa158015610453573d6000803e3d6000fd5b505050506040513d601f19601f820116820180604052508101906104779190610caf565b6001600160a01b0380871660009081526004602090815260408083209389168352929052908120919250906104ab906108f0565b9050600080825111156107485760005b82518160ff161015610746576000846001600160a01b031663faaf38b3888a878660ff16815181106104fd57634e487b7160e01b600052603260045260246000fd5b60209081029190910101516040517fffffffff0000000000000000000000000000000000000000000000000000000060e086901b1681526001600160a01b039384166004820152929091166024830152604482015260640160206040518083038186803b15801561056d57600080fd5b505afa158015610581573d6000803e3d6000fd5b505050506040513d601f19601f820116820180604052508101906105a59190610e05565b6fffffffffffffffffffffffffffffffff1690506000856001600160a01b031663faaf38b361decd8b888760ff16815181106105f157634e487b7160e01b600052603260045260246000fd5b60209081029190910101516040517fffffffff0000000000000000000000000000000000000000000000000000000060e086901b1681526001600160a01b039384166004820152929091166024830152604482015260640160206040518083038186803b15801561066157600080fd5b505afa158015610675573d6000803e3d6000fd5b505050506040513d601f19601f820116820180604052508101906106999190610e05565b6fffffffffffffffffffffffffffffffff16905060008115610724576001600160a01b038b1660009081526001602052604081208751849290899060ff89169081106106f557634e487b7160e01b600052603260045260246000fd5b6020026020010151815260200190815260200160002054846107179190610eda565b6107219190610eba565b90505b61072e8186610ea2565b9450505050808061073e90610f5e565b9150506104bb565b505b925050505b9392505050565b6001600160a01b038083166000908152600360209081526040808320938516835292815282822033835290522054156107b9576040517f90e77a2200000000000000000000000000000000000000000000000000000000815260040160405180910390fd5b60006107c68383336103c2565b905060008111610802576040517ffc059ee100000000000000000000000000000000000000000000000000000000815260040160405180910390fd5b6108166001600160a01b03831633836108fd565b6001600160a01b038084166000908152602081815260408083209386168352929052908120805483929061084b908490610f17565b90915550506001600160a01b03838116600081815260036020908152604080832094871680845294825280832033845282529182902085905581519283528201929092529081018290527f9b1bfa7fa9ee420a16e124f794c35ac9f90472acc99140eb2f6447c714cad8eb9060600160405180910390a1505050565b600081815260018301602052604081205415155b90505b92915050565b60006108db8383610982565b6060600061074d836109d1565b604080516001600160a01b038416602482015260448082018490528251808303909101815260649091019091526020810180517bffffffffffffffffffffffffffffffffffffffffffffffffffffffff167fa9059cbb0000000000000000000000000000000000000000000000000000000017905261097d908490610a2d565b505050565b60008181526001830160205260408120546109c9575081546001818101845560008481526020808220909301849055845484825282860190935260409020919091556108de565b5060006108de565b606081600001805480602002602001604051908101604052809291908181526020018280548015610a2157602002820191906000526020600020905b815481526020019060010190808311610a0d575b50505050509050919050565b6000610a82826040518060400160405280602081526020017f5361666545524332303a206c6f772d6c6576656c2063616c6c206661696c6564815250856001600160a01b0316610b179092919063ffffffff16565b80519091501561097d5780806020019051810190610aa09190610d78565b61097d5760405162461bcd60e51b815260206004820152602a60248201527f5361666545524332303a204552433230206f7065726174696f6e20646964206e60448201527f6f7420737563636565640000000000000000000000000000000000000000000060648201526084015b60405180910390fd5b6060610b268484600085610b2e565b949350505050565b606082471015610ba65760405162461bcd60e51b815260206004820152602660248201527f416464726573733a20696e73756666696369656e742062616c616e636520666f60448201527f722063616c6c00000000000000000000000000000000000000000000000000006064820152608401610b0e565b6001600160a01b0385163b610bfd5760405162461bcd60e51b815260206004820152601d60248201527f416464726573733a2063616c6c20746f206e6f6e2d636f6e74726163740000006044820152606401610b0e565b600080866001600160a01b03168587604051610c199190610e35565b60006040518083038185875af1925050503d8060008114610c56576040519150601f19603f3d011682016040523d82523d6000602084013e610c5b565b606091505b5091509150610c6b828286610c76565b979650505050505050565b60608315610c8557508161074d565b825115610c955782518084602001fd5b8160405162461bcd60e51b8152600401610b0e9190610e51565b600060208284031215610cc0578081fd5b815161074d81610f94565b60008060408385031215610cdd578081fd5b8235610ce881610f94565b91506020830135610cf881610f94565b809150509250929050565b600080600060608486031215610d17578081fd5b8335610d2281610f94565b92506020840135610d3281610f94565b91506040840135610d4281610f94565b809150509250925092565b60008060408385031215610d5f578182fd5b8235610d6a81610f94565b946020939093013593505050565b600060208284031215610d89578081fd5b8151801515811461074d578182fd5b60008060408385031215610cdd578182fd5b600080600060608486031215610d17578283fd5b60008060008060808587031215610dd3578081fd5b8435610dde81610f94565b9350602085013592506040850135610df581610f94565b9396929550929360600135925050565b600060208284031215610e16578081fd5b81516fffffffffffffffffffffffffffffffff8116811461074d578182fd5b60008251610e47818460208701610f2e565b9190910192915050565b6020815260008251806020840152610e70816040850160208701610f2e565b601f017fffffffffffffffffffffffffffffffffffffffffffffffffffffffffffffffe0169190910160400192915050565b60008219821115610eb557610eb5610f7e565b500190565b600082610ed557634e487b7160e01b81526012600452602481fd5b500490565b6000817fffffffffffffffffffffffffffffffffffffffffffffffffffffffffffffffff0483118215151615610f1257610f12610f7e565b500290565b600082821015610f2957610f29610f7e565b500390565b60005b83811015610f49578181015183820152602001610f31565b83811115610f58576000848401525b50505050565b600060ff821660ff811415610f7557610f75610f7e565b60010192915050565b634e487b7160e01b600052601160045260246000fd5b6001600160a01b0381168114610fa957600080fd5b5056fea264697066735822122029b4fff017cda2c6279fe1feb4dd728ad518f0cfa00500f7efe8fc2c425487a564736f6c63430008040033",
  "linkReferences": {},
  "deployedLinkReferences": {}
}