{
  "_format": "hh-sol-artifact-1",
  "contractName": "ColletiveFundRaiseProposalContract",
  "sourceName": "contracts/collective/adapters/CollectiveFundRaiseProposalAdapter.sol",
  "abi": [
    {
      "inputs": [],
      "name": "VOTING_NOT_FINISH",
      "type": "error"
    },
    {
      "anonymous": false,
      "inputs": [
        {
          "indexed": false,
          "internalType": "address",
          "name": "daoAddr",
          "type": "address"
        },
        {
          "indexed": false,
          "internalType": "bytes32",
          "name": "proposalId",
          "type": "bytes32"
        }
      ],
      "name": "ProposalCreated",
      "type": "event"
    },
    {
      "anonymous": false,
      "inputs": [
        {
          "indexed": false,
          "internalType": "address",
          "name": "daoAddr",
          "type": "address"
        },
        {
          "indexed": false,
          "internalType": "bytes32",
          "name": "proposalId",
          "type": "bytes32"
        },
        {
          "indexed": false,
          "internalType": "enum ICollectiveFundRaise.ProposalState",
          "name": "state",
          "type": "uint8"
        },
        {
          "indexed": false,
          "internalType": "uint256",
          "name": "allVotingWeight",
          "type": "uint256"
        },
        {
          "indexed": false,
          "internalType": "uint256",
          "name": "nbYes",
          "type": "uint256"
        },
        {
          "indexed": false,
          "internalType": "uint256",
          "name": "nbNo",
          "type": "uint256"
        },
        {
          "indexed": false,
          "internalType": "uint256",
          "name": "voteResult",
          "type": "uint256"
        }
      ],
      "name": "proposalExecuted",
      "type": "event"
    },
    {
      "inputs": [
        {
          "internalType": "contract DaoRegistry",
          "name": "dao",
          "type": "address"
        },
        {
          "internalType": "address",
          "name": "_addr",
          "type": "address"
        }
      ],
      "name": "isActiveMember",
      "outputs": [
        {
          "internalType": "bool",
          "name": "",
          "type": "bool"
        }
      ],
      "stateMutability": "view",
      "type": "function"
    },
    {
      "inputs": [
        {
          "internalType": "contract DaoRegistry",
          "name": "dao",
          "type": "address"
        },
        {
          "internalType": "bytes32",
          "name": "proposalId",
          "type": "bytes32"
        }
      ],
      "name": "processProposal",
      "outputs": [],
      "stateMutability": "nonpayable",
      "type": "function"
    },
    {
      "inputs": [
        {
          "internalType": "contract DaoRegistry",
          "name": "",
          "type": "address"
        },
        {
          "internalType": "bytes32",
          "name": "",
          "type": "bytes32"
        }
      ],
      "name": "proposals",
      "outputs": [
        {
          "components": [
            {
              "internalType": "uint256",
              "name": "startTime",
              "type": "uint256"
            },
            {
              "internalType": "uint256",
              "name": "endTime",
              "type": "uint256"
            }
          ],
          "internalType": "struct ICollectiveFundRaise.FundRaiseTimeInfo",
          "name": "timeInfo",
          "type": "tuple"
        },
        {
          "components": [
            {
              "internalType": "address",
              "name": "tokenAddress",
              "type": "address"
            },
            {
              "internalType": "uint256",
              "name": "miniTarget",
              "type": "uint256"
            },
            {
              "internalType": "uint256",
              "name": "maxCap",
              "type": "uint256"
            },
            {
              "internalType": "uint256",
              "name": "miniDeposit",
              "type": "uint256"
            },
            {
              "internalType": "uint256",
              "name": "maxDeposit",
              "type": "uint256"
            }
          ],
          "internalType": "struct ICollectiveFundRaise.FundInfo",
          "name": "fundInfo",
          "type": "tuple"
        },
        {
          "components": [
            {
              "internalType": "uint8",
              "name": "valifyType",
              "type": "uint8"
            },
            {
              "internalType": "address",
              "name": "tokenAddress",
              "type": "address"
            },
            {
              "internalType": "uint256",
              "name": "tokenId",
              "type": "uint256"
            },
            {
              "internalType": "uint256",
              "name": "miniHolding",
              "type": "uint256"
            },
            {
              "internalType": "address[]",
              "name": "whitelist",
              "type": "address[]"
            }
          ],
          "internalType": "struct ICollectiveFundRaise.PriorityDepositorInfo",
          "name": "priorityDepositor",
          "type": "tuple"
        },
        {
          "internalType": "enum ICollectiveFundRaise.ProposalState",
          "name": "state",
          "type": "uint8"
        }
      ],
      "stateMutability": "view",
      "type": "function"
    },
    {
      "inputs": [
        {
          "components": [
            {
              "internalType": "contract DaoRegistry",
              "name": "dao",
              "type": "address"
            },
            {
              "components": [
                {
                  "internalType": "address",
                  "name": "tokenAddress",
                  "type": "address"
                },
                {
                  "internalType": "uint256",
                  "name": "miniTarget",
                  "type": "uint256"
                },
                {
                  "internalType": "uint256",
                  "name": "maxCap",
                  "type": "uint256"
                },
                {
                  "internalType": "uint256",
                  "name": "miniDeposit",
                  "type": "uint256"
                },
                {
                  "internalType": "uint256",
                  "name": "maxDeposit",
                  "type": "uint256"
                }
              ],
              "internalType": "struct ICollectiveFundRaise.FundInfo",
              "name": "fundInfo",
              "type": "tuple"
            },
            {
              "components": [
                {
                  "internalType": "uint256",
                  "name": "startTime",
                  "type": "uint256"
                },
                {
                  "internalType": "uint256",
                  "name": "endTime",
                  "type": "uint256"
                }
              ],
              "internalType": "struct ICollectiveFundRaise.FundRaiseTimeInfo",
              "name": "timeInfo",
              "type": "tuple"
            },
            {
              "components": [
                {
                  "internalType": "uint8",
                  "name": "valifyType",
                  "type": "uint8"
                },
                {
                  "internalType": "address",
                  "name": "tokenAddress",
                  "type": "address"
                },
                {
                  "internalType": "uint256",
                  "name": "tokenId",
                  "type": "uint256"
                },
                {
                  "internalType": "uint256",
                  "name": "miniHolding",
                  "type": "uint256"
                },
                {
                  "internalType": "address[]",
                  "name": "whitelist",
                  "type": "address[]"
                }
              ],
              "internalType": "struct ICollectiveFundRaise.PriorityDepositorInfo",
              "name": "priorityDepositor",
              "type": "tuple"
            }
          ],
          "internalType": "struct ICollectiveFundRaise.ProposalParams",
          "name": "params",
          "type": "tuple"
        }
      ],
      "name": "submitProposal",
      "outputs": [
        {
          "internalType": "bool",
          "name": "",
          "type": "bool"
        }
      ],
      "stateMutability": "nonpayable",
      "type": "function"
    }
  ],
  "bytecode": "0x608060405234801561001057600080fd5b50612316806100206000396000f3fe608060405234801561001057600080fd5b506004361061004c5760003560e01c80635cb75276146100515780636fe370ae1461007d5780638ecf7720146100a05780639573167d146100b3575b600080fd5b61006461005f366004611e7a565b6100c8565b604051610074949392919061205a565b60405180910390f35b61009061008b366004611ede565b6101e6565b6040519015158152602001610074565b6100906100ae366004611e42565b6108eb565b6100c66100c1366004611e7a565b61098a565b005b600160208181526000938452604080852082529284529282902082518084018452815481529181015482850152825160a0808201855260028301546001600160a01b039081168352600384015483880152600484015483870152600584015460608085019190915260068501546080808601919091528751938401885260078601805460ff811686526101009004909316848a0152600886015484890152600986015491840191909152600a850180548851818b0281018b01909952808952969894979596939592949186019390918301828280156101d057602002820191906000526020600020905b81546001600160a01b031681526001909101906020018083116101b2575b50505091909252505050600b9091015460ff1684565b60006101f56020830183611dbe565b600061020082610fc5565b905061020f6020850185611dbe565b6102198133611290565b604080518082019091526000808252602082015261023a6020870187611dbe565b6040517f17ba7d850000000000000000000000000000000000000000000000000000000081527fdac6d9ce728ebc92a61253866b4e5a4c73b76ba0aa11e7297a633f6232f5423760048201526001600160a01b0391909116906317ba7d859060240160206040518083038186803b1580156102b457600080fd5b505afa1580156102c8573d6000803e3d6000fd5b505050506040513d601f19601f820116820180604052508101906102ec9190611de1565b6001600160a01b0316808252639a0242fc61030a6020890189611dbe565b6040517fffffffff0000000000000000000000000000000000000000000000000000000060e084901b1681526001600160a01b03909116600482015260240160206040518083038186803b15801561036157600080fd5b505afa158015610375573d6000803e3d6000fd5b505050506040513d601f19601f820116820180604052508101906103999190611dfd565b6103ea5760405162461bcd60e51b815260206004820152601660248201527f44616f5365742050726f706f73616c20556e646f6e650000000000000000000060448201526064015b60405180910390fd5b6103f76020870187611dbe565b6001600160a01b0316630b9411ba6040518163ffffffff1660e01b8152600401600060405180830381600087803b15801561043157600080fd5b505af1158015610445573d6000803e3d6000fd5b50610508925061045b9150506020880188611dbe565b60c01b6104e361046e60208a018a611dbe565b6001600160a01b031663a25950c56040518163ffffffff1660e01b815260040160206040518083038186803b1580156104a657600080fd5b505afa1580156104ba573d6000803e3d6000fd5b505050506040513d601f19601f820116820180604052508101906104de9190611f17565b6112ea565b6040516020016104f4929190611f72565b604051602081830303815290604052611440565b6020808301919091526040805160c080820183528901356080820190815260e08a013560a080840191909152908252825190810183529092838101928291610554918c01908c01611dbe565b6001600160a01b03168152602001896020016020013581526020018960200160400135815260200189602001606001358152602001896020016080013581525081526020016040518060a00160405280898061010001906105b591906121af565b6105c3906020810190611f2f565b60ff1681526020016105d96101008b018b6121af565b6105ea906040810190602001611dbe565b6001600160a01b031681526020016106066101008b018b6121af565b60400135815260200161061d6101008b018b6121af565b6060013581526020016106346101008b018b6121af565b610642906080810190612142565b808060200260200160405190810160405280939291908181526020018383602002808284376000920182905250939094525050918352506020909101526001600061069060208a018a611dbe565b6001600160a01b03908116825260208083019390935260409182016000908120868501518252845282902084518051825584015160018201558484015180516002830180547fffffffffffffffffffffffff00000000000000000000000000000000000000001691851691909117905580850151600383015580840151600483015560608082015160058401556080918201516006840155868501518051600785018054838a015160ff9093167fffffffffffffffffffffff00000000000000000000000000000000000000000090911617610100929097169190910295909517855594850151600884015584015160098301558301518051919461079d92600a87019290910190611c28565b5050506060820151600b8201805460ff191660018360038111156107d157634e487b7160e01b600052602160045260246000fd5b0217905550600091506107ea90506101008801886121af565b6107f8906080810190612142565b905011156108d45760005b6108116101008801886121af565b61081f906080810190612142565b90508160ff1610156108d2576108bf61083c6101008901896121af565b61084a906080810190612142565b8360ff1681811061086b57634e487b7160e01b600052603260045260246000fd5b90506020020160208101906108809190611dbe565b60008061089060208c018c611dbe565b6001600160a01b031681526020808201929092526040908101600090812087840151825290925290209061145c565b50806108ca81612268565b915050610803565b505b6001945050506108e48282611471565b5050919050565b6040517fa230c5240000000000000000000000000000000000000000000000000000000081526001600160a01b0382811660048301526000919084169063a230c5249060240160206040518083038186803b15801561094957600080fd5b505afa15801561095d573d6000803e3d6000fd5b505050506040513d601f19601f820116820180604052508101906109819190611dfd565b90505b92915050565b81600061099682610fc5565b90506109a0611ca5565b6001600160a01b03851660008181526001602090815260408083208884529091529081902090517f30490e91000000000000000000000000000000000000000000000000000000008152600481018790529091906330490e9190602401600060405180830381600087803b158015610a1757600080fd5b505af1158015610a2b573d6000803e3d6000fd5b50506040517f17ba7d850000000000000000000000000000000000000000000000000000000081527f8f5b4aabbdb8527d420a29cc90ae207773ad49b73c632c3cfd2f29eb8776f2ea60048201526001600160a01b03891692506317ba7d85915060240160206040518083038186803b158015610aa757600080fd5b505afa158015610abb573d6000803e3d6000fd5b505050506040513d601f19601f82011682018060405250810190610adf9190611de1565b6001600160a01b0390811683526040517f40de703e00000000000000000000000000000000000000000000000000000000815260048101879052908716906340de703e9060240160206040518083038186803b158015610b3e57600080fd5b505afa158015610b52573d6000803e3d6000fd5b505050506040513d601f19601f82011682018060405250810190610b769190611de1565b6001600160a01b031660208301819052610bd25760405162461bcd60e51b815260206004820152601860248201527f766f74696e672061646170746572206e6f7420666f756e64000000000000000060448201526064016103e1565b60208201516040517f76225e730000000000000000000000000000000000000000000000000000000081526001600160a01b03888116600483015260248201889052909116906376225e739060440160606040518083038186803b158015610c3957600080fd5b505afa158015610c4d573d6000803e3d6000fd5b505050506040513d601f19601f82011682018060405250810190610c719190611ea5565b608085018190526060850182905260408501836005811115610ca357634e487b7160e01b600052602160045260246000fd5b6005811115610cc257634e487b7160e01b600052602160045260246000fd5b90525060029150610cd09050565b82604001516005811115610cf457634e487b7160e01b600052602160045260246000fd5b1415610e8f57600b8101805460ff191660019081179091556040805160c081018252835460808083019182529385015460a0808401919091529082528251808201845260028601546001600160a01b03908116825260038701546020808401919091526004880154838701526005880154606080850191909152600689015484890152818601939093528551938401865260078801805460ff81168652610100900490921684820152600888015484870152600988015492840192909252600a870180548651818502810185018852818152610e73988f988b97908901969095949186019390830182828015610e1357602002820191906000526020600020905b81546001600160a01b03168152600190910190602001808311610df5575b505050919092525050508152600b82015460209091019060ff166003811115610e4c57634e487b7160e01b600052602160045260246000fd5b6003811115610e6b57634e487b7160e01b600052602160045260246000fd5b90525061147c565b600b810180546002919060ff19166001835b0217905550610f31565b600382604001516005811115610eb557634e487b7160e01b600052602160045260246000fd5b1480610ee45750600182604001516005811115610ee257634e487b7160e01b600052602160045260246000fd5b145b15610eff57600b810180546003919060ff1916600183610e85565b6040517f70fc772800000000000000000000000000000000000000000000000000000000815260040160405180910390fd5b60007fdcc911819967718b3aa2f12f31ede4b5b207e7a5c1b86cbfa291fe31dee26644878784600b0160009054906101000a900460ff16848760600151886080015189604001516005811115610f9757634e487b7160e01b600052602160045260246000fd5b604051610faa9796959493929190612000565b60405180910390a1505050610fbf8282611471565b50505050565b6040805160808101825260008082526020820181905291810182905260608101919091525a81600001818152505043826001600160a01b031663b21634826040518163ffffffff1660e01b815260040160206040518083038186803b15801561102d57600080fd5b505afa158015611041573d6000803e3d6000fd5b505050506040513d601f19601f820116820180604052508101906110659190611f17565b14156110b35760405162461bcd60e51b815260206004820152601060248201527f7265656e7472616e63792067756172640000000000000000000000000000000060448201526064016103e1565b816001600160a01b03166310fdb0a26040518163ffffffff1660e01b8152600401600060405180830381600087803b1580156110ee57600080fd5b505af1158015611102573d6000803e3d6000fd5b50506040517f72c6838f0000000000000000000000000000000000000000000000000000000081527f1f2fd42ad6a6cacd573c4b212beb7a4e2499ad45d742a65337097f130e71daff6004820152600092506001600160a01b03851691506372c6838f9060240160206040518083038186803b15801561118157600080fd5b505afa158015611195573d6000803e3d6000fd5b505050506040513d601f19601f820116820180604052508101906111b99190611de1565b90506001600160a01b0381166111d5576000602083015261128a565b6001600160a01b038181166060840181905283516040517f43a8a3f1000000000000000000000000000000000000000000000000000000008152928616600484015260248301526000918291906343a8a3f190604401604080518083038186803b15801561124257600080fd5b505afa158015611256573d6000803e3d6000fd5b505050506040513d601f19601f8201168201806040525081019061127a9190611e17565b9015156020860152604085015250505b50919050565b61129a82826108eb565b6112e65760405162461bcd60e51b815260206004820152600c60248201527f6f6e6c79476f7665726e6f72000000000000000000000000000000000000000060448201526064016103e1565b5050565b60608161132a57505060408051808201909152600181527f3000000000000000000000000000000000000000000000000000000000000000602082015290565b8160005b8115611354578061133e8161222f565b915061134d9050600a83612204565b915061132e565b60008167ffffffffffffffff81111561137d57634e487b7160e01b600052604160045260246000fd5b6040519080825280601f01601f1916602001820160405280156113a7576020820181803683370190505b5090505b8415611438576113bc600183612218565b91506113c9600a86612288565b6113d49060306121ec565b60f81b8183815181106113f757634e487b7160e01b600052603260045260246000fd5b60200101907effffffffffffffffffffffffffffffffffffffffffffffffffffffffffffff1916908160001a905350611431600a86612204565b94506113ab565b949350505050565b600081516000141561145457506000919050565b506020015190565b6000610981836001600160a01b0384166115b1565b6112e6828233611600565b6114c682604051806080016040528084602001516020015181526020018460200151604001518152602001846020015160600151815260200184602001516080015181525061170e565b6040805180820190915281515181528151602090810151908201526114ec908390611949565b6020810151516040517f3b4f921a0000000000000000000000000000000000000000000000000000000081527f7fa36390a0e9b8b8004035572fd8345b1128cea12d1763a1baf8fbd4fb7b202760048201526001600160a01b03918216602482015290831690633b4f921a90604401600060405180830381600087803b15801561157557600080fd5b505af1158015611589573d6000803e3d6000fd5b5050505060408181015180516020820151928201516060909201516112e69386939091611a05565b60008181526001830160205260408120546115f857508154600181810184556000848152602080822090930184905584548482528286019093526040902091909155610984565b506000610984565b8160200151156116b65781606001516001600160a01b0316635e5eb01384835a865161162c9190612218565b60408088015190517fffffffff0000000000000000000000000000000000000000000000000000000060e087901b1681526001600160a01b03948516600482015293909216602484015260448301526064820152608401600060405180830381600087803b15801561169d57600080fd5b505af11580156116b1573d6000803e3d6000fd5b505050505b826001600160a01b031663d4f7af436040518163ffffffff1660e01b8152600401600060405180830381600087803b1580156116f157600080fd5b505af1158015611705573d6000803e3d6000fd5b50505050505050565b8051604051630da0f6c760e41b81527f31af571e53636dddd77f772cce9d30b42075760f2da731636acc6962da2fbef8600482015260248101919091526001600160a01b0383169063da0f6c7090604401600060405180830381600087803b15801561177957600080fd5b505af115801561178d573d6000803e3d6000fd5b5050506020820151604051630da0f6c760e41b81527f7e07fb4530796d057ca1d76d83f47aa8629dbb7e942ac28f30ad6f5e9e8d4189600482015260248101919091526001600160a01b038416915063da0f6c7090604401600060405180830381600087803b1580156117ff57600080fd5b505af1158015611813573d6000803e3d6000fd5b5050506040808301519051630da0f6c760e41b81527fbdd40865e74210f0a46799ae63462c62010da92014a08cbc32f1d049d0a22c6b600482015260248101919091526001600160a01b038416915063da0f6c7090604401600060405180830381600087803b15801561188557600080fd5b505af1158015611899573d6000803e3d6000fd5b5050506001600160a01b038316905063da0f6c707f5fa39c8100b49336846e52d39403e353bf782275f905a885f09224779ff1c9248360035b60200201516040517fffffffff0000000000000000000000000000000000000000000000000000000060e085901b16815260048101929092526024820152604401600060405180830381600087803b15801561192d57600080fd5b505af1158015611941573d6000803e3d6000fd5b505050505050565b8051604051630da0f6c760e41b81527fbd04d44792b7dbfe3b50b0f9f2006f7ef449e374a39021cb9bfa7cd0bdd850d7600482015260248101919091526001600160a01b0383169063da0f6c7090604401600060405180830381600087803b1580156119b457600080fd5b505af11580156119c8573d6000803e3d6000fd5b5050506001600160a01b038316905063da0f6c707f533afc15b6312917b5e28e2272ea69d44e5ea8e00d3bd57cada1275c2f14c9e88360016118d2565b604051630da0f6c760e41b81527f1710acff43ba8f339e18305d5d5116602e0cf6b226983bae821884b877626aa6600482015260ff851660248201526001600160a01b0386169063da0f6c7090604401600060405180830381600087803b158015611a6f57600080fd5b505af1158015611a83573d6000803e3d6000fd5b5050604051630da0f6c760e41b81527f04d4d5cbde9f5c38336ca61af88f78d20a912993a64a3951a1cc2ccd8bb0e8996004820152602481018590526001600160a01b038816925063da0f6c709150604401600060405180830381600087803b158015611aef57600080fd5b505af1158015611b03573d6000803e3d6000fd5b5050604051630da0f6c760e41b81527f20d88b77300b4133cc1f146fdec45d5266086bc18b256e8e607ef37ec1d047b26004820152602481018490526001600160a01b038816925063da0f6c709150604401600060405180830381600087803b158015611b6f57600080fd5b505af1158015611b83573d6000803e3d6000fd5b50506040517f3b4f921a0000000000000000000000000000000000000000000000000000000081527f3b45967f728449b4fbffd6027f6b8d86035e572016480c7bc2a55edeec4f3ca560048201526001600160a01b03868116602483015288169250633b4f921a9150604401600060405180830381600087803b158015611c0957600080fd5b505af1158015611c1d573d6000803e3d6000fd5b505050505050505050565b828054828255906000526020600020908101928215611c95579160200282015b82811115611c9557825182547fffffffffffffffffffffffff0000000000000000000000000000000000000000166001600160a01b03909116178255602090920191600190910190611c48565b50611ca1929150611ce7565b5090565b6040805160e08101825260008082526020820181905290918201908152602001600081526020016000815260200160008152602001611ce2611cfc565b905290565b5b80821115611ca15760008155600101611ce8565b6040805160c0810190915260006080820181815260a083019190915281908152602001611d5a6040518060a0016040528060006001600160a01b03168152602001600081526020016000815260200160008152602001600081525090565b8152602001611d9d6040518060a00160405280600060ff16815260200160006001600160a01b031681526020016000815260200160008152602001606081525090565b81526020016000905290565b80518015158114611db957600080fd5b919050565b600060208284031215611dcf578081fd5b8135611dda816122c8565b9392505050565b600060208284031215611df2578081fd5b8151611dda816122c8565b600060208284031215611e0e578081fd5b61098182611da9565b60008060408385031215611e29578081fd5b611e3283611da9565b9150602083015190509250929050565b60008060408385031215611e54578182fd5b8235611e5f816122c8565b91506020830135611e6f816122c8565b809150509250929050565b60008060408385031215611e8c578182fd5b8235611e97816122c8565b946020939093013593505050565b600080600060608486031215611eb9578081fd5b835160068110611ec7578182fd5b602085015160409095015190969495509392505050565b600060208284031215611eef578081fd5b813567ffffffffffffffff811115611f05578182fd5b82016101208185031215611dda578182fd5b600060208284031215611f28578081fd5b5051919050565b600060208284031215611f40578081fd5b813560ff81168114611dda578182fd5b60048110611f6e57634e487b7160e01b600052602160045260246000fd5b9052565b7fffffffffffffffff000000000000000000000000000000000000000000000000831681527f46756e6445737461626c6973686d656e74230000000000000000000000000000600882015260008251815b81811015611fe0576020818601810151601a868401015201611fc3565b81811115611ff15782601a83860101525b5091909101601a019392505050565b6001600160a01b03881681526020810187905260e081016120246040830188611f50565b6fffffffffffffffffffffffffffffffff861660608301528460808301528360a08301528260c083015298975050505050505050565b600061012086518352602080880151818501526001600160a01b0380885116604086015281880151606086015260408801516080860152606088015160a0860152608088015160c08601528260e08601526101c0850160ff88511684870152818389015116610140870152604088015161016087015260608801516101808701526080880151935060a06101a08701528084518083526101e08801915084860195508692505b8083101561212257855184168252948401946001929092019190840190612100565b508095505050505050612139610100830184611f50565b95945050505050565b60008083357fffffffffffffffffffffffffffffffffffffffffffffffffffffffffffffffe1843603018112612176578283fd5b83018035915067ffffffffffffffff821115612190578283fd5b6020019150600581901b36038213156121a857600080fd5b9250929050565b600082357fffffffffffffffffffffffffffffffffffffffffffffffffffffffffffffff618336030181126121e2578182fd5b9190910192915050565b600082198211156121ff576121ff61229c565b500190565b600082612213576122136122b2565b500490565b60008282101561222a5761222a61229c565b500390565b60007fffffffffffffffffffffffffffffffffffffffffffffffffffffffffffffffff8214156122615761226161229c565b5060010190565b600060ff821660ff81141561227f5761227f61229c565b60010192915050565b600082612297576122976122b2565b500690565b634e487b7160e01b600052601160045260246000fd5b634e487b7160e01b600052601260045260246000fd5b6001600160a01b03811681146122dd57600080fd5b5056fea2646970667358221220c29645764001b52f4f92ba7d86e0a71be41d94264dfcc6e8acbca48a82f46bbf64736f6c63430008040033",
  "linkReferences": {},
  "deployedLinkReferences": {}
}