{
  "_format": "hh-sol-artifact-1",
  "contractName": "CollectiveInvestmentPoolExtension",
  "sourceName": "contracts/collective/extensions/CollectiveFundingPool.sol",
  "abi": [
    {
      "inputs": [],
      "stateMutability": "nonpayable",
      "type": "constructor"
    },
    {
      "anonymous": false,
      "inputs": [
        {
          "indexed": false,
          "internalType": "address",
          "name": "distributeTo",
          "type": "address"
        },
        {
          "indexed": false,
          "internalType": "address",
          "name": "tokenAddr",
          "type": "address"
        },
        {
          "indexed": false,
          "internalType": "uint256",
          "name": "amount",
          "type": "uint256"
        }
      ],
      "name": "DistributeFund",
      "type": "event"
    },
    {
      "anonymous": false,
      "inputs": [
        {
          "indexed": false,
          "internalType": "uint256",
          "name": "chargedTime",
          "type": "uint256"
        },
        {
          "indexed": false,
          "internalType": "address",
          "name": "lpAddress",
          "type": "address"
        },
        {
          "indexed": false,
          "internalType": "uint256",
          "name": "amount",
          "type": "uint256"
        }
      ],
      "name": "ManagementFeeCharged",
      "type": "event"
    },
    {
      "anonymous": false,
      "inputs": [
        {
          "indexed": false,
          "internalType": "address",
          "name": "member",
          "type": "address"
        },
        {
          "indexed": false,
          "internalType": "address",
          "name": "tokenAddr",
          "type": "address"
        },
        {
          "indexed": false,
          "internalType": "uint128",
          "name": "amount",
          "type": "uint128"
        }
      ],
      "name": "NewBalance",
      "type": "event"
    },
    {
      "anonymous": false,
      "inputs": [
        {
          "indexed": false,
          "internalType": "address",
          "name": "token",
          "type": "address"
        },
        {
          "indexed": false,
          "internalType": "uint256",
          "name": "amount",
          "type": "uint256"
        }
      ],
      "name": "Recovered",
      "type": "event"
    },
    {
      "anonymous": false,
      "inputs": [
        {
          "indexed": false,
          "internalType": "uint256",
          "name": "chargedTime",
          "type": "uint256"
        },
        {
          "indexed": false,
          "internalType": "address",
          "name": "lpAddress",
          "type": "address"
        },
        {
          "indexed": false,
          "internalType": "uint256",
          "name": "amount",
          "type": "uint256"
        }
      ],
      "name": "RedeptionFeeCharged",
      "type": "event"
    },
    {
      "anonymous": false,
      "inputs": [
        {
          "indexed": false,
          "internalType": "uint256",
          "name": "reward",
          "type": "uint256"
        }
      ],
      "name": "RewardAdded",
      "type": "event"
    },
    {
      "anonymous": false,
      "inputs": [
        {
          "indexed": true,
          "internalType": "address",
          "name": "user",
          "type": "address"
        },
        {
          "indexed": false,
          "internalType": "uint256",
          "name": "reward",
          "type": "uint256"
        }
      ],
      "name": "RewardPaid",
      "type": "event"
    },
    {
      "anonymous": false,
      "inputs": [
        {
          "indexed": false,
          "internalType": "uint256",
          "name": "newDuration",
          "type": "uint256"
        }
      ],
      "name": "RewardsDurationUpdated",
      "type": "event"
    },
    {
      "anonymous": false,
      "inputs": [
        {
          "indexed": true,
          "internalType": "address",
          "name": "user",
          "type": "address"
        },
        {
          "indexed": false,
          "internalType": "uint256",
          "name": "amount",
          "type": "uint256"
        }
      ],
      "name": "Staked",
      "type": "event"
    },
    {
      "anonymous": false,
      "inputs": [
        {
          "indexed": false,
          "internalType": "address",
          "name": "account",
          "type": "address"
        },
        {
          "indexed": false,
          "internalType": "address",
          "name": "tokenAddr",
          "type": "address"
        },
        {
          "indexed": false,
          "internalType": "uint160",
          "name": "amount",
          "type": "uint160"
        }
      ],
      "name": "Withdraw",
      "type": "event"
    },
    {
      "anonymous": false,
      "inputs": [
        {
          "indexed": false,
          "internalType": "address",
          "name": "accountFrom",
          "type": "address"
        },
        {
          "indexed": false,
          "internalType": "address",
          "name": "accountTo",
          "type": "address"
        },
        {
          "indexed": false,
          "internalType": "address",
          "name": "tokenAddr",
          "type": "address"
        },
        {
          "indexed": false,
          "internalType": "uint160",
          "name": "amount",
          "type": "uint160"
        }
      ],
      "name": "WithdrawTo",
      "type": "event"
    },
    {
      "anonymous": false,
      "inputs": [
        {
          "indexed": false,
          "internalType": "address",
          "name": "accountTo",
          "type": "address"
        },
        {
          "indexed": false,
          "internalType": "address",
          "name": "tokenAddr",
          "type": "address"
        },
        {
          "indexed": false,
          "internalType": "uint160",
          "name": "amount",
          "type": "uint160"
        }
      ],
      "name": "WithdrawToFromAll",
      "type": "event"
    },
    {
      "anonymous": false,
      "inputs": [
        {
          "indexed": true,
          "internalType": "address",
          "name": "user",
          "type": "address"
        },
        {
          "indexed": false,
          "internalType": "uint256",
          "name": "amount",
          "type": "uint256"
        }
      ],
      "name": "Withdrawn",
      "type": "event"
    },
    {
      "inputs": [
        {
          "internalType": "address",
          "name": "depositer",
          "type": "address"
        },
        {
          "internalType": "uint256",
          "name": "amount",
          "type": "uint256"
        }
      ],
      "name": "addToBalance",
      "outputs": [],
      "stateMutability": "nonpayable",
      "type": "function"
    },
    {
      "inputs": [
        {
          "internalType": "address",
          "name": "",
          "type": "address"
        }
      ],
      "name": "availableTokens",
      "outputs": [
        {
          "internalType": "bool",
          "name": "",
          "type": "bool"
        }
      ],
      "stateMutability": "view",
      "type": "function"
    },
    {
      "inputs": [
        {
          "internalType": "address",
          "name": "investorAddr",
          "type": "address"
        }
      ],
      "name": "balanceOf",
      "outputs": [
        {
          "internalType": "uint256",
          "name": "",
          "type": "uint256"
        }
      ],
      "stateMutability": "view",
      "type": "function"
    },
    {
      "inputs": [
        {
          "internalType": "address",
          "name": "",
          "type": "address"
        },
        {
          "internalType": "address",
          "name": "",
          "type": "address"
        },
        {
          "internalType": "uint32",
          "name": "",
          "type": "uint32"
        }
      ],
      "name": "checkpoints",
      "outputs": [
        {
          "internalType": "uint96",
          "name": "fromBlock",
          "type": "uint96"
        },
        {
          "internalType": "uint128",
          "name": "amount",
          "type": "uint128"
        }
      ],
      "stateMutability": "view",
      "type": "function"
    },
    {
      "inputs": [],
      "name": "dao",
      "outputs": [
        {
          "internalType": "contract DaoRegistry",
          "name": "",
          "type": "address"
        }
      ],
      "stateMutability": "view",
      "type": "function"
    },
    {
      "inputs": [
        {
          "internalType": "address",
          "name": "recipientAddr",
          "type": "address"
        },
        {
          "internalType": "address",
          "name": "tokenAddr",
          "type": "address"
        },
        {
          "internalType": "uint256",
          "name": "amount",
          "type": "uint256"
        }
      ],
      "name": "distributeFunds",
      "outputs": [],
      "stateMutability": "nonpayable",
      "type": "function"
    },
    {
      "inputs": [
        {
          "internalType": "address",
          "name": "",
          "type": "address"
        },
        {
          "internalType": "address",
          "name": "",
          "type": "address"
        },
        {
          "internalType": "uint32",
          "name": "",
          "type": "uint32"
        }
      ],
      "name": "feeCheckpoints",
      "outputs": [
        {
          "internalType": "uint96",
          "name": "fromBlock",
          "type": "uint96"
        },
        {
          "internalType": "uint128",
          "name": "amount",
          "type": "uint128"
        }
      ],
      "stateMutability": "view",
      "type": "function"
    },
    {
      "inputs": [
        {
          "internalType": "address",
          "name": "",
          "type": "address"
        }
      ],
      "name": "fundRaises",
      "outputs": [
        {
          "internalType": "enum DaoHelper.FundRaiseState",
          "name": "state",
          "type": "uint8"
        }
      ],
      "stateMutability": "view",
      "type": "function"
    },
    {
      "inputs": [],
      "name": "getFundRaisingTokenAddress",
      "outputs": [
        {
          "internalType": "address",
          "name": "",
          "type": "address"
        }
      ],
      "stateMutability": "view",
      "type": "function"
    },
    {
      "inputs": [
        {
          "internalType": "address",
          "name": "account",
          "type": "address"
        },
        {
          "internalType": "address",
          "name": "tokenAddr",
          "type": "address"
        },
        {
          "internalType": "uint256",
          "name": "blockNumber",
          "type": "uint256"
        }
      ],
      "name": "getPriorAmount",
      "outputs": [
        {
          "internalType": "uint128",
          "name": "",
          "type": "uint128"
        }
      ],
      "stateMutability": "view",
      "type": "function"
    },
    {
      "inputs": [
        {
          "internalType": "contract DaoRegistry",
          "name": "_dao",
          "type": "address"
        },
        {
          "internalType": "address",
          "name": "creator",
          "type": "address"
        }
      ],
      "name": "initialize",
      "outputs": [],
      "stateMutability": "nonpayable",
      "type": "function"
    },
    {
      "inputs": [],
      "name": "initialized",
      "outputs": [
        {
          "internalType": "bool",
          "name": "",
          "type": "bool"
        }
      ],
      "stateMutability": "view",
      "type": "function"
    },
    {
      "inputs": [
        {
          "internalType": "contract DaoRegistry",
          "name": "dao",
          "type": "address"
        },
        {
          "internalType": "address",
          "name": "_addr",
          "type": "address"
        }
      ],
      "name": "isActiveMember",
      "outputs": [
        {
          "internalType": "bool",
          "name": "",
          "type": "bool"
        }
      ],
      "stateMutability": "view",
      "type": "function"
    },
    {
      "inputs": [
        {
          "internalType": "address",
          "name": "investorAddr",
          "type": "address"
        }
      ],
      "name": "isInvestor",
      "outputs": [
        {
          "internalType": "bool",
          "name": "",
          "type": "bool"
        }
      ],
      "stateMutability": "view",
      "type": "function"
    },
    {
      "inputs": [
        {
          "internalType": "address",
          "name": "",
          "type": "address"
        }
      ],
      "name": "lastLPChargedManagentFeeTime",
      "outputs": [
        {
          "internalType": "uint256",
          "name": "",
          "type": "uint256"
        }
      ],
      "stateMutability": "view",
      "type": "function"
    },
    {
      "inputs": [
        {
          "internalType": "address",
          "name": "",
          "type": "address"
        }
      ],
      "name": "lpChargedManagementFees",
      "outputs": [
        {
          "internalType": "uint256",
          "name": "",
          "type": "uint256"
        }
      ],
      "stateMutability": "view",
      "type": "function"
    },
    {
      "inputs": [
        {
          "internalType": "address",
          "name": "",
          "type": "address"
        },
        {
          "internalType": "address",
          "name": "",
          "type": "address"
        }
      ],
      "name": "numCheckpoints",
      "outputs": [
        {
          "internalType": "uint32",
          "name": "",
          "type": "uint32"
        }
      ],
      "stateMutability": "view",
      "type": "function"
    },
    {
      "inputs": [
        {
          "internalType": "address",
          "name": "",
          "type": "address"
        }
      ],
      "name": "rewards",
      "outputs": [
        {
          "internalType": "uint256",
          "name": "",
          "type": "uint256"
        }
      ],
      "stateMutability": "view",
      "type": "function"
    },
    {
      "inputs": [
        {
          "internalType": "address",
          "name": "token",
          "type": "address"
        },
        {
          "internalType": "uint256",
          "name": "amount",
          "type": "uint256"
        }
      ],
      "name": "subtractAllFromBalance",
      "outputs": [],
      "stateMutability": "nonpayable",
      "type": "function"
    },
    {
      "inputs": [
        {
          "internalType": "address",
          "name": "member",
          "type": "address"
        },
        {
          "internalType": "address",
          "name": "token",
          "type": "address"
        },
        {
          "internalType": "uint256",
          "name": "amount",
          "type": "uint256"
        }
      ],
      "name": "subtractFromBalance",
      "outputs": [],
      "stateMutability": "nonpayable",
      "type": "function"
    },
    {
      "inputs": [
        {
          "internalType": "bytes4",
          "name": "interfaceId",
          "type": "bytes4"
        }
      ],
      "name": "supportsInterface",
      "outputs": [
        {
          "internalType": "bool",
          "name": "",
          "type": "bool"
        }
      ],
      "stateMutability": "view",
      "type": "function"
    },
    {
      "inputs": [],
      "name": "totalSupply",
      "outputs": [
        {
          "internalType": "uint256",
          "name": "",
          "type": "uint256"
        }
      ],
      "stateMutability": "view",
      "type": "function"
    },
    {
      "inputs": [
        {
          "internalType": "address",
          "name": "",
          "type": "address"
        }
      ],
      "name": "userRewardPerTokenPaid",
      "outputs": [
        {
          "internalType": "uint256",
          "name": "",
          "type": "uint256"
        }
      ],
      "stateMutability": "view",
      "type": "function"
    },
    {
      "inputs": [
        {
          "internalType": "address",
          "name": "account",
          "type": "address"
        },
        {
          "internalType": "address",
          "name": "tokenAddr",
          "type": "address"
        },
        {
          "internalType": "uint256",
          "name": "amount",
          "type": "uint256"
        }
      ],
      "name": "withdraw",
      "outputs": [],
      "stateMutability": "nonpayable",
      "type": "function"
    },
    {
      "inputs": [
        {
          "internalType": "address",
          "name": "toAddress",
          "type": "address"
        },
        {
          "internalType": "address",
          "name": "tokenAddr",
          "type": "address"
        },
        {
          "internalType": "uint256",
          "name": "amount",
          "type": "uint256"
        }
      ],
      "name": "withdrawFromAll",
      "outputs": [],
      "stateMutability": "nonpayable",
      "type": "function"
    },
    {
      "inputs": [
        {
          "internalType": "address",
          "name": "memberFrom",
          "type": "address"
        },
        {
          "internalType": "address payable",
          "name": "memberTo",
          "type": "address"
        },
        {
          "internalType": "address",
          "name": "tokenAddr",
          "type": "address"
        },
        {
          "internalType": "uint256",
          "name": "amount",
          "type": "uint256"
        }
      ],
      "name": "withdrawTo",
      "outputs": [],
      "stateMutability": "nonpayable",
      "type": "function"
    }
  ],
  "bytecode": "0x60806040526000805460ff1916905534801561001a57600080fd5b50612d418061002a6000396000f3fe608060405234801561001057600080fd5b50600436106101ae5760003560e01c806387c672ee116100ee578063c3c7645c11610097578063d9caed1211610071578063d9caed12146104d2578063e176b35e146104e5578063e3a05cc1146104f8578063faaf38b31461050b57600080fd5b8063c3c7645c14610452578063ce46cc9414610465578063cee2a9cf146104bf57600080fd5b806394cb0947116100c857806394cb094714610414578063a87af66c14610437578063b08079a61461043f57600080fd5b806387c672ee1461039b5780638b876347146103e15780638ecf77201461040157600080fd5b80634162169f1161015b5780637082e63d116101355780637082e63d146102a957806370a082311461033857806373b884631461034b57806385e616131461037b57600080fd5b80634162169f14610246578063485cc95514610276578063576e626e1461028957600080fd5b80631267aef21161018c5780631267aef21461021e578063158ef93e1461023157806318160ddd1461023e57600080fd5b806301ffc9a7146101b357806306c0b3cc146101db5780630700037d146101f0575b600080fd5b6101c66101c1366004612a84565b61053f565b60405190151581526020015b60405180910390f35b6101ee6101e9366004612957565b610693565b005b6102106101fe3660046128e7565b60066020526000908152604090205481565b6040519081526020016101d2565b6101ee61022c3660046129a7565b61090c565b6000546101c69060ff1681565b610210610b47565b60005461025e9061010090046001600160a01b031681565b6040516001600160a01b0390911681526020016101d2565b6101ee610284366004612aac565b610b59565b6102106102973660046128e7565b60096020526000908152604090205481565b6103036102b73660046129e7565b60026020908152600093845260408085208252928452828420905282529020546bffffffffffffffffffffffff811690600160601b90046fffffffffffffffffffffffffffffffff1682565b604080516bffffffffffffffffffffffff90931683526fffffffffffffffffffffffffffffffff9091166020830152016101d2565b6102106103463660046128e7565b610cff565b61036e6103593660046128e7565b60076020526000908152604090205460ff1681565b6040516101d29190612b11565b6102106103893660046128e7565b60086020526000908152604090205481565b6103cc6103a936600461291f565b600360209081526000928352604080842090915290825290205463ffffffff1681565b60405163ffffffff90911681526020016101d2565b6102106103ef3660046128e7565b60056020526000908152604090205481565b6101c661040f366004612aac565b610dc3565b6101c66104223660046128e7565b60016020526000908152604090205460ff1681565b61025e610e47565b6101ee61044d366004612a39565b610f00565b6101ee610460366004612a39565b6111fb565b6103036104733660046129e7565b60046020908152600093845260408085208252928452828420905282529020546bffffffffffffffffffffffff811690600160601b90046fffffffffffffffffffffffffffffffff1682565b6101c66104cd3660046128e7565b6113f6565b6101ee6104e03660046129a7565b611403565b6101ee6104f33660046129a7565b611632565b6101ee6105063660046129a7565b61194f565b61051e6105193660046129a7565b611b7e565b6040516fffffffffffffffffffffffffffffffff90911681526020016101d2565b60007f01ffc9a7000000000000000000000000000000000000000000000000000000006001600160e01b0319831614806105a257507fe3a05cc1000000000000000000000000000000000000000000000000000000006001600160e01b03198316145b806105d657507fb08079a6000000000000000000000000000000000000000000000000000000006001600160e01b03198316145b8061060a57507ffaaf38b3000000000000000000000000000000000000000000000000000000006001600160e01b03198316145b8061062557506370a0823160e01b6001600160e01b03198316145b8061065957507fd9caed12000000000000000000000000000000000000000000000000000000006001600160e01b03198316145b8061068d57507f06c0b3cc000000000000000000000000000000000000000000000000000000006001600160e01b03198316145b92915050565b6002303314806106b2575060005461010090046001600160a01b031633145b806106d257506000546106d29061010090046001600160a01b0316611ea7565b80610798575060005461010090046001600160a01b0316636cfdc32e333084600e81111561071057634e487b7160e01b600052602160045260246000fd5b6040516001600160e01b031960e086901b1681526001600160a01b03938416600482015292909116602483015260ff16604482015260640160206040518083038186803b15801561076057600080fd5b505afa158015610774573d6000803e3d6000fd5b505050506040513d601f19601f820116820180604052508101906107989190612a64565b6107e95760405162461bcd60e51b815260206004820181905260248201527f666c65782066756e64696e6720706f6f6c3a3a61636365737344656e6965643a60448201526064015b60405180910390fd5b816107f386610cff565b10156108675760405162461bcd60e51b815260206004820152602d60248201527f666c65782066756e64696e6720706f6f6c3a3a77697468647261773a3a6e6f7460448201527f20656e6f7567682066756e64730000000000000000000000000000000000000060648201526084016107e0565b61087285848461194f565b6001600160a01b038316610898576108936001600160a01b038516836120c7565b6108ac565b6108ac6001600160a01b03841685846121e5565b604080516001600160a01b03808816825280871660208301528086169282019290925290831660608201527f9c5c430cfa10ced1876365001f2481344decb32bf815e01e3e5706ebe533f975906080015b60405180910390a15050505050565b60023033148061092b575060005461010090046001600160a01b031633145b8061094b575060005461094b9061010090046001600160a01b0316611ea7565b80610a11575060005461010090046001600160a01b0316636cfdc32e333084600e81111561098957634e487b7160e01b600052602160045260246000fd5b6040516001600160e01b031960e086901b1681526001600160a01b03938416600482015292909116602483015260ff16604482015260640160206040518083038186803b1580156109d957600080fd5b505afa1580156109ed573d6000803e3d6000fd5b505050506040513d601f19601f82011682018060405250810190610a119190612a64565b610a5d5760405162461bcd60e51b815260206004820181905260248201527f666c65782066756e64696e6720706f6f6c3a3a61636365737344656e6965643a60448201526064016107e0565b81610a6961babe610cff565b1015610add5760405162461bcd60e51b815260206004820152602d60248201527f666c65782066756e64696e6720706f6f6c3a3a77697468647261773a3a6e6f7460448201527f20656e6f7567682066756e64730000000000000000000000000000000000000060648201526084016107e0565b610af16001600160a01b03841685846121e5565b604080516001600160a01b03808716825280861660208301528416918101919091527fede32f53632f476b275a5d994aa0c640845bf9088e592e43cefc14d81c76bb40906060015b60405180910390a150505050565b6000610b5461decd610cff565b905090565b60005460ff1615610bd25760405162461bcd60e51b815260206004820152602560248201527f666c65782066756e64696e6720706f6f6c20616c726561647920696e6974696160448201527f6c697a656400000000000000000000000000000000000000000000000000000060648201526084016107e0565b60405163288c314960e21b81526001600160a01b03828116600483015283169063a230c5249060240160206040518083038186803b158015610c1357600080fd5b505afa158015610c27573d6000803e3d6000fd5b505050506040513d601f19601f82011682018060405250810190610c4b9190612a64565b610c975760405162461bcd60e51b815260206004820152601d60248201527f666c65782066756e64696e6720706f6f6c3a3a6e6f74206d656d62657200000060448201526064016107e0565b50600080547fffffffffffffffffffffffffffffffffffffffffffffffffffffffffffffff006001600160a01b0390931661010002929092167fffffffffffffffffffffff000000000000000000000000000000000000000000909216919091176001179055565b600080610d0a610e47565b6001600160a01b0380821660009081526003602090815260408083209388168352929052205490915063ffffffff1680610d45576000610da9565b6001600160a01b038083166000908152600260209081526040808320938816835292905290812090610d78600184612c55565b63ffffffff168152602081019190915260400160002054600160601b90046fffffffffffffffffffffffffffffffff165b6fffffffffffffffffffffffffffffffff16949350505050565b60405163288c314960e21b81526001600160a01b0382811660048301526000919084169063a230c5249060240160206040518083038186803b158015610e0857600080fd5b505afa158015610e1c573d6000803e3d6000fd5b505050506040513d601f19601f82011682018060405250810190610e409190612a64565b9392505050565b600080546040517ffd310d290000000000000000000000000000000000000000000000000000000081527f7fa36390a0e9b8b8004035572fd8345b1128cea12d1763a1baf8fbd4fb7b202760048201526101009091046001600160a01b03169063fd310d299060240160206040518083038186803b158015610ec857600080fd5b505afa158015610edc573d6000803e3d6000fd5b505050506040513d601f19601f82011682018060405250810190610b549190612903565b600030331480610f1f575060005461010090046001600160a01b031633145b80610f3f5750600054610f3f9061010090046001600160a01b0316611ea7565b80611005575060005461010090046001600160a01b0316636cfdc32e333084600e811115610f7d57634e487b7160e01b600052602160045260246000fd5b6040516001600160e01b031960e086901b1681526001600160a01b03938416600482015292909116602483015260ff16604482015260640160206040518083038186803b158015610fcd57600080fd5b505afa158015610fe1573d6000803e3d6000fd5b505050506040513d601f19601f820116820180604052508101906110059190612a64565b6110515760405162461bcd60e51b815260206004820181905260248201527f666c65782066756e64696e6720706f6f6c3a3a61636365737344656e6965643a60448201526064016107e0565b600061105b610e47565b905061106684612265565b80600061107286610cff565b90506000611081611111610cff565b9050600061109061decd610cff565b60005460405163288c314960e21b81526001600160a01b038b811660048301529293506101009091049091169063a230c5249060240160206040518083038186803b1580156110de57600080fd5b505afa1580156110f2573d6000803e3d6000fd5b505050506040513d601f19601f820116820180604052508101906111169190612a64565b15611131576111316111118661112c8a86612b8a565b612300565b611140888661112c8a87612b8a565b61115161decd8661112c8a85612b8a565b6040517f23b872dd000000000000000000000000000000000000000000000000000000008152336004820152306024820152604481018890526001600160a01b038516906323b872dd90606401602060405180830381600087803b1580156111b857600080fd5b505af11580156111cc573d6000803e3d6000fd5b505050506040513d601f19601f820116820180604052508101906111f09190612a64565b505050505050505050565b60013033148061121a575060005461010090046001600160a01b031633145b8061123a575060005461123a9061010090046001600160a01b0316611ea7565b80611300575060005461010090046001600160a01b0316636cfdc32e333084600e81111561127857634e487b7160e01b600052602160045260246000fd5b6040516001600160e01b031960e086901b1681526001600160a01b03938416600482015292909116602483015260ff16604482015260640160206040518083038186803b1580156112c857600080fd5b505afa1580156112dc573d6000803e3d6000fd5b505050506040513d601f19601f820116820180604052508101906113009190612a64565b61134c5760405162461bcd60e51b815260206004820181905260248201527f666c65782066756e64696e6720706f6f6c3a3a61636365737344656e6965643a60448201526064016107e0565b600061135961decd610cff565b90506000611367600a61257b565b905060005b81518160ff1610156113ee576000828260ff168151811061139d57634e487b7160e01b600052603260045260246000fd5b6020026020010151905060006113b282610cff565b11156113db576113db8188866113c785610cff565b6113d1908b612c01565b6105069190612bca565b50806113e681612caa565b91505061136c565b505050505050565b600061068d600a83612588565b600230331480611422575060005461010090046001600160a01b031633145b8061144257506000546114429061010090046001600160a01b0316611ea7565b80611508575060005461010090046001600160a01b0316636cfdc32e333084600e81111561148057634e487b7160e01b600052602160045260246000fd5b6040516001600160e01b031960e086901b1681526001600160a01b03938416600482015292909116602483015260ff16604482015260640160206040518083038186803b1580156114d057600080fd5b505afa1580156114e4573d6000803e3d6000fd5b505050506040513d601f19601f820116820180604052508101906115089190612a64565b6115545760405162461bcd60e51b815260206004820181905260248201527f666c65782066756e64696e6720706f6f6c3a3a61636365737344656e6965643a60448201526064016107e0565b8161155e85610cff565b10156115d25760405162461bcd60e51b815260206004820152602d60248201527f666c65782066756e64696e6720706f6f6c3a3a77697468647261773a3a6e6f7460448201527f20656e6f7567682066756e64730000000000000000000000000000000000000060648201526084016107e0565b6115e66001600160a01b03841685846121e5565b604080516001600160a01b03808716825280861660208301528416918101919091527ff4d47ca48b90728e6b853fff159bd92cdbd2be6ce116e9ebd8ca4f7f68ce4c8d90606001610b39565b600430331480611651575060005461010090046001600160a01b031633145b8061167157506000546116719061010090046001600160a01b0316611ea7565b80611737575060005461010090046001600160a01b0316636cfdc32e333084600e8111156116af57634e487b7160e01b600052602160045260246000fd5b6040516001600160e01b031960e086901b1681526001600160a01b03938416600482015292909116602483015260ff16604482015260640160206040518083038186803b1580156116ff57600080fd5b505afa158015611713573d6000803e3d6000fd5b505050506040513d601f19601f820116820180604052508101906117379190612a64565b6117835760405162461bcd60e51b815260206004820181905260248201527f666c65782066756e64696e6720706f6f6c3a3a61636365737344656e6965643a60448201526064016107e0565b600082116117f95760405162461bcd60e51b815260206004820152602d60248201527f46756e64696e67506f6f6c3a3a6469737472696275746546756e64733a3a616d60448201527f6f756e74206d757374203e20300000000000000000000000000000000000000060648201526084016107e0565b6040516370a0823160e01b815230600482015282906001600160a01b038516906370a082319060240160206040518083038186803b15801561183a57600080fd5b505afa15801561184e573d6000803e3d6000fd5b505050506040513d601f19601f820116820180604052508101906118729190612add565b8311156118f3576040516370a0823160e01b81523060048201526001600160a01b038516906370a082319060240160206040518083038186803b1580156118b857600080fd5b505afa1580156118cc573d6000803e3d6000fd5b505050506040513d601f19601f820116820180604052508101906118f09190612add565b90505b6119076001600160a01b03851686836121e5565b604080516001600160a01b038088168252861660208201529081018290527fb70fe816339ea1444b2c894b640eb98aaf56d35020a1805e2dbd4c3f56b854bd906060016108fd565b60013033148061196e575060005461010090046001600160a01b031633145b8061198e575060005461198e9061010090046001600160a01b0316611ea7565b80611a54575060005461010090046001600160a01b0316636cfdc32e333084600e8111156119cc57634e487b7160e01b600052602160045260246000fd5b6040516001600160e01b031960e086901b1681526001600160a01b03938416600482015292909116602483015260ff16604482015260640160206040518083038186803b158015611a1c57600080fd5b505afa158015611a30573d6000803e3d6000fd5b505050506040513d601f19601f82011682018060405250810190611a549190612a64565b611aa05760405162461bcd60e51b815260206004820181905260248201527f666c65782066756e64696e6720706f6f6c3a3a61636365737344656e6965643a60448201526064016107e0565b81611aaa85610cff565b10158015611ac2575081611abf61decd610cff565b10155b611b345760405162461bcd60e51b815260206004820152603360248201527f46756e64696e67506f6f6c3a3a737562747261637446726f6d42616c616e636560448201527f3a3a496e73756666696369656e742046756e640000000000000000000000000060648201526084016107e0565b600082611b4086610cff565b611b4a9190612c3e565b9050600083611b5a61decd610cff565b611b649190612c3e565b9050611b7361decd8683612300565b6113ee868684612300565b6000438210611bf55760405162461bcd60e51b815260206004820152602760248201527f556e693a3a6765745072696f72416d6f756e743a206e6f74207965742064657460448201527f65726d696e65640000000000000000000000000000000000000000000000000060648201526084016107e0565b6001600160a01b0380841660009081526003602090815260408083209388168352929052205463ffffffff1680611c30576000915050610e40565b6001600160a01b03808516600090815260026020908152604080832093891683529290529081208491611c64600185612c55565b63ffffffff1681526020810191909152604001600020546bffffffffffffffffffffffff1611611cfa576001600160a01b038085166000908152600260209081526040808320938916835292905290812090611cc1600184612c55565b63ffffffff168152602081019190915260400160002054600160601b90046fffffffffffffffffffffffffffffffff169150610e409050565b6001600160a01b0380851660009081526002602090815260408083209389168352928152828220828052905220546bffffffffffffffffffffffff16831015611d47576000915050610e40565b600080611d55600184612c55565b90505b8163ffffffff168163ffffffff161115611e4f5760006002611d7a8484612c55565b611d849190612bde565b611d8e9083612c55565b6001600160a01b038881166000908152600260209081526040808320938d16835292815282822063ffffffff851683528152908290208251808401909352546bffffffffffffffffffffffff8116808452600160601b9091046fffffffffffffffffffffffffffffffff169183019190915291925090871415611e1b57602001519450610e409350505050565b80516bffffffffffffffffffffffff16871115611e3a57819350611e48565b611e45600183612c55565b92505b5050611d58565b506001600160a01b03948516600090815260026020908152604080832098909716825296875285812063ffffffff9290921681529552505050902054600160601b90046fffffffffffffffffffffffffffffffff1690565b600080826001600160a01b031663c19d93fb6040518163ffffffff1660e01b815260040160206040518083038186803b158015611ee357600080fd5b505afa158015611ef7573d6000803e3d6000fd5b505050506040513d601f19601f82011682018060405250810190611f1b9190612abe565b6001811115611f3a57634e487b7160e01b600052602160045260246000fd5b14801561068d5750816001600160a01b031663c67143666040518163ffffffff1660e01b815260040160206040518083038186803b158015611f7b57600080fd5b505afa158015611f8f573d6000803e3d6000fd5b505050506040513d601f19601f82011682018060405250810190611fb39190612add565b1580612031575060405163288c314960e21b81523360048201526001600160a01b0383169063a230c5249060240160206040518083038186803b158015611ff957600080fd5b505afa15801561200d573d6000803e3d6000fd5b505050506040513d601f19601f820116820180604052508101906120319190612a64565b8061068d57506040517f68c18beb0000000000000000000000000000000000000000000000000000000081523360048201526001600160a01b038316906368c18beb9060240160206040518083038186803b15801561208f57600080fd5b505afa1580156120a3573d6000803e3d6000fd5b505050506040513d601f19601f8201168201806040525081019061068d9190612a64565b804710156121175760405162461bcd60e51b815260206004820152601d60248201527f416464726573733a20696e73756666696369656e742062616c616e636500000060448201526064016107e0565b6000826001600160a01b03168260405160006040518083038185875af1925050503d8060008114612164576040519150601f19603f3d011682016040523d82523d6000602084013e612169565b606091505b50509050806121e05760405162461bcd60e51b815260206004820152603a60248201527f416464726573733a20756e61626c6520746f2073656e642076616c75652c207260448201527f6563697069656e74206d6179206861766520726576657274656400000000000060648201526084016107e0565b505050565b604080516001600160a01b038416602482015260448082018490528251808303909101815260649091019091526020810180517bffffffffffffffffffffffffffffffffffffffffffffffffffffffff167fa9059cbb000000000000000000000000000000000000000000000000000000001790526121e09084906125aa565b6001600160a01b0381166122e15760405162461bcd60e51b815260206004820152603360248201527f46756e64696e67506f6f6c3a3a5f6e6577496e766573746f723a3a696e76616c60448201527f696420696e766573746f7220616464726573730000000000000000000000000060648201526084016107e0565b6122ec600a82612588565b6122fd576122fb600a8261268f565b505b50565b6001600160a01b03808316600090815260036020908152604080832093871683529290522054819063ffffffff16801580159061239357506001600160a01b0380851660009081526002602090815260408083209389168352929052908120439161236c600185612c55565b63ffffffff1681526020810191909152604001600020546bffffffffffffffffffffffff16145b1561242e576001600160a01b038085166000908152600260209081526040808320938916835292905290812083916123cc600185612c55565b63ffffffff168152602081019190915260400160002080546fffffffffffffffffffffffffffffffff92909216600160601b027fffffffff00000000000000000000000000000000ffffffffffffffffffffffff90921691909117905561251f565b6040805180820182526bffffffffffffffffffffffff43811682526fffffffffffffffffffffffffffffffff80861660208085019182526001600160a01b03808b16600090815260028352878120918d16815290825286812063ffffffff8916825290915294909420925183549451909116600160601b026001600160e01b03199094169116179190911790556124c6816001612ba2565b6001600160a01b038581166000908152600360209081526040808320938a1683529290522080547fffffffffffffffffffffffffffffffffffffffffffffffffffffffff000000001663ffffffff929092169190911790555b604080516001600160a01b038088168252861660208201526fffffffffffffffffffffffffffffffff8416918101919091527f11ab57c509be320eba133349628aa1de2b83999db8fb30a70930086aad67e951906060016108fd565b60606000610e40836126a4565b6001600160a01b03811660009081526001830160205260408120541515610e40565b60006125ff826040518060400160405280602081526020017f5361666545524332303a206c6f772d6c6576656c2063616c6c206661696c6564815250856001600160a01b03166127009092919063ffffffff16565b8051909150156121e0578080602001905181019061261d9190612a64565b6121e05760405162461bcd60e51b815260206004820152602a60248201527f5361666545524332303a204552433230206f7065726174696f6e20646964206e60448201527f6f7420737563636565640000000000000000000000000000000000000000000060648201526084016107e0565b6000610e40836001600160a01b038416612717565b6060816000018054806020026020016040519081016040528092919081815260200182805480156126f457602002820191906000526020600020905b8154815260200190600101908083116126e0575b50505050509050919050565b606061270f8484600085612766565b949350505050565b600081815260018301602052604081205461275e5750815460018181018455600084815260208082209093018490558454848252828601909352604090209190915561068d565b50600061068d565b6060824710156127de5760405162461bcd60e51b815260206004820152602660248201527f416464726573733a20696e73756666696369656e742062616c616e636520666f60448201527f722063616c6c000000000000000000000000000000000000000000000000000060648201526084016107e0565b6001600160a01b0385163b6128355760405162461bcd60e51b815260206004820152601d60248201527f416464726573733a2063616c6c20746f206e6f6e2d636f6e747261637400000060448201526064016107e0565b600080866001600160a01b031685876040516128519190612af5565b60006040518083038185875af1925050503d806000811461288e576040519150601f19603f3d011682016040523d82523d6000602084013e612893565b606091505b50915091506128a38282866128ae565b979650505050505050565b606083156128bd575081610e40565b8251156128cd5782518084602001fd5b8160405162461bcd60e51b81526004016107e09190612b39565b6000602082840312156128f8578081fd5b8135610e4081612cf6565b600060208284031215612914578081fd5b8151610e4081612cf6565b60008060408385031215612931578081fd5b823561293c81612cf6565b9150602083013561294c81612cf6565b809150509250929050565b6000806000806080858703121561296c578182fd5b843561297781612cf6565b9350602085013561298781612cf6565b9250604085013561299781612cf6565b9396929550929360600135925050565b6000806000606084860312156129bb578283fd5b83356129c681612cf6565b925060208401356129d681612cf6565b929592945050506040919091013590565b6000806000606084860312156129fb578283fd5b8335612a0681612cf6565b92506020840135612a1681612cf6565b9150604084013563ffffffff81168114612a2e578182fd5b809150509250925092565b60008060408385031215612a4b578182fd5b8235612a5681612cf6565b946020939093013593505050565b600060208284031215612a75578081fd5b81518015158114610e40578182fd5b600060208284031215612a95578081fd5b81356001600160e01b031981168114610e40578182fd5b60008060408385031215612931578182fd5b600060208284031215612acf578081fd5b815160028110610e40578182fd5b600060208284031215612aee578081fd5b5051919050565b60008251612b07818460208701612c7a565b9190910192915050565b6020810160048310612b3357634e487b7160e01b600052602160045260246000fd5b91905290565b6020815260008251806020840152612b58816040850160208701612c7a565b601f017fffffffffffffffffffffffffffffffffffffffffffffffffffffffffffffffe0169190910160400192915050565b60008219821115612b9d57612b9d612cca565b500190565b600063ffffffff808316818516808303821115612bc157612bc1612cca565b01949350505050565b600082612bd957612bd9612ce0565b500490565b600063ffffffff80841680612bf557612bf5612ce0565b92169190910492915050565b6000817fffffffffffffffffffffffffffffffffffffffffffffffffffffffffffffffff0483118215151615612c3957612c39612cca565b500290565b600082821015612c5057612c50612cca565b500390565b600063ffffffff83811690831681811015612c7257612c72612cca565b039392505050565b60005b83811015612c95578181015183820152602001612c7d565b83811115612ca4576000848401525b50505050565b600060ff821660ff811415612cc157612cc1612cca565b60010192915050565b634e487b7160e01b600052601160045260246000fd5b634e487b7160e01b600052601260045260246000fd5b6001600160a01b03811681146122fd57600080fdfea2646970667358221220f51c566307caf750fcef4dbec1155fddb8fe2c89f94c2f839e39c6e0356596f664736f6c63430008040033",
  "linkReferences": {},
  "deployedLinkReferences": {}
}