{
  "_format": "hh-sol-artifact-1",
  "contractName": "ColletiveClearFundProposalAdapterContract",
  "sourceName": "contracts/collective/adapters/CollectiveClearFundProposalAdapter.sol",
  "abi": [
    {
      "inputs": [],
      "name": "VOTE_NOT_START",
      "type": "error"
    },
    {
      "anonymous": false,
      "inputs": [
        {
          "indexed": false,
          "internalType": "address",
          "name": "daoAddr",
          "type": "address"
        },
        {
          "indexed": false,
          "internalType": "bytes32",
          "name": "proposalId",
          "type": "bytes32"
        }
      ],
      "name": "ProposalCreated",
      "type": "event"
    },
    {
      "anonymous": false,
      "inputs": [
        {
          "indexed": false,
          "internalType": "address",
          "name": "daoAddr",
          "type": "address"
        },
        {
          "indexed": false,
          "internalType": "bytes32",
          "name": "proposalId",
          "type": "bytes32"
        },
        {
          "indexed": false,
          "internalType": "enum ColletiveClearFundProposalAdapterContract.ProposalState",
          "name": "state",
          "type": "uint8"
        },
        {
          "indexed": false,
          "internalType": "uint256",
          "name": "voteResult",
          "type": "uint256"
        },
        {
          "indexed": false,
          "internalType": "uint256",
          "name": "allVotingWeight",
          "type": "uint256"
        },
        {
          "indexed": false,
          "internalType": "uint256",
          "name": "nbYes",
          "type": "uint256"
        },
        {
          "indexed": false,
          "internalType": "uint256",
          "name": "nbNo",
          "type": "uint256"
        }
      ],
      "name": "ProposalProcessed",
      "type": "event"
    },
    {
      "inputs": [
        {
          "internalType": "address",
          "name": "",
          "type": "address"
        }
      ],
      "name": "ongoingClearFundProposal",
      "outputs": [
        {
          "internalType": "bytes32",
          "name": "",
          "type": "bytes32"
        }
      ],
      "stateMutability": "view",
      "type": "function"
    },
    {
      "inputs": [
        {
          "internalType": "contract DaoRegistry",
          "name": "dao",
          "type": "address"
        },
        {
          "internalType": "bytes32",
          "name": "proposalId",
          "type": "bytes32"
        }
      ],
      "name": "processClearFundProposal",
      "outputs": [],
      "stateMutability": "nonpayable",
      "type": "function"
    },
    {
      "inputs": [
        {
          "internalType": "address",
          "name": "",
          "type": "address"
        },
        {
          "internalType": "bytes32",
          "name": "",
          "type": "bytes32"
        }
      ],
      "name": "proposals",
      "outputs": [
        {
          "internalType": "bytes32",
          "name": "proposalId",
          "type": "bytes32"
        },
        {
          "internalType": "address",
          "name": "proposor",
          "type": "address"
        },
        {
          "internalType": "uint256",
          "name": "creationTime",
          "type": "uint256"
        },
        {
          "internalType": "uint256",
          "name": "stopVoteTime",
          "type": "uint256"
        },
        {
          "internalType": "enum ColletiveClearFundProposalAdapterContract.ProposalState",
          "name": "state",
          "type": "uint8"
        }
      ],
      "stateMutability": "view",
      "type": "function"
    },
    {
      "inputs": [
        {
          "internalType": "contract DaoRegistry",
          "name": "dao",
          "type": "address"
        }
      ],
      "name": "submitClearFundProposal",
      "outputs": [],
      "stateMutability": "nonpayable",
      "type": "function"
    }
  ],
  "bytecode": "0x608060405234801561001057600080fd5b50612002806100206000396000f3fe608060405234801561001057600080fd5b506004361061004c5760003560e01c806339f584b3146100515780635cb752761461006657806360e6fbea146100d15780638e3ee388146100ff575b600080fd5b61006461005f366004611cba565b610112565b005b6100b7610074366004611b83565b600260208181526000938452604080852090915291835291208054600182015492820154600383015460049093015491936001600160a01b031692909160ff1685565b6040516100c8959493929190611e19565b60405180910390f35b6100f16100df366004611b44565b60006020819052908152604090205481565b6040519081526020016100c8565b61006461010d366004611b44565b6106fc565b81600061011e82610b8a565b6001600160a01b03851660008181526002602081815260408084208985529091529182902091517ff941f691000000000000000000000000000000000000000000000000000000008152939450909263f941f6919161018291889190600401611e54565b60206040518083038186803b15801561019a57600080fd5b505afa1580156101ae573d6000803e3d6000fd5b505050506040513d601f19601f820116820180604052508101906101d29190611c75565b156102245760405162461bcd60e51b815260206004820152601a60248201527f70726f706f73616c20616c72656164792070726f63657373656400000000000060448201526064015b60405180910390fd5b6040516317ba7d8560e01b81527f907642cbfe4e58ddd14eaa320923fbe4c29721dd0950ae4cb3b2626e292791ae60048201526000906001600160a01b038716906317ba7d859060240160206040518083038186803b15801561028657600080fd5b505afa15801561029a573d6000803e3d6000fd5b505050506040513d601f19601f820116820180604052508101906102be9190611b67565b90506001600160a01b0381166103165760405162461bcd60e51b815260206004820152601160248201527f61646170746572206e6f7420666f756e64000000000000000000000000000000604482015260640161021b565b6040517f76225e730000000000000000000000000000000000000000000000000000000081526001600160a01b0387811660048301526024820187905260009182918291908516906376225e7390604401606060405180830381600087803b15801561038157600080fd5b505af1158015610395573d6000803e3d6000fd5b505050506040513d601f19601f820116820180604052508101906103b99190611ccc565b9194509250905060006103cb8a610e55565b6040517f30490e91000000000000000000000000000000000000000000000000000000008152600481018b90529091506001600160a01b038b16906330490e9190602401600060405180830381600087803b15801561042957600080fd5b505af115801561043d573d6000803e3d6000fd5b506002925061044a915050565b84600581111561046a57634e487b7160e01b600052602160045260246000fd5b1415610597576040516317ba7d8560e01b81527f8f5b4aabbdb8527d420a29cc90ae207773ad49b73c632c3cfd2f29eb8776f2ea60048201526000906001600160a01b038c16906317ba7d859060240160206040518083038186803b1580156104d257600080fd5b505afa1580156104e6573d6000803e3d6000fd5b505050506040513d601f19601f8201168201806040525081019061050a9190611b67565b6040517f83cffffe0000000000000000000000000000000000000000000000000000000081526001600160a01b038d81166004830152919250908216906383cffffe90602401600060405180830381600087803b15801561056a57600080fd5b505af115801561057e573d6000803e3d6000fd5b5050505060048701805460ff191660021790555061062f565b60038460058111156105b957634e487b7160e01b600052602160045260246000fd5b14806105e4575060018460058111156105e257634e487b7160e01b600052602160045260246000fd5b145b156105fd5760048601805460ff1916600317905561062f565b6040517f97cbb52b00000000000000000000000000000000000000000000000000000000815260040160405180910390fd5b6001600160a01b038a166000908152600160205260409020610651908a610f39565b1561067a576001600160a01b038a166000908152600160205260409020610678908a610f56565b505b60048601547ff3d22b9e73b9947a3edd70bd6279f80eda44c15f3cc8af46dc57bfb8191edd2b908b908b9060ff168487878a60058111156106cb57634e487b7160e01b600052602160045260246000fd5b6040516106de9796959493929190611dbf565b60405180910390a15050505050506106f68282610f62565b50505050565b806107078133610f71565b81600061071382610b8a565b9050836001600160a01b031663b00cda466040518163ffffffff1660e01b8152600401600060405180830381600087803b15801561075057600080fd5b505af1158015610764573d6000803e3d6000fd5b50505050600061080f8560c01b6107ea876001600160a01b031663b21f370e6040518163ffffffff1660e01b815260040160206040518083038186803b1580156107ad57600080fd5b505afa1580156107c1573d6000803e3d6000fd5b505050506040513d601f19601f820116820180604052508101906107e59190611d05565b61104f565b6040516020016107fb929190611d31565b6040516020818303038152906040526111a5565b6040805160a08101825282815233602082015242818301529051634941d71d60e11b81527f9876c0f0505bfb2b1c38d3bbd25ba13159172cd0868972d76927723f5a9480fc60048201529192509060608201906001600160a01b03881690639283ae3a9060240160206040518083038186803b15801561088e57600080fd5b505afa1580156108a2573d6000803e3d6000fd5b505050506040513d601f19601f820116820180604052508101906108c69190611d05565b6108d09042611eac565b8152602001600090526001600160a01b0386811660009081526002602081815260408084208785528252928390208551815590850151600180830180547fffffffffffffffffffffffff000000000000000000000000000000000000000016929096169190911790945591840151908201556060830151600380830191909155608084015160048301805493949193909260ff199091169190849081111561098857634e487b7160e01b600052602160045260246000fd5b0217905550506040517fb73dc389000000000000000000000000000000000000000000000000000000008152600481018390526001600160a01b038716915063b73dc38990602401600060405180830381600087803b1580156109ea57600080fd5b505af11580156109fe573d6000803e3d6000fd5b50506040516317ba7d8560e01b81527f907642cbfe4e58ddd14eaa320923fbe4c29721dd0950ae4cb3b2626e292791ae60048201526001600160a01b038816925063815a2bf49150839083906317ba7d859060240160206040518083038186803b158015610a6b57600080fd5b505afa158015610a7f573d6000803e3d6000fd5b505050506040513d601f19601f82011682018060405250810190610aa39190611b67565b6040517fffffffff0000000000000000000000000000000000000000000000000000000060e085901b16815260048101929092526001600160a01b03166024820152604401600060405180830381600087803b158015610b0257600080fd5b505af1158015610b16573d6000803e3d6000fd5b5050506001600160a01b0386166000908152600160205260409020610b3c9150826111c1565b50604080516001600160a01b0387168152602081018390527ffe22c13d0cc04eef2a813c30901da5f8cd64f5ba91866fccce71c606ce464874910160405180910390a1506106f68282610f62565b6040805160808101825260008082526020820181905291810182905260608101919091525a81600001818152505043826001600160a01b031663b21634826040518163ffffffff1660e01b815260040160206040518083038186803b158015610bf257600080fd5b505afa158015610c06573d6000803e3d6000fd5b505050506040513d601f19601f82011682018060405250810190610c2a9190611d05565b1415610c785760405162461bcd60e51b815260206004820152601060248201527f7265656e7472616e637920677561726400000000000000000000000000000000604482015260640161021b565b816001600160a01b03166310fdb0a26040518163ffffffff1660e01b8152600401600060405180830381600087803b158015610cb357600080fd5b505af1158015610cc7573d6000803e3d6000fd5b50506040517f72c6838f0000000000000000000000000000000000000000000000000000000081527f1f2fd42ad6a6cacd573c4b212beb7a4e2499ad45d742a65337097f130e71daff6004820152600092506001600160a01b03851691506372c6838f9060240160206040518083038186803b158015610d4657600080fd5b505afa158015610d5a573d6000803e3d6000fd5b505050506040513d601f19601f82011682018060405250810190610d7e9190611b67565b90506001600160a01b038116610d9a5760006020830152610e4f565b6001600160a01b038181166060840181905283516040517f43a8a3f1000000000000000000000000000000000000000000000000000000008152928616600484015260248301526000918291906343a8a3f190604401604080518083038186803b158015610e0757600080fd5b505afa158015610e1b573d6000803e3d6000fd5b505050506040513d601f19601f82011682018060405250810190610e3f9190611c8f565b9015156020860152604085015250505b50919050565b600080826001600160a01b031663a6f636416040518163ffffffff1660e01b815260040160006040518083038186803b158015610e9157600080fd5b505afa158015610ea5573d6000803e3d6000fd5b505050506040513d6000823e601f3d908101601f19168201604052610ecd9190810190611bae565b90506000805b82518160ff161015610f3157610f1385848360ff1681518110610f0657634e487b7160e01b600052603260045260246000fd5b60200260200101516111cd565b610f1d9083611e78565b915080610f2981611f28565b915050610ed3565b509392505050565b600081815260018301602052604081205415155b90505b92915050565b6000610f4d838361176e565b610f6d82823361188b565b5050565b6040517fa230c5240000000000000000000000000000000000000000000000000000000081526001600160a01b03828116600483015283169063a230c5249060240160206040518083038186803b158015610fcb57600080fd5b505afa158015610fdf573d6000803e3d6000fd5b505050506040513d601f19601f820116820180604052508101906110039190611c75565b610f6d5760405162461bcd60e51b815260206004820152600c60248201527f6f6e6c79476f7665726e6f720000000000000000000000000000000000000000604482015260640161021b565b60608161108f57505060408051808201909152600181527f3000000000000000000000000000000000000000000000000000000000000000602082015290565b8160005b81156110b957806110a381611eef565b91506110b29050600a83611ec4565b9150611093565b60008167ffffffffffffffff8111156110e257634e487b7160e01b600052604160045260246000fd5b6040519080825280601f01601f19166020018201604052801561110c576020820181803683370190505b5090505b841561119d57611121600183611ed8565b915061112e600a86611f48565b611139906030611eac565b60f81b81838151811061115c57634e487b7160e01b600052603260045260246000fd5b60200101907effffffffffffffffffffffffffffffffffffffffffffffffffffffffffffff1916908160001a905350611196600a86611ec4565b9450611110565b949350505050565b60008151600014156111b957506000919050565b506020015190565b6000610f4d8383611999565b604051634941d71d60e11b81527feee23dc9ab95b6666db01c2b6cae6a5ef706099a25926e21e0a2e043fe885604600482015260009081906001600160a01b03851690639283ae3a9060240160206040518083038186803b15801561123157600080fd5b505afa158015611245573d6000803e3d6000fd5b505050506040513d601f19601f820116820180604052508101906112699190611d05565b604051634941d71d60e11b81527fd093d4a34a12a221b19c0a6689d5449f1346aa769d15cca4e9782c36fda9339a60048201529091506000906001600160a01b03861690639283ae3a9060240160206040518083038186803b1580156112ce57600080fd5b505afa1580156112e2573d6000803e3d6000fd5b505050506040513d601f19601f820116820180604052508101906113069190611d05565b6040516317ba7d8560e01b81527f8f5b4aabbdb8527d420a29cc90ae207773ad49b73c632c3cfd2f29eb8776f2ea60048201529091506000906001600160a01b038716906317ba7d859060240160206040518083038186803b15801561136b57600080fd5b505afa15801561137f573d6000803e3d6000fd5b505050506040513d601f19601f820116820180604052508101906113a39190611b67565b6040517f68abb5e00000000000000000000000000000000000000000000000000000000081526001600160a01b0388811660048301529192506000918316906368abb5e09060240160206040518083038186803b15801561140357600080fd5b505afa158015611417573d6000803e3d6000fd5b505050506040513d601f19601f8201168201806040525081019061143b9190611d05565b111580156114d657506040517fa230c5240000000000000000000000000000000000000000000000000000000081526001600160a01b03868116600483015287169063a230c5249060240160206040518083038186803b15801561149e57600080fd5b505afa1580156114b2573d6000803e3d6000fd5b505050506040513d601f19601f820116820180604052508101906114d69190611c75565b156114e75760019350505050610f50565b81600114156116045760008361159457604051633de222bb60e21b81526001600160a01b0388811660048301528781166024830152670de0b6b3a7640000919084169063f7888aec9060440160206040518083038186803b15801561154b57600080fd5b505afa15801561155f573d6000803e3d6000fd5b505050506040513d601f19601f820116820180604052508101906115839190611d05565b61158d9190611ec4565b90506115a1565b6000945050505050610f50565b600081116115b6576000945050505050610f50565b677fffffffffffffff81106115d2576032945050505050610f50565b60006115ed6115e86115e3846119e8565b611a06565b611b08565b67ffffffffffffffff169550610f50945050505050565b81600214156116b95760008361159457604051633de222bb60e21b81526001600160a01b03888116600483015287811660248301526000919084169063f7888aec9060440160206040518083038186803b15801561166157600080fd5b505afa158015611675573d6000803e3d6000fd5b505050506040513d601f19601f820116820180604052508101906116999190611d05565b116116a55760006116a8565b60015b60ff1690505b9350610f5092505050565b816117625760008361159457604051633de222bb60e21b81526001600160a01b0388811660048301528781166024830152670de0b6b3a7640000919084169063f7888aec9060440160206040518083038186803b15801561171957600080fd5b505afa15801561172d573d6000803e3d6000fd5b505050506040513d601f19601f820116820180604052508101906117519190611d05565b61175b9190611ec4565b90506116ae565b60009350505050610f50565b60008181526001830160205260408120548015611881576000611792600183611ed8565b85549091506000906117a690600190611ed8565b90508181146118275760008660000182815481106117d457634e487b7160e01b600052603260045260246000fd5b906000526020600020015490508087600001848154811061180557634e487b7160e01b600052603260045260246000fd5b6000918252602080832090910192909255918252600188019052604090208390555b855486908061184657634e487b7160e01b600052603160045260246000fd5b600190038181906000526020600020016000905590558560010160008681526020019081526020016000206000905560019350505050610f50565b6000915050610f50565b8160200151156119415781606001516001600160a01b0316635e5eb01384835a86516118b79190611ed8565b60408088015190517fffffffff0000000000000000000000000000000000000000000000000000000060e087901b1681526001600160a01b03948516600482015293909216602484015260448301526064820152608401600060405180830381600087803b15801561192857600080fd5b505af115801561193c573d6000803e3d6000fd5b505050505b826001600160a01b031663d4f7af436040518163ffffffff1660e01b8152600401600060405180830381600087803b15801561197c57600080fd5b505af1158015611990573d6000803e3d6000fd5b50505050505050565b60008181526001830160205260408120546119e057508154600181810184556000848152602080822090930184905584548482528286019093526040902091909155610f50565b506000610f50565b6000677fffffffffffffff8211156119ff57600080fd5b5060401b90565b60008082600f0b13611a1757600080fd5b6000600f83900b680100000000000000008112611a36576040918201911d5b6401000000008112611a4a576020918201911d5b620100008112611a5c576010918201911d5b6101008112611a6d576008918201911d5b60108112611a7d576004918201911d5b60048112611a8d576002918201911d5b60028112611a9c576001820191505b7fffffffffffffffffffffffffffffffffffffffffffffffffffffffffffffffc0820160401b600f85900b607f8490031b6780000000000000005b6000811315611afd5790800260ff81901c8281029390930192607f011c9060011d611ad7565b509095945050505050565b60008082600f0b1215611b1a57600080fd5b50600f0b60401d90565b8051611b2f81611fb4565b919050565b80518015158114611b2f57600080fd5b600060208284031215611b55578081fd5b8135611b6081611fb4565b9392505050565b600060208284031215611b78578081fd5b8151611b6081611fb4565b60008060408385031215611b95578081fd5b8235611ba081611fb4565b946020939093013593505050565b60006020808385031215611bc0578182fd5b825167ffffffffffffffff80821115611bd7578384fd5b818501915085601f830112611bea578384fd5b815181811115611bfc57611bfc611f9e565b8060051b604051601f19603f83011681018181108582111715611c2157611c21611f9e565b604052828152858101935084860182860187018a1015611c3f578788fd5b8795505b83861015611c6857611c5481611b24565b855260019590950194938601938601611c43565b5098975050505050505050565b600060208284031215611c86578081fd5b610f4d82611b34565b60008060408385031215611ca1578182fd5b611caa83611b34565b9150602083015190509250929050565b60008060408385031215611b95578182fd5b600080600060608486031215611ce0578081fd5b835160068110611cee578182fd5b602085015160409095015190969495509392505050565b600060208284031215611d16578081fd5b5051919050565b60048110611d2d57611d2d611f88565b9052565b7fffffffffffffffff000000000000000000000000000000000000000000000000831681527f436c65617246756e642300000000000000000000000000000000000000000000600882015260008251815b81811015611d9f5760208186018101516012868401015201611d82565b81811115611db05782601283860101525b50919091016012019392505050565b6001600160a01b03881681526020810187905260e08101611de36040830188611d1d565b6fffffffffffffffffffffffffffffffff861660608301528460808301528360a08301528260c083015298975050505050505050565b8581526001600160a01b0385166020820152604081018490526060810183905260a08101611e4a6080830184611d1d565b9695505050505050565b8281526040810160038310611e6b57611e6b611f88565b8260208301529392505050565b60006fffffffffffffffffffffffffffffffff808316818516808303821115611ea357611ea3611f5c565b01949350505050565b60008219821115611ebf57611ebf611f5c565b500190565b600082611ed357611ed3611f72565b500490565b600082821015611eea57611eea611f5c565b500390565b60007fffffffffffffffffffffffffffffffffffffffffffffffffffffffffffffffff821415611f2157611f21611f5c565b5060010190565b600060ff821660ff811415611f3f57611f3f611f5c565b60010192915050565b600082611f5757611f57611f72565b500690565b634e487b7160e01b600052601160045260246000fd5b634e487b7160e01b600052601260045260246000fd5b634e487b7160e01b600052602160045260246000fd5b634e487b7160e01b600052604160045260246000fd5b6001600160a01b0381168114611fc957600080fd5b5056fea26469706673582212209fa99abb69baed4bf47b08fc1eea10731eaef151d737e7aba076cd3d13763b2464736f6c63430008040033",
  "linkReferences": {},
  "deployedLinkReferences": {}
}