{
  "_format": "hh-sol-artifact-1",
  "contractName": "ColletiveGovernorManagementContract",
  "sourceName": "contracts/collective/adapters/CollectiveGovernorManagementAdapter.sol",
  "abi": [
    {
      "anonymous": false,
      "inputs": [
        {
          "indexed": false,
          "internalType": "address",
          "name": "daoAddr",
          "type": "address"
        },
        {
          "indexed": false,
          "internalType": "bytes32",
          "name": "proposalId",
          "type": "bytes32"
        },
        {
          "indexed": false,
          "internalType": "address",
          "name": "account",
          "type": "address"
        },
        {
          "indexed": false,
          "internalType": "uint256",
          "name": "creationTime",
          "type": "uint256"
        },
        {
          "indexed": false,
          "internalType": "uint256",
          "name": "stopVoteTime",
          "type": "uint256"
        },
        {
          "indexed": false,
          "internalType": "enum ColletiveGovernorManagementContract.ProposalType",
          "name": "pType",
          "type": "uint8"
        }
      ],
      "name": "ProposalCreated",
      "type": "event"
    },
    {
      "anonymous": false,
      "inputs": [
        {
          "indexed": false,
          "internalType": "address",
          "name": "daoAddr",
          "type": "address"
        },
        {
          "indexed": false,
          "internalType": "bytes32",
          "name": "proposalId",
          "type": "bytes32"
        },
        {
          "indexed": false,
          "internalType": "enum ColletiveGovernorManagementContract.ProposalState",
          "name": "state",
          "type": "uint8"
        },
        {
          "indexed": false,
          "internalType": "uint128",
          "name": "allVotingWeight",
          "type": "uint128"
        },
        {
          "indexed": false,
          "internalType": "uint256",
          "name": "nbYes",
          "type": "uint256"
        },
        {
          "indexed": false,
          "internalType": "uint256",
          "name": "nbNo",
          "type": "uint256"
        },
        {
          "indexed": false,
          "internalType": "uint256",
          "name": "voteResult",
          "type": "uint256"
        }
      ],
      "name": "ProposalProcessed",
      "type": "event"
    },
    {
      "inputs": [
        {
          "internalType": "contract DaoRegistry",
          "name": "dao",
          "type": "address"
        }
      ],
      "name": "allDone",
      "outputs": [
        {
          "internalType": "bool",
          "name": "",
          "type": "bool"
        }
      ],
      "stateMutability": "view",
      "type": "function"
    },
    {
      "inputs": [
        {
          "internalType": "contract DaoRegistry",
          "name": "dao",
          "type": "address"
        }
      ],
      "name": "getAllGovernor",
      "outputs": [
        {
          "internalType": "address[]",
          "name": "",
          "type": "address[]"
        }
      ],
      "stateMutability": "view",
      "type": "function"
    },
    {
      "inputs": [
        {
          "internalType": "contract DaoRegistry",
          "name": "dao",
          "type": "address"
        }
      ],
      "name": "getGovernorAmount",
      "outputs": [
        {
          "internalType": "uint256",
          "name": "",
          "type": "uint256"
        }
      ],
      "stateMutability": "view",
      "type": "function"
    },
    {
      "inputs": [
        {
          "internalType": "contract DaoRegistry",
          "name": "dao",
          "type": "address"
        },
        {
          "internalType": "address",
          "name": "_addr",
          "type": "address"
        }
      ],
      "name": "isActiveMember",
      "outputs": [
        {
          "internalType": "bool",
          "name": "",
          "type": "bool"
        }
      ],
      "stateMutability": "view",
      "type": "function"
    },
    {
      "inputs": [
        {
          "internalType": "contract DaoRegistry",
          "name": "dao",
          "type": "address"
        },
        {
          "internalType": "bytes32",
          "name": "proposalId",
          "type": "bytes32"
        }
      ],
      "name": "processProposal",
      "outputs": [],
      "stateMutability": "nonpayable",
      "type": "function"
    },
    {
      "inputs": [
        {
          "internalType": "contract DaoRegistry",
          "name": "",
          "type": "address"
        },
        {
          "internalType": "bytes32",
          "name": "",
          "type": "bytes32"
        }
      ],
      "name": "proposals",
      "outputs": [
        {
          "internalType": "bytes32",
          "name": "id",
          "type": "bytes32"
        },
        {
          "internalType": "address",
          "name": "account",
          "type": "address"
        },
        {
          "internalType": "address",
          "name": "tokenAddress",
          "type": "address"
        },
        {
          "internalType": "uint256",
          "name": "depositAmount",
          "type": "uint256"
        },
        {
          "internalType": "uint256",
          "name": "creationTime",
          "type": "uint256"
        },
        {
          "internalType": "uint256",
          "name": "stopVoteTime",
          "type": "uint256"
        },
        {
          "internalType": "enum ColletiveGovernorManagementContract.ProposalState",
          "name": "state",
          "type": "uint8"
        },
        {
          "internalType": "enum ColletiveGovernorManagementContract.ProposalType",
          "name": "pType",
          "type": "uint8"
        }
      ],
      "stateMutability": "view",
      "type": "function"
    },
    {
      "inputs": [
        {
          "internalType": "contract DaoRegistry",
          "name": "dao",
          "type": "address"
        }
      ],
      "name": "quit",
      "outputs": [],
      "stateMutability": "nonpayable",
      "type": "function"
    },
    {
      "inputs": [
        {
          "internalType": "contract DaoRegistry",
          "name": "dao",
          "type": "address"
        },
        {
          "internalType": "address",
          "name": "applicant",
          "type": "address"
        },
        {
          "internalType": "address",
          "name": "tokenAddress",
          "type": "address"
        },
        {
          "internalType": "uint256",
          "name": "depositAmount",
          "type": "uint256"
        }
      ],
      "name": "submitGovernorInProposal",
      "outputs": [
        {
          "internalType": "bytes32",
          "name": "",
          "type": "bytes32"
        }
      ],
      "stateMutability": "nonpayable",
      "type": "function"
    },
    {
      "inputs": [
        {
          "internalType": "contract DaoRegistry",
          "name": "dao",
          "type": "address"
        },
        {
          "internalType": "address",
          "name": "applicant",
          "type": "address"
        }
      ],
      "name": "submitGovernorOutProposal",
      "outputs": [
        {
          "internalType": "bytes32",
          "name": "",
          "type": "bytes32"
        }
      ],
      "stateMutability": "nonpayable",
      "type": "function"
    }
  ],
  "bytecode": "0x608060405234801561001057600080fd5b50613701806100206000396000f3fe608060405234801561001057600080fd5b50600436106100a35760003560e01c8063792c4106116100765780639573167d1161005b5780639573167d146101b6578063c0cb19ab146101cb578063d32b91dd146101de57600080fd5b8063792c4106146101835780638ecf7720146101a357600080fd5b80632d258e72146100a85780635cb75276146100ce57806360c5c28f1461014d578063642fc0c014610160575b600080fd5b6100bb6100b6366004613146565b6101f1565b6040519081526020015b60405180910390f35b6101396100dc3660046131ea565b6000602081815292815260408082209093529081522080546001820154600283015460038401546004850154600586015460069096015494956001600160a01b039485169594909316939192909160ff8082169161010090041688565b6040516100c5989796959493929190613482565b6100bb61015b366004613162565b610202565b61017361016e366004613146565b610532565b60405190151581526020016100c5565b610196610191366004613146565b610569565b6040516100c59190613435565b6101736101b1366004613162565b610574565b6101c96101c43660046131ea565b6105f8565b005b6100bb6101d936600461319a565b610cd6565b6101c96101ec366004613146565b611008565b60006101fc8261115b565b92915050565b60008261020f8133611337565b83600061021b82611391565b60405163288c314960e21b81526001600160a01b0387811660048301529192509087169063a230c5249060240160206040518083038186803b15801561026057600080fd5b505afa158015610274573d6000803e3d6000fd5b505050506040513d601f19601f820116820180604052508101906102989190613101565b6102e95760405162461bcd60e51b815260206004820152601760248201527f4170706c6963616e742049736e7420476f7665726e6f7200000000000000000060448201526064015b60405180910390fd5b856001600160a01b031663250a70b76040518163ffffffff1660e01b8152600401600060405180830381600087803b15801561032457600080fd5b505af1158015610338573d6000803e3d6000fd5b5050505060006103e38760c01b6103be896001600160a01b0316633ea34b866040518163ffffffff1660e01b815260040160206040518083038186803b15801561038157600080fd5b505afa158015610395573d6000803e3d6000fd5b505050506040513d601f19601f820116820180604052508101906103b9919061327e565b61165c565b6040516020016103cf929190613328565b6040516020818303038152906040526117b2565b604051634941d71d60e11b81527f9876c0f0505bfb2b1c38d3bbd25ba13159172cd0868972d76927723f5a9480fc600482015290915042906000906001600160a01b038a1690639283ae3a9060240160206040518083038186803b15801561044a57600080fd5b505afa15801561045e573d6000803e3d6000fd5b505050506040513d601f19601f82011682018060405250810190610482919061327e565b61048c908361357f565b905061049b89848a85856117ce565b6104b5898460405180602001604052806000815250611a81565b6001600160a01b03891660009081526002602052604090206104d79084611cb7565b507ffea2665062ba82dc413c7c18c28f836789917497e349b8c156ebaaae175ddabf89848a8585600160405161051296959493929190613396565b60405180910390a150909450506105298282611cc3565b50505092915050565b6001600160a01b0381166000908152600260205260408120819061055590611cce565b116105615760016101fc565b600092915050565b60606101fc82611cd8565b60405163288c314960e21b81526001600160a01b0382811660048301526000919084169063a230c5249060240160206040518083038186803b1580156105b957600080fd5b505afa1580156105cd573d6000803e3d6000fd5b505050506040513d601f19601f820116820180604052508101906105f19190613101565b9392505050565b81600061060482611391565b6001600160a01b038516600090815260208181526040808320878452909152902080549192509084146106795760405162461bcd60e51b815260206004820152601760248201527f70726f706f73616c20646f6573206e6f7420657869737400000000000000000060448201526064016102e0565b6040517ff941f6910000000000000000000000000000000000000000000000000000000081526001600160a01b0386169063f941f691906106c19087906002906004016134dd565b60206040518083038186803b1580156106d957600080fd5b505afa1580156106ed573d6000803e3d6000fd5b505050506040513d601f19601f820116820180604052508101906107119190613101565b1561075e5760405162461bcd60e51b815260206004820152601a60248201527f70726f706f73616c20616c72656164792070726f63657373656400000000000060448201526064016102e0565b6040516317ba7d8560e01b81527f907642cbfe4e58ddd14eaa320923fbe4c29721dd0950ae4cb3b2626e292791ae60048201526000906001600160a01b038716906317ba7d859060240160206040518083038186803b1580156107c057600080fd5b505afa1580156107d4573d6000803e3d6000fd5b505050506040513d601f19601f820116820180604052508101906107f8919061301e565b90506001600160a01b0381166108505760405162461bcd60e51b815260206004820152601160248201527f61646170746572206e6f7420666f756e6400000000000000000000000000000060448201526064016102e0565b6040517f76225e730000000000000000000000000000000000000000000000000000000081526001600160a01b0387811660048301526024820187905260009182918291908516906376225e7390604401606060405180830381600087803b1580156108bb57600080fd5b505af11580156108cf573d6000803e3d6000fd5b505050506040513d601f19601f820116820180604052508101906108f39190613215565b9194509250905060006109068a8a611d4f565b6040517f30490e91000000000000000000000000000000000000000000000000000000008152600481018b90529091506001600160a01b038b16906330490e9190602401600060405180830381600087803b15801561096457600080fd5b505af1158015610978573d6000803e3d6000fd5b5060029250610985915050565b8460058111156109a557634e487b7160e01b600052602160045260246000fd5b1415610b35576006860180546001919060ff19168280021790555060018601546001600160a01b031660006006880154610100900460ff1660018111156109fc57634e487b7160e01b600052602160045260246000fd5b1415610a77576040517fdc929f4a0000000000000000000000000000000000000000000000000000000081526001600160a01b0382811660048301528c169063dc929f4a90602401600060405180830381600087803b158015610a5e57600080fd5b505af1158015610a72573d6000803e3d6000fd5b505050505b60016006880154610100900460ff166001811115610aa557634e487b7160e01b600052602160045260246000fd5b1415610b20576040517f0b1ca49a0000000000000000000000000000000000000000000000000000000081526001600160a01b0382811660048301528c1690630b1ca49a90602401600060405180830381600087803b158015610b0757600080fd5b505af1158015610b1b573d6000803e3d6000fd5b505050505b5060068601805460ff19166002179055610c09565b6003846005811115610b5757634e487b7160e01b600052602160045260246000fd5b1480610b8257506001846005811115610b8057634e487b7160e01b600052602160045260246000fd5b145b15610b9b5760068601805460ff19166003179055610c09565b60405162461bcd60e51b815260206004820152602260248201527f70726f706f73616c20686173206e6f74206265656e20766f746564206f6e207960448201527f657400000000000000000000000000000000000000000000000000000000000060648201526084016102e0565b6001600160a01b038a166000908152600260205260409020610c2b908a61200f565b15610c54576001600160a01b038a166000908152600260205260409020610c52908a612027565b505b60068601547f7ab29e6deeb60f3b76461422909b7ae5bda1be890b270b70c56a32d54cd2a456908b908b9060ff168487878a6005811115610ca557634e487b7160e01b600052602160045260246000fd5b604051610cb897969594939291906133db565b60405180910390a1505050505050610cd08282611cc3565b50505050565b6000846000610ce482611391565b905086610cf18133611337565b60405163288c314960e21b81526001600160a01b03888116600483015289169063a230c5249060240160206040518083038186803b158015610d3257600080fd5b505afa158015610d46573d6000803e3d6000fd5b505050506040513d601f19601f82011682018060405250810190610d6a9190613101565b15610db75760405162461bcd60e51b815260206004820152601360248201527f497320476f7665726e6f7220616c72656164790000000000000000000000000060448201526064016102e0565b610dc088612033565b610e0c5760405162461bcd60e51b815260206004820152601660248201527f556e446f6e652044616f7365742050726f706f73616c0000000000000000000060448201526064016102e0565b876001600160a01b031663ec56a1f26040518163ffffffff1660e01b8152600401600060405180830381600087803b158015610e4757600080fd5b505af1158015610e5b573d6000803e3d6000fd5b505050506000610eb58960c01b610ea48b6001600160a01b03166352c1d9016040518163ffffffff1660e01b815260040160206040518083038186803b15801561038157600080fd5b6040516020016103cf9291906132ba565b604051634941d71d60e11b81527f9876c0f0505bfb2b1c38d3bbd25ba13159172cd0868972d76927723f5a9480fc600482015290915042906000906001600160a01b038c1690639283ae3a9060240160206040518083038186803b158015610f1c57600080fd5b505afa158015610f30573d6000803e3d6000fd5b505050506040513d601f19601f82011682018060405250810190610f54919061327e565b610f5e908361357f565b9050610f6f8b848c8c8c87876120d7565b610f898b8460405180602001604052806000815250611a81565b6001600160a01b038b166000908152600260205260409020610fab9084611cb7565b507ffea2665062ba82dc413c7c18c28f836789917497e349b8c156ebaaae175ddabf8b848c85856000604051610fe696959493929190613396565b60405180910390a1509094505050610ffe8282611cc3565b5050949350505050565b806110138133611337565b336001600160a01b0316826001600160a01b031663149acf9a6040518163ffffffff1660e01b815260040160206040518083038186803b15801561105657600080fd5b505afa15801561106a573d6000803e3d6000fd5b505050506040513d601f19601f8201168201806040525081019061108e919061301e565b6001600160a01b031614156110e55760405162461bcd60e51b815260206004820152601660248201527f64616f2073756d6d6f6e6f722063616e7420717569740000000000000000000060448201526064016102e0565b6040517f0b1ca49a0000000000000000000000000000000000000000000000000000000081523360048201526001600160a01b03831690630b1ca49a90602401600060405180830381600087803b15801561113f57600080fd5b505af1158015611153573d6000803e3d6000fd5b505050505050565b600080826001600160a01b031663c67143666040518163ffffffff1660e01b815260040160206040518083038186803b15801561119757600080fd5b505afa1580156111ab573d6000803e3d6000fd5b505050506040513d601f19601f820116820180604052508101906111cf919061327e565b90506000805b828160ff16101561132f576040517f9029444a00000000000000000000000000000000000000000000000000000000815260ff821660048201526001600160a01b0386169063a230c524908290639029444a9060240160206040518083038186803b15801561124357600080fd5b505afa158015611257573d6000803e3d6000fd5b505050506040513d601f19601f8201168201806040525081019061127b919061301e565b6040517fffffffff0000000000000000000000000000000000000000000000000000000060e084901b1681526001600160a01b03909116600482015260240160206040518083038186803b1580156112d257600080fd5b505afa1580156112e6573d6000803e3d6000fd5b505050506040513d601f19601f8201168201806040525081019061130a9190613101565b1561131d5761131a60018361357f565b91505b8061132781613627565b9150506111d5565b509392505050565b6113418282610574565b61138d5760405162461bcd60e51b815260206004820152600b60248201527f6f6e6c795374657761726400000000000000000000000000000000000000000060448201526064016102e0565b5050565b6040805160808101825260008082526020820181905291810182905260608101919091525a81600001818152505043826001600160a01b031663b21634826040518163ffffffff1660e01b815260040160206040518083038186803b1580156113f957600080fd5b505afa15801561140d573d6000803e3d6000fd5b505050506040513d601f19601f82011682018060405250810190611431919061327e565b141561147f5760405162461bcd60e51b815260206004820152601060248201527f7265656e7472616e63792067756172640000000000000000000000000000000060448201526064016102e0565b816001600160a01b03166310fdb0a26040518163ffffffff1660e01b8152600401600060405180830381600087803b1580156114ba57600080fd5b505af11580156114ce573d6000803e3d6000fd5b50506040517f72c6838f0000000000000000000000000000000000000000000000000000000081527f1f2fd42ad6a6cacd573c4b212beb7a4e2499ad45d742a65337097f130e71daff6004820152600092506001600160a01b03851691506372c6838f9060240160206040518083038186803b15801561154d57600080fd5b505afa158015611561573d6000803e3d6000fd5b505050506040513d601f19601f82011682018060405250810190611585919061301e565b90506001600160a01b0381166115a15760006020830152611656565b6001600160a01b038181166060840181905283516040517f43a8a3f1000000000000000000000000000000000000000000000000000000008152928616600484015260248301526000918291906343a8a3f190604401604080518083038186803b15801561160e57600080fd5b505afa158015611622573d6000803e3d6000fd5b505050506040513d601f19601f82011682018060405250810190611646919061311b565b9015156020860152604085015250505b50919050565b60608161169c57505060408051808201909152600181527f3000000000000000000000000000000000000000000000000000000000000000602082015290565b8160005b81156116c657806116b0816135ee565b91506116bf9050600a83613597565b91506116a0565b60008167ffffffffffffffff8111156116ef57634e487b7160e01b600052604160045260246000fd5b6040519080825280601f01601f191660200182016040528015611719576020820181803683370190505b5090505b84156117aa5761172e6001836135ab565b915061173b600a86613647565b61174690603061357f565b60f81b81838151811061176957634e487b7160e01b600052603260045260246000fd5b60200101907effffffffffffffffffffffffffffffffffffffffffffffffffffffffffffff1916908160001a9053506117a3600a86613597565b945061171d565b949350505050565b60008151600014156117c657506000919050565b506020015190565b60405163288c314960e21b81526001600160a01b03848116600483015286169063a230c5249060240160206040518083038186803b15801561180f57600080fd5b505afa158015611823573d6000803e3d6000fd5b505050506040513d601f19601f820116820180604052508101906118479190613101565b6118935760405162461bcd60e51b815260206004820152600d60248201527f69736e7420676f7665726e6f720000000000000000000000000000000000000060448201526064016102e0565b604051806101000160405280858152602001846001600160a01b0316815260200160006001600160a01b0316815260200160008152602001838152602001828152602001600060038111156118f857634e487b7160e01b600052602160045260246000fd5b8152602001600190526001600160a01b038087166000908152602081815260408083208984528252918290208451815590840151600180830180549286167fffffffffffffffffffffffff0000000000000000000000000000000000000000938416179055928501516002830180549190951691161790925560608301516003808401919091556080840151600484015560a0840151600584015560c08401516006840180549193909260ff199092169184908111156119c857634e487b7160e01b600052602160045260246000fd5b021790555060e082015160068201805461ff001916610100836001811115611a0057634e487b7160e01b600052602160045260246000fd5b0217905550506040517fb73dc389000000000000000000000000000000000000000000000000000000008152600481018690526001600160a01b038716915063b73dc38990602401600060405180830381600087803b158015611a6257600080fd5b505af1158015611a76573d6000803e3d6000fd5b505050505050505050565b6040516317ba7d8560e01b81527f0d479c38716a0298633b1dbf1ce145a3fbd1d79ca4527de172afc3bad04a2ba760048201526000906001600160a01b038516906317ba7d859060240160206040518083038186803b158015611ae357600080fd5b505afa158015611af7573d6000803e3d6000fd5b505050506040513d601f19601f82011682018060405250810190611b1b919061301e565b6040516317ba7d8560e01b81527f0d479c38716a0298633b1dbf1ce145a3fbd1d79ca4527de172afc3bad04a2ba760048201529091506001600160a01b0385169063815a2bf490859083906317ba7d859060240160206040518083038186803b158015611b8757600080fd5b505afa158015611b9b573d6000803e3d6000fd5b505050506040513d601f19601f82011682018060405250810190611bbf919061301e565b6040517fffffffff0000000000000000000000000000000000000000000000000000000060e085901b16815260048101929092526001600160a01b03166024820152604401600060405180830381600087803b158015611c1e57600080fd5b505af1158015611c32573d6000803e3d6000fd5b50506040517f2b0974d00000000000000000000000000000000000000000000000000000000081526001600160a01b0384169250632b0974d09150611c7f90879087908790600401613501565b600060405180830381600087803b158015611c9957600080fd5b505af1158015611cad573d6000803e3d6000fd5b5050505050505050565b60006105f1838361238b565b61138d8282336123da565b60006101fc825490565b6060816001600160a01b031663a6f636416040518163ffffffff1660e01b815260040160006040518083038186803b158015611d1357600080fd5b505afa158015611d27573d6000803e3d6000fd5b505050506040513d6000823e601f3d908101601f191682016040526101fc919081019061303a565b600080611d5b84611cd8565b6040516317ba7d8560e01b81527f0d479c38716a0298633b1dbf1ce145a3fbd1d79ca4527de172afc3bad04a2ba7600482015290915060009081906001600160a01b038716906317ba7d859060240160206040518083038186803b158015611dc257600080fd5b505afa158015611dd6573d6000803e3d6000fd5b505050506040513d601f19601f82011682018060405250810190611dfa919061301e565b905060005b83518160ff16101561200457816001600160a01b03166324a2cceb8888878560ff1681518110611e3f57634e487b7160e01b600052603260045260246000fd5b60200260200101516040518463ffffffff1660e01b8152600401611e83939291906001600160a01b0393841681526020810192909252909116604082015260600190565b60206040518083038186803b158015611e9b57600080fd5b505afa158015611eaf573d6000803e3d6000fd5b505050506040513d601f19601f82011682018060405250810190611ed39190613101565b15611fb157816001600160a01b03166391d2fd538888878560ff1681518110611f0c57634e487b7160e01b600052603260045260246000fd5b60200260200101516040518463ffffffff1660e01b8152600401611f50939291906001600160a01b0393841681526020810192909252909116604082015260600190565b60206040518083038186803b158015611f6857600080fd5b505afa158015611f7c573d6000803e3d6000fd5b505050506040513d601f19601f82011682018060405250810190611fa0919061324e565b611faa908461354b565b9250611ff2565b611fe587858360ff1681518110611fd857634e487b7160e01b600052603260045260246000fd5b60200260200101516124e8565b611fef908461354b565b92505b80611ffc81613627565b915050611dff565b509095945050505050565b600081815260018301602052604081205415156105f1565b60006105f18383612db0565b6040516317ba7d8560e01b81527fdac6d9ce728ebc92a61253866b4e5a4c73b76ba0aa11e7297a633f6232f54237600482015260009081906001600160a01b038416906317ba7d859060240160206040518083038186803b15801561209757600080fd5b505afa1580156120ab573d6000803e3d6000fd5b505050506040513d601f19601f820116820180604052508101906120cf919061301e565b905050919050565b60405163288c314960e21b81526001600160a01b03868116600483015288169063a230c5249060240160206040518083038186803b15801561211857600080fd5b505afa15801561212c573d6000803e3d6000fd5b505050506040513d601f19601f820116820180604052508101906121509190613101565b1561219d5760405162461bcd60e51b815260206004820152601060248201527f676f7665726e6f7220657869737465640000000000000000000000000000000060448201526064016102e0565b604051806101000160405280878152602001866001600160a01b03168152602001856001600160a01b031681526020018481526020018381526020018281526020016000600381111561220057634e487b7160e01b600052602160045260246000fd5b8152602001600090526001600160a01b038089166000908152602081815260408083208b84528252918290208451815590840151600180830180549286167fffffffffffffffffffffffff0000000000000000000000000000000000000000938416179055928501516002830180549190951691161790925560608301516003808401919091556080840151600484015560a0840151600584015560c08401516006840180549193909260ff199092169184908111156122d057634e487b7160e01b600052602160045260246000fd5b021790555060e082015160068201805461ff00191661010083600181111561230857634e487b7160e01b600052602160045260246000fd5b0217905550506040517fb73dc389000000000000000000000000000000000000000000000000000000008152600481018890526001600160a01b038916915063b73dc38990602401600060405180830381600087803b15801561236a57600080fd5b505af115801561237e573d6000803e3d6000fd5b5050505050505050505050565b60008181526001830160205260408120546123d2575081546001818101845560008481526020808220909301849055845484825282860190935260409020919091556101fc565b5060006101fc565b8160200151156124905781606001516001600160a01b0316635e5eb01384835a865161240691906135ab565b60408088015190517fffffffff0000000000000000000000000000000000000000000000000000000060e087901b1681526001600160a01b03948516600482015293909216602484015260448301526064820152608401600060405180830381600087803b15801561247757600080fd5b505af115801561248b573d6000803e3d6000fd5b505050505b826001600160a01b031663d4f7af436040518163ffffffff1660e01b8152600401600060405180830381600087803b1580156124cb57600080fd5b505af11580156124df573d6000803e3d6000fd5b50505050505050565b604051634941d71d60e11b81527f75b7d343967750d1f6c15979b7559cea8be22ff1a06a51681b9cbef0d2fff4fe600482015260009081906001600160a01b03851690639283ae3a9060240160206040518083038186803b15801561254c57600080fd5b505afa158015612560573d6000803e3d6000fd5b505050506040513d601f19601f82011682018060405250810190612584919061327e565b604051634941d71d60e11b81527f18ef0b57fe939edb640a200fdf533493bd8f26a274151543a109b64c857e20f360048201529091506000906001600160a01b03861690639283ae3a9060240160206040518083038186803b1580156125e957600080fd5b505afa1580156125fd573d6000803e3d6000fd5b505050506040513d601f19601f82011682018060405250810190612621919061327e565b6040516317ba7d8560e01b81527f37cbe06c1044f98864ea25736326bc1d488e24e5e23781ea2ad64c4069cb9e6e60048201529091506000906001600160a01b038716906317ba7d859060240160206040518083038186803b15801561268657600080fd5b505afa15801561269a573d6000803e3d6000fd5b505050506040513d601f19601f820116820180604052508101906126be919061301e565b90508160011415612a5f57604051634941d71d60e11b81527f77b1580d1632c74a32483c26a7156260a89ae4138b020ea7d09b0dcf24f1ea2460048201526000906001600160a01b03881690639283ae3a9060240160206040518083038186803b15801561272b57600080fd5b505afa15801561273f573d6000803e3d6000fd5b505050506040513d601f19601f82011682018060405250810190612763919061327e565b6040517ffd310d290000000000000000000000000000000000000000000000000000000081527fb5a1ad3f04728d7c38547e3d43006a1ec090a02fce04bbb1d0ee4519a1921e5760048201529091506000906001600160a01b0389169063fd310d299060240160206040518083038186803b1580156127e157600080fd5b505afa1580156127f5573d6000803e3d6000fd5b505050506040513d601f19601f82011682018060405250810190612819919061301e565b90506000856128b7576040516370a0823160e01b81526001600160a01b038981166004830152670de0b6b3a764000091908416906370a082319060240160206040518083038186803b15801561286e57600080fd5b505afa158015612882573d6000803e3d6000fd5b505050506040513d601f19601f820116820180604052508101906128a6919061327e565b6128b09190613597565b90506129f6565b856001141561293a576040516370a0823160e01b81526001600160a01b0389811660048301528316906370a08231906024015b60206040518083038186803b15801561290257600080fd5b505afa158015612916573d6000803e3d6000fd5b505050506040513d601f19601f820116820180604052508101906128b0919061327e565b856002141561298f576040517efdd58e0000000000000000000000000000000000000000000000000000000081526001600160a01b0389811660048301526024820185905283169062fdd58e906044016128ea565b85600314156129e7576040517fa6d945cc0000000000000000000000000000000000000000000000000000000081526001600160a01b038a81166004830152898116602483015285169063a6d945cc906044016128ea565b600096505050505050506101fc565b60008111612a0d57600096505050505050506101fc565b677fffffffffffffff8110612a2b57603296505050505050506101fc565b6000612a46612a41612a3c84612ecd565b612eeb565b612fe2565b67ffffffffffffffff1697506101fc9650505050505050565b8160021415612a7457600193505050506101fc565b81612da457604051634941d71d60e11b81527f77b1580d1632c74a32483c26a7156260a89ae4138b020ea7d09b0dcf24f1ea2460048201526000906001600160a01b03881690639283ae3a9060240160206040518083038186803b158015612adb57600080fd5b505afa158015612aef573d6000803e3d6000fd5b505050506040513d601f19601f82011682018060405250810190612b13919061327e565b6040517ffd310d290000000000000000000000000000000000000000000000000000000081527fb5a1ad3f04728d7c38547e3d43006a1ec090a02fce04bbb1d0ee4519a1921e5760048201529091506000906001600160a01b0389169063fd310d299060240160206040518083038186803b158015612b9157600080fd5b505afa158015612ba5573d6000803e3d6000fd5b505050506040513d601f19601f82011682018060405250810190612bc9919061301e565b9050600085612c67576040516370a0823160e01b81526001600160a01b038981166004830152670de0b6b3a764000091908416906370a082319060240160206040518083038186803b158015612c1e57600080fd5b505afa158015612c32573d6000803e3d6000fd5b505050506040513d601f19601f82011682018060405250810190612c56919061327e565b612c609190613597565b9050612d97565b8560011415612cea576040516370a0823160e01b81526001600160a01b0389811660048301528316906370a08231906024015b60206040518083038186803b158015612cb257600080fd5b505afa158015612cc6573d6000803e3d6000fd5b505050506040513d601f19601f82011682018060405250810190612c60919061327e565b8560021415612d3f576040517efdd58e0000000000000000000000000000000000000000000000000000000081526001600160a01b0389811660048301526024820185905283169062fdd58e90604401612c9a565b85600314156129e7576040517fa6d945cc0000000000000000000000000000000000000000000000000000000081526001600160a01b038a81166004830152898116602483015285169063a6d945cc90604401612c9a565b95506101fc945050505050565b600093505050506101fc565b60008181526001830160205260408120548015612ec3576000612dd46001836135ab565b8554909150600090612de8906001906135ab565b9050818114612e69576000866000018281548110612e1657634e487b7160e01b600052603260045260246000fd5b9060005260206000200154905080876000018481548110612e4757634e487b7160e01b600052603260045260246000fd5b6000918252602080832090910192909255918252600188019052604090208390555b8554869080612e8857634e487b7160e01b600052603160045260246000fd5b6001900381819060005260206000200160009055905585600101600086815260200190815260200160002060009055600193505050506101fc565b60009150506101fc565b6000677fffffffffffffff821115612ee457600080fd5b5060401b90565b60008082600f0b13612efc57600080fd5b6000600f83900b680100000000000000008112612f1b576040918201911d5b6401000000008112612f2f576020918201911d5b620100008112612f41576010918201911d5b6101008112612f52576008918201911d5b60108112612f62576004918201911d5b60048112612f72576002918201911d5b60028112612f81576001820191505b7fffffffffffffffffffffffffffffffffffffffffffffffffffffffffffffffc0820160401b600f85900b607f8490031b6780000000000000005b60008113156120045790800260ff81901c8281029390930192607f011c9060011d612fbc565b60008082600f0b1215612ff457600080fd5b50600f0b60401d90565b8051613009816136b3565b919050565b8051801515811461300957600080fd5b60006020828403121561302f578081fd5b81516105f1816136b3565b6000602080838503121561304c578182fd5b825167ffffffffffffffff80821115613063578384fd5b818501915085601f830112613076578384fd5b8151818111156130885761308861369d565b8060051b604051601f19603f830116810181811085821117156130ad576130ad61369d565b604052828152858101935084860182860187018a10156130cb578788fd5b8795505b838610156130f4576130e081612ffe565b8552600195909501949386019386016130cf565b5098975050505050505050565b600060208284031215613112578081fd5b6105f18261300e565b6000806040838503121561312d578081fd5b6131368361300e565b9150602083015190509250929050565b600060208284031215613157578081fd5b81356105f1816136b3565b60008060408385031215613174578182fd5b823561317f816136b3565b9150602083013561318f816136b3565b809150509250929050565b600080600080608085870312156131af578182fd5b84356131ba816136b3565b935060208501356131ca816136b3565b925060408501356131da816136b3565b9396929550929360600135925050565b600080604083850312156131fc578182fd5b8235613207816136b3565b946020939093013593505050565b600080600060608486031215613229578283fd5b835160068110613237578384fd5b602085015160409095015190969495509392505050565b60006020828403121561325f578081fd5b81516fffffffffffffffffffffffffffffffff811681146105f1578182fd5b60006020828403121561328f578081fd5b5051919050565b600481106132a6576132a6613687565b9052565b600281106132a6576132a6613687565b7fffffffffffffffff000000000000000000000000000000000000000000000000831681527f476f7665726e6f722d496e23000000000000000000000000000000000000000060088201526000825161331a8160148501602087016135c2565b919091016014019392505050565b7fffffffffffffffff000000000000000000000000000000000000000000000000831681527f476f7665726e6f722d4f757423000000000000000000000000000000000000006008820152600082516133888160158501602087016135c2565b919091016015019392505050565b6001600160a01b0387811682526020820187905285166040820152606081018490526080810183905260c081016133d060a08301846132aa565b979650505050505050565b6001600160a01b03881681526020810187905260e081016133ff6040830188613296565b6fffffffffffffffffffffffffffffffff861660608301528460808301528360a08301528260c083015298975050505050505050565b6020808252825182820181905260009190848201906040850190845b818110156134765783516001600160a01b031683529284019291840191600101613451565b50909695505050505050565b8881526001600160a01b03888116602083015287166040820152606081018690526080810185905260a0810184905261010081016134c360c0830185613296565b6134d060e08301846132aa565b9998505050505050505050565b82815260408101600383106134f4576134f4613687565b8260208301529392505050565b6001600160a01b038416815282602082015260606040820152600082518060608401526135358160808501602087016135c2565b601f01601f191691909101608001949350505050565b60006fffffffffffffffffffffffffffffffff8083168185168083038211156135765761357661365b565b01949350505050565b600082198211156135925761359261365b565b500190565b6000826135a6576135a6613671565b500490565b6000828210156135bd576135bd61365b565b500390565b60005b838110156135dd5781810151838201526020016135c5565b83811115610cd05750506000910152565b60007fffffffffffffffffffffffffffffffffffffffffffffffffffffffffffffffff8214156136205761362061365b565b5060010190565b600060ff821660ff81141561363e5761363e61365b565b60010192915050565b60008261365657613656613671565b500690565b634e487b7160e01b600052601160045260246000fd5b634e487b7160e01b600052601260045260246000fd5b634e487b7160e01b600052602160045260246000fd5b634e487b7160e01b600052604160045260246000fd5b6001600160a01b03811681146136c857600080fd5b5056fea26469706673582212209c7aad5015925cedc4f646dd23b6ade9e9a0f3623742ab673ba20675434aa90764736f6c63430008040033",
  "linkReferences": {},
  "deployedLinkReferences": {}
}