{
  "_format": "hh-sol-artifact-1",
  "contractName": "CollectiveAllocationAdapterContract",
  "sourceName": "contracts/collective/adapters/CollectiveAllocationAdapter.sol",
  "abi": [
    {
      "anonymous": false,
      "inputs": [
        {
          "indexed": false,
          "internalType": "address",
          "name": "daoAddr",
          "type": "address"
        },
        {
          "indexed": false,
          "internalType": "bytes32",
          "name": "proposalId",
          "type": "bytes32"
        },
        {
          "indexed": false,
          "internalType": "address",
          "name": "proposer",
          "type": "address"
        },
        {
          "indexed": false,
          "internalType": "address[]",
          "name": "lps",
          "type": "address[]"
        }
      ],
      "name": "AllocateToken",
      "type": "event"
    },
    {
      "inputs": [],
      "name": "PERCENTAGE_PRECISION",
      "outputs": [
        {
          "internalType": "uint256",
          "name": "",
          "type": "uint256"
        }
      ],
      "stateMutability": "view",
      "type": "function"
    },
    {
      "inputs": [
        {
          "internalType": "contract DaoRegistry",
          "name": "dao",
          "type": "address"
        },
        {
          "internalType": "address",
          "name": "tokenAddress",
          "type": "address"
        },
        {
          "internalType": "address",
          "name": "proposerAddr",
          "type": "address"
        },
        {
          "internalType": "bytes32",
          "name": "proposalId",
          "type": "bytes32"
        },
        {
          "internalType": "uint256[6]",
          "name": "uint256Args",
          "type": "uint256[6]"
        }
      ],
      "name": "allocateProjectToken",
      "outputs": [],
      "stateMutability": "nonpayable",
      "type": "function"
    },
    {
      "inputs": [
        {
          "internalType": "contract DaoRegistry",
          "name": "dao",
          "type": "address"
        },
        {
          "internalType": "address",
          "name": "recipient",
          "type": "address"
        },
        {
          "internalType": "uint256",
          "name": "tokenAmount",
          "type": "uint256"
        }
      ],
      "name": "getInvestmentRewards",
      "outputs": [
        {
          "internalType": "uint256",
          "name": "",
          "type": "uint256"
        }
      ],
      "stateMutability": "view",
      "type": "function"
    },
    {
      "inputs": [
        {
          "internalType": "contract DaoRegistry",
          "name": "dao",
          "type": "address"
        },
        {
          "internalType": "address",
          "name": "proposerAddr",
          "type": "address"
        },
        {
          "internalType": "uint256",
          "name": "tokenAmount",
          "type": "uint256"
        }
      ],
      "name": "getProposerBonus",
      "outputs": [
        {
          "internalType": "uint256",
          "name": "",
          "type": "uint256"
        }
      ],
      "stateMutability": "view",
      "type": "function"
    },
    {
      "inputs": [
        {
          "internalType": "contract DaoRegistry",
          "name": "dao",
          "type": "address"
        },
        {
          "internalType": "address",
          "name": "recipient",
          "type": "address"
        },
        {
          "internalType": "bytes32",
          "name": "proposalId",
          "type": "bytes32"
        }
      ],
      "name": "ifEligible",
      "outputs": [
        {
          "internalType": "bool",
          "name": "",
          "type": "bool"
        }
      ],
      "stateMutability": "view",
      "type": "function"
    },
    {
      "inputs": [
        {
          "internalType": "contract DaoRegistry",
          "name": "dao",
          "type": "address"
        },
        {
          "internalType": "bytes32",
          "name": "proposalId",
          "type": "bytes32"
        },
        {
          "internalType": "address",
          "name": "recepient",
          "type": "address"
        }
      ],
      "name": "isVestCreated",
      "outputs": [
        {
          "internalType": "bool",
          "name": "",
          "type": "bool"
        }
      ],
      "stateMutability": "view",
      "type": "function"
    },
    {
      "inputs": [
        {
          "internalType": "contract DaoRegistry",
          "name": "dao",
          "type": "address"
        },
        {
          "internalType": "bytes32",
          "name": "proposalId",
          "type": "bytes32"
        },
        {
          "internalType": "address",
          "name": "recipient",
          "type": "address"
        }
      ],
      "name": "vestCreated",
      "outputs": [
        {
          "internalType": "bool",
          "name": "",
          "type": "bool"
        }
      ],
      "stateMutability": "nonpayable",
      "type": "function"
    },
    {
      "inputs": [
        {
          "internalType": "address",
          "name": "",
          "type": "address"
        },
        {
          "internalType": "bytes32",
          "name": "",
          "type": "bytes32"
        },
        {
          "internalType": "address",
          "name": "",
          "type": "address"
        }
      ],
      "name": "vestingInfos",
      "outputs": [
        {
          "internalType": "uint256",
          "name": "tokenAmount",
          "type": "uint256"
        },
        {
          "internalType": "bool",
          "name": "created",
          "type": "bool"
        }
      ],
      "stateMutability": "view",
      "type": "function"
    }
  ],
  "bytecode": "0x608060405234801561001057600080fd5b5061196c806100206000396000f3fe608060405234801561001057600080fd5b50600436106100885760003560e01c80636cb4e9eb1161005b5780636cb4e9eb1461013b5780637d15e7b914610182578063944120fb14610195578063e256888f146101a857600080fd5b80631190b0a61461008d57806324d1669d146100e2578063479a80ee146100f7578063560dbdd714610118575b600080fd5b6100c861009b366004611555565b60026020908152600093845260408085208252928452828420905282529020805460019091015460ff1682565b604080519283529015156020830152015b60405180910390f35b6100f56100f036600461166a565b6101b7565b005b61010a610105366004611716565b611031565b6040519081526020016100d9565b61012b610126366004611756565b61123c565b60405190151581526020016100d9565b61012b610149366004611756565b6001600160a01b039283166000908152600260209081526040808320948352938152838220929094168152925290206001015460ff1690565b61012b610190366004611716565b611378565b61010a6101a3366004611716565b6113bd565b61010a670de0b6b3a764000081565b6040516317ba7d8560e01b81527f72894213a5c7f56b36b2947fa6ea18963d6bb1a68746b46d7f552cca76e1a7a860048201526001600160a01b038616906317ba7d859060240160206040518083038186803b15801561021657600080fd5b505afa15801561022a573d6000803e3d6000fd5b505050506040513d601f19601f8201168201806040525081019061024e9190611539565b6001600160a01b0316336001600160a01b0316146102b35760405162461bcd60e51b815260206004820152600b60248201527f6163636573732064656e7900000000000000000000000000000000000000000060448201526064015b60405180910390fd5b61035160405180610200016040528060006001600160a01b0316815260200160006001600160a01b03168152602001600081526020016000815260200160008152602001600060ff16815260200160008152602001600081526020016000815260200160008152602001600081526020016000815260200160008152602001600081526020016000815260200160006001600160a01b031681525090565b815161010082015260208201516101208201526040808301516101408301526060830151610160830152608083015161018083015260a08301516101a0830152517f593e96b60000000000000000000000000000000000000000000000000000000081527f3909e87234f428ccb8748126e2c93f66a62f92a70d315fa5803dec6362be07ab60048201526001600160a01b0387169063593e96b69060240160206040518083038186803b15801561040757600080fd5b505afa15801561041b573d6000803e3d6000fd5b505050506040513d601f19601f8201168201806040525081019061043f9190611539565b6001600160a01b0390811682526101008201516040516317ba7d8560e01b81527f3b8222b84816150ff171ef9b3356ce3d250b8e7c01c09c0208949acc0880db34600482015290918781169163dd62ed3e918a16906317ba7d859060240160206040518083038186803b1580156104b557600080fd5b505afa1580156104c9573d6000803e3d6000fd5b505050506040513d601f19601f820116820180604052508101906104ed9190611539565b6040517fffffffff0000000000000000000000000000000000000000000000000000000060e084901b1681526001600160a01b03909116600482015230602482015260440160206040518083038186803b15801561054a57600080fd5b505afa15801561055e573d6000803e3d6000fd5b505050506040513d601f19601f82011682018060405250810190610582919061176a565b10156105d05760405162461bcd60e51b815260206004820152601660248201527f696e73756666696369656e7420616c6c6f77616e63650000000000000000000060448201526064016102aa565b6040516317ba7d8560e01b81527f3b8222b84816150ff171ef9b3356ce3d250b8e7c01c09c0208949acc0880db3460048201526001600160a01b03808716916323b872dd918916906317ba7d859060240160206040518083038186803b15801561063957600080fd5b505afa15801561064d573d6000803e3d6000fd5b505050506040513d601f19601f820116820180604052508101906106719190611539565b6101008401516040517fffffffff0000000000000000000000000000000000000000000000000000000060e085901b1681526001600160a01b0390921660048301523060248301526044820152606401602060405180830381600087803b1580156106db57600080fd5b505af11580156106ef573d6000803e3d6000fd5b505050506040513d601f19601f82011682018060405250810190610713919061164a565b506040517f9283ae3a0000000000000000000000000000000000000000000000000000000081527f8b16fcc7f28e07601cf35dbe966264f4e6dba6686614b06b65a1cbacdd6721b56004820152670de0b6b3a7640000906001600160a01b03881690639283ae3a9060240160206040518083038186803b15801561079657600080fd5b505afa1580156107aa573d6000803e3d6000fd5b505050506040513d601f19601f820116820180604052508101906107ce919061176a565b8261010001516107de919061187e565b6107e8919061185e565b6101c082015261010081015161080190879086906113bd565b60e08201526101c08101511561098d576040517ffd310d290000000000000000000000000000000000000000000000000000000081527f5460409b9aa4688f80c10b29c3d7ad16025f050f472a6882a45fa7bb9bd12fb160048201526001600160a01b0387169063fd310d299060240160206040518083038186803b15801561088957600080fd5b505afa15801561089d573d6000803e3d6000fd5b505050506040513d601f19601f820116820180604052508101906108c19190611539565b6001600160a01b039081166101e083019081526040805180820182526101c08501518a85166000908152600260209081528482208a835281528482209551909616815293909452912054909182916109199190611846565b8152600060209182018190526001600160a01b03898116825260028352604080832088845284528083206101e08701519092168352908352908190208351815592909101516001909201805460ff1916921515929092179091556101c08201519082018051610989908390611846565b9052505b846001600160a01b031663dd62ed3e30886001600160a01b03166317ba7d857fdfea78be99560632cc4c199ca1b0d68ffe0bbbb07b685976cefc8820374ac73a6040518263ffffffff1660e01b81526004016109eb91815260200190565b60206040518083038186803b158015610a0357600080fd5b505afa158015610a17573d6000803e3d6000fd5b505050506040513d601f19601f82011682018060405250810190610a3b9190611539565b6040517fffffffff0000000000000000000000000000000000000000000000000000000060e085901b1681526001600160a01b0392831660048201529116602482015260440160206040518083038186803b158015610a9957600080fd5b505afa158015610aad573d6000803e3d6000fd5b505050506040513d601f19601f82011682018060405250810190610ad1919061176a565b60608201819052610100820151610ae791611846565b60808201526040516317ba7d8560e01b81527fdfea78be99560632cc4c199ca1b0d68ffe0bbbb07b685976cefc8820374ac73a60048201526001600160a01b038681169163095ea7b3918916906317ba7d859060240160206040518083038186803b158015610b5557600080fd5b505afa158015610b69573d6000803e3d6000fd5b505050506040513d601f19601f82011682018060405250810190610b8d9190611539565b60808401516040517fffffffff0000000000000000000000000000000000000000000000000000000060e085901b1681526001600160a01b0390921660048301526024820152604401602060405180830381600087803b158015610bf057600080fd5b505af1158015610c04573d6000803e3d6000fd5b505050506040513d601f19601f82011682018060405250810190610c28919061164a565b506040516317ba7d8560e01b81527f8f5b4aabbdb8527d420a29cc90ae207773ad49b73c632c3cfd2f29eb8776f2ea60048201526001600160a01b038716906317ba7d859060240160206040518083038186803b158015610c8857600080fd5b505afa158015610c9c573d6000803e3d6000fd5b505050506040513d601f19601f82011682018060405250810190610cc09190611539565b6001600160a01b03908116602083018190526040517f50d9e68800000000000000000000000000000000000000000000000000000000815291881660048301526000916350d9e6889060240160006040518083038186803b158015610d2457600080fd5b505afa158015610d38573d6000803e3d6000fd5b505050506040513d6000823e601f3d908101601f19168201604052610d609190810190611596565b805190915015610ec057600060a08301525b80518260a0015160ff161015610ec057610dda87828460a0015160ff1681518110610dad57634e487b7160e01b600052603260045260246000fd5b60200260200101518460e00151856101c00151866101000151610dd091906118bb565b61010591906118bb565b60c0830181905215610ea55760408051808201825260c08401518152600060208083018290526001600160a01b038b16825260028152838220888352905291822060a0850151845192939192859160ff16908110610e4857634e487b7160e01b600052603260045260246000fd5b6020908102919091018101516001600160a01b031682528181019290925260409081016000208351815592909101516001909201805460ff19169215159290921790915560c08301519083018051610ea1908390611846565b9052505b60a08201805190610eb5826118d2565b60ff16905250610d72565b6001600160a01b03851615610f925760e082015115610f925760408051808201825260e08401516001600160a01b03808b166000908152600260209081528582208a83528152858220928b16825291909152929092205490918291610f259190611846565b8152600060209182018190526001600160a01b038a811682526002835260408083208984528452808320918a168352908352908190208351815592909101516001909201805460ff19169215159290921790915560e08301519083018051610f8e908390611846565b9052505b81610100015182604001511115610feb5760405162461bcd60e51b815260206004820152600f60248201527f3e7061796261636b20616d6f756e74000000000000000000000000000000000060448201526064016102aa565b7fb30991f84bbcadc6375188d275cc12036a829854c38fa1fb9bf1125fc45b08fe878587846040516110209493929190611782565b60405180910390a150505050505050565b6040517f593e96b60000000000000000000000000000000000000000000000000000000081527f3909e87234f428ccb8748126e2c93f66a62f92a70d315fa5803dec6362be07ab600482015260009081906001600160a01b0386169063593e96b69060240160206040518083038186803b1580156110ae57600080fd5b505afa1580156110c2573d6000803e3d6000fd5b505050506040513d601f19601f820116820180604052508101906110e69190611539565b90506000816001600160a01b03166318160ddd6040518163ffffffff1660e01b815260040160206040518083038186803b15801561112357600080fd5b505afa158015611137573d6000803e3d6000fd5b505050506040513d601f19601f8201168201806040525081019061115b919061176a565b6040517f70a082310000000000000000000000000000000000000000000000000000000081526001600160a01b0387811660048301529192506000918416906370a082319060240160206040518083038186803b1580156111bb57600080fd5b505afa1580156111cf573d6000803e3d6000fd5b505050506040513d601f19601f820116820180604052508101906111f3919061176a565b9050811580611200575080155b80611209575084155b1561121a5760009350505050611235565b81611225868361187e565b61122f919061185e565b93505050505b9392505050565b6040516317ba7d8560e01b81527f15c9835cf5910308466ec9cbdb6a0be1b9ea161943cc4caf2457bc33d880f19760048201526000906001600160a01b038516906317ba7d859060240160206040518083038186803b15801561129e57600080fd5b505afa1580156112b2573d6000803e3d6000fd5b505050506040513d601f19601f820116820180604052508101906112d69190611539565b6001600160a01b0316336001600160a01b0316146113365760405162461bcd60e51b815260206004820152600b60248201527f4163636573732064656e7900000000000000000000000000000000000000000060448201526064016102aa565b506001600160a01b039283166000908152600260209081526040808320948352938152838220929094168152925290206001908101805460ff19168217905590565b6001600160a01b0380841660009081526002602090815260408083208584528252808320938616835292905290812054156113b557506001611235565b506000611235565b6040517fa230c5240000000000000000000000000000000000000000000000000000000081526001600160a01b0383811660048301526000919085169063a230c5249060240160206040518083038186803b15801561141b57600080fd5b505afa15801561142f573d6000803e3d6000fd5b505050506040513d601f19601f82011682018060405250810190611453919061164a565b61145f57506000611235565b6040517f9283ae3a0000000000000000000000000000000000000000000000000000000081527f5336359c44e86b23d844644c110b45f50decf679c37f24a46bd2b399996328756004820152600090670de0b6b3a7640000906001600160a01b03871690639283ae3a9060240160206040518083038186803b1580156114e457600080fd5b505afa1580156114f8573d6000803e3d6000fd5b505050506040513d601f19601f8201168201806040525081019061151c919061176a565b611526908561187e565b611530919061185e565b95945050505050565b60006020828403121561154a578081fd5b81516112358161191e565b600080600060608486031215611569578182fd5b83356115748161191e565b925060208401359150604084013561158b8161191e565b809150509250925092565b600060208083850312156115a8578182fd5b825167ffffffffffffffff808211156115bf578384fd5b818501915085601f8301126115d2578384fd5b8151818111156115e4576115e4611908565b8060051b91506115f5848301611815565b8181528481019084860184860187018a101561160f578788fd5b8795505b8386101561163d57805194506116288561191e565b84835260019590950194918601918601611613565b5098975050505050505050565b60006020828403121561165b578081fd5b81518015158114611235578182fd5b6000806000806000610140808789031215611683578182fd5b863561168e8161191e565b955060208781013561169f8161191e565b955060408801356116af8161191e565b945060608801359350609f880189136116c6578283fd5b6116ce6117ec565b8060808a018b858c0111156116e1578586fd5b8594505b60068510156117045780358352600194909401939183019183016116e5565b50809450505050509295509295909350565b60008060006060848603121561172a578283fd5b83356117358161191e565b925060208401356117458161191e565b929592945050506040919091013590565b600080600060608486031215611569578283fd5b60006020828403121561177b578081fd5b5051919050565b6000608082016001600160a01b0380881684526020878186015281871660408601526080606086015282865180855260a0870191508288019450855b818110156117dc5785518516835294830194918301916001016117be565b50909a9950505050505050505050565b60405160c0810167ffffffffffffffff8111828210171561180f5761180f611908565b60405290565b604051601f8201601f1916810167ffffffffffffffff8111828210171561183e5761183e611908565b604052919050565b60008219821115611859576118596118f2565b500190565b60008261187957634e487b7160e01b81526012600452602481fd5b500490565b6000817fffffffffffffffffffffffffffffffffffffffffffffffffffffffffffffffff04831182151516156118b6576118b66118f2565b500290565b6000828210156118cd576118cd6118f2565b500390565b600060ff821660ff8114156118e9576118e96118f2565b60010192915050565b634e487b7160e01b600052601160045260246000fd5b634e487b7160e01b600052604160045260246000fd5b6001600160a01b038116811461193357600080fd5b5056fea2646970667358221220704b46461f7be06e5d452d53f5de1a7d4648fedca7e8ebdd276c4ae29b66634064736f6c63430008040033",
  "linkReferences": {},
  "deployedLinkReferences": {}
}