{
  "_format": "hh-sol-artifact-1",
  "contractName": "CollectiveEscrowFundAdapterContract",
  "sourceName": "contracts/collective/adapters/CollectiveEscrowFundAdapter.sol",
  "abi": [
    {
      "anonymous": false,
      "inputs": [
        {
          "indexed": false,
          "internalType": "address",
          "name": "dao",
          "type": "address"
        },
        {
          "indexed": false,
          "internalType": "address",
          "name": "token",
          "type": "address"
        },
        {
          "indexed": false,
          "internalType": "address",
          "name": "account",
          "type": "address"
        },
        {
          "indexed": false,
          "internalType": "uint256",
          "name": "amount",
          "type": "uint256"
        }
      ],
      "name": "EscrowFund",
      "type": "event"
    },
    {
      "anonymous": false,
      "inputs": [
        {
          "indexed": false,
          "internalType": "address",
          "name": "dao",
          "type": "address"
        },
        {
          "indexed": false,
          "internalType": "address",
          "name": "token",
          "type": "address"
        },
        {
          "indexed": false,
          "internalType": "address",
          "name": "account",
          "type": "address"
        },
        {
          "indexed": false,
          "internalType": "uint256",
          "name": "amount",
          "type": "uint256"
        }
      ],
      "name": "WithDraw",
      "type": "event"
    },
    {
      "inputs": [
        {
          "internalType": "contract DaoRegistry",
          "name": "dao",
          "type": "address"
        },
        {
          "internalType": "address",
          "name": "token",
          "type": "address"
        },
        {
          "internalType": "address",
          "name": "account",
          "type": "address"
        },
        {
          "internalType": "uint256",
          "name": "amount",
          "type": "uint256"
        }
      ],
      "name": "escrowFundFromFundingPool",
      "outputs": [],
      "stateMutability": "nonpayable",
      "type": "function"
    },
    {
      "inputs": [
        {
          "internalType": "address",
          "name": "",
          "type": "address"
        },
        {
          "internalType": "address",
          "name": "",
          "type": "address"
        },
        {
          "internalType": "address",
          "name": "",
          "type": "address"
        }
      ],
      "name": "escrowFunds",
      "outputs": [
        {
          "internalType": "uint256",
          "name": "",
          "type": "uint256"
        }
      ],
      "stateMutability": "view",
      "type": "function"
    },
    {
      "inputs": [
        {
          "internalType": "contract DaoRegistry",
          "name": "dao",
          "type": "address"
        },
        {
          "internalType": "address",
          "name": "token",
          "type": "address"
        }
      ],
      "name": "withdraw",
      "outputs": [],
      "stateMutability": "nonpayable",
      "type": "function"
    }
  ],
  "bytecode": "0x608060405234801561001057600080fd5b50610e1d806100206000396000f3fe608060405234801561001057600080fd5b50600436106100415760003560e01c806336896be714610046578063a9c5a75c1461005b578063f940e3851461009d575b600080fd5b610059610054366004610c70565b6100b0565b005b61008b610069366004610ba9565b6000602081815293815260408082208552928152828120909352825290205481565b60405190815260200160405180910390f35b6100596100ab366004610c38565b610261565b6040517f17ba7d850000000000000000000000000000000000000000000000000000000081527f8f5b4aabbdb8527d420a29cc90ae207773ad49b73c632c3cfd2f29eb8776f2ea60048201526001600160a01b038516906317ba7d859060240160206040518083038186803b15801561012857600080fd5b505afa15801561013c573d6000803e3d6000fd5b505050506040513d601f19601f820116820180604052508101906101609190610b8d565b6001600160a01b0316336001600160a01b0316146101c55760405162461bcd60e51b815260206004820152600b60248201527f6163636573732064656e7900000000000000000000000000000000000000000060448201526064015b60405180910390fd5b6001600160a01b038085166000908152602081815260408083208785168452825280832093861683529290529081208054839290610204908490610d45565b9091555050604080516001600160a01b03868116825285811660208301528416818301526060810183905290517f01664529dd0bb477469c037b9664d31d356cb0051b1eb903a1ea9cd9718c16fe9181900360800190a150505050565b81600061026d8261048c565b6001600160a01b03808616600090815260208181526040808320938816835292815282822033835290522054909150806102e95760405162461bcd60e51b815260206004820152601360248201527f6e6f2066756e6420746f2077697468647261770000000000000000000000000060448201526064016101bc565b6040517f70a08231000000000000000000000000000000000000000000000000000000008152306004820152819081906001600160a01b038716906370a082319060240160206040518083038186803b15801561034557600080fd5b505afa158015610359573d6000803e3d6000fd5b505050506040513d601f19601f8201168201806040525081019061037d9190610cc0565b1015610416576040517f70a082310000000000000000000000000000000000000000000000000000000081523060048201526001600160a01b038616906370a082319060240160206040518083038186803b1580156103db57600080fd5b505afa1580156103ef573d6000803e3d6000fd5b505050506040513d601f19601f820116820180604052508101906104139190610cc0565b90505b61042a6001600160a01b0386163383610757565b604080516001600160a01b0388811682528716602082015233818301526060810183905290517f4f7e6a99a5c94b3f3e0645725e695a02ed58da3418cf01dfa74b734ee3468f6e9181900360800190a1505061048682826107dc565b50505050565b6040805160808101825260008082526020820181905291810182905260608101919091525a81600001818152505043826001600160a01b031663b21634826040518163ffffffff1660e01b815260040160206040518083038186803b1580156104f457600080fd5b505afa158015610508573d6000803e3d6000fd5b505050506040513d601f19601f8201168201806040525081019061052c9190610cc0565b141561057a5760405162461bcd60e51b815260206004820152601060248201527f7265656e7472616e63792067756172640000000000000000000000000000000060448201526064016101bc565b816001600160a01b03166310fdb0a26040518163ffffffff1660e01b8152600401600060405180830381600087803b1580156105b557600080fd5b505af11580156105c9573d6000803e3d6000fd5b50506040517f72c6838f0000000000000000000000000000000000000000000000000000000081527f1f2fd42ad6a6cacd573c4b212beb7a4e2499ad45d742a65337097f130e71daff6004820152600092506001600160a01b03851691506372c6838f9060240160206040518083038186803b15801561064857600080fd5b505afa15801561065c573d6000803e3d6000fd5b505050506040513d601f19601f820116820180604052508101906106809190610b8d565b90506001600160a01b03811661069c5760006020830152610751565b6001600160a01b038181166060840181905283516040517f43a8a3f1000000000000000000000000000000000000000000000000000000008152928616600484015260248301526000918291906343a8a3f190604401604080518083038186803b15801561070957600080fd5b505afa15801561071d573d6000803e3d6000fd5b505050506040513d601f19601f820116820180604052508101906107419190610c0d565b9015156020860152604085015250505b50919050565b604080516001600160a01b038416602482015260448082018490528251808303909101815260649091019091526020810180517bffffffffffffffffffffffffffffffffffffffffffffffffffffffff167fa9059cbb000000000000000000000000000000000000000000000000000000001790526107d79084906107eb565b505050565b6107e78282336108d0565b5050565b6000610840826040518060400160405280602081526020017f5361666545524332303a206c6f772d6c6576656c2063616c6c206661696c6564815250856001600160a01b03166109de9092919063ffffffff16565b8051909150156107d7578080602001905181019061085e9190610bf3565b6107d75760405162461bcd60e51b815260206004820152602a60248201527f5361666545524332303a204552433230206f7065726174696f6e20646964206e60448201527f6f7420737563636565640000000000000000000000000000000000000000000060648201526084016101bc565b8160200151156109865781606001516001600160a01b0316635e5eb01384835a86516108fc9190610d5d565b60408088015190517fffffffff0000000000000000000000000000000000000000000000000000000060e087901b1681526001600160a01b03948516600482015293909216602484015260448301526064820152608401600060405180830381600087803b15801561096d57600080fd5b505af1158015610981573d6000803e3d6000fd5b505050505b826001600160a01b031663d4f7af436040518163ffffffff1660e01b8152600401600060405180830381600087803b1580156109c157600080fd5b505af11580156109d5573d6000803e3d6000fd5b50505050505050565b60606109ed84846000856109f7565b90505b9392505050565b606082471015610a6f5760405162461bcd60e51b815260206004820152602660248201527f416464726573733a20696e73756666696369656e742062616c616e636520666f60448201527f722063616c6c000000000000000000000000000000000000000000000000000060648201526084016101bc565b6001600160a01b0385163b610ac65760405162461bcd60e51b815260206004820152601d60248201527f416464726573733a2063616c6c20746f206e6f6e2d636f6e747261637400000060448201526064016101bc565b600080866001600160a01b03168587604051610ae29190610cd8565b60006040518083038185875af1925050503d8060008114610b1f576040519150601f19603f3d011682016040523d82523d6000602084013e610b24565b606091505b5091509150610b34828286610b3f565b979650505050505050565b60608315610b4e5750816109f0565b825115610b5e5782518084602001fd5b8160405162461bcd60e51b81526004016101bc9190610cf4565b80518015158114610b8857600080fd5b919050565b600060208284031215610b9e578081fd5b81516109f081610dcf565b600080600060608486031215610bbd578182fd5b8335610bc881610dcf565b92506020840135610bd881610dcf565b91506040840135610be881610dcf565b809150509250925092565b600060208284031215610c04578081fd5b6109f082610b78565b60008060408385031215610c1f578182fd5b610c2883610b78565b9150602083015190509250929050565b60008060408385031215610c4a578182fd5b8235610c5581610dcf565b91506020830135610c6581610dcf565b809150509250929050565b60008060008060808587031215610c85578081fd5b8435610c9081610dcf565b93506020850135610ca081610dcf565b92506040850135610cb081610dcf565b9396929550929360600135925050565b600060208284031215610cd1578081fd5b5051919050565b60008251610cea818460208701610d74565b9190910192915050565b6020815260008251806020840152610d13816040850160208701610d74565b601f017fffffffffffffffffffffffffffffffffffffffffffffffffffffffffffffffe0169190910160400192915050565b60008219821115610d5857610d58610da0565b500190565b600082821015610d6f57610d6f610da0565b500390565b60005b83811015610d8f578181015183820152602001610d77565b838111156104865750506000910152565b7f4e487b7100000000000000000000000000000000000000000000000000000000600052601160045260246000fd5b6001600160a01b0381168114610de457600080fd5b5056fea26469706673582212209b3b72a83afb3d53900830d4a9bbcd7e16218e0b37bf5c4dcba8918118b9c4fd64736f6c63430008040033",
  "linkReferences": {},
  "deployedLinkReferences": {}
}