{
  "_format": "hh-sol-artifact-1",
  "contractName": "CollectiveDistributeAdatperContract",
  "sourceName": "contracts/collective/adapters/CollectiveDistributeAdapter.sol",
  "abi": [
    {
      "inputs": [
        {
          "internalType": "contract DaoRegistry",
          "name": "dao",
          "type": "address"
        },
        {
          "internalType": "address[3]",
          "name": "_addressArgs",
          "type": "address[3]"
        },
        {
          "internalType": "uint256[4]",
          "name": "fees",
          "type": "uint256[4]"
        }
      ],
      "name": "distributeFundByInvestment",
      "outputs": [],
      "stateMutability": "nonpayable",
      "type": "function"
    },
    {
      "inputs": [
        {
          "internalType": "contract DaoRegistry",
          "name": "dao",
          "type": "address"
        },
        {
          "internalType": "uint256",
          "name": "investmentAmount",
          "type": "uint256"
        },
        {
          "internalType": "uint256",
          "name": "protocolFee",
          "type": "uint256"
        },
        {
          "internalType": "uint256",
          "name": "managementFee",
          "type": "uint256"
        },
        {
          "internalType": "uint256",
          "name": "proposerFundReward",
          "type": "uint256"
        }
      ],
      "name": "subFromFundPool",
      "outputs": [],
      "stateMutability": "nonpayable",
      "type": "function"
    }
  ],
  "bytecode": "0x608060405234801561001057600080fd5b50610926806100206000396000f3fe608060405234801561001057600080fd5b50600436106100365760003560e01c80639f8c71491461003b578063ba8c778f14610050575b600080fd5b61004e610049366004610805565b610063565b005b61004e61005e366004610858565b6102d1565b6040517f17ba7d850000000000000000000000000000000000000000000000000000000081527f72894213a5c7f56b36b2947fa6ea18963d6bb1a68746b46d7f552cca76e1a7a860048201526001600160a01b038416906317ba7d859060240160206040518083038186803b1580156100db57600080fd5b505afa1580156100ef573d6000803e3d6000fd5b505050506040513d601f19601f8201168201806040525081019061011391906107e9565b6001600160a01b0316336001600160a01b031614610192576040517f08c379a000000000000000000000000000000000000000000000000000000000815260206004820152600760248201527f216163636573730000000000000000000000000000000000000000000000000060448201526064015b60405180910390fd5b6040517f593e96b60000000000000000000000000000000000000000000000000000000081527f3909e87234f428ccb8748126e2c93f66a62f92a70d315fa5803dec6362be07ab60048201526000906001600160a01b0385169063593e96b69060240160206040518083038186803b15801561020d57600080fd5b505afa158015610221573d6000803e3d6000fd5b505050506040513d601f19601f8201168201806040525081019061024591906107e9565b90506102668161025860208601866107c6565b8460005b60200201356105ce565b60208201351561027f5761027f848260208501356106d3565b6040820135156102a5576102a58161029d60408601602087016107c6565b84600261025c565b6060820135156102cb576102cb816102c360608601604087016107c6565b84600361025c565b50505050565b6040517f17ba7d850000000000000000000000000000000000000000000000000000000081527f72894213a5c7f56b36b2947fa6ea18963d6bb1a68746b46d7f552cca76e1a7a860048201526001600160a01b038616906317ba7d859060240160206040518083038186803b15801561034957600080fd5b505afa15801561035d573d6000803e3d6000fd5b505050506040513d601f19601f8201168201806040525081019061038191906107e9565b6001600160a01b0316336001600160a01b0316146103fb576040517f08c379a000000000000000000000000000000000000000000000000000000000815260206004820152601060248201527f2166756e64696e672061646170746572000000000000000000000000000000006044820152606401610189565b6040517f593e96b60000000000000000000000000000000000000000000000000000000081527f3909e87234f428ccb8748126e2c93f66a62f92a70d315fa5803dec6362be07ab60048201526000906001600160a01b0387169063593e96b69060240160206040518083038186803b15801561047657600080fd5b505afa15801561048a573d6000803e3d6000fd5b505050506040513d601f19601f820116820180604052508101906104ae91906107e9565b9050806001600160a01b031663c3c7645c826001600160a01b031663a87af66c6040518163ffffffff1660e01b815260040160206040518083038186803b1580156104f857600080fd5b505afa15801561050c573d6000803e3d6000fd5b505050506040513d601f19601f8201168201806040525081019061053091906107e9565b848661053c898b61089b565b610546919061089b565b610550919061089b565b6040517fffffffff0000000000000000000000000000000000000000000000000000000060e085901b1681526001600160a01b0390921660048301526024820152604401600060405180830381600087803b1580156105ae57600080fd5b505af11580156105c2573d6000803e3d6000fd5b50505050505050505050565b826001600160a01b031663e176b35e83856001600160a01b031663a87af66c6040518163ffffffff1660e01b815260040160206040518083038186803b15801561061757600080fd5b505afa15801561062b573d6000803e3d6000fd5b505050506040513d601f19601f8201168201806040525081019061064f91906107e9565b6040517fffffffff0000000000000000000000000000000000000000000000000000000060e085901b1681526001600160a01b0392831660048201529116602482015260448101849052606401600060405180830381600087803b1580156106b657600080fd5b505af11580156106ca573d6000803e3d6000fd5b50505050505050565b6040517ffd310d290000000000000000000000000000000000000000000000000000000081527f5460409b9aa4688f80c10b29c3d7ad16025f050f472a6882a45fa7bb9bd12fb160048201526001600160a01b038084169163e176b35e9186169063fd310d299060240160206040518083038186803b15801561075557600080fd5b505afa158015610769573d6000803e3d6000fd5b505050506040513d601f19601f8201168201806040525081019061078d91906107e9565b846001600160a01b031663a87af66c6040518163ffffffff1660e01b815260040160206040518083038186803b15801561061757600080fd5b6000602082840312156107d7578081fd5b81356107e2816108d8565b9392505050565b6000602082840312156107fa578081fd5b81516107e2816108d8565b600080600061010080858703121561081b578283fd5b8435610826816108d8565b93506080850186811115610838578384fd5b60208601935086828701111561084c578283fd5b80925050509250925092565b600080600080600060a0868803121561086f578081fd5b853561087a816108d8565b97602087013597506040870135966060810135965060800135945092505050565b600082198211156108d3577f4e487b710000000000000000000000000000000000000000000000000000000081526011600452602481fd5b500190565b6001600160a01b03811681146108ed57600080fd5b5056fea26469706673582212209eb0ab79a3cab9408c46271ec4c664fe7bb265155631ae901977d6da127b4f4164736f6c63430008040033",
  "linkReferences": {},
  "deployedLinkReferences": {}
}