{
  "_format": "hh-sol-artifact-1",
  "contractName": "ColletiveSetRiceReceiverProposalAdapterContract",
  "sourceName": "contracts/collective/adapters/CollectiveSetRiceReceiverProposalAdapter.sol",
  "abi": [
    {
      "inputs": [],
      "name": "VOTE_NOT_START",
      "type": "error"
    },
    {
      "anonymous": false,
      "inputs": [
        {
          "indexed": false,
          "internalType": "address",
          "name": "daoAddr",
          "type": "address"
        },
        {
          "indexed": false,
          "internalType": "bytes32",
          "name": "proposalId",
          "type": "bytes32"
        }
      ],
      "name": "ProposalCreated",
      "type": "event"
    },
    {
      "anonymous": false,
      "inputs": [
        {
          "indexed": false,
          "internalType": "address",
          "name": "daoAddr",
          "type": "address"
        },
        {
          "indexed": false,
          "internalType": "bytes32",
          "name": "proposalId",
          "type": "bytes32"
        },
        {
          "indexed": false,
          "internalType": "enum ColletiveSetRiceReceiverProposalAdapterContract.ProposalState",
          "name": "state",
          "type": "uint8"
        },
        {
          "indexed": false,
          "internalType": "uint256",
          "name": "voteResult",
          "type": "uint256"
        },
        {
          "indexed": false,
          "internalType": "uint256",
          "name": "allVotingWeight",
          "type": "uint256"
        },
        {
          "indexed": false,
          "internalType": "uint256",
          "name": "nbYes",
          "type": "uint256"
        },
        {
          "indexed": false,
          "internalType": "uint256",
          "name": "nbNo",
          "type": "uint256"
        }
      ],
      "name": "ProposalProcessed",
      "type": "event"
    },
    {
      "inputs": [
        {
          "internalType": "contract DaoRegistry",
          "name": "dao",
          "type": "address"
        }
      ],
      "name": "allDone",
      "outputs": [
        {
          "internalType": "bool",
          "name": "",
          "type": "bool"
        }
      ],
      "stateMutability": "view",
      "type": "function"
    },
    {
      "inputs": [
        {
          "internalType": "contract DaoRegistry",
          "name": "dao",
          "type": "address"
        },
        {
          "internalType": "bytes32",
          "name": "proposalId",
          "type": "bytes32"
        }
      ],
      "name": "processProposal",
      "outputs": [
        {
          "internalType": "bool",
          "name": "",
          "type": "bool"
        }
      ],
      "stateMutability": "nonpayable",
      "type": "function"
    },
    {
      "inputs": [
        {
          "internalType": "address",
          "name": "",
          "type": "address"
        },
        {
          "internalType": "bytes32",
          "name": "",
          "type": "bytes32"
        }
      ],
      "name": "proposals",
      "outputs": [
        {
          "internalType": "address",
          "name": "riceReceiver",
          "type": "address"
        },
        {
          "internalType": "address",
          "name": "proposer",
          "type": "address"
        },
        {
          "internalType": "uint256",
          "name": "creationTime",
          "type": "uint256"
        },
        {
          "internalType": "uint256",
          "name": "stopVoteTime",
          "type": "uint256"
        },
        {
          "internalType": "enum ColletiveSetRiceReceiverProposalAdapterContract.ProposalState",
          "name": "state",
          "type": "uint8"
        }
      ],
      "stateMutability": "view",
      "type": "function"
    },
    {
      "inputs": [
        {
          "internalType": "contract DaoRegistry",
          "name": "dao",
          "type": "address"
        },
        {
          "internalType": "address",
          "name": "riceReceiver",
          "type": "address"
        }
      ],
      "name": "summbitProposal",
      "outputs": [],
      "stateMutability": "nonpayable",
      "type": "function"
    }
  ],
  "bytecode": "0x608060405234801561001057600080fd5b50612084806100206000396000f3fe608060405234801561001057600080fd5b506004361061004c5760003560e01c8063497cdb3d146100515780635cb7527614610066578063642fc0c0146100d45780639573167d146100f7575b600080fd5b61006461005f366004611d02565b61010a565b005b6100ba610074366004611baf565b6000602081815292815260408082209093529081522080546001820154600283015460038401546004909401546001600160a01b03938416949390921692909160ff1685565b6040516100cb959493929190611e3f565b60405180910390f35b6100e76100e2366004611ce6565b610530565b60405190151581526020016100cb565b6100e7610105366004611d3a565b610568565b816101158133610ae9565b82600061012182610bcb565b9050846001600160a01b031663d1480ddc6040518163ffffffff1660e01b8152600401600060405180830381600087803b15801561015e57600080fd5b505af1158015610172573d6000803e3d6000fd5b50505050600061021d8660c01b6101f8886001600160a01b031663e34bf3f86040518163ffffffff1660e01b815260040160206040518083038186803b1580156101bb57600080fd5b505afa1580156101cf573d6000803e3d6000fd5b505050506040513d601f19601f820116820180604052508101906101f39190611d85565b610e96565b604051602001610209929190611db1565b604051602081830303815290604052610fec565b90506040518060a00160405280866001600160a01b03168152602001336001600160a01b03168152602001428152602001600081526020016000600481111561027657634e487b7160e01b600052602160045260246000fd5b90526001600160a01b03808816600090815260208181526040808320868452825291829020845181549085167fffffffffffffffffffffffff00000000000000000000000000000000000000009182161782559185015160018083018054929096169190931617909355908301516002830155606083015160038301556080830151600480840180549293909260ff191691849081111561032757634e487b7160e01b600052602160045260246000fd5b0217905550506040517fb73dc389000000000000000000000000000000000000000000000000000000008152600481018390526001600160a01b038816915063b73dc38990602401600060405180830381600087803b15801561038957600080fd5b505af115801561039d573d6000803e3d6000fd5b50506040516317ba7d8560e01b81527f907642cbfe4e58ddd14eaa320923fbe4c29721dd0950ae4cb3b2626e292791ae60048201526001600160a01b038916925063815a2bf49150839083906317ba7d859060240160206040518083038186803b15801561040a57600080fd5b505afa15801561041e573d6000803e3d6000fd5b505050506040513d601f19601f820116820180604052508101906104429190611b93565b6040517fffffffff0000000000000000000000000000000000000000000000000000000060e085901b16815260048101929092526001600160a01b03166024820152604401600060405180830381600087803b1580156104a157600080fd5b505af11580156104b5573d6000803e3d6000fd5b5050506001600160a01b03871660009081526001602052604090206104db915082611008565b50604080516001600160a01b0388168152602081018390527ffe22c13d0cc04eef2a813c30901da5f8cd64f5ba91866fccce71c606ce464874910160405180910390a150610529828261101b565b5050505050565b6001600160a01b0381166000908152600160205260408120819061055390611026565b1161055f576001610562565b60005b92915050565b600082600061057682610bcb565b6001600160a01b0386166000818152602081815260408083208984529091529081902090517ff941f6910000000000000000000000000000000000000000000000000000000081529293509163f941f691906105d9908890600290600401611ed6565b60206040518083038186803b1580156105f157600080fd5b505afa158015610605573d6000803e3d6000fd5b505050506040513d601f19601f820116820180604052508101906106299190611ca1565b1561067b5760405162461bcd60e51b815260206004820152601a60248201527f70726f706f73616c20616c72656164792070726f63657373656400000000000060448201526064015b60405180910390fd5b6040516317ba7d8560e01b81527f907642cbfe4e58ddd14eaa320923fbe4c29721dd0950ae4cb3b2626e292791ae60048201526000906001600160a01b038816906317ba7d859060240160206040518083038186803b1580156106dd57600080fd5b505afa1580156106f1573d6000803e3d6000fd5b505050506040513d601f19601f820116820180604052508101906107159190611b93565b90506001600160a01b03811661076d5760405162461bcd60e51b815260206004820152601160248201527f61646170746572206e6f7420666f756e640000000000000000000000000000006044820152606401610672565b6040517f76225e730000000000000000000000000000000000000000000000000000000081526001600160a01b0388811660048301526024820188905260009182918291908516906376225e7390604401606060405180830381600087803b1580156107d857600080fd5b505af11580156107ec573d6000803e3d6000fd5b505050506040513d601f19601f820116820180604052508101906108109190611d4c565b9194509250905060006108228b611030565b6040517f30490e91000000000000000000000000000000000000000000000000000000008152600481018c90529091506001600160a01b038c16906330490e9190602401600060405180830381600087803b15801561088057600080fd5b505af1158015610894573d6000803e3d6000fd5b50600292506108a1915050565b8460058111156108c157634e487b7160e01b600052602160045260246000fd5b141561097f5785546040517f3b4f921a0000000000000000000000000000000000000000000000000000000081527fc77068975ba2254bd67080aa196783f213ee682a15d902d03f33782130cf737d60048201526001600160a01b039182166024820152908c1690633b4f921a90604401600060405180830381600087803b15801561094c57600080fd5b505af1158015610960573d6000803e3d6000fd5b5050506004870180546003925060ff19166001835b0217905550610a16565b60038460058111156109a157634e487b7160e01b600052602160045260246000fd5b14806109cc575060018460058111156109ca57634e487b7160e01b600052602160045260246000fd5b145b156109e4576004868101805460ff1916600183610975565b6040517f97cbb52b00000000000000000000000000000000000000000000000000000000815260040160405180910390fd5b6001600160a01b038b166000908152600160205260409020610a38908b611114565b15610a61576001600160a01b038b166000908152600160205260409020610a5f908b61112c565b505b60048601547ff3d22b9e73b9947a3edd70bd6279f80eda44c15f3cc8af46dc57bfb8191edd2b908c908c9060ff168487878a6005811115610ab257634e487b7160e01b600052602160045260246000fd5b604051610ac59796959493929190611e7c565b60405180910390a160019850505050505050610ae1828261101b565b505092915050565b6040517fa230c5240000000000000000000000000000000000000000000000000000000081526001600160a01b03828116600483015283169063a230c5249060240160206040518083038186803b158015610b4357600080fd5b505afa158015610b57573d6000803e3d6000fd5b505050506040513d601f19601f82011682018060405250810190610b7b9190611ca1565b610bc75760405162461bcd60e51b815260206004820152600c60248201527f6f6e6c79476f7665726e6f7200000000000000000000000000000000000000006044820152606401610672565b5050565b6040805160808101825260008082526020820181905291810182905260608101919091525a81600001818152505043826001600160a01b031663b21634826040518163ffffffff1660e01b815260040160206040518083038186803b158015610c3357600080fd5b505afa158015610c47573d6000803e3d6000fd5b505050506040513d601f19601f82011682018060405250810190610c6b9190611d85565b1415610cb95760405162461bcd60e51b815260206004820152601060248201527f7265656e7472616e6379206775617264000000000000000000000000000000006044820152606401610672565b816001600160a01b03166310fdb0a26040518163ffffffff1660e01b8152600401600060405180830381600087803b158015610cf457600080fd5b505af1158015610d08573d6000803e3d6000fd5b50506040517f72c6838f0000000000000000000000000000000000000000000000000000000081527f1f2fd42ad6a6cacd573c4b212beb7a4e2499ad45d742a65337097f130e71daff6004820152600092506001600160a01b03851691506372c6838f9060240160206040518083038186803b158015610d8757600080fd5b505afa158015610d9b573d6000803e3d6000fd5b505050506040513d601f19601f82011682018060405250810190610dbf9190611b93565b90506001600160a01b038116610ddb5760006020830152610e90565b6001600160a01b038181166060840181905283516040517f43a8a3f1000000000000000000000000000000000000000000000000000000008152928616600484015260248301526000918291906343a8a3f190604401604080518083038186803b158015610e4857600080fd5b505afa158015610e5c573d6000803e3d6000fd5b505050506040513d601f19601f82011682018060405250810190610e809190611cbb565b9015156020860152604085015250505b50919050565b606081610ed657505060408051808201909152600181527f3000000000000000000000000000000000000000000000000000000000000000602082015290565b8160005b8115610f005780610eea81611f71565b9150610ef99050600a83611f46565b9150610eda565b60008167ffffffffffffffff811115610f2957634e487b7160e01b600052604160045260246000fd5b6040519080825280601f01601f191660200182016040528015610f53576020820181803683370190505b5090505b8415610fe457610f68600183611f5a565b9150610f75600a86611fca565b610f80906030611f2e565b60f81b818381518110610fa357634e487b7160e01b600052603260045260246000fd5b60200101907effffffffffffffffffffffffffffffffffffffffffffffffffffffffffffff1916908160001a905350610fdd600a86611f46565b9450610f57565b949350505050565b600081516000141561100057506000919050565b506020015190565b60006110148383611138565b9392505050565b610bc7828233611187565b6000610562825490565b600080826001600160a01b031663a6f636416040518163ffffffff1660e01b815260040160006040518083038186803b15801561106c57600080fd5b505afa158015611080573d6000803e3d6000fd5b505050506040513d6000823e601f3d908101601f191682016040526110a89190810190611bda565b90506000805b82518160ff16101561110c576110ee85848360ff16815181106110e157634e487b7160e01b600052603260045260246000fd5b6020026020010151611295565b6110f89083611efa565b91508061110481611faa565b9150506110ae565b509392505050565b60008181526001830160205260408120541515611014565b6000611014838361191a565b600081815260018301602052604081205461117f57508154600181810184556000848152602080822090930184905584548482528286019093526040902091909155610562565b506000610562565b81602001511561123d5781606001516001600160a01b0316635e5eb01384835a86516111b39190611f5a565b60408088015190517fffffffff0000000000000000000000000000000000000000000000000000000060e087901b1681526001600160a01b03948516600482015293909216602484015260448301526064820152608401600060405180830381600087803b15801561122457600080fd5b505af1158015611238573d6000803e3d6000fd5b505050505b826001600160a01b031663d4f7af436040518163ffffffff1660e01b8152600401600060405180830381600087803b15801561127857600080fd5b505af115801561128c573d6000803e3d6000fd5b50505050505050565b6040517f9283ae3a0000000000000000000000000000000000000000000000000000000081527feee23dc9ab95b6666db01c2b6cae6a5ef706099a25926e21e0a2e043fe885604600482015260009081906001600160a01b03851690639283ae3a9060240160206040518083038186803b15801561131257600080fd5b505afa158015611326573d6000803e3d6000fd5b505050506040513d601f19601f8201168201806040525081019061134a9190611d85565b6040517f9283ae3a0000000000000000000000000000000000000000000000000000000081527fd093d4a34a12a221b19c0a6689d5449f1346aa769d15cca4e9782c36fda9339a60048201529091506000906001600160a01b03861690639283ae3a9060240160206040518083038186803b1580156113c857600080fd5b505afa1580156113dc573d6000803e3d6000fd5b505050506040513d601f19601f820116820180604052508101906114009190611d85565b6040516317ba7d8560e01b81527f8f5b4aabbdb8527d420a29cc90ae207773ad49b73c632c3cfd2f29eb8776f2ea60048201529091506000906001600160a01b038716906317ba7d859060240160206040518083038186803b15801561146557600080fd5b505afa158015611479573d6000803e3d6000fd5b505050506040513d601f19601f8201168201806040525081019061149d9190611b93565b6040517f593e96b60000000000000000000000000000000000000000000000000000000081527f3909e87234f428ccb8748126e2c93f66a62f92a70d315fa5803dec6362be07ab60048201529091506000906001600160a01b0388169063593e96b69060240160206040518083038186803b15801561151b57600080fd5b505afa15801561152f573d6000803e3d6000fd5b505050506040513d601f19601f820116820180604052508101906115539190611b93565b6040517f70a0823100000000000000000000000000000000000000000000000000000000815261decd60048201526001600160a01b0391909116906370a082319060240160206040518083038186803b1580156115af57600080fd5b505afa1580156115c3573d6000803e3d6000fd5b505050506040513d601f19601f820116820180604052508101906115e79190611d85565b1115801561168257506040517fa230c5240000000000000000000000000000000000000000000000000000000081526001600160a01b03868116600483015287169063a230c5249060240160206040518083038186803b15801561164a57600080fd5b505afa15801561165e573d6000803e3d6000fd5b505050506040513d601f19601f820116820180604052508101906116829190611ca1565b156116935760019350505050610562565b81600114156117b05760008361174057604051633de222bb60e21b81526001600160a01b0388811660048301528781166024830152670de0b6b3a7640000919084169063f7888aec9060440160206040518083038186803b1580156116f757600080fd5b505afa15801561170b573d6000803e3d6000fd5b505050506040513d601f19601f8201168201806040525081019061172f9190611d85565b6117399190611f46565b905061174d565b6000945050505050610562565b60008111611762576000945050505050610562565b677fffffffffffffff811061177e576032945050505050610562565b600061179961179461178f84611a37565b611a55565b611b57565b67ffffffffffffffff169550610562945050505050565b81600214156118655760008361174057604051633de222bb60e21b81526001600160a01b03888116600483015287811660248301526000919084169063f7888aec9060440160206040518083038186803b15801561180d57600080fd5b505afa158015611821573d6000803e3d6000fd5b505050506040513d601f19601f820116820180604052508101906118459190611d85565b11611851576000611854565b60015b60ff1690505b935061056292505050565b8161190e5760008361174057604051633de222bb60e21b81526001600160a01b0388811660048301528781166024830152670de0b6b3a7640000919084169063f7888aec9060440160206040518083038186803b1580156118c557600080fd5b505afa1580156118d9573d6000803e3d6000fd5b505050506040513d601f19601f820116820180604052508101906118fd9190611d85565b6119079190611f46565b905061185a565b60009350505050610562565b60008181526001830160205260408120548015611a2d57600061193e600183611f5a565b855490915060009061195290600190611f5a565b90508181146119d357600086600001828154811061198057634e487b7160e01b600052603260045260246000fd5b90600052602060002001549050808760000184815481106119b157634e487b7160e01b600052603260045260246000fd5b6000918252602080832090910192909255918252600188019052604090208390555b85548690806119f257634e487b7160e01b600052603160045260246000fd5b600190038181906000526020600020016000905590558560010160008681526020019081526020016000206000905560019350505050610562565b6000915050610562565b6000677fffffffffffffff821115611a4e57600080fd5b5060401b90565b60008082600f0b13611a6657600080fd5b6000600f83900b680100000000000000008112611a85576040918201911d5b6401000000008112611a99576020918201911d5b620100008112611aab576010918201911d5b6101008112611abc576008918201911d5b60108112611acc576004918201911d5b60048112611adc576002918201911d5b60028112611aeb576001820191505b7fffffffffffffffffffffffffffffffffffffffffffffffffffffffffffffffc0820160401b600f85900b607f8490031b6780000000000000005b6000811315611b4c5790800260ff81901c8281029390930192607f011c9060011d611b26565b509095945050505050565b60008082600f0b1215611b6957600080fd5b50600f0b60401d90565b8051611b7e81612036565b919050565b80518015158114611b7e57600080fd5b600060208284031215611ba4578081fd5b815161101481612036565b60008060408385031215611bc1578081fd5b8235611bcc81612036565b946020939093013593505050565b60006020808385031215611bec578182fd5b825167ffffffffffffffff80821115611c03578384fd5b818501915085601f830112611c16578384fd5b815181811115611c2857611c28612020565b8060051b604051601f19603f83011681018181108582111715611c4d57611c4d612020565b604052828152858101935084860182860187018a1015611c6b578788fd5b8795505b83861015611c9457611c8081611b73565b855260019590950194938601938601611c6f565b5098975050505050505050565b600060208284031215611cb2578081fd5b61101482611b83565b60008060408385031215611ccd578182fd5b611cd683611b83565b9150602083015190509250929050565b600060208284031215611cf7578081fd5b813561101481612036565b60008060408385031215611d14578182fd5b8235611d1f81612036565b91506020830135611d2f81612036565b809150509250929050565b60008060408385031215611bc1578182fd5b600080600060608486031215611d60578081fd5b835160068110611d6e578182fd5b602085015160409095015190969495509392505050565b600060208284031215611d96578081fd5b5051919050565b60058110611dad57611dad61200a565b9052565b7fffffffffffffffff000000000000000000000000000000000000000000000000831681527f5365745269636552656365697665722300000000000000000000000000000000600882015260008251815b81811015611e1f5760208186018101516018868401015201611e02565b81811115611e305782601883860101525b50919091016018019392505050565b6001600160a01b03868116825285166020820152604081018490526060810183905260a08101611e726080830184611d9d565b9695505050505050565b6001600160a01b03881681526020810187905260e08101611ea06040830188611d9d565b6fffffffffffffffffffffffffffffffff861660608301528460808301528360a08301528260c083015298975050505050505050565b8281526040810160038310611eed57611eed61200a565b8260208301529392505050565b60006fffffffffffffffffffffffffffffffff808316818516808303821115611f2557611f25611fde565b01949350505050565b60008219821115611f4157611f41611fde565b500190565b600082611f5557611f55611ff4565b500490565b600082821015611f6c57611f6c611fde565b500390565b60007fffffffffffffffffffffffffffffffffffffffffffffffffffffffffffffffff821415611fa357611fa3611fde565b5060010190565b600060ff821660ff811415611fc157611fc1611fde565b60010192915050565b600082611fd957611fd9611ff4565b500690565b634e487b7160e01b600052601160045260246000fd5b634e487b7160e01b600052601260045260246000fd5b634e487b7160e01b600052602160045260246000fd5b634e487b7160e01b600052604160045260246000fd5b6001600160a01b038116811461204b57600080fd5b5056fea2646970667358221220bc8c6de24028437e9a460b78f506f68b23df6a3c18573be060a1c0576351f3c964736f6c63430008040033",
  "linkReferences": {},
  "deployedLinkReferences": {}
}