{
  "_format": "hh-sol-artifact-1",
  "contractName": "ERC1271ExtensionFactory",
  "sourceName": "contracts/extensions/erc1271/ERC1271Factory.sol",
  "abi": [
    {
      "inputs": [
        {
          "internalType": "address",
          "name": "_identityAddress",
          "type": "address"
        }
      ],
      "stateMutability": "nonpayable",
      "type": "constructor"
    },
    {
      "anonymous": false,
      "inputs": [
        {
          "indexed": false,
          "internalType": "address",
          "name": "daoAddress",
          "type": "address"
        },
        {
          "indexed": false,
          "internalType": "address",
          "name": "extensionAddress",
          "type": "address"
        }
      ],
      "name": "ERC1271Created",
      "type": "event"
    },
    {
      "inputs": [
        {
          "internalType": "address",
          "name": "dao",
          "type": "address"
        }
      ],
      "name": "create",
      "outputs": [],
      "stateMutability": "nonpayable",
      "type": "function"
    },
    {
      "inputs": [
        {
          "internalType": "address",
          "name": "dao",
          "type": "address"
        }
      ],
      "name": "getExtensionAddress",
      "outputs": [
        {
          "internalType": "address",
          "name": "",
          "type": "address"
        }
      ],
      "stateMutability": "view",
      "type": "function"
    },
    {
      "inputs": [],
      "name": "identityAddress",
      "outputs": [
        {
          "internalType": "address",
          "name": "",
          "type": "address"
        }
      ],
      "stateMutability": "view",
      "type": "function"
    }
  ],
  "bytecode": "0x608060405234801561001057600080fd5b5060405161044a38038061044a83398101604081905261002f916100a2565b60016000556001600160a01b03811661007d5760405162461bcd60e51b815260206004820152600c60248201526b34b73b30b634b21030b2323960a11b604482015260640160405180910390fd5b600180546001600160a01b0319166001600160a01b03929092169190911790556100d0565b6000602082840312156100b3578081fd5b81516001600160a01b03811681146100c9578182fd5b9392505050565b61036b806100df6000396000f3fe608060405234801561001057600080fd5b50600436106100415760003560e01c80633146637e146100465780639ed93318146100a8578063bf45767a146100bd575b600080fd5b61007f6100543660046102fa565b73ffffffffffffffffffffffffffffffffffffffff9081166000908152600260205260409020541690565b60405173ffffffffffffffffffffffffffffffffffffffff909116815260200160405180910390f35b6100bb6100b63660046102fa565b6100dd565b005b60015461007f9073ffffffffffffffffffffffffffffffffffffffff1681565b6002600054141561014f576040517f08c379a000000000000000000000000000000000000000000000000000000000815260206004820152601f60248201527f5265656e7472616e637947756172643a207265656e7472616e742063616c6c0060448201526064015b60405180910390fd5b600260005573ffffffffffffffffffffffffffffffffffffffff81166101d1576040517f08c379a000000000000000000000000000000000000000000000000000000000815260206004820152601060248201527f696e76616c69642064616f2061646472000000000000000000000000000000006044820152606401610146565b6001546000906101f69073ffffffffffffffffffffffffffffffffffffffff16610291565b73ffffffffffffffffffffffffffffffffffffffff83811660008181526002602090815260409182902080547fffffffffffffffffffffffff0000000000000000000000000000000000000000169486169485179055815192835282019290925291925082917f6d81014c4ba5f7f41ae2cd769631d96c2460c65a1670dcc27be5b3139bd13bd9910160405180910390a15050600160005550565b6000808260601b90506040517f3d602d80600a3d3981f3363d3d373d3d3d363d7300000000000000000000000081528160148201527f5af43d82803e903d91602b57fd5bf3000000000000000000000000000000000060288201526037816000f0949350505050565b60006020828403121561030b578081fd5b813573ffffffffffffffffffffffffffffffffffffffff8116811461032e578182fd5b939250505056fea26469706673582212201e427505ba8e7f527a9696b4282b5de09e78a75a48702280b11ed9fb3a44ea3964736f6c63430008040033",
  "linkReferences": {},
  "deployedLinkReferences": {}
}