{
  "_format": "hh-sol-artifact-1",
  "contractName": "FlexInvestmentPoolAdapterContract",
  "sourceName": "contracts/flex/adatpers/FlexFundingPoolAdapter.sol",
  "abi": [
    {
      "inputs": [],
      "name": "ExceedMaxDepositAmount",
      "type": "error"
    },
    {
      "inputs": [],
      "name": "ExceedMaxFundingAmount",
      "type": "error"
    },
    {
      "inputs": [],
      "name": "FundingProposalNotFinalize",
      "type": "error"
    },
    {
      "inputs": [],
      "name": "LessMinDepositAmount",
      "type": "error"
    },
    {
      "inputs": [],
      "name": "MaxInvestorReach",
      "type": "error"
    },
    {
      "inputs": [],
      "name": "NotInFundRaise",
      "type": "error"
    },
    {
      "anonymous": false,
      "inputs": [
        {
          "indexed": false,
          "internalType": "address",
          "name": "daoAddress",
          "type": "address"
        },
        {
          "indexed": false,
          "internalType": "bytes32",
          "name": "proposalId",
          "type": "bytes32"
        },
        {
          "indexed": false,
          "internalType": "uint256",
          "name": "amount",
          "type": "uint256"
        },
        {
          "indexed": false,
          "internalType": "address",
          "name": "account",
          "type": "address"
        }
      ],
      "name": "Deposit",
      "type": "event"
    },
    {
      "anonymous": false,
      "inputs": [
        {
          "indexed": false,
          "internalType": "address",
          "name": "daoAddress",
          "type": "address"
        },
        {
          "indexed": false,
          "internalType": "string",
          "name": "name",
          "type": "string"
        },
        {
          "indexed": false,
          "internalType": "bytes32",
          "name": "hashName",
          "type": "bytes32"
        }
      ],
      "name": "InvestorMembershipCreated",
      "type": "event"
    },
    {
      "anonymous": false,
      "inputs": [
        {
          "indexed": false,
          "internalType": "address",
          "name": "daoAddress",
          "type": "address"
        },
        {
          "indexed": false,
          "internalType": "bytes32",
          "name": "proposalId",
          "type": "bytes32"
        },
        {
          "indexed": false,
          "internalType": "uint256",
          "name": "amount",
          "type": "uint256"
        },
        {
          "indexed": false,
          "internalType": "address",
          "name": "account",
          "type": "address"
        }
      ],
      "name": "WithDraw",
      "type": "event"
    },
    {
      "inputs": [
        {
          "internalType": "contract DaoRegistry",
          "name": "dao",
          "type": "address"
        },
        {
          "internalType": "bytes32",
          "name": "proposalId",
          "type": "bytes32"
        },
        {
          "internalType": "address",
          "name": "account",
          "type": "address"
        }
      ],
      "name": "balanceOf",
      "outputs": [
        {
          "internalType": "uint160",
          "name": "",
          "type": "uint160"
        }
      ],
      "stateMutability": "view",
      "type": "function"
    },
    {
      "inputs": [
        {
          "internalType": "contract DaoRegistry",
          "name": "dao",
          "type": "address"
        }
      ],
      "name": "clearInvestorWhitelist",
      "outputs": [],
      "stateMutability": "nonpayable",
      "type": "function"
    },
    {
      "inputs": [
        {
          "internalType": "contract DaoRegistry",
          "name": "dao",
          "type": "address"
        },
        {
          "internalType": "bytes32",
          "name": "proposalId",
          "type": "bytes32"
        },
        {
          "internalType": "uint256",
          "name": "amount",
          "type": "uint256"
        }
      ],
      "name": "deposit",
      "outputs": [],
      "stateMutability": "nonpayable",
      "type": "function"
    },
    {
      "inputs": [
        {
          "internalType": "contract DaoRegistry",
          "name": "dao",
          "type": "address"
        },
        {
          "internalType": "bytes32",
          "name": "proposalId",
          "type": "bytes32"
        }
      ],
      "name": "escorwExtraFreeInFund",
      "outputs": [],
      "stateMutability": "nonpayable",
      "type": "function"
    },
    {
      "inputs": [
        {
          "internalType": "address",
          "name": "",
          "type": "address"
        },
        {
          "internalType": "bytes32",
          "name": "",
          "type": "bytes32"
        }
      ],
      "name": "freeINPriorityDeposits",
      "outputs": [
        {
          "internalType": "uint256",
          "name": "",
          "type": "uint256"
        }
      ],
      "stateMutability": "view",
      "type": "function"
    },
    {
      "inputs": [
        {
          "internalType": "contract DaoRegistry",
          "name": "dao",
          "type": "address"
        }
      ],
      "name": "getParticipanWhitelist",
      "outputs": [
        {
          "internalType": "address[]",
          "name": "",
          "type": "address[]"
        }
      ],
      "stateMutability": "view",
      "type": "function"
    },
    {
      "inputs": [
        {
          "internalType": "contract DaoRegistry",
          "name": "dao",
          "type": "address"
        }
      ],
      "name": "getPriorityDepositWhitelist",
      "outputs": [
        {
          "internalType": "address[]",
          "name": "",
          "type": "address[]"
        }
      ],
      "stateMutability": "view",
      "type": "function"
    },
    {
      "inputs": [
        {
          "internalType": "contract DaoRegistry",
          "name": "dao",
          "type": "address"
        },
        {
          "internalType": "bytes32",
          "name": "proposalId",
          "type": "bytes32"
        }
      ],
      "name": "getTotalFundByProposalId",
      "outputs": [
        {
          "internalType": "uint160",
          "name": "",
          "type": "uint160"
        }
      ],
      "stateMutability": "view",
      "type": "function"
    },
    {
      "inputs": [
        {
          "internalType": "contract DaoRegistry",
          "name": "dao",
          "type": "address"
        },
        {
          "internalType": "uint256",
          "name": "timeStamp",
          "type": "uint256"
        }
      ],
      "name": "ifInRedemptionPeriod",
      "outputs": [
        {
          "internalType": "bool",
          "name": "",
          "type": "bool"
        }
      ],
      "stateMutability": "view",
      "type": "function"
    },
    {
      "inputs": [
        {
          "internalType": "address",
          "name": "",
          "type": "address"
        },
        {
          "internalType": "bytes32",
          "name": "",
          "type": "bytes32"
        }
      ],
      "name": "investorMemberShips",
      "outputs": [
        {
          "internalType": "bool",
          "name": "created",
          "type": "bool"
        },
        {
          "internalType": "uint8",
          "name": "varifyType",
          "type": "uint8"
        },
        {
          "internalType": "uint256",
          "name": "minHolding",
          "type": "uint256"
        },
        {
          "internalType": "address",
          "name": "tokenAddress",
          "type": "address"
        },
        {
          "internalType": "uint256",
          "name": "tokenId",
          "type": "uint256"
        }
      ],
      "stateMutability": "view",
      "type": "function"
    },
    {
      "inputs": [
        {
          "internalType": "contract DaoRegistry",
          "name": "dao",
          "type": "address"
        },
        {
          "internalType": "address",
          "name": "_addr",
          "type": "address"
        }
      ],
      "name": "isActiveMember",
      "outputs": [
        {
          "internalType": "bool",
          "name": "",
          "type": "bool"
        }
      ],
      "stateMutability": "view",
      "type": "function"
    },
    {
      "inputs": [
        {
          "internalType": "contract DaoRegistry",
          "name": "dao",
          "type": "address"
        },
        {
          "internalType": "address",
          "name": "account",
          "type": "address"
        }
      ],
      "name": "isInvestorWhiteList",
      "outputs": [
        {
          "internalType": "bool",
          "name": "",
          "type": "bool"
        }
      ],
      "stateMutability": "view",
      "type": "function"
    },
    {
      "inputs": [
        {
          "internalType": "contract DaoRegistry",
          "name": "dao",
          "type": "address"
        },
        {
          "internalType": "address",
          "name": "account",
          "type": "address"
        }
      ],
      "name": "isPriorityDepositWhitelist",
      "outputs": [
        {
          "internalType": "bool",
          "name": "",
          "type": "bool"
        }
      ],
      "stateMutability": "view",
      "type": "function"
    },
    {
      "inputs": [
        {
          "internalType": "contract DaoRegistry",
          "name": "dao",
          "type": "address"
        },
        {
          "internalType": "address",
          "name": "account",
          "type": "address"
        }
      ],
      "name": "registerInvestorWhiteList",
      "outputs": [],
      "stateMutability": "nonpayable",
      "type": "function"
    },
    {
      "inputs": [
        {
          "internalType": "contract DaoRegistry",
          "name": "dao",
          "type": "address"
        },
        {
          "internalType": "address",
          "name": "account",
          "type": "address"
        }
      ],
      "name": "registerPriorityDepositWhiteList",
      "outputs": [],
      "stateMutability": "nonpayable",
      "type": "function"
    },
    {
      "inputs": [
        {
          "internalType": "contract DaoRegistry",
          "name": "dao",
          "type": "address"
        },
        {
          "internalType": "bytes32",
          "name": "proposalId",
          "type": "bytes32"
        },
        {
          "internalType": "uint160",
          "name": "amount",
          "type": "uint160"
        }
      ],
      "name": "withdraw",
      "outputs": [],
      "stateMutability": "nonpayable",
      "type": "function"
    }
  ],
  "bytecode": "0x608060405234801561001057600080fd5b50614a35806100206000396000f3fe608060405234801561001057600080fd5b50600436106101005760003560e01c80638ecf772011610097578063eb2243f811610066578063eb2243f81461024b578063ec28eb901461025e578063f614aea3146102e5578063ff8bb0d0146102f857600080fd5b80638ecf7720146101ff578063ac7e7eba14610212578063aed71fde14610225578063e13efafa1461023857600080fd5b80633a844ec0116100d35780633a844ec01461017d5780634aa587c9146101a057806375e42744146101b3578063861f6752146101c657600080fd5b80630617b0ce1461010557806307832bfd1461013557806314a6c0561461014a578063239dd2281461016a575b600080fd5b610118610113366004614677565b61030b565b6040516001600160a01b0390911681526020015b60405180910390f35b61014861014336600461463f565b610434565b005b61015d610158366004614623565b61048e565b60405161012c91906147b5565b610148610178366004614689565b6104b2565b61019061018b366004614677565b610aa6565b604051901515815260200161012c565b61015d6101ae366004614623565b610df7565b6101186101c1366004614689565b610e1b565b6101f16101d43660046143a0565b600360209081526000928352604080842090915290825290205481565b60405190815260200161012c565b61019061020d36600461463f565b610f46565b61014861022036600461463f565b610fdc565b61019061023336600461463f565b61119f565b61019061024636600461463f565b6111c1565b6101486102593660046146ca565b6111e3565b6102b061026c3660046143a0565b60016020818152600093845260408085209091529183529120805491810154600282015460039092015460ff80851694610100900416926001600160a01b03169085565b60408051951515865260ff9094166020860152928401919091526001600160a01b03166060830152608082015260a00161012c565b6101486102f3366004614677565b612871565b610148610306366004614623565b6134f5565b604051632c9f4b5b60e11b81527fb12a3847d47fefceb164b75823af125f9aa82b76938df0ddf08c04cd314ba37c600482015260009081906001600160a01b0385169063593e96b69060240160206040518083038186803b15801561036f57600080fd5b505afa158015610383573d6000803e3d6000fd5b505050506040513d601f19601f820116820180604052508101906103a79190614384565b604051636101c11b60e11b81526004810185905261babe60248201529091506001600160a01b0382169063c20382369060440160206040518083038186803b1580156103f257600080fd5b505afa158015610406573d6000803e3d6000fd5b505050506040513d601f19601f8201168201806040525081019061042a9190614384565b9150505b92915050565b8161043f8133613686565b6001600160a01b038316600090815260026020526040902061046190836136dc565b610489576001600160a01b038316600090815260026020526040902061048790836136fe565b505b505050565b6001600160a01b038116600090815260026020526040902060609061042e90613713565b8260006104be82613720565b604051632c9f4b5b60e11b81527fb12a3847d47fefceb164b75823af125f9aa82b76938df0ddf08c04cd314ba37c60048201529091506000906001600160a01b0387169063593e96b69060240160206040518083038186803b15801561052357600080fd5b505afa158015610537573d6000803e3d6000fd5b505050506040513d601f19601f8201168201806040525081019061055b9190614384565b604051636101c11b60e11b8152600481018790523360248201529091506000906001600160a01b0383169063c20382369060440160206040518083038186803b1580156105a757600080fd5b505afa1580156105bb573d6000803e3d6000fd5b505050506040513d601f19601f820116820180604052508101906105df9190614384565b6001600160a01b03169050600081118015610603575080856001600160a01b031611155b6106545760405162461bcd60e51b815260206004820152600760248201527f21616d6f756e740000000000000000000000000000000000000000000000000060448201526064015b60405180910390fd5b6040516317ba7d8560e01b81527f7a8526bca00f0726b2fab8c3bfd5b00bfa84d07f111e48263b13de605eefcdda60048201526000906001600160a01b038916906317ba7d859060240160206040518083038186803b1580156106b657600080fd5b505afa1580156106ca573d6000803e3d6000fd5b505050506040513d601f19601f820116820180604052508101906106ee9190614384565b6040517fbf4999940000000000000000000000000000000000000000000000000000000081526001600160a01b038a81166004830152602482018a905291925060009182919084169063bf4999949060440160006040518083038186803b15801561075857600080fd5b505afa15801561076c573d6000803e3d6000fd5b505050506040513d6000823e601f3d908101601f1916820160405261079491908101906143cb565b9750505050945050505042826040015111806107dd57504282604001511080156107dd575060048160048111156107db57634e487b7160e01b600052602160045260246000fd5b145b6108295760405162461bcd60e51b815260206004820152600960248201527f2177697468647261770000000000000000000000000000000000000000000000604482015260640161064b565b6040517fbf4999940000000000000000000000000000000000000000000000000000000081526001600160a01b038b81166004830152602482018b90526000919085169063bf4999949060440160006040518083038186803b15801561088e57600080fd5b505afa1580156108a2573d6000803e3d6000fd5b505050506040513d6000823e601f3d908101601f191682016040526108ca91908101906143cb565b505050505050915050856001600160a01b0316638e0cc1768b3384600001518d6040518563ffffffff1660e01b815260040161092b94939291909384526001600160a01b039283166020850152908216604084015216606082015260800190565b600060405180830381600087803b15801561094557600080fd5b505af1158015610959573d6000803e3d6000fd5b50506040517f6d3cc0400000000000000000000000000000000000000000000000000000000081526001600160a01b038e81166004830152602482018e905233604483015287169250636d3cc040915060640160206040518083038186803b1580156109c457600080fd5b505afa1580156109d8573d6000803e3d6000fd5b505050506040513d601f19601f820116820180604052508101906109fc91906145de565b15610a3f576001600160a01b038b811660009081526003602090815260408083208e845290915281208054928c1692909190610a3990849061494e565b90915550505b604080516001600160a01b038d81168252602082018d90528b168183015233606082015290517fb3085ed0819e7a24ea01cc7517959d320c556f8d657f4eb66a77c92362aeccf49181900360800190a1505050505050610a9f82826139eb565b5050505050565b604051634941d71d60e11b81527fd99dae5492aa0c08830764a319f29225cc739a0ed8683d8fd1b5bc3a8fe31672600482015260009081906001600160a01b03851690639283ae3a9060240160206040518083038186803b158015610b0a57600080fd5b505afa158015610b1e573d6000803e3d6000fd5b505050506040513d601f19601f82011682018060405250810190610b429190614732565b604051634941d71d60e11b81527f9ce69cf04065e3c7823cc5540c0598d8a694bd7a9a5a2a786d8bccf14ed6e2ea60048201529091506000906001600160a01b03861690639283ae3a9060240160206040518083038186803b158015610ba757600080fd5b505afa158015610bbb573d6000803e3d6000fd5b505050506040513d601f19601f82011682018060405250810190610bdf9190614732565b604051634941d71d60e11b81527f6a2acfe6164f3ec20e6d80e2f4e4f7ae2b9962615c9596c872d01f6cd244aed360048201529091506000906001600160a01b03871690639283ae3a9060240160206040518083038186803b158015610c4457600080fd5b505afa158015610c58573d6000803e3d6000fd5b505050506040513d601f19601f82011682018060405250810190610c7c9190614732565b604051634941d71d60e11b81527f2305fa3a9f84625f75d70f539e621c658cf49e7477ab5af9cacd278ca7904e3060048201529091506000906001600160a01b03881690639283ae3a9060240160206040518083038186803b158015610ce157600080fd5b505afa158015610cf5573d6000803e3d6000fd5b505050506040513d601f19601f82011682018060405250810190610d199190614732565b90506000610d27858561494e565b9050821580610d34575081155b80610d3d575080155b15610d505760009550505050505061042e565b6000610d5c84836148f1565b905060008060005b838111610de5578215610d8057610d7b87846148d9565b610d8a565b610d8a878a6148d9565b9250610d96868461494e565b9150818b118015610da65750828b105b8015610db15750888b115b8015610dbc5750878b105b15610dd3576001995050505050505050505061042e565b610dde6001826148d9565b9050610d64565b5060009b9a5050505050505050505050565b6001600160a01b038116600090815260208190526040902060609061042e90613713565b604051632c9f4b5b60e11b81527fb12a3847d47fefceb164b75823af125f9aa82b76938df0ddf08c04cd314ba37c600482015260009081906001600160a01b0386169063593e96b69060240160206040518083038186803b158015610e7f57600080fd5b505afa158015610e93573d6000803e3d6000fd5b505050506040513d601f19601f82011682018060405250810190610eb79190614384565b604051636101c11b60e11b8152600481018690526001600160a01b0385811660248301529192509082169063c20382369060440160206040518083038186803b158015610f0357600080fd5b505afa158015610f17573d6000803e3d6000fd5b505050506040513d601f19601f82011682018060405250810190610f3b9190614384565b9150505b9392505050565b6040517fa230c5240000000000000000000000000000000000000000000000000000000081526001600160a01b0382811660048301526000919084169063a230c5249060240160206040518083038186803b158015610fa457600080fd5b505afa158015610fb8573d6000803e3d6000fd5b505050506040513d601f19601f82011682018060405250810190610f3f91906145de565b6040516317ba7d8560e01b81527fff9379b98b93eb3bd1fac62fd2258a7955d70d2d5279c40064145b6c9646df3760048201526001600160a01b038316906317ba7d859060240160206040518083038186803b15801561103b57600080fd5b505afa15801561104f573d6000803e3d6000fd5b505050506040513d601f19601f820116820180604052508101906110739190614384565b6001600160a01b0316336001600160a01b0316148061111d57506040517fa230c5240000000000000000000000000000000000000000000000000000000081523360048201526001600160a01b0383169063a230c5249060240160206040518083038186803b1580156110e557600080fd5b505afa1580156110f9573d6000803e3d6000fd5b505050506040513d601f19601f8201168201806040525081019061111d91906145de565b6111535760405162461bcd60e51b81526020600482015260076024820152662161636365737360c81b604482015260640161064b565b6001600160a01b038216600090815260208190526040902061117590826136dc565b61119b576001600160a01b038216600090815260208190526040902061048990826136fe565b5050565b6001600160a01b0382166000908152600260205260408120610f3f90836136dc565b6001600160a01b0382166000908152602081905260408120610f3f90836136dc565b604051634941d71d60e11b81527ffeddffed075d0686e697569ece0ce2fd26bfbbb18719086f36d16c7117edb553600482015283906001600160a01b03821690639283ae3a9060240160206040518083038186803b15801561124457600080fd5b505afa158015611258573d6000803e3d6000fd5b505050506040513d601f19601f8201168201806040525081019061127c9190614732565b600114156119ce576040516317ba7d8560e01b81527f2207fd6117465cefcba0abc867150698c0464aa41a293ec29ca01b67a6350c3c60048201526000906001600160a01b038316906317ba7d859060240160206040518083038186803b1580156112e657600080fd5b505afa1580156112fa573d6000803e3d6000fd5b505050506040513d601f19601f8201168201806040525081019061131e9190614384565b604051634941d71d60e11b81527f77041e0d128001928f30b976713fed530b452bc354a9bad49ad1bcf93121f9dc60048201529091506000906001600160a01b03841690639283ae3a9060240160206040518083038186803b15801561138357600080fd5b505afa158015611397573d6000803e3d6000fd5b505050506040513d601f19601f820116820180604052508101906113bb9190614732565b604051634941d71d60e11b81527fcab672166d6a1c8dae3ca0b03fed2e7258db17c3c3801ac2651987b066d3964760048201529091506000906001600160a01b03851690639283ae3a9060240160206040518083038186803b15801561142057600080fd5b505afa158015611434573d6000803e3d6000fd5b505050506040513d601f19601f820116820180604052508101906114589190614732565b604051634941d71d60e11b81527fcdc3057ec9c82a3ea3fd34ef56b1825924525fbab071e1a2b9d664a07f40048060048201529091506000906001600160a01b03861690639283ae3a9060240160206040518083038186803b1580156114bd57600080fd5b505afa1580156114d1573d6000803e3d6000fd5b505050506040513d601f19601f820116820180604052508101906114f59190614732565b6040517ffd310d290000000000000000000000000000000000000000000000000000000081527f0f57fc3a39a8a66c31f52eab69ced65d5ac74e4a182b215146a45a0281de53e860048201529091506000906001600160a01b0387169063fd310d299060240160206040518083038186803b15801561157357600080fd5b505afa158015611587573d6000803e3d6000fd5b505050506040513d601f19601f820116820180604052508101906115ab9190614384565b9050836116b8576040517f70a0823100000000000000000000000000000000000000000000000000000000815233600482015283906001600160a01b038316906370a082319060240160206040518083038186803b15801561160c57600080fd5b505afa158015611620573d6000803e3d6000fd5b505050506040513d601f19601f820116820180604052508101906116449190614732565b10156116b85760405162461bcd60e51b815260206004820152602d60248201527f3c696e766573746f72206d656d6265727368697020657263323020746f6b656e60448201527f206d696e6920686f6c64696e6700000000000000000000000000000000000000606482015260840161064b565b83600114156117c7576040517f70a0823100000000000000000000000000000000000000000000000000000000815233600482015283906001600160a01b038316906370a082319060240160206040518083038186803b15801561171b57600080fd5b505afa15801561172f573d6000803e3d6000fd5b505050506040513d601f19601f820116820180604052508101906117539190614732565b10156117c75760405162461bcd60e51b815260206004820152602e60248201527f3c696e766573746f72206d656d626572736869702065726337323120746f6b6560448201527f6e206d696e6920686f6c64696e67000000000000000000000000000000000000606482015260840161064b565b83600214156118db576040517efdd58e0000000000000000000000000000000000000000000000000000000081523360048201526024810183905283906001600160a01b0383169062fdd58e9060440160206040518083038186803b15801561182f57600080fd5b505afa158015611843573d6000803e3d6000fd5b505050506040513d601f19601f820116820180604052508101906118679190614732565b10156118db5760405162461bcd60e51b815260206004820152602f60248201527f3c696e766573746f72206d656d62657273686970206572633131353520746f6b60448201527f656e206d696e6920686f6c64696e670000000000000000000000000000000000606482015260840161064b565b83600314156119c8576040517fe13efafa0000000000000000000000000000000000000000000000000000000081526001600160a01b03878116600483015233602483015286169063e13efafa9060440160206040518083038186803b15801561194457600080fd5b505afa158015611958573d6000803e3d6000fd5b505050506040513d601f19601f8201168201806040525081019061197c91906145de565b6119c85760405162461bcd60e51b815260206004820152601e60248201527f21696e766573746f72206d656d626572736869702077686974656c6973740000604482015260640161064b565b50505050505b8360006119da82613720565b9050611a52604080516101808101825260008082526020820181905291810182905290606082019081526020016000815260200160008152602001600081526020016000815260200160006001600160a01b0316815260200160006001600160a01b0316815260200160008152602001600081525090565b6040516317ba7d8560e01b81527f7a8526bca00f0726b2fab8c3bfd5b00bfa84d07f111e48263b13de605eefcdda60048201526001600160a01b038816906317ba7d859060240160206040518083038186803b158015611ab157600080fd5b505afa158015611ac5573d6000803e3d6000fd5b505050506040513d601f19601f82011682018060405250810190611ae99190614384565b6001600160a01b039081168252604051632c9f4b5b60e11b81527fb12a3847d47fefceb164b75823af125f9aa82b76938df0ddf08c04cd314ba37c60048201529088169063593e96b69060240160206040518083038186803b158015611b4e57600080fd5b505afa158015611b62573d6000803e3d6000fd5b505050506040513d601f19601f82011682018060405250810190611b869190614384565b6001600160a01b0390811660208301526040516317ba7d8560e01b81527fc8e81510cbc5ec7970040e233b001587da1ea4484a9f7b8710d3322429c2df236004820152908816906317ba7d859060240160206040518083038186803b158015611bee57600080fd5b505afa158015611c02573d6000803e3d6000fd5b505050506040513d601f19601f82011682018060405250810190611c269190614384565b6001600160a01b03908116604083810191909152602083015190517fe38a5a640000000000000000000000000000000000000000000000000000000081526004810189905291169063e38a5a649060240160006040518083038186803b158015611c8f57600080fd5b505afa158015611ca3573d6000803e3d6000fd5b505050506040513d6000823e601f3d908101601f19168201604052611ccb919081019061452a565b51610160820152604051634941d71d60e11b81527f69f4ffb3ebcb7809550bddd3e4d449a47e737bf6635bc7a730996643997b0e4860048201526001600160a01b03881690639283ae3a9060240160206040518083038186803b158015611d3157600080fd5b505afa158015611d45573d6000803e3d6000fd5b505050506040513d601f19601f82011682018060405250810190611d699190614732565b6001148015611e135750604051634941d71d60e11b81527fecbde689cc6337d29a750b8b8a8abbfa97427b4ac800ab55be2f2c87311510f260048201526001600160a01b03881690639283ae3a9060240160206040518083038186803b158015611dd257600080fd5b505afa158015611de6573d6000803e3d6000fd5b505050506040513d601f19601f82011682018060405250810190611e0a9190614732565b81610160015110155b8015611eb9575060208101516040517f6ca0b5c8000000000000000000000000000000000000000000000000000000008152600481018890523360248201526001600160a01b0390911690636ca0b5c89060440160206040518083038186803b158015611e7f57600080fd5b505afa158015611e93573d6000803e3d6000fd5b505050506040513d601f19601f82011682018060405250810190611eb791906145de565b155b15611ef0576040517ff435457800000000000000000000000000000000000000000000000000000000815260040160405180910390fd5b60408082015190517f1ebf58f90000000000000000000000000000000000000000000000000000000081526001600160a01b038981166004830152602482018990526000921690631ebf58f99060440160206040518083038186803b158015611f5857600080fd5b505afa158015611f6c573d6000803e3d6000fd5b505050506040513d601f19601f82011682018060405250810190611f909190614718565b90506001816004811115611fb457634e487b7160e01b600052602160045260246000fd5b14611feb576040517ffb9e169300000000000000000000000000000000000000000000000000000000815260040160405180910390fd5b60408083015190517f80dc31410000000000000000000000000000000000000000000000000000000081526001600160a01b038a81166004830152602482018a9052909116906380dc314190604401604080518083038186803b15801561205157600080fd5b505afa158015612065573d6000803e3d6000fd5b505050506040513d601f19601f82011682018060405250810190612089919061474a565b60a0840152608083018190524210806120a557508160a0015142115b156120dc576040517ffb9e169300000000000000000000000000000000000000000000000000000000815260040160405180910390fd5b6000861161212c5760405162461bcd60e51b815260206004820152600760248201527f21616d6f756e7400000000000000000000000000000000000000000000000000604482015260640161064b565b60408083015190517fc3a8f0030000000000000000000000000000000000000000000000000000000081526001600160a01b038a81166004830152602482018a90529091169063c3a8f0039060440160206040518083038186803b15801561219357600080fd5b505afa1580156121a7573d6000803e3d6000fd5b505050506040513d601f19601f820116820180604052508101906121cb91906146fe565b826060019060018111156121ef57634e487b7160e01b600052602160045260246000fd5b9081600181111561221057634e487b7160e01b600052602160045260246000fd5b90525060408083015190517fb39f0a790000000000000000000000000000000000000000000000000000000081526001600160a01b038a81166004830152602482018a90529091169063b39f0a799060440160206040518083038186803b15801561227a57600080fd5b505afa15801561228e573d6000803e3d6000fd5b505050506040513d601f19601f820116820180604052508101906122b29190614732565b61014083015260408083015190517f6666c9bd0000000000000000000000000000000000000000000000000000000081526001600160a01b038a81166004830152602482018a905290911690636666c9bd90604401604080518083038186803b15801561231e57600080fd5b505afa158015612332573d6000803e3d6000fd5b505050506040513d601f19601f82011682018060405250810190612356919061474a565b60e084015260c083018190521580159061237357508160c0015186105b156123aa576040517f10981f1600000000000000000000000000000000000000000000000000000000815260040160405180910390fd5b60008260e001511180156123df57508160e00151866123ca8a8a33610e1b565b6001600160a01b03166123dd91906148d9565b115b15612416576040517f75f4b91100000000000000000000000000000000000000000000000000000000815260040160405180910390fd5b60008260600151600181111561243c57634e487b7160e01b600052602160045260246000fd5b14801561244e57506000826101400151115b156124b257816101400151866124678a8a61babe610e1b565b6001600160a01b031661247a91906148d9565b11156124b2576040517f87ea887800000000000000000000000000000000000000000000000000000000815260040160405180910390fd5b60408083015190517f0c8c9a5c0000000000000000000000000000000000000000000000000000000081526001600160a01b038a81166004830152602482018a905290911690630c8c9a5c9060440160206040518083038186803b15801561251957600080fd5b505afa15801561252d573d6000803e3d6000fd5b505050506040513d601f19601f820116820180604052508101906125519190614384565b6001600160a01b031661012083018190526040517f23b872dd000000000000000000000000000000000000000000000000000000008152336004820152306024820152604481018890526323b872dd90606401602060405180830381600087803b1580156125be57600080fd5b505af11580156125d2573d6000803e3d6000fd5b505050506040513d601f19601f820116820180604052508101906125f691906145de565b50604051632c9f4b5b60e11b81527fb12a3847d47fefceb164b75823af125f9aa82b76938df0ddf08c04cd314ba37c60048201526126a8906001600160a01b038a169063593e96b69060240160206040518083038186803b15801561265a57600080fd5b505afa15801561266e573d6000803e3d6000fd5b505050506040513d601f19601f820116820180604052508101906126929190614384565b6101208401516001600160a01b031690886139f6565b81516040517f6d3cc0400000000000000000000000000000000000000000000000000000000081526001600160a01b038a81166004830152602482018a905233604483015290911690636d3cc0409060640160206040518083038186803b15801561271257600080fd5b505afa158015612726573d6000803e3d6000fd5b505050506040513d601f19601f8201168201806040525081019061274a91906145de565b15612788576001600160a01b03881660009081526003602090815260408083208a8452909152812080548892906127829084906148d9565b90915550505b60208201516040517ece27c200000000000000000000000000000000000000000000000000000000815260048101899052336024820152604481018890526001600160a01b039091169062ce27c290606401600060405180830381600087803b1580156127f457600080fd5b505af1158015612808573d6000803e3d6000fd5b5050604080516001600160a01b038c168152602081018b90529081018990523360608201527fddcff2534e44ab893ab86cadbfcf556c7c257bd657d168b0bfed850311dfe4f89250608001905060405180910390a1505061286982826139eb565b505050505050565b6040516317ba7d8560e01b81527f7a8526bca00f0726b2fab8c3bfd5b00bfa84d07f111e48263b13de605eefcdda60048201526001600160a01b038316906317ba7d859060240160206040518083038186803b1580156128d057600080fd5b505afa1580156128e4573d6000803e3d6000fd5b505050506040513d601f19601f820116820180604052508101906129089190614384565b6001600160a01b0316336001600160a01b0316146129525760405162461bcd60e51b81526020600482015260076024820152662161636365737360c81b604482015260640161064b565b6040805161012081018252600080825260208201819052818301819052606082018190526080820181905260a0820181905260c0820181905260e0820181905261010082015290516317ba7d8560e01b81527fc8e81510cbc5ec7970040e233b001587da1ea4484a9f7b8710d3322429c2df2360048201526001600160a01b038416906317ba7d859060240160206040518083038186803b1580156129f657600080fd5b505afa158015612a0a573d6000803e3d6000fd5b505050506040513d601f19601f82011682018060405250810190612a2e9190614384565b6001600160a01b0390811682526040516317ba7d8560e01b81527f7a8526bca00f0726b2fab8c3bfd5b00bfa84d07f111e48263b13de605eefcdda6004820152908416906317ba7d859060240160206040518083038186803b158015612a9357600080fd5b505afa158015612aa7573d6000803e3d6000fd5b505050506040513d601f19601f82011682018060405250810190612acb9190614384565b6001600160a01b03908116606083015281516040517fb39f0a7900000000000000000000000000000000000000000000000000000000815285831660048201526024810185905291169063b39f0a799060440160206040518083038186803b158015612b3657600080fd5b505afa158015612b4a573d6000803e3d6000fd5b505050506040513d601f19601f82011682018060405250810190612b6e9190614732565b6080820152612b80838361babe610e1b565b6001600160a01b031660a0820152600181516040517fc3a8f0030000000000000000000000000000000000000000000000000000000081526001600160a01b038681166004830152602482018690529091169063c3a8f0039060440160206040518083038186803b158015612bf457600080fd5b505afa158015612c08573d6000803e3d6000fd5b505050506040513d601f19601f82011682018060405250810190612c2c91906146fe565b6001811115612c4b57634e487b7160e01b600052602160045260246000fd5b148015612c5f575080608001518160a00151115b1561048957604051632c9f4b5b60e11b81527fb12a3847d47fefceb164b75823af125f9aa82b76938df0ddf08c04cd314ba37c60048201526001600160a01b0384169063593e96b69060240160206040518083038186803b158015612cc357600080fd5b505afa158015612cd7573d6000803e3d6000fd5b505050506040513d601f19601f82011682018060405250810190612cfb9190614384565b6001600160a01b0316602082018190526040517fe38a5a64000000000000000000000000000000000000000000000000000000008152600481018490526000919063e38a5a649060240160006040518083038186803b158015612d5d57600080fd5b505afa158015612d71573d6000803e3d6000fd5b505050506040513d6000823e601f3d908101601f19168201604052612d99919081019061452a565b600060e084015282516040517f0c8c9a5c0000000000000000000000000000000000000000000000000000000081526001600160a01b03878116600483015260248201879052929350911690630c8c9a5c9060440160206040518083038186803b158015612e0657600080fd5b505afa158015612e1a573d6000803e3d6000fd5b505050506040513d601f19601f82011682018060405250810190612e3e9190614384565b6001600160a01b039081166101008401526040516317ba7d8560e01b81527feae11da953333a83b6467e2193334fb302549e1a42ad5797082aea1ab6be91206004820152908516906317ba7d859060240160206040518083038186803b158015612ea757600080fd5b505afa158015612ebb573d6000803e3d6000fd5b505050506040513d601f19601f82011682018060405250810190612edf9190614384565b6001600160a01b0390811660408085019190915290851660009081526003602090815282822086835290529081205460c08401525b81518160ff161015610a9f5782608001518360c00151106130dc5782606001516001600160a01b0316636d3cc0408686858560ff1681518110612f6757634e487b7160e01b600052603260045260246000fd5b60200260200101516040518463ffffffff1660e01b8152600401612fab939291906001600160a01b0393841681526020810192909252909116604082015260600190565b60206040518083038186803b158015612fc357600080fd5b505afa158015612fd7573d6000803e3d6000fd5b505050506040513d601f19601f82011682018060405250810190612ffb91906145de565b156130a1578260c00151836080015161303f8787868660ff168151811061303257634e487b7160e01b600052603260045260246000fd5b6020026020010151610e1b565b6001600160a01b03166130529190614911565b61305c91906148f1565b6130848686858560ff168151811061303257634e487b7160e01b600052603260045260246000fd5b6001600160a01b0316613097919061494e565b60e0840152613267565b6130c98585848460ff168151811061303257634e487b7160e01b600052603260045260246000fd5b6001600160a01b031660e0840152613267565b82606001516001600160a01b0316636d3cc0408686858560ff168151811061311457634e487b7160e01b600052603260045260246000fd5b60200260200101516040518463ffffffff1660e01b8152600401613158939291906001600160a01b0393841681526020810192909252909116604082015260600190565b60206040518083038186803b15801561317057600080fd5b505afa158015613184573d6000803e3d6000fd5b505050506040513d601f19601f820116820180604052508101906131a891906145de565b156131b957600060e0840152613267565b8260c001518360a001516131cd919061494e565b8360c0015184608001516131e1919061494e565b6132098787868660ff168151811061303257634e487b7160e01b600052603260045260246000fd5b6001600160a01b031661321c9190614911565b61322691906148f1565b61324e8686858560ff168151811061303257634e487b7160e01b600052603260045260246000fd5b6001600160a01b0316613261919061494e565b60e08401525b60e0830151156134e3576132b46040518060400160405280600a81526020017f657874726146756e6420000000000000000000000000000000000000000000008152508460e00151613a76565b82604001516001600160a01b031663078e209e8686866101000151868660ff16815181106132f257634e487b7160e01b600052603260045260246000fd5b60200260200101518860e001516040518663ffffffff1660e01b815260040161334d9594939291906001600160a01b039586168152602081019490945291841660408401529092166060820152608081019190915260a00190565b600060405180830381600087803b15801561336757600080fd5b505af115801561337b573d6000803e3d6000fd5b5050505082602001516001600160a01b031663e21ccac185848460ff16815181106133b657634e487b7160e01b600052603260045260246000fd5b6020026020010151886001600160a01b03166317ba7d857feae11da953333a83b6467e2193334fb302549e1a42ad5797082aea1ab6be91206040518263ffffffff1660e01b815260040161340c91815260200190565b60206040518083038186803b15801561342457600080fd5b505afa158015613438573d6000803e3d6000fd5b505050506040513d601f19601f8201168201806040525081019061345c9190614384565b8761010001518860e001516040518663ffffffff1660e01b81526004016134b09594939291909485526001600160a01b03938416602086015291831660408501529091166060830152608082015260a00190565b600060405180830381600087803b1580156134ca57600080fd5b505af11580156134de573d6000803e3d6000fd5b505050505b806134ed81614991565b915050612f14565b6040516317ba7d8560e01b81527fff9379b98b93eb3bd1fac62fd2258a7955d70d2d5279c40064145b6c9646df3760048201526001600160a01b038216906317ba7d859060240160206040518083038186803b15801561355457600080fd5b505afa158015613568573d6000803e3d6000fd5b505050506040513d601f19601f8201168201806040525081019061358c9190614384565b6001600160a01b0316336001600160a01b0316146135d65760405162461bcd60e51b81526020600482015260076024820152662161636365737360c81b604482015260640161064b565b6001600160a01b03811660009081526020819052604090206060906135fa90613713565b805190915080156104895760005b818160ff16101561048757613673838260ff168151811061363957634e487b7160e01b600052603260045260246000fd5b6020026020010151600080876001600160a01b03166001600160a01b03168152602001908152602001600020613ae990919063ffffffff16565b508061367e81614991565b915050613608565b6136908282610f46565b61119b5760405162461bcd60e51b815260206004820152600c60248201527f6f6e6c79476f7665726e6f720000000000000000000000000000000000000000604482015260640161064b565b6001600160a01b03811660009081526001830160205260408120541515610f3f565b6000610f3f836001600160a01b038416613afe565b60606000610f3f83613b4d565b6040805160808101825260008082526020820181905291810182905260608101919091525a81600001818152505043826001600160a01b031663b21634826040518163ffffffff1660e01b815260040160206040518083038186803b15801561378857600080fd5b505afa15801561379c573d6000803e3d6000fd5b505050506040513d601f19601f820116820180604052508101906137c09190614732565b141561380e5760405162461bcd60e51b815260206004820152601060248201527f7265656e7472616e637920677561726400000000000000000000000000000000604482015260640161064b565b816001600160a01b03166310fdb0a26040518163ffffffff1660e01b8152600401600060405180830381600087803b15801561384957600080fd5b505af115801561385d573d6000803e3d6000fd5b50506040517f72c6838f0000000000000000000000000000000000000000000000000000000081527f1f2fd42ad6a6cacd573c4b212beb7a4e2499ad45d742a65337097f130e71daff6004820152600092506001600160a01b03851691506372c6838f9060240160206040518083038186803b1580156138dc57600080fd5b505afa1580156138f0573d6000803e3d6000fd5b505050506040513d601f19601f820116820180604052508101906139149190614384565b90506001600160a01b03811661393057600060208301526139e5565b6001600160a01b038181166060840181905283516040517f43a8a3f1000000000000000000000000000000000000000000000000000000008152928616600484015260248301526000918291906343a8a3f190604401604080518083038186803b15801561399d57600080fd5b505afa1580156139b1573d6000803e3d6000fd5b505050506040513d601f19601f820116820180604052508101906139d591906145f8565b9015156020860152604085015250505b50919050565b61119b828233613ba9565b604080516001600160a01b038416602482015260448082018490528251808303909101815260649091019091526020810180517bffffffffffffffffffffffffffffffffffffffffffffffffffffffff167fa9059cbb00000000000000000000000000000000000000000000000000000000179052610489908490613cb7565b61119b8282604051602401613a8c929190614815565b60408051601f198184030181529190526020810180517bffffffffffffffffffffffffffffffffffffffffffffffffffffffff167fb60e72cc00000000000000000000000000000000000000000000000000000000179052613d9c565b6000610f3f836001600160a01b038416613da8565b6000818152600183016020526040812054613b455750815460018181018455600084815260208082209093018490558454848252828601909352604090209190915561042e565b50600061042e565b606081600001805480602002602001604051908101604052809291908181526020018280548015613b9d57602002820191906000526020600020905b815481526020019060010190808311613b89575b50505050509050919050565b816020015115613c5f5781606001516001600160a01b0316635e5eb01384835a8651613bd5919061494e565b60408088015190517fffffffff0000000000000000000000000000000000000000000000000000000060e087901b1681526001600160a01b03948516600482015293909216602484015260448301526064820152608401600060405180830381600087803b158015613c4657600080fd5b505af1158015613c5a573d6000803e3d6000fd5b505050505b826001600160a01b031663d4f7af436040518163ffffffff1660e01b8152600401600060405180830381600087803b158015613c9a57600080fd5b505af1158015613cae573d6000803e3d6000fd5b50505050505050565b6000613d0c826040518060400160405280602081526020017f5361666545524332303a206c6f772d6c6576656c2063616c6c206661696c6564815250856001600160a01b0316613ec59092919063ffffffff16565b8051909150156104895780806020019051810190613d2a91906145de565b6104895760405162461bcd60e51b815260206004820152602a60248201527f5361666545524332303a204552433230206f7065726174696f6e20646964206e60448201527f6f74207375636365656400000000000000000000000000000000000000000000606482015260840161064b565b613da581613edc565b50565b60008181526001830160205260408120548015613ebb576000613dcc60018361494e565b8554909150600090613de09060019061494e565b9050818114613e61576000866000018281548110613e0e57634e487b7160e01b600052603260045260246000fd5b9060005260206000200154905080876000018481548110613e3f57634e487b7160e01b600052603260045260246000fd5b6000918252602080832090910192909255918252600188019052604090208390555b8554869080613e8057634e487b7160e01b600052603160045260246000fd5b60019003818190600052602060002001600090559055856001016000868152602001908152602001600020600090556001935050505061042e565b600091505061042e565b6060613ed48484600085613efd565b949350505050565b60006a636f6e736f6c652e6c6f679050600080835160208501845afa505050565b606082471015613f755760405162461bcd60e51b815260206004820152602660248201527f416464726573733a20696e73756666696369656e742062616c616e636520666f60448201527f722063616c6c0000000000000000000000000000000000000000000000000000606482015260840161064b565b6001600160a01b0385163b613fcc5760405162461bcd60e51b815260206004820152601d60248201527f416464726573733a2063616c6c20746f206e6f6e2d636f6e7472616374000000604482015260640161064b565b600080866001600160a01b03168587604051613fe89190614799565b60006040518083038185875af1925050503d8060008114614025576040519150601f19603f3d011682016040523d82523d6000602084013e61402a565b606091505b509150915061403a828286614045565b979650505050505050565b60608315614054575081610f3f565b8251156140645782518084602001fd5b8160405162461bcd60e51b815260040161064b9190614802565b8051614089816149dd565b919050565b8051801515811461408957600080fd5b80516002811061408957600080fd5b80516005811061408957600080fd5b600082601f8301126140cc578081fd5b815167ffffffffffffffff8111156140e6576140e66149c7565b6140f96020601f19601f840116016148a8565b81815284602083860101111561410d578283fd5b613ed4826020830160208701614965565b60006102008284031215614130578081fd5b604051610100810181811067ffffffffffffffff82111715614154576141546149c7565b6040529050806141638361409e565b81526020830151602082015260408301516040820152606083015160608201526080830151608082015261419960a0840161408e565b60a08201526141ab8460c085016141ca565b60c08201526141be84610160850161423d565b60e08201525092915050565b600060a082840312156141db578081fd5b6141e3614837565b905081516141f0816149f2565b8152602082015163ffffffff8116811461420957600080fd5b6020820152604082015161421c816149dd565b80604083015250606082015160608201526080820151608082015292915050565b600060a0828403121561424e578081fd5b614256614837565b90506142618261408e565b81526020820151614209816149f2565b600060408284031215614282578081fd5b6040516040810181811067ffffffffffffffff821117156142a5576142a56149c7565b604052825181526020928301519281019290925250919050565b600061012082840312156142d1578081fd5b6142d9614860565b9050815181526020820151602082015260408201516040820152606082015160608201526080820151608082015261431360a0830161408e565b60a082015261432460c0830161407e565b60c082015260e082015167ffffffffffffffff8082111561434457600080fd5b614350858386016140bc565b60e08401526101009150818401518181111561436b57600080fd5b614377868287016140bc565b8385015250505092915050565b600060208284031215614395578081fd5b8151610f3f816149dd565b600080604083850312156143b2578081fd5b82356143bd816149dd565b946020939093013593505050565b600080600080600080600080888a036104608112156143e8578485fd5b89516143f3816149dd565b9850610180601f198201811315614408578586fd5b614410614884565b915061441e60208c0161407e565b825260408b0151602083015260608b0151604083015260808b0151606083015261444a60a08c0161408e565b608083015261445b60c08c0161407e565b60a083015260e08b015160c0830152610100808c015160e0840152610120808d0151828501526101409150818d0151818501525061016061449d818e0161407e565b828501526144ac838e0161407e565b9084015250506101a08a015190975067ffffffffffffffff8111156144cf578485fd5b6144db8b828c016142bf565b9650506144ec8a6101c08b0161411e565b94506144fc8a6103c08b01614271565b93506104008901519250610420890151915061451b6104408a016140ad565b90509295985092959890939650565b6000602080838503121561453c578182fd5b825167ffffffffffffffff80821115614553578384fd5b818501915085601f830112614566578384fd5b815181811115614578576145786149c7565b8060051b91506145898483016148a8565b8181528481019084860184860187018a10156145a3578788fd5b8795505b838610156145d157805194506145bc856149dd565b848352600195909501949186019186016145a7565b5098975050505050505050565b6000602082840312156145ef578081fd5b610f3f8261408e565b6000806040838503121561460a578182fd5b6146138361408e565b9150602083015190509250929050565b600060208284031215614634578081fd5b8135610f3f816149dd565b60008060408385031215614651578182fd5b823561465c816149dd565b9150602083013561466c816149dd565b809150509250929050565b600080604083850312156143b2578182fd5b60008060006060848603121561469d578081fd5b83356146a8816149dd565b92506020840135915060408401356146bf816149dd565b809150509250925092565b6000806000606084860312156146de578081fd5b83356146e9816149dd565b95602085013595506040909401359392505050565b60006020828403121561470f578081fd5b610f3f8261409e565b600060208284031215614729578081fd5b610f3f826140ad565b600060208284031215614743578081fd5b5051919050565b6000806040838503121561475c578182fd5b505080516020909101519092909150565b60008151808452614785816020860160208601614965565b601f01601f19169290920160200192915050565b600082516147ab818460208701614965565b9190910192915050565b6020808252825182820181905260009190848201906040850190845b818110156147f65783516001600160a01b0316835292840192918401916001016147d1565b50909695505050505050565b602081526000610f3f602083018461476d565b604081526000614828604083018561476d565b90508260208301529392505050565b60405160a0810167ffffffffffffffff8111828210171561485a5761485a6149c7565b60405290565b604051610120810167ffffffffffffffff8111828210171561485a5761485a6149c7565b604051610180810167ffffffffffffffff8111828210171561485a5761485a6149c7565b604051601f8201601f1916810167ffffffffffffffff811182821017156148d1576148d16149c7565b604052919050565b600082198211156148ec576148ec6149b1565b500190565b60008261490c57634e487b7160e01b81526012600452602481fd5b500490565b6000817fffffffffffffffffffffffffffffffffffffffffffffffffffffffffffffffff0483118215151615614949576149496149b1565b500290565b600082821015614960576149606149b1565b500390565b60005b83811015614980578181015183820152602001614968565b838111156104875750506000910152565b600060ff821660ff8114156149a8576149a86149b1565b60010192915050565b634e487b7160e01b600052601160045260246000fd5b634e487b7160e01b600052604160045260246000fd5b6001600160a01b0381168114613da557600080fd5b60048110613da557600080fdfea26469706673582212209e3376a8b08a7ee3a82a89d72025fcac82eb1ea320a08e05d56ab99ec301600064736f6c63430008040033",
  "linkReferences": {},
  "deployedLinkReferences": {}
}