{
  "_format": "hh-sol-artifact-1",
  "contractName": "FlexDaoSetGovernorMembershipAdapterContract",
  "sourceName": "contracts/flex/adatpers/FlexDaoSetGovernorMembershipAdapter.sol",
  "abi": [
    {
      "inputs": [],
      "name": "VOTING_NOT_FINISH",
      "type": "error"
    },
    {
      "anonymous": false,
      "inputs": [
        {
          "indexed": false,
          "internalType": "address",
          "name": "daoAddr",
          "type": "address"
        },
        {
          "indexed": false,
          "internalType": "bytes32",
          "name": "proposalId",
          "type": "bytes32"
        },
        {
          "indexed": false,
          "internalType": "enum FlexDaosetLibrary.ProposalType",
          "name": "pType",
          "type": "uint8"
        }
      ],
      "name": "ProposalCreated",
      "type": "event"
    },
    {
      "anonymous": false,
      "inputs": [
        {
          "indexed": false,
          "internalType": "address",
          "name": "daoAddr",
          "type": "address"
        },
        {
          "indexed": false,
          "internalType": "bytes32",
          "name": "proposalId",
          "type": "bytes32"
        },
        {
          "indexed": false,
          "internalType": "uint256",
          "name": "voteResult",
          "type": "uint256"
        },
        {
          "indexed": false,
          "internalType": "uint128",
          "name": "allVotingWeight",
          "type": "uint128"
        },
        {
          "indexed": false,
          "internalType": "uint256",
          "name": "nbYes",
          "type": "uint256"
        },
        {
          "indexed": false,
          "internalType": "uint256",
          "name": "nbNo",
          "type": "uint256"
        }
      ],
      "name": "ProposalProcessed",
      "type": "event"
    },
    {
      "inputs": [
        {
          "internalType": "address",
          "name": "",
          "type": "address"
        },
        {
          "internalType": "bytes32",
          "name": "",
          "type": "bytes32"
        }
      ],
      "name": "governorMembershipProposals",
      "outputs": [
        {
          "internalType": "bool",
          "name": "enable",
          "type": "bool"
        },
        {
          "internalType": "string",
          "name": "name",
          "type": "string"
        },
        {
          "internalType": "uint8",
          "name": "varifyType",
          "type": "uint8"
        },
        {
          "internalType": "uint256",
          "name": "minAmount",
          "type": "uint256"
        },
        {
          "internalType": "address",
          "name": "tokenAddress",
          "type": "address"
        },
        {
          "internalType": "uint256",
          "name": "tokenId",
          "type": "uint256"
        },
        {
          "internalType": "uint256",
          "name": "creationTime",
          "type": "uint256"
        },
        {
          "internalType": "uint256",
          "name": "stopVoteTime",
          "type": "uint256"
        },
        {
          "internalType": "enum FlexDaosetLibrary.ProposalState",
          "name": "state",
          "type": "uint8"
        }
      ],
      "stateMutability": "view",
      "type": "function"
    },
    {
      "inputs": [
        {
          "internalType": "contract DaoRegistry",
          "name": "dao",
          "type": "address"
        },
        {
          "internalType": "address",
          "name": "_addr",
          "type": "address"
        }
      ],
      "name": "isActiveMember",
      "outputs": [
        {
          "internalType": "bool",
          "name": "",
          "type": "bool"
        }
      ],
      "stateMutability": "view",
      "type": "function"
    },
    {
      "inputs": [
        {
          "internalType": "address",
          "name": "",
          "type": "address"
        }
      ],
      "name": "ongoingGovernorMembershipProposal",
      "outputs": [
        {
          "internalType": "bytes32",
          "name": "",
          "type": "bytes32"
        }
      ],
      "stateMutability": "view",
      "type": "function"
    },
    {
      "inputs": [
        {
          "internalType": "contract DaoRegistry",
          "name": "dao",
          "type": "address"
        },
        {
          "internalType": "bytes32",
          "name": "proposalId",
          "type": "bytes32"
        }
      ],
      "name": "processGovernorMembershipProposal",
      "outputs": [],
      "stateMutability": "nonpayable",
      "type": "function"
    },
    {
      "inputs": [
        {
          "components": [
            {
              "internalType": "contract DaoRegistry",
              "name": "dao",
              "type": "address"
            },
            {
              "internalType": "bool",
              "name": "enable",
              "type": "bool"
            },
            {
              "internalType": "string",
              "name": "name",
              "type": "string"
            },
            {
              "internalType": "uint8",
              "name": "varifyType",
              "type": "uint8"
            },
            {
              "internalType": "uint256",
              "name": "minAmount",
              "type": "uint256"
            },
            {
              "internalType": "address",
              "name": "tokenAddress",
              "type": "address"
            },
            {
              "internalType": "uint256",
              "name": "tokenId",
              "type": "uint256"
            },
            {
              "internalType": "address[]",
              "name": "whiteList",
              "type": "address[]"
            }
          ],
          "internalType": "struct FlexDaosetLibrary.GovernorMembershipParams",
          "name": "params",
          "type": "tuple"
        }
      ],
      "name": "submitGovernorMembershipProposal",
      "outputs": [],
      "stateMutability": "nonpayable",
      "type": "function"
    }
  ],
  "bytecode": "0x608060405234801561001057600080fd5b50612e81806100206000396000f3fe608060405234801561001057600080fd5b50600436106100675760003560e01c80638e3588dc116100505780638e3588dc146100b25780638ecf7720146100c5578063be217625146100e857600080fd5b80631eb1cf391461006c578063229bb5f41461009d575b600080fd5b61007f61007a3660046126b7565b610116565b60405161009499989796959493929190612a45565b60405180910390f35b6100b06100ab366004612891565b610207565b005b6100b06100c0366004612846565b61081f565b6100d86100d336600461280e565b61096f565b6040519015158152602001610094565b6101086100f636600461267f565b60016020526000908152604090205481565b604051908152602001610094565b60026020908152600092835260408084209091529082529020805460018201805460ff909216929161014790612d2b565b80601f016020809104026020016040519081016040528092919081815260200182805461017390612d2b565b80156101c05780601f10610195576101008083540402835291602001916101c0565b820191906000526020600020905b8154815290600101906020018083116101a357829003601f168201915b505050600284015460038501546004860154600587015460068801546007890154600890990154979860ff958616989497506001600160a01b039093169550909390921689565b610214602082018261267f565b61021e8133610a0e565b61022b602083018361267f565b600061023682610a68565b9050600060018161024a602088018861267f565b6001600160a01b03166001600160a01b0316815260200190815260200160002054146102bd5760405162461bcd60e51b815260206004820152600760248201527f217375626d69740000000000000000000000000000000000000000000000000060448201526064015b60405180910390fd5b6102d26102cd602086018661267f565b610d33565b61031e5760405162461bcd60e51b815260206004820152601060248201527f756e446f6e652050726f706f73616c730000000000000000000000000000000060448201526064016102b4565b61032b602085018561267f565b6001600160a01b031663c7e820cc6040518163ffffffff1660e01b8152600401600060405180830381600087803b15801561036557600080fd5b505af1158015610379573d6000803e3d6000fd5b506000925061043f91506103929050602087018761267f565b60c01b61041a6103a5602089018961267f565b6001600160a01b0316639e42c4036040518163ffffffff1660e01b815260040160206040518083038186803b1580156103dd57600080fd5b505afa1580156103f1573d6000803e3d6000fd5b505050506040513d601f19601f8201168201806040525081019061041591906128fa565b610fb4565b60405160200161042b9291906129a2565b60405160208183030381529060405261110a565b905060405180610120016040528086602001602081019061046091906127a9565b151581526020016104746040880188612c43565b8080601f0160208091040260200160405190810160405280939291908181526020018383808284376000920191909152505050908252506020016104be6080880160608901612912565b60ff168152608087013560208201526040016104e060c0880160a0890161267f565b6001600160a01b031681526020018660c001358152602001428152602001866000016020810190610511919061267f565b604051634941d71d60e11b81527f9876c0f0505bfb2b1c38d3bbd25ba13159172cd0868972d76927723f5a9480fc60048201526001600160a01b039190911690639283ae3a9060240160206040518083038186803b15801561057257600080fd5b505afa158015610586573d6000803e3d6000fd5b505050506040513d601f19601f820116820180604052508101906105aa91906128fa565b6105b49042612cbc565b815260200160009052600260006105ce602089018961267f565b6001600160a01b03168152602080820192909252604090810160009081208582528352208251815460ff1916901515178155828201518051919261061a926001850192909101906125d6565b50604082015160028201805460ff90921660ff19928316179055606083015160038084019190915560808401516004840180546001600160a01b039092167fffffffffffffffffffffffff000000000000000000000000000000000000000090921691909117905560a0840151600584015560c0840151600684015560e084015160078401556101008401516008840180549193909291169060019084908111156106d557634e487b7160e01b600052602160045260246000fd5b0217905550600091506106ed905060e0870187612bf4565b905011156107805760005b61070560e0870187612bf4565b90508160ff16101561077e5761076b61072160e0880188612bf4565b8360ff1681811061074257634e487b7160e01b600052603260045260246000fd5b9050602002016020810190610757919061267f565b600084815260208190526040902090611126565b508061077681612d99565b9150506106f8565b505b8060016000610792602089018961267f565b6001600160a01b03168152602080820192909252604001600020919091556107c6906107c09087018761267f565b8261113b565b7fa65d0c07e3b0d876ee52e871c234a4b150b9bf17a08f356f5aeda8d6782cc31a6107f4602087018761267f565b82600160405161080693929190612a10565b60405180910390a1506108198282611351565b50505050565b81600061082b82610a68565b6001600160a01b0385166000908152600260209081526040808320878452909152812091925061085b868661135c565b509091506002905081600581111561088357634e487b7160e01b600052602160045260246000fd5b14156108b05761089486868461160b565b6008820180546002919060ff19166001835b021790555061094a565b60038160058111156108d257634e487b7160e01b600052602160045260246000fd5b14806108fd575060018160058111156108fb57634e487b7160e01b600052602160045260246000fd5b145b15610918576008820180546003919060ff19166001836108a6565b6040517f70fc772800000000000000000000000000000000000000000000000000000000815260040160405180910390fd5b50506001600160a01b0384166000908152600160205260408120556108198282611351565b6040517fa230c5240000000000000000000000000000000000000000000000000000000081526001600160a01b0382811660048301526000919084169063a230c5249060240160206040518083038186803b1580156109cd57600080fd5b505afa1580156109e1573d6000803e3d6000fd5b505050506040513d601f19601f82011682018060405250810190610a0591906127c5565b90505b92915050565b610a18828261096f565b610a645760405162461bcd60e51b815260206004820152600b60248201527f6f6e6c795374657761726400000000000000000000000000000000000000000060448201526064016102b4565b5050565b6040805160808101825260008082526020820181905291810182905260608101919091525a81600001818152505043826001600160a01b031663b21634826040518163ffffffff1660e01b815260040160206040518083038186803b158015610ad057600080fd5b505afa158015610ae4573d6000803e3d6000fd5b505050506040513d601f19601f82011682018060405250810190610b0891906128fa565b1415610b565760405162461bcd60e51b815260206004820152601060248201527f7265656e7472616e63792067756172640000000000000000000000000000000060448201526064016102b4565b816001600160a01b03166310fdb0a26040518163ffffffff1660e01b8152600401600060405180830381600087803b158015610b9157600080fd5b505af1158015610ba5573d6000803e3d6000fd5b50506040517f72c6838f0000000000000000000000000000000000000000000000000000000081527f1f2fd42ad6a6cacd573c4b212beb7a4e2499ad45d742a65337097f130e71daff6004820152600092506001600160a01b03851691506372c6838f9060240160206040518083038186803b158015610c2457600080fd5b505afa158015610c38573d6000803e3d6000fd5b505050506040513d601f19601f82011682018060405250810190610c5c919061269b565b90506001600160a01b038116610c785760006020830152610d2d565b6001600160a01b038181166060840181905283516040517f43a8a3f1000000000000000000000000000000000000000000000000000000008152928616600484015260248301526000918291906343a8a3f190604401604080518083038186803b158015610ce557600080fd5b505afa158015610cf9573d6000803e3d6000fd5b505050506040513d601f19601f82011682018060405250810190610d1d91906127e1565b9015156020860152604085015250505b50919050565b6040516317ba7d8560e01b81527f7a8526bca00f0726b2fab8c3bfd5b00bfa84d07f111e48263b13de605eefcdda600482015260009081906001600160a01b038416906317ba7d859060240160206040518083038186803b158015610d9757600080fd5b505afa158015610dab573d6000803e3d6000fd5b505050506040513d601f19601f82011682018060405250810190610dcf919061269b565b6040516317ba7d8560e01b81527fcad7b0867188190920a10bf710c45443f6358175d56a759e7dc109e6d7b5d75360048201529091506000906001600160a01b038516906317ba7d859060240160206040518083038186803b158015610e3457600080fd5b505afa158015610e48573d6000803e3d6000fd5b505050506040513d601f19601f82011682018060405250810190610e6c919061269b565b6040517f642fc0c00000000000000000000000000000000000000000000000000000000081526001600160a01b0386811660048301529192509083169063642fc0c09060240160206040518083038186803b158015610eca57600080fd5b505afa158015610ede573d6000803e3d6000fd5b505050506040513d601f19601f82011682018060405250810190610f0291906127c5565b8015610f9b57506040517f642fc0c00000000000000000000000000000000000000000000000000000000081526001600160a01b03858116600483015282169063642fc0c09060240160206040518083038186803b158015610f6357600080fd5b505afa158015610f77573d6000803e3d6000fd5b505050506040513d601f19601f82011682018060405250810190610f9b91906127c5565b15610faa575060019392505050565b5060009392505050565b606081610ff457505060408051808201909152600181527f3000000000000000000000000000000000000000000000000000000000000000602082015290565b8160005b811561101e578061100881612d60565b91506110179050600a83612cd4565b9150610ff8565b60008167ffffffffffffffff81111561104757634e487b7160e01b600052604160045260246000fd5b6040519080825280601f01601f191660200182016040528015611071576020820181803683370190505b5090505b841561110257611086600183612ce8565b9150611093600a86612db9565b61109e906030612cbc565b60f81b8183815181106110c157634e487b7160e01b600052603260045260246000fd5b60200101907effffffffffffffffffffffffffffffffffffffffffffffffffffffffffffff1916908160001a9053506110fb600a86612cd4565b9450611075565b949350505050565b600081516000141561111e57506000919050565b506020015190565b6000610a05836001600160a01b038416611759565b6040517fb73dc389000000000000000000000000000000000000000000000000000000008152600481018290526001600160a01b0383169063b73dc38990602401600060405180830381600087803b15801561119657600080fd5b505af11580156111aa573d6000803e3d6000fd5b50506040516317ba7d8560e01b81527f0d479c38716a0298633b1dbf1ce145a3fbd1d79ca4527de172afc3bad04a2ba76004820152600092506001600160a01b03851691506317ba7d859060240160206040518083038186803b15801561121057600080fd5b505afa158015611224573d6000803e3d6000fd5b505050506040513d601f19601f82011682018060405250810190611248919061269b565b604080516020810182526000815290517f2b0974d00000000000000000000000000000000000000000000000000000000081529192506001600160a01b03831691632b0974d09161129f9187918791600401612bc3565b600060405180830381600087803b1580156112b957600080fd5b505af11580156112cd573d6000803e3d6000fd5b50506040517f815a2bf4000000000000000000000000000000000000000000000000000000008152600481018590526001600160a01b0384811660248301528616925063815a2bf49150604401600060405180830381600087803b15801561133457600080fd5b505af1158015611348573d6000803e3d6000fd5b50505050505050565b610a648282336117a8565b6000806000846001600160a01b03166330490e91856040518263ffffffff1660e01b815260040161138f91815260200190565b600060405180830381600087803b1580156113a957600080fd5b505af11580156113bd573d6000803e3d6000fd5b50506040516317ba7d8560e01b81527f0d479c38716a0298633b1dbf1ce145a3fbd1d79ca4527de172afc3bad04a2ba76004820152600092506001600160a01b03881691506317ba7d859060240160206040518083038186803b15801561142357600080fd5b505afa158015611437573d6000803e3d6000fd5b505050506040513d601f19601f8201168201806040525081019061145b919061269b565b90506001600160a01b0381166114b35760405162461bcd60e51b815260206004820152600f60248201527f21766f74696e67436f6e7472616374000000000000000000000000000000000060448201526064016102b4565b6040517f76225e730000000000000000000000000000000000000000000000000000000081526001600160a01b0387811660048301526024820187905260009182918291908516906376225e7390604401606060405180830381600087803b15801561151e57600080fd5b505af1158015611532573d6000803e3d6000fd5b505050506040513d601f19601f820116820180604052508101906115569190612858565b92509250925060006115688a8a611899565b90507f31079f5404bf31284c3985351ef8eff4247cd77140001bc77841d2ecc855cf688a8a8660058111156115ad57634e487b7160e01b600052602160045260246000fd5b604080516001600160a01b0390941684526020840192909252908201526fffffffffffffffffffffffffffffffff831660608201526080810185905260a0810184905260c00160405180910390a15091955093509150509250925092565b6040516317ba7d8560e01b81527fff9379b98b93eb3bd1fac62fd2258a7955d70d2d5279c40064145b6c9646df3760048201526000906001600160a01b038516906317ba7d859060240160206040518083038186803b15801561166d57600080fd5b505afa158015611681573d6000803e3d6000fd5b505050506040513d601f19601f820116820180604052508101906116a5919061269b565b8254600384015460048501546005860154600287015460008981526020819052604090209596506001600160a01b0380881696634088f7ae968c9660ff9182169660018d0196919594169390929116906116fe90611b59565b6040518963ffffffff1660e01b8152600401611721989796959493929190612ab9565b600060405180830381600087803b15801561173b57600080fd5b505af115801561174f573d6000803e3d6000fd5b5050505050505050565b60008181526001830160205260408120546117a057508154600181810184556000848152602080822090930184905584548482528286019093526040902091909155610a08565b506000610a08565b81602001511561185e5781606001516001600160a01b0316635e5eb01384835a86516117d49190612ce8565b60408088015190517fffffffff0000000000000000000000000000000000000000000000000000000060e087901b1681526001600160a01b03948516600482015293909216602484015260448301526064820152608401600060405180830381600087803b15801561184557600080fd5b505af1158015611859573d6000803e3d6000fd5b505050505b826001600160a01b031663d4f7af436040518163ffffffff1660e01b8152600401600060405180830381600087803b15801561133457600080fd5b6000806118a584611b6d565b6040516317ba7d8560e01b81527f0d479c38716a0298633b1dbf1ce145a3fbd1d79ca4527de172afc3bad04a2ba7600482015290915060009081906001600160a01b038716906317ba7d859060240160206040518083038186803b15801561190c57600080fd5b505afa158015611920573d6000803e3d6000fd5b505050506040513d601f19601f82011682018060405250810190611944919061269b565b905060005b83518160ff161015611b4e57816001600160a01b03166324a2cceb8888878560ff168151811061198957634e487b7160e01b600052603260045260246000fd5b60200260200101516040518463ffffffff1660e01b81526004016119cd939291906001600160a01b0393841681526020810192909252909116604082015260600190565b60206040518083038186803b1580156119e557600080fd5b505afa1580156119f9573d6000803e3d6000fd5b505050506040513d601f19601f82011682018060405250810190611a1d91906127c5565b15611afb57816001600160a01b03166391d2fd538888878560ff1681518110611a5657634e487b7160e01b600052603260045260246000fd5b60200260200101516040518463ffffffff1660e01b8152600401611a9a939291906001600160a01b0393841681526020810192909252909116604082015260600190565b60206040518083038186803b158015611ab257600080fd5b505afa158015611ac6573d6000803e3d6000fd5b505050506040513d601f19601f82011682018060405250810190611aea91906128ca565b611af49084612c88565b9250611b3c565b611b2f87858360ff1681518110611b2257634e487b7160e01b600052603260045260246000fd5b6020026020010151611be4565b611b399084612c88565b92505b80611b4681612d99565b915050611949565b509095945050505050565b60606000611b6683612449565b9392505050565b6060816001600160a01b031663a6f636416040518163ffffffff1660e01b815260040160006040518083038186803b158015611ba857600080fd5b505afa158015611bbc573d6000803e3d6000fd5b505050506040513d6000823e601f3d908101601f19168201604052610a0891908101906126e2565b604051634941d71d60e11b81527f75b7d343967750d1f6c15979b7559cea8be22ff1a06a51681b9cbef0d2fff4fe600482015260009081906001600160a01b03851690639283ae3a9060240160206040518083038186803b158015611c4857600080fd5b505afa158015611c5c573d6000803e3d6000fd5b505050506040513d601f19601f82011682018060405250810190611c8091906128fa565b604051634941d71d60e11b81527f18ef0b57fe939edb640a200fdf533493bd8f26a274151543a109b64c857e20f360048201529091506000906001600160a01b03861690639283ae3a9060240160206040518083038186803b158015611ce557600080fd5b505afa158015611cf9573d6000803e3d6000fd5b505050506040513d601f19601f82011682018060405250810190611d1d91906128fa565b6040516317ba7d8560e01b81527f37cbe06c1044f98864ea25736326bc1d488e24e5e23781ea2ad64c4069cb9e6e60048201529091506000906001600160a01b038716906317ba7d859060240160206040518083038186803b158015611d8257600080fd5b505afa158015611d96573d6000803e3d6000fd5b505050506040513d601f19601f82011682018060405250810190611dba919061269b565b604051634941d71d60e11b81527f77b1580d1632c74a32483c26a7156260a89ae4138b020ea7d09b0dcf24f1ea2460048201529091506000906001600160a01b03881690639283ae3a9060240160206040518083038186803b158015611e1f57600080fd5b505afa158015611e33573d6000803e3d6000fd5b505050506040513d601f19601f82011682018060405250810190611e5791906128fa565b6040517ffd310d290000000000000000000000000000000000000000000000000000000081527fb5a1ad3f04728d7c38547e3d43006a1ec090a02fce04bbb1d0ee4519a1921e5760048201529091506000906001600160a01b0389169063fd310d299060240160206040518083038186803b158015611ed557600080fd5b505afa158015611ee9573d6000803e3d6000fd5b505050506040513d601f19601f82011682018060405250810190611f0d919061269b565b9050836001141561212a57600085611fb4576040516370a0823160e01b81526001600160a01b038981166004830152670de0b6b3a764000091908416906370a082319060240160206040518083038186803b158015611f6b57600080fd5b505afa158015611f7f573d6000803e3d6000fd5b505050506040513d601f19601f82011682018060405250810190611fa391906128fa565b611fad9190612cd4565b90506120c1565b8560011415612037576040516370a0823160e01b81526001600160a01b0389811660048301528316906370a08231906024015b60206040518083038186803b158015611fff57600080fd5b505afa158015612013573d6000803e3d6000fd5b505050506040513d601f19601f82011682018060405250810190611fad91906128fa565b856002141561207357604051627eeac760e11b81526001600160a01b0389811660048301526024820185905283169062fdd58e90604401611fe7565b85600314156120b2576040516329b6517360e21b81526001600160a01b038a81166004830152898116602483015285169063a6d945cc90604401611fe7565b60009650505050505050610a08565b600081116120d85760009650505050505050610a08565b677fffffffffffffff81106120f65760329650505050505050610a08565b600061211161210c612107846124a5565b6124c3565b6125ba565b67ffffffffffffffff169750610a089650505050505050565b836002141561229c576000856121d1576040516370a0823160e01b81526001600160a01b038981166004830152600091908416906370a08231906024015b60206040518083038186803b15801561218057600080fd5b505afa158015612194573d6000803e3d6000fd5b505050506040513d601f19601f820116820180604052508101906121b891906128fa565b116121c45760006121c7565b60015b60ff16905061228f565b856001141561220c576040516370a0823160e01b81526001600160a01b038981166004830152600091908416906370a0823190602401612168565b856002141561224c57604051627eeac760e11b81526001600160a01b038981166004830152602482018590526000919084169062fdd58e90604401612168565b85600314156120b2576040516329b6517360e21b81526001600160a01b038a8116600483015289811660248301526000919086169063a6d945cc90604401612168565b9550610a08945050505050565b8361243b5760008561233d576040516370a0823160e01b81526001600160a01b038981166004830152670de0b6b3a764000091908416906370a082319060240160206040518083038186803b1580156122f457600080fd5b505afa158015612308573d6000803e3d6000fd5b505050506040513d601f19601f8201168201806040525081019061232c91906128fa565b6123369190612cd4565b905061228f565b85600114156123c0576040516370a0823160e01b81526001600160a01b0389811660048301528316906370a08231906024015b60206040518083038186803b15801561238857600080fd5b505afa15801561239c573d6000803e3d6000fd5b505050506040513d601f19601f8201168201806040525081019061233691906128fa565b85600214156123fc57604051627eeac760e11b81526001600160a01b0389811660048301526024820185905283169062fdd58e90604401612370565b85600314156120b2576040516329b6517360e21b81526001600160a01b038a81166004830152898116602483015285169063a6d945cc90604401612370565b600095505050505050610a08565b60608160000180548060200260200160405190810160405280929190818152602001828054801561249957602002820191906000526020600020905b815481526020019060010190808311612485575b50505050509050919050565b6000677fffffffffffffff8211156124bc57600080fd5b5060401b90565b60008082600f0b136124d457600080fd5b6000600f83900b6801000000000000000081126124f3576040918201911d5b6401000000008112612507576020918201911d5b620100008112612519576010918201911d5b610100811261252a576008918201911d5b6010811261253a576004918201911d5b6004811261254a576002918201911d5b60028112612559576001820191505b7fffffffffffffffffffffffffffffffffffffffffffffffffffffffffffffffc0820160401b600f85900b607f8490031b6780000000000000005b6000811315611b4e5790800260ff81901c8281029390930192607f011c9060011d612594565b60008082600f0b12156125cc57600080fd5b50600f0b60401d90565b8280546125e290612d2b565b90600052602060002090601f016020900481019282612604576000855561264a565b82601f1061261d57805160ff191683800117855561264a565b8280016001018555821561264a579182015b8281111561264a57825182559160200191906001019061262f565b5061265692915061265a565b5090565b5b80821115612656576000815560010161265b565b805161267a81612e25565b919050565b600060208284031215612690578081fd5b8135611b6681612e25565b6000602082840312156126ac578081fd5b8151611b6681612e25565b600080604083850312156126c9578081fd5b82356126d481612e25565b946020939093013593505050565b600060208083850312156126f4578182fd5b825167ffffffffffffffff8082111561270b578384fd5b818501915085601f83011261271e578384fd5b81518181111561273057612730612e0f565b8060051b604051601f19603f8301168101818110858211171561275557612755612e0f565b604052828152858101935084860182860187018a1015612773578788fd5b8795505b8386101561279c576127888161266f565b855260019590950194938601938601612777565b5098975050505050505050565b6000602082840312156127ba578081fd5b8135611b6681612e3d565b6000602082840312156127d6578081fd5b8151611b6681612e3d565b600080604083850312156127f3578182fd5b82516127fe81612e3d565b6020939093015192949293505050565b60008060408385031215612820578182fd5b823561282b81612e25565b9150602083013561283b81612e25565b809150509250929050565b600080604083850312156126c9578182fd5b60008060006060848603121561286c578081fd5b83516006811061287a578182fd5b602085015160409095015190969495509392505050565b6000602082840312156128a2578081fd5b813567ffffffffffffffff8111156128b8578182fd5b82016101008185031215611b66578182fd5b6000602082840312156128db578081fd5b81516fffffffffffffffffffffffffffffffff81168114611b66578182fd5b60006020828403121561290b578081fd5b5051919050565b600060208284031215612923578081fd5b813560ff81168114611b66578182fd5b6000815180845260208085019450808401835b8381101561296b5781516001600160a01b031687529582019590820190600101612946565b509495945050505050565b6000815180845261298e816020860160208601612cff565b601f01601f19169290920160200192915050565b7fffffffffffffffff000000000000000000000000000000000000000000000000831681527f476f7665726e6f72204d656d6265727368697020230000000000000000000000600882015260008251612a0281601d850160208701612cff565b91909101601d019392505050565b6001600160a01b0384168152602081018390526060810160078310612a3757612a37612df9565b826040830152949350505050565b60006101208b15158352806020840152612a618184018c612976565b91505060ff891660408301528760608301526001600160a01b03871660808301528560a08301528460c08301528360e083015260048310612aa457612aa4612df9565b826101008301529a9950505050505050505050565b60006101006001600160a01b038b168352891515602084015280604084015281895483600182811c915080831680612af257607f831692505b60208310811415612b1157634e487b7160e01b87526022600452602487fd5b94870182815260200194808015612b2f5760018114612b4157612b6c565b60ff1985168752602087019550612b6c565b60008f815260209020885b85811015612b665781548982015290840190602001612b4c565b88019650505b5050505050886060850152612b8c60808501896001600160a01b03169052565b8660a0850152612ba160c085018760ff169052565b83810360e0850152612bb38186612933565b9c9b505050505050505050505050565b6001600160a01b0384168152826020820152606060408201526000612beb6060830184612976565b95945050505050565b6000808335601e19843603018112612c0a578283fd5b83018035915067ffffffffffffffff821115612c24578283fd5b6020019150600581901b3603821315612c3c57600080fd5b9250929050565b6000808335601e19843603018112612c59578182fd5b83018035915067ffffffffffffffff821115612c73578283fd5b602001915036819003821315612c3c57600080fd5b60006fffffffffffffffffffffffffffffffff808316818516808303821115612cb357612cb3612dcd565b01949350505050565b60008219821115612ccf57612ccf612dcd565b500190565b600082612ce357612ce3612de3565b500490565b600082821015612cfa57612cfa612dcd565b500390565b60005b83811015612d1a578181015183820152602001612d02565b838111156108195750506000910152565b600181811c90821680612d3f57607f821691505b60208210811415610d2d57634e487b7160e01b600052602260045260246000fd5b60007fffffffffffffffffffffffffffffffffffffffffffffffffffffffffffffffff821415612d9257612d92612dcd565b5060010190565b600060ff821660ff811415612db057612db0612dcd565b60010192915050565b600082612dc857612dc8612de3565b500690565b634e487b7160e01b600052601160045260246000fd5b634e487b7160e01b600052601260045260246000fd5b634e487b7160e01b600052602160045260246000fd5b634e487b7160e01b600052604160045260246000fd5b6001600160a01b0381168114612e3a57600080fd5b50565b8015158114612e3a57600080fdfea2646970667358221220697e0f8562918b972d59b3dfa8e6e835ad79b6bc82f8a66aadb23806c0c360dd64736f6c63430008040033",
  "linkReferences": {},
  "deployedLinkReferences": {}
}