{
  "_format": "hh-sol-artifact-1",
  "contractName": "FlexDaoSetProxyContract",
  "sourceName": "contracts/flex/adatpers/FlexDaoSetProxy.sol",
  "abi": [
    {
      "inputs": [
        {
          "internalType": "address",
          "name": "_daosetImplContrAddr",
          "type": "address"
        }
      ],
      "stateMutability": "nonpayable",
      "type": "constructor"
    },
    {
      "stateMutability": "payable",
      "type": "fallback"
    },
    {
      "inputs": [
        {
          "internalType": "address",
          "name": "",
          "type": "address"
        },
        {
          "internalType": "bytes32",
          "name": "",
          "type": "bytes32"
        }
      ],
      "name": "feesProposals",
      "outputs": [
        {
          "internalType": "uint256",
          "name": "flexDaoManagementfee",
          "type": "uint256"
        },
        {
          "internalType": "uint256",
          "name": "returnTokenManagementFee",
          "type": "uint256"
        },
        {
          "internalType": "address",
          "name": "managementFeeAddress",
          "type": "address"
        },
        {
          "internalType": "uint256",
          "name": "creationTime",
          "type": "uint256"
        },
        {
          "internalType": "uint256",
          "name": "stopVoteTime",
          "type": "uint256"
        },
        {
          "internalType": "enum FlexDaosetLibrary.ProposalState",
          "name": "state",
          "type": "uint8"
        }
      ],
      "stateMutability": "view",
      "type": "function"
    },
    {
      "inputs": [
        {
          "internalType": "address",
          "name": "",
          "type": "address"
        },
        {
          "internalType": "bytes32",
          "name": "",
          "type": "bytes32"
        }
      ],
      "name": "governorMembershipProposals",
      "outputs": [
        {
          "internalType": "bool",
          "name": "enable",
          "type": "bool"
        },
        {
          "internalType": "string",
          "name": "name",
          "type": "string"
        },
        {
          "internalType": "uint8",
          "name": "varifyType",
          "type": "uint8"
        },
        {
          "internalType": "uint256",
          "name": "minAmount",
          "type": "uint256"
        },
        {
          "internalType": "address",
          "name": "tokenAddress",
          "type": "address"
        },
        {
          "internalType": "uint256",
          "name": "tokenId",
          "type": "uint256"
        },
        {
          "internalType": "uint256",
          "name": "creationTime",
          "type": "uint256"
        },
        {
          "internalType": "uint256",
          "name": "stopVoteTime",
          "type": "uint256"
        },
        {
          "internalType": "enum FlexDaosetLibrary.ProposalState",
          "name": "state",
          "type": "uint8"
        }
      ],
      "stateMutability": "view",
      "type": "function"
    },
    {
      "inputs": [
        {
          "internalType": "address",
          "name": "",
          "type": "address"
        },
        {
          "internalType": "bytes32",
          "name": "",
          "type": "bytes32"
        }
      ],
      "name": "investorCapProposals",
      "outputs": [
        {
          "internalType": "bool",
          "name": "enable",
          "type": "bool"
        },
        {
          "internalType": "uint256",
          "name": "cap",
          "type": "uint256"
        },
        {
          "internalType": "uint256",
          "name": "creationTime",
          "type": "uint256"
        },
        {
          "internalType": "uint256",
          "name": "stopVoteTime",
          "type": "uint256"
        },
        {
          "internalType": "enum FlexDaosetLibrary.ProposalState",
          "name": "state",
          "type": "uint8"
        }
      ],
      "stateMutability": "view",
      "type": "function"
    },
    {
      "inputs": [
        {
          "internalType": "address",
          "name": "",
          "type": "address"
        },
        {
          "internalType": "bytes32",
          "name": "",
          "type": "bytes32"
        }
      ],
      "name": "investorMembershipProposals",
      "outputs": [
        {
          "internalType": "bool",
          "name": "enable",
          "type": "bool"
        },
        {
          "internalType": "string",
          "name": "name",
          "type": "string"
        },
        {
          "internalType": "uint8",
          "name": "varifyType",
          "type": "uint8"
        },
        {
          "internalType": "uint256",
          "name": "minAmount",
          "type": "uint256"
        },
        {
          "internalType": "address",
          "name": "tokenAddress",
          "type": "address"
        },
        {
          "internalType": "uint256",
          "name": "tokenId",
          "type": "uint256"
        },
        {
          "internalType": "uint256",
          "name": "creationTime",
          "type": "uint256"
        },
        {
          "internalType": "uint256",
          "name": "stopVoteTime",
          "type": "uint256"
        },
        {
          "internalType": "enum FlexDaosetLibrary.ProposalState",
          "name": "state",
          "type": "uint8"
        }
      ],
      "stateMutability": "view",
      "type": "function"
    },
    {
      "inputs": [
        {
          "internalType": "address",
          "name": "",
          "type": "address"
        }
      ],
      "name": "ongoingFeesProposal",
      "outputs": [
        {
          "internalType": "bytes32",
          "name": "",
          "type": "bytes32"
        }
      ],
      "stateMutability": "view",
      "type": "function"
    },
    {
      "inputs": [
        {
          "internalType": "address",
          "name": "",
          "type": "address"
        }
      ],
      "name": "ongoingGovernorMembershipProposal",
      "outputs": [
        {
          "internalType": "bytes32",
          "name": "",
          "type": "bytes32"
        }
      ],
      "stateMutability": "view",
      "type": "function"
    },
    {
      "inputs": [
        {
          "internalType": "address",
          "name": "",
          "type": "address"
        }
      ],
      "name": "ongoingInvestorCapProposal",
      "outputs": [
        {
          "internalType": "bytes32",
          "name": "",
          "type": "bytes32"
        }
      ],
      "stateMutability": "view",
      "type": "function"
    },
    {
      "inputs": [
        {
          "internalType": "address",
          "name": "",
          "type": "address"
        }
      ],
      "name": "ongoingInvstorMembershipProposal",
      "outputs": [
        {
          "internalType": "bytes32",
          "name": "",
          "type": "bytes32"
        }
      ],
      "stateMutability": "view",
      "type": "function"
    },
    {
      "inputs": [
        {
          "internalType": "address",
          "name": "",
          "type": "address"
        }
      ],
      "name": "ongoingProposerMembershipProposal",
      "outputs": [
        {
          "internalType": "bytes32",
          "name": "",
          "type": "bytes32"
        }
      ],
      "stateMutability": "view",
      "type": "function"
    },
    {
      "inputs": [
        {
          "internalType": "address",
          "name": "",
          "type": "address"
        },
        {
          "internalType": "bytes32",
          "name": "",
          "type": "bytes32"
        }
      ],
      "name": "proposerMembershipProposals",
      "outputs": [
        {
          "internalType": "bool",
          "name": "proposerMembershipEnable",
          "type": "bool"
        },
        {
          "internalType": "string",
          "name": "name",
          "type": "string"
        },
        {
          "internalType": "uint8",
          "name": "varifyType",
          "type": "uint8"
        },
        {
          "internalType": "uint256",
          "name": "minHolding",
          "type": "uint256"
        },
        {
          "internalType": "address",
          "name": "tokenAddress",
          "type": "address"
        },
        {
          "internalType": "uint256",
          "name": "tokenId",
          "type": "uint256"
        },
        {
          "internalType": "uint256",
          "name": "creationTime",
          "type": "uint256"
        },
        {
          "internalType": "uint256",
          "name": "stopVoteTime",
          "type": "uint256"
        },
        {
          "internalType": "enum FlexDaosetLibrary.ProposalState",
          "name": "state",
          "type": "uint8"
        }
      ],
      "stateMutability": "view",
      "type": "function"
    },
    {
      "stateMutability": "payable",
      "type": "receive"
    }
  ],
  "bytecode": "0x608060405234801561001057600080fd5b5060405161080a38038061080a83398101604081905261002f91610054565b600e80546001600160a01b0319166001600160a01b0392909216919091179055610082565b600060208284031215610065578081fd5b81516001600160a01b038116811461007b578182fd5b9392505050565b610779806100916000396000f3fe6080604052600436106100b55760003560e01c8063ab1a279811610069578063be2176251161004e578063be217625146102a4578063f2bc1c02146102d1578063f8ffc75b146102fe576100c4565b8063ab1a279814610264578063b58ca31e14610284576100c4565b80631eb1cf391161009a5780631eb1cf391461017b5780634ad743cc146101b0578063985460c714610237576100c4565b8063034f82fe146100cc5780631151118614610140576100c4565b366100c4576100c261032b565b005b6100c261032b565b3480156100d857600080fd5b506101266100e7366004610522565b60056020908152600092835260408084209091529082529020805460018201546002830154600384015460049094015460ff9384169492939192911685565b604051610137959493929190610668565b60405180910390f35b34801561014c57600080fd5b5061016d61015b366004610501565b60036020526000908152604090205481565b604051908152602001610137565b34801561018757600080fd5b5061019b610196366004610522565b610354565b60405161013799989796959493929190610586565b3480156101bc57600080fd5b506102256101cb366004610522565b60086020908152600092835260408084209091529082529020805460018201546002830154600384015460048501546005909501549394929373ffffffffffffffffffffffffffffffffffffffff90921692909160ff1686565b6040516101379695949392919061069e565b34801561024357600080fd5b5061016d610252366004610501565b60026020526000908152604090205481565b34801561027057600080fd5b5061019b61027f366004610522565b610452565b34801561029057600080fd5b5061019b61029f366004610522565b610483565b3480156102b057600080fd5b5061016d6102bf366004610501565b60016020526000908152604090205481565b3480156102dd57600080fd5b5061016d6102ec366004610501565b60046020526000908152604090205481565b34801561030a57600080fd5b5061016d610319366004610501565b60006020819052908152604090205481565b61035261034d600e5473ffffffffffffffffffffffffffffffffffffffff1690565b6104b4565b565b60066020908152600092835260408084209091529082529020805460018201805460ff9092169291610385906106ef565b80601f01602080910402602001604051908101604052809291908181526020018280546103b1906106ef565b80156103fe5780601f106103d3576101008083540402835291602001916103fe565b820191906000526020600020905b8154815290600101906020018083116103e157829003601f168201915b505050600284015460038501546004860154600587015460068801546007890154600890990154979860ff9586169894975073ffffffffffffffffffffffffffffffffffffffff9093169550909390921689565b60096020908152600092835260408084209091529082529020805460018201805460ff9092169291610385906106ef565b60076020908152600092835260408084209091529082529020805460018201805460ff9092169291610385906106ef565b3660008037600080366000845af43d6000803e8080156104d3573d6000f35b3d6000fd5b803573ffffffffffffffffffffffffffffffffffffffff811681146104fc57600080fd5b919050565b600060208284031215610512578081fd5b61051b826104d8565b9392505050565b60008060408385031215610534578081fd5b61053d836104d8565b946020939093013593505050565b60048110610582577f4e487b7100000000000000000000000000000000000000000000000000000000600052602160045260246000fd5b9052565b60006101208b15158352602081818501528b5180838601528392505b808310156105c1578c83018201518584016101400152918101916105a2565b808311156105d3578361014082870101525b601f017fffffffffffffffffffffffffffffffffffffffffffffffffffffffffffffffe0168401610140019250610612915050604083018a60ff169052565b87606083015261063a608083018873ffffffffffffffffffffffffffffffffffffffff169052565b8560a08301528460c08301528360e083015261065a61010083018461054b565b9a9950505050505050505050565b600060a0820190508615158252856020830152846040830152836060830152610694608083018461054b565b9695505050505050565b600060c08201905087825286602083015273ffffffffffffffffffffffffffffffffffffffff861660408301528460608301528360808301526106e460a083018461054b565b979650505050505050565b600181811c9082168061070357607f821691505b6020821081141561073d577f4e487b7100000000000000000000000000000000000000000000000000000000600052602260045260246000fd5b5091905056fea2646970667358221220225990dd9c03e89ef41cd9886dc2d589f8979b8e3e529e69e1db7099837bd22e64736f6c63430008040033",
  "linkReferences": {},
  "deployedLinkReferences": {}
}