{
  "_format": "hh-sol-artifact-1",
  "contractName": "FlexVesting",
  "sourceName": "contracts/flex/adatpers/FlexVesting.sol",
  "abi": [
    {
      "inputs": [],
      "stateMutability": "nonpayable",
      "type": "constructor"
    },
    {
      "inputs": [],
      "name": "InvalidVestingAmountSetting",
      "type": "error"
    },
    {
      "inputs": [],
      "name": "InvalidVestingTimeSetting",
      "type": "error"
    },
    {
      "inputs": [],
      "name": "NotOwner",
      "type": "error"
    },
    {
      "inputs": [],
      "name": "NotVestReceiver",
      "type": "error"
    },
    {
      "anonymous": false,
      "inputs": [
        {
          "indexed": true,
          "internalType": "uint256",
          "name": "vestId",
          "type": "uint256"
        },
        {
          "indexed": true,
          "internalType": "uint256",
          "name": "ownerAmount",
          "type": "uint256"
        },
        {
          "indexed": true,
          "internalType": "uint256",
          "name": "recipientAmount",
          "type": "uint256"
        },
        {
          "indexed": false,
          "internalType": "address",
          "name": "token",
          "type": "address"
        },
        {
          "indexed": false,
          "internalType": "bool",
          "name": "toBentoBox",
          "type": "bool"
        }
      ],
      "name": "CancelVesting",
      "type": "event"
    },
    {
      "anonymous": false,
      "inputs": [
        {
          "indexed": true,
          "internalType": "uint256",
          "name": "vestId",
          "type": "uint256"
        },
        {
          "indexed": false,
          "internalType": "address",
          "name": "token",
          "type": "address"
        },
        {
          "indexed": true,
          "internalType": "address",
          "name": "recipient",
          "type": "address"
        },
        {
          "indexed": false,
          "internalType": "uint32",
          "name": "start",
          "type": "uint32"
        },
        {
          "indexed": false,
          "internalType": "uint32",
          "name": "cliffDuration",
          "type": "uint32"
        },
        {
          "indexed": false,
          "internalType": "uint32",
          "name": "stepDuration",
          "type": "uint32"
        },
        {
          "indexed": false,
          "internalType": "uint32",
          "name": "steps",
          "type": "uint32"
        },
        {
          "indexed": false,
          "internalType": "uint128",
          "name": "cliffShares",
          "type": "uint128"
        },
        {
          "indexed": false,
          "internalType": "uint128",
          "name": "stepShares",
          "type": "uint128"
        },
        {
          "indexed": false,
          "internalType": "bytes32",
          "name": "proposalId",
          "type": "bytes32"
        }
      ],
      "name": "CreateVesting",
      "type": "event"
    },
    {
      "anonymous": false,
      "inputs": [
        {
          "indexed": true,
          "internalType": "uint256",
          "name": "vestId",
          "type": "uint256"
        },
        {
          "indexed": true,
          "internalType": "address",
          "name": "newOwner",
          "type": "address"
        }
      ],
      "name": "LogUpdateOwner",
      "type": "event"
    },
    {
      "anonymous": false,
      "inputs": [
        {
          "indexed": true,
          "internalType": "uint256",
          "name": "vestId",
          "type": "uint256"
        },
        {
          "indexed": true,
          "internalType": "address",
          "name": "token",
          "type": "address"
        },
        {
          "indexed": true,
          "internalType": "uint256",
          "name": "amount",
          "type": "uint256"
        },
        {
          "indexed": false,
          "internalType": "bool",
          "name": "toBentoBox",
          "type": "bool"
        }
      ],
      "name": "Withdraw",
      "type": "event"
    },
    {
      "inputs": [],
      "name": "PERCENTAGE_PRECISION",
      "outputs": [
        {
          "internalType": "uint256",
          "name": "",
          "type": "uint256"
        }
      ],
      "stateMutability": "view",
      "type": "function"
    },
    {
      "inputs": [
        {
          "internalType": "contract DaoRegistry",
          "name": "dao",
          "type": "address"
        },
        {
          "internalType": "address",
          "name": "recipientAddr",
          "type": "address"
        },
        {
          "internalType": "bytes32",
          "name": "proposalId",
          "type": "bytes32"
        }
      ],
      "name": "createVesting",
      "outputs": [],
      "stateMutability": "payable",
      "type": "function"
    },
    {
      "inputs": [
        {
          "internalType": "address",
          "name": "token",
          "type": "address"
        },
        {
          "internalType": "uint256",
          "name": "tokenId",
          "type": "uint256"
        }
      ],
      "name": "getRemainingPercentage",
      "outputs": [
        {
          "internalType": "uint256",
          "name": "",
          "type": "uint256"
        },
        {
          "internalType": "uint256",
          "name": "",
          "type": "uint256"
        },
        {
          "internalType": "uint256",
          "name": "",
          "type": "uint256"
        }
      ],
      "stateMutability": "view",
      "type": "function"
    },
    {
      "inputs": [
        {
          "internalType": "address",
          "name": "token",
          "type": "address"
        },
        {
          "internalType": "uint256",
          "name": "tokenId",
          "type": "uint256"
        }
      ],
      "name": "getVestIdByTokenId",
      "outputs": [
        {
          "internalType": "uint256",
          "name": "",
          "type": "uint256"
        }
      ],
      "stateMutability": "view",
      "type": "function"
    },
    {
      "inputs": [
        {
          "internalType": "address",
          "name": "",
          "type": "address"
        },
        {
          "internalType": "uint256",
          "name": "",
          "type": "uint256"
        }
      ],
      "name": "tokenIdToVestId",
      "outputs": [
        {
          "internalType": "uint256",
          "name": "",
          "type": "uint256"
        }
      ],
      "stateMutability": "view",
      "type": "function"
    },
    {
      "inputs": [
        {
          "internalType": "uint256",
          "name": "vestId",
          "type": "uint256"
        },
        {
          "internalType": "address",
          "name": "newOwner",
          "type": "address"
        }
      ],
      "name": "updateOwner",
      "outputs": [],
      "stateMutability": "nonpayable",
      "type": "function"
    },
    {
      "inputs": [
        {
          "internalType": "uint256",
          "name": "vestId",
          "type": "uint256"
        }
      ],
      "name": "vestBalance",
      "outputs": [
        {
          "internalType": "uint256",
          "name": "",
          "type": "uint256"
        }
      ],
      "stateMutability": "view",
      "type": "function"
    },
    {
      "inputs": [],
      "name": "vestIds",
      "outputs": [
        {
          "internalType": "uint256",
          "name": "",
          "type": "uint256"
        }
      ],
      "stateMutability": "view",
      "type": "function"
    },
    {
      "inputs": [
        {
          "internalType": "uint256",
          "name": "",
          "type": "uint256"
        }
      ],
      "name": "vests",
      "outputs": [
        {
          "internalType": "bytes32",
          "name": "proposalId",
          "type": "bytes32"
        },
        {
          "internalType": "uint128",
          "name": "claimed",
          "type": "uint128"
        },
        {
          "internalType": "uint256",
          "name": "total",
          "type": "uint256"
        },
        {
          "components": [
            {
              "internalType": "uint32",
              "name": "steps",
              "type": "uint32"
            },
            {
              "internalType": "uint128",
              "name": "cliffShares",
              "type": "uint128"
            },
            {
              "internalType": "uint128",
              "name": "stepShares",
              "type": "uint128"
            }
          ],
          "internalType": "struct IFlexVesting.StepInfo",
          "name": "stepInfo",
          "type": "tuple"
        },
        {
          "components": [
            {
              "internalType": "uint32",
              "name": "start",
              "type": "uint32"
            },
            {
              "internalType": "uint32",
              "name": "end",
              "type": "uint32"
            },
            {
              "internalType": "uint32",
              "name": "cliffDuration",
              "type": "uint32"
            },
            {
              "internalType": "uint32",
              "name": "stepDuration",
              "type": "uint32"
            }
          ],
          "internalType": "struct IFlexVesting.TimeInfo",
          "name": "timeInfo",
          "type": "tuple"
        },
        {
          "components": [
            {
              "internalType": "address",
              "name": "nftToken",
              "type": "address"
            },
            {
              "internalType": "uint256",
              "name": "tokenId",
              "type": "uint256"
            }
          ],
          "internalType": "struct IFlexVesting.VestNFTInfo",
          "name": "nftInfo",
          "type": "tuple"
        },
        {
          "components": [
            {
              "internalType": "string",
              "name": "name",
              "type": "string"
            },
            {
              "internalType": "string",
              "name": "description",
              "type": "string"
            },
            {
              "internalType": "address",
              "name": "owner",
              "type": "address"
            },
            {
              "internalType": "address",
              "name": "recipient",
              "type": "address"
            },
            {
              "internalType": "address",
              "name": "token",
              "type": "address"
            }
          ],
          "internalType": "struct IFlexVesting.VestInfo",
          "name": "vestInfo",
          "type": "tuple"
        }
      ],
      "stateMutability": "view",
      "type": "function"
    },
    {
      "inputs": [
        {
          "internalType": "contract DaoRegistry",
          "name": "dao",
          "type": "address"
        },
        {
          "internalType": "uint256",
          "name": "vestId",
          "type": "uint256"
        }
      ],
      "name": "withdraw",
      "outputs": [],
      "stateMutability": "nonpayable",
      "type": "function"
    }
  ],
  "bytecode": "0x608060405234801561001057600080fd5b506001600255612cd0806100256000396000f3fe6080604052600436106100b15760003560e01c806351def556116100695780637a4334e21161004e5780637a4334e2146101e2578063e256888f1461021d578063f3fef3a31461023957600080fd5b806351def5561461018f5780637192711f146101c257600080fd5b80632c29e1961161009a5780632c29e196146100ff5780633427dd67146101425780633ae9bc031461017a57600080fd5b806319f77171146100b65780632bcea736146100e9575b600080fd5b3480156100c257600080fd5b506100d66100d1366004612856565b610259565b6040519081526020015b60405180910390f35b3480156100f557600080fd5b506100d660025481565b34801561010b57600080fd5b506100d661011a3660046127d1565b6001600160a01b03919091166000908152600160209081526040808320938352929052205490565b34801561014e57600080fd5b506100d661015d3660046127d1565b600160209081526000928352604080842090915290825290205481565b61018d610188366004612816565b6104d6565b005b34801561019b57600080fd5b506101af6101aa366004612856565b61129c565b6040516100e09796959493929190612999565b3480156101ce57600080fd5b5061018d6101dd366004612886565b6114d3565b3480156101ee57600080fd5b506102026101fd3660046127d1565b611584565b604080519384526020840192909252908201526060016100e0565b34801561022957600080fd5b506100d6670de0b6b3a764000081565b34801561024557600080fd5b5061018d6102543660046127d1565b611682565b600081815260208181526040808320815160e0810183528154815260018201546001600160801b0390811682860152600283015482850152835160608181018652600385015463ffffffff8082168452640100000000918290048516848a015260048701549094168388015281850192909252855160808181018852600587015480861683529384048516828a01526801000000000000000084048516828901526c01000000000000000000000000909304909316908301528201528251808401845260068301546001600160a01b0316815260078301549481019490945260a0808201949094528251938401909252600881018054859460c085019290918290829061036590612bc9565b80601f016020809104026020016040519081016040528092919081815260200182805461039190612bc9565b80156103de5780601f106103b3576101008083540402835291602001916103de565b820191906000526020600020905b8154815290600101906020018083116103c157829003601f168201915b505050505081526020016001820180546103f790612bc9565b80601f016020809104026020016040519081016040528092919081815260200182805461042390612bc9565b80156104705780601f1061044557610100808354040283529160200191610470565b820191906000526020600020905b81548152906001019060200180831161045357829003601f168201915b505050918352505060028201546001600160a01b03908116602080840191909152600384015482166040840152600490930154166060909101529152820151919250506001600160801b03166104c582611af0565b6104cf9190612b82565b9392505050565b6104de6120db565b6040516317ba7d8560e01b81527fb0326f8dfc913f537596953a938551c86ac8fe0da74c9a8cd0ee660e627dccc860048201526001600160a01b038516906317ba7d859060240160206040518083038186803b15801561053d57600080fd5b505afa158015610551573d6000803e3d6000fd5b505050506040513d601f19601f820116820180604052508101906105759190612656565b6001600160a01b03908116610200830181905260c083018190526040517f309f011800000000000000000000000000000000000000000000000000000000815286831660048201526024810185905291851660448301529063309f01189060640160206040518083038186803b1580156105ee57600080fd5b505afa158015610602573d6000803e3d6000fd5b505050506040513d601f19601f8201168201806040525081019061062691906127fc565b6106dd576040517f08c379a000000000000000000000000000000000000000000000000000000000815260206004820152604160248201527f56657374696e673a3a63726561746556657374696e673a3a526563697069656e60448201527f74206e6f7420656c696769626c65206f6620746869732070726f706f73616c4960648201527f6400000000000000000000000000000000000000000000000000000000000000608482015260a4015b60405180910390fd5b60c08101516040517f6cb4e9eb0000000000000000000000000000000000000000000000000000000081526001600160a01b03868116600483015260248201859052858116604483015290911690636cb4e9eb9060640160206040518083038186803b15801561074c57600080fd5b505afa158015610760573d6000803e3d6000fd5b505050506040513d601f19601f8201168201806040525081019061078491906127fc565b15610811576040517f08c379a000000000000000000000000000000000000000000000000000000000815260206004820152602760248201527f56657374696e673a3a63726561746556657374696e673a3a416c72656164792060448201527f637265617465640000000000000000000000000000000000000000000000000060648201526084016106d4565b6040516317ba7d8560e01b81527f7a8526bca00f0726b2fab8c3bfd5b00bfa84d07f111e48263b13de605eefcdda60048201526001600160a01b038516906317ba7d859060240160206040518083038186803b15801561087057600080fd5b505afa158015610884573d6000803e3d6000fd5b505050506040513d601f19601f820116820180604052508101906108a89190612656565b6001600160a01b0390811660e083015260c08201516040517f1190b0a60000000000000000000000000000000000000000000000000000000081528683166004820152602481018590528583166044820152911690631190b0a690606401604080518083038186803b15801561091d57600080fd5b505afa158015610931573d6000803e3d6000fd5b505050506040513d601f19601f8201168201806040525081019061095591906128b5565b5061014082015260e08101516040517fbf4999940000000000000000000000000000000000000000000000000000000081526001600160a01b038681166004830152602482018590529091169063bf4999949060440160006040518083038186803b1580156109c357600080fd5b505afa1580156109d7573d6000803e3d6000fd5b505050506040513d6000823e601f3d908101601f191682016040526109ff9190810190612672565b50505050610220850182905250610240840182905260c09091015160809091015111159050610a5a576040517fcc16de1a00000000000000000000000000000000000000000000000000000000815260040160405180910390fd5b610220810151511580610a74575061022081015160200151155b80610a86575061022081015160400151155b80610a98575061022081015160600151155b15610acf576040517fb443a90d00000000000000000000000000000000000000000000000000000000815260040160405180910390fd5b610af18482610240015160a00151836102000151308561014001516000611c20565b60208083019190915261022082015190810151604090910151610b149190612b82565b610100820181905261022082015160600151610b2f91612b23565b6101e08201526102208101516060015161010082015111610b535760016101e08201525b806102200151606001518161010001511115610bfa5780610100015181610220015160600151610b839190612c1f565b610ba85780610220015160600151816101000151610ba19190612b23565b6101e08201525b80610100015181610220015160600151826101e00151610bc89190612b37565b1015610bfa5780610220015160600151816101000151610be89190612b23565b610bf3906001612aec565b6101e08201525b670de0b6b3a764000081610220015160800151826101400151610c1d9190612b37565b610c279190612b23565b6001600160801b0316608082018190526101e082015160208301519091610c4d91612b82565b610c579190612b23565b6001600160801b0316606082015260028054906000610c7583612c04565b90915550604082015261022081015160a0015115610d655761022081015160c001516040517f40d097c30000000000000000000000000000000000000000000000000000000081526001600160a01b038581166004830152909116906340d097c390602401602060405180830381600087803b158015610cf457600080fd5b505af1158015610d08573d6000803e3d6000fd5b505050506040513d601f19601f82011682018060405250810190610d2c919061286e565b610260820181905261022082015160c001516001600160a01b031660009081526001602090815260408083208186015184529091529020555b6040518060e0016040528083815260200160006001600160801b0316815260200182610140015181526020016040518060600160405280846101e0015163ffffffff16815260200184608001516001600160801b0316815260200184606001516001600160801b0316815250815260200160405180608001604052808461022001516000015163ffffffff1681526020018461022001516040015163ffffffff1681526020018461022001516000015185610220015160200151610e299190612b82565b63ffffffff1681526020018461022001516060015163ffffffff168152508152602001604051806040016040528084610220015160a0015115156001151514610e73576000610e7e565b84610220015160c001515b6001600160a01b0390811682526102608601516020928301529183526040805160a080820183526102208801805160e00151835251610100015182850152338284015289851660608084019190915261024089015182015186166080808501919091529685019290925282880151600090815280855283902087518155878501516001820180547fffffffffffffffffffffffffffffffff000000000000000000000000000000009081166001600160801b0393841617909155898601516002840155898501518051600385018054838b015163ffffffff93841673ffffffffffffffffffffffffffffffffffffffff199283161764010000000091881682021790925592890151600487018054909516951694909417909255988a01518051600585018054838b01519984015193909801519184167fffffffffffffffffffffffffffffffffffffffffffffffff000000000000000090981697909717978316909302969096177fffffffffffffffffffffffffffffffff0000000000000000ffffffffffffffff1668010000000000000000968216969096027fffffffffffffffffffffffffffffffff00000000ffffffffffffffffffffffff16959095176c01000000000000000000000000919095160293909317909155850151805160068301805490961694169390931790935590810151600783015560c083015180518051919260088501926110969284920190612293565b5060208281015180516110af9260018501920190612293565b5060408281015160028301805473ffffffffffffffffffffffffffffffffffffffff199081166001600160a01b039384161790915560608501516003850180548316918416919091179055608090940151600493840180549095169082161790935560c086015190517f560dbdd700000000000000000000000000000000000000000000000000000000815289841692810192909252602482018790528783166044830152909116925063560dbdd79150606401602060405180830381600087803b15801561117d57600080fd5b505af1158015611191573d6000803e3d6000fd5b505050506040513d601f19601f820116820180604052508101906111b591906127fc565b50604081015161024082015160a0015161022083015180516020909101516001600160a01b03871693927f4c51f0095be9553b8e5eadbc42f96ab0b0c6526566307069cfcbecc63ea41c5292909161120e908290612b82565b86610220015160600151876101e00151886080015189606001518b60405161128e9897969594939291906001600160a01b0398909816885263ffffffff968716602089015294861660408801529285166060870152931660808501526001600160801b0392831660a085015290911660c083015260e08201526101000190565b60405180910390a350505050565b60006020818152918152604090819020805460018201546002830154845160608082018752600386015463ffffffff80821684526001600160801b03640100000000928390048116858c015260048901548116858b01528951608081018b5260058a015480841682529384048316818d01526801000000000000000084048316818c01526c01000000000000000000000000909304909116928201929092528751808901895260068801546001600160a01b03168152600788015499810199909952875160a0810190985260088701805496999290951697939692959094919391908290829061138b90612bc9565b80601f01602080910402602001604051908101604052809291908181526020018280546113b790612bc9565b80156114045780601f106113d957610100808354040283529160200191611404565b820191906000526020600020905b8154815290600101906020018083116113e757829003601f168201915b5050505050815260200160018201805461141d90612bc9565b80601f016020809104026020016040519081016040528092919081815260200182805461144990612bc9565b80156114965780601f1061146b57610100808354040283529160200191611496565b820191906000526020600020905b81548152906001019060200180831161147957829003601f168201915b505050918352505060028201546001600160a01b039081166020830152600383015481166040830152600490920154909116606090910152905087565b6000828152602081905260409020600a8101546001600160a01b03163314611527576040517f30cd747100000000000000000000000000000000000000000000000000000000815260040160405180910390fd5b600a8101805473ffffffffffffffffffffffffffffffffffffffff19166001600160a01b03841690811790915560405184907fca0251ba80971adc7e92434b097ca40450b2a317013c51c5c5cb6ae74500bb0090600090a3505050565b60008080808080806115b989896001600160a01b03919091166000908152600160209081526040808320938352929052205490565b905080156116735760008181526020819052604090206001810154600290910154670de0b6b3a7640000916115f9916001600160801b0390911690612b82565b6116039190612b23565b60008281526020819052604090206002015490935061162b90670de0b6b3a764000090612b23565b600082815260208190526040902060028101546001909101549193509061165b906001600160801b031682612b82565b611666906064612b37565b6116709190612b23565b93505b50919450925090509250925092565b6000818152602081905260409020600b81015460068201546001600160a01b0391821691161561178e57600682015460078301546040517f6352211e000000000000000000000000000000000000000000000000000000008152600481019190915233916001600160a01b031690636352211e9060240160206040518083038186803b15801561171157600080fd5b505afa158015611725573d6000803e3d6000fd5b505050506040513d601f19601f820116820180604052508101906117499190612656565b6001600160a01b031614611789576040517fe1c6117100000000000000000000000000000000000000000000000000000000815260040160405180910390fd5b6117d0565b6001600160a01b03811633146117d0576040517fe1c6117100000000000000000000000000000000000000000000000000000000815260040160405180910390fd5b60018201546040805160e081018252845481526001600160801b039283166020808301829052600287015483850152835160608181018652600389015463ffffffff80821684526401000000009182900489168486015260048b0154909816838801528186019290925285516080818101885260058b0154808a1683529384048916828601526801000000000000000084048916828901526c01000000000000000000000000909304909716908701528301949094528251808401845260068701546001600160a01b0316815260078701549481019490945260a0808301949094528251938401909252600885018054600094611a299392889260c08501929190829082906118de90612bc9565b80601f016020809104026020016040519081016040528092919081815260200182805461190a90612bc9565b80156119575780601f1061192c57610100808354040283529160200191611957565b820191906000526020600020905b81548152906001019060200180831161193a57829003601f168201915b5050505050815260200160018201805461197090612bc9565b80601f016020809104026020016040519081016040528092919081815260200182805461199c90612bc9565b80156119e95780601f106119be576101008083540402835291602001916119e9565b820191906000526020600020905b8154815290600101906020018083116119cc57829003601f168201915b505050918352505060028201546001600160a01b039081166020830152600383015481166040830152600490920154909116606090910152905250611af0565b611a339190612b82565b905080611a41575050505050565b600183018054829190600090611a619084906001600160801b0316612ac1565b82546001600160801b039182166101009390930a928302919092021990911617905550600c830154611aa29086906001600160a01b03163085856000611ed6565b600c8301546040516000815282916001600160a01b03169086907fff942d249898505febb2a9a00118e27567c084b9497d0aa3ba5e332c235b4f389060200160405180910390a45050505050565b6080810151604081015190516000918291611b0b9190612b04565b63ffffffff16905080421015611b215750919050565b6000611b2d8242612b82565b90506000611b6285606001516000015163ffffffff1686608001516060015163ffffffff1684611b5d9190612b23565b6120c5565b60808601516020810151606091820151918801515192935063ffffffff1691611b8b9190612b56565b608087015160408101519051611ba19190612b04565b611bab9190612b04565b63ffffffff16118015611bcb575084608001516020015163ffffffff1642115b15611bde575060608401515163ffffffff165b808560600151604001516001600160801b0316611bfb9190612b37565b8560600151602001516001600160801b0316611c179190612aec565b95945050505050565b6040516317ba7d8560e01b81527fdfea78be99560632cc4c199ca1b0d68ffe0bbbb07b685976cefc8820374ac73a600482015260009081906001600160a01b038916906317ba7d859060240160206040518083038186803b158015611c8457600080fd5b505afa158015611c98573d6000803e3d6000fd5b505050506040513d601f19601f82011682018060405250810190611cbc9190612656565b90508215611df8576040517fda5139ca0000000000000000000000000000000000000000000000000000000081526001600160a01b038881166004830152602482018690526000604483015282169063da5139ca9060640160206040518083038186803b158015611d2c57600080fd5b505afa158015611d40573d6000803e3d6000fd5b505050506040513d601f19601f82011682018060405250810190611d64919061286e565b6040517ff18d03cc0000000000000000000000000000000000000000000000000000000081526001600160a01b03898116600483015288811660248301528781166044830152606482018390529193509082169063f18d03cc90608401600060405180830381600087803b158015611ddb57600080fd5b505af1158015611def573d6000803e3d6000fd5b50505050611ecb565b6001600160a01b03808216906302b9446c90891615611e18576000611e1a565b855b6040517fffffffff0000000000000000000000000000000000000000000000000000000060e084901b1681526001600160a01b03808c166004830152808b16602483015289166044820152606481018890526000608482015260a40160408051808303818588803b158015611e8e57600080fd5b505af1158015611ea2573d6000803e3d6000fd5b50505050506040513d601f19601f82011682018060405250810190611ec791906128e0565b9250505b509695505050505050565b6040516317ba7d8560e01b81527fdfea78be99560632cc4c199ca1b0d68ffe0bbbb07b685976cefc8820374ac73a60048201526000906001600160a01b038816906317ba7d859060240160206040518083038186803b158015611f3857600080fd5b505afa158015611f4c573d6000803e3d6000fd5b505050506040513d601f19601f82011682018060405250810190611f709190612656565b90508115612008576040517ff18d03cc0000000000000000000000000000000000000000000000000000000081526001600160a01b038781166004830152868116602483015285811660448301526064820185905282169063f18d03cc90608401600060405180830381600087803b158015611feb57600080fd5b505af1158015611fff573d6000803e3d6000fd5b505050506120bc565b6040517f97da6d300000000000000000000000000000000000000000000000000000000081526001600160a01b0387811660048301528681166024830152858116604483015260006064830152608482018590528216906397da6d309060a4016040805180830381600087803b15801561208157600080fd5b505af1158015612095573d6000803e3d6000fd5b505050506040513d601f19601f820116820180604052508101906120b991906128e0565b50505b50505050505050565b60008183106120d457816104cf565b5090919050565b60405180610280016040528060008152602001600081526020016000815260200160006001600160801b0316815260200160006001600160801b0316815260200160006001600160801b0316815260200160006001600160a01b0316815260200160006001600160a01b0316815260200160008152602001600081526020016000815260200160006001600160a01b031681526020016000815260200160008152602001600081526020016000815260200160006001600160a01b031681526020016121f7604051806101200160405280600081526020016000815260200160008152602001600081526020016000815260200160001515815260200160006001600160a01b0316815260200160608152602001606081525090565b815260200161228660405180610180016040528060006001600160a01b0316815260200160008152602001600081526020016000815260200160001515815260200160006001600160a01b031681526020016000815260200160008152602001600081526020016000815260200160006001600160a01b0316815260200160006001600160a01b031681525090565b8152602001600081525090565b82805461229f90612bc9565b90600052602060002090601f0160209004810192826122c15760008555612307565b82601f106122da57805160ff1916838001178555612307565b82800160010185558215612307579182015b828111156123075782518255916020019190600101906122ec565b50612313929150612317565b5090565b5b808211156123135760008155600101612318565b805161233781612c75565b919050565b8051801515811461233757600080fd5b80516002811061233757600080fd5b80516005811061233757600080fd5b600082601f83011261237a578081fd5b815167ffffffffffffffff8082111561239557612395612c5f565b604051601f8301601f19908116603f011681019082821181831017156123bd576123bd612c5f565b816040528381528660208588010111156123d5578485fd5b6123e6846020830160208901612b99565b9695505050505050565b60006102008284031215612402578081fd5b604051610100810181811067ffffffffffffffff8211171561242657612426612c5f565b6040529050806124358361234c565b81526020830151602082015260408301516040820152606083015160608201526080830151608082015261246b60a0840161233c565b60a082015261247d8460c0850161249c565b60c082015261249084610160850161250f565b60e08201525092915050565b600060a082840312156124ad578081fd5b6124b5612a50565b905081516124c281612c8d565b8152602082015163ffffffff811681146124db57600080fd5b602082015260408201516124ee81612c75565b80604083015250606082015160608201526080820151608082015292915050565b600060a08284031215612520578081fd5b612528612a50565b90506125338261233c565b815260208201516124db81612c8d565b600060408284031215612554578081fd5b6040516040810181811067ffffffffffffffff8211171561257757612577612c5f565b604052825181526020928301519281019290925250919050565b600061012082840312156125a3578081fd5b6125ab612a79565b905081518152602082015160208201526040820151604082015260608201516060820152608082015160808201526125e560a0830161233c565b60a08201526125f660c0830161232c565b60c082015260e082015167ffffffffffffffff8082111561261657600080fd5b6126228583860161236a565b60e08401526101009150818401518181111561263d57600080fd5b6126498682870161236a565b8385015250505092915050565b600060208284031215612667578081fd5b81516104cf81612c75565b600080600080600080600080888a0361046081121561268f578485fd5b895161269a81612c75565b9850610180601f1982018113156126af578586fd5b6126b7612a9d565b91506126c560208c0161232c565b825260408b0151602083015260608b0151604083015260808b015160608301526126f160a08c0161233c565b608083015261270260c08c0161232c565b60a083015260e08b015160c0830152610100808c015160e0840152610120808d0151828501526101409150818d01518185015250610160612744818e0161232c565b82850152612753838e0161232c565b9084015250506101a08a015190975067ffffffffffffffff811115612776578485fd5b6127828b828c01612591565b9650506127938a6101c08b016123f0565b94506127a38a6103c08b01612543565b9350610400890151925061042089015191506127c26104408a0161235b565b90509295985092959890939650565b600080604083850312156127e3578182fd5b82356127ee81612c75565b946020939093013593505050565b60006020828403121561280d578081fd5b6104cf8261233c565b60008060006060848603121561282a578081fd5b833561283581612c75565b9250602084013561284581612c75565b929592945050506040919091013590565b600060208284031215612867578081fd5b5035919050565b60006020828403121561287f578081fd5b5051919050565b60008060408385031215612898578182fd5b8235915060208301356128aa81612c75565b809150509250929050565b600080604083850312156128c7578182fd5b825191506128d76020840161233c565b90509250929050565b600080604083850312156128f2578182fd5b505080516020909101519092909150565b6000815180845261291b816020860160208601612b99565b601f01601f19169290920160200192915050565b6000815160a0845261294460a0850182612903565b90506020830151848203602086015261295d8282612903565b91505060408301516001600160a01b03808216604087015280606086015116606087015280608086015116608087015250508091505092915050565b60006101a08983526001600160801b03808a16602085015288604085015263ffffffff8089511660608601528160208a01511660808601528160408a01511660a08601528088511660c08601528060208901511660e086015280604089015116610100860152806060890151166101208601525050612a2f61014084018680516001600160a01b03168252602090810151910152565b80610180840152612a428184018561292f565b9a9950505050505050505050565b60405160a0810167ffffffffffffffff81118282101715612a7357612a73612c5f565b60405290565b604051610120810167ffffffffffffffff81118282101715612a7357612a73612c5f565b604051610180810167ffffffffffffffff81118282101715612a7357612a73612c5f565b60006001600160801b03808316818516808303821115612ae357612ae3612c33565b01949350505050565b60008219821115612aff57612aff612c33565b500190565b600063ffffffff808316818516808303821115612ae357612ae3612c33565b600082612b3257612b32612c49565b500490565b6000816000190483118215151615612b5157612b51612c33565b500290565b600063ffffffff80831681851681830481118215151615612b7957612b79612c33565b02949350505050565b600082821015612b9457612b94612c33565b500390565b60005b83811015612bb4578181015183820152602001612b9c565b83811115612bc3576000848401525b50505050565b600181811c90821680612bdd57607f821691505b60208210811415612bfe57634e487b7160e01b600052602260045260246000fd5b50919050565b6000600019821415612c1857612c18612c33565b5060010190565b600082612c2e57612c2e612c49565b500690565b634e487b7160e01b600052601160045260246000fd5b634e487b7160e01b600052601260045260246000fd5b634e487b7160e01b600052604160045260246000fd5b6001600160a01b0381168114612c8a57600080fd5b50565b60048110612c8a57600080fdfea2646970667358221220ce375e8f49a3ab7558ba529fbf97614211cff344dc40474d84297b94c094c3da64736f6c63430008040033",
  "linkReferences": {},
  "deployedLinkReferences": {}
}