{
  "_format": "hh-sol-artifact-1",
  "contractName": "FlexDaoSetInvestorCapAdapterContract",
  "sourceName": "contracts/flex/adatpers/FlexDaoSetInvestorCapAdapter.sol",
  "abi": [
    {
      "inputs": [],
      "name": "VOTING_NOT_FINISH",
      "type": "error"
    },
    {
      "anonymous": false,
      "inputs": [
        {
          "indexed": false,
          "internalType": "address",
          "name": "daoAddr",
          "type": "address"
        },
        {
          "indexed": false,
          "internalType": "bytes32",
          "name": "proposalId",
          "type": "bytes32"
        },
        {
          "indexed": false,
          "internalType": "enum FlexDaosetLibrary.ProposalType",
          "name": "pType",
          "type": "uint8"
        }
      ],
      "name": "ProposalCreated",
      "type": "event"
    },
    {
      "anonymous": false,
      "inputs": [
        {
          "indexed": false,
          "internalType": "address",
          "name": "daoAddr",
          "type": "address"
        },
        {
          "indexed": false,
          "internalType": "bytes32",
          "name": "proposalId",
          "type": "bytes32"
        },
        {
          "indexed": false,
          "internalType": "uint256",
          "name": "voteResult",
          "type": "uint256"
        },
        {
          "indexed": false,
          "internalType": "uint128",
          "name": "allVotingWeight",
          "type": "uint128"
        },
        {
          "indexed": false,
          "internalType": "uint256",
          "name": "nbYes",
          "type": "uint256"
        },
        {
          "indexed": false,
          "internalType": "uint256",
          "name": "nbNo",
          "type": "uint256"
        }
      ],
      "name": "ProposalProcessed",
      "type": "event"
    },
    {
      "inputs": [
        {
          "internalType": "address",
          "name": "",
          "type": "address"
        },
        {
          "internalType": "bytes32",
          "name": "",
          "type": "bytes32"
        }
      ],
      "name": "investorCapProposals",
      "outputs": [
        {
          "internalType": "bool",
          "name": "enable",
          "type": "bool"
        },
        {
          "internalType": "uint256",
          "name": "cap",
          "type": "uint256"
        },
        {
          "internalType": "uint256",
          "name": "creationTime",
          "type": "uint256"
        },
        {
          "internalType": "uint256",
          "name": "stopVoteTime",
          "type": "uint256"
        },
        {
          "internalType": "enum FlexDaosetLibrary.ProposalState",
          "name": "state",
          "type": "uint8"
        }
      ],
      "stateMutability": "view",
      "type": "function"
    },
    {
      "inputs": [
        {
          "internalType": "contract DaoRegistry",
          "name": "dao",
          "type": "address"
        },
        {
          "internalType": "address",
          "name": "_addr",
          "type": "address"
        }
      ],
      "name": "isActiveMember",
      "outputs": [
        {
          "internalType": "bool",
          "name": "",
          "type": "bool"
        }
      ],
      "stateMutability": "view",
      "type": "function"
    },
    {
      "inputs": [
        {
          "internalType": "address",
          "name": "",
          "type": "address"
        }
      ],
      "name": "ongoingInvestorCapProposal",
      "outputs": [
        {
          "internalType": "bytes32",
          "name": "",
          "type": "bytes32"
        }
      ],
      "stateMutability": "view",
      "type": "function"
    },
    {
      "inputs": [
        {
          "internalType": "contract DaoRegistry",
          "name": "dao",
          "type": "address"
        },
        {
          "internalType": "bytes32",
          "name": "proposalId",
          "type": "bytes32"
        }
      ],
      "name": "processInvestorCapProposal",
      "outputs": [],
      "stateMutability": "nonpayable",
      "type": "function"
    },
    {
      "inputs": [
        {
          "internalType": "contract DaoRegistry",
          "name": "dao",
          "type": "address"
        },
        {
          "internalType": "bool",
          "name": "enable",
          "type": "bool"
        },
        {
          "internalType": "uint256",
          "name": "cap",
          "type": "uint256"
        }
      ],
      "name": "submitInvestorCapProposal",
      "outputs": [],
      "stateMutability": "nonpayable",
      "type": "function"
    }
  ],
  "bytecode": "0x608060405234801561001057600080fd5b50612710806100206000396000f3fe608060405234801561001057600080fd5b50600436106100675760003560e01c80638ecf7720116100505780638ecf7720146100e6578063ae98454514610109578063f8ffc75b1461011c57600080fd5b8063034f82fe1461006c57806307dc8eb8146100d1575b600080fd5b6100b761007a3660046121da565b600160208181526000938452604080852090915291835291208054918101546002820154600383015460049093015460ff94851694929391921685565b6040516100c89594939291906124c3565b60405180910390f35b6100e46100df36600461238d565b61014a565b005b6100f96100f4366004612315565b61029f565b60405190151581526020016100c8565b6100e461011736600461234d565b61033e565b61013c61012a36600461219b565b60006020819052908152604090205481565b6040519081526020016100c8565b816000610156826106e5565b6001600160a01b0385166000908152600160209081526040808320878452909152812091925061018686866109b0565b50909150600290508160058111156101ae57634e487b7160e01b600052602160045260246000fd5b14156101da576101be8683610c5f565b6004820180546002919060ff19166001835b0217905550610274565b60038160058111156101fc57634e487b7160e01b600052602160045260246000fd5b14806102275750600181600581111561022557634e487b7160e01b600052602160045260246000fd5b145b15610242576004820180546003919060ff19166001836101d0565b6040517f70fc772800000000000000000000000000000000000000000000000000000000815260040160405180910390fd5b50506001600160a01b0384166000908152602081905260408120556102998282610d91565b50505050565b6040517fa230c5240000000000000000000000000000000000000000000000000000000081526001600160a01b0382811660048301526000919084169063a230c5249060240160206040518083038186803b1580156102fd57600080fd5b505afa158015610311573d6000803e3d6000fd5b505050506040513d601f19601f8201168201806040525081019061033591906122cc565b90505b92915050565b826103498133610da0565b836000610355826106e5565b6001600160a01b038716600090815260208190526040902054909150156103c35760405162461bcd60e51b815260206004820152600760248201527f217375626d69740000000000000000000000000000000000000000000000000060448201526064015b60405180910390fd5b6103cc86610df6565b6104185760405162461bcd60e51b815260206004820152601060248201527f756e446f6e652050726f706f73616c730000000000000000000000000000000060448201526064016103ba565b856001600160a01b0316631785092b6040518163ffffffff1660e01b8152600401600060405180830381600087803b15801561045357600080fd5b505af1158015610467573d6000803e3d6000fd5b5050505060006105128760c01b6104ed896001600160a01b0316633f8a3d496040518163ffffffff1660e01b815260040160206040518083038186803b1580156104b057600080fd5b505afa1580156104c4573d6000803e3d6000fd5b505050506040513d601f19601f820116820180604052508101906104e89190612408565b611077565b6040516020016104fe929190612420565b6040516020818303038152906040526111cd565b90506040518060a001604052808715158152602001868152602001428152602001886001600160a01b0316639283ae3a7f9876c0f0505bfb2b1c38d3bbd25ba13159172cd0868972d76927723f5a9480fc6040518263ffffffff1660e01b815260040161058191815260200190565b60206040518083038186803b15801561059957600080fd5b505afa1580156105ad573d6000803e3d6000fd5b505050506040513d601f19601f820116820180604052508101906105d19190612408565b6105db9042612580565b8152602001600090526001600160a01b03881660009081526001602081815260408084208685528252928390208451815490151560ff19918216178255918501518184015592840151600284015560608401516003808501919091556080850151600485018054919490939190911691849081111561066a57634e487b7160e01b600052602160045260246000fd5b021790555050506001600160a01b038716600090815260208190526040902081905561069687826111e9565b7fa65d0c07e3b0d876ee52e871c234a4b150b9bf17a08f356f5aeda8d6782cc31a878260006040516106ca9392919061248e565b60405180910390a1506106dd8282610d91565b505050505050565b6040805160808101825260008082526020820181905291810182905260608101919091525a81600001818152505043826001600160a01b031663b21634826040518163ffffffff1660e01b815260040160206040518083038186803b15801561074d57600080fd5b505afa158015610761573d6000803e3d6000fd5b505050506040513d601f19601f820116820180604052508101906107859190612408565b14156107d35760405162461bcd60e51b815260206004820152601060248201527f7265656e7472616e63792067756172640000000000000000000000000000000060448201526064016103ba565b816001600160a01b03166310fdb0a26040518163ffffffff1660e01b8152600401600060405180830381600087803b15801561080e57600080fd5b505af1158015610822573d6000803e3d6000fd5b50506040517f72c6838f0000000000000000000000000000000000000000000000000000000081527f1f2fd42ad6a6cacd573c4b212beb7a4e2499ad45d742a65337097f130e71daff6004820152600092506001600160a01b03851691506372c6838f9060240160206040518083038186803b1580156108a157600080fd5b505afa1580156108b5573d6000803e3d6000fd5b505050506040513d601f19601f820116820180604052508101906108d991906121be565b90506001600160a01b0381166108f557600060208301526109aa565b6001600160a01b038181166060840181905283516040517f43a8a3f1000000000000000000000000000000000000000000000000000000008152928616600484015260248301526000918291906343a8a3f190604401604080518083038186803b15801561096257600080fd5b505afa158015610976573d6000803e3d6000fd5b505050506040513d601f19601f8201168201806040525081019061099a91906122e8565b9015156020860152604085015250505b50919050565b6000806000846001600160a01b03166330490e91856040518263ffffffff1660e01b81526004016109e391815260200190565b600060405180830381600087803b1580156109fd57600080fd5b505af1158015610a11573d6000803e3d6000fd5b50506040516317ba7d8560e01b81527f0d479c38716a0298633b1dbf1ce145a3fbd1d79ca4527de172afc3bad04a2ba76004820152600092506001600160a01b03881691506317ba7d859060240160206040518083038186803b158015610a7757600080fd5b505afa158015610a8b573d6000803e3d6000fd5b505050506040513d601f19601f82011682018060405250810190610aaf91906121be565b90506001600160a01b038116610b075760405162461bcd60e51b815260206004820152600f60248201527f21766f74696e67436f6e7472616374000000000000000000000000000000000060448201526064016103ba565b6040517f76225e730000000000000000000000000000000000000000000000000000000081526001600160a01b0387811660048301526024820187905260009182918291908516906376225e7390604401606060405180830381600087803b158015610b7257600080fd5b505af1158015610b86573d6000803e3d6000fd5b505050506040513d601f19601f82011682018060405250810190610baa919061239f565b9250925092506000610bbc8a8a6113cd565b90507f31079f5404bf31284c3985351ef8eff4247cd77140001bc77841d2ecc855cf688a8a866005811115610c0157634e487b7160e01b600052602160045260246000fd5b604080516001600160a01b0390941684526020840192909252908201526fffffffffffffffffffffffffffffffff831660608201526080810185905260a0810184905260c00160405180910390a15091955093509150509250925092565b6040516317ba7d8560e01b81527fff9379b98b93eb3bd1fac62fd2258a7955d70d2d5279c40064145b6c9646df3760048201526000906001600160a01b038416906317ba7d859060240160206040518083038186803b158015610cc157600080fd5b505afa158015610cd5573d6000803e3d6000fd5b505050506040513d601f19601f82011682018060405250810190610cf991906121be565b825460018401546040517f7249b22f0000000000000000000000000000000000000000000000000000000081526001600160a01b03878116600483015260ff909316151560248201526044810191909152919250821690637249b22f906064015b600060405180830381600087803b158015610d7457600080fd5b505af1158015610d88573d6000803e3d6000fd5b50505050505050565b610d9c82823361168d565b5050565b610daa828261029f565b610d9c5760405162461bcd60e51b815260206004820152600b60248201527f6f6e6c795374657761726400000000000000000000000000000000000000000060448201526064016103ba565b6040516317ba7d8560e01b81527f7a8526bca00f0726b2fab8c3bfd5b00bfa84d07f111e48263b13de605eefcdda600482015260009081906001600160a01b038416906317ba7d859060240160206040518083038186803b158015610e5a57600080fd5b505afa158015610e6e573d6000803e3d6000fd5b505050506040513d601f19601f82011682018060405250810190610e9291906121be565b6040516317ba7d8560e01b81527fcad7b0867188190920a10bf710c45443f6358175d56a759e7dc109e6d7b5d75360048201529091506000906001600160a01b038516906317ba7d859060240160206040518083038186803b158015610ef757600080fd5b505afa158015610f0b573d6000803e3d6000fd5b505050506040513d601f19601f82011682018060405250810190610f2f91906121be565b6040517f642fc0c00000000000000000000000000000000000000000000000000000000081526001600160a01b0386811660048301529192509083169063642fc0c09060240160206040518083038186803b158015610f8d57600080fd5b505afa158015610fa1573d6000803e3d6000fd5b505050506040513d601f19601f82011682018060405250810190610fc591906122cc565b801561105e57506040517f642fc0c00000000000000000000000000000000000000000000000000000000081526001600160a01b03858116600483015282169063642fc0c09060240160206040518083038186803b15801561102657600080fd5b505afa15801561103a573d6000803e3d6000fd5b505050506040513d601f19601f8201168201806040525081019061105e91906122cc565b1561106d575060019392505050565b5060009392505050565b6060816110b757505060408051808201909152600181527f3000000000000000000000000000000000000000000000000000000000000000602082015290565b8160005b81156110e157806110cb816125ef565b91506110da9050600a83612598565b91506110bb565b60008167ffffffffffffffff81111561110a57634e487b7160e01b600052604160045260246000fd5b6040519080825280601f01601f191660200182016040528015611134576020820181803683370190505b5090505b84156111c5576111496001836125ac565b9150611156600a86612648565b611161906030612580565b60f81b81838151811061118457634e487b7160e01b600052603260045260246000fd5b60200101907effffffffffffffffffffffffffffffffffffffffffffffffffffffffffffff1916908160001a9053506111be600a86612598565b9450611138565b949350505050565b60008151600014156111e157506000919050565b506020015190565b6040517fb73dc389000000000000000000000000000000000000000000000000000000008152600481018290526001600160a01b0383169063b73dc38990602401600060405180830381600087803b15801561124457600080fd5b505af1158015611258573d6000803e3d6000fd5b50506040516317ba7d8560e01b81527f0d479c38716a0298633b1dbf1ce145a3fbd1d79ca4527de172afc3bad04a2ba76004820152600092506001600160a01b03851691506317ba7d859060240160206040518083038186803b1580156112be57600080fd5b505afa1580156112d2573d6000803e3d6000fd5b505050506040513d601f19601f820116820180604052508101906112f691906121be565b604080516020810182526000815290517f2b0974d00000000000000000000000000000000000000000000000000000000081529192506001600160a01b03831691632b0974d09161134d9187918791600401612502565b600060405180830381600087803b15801561136757600080fd5b505af115801561137b573d6000803e3d6000fd5b50506040517f815a2bf4000000000000000000000000000000000000000000000000000000008152600481018590526001600160a01b0384811660248301528616925063815a2bf49150604401610d5a565b6000806113d98461177e565b6040516317ba7d8560e01b81527f0d479c38716a0298633b1dbf1ce145a3fbd1d79ca4527de172afc3bad04a2ba7600482015290915060009081906001600160a01b038716906317ba7d859060240160206040518083038186803b15801561144057600080fd5b505afa158015611454573d6000803e3d6000fd5b505050506040513d601f19601f8201168201806040525081019061147891906121be565b905060005b83518160ff16101561168257816001600160a01b03166324a2cceb8888878560ff16815181106114bd57634e487b7160e01b600052603260045260246000fd5b60200260200101516040518463ffffffff1660e01b8152600401611501939291906001600160a01b0393841681526020810192909252909116604082015260600190565b60206040518083038186803b15801561151957600080fd5b505afa15801561152d573d6000803e3d6000fd5b505050506040513d601f19601f8201168201806040525081019061155191906122cc565b1561162f57816001600160a01b03166391d2fd538888878560ff168151811061158a57634e487b7160e01b600052603260045260246000fd5b60200260200101516040518463ffffffff1660e01b81526004016115ce939291906001600160a01b0393841681526020810192909252909116604082015260600190565b60206040518083038186803b1580156115e657600080fd5b505afa1580156115fa573d6000803e3d6000fd5b505050506040513d601f19601f8201168201806040525081019061161e91906123d8565b611628908461254c565b9250611670565b61166387858360ff168151811061165657634e487b7160e01b600052603260045260246000fd5b60200260200101516117f5565b61166d908461254c565b92505b8061167a81612628565b91505061147d565b509095945050505050565b8160200151156117435781606001516001600160a01b0316635e5eb01384835a86516116b991906125ac565b60408088015190517fffffffff0000000000000000000000000000000000000000000000000000000060e087901b1681526001600160a01b03948516600482015293909216602484015260448301526064820152608401600060405180830381600087803b15801561172a57600080fd5b505af115801561173e573d6000803e3d6000fd5b505050505b826001600160a01b031663d4f7af436040518163ffffffff1660e01b8152600401600060405180830381600087803b158015610d7457600080fd5b6060816001600160a01b031663a6f636416040518163ffffffff1660e01b815260040160006040518083038186803b1580156117b957600080fd5b505afa1580156117cd573d6000803e3d6000fd5b505050506040513d6000823e601f3d908101601f191682016040526103389190810190612205565b604051634941d71d60e11b81527f75b7d343967750d1f6c15979b7559cea8be22ff1a06a51681b9cbef0d2fff4fe600482015260009081906001600160a01b03851690639283ae3a9060240160206040518083038186803b15801561185957600080fd5b505afa15801561186d573d6000803e3d6000fd5b505050506040513d601f19601f820116820180604052508101906118919190612408565b604051634941d71d60e11b81527f18ef0b57fe939edb640a200fdf533493bd8f26a274151543a109b64c857e20f360048201529091506000906001600160a01b03861690639283ae3a9060240160206040518083038186803b1580156118f657600080fd5b505afa15801561190a573d6000803e3d6000fd5b505050506040513d601f19601f8201168201806040525081019061192e9190612408565b6040516317ba7d8560e01b81527f37cbe06c1044f98864ea25736326bc1d488e24e5e23781ea2ad64c4069cb9e6e60048201529091506000906001600160a01b038716906317ba7d859060240160206040518083038186803b15801561199357600080fd5b505afa1580156119a7573d6000803e3d6000fd5b505050506040513d601f19601f820116820180604052508101906119cb91906121be565b604051634941d71d60e11b81527f77b1580d1632c74a32483c26a7156260a89ae4138b020ea7d09b0dcf24f1ea2460048201529091506000906001600160a01b03881690639283ae3a9060240160206040518083038186803b158015611a3057600080fd5b505afa158015611a44573d6000803e3d6000fd5b505050506040513d601f19601f82011682018060405250810190611a689190612408565b6040517ffd310d290000000000000000000000000000000000000000000000000000000081527fb5a1ad3f04728d7c38547e3d43006a1ec090a02fce04bbb1d0ee4519a1921e5760048201529091506000906001600160a01b0389169063fd310d299060240160206040518083038186803b158015611ae657600080fd5b505afa158015611afa573d6000803e3d6000fd5b505050506040513d601f19601f82011682018060405250810190611b1e91906121be565b90508360011415611d3b57600085611bc5576040516370a0823160e01b81526001600160a01b038981166004830152670de0b6b3a764000091908416906370a082319060240160206040518083038186803b158015611b7c57600080fd5b505afa158015611b90573d6000803e3d6000fd5b505050506040513d601f19601f82011682018060405250810190611bb49190612408565b611bbe9190612598565b9050611cd2565b8560011415611c48576040516370a0823160e01b81526001600160a01b0389811660048301528316906370a08231906024015b60206040518083038186803b158015611c1057600080fd5b505afa158015611c24573d6000803e3d6000fd5b505050506040513d601f19601f82011682018060405250810190611bbe9190612408565b8560021415611c8457604051627eeac760e11b81526001600160a01b0389811660048301526024820185905283169062fdd58e90604401611bf8565b8560031415611cc3576040516329b6517360e21b81526001600160a01b038a81166004830152898116602483015285169063a6d945cc90604401611bf8565b60009650505050505050610338565b60008111611ce95760009650505050505050610338565b677fffffffffffffff8110611d075760329650505050505050610338565b6000611d22611d1d611d188461205a565b612078565b61216f565b67ffffffffffffffff1697506103389650505050505050565b8360021415611ead57600085611de2576040516370a0823160e01b81526001600160a01b038981166004830152600091908416906370a08231906024015b60206040518083038186803b158015611d9157600080fd5b505afa158015611da5573d6000803e3d6000fd5b505050506040513d601f19601f82011682018060405250810190611dc99190612408565b11611dd5576000611dd8565b60015b60ff169050611ea0565b8560011415611e1d576040516370a0823160e01b81526001600160a01b038981166004830152600091908416906370a0823190602401611d79565b8560021415611e5d57604051627eeac760e11b81526001600160a01b038981166004830152602482018590526000919084169062fdd58e90604401611d79565b8560031415611cc3576040516329b6517360e21b81526001600160a01b038a8116600483015289811660248301526000919086169063a6d945cc90604401611d79565b9550610338945050505050565b8361204c57600085611f4e576040516370a0823160e01b81526001600160a01b038981166004830152670de0b6b3a764000091908416906370a082319060240160206040518083038186803b158015611f0557600080fd5b505afa158015611f19573d6000803e3d6000fd5b505050506040513d601f19601f82011682018060405250810190611f3d9190612408565b611f479190612598565b9050611ea0565b8560011415611fd1576040516370a0823160e01b81526001600160a01b0389811660048301528316906370a08231906024015b60206040518083038186803b158015611f9957600080fd5b505afa158015611fad573d6000803e3d6000fd5b505050506040513d601f19601f82011682018060405250810190611f479190612408565b856002141561200d57604051627eeac760e11b81526001600160a01b0389811660048301526024820185905283169062fdd58e90604401611f81565b8560031415611cc3576040516329b6517360e21b81526001600160a01b038a81166004830152898116602483015285169063a6d945cc90604401611f81565b600095505050505050610338565b6000677fffffffffffffff82111561207157600080fd5b5060401b90565b60008082600f0b1361208957600080fd5b6000600f83900b6801000000000000000081126120a8576040918201911d5b64010000000081126120bc576020918201911d5b6201000081126120ce576010918201911d5b61010081126120df576008918201911d5b601081126120ef576004918201911d5b600481126120ff576002918201911d5b6002811261210e576001820191505b7fffffffffffffffffffffffffffffffffffffffffffffffffffffffffffffffc0820160401b600f85900b607f8490031b6780000000000000005b60008113156116825790800260ff81901c8281029390930192607f011c9060011d612149565b60008082600f0b121561218157600080fd5b50600f0b60401d90565b8051612196816126b4565b919050565b6000602082840312156121ac578081fd5b81356121b7816126b4565b9392505050565b6000602082840312156121cf578081fd5b81516121b7816126b4565b600080604083850312156121ec578081fd5b82356121f7816126b4565b946020939093013593505050565b60006020808385031215612217578182fd5b825167ffffffffffffffff8082111561222e578384fd5b818501915085601f830112612241578384fd5b8151818111156122535761225361269e565b8060051b604051601f19603f830116810181811085821117156122785761227861269e565b604052828152858101935084860182860187018a1015612296578788fd5b8795505b838610156122bf576122ab8161218b565b85526001959095019493860193860161229a565b5098975050505050505050565b6000602082840312156122dd578081fd5b81516121b7816126cc565b600080604083850312156122fa578182fd5b8251612305816126cc565b6020939093015192949293505050565b60008060408385031215612327578182fd5b8235612332816126b4565b91506020830135612342816126b4565b809150509250929050565b600080600060608486031215612361578081fd5b833561236c816126b4565b9250602084013561237c816126cc565b929592945050506040919091013590565b600080604083850312156121ec578182fd5b6000806000606084860312156123b3578283fd5b8351600681106123c1578384fd5b602085015160409095015190969495509392505050565b6000602082840312156123e9578081fd5b81516fffffffffffffffffffffffffffffffff811681146121b7578182fd5b600060208284031215612419578081fd5b5051919050565b7fffffffffffffffff000000000000000000000000000000000000000000000000831681527f496e7673746f72204361702023000000000000000000000000000000000000006008820152600082516124808160158501602087016125c3565b919091016015019392505050565b6001600160a01b03841681526020810183905260608101600783106124b5576124b5612688565b826040830152949350505050565b600060a0820190508615158252856020830152846040830152836060830152600483106124f2576124f2612688565b8260808301529695505050505050565b6001600160a01b038416815282602082015260606040820152600082518060608401526125368160808501602087016125c3565b601f01601f191691909101608001949350505050565b60006fffffffffffffffffffffffffffffffff8083168185168083038211156125775761257761265c565b01949350505050565b600082198211156125935761259361265c565b500190565b6000826125a7576125a7612672565b500490565b6000828210156125be576125be61265c565b500390565b60005b838110156125de5781810151838201526020016125c6565b838111156102995750506000910152565b60007fffffffffffffffffffffffffffffffffffffffffffffffffffffffffffffffff8214156126215761262161265c565b5060010190565b600060ff821660ff81141561263f5761263f61265c565b60010192915050565b60008261265757612657612672565b500690565b634e487b7160e01b600052601160045260246000fd5b634e487b7160e01b600052601260045260246000fd5b634e487b7160e01b600052602160045260246000fd5b634e487b7160e01b600052604160045260246000fd5b6001600160a01b03811681146126c957600080fd5b50565b80151581146126c957600080fdfea2646970667358221220e09e5089f01d758443bee333f94efd49528adf7d0f9df31ea88fc49457f520a864736f6c63430008040033",
  "linkReferences": {},
  "deployedLinkReferences": {}
}