{
  "_format": "hh-sol-artifact-1",
  "contractName": "FlexDaoSetFeesAdapterContract",
  "sourceName": "contracts/flex/adatpers/FlexDaoSetFeesAdapter.sol",
  "abi": [
    {
      "inputs": [],
      "name": "VOTING_NOT_FINISH",
      "type": "error"
    },
    {
      "anonymous": false,
      "inputs": [
        {
          "indexed": false,
          "internalType": "address",
          "name": "daoAddr",
          "type": "address"
        },
        {
          "indexed": false,
          "internalType": "bytes32",
          "name": "proposalId",
          "type": "bytes32"
        },
        {
          "indexed": false,
          "internalType": "enum FlexDaosetLibrary.ProposalType",
          "name": "pType",
          "type": "uint8"
        }
      ],
      "name": "ProposalCreated",
      "type": "event"
    },
    {
      "anonymous": false,
      "inputs": [
        {
          "indexed": false,
          "internalType": "address",
          "name": "daoAddr",
          "type": "address"
        },
        {
          "indexed": false,
          "internalType": "bytes32",
          "name": "proposalId",
          "type": "bytes32"
        },
        {
          "indexed": false,
          "internalType": "uint256",
          "name": "voteResult",
          "type": "uint256"
        },
        {
          "indexed": false,
          "internalType": "uint128",
          "name": "allVotingWeight",
          "type": "uint128"
        },
        {
          "indexed": false,
          "internalType": "uint256",
          "name": "nbYes",
          "type": "uint256"
        },
        {
          "indexed": false,
          "internalType": "uint256",
          "name": "nbNo",
          "type": "uint256"
        }
      ],
      "name": "ProposalProcessed",
      "type": "event"
    },
    {
      "inputs": [
        {
          "internalType": "address",
          "name": "",
          "type": "address"
        },
        {
          "internalType": "bytes32",
          "name": "",
          "type": "bytes32"
        }
      ],
      "name": "feesProposals",
      "outputs": [
        {
          "internalType": "uint256",
          "name": "flexDaoManagementfee",
          "type": "uint256"
        },
        {
          "internalType": "uint256",
          "name": "returnTokenManagementFee",
          "type": "uint256"
        },
        {
          "internalType": "address",
          "name": "managementFeeAddress",
          "type": "address"
        },
        {
          "internalType": "uint256",
          "name": "creationTime",
          "type": "uint256"
        },
        {
          "internalType": "uint256",
          "name": "stopVoteTime",
          "type": "uint256"
        },
        {
          "internalType": "enum FlexDaosetLibrary.ProposalState",
          "name": "state",
          "type": "uint8"
        }
      ],
      "stateMutability": "view",
      "type": "function"
    },
    {
      "inputs": [
        {
          "internalType": "contract DaoRegistry",
          "name": "dao",
          "type": "address"
        },
        {
          "internalType": "address",
          "name": "_addr",
          "type": "address"
        }
      ],
      "name": "isActiveMember",
      "outputs": [
        {
          "internalType": "bool",
          "name": "",
          "type": "bool"
        }
      ],
      "stateMutability": "view",
      "type": "function"
    },
    {
      "inputs": [
        {
          "internalType": "address",
          "name": "",
          "type": "address"
        }
      ],
      "name": "ongoingFeesProposal",
      "outputs": [
        {
          "internalType": "bytes32",
          "name": "",
          "type": "bytes32"
        }
      ],
      "stateMutability": "view",
      "type": "function"
    },
    {
      "inputs": [
        {
          "internalType": "contract DaoRegistry",
          "name": "dao",
          "type": "address"
        },
        {
          "internalType": "bytes32",
          "name": "proposalId",
          "type": "bytes32"
        }
      ],
      "name": "processFeesProposal",
      "outputs": [],
      "stateMutability": "nonpayable",
      "type": "function"
    },
    {
      "inputs": [
        {
          "internalType": "contract DaoRegistry",
          "name": "dao",
          "type": "address"
        },
        {
          "internalType": "uint256",
          "name": "flexDaoManagementfee",
          "type": "uint256"
        },
        {
          "internalType": "uint256",
          "name": "returnTokenManagementFee",
          "type": "uint256"
        },
        {
          "internalType": "address",
          "name": "managementFeeAddress",
          "type": "address"
        }
      ],
      "name": "submitFeesProposal",
      "outputs": [],
      "stateMutability": "nonpayable",
      "type": "function"
    }
  ],
  "bytecode": "0x608060405234801561001057600080fd5b50612766806100206000396000f3fe608060405234801561001057600080fd5b50600436106100675760003560e01c80635bd72f0c116100505780635bd72f0c1461010a5780638ecf77201461011f578063eb1147721461014257600080fd5b8063115111861461006c5780634ad743cc1461009f575b600080fd5b61008c61007a3660046121ec565b60006020819052908152604090205481565b6040519081526020015b60405180910390f35b6100f86100ad36600461222b565b6001602081815260009384526040808520909152918352912080549181015460028201546003830154600484015460059094015492936001600160a01b039092169290919060ff1686565b60405161009696959493929190612563565b61011d6101183660046123ac565b610155565b005b61013261012d366004612362565b610533565b6040519015158152602001610096565b61011d61015036600461239a565b6105d2565b836101608133610727565b84600061016c82610781565b6001600160a01b038816600090815260208190526040902054909150156101da5760405162461bcd60e51b815260206004820152600760248201527f217375626d69740000000000000000000000000000000000000000000000000060448201526064015b60405180910390fd5b6101e387610a4c565b61022f5760405162461bcd60e51b815260206004820152601060248201527f756e446f6e652050726f706f73616c730000000000000000000000000000000060448201526064016101d1565b866001600160a01b031663091a3e9c6040518163ffffffff1660e01b8152600401600060405180830381600087803b15801561026a57600080fd5b505af115801561027e573d6000803e3d6000fd5b5050505060006103298860c01b6103048a6001600160a01b031663f8385b2d6040518163ffffffff1660e01b815260040160206040518083038186803b1580156102c757600080fd5b505afa1580156102db573d6000803e3d6000fd5b505050506040513d601f19601f820116820180604052508101906102ff919061245e565b610ccd565b604051602001610315929190612476565b604051602081830303815290604052610e23565b90506040518060c00160405280888152602001878152602001866001600160a01b03168152602001428152602001896001600160a01b0316639283ae3a7f9876c0f0505bfb2b1c38d3bbd25ba13159172cd0868972d76927723f5a9480fc6040518263ffffffff1660e01b81526004016103a591815260200190565b60206040518083038186803b1580156103bd57600080fd5b505afa1580156103d1573d6000803e3d6000fd5b505050506040513d601f19601f820116820180604052508101906103f5919061245e565b6103ff90426125e4565b8152600060209182018190526001600160a01b038b8116825260018084526040808420878552855292839020855181559385015184820155918401516002840180547fffffffffffffffffffffffff0000000000000000000000000000000000000000169190921617905560608301516003808401919091556080840151600484015560a08401516005840180549193909260ff199092169184908111156104b757634e487b7160e01b600052602160045260246000fd5b021790555050506001600160a01b03881660009081526020819052604090208190556104e38882610e3f565b7fa65d0c07e3b0d876ee52e871c234a4b150b9bf17a08f356f5aeda8d6782cc31a88826004604051610517939291906124e4565b60405180910390a15061052a828261104d565b50505050505050565b6040517fa230c5240000000000000000000000000000000000000000000000000000000081526001600160a01b0382811660048301526000919084169063a230c5249060240160206040518083038186803b15801561059157600080fd5b505afa1580156105a5573d6000803e3d6000fd5b505050506040513d601f19601f820116820180604052508101906105c9919061231d565b90505b92915050565b8160006105de82610781565b6001600160a01b0385166000908152600160209081526040808320878452909152812091925061060e8686611058565b509091506002905081600581111561063657634e487b7160e01b600052602160045260246000fd5b1415610662576106468683611307565b6005820180546002919060ff19166001835b02179055506106fc565b600381600581111561068457634e487b7160e01b600052602160045260246000fd5b14806106af575060018160058111156106ad57634e487b7160e01b600052602160045260246000fd5b145b156106ca576005820180546003919060ff1916600183610658565b6040517f70fc772800000000000000000000000000000000000000000000000000000000815260040160405180910390fd5b50506001600160a01b038416600090815260208190526040812055610721828261104d565b50505050565b6107318282610533565b61077d5760405162461bcd60e51b815260206004820152600b60248201527f6f6e6c795374657761726400000000000000000000000000000000000000000060448201526064016101d1565b5050565b6040805160808101825260008082526020820181905291810182905260608101919091525a81600001818152505043826001600160a01b031663b21634826040518163ffffffff1660e01b815260040160206040518083038186803b1580156107e957600080fd5b505afa1580156107fd573d6000803e3d6000fd5b505050506040513d601f19601f82011682018060405250810190610821919061245e565b141561086f5760405162461bcd60e51b815260206004820152601060248201527f7265656e7472616e63792067756172640000000000000000000000000000000060448201526064016101d1565b816001600160a01b03166310fdb0a26040518163ffffffff1660e01b8152600401600060405180830381600087803b1580156108aa57600080fd5b505af11580156108be573d6000803e3d6000fd5b50506040517f72c6838f0000000000000000000000000000000000000000000000000000000081527f1f2fd42ad6a6cacd573c4b212beb7a4e2499ad45d742a65337097f130e71daff6004820152600092506001600160a01b03851691506372c6838f9060240160206040518083038186803b15801561093d57600080fd5b505afa158015610951573d6000803e3d6000fd5b505050506040513d601f19601f82011682018060405250810190610975919061220f565b90506001600160a01b0381166109915760006020830152610a46565b6001600160a01b038181166060840181905283516040517f43a8a3f1000000000000000000000000000000000000000000000000000000008152928616600484015260248301526000918291906343a8a3f190604401604080518083038186803b1580156109fe57600080fd5b505afa158015610a12573d6000803e3d6000fd5b505050506040513d601f19601f82011682018060405250810190610a369190612337565b9015156020860152604085015250505b50919050565b6040516317ba7d8560e01b81527f7a8526bca00f0726b2fab8c3bfd5b00bfa84d07f111e48263b13de605eefcdda600482015260009081906001600160a01b038416906317ba7d859060240160206040518083038186803b158015610ab057600080fd5b505afa158015610ac4573d6000803e3d6000fd5b505050506040513d601f19601f82011682018060405250810190610ae8919061220f565b6040516317ba7d8560e01b81527fcad7b0867188190920a10bf710c45443f6358175d56a759e7dc109e6d7b5d75360048201529091506000906001600160a01b038516906317ba7d859060240160206040518083038186803b158015610b4d57600080fd5b505afa158015610b61573d6000803e3d6000fd5b505050506040513d601f19601f82011682018060405250810190610b85919061220f565b6040517f642fc0c00000000000000000000000000000000000000000000000000000000081526001600160a01b0386811660048301529192509083169063642fc0c09060240160206040518083038186803b158015610be357600080fd5b505afa158015610bf7573d6000803e3d6000fd5b505050506040513d601f19601f82011682018060405250810190610c1b919061231d565b8015610cb457506040517f642fc0c00000000000000000000000000000000000000000000000000000000081526001600160a01b03858116600483015282169063642fc0c09060240160206040518083038186803b158015610c7c57600080fd5b505afa158015610c90573d6000803e3d6000fd5b505050506040513d601f19601f82011682018060405250810190610cb4919061231d565b15610cc3575060019392505050565b5060009392505050565b606081610d0d57505060408051808201909152600181527f3000000000000000000000000000000000000000000000000000000000000000602082015290565b8160005b8115610d375780610d2181612653565b9150610d309050600a836125fc565b9150610d11565b60008167ffffffffffffffff811115610d6057634e487b7160e01b600052604160045260246000fd5b6040519080825280601f01601f191660200182016040528015610d8a576020820181803683370190505b5090505b8415610e1b57610d9f600183612610565b9150610dac600a866126ac565b610db79060306125e4565b60f81b818381518110610dda57634e487b7160e01b600052603260045260246000fd5b60200101907effffffffffffffffffffffffffffffffffffffffffffffffffffffffffffff1916908160001a905350610e14600a866125fc565b9450610d8e565b949350505050565b6000815160001415610e3757506000919050565b506020015190565b6040517fb73dc389000000000000000000000000000000000000000000000000000000008152600481018290526001600160a01b0383169063b73dc38990602401600060405180830381600087803b158015610e9a57600080fd5b505af1158015610eae573d6000803e3d6000fd5b50506040516317ba7d8560e01b81527f0d479c38716a0298633b1dbf1ce145a3fbd1d79ca4527de172afc3bad04a2ba76004820152600092506001600160a01b03851691506317ba7d859060240160206040518083038186803b158015610f1457600080fd5b505afa158015610f28573d6000803e3d6000fd5b505050506040513d601f19601f82011682018060405250810190610f4c919061220f565b604080516020810182526000815290517f2b0974d00000000000000000000000000000000000000000000000000000000081529192506001600160a01b03831691632b0974d091610fa39187918791600401612519565b600060405180830381600087803b158015610fbd57600080fd5b505af1158015610fd1573d6000803e3d6000fd5b50506040517f815a2bf4000000000000000000000000000000000000000000000000000000008152600481018590526001600160a01b0384811660248301528616925063815a2bf491506044015b600060405180830381600087803b15801561103957600080fd5b505af115801561052a573d6000803e3d6000fd5b61077d82823361140e565b6000806000846001600160a01b03166330490e91856040518263ffffffff1660e01b815260040161108b91815260200190565b600060405180830381600087803b1580156110a557600080fd5b505af11580156110b9573d6000803e3d6000fd5b50506040516317ba7d8560e01b81527f0d479c38716a0298633b1dbf1ce145a3fbd1d79ca4527de172afc3bad04a2ba76004820152600092506001600160a01b03881691506317ba7d859060240160206040518083038186803b15801561111f57600080fd5b505afa158015611133573d6000803e3d6000fd5b505050506040513d601f19601f82011682018060405250810190611157919061220f565b90506001600160a01b0381166111af5760405162461bcd60e51b815260206004820152600f60248201527f21766f74696e67436f6e7472616374000000000000000000000000000000000060448201526064016101d1565b6040517f76225e730000000000000000000000000000000000000000000000000000000081526001600160a01b0387811660048301526024820187905260009182918291908516906376225e7390604401606060405180830381600087803b15801561121a57600080fd5b505af115801561122e573d6000803e3d6000fd5b505050506040513d601f19601f8201168201806040525081019061125291906123f5565b92509250925060006112648a8a6114ff565b90507f31079f5404bf31284c3985351ef8eff4247cd77140001bc77841d2ecc855cf688a8a8660058111156112a957634e487b7160e01b600052602160045260246000fd5b604080516001600160a01b0390941684526020840192909252908201526fffffffffffffffffffffffffffffffff831660608201526080810185905260a0810184905260c00160405180910390a15091955093509150509250925092565b6040516317ba7d8560e01b81527fff9379b98b93eb3bd1fac62fd2258a7955d70d2d5279c40064145b6c9646df3760048201526000906001600160a01b038416906317ba7d859060240160206040518083038186803b15801561136957600080fd5b505afa15801561137d573d6000803e3d6000fd5b505050506040513d601f19601f820116820180604052508101906113a1919061220f565b8254600184015460028501546040517f8f88c3ce0000000000000000000000000000000000000000000000000000000081526001600160a01b0388811660048301526024820194909452604481019290925282166064820152919250821690638f88c3ce9060840161101f565b8160200151156114c45781606001516001600160a01b0316635e5eb01384835a865161143a9190612610565b60408088015190517fffffffff0000000000000000000000000000000000000000000000000000000060e087901b1681526001600160a01b03948516600482015293909216602484015260448301526064820152608401600060405180830381600087803b1580156114ab57600080fd5b505af11580156114bf573d6000803e3d6000fd5b505050505b826001600160a01b031663d4f7af436040518163ffffffff1660e01b8152600401600060405180830381600087803b15801561103957600080fd5b60008061150b846117bf565b6040516317ba7d8560e01b81527f0d479c38716a0298633b1dbf1ce145a3fbd1d79ca4527de172afc3bad04a2ba7600482015290915060009081906001600160a01b038716906317ba7d859060240160206040518083038186803b15801561157257600080fd5b505afa158015611586573d6000803e3d6000fd5b505050506040513d601f19601f820116820180604052508101906115aa919061220f565b905060005b83518160ff1610156117b457816001600160a01b03166324a2cceb8888878560ff16815181106115ef57634e487b7160e01b600052603260045260246000fd5b60200260200101516040518463ffffffff1660e01b8152600401611633939291906001600160a01b0393841681526020810192909252909116604082015260600190565b60206040518083038186803b15801561164b57600080fd5b505afa15801561165f573d6000803e3d6000fd5b505050506040513d601f19601f82011682018060405250810190611683919061231d565b1561176157816001600160a01b03166391d2fd538888878560ff16815181106116bc57634e487b7160e01b600052603260045260246000fd5b60200260200101516040518463ffffffff1660e01b8152600401611700939291906001600160a01b0393841681526020810192909252909116604082015260600190565b60206040518083038186803b15801561171857600080fd5b505afa15801561172c573d6000803e3d6000fd5b505050506040513d601f19601f82011682018060405250810190611750919061242e565b61175a90846125b0565b92506117a2565b61179587858360ff168151811061178857634e487b7160e01b600052603260045260246000fd5b6020026020010151611836565b61179f90846125b0565b92505b806117ac8161268c565b9150506115af565b509095945050505050565b6060816001600160a01b031663a6f636416040518163ffffffff1660e01b815260040160006040518083038186803b1580156117fa57600080fd5b505afa15801561180e573d6000803e3d6000fd5b505050506040513d6000823e601f3d908101601f191682016040526105cc9190810190612256565b604051634941d71d60e11b81527f75b7d343967750d1f6c15979b7559cea8be22ff1a06a51681b9cbef0d2fff4fe600482015260009081906001600160a01b03851690639283ae3a9060240160206040518083038186803b15801561189a57600080fd5b505afa1580156118ae573d6000803e3d6000fd5b505050506040513d601f19601f820116820180604052508101906118d2919061245e565b604051634941d71d60e11b81527f18ef0b57fe939edb640a200fdf533493bd8f26a274151543a109b64c857e20f360048201529091506000906001600160a01b03861690639283ae3a9060240160206040518083038186803b15801561193757600080fd5b505afa15801561194b573d6000803e3d6000fd5b505050506040513d601f19601f8201168201806040525081019061196f919061245e565b6040516317ba7d8560e01b81527f37cbe06c1044f98864ea25736326bc1d488e24e5e23781ea2ad64c4069cb9e6e60048201529091506000906001600160a01b038716906317ba7d859060240160206040518083038186803b1580156119d457600080fd5b505afa1580156119e8573d6000803e3d6000fd5b505050506040513d601f19601f82011682018060405250810190611a0c919061220f565b604051634941d71d60e11b81527f77b1580d1632c74a32483c26a7156260a89ae4138b020ea7d09b0dcf24f1ea2460048201529091506000906001600160a01b03881690639283ae3a9060240160206040518083038186803b158015611a7157600080fd5b505afa158015611a85573d6000803e3d6000fd5b505050506040513d601f19601f82011682018060405250810190611aa9919061245e565b6040517ffd310d290000000000000000000000000000000000000000000000000000000081527fb5a1ad3f04728d7c38547e3d43006a1ec090a02fce04bbb1d0ee4519a1921e5760048201529091506000906001600160a01b0389169063fd310d299060240160206040518083038186803b158015611b2757600080fd5b505afa158015611b3b573d6000803e3d6000fd5b505050506040513d601f19601f82011682018060405250810190611b5f919061220f565b90508360011415611d7c57600085611c06576040516370a0823160e01b81526001600160a01b038981166004830152670de0b6b3a764000091908416906370a082319060240160206040518083038186803b158015611bbd57600080fd5b505afa158015611bd1573d6000803e3d6000fd5b505050506040513d601f19601f82011682018060405250810190611bf5919061245e565b611bff91906125fc565b9050611d13565b8560011415611c89576040516370a0823160e01b81526001600160a01b0389811660048301528316906370a08231906024015b60206040518083038186803b158015611c5157600080fd5b505afa158015611c65573d6000803e3d6000fd5b505050506040513d601f19601f82011682018060405250810190611bff919061245e565b8560021415611cc557604051627eeac760e11b81526001600160a01b0389811660048301526024820185905283169062fdd58e90604401611c39565b8560031415611d04576040516329b6517360e21b81526001600160a01b038a81166004830152898116602483015285169063a6d945cc90604401611c39565b600096505050505050506105cc565b60008111611d2a57600096505050505050506105cc565b677fffffffffffffff8110611d4857603296505050505050506105cc565b6000611d63611d5e611d598461209b565b6120b9565b6121b0565b67ffffffffffffffff1697506105cc9650505050505050565b8360021415611eee57600085611e23576040516370a0823160e01b81526001600160a01b038981166004830152600091908416906370a08231906024015b60206040518083038186803b158015611dd257600080fd5b505afa158015611de6573d6000803e3d6000fd5b505050506040513d601f19601f82011682018060405250810190611e0a919061245e565b11611e16576000611e19565b60015b60ff169050611ee1565b8560011415611e5e576040516370a0823160e01b81526001600160a01b038981166004830152600091908416906370a0823190602401611dba565b8560021415611e9e57604051627eeac760e11b81526001600160a01b038981166004830152602482018590526000919084169062fdd58e90604401611dba565b8560031415611d04576040516329b6517360e21b81526001600160a01b038a8116600483015289811660248301526000919086169063a6d945cc90604401611dba565b95506105cc945050505050565b8361208d57600085611f8f576040516370a0823160e01b81526001600160a01b038981166004830152670de0b6b3a764000091908416906370a082319060240160206040518083038186803b158015611f4657600080fd5b505afa158015611f5a573d6000803e3d6000fd5b505050506040513d601f19601f82011682018060405250810190611f7e919061245e565b611f8891906125fc565b9050611ee1565b8560011415612012576040516370a0823160e01b81526001600160a01b0389811660048301528316906370a08231906024015b60206040518083038186803b158015611fda57600080fd5b505afa158015611fee573d6000803e3d6000fd5b505050506040513d601f19601f82011682018060405250810190611f88919061245e565b856002141561204e57604051627eeac760e11b81526001600160a01b0389811660048301526024820185905283169062fdd58e90604401611fc2565b8560031415611d04576040516329b6517360e21b81526001600160a01b038a81166004830152898116602483015285169063a6d945cc90604401611fc2565b6000955050505050506105cc565b6000677fffffffffffffff8211156120b257600080fd5b5060401b90565b60008082600f0b136120ca57600080fd5b6000600f83900b6801000000000000000081126120e9576040918201911d5b64010000000081126120fd576020918201911d5b62010000811261210f576010918201911d5b6101008112612120576008918201911d5b60108112612130576004918201911d5b60048112612140576002918201911d5b6002811261214f576001820191505b7fffffffffffffffffffffffffffffffffffffffffffffffffffffffffffffffc0820160401b600f85900b607f8490031b6780000000000000005b60008113156117b45790800260ff81901c8281029390930192607f011c9060011d61218a565b60008082600f0b12156121c257600080fd5b50600f0b60401d90565b80516121d781612718565b919050565b805180151581146121d757600080fd5b6000602082840312156121fd578081fd5b813561220881612718565b9392505050565b600060208284031215612220578081fd5b815161220881612718565b6000806040838503121561223d578081fd5b823561224881612718565b946020939093013593505050565b60006020808385031215612268578182fd5b825167ffffffffffffffff8082111561227f578384fd5b818501915085601f830112612292578384fd5b8151818111156122a4576122a4612702565b8060051b604051601f19603f830116810181811085821117156122c9576122c9612702565b604052828152858101935084860182860187018a10156122e7578788fd5b8795505b83861015612310576122fc816121cc565b8552600195909501949386019386016122eb565b5098975050505050505050565b60006020828403121561232e578081fd5b6105c9826121dc565b60008060408385031215612349578182fd5b612352836121dc565b9150602083015190509250929050565b60008060408385031215612374578182fd5b823561237f81612718565b9150602083013561238f81612718565b809150509250929050565b6000806040838503121561223d578182fd5b600080600080608085870312156123c1578182fd5b84356123cc81612718565b9350602085013592506040850135915060608501356123ea81612718565b939692955090935050565b600080600060608486031215612409578283fd5b835160068110612417578384fd5b602085015160409095015190969495509392505050565b60006020828403121561243f578081fd5b81516fffffffffffffffffffffffffffffffff81168114612208578182fd5b60006020828403121561246f578081fd5b5051919050565b7fffffffffffffffff000000000000000000000000000000000000000000000000831681527f46656573202300000000000000000000000000000000000000000000000000006008820152600082516124d681600e850160208701612627565b91909101600e019392505050565b6001600160a01b038416815260208101839052606081016007831061250b5761250b6126ec565b826040830152949350505050565b6001600160a01b0384168152826020820152606060408201526000825180606084015261254d816080850160208701612627565b601f01601f191691909101608001949350505050565b600060c0820190508782528660208301526001600160a01b03861660408301528460608301528360808301526004831061259f5761259f6126ec565b8260a0830152979650505050505050565b60006fffffffffffffffffffffffffffffffff8083168185168083038211156125db576125db6126c0565b01949350505050565b600082198211156125f7576125f76126c0565b500190565b60008261260b5761260b6126d6565b500490565b600082821015612622576126226126c0565b500390565b60005b8381101561264257818101518382015260200161262a565b838111156107215750506000910152565b60007fffffffffffffffffffffffffffffffffffffffffffffffffffffffffffffffff821415612685576126856126c0565b5060010190565b600060ff821660ff8114156126a3576126a36126c0565b60010192915050565b6000826126bb576126bb6126d6565b500690565b634e487b7160e01b600052601160045260246000fd5b634e487b7160e01b600052601260045260246000fd5b634e487b7160e01b600052602160045260246000fd5b634e487b7160e01b600052604160045260246000fd5b6001600160a01b038116811461272d57600080fd5b5056fea2646970667358221220a6d18503dc31d219ec0c0437436e29242d12ad443ad4d2c20b52c6ba278c31be64736f6c63430008040033",
  "linkReferences": {},
  "deployedLinkReferences": {}
}