{
  "_format": "hh-sol-artifact-1",
  "contractName": "FlexDaoSetProposerMembershipAdapterContract",
  "sourceName": "contracts/flex/adatpers/FlexDaoSetProposerMembershipAdapter.sol",
  "abi": [
    {
      "inputs": [],
      "name": "VOTING_NOT_FINISH",
      "type": "error"
    },
    {
      "anonymous": false,
      "inputs": [
        {
          "indexed": false,
          "internalType": "address",
          "name": "daoAddr",
          "type": "address"
        },
        {
          "indexed": false,
          "internalType": "bytes32",
          "name": "proposalId",
          "type": "bytes32"
        },
        {
          "indexed": false,
          "internalType": "enum FlexDaosetLibrary.ProposalType",
          "name": "pType",
          "type": "uint8"
        }
      ],
      "name": "ProposalCreated",
      "type": "event"
    },
    {
      "anonymous": false,
      "inputs": [
        {
          "indexed": false,
          "internalType": "address",
          "name": "daoAddr",
          "type": "address"
        },
        {
          "indexed": false,
          "internalType": "bytes32",
          "name": "proposalId",
          "type": "bytes32"
        },
        {
          "indexed": false,
          "internalType": "uint256",
          "name": "voteResult",
          "type": "uint256"
        },
        {
          "indexed": false,
          "internalType": "uint128",
          "name": "allVotingWeight",
          "type": "uint128"
        },
        {
          "indexed": false,
          "internalType": "uint256",
          "name": "nbYes",
          "type": "uint256"
        },
        {
          "indexed": false,
          "internalType": "uint256",
          "name": "nbNo",
          "type": "uint256"
        }
      ],
      "name": "ProposalProcessed",
      "type": "event"
    },
    {
      "inputs": [
        {
          "internalType": "bytes32",
          "name": "proposalId",
          "type": "bytes32"
        }
      ],
      "name": "getProposerMembershipWhitelist",
      "outputs": [
        {
          "internalType": "address[]",
          "name": "",
          "type": "address[]"
        }
      ],
      "stateMutability": "view",
      "type": "function"
    },
    {
      "inputs": [
        {
          "internalType": "contract DaoRegistry",
          "name": "dao",
          "type": "address"
        },
        {
          "internalType": "address",
          "name": "_addr",
          "type": "address"
        }
      ],
      "name": "isActiveMember",
      "outputs": [
        {
          "internalType": "bool",
          "name": "",
          "type": "bool"
        }
      ],
      "stateMutability": "view",
      "type": "function"
    },
    {
      "inputs": [
        {
          "internalType": "address",
          "name": "",
          "type": "address"
        }
      ],
      "name": "ongoingProposerMembershipProposal",
      "outputs": [
        {
          "internalType": "bytes32",
          "name": "",
          "type": "bytes32"
        }
      ],
      "stateMutability": "view",
      "type": "function"
    },
    {
      "inputs": [
        {
          "internalType": "contract DaoRegistry",
          "name": "dao",
          "type": "address"
        },
        {
          "internalType": "bytes32",
          "name": "proposalId",
          "type": "bytes32"
        }
      ],
      "name": "processProposerMembershipProposal",
      "outputs": [
        {
          "internalType": "enum IFlexVoting.VotingState",
          "name": "",
          "type": "uint8"
        },
        {
          "internalType": "uint256",
          "name": "",
          "type": "uint256"
        },
        {
          "internalType": "uint256",
          "name": "",
          "type": "uint256"
        },
        {
          "internalType": "uint128",
          "name": "",
          "type": "uint128"
        }
      ],
      "stateMutability": "nonpayable",
      "type": "function"
    },
    {
      "inputs": [
        {
          "internalType": "address",
          "name": "",
          "type": "address"
        },
        {
          "internalType": "bytes32",
          "name": "",
          "type": "bytes32"
        }
      ],
      "name": "proposerMembershipProposals",
      "outputs": [
        {
          "internalType": "bool",
          "name": "proposerMembershipEnable",
          "type": "bool"
        },
        {
          "internalType": "string",
          "name": "name",
          "type": "string"
        },
        {
          "internalType": "uint8",
          "name": "varifyType",
          "type": "uint8"
        },
        {
          "internalType": "uint256",
          "name": "minHolding",
          "type": "uint256"
        },
        {
          "internalType": "address",
          "name": "tokenAddress",
          "type": "address"
        },
        {
          "internalType": "uint256",
          "name": "tokenId",
          "type": "uint256"
        },
        {
          "internalType": "uint256",
          "name": "creationTime",
          "type": "uint256"
        },
        {
          "internalType": "uint256",
          "name": "stopVoteTime",
          "type": "uint256"
        },
        {
          "internalType": "enum FlexDaosetLibrary.ProposalState",
          "name": "state",
          "type": "uint8"
        }
      ],
      "stateMutability": "view",
      "type": "function"
    },
    {
      "inputs": [
        {
          "components": [
            {
              "internalType": "contract DaoRegistry",
              "name": "dao",
              "type": "address"
            },
            {
              "internalType": "bool",
              "name": "proposerMembershipEnable",
              "type": "bool"
            },
            {
              "internalType": "string",
              "name": "name",
              "type": "string"
            },
            {
              "internalType": "uint8",
              "name": "varifyType",
              "type": "uint8"
            },
            {
              "internalType": "uint256",
              "name": "minHolding",
              "type": "uint256"
            },
            {
              "internalType": "address",
              "name": "tokenAddress",
              "type": "address"
            },
            {
              "internalType": "uint256",
              "name": "tokenId",
              "type": "uint256"
            },
            {
              "internalType": "address[]",
              "name": "whiteList",
              "type": "address[]"
            }
          ],
          "internalType": "struct FlexDaosetLibrary.ProposerMembershipParams",
          "name": "params",
          "type": "tuple"
        }
      ],
      "name": "submitProposerMembershipProposal",
      "outputs": [
        {
          "internalType": "bytes32",
          "name": "",
          "type": "bytes32"
        }
      ],
      "stateMutability": "nonpayable",
      "type": "function"
    }
  ],
  "bytecode": "0x608060405234801561001057600080fd5b50612b71806100206000396000f3fe608060405234801561001057600080fd5b50600436106100725760003560e01c8063d0740c2c11610050578063d0740c2c146100eb578063f2bc1c021461010c578063f7d0c6ec1461012c57600080fd5b806302395759146100775780638ecf7720146100a0578063ab1a2798146100c3575b600080fd5b61008a610085366004612493565b61014f565b60405161009791906126e2565b60405180910390f35b6100b36100ae3660046124ab565b61016f565b6040519015158152602001610097565b6100d66100d136600461233c565b61020c565b604051610097999897969594939291906126f5565b6100fe6100f936600461252e565b6102fb565b604051908152602001610097565b6100fe61011a366004612304565b60006020819052908152604090205481565b61013f61013a3660046124e3565b610831565b604051610097949392919061289e565b6000818152600260205260409020606090610169906109a2565b92915050565b6040517fa230c5240000000000000000000000000000000000000000000000000000000081526001600160a01b0382811660048301526000919084169063a230c5249060240160206040518083038186803b1580156101cd57600080fd5b505afa1580156101e1573d6000803e3d6000fd5b505050506040513d601f19601f82011682018060405250810190610205919061244a565b9392505050565b600160208181526000938452604080852090915291835291208054918101805460ff9093169261023b90612a1b565b80601f016020809104026020016040519081016040528092919081815260200182805461026790612a1b565b80156102b45780601f10610289576101008083540402835291602001916102b4565b820191906000526020600020905b81548152906001019060200180831161029757829003601f168201915b505050600284015460038501546004860154600587015460068801546007890154600890990154979860ff958616989497506001600160a01b039093169550909390921689565b600061030a6020830183612304565b61031481336109af565b6103216020840184612304565b600061032c82610a0e565b905061033b6020860186612304565b6001600160a01b031663b34dd9436040518163ffffffff1660e01b8152600401600060405180830381600087803b15801561037557600080fd5b505af1158015610389573d6000803e3d6000fd5b506000925061044f91506103a290506020880188612304565b60c01b61042a6103b560208a018a612304565b6001600160a01b031663c43d70086040518163ffffffff1660e01b815260040160206040518083038186803b1580156103ed57600080fd5b505afa158015610401573d6000803e3d6000fd5b505050506040513d601f19601f820116820180604052508101906104259190612597565b610cd9565b60405160200161043b92919061263f565b604051602081830303815290604052610e2f565b9050604051806101200160405280876020016020810190610470919061242e565b15158152602001610484604089018961292f565b8080601f0160208091040260200160405190810160405280939291908181526020018383808284376000920191909152505050908252506020016104ce6080890160608a016125af565b60ff168152608088013560208201526040016104f060c0890160a08a01612304565b6001600160a01b031681526020018760c0013581526020014281526020018760000160208101906105219190612304565b604051634941d71d60e11b81527f9876c0f0505bfb2b1c38d3bbd25ba13159172cd0868972d76927723f5a9480fc60048201526001600160a01b039190911690639283ae3a9060240160206040518083038186803b15801561058257600080fd5b505afa158015610596573d6000803e3d6000fd5b505050506040513d601f19601f820116820180604052508101906105ba9190612597565b6105c490426129a8565b815260200160009052600160006105de60208a018a612304565b6001600160a01b03168152602080820192909252604090810160009081208582528352208251815460ff1916901515178155828201518051919261062a9260018501929091019061225b565b50604082015160028201805460ff90921660ff19928316179055606083015160038084019190915560808401516004840180546001600160a01b039092167fffffffffffffffffffffffff000000000000000000000000000000000000000090921691909117905560a0840151600584015560c0840151600684015560e084015160078401556101008401516008840180549193909291169060019084908111156106e557634e487b7160e01b600052602160045260246000fd5b0217905550600091506106fd905060e08801886128e0565b905011156107905760005b61071560e08801886128e0565b90508160ff16101561078e5761077b61073160e08901896128e0565b8360ff1681811061075257634e487b7160e01b600052603260045260246000fd5b90506020020160208101906107679190612304565b600084815260026020526040902090610e4b565b508061078681612a89565b915050610708565b505b806000806107a160208a018a612304565b6001600160a01b03168152602080820192909252604001600020919091556107d5906107cf90880188612304565b82610e60565b7fa65d0c07e3b0d876ee52e871c234a4b150b9bf17a08f356f5aeda8d6782cc31a6108036020880188612304565b826006604051610815939291906126ad565b60405180910390a193506108298282611076565b505050919050565b60008060008085600061084382610a0e565b6001600160a01b03891660009081526001602090815260408083208b845290915281209192508080806108768d8d611081565b9296509094509250905060028460058111156108a257634e487b7160e01b600052602160045260246000fd5b14156108cf576108b38d8d876112a1565b6008850180546002919060ff19166001835b0217905550610969565b60038460058111156108f157634e487b7160e01b600052602160045260246000fd5b148061091c5750600184600581111561091a57634e487b7160e01b600052602160045260246000fd5b145b15610937576008850180546003919060ff19166001836108c5565b6040517f70fc772800000000000000000000000000000000000000000000000000000000815260040160405180910390fd5b6001600160a01b038d1660009081526020819052604081205592995090975095509350506109978282611076565b505092959194509250565b60606000610205836113f2565b6109b9828261016f565b610a0a5760405162461bcd60e51b815260206004820152600b60248201527f6f6e6c795374657761726400000000000000000000000000000000000000000060448201526064015b60405180910390fd5b5050565b6040805160808101825260008082526020820181905291810182905260608101919091525a81600001818152505043826001600160a01b031663b21634826040518163ffffffff1660e01b815260040160206040518083038186803b158015610a7657600080fd5b505afa158015610a8a573d6000803e3d6000fd5b505050506040513d601f19601f82011682018060405250810190610aae9190612597565b1415610afc5760405162461bcd60e51b815260206004820152601060248201527f7265656e7472616e6379206775617264000000000000000000000000000000006044820152606401610a01565b816001600160a01b03166310fdb0a26040518163ffffffff1660e01b8152600401600060405180830381600087803b158015610b3757600080fd5b505af1158015610b4b573d6000803e3d6000fd5b50506040517f72c6838f0000000000000000000000000000000000000000000000000000000081527f1f2fd42ad6a6cacd573c4b212beb7a4e2499ad45d742a65337097f130e71daff6004820152600092506001600160a01b03851691506372c6838f9060240160206040518083038186803b158015610bca57600080fd5b505afa158015610bde573d6000803e3d6000fd5b505050506040513d601f19601f82011682018060405250810190610c029190612320565b90506001600160a01b038116610c1e5760006020830152610cd3565b6001600160a01b038181166060840181905283516040517f43a8a3f1000000000000000000000000000000000000000000000000000000008152928616600484015260248301526000918291906343a8a3f190604401604080518083038186803b158015610c8b57600080fd5b505afa158015610c9f573d6000803e3d6000fd5b505050506040513d601f19601f82011682018060405250810190610cc39190612466565b9015156020860152604085015250505b50919050565b606081610d1957505060408051808201909152600181527f3000000000000000000000000000000000000000000000000000000000000000602082015290565b8160005b8115610d435780610d2d81612a50565b9150610d3c9050600a836129c0565b9150610d1d565b60008167ffffffffffffffff811115610d6c57634e487b7160e01b600052604160045260246000fd5b6040519080825280601f01601f191660200182016040528015610d96576020820181803683370190505b5090505b8415610e2757610dab6001836129d4565b9150610db8600a86612aa9565b610dc39060306129a8565b60f81b818381518110610de657634e487b7160e01b600052603260045260246000fd5b60200101907effffffffffffffffffffffffffffffffffffffffffffffffffffffffffffff1916908160001a905350610e20600a866129c0565b9450610d9a565b949350505050565b6000815160001415610e4357506000919050565b506020015190565b6000610205836001600160a01b03841661144e565b6040517fb73dc389000000000000000000000000000000000000000000000000000000008152600481018290526001600160a01b0383169063b73dc38990602401600060405180830381600087803b158015610ebb57600080fd5b505af1158015610ecf573d6000803e3d6000fd5b50506040516317ba7d8560e01b81527f0d479c38716a0298633b1dbf1ce145a3fbd1d79ca4527de172afc3bad04a2ba76004820152600092506001600160a01b03851691506317ba7d859060240160206040518083038186803b158015610f3557600080fd5b505afa158015610f49573d6000803e3d6000fd5b505050506040513d601f19601f82011682018060405250810190610f6d9190612320565b604080516020810182526000815290517f2b0974d00000000000000000000000000000000000000000000000000000000081529192506001600160a01b03831691632b0974d091610fc4918791879160040161286d565b600060405180830381600087803b158015610fde57600080fd5b505af1158015610ff2573d6000803e3d6000fd5b50506040517f815a2bf4000000000000000000000000000000000000000000000000000000008152600481018590526001600160a01b0384811660248301528616925063815a2bf49150604401600060405180830381600087803b15801561105957600080fd5b505af115801561106d573d6000803e3d6000fd5b50505050505050565b610a0a82823361149d565b600080600080856001600160a01b03166330490e91866040518263ffffffff1660e01b81526004016110b591815260200190565b600060405180830381600087803b1580156110cf57600080fd5b505af11580156110e3573d6000803e3d6000fd5b50506040516317ba7d8560e01b81527f0d479c38716a0298633b1dbf1ce145a3fbd1d79ca4527de172afc3bad04a2ba76004820152600092506001600160a01b03891691506317ba7d859060240160206040518083038186803b15801561114957600080fd5b505afa15801561115d573d6000803e3d6000fd5b505050506040513d601f19601f820116820180604052508101906111819190612320565b90506001600160a01b0381166111d95760405162461bcd60e51b815260206004820152600f60248201527f21766f74696e67436f6e747261637400000000000000000000000000000000006044820152606401610a01565b6040517f76225e730000000000000000000000000000000000000000000000000000000081526001600160a01b0388811660048301526024820188905260009182918291908516906376225e7390604401606060405180830381600087803b15801561124457600080fd5b505af1158015611258573d6000803e3d6000fd5b505050506040513d601f19601f8201168201806040525081019061127c91906124f5565b925092509250600061128e8b8b61158e565b939b929a50909850919650945050505050565b6040516317ba7d8560e01b81527fff9379b98b93eb3bd1fac62fd2258a7955d70d2d5279c40064145b6c9646df3760048201526000906001600160a01b038516906317ba7d859060240160206040518083038186803b15801561130357600080fd5b505afa158015611317573d6000803e3d6000fd5b505050506040513d601f19601f8201168201806040525081019061133b9190612320565b825460038401546005850154600280870154600488015460008a815260209390935260409092209596506001600160a01b038088169663b165abc3968c9660ff9182169660018d019691959094921692911690611397906109a2565b6040518963ffffffff1660e01b81526004016113ba989796959493929190612769565b600060405180830381600087803b1580156113d457600080fd5b505af11580156113e8573d6000803e3d6000fd5b5050505050505050565b60608160000180548060200260200160405190810160405280929190818152602001828054801561144257602002820191906000526020600020905b81548152602001906001019080831161142e575b50505050509050919050565b600081815260018301602052604081205461149557508154600181810184556000848152602080822090930184905584548482528286019093526040902091909155610169565b506000610169565b8160200151156115535781606001516001600160a01b0316635e5eb01384835a86516114c991906129d4565b60408088015190517fffffffff0000000000000000000000000000000000000000000000000000000060e087901b1681526001600160a01b03948516600482015293909216602484015260448301526064820152608401600060405180830381600087803b15801561153a57600080fd5b505af115801561154e573d6000803e3d6000fd5b505050505b826001600160a01b031663d4f7af436040518163ffffffff1660e01b8152600401600060405180830381600087803b15801561105957600080fd5b60008061159a8461184e565b6040516317ba7d8560e01b81527f0d479c38716a0298633b1dbf1ce145a3fbd1d79ca4527de172afc3bad04a2ba7600482015290915060009081906001600160a01b038716906317ba7d859060240160206040518083038186803b15801561160157600080fd5b505afa158015611615573d6000803e3d6000fd5b505050506040513d601f19601f820116820180604052508101906116399190612320565b905060005b83518160ff16101561184357816001600160a01b03166324a2cceb8888878560ff168151811061167e57634e487b7160e01b600052603260045260246000fd5b60200260200101516040518463ffffffff1660e01b81526004016116c2939291906001600160a01b0393841681526020810192909252909116604082015260600190565b60206040518083038186803b1580156116da57600080fd5b505afa1580156116ee573d6000803e3d6000fd5b505050506040513d601f19601f82011682018060405250810190611712919061244a565b156117f057816001600160a01b03166391d2fd538888878560ff168151811061174b57634e487b7160e01b600052603260045260246000fd5b60200260200101516040518463ffffffff1660e01b815260040161178f939291906001600160a01b0393841681526020810192909252909116604082015260600190565b60206040518083038186803b1580156117a757600080fd5b505afa1580156117bb573d6000803e3d6000fd5b505050506040513d601f19601f820116820180604052508101906117df9190612567565b6117e99084612974565b9250611831565b61182487858360ff168151811061181757634e487b7160e01b600052603260045260246000fd5b60200260200101516118c5565b61182e9084612974565b92505b8061183b81612a89565b91505061163e565b509095945050505050565b6060816001600160a01b031663a6f636416040518163ffffffff1660e01b815260040160006040518083038186803b15801561188957600080fd5b505afa15801561189d573d6000803e3d6000fd5b505050506040513d6000823e601f3d908101601f191682016040526101699190810190612367565b604051634941d71d60e11b81527f75b7d343967750d1f6c15979b7559cea8be22ff1a06a51681b9cbef0d2fff4fe600482015260009081906001600160a01b03851690639283ae3a9060240160206040518083038186803b15801561192957600080fd5b505afa15801561193d573d6000803e3d6000fd5b505050506040513d601f19601f820116820180604052508101906119619190612597565b604051634941d71d60e11b81527f18ef0b57fe939edb640a200fdf533493bd8f26a274151543a109b64c857e20f360048201529091506000906001600160a01b03861690639283ae3a9060240160206040518083038186803b1580156119c657600080fd5b505afa1580156119da573d6000803e3d6000fd5b505050506040513d601f19601f820116820180604052508101906119fe9190612597565b6040516317ba7d8560e01b81527f37cbe06c1044f98864ea25736326bc1d488e24e5e23781ea2ad64c4069cb9e6e60048201529091506000906001600160a01b038716906317ba7d859060240160206040518083038186803b158015611a6357600080fd5b505afa158015611a77573d6000803e3d6000fd5b505050506040513d601f19601f82011682018060405250810190611a9b9190612320565b604051634941d71d60e11b81527f77b1580d1632c74a32483c26a7156260a89ae4138b020ea7d09b0dcf24f1ea2460048201529091506000906001600160a01b03881690639283ae3a9060240160206040518083038186803b158015611b0057600080fd5b505afa158015611b14573d6000803e3d6000fd5b505050506040513d601f19601f82011682018060405250810190611b389190612597565b6040517ffd310d290000000000000000000000000000000000000000000000000000000081527fb5a1ad3f04728d7c38547e3d43006a1ec090a02fce04bbb1d0ee4519a1921e5760048201529091506000906001600160a01b0389169063fd310d299060240160206040518083038186803b158015611bb657600080fd5b505afa158015611bca573d6000803e3d6000fd5b505050506040513d601f19601f82011682018060405250810190611bee9190612320565b90508360011415611e0b57600085611c95576040516370a0823160e01b81526001600160a01b038981166004830152670de0b6b3a764000091908416906370a082319060240160206040518083038186803b158015611c4c57600080fd5b505afa158015611c60573d6000803e3d6000fd5b505050506040513d601f19601f82011682018060405250810190611c849190612597565b611c8e91906129c0565b9050611da2565b8560011415611d18576040516370a0823160e01b81526001600160a01b0389811660048301528316906370a08231906024015b60206040518083038186803b158015611ce057600080fd5b505afa158015611cf4573d6000803e3d6000fd5b505050506040513d601f19601f82011682018060405250810190611c8e9190612597565b8560021415611d5457604051627eeac760e11b81526001600160a01b0389811660048301526024820185905283169062fdd58e90604401611cc8565b8560031415611d93576040516329b6517360e21b81526001600160a01b038a81166004830152898116602483015285169063a6d945cc90604401611cc8565b60009650505050505050610169565b60008111611db95760009650505050505050610169565b677fffffffffffffff8110611dd75760329650505050505050610169565b6000611df2611ded611de88461212a565b612148565b61223f565b67ffffffffffffffff1697506101699650505050505050565b8360021415611f7d57600085611eb2576040516370a0823160e01b81526001600160a01b038981166004830152600091908416906370a08231906024015b60206040518083038186803b158015611e6157600080fd5b505afa158015611e75573d6000803e3d6000fd5b505050506040513d601f19601f82011682018060405250810190611e999190612597565b11611ea5576000611ea8565b60015b60ff169050611f70565b8560011415611eed576040516370a0823160e01b81526001600160a01b038981166004830152600091908416906370a0823190602401611e49565b8560021415611f2d57604051627eeac760e11b81526001600160a01b038981166004830152602482018590526000919084169062fdd58e90604401611e49565b8560031415611d93576040516329b6517360e21b81526001600160a01b038a8116600483015289811660248301526000919086169063a6d945cc90604401611e49565b9550610169945050505050565b8361211c5760008561201e576040516370a0823160e01b81526001600160a01b038981166004830152670de0b6b3a764000091908416906370a082319060240160206040518083038186803b158015611fd557600080fd5b505afa158015611fe9573d6000803e3d6000fd5b505050506040513d601f19601f8201168201806040525081019061200d9190612597565b61201791906129c0565b9050611f70565b85600114156120a1576040516370a0823160e01b81526001600160a01b0389811660048301528316906370a08231906024015b60206040518083038186803b15801561206957600080fd5b505afa15801561207d573d6000803e3d6000fd5b505050506040513d601f19601f820116820180604052508101906120179190612597565b85600214156120dd57604051627eeac760e11b81526001600160a01b0389811660048301526024820185905283169062fdd58e90604401612051565b8560031415611d93576040516329b6517360e21b81526001600160a01b038a81166004830152898116602483015285169063a6d945cc90604401612051565b600095505050505050610169565b6000677fffffffffffffff82111561214157600080fd5b5060401b90565b60008082600f0b1361215957600080fd5b6000600f83900b680100000000000000008112612178576040918201911d5b640100000000811261218c576020918201911d5b62010000811261219e576010918201911d5b61010081126121af576008918201911d5b601081126121bf576004918201911d5b600481126121cf576002918201911d5b600281126121de576001820191505b7fffffffffffffffffffffffffffffffffffffffffffffffffffffffffffffffc0820160401b600f85900b607f8490031b6780000000000000005b60008113156118435790800260ff81901c8281029390930192607f011c9060011d612219565b60008082600f0b121561225157600080fd5b50600f0b60401d90565b82805461226790612a1b565b90600052602060002090601f01602090048101928261228957600085556122cf565b82601f106122a257805160ff19168380011785556122cf565b828001600101855582156122cf579182015b828111156122cf5782518255916020019190600101906122b4565b506122db9291506122df565b5090565b5b808211156122db57600081556001016122e0565b80516122ff81612b15565b919050565b600060208284031215612315578081fd5b813561020581612b15565b600060208284031215612331578081fd5b815161020581612b15565b6000806040838503121561234e578081fd5b823561235981612b15565b946020939093013593505050565b60006020808385031215612379578182fd5b825167ffffffffffffffff80821115612390578384fd5b818501915085601f8301126123a3578384fd5b8151818111156123b5576123b5612aff565b8060051b604051601f19603f830116810181811085821117156123da576123da612aff565b604052828152858101935084860182860187018a10156123f8578788fd5b8795505b838610156124215761240d816122f4565b8552600195909501949386019386016123fc565b5098975050505050505050565b60006020828403121561243f578081fd5b813561020581612b2d565b60006020828403121561245b578081fd5b815161020581612b2d565b60008060408385031215612478578182fd5b825161248381612b2d565b6020939093015192949293505050565b6000602082840312156124a4578081fd5b5035919050565b600080604083850312156124bd578182fd5b82356124c881612b15565b915060208301356124d881612b15565b809150509250929050565b6000806040838503121561234e578182fd5b600080600060608486031215612509578081fd5b835160068110612517578182fd5b602085015160409095015190969495509392505050565b60006020828403121561253f578081fd5b813567ffffffffffffffff811115612555578182fd5b82016101008185031215610205578182fd5b600060208284031215612578578081fd5b81516fffffffffffffffffffffffffffffffff81168114610205578182fd5b6000602082840312156125a8578081fd5b5051919050565b6000602082840312156125c0578081fd5b813560ff81168114610205578182fd5b6000815180845260208085019450808401835b838110156126085781516001600160a01b0316875295820195908201906001016125e3565b509495945050505050565b6000815180845261262b8160208601602086016129eb565b601f01601f19169290920160200192915050565b7fffffffffffffffff000000000000000000000000000000000000000000000000831681527f50726f706f736572204d656d626572736869702023000000000000000000000060088201526000825161269f81601d8501602087016129eb565b91909101601d019392505050565b6001600160a01b03841681526020810183905260608101600783106126d4576126d4612ae9565b826040830152949350505050565b60208152600061020560208301846125d0565b60006101208b151583528060208401526127118184018c612613565b91505060ff891660408301528760608301526001600160a01b03871660808301528560a08301528460c08301528360e08301526004831061275457612754612ae9565b826101008301529a9950505050505050505050565b60006101006001600160a01b038b168352891515602084015280604084015281895483600182811c9150808316806127a257607f831692505b602083108114156127c157634e487b7160e01b87526022600452602487fd5b948701828152602001948080156127df57600181146127f15761281c565b60ff198516875260208701955061281c565b60008f815260209020885b8581101561281657815489820152908401906020016127fc565b88019650505b505050505088606085015287608085015261283c60a085018860ff169052565b6001600160a01b03861660c085015283810360e085015261285d81866125d0565b9c9b505050505050505050505050565b6001600160a01b03841681528260208201526060604082015260006128956060830184612613565b95945050505050565b60808101600686106128b2576128b2612ae9565b948152602081019390935260408301919091526fffffffffffffffffffffffffffffffff1660609091015290565b6000808335601e198436030181126128f6578283fd5b83018035915067ffffffffffffffff821115612910578283fd5b6020019150600581901b360382131561292857600080fd5b9250929050565b6000808335601e19843603018112612945578182fd5b83018035915067ffffffffffffffff82111561295f578283fd5b60200191503681900382131561292857600080fd5b60006fffffffffffffffffffffffffffffffff80831681851680830382111561299f5761299f612abd565b01949350505050565b600082198211156129bb576129bb612abd565b500190565b6000826129cf576129cf612ad3565b500490565b6000828210156129e6576129e6612abd565b500390565b60005b83811015612a065781810151838201526020016129ee565b83811115612a15576000848401525b50505050565b600181811c90821680612a2f57607f821691505b60208210811415610cd357634e487b7160e01b600052602260045260246000fd5b60007fffffffffffffffffffffffffffffffffffffffffffffffffffffffffffffffff821415612a8257612a82612abd565b5060010190565b600060ff821660ff811415612aa057612aa0612abd565b60010192915050565b600082612ab857612ab8612ad3565b500690565b634e487b7160e01b600052601160045260246000fd5b634e487b7160e01b600052601260045260246000fd5b634e487b7160e01b600052602160045260246000fd5b634e487b7160e01b600052604160045260246000fd5b6001600160a01b0381168114612b2a57600080fd5b50565b8015158114612b2a57600080fdfea264697066735822122053a975370514d8cb0c094ef80e82c3b2235638c3bcca192f0cea51f1bc3f6c0564736f6c63430008040033",
  "linkReferences": {},
  "deployedLinkReferences": {}
}