{
  "_format": "hh-sol-artifact-1",
  "contractName": "FlexGovernorVotingAssetAllocationProposalAdapterContract",
  "sourceName": "contracts/flex/adatpers/FlexGovernorVotingAssetAllocationProposalAdapter.sol",
  "abi": [
    {
      "inputs": [],
      "name": "ADAPTER_NOT_FUND",
      "type": "error"
    },
    {
      "inputs": [],
      "name": "INVALID_PARAMS",
      "type": "error"
    },
    {
      "inputs": [],
      "name": "PROPOSAL_ALREADY_PROCESSED",
      "type": "error"
    },
    {
      "inputs": [],
      "name": "PROPOSAL_HAS_NOT_BEEN_VOTED_ON_YET",
      "type": "error"
    },
    {
      "anonymous": false,
      "inputs": [
        {
          "indexed": false,
          "internalType": "address",
          "name": "daoAddr",
          "type": "address"
        },
        {
          "indexed": false,
          "internalType": "bytes32",
          "name": "proposalId",
          "type": "bytes32"
        },
        {
          "indexed": false,
          "internalType": "address[]",
          "name": "governors",
          "type": "address[]"
        },
        {
          "indexed": false,
          "internalType": "uint256[]",
          "name": "allocations",
          "type": "uint256[]"
        },
        {
          "indexed": false,
          "internalType": "uint256",
          "name": "stopVoteTime",
          "type": "uint256"
        }
      ],
      "name": "ProposalCreated",
      "type": "event"
    },
    {
      "anonymous": false,
      "inputs": [
        {
          "indexed": false,
          "internalType": "address",
          "name": "daoAddr",
          "type": "address"
        },
        {
          "indexed": false,
          "internalType": "bytes32",
          "name": "proposalId",
          "type": "bytes32"
        },
        {
          "indexed": false,
          "internalType": "enum FlexGovernorVotingAssetAllocationProposalAdapterContract.ProposalState",
          "name": "state",
          "type": "uint8"
        },
        {
          "indexed": false,
          "internalType": "uint128",
          "name": "allVotingWeight",
          "type": "uint128"
        },
        {
          "indexed": false,
          "internalType": "uint256",
          "name": "nbYes",
          "type": "uint256"
        },
        {
          "indexed": false,
          "internalType": "uint256",
          "name": "nbNo",
          "type": "uint256"
        },
        {
          "indexed": false,
          "internalType": "uint256",
          "name": "voteResult",
          "type": "uint256"
        }
      ],
      "name": "ProposalProcessed",
      "type": "event"
    },
    {
      "inputs": [
        {
          "internalType": "contract DaoRegistry",
          "name": "dao",
          "type": "address"
        },
        {
          "internalType": "address",
          "name": "_addr",
          "type": "address"
        }
      ],
      "name": "isActiveMember",
      "outputs": [
        {
          "internalType": "bool",
          "name": "",
          "type": "bool"
        }
      ],
      "stateMutability": "view",
      "type": "function"
    },
    {
      "inputs": [
        {
          "internalType": "contract DaoRegistry",
          "name": "",
          "type": "address"
        }
      ],
      "name": "ongoingProposal",
      "outputs": [
        {
          "internalType": "bytes32",
          "name": "",
          "type": "bytes32"
        }
      ],
      "stateMutability": "view",
      "type": "function"
    },
    {
      "inputs": [
        {
          "internalType": "contract DaoRegistry",
          "name": "dao",
          "type": "address"
        },
        {
          "internalType": "bytes32",
          "name": "proposalId",
          "type": "bytes32"
        }
      ],
      "name": "processProposal",
      "outputs": [],
      "stateMutability": "nonpayable",
      "type": "function"
    },
    {
      "inputs": [
        {
          "internalType": "contract DaoRegistry",
          "name": "",
          "type": "address"
        },
        {
          "internalType": "bytes32",
          "name": "",
          "type": "bytes32"
        }
      ],
      "name": "proposals",
      "outputs": [
        {
          "internalType": "address",
          "name": "proposer",
          "type": "address"
        },
        {
          "components": [
            {
              "internalType": "uint256[]",
              "name": "allocs",
              "type": "uint256[]"
            }
          ],
          "internalType": "struct FlexGovernorVotingAssetAllocationProposalAdapterContract.VotingAllocation",
          "name": "allocs",
          "type": "tuple"
        },
        {
          "components": [
            {
              "internalType": "address[]",
              "name": "governors",
              "type": "address[]"
            }
          ],
          "internalType": "struct FlexGovernorVotingAssetAllocationProposalAdapterContract.VotingGovernor",
          "name": "govs",
          "type": "tuple"
        },
        {
          "internalType": "uint256",
          "name": "creationTime",
          "type": "uint256"
        },
        {
          "internalType": "uint256",
          "name": "stopVoteTime",
          "type": "uint256"
        },
        {
          "internalType": "enum FlexGovernorVotingAssetAllocationProposalAdapterContract.ProposalState",
          "name": "state",
          "type": "uint8"
        }
      ],
      "stateMutability": "view",
      "type": "function"
    },
    {
      "inputs": [
        {
          "internalType": "contract DaoRegistry",
          "name": "dao",
          "type": "address"
        },
        {
          "internalType": "address[]",
          "name": "govs",
          "type": "address[]"
        },
        {
          "internalType": "uint256[]",
          "name": "allocs",
          "type": "uint256[]"
        }
      ],
      "name": "submitProposal",
      "outputs": [],
      "stateMutability": "nonpayable",
      "type": "function"
    }
  ],
  "bytecode": "0x608060405234801561001057600080fd5b506129f1806100206000396000f3fe608060405234801561001057600080fd5b50600436106100675760003560e01c80638ecf7720116100505780638ecf7720146100c85780639573167d146100eb578063fde92fcf1461010057600080fd5b80635cb752761461006c57806362e86df51461009a575b600080fd5b61007f61007a3660046124a6565b610113565b60405161009196959493929190612736565b60405180910390f35b6100ba6100a83660046122a3565b60016020526000908152604090205481565b604051908152602001610091565b6100db6100d63660046123ee565b610217565b6040519015158152602001610091565b6100fe6100f93660046124a6565b6102b6565b005b6100fe61010e366004612426565b610708565b6000602081815292815260408082208452918152819020805482516001830180548087028301860186529582018681526001600160a01b039093169593949193909284929091849184018282801561018a57602002820191906000526020600020905b815481526020019060010190808311610176575b5050509190925250506040805160028501805460208181028401850185528301818152959695929450909284929184918401828280156101f357602002820191906000526020600020905b81546001600160a01b031681526001909101906020018083116101d5575b50505091909252505050600382015460048301546005909301549192909160ff1686565b6040517fa230c5240000000000000000000000000000000000000000000000000000000081526001600160a01b0382811660048301526000919084169063a230c5249060240160206040518083038186803b15801561027557600080fd5b505afa158015610289573d6000803e3d6000fd5b505050506040513d601f19601f820116820180604052508101906102ad91906123a9565b90505b92915050565b6001600160a01b0382166000818152602081815260408083208584529091529081902090517ff941f69100000000000000000000000000000000000000000000000000000000815290919063f941f691906103189085906002906004016127c9565b60206040518083038186803b15801561033057600080fd5b505afa158015610344573d6000803e3d6000fd5b505050506040513d601f19601f8201168201806040525081019061036891906123a9565b1561039f576040517f35153ac400000000000000000000000000000000000000000000000000000000815260040160405180910390fd5b6040516317ba7d8560e01b81527f0d479c38716a0298633b1dbf1ce145a3fbd1d79ca4527de172afc3bad04a2ba760048201526000906001600160a01b038516906317ba7d859060240160206040518083038186803b15801561040157600080fd5b505afa158015610415573d6000803e3d6000fd5b505050506040513d601f19601f8201168201806040525081019061043991906122c6565b90506001600160a01b03811661047b576040517f5d78cd3c00000000000000000000000000000000000000000000000000000000815260040160405180910390fd5b6040517f76225e730000000000000000000000000000000000000000000000000000000081526001600160a01b0385811660048301526024820185905260009182918291908516906376225e7390604401606060405180830381600087803b1580156104e657600080fd5b505af11580156104fa573d6000803e3d6000fd5b505050506040513d601f19601f8201168201806040525081019061051e91906124d1565b9194509250905060006105318888610eca565b6040517f30490e91000000000000000000000000000000000000000000000000000000008152600481018990529091506001600160a01b038916906330490e9190602401600060405180830381600087803b15801561058f57600080fd5b505af11580156105a3573d6000803e3d6000fd5b50600292506105b0915050565b8460058111156105d057634e487b7160e01b600052602160045260246000fd5b14156105f1576005860180546001919060ff191682805b021790555061068b565b600384600581111561061357634e487b7160e01b600052602160045260246000fd5b148061063e5750600184600581111561063c57634e487b7160e01b600052602160045260246000fd5b145b15610659576005860180546003919060ff19166001836105e7565b6040517fe2489e3300000000000000000000000000000000000000000000000000000000815260040160405180910390fd5b7f7ab29e6deeb60f3b76461422909b7ae5bda1be890b270b70c56a32d54cd2a45688888860050160009054906101000a900460ff168487878a60058111156106e357634e487b7160e01b600052602160045260246000fd5b6040516106f697969594939291906126dc565b60405180910390a15050505050505050565b8460006107148261118a565b9050866107218133611474565b85841461075a576040517f6a9c3ed500000000000000000000000000000000000000000000000000000000815260040160405180910390fd5b876001600160a01b03166383b8e61e6040518163ffffffff1660e01b8152600401600060405180830381600087803b15801561079557600080fd5b505af11580156107a9573d6000803e3d6000fd5b5050505060006108548960c01b61082f8b6001600160a01b031663be29984e6040518163ffffffff1660e01b815260040160206040518083038186803b1580156107f257600080fd5b505afa158015610806573d6000803e3d6000fd5b505050506040513d601f19601f8201168201806040525081019061082a919061253a565b6114e8565b6040516020016108409291906125b7565b60405160208183030381529060405261163e565b604051634941d71d60e11b81527f9876c0f0505bfb2b1c38d3bbd25ba13159172cd0868972d76927723f5a9480fc60048201529091506000906001600160a01b038b1690639283ae3a9060240160206040518083038186803b1580156108b957600080fd5b505afa1580156108cd573d6000803e3d6000fd5b505050506040513d601f19601f820116820180604052508101906108f1919061253a565b6108fb904261286b565b90506040518060c00160405280336001600160a01b0316815260200160405180602001604052808c8c905067ffffffffffffffff81111561094c57634e487b7160e01b600052604160045260246000fd5b604051908082528060200260200182016040528015610975578160200160208202803683370190505b50815250815260200160405180602001604052808c8c905067ffffffffffffffff8111156109b357634e487b7160e01b600052604160045260246000fd5b6040519080825280602002602001820160405280156109dc578160200160208202803683370190505b509052815242602082015260408101839052606001600090526001600160a01b038b811660009081526020818152604080832087845282529091208351815473ffffffffffffffffffffffffffffffffffffffff19169316929092178255828101518051805191926001850192610a569284920190612177565b5050506040820151805180516002840191610a76918391602001906121c2565b505050606082015181600301556080820151816004015560a08201518160050160006101000a81548160ff02191690836003811115610ac557634e487b7160e01b600052602160045260246000fd5b021790555090505060005b60ff8116891115610c245787878260ff16818110610afe57634e487b7160e01b600052603260045260246000fd5b6001600160a01b038e166000908152602081815260408083208984528252909120600101805492909102939093013592915060ff8416908110610b5157634e487b7160e01b600052603260045260246000fd5b600091825260209091200155898960ff8316818110610b8057634e487b7160e01b600052603260045260246000fd5b9050602002016020810190610b9591906122a3565b6001600160a01b038c166000908152602081815260408083208784529091529020600201805460ff8416908110610bdc57634e487b7160e01b600052603260045260246000fd5b6000918252602090912001805473ffffffffffffffffffffffffffffffffffffffff19166001600160a01b039290921691909117905580610c1c81612917565b915050610ad0565b506001600160a01b038a16600081815260016020526040808220859055516317ba7d8560e01b81527f0d479c38716a0298633b1dbf1ce145a3fbd1d79ca4527de172afc3bad04a2ba760048201529091906317ba7d859060240160206040518083038186803b158015610c9657600080fd5b505afa158015610caa573d6000803e3d6000fd5b505050506040513d601f19601f82011682018060405250810190610cce91906122c6565b6040516317ba7d8560e01b81527f0d479c38716a0298633b1dbf1ce145a3fbd1d79ca4527de172afc3bad04a2ba760048201529091506001600160a01b038c169063815a2bf490859083906317ba7d859060240160206040518083038186803b158015610d3a57600080fd5b505afa158015610d4e573d6000803e3d6000fd5b505050506040513d601f19601f82011682018060405250810190610d7291906122c6565b6040517fffffffff0000000000000000000000000000000000000000000000000000000060e085901b16815260048101929092526001600160a01b03166024820152604401600060405180830381600087803b158015610dd157600080fd5b505af1158015610de5573d6000803e3d6000fd5b5050604080516020810182526000815290517f2b0974d00000000000000000000000000000000000000000000000000000000081526001600160a01b0385169350632b0974d09250610e3e918f918891906004016127ed565b600060405180830381600087803b158015610e5857600080fd5b505af1158015610e6c573d6000803e3d6000fd5b505050507f1a430b52b7d2c175591f9e71d42ec16859629de97bdb96f0513d7dc639159f4a8b848c8c8c8c88604051610eab9796959493929190612625565b60405180910390a150505050610ec1828261165a565b50505050505050565b600080610ed684611665565b6040516317ba7d8560e01b81527f0d479c38716a0298633b1dbf1ce145a3fbd1d79ca4527de172afc3bad04a2ba7600482015290915060009081906001600160a01b038716906317ba7d859060240160206040518083038186803b158015610f3d57600080fd5b505afa158015610f51573d6000803e3d6000fd5b505050506040513d601f19601f82011682018060405250810190610f7591906122c6565b905060005b83518160ff16101561117f57816001600160a01b03166324a2cceb8888878560ff1681518110610fba57634e487b7160e01b600052603260045260246000fd5b60200260200101516040518463ffffffff1660e01b8152600401610ffe939291906001600160a01b0393841681526020810192909252909116604082015260600190565b60206040518083038186803b15801561101657600080fd5b505afa15801561102a573d6000803e3d6000fd5b505050506040513d601f19601f8201168201806040525081019061104e91906123a9565b1561112c57816001600160a01b03166391d2fd538888878560ff168151811061108757634e487b7160e01b600052603260045260246000fd5b60200260200101516040518463ffffffff1660e01b81526004016110cb939291906001600160a01b0393841681526020810192909252909116604082015260600190565b60206040518083038186803b1580156110e357600080fd5b505afa1580156110f7573d6000803e3d6000fd5b505050506040513d601f19601f8201168201806040525081019061111b919061250a565b6111259084612837565b925061116d565b61116087858360ff168151811061115357634e487b7160e01b600052603260045260246000fd5b60200260200101516116dc565b61116a9084612837565b92505b8061117781612917565b915050610f7a565b509095945050505050565b6040805160808101825260008082526020820181905291810182905260608101919091525a81600001818152505043826001600160a01b031663b21634826040518163ffffffff1660e01b815260040160206040518083038186803b1580156111f257600080fd5b505afa158015611206573d6000803e3d6000fd5b505050506040513d601f19601f8201168201806040525081019061122a919061253a565b1415611297576040517f08c379a000000000000000000000000000000000000000000000000000000000815260206004820152601060248201527f7265656e7472616e63792067756172640000000000000000000000000000000060448201526064015b60405180910390fd5b816001600160a01b03166310fdb0a26040518163ffffffff1660e01b8152600401600060405180830381600087803b1580156112d257600080fd5b505af11580156112e6573d6000803e3d6000fd5b50506040517f72c6838f0000000000000000000000000000000000000000000000000000000081527f1f2fd42ad6a6cacd573c4b212beb7a4e2499ad45d742a65337097f130e71daff6004820152600092506001600160a01b03851691506372c6838f9060240160206040518083038186803b15801561136557600080fd5b505afa158015611379573d6000803e3d6000fd5b505050506040513d601f19601f8201168201806040525081019061139d91906122c6565b90506001600160a01b0381166113b9576000602083015261146e565b6001600160a01b038181166060840181905283516040517f43a8a3f1000000000000000000000000000000000000000000000000000000008152928616600484015260248301526000918291906343a8a3f190604401604080518083038186803b15801561142657600080fd5b505afa15801561143a573d6000803e3d6000fd5b505050506040513d601f19601f8201168201806040525081019061145e91906123c3565b9015156020860152604085015250505b50919050565b61147e8282610217565b6114e4576040517f08c379a000000000000000000000000000000000000000000000000000000000815260206004820152600c60248201527f6f6e6c79476f7665726e6f720000000000000000000000000000000000000000604482015260640161128e565b5050565b60608161152857505060408051808201909152600181527f3000000000000000000000000000000000000000000000000000000000000000602082015290565b8160005b8115611552578061153c816128de565b915061154b9050600a83612883565b915061152c565b60008167ffffffffffffffff81111561157b57634e487b7160e01b600052604160045260246000fd5b6040519080825280601f01601f1916602001820160405280156115a5576020820181803683370190505b5090505b8415611636576115ba600183612897565b91506115c7600a86612937565b6115d290603061286b565b60f81b8183815181106115f557634e487b7160e01b600052603260045260246000fd5b60200101907effffffffffffffffffffffffffffffffffffffffffffffffffffffffffffff1916908160001a90535061162f600a86612883565b94506115a9565b949350505050565b600081516000141561165257506000919050565b506020015190565b6114e4828233611f41565b6060816001600160a01b031663a6f636416040518163ffffffff1660e01b815260040160006040518083038186803b1580156116a057600080fd5b505afa1580156116b4573d6000803e3d6000fd5b505050506040513d6000823e601f3d908101601f191682016040526102b091908101906122e2565b604051634941d71d60e11b81527f75b7d343967750d1f6c15979b7559cea8be22ff1a06a51681b9cbef0d2fff4fe600482015260009081906001600160a01b03851690639283ae3a9060240160206040518083038186803b15801561174057600080fd5b505afa158015611754573d6000803e3d6000fd5b505050506040513d601f19601f82011682018060405250810190611778919061253a565b604051634941d71d60e11b81527f18ef0b57fe939edb640a200fdf533493bd8f26a274151543a109b64c857e20f360048201529091506000906001600160a01b03861690639283ae3a9060240160206040518083038186803b1580156117dd57600080fd5b505afa1580156117f1573d6000803e3d6000fd5b505050506040513d601f19601f82011682018060405250810190611815919061253a565b6040516317ba7d8560e01b81527f37cbe06c1044f98864ea25736326bc1d488e24e5e23781ea2ad64c4069cb9e6e60048201529091506000906001600160a01b038716906317ba7d859060240160206040518083038186803b15801561187a57600080fd5b505afa15801561188e573d6000803e3d6000fd5b505050506040513d601f19601f820116820180604052508101906118b291906122c6565b604051634941d71d60e11b81527f77b1580d1632c74a32483c26a7156260a89ae4138b020ea7d09b0dcf24f1ea2460048201529091506000906001600160a01b03881690639283ae3a9060240160206040518083038186803b15801561191757600080fd5b505afa15801561192b573d6000803e3d6000fd5b505050506040513d601f19601f8201168201806040525081019061194f919061253a565b6040517ffd310d290000000000000000000000000000000000000000000000000000000081527fb5a1ad3f04728d7c38547e3d43006a1ec090a02fce04bbb1d0ee4519a1921e5760048201529091506000906001600160a01b0389169063fd310d299060240160206040518083038186803b1580156119cd57600080fd5b505afa1580156119e1573d6000803e3d6000fd5b505050506040513d601f19601f82011682018060405250810190611a0591906122c6565b90508360011415611c2257600085611aac576040516370a0823160e01b81526001600160a01b038981166004830152670de0b6b3a764000091908416906370a082319060240160206040518083038186803b158015611a6357600080fd5b505afa158015611a77573d6000803e3d6000fd5b505050506040513d601f19601f82011682018060405250810190611a9b919061253a565b611aa59190612883565b9050611bb9565b8560011415611b2f576040516370a0823160e01b81526001600160a01b0389811660048301528316906370a08231906024015b60206040518083038186803b158015611af757600080fd5b505afa158015611b0b573d6000803e3d6000fd5b505050506040513d601f19601f82011682018060405250810190611aa5919061253a565b8560021415611b6b57604051627eeac760e11b81526001600160a01b0389811660048301526024820185905283169062fdd58e90604401611adf565b8560031415611baa576040516329b6517360e21b81526001600160a01b038a81166004830152898116602483015285169063a6d945cc90604401611adf565b600096505050505050506102b0565b60008111611bd057600096505050505050506102b0565b677fffffffffffffff8110611bee57603296505050505050506102b0565b6000611c09611c04611bff84612046565b612064565b61215b565b67ffffffffffffffff1697506102b09650505050505050565b8360021415611d9457600085611cc9576040516370a0823160e01b81526001600160a01b038981166004830152600091908416906370a08231906024015b60206040518083038186803b158015611c7857600080fd5b505afa158015611c8c573d6000803e3d6000fd5b505050506040513d601f19601f82011682018060405250810190611cb0919061253a565b11611cbc576000611cbf565b60015b60ff169050611d87565b8560011415611d04576040516370a0823160e01b81526001600160a01b038981166004830152600091908416906370a0823190602401611c60565b8560021415611d4457604051627eeac760e11b81526001600160a01b038981166004830152602482018590526000919084169062fdd58e90604401611c60565b8560031415611baa576040516329b6517360e21b81526001600160a01b038a8116600483015289811660248301526000919086169063a6d945cc90604401611c60565b95506102b0945050505050565b83611f3357600085611e35576040516370a0823160e01b81526001600160a01b038981166004830152670de0b6b3a764000091908416906370a082319060240160206040518083038186803b158015611dec57600080fd5b505afa158015611e00573d6000803e3d6000fd5b505050506040513d601f19601f82011682018060405250810190611e24919061253a565b611e2e9190612883565b9050611d87565b8560011415611eb8576040516370a0823160e01b81526001600160a01b0389811660048301528316906370a08231906024015b60206040518083038186803b158015611e8057600080fd5b505afa158015611e94573d6000803e3d6000fd5b505050506040513d601f19601f82011682018060405250810190611e2e919061253a565b8560021415611ef457604051627eeac760e11b81526001600160a01b0389811660048301526024820185905283169062fdd58e90604401611e68565b8560031415611baa576040516329b6517360e21b81526001600160a01b038a81166004830152898116602483015285169063a6d945cc90604401611e68565b6000955050505050506102b0565b816020015115611ff75781606001516001600160a01b0316635e5eb01384835a8651611f6d9190612897565b60408088015190517fffffffff0000000000000000000000000000000000000000000000000000000060e087901b1681526001600160a01b03948516600482015293909216602484015260448301526064820152608401600060405180830381600087803b158015611fde57600080fd5b505af1158015611ff2573d6000803e3d6000fd5b505050505b826001600160a01b031663d4f7af436040518163ffffffff1660e01b8152600401600060405180830381600087803b15801561203257600080fd5b505af1158015610ec1573d6000803e3d6000fd5b6000677fffffffffffffff82111561205d57600080fd5b5060401b90565b60008082600f0b1361207557600080fd5b6000600f83900b680100000000000000008112612094576040918201911d5b64010000000081126120a8576020918201911d5b6201000081126120ba576010918201911d5b61010081126120cb576008918201911d5b601081126120db576004918201911d5b600481126120eb576002918201911d5b600281126120fa576001820191505b7fffffffffffffffffffffffffffffffffffffffffffffffffffffffffffffffc0820160401b600f85900b607f8490031b6780000000000000005b600081131561117f5790800260ff81901c8281029390930192607f011c9060011d612135565b60008082600f0b121561216d57600080fd5b50600f0b60401d90565b8280548282559060005260206000209081019282156121b2579160200282015b828111156121b2578251825591602001919060010190612197565b506121be929150612224565b5090565b8280548282559060005260206000209081019282156121b2579160200282015b828111156121b2578251825473ffffffffffffffffffffffffffffffffffffffff19166001600160a01b039091161782556020909201916001909101906121e2565b5b808211156121be5760008155600101612225565b8051612244816129a3565b919050565b60008083601f84011261225a578081fd5b50813567ffffffffffffffff811115612271578182fd5b6020830191508360208260051b850101111561228c57600080fd5b9250929050565b8051801515811461224457600080fd5b6000602082840312156122b4578081fd5b81356122bf816129a3565b9392505050565b6000602082840312156122d7578081fd5b81516122bf816129a3565b600060208083850312156122f4578182fd5b825167ffffffffffffffff8082111561230b578384fd5b818501915085601f83011261231e578384fd5b8151818111156123305761233061298d565b8060051b604051601f19603f830116810181811085821117156123555761235561298d565b604052828152858101935084860182860187018a1015612373578788fd5b8795505b8386101561239c5761238881612239565b855260019590950194938601938601612377565b5098975050505050505050565b6000602082840312156123ba578081fd5b6102ad82612293565b600080604083850312156123d5578081fd5b6123de83612293565b9150602083015190509250929050565b60008060408385031215612400578182fd5b823561240b816129a3565b9150602083013561241b816129a3565b809150509250929050565b60008060008060006060868803121561243d578081fd5b8535612448816129a3565b9450602086013567ffffffffffffffff80821115612464578283fd5b61247089838a01612249565b90965094506040880135915080821115612488578283fd5b5061249588828901612249565b969995985093965092949392505050565b600080604083850312156124b8578182fd5b82356124c3816129a3565b946020939093013593505050565b6000806000606084860312156124e5578283fd5b8351600681106124f3578384fd5b602085015160409095015190969495509392505050565b60006020828403121561251b578081fd5b81516fffffffffffffffffffffffffffffffff811681146122bf578182fd5b60006020828403121561254b578081fd5b5051919050565b6004811061256257612562612977565b9052565b805160208084528151848201819052600092820190839060408701905b808310156125ac5783516001600160a01b03168252928401926001929092019190840190612583565b509695505050505050565b7fffffffffffffffff000000000000000000000000000000000000000000000000831681527f476f7665726e6f7220416c6c6f636174696f6e2023000000000000000000000060088201526000825161261781601d8501602087016128ae565b91909101601d019392505050565b6001600160a01b038881168252602080830189905260a0604084018190528301879052600091889160c08501845b8a81101561267a578435612666816129a3565b841682529382019390820190600101612653565b5085810360608701528781527f07ffffffffffffffffffffffffffffffffffffffffffffffffffffffffffffff8811156126b2578485fd5b8760051b935083898383013790920190910191825250608091909101919091529695505050505050565b6001600160a01b03881681526020810187905260e081016127006040830188612552565b6fffffffffffffffffffffffffffffffff861660608301528460808301528360a08301528260c083015298975050505050505050565b6001600160a01b038716815260c060208083018290528751918301819052815160e0840181905260009282019083906101008601905b8083101561278c578351825292840192600192909201919084019061276c565b50858103604087015261279f818b612566565b9450505050508460608301528360808301526127be60a0830184612552565b979650505050505050565b82815260408101600383106127e0576127e0612977565b8260208301529392505050565b6001600160a01b038416815282602082015260606040820152600082518060608401526128218160808501602087016128ae565b601f01601f191691909101608001949350505050565b60006fffffffffffffffffffffffffffffffff8083168185168083038211156128625761286261294b565b01949350505050565b6000821982111561287e5761287e61294b565b500190565b60008261289257612892612961565b500490565b6000828210156128a9576128a961294b565b500390565b60005b838110156128c95781810151838201526020016128b1565b838111156128d8576000848401525b50505050565b60007fffffffffffffffffffffffffffffffffffffffffffffffffffffffffffffffff8214156129105761291061294b565b5060010190565b600060ff821660ff81141561292e5761292e61294b565b60010192915050565b60008261294657612946612961565b500690565b634e487b7160e01b600052601160045260246000fd5b634e487b7160e01b600052601260045260246000fd5b634e487b7160e01b600052602160045260246000fd5b634e487b7160e01b600052604160045260246000fd5b6001600160a01b03811681146129b857600080fd5b5056fea26469706673582212203c8453bcc1674415075eac36b8d875441f0fce3f7285c698fc2a2235fab6ca8064736f6c63430008040033",
  "linkReferences": {},
  "deployedLinkReferences": {}
}