{
  "_format": "hh-sol-artifact-1",
  "contractName": "FlexFreeInEscrowFundAdapterContract",
  "sourceName": "contracts/flex/adatpers/FlexFreeInEscrowFund.sol",
  "abi": [
    {
      "anonymous": false,
      "inputs": [
        {
          "indexed": false,
          "internalType": "address",
          "name": "dao",
          "type": "address"
        },
        {
          "indexed": false,
          "internalType": "bytes32",
          "name": "proposalId",
          "type": "bytes32"
        },
        {
          "indexed": false,
          "internalType": "address",
          "name": "token",
          "type": "address"
        },
        {
          "indexed": false,
          "internalType": "address",
          "name": "account",
          "type": "address"
        },
        {
          "indexed": false,
          "internalType": "uint256",
          "name": "amount",
          "type": "uint256"
        }
      ],
      "name": "EscrowFund",
      "type": "event"
    },
    {
      "anonymous": false,
      "inputs": [
        {
          "indexed": false,
          "internalType": "address",
          "name": "dao",
          "type": "address"
        },
        {
          "indexed": false,
          "internalType": "bytes32",
          "name": "proposalId",
          "type": "bytes32"
        },
        {
          "indexed": false,
          "internalType": "address",
          "name": "token",
          "type": "address"
        },
        {
          "indexed": false,
          "internalType": "address",
          "name": "account",
          "type": "address"
        },
        {
          "indexed": false,
          "internalType": "uint256",
          "name": "amount",
          "type": "uint256"
        }
      ],
      "name": "WithDraw",
      "type": "event"
    },
    {
      "inputs": [
        {
          "internalType": "contract DaoRegistry",
          "name": "dao",
          "type": "address"
        },
        {
          "internalType": "bytes32",
          "name": "proposalId",
          "type": "bytes32"
        },
        {
          "internalType": "address",
          "name": "token",
          "type": "address"
        },
        {
          "internalType": "address",
          "name": "account",
          "type": "address"
        },
        {
          "internalType": "uint256",
          "name": "amount",
          "type": "uint256"
        }
      ],
      "name": "escrowFundFromFundingPool",
      "outputs": [],
      "stateMutability": "nonpayable",
      "type": "function"
    },
    {
      "inputs": [
        {
          "internalType": "address",
          "name": "",
          "type": "address"
        },
        {
          "internalType": "bytes32",
          "name": "",
          "type": "bytes32"
        },
        {
          "internalType": "address",
          "name": "",
          "type": "address"
        }
      ],
      "name": "escrowFunds",
      "outputs": [
        {
          "internalType": "address",
          "name": "token",
          "type": "address"
        },
        {
          "internalType": "uint128",
          "name": "amount",
          "type": "uint128"
        }
      ],
      "stateMutability": "view",
      "type": "function"
    },
    {
      "inputs": [
        {
          "internalType": "contract DaoRegistry",
          "name": "dao",
          "type": "address"
        },
        {
          "internalType": "bytes32",
          "name": "proposalId",
          "type": "bytes32"
        },
        {
          "internalType": "address",
          "name": "account",
          "type": "address"
        }
      ],
      "name": "getEscrowAmount",
      "outputs": [
        {
          "internalType": "address",
          "name": "",
          "type": "address"
        },
        {
          "internalType": "uint256",
          "name": "",
          "type": "uint256"
        }
      ],
      "stateMutability": "view",
      "type": "function"
    },
    {
      "inputs": [
        {
          "internalType": "contract DaoRegistry",
          "name": "dao",
          "type": "address"
        },
        {
          "internalType": "bytes32",
          "name": "proposalId",
          "type": "bytes32"
        }
      ],
      "name": "withdraw",
      "outputs": [],
      "stateMutability": "nonpayable",
      "type": "function"
    }
  ],
  "bytecode": "0x608060405234801561001057600080fd5b50611003806100206000396000f3fe608060405234801561001057600080fd5b506004361061004b5760003560e01c806275e7eb14610050578063078e209e146100d157806340e5e9aa146100e6578063aa1065af146100f9575b600080fd5b6100ad61005e366004610e1c565b6001600160a01b039283166000908152602081815260408083209483529381528382209285168252919091522080546001909101549116916fffffffffffffffffffffffffffffffff90911690565b604080516001600160a01b0390931683526020830191909152015b60405180910390f35b6100e46100df366004610e30565b61017e565b005b6100e46100f4366004610df1565b6103be565b61014e610107366004610d6b565b60006020818152938152604080822085529281528281209093528252902080546001909101546001600160a01b03909116906fffffffffffffffffffffffffffffffff1682565b604080516001600160a01b0390931683526fffffffffffffffffffffffffffffffff9091166020830152016100c8565b6040517f17ba7d850000000000000000000000000000000000000000000000000000000081527f2207fd6117465cefcba0abc867150698c0464aa41a293ec29ca01b67a6350c3c60048201526001600160a01b038616906317ba7d859060240160206040518083038186803b1580156101f657600080fd5b505afa15801561020a573d6000803e3d6000fd5b505050506040513d601f19601f8201168201806040525081019061022e9190610d4f565b6001600160a01b0316336001600160a01b0316146102935760405162461bcd60e51b815260206004820152600760248201527f216163636573730000000000000000000000000000000000000000000000000060448201526064015b60405180910390fd5b6001600160a01b038086166000908152602081815260408083208884528252808320938616835292905290812060010180548392906102e59084906fffffffffffffffffffffffffffffffff16610f0f565b82546fffffffffffffffffffffffffffffffff9182166101009390930a9283029190920219909116179055506001600160a01b0385811660008181526020818152604080832089845282528083208786168085529083529281902080549589167fffffffffffffffffffffffff00000000000000000000000000000000000000009096168617905580519384529083018890528281019390935260608201526080810183905290517f6615005a467e8e6e22cc4a4839cbc0e4d364ba01355634056c7706a0931cfc749181900360a00190a15050505050565b8160006103ca8261064e565b6001600160a01b038516600090815260208181526040808320878452825280832033845290915290206001810154919250906fffffffffffffffffffffffffffffffff1661045a5760405162461bcd60e51b815260206004820152601360248201527f6e6f2066756e6420746f20776974686472617700000000000000000000000000604482015260640161028a565b600181015481546040517f70a082310000000000000000000000000000000000000000000000000000000081523060048201526fffffffffffffffffffffffffffffffff9092169182916001600160a01b0316906370a082319060240160206040518083038186803b1580156104cf57600080fd5b505afa1580156104e3573d6000803e3d6000fd5b505050506040513d601f19601f820116820180604052508101906105079190610e8a565b10156105a35781546040517f70a082310000000000000000000000000000000000000000000000000000000081523060048201526001600160a01b03909116906370a082319060240160206040518083038186803b15801561056857600080fd5b505afa15801561057c573d6000803e3d6000fd5b505050506040513d601f19601f820116820180604052508101906105a09190610e8a565b90505b81546105b9906001600160a01b03163383610919565b6001820180547fffffffffffffffffffffffffffffffff000000000000000000000000000000001690558154604080516001600160a01b038981168252602082018990529092168282015233606083015260808201839052517f4faaa152d666332605a6823df828fb0aff5d07a85db7bb3a7076925b73587e929181900360a00190a15050610648828261099e565b50505050565b6040805160808101825260008082526020820181905291810182905260608101919091525a81600001818152505043826001600160a01b031663b21634826040518163ffffffff1660e01b815260040160206040518083038186803b1580156106b657600080fd5b505afa1580156106ca573d6000803e3d6000fd5b505050506040513d601f19601f820116820180604052508101906106ee9190610e8a565b141561073c5760405162461bcd60e51b815260206004820152601060248201527f7265656e7472616e637920677561726400000000000000000000000000000000604482015260640161028a565b816001600160a01b03166310fdb0a26040518163ffffffff1660e01b8152600401600060405180830381600087803b15801561077757600080fd5b505af115801561078b573d6000803e3d6000fd5b50506040517f72c6838f0000000000000000000000000000000000000000000000000000000081527f1f2fd42ad6a6cacd573c4b212beb7a4e2499ad45d742a65337097f130e71daff6004820152600092506001600160a01b03851691506372c6838f9060240160206040518083038186803b15801561080a57600080fd5b505afa15801561081e573d6000803e3d6000fd5b505050506040513d601f19601f820116820180604052508101906108429190610d4f565b90506001600160a01b03811661085e5760006020830152610913565b6001600160a01b038181166060840181905283516040517f43a8a3f1000000000000000000000000000000000000000000000000000000008152928616600484015260248301526000918291906343a8a3f190604401604080518083038186803b1580156108cb57600080fd5b505afa1580156108df573d6000803e3d6000fd5b505050506040513d601f19601f820116820180604052508101906109039190610dc6565b9015156020860152604085015250505b50919050565b604080516001600160a01b038416602482015260448082018490528251808303909101815260649091019091526020810180517bffffffffffffffffffffffffffffffffffffffffffffffffffffffff167fa9059cbb000000000000000000000000000000000000000000000000000000001790526109999084906109ad565b505050565b6109a9828233610a92565b5050565b6000610a02826040518060400160405280602081526020017f5361666545524332303a206c6f772d6c6576656c2063616c6c206661696c6564815250856001600160a01b0316610ba09092919063ffffffff16565b8051909150156109995780806020019051810190610a209190610dac565b6109995760405162461bcd60e51b815260206004820152602a60248201527f5361666545524332303a204552433230206f7065726174696f6e20646964206e60448201527f6f74207375636365656400000000000000000000000000000000000000000000606482015260840161028a565b816020015115610b485781606001516001600160a01b0316635e5eb01384835a8651610abe9190610f43565b60408088015190517fffffffff0000000000000000000000000000000000000000000000000000000060e087901b1681526001600160a01b03948516600482015293909216602484015260448301526064820152608401600060405180830381600087803b158015610b2f57600080fd5b505af1158015610b43573d6000803e3d6000fd5b505050505b826001600160a01b031663d4f7af436040518163ffffffff1660e01b8152600401600060405180830381600087803b158015610b8357600080fd5b505af1158015610b97573d6000803e3d6000fd5b50505050505050565b6060610baf8484600085610bb9565b90505b9392505050565b606082471015610c315760405162461bcd60e51b815260206004820152602660248201527f416464726573733a20696e73756666696369656e742062616c616e636520666f60448201527f722063616c6c0000000000000000000000000000000000000000000000000000606482015260840161028a565b6001600160a01b0385163b610c885760405162461bcd60e51b815260206004820152601d60248201527f416464726573733a2063616c6c20746f206e6f6e2d636f6e7472616374000000604482015260640161028a565b600080866001600160a01b03168587604051610ca49190610ea2565b60006040518083038185875af1925050503d8060008114610ce1576040519150601f19603f3d011682016040523d82523d6000602084013e610ce6565b606091505b5091509150610cf6828286610d01565b979650505050505050565b60608315610d10575081610bb2565b825115610d205782518084602001fd5b8160405162461bcd60e51b815260040161028a9190610ebe565b80518015158114610d4a57600080fd5b919050565b600060208284031215610d60578081fd5b8151610bb281610fb5565b600080600060608486031215610d7f578182fd5b8335610d8a81610fb5565b9250602084013591506040840135610da181610fb5565b809150509250925092565b600060208284031215610dbd578081fd5b610bb282610d3a565b60008060408385031215610dd8578182fd5b610de183610d3a565b9150602083015190509250929050565b60008060408385031215610e03578182fd5b8235610e0e81610fb5565b946020939093013593505050565b600080600060608486031215610d7f578283fd5b600080600080600060a08688031215610e47578081fd5b8535610e5281610fb5565b9450602086013593506040860135610e6981610fb5565b92506060860135610e7981610fb5565b949793965091946080013592915050565b600060208284031215610e9b578081fd5b5051919050565b60008251610eb4818460208701610f5a565b9190910192915050565b6020815260008251806020840152610edd816040850160208701610f5a565b601f017fffffffffffffffffffffffffffffffffffffffffffffffffffffffffffffffe0169190910160400192915050565b60006fffffffffffffffffffffffffffffffff808316818516808303821115610f3a57610f3a610f86565b01949350505050565b600082821015610f5557610f55610f86565b500390565b60005b83811015610f75578181015183820152602001610f5d565b838111156106485750506000910152565b7f4e487b7100000000000000000000000000000000000000000000000000000000600052601160045260246000fd5b6001600160a01b0381168114610fca57600080fd5b5056fea26469706673582212208b18e5bbb54224e54e6b8cceebabe840e8b6a356eaa5448be51f7ebba6a0687264736f6c63430008040033",
  "linkReferences": {},
  "deployedLinkReferences": {}
}