{
  "_format": "hh-sol-artifact-1",
  "contractName": "FlexVestingERC721Helper",
  "sourceName": "contracts/flex/adatpers/FlexVestingERC721Helper.sol",
  "abi": [
    {
      "inputs": [
        {
          "internalType": "uint256",
          "name": "tokenId",
          "type": "uint256"
        },
        {
          "internalType": "address",
          "name": "vestingContAdddr",
          "type": "address"
        }
      ],
      "name": "getSvg",
      "outputs": [
        {
          "internalType": "string",
          "name": "",
          "type": "string"
        }
      ],
      "stateMutability": "view",
      "type": "function"
    }
  ],
  "bytecode": "0x608060405234801561001057600080fd5b50613ceb806100206000396000f3fe608060405234801561001057600080fd5b506004361061002b5760003560e01c8063f5f35a9a14610030575b600080fd5b61004361003e366004612530565b610059565b6040516100509190613af2565b60405180910390f35b6040517f2c29e19600000000000000000000000000000000000000000000000000000000815230600482015260248101839052606090829060009073ffffffffffffffffffffffffffffffffffffffff831690632c29e1969060440160206040518083038186803b1580156100cd57600080fd5b505afa1580156100e1573d6000803e3d6000fd5b505050506040513d601f19601f820116820180604052508101906101059190612518565b90506000808373ffffffffffffffffffffffffffffffffffffffff166351def556846040518263ffffffff1660e01b815260040161014591815260200190565b60006040518083038186803b15801561015d57600080fd5b505afa158015610171573d6000803e3d6000fd5b505050506040513d6000823e601f3d908101601f1916820160405261019991908101906123df565b975050965050505050506000808573ffffffffffffffffffffffffffffffffffffffff16637a4334e2308b6040518363ffffffff1660e01b815260040161020292919073ffffffffffffffffffffffffffffffffffffffff929092168252602082015260400190565b60606040518083038186803b15801561021a57600080fd5b505afa15801561022e573d6000803e3d6000fd5b505050506040513d601f19601f82011682018060405250810190610252919061255f565b9250925050610362836080015173ffffffffffffffffffffffffffffffffffffffff166395d89b416040518163ffffffff1660e01b815260040160006040518083038186803b1580156102a457600080fd5b505afa1580156102b8573d6000803e3d6000fd5b505050506040513d6000823e601f3d908101601f191682016040526102e091908101906124e5565b84608001516040518060a0016040528086670de0b6b3a76400006103049190613ba2565b815260200161031b86670de0b6b3a7640000613ba2565b8152602001886060015163ffffffff168152602001886040015189600001516103449190613b66565b63ffffffff168152602001886020015163ffffffff16815250610371565b96505050505050505b92915050565b606061037e848484610386565b949350505050565b6060610390610497565b61039a85856104ce565b83516103a7908790610550565b6103af6105af565b61046b6040518060800160405280886003600581106103de57634e487b7160e01b600052603260045260246000fd5b602002015181526020018860046005811061040957634e487b7160e01b600052603260045260246000fd5b602002015181526020018860026005811061043457634e487b7160e01b600052603260045260246000fd5b602002015181526020018860016005811061045f57634e487b7160e01b600052603260045260246000fd5b602002015190526105c0565b60405160200161047f95949392919061264d565b60405160208183030381529060405290509392505050565b60606104a161072e565b6104a96108ba565b6040516020016104ba9291906139ff565b604051602081830303815290604052905090565b606060006104f38373ffffffffffffffffffffffffffffffffffffffff166014610a6e565b84604051602001610505929190612927565b604051602081830303815290604052905061051e610d02565b61052782611016565b604051602001610538929190613510565b60405160208183030381529060405291505092915050565b6060600061055d83611041565b90506000846040516020016105729190612bfd565b6040516020818303038152906040529050808260405160200161059692919061302e565b6040516020818303038152906040529250505092915050565b60606040516020016104ba906135bb565b606061060a60405180610100016040528060608152602001606081526020016000815260200160008152602001600081526020016060815260200160608152602001606081525090565b8251602084015161061b91906117ed565b8152606083015161062b90611041565b6020820152825161063b90611912565b608084015260608301819052604083019190915261065890611931565b6106658260800151611931565b6106728360400151611931565b6040516020016106849392919061297f565b60408051601f1981840301815291905260c08201526106a98360026020020151611a7f565b60e08201526106b6611c57565b6106c38260200151611d70565b6106cb611d83565b83516106d690611e76565b6106de611e89565b6106eb8660c00151611f7c565b6106f3611f8f565b6107008860e001516120a8565b6040516020016107179897969594939291906125a8565b604051602081830303815290604052915050919050565b6040517f3c646566733e000000000000000000000000000000000000000000000000000060208201527f3c636c6970506174682069643d22636f726e657273223e3c726563742077696460268201527f74683d2232393022206865696768743d22353030222072783d2234322220727960468201527f3d22343222202f3e3c2f636c6970506174683e0000000000000000000000000060668201527f3c706174682069643d22746578742d706174682d612220643d224d343020313260798201527f204832353020413238203238203020302031203237382034302056343630204160998201527f323820323820302030203120323530203438382048343020413238203238203060b98201527f203020312031322034363020563430204132382032382030203020312034302060d98201527f3132207a22202f3e00000000000000000000000000000000000000000000000060f98201527f3c2f646566733e00000000000000000000000000000000000000000000000000610101820152606090610108016104ba565b6040517f3c6720636c69702d706174683d2275726c2823636f726e65727329223e00000060208201527f3c726563742066696c6c3d226261373937302220783d223070782220793d2230603d8201527f7078222077696474683d22323930707822206865696768743d22353030707822605d8201527f202f3e0000000000000000000000000000000000000000000000000000000000607d8201527f3c67207374796c653d2266696c7465723a75726c2823746f702d726567696f6e60808201527f2d626c7572293b207472616e73666f726d3a7363616c6528312e35293b20747260a08201527f616e73666f726d2d6f726967696e3a63656e74657220746f703b223e3c72656360c08201527f742066696c6c3d226e6f6e652220783d223070782220793d223070782220776960e08201527f6474683d22323930707822206865696768743d22353030707822202f3e203c2f6101008201527f673e0000000000000000000000000000000000000000000000000000000000006101208201527f3c2f673e00000000000000000000000000000000000000000000000000000000610122820152606090610126016104ba565b60606000610a7d836002613ba2565b610a88906002613b4e565b67ffffffffffffffff811115610aae57634e487b7160e01b600052604160045260246000fd5b6040519080825280601f01601f191660200182016040528015610ad8576020820181803683370190505b5090507f300000000000000000000000000000000000000000000000000000000000000081600081518110610b1d57634e487b7160e01b600052603260045260246000fd5b60200101907effffffffffffffffffffffffffffffffffffffffffffffffffffffffffffff1916908160001a9053507f780000000000000000000000000000000000000000000000000000000000000081600181518110610b8e57634e487b7160e01b600052603260045260246000fd5b60200101907effffffffffffffffffffffffffffffffffffffffffffffffffffffffffffff1916908160001a9053506000610bca846002613ba2565b610bd5906001613b4e565b90505b6001811115610c8e577f303132333435363738396162636465660000000000000000000000000000000085600f1660108110610c2457634e487b7160e01b600052603260045260246000fd5b1a60f81b828281518110610c4857634e487b7160e01b600052603260045260246000fd5b60200101907effffffffffffffffffffffffffffffffffffffffffffffffffffffffffffff1916908160001a90535060049490941c93610c8781613c08565b9050610bd8565b508315610cfb576040517f08c379a000000000000000000000000000000000000000000000000000000000815260206004820181905260248201527f537472696e67733a20686578206c656e67746820696e73756666696369656e74604482015260640160405180910390fd5b9392505050565b60606040516020016104ba907f3c74657874506174682073746172744f66667365743d222d313030252220666981527f6c6c3d2277686974652220666f6e742d66616d696c793d2227436f757269657260208201527f204e6577272c206d6f6e6f73706163652220666f6e742d73697a653d2231307060408201527f782220786c696e6b3a687265663d2223746578742d706174682d61223e44414f60608201527f53717561726520496e63756261746f722056656e747572652044414f2056657360808201527f74696e673c616e696d6174652061646469746976653d2273756d22206174747260a08201527f69627574654e616d653d2273746172744f6666736574222066726f6d3d22302560c08201527f2220746f3d22313030252220626567696e3d22307322206475723d223330732260e08201527f20726570656174436f756e743d22696e646566696e69746522202f3e3c2f74656101008201527f7874506174683e000000000000000000000000000000000000000000000000006101208201527f3c74657874506174682073746172744f66667365743d223025222066696c6c3d6101278201527f2277686974652220666f6e742d66616d696c793d2227436f7572696572204e656101478201527f77272c206d6f6e6f73706163652220666f6e742d73697a653d223130707822206101678201527f786c696e6b3a687265663d2223746578742d706174682d61223e44414f5371756101878201527f61726520496e63756261746f722056656e747572652044414f2056657374696e6101a78201527f673c616e696d6174652061646469746976653d2273756d2220617474726962756101c78201527f74654e616d653d2273746172744f6666736574222066726f6d3d2230252220746101e78201527f6f3d22313030252220626567696e3d22307322206475723d22333073222072656102078201527f70656174436f756e743d22696e646566696e69746522202f3e203c2f746578746102278201527f506174683e00000000000000000000000000000000000000000000000000000061024782015261024c0190565b6060818260405160200161102b929190612d46565b6040516020818303038152906040529050919050565b60606000806000806000683635c9adc5dea000008710156112355761106d66038d7ea4c6800088613b8e565b945061107c620186a086613b8e565b9350611090670de0b6b3a764000088613b8e565b9350600a60646103e86110ab67016345785d8a00008b613b8e565b6110b59190613c3a565b6110bf9190613c3a565b6110c99190613c3a565b9250600a60646103e86127106110e6662386f26fc100008c613b8e565b6110f09190613c3a565b6110fa9190613c3a565b6111049190613c3a565b61110e9190613c3a565b9150600a60646103e8612710620186a061112f66038d7ea4c680008d613b8e565b6111399190613c3a565b6111439190613c3a565b61114d9190613c3a565b6111579190613c3a565b6111619190613c3a565b9050600181106112085760098210156111865761117f600183613b4e565b9150611208565b6000915060098310156111a55761119e600184613b4e565b9250611208565b600092506103e784106111fa576040517f312e30304b00000000000000000000000000000000000000000000000000000060208201526025015b60405160208183030381529060405295505050505050919050565b611205600185613b4e565b93505b61121184611931565b61121a84611931565b61122384611931565b6040516020016111df939291906126e0565b683635c9adc5dea000008710158015611257575069d3c21bcecceda100000087105b156114065761126f683635c9adc5dea0000088613b8e565b9450606461127f866103e8613ba2565b611291670de0b6b3a76400008a613b8e565b61129b9190613bc1565b6112a59190613b8e565b9350600a6112b4856064613ba2565b6112c0876103e8613ba2565b6112d2670de0b6b3a76400008b613b8e565b6112dc9190613bc1565b6112e69190613bc1565b6112f09190613b8e565b92506112fd83600a613ba2565b611308856064613ba2565b611314876103e8613ba2565b611326670de0b6b3a76400008b613b8e565b6113309190613bc1565b61133a9190613bc1565b6113449190613bc1565b9150600182106113d957600983101561136957611362600184613b4e565b92506113d9565b60009250600984101561138857611381600185613b4e565b93506113d9565b600093506103e78510156113a8576113a1600186613b4e565b94506113d9565b6040517f312e30304d00000000000000000000000000000000000000000000000000000060208201526025016111df565b6113e285611931565b6113eb85611931565b6113f485611931565b6040516020016111df939291906128aa565b69d3c21bcecceda1000000871015801561142b57506b033b2e3c9fd0803ce800000087105b1561157a57611442670de0b6b3a764000088613b8e565b9450620f424061145a670de0b6b3a764000089613b8e565b6114649190613b8e565b9350620186a0611477620f424087613c3a565b6114819190613b8e565b9250612710611493620186a087613c3a565b61149d9190613b8e565b91506103e86114ae61271087613c3a565b6114b89190613b8e565b90506001811061154d5760098210156114dd576114d6600183613b4e565b915061154d565b6000915060098310156114fc576114f5600184613b4e565b925061154d565b600092506103e784101561151c57611515600186613b4e565b945061154d565b6040517f312e30304200000000000000000000000000000000000000000000000000000060208201526025016111df565b61155684611931565b61155f84611931565b61156884611931565b6040516020016111df939291906127b0565b6b033b2e3c9fd0803ce800000087101580156115a257506c0c9f2c9cd04674edea4000000087105b156116e5576115b9670de0b6b3a764000088613b8e565b94506115c9633b9aca0086613b8e565b93506305f5e1006115de633b9aca0087613c3a565b6115e89190613b8e565b9250629896806115fc6305f5e10087613c3a565b6116069190613b8e565b9150620f42406116196298968087613c3a565b6116239190613b8e565b9050600181106116b857600982101561164857611641600183613b4e565b91506116b8565b60009150600983101561166757611660600184613b4e565b92506116b8565b600092506103e784101561168757611680600185613b4e565b93506116b8565b6040517f312e30305400000000000000000000000000000000000000000000000000000060208201526025016111df565b6116c184611931565b6116ca84611931565b6116d384611931565b6040516020016111df93929190612733565b6116f7670de0b6b3a764000088613b8e565b945061170864e8d4a5100086613b8e565b935064174876e80061171f64e8d4a5100087613c3a565b6117299190613b8e565b92506402540be40061174064174876e80087613c3a565b61174a9190613b8e565b9150633b9aca006117606402540be40087613c3a565b61176a9190613b8e565b9050600181106117c057600982101561178f57611788600183613b4e565b91506117c0565b6000915060098310156117ae576117a7600184613b4e565b92506117c0565b600092506117bd600185613b4e565b93505b6117c984611931565b6117d284611931565b6117db84611931565b6040516020016111df9392919061282d565b60606000831180156117fe57508242105b15611846576040517f4c6f636b7570000000000000000000000000000000000000000000000000000060208201526026015b604051602081830303815290604052905061036b565b824211801561185457508142105b1561188a576040517f52656c656173696e6700000000000000000000000000000000000000000000006020820152602901611830565b81421180156118995750600082115b156118cf576040517f456e6400000000000000000000000000000000000000000000000000000000006020820152602301611830565b6040517f556e6b6e6f7700000000000000000000000000000000000000000000000000006020820152602601604051602081830303815290604052905092915050565b600080806119246201518085046120bb565b9196909550909350915050565b60608161197157505060408051808201909152600181527f3000000000000000000000000000000000000000000000000000000000000000602082015290565b8160005b811561199b578061198581613c1f565b91506119949050600a83613b8e565b9150611975565b60008167ffffffffffffffff8111156119c457634e487b7160e01b600052604160045260246000fd5b6040519080825280601f01601f1916602001820160405280156119ee576020820181803683370190505b5090505b841561037e57611a03600183613bc1565b9150611a10600a86613c3a565b611a1b906030613b4e565b60f81b818381518110611a3e57634e487b7160e01b600052603260045260246000fd5b60200101907effffffffffffffffffffffffffffffffffffffffffffffffffffffffffffff1916908160001a905350611a78600a86613b8e565b94506119f2565b606081610e101415611abc576040517f486f757273000000000000000000000000000000000000000000000000000000602082015260250161102b565b81620151801415611af8576040517f4461797300000000000000000000000000000000000000000000000000000000602082015260240161102b565b8162093a801415611b34576040517f5765656b73000000000000000000000000000000000000000000000000000000602082015260250161102b565b8162278d001415611b70576040517f4d6f6e7468730000000000000000000000000000000000000000000000000000602082015260260161102b565b816301e133801415611bad576040517f5965617273000000000000000000000000000000000000000000000000000000602082015260250161102b565b81603c1415611be7576040517f4d696e7574657300000000000000000000000000000000000000000000000000602082015260270161102b565b8160011415611c21576040517f5365636f6e647300000000000000000000000000000000000000000000000000602082015260270161102b565b6040517f556e6b6e6f770000000000000000000000000000000000000000000000000000602082015260260161102b565b919050565b60606040516020016104ba907f3c67206d61736b3d2275726c2823666164652d73796d626f6c29223e3c74657881527f742066696c6c3d2277686974652220786d6c3a73706163653d2270726573657260208201527f766522207374796c653d2277686974652d73706163653a207072652220666f6e60408201527f742d66616d696c793d22436f7572696572204e65772220666f6e742d73697a6560608201527f3d22313222206c65747465722d73706163696e673d2230656d223e3c7473706160808201527f6e20783d2233322220793d223338312e313933223e546f74616c3c2f7473706160a08201527f6e3e3c2f746578743e000000000000000000000000000000000000000000000060c082015260c90190565b60608160405160200161102b9190612af9565b60606040516020016104ba907f3c746578742066696c6c3d2277686974652220786d6c3a73706163653d22707281527f65736572766522207374796c653d2277686974652d73706163653a207072652260208201527f20666f6e742d66616d696c793d22436f7572696572204e65772220666f6e742d60408201527f73697a653d22313222206c65747465722d73706163696e673d2230656d223e3c60608201527f747370616e20783d223135342220793d223338312e313933223e53746174653c60808201527f2f747370616e3e3c2f746578743e00000000000000000000000000000000000060a082015260ae0190565b60608160405160200161102b9190612c42565b60606040516020016104ba907f3c746578742066696c6c3d2277686974652220786d6c3a73706163653d22707281527f65736572766522207374796c653d2277686974652d73706163653a207072652260208201527f20666f6e742d66616d696c793d22436f7572696572204e65772220666f6e742d60408201527f73697a653d22313222206c65747465722d73706163696e673d2230656d223e3c60608201527f747370616e20783d2233322220793d223433332e313933223e436c61696d205360808201527f746172743c2f747370616e3e3c2f746578743e0000000000000000000000000060a082015260b30190565b60608160405160200161102b9190613440565b60606040516020016104ba907f3c6720636c69702d706174683d2275726c2823636c6970315f31373331365f3381527f3937303429223e3c746578742066696c6c3d2277686974652220786d6c3a737060208201527f6163653d22707265736572766522207374796c653d2277686974652d7370616360408201527f653a207072652220666f6e742d66616d696c793d22436f7572696572204e657760608201527f2220666f6e742d73697a653d22313222206c65747465722d73706163696e673d60808201527f2230656d223e3c747370616e20783d223135342220793d223433332e3139332260a08201527f3e496e74657276616c3c2f747370616e3e3c2f746578743e000000000000000060c082015260d80190565b60608160405160200161102b91906129f5565b60008080836226496581018262023ab1600483020590506004600362023ab18302010590910390600062164b09610fa0600185010205905060046105b58202058303601f019250600061098f846050028161212657634e487b7160e01b600052601260045260246000fd5b0590506000605061098f83020585039050600b82057fffffffffffffffffffffffffffffffffffffffffffffffffffffffffffffffcf94909401606402929092018301996002600c90940290910392909201975095509350505050565b8051611c5281613c90565b600082601f83011261219e578081fd5b815167ffffffffffffffff808211156121b9576121b9613c7a565b604051601f8301601f19908116603f011681019082821181831017156121e1576121e1613c7a565b816040528381528660208588010111156121f9578485fd5b61220a846020830160208901613bd8565b9695505050505050565b600060808284031215612225578081fd5b6040516080810181811067ffffffffffffffff8211171561224857612248613c7a565b604052905080612257836123cb565b8152612265602084016123cb565b6020820152612276604084016123cb565b6040820152612287606084016123cb565b60608201525092915050565b600060a082840312156122a4578081fd5b60405160a0810167ffffffffffffffff82821081831117156122c8576122c8613c7a565b8160405282935084519150808211156122e057600080fd5b6122ec8683870161218e565b8352602085015191508082111561230257600080fd5b5061230f8582860161218e565b602083015250604083015161232381613c90565b604082015261233460608401612183565b606082015261234560808401612183565b60808201525092915050565b600060408284031215612362578081fd5b6040516040810181811067ffffffffffffffff8211171561238557612385613c7a565b8060405250809150825161239881613c90565b8152602092830151920191909152919050565b80516fffffffffffffffffffffffffffffffff81168114611c5257600080fd5b805163ffffffff81168114611c5257600080fd5b600080600080600080600080888a036101c08112156123fc578485fd5b895161240781613c90565b60208b0151909950975061241d60408b016123ab565b965060608a0151955060607fffffffffffffffffffffffffffffffffffffffffffffffffffffffffffffff8082011215612455578485fd5b5061245e613b25565b61246a60808b016123cb565b815261247860a08b016123ab565b602082015261248960c08b016123ab565b6040820152935061249d8a60e08b01612214565b92506124ad8a6101608b01612351565b91506101a089015167ffffffffffffffff8111156124c9578182fd5b6124d58b828c01612293565b9150509295985092959890939650565b6000602082840312156124f6578081fd5b815167ffffffffffffffff81111561250c578182fd5b61037e8482850161218e565b600060208284031215612529578081fd5b5051919050565b60008060408385031215612542578182fd5b82359150602083013561255481613c90565b809150509250929050565b600080600060608486031215612573578283fd5b8351925060208401519150604084015190509250925092565b6000815161259e818560208601613bd8565b9290920192915050565b6000895160206125bb8285838f01613bd8565b8a51918401916125ce8184848f01613bd8565b8a519201916125e08184848e01613bd8565b89519201916125f28184848d01613bd8565b88519201916126048184848c01613bd8565b87519201916126168184848b01613bd8565b86519201916126288184848a01613bd8565b855192019161263a8184848901613bd8565b919091019b9a5050505050505050505050565b6000865161265f818460208b01613bd8565b865190830190612673818360208b01613bd8565b8651910190612686818360208a01613bd8565b8551910190612699818360208901613bd8565b84519101906126ac818360208801613bd8565b7f3c2f7376673e00000000000000000000000000000000000000000000000000009101908152600601979650505050505050565b600084516126f2818460208901613bd8565b601760f91b9083019081528451612710816001840160208901613bd8565b8451910190612726816001840160208801613bd8565b0160010195945050505050565b60008451612745818460208901613bd8565b601760f91b9083019081528451612763816001840160208901613bd8565b8451910190612779816001840160208801613bd8565b7f42000000000000000000000000000000000000000000000000000000000000006001929091019182015260020195945050505050565b600084516127c2818460208901613bd8565b601760f91b90830190815284516127e0816001840160208901613bd8565b84519101906127f6816001840160208801613bd8565b7f4d000000000000000000000000000000000000000000000000000000000000006001929091019182015260020195945050505050565b6000845161283f818460208901613bd8565b601760f91b908301908152845161285d816001840160208901613bd8565b8451910190612873816001840160208801613bd8565b7f54000000000000000000000000000000000000000000000000000000000000006001929091019182015260020195945050505050565b600084516128bc818460208901613bd8565b601760f91b90830190815284516128da816001840160208901613bd8565b84519101906128f0816001840160208801613bd8565b7f4b000000000000000000000000000000000000000000000000000000000000006001929091019182015260020195945050505050565b60008351612939818460208801613bd8565b7f20e280a2200000000000000000000000000000000000000000000000000000009083019081528351612973816005840160208801613bd8565b01600501949350505050565b60008451612991818460208901613bd8565b80830190507f2f0000000000000000000000000000000000000000000000000000000000000080825285516129cd816001850160208a01613bd8565b600192019182015283516129e8816002840160208801613bd8565b0160020195945050505050565b7f3c746578742066696c6c3d22233933373446462220786d6c3a73706163653d2281527f707265736572766522207374796c653d2277686974652d73706163653a20707260208201527f652220666f6e742d66616d696c793d22436f7572696572204e65772220666f6e60408201527f742d73697a653d22313222206c65747465722d73706163696e673d2230656d2260608201527f3e3c747370616e20783d223135342220793d223435312e313933223e00000000608082015260008251612ac581609c850160208701613bd8565b7f3c2f747370616e3e3c2f746578743e3c2f673e3c2f673e000000000000000000609c93909101928301525060b301919050565b7f3c746578742066696c6c3d22233933373446462220786d6c3a73706163653d2281527f707265736572766522207374796c653d2277686974652d73706163653a20707260208201527f652220666f6e742d66616d696c793d22436f7572696572204e65772220666f6e60408201527f742d73697a653d22313222206c65747465722d73706163696e673d2230656d2260608201527f3e3c747370616e20783d2233322220793d223339392e313933223e0000000000608082015260008251612bc981609b850160208701613bd8565b7f3c2f747370616e3e3c2f746578743e0000000000000000000000000000000000609b93909101928301525060aa01919050565b7f2400000000000000000000000000000000000000000000000000000000000000815260008251612c35816001850160208701613bd8565b9190910160010192915050565b7f3c746578742066696c6c3d22233933373446462220786d6c3a73706163653d2281527f707265736572766522207374796c653d2277686974652d73706163653a20707260208201527f652220666f6e742d66616d696c793d22436f7572696572204e65772220666f6e60408201527f742d73697a653d22313222206c65747465722d73706163696e673d2230656d2260608201527f3e3c747370616e20783d223135342220793d223339392e313933223e00000000608082015260008251612d1281609c850160208701613bd8565b7f3c2f747370616e3e3c2f746578743e0000000000000000000000000000000000609c93909101928301525060ab01919050565b7f3c74657874506174682073746172744f66667365743d22353025222066696c6c81527f3d2277686974652220666f6e742d66616d696c793d2227436f7572696572204e60208201527f6577272c206d6f6e6f73706163652220666f6e742d73697a653d22313070782260408201527f20786c696e6b3a687265663d2223746578742d706174682d61223e0000000000606082015260008351612df081607b850160208801613bd8565b612eba607b828501017f3c616e696d6174652061646469746976653d2273756d2220617474726962757481527f654e616d653d2273746172744f6666736574222066726f6d3d2230252220746f60208201527f3d22313030252220626567696e3d22307322206475723d22333073222072657060408201527f656174436f756e743d22696e646566696e69746522202f3e3c2f74657874506160608201527f74683e0000000000000000000000000000000000000000000000000000000000608082015260830190565b90507f3c74657874506174682073746172744f66667365743d222d353025222066696c81527f6c3d2277686974652220666f6e742d66616d696c793d2227436f75726965722060208201527f4e6577272c206d6f6e6f73706163652220666f6e742d73697a653d223130707860408201527f2220786c696e6b3a687265663d2223746578742d706174682d61223e0000000060608201528351612f6481607c840160208801613bd8565b61220a607c828401017f3c616e696d6174652061646469746976653d2273756d2220617474726962757481527f654e616d653d2273746172744f6666736574222066726f6d3d2230252220746f60208201527f3d22313030252220626567696e3d22307322206475723d22333073222072657060408201527f656174436f756e743d22696e646566696e69746522202f3e3c2f74657874506160608201527f74683e0000000000000000000000000000000000000000000000000000000000608082015260830190565b7f3c67206d61736b3d2275726c2823666164652d73796d626f6c29223e00000000815260007f3c746578742066696c6c3d2277686974652220786d6c3a73706163653d22707280601c8401527f65736572766522207374796c653d2277686974652d73706163653a207072652280603c8501527f20666f6e742d66616d696c793d2227436f7572696572204e6577272220666f6e80605c8601527f742d73697a653d2233362220666f6e742d7765696768743d22373022206c6574607c8601527f7465722d73706163696e673d2230656d223e3c747370616e20783d2233322220609c8601527f793d2236342e30383031223e000000000000000000000000000000000000000060bc860152865161314d8160c8880160208b01613bd8565b80860190507f3c2f747370616e3e3c2f746578743e000000000000000000000000000000000060c88201528360d78201528260f7820152816101178201527f742d73697a653d2231362220666f6e742d7765696768743d22323022206c65746101378201527f7465722d73706163696e673d2230656d223e3c747370616e20783d22313239226101578201527f20793d2235382e37353738223e3c2f747370616e3e3c2f746578743e000000006101778201526134346133276132fe6132f861019385017f3c746578742066696c6c3d22233933373446462220786d6c3a73706163653d2281527f707265736572766522207374796c653d2277686974652d73706163653a20707260208201527f652220666f6e742d66616d696c793d2227436f7572696572204e65772722206660408201527f6f6e742d73697a653d2233362220666f6e742d7765696768743d22333022206c60608201527f65747465722d73706163696e673d2230656d223e3c747370616e20783d22333260808201527f2220793d223130392e3038223e0000000000000000000000000000000000000060a082015260ad0190565b8a61258c565b7f3c2f747370616e3e3c2f746578743e00000000000000000000000000000000008152600f0190565b7f3c746578742066696c6c3d2277686974652220786d6c3a73706163653d22707281527f65736572766522207374796c653d2277686974652d73706163653a207072652260208201527f20666f6e742d66616d696c793d2227436f7572696572204e6577272220666f6e60408201527f742d73697a653d2231362220666f6e742d7765696768743d22323022206c657460608201527f7465722d73706163696e673d2230656d223e3c747370616e20783d223332222060808201527f793d223133392e3038223e52656d61696e696e6720546f20426520436c61696d60a08201527f65643c2f747370616e3e3c2f746578743e3c2f673e000000000000000000000060c082015260d50190565b98975050505050505050565b7f3c746578742066696c6c3d22233933373446462220786d6c3a73706163653d2281527f707265736572766522207374796c653d2277686974652d73706163653a20707260208201527f652220666f6e742d66616d696c793d22436f7572696572204e65772220666f6e60408201527f742d73697a653d22313222206c65747465722d73706163696e673d2230656d2260608201527f3e3c747370616e20783d2233322220793d223435312e313933223e0000000000608082015260008251612bc981609b850160208701613bd8565b7f3c7465787420746578742d72656e646572696e673d226f7074696d697a65537081527f656564223e00000000000000000000000000000000000000000000000000000060208201526000835161356e816025850160208801613bd8565b835190830190613585816025840160208801613bd8565b7f3c2f746578743e0000000000000000000000000000000000000000000000000060259290910191820152602c01949350505050565b7f3c6c696e6561724772616469656e742069643d227061696e74335f6c696e656181527f725f31373331365f3339373034222078313d223635222079313d22313838222060208201527f78323d223135382e333939222079323d223237332e313634222067726164696560408201527f6e74556e6974733d227573657253706163654f6e557365223e3c73746f70207360608201527f746f702d636f6c6f723d2223393337344646222073746f702d6f70616369747960808201527f3d22302e33222f3e3c73746f70206f66667365743d2231222073746f702d636f60a08201527f6c6f723d2223393337344646222073746f702d6f7061636974793d2230222f3e60c08201527f3c2f6c696e6561724772616469656e743e00000000000000000000000000000060e08201527f3c7265637420783d2231362220793d223136222077696474683d22323538222060f18201527f6865696768743d22343638222072783d223236222072793d223236222066696c6101118201527f6c3d227267626128302c302c302c302922207374726f6b653d227267626128326101318201527f35352c3235352c3235352c302e3229222f3e00000000000000000000000000006101518201527f3c6d61736b2069643d22706174682d31342d696e736964652d315f31373331366101638201527f5f3339373034222066696c6c3d227768697465223e3c7061746820643d224d366101838201527f35203138384832323556333136483635563138385a222f3e3c2f6d61736b3e006101a38201527f3c7061746820643d224d3635203138384832323556333136483635563138385a6101c28201527f222066696c6c3d2275726c28237061696e74335f6c696e6561725f31373331366101e28201527f5f333937303429222f3e000000000000000000000000000000000000000000006102028201527f3c7061746820643d224d36352031383856313837483634563138384836355a4d61020c8201527f3635203138394832323556313837483635563138395a4d36362033313656313861022c8201527f38483634563331364836365a222066696c6c3d222339333734464622206d617361024c8201527f6b3d2275726c2823706174682d31342d696e736964652d315f31373331365f3361026c8201527f3937303429222f3e00000000000000000000000000000000000000000000000061028c8201527f3c7061746820643d224d3932203139324339342e3230393120313932203936206102948201527f3139302e32303920393620313838433936203138352e3739312039342e3230396102b48201527f3120313834203932203138344338392e3739303920313834203838203138352e6102d48201527f37393120383820313838433838203139302e3230392038392e373930392031396102f48201527f32203932203139325a222066696c6c3d2223393337344646222f3e0000000000610314820152600061032f820161036b565b7f3c7376672077696474683d2232393022206865696768743d223530302220766981527f6577426f783d2230203020323930203530302220786d6c6e733d22687474703a60208201527f2f2f7777772e77332e6f72672f323030302f7376672220786d6c6e733a786c6960408201527f6e6b3d22687474703a2f2f7777772e77332e6f72672f313939392f786c696e6b60608201527f223e000000000000000000000000000000000000000000000000000000000000608082015260008351613acf816082850160208801613bd8565b835190830190613ae6816082840160208801613bd8565b01608201949350505050565b6020815260008251806020840152613b11816040850160208701613bd8565b601f01601f19169190910160400192915050565b6040516060810167ffffffffffffffff81118282101715613b4857613b48613c7a565b60405290565b60008219821115613b6157613b61613c4e565b500190565b600063ffffffff808316818516808303821115613b8557613b85613c4e565b01949350505050565b600082613b9d57613b9d613c64565b500490565b6000816000190483118215151615613bbc57613bbc613c4e565b500290565b600082821015613bd357613bd3613c4e565b500390565b60005b83811015613bf3578181015183820152602001613bdb565b83811115613c02576000848401525b50505050565b600081613c1757613c17613c4e565b506000190190565b6000600019821415613c3357613c33613c4e565b5060010190565b600082613c4957613c49613c64565b500690565b634e487b7160e01b600052601160045260246000fd5b634e487b7160e01b600052601260045260246000fd5b634e487b7160e01b600052604160045260246000fd5b73ffffffffffffffffffffffffffffffffffffffff81168114613cb257600080fd5b5056fea264697066735822122002a9e0cd7b023c58d679c48611b78612195ee2c5bd0420bd177a89a8ef25b2ee64736f6c63430008040033",
  "linkReferences": {},
  "deployedLinkReferences": {}
}