{
  "_format": "hh-sol-artifact-1",
  "contractName": "FlexDaoSetVotingAdapterContract",
  "sourceName": "contracts/flex/adatpers/FlexDaoSetVotingAdapter.sol",
  "abi": [
    {
      "inputs": [],
      "name": "VOTING_NOT_FINISH",
      "type": "error"
    },
    {
      "inputs": [
        {
          "internalType": "address",
          "name": "daoAddr",
          "type": "address"
        },
        {
          "internalType": "bytes32",
          "name": "proposalId",
          "type": "bytes32"
        }
      ],
      "name": "getAllocations",
      "outputs": [
        {
          "internalType": "address[]",
          "name": "",
          "type": "address[]"
        },
        {
          "internalType": "uint256[]",
          "name": "",
          "type": "uint256[]"
        }
      ],
      "stateMutability": "view",
      "type": "function"
    },
    {
      "inputs": [
        {
          "internalType": "address",
          "name": "",
          "type": "address"
        }
      ],
      "name": "ongoingVotingProposal",
      "outputs": [
        {
          "internalType": "bytes32",
          "name": "",
          "type": "bytes32"
        }
      ],
      "stateMutability": "view",
      "type": "function"
    },
    {
      "inputs": [
        {
          "internalType": "contract DaoRegistry",
          "name": "dao",
          "type": "address"
        },
        {
          "internalType": "bytes32",
          "name": "proposalId",
          "type": "bytes32"
        }
      ],
      "name": "processVotingProposal",
      "outputs": [
        {
          "internalType": "enum IFlexVoting.VotingState",
          "name": "",
          "type": "uint8"
        },
        {
          "internalType": "uint256",
          "name": "",
          "type": "uint256"
        },
        {
          "internalType": "uint256",
          "name": "",
          "type": "uint256"
        },
        {
          "internalType": "uint128",
          "name": "",
          "type": "uint128"
        }
      ],
      "stateMutability": "nonpayable",
      "type": "function"
    },
    {
      "inputs": [
        {
          "components": [
            {
              "internalType": "contract DaoRegistry",
              "name": "dao",
              "type": "address"
            },
            {
              "internalType": "uint256",
              "name": "votingAssetType",
              "type": "uint256"
            },
            {
              "internalType": "address",
              "name": "tokenAddress",
              "type": "address"
            },
            {
              "internalType": "uint256",
              "name": "tokenID",
              "type": "uint256"
            },
            {
              "internalType": "uint256",
              "name": "votingWeightedType",
              "type": "uint256"
            },
            {
              "internalType": "uint256",
              "name": "supportType",
              "type": "uint256"
            },
            {
              "internalType": "uint256",
              "name": "quorumType",
              "type": "uint256"
            },
            {
              "internalType": "uint256",
              "name": "support",
              "type": "uint256"
            },
            {
              "internalType": "uint256",
              "name": "quorum",
              "type": "uint256"
            },
            {
              "internalType": "uint256",
              "name": "votingPeriod",
              "type": "uint256"
            },
            {
              "internalType": "uint256",
              "name": "executingPeriod",
              "type": "uint256"
            },
            {
              "internalType": "address[]",
              "name": "governors",
              "type": "address[]"
            },
            {
              "internalType": "uint256[]",
              "name": "allocations",
              "type": "uint256[]"
            }
          ],
          "internalType": "struct FlexDaosetLibrary.VotingParams",
          "name": "params",
          "type": "tuple"
        }
      ],
      "name": "submitVotingProposal",
      "outputs": [
        {
          "internalType": "bytes32",
          "name": "",
          "type": "bytes32"
        }
      ],
      "stateMutability": "nonpayable",
      "type": "function"
    },
    {
      "inputs": [
        {
          "internalType": "address",
          "name": "",
          "type": "address"
        },
        {
          "internalType": "bytes32",
          "name": "",
          "type": "bytes32"
        }
      ],
      "name": "votingProposals",
      "outputs": [
        {
          "components": [
            {
              "internalType": "uint256",
              "name": "supportType",
              "type": "uint256"
            },
            {
              "internalType": "uint256",
              "name": "quorumType",
              "type": "uint256"
            },
            {
              "internalType": "uint256",
              "name": "support",
              "type": "uint256"
            },
            {
              "internalType": "uint256",
              "name": "quorum",
              "type": "uint256"
            }
          ],
          "internalType": "struct FlexDaosetLibrary.VotingSupportInfo",
          "name": "supportInfo",
          "type": "tuple"
        },
        {
          "components": [
            {
              "internalType": "uint256",
              "name": "votingAssetType",
              "type": "uint256"
            },
            {
              "internalType": "address",
              "name": "tokenAddress",
              "type": "address"
            },
            {
              "internalType": "uint256",
              "name": "tokenID",
              "type": "uint256"
            },
            {
              "internalType": "uint256",
              "name": "votingWeightedType",
              "type": "uint256"
            }
          ],
          "internalType": "struct FlexDaosetLibrary.VotingAssetInfo",
          "name": "votingAssetInfo",
          "type": "tuple"
        },
        {
          "components": [
            {
              "internalType": "uint256",
              "name": "votingPeriod",
              "type": "uint256"
            },
            {
              "internalType": "uint256",
              "name": "executingPeriod",
              "type": "uint256"
            },
            {
              "internalType": "uint256",
              "name": "creationTime",
              "type": "uint256"
            },
            {
              "internalType": "uint256",
              "name": "stopVoteTime",
              "type": "uint256"
            }
          ],
          "internalType": "struct FlexDaosetLibrary.VotingTimeInfo",
          "name": "timeInfo",
          "type": "tuple"
        },
        {
          "components": [
            {
              "internalType": "uint256[]",
              "name": "allocs",
              "type": "uint256[]"
            }
          ],
          "internalType": "struct FlexDaosetLibrary.VotingAllocation",
          "name": "allocations",
          "type": "tuple"
        },
        {
          "internalType": "enum FlexDaosetLibrary.ProposalState",
          "name": "state",
          "type": "uint8"
        }
      ],
      "stateMutability": "view",
      "type": "function"
    }
  ],
  "bytecode": "0x608060405234801561001057600080fd5b506129e0806100206000396000f3fe608060405234801561001057600080fd5b50600436106100675760003560e01c8063a860dfdd11610050578063a860dfdd146100ba578063b6939b7f146100dd578063d3efe3761461010b57600080fd5b80631d625e241461006c5780634030038a14610099575b600080fd5b61007f61007a3660046122c1565b61011e565b6040516100909594939291906126e5565b60405180910390f35b6100ac6100a73660046122c1565b61022b565b604051610090929190612564565b6100cd6100c83660046123d3565b6102c7565b60405161009094939291906126a3565b6100fd6100eb366004612289565b60006020819052908152604090205481565b604051908152602001610090565b6100fd61011936600461241e565b610520565b60016020818152600093845260408085208252928452928290208251608080820185528254825292820154818601526002820154818501526003820154606080830191909152845180850186526004840154815260058401546001600160a01b0316818801526006840154818701526007840154818301528551948501865260088401548552600984015485880152600a84015485870152600b840154918501919091528451600c840180548089028301880188529782018881529397929691939092849284919084018282801561021557602002820191906000526020600020905b815481526020019060010190808311610201575b50505091909252505050600d9091015460ff1685565b6000818152600260205260409020606090819061024790610ccd565b6001600160a01b0385166000908152600160209081526040808320878452825291829020600c0180548351818402810184019094528084529092918391908301828280156102b457602002820191906000526020600020905b8154815260200190600101908083116102a0575b50505050509050915091505b9250929050565b600080600080856001600160a01b03166317ba7d857fe564b2da9fb62dadceed6d94ac5884ac5f464424e7be661d7d6181d49fa87b3f6040518263ffffffff1660e01b815260040161031b91815260200190565b60206040518083038186803b15801561033357600080fd5b505afa158015610347573d6000803e3d6000fd5b505050506040513d601f19601f8201168201806040525081019061036b91906122a5565b6001600160a01b0316336001600160a01b0316146103d05760405162461bcd60e51b815260206004820152600760248201527f216163636573730000000000000000000000000000000000000000000000000060448201526064015b60405180910390fd5b6001600160a01b03861660009081526001602090815260408083208884529091528120908080806104018b8b610ce1565b92965090945092509050600284600581111561042d57634e487b7160e01b600052602160045260246000fd5b141561045a5761043e8b8b87610f01565b600d850180546002919060ff19166001835b02179055506104f4565b600384600581111561047c57634e487b7160e01b600052602160045260246000fd5b14806104a7575060018460058111156104a557634e487b7160e01b600052602160045260246000fd5b145b156104c257600d850180546003919060ff1916600183610450565b6040517f70fc772800000000000000000000000000000000000000000000000000000000815260040160405180910390fd5b6001600160a01b039a909a16600090815260208190526040812055919990989197509095509350505050565b600061052f6020830183612289565b6040516317ba7d8560e01b81527fe564b2da9fb62dadceed6d94ac5884ac5f464424e7be661d7d6181d49fa87b3f60048201526001600160a01b0391909116906317ba7d859060240160206040518083038186803b15801561059057600080fd5b505afa1580156105a4573d6000803e3d6000fd5b505050506040513d601f19601f820116820180604052508101906105c891906122a5565b6001600160a01b0316336001600160a01b0316146106285760405162461bcd60e51b815260206004820152600760248201527f216163636573730000000000000000000000000000000000000000000000000060448201526064016103c7565b600080806106396020860186612289565b6001600160a01b03166001600160a01b0316815260200190815260200160002054146106a75760405162461bcd60e51b815260206004820152600760248201527f217375626d69740000000000000000000000000000000000000000000000000060448201526064016103c7565b6106b5610180830183612810565b90506106c56101608401846127c8565b9050146107145760405162461bcd60e51b815260206004820152601260248201527f21616c6c6f636174696f6e20706172616d73000000000000000000000000000060448201526064016103c7565b6107216020830183612289565b6001600160a01b0316631bc0f7876040518163ffffffff1660e01b8152600401600060405180830381600087803b15801561075b57600080fd5b505af115801561076f573d6000803e3d6000fd5b5060009250610835915061078890506020850185612289565b60c01b61081061079b6020870187612289565b6001600160a01b031663656f9f996040518163ffffffff1660e01b815260040160206040518083038186803b1580156107d357600080fd5b505afa1580156107e7573d6000803e3d6000fd5b505050506040513d601f19601f8201168201806040525081019061080b9190612487565b6110a1565b6040516020016108219291906124f6565b6040516020818303038152906040526111f7565b90506040518060a0016040528060405180608001604052808660a0013581526020018660c0013581526020018660e00135815260200186610100013581525081526020016040518060800160405280866020013581526020018660400160208101906108a19190612289565b6001600160a01b0316815260200186606001358152602001866080013581525081526020016040518060800160405280866101200135815260200186610140013581526020014281526020018660000160208101906109009190612289565b604051634941d71d60e11b81527f9876c0f0505bfb2b1c38d3bbd25ba13159172cd0868972d76927723f5a9480fc60048201526001600160a01b039190911690639283ae3a9060240160206040518083038186803b15801561096157600080fd5b505afa158015610975573d6000803e3d6000fd5b505050506040513d601f19601f820116820180604052508101906109999190612487565b6109a3904261285a565b81525081526020016040518060200160405280868061018001906109c79190612810565b905067ffffffffffffffff8111156109ef57634e487b7160e01b600052604160045260246000fd5b604051908082528060200260200182016040528015610a18578160200160208202803683370190505b50905281526020016000905260016000610a356020870187612289565b6001600160a01b03908116825260208083019390935260409182016000908120868252845282902084518051825580850151600183015580840151600283015560609081015160038301558585015180516004840155808601516005840180547fffffffffffffffffffffffff0000000000000000000000000000000000000000169190951617909355828401516006830155918201516007820155848301518051600883015580850151600983015592830151600a82015591810151600b8301558301518051805192939192600c850192610b15928492910190612219565b5050506080820151600d8201805460ff19166001836003811115610b4957634e487b7160e01b600052602160045260246000fd5b021790555090505060005b610b62610180850185612810565b90508160ff161015610c8157610bc9610b7f6101608601866127c8565b8360ff16818110610ba057634e487b7160e01b600052603260045260246000fd5b9050602002016020810190610bb59190612289565b600084815260026020526040902090611213565b50610bd8610180850185612810565b8260ff16818110610bf957634e487b7160e01b600052603260045260246000fd5b9050602002013560016000866000016020810190610c179190612289565b6001600160a01b03168152602080820192909252604090810160009081208682529092529020600c01805460ff8416908110610c6357634e487b7160e01b600052603260045260246000fd5b60009182526020909120015580610c7981612906565b915050610b54565b5080600080610c936020870187612289565b6001600160a01b0316815260208082019290925260400160002091909155610cc790610cc190850185612289565b82611228565b92915050565b60606000610cda8361143e565b9392505050565b600080600080856001600160a01b03166330490e91866040518263ffffffff1660e01b8152600401610d1591815260200190565b600060405180830381600087803b158015610d2f57600080fd5b505af1158015610d43573d6000803e3d6000fd5b50506040516317ba7d8560e01b81527f0d479c38716a0298633b1dbf1ce145a3fbd1d79ca4527de172afc3bad04a2ba76004820152600092506001600160a01b03891691506317ba7d859060240160206040518083038186803b158015610da957600080fd5b505afa158015610dbd573d6000803e3d6000fd5b505050506040513d601f19601f82011682018060405250810190610de191906122a5565b90506001600160a01b038116610e395760405162461bcd60e51b815260206004820152600f60248201527f21766f74696e67436f6e7472616374000000000000000000000000000000000060448201526064016103c7565b6040517f76225e730000000000000000000000000000000000000000000000000000000081526001600160a01b0388811660048301526024820188905260009182918291908516906376225e7390604401606060405180830381600087803b158015610ea457600080fd5b505af1158015610eb8573d6000803e3d6000fd5b505050506040513d601f19601f82011682018060405250810190610edc91906123e5565b9250925092506000610eee8b8b61149a565b939b929a50909850919650945050505050565b6040516317ba7d8560e01b81527fff9379b98b93eb3bd1fac62fd2258a7955d70d2d5279c40064145b6c9646df3760048201526000906001600160a01b038516906317ba7d859060240160206040518083038186803b158015610f6357600080fd5b505afa158015610f77573d6000803e3d6000fd5b505050506040513d601f19601f82011682018060405250810190610f9b91906122a5565b600583015460408051610100810182526004860154815260068601546020808301919091526007870154828401528654606083015260018701546080830152600387015460a083015260028088015460c0840152600888015460e084015260008981529152919091209293506001600160a01b03808516936334c492849389939216919061102890610ccd565b6040517fffffffff0000000000000000000000000000000000000000000000000000000060e087901b1681526110699493929190600c8a01906004016125ba565b600060405180830381600087803b15801561108357600080fd5b505af1158015611097573d6000803e3d6000fd5b5050505050505050565b6060816110e157505060408051808201909152600181527f3000000000000000000000000000000000000000000000000000000000000000602082015290565b8160005b811561110b57806110f5816128cd565b91506111049050600a83612872565b91506110e5565b60008167ffffffffffffffff81111561113457634e487b7160e01b600052604160045260246000fd5b6040519080825280601f01601f19166020018201604052801561115e576020820181803683370190505b5090505b84156111ef57611173600183612886565b9150611180600a86612926565b61118b90603061285a565b60f81b8183815181106111ae57634e487b7160e01b600052603260045260246000fd5b60200101907effffffffffffffffffffffffffffffffffffffffffffffffffffffffffffff1916908160001a9053506111e8600a86612872565b9450611162565b949350505050565b600081516000141561120b57506000919050565b506020015190565b6000610cda836001600160a01b03841661175a565b6040517fb73dc389000000000000000000000000000000000000000000000000000000008152600481018290526001600160a01b0383169063b73dc38990602401600060405180830381600087803b15801561128357600080fd5b505af1158015611297573d6000803e3d6000fd5b50506040516317ba7d8560e01b81527f0d479c38716a0298633b1dbf1ce145a3fbd1d79ca4527de172afc3bad04a2ba76004820152600092506001600160a01b03851691506317ba7d859060240160206040518083038186803b1580156112fd57600080fd5b505afa158015611311573d6000803e3d6000fd5b505050506040513d601f19601f8201168201806040525081019061133591906122a5565b604080516020810182526000815290517f2b0974d00000000000000000000000000000000000000000000000000000000081529192506001600160a01b03831691632b0974d09161138c9187918791600401612659565b600060405180830381600087803b1580156113a657600080fd5b505af11580156113ba573d6000803e3d6000fd5b50506040517f815a2bf4000000000000000000000000000000000000000000000000000000008152600481018590526001600160a01b0384811660248301528616925063815a2bf49150604401600060405180830381600087803b15801561142157600080fd5b505af1158015611435573d6000803e3d6000fd5b50505050505050565b60608160000180548060200260200160405190810160405280929190818152602001828054801561148e57602002820191906000526020600020905b81548152602001906001019080831161147a575b50505050509050919050565b6000806114a6846117a9565b6040516317ba7d8560e01b81527f0d479c38716a0298633b1dbf1ce145a3fbd1d79ca4527de172afc3bad04a2ba7600482015290915060009081906001600160a01b038716906317ba7d859060240160206040518083038186803b15801561150d57600080fd5b505afa158015611521573d6000803e3d6000fd5b505050506040513d601f19601f8201168201806040525081019061154591906122a5565b905060005b83518160ff16101561174f57816001600160a01b03166324a2cceb8888878560ff168151811061158a57634e487b7160e01b600052603260045260246000fd5b60200260200101516040518463ffffffff1660e01b81526004016115ce939291906001600160a01b0393841681526020810192909252909116604082015260600190565b60206040518083038186803b1580156115e657600080fd5b505afa1580156115fa573d6000803e3d6000fd5b505050506040513d601f19601f8201168201806040525081019061161e91906123b3565b156116fc57816001600160a01b03166391d2fd538888878560ff168151811061165757634e487b7160e01b600052603260045260246000fd5b60200260200101516040518463ffffffff1660e01b815260040161169b939291906001600160a01b0393841681526020810192909252909116604082015260600190565b60206040518083038186803b1580156116b357600080fd5b505afa1580156116c7573d6000803e3d6000fd5b505050506040513d601f19601f820116820180604052508101906116eb9190612457565b6116f59084612826565b925061173d565b61173087858360ff168151811061172357634e487b7160e01b600052603260045260246000fd5b6020026020010151611820565b61173a9084612826565b92505b8061174781612906565b91505061154a565b509095945050505050565b60008181526001830160205260408120546117a157508154600181810184556000848152602080822090930184905584548482528286019093526040902091909155610cc7565b506000610cc7565b6060816001600160a01b031663a6f636416040518163ffffffff1660e01b815260040160006040518083038186803b1580156117e457600080fd5b505afa1580156117f8573d6000803e3d6000fd5b505050506040513d6000823e601f3d908101601f19168201604052610cc791908101906122ec565b604051634941d71d60e11b81527f75b7d343967750d1f6c15979b7559cea8be22ff1a06a51681b9cbef0d2fff4fe600482015260009081906001600160a01b03851690639283ae3a9060240160206040518083038186803b15801561188457600080fd5b505afa158015611898573d6000803e3d6000fd5b505050506040513d601f19601f820116820180604052508101906118bc9190612487565b604051634941d71d60e11b81527f18ef0b57fe939edb640a200fdf533493bd8f26a274151543a109b64c857e20f360048201529091506000906001600160a01b03861690639283ae3a9060240160206040518083038186803b15801561192157600080fd5b505afa158015611935573d6000803e3d6000fd5b505050506040513d601f19601f820116820180604052508101906119599190612487565b6040516317ba7d8560e01b81527f37cbe06c1044f98864ea25736326bc1d488e24e5e23781ea2ad64c4069cb9e6e60048201529091506000906001600160a01b038716906317ba7d859060240160206040518083038186803b1580156119be57600080fd5b505afa1580156119d2573d6000803e3d6000fd5b505050506040513d601f19601f820116820180604052508101906119f691906122a5565b90508160011415611d9757604051634941d71d60e11b81527f77b1580d1632c74a32483c26a7156260a89ae4138b020ea7d09b0dcf24f1ea2460048201526000906001600160a01b03881690639283ae3a9060240160206040518083038186803b158015611a6357600080fd5b505afa158015611a77573d6000803e3d6000fd5b505050506040513d601f19601f82011682018060405250810190611a9b9190612487565b6040517ffd310d290000000000000000000000000000000000000000000000000000000081527fb5a1ad3f04728d7c38547e3d43006a1ec090a02fce04bbb1d0ee4519a1921e5760048201529091506000906001600160a01b0389169063fd310d299060240160206040518083038186803b158015611b1957600080fd5b505afa158015611b2d573d6000803e3d6000fd5b505050506040513d601f19601f82011682018060405250810190611b5191906122a5565b9050600085611bef576040516370a0823160e01b81526001600160a01b038981166004830152670de0b6b3a764000091908416906370a082319060240160206040518083038186803b158015611ba657600080fd5b505afa158015611bba573d6000803e3d6000fd5b505050506040513d601f19601f82011682018060405250810190611bde9190612487565b611be89190612872565b9050611d2e565b8560011415611c72576040516370a0823160e01b81526001600160a01b0389811660048301528316906370a08231906024015b60206040518083038186803b158015611c3a57600080fd5b505afa158015611c4e573d6000803e3d6000fd5b505050506040513d601f19601f82011682018060405250810190611be89190612487565b8560021415611cc7576040517efdd58e0000000000000000000000000000000000000000000000000000000081526001600160a01b0389811660048301526024820185905283169062fdd58e90604401611c22565b8560031415611d1f576040517fa6d945cc0000000000000000000000000000000000000000000000000000000081526001600160a01b038a81166004830152898116602483015285169063a6d945cc90604401611c22565b60009650505050505050610cc7565b60008111611d455760009650505050505050610cc7565b677fffffffffffffff8110611d635760329650505050505050610cc7565b6000611d7e611d79611d74846120e8565b612106565b6121fd565b67ffffffffffffffff169750610cc79650505050505050565b8160021415611dac5760019350505050610cc7565b816120dc57604051634941d71d60e11b81527f77b1580d1632c74a32483c26a7156260a89ae4138b020ea7d09b0dcf24f1ea2460048201526000906001600160a01b03881690639283ae3a9060240160206040518083038186803b158015611e1357600080fd5b505afa158015611e27573d6000803e3d6000fd5b505050506040513d601f19601f82011682018060405250810190611e4b9190612487565b6040517ffd310d290000000000000000000000000000000000000000000000000000000081527fb5a1ad3f04728d7c38547e3d43006a1ec090a02fce04bbb1d0ee4519a1921e5760048201529091506000906001600160a01b0389169063fd310d299060240160206040518083038186803b158015611ec957600080fd5b505afa158015611edd573d6000803e3d6000fd5b505050506040513d601f19601f82011682018060405250810190611f0191906122a5565b9050600085611f9f576040516370a0823160e01b81526001600160a01b038981166004830152670de0b6b3a764000091908416906370a082319060240160206040518083038186803b158015611f5657600080fd5b505afa158015611f6a573d6000803e3d6000fd5b505050506040513d601f19601f82011682018060405250810190611f8e9190612487565b611f989190612872565b90506120cf565b8560011415612022576040516370a0823160e01b81526001600160a01b0389811660048301528316906370a08231906024015b60206040518083038186803b158015611fea57600080fd5b505afa158015611ffe573d6000803e3d6000fd5b505050506040513d601f19601f82011682018060405250810190611f989190612487565b8560021415612077576040517efdd58e0000000000000000000000000000000000000000000000000000000081526001600160a01b0389811660048301526024820185905283169062fdd58e90604401611fd2565b8560031415611d1f576040517fa6d945cc0000000000000000000000000000000000000000000000000000000081526001600160a01b038a81166004830152898116602483015285169063a6d945cc90604401611fd2565b9550610cc7945050505050565b60009350505050610cc7565b6000677fffffffffffffff8211156120ff57600080fd5b5060401b90565b60008082600f0b1361211757600080fd5b6000600f83900b680100000000000000008112612136576040918201911d5b640100000000811261214a576020918201911d5b62010000811261215c576010918201911d5b610100811261216d576008918201911d5b6010811261217d576004918201911d5b6004811261218d576002918201911d5b6002811261219c576001820191505b7fffffffffffffffffffffffffffffffffffffffffffffffffffffffffffffffc0820160401b600f85900b607f8490031b6780000000000000005b600081131561174f5790800260ff81901c8281029390930192607f011c9060011d6121d7565b60008082600f0b121561220f57600080fd5b50600f0b60401d90565b828054828255906000526020600020908101928215612254579160200282015b82811115612254578251825591602001919060010190612239565b50612260929150612264565b5090565b5b808211156122605760008155600101612265565b805161228481612992565b919050565b60006020828403121561229a578081fd5b8135610cda81612992565b6000602082840312156122b6578081fd5b8151610cda81612992565b600080604083850312156122d3578081fd5b82356122de81612992565b946020939093013593505050565b600060208083850312156122fe578182fd5b825167ffffffffffffffff80821115612315578384fd5b818501915085601f830112612328578384fd5b81518181111561233a5761233a61297c565b8060051b604051601f19603f8301168101818110858211171561235f5761235f61297c565b604052828152858101935084860182860187018a101561237d578788fd5b8795505b838610156123a65761239281612279565b855260019590950194938601938601612381565b5098975050505050505050565b6000602082840312156123c4578081fd5b81518015158114610cda578182fd5b600080604083850312156122d3578182fd5b6000806000606084860312156123f9578081fd5b835160068110612407578182fd5b602085015160409095015190969495509392505050565b60006020828403121561242f578081fd5b813567ffffffffffffffff811115612445578182fd5b82016101a08185031215610cda578182fd5b600060208284031215612468578081fd5b81516fffffffffffffffffffffffffffffffff81168114610cda578182fd5b600060208284031215612498578081fd5b5051919050565b6000815180845260208085019450808401835b838110156124d75781516001600160a01b0316875295820195908201906001016124b2565b509495945050505050565b600481106124f2576124f2612966565b9052565b7fffffffffffffffff000000000000000000000000000000000000000000000000831681527f566f74696e67202300000000000000000000000000000000000000000000000060088201526000825161255681601085016020870161289d565b919091016010019392505050565b604081526000612577604083018561249f565b828103602084810191909152845180835285820192820190845b818110156125ad57845183529383019391830191600101612591565b5090979650505050505050565b60006101806001600160a01b03808916845260208189168186015260408501915087845b60088110156125fb578151845292820192908201906001016125de565b5050826101408601526126108386018861249f565b858103610160870152865480825287865282862094509082019250845b818110156126495784548452600194850194938301930161262d565b50919a9950505050505050505050565b6001600160a01b0384168152826020820152606060408201526000825180606084015261268d81608085016020870161289d565b601f01601f191691909101608001949350505050565b60808101600686106126b7576126b7612966565b948152602081019390935260408301919091526fffffffffffffffffffffffffffffffff1660609091015290565b8551815260208087015190820152604080870151908201526060808701519082015260006101c0865160808401526020808801516001600160a01b031660a085015260408089015160c08601526060808a015160e0870152885161010087015288830151610120870152908801516101408601528701516101608501526101808401829052855191840181905281516101e0850181905261020085019282019084905b808210156127a85782518552938301939183019160019190910190612788565b50505050809150506127be6101a08301846124e2565b9695505050505050565b6000808335601e198436030181126127de578283fd5b83018035915067ffffffffffffffff8211156127f8578283fd5b6020019150600581901b36038213156102c057600080fd5b6000808335601e198436030181126127de578182fd5b60006fffffffffffffffffffffffffffffffff8083168185168083038211156128515761285161293a565b01949350505050565b6000821982111561286d5761286d61293a565b500190565b60008261288157612881612950565b500490565b6000828210156128985761289861293a565b500390565b60005b838110156128b85781810151838201526020016128a0565b838111156128c7576000848401525b50505050565b60007fffffffffffffffffffffffffffffffffffffffffffffffffffffffffffffffff8214156128ff576128ff61293a565b5060010190565b600060ff821660ff81141561291d5761291d61293a565b60010192915050565b60008261293557612935612950565b500690565b634e487b7160e01b600052601160045260246000fd5b634e487b7160e01b600052601260045260246000fd5b634e487b7160e01b600052602160045260246000fd5b634e487b7160e01b600052604160045260246000fd5b6001600160a01b03811681146129a757600080fd5b5056fea264697066735822122000e2a2ee32a10037236549bd91899a1b7ad3a0e00f222589a59a01db7f862c0964736f6c63430008040033",
  "linkReferences": {},
  "deployedLinkReferences": {}
}