{
  "_format": "hh-sol-artifact-1",
  "contractName": "FlexDaoSetInvestorMembershipAdapterContract",
  "sourceName": "contracts/flex/adatpers/FlexDaoSetInvestorMembershipAdapter.sol",
  "abi": [
    {
      "inputs": [],
      "name": "VOTING_NOT_FINISH",
      "type": "error"
    },
    {
      "anonymous": false,
      "inputs": [
        {
          "indexed": false,
          "internalType": "address",
          "name": "daoAddr",
          "type": "address"
        },
        {
          "indexed": false,
          "internalType": "bytes32",
          "name": "proposalId",
          "type": "bytes32"
        },
        {
          "indexed": false,
          "internalType": "enum FlexDaosetLibrary.ProposalType",
          "name": "pType",
          "type": "uint8"
        }
      ],
      "name": "ProposalCreated",
      "type": "event"
    },
    {
      "anonymous": false,
      "inputs": [
        {
          "indexed": false,
          "internalType": "address",
          "name": "daoAddr",
          "type": "address"
        },
        {
          "indexed": false,
          "internalType": "bytes32",
          "name": "proposalId",
          "type": "bytes32"
        },
        {
          "indexed": false,
          "internalType": "uint256",
          "name": "voteResult",
          "type": "uint256"
        },
        {
          "indexed": false,
          "internalType": "uint128",
          "name": "allVotingWeight",
          "type": "uint128"
        },
        {
          "indexed": false,
          "internalType": "uint256",
          "name": "nbYes",
          "type": "uint256"
        },
        {
          "indexed": false,
          "internalType": "uint256",
          "name": "nbNo",
          "type": "uint256"
        }
      ],
      "name": "ProposalProcessed",
      "type": "event"
    },
    {
      "inputs": [
        {
          "internalType": "bytes32",
          "name": "proposalId",
          "type": "bytes32"
        }
      ],
      "name": "getInvestorWhitelist",
      "outputs": [
        {
          "internalType": "address[]",
          "name": "",
          "type": "address[]"
        }
      ],
      "stateMutability": "view",
      "type": "function"
    },
    {
      "inputs": [
        {
          "internalType": "address",
          "name": "",
          "type": "address"
        },
        {
          "internalType": "bytes32",
          "name": "",
          "type": "bytes32"
        }
      ],
      "name": "investorMembershipProposals",
      "outputs": [
        {
          "internalType": "bool",
          "name": "enable",
          "type": "bool"
        },
        {
          "internalType": "string",
          "name": "name",
          "type": "string"
        },
        {
          "internalType": "uint8",
          "name": "varifyType",
          "type": "uint8"
        },
        {
          "internalType": "uint256",
          "name": "minAmount",
          "type": "uint256"
        },
        {
          "internalType": "address",
          "name": "tokenAddress",
          "type": "address"
        },
        {
          "internalType": "uint256",
          "name": "tokenId",
          "type": "uint256"
        },
        {
          "internalType": "uint256",
          "name": "creationTime",
          "type": "uint256"
        },
        {
          "internalType": "uint256",
          "name": "stopVoteTime",
          "type": "uint256"
        },
        {
          "internalType": "enum FlexDaosetLibrary.ProposalState",
          "name": "state",
          "type": "uint8"
        }
      ],
      "stateMutability": "view",
      "type": "function"
    },
    {
      "inputs": [
        {
          "internalType": "contract DaoRegistry",
          "name": "dao",
          "type": "address"
        },
        {
          "internalType": "address",
          "name": "_addr",
          "type": "address"
        }
      ],
      "name": "isActiveMember",
      "outputs": [
        {
          "internalType": "bool",
          "name": "",
          "type": "bool"
        }
      ],
      "stateMutability": "view",
      "type": "function"
    },
    {
      "inputs": [
        {
          "internalType": "address",
          "name": "",
          "type": "address"
        }
      ],
      "name": "ongoingInvstorMembershipProposal",
      "outputs": [
        {
          "internalType": "bytes32",
          "name": "",
          "type": "bytes32"
        }
      ],
      "stateMutability": "view",
      "type": "function"
    },
    {
      "inputs": [
        {
          "internalType": "contract DaoRegistry",
          "name": "dao",
          "type": "address"
        },
        {
          "internalType": "bytes32",
          "name": "proposalId",
          "type": "bytes32"
        }
      ],
      "name": "processInvestorMembershipProposal",
      "outputs": [],
      "stateMutability": "nonpayable",
      "type": "function"
    },
    {
      "inputs": [
        {
          "components": [
            {
              "internalType": "contract DaoRegistry",
              "name": "dao",
              "type": "address"
            },
            {
              "internalType": "bool",
              "name": "enable",
              "type": "bool"
            },
            {
              "internalType": "string",
              "name": "name",
              "type": "string"
            },
            {
              "internalType": "uint8",
              "name": "varifyType",
              "type": "uint8"
            },
            {
              "internalType": "uint256",
              "name": "minAmount",
              "type": "uint256"
            },
            {
              "internalType": "address",
              "name": "tokenAddress",
              "type": "address"
            },
            {
              "internalType": "uint256",
              "name": "tokenId",
              "type": "uint256"
            },
            {
              "internalType": "address[]",
              "name": "whiteList",
              "type": "address[]"
            }
          ],
          "internalType": "struct FlexDaosetLibrary.InvestorMembershipParams",
          "name": "params",
          "type": "tuple"
        }
      ],
      "name": "submitInvestorMembershipProposal",
      "outputs": [
        {
          "internalType": "bytes32",
          "name": "",
          "type": "bytes32"
        }
      ],
      "stateMutability": "nonpayable",
      "type": "function"
    }
  ],
  "bytecode": "0x608060405234801561001057600080fd5b50612b72806100206000396000f3fe608060405234801561001057600080fd5b50600436106100725760003560e01c8063985460c711610050578063985460c7146100d5578063b58ca31e146100f5578063f92f33a11461011d57600080fd5b8063234d35161461007757806347a71a851461009d5780638ecf7720146100b2575b600080fd5b61008a610085366004612575565b61013d565b6040519081526020015b60405180910390f35b6100b06100ab36600461252a565b61064e565b005b6100c56100c03660046124f2565b61083d565b6040519015158152602001610094565b61008a6100e336600461234b565b60016020526000908152604090205481565b610108610103366004612383565b6108dc565b6040516100949998979695949392919061273c565b61013061012b3660046124da565b6109ca565b6040516100949190612729565b600061014c602083018361234b565b61015681336109e4565b610163602084018461234b565b6001600160a01b031663822d63156040518163ffffffff1660e01b8152600401600060405180830381600087803b15801561019d57600080fd5b505af11580156101b1573d6000803e3d6000fd5b506000925061027791506101ca9050602086018661234b565b60c01b6102526101dd602088018861234b565b6001600160a01b031663b5d3788e6040518163ffffffff1660e01b815260040160206040518083038186803b15801561021557600080fd5b505afa158015610229573d6000803e3d6000fd5b505050506040513d601f19601f8201168201806040525081019061024d91906125de565b610a43565b604051602001610263929190612686565b604051602081830303815290604052610b99565b90506040518061012001604052808560200160208101906102989190612475565b151581526020016102ac6040870187612934565b8080601f0160208091040260200160405190810160405280939291908181526020018383808284376000920191909152505050908252506020016102f660808701606088016125f6565b60ff1681526080860135602082015260400161031860c0870160a0880161234b565b6001600160a01b031681526020018560c001358152602001428152602001856000016020810190610349919061234b565b604051634941d71d60e11b81527f9876c0f0505bfb2b1c38d3bbd25ba13159172cd0868972d76927723f5a9480fc60048201526001600160a01b039190911690639283ae3a9060240160206040518083038186803b1580156103aa57600080fd5b505afa1580156103be573d6000803e3d6000fd5b505050506040513d601f19601f820116820180604052508101906103e291906125de565b6103ec90426129ad565b815260200160009052600080610405602088018861234b565b6001600160a01b03168152602080820192909252604090810160009081208582528352208251815460ff19169015151781558282015180519192610451926001850192909101906122a2565b50604082015160028201805460ff90921660ff19928316179055606083015160038084019190915560808401516004840180546001600160a01b039092167fffffffffffffffffffffffff000000000000000000000000000000000000000090921691909117905560a0840151600584015560c0840151600684015560e0840151600784015561010084015160088401805491939092911690600190849081111561050c57634e487b7160e01b600052602160045260246000fd5b021790555060009150610524905060e08601866128e5565b905011156105b75760005b61053c60e08601866128e5565b90508160ff1610156105b5576105a261055860e08701876128e5565b8360ff1681811061057957634e487b7160e01b600052603260045260246000fd5b905060200201602081019061058e919061234b565b600084815260026020526040902090610bb5565b50806105ad81612a8a565b91505061052f565b505b80600160006105c9602088018861234b565b6001600160a01b03168152602080820192909252604001600020919091556105fd906105f79086018661234b565b82610bca565b7fa65d0c07e3b0d876ee52e871c234a4b150b9bf17a08f356f5aeda8d6782cc31a61062b602086018661234b565b82600060405161063d939291906126f4565b60405180910390a191505b50919050565b81600061065a82610de0565b6001600160a01b038516600090815260208181526040808320878452909152812091925080808061068b89896110aa565b9296509094509250905060028460058111156106b757634e487b7160e01b600052602160045260246000fd5b14156106e4576106c88989876112ca565b6008850180546002919060ff19166001835b021790555061077e565b600384600581111561070657634e487b7160e01b600052602160045260246000fd5b14806107315750600184600581111561072f57634e487b7160e01b600052602160045260246000fd5b145b1561074c576008850180546003919060ff19166001836106da565b6040517f70fc772800000000000000000000000000000000000000000000000000000000815260040160405180910390fd5b6001600160a01b0389166000908152600160205260408120557f31079f5404bf31284c3985351ef8eff4247cd77140001bc77841d2ecc855cf6889898660058111156107da57634e487b7160e01b600052602160045260246000fd5b604080516001600160a01b0390941684526020840192909252908201526fffffffffffffffffffffffffffffffff831660608201526080810185905260a0810184905260c00160405180910390a15050505050610837828261141a565b50505050565b6040517fa230c5240000000000000000000000000000000000000000000000000000000081526001600160a01b0382811660048301526000919084169063a230c5249060240160206040518083038186803b15801561089b57600080fd5b505afa1580156108af573d6000803e3d6000fd5b505050506040513d601f19601f820116820180604052508101906108d39190612491565b90505b92915050565b60006020818152928152604080822090935290815220805460018201805460ff909216929161090a90612a1c565b80601f016020809104026020016040519081016040528092919081815260200182805461093690612a1c565b80156109835780601f1061095857610100808354040283529160200191610983565b820191906000526020600020905b81548152906001019060200180831161096657829003601f168201915b505050600284015460038501546004860154600587015460068801546007890154600890990154979860ff958616989497506001600160a01b039093169550909390921689565b60008181526002602052604090206060906108d690611425565b6109ee828261083d565b610a3f5760405162461bcd60e51b815260206004820152600b60248201527f6f6e6c795374657761726400000000000000000000000000000000000000000060448201526064015b60405180910390fd5b5050565b606081610a8357505060408051808201909152600181527f3000000000000000000000000000000000000000000000000000000000000000602082015290565b8160005b8115610aad5780610a9781612a51565b9150610aa69050600a836129c5565b9150610a87565b60008167ffffffffffffffff811115610ad657634e487b7160e01b600052604160045260246000fd5b6040519080825280601f01601f191660200182016040528015610b00576020820181803683370190505b5090505b8415610b9157610b156001836129d9565b9150610b22600a86612aaa565b610b2d9060306129ad565b60f81b818381518110610b5057634e487b7160e01b600052603260045260246000fd5b60200101907effffffffffffffffffffffffffffffffffffffffffffffffffffffffffffff1916908160001a905350610b8a600a866129c5565b9450610b04565b949350505050565b6000815160001415610bad57506000919050565b506020015190565b60006108d3836001600160a01b038416611439565b6040517fb73dc389000000000000000000000000000000000000000000000000000000008152600481018290526001600160a01b0383169063b73dc38990602401600060405180830381600087803b158015610c2557600080fd5b505af1158015610c39573d6000803e3d6000fd5b50506040516317ba7d8560e01b81527f0d479c38716a0298633b1dbf1ce145a3fbd1d79ca4527de172afc3bad04a2ba76004820152600092506001600160a01b03851691506317ba7d859060240160206040518083038186803b158015610c9f57600080fd5b505afa158015610cb3573d6000803e3d6000fd5b505050506040513d601f19601f82011682018060405250810190610cd79190612367565b604080516020810182526000815290517f2b0974d00000000000000000000000000000000000000000000000000000000081529192506001600160a01b03831691632b0974d091610d2e91879187916004016128b4565b600060405180830381600087803b158015610d4857600080fd5b505af1158015610d5c573d6000803e3d6000fd5b50506040517f815a2bf4000000000000000000000000000000000000000000000000000000008152600481018590526001600160a01b0384811660248301528616925063815a2bf49150604401600060405180830381600087803b158015610dc357600080fd5b505af1158015610dd7573d6000803e3d6000fd5b50505050505050565b6040805160808101825260008082526020820181905291810182905260608101919091525a81600001818152505043826001600160a01b031663b21634826040518163ffffffff1660e01b815260040160206040518083038186803b158015610e4857600080fd5b505afa158015610e5c573d6000803e3d6000fd5b505050506040513d601f19601f82011682018060405250810190610e8091906125de565b1415610ece5760405162461bcd60e51b815260206004820152601060248201527f7265656e7472616e6379206775617264000000000000000000000000000000006044820152606401610a36565b816001600160a01b03166310fdb0a26040518163ffffffff1660e01b8152600401600060405180830381600087803b158015610f0957600080fd5b505af1158015610f1d573d6000803e3d6000fd5b50506040517f72c6838f0000000000000000000000000000000000000000000000000000000081527f1f2fd42ad6a6cacd573c4b212beb7a4e2499ad45d742a65337097f130e71daff6004820152600092506001600160a01b03851691506372c6838f9060240160206040518083038186803b158015610f9c57600080fd5b505afa158015610fb0573d6000803e3d6000fd5b505050506040513d601f19601f82011682018060405250810190610fd49190612367565b90506001600160a01b038116610ff05760006020830152610648565b6001600160a01b038181166060840181905283516040517f43a8a3f1000000000000000000000000000000000000000000000000000000008152928616600484015260248301526000918291906343a8a3f190604401604080518083038186803b15801561105d57600080fd5b505afa158015611071573d6000803e3d6000fd5b505050506040513d601f19601f8201168201806040525081019061109591906124ad565b90151560208601526040850152505050919050565b600080600080856001600160a01b03166330490e91866040518263ffffffff1660e01b81526004016110de91815260200190565b600060405180830381600087803b1580156110f857600080fd5b505af115801561110c573d6000803e3d6000fd5b50506040516317ba7d8560e01b81527f0d479c38716a0298633b1dbf1ce145a3fbd1d79ca4527de172afc3bad04a2ba76004820152600092506001600160a01b03891691506317ba7d859060240160206040518083038186803b15801561117257600080fd5b505afa158015611186573d6000803e3d6000fd5b505050506040513d601f19601f820116820180604052508101906111aa9190612367565b90506001600160a01b0381166112025760405162461bcd60e51b815260206004820152600f60248201527f21766f74696e67436f6e747261637400000000000000000000000000000000006044820152606401610a36565b6040517f76225e730000000000000000000000000000000000000000000000000000000081526001600160a01b0388811660048301526024820188905260009182918291908516906376225e7390604401606060405180830381600087803b15801561126d57600080fd5b505af1158015611281573d6000803e3d6000fd5b505050506040513d601f19601f820116820180604052508101906112a5919061253c565b92509250925060006112b78b8b611488565b939b929a50909850919650945050505050565b6040516317ba7d8560e01b81527fff9379b98b93eb3bd1fac62fd2258a7955d70d2d5279c40064145b6c9646df3760048201526000906001600160a01b038516906317ba7d859060240160206040518083038186803b15801561132c57600080fd5b505afa158015611340573d6000803e3d6000fd5b505050506040513d601f19601f820116820180604052508101906113649190612367565b825460028085015460038601546004870154600588015460008a815260209590955260409094209596506001600160a01b0380881696639a327512968c9660ff9182169660018d01969216949193909116916113bf90611425565b6040518963ffffffff1660e01b81526004016113e29897969594939291906127b0565b600060405180830381600087803b1580156113fc57600080fd5b505af1158015611410573d6000803e3d6000fd5b5050505050505050565b610a3f828233611748565b6060600061143283611839565b9392505050565b6000818152600183016020526040812054611480575081546001818101845560008481526020808220909301849055845484825282860190935260409020919091556108d6565b5060006108d6565b60008061149484611895565b6040516317ba7d8560e01b81527f0d479c38716a0298633b1dbf1ce145a3fbd1d79ca4527de172afc3bad04a2ba7600482015290915060009081906001600160a01b038716906317ba7d859060240160206040518083038186803b1580156114fb57600080fd5b505afa15801561150f573d6000803e3d6000fd5b505050506040513d601f19601f820116820180604052508101906115339190612367565b905060005b83518160ff16101561173d57816001600160a01b03166324a2cceb8888878560ff168151811061157857634e487b7160e01b600052603260045260246000fd5b60200260200101516040518463ffffffff1660e01b81526004016115bc939291906001600160a01b0393841681526020810192909252909116604082015260600190565b60206040518083038186803b1580156115d457600080fd5b505afa1580156115e8573d6000803e3d6000fd5b505050506040513d601f19601f8201168201806040525081019061160c9190612491565b156116ea57816001600160a01b03166391d2fd538888878560ff168151811061164557634e487b7160e01b600052603260045260246000fd5b60200260200101516040518463ffffffff1660e01b8152600401611689939291906001600160a01b0393841681526020810192909252909116604082015260600190565b60206040518083038186803b1580156116a157600080fd5b505afa1580156116b5573d6000803e3d6000fd5b505050506040513d601f19601f820116820180604052508101906116d991906125ae565b6116e39084612979565b925061172b565b61171e87858360ff168151811061171157634e487b7160e01b600052603260045260246000fd5b602002602001015161190c565b6117289084612979565b92505b8061173581612a8a565b915050611538565b509095945050505050565b8160200151156117fe5781606001516001600160a01b0316635e5eb01384835a865161177491906129d9565b60408088015190517fffffffff0000000000000000000000000000000000000000000000000000000060e087901b1681526001600160a01b03948516600482015293909216602484015260448301526064820152608401600060405180830381600087803b1580156117e557600080fd5b505af11580156117f9573d6000803e3d6000fd5b505050505b826001600160a01b031663d4f7af436040518163ffffffff1660e01b8152600401600060405180830381600087803b158015610dc357600080fd5b60608160000180548060200260200160405190810160405280929190818152602001828054801561188957602002820191906000526020600020905b815481526020019060010190808311611875575b50505050509050919050565b6060816001600160a01b031663a6f636416040518163ffffffff1660e01b815260040160006040518083038186803b1580156118d057600080fd5b505afa1580156118e4573d6000803e3d6000fd5b505050506040513d6000823e601f3d908101601f191682016040526108d691908101906123ae565b604051634941d71d60e11b81527f75b7d343967750d1f6c15979b7559cea8be22ff1a06a51681b9cbef0d2fff4fe600482015260009081906001600160a01b03851690639283ae3a9060240160206040518083038186803b15801561197057600080fd5b505afa158015611984573d6000803e3d6000fd5b505050506040513d601f19601f820116820180604052508101906119a891906125de565b604051634941d71d60e11b81527f18ef0b57fe939edb640a200fdf533493bd8f26a274151543a109b64c857e20f360048201529091506000906001600160a01b03861690639283ae3a9060240160206040518083038186803b158015611a0d57600080fd5b505afa158015611a21573d6000803e3d6000fd5b505050506040513d601f19601f82011682018060405250810190611a4591906125de565b6040516317ba7d8560e01b81527f37cbe06c1044f98864ea25736326bc1d488e24e5e23781ea2ad64c4069cb9e6e60048201529091506000906001600160a01b038716906317ba7d859060240160206040518083038186803b158015611aaa57600080fd5b505afa158015611abe573d6000803e3d6000fd5b505050506040513d601f19601f82011682018060405250810190611ae29190612367565b604051634941d71d60e11b81527f77b1580d1632c74a32483c26a7156260a89ae4138b020ea7d09b0dcf24f1ea2460048201529091506000906001600160a01b03881690639283ae3a9060240160206040518083038186803b158015611b4757600080fd5b505afa158015611b5b573d6000803e3d6000fd5b505050506040513d601f19601f82011682018060405250810190611b7f91906125de565b6040517ffd310d290000000000000000000000000000000000000000000000000000000081527fb5a1ad3f04728d7c38547e3d43006a1ec090a02fce04bbb1d0ee4519a1921e5760048201529091506000906001600160a01b0389169063fd310d299060240160206040518083038186803b158015611bfd57600080fd5b505afa158015611c11573d6000803e3d6000fd5b505050506040513d601f19601f82011682018060405250810190611c359190612367565b90508360011415611e5257600085611cdc576040516370a0823160e01b81526001600160a01b038981166004830152670de0b6b3a764000091908416906370a082319060240160206040518083038186803b158015611c9357600080fd5b505afa158015611ca7573d6000803e3d6000fd5b505050506040513d601f19601f82011682018060405250810190611ccb91906125de565b611cd591906129c5565b9050611de9565b8560011415611d5f576040516370a0823160e01b81526001600160a01b0389811660048301528316906370a08231906024015b60206040518083038186803b158015611d2757600080fd5b505afa158015611d3b573d6000803e3d6000fd5b505050506040513d601f19601f82011682018060405250810190611cd591906125de565b8560021415611d9b57604051627eeac760e11b81526001600160a01b0389811660048301526024820185905283169062fdd58e90604401611d0f565b8560031415611dda576040516329b6517360e21b81526001600160a01b038a81166004830152898116602483015285169063a6d945cc90604401611d0f565b600096505050505050506108d6565b60008111611e0057600096505050505050506108d6565b677fffffffffffffff8110611e1e57603296505050505050506108d6565b6000611e39611e34611e2f84612171565b61218f565b612286565b67ffffffffffffffff1697506108d69650505050505050565b8360021415611fc457600085611ef9576040516370a0823160e01b81526001600160a01b038981166004830152600091908416906370a08231906024015b60206040518083038186803b158015611ea857600080fd5b505afa158015611ebc573d6000803e3d6000fd5b505050506040513d601f19601f82011682018060405250810190611ee091906125de565b11611eec576000611eef565b60015b60ff169050611fb7565b8560011415611f34576040516370a0823160e01b81526001600160a01b038981166004830152600091908416906370a0823190602401611e90565b8560021415611f7457604051627eeac760e11b81526001600160a01b038981166004830152602482018590526000919084169062fdd58e90604401611e90565b8560031415611dda576040516329b6517360e21b81526001600160a01b038a8116600483015289811660248301526000919086169063a6d945cc90604401611e90565b95506108d6945050505050565b8361216357600085612065576040516370a0823160e01b81526001600160a01b038981166004830152670de0b6b3a764000091908416906370a082319060240160206040518083038186803b15801561201c57600080fd5b505afa158015612030573d6000803e3d6000fd5b505050506040513d601f19601f8201168201806040525081019061205491906125de565b61205e91906129c5565b9050611fb7565b85600114156120e8576040516370a0823160e01b81526001600160a01b0389811660048301528316906370a08231906024015b60206040518083038186803b1580156120b057600080fd5b505afa1580156120c4573d6000803e3d6000fd5b505050506040513d601f19601f8201168201806040525081019061205e91906125de565b856002141561212457604051627eeac760e11b81526001600160a01b0389811660048301526024820185905283169062fdd58e90604401612098565b8560031415611dda576040516329b6517360e21b81526001600160a01b038a81166004830152898116602483015285169063a6d945cc90604401612098565b6000955050505050506108d6565b6000677fffffffffffffff82111561218857600080fd5b5060401b90565b60008082600f0b136121a057600080fd5b6000600f83900b6801000000000000000081126121bf576040918201911d5b64010000000081126121d3576020918201911d5b6201000081126121e5576010918201911d5b61010081126121f6576008918201911d5b60108112612206576004918201911d5b60048112612216576002918201911d5b60028112612225576001820191505b7fffffffffffffffffffffffffffffffffffffffffffffffffffffffffffffffc0820160401b600f85900b607f8490031b6780000000000000005b600081131561173d5790800260ff81901c8281029390930192607f011c9060011d612260565b60008082600f0b121561229857600080fd5b50600f0b60401d90565b8280546122ae90612a1c565b90600052602060002090601f0160209004810192826122d05760008555612316565b82601f106122e957805160ff1916838001178555612316565b82800160010185558215612316579182015b828111156123165782518255916020019190600101906122fb565b50612322929150612326565b5090565b5b808211156123225760008155600101612327565b805161234681612b16565b919050565b60006020828403121561235c578081fd5b813561143281612b16565b600060208284031215612378578081fd5b815161143281612b16565b60008060408385031215612395578081fd5b82356123a081612b16565b946020939093013593505050565b600060208083850312156123c0578182fd5b825167ffffffffffffffff808211156123d7578384fd5b818501915085601f8301126123ea578384fd5b8151818111156123fc576123fc612b00565b8060051b604051601f19603f8301168101818110858211171561242157612421612b00565b604052828152858101935084860182860187018a101561243f578788fd5b8795505b83861015612468576124548161233b565b855260019590950194938601938601612443565b5098975050505050505050565b600060208284031215612486578081fd5b813561143281612b2e565b6000602082840312156124a2578081fd5b815161143281612b2e565b600080604083850312156124bf578182fd5b82516124ca81612b2e565b6020939093015192949293505050565b6000602082840312156124eb578081fd5b5035919050565b60008060408385031215612504578182fd5b823561250f81612b16565b9150602083013561251f81612b16565b809150509250929050565b60008060408385031215612395578182fd5b600080600060608486031215612550578081fd5b83516006811061255e578182fd5b602085015160409095015190969495509392505050565b600060208284031215612586578081fd5b813567ffffffffffffffff81111561259c578182fd5b82016101008185031215611432578182fd5b6000602082840312156125bf578081fd5b81516fffffffffffffffffffffffffffffffff81168114611432578182fd5b6000602082840312156125ef578081fd5b5051919050565b600060208284031215612607578081fd5b813560ff81168114611432578182fd5b6000815180845260208085019450808401835b8381101561264f5781516001600160a01b03168752958201959082019060010161262a565b509495945050505050565b600081518084526126728160208601602086016129f0565b601f01601f19169290920160200192915050565b7fffffffffffffffff000000000000000000000000000000000000000000000000831681527f496e766573746f72204d656d62657273686970202300000000000000000000006008820152600082516126e681601d8501602087016129f0565b91909101601d019392505050565b6001600160a01b038416815260208101839052606081016007831061271b5761271b612aea565b826040830152949350505050565b6020815260006108d36020830184612617565b60006101208b151583528060208401526127588184018c61265a565b91505060ff891660408301528760608301526001600160a01b03871660808301528560a08301528460c08301528360e08301526004831061279b5761279b612aea565b826101008301529a9950505050505050505050565b60006101006001600160a01b038b16835260208a151581850152816040850152828a54848160011c905060018216806127ea57607f821691505b84821081141561280857634e487b7160e01b87526022600452602487fd5b94870181815260200194808015612826576001811461283757612863565b60ff19841687528587019450612863565b60008f815260209020885b8481101561285d578154898201526001909101908701612842565b88019550505b50505060ff8b1660608701525088608086015261288b60a08601896001600160a01b03169052565b8660c086015284810360e08601526128a38187612617565b9d9c50505050505050505050505050565b6001600160a01b03841681528260208201526060604082015260006128dc606083018461265a565b95945050505050565b6000808335601e198436030181126128fb578283fd5b83018035915067ffffffffffffffff821115612915578283fd5b6020019150600581901b360382131561292d57600080fd5b9250929050565b6000808335601e1984360301811261294a578182fd5b83018035915067ffffffffffffffff821115612964578283fd5b60200191503681900382131561292d57600080fd5b60006fffffffffffffffffffffffffffffffff8083168185168083038211156129a4576129a4612abe565b01949350505050565b600082198211156129c0576129c0612abe565b500190565b6000826129d4576129d4612ad4565b500490565b6000828210156129eb576129eb612abe565b500390565b60005b83811015612a0b5781810151838201526020016129f3565b838111156108375750506000910152565b600181811c90821680612a3057607f821691505b6020821081141561064857634e487b7160e01b600052602260045260246000fd5b60007fffffffffffffffffffffffffffffffffffffffffffffffffffffffffffffffff821415612a8357612a83612abe565b5060010190565b600060ff821660ff811415612aa157612aa1612abe565b60010192915050565b600082612ab957612ab9612ad4565b500690565b634e487b7160e01b600052601160045260246000fd5b634e487b7160e01b600052601260045260246000fd5b634e487b7160e01b600052602160045260246000fd5b634e487b7160e01b600052604160045260246000fd5b6001600160a01b0381168114612b2b57600080fd5b50565b8015158114612b2b57600080fdfea264697066735822122024a779ae8e9a643760c79091ce2174e75b5779d09fdd391af6542baf3b96096064736f6c63430008040033",
  "linkReferences": {},
  "deployedLinkReferences": {}
}