{
  "_format": "hh-sol-artifact-1",
  "contractName": "InternalTokenVestingExtension",
  "sourceName": "contracts/extensions/token/erc20/InternalTokenVestingExtension.sol",
  "abi": [
    {
      "inputs": [],
      "stateMutability": "nonpayable",
      "type": "constructor"
    },
    {
      "inputs": [
        {
          "internalType": "address",
          "name": "member",
          "type": "address"
        },
        {
          "internalType": "address",
          "name": "internalToken",
          "type": "address"
        },
        {
          "internalType": "uint88",
          "name": "amount",
          "type": "uint88"
        },
        {
          "internalType": "uint64",
          "name": "endDate",
          "type": "uint64"
        }
      ],
      "name": "createNewVesting",
      "outputs": [],
      "stateMutability": "nonpayable",
      "type": "function"
    },
    {
      "inputs": [
        {
          "internalType": "address",
          "name": "member",
          "type": "address"
        },
        {
          "internalType": "address",
          "name": "internalToken",
          "type": "address"
        }
      ],
      "name": "getMinimumBalance",
      "outputs": [
        {
          "internalType": "uint88",
          "name": "",
          "type": "uint88"
        }
      ],
      "stateMutability": "view",
      "type": "function"
    },
    {
      "inputs": [
        {
          "internalType": "uint64",
          "name": "startDate",
          "type": "uint64"
        },
        {
          "internalType": "uint64",
          "name": "endDate",
          "type": "uint64"
        },
        {
          "internalType": "uint88",
          "name": "amount",
          "type": "uint88"
        }
      ],
      "name": "getMinimumBalanceInternal",
      "outputs": [
        {
          "internalType": "uint88",
          "name": "",
          "type": "uint88"
        }
      ],
      "stateMutability": "view",
      "type": "function"
    },
    {
      "inputs": [
        {
          "internalType": "contract DaoRegistry",
          "name": "dao",
          "type": "address"
        },
        {
          "internalType": "address",
          "name": "",
          "type": "address"
        }
      ],
      "name": "initialize",
      "outputs": [],
      "stateMutability": "nonpayable",
      "type": "function"
    },
    {
      "inputs": [
        {
          "internalType": "address",
          "name": "member",
          "type": "address"
        },
        {
          "internalType": "address",
          "name": "internalToken",
          "type": "address"
        },
        {
          "internalType": "uint88",
          "name": "amountToRemove",
          "type": "uint88"
        }
      ],
      "name": "removeVesting",
      "outputs": [],
      "stateMutability": "nonpayable",
      "type": "function"
    },
    {
      "inputs": [
        {
          "internalType": "address",
          "name": "",
          "type": "address"
        },
        {
          "internalType": "address",
          "name": "",
          "type": "address"
        }
      ],
      "name": "vesting",
      "outputs": [
        {
          "internalType": "uint64",
          "name": "startDate",
          "type": "uint64"
        },
        {
          "internalType": "uint64",
          "name": "endDate",
          "type": "uint64"
        },
        {
          "internalType": "uint88",
          "name": "blockedAmount",
          "type": "uint88"
        }
      ],
      "stateMutability": "view",
      "type": "function"
    }
  ],
  "bytecode": "0x608060405234801561001057600080fd5b50610ccc806100206000396000f3fe608060405234801561001057600080fd5b50600436106100725760003560e01c8063a5cd3fd011610050578063a5cd3fd014610150578063e175dd5514610163578063e70e6db41461017657600080fd5b80630dc00e5a14610077578063485cc9551461010c5780638a0bbef414610121575b600080fd5b6100d3610085366004610a30565b600160209081526000928352604080842090915290825290205467ffffffffffffffff8082169168010000000000000000810490911690600160801b90046affffffffffffffffffffff1683565b6040805167ffffffffffffffff94851681529390921660208401526affffffffffffffffffffff16908201526060015b60405180910390f35b61011f61011a366004610a30565b610189565b005b61013461012f366004610b5c565b610224565b6040516affffffffffffffffffffff9091168152602001610103565b61011f61015e366004610a68565b6102a2565b610134610171366004610a30565b610467565b61011f610184366004610aae565b6104d2565b60005460ff16156101e15760405162461bcd60e51b815260206004820152601f60248201527f76657374696e674578743a3a616c726561647920696e697469616c697a65640060448201526064015b60405180910390fd5b50600080546001600160a01b03909216610100027fffffffffffffffffffffff000000000000000000000000000000000000000000909216919091176001179055565b60008267ffffffffffffffff164211156102405750600061029b565b600061024c8585610c1f565b67ffffffffffffffff16905060008567ffffffffffffffff16426102709190610c48565b905060008261027f8387610bec565b6102899190610bb6565b90506102958186610c48565b93505050505b9392505050565b6000546001906102bf9061010090046001600160a01b03166107b9565b8061039d575060005461010090046001600160a01b0316636cfdc32e33308460018111156102fd57634e487b7160e01b600052602160045260246000fd5b6040517fffffffff0000000000000000000000000000000000000000000000000000000060e086901b1681526001600160a01b03938416600482015292909116602483015260ff16604482015260640160206040518083038186803b15801561036557600080fd5b505afa158015610379573d6000803e3d6000fd5b505050506040513d601f19601f8201168201806040525081019061039d9190610b05565b6103e95760405162461bcd60e51b815260206004820152601860248201527f76657374696e674578743a3a61636365737344656e696564000000000000000060448201526064016101d8565b6001600160a01b0384811660009081526001602090815260408083209387168352929052208054839190601090610435908490600160801b90046affffffffffffffffffffff16610c48565b92506101000a8154816affffffffffffffffffffff02191690836affffffffffffffffffffff16021790555050505050565b6001600160a01b038281166000908152600160209081526040808320938516835292905290812080546104ca9067ffffffffffffffff8082169168010000000000000000810490911690600160801b90046affffffffffffffffffffff16610224565b949350505050565b600080546104ed9061010090046001600160a01b03166107b9565b806105cb575060005461010090046001600160a01b0316636cfdc32e333084600181111561052b57634e487b7160e01b600052602160045260246000fd5b6040517fffffffff0000000000000000000000000000000000000000000000000000000060e086901b1681526001600160a01b03938416600482015292909116602483015260ff16604482015260640160206040518083038186803b15801561059357600080fd5b505afa1580156105a7573d6000803e3d6000fd5b505050506040513d601f19601f820116820180604052508101906105cb9190610b05565b6106175760405162461bcd60e51b815260206004820152601860248201527f76657374696e674578743a3a61636365737344656e696564000000000000000060448201526064016101d8565b428267ffffffffffffffff16116106705760405162461bcd60e51b815260206004820181905260248201527f76657374696e674578743a3a656e64206461746520696e20746865207061737460448201526064016101d8565b6001600160a01b038581166000908152600160209081526040808320938816835292905290812080549091906106d69067ffffffffffffffff8082169168010000000000000000810490911690600160801b90046affffffffffffffffffffff16610224565b82547fffffffffffffffffffffffffffffffffffffffffffffffff0000000000000000164267ffffffffffffffff9081169190911780855591925068010000000000000000909104811690851611156107675781547fffffffffffffffffffffffffffffffff0000000000000000ffffffffffffffff166801000000000000000067ffffffffffffffff8616021782555b6107718582610b87565b82546affffffffffffffffffffff91909116600160801b027fffffffffff0000000000000000000000ffffffffffffffffffffffffffffffff90911617909155505050505050565b600080826001600160a01b031663c19d93fb6040518163ffffffff1660e01b815260040160206040518083038186803b1580156107f557600080fd5b505afa158015610809573d6000803e3d6000fd5b505050506040513d601f19601f8201168201806040525081019061082d9190610b25565b600181111561084c57634e487b7160e01b600052602160045260246000fd5b1480156109f25750816001600160a01b031663c67143666040518163ffffffff1660e01b815260040160206040518083038186803b15801561088d57600080fd5b505afa1580156108a1573d6000803e3d6000fd5b505050506040513d601f19601f820116820180604052508101906108c59190610b44565b158061095c57506040517fa230c5240000000000000000000000000000000000000000000000000000000081523360048201526001600160a01b0383169063a230c5249060240160206040518083038186803b15801561092457600080fd5b505afa158015610938573d6000803e3d6000fd5b505050506040513d601f19601f8201168201806040525081019061095c9190610b05565b806109f257506040517f68c18beb0000000000000000000000000000000000000000000000000000000081523360048201526001600160a01b038316906368c18beb9060240160206040518083038186803b1580156109ba57600080fd5b505afa1580156109ce573d6000803e3d6000fd5b505050506040513d601f19601f820116820180604052508101906109f29190610b05565b92915050565b803567ffffffffffffffff81168114610a1057600080fd5b919050565b80356affffffffffffffffffffff81168114610a1057600080fd5b60008060408385031215610a42578182fd5b8235610a4d81610c7e565b91506020830135610a5d81610c7e565b809150509250929050565b600080600060608486031215610a7c578081fd5b8335610a8781610c7e565b92506020840135610a9781610c7e565b9150610aa560408501610a15565b90509250925092565b60008060008060808587031215610ac3578081fd5b8435610ace81610c7e565b93506020850135610ade81610c7e565b9250610aec60408601610a15565b9150610afa606086016109f8565b905092959194509250565b600060208284031215610b16578081fd5b8151801515811461029b578182fd5b600060208284031215610b36578081fd5b81516002811061029b578182fd5b600060208284031215610b55578081fd5b5051919050565b600080600060608486031215610b70578283fd5b610b79846109f8565b9250610a97602085016109f8565b60006affffffffffffffffffffff808316818516808303821115610bad57610bad610c68565b01949350505050565b60006affffffffffffffffffffff80841680610be057634e487b7160e01b83526012600452602483fd5b92169190910492915050565b60006affffffffffffffffffffff80831681851681830481118215151615610c1657610c16610c68565b02949350505050565b600067ffffffffffffffff83811690831681811015610c4057610c40610c68565b039392505050565b60006affffffffffffffffffffff83811690831681811015610c4057610c405b634e487b7160e01b600052601160045260246000fd5b6001600160a01b0381168114610c9357600080fd5b5056fea264697066735822122008787bd2b9b99765d434de4e1980ab2e03f1a356f47a70414e42f4f7982cf84464736f6c63430008040033",
  "linkReferences": {},
  "deployedLinkReferences": {}
}