{
  "_format": "hh-sol-artifact-1",
  "contractName": "PixelNFT",
  "sourceName": "contracts/test/PixelNFT.sol",
  "abi": [
    {
      "inputs": [
        {
          "internalType": "uint32",
          "name": "dimension",
          "type": "uint32"
        }
      ],
      "stateMutability": "nonpayable",
      "type": "constructor"
    },
    {
      "anonymous": false,
      "inputs": [
        {
          "indexed": true,
          "internalType": "address",
          "name": "owner",
          "type": "address"
        },
        {
          "indexed": true,
          "internalType": "address",
          "name": "approved",
          "type": "address"
        },
        {
          "indexed": true,
          "internalType": "uint256",
          "name": "tokenId",
          "type": "uint256"
        }
      ],
      "name": "Approval",
      "type": "event"
    },
    {
      "anonymous": false,
      "inputs": [
        {
          "indexed": true,
          "internalType": "address",
          "name": "owner",
          "type": "address"
        },
        {
          "indexed": true,
          "internalType": "address",
          "name": "operator",
          "type": "address"
        },
        {
          "indexed": false,
          "internalType": "bool",
          "name": "approved",
          "type": "bool"
        }
      ],
      "name": "ApprovalForAll",
      "type": "event"
    },
    {
      "anonymous": false,
      "inputs": [
        {
          "indexed": false,
          "internalType": "address",
          "name": "owner",
          "type": "address"
        },
        {
          "indexed": false,
          "internalType": "uint256",
          "name": "tokenId",
          "type": "uint256"
        },
        {
          "indexed": false,
          "internalType": "string",
          "name": "uri",
          "type": "string"
        },
        {
          "indexed": false,
          "internalType": "string",
          "name": "metadata",
          "type": "string"
        }
      ],
      "name": "PixMinted",
      "type": "event"
    },
    {
      "anonymous": false,
      "inputs": [
        {
          "indexed": true,
          "internalType": "address",
          "name": "from",
          "type": "address"
        },
        {
          "indexed": true,
          "internalType": "address",
          "name": "to",
          "type": "address"
        },
        {
          "indexed": true,
          "internalType": "uint256",
          "name": "tokenId",
          "type": "uint256"
        }
      ],
      "name": "Transfer",
      "type": "event"
    },
    {
      "inputs": [
        {
          "internalType": "address",
          "name": "to",
          "type": "address"
        },
        {
          "internalType": "uint256",
          "name": "tokenId",
          "type": "uint256"
        }
      ],
      "name": "approve",
      "outputs": [],
      "stateMutability": "nonpayable",
      "type": "function"
    },
    {
      "inputs": [
        {
          "internalType": "address",
          "name": "owner",
          "type": "address"
        }
      ],
      "name": "balanceOf",
      "outputs": [
        {
          "internalType": "uint256",
          "name": "",
          "type": "uint256"
        }
      ],
      "stateMutability": "view",
      "type": "function"
    },
    {
      "inputs": [
        {
          "internalType": "uint256",
          "name": "tokenId",
          "type": "uint256"
        }
      ],
      "name": "getApproved",
      "outputs": [
        {
          "internalType": "address",
          "name": "",
          "type": "address"
        }
      ],
      "stateMutability": "view",
      "type": "function"
    },
    {
      "inputs": [
        {
          "internalType": "address",
          "name": "owner",
          "type": "address"
        },
        {
          "internalType": "address",
          "name": "operator",
          "type": "address"
        }
      ],
      "name": "isApprovedForAll",
      "outputs": [
        {
          "internalType": "bool",
          "name": "",
          "type": "bool"
        }
      ],
      "stateMutability": "view",
      "type": "function"
    },
    {
      "inputs": [
        {
          "internalType": "address",
          "name": "recipient",
          "type": "address"
        },
        {
          "internalType": "uint32",
          "name": "x",
          "type": "uint32"
        },
        {
          "internalType": "uint32",
          "name": "y",
          "type": "uint32"
        }
      ],
      "name": "mintPixel",
      "outputs": [],
      "stateMutability": "nonpayable",
      "type": "function"
    },
    {
      "inputs": [],
      "name": "name",
      "outputs": [
        {
          "internalType": "string",
          "name": "",
          "type": "string"
        }
      ],
      "stateMutability": "view",
      "type": "function"
    },
    {
      "inputs": [
        {
          "internalType": "uint256",
          "name": "tokenId",
          "type": "uint256"
        }
      ],
      "name": "ownerOf",
      "outputs": [
        {
          "internalType": "address",
          "name": "",
          "type": "address"
        }
      ],
      "stateMutability": "view",
      "type": "function"
    },
    {
      "inputs": [
        {
          "internalType": "address",
          "name": "from",
          "type": "address"
        },
        {
          "internalType": "address",
          "name": "to",
          "type": "address"
        },
        {
          "internalType": "uint256",
          "name": "tokenId",
          "type": "uint256"
        }
      ],
      "name": "safeTransferFrom",
      "outputs": [],
      "stateMutability": "nonpayable",
      "type": "function"
    },
    {
      "inputs": [
        {
          "internalType": "address",
          "name": "from",
          "type": "address"
        },
        {
          "internalType": "address",
          "name": "to",
          "type": "address"
        },
        {
          "internalType": "uint256",
          "name": "tokenId",
          "type": "uint256"
        },
        {
          "internalType": "bytes",
          "name": "_data",
          "type": "bytes"
        }
      ],
      "name": "safeTransferFrom",
      "outputs": [],
      "stateMutability": "nonpayable",
      "type": "function"
    },
    {
      "inputs": [
        {
          "internalType": "address",
          "name": "operator",
          "type": "address"
        },
        {
          "internalType": "bool",
          "name": "approved",
          "type": "bool"
        }
      ],
      "name": "setApprovalForAll",
      "outputs": [],
      "stateMutability": "nonpayable",
      "type": "function"
    },
    {
      "inputs": [
        {
          "internalType": "bytes4",
          "name": "interfaceId",
          "type": "bytes4"
        }
      ],
      "name": "supportsInterface",
      "outputs": [
        {
          "internalType": "bool",
          "name": "",
          "type": "bool"
        }
      ],
      "stateMutability": "view",
      "type": "function"
    },
    {
      "inputs": [],
      "name": "symbol",
      "outputs": [
        {
          "internalType": "string",
          "name": "",
          "type": "string"
        }
      ],
      "stateMutability": "view",
      "type": "function"
    },
    {
      "inputs": [
        {
          "internalType": "uint256",
          "name": "tokenId",
          "type": "uint256"
        }
      ],
      "name": "tokenURI",
      "outputs": [
        {
          "internalType": "string",
          "name": "",
          "type": "string"
        }
      ],
      "stateMutability": "view",
      "type": "function"
    },
    {
      "inputs": [
        {
          "internalType": "address",
          "name": "from",
          "type": "address"
        },
        {
          "internalType": "address",
          "name": "to",
          "type": "address"
        },
        {
          "internalType": "uint256",
          "name": "tokenId",
          "type": "uint256"
        }
      ],
      "name": "transferFrom",
      "outputs": [],
      "stateMutability": "nonpayable",
      "type": "function"
    }
  ],
  "bytecode": "0x60806040523480156200001157600080fd5b5060405162001cfa38038062001cfa8339810160408190526200003491620001f3565b604080518082018252600b81526a2834bc32b6102a37b5b2b760a91b6020808301918252835180850190945260038452620a092b60eb1b90840152815191929162000082916000916200014d565b508051620000989060019060208401906200014d565b50620f42409150620000ad9050828062000220565b63ffffffff161115620001115760405162461bcd60e51b815260206004820152602260248201527f746f6f206d616e7920706978656c73202d206d617820616c6c6f7765643a20316044820152614d6960f01b606482015260840160405180910390fd5b6200011d818062000220565b6007805463ffffffff9283166001600160401b031990911617640100000000939092169290920217905562000296565b8280546200015b9062000259565b90600052602060002090601f0160209004810192826200017f5760008555620001ca565b82601f106200019a57805160ff1916838001178555620001ca565b82800160010185558215620001ca579182015b82811115620001ca578251825591602001919060010190620001ad565b50620001d8929150620001dc565b5090565b5b80821115620001d85760008155600101620001dd565b60006020828403121562000205578081fd5b815163ffffffff8116811462000219578182fd5b9392505050565b600063ffffffff808316818516818304811182151516156200025057634e487b7160e01b84526011600452602484fd5b02949350505050565b600181811c908216806200026e57607f821691505b602082108114156200029057634e487b7160e01b600052602260045260246000fd5b50919050565b611a5480620002a66000396000f3fe608060405234801561001057600080fd5b50600436106100ea5760003560e01c80636352211e1161008c578063a22cb46511610066578063a22cb465146101e1578063b88d4fde146101f4578063c87b56dd14610207578063e985e9c51461021a57600080fd5b80636352211e146101a557806370a08231146101b857806395d89b41146101d957600080fd5b8063081812fc116100c8578063081812fc14610141578063095ea7b31461016c57806323b872dd1461017f57806342842e0e1461019257600080fd5b806301ffc9a7146100ef578063058798eb1461011757806306fdde031461012c575b600080fd5b6101026100fd3660046116f4565b610256565b60405190151581526020015b60405180910390f35b61012a6101253660046116b2565b61033b565b005b61013461053c565b60405161010e91906118a1565b61015461014f36600461172c565b6105ce565b6040516001600160a01b03909116815260200161010e565b61012a61017a366004611689565b610674565b61012a61018d36600461153f565b6107a6565b61012a6101a036600461153f565b61082d565b6101546101b336600461172c565b610848565b6101cb6101c63660046114f3565b6108d3565b60405190815260200161010e565b61013461096d565b61012a6101ef36600461164f565b61097c565b61012a61020236600461157a565b61098b565b61013461021536600461172c565b610a19565b61010261022836600461150d565b6001600160a01b03918216600090815260056020908152604080832093909416825291909152205460ff1690565b60007fffffffff0000000000000000000000000000000000000000000000000000000082167f80ac58cd0000000000000000000000000000000000000000000000000000000014806102e957507fffffffff0000000000000000000000000000000000000000000000000000000082167f5b5e139f00000000000000000000000000000000000000000000000000000000145b8061033557507f01ffc9a7000000000000000000000000000000000000000000000000000000007fffffffff000000000000000000000000000000000000000000000000000000008316145b92915050565b60075463ffffffff6401000000009091048116908316108015610371575060075463ffffffff6401000000009091048116908216105b6103e85760405162461bcd60e51b815260206004820152602160248201527f6d6178696d756d20616d6f756e74206f6620706978656c73206578636565646560448201527f640000000000000000000000000000000000000000000000000000000000000060648201526084015b60405180910390fd5b63ffffffff80831660009081526008602090815260408083209385168352929052205460ff161561045b5760405162461bcd60e51b815260206004820152601460248201527f706978656c20616c7265616479206d696e74656400000000000000000000000060448201526064016103df565b610469600680546001019055565b63ffffffff80831660009081526008602090815260408083209385168352929052908120805460ff191660011790556104a160065490565b905060006104b48463ffffffff16610b34565b6104c38463ffffffff16610b34565b6040516020016104d492919061179f565b60405160208183030381529060405290506104f0858383610c8a565b7fe73c09e18308672224b7df5c54fda44cd8313a4b90d6d68b9b329bc125e09191858361051c85610a19565b8460405161052d949392919061185c565b60405180910390a15050505050565b60606000805461054b90611923565b80601f016020809104026020016040519081016040528092919081815260200182805461057790611923565b80156105c45780601f10610599576101008083540402835291602001916105c4565b820191906000526020600020905b8154815290600101906020018083116105a757829003601f168201915b5050505050905090565b6000818152600260205260408120546001600160a01b03166106585760405162461bcd60e51b815260206004820152602c60248201527f4552433732313a20617070726f76656420717565727920666f72206e6f6e657860448201527f697374656e7420746f6b656e000000000000000000000000000000000000000060648201526084016103df565b506000908152600460205260409020546001600160a01b031690565b600061067f82610848565b9050806001600160a01b0316836001600160a01b031614156107095760405162461bcd60e51b815260206004820152602160248201527f4552433732313a20617070726f76616c20746f2063757272656e74206f776e6560448201527f720000000000000000000000000000000000000000000000000000000000000060648201526084016103df565b336001600160a01b038216148061072557506107258133610228565b6107975760405162461bcd60e51b815260206004820152603860248201527f4552433732313a20617070726f76652063616c6c6572206973206e6f74206f7760448201527f6e6572206e6f7220617070726f76656420666f7220616c6c000000000000000060648201526084016103df565b6107a18383610d13565b505050565b6107b03382610d8e565b6108225760405162461bcd60e51b815260206004820152603160248201527f4552433732313a207472616e736665722063616c6c6572206973206e6f74206f60448201527f776e6572206e6f7220617070726f76656400000000000000000000000000000060648201526084016103df565b6107a1838383610e95565b6107a18383836040518060200160405280600081525061098b565b6000818152600260205260408120546001600160a01b0316806103355760405162461bcd60e51b815260206004820152602960248201527f4552433732313a206f776e657220717565727920666f72206e6f6e657869737460448201527f656e7420746f6b656e000000000000000000000000000000000000000000000060648201526084016103df565b60006001600160a01b0382166109515760405162461bcd60e51b815260206004820152602a60248201527f4552433732313a2062616c616e636520717565727920666f7220746865207a6560448201527f726f20616464726573730000000000000000000000000000000000000000000060648201526084016103df565b506001600160a01b031660009081526003602052604090205490565b60606001805461054b90611923565b61098733838361106f565b5050565b6109953383610d8e565b610a075760405162461bcd60e51b815260206004820152603160248201527f4552433732313a207472616e736665722063616c6c6572206973206e6f74206f60448201527f776e6572206e6f7220617070726f76656400000000000000000000000000000060648201526084016103df565b610a138484848461113e565b50505050565b6000818152600260205260409020546060906001600160a01b0316610aa65760405162461bcd60e51b815260206004820152602f60248201527f4552433732314d657461646174613a2055524920717565727920666f72206e6f60448201527f6e6578697374656e7420746f6b656e000000000000000000000000000000000060648201526084016103df565b6000610ae26040805180820190915260208082527f68747470733a2f2f7777772e6f70656e6c61772e696f2f6e6674732f7069782f9082015290565b90506000815111610b025760405180602001604052806000815250610b2d565b80610b0c84610b34565b604051602001610b1d929190611770565b6040516020818303038152906040525b9392505050565b606081610b7457505060408051808201909152600181527f3000000000000000000000000000000000000000000000000000000000000000602082015290565b8160005b8115610b9e5780610b888161195e565b9150610b979050600a836118cc565b9150610b78565b60008167ffffffffffffffff811115610bc757634e487b7160e01b600052604160045260246000fd5b6040519080825280601f01601f191660200182016040528015610bf1576020820181803683370190505b5090505b8415610c8257610c066001836118e0565b9150610c13600a86611997565b610c1e9060306118b4565b60f81b818381518110610c4157634e487b7160e01b600052603260045260246000fd5b60200101907effffffffffffffffffffffffffffffffffffffffffffffffffffffffffffff1916908160001a905350610c7b600a866118cc565b9450610bf5565b949350505050565b610c9483836111c7565b610ca16000848484611316565b6107a15760405162461bcd60e51b815260206004820152603260248201527f4552433732313a207472616e7366657220746f206e6f6e20455243373231526560448201527f63656976657220696d706c656d656e746572000000000000000000000000000060648201526084016103df565b6000818152600460205260409020805473ffffffffffffffffffffffffffffffffffffffff19166001600160a01b0384169081179091558190610d5582610848565b6001600160a01b03167f8c5be1e5ebec7d5bd14f71427d1e84f3dd0314c0f7b2291e5b200ac8c7c3b92560405160405180910390a45050565b6000818152600260205260408120546001600160a01b0316610e185760405162461bcd60e51b815260206004820152602c60248201527f4552433732313a206f70657261746f7220717565727920666f72206e6f6e657860448201527f697374656e7420746f6b656e000000000000000000000000000000000000000060648201526084016103df565b6000610e2383610848565b9050806001600160a01b0316846001600160a01b03161480610e6a57506001600160a01b0380821660009081526005602090815260408083209388168352929052205460ff165b80610c825750836001600160a01b0316610e83846105ce565b6001600160a01b031614949350505050565b826001600160a01b0316610ea882610848565b6001600160a01b031614610f245760405162461bcd60e51b815260206004820152602560248201527f4552433732313a207472616e736665722066726f6d20696e636f72726563742060448201527f6f776e657200000000000000000000000000000000000000000000000000000060648201526084016103df565b6001600160a01b038216610f9f5760405162461bcd60e51b8152602060048201526024808201527f4552433732313a207472616e7366657220746f20746865207a65726f2061646460448201527f726573730000000000000000000000000000000000000000000000000000000060648201526084016103df565b610faa600082610d13565b6001600160a01b0383166000908152600360205260408120805460019290610fd39084906118e0565b90915550506001600160a01b03821660009081526003602052604081208054600192906110019084906118b4565b9091555050600081815260026020526040808220805473ffffffffffffffffffffffffffffffffffffffff19166001600160a01b0386811691821790925591518493918716917fddf252ad1be2c89b69c2b068fc378daa952ba7f163c4a11628f55a4df523b3ef91a4505050565b816001600160a01b0316836001600160a01b031614156110d15760405162461bcd60e51b815260206004820152601960248201527f4552433732313a20617070726f766520746f2063616c6c65720000000000000060448201526064016103df565b6001600160a01b03838116600081815260056020908152604080832094871680845294825291829020805460ff191686151590811790915591519182527f17307eab39ab6107e8899845ad3d59bd9653f200f220920489ca2b5937696c31910160405180910390a3505050565b611149848484610e95565b61115584848484611316565b610a135760405162461bcd60e51b815260206004820152603260248201527f4552433732313a207472616e7366657220746f206e6f6e20455243373231526560448201527f63656976657220696d706c656d656e746572000000000000000000000000000060648201526084016103df565b6001600160a01b03821661121d5760405162461bcd60e51b815260206004820181905260248201527f4552433732313a206d696e7420746f20746865207a65726f206164647265737360448201526064016103df565b6000818152600260205260409020546001600160a01b0316156112825760405162461bcd60e51b815260206004820152601c60248201527f4552433732313a20746f6b656e20616c7265616479206d696e7465640000000060448201526064016103df565b6001600160a01b03821660009081526003602052604081208054600192906112ab9084906118b4565b9091555050600081815260026020526040808220805473ffffffffffffffffffffffffffffffffffffffff19166001600160a01b03861690811790915590518392907fddf252ad1be2c89b69c2b068fc378daa952ba7f163c4a11628f55a4df523b3ef908290a45050565b60006001600160a01b0384163b156114b8576040517f150b7a020000000000000000000000000000000000000000000000000000000081526001600160a01b0385169063150b7a0290611373903390899088908890600401611820565b602060405180830381600087803b15801561138d57600080fd5b505af19250505080156113bd575060408051601f3d908101601f191682019092526113ba91810190611710565b60015b61146d573d8080156113eb576040519150601f19603f3d011682016040523d82523d6000602084013e6113f0565b606091505b5080516114655760405162461bcd60e51b815260206004820152603260248201527f4552433732313a207472616e7366657220746f206e6f6e20455243373231526560448201527f63656976657220696d706c656d656e746572000000000000000000000000000060648201526084016103df565b805181602001fd5b7fffffffff00000000000000000000000000000000000000000000000000000000167f150b7a0200000000000000000000000000000000000000000000000000000000149050610c82565b506001949350505050565b80356001600160a01b03811681146114da57600080fd5b919050565b803563ffffffff811681146114da57600080fd5b600060208284031215611504578081fd5b610b2d826114c3565b6000806040838503121561151f578081fd5b611528836114c3565b9150611536602084016114c3565b90509250929050565b600080600060608486031215611553578081fd5b61155c846114c3565b925061156a602085016114c3565b9150604084013590509250925092565b6000806000806080858703121561158f578081fd5b611598856114c3565b93506115a6602086016114c3565b925060408501359150606085013567ffffffffffffffff808211156115c9578283fd5b818701915087601f8301126115dc578283fd5b8135818111156115ee576115ee6119d7565b604051601f8201601f19908116603f01168101908382118183101715611616576116166119d7565b816040528281528a602084870101111561162e578586fd5b82602086016020830137918201602001949094529598949750929550505050565b60008060408385031215611661578182fd5b61166a836114c3565b91506020830135801515811461167e578182fd5b809150509250929050565b6000806040838503121561169b578182fd5b6116a4836114c3565b946020939093013593505050565b6000806000606084860312156116c6578283fd5b6116cf846114c3565b92506116dd602085016114df565b91506116eb604085016114df565b90509250925092565b600060208284031215611705578081fd5b8135610b2d816119ed565b600060208284031215611721578081fd5b8151610b2d816119ed565b60006020828403121561173d578081fd5b5035919050565b6000815180845261175c8160208601602086016118f7565b601f01601f19169290920160200192915050565b600083516117828184602088016118f7565b8351908301906117968183602088016118f7565b01949350505050565b7f706978656c3a20000000000000000000000000000000000000000000000000008152600083516117d78160078501602088016118f7565b7f2c0000000000000000000000000000000000000000000000000000000000000060079184019182015283516118148160088401602088016118f7565b01600801949350505050565b60006001600160a01b038087168352808616602084015250836040830152608060608301526118526080830184611744565b9695505050505050565b6001600160a01b03851681528360208201526080604082015260006118846080830185611744565b82810360608401526118968185611744565b979650505050505050565b602081526000610b2d6020830184611744565b600082198211156118c7576118c76119ab565b500190565b6000826118db576118db6119c1565b500490565b6000828210156118f2576118f26119ab565b500390565b60005b838110156119125781810151838201526020016118fa565b83811115610a135750506000910152565b600181811c9082168061193757607f821691505b6020821081141561195857634e487b7160e01b600052602260045260246000fd5b50919050565b60007fffffffffffffffffffffffffffffffffffffffffffffffffffffffffffffffff821415611990576119906119ab565b5060010190565b6000826119a6576119a66119c1565b500690565b634e487b7160e01b600052601160045260246000fd5b634e487b7160e01b600052601260045260246000fd5b634e487b7160e01b600052604160045260246000fd5b7fffffffff0000000000000000000000000000000000000000000000000000000081168114611a1b57600080fd5b5056fea2646970667358221220234a888da710f0df2abf5cc5f5578281e9ad043575ef7bcb7fb9dfa26a40faf064736f6c63430008040033",
  "linkReferences": {},
  "deployedLinkReferences": {}
}