{
  "_format": "hh-sol-artifact-1",
  "contractName": "SummonCollectiveDao",
  "sourceName": "contracts/SummonCollectiveDao.sol",
  "abi": [
    {
      "inputs": [],
      "stateMutability": "nonpayable",
      "type": "constructor"
    },
    {
      "anonymous": false,
      "inputs": [
        {
          "indexed": false,
          "internalType": "address",
          "name": "daoFactoryAddress",
          "type": "address"
        },
        {
          "indexed": false,
          "internalType": "address",
          "name": "daoAddr",
          "type": "address"
        },
        {
          "indexed": false,
          "internalType": "string",
          "name": "name",
          "type": "string"
        },
        {
          "indexed": false,
          "internalType": "address",
          "name": "creator",
          "type": "address"
        }
      ],
      "name": "CollectiveDaoCreated",
      "type": "event"
    },
    {
      "inputs": [
        {
          "components": [
            {
              "internalType": "address",
              "name": "target",
              "type": "address"
            },
            {
              "internalType": "bytes",
              "name": "callData",
              "type": "bytes"
            }
          ],
          "internalType": "struct SummonCollectiveDao.Call[8]",
          "name": "calls",
          "type": "tuple[8]"
        }
      ],
      "name": "multiCall",
      "outputs": [],
      "stateMutability": "nonpayable",
      "type": "function"
    },
    {
      "inputs": [
        {
          "components": [
            {
              "internalType": "address[]",
              "name": "daoFactoriesAddress",
              "type": "address[]"
            },
            {
              "components": [
                {
                  "internalType": "bytes32",
                  "name": "id",
                  "type": "bytes32"
                },
                {
                  "internalType": "address",
                  "name": "addr",
                  "type": "address"
                },
                {
                  "internalType": "uint128",
                  "name": "flags",
                  "type": "uint128"
                }
              ],
              "internalType": "struct DaoFactory.Adapter[]",
              "name": "enalbeAdapters",
              "type": "tuple[]"
            },
            {
              "components": [
                {
                  "internalType": "bytes32",
                  "name": "id",
                  "type": "bytes32"
                },
                {
                  "internalType": "address",
                  "name": "addr",
                  "type": "address"
                },
                {
                  "internalType": "uint128",
                  "name": "flags",
                  "type": "uint128"
                }
              ],
              "internalType": "struct DaoFactory.Adapter[]",
              "name": "adapters1",
              "type": "tuple[]"
            },
            {
              "components": [
                {
                  "internalType": "bool",
                  "name": "enable",
                  "type": "bool"
                },
                {
                  "internalType": "uint256",
                  "name": "capacity",
                  "type": "uint256"
                }
              ],
              "internalType": "struct SummonCollectiveDao.InvestorCapacity",
              "name": "investorCapacity",
              "type": "tuple"
            },
            {
              "components": [
                {
                  "internalType": "bool",
                  "name": "enable",
                  "type": "bool"
                },
                {
                  "internalType": "uint256",
                  "name": "varifyType",
                  "type": "uint256"
                },
                {
                  "internalType": "uint256",
                  "name": "minHolding",
                  "type": "uint256"
                },
                {
                  "internalType": "address",
                  "name": "tokenAddress",
                  "type": "address"
                },
                {
                  "internalType": "uint256",
                  "name": "tokenId",
                  "type": "uint256"
                },
                {
                  "internalType": "address[]",
                  "name": "whiteList",
                  "type": "address[]"
                }
              ],
              "internalType": "struct SummonCollectiveDao.CollectiveGovernorMembershipInfo",
              "name": "governorMembership",
              "type": "tuple"
            },
            {
              "components": [
                {
                  "internalType": "uint256",
                  "name": "votingAssetType",
                  "type": "uint256"
                },
                {
                  "internalType": "uint8",
                  "name": "votingPower",
                  "type": "uint8"
                },
                {
                  "internalType": "uint256",
                  "name": "support",
                  "type": "uint256"
                },
                {
                  "internalType": "uint256",
                  "name": "quorum",
                  "type": "uint256"
                },
                {
                  "internalType": "uint256",
                  "name": "supportType",
                  "type": "uint256"
                },
                {
                  "internalType": "uint256",
                  "name": "quorumType",
                  "type": "uint256"
                },
                {
                  "internalType": "uint256",
                  "name": "votingPeriod",
                  "type": "uint256"
                },
                {
                  "internalType": "uint256",
                  "name": "gracePeriod",
                  "type": "uint256"
                },
                {
                  "internalType": "uint256",
                  "name": "executePeriod",
                  "type": "uint256"
                }
              ],
              "internalType": "struct SummonCollectiveDao.CollectiveDaoVotingInfo",
              "name": "collectiveDaoVotingInfo",
              "type": "tuple"
            },
            {
              "components": [
                {
                  "internalType": "string",
                  "name": "name",
                  "type": "string"
                },
                {
                  "internalType": "address",
                  "name": "creator",
                  "type": "address"
                },
                {
                  "internalType": "address",
                  "name": "currency",
                  "type": "address"
                },
                {
                  "internalType": "uint256",
                  "name": "redemptionFee",
                  "type": "uint256"
                },
                {
                  "internalType": "uint256",
                  "name": "proposerInvestTokenReward",
                  "type": "uint256"
                },
                {
                  "internalType": "uint256",
                  "name": "proposerPaybackTokenReward",
                  "type": "uint256"
                }
              ],
              "internalType": "struct SummonCollectiveDao.CollectiveDaoInfo",
              "name": "collectiveDaoInfo",
              "type": "tuple"
            },
            {
              "internalType": "address",
              "name": "riceRewardReceiver",
              "type": "address"
            }
          ],
          "internalType": "struct SummonCollectiveDao.CollectiveDaoParams",
          "name": "params",
          "type": "tuple"
        }
      ],
      "name": "summonCollectiveDao",
      "outputs": [
        {
          "internalType": "bool",
          "name": "",
          "type": "bool"
        }
      ],
      "stateMutability": "nonpayable",
      "type": "function"
    },
    {
      "inputs": [
        {
          "internalType": "address",
          "name": "daoFacAddr",
          "type": "address"
        },
        {
          "internalType": "string",
          "name": "daoName",
          "type": "string"
        },
        {
          "internalType": "address",
          "name": "creator",
          "type": "address"
        }
      ],
      "name": "summonCollectiveDao1",
      "outputs": [
        {
          "internalType": "bool",
          "name": "",
          "type": "bool"
        }
      ],
      "stateMutability": "nonpayable",
      "type": "function"
    },
    {
      "inputs": [
        {
          "internalType": "address",
          "name": "newDaoAddr",
          "type": "address"
        }
      ],
      "name": "summonCollectiveDao10",
      "outputs": [
        {
          "internalType": "bool",
          "name": "",
          "type": "bool"
        }
      ],
      "stateMutability": "nonpayable",
      "type": "function"
    },
    {
      "inputs": [
        {
          "internalType": "address",
          "name": "collectiveFundingPoolFacAddr",
          "type": "address"
        },
        {
          "internalType": "address",
          "name": "newDaoAddr",
          "type": "address"
        },
        {
          "internalType": "address",
          "name": "creator",
          "type": "address"
        }
      ],
      "name": "summonCollectiveDao2",
      "outputs": [
        {
          "internalType": "bool",
          "name": "",
          "type": "bool"
        }
      ],
      "stateMutability": "nonpayable",
      "type": "function"
    },
    {
      "inputs": [
        {
          "internalType": "address",
          "name": "daoFacAddr",
          "type": "address"
        },
        {
          "components": [
            {
              "internalType": "bytes32",
              "name": "id",
              "type": "bytes32"
            },
            {
              "internalType": "address",
              "name": "addr",
              "type": "address"
            },
            {
              "internalType": "uint128",
              "name": "flags",
              "type": "uint128"
            }
          ],
          "internalType": "struct DaoFactory.Adapter[]",
          "name": "enalbeAdapters",
          "type": "tuple[]"
        },
        {
          "internalType": "address",
          "name": "newDaoAddr",
          "type": "address"
        }
      ],
      "name": "summonCollectiveDao3",
      "outputs": [
        {
          "internalType": "bool",
          "name": "",
          "type": "bool"
        }
      ],
      "stateMutability": "nonpayable",
      "type": "function"
    },
    {
      "inputs": [
        {
          "internalType": "address",
          "name": "daoFacAddr",
          "type": "address"
        },
        {
          "internalType": "address",
          "name": "collectiveFundingPoolFacAddr",
          "type": "address"
        },
        {
          "components": [
            {
              "internalType": "bytes32",
              "name": "id",
              "type": "bytes32"
            },
            {
              "internalType": "address",
              "name": "addr",
              "type": "address"
            },
            {
              "internalType": "uint128",
              "name": "flags",
              "type": "uint128"
            }
          ],
          "internalType": "struct DaoFactory.Adapter[]",
          "name": "adapters1",
          "type": "tuple[]"
        },
        {
          "internalType": "address",
          "name": "newDaoAddr",
          "type": "address"
        }
      ],
      "name": "summonCollectiveDao4",
      "outputs": [
        {
          "internalType": "bool",
          "name": "",
          "type": "bool"
        }
      ],
      "stateMutability": "nonpayable",
      "type": "function"
    },
    {
      "inputs": [
        {
          "internalType": "address",
          "name": "newDaoAddr",
          "type": "address"
        },
        {
          "internalType": "uint8",
          "name": "votingPower",
          "type": "uint8"
        },
        {
          "internalType": "uint256[8]",
          "name": "_uint256VoteArgs",
          "type": "uint256[8]"
        }
      ],
      "name": "summonCollectiveDao5",
      "outputs": [
        {
          "internalType": "bool",
          "name": "",
          "type": "bool"
        }
      ],
      "stateMutability": "nonpayable",
      "type": "function"
    },
    {
      "inputs": [
        {
          "internalType": "address",
          "name": "newDaoAddr",
          "type": "address"
        },
        {
          "internalType": "uint256",
          "name": "redemptFee",
          "type": "uint256"
        },
        {
          "internalType": "address",
          "name": "currencyAddress",
          "type": "address"
        },
        {
          "internalType": "uint256",
          "name": "proposerInvestTokenReward",
          "type": "uint256"
        },
        {
          "internalType": "uint256",
          "name": "proposerPaybackTokenReward",
          "type": "uint256"
        },
        {
          "internalType": "address",
          "name": "riceRewardReceiver",
          "type": "address"
        }
      ],
      "name": "summonCollectiveDao6",
      "outputs": [
        {
          "internalType": "bool",
          "name": "",
          "type": "bool"
        }
      ],
      "stateMutability": "nonpayable",
      "type": "function"
    },
    {
      "inputs": [
        {
          "internalType": "address",
          "name": "newDaoAddr",
          "type": "address"
        },
        {
          "internalType": "bool",
          "name": "enable",
          "type": "bool"
        },
        {
          "internalType": "uint256",
          "name": "investorCap",
          "type": "uint256"
        }
      ],
      "name": "summonCollectiveDao7",
      "outputs": [
        {
          "internalType": "bool",
          "name": "",
          "type": "bool"
        }
      ],
      "stateMutability": "nonpayable",
      "type": "function"
    },
    {
      "inputs": [
        {
          "internalType": "address",
          "name": "newDaoAddr",
          "type": "address"
        },
        {
          "internalType": "uint256",
          "name": "vType",
          "type": "uint256"
        },
        {
          "internalType": "uint256",
          "name": "miniHolding",
          "type": "uint256"
        },
        {
          "internalType": "uint256",
          "name": "tokenId",
          "type": "uint256"
        },
        {
          "internalType": "bool",
          "name": "enable",
          "type": "bool"
        },
        {
          "internalType": "address",
          "name": "collectiveDaoGovernorMembershipTokenAddress",
          "type": "address"
        },
        {
          "internalType": "address[]",
          "name": "collectiveDaoGovernorMembershipWhitelist",
          "type": "address[]"
        }
      ],
      "name": "summonCollectiveDao8",
      "outputs": [
        {
          "internalType": "bool",
          "name": "",
          "type": "bool"
        }
      ],
      "stateMutability": "nonpayable",
      "type": "function"
    }
  ],
  "bytecode": "0x608060405234801561001057600080fd5b50613122806100206000396000f3fe608060405234801561001057600080fd5b50600436106100c95760003560e01c8063a1ab6a0011610081578063e16b56d11161005b578063e16b56d11461017a578063e5f3ddc21461018d578063fddc0de4146101a257600080fd5b8063a1ab6a0014610141578063b05e4fed14610154578063b1d68be51461016757600080fd5b80635c7493c2116100b25780635c7493c2146101085780636410d6301461011b57806373d446171461012e57600080fd5b8063093eccfd146100ce578063476b8823146100f5575b600080fd5b6100e16100dc3660046126d0565b6101b5565b604051901515815260200160405180910390f35b6100e1610103366004612a0d565b6103a9565b6100e16101163660046127be565b610ea0565b6100e1610129366004612568565b61131d565b6100e161013c3660046125b2565b6114eb565b6100e161014f366004612529565b611629565b6100e1610162366004612758565b6118a8565b6100e1610175366004612881565b611b47565b6100e161018836600461262d565b611ff9565b6101a061019b3660046128ce565b612098565b005b6100e16101b0366004612693565b6121bd565b60003033146101c357600080fd5b6040517f3baeff3f00000000000000000000000000000000000000000000000000000000815285906001600160a01b03821690633baeff3f9061020e90889088908890600401612dcd565b600060405180830381600087803b15801561022857600080fd5b505af115801561023c573d6000803e3d6000fd5b50506040517f1d1f0a27000000000000000000000000000000000000000000000000000000008152600092506001600160a01b0384169150631d1f0a279061028a9089908990600401612db9565b60206040518083038186803b1580156102a257600080fd5b505afa1580156102b6573d6000803e3d6000fd5b505050506040513d601f19601f820116820180604052508101906102da919061254c565b90506001600160a01b03811661035d5760405162461bcd60e51b815260206004820152603260248201527f53756d6d6d6f6e44616f3a3a73756d6d6f6e436f6c6c65637469766544616f3a60448201527f3a6372656174652064616f206661696c6564000000000000000000000000000060648201526084015b60405180910390fd5b7f6332f1f75eccdb513e45b8bfa0da1aa82a9f67cb34eb5f744ad6adc527cd42be8782888888604051610394959493929190612bf8565b60405180910390a15060019695505050505050565b600081816103bb6101e0830183612f01565b6103cc906060810190604001612529565b6001600160a01b0316141580156103fb5750670de0b6b3a76400006103f56101e0830183612f01565b60600135105b801561041f5750670de0b6b3a76400006104196101e0830183612f01565b60800135105b80156104435750670de0b6b3a764000061043d6101e0830183612f01565b60a00135105b6104b55760405162461bcd60e51b815260206004820152602e60248201527f53756d6d6f6e20466c65782044414f3a3a496e76616c6964204d616e6167656d60448201527f656e742046656520416d6f756e740000000000000000000000000000000000006064820152608401610354565b6104bd612406565b6104c78480612e2d565b60008181106104e657634e487b7160e01b600052603260045260246000fd5b90506020020160208101906104fb9190612529565b6105096101e0860186612f01565b6105139080612ebc565b6105216101e0880188612f01565b610532906040810190602001612529565b6040516024016105459493929190612c5c565b60408051601f198184030181529181526020820180516001600160e01b03167f093eccfd0000000000000000000000000000000000000000000000000000000017905281835251309161059791612b09565b6000604051808303816000865af19150503d80600081146105d4576040519150601f19603f3d011682016040523d82523d6000602084013e6105d9565b606091505b506101408301521515610120820181905261065c5760405162461bcd60e51b815260206004820152603660248201527f6c6f772d6c6576656c2063616c6c206f662066756e6374696f6e2073756d6d6f60448201527f6e436f6c6c65637469766544616f31206661696c6564000000000000000000006064820152608401610354565b600061066c6101e0860186612f01565b6106769080612ebc565b604051602401610687929190612db9565b60408051601f198184030181529190526020810180516001600160e01b03167f1d1f0a270000000000000000000000000000000000000000000000000000000017905290506106d68580612e2d565b60008181106106f557634e487b7160e01b600052603260045260246000fd5b905060200201602081019061070a9190612529565b6001600160a01b0316816040516107219190612b09565b6000604051808303816000865af19150503d806000811461075e576040519150601f19603f3d011682016040523d82523d6000602084013e610763565b606091505b5061014084018190529015801561012085018190526020909201516001600160a01b03166101608501526107a457506101608201516001600160a01b031615155b6107ad57600080fd5b6107b78580612e2d565b60018181106107d657634e487b7160e01b600052603260045260246000fd5b90506020020160208101906107eb9190612529565b6101608301516107ff6101e0880188612f01565b610810906040810190602001612529565b6040516001600160a01b0393841660248201529183166044830152909116606482015260840160408051601f19818403018152919052602080820180516001600160e01b03167f6410d630000000000000000000000000000000000000000000000000000000001790528301526108878580612e2d565b60008181106108a657634e487b7160e01b600052603260045260246000fd5b90506020020160208101906108bb9190612529565b6108c86020870187612e75565b8461016001516040516024016108e19493929190612c24565b60408051601f198184030181529181526020820180516001600160e01b03167fe16b56d1000000000000000000000000000000000000000000000000000000001790528301526109318580612e2d565b600081811061095057634e487b7160e01b600052603260045260246000fd5b90506020020160208101906109659190612529565b61096f8680612e2d565b600181811061098e57634e487b7160e01b600052603260045260246000fd5b90506020020160208101906109a39190612529565b6109b06040880188612e75565b8561016001516040516024016109ca959493929190612bb7565b60408051601f19818403018152918152602080830180516001600160e01b03167f73d4461700000000000000000000000000000000000000000000000000000000179052606080860193909352815161010080820184526101808a01358252890180359282019290925260c0808a0135938201939093526101208901359381019390935261014088013560808401526101608089013560a08501526101a0890135928401929092526101c088013560e0808501919091529185015191610a9291908901612a46565b82604051602401610aa593929190612d06565b60408051601f198184030181529190526020810180516001600160e01b03167fb1d68be5000000000000000000000000000000000000000000000000000000001790526080840152610160830151610b016101e0880188612f01565b60600135610b136101e0890189612f01565b610b24906060810190604001612529565b610b326101e08a018a612f01565b60800135610b446101e08b018b612f01565b60a00135610b5a6102208c016102008d01612529565b6040516001600160a01b03968716602482015260448101959095529285166064850152608484019190915260a483015290911660c482015260e40160408051601f198184030181529190526020810180516001600160e01b03167fb05e4fed0000000000000000000000000000000000000000000000000000000017905260a0840152610160830151610bf360808801606089016129f3565b6040516001600160a01b039092166024830152151560448201526080870135606482015260840160408051601f198184030181529190526020810180516001600160e01b03167ffddc0de40000000000000000000000000000000000000000000000000000000017905260c0840152610160830151610c7560a0880188612f01565b60200135610c8660a0890189612f01565b60400135610c9760a08a018a612f01565b60800135610ca860a08b018b612f01565b610cb69060208101906129f3565b610cc360a08c018c612f01565b610cd4906080810190606001612529565b610ce160a08d018d612f01565b610cef9060a0810190612e2d565b604051602401610d06989796959493929190612c80565b60408051808303601f19018152918152602080830180517f5c7493c2000000000000000000000000000000000000000000000000000000006001600160e01b039182161790915260e0870193845261016087015183516001600160a01b03909116602480830191909152845180830390910181526044909101845280830180519092167fa1ab6a00000000000000000000000000000000000000000000000000000000001790915261010087019081528251808401845230808252888401518285015261018089018051929092528451808601865281815289860151818601528251850152845180860186528181526060808b0151828701528351870191909152855180870187528281526080808c0151828801528451909201528551808701875282815260a0808c0151828801528451909201528551808701875282815260c0808c015182880152845190920152855180870187528281529651878601528251019590955283518085019094529383525190820152905160076020020152610180830151610e9490612098565b50600195945050505050565b600088303314610eaf57600080fd5b851561130d57604051630da0f6c760e41b81527f02049446ffbff09ad55d6fdb03c8c6027cf548332d30663e8fdf960abdab86ea6004820152600160248201526001600160a01b0382169063da0f6c7090604401600060405180830381600087803b158015610f1d57600080fd5b505af1158015610f31573d6000803e3d6000fd5b5050604051630da0f6c760e41b81527f09f0ac4191623c4a1e481e66bb865f218d9f5bcef4e65b597583a054b10182bc6004820152602481018c90526001600160a01b038416925063da0f6c709150604401600060405180830381600087803b158015610f9d57600080fd5b505af1158015610fb1573d6000803e3d6000fd5b505050508860001480610fc45750886001145b80610fcf5750886002145b156110d657604051630da0f6c760e41b81527f6bdd30ca7a0b5a78cdfd780fd2f234880048cafa893e9ccbc9f82df25cdc717f6004820152602481018990526001600160a01b0382169063da0f6c7090604401600060405180830381600087803b15801561103c57600080fd5b505af1158015611050573d6000803e3d6000fd5b5050604051631da7c90d60e11b81527f0567bf43e78d815625031c35adddd5d701cb6b913fbad3b625b4f8c00fdc42aa60048201526001600160a01b03888116602483015284169250633b4f921a9150604401600060405180830381600087803b1580156110bd57600080fd5b505af11580156110d1573d6000803e3d6000fd5b505050505b886002141561116057604051630da0f6c760e41b81527f032de4639c5a8edd1ea478b1345b2d031f42ecd2b29442d3080c9ac0545b5f8e6004820152602481018890526001600160a01b0382169063da0f6c7090604401600060405180830381600087803b15801561114757600080fd5b505af115801561115b573d6000803e3d6000fd5b505050505b88600314801561116f57508215155b1561130d576040517f17ba7d850000000000000000000000000000000000000000000000000000000081527f1a4f1390baec30049008138e650571a3c4374eba88116bc89dc192f2f9295efe60048201526000906001600160a01b038316906317ba7d859060240160206040518083038186803b1580156111ef57600080fd5b505afa158015611203573d6000803e3d6000fd5b505050506040513d601f19601f82011682018060405250810190611227919061254c565b905060005b60ff811685111561130a57816001600160a01b03166333f7bc0c8488888560ff1681811061126a57634e487b7160e01b600052603260045260246000fd5b905060200201602081019061127f9190612529565b6040517fffffffff0000000000000000000000000000000000000000000000000000000060e085901b1681526001600160a01b03928316600482015291166024820152604401600060405180830381600087803b1580156112df57600080fd5b505af11580156112f3573d6000803e3d6000fd5b5050505080806113029061305e565b91505061122c565b50505b5060019998505050505050505050565b600030331461132b57600080fd5b6040517f9ed933180000000000000000000000000000000000000000000000000000000081526001600160a01b038481166004830152859190821690639ed9331890602401600060405180830381600087803b15801561138a57600080fd5b505af115801561139e573d6000803e3d6000fd5b50506040517f3146637e0000000000000000000000000000000000000000000000000000000081526001600160a01b0387811660048301526000935084169150633146637e9060240160206040518083038186803b1580156113ff57600080fd5b505afa158015611413573d6000803e3d6000fd5b505050506040513d601f19601f82011682018060405250810190611437919061254c565b6040517fc130c6390000000000000000000000000000000000000000000000000000000081527f3909e87234f428ccb8748126e2c93f66a62f92a70d315fa5803dec6362be07ab60048201526001600160a01b0380831660248301528681166044830152919250869182169063c130c63990606401600060405180830381600087803b1580156114c657600080fd5b505af11580156114da573d6000803e3d6000fd5b5060019a9950505050505050505050565b6000813033146114fa57600080fd5b6040517f3146637e0000000000000000000000000000000000000000000000000000000081526001600160a01b0384811660048301528891889160009190831690633146637e9060240160206040518083038186803b15801561155c57600080fd5b505afa158015611570573d6000803e3d6000fd5b505050506040513d601f19601f82011682018060405250810190611594919061254c565b9050861561130d576040517f29ca12ed0000000000000000000000000000000000000000000000000000000081526001600160a01b038416906329ca12ed906115e790879085908d908d90600401612d56565b600060405180830381600087803b15801561160157600080fd5b505af1158015611615573d6000803e3d6000fd5b505050505060019998505050505050505050565b600080829050806001600160a01b0316630b1ca49a826001600160a01b03166348f7f2a36040518163ffffffff1660e01b815260040160206040518083038186803b15801561167757600080fd5b505afa15801561168b573d6000803e3d6000fd5b505050506040513d601f19601f820116820180604052508101906116af919061254c565b6040517fffffffff0000000000000000000000000000000000000000000000000000000060e084901b1681526001600160a01b039091166004820152602401600060405180830381600087803b15801561170857600080fd5b505af115801561171c573d6000803e3d6000fd5b50506040517f17ba7d850000000000000000000000000000000000000000000000000000000081527f1a4f1390baec30049008138e650571a3c4374eba88116bc89dc192f2f9295efe6004820152600092506001600160a01b03841691506317ba7d859060240160206040518083038186803b15801561179b57600080fd5b505afa1580156117af573d6000803e3d6000fd5b505050506040513d601f19601f820116820180604052508101906117d3919061254c565b6040517fd32b91dd0000000000000000000000000000000000000000000000000000000081526001600160a01b0384811660048301529192509082169063d32b91dd90602401600060405180830381600087803b15801561183357600080fd5b505af1158015611847573d6000803e3d6000fd5b50505050816001600160a01b0316636503287f6040518163ffffffff1660e01b8152600401600060405180830381600087803b15801561188657600080fd5b505af115801561189a573d6000803e3d6000fd5b506001979650505050505050565b6000863033146118b757600080fd5b604051630da0f6c760e41b81527f51cc27e85946200c558b984a0c15cad2122655d647f9c02ebe9529f2a0b25a2f6004820152602481018890526001600160a01b0382169063da0f6c7090604401600060405180830381600087803b15801561191f57600080fd5b505af1158015611933573d6000803e3d6000fd5b5050604051630da0f6c760e41b81527fb035c58a9b643066fc5cd78a708da0456c36221a03ca174ff3b76d4306ff7c6c6004820152602481018890526001600160a01b038416925063da0f6c709150604401600060405180830381600087803b15801561199f57600080fd5b505af11580156119b3573d6000803e3d6000fd5b5050604051630da0f6c760e41b81527f558062fa5fcc8623e6c743ab5b51793317989a5a93f03b32a485f94843f77da36004820152602481018790526001600160a01b038416925063da0f6c709150604401600060405180830381600087803b158015611a1f57600080fd5b505af1158015611a33573d6000803e3d6000fd5b5050604051631da7c90d60e11b81527f7fa36390a0e9b8b8004035572fd8345b1128cea12d1763a1baf8fbd4fb7b202760048201526001600160a01b03898116602483015284169250633b4f921a9150604401600060405180830381600087803b158015611aa057600080fd5b505af1158015611ab4573d6000803e3d6000fd5b5050604051631da7c90d60e11b81527fc77068975ba2254bd67080aa196783f213ee682a15d902d03f33782130cf737d60048201526001600160a01b03868116602483015284169250633b4f921a9150604401600060405180830381600087803b158015611b2157600080fd5b505af1158015611b35573d6000803e3d6000fd5b5060019b9a5050505050505050505050565b600083303314611b5657600080fd5b604051630da0f6c760e41b81527f9876c0f0505bfb2b1c38d3bbd25ba13159172cd0868972d76927723f5a9480fc6004820152833560248201526001600160a01b0382169063da0f6c7090604401600060405180830381600087803b158015611bbe57600080fd5b505af1158015611bd2573d6000803e3d6000fd5b5050604051630da0f6c760e41b81527fb4c601c38beae7eebb719eda3438f59fcbfd4c6dd7d38c00665b6fd5b432df326004820152602086013560248201526001600160a01b038416925063da0f6c709150604401600060405180830381600087803b158015611c4157600080fd5b505af1158015611c55573d6000803e3d6000fd5b505060408051630da0f6c760e41b81527feee23dc9ab95b6666db01c2b6cae6a5ef706099a25926e21e0a2e043fe88560460048201529086013560248201526001600160a01b038416925063da0f6c709150604401600060405180830381600087803b158015611cc457600080fd5b505af1158015611cd8573d6000803e3d6000fd5b5050604051630da0f6c760e41b81527fd093d4a34a12a221b19c0a6689d5449f1346aa769d15cca4e9782c36fda9339a600482015260ff871660248201526001600160a01b038416925063da0f6c709150604401600060405180830381600087803b158015611d4657600080fd5b505af1158015611d5a573d6000803e3d6000fd5b5050604051630da0f6c760e41b81527f0324de13a5a6e302ddb95a9fdf81cc736fc8acee2abe558970daac27395904e76004820152606086013560248201526001600160a01b038416925063da0f6c709150604401600060405180830381600087803b158015611dc957600080fd5b505af1158015611ddd573d6000803e3d6000fd5b5050604051630da0f6c760e41b81527f1aeed2c0ea31fb81f41489b79a1d09374a270e0f9340ace7354cce77586a7d166004820152608086013560248201526001600160a01b038416925063da0f6c709150604401600060405180830381600087803b158015611e4c57600080fd5b505af1158015611e60573d6000803e3d6000fd5b5050604051630da0f6c760e41b81527f0e0434138ea29dceb1f2c0ca9b9f923f9d1c32d3d96bab2de9991f140daca712600482015260a086013560248201526001600160a01b038416925063da0f6c709150604401600060405180830381600087803b158015611ecf57600080fd5b505af1158015611ee3573d6000803e3d6000fd5b5050604051630da0f6c760e41b81527fb646599143db51c9136a4861a55f7140eab851836e3e1a42ba7804f5356a3655600482015260c086013560248201526001600160a01b038416925063da0f6c709150604401600060405180830381600087803b158015611f5257600080fd5b505af1158015611f66573d6000803e3d6000fd5b5050604051630da0f6c760e41b81527fada09015efb4d45310950167ce9728fe9635e3ef65b062ab8afb0ff348d76cad600482015260e086013560248201526001600160a01b038416925063da0f6c7091506044015b600060405180830381600087803b158015611fd657600080fd5b505af1158015611fea573d6000803e3d6000fd5b50600198975050505050505050565b60008130331461200857600080fd5b85841561208b576040517f9bb200840000000000000000000000000000000000000000000000000000000081526001600160a01b03821690639bb20084906120589085908a908a90600401612d8d565b600060405180830381600087803b15801561207257600080fd5b505af1158015612086573d6000803e3d6000fd5b505050505b5060019695505050505050565b60005b60088110156121b95760008282600881106120c657634e487b7160e01b600052603260045260246000fd5b6020020151516001600160a01b03168383600881106120f557634e487b7160e01b600052603260045260246000fd5b60200201516020015160405161210b9190612b09565b6000604051808303816000865af19150503d8060008114612148576040519150601f19603f3d011682016040523d82523d6000602084013e61214d565b606091505b50509050806121678360026121629190612fb2565b6122b0565b6040516020016121779190612b25565b604051602081830303815290604052906121a45760405162461bcd60e51b81526004016103549190612dfa565b505080806121b190613025565b91505061209b565b5050565b6000833033146121cc57600080fd5b83156122a557604051630da0f6c760e41b81527f69f4ffb3ebcb7809550bddd3e4d449a47e737bf6635bc7a730996643997b0e486004820152600160248201526001600160a01b0382169063da0f6c7090604401600060405180830381600087803b15801561223a57600080fd5b505af115801561224e573d6000803e3d6000fd5b5050604051630da0f6c760e41b81527fecbde689cc6337d29a750b8b8a8abbfa97427b4ac800ab55be2f2c87311510f26004820152602481018690526001600160a01b038416925063da0f6c709150604401611fbc565b506001949350505050565b6060816122f057505060408051808201909152600181527f3000000000000000000000000000000000000000000000000000000000000000602082015290565b8160005b811561231a578061230481613025565b91506123139050600a83612fca565b91506122f4565b60008167ffffffffffffffff81111561234357634e487b7160e01b600052604160045260246000fd5b6040519080825280601f01601f19166020018201604052801561236d576020820181803683370190505b5090505b84156123fe57612382600183612fde565b915061238f600a8661307e565b61239a906030612fb2565b60f81b8183815181106123bd57634e487b7160e01b600052603260045260246000fd5b60200101907effffffffffffffffffffffffffffffffffffffffffffffffffffffffffffff1916908160001a9053506123f7600a86612fca565b9450612371565b949350505050565b604051806101a001604052806060815260200160608152602001606081526020016060815260200160608152602001606081526020016060815260200160608152602001606081526020016000151581526020016060815260200160006001600160a01b0316815260200161247961247e565b905290565b6040518061010001604052806008905b60408051808201909152600081526060602082015281526020019060019003908161248e5790505090565b60008083601f8401126124ca578182fd5b50813567ffffffffffffffff8111156124e1578182fd5b6020830191508360206060830285010111156124fc57600080fd5b9250929050565b8035801515811461251357600080fd5b919050565b803560ff8116811461251357600080fd5b60006020828403121561253a578081fd5b8135612545816130d4565b9392505050565b60006020828403121561255d578081fd5b8151612545816130d4565b60008060006060848603121561257c578182fd5b8335612587816130d4565b92506020840135612597816130d4565b915060408401356125a7816130d4565b809150509250925092565b6000806000806000608086880312156125c9578081fd5b85356125d4816130d4565b945060208601356125e4816130d4565b9350604086013567ffffffffffffffff8111156125ff578182fd5b61260b888289016124b9565b909450925050606086013561261f816130d4565b809150509295509295909350565b60008060008060608587031215612642578384fd5b843561264d816130d4565b9350602085013567ffffffffffffffff811115612668578384fd5b612674878288016124b9565b9094509250506040850135612688816130d4565b939692955090935050565b6000806000606084860312156126a7578283fd5b83356126b2816130d4565b92506126c060208501612503565b9150604084013590509250925092565b600080600080606085870312156126e5578384fd5b84356126f0816130d4565b9350602085013567ffffffffffffffff8082111561270c578485fd5b818701915087601f83011261271f578485fd5b81358181111561272d578586fd5b88602082850101111561273e578586fd5b6020830195508094505050506040850135612688816130d4565b60008060008060008060c08789031215612770578384fd5b863561277b816130d4565b9550602087013594506040870135612792816130d4565b9350606087013592506080870135915060a08701356127b0816130d4565b809150509295509295509295565b60008060008060008060008060e0898b0312156127d9578586fd5b88356127e4816130d4565b975060208901359650604089013595506060890135945061280760808a01612503565b935060a0890135612817816130d4565b925060c089013567ffffffffffffffff80821115612833578384fd5b818b0191508b601f830112612846578384fd5b813581811115612854578485fd5b8c60208260051b8501011115612868578485fd5b6020830194508093505050509295985092959890939650565b6000806000610140808587031215612897578182fd5b84356128a2816130d4565b93506128b060208601612518565b92508581860111156128c0578182fd5b506040840190509250925092565b600060208083850312156128e0578182fd5b823567ffffffffffffffff808211156128f7578384fd5b8185019150601f868184011261290b578485fd5b612913612f34565b80848961010087011115612925578788fd5b875b60088110156129e45781358681111561293e57898afd5b87016040818d03121561294f57898afd5b612957612f5e565b8135612962816130d4565b8152818a013588811115612974578b8cfd5b8083019250508c87830112612987578a8bfd5b813588811115612999576129996130be565b6129aa8b601f198a84011601612f81565b8181528e8c8386010111156129bd578c8dfd5b818c85018d8301379081018b018c9052818b01528552509287019290870190600101612927565b50909998505050505050505050565b600060208284031215612a04578081fd5b61254582612503565b600060208284031215612a1e578081fd5b813567ffffffffffffffff811115612a34578182fd5b82016102208185031215612545578182fd5b600060208284031215612a57578081fd5b61254582612518565b81835260006020808501945082825b85811015612ad4578135875282820135612a88816130d4565b6001600160a01b0316878401526040828101356fffffffffffffffffffffffffffffffff8116808214612ab9578687fd5b91890191909152506060968701969190910190600101612a6f565b509495945050505050565b8183528181602085013750600080602083850101526020601f19601f840116840101905092915050565b60008251612b1b818460208701612ff5565b9190910192915050565b7f6c6f772d6c6576656c2063616c6c206f662073756d6d6f6e436f6c6c6563746981527f766544616f000000000000000000000000000000000000000000000000000000602082015260008251612b83816025850160208701612ff5565b7f206661696c6564000000000000000000000000000000000000000000000000006025939091019283015250602c01919050565b60006001600160a01b038088168352808716602084015260806040840152612be3608084018688612a60565b91508084166060840152509695505050505050565b60006001600160a01b038088168352808716602084015260806040840152612be3608084018688612adf565b60006001600160a01b03808716835260606020840152612c48606084018688612a60565b915080841660408401525095945050505050565b60006001600160a01b03808716835260606020840152612c48606084018688612adf565b600060e082016001600160a01b03808c16845260208b818601528a6040860152896060860152881515608086015281881660a086015260e060c08601528286845261010086019050879350845b87811015612cf4578435612ce0816130d4565b841682529382019390820190600101612ccd565b509d9c50505050505050505050505050565b6000610140820190506001600160a01b0385168252602060ff851681840152604083018460005b6008811015612d4a57815183529183019190830190600101612d2d565b50505050949350505050565b60006001600160a01b03808716835280861660208401525060606040830152612d83606083018486612a60565b9695505050505050565b6001600160a01b0384168152604060208201526000612db0604083018486612a60565b95945050505050565b6020815260006123fe602083018486612adf565b604081526000612de1604083018587612adf565b90506001600160a01b0383166020830152949350505050565b6020815260008251806020840152612e19816040850160208701612ff5565b601f01601f19169190910160400192915050565b6000808335601e19843603018112612e43578283fd5b83018035915067ffffffffffffffff821115612e5d578283fd5b6020019150600581901b36038213156124fc57600080fd5b6000808335601e19843603018112612e8b578283fd5b83018035915067ffffffffffffffff821115612ea5578283fd5b60200191506060810236038213156124fc57600080fd5b6000808335601e19843603018112612ed2578283fd5b83018035915067ffffffffffffffff821115612eec578283fd5b6020019150368190038213156124fc57600080fd5b600082357fffffffffffffffffffffffffffffffffffffffffffffffffffffffffffffff41833603018112612b1b578182fd5b604051610100810167ffffffffffffffff81118282101715612f5857612f586130be565b60405290565b6040805190810167ffffffffffffffff81118282101715612f5857612f586130be565b604051601f8201601f1916810167ffffffffffffffff81118282101715612faa57612faa6130be565b604052919050565b60008219821115612fc557612fc5613092565b500190565b600082612fd957612fd96130a8565b500490565b600082821015612ff057612ff0613092565b500390565b60005b83811015613010578181015183820152602001612ff8565b8381111561301f576000848401525b50505050565b60007fffffffffffffffffffffffffffffffffffffffffffffffffffffffffffffffff82141561305757613057613092565b5060010190565b600060ff821660ff81141561307557613075613092565b60010192915050565b60008261308d5761308d6130a8565b500690565b634e487b7160e01b600052601160045260246000fd5b634e487b7160e01b600052601260045260246000fd5b634e487b7160e01b600052604160045260246000fd5b6001600160a01b03811681146130e957600080fd5b5056fea2646970667358221220cd6bcc3edd41883e3838ebea81e70ce1c0558be5cfa334827d8802df639055b764736f6c63430008040033",
  "linkReferences": {},
  "deployedLinkReferences": {}
}