{
  "_format": "hh-sol-artifact-1",
  "contractName": "SummonDao",
  "sourceName": "contracts/SummonDao.sol",
  "abi": [
    {
      "inputs": [],
      "stateMutability": "nonpayable",
      "type": "constructor"
    },
    {
      "anonymous": false,
      "inputs": [
        {
          "indexed": false,
          "internalType": "address",
          "name": "daoFactoryAddress",
          "type": "address"
        },
        {
          "indexed": false,
          "internalType": "address",
          "name": "daoAddr",
          "type": "address"
        },
        {
          "indexed": false,
          "internalType": "string",
          "name": "name",
          "type": "string"
        },
        {
          "indexed": false,
          "internalType": "address",
          "name": "creator",
          "type": "address"
        }
      ],
      "name": "FlexDaoCreated",
      "type": "event"
    },
    {
      "inputs": [
        {
          "components": [
            {
              "internalType": "address",
              "name": "target",
              "type": "address"
            },
            {
              "internalType": "bytes",
              "name": "callData",
              "type": "bytes"
            }
          ],
          "internalType": "struct SummonDao.Call[9]",
          "name": "calls",
          "type": "tuple[9]"
        }
      ],
      "name": "multiCall",
      "outputs": [],
      "stateMutability": "nonpayable",
      "type": "function"
    },
    {
      "inputs": [
        {
          "components": [
            {
              "internalType": "address[]",
              "name": "daoFactoriesAddress",
              "type": "address[]"
            },
            {
              "components": [
                {
                  "internalType": "bytes32",
                  "name": "id",
                  "type": "bytes32"
                },
                {
                  "internalType": "address",
                  "name": "addr",
                  "type": "address"
                },
                {
                  "internalType": "uint128",
                  "name": "flags",
                  "type": "uint128"
                }
              ],
              "internalType": "struct DaoFactory.Adapter[]",
              "name": "enalbeAdapters",
              "type": "tuple[]"
            },
            {
              "components": [
                {
                  "internalType": "bytes32",
                  "name": "id",
                  "type": "bytes32"
                },
                {
                  "internalType": "address",
                  "name": "addr",
                  "type": "address"
                },
                {
                  "internalType": "uint128",
                  "name": "flags",
                  "type": "uint128"
                }
              ],
              "internalType": "struct DaoFactory.Adapter[]",
              "name": "adapters1",
              "type": "tuple[]"
            },
            {
              "internalType": "bool",
              "name": "fundingPollEnable",
              "type": "bool"
            },
            {
              "components": [
                {
                  "internalType": "bool",
                  "name": "enable",
                  "type": "bool"
                },
                {
                  "internalType": "uint256",
                  "name": "maxInvestorsAmount",
                  "type": "uint256"
                }
              ],
              "internalType": "struct SummonDao.flexDaoInvestorCapInfo",
              "name": "_flexDaoInvestorCapInfo",
              "type": "tuple"
            },
            {
              "internalType": "bool",
              "name": "flexDaoInvestorMembetshipEnable",
              "type": "bool"
            },
            {
              "components": [
                {
                  "internalType": "uint8",
                  "name": "varifyType",
                  "type": "uint8"
                },
                {
                  "internalType": "uint256",
                  "name": "minHolding",
                  "type": "uint256"
                },
                {
                  "internalType": "address",
                  "name": "tokenAddress",
                  "type": "address"
                },
                {
                  "internalType": "uint256",
                  "name": "tokenId",
                  "type": "uint256"
                },
                {
                  "internalType": "address[]",
                  "name": "whiteList",
                  "type": "address[]"
                }
              ],
              "internalType": "struct SummonDao.flexDaoPaticipantMembershipInfo",
              "name": "_flexDaoPaticipantMembershipInfos",
              "type": "tuple"
            },
            {
              "internalType": "bool",
              "name": "flexDaoPriorityDepositEnalbe",
              "type": "bool"
            },
            {
              "components": [
                {
                  "internalType": "uint8",
                  "name": "varifyType",
                  "type": "uint8"
                },
                {
                  "internalType": "uint256",
                  "name": "minHolding",
                  "type": "uint256"
                },
                {
                  "internalType": "address",
                  "name": "tokenAddress",
                  "type": "address"
                },
                {
                  "internalType": "uint256",
                  "name": "tokenId",
                  "type": "uint256"
                },
                {
                  "internalType": "address[]",
                  "name": "whiteList",
                  "type": "address[]"
                },
                {
                  "internalType": "uint256",
                  "name": "priorityPeriod",
                  "type": "uint256"
                }
              ],
              "internalType": "struct SummonDao.flexDaoPriorityMembershipInfo",
              "name": "_flexDaoPriorityMembershipInfo",
              "type": "tuple"
            },
            {
              "components": [
                {
                  "internalType": "bool",
                  "name": "enable",
                  "type": "bool"
                },
                {
                  "internalType": "uint256",
                  "name": "varifyType",
                  "type": "uint256"
                },
                {
                  "internalType": "uint256",
                  "name": "minHolding",
                  "type": "uint256"
                },
                {
                  "internalType": "address",
                  "name": "tokenAddress",
                  "type": "address"
                },
                {
                  "internalType": "uint256",
                  "name": "tokenId",
                  "type": "uint256"
                },
                {
                  "internalType": "address[]",
                  "name": "whiteList",
                  "type": "address[]"
                }
              ],
              "internalType": "struct SummonDao.flexDaoStewardMembershipInfo",
              "name": "_flexDaoStewardMembershipInfo",
              "type": "tuple"
            },
            {
              "components": [
                {
                  "internalType": "uint256",
                  "name": "votingAssetType",
                  "type": "uint256"
                },
                {
                  "internalType": "address",
                  "name": "tokenAddress",
                  "type": "address"
                },
                {
                  "internalType": "uint256",
                  "name": "tokenID",
                  "type": "uint256"
                },
                {
                  "internalType": "uint256",
                  "name": "votingPeriod",
                  "type": "uint256"
                },
                {
                  "internalType": "uint8",
                  "name": "votingPower",
                  "type": "uint8"
                },
                {
                  "internalType": "uint256",
                  "name": "superMajority",
                  "type": "uint256"
                },
                {
                  "internalType": "uint256",
                  "name": "quorum",
                  "type": "uint256"
                },
                {
                  "internalType": "uint256",
                  "name": "supportType",
                  "type": "uint256"
                },
                {
                  "internalType": "uint256",
                  "name": "quorumType",
                  "type": "uint256"
                }
              ],
              "internalType": "struct SummonDao.flexDaoVotingInfo",
              "name": "_flexDaoVotingInfo",
              "type": "tuple"
            },
            {
              "components": [
                {
                  "internalType": "uint8",
                  "name": "varifyType",
                  "type": "uint8"
                },
                {
                  "internalType": "uint256",
                  "name": "minHolding",
                  "type": "uint256"
                },
                {
                  "internalType": "address",
                  "name": "tokenAddress",
                  "type": "address"
                },
                {
                  "internalType": "uint256",
                  "name": "tokenId",
                  "type": "uint256"
                },
                {
                  "internalType": "address[]",
                  "name": "whiteList",
                  "type": "address[]"
                }
              ],
              "internalType": "struct SummonDao.flexDaoPollVoterMembershipInfo",
              "name": "_flexDaoPollVoterMembershipInfo",
              "type": "tuple"
            },
            {
              "components": [
                {
                  "internalType": "uint256",
                  "name": "votingPeriod",
                  "type": "uint256"
                },
                {
                  "internalType": "uint8",
                  "name": "votingPower",
                  "type": "uint8"
                },
                {
                  "internalType": "uint256",
                  "name": "superMajority",
                  "type": "uint256"
                },
                {
                  "internalType": "uint256",
                  "name": "quorum",
                  "type": "uint256"
                },
                {
                  "internalType": "uint256",
                  "name": "votingAssetType",
                  "type": "uint256"
                },
                {
                  "internalType": "address",
                  "name": "tokenAddress",
                  "type": "address"
                },
                {
                  "internalType": "uint256",
                  "name": "tokenID",
                  "type": "uint256"
                },
                {
                  "internalType": "uint256",
                  "name": "supportType",
                  "type": "uint256"
                },
                {
                  "internalType": "uint256",
                  "name": "quorumType",
                  "type": "uint256"
                }
              ],
              "internalType": "struct SummonDao.flexDaoPollingInfo",
              "name": "_flexDaoPollingInfo",
              "type": "tuple"
            },
            {
              "components": [
                {
                  "internalType": "bool",
                  "name": "proposerMembershipEnable",
                  "type": "bool"
                },
                {
                  "internalType": "uint8",
                  "name": "varifyType",
                  "type": "uint8"
                },
                {
                  "internalType": "uint256",
                  "name": "minHolding",
                  "type": "uint256"
                },
                {
                  "internalType": "address",
                  "name": "tokenAddress",
                  "type": "address"
                },
                {
                  "internalType": "uint256",
                  "name": "tokenId",
                  "type": "uint256"
                },
                {
                  "internalType": "address[]",
                  "name": "whiteList",
                  "type": "address[]"
                }
              ],
              "internalType": "struct SummonDao.flexDaoProposerMembershipInfo",
              "name": "_flexDaoProposerMembershipInfo",
              "type": "tuple"
            },
            {
              "components": [
                {
                  "internalType": "string",
                  "name": "name",
                  "type": "string"
                },
                {
                  "internalType": "address",
                  "name": "creator",
                  "type": "address"
                },
                {
                  "internalType": "uint256",
                  "name": "flexDaoManagementfee",
                  "type": "uint256"
                },
                {
                  "internalType": "uint256",
                  "name": "returnTokenManagementFee",
                  "type": "uint256"
                },
                {
                  "internalType": "address",
                  "name": "managementFeeAddress",
                  "type": "address"
                },
                {
                  "internalType": "address[]",
                  "name": "flexDaoGenesisStewards",
                  "type": "address[]"
                },
                {
                  "internalType": "uint256[]",
                  "name": "allocations",
                  "type": "uint256[]"
                }
              ],
              "internalType": "struct SummonDao.flexDaoInfo",
              "name": "_flexDaoInfo",
              "type": "tuple"
            }
          ],
          "internalType": "struct SummonDao.FlexDaoParams",
          "name": "params",
          "type": "tuple"
        }
      ],
      "name": "summonFlexDao",
      "outputs": [],
      "stateMutability": "nonpayable",
      "type": "function"
    },
    {
      "inputs": [
        {
          "internalType": "address",
          "name": "daoFacAddr",
          "type": "address"
        },
        {
          "internalType": "string",
          "name": "daoName",
          "type": "string"
        },
        {
          "internalType": "address",
          "name": "creator",
          "type": "address"
        }
      ],
      "name": "summonFlexDao1",
      "outputs": [
        {
          "internalType": "bool",
          "name": "",
          "type": "bool"
        }
      ],
      "stateMutability": "nonpayable",
      "type": "function"
    },
    {
      "inputs": [
        {
          "internalType": "bool",
          "name": "flexDaoPriorityDepositEnalbe",
          "type": "bool"
        },
        {
          "internalType": "uint256",
          "name": "flexDaoPriorityMembershipVarifyType",
          "type": "uint256"
        },
        {
          "internalType": "uint256",
          "name": "flexDaoPriorityMembershipPriorityPeriod",
          "type": "uint256"
        },
        {
          "internalType": "uint256",
          "name": "flexDaoPriorityMembershipMinHolding",
          "type": "uint256"
        },
        {
          "internalType": "uint256",
          "name": "flexDaoPriorityMembershipTokenId",
          "type": "uint256"
        },
        {
          "internalType": "address[]",
          "name": "flexDaoPriorityMembershipWhiteList",
          "type": "address[]"
        },
        {
          "internalType": "address",
          "name": "flexDaoPriorityMembershipTokenAddress",
          "type": "address"
        },
        {
          "internalType": "address",
          "name": "newDaoAddr",
          "type": "address"
        }
      ],
      "name": "summonFlexDao10",
      "outputs": [
        {
          "internalType": "bool",
          "name": "",
          "type": "bool"
        }
      ],
      "stateMutability": "nonpayable",
      "type": "function"
    },
    {
      "inputs": [
        {
          "internalType": "address",
          "name": "flexFundingPoolFacAddr",
          "type": "address"
        },
        {
          "internalType": "address",
          "name": "newDaoAddr",
          "type": "address"
        },
        {
          "internalType": "address",
          "name": "creator",
          "type": "address"
        }
      ],
      "name": "summonFlexDao2",
      "outputs": [
        {
          "internalType": "bool",
          "name": "",
          "type": "bool"
        }
      ],
      "stateMutability": "nonpayable",
      "type": "function"
    },
    {
      "inputs": [
        {
          "internalType": "address",
          "name": "daoFacAddr",
          "type": "address"
        },
        {
          "components": [
            {
              "internalType": "bytes32",
              "name": "id",
              "type": "bytes32"
            },
            {
              "internalType": "address",
              "name": "addr",
              "type": "address"
            },
            {
              "internalType": "uint128",
              "name": "flags",
              "type": "uint128"
            }
          ],
          "internalType": "struct DaoFactory.Adapter[]",
          "name": "enalbeAdapters",
          "type": "tuple[]"
        },
        {
          "internalType": "address",
          "name": "newDaoAddr",
          "type": "address"
        }
      ],
      "name": "summonFlexDao3",
      "outputs": [
        {
          "internalType": "bool",
          "name": "",
          "type": "bool"
        }
      ],
      "stateMutability": "nonpayable",
      "type": "function"
    },
    {
      "inputs": [
        {
          "internalType": "address",
          "name": "daoFacAddr",
          "type": "address"
        },
        {
          "internalType": "address",
          "name": "flexFundingPoolFacAddr",
          "type": "address"
        },
        {
          "components": [
            {
              "internalType": "bytes32",
              "name": "id",
              "type": "bytes32"
            },
            {
              "internalType": "address",
              "name": "addr",
              "type": "address"
            },
            {
              "internalType": "uint128",
              "name": "flags",
              "type": "uint128"
            }
          ],
          "internalType": "struct DaoFactory.Adapter[]",
          "name": "adapters1",
          "type": "tuple[]"
        },
        {
          "internalType": "address",
          "name": "newDaoAddr",
          "type": "address"
        }
      ],
      "name": "summonFlexDao4",
      "outputs": [
        {
          "internalType": "bool",
          "name": "",
          "type": "bool"
        }
      ],
      "stateMutability": "nonpayable",
      "type": "function"
    },
    {
      "inputs": [
        {
          "internalType": "uint256",
          "name": "flexDaoManagementfee",
          "type": "uint256"
        },
        {
          "internalType": "address",
          "name": "managementFeeAddress",
          "type": "address"
        },
        {
          "internalType": "uint256",
          "name": "flexDaoReturnTokenManagementFee",
          "type": "uint256"
        },
        {
          "internalType": "address",
          "name": "newDaoAddr",
          "type": "address"
        },
        {
          "internalType": "uint8",
          "name": "votingPower",
          "type": "uint8"
        },
        {
          "internalType": "uint256",
          "name": "tokenID",
          "type": "uint256"
        },
        {
          "internalType": "address",
          "name": "tokenAddress",
          "type": "address"
        },
        {
          "internalType": "uint256[6]",
          "name": "_uint256VoteArgs",
          "type": "uint256[6]"
        }
      ],
      "name": "summonFlexDao5",
      "outputs": [
        {
          "internalType": "bool",
          "name": "",
          "type": "bool"
        }
      ],
      "stateMutability": "nonpayable",
      "type": "function"
    },
    {
      "inputs": [
        {
          "internalType": "address[]",
          "name": "flexDaoGenesisStewards",
          "type": "address[]"
        },
        {
          "internalType": "uint256[]",
          "name": "allocations",
          "type": "uint256[]"
        },
        {
          "internalType": "address",
          "name": "newDaoAddr",
          "type": "address"
        },
        {
          "internalType": "uint256",
          "name": "votingAssetType",
          "type": "uint256"
        }
      ],
      "name": "summonFlexDao6",
      "outputs": [
        {
          "internalType": "bool",
          "name": "",
          "type": "bool"
        }
      ],
      "stateMutability": "nonpayable",
      "type": "function"
    },
    {
      "inputs": [
        {
          "internalType": "bool[2]",
          "name": "booleanParams",
          "type": "bool[2]"
        },
        {
          "internalType": "uint256[10]",
          "name": "uint256Params",
          "type": "uint256[10]"
        },
        {
          "internalType": "address",
          "name": "flexDaoPollVoterMembershipTokenAddress",
          "type": "address"
        },
        {
          "internalType": "address[]",
          "name": "flexDaoPollVoterMembershipWhiteList",
          "type": "address[]"
        },
        {
          "internalType": "address",
          "name": "newDaoAddr",
          "type": "address"
        },
        {
          "internalType": "address",
          "name": "flexDaoPollingtokenAddress",
          "type": "address"
        }
      ],
      "name": "summonFlexDao7",
      "outputs": [
        {
          "internalType": "bool",
          "name": "",
          "type": "bool"
        }
      ],
      "stateMutability": "nonpayable",
      "type": "function"
    },
    {
      "inputs": [
        {
          "internalType": "bool",
          "name": "flexDaoStewardMembershipEnable",
          "type": "bool"
        },
        {
          "internalType": "bool",
          "name": "flexDaoProposerMembershipEnable",
          "type": "bool"
        },
        {
          "internalType": "uint256[6]",
          "name": "uint256Params",
          "type": "uint256[6]"
        },
        {
          "internalType": "address",
          "name": "flexDaoStewardMembershipTokenAddress",
          "type": "address"
        },
        {
          "internalType": "address[]",
          "name": "flexDaoStewardMembershipWhitelist",
          "type": "address[]"
        },
        {
          "internalType": "address",
          "name": "flexDaoProposerMembershipTokenAddress",
          "type": "address"
        },
        {
          "internalType": "address[]",
          "name": "flexDaoProposerMembershipWhiteList",
          "type": "address[]"
        },
        {
          "internalType": "address",
          "name": "newDaoAddr",
          "type": "address"
        }
      ],
      "name": "summonFlexDao8",
      "outputs": [
        {
          "internalType": "bool",
          "name": "",
          "type": "bool"
        }
      ],
      "stateMutability": "nonpayable",
      "type": "function"
    },
    {
      "inputs": [
        {
          "internalType": "bool",
          "name": "flexDaoInvestorMembetshipEnable",
          "type": "bool"
        },
        {
          "internalType": "uint256",
          "name": "flexDaoPaticipantMembershipVarifyType",
          "type": "uint256"
        },
        {
          "internalType": "uint256",
          "name": "flexDaoPaticipantMembershipMinHolding",
          "type": "uint256"
        },
        {
          "internalType": "uint256",
          "name": "flexDaoPaticipantMembershipTokenId",
          "type": "uint256"
        },
        {
          "internalType": "address",
          "name": "flexDaoPaticipantMembershipTokenAddress",
          "type": "address"
        },
        {
          "internalType": "address[]",
          "name": "flexDaoPaticipantMembershipWhiteList",
          "type": "address[]"
        },
        {
          "internalType": "address",
          "name": "newDaoAddr",
          "type": "address"
        }
      ],
      "name": "summonFlexDao9",
      "outputs": [
        {
          "internalType": "bool",
          "name": "",
          "type": "bool"
        }
      ],
      "stateMutability": "nonpayable",
      "type": "function"
    }
  ],
  "bytecode": "0x608060405234801561001057600080fd5b506152a3806100206000396000f3fe608060405234801561001057600080fd5b50600436106100d45760003560e01c8063a694adaa11610081578063d2bdd0671161005b578063d2bdd0671461019a578063e9f2e405146101ad578063f56e40c5146101c057600080fd5b8063a694adaa14610161578063abb4728614610174578063c60670501461018757600080fd5b8063724c8011116100b2578063724c801114610128578063a22dff6d1461013b578063a53d86eb1461014e57600080fd5b806332c575f6146100d95780635be04c42146101005780636512f8ee14610113575b600080fd5b6100ec6100e7366004614315565b6101d3565b604051901515815260200160405180910390f35b6100ec61010e366004614733565b6103c7565b610126610121366004614867565b61048f565b005b61012661013636600461450c565b6112d5565b6100ec610149366004614234565b6113fa565b6100ec61015c366004614426565b611533565b6100ec61016f3660046141ea565b611758565b6100ec61018236600461464b565b611927565b6100ec61019536600461439d565b611e6e565b6100ec6101a83660046147c8565b611e99565b6100ec6101bb3660046142af565b612110565b6100ec6101ce3660046148a0565b61216a565b60003033146101e157600080fd5b6040517f3baeff3f00000000000000000000000000000000000000000000000000000000815285906001600160a01b03821690633baeff3f9061022c90889088908890600401614e7c565b600060405180830381600087803b15801561024657600080fd5b505af115801561025a573d6000803e3d6000fd5b50506040517f1d1f0a27000000000000000000000000000000000000000000000000000000008152600092506001600160a01b0384169150631d1f0a27906102a89089908990600401614e68565b60206040518083038186803b1580156102c057600080fd5b505afa1580156102d4573d6000803e3d6000fd5b505050506040513d601f19601f820116820180604052508101906102f891906141ce565b90506001600160a01b03811661037b5760405162461bcd60e51b815260206004820152602c60248201527f53756d6d6d6f6e44616f3a3a73756d6d6f6e466c657844616f3a3a637265617460448201527f652064616f206661696c6564000000000000000000000000000000000000000060648201526084015b60405180910390fd5b7f90b4d575a386848fdb50424cc74bd3396f96cbd019887f6e1cad00bf90b920bf87828888886040516103b2959493929190614b21565b60405180910390a15060019695505050505050565b6000813033146103d657600080fd5b891561047d57604051630da0f6c760e41b81527ffeddffed075d0686e697569ece0ce2fd26bfbbb18719086f36d16c7117edb5536004820152600160248201526001600160a01b0382169063da0f6c7090604401600060405180830381600087803b15801561044457600080fd5b505af1158015610458573d6000803e3d6000fd5b50505050610469818a8a8a8a6127cd565b886003141561047d5761047d8186866129d5565b60019150505b98975050505050505050565b8060006104a06103e0830183614ffb565b60400135101580156104ca5750670de0b6b3a76400006104c46103e0830183614ffb565b60400135105b61053c5760405162461bcd60e51b815260206004820152602e60248201527f53756d6d6f6e20466c65782044414f3a3a496e76616c6964204d616e6167656d60448201527f656e742046656520416d6f756e740000000000000000000000000000000000006064820152608401610372565b610544613f55565b61054e8380614f27565b600081811061056d57634e487b7160e01b600052603260045260246000fd5b905060200201602081019061058291906141ab565b6105906103e0850185614ffb565b61059a9080614fb6565b6105a86103e0870187614ffb565b6105b99060408101906020016141ab565b6040516024016105cc9493929190614b85565b60408051601f198184030181529181526020820180516001600160e01b03167f32c575f60000000000000000000000000000000000000000000000000000000017905281835251309161061e91614a58565b6000604051808303816000865af19150503d806000811461065b576040519150601f19603f3d011682016040523d82523d6000602084013e610660565b606091505b50610160830152151561014082018190526106e35760405162461bcd60e51b815260206004820152603060248201527f6c6f772d6c6576656c2063616c6c206f662066756e6374696f6e2073756d6d6f60448201527f6e466c657844616f31206661696c6564000000000000000000000000000000006064820152608401610372565b60006106f36103e0850185614ffb565b6106fd9080614fb6565b60405160240161070e929190614e68565b60408051601f198184030181529190526020810180516001600160e01b03167f1d1f0a2700000000000000000000000000000000000000000000000000000000179052905061075d8480614f27565b600081811061077c57634e487b7160e01b600052603260045260246000fd5b905060200201602081019061079191906141ab565b6001600160a01b0316816040516107a89190614a58565b6000604051808303816000865af19150503d80600081146107e5576040519150601f19603f3d011682016040523d82523d6000602084013e6107ea565b606091505b5061016084018190529015801561014085018190526020909201516001600160a01b031661018085015261082b57506101808201516001600160a01b031615155b61083457600080fd5b61083e8480614f27565b600181811061085d57634e487b7160e01b600052603260045260246000fd5b905060200201602081019061087291906141ab565b6101808301516108866103e0870187614ffb565b6108979060408101906020016141ab565b6040516001600160a01b0393841660248201529183166044830152909116606482015260840160408051601f19818403018152919052602080820180516001600160e01b03167fa694adaa0000000000000000000000000000000000000000000000000000000017905283015261090e8480614f27565b600081811061092d57634e487b7160e01b600052603260045260246000fd5b905060200201602081019061094291906141ab565b61094f6020860186614f6f565b8461018001516040516024016109689493929190614b4d565b60408051601f198184030181529181526020820180516001600160e01b03167fe9f2e405000000000000000000000000000000000000000000000000000000001790528301526109b88480614f27565b60008181106109d757634e487b7160e01b600052603260045260246000fd5b90506020020160208101906109ec91906141ab565b6109f68580614f27565b6001818110610a1557634e487b7160e01b600052603260045260246000fd5b9050602002016020810190610a2a91906141ab565b610a376040870187614f6f565b856101800151604051602401610a51959493929190614ae0565b60408051601f19818403018152918152602080830180516001600160e01b03167fa22dff6d00000000000000000000000000000000000000000000000000000000179052606080860193909352815160c0810183526101c08801358152610200880135918101919091526101608701359181019190915261022086013591810191909152610240850135608082015261026085013560a0820152610af96103e0860186614ffb565b60400135610b0b6103e0870187614ffb565b610b1c9060a08101906080016141ab565b610b2a6103e0880188614ffb565b6101808601516060919091013590610b4a6102008a016101e08b0161492f565b6101a08a01803590610b60906101808d016141ab565b87604051602401610b78989796959493929190614edc565b60408051601f198184030181529190526020810180516001600160e01b03167ff56e40c5000000000000000000000000000000000000000000000000000000001790526080840152610bce6103e0860186614ffb565b610bdc9060a0810190614f27565b610bea6103e0880188614ffb565b610bf89060c0810190614f27565b610180870151604051610c199594939291906101608c013590602401614ba9565b60408051601f19818403018152918152602080830180516001600160e01b03167fc60670500000000000000000000000000000000000000000000000000000000017905260a0860192909252805161014081019091526102a087013581526000918101610c8e6102e089016102c08a0161492f565b60ff1681526102e0880135602082015261030088013560408201526103208801356060820152610360880135608082015260a001610cd061028089018961502e565b610cde90602081019061492f565b60ff168152602001610cf461028089018961502e565b602090810135825201610d0b61028089018961502e565b6060013581526020018760800160200135815250905060006040518060400160405280886060016020810190610d419190614631565b15158152602001610d5860a08a0160808b01614631565b1515905290508082610d6e6102808a018a61502e565b610d7f9060608101906040016141ab565b610d8d6102808b018b61502e565b610d9b906080810190614f27565b6101808a0151610db36103608e016103408f016141ab565b604051602401610dc99796959493929190614c23565b60408051601f198184030181529181526020820180516001600160e01b03167fa53d86eb0000000000000000000000000000000000000000000000000000000017905260c0808801929092528051918201905260009080610e2e6101408b018b615061565b602090810135825201610e456101408b018b615061565b604001358152602001610e5c6101408b018b615061565b608001358152602001610e736103c08b018b615061565b610e8490604081019060200161492f565b60ff168152602001610e9a6103c08b018b615061565b608001358152602001610eb16103c08b018b615061565b6040013590529050610ec7610140890189615061565b610ed5906020810190614631565b610ee36103c08a018a615061565b610ef1906020810190614631565b82610f006101408c018c615061565b610f119060808101906060016141ab565b610f1f6101408d018d615061565b610f2d9060a0810190614f27565b610f3b6103c08f018f615061565b610f4c9060808101906060016141ab565b8e806103c00190610f5d9190615061565b610f6b9060a0810190614f27565b8e6101800151604051602401610f8a9a99989796959493929190614ccb565b60408051601f198184030181529190526020810180516001600160e01b03167fabb472860000000000000000000000000000000000000000000000000000000017905260e080880191909152610fe590890160c08a01614631565b610ff260e08a018a61502e565b61100090602081019061492f565b61100d60e08b018b61502e565b6020013561101e60e08c018c61502e565b6060013561102f60e08d018d61502e565b6110409060608101906040016141ab565b61104d60e08e018e61502e565b61105b906080810190614f27565b8c6101800151604051602401611078989796959493929190614d4a565b60408051601f198184030181529190526020810180516001600160e01b03167f5be04c4200000000000000000000000000000000000000000000000000000000179052610100808801919091526110d6906101208a01908a01614631565b6110e46101208a018a615061565b6110f290602081019061492f565b6111006101208b018b615061565b60a001356111126101208c018c615061565b602001356111246101208d018d615061565b606001356111366101208e018e615061565b611144906080810190614f27565b8e8061012001906111559190615061565b6111669060608101906040016141ab565b8d610180015160405160240161118499989796959493929190614da3565b60408051601f19818403018152918152602080830180516001600160e01b03167fd2bdd06700000000000000000000000000000000000000000000000000000000179052610120890192835281518083018352308082528a830151828401526101a08b01805192909252835180850185528181528b850151818501528251840152835180850185528181526060808d0151828601528351860191909152845180860186528281526080808e0151828701528451909201528451808601865282815260a0808e0151828701528451909201528451808601865282815260c0808e0151828701528451909201528451808601865282815260e0808e015182870152845190920152845180860186528281526101008d015181860152835190910152835180850190945283529251908201529051600860200201526101a08601516112cb906112d5565b5050505050505050565b60005b60098110156113f657600082826009811061130357634e487b7160e01b600052603260045260246000fd5b6020020151516001600160a01b031683836009811061133257634e487b7160e01b600052603260045260246000fd5b6020020151602001516040516113489190614a58565b6000604051808303816000865af19150503d8060008114611385576040519150601f19603f3d011682016040523d82523d6000602084013e61138a565b606091505b50509050806113a483600261139f9190615112565b612b48565b6040516020016113b49190614a74565b604051602081830303815290604052906113e15760405162461bcd60e51b81526004016103729190614ea9565b505080806113ee906151a6565b9150506112d8565b5050565b60008130331461140957600080fd5b6040517f3146637e0000000000000000000000000000000000000000000000000000000081526001600160a01b0384811660048301528891889160009190831690633146637e9060240160206040518083038186803b15801561146b57600080fd5b505afa15801561147f573d6000803e3d6000fd5b505050506040513d601f19601f820116820180604052508101906114a391906141ce565b6040517f29ca12ed0000000000000000000000000000000000000000000000000000000081529091506001600160a01b038416906329ca12ed906114f190879085908d908d90600401614e05565b600060405180830381600087803b15801561150b57600080fd5b505af115801561151f573d6000803e3d6000fd5b5060019d9c50505050505050505050505050565b60008230331461154257600080fd5b88511561163757604051630da0f6c760e41b81527f6e9fd67c3f2ca4e2b4e4b45b33b985dc3a1bffcadea24d12440a5901f72217b56004820152600160248201526001600160a01b0382169063da0f6c7090604401600060405180830381600087803b1580156115b157600080fd5b505af11580156115c5573d6000803e3d6000fd5b5050505061161681896000600a81106115ee57634e487b7160e01b600052603260045260246000fd5b60209081029190910151908b015160408c015160608d015160808e015160a08f01518a612c9e565b60c088015160e08901516101008a015161163792849290918b908b8b613050565b60208901511561174957604051630da0f6c760e41b81527f69f4ffb3ebcb7809550bddd3e4d449a47e737bf6635bc7a730996643997b0e486004820152600160248201526001600160a01b0382169063da0f6c7090604401600060405180830381600087803b1580156116a957600080fd5b505af11580156116bd573d6000803e3d6000fd5b505050610120890151604051630da0f6c760e41b81527fecbde689cc6337d29a750b8b8a8abbfa97427b4ac800ab55be2f2c87311510f2600482015260248101919091526001600160a01b038316915063da0f6c7090604401600060405180830381600087803b15801561173057600080fd5b505af1158015611744573d6000803e3d6000fd5b505050505b50600198975050505050505050565b600030331461176657600080fd5b6040517f9ed933180000000000000000000000000000000000000000000000000000000081526001600160a01b038481166004830152859190821690639ed9331890602401600060405180830381600087803b1580156117c557600080fd5b505af11580156117d9573d6000803e3d6000fd5b50506040517f3146637e0000000000000000000000000000000000000000000000000000000081526001600160a01b0387811660048301526000935084169150633146637e9060240160206040518083038186803b15801561183a57600080fd5b505afa15801561184e573d6000803e3d6000fd5b505050506040513d601f19601f8201168201806040525081019061187291906141ce565b6040517fc130c6390000000000000000000000000000000000000000000000000000000081527fb12a3847d47fefceb164b75823af125f9aa82b76938df0ddf08c04cd314ba37c60048201526001600160a01b0380831660248301528681166044830152919250869182169063c130c639906064015b600060405180830381600087803b15801561190257600080fd5b505af1158015611916573d6000803e3d6000fd5b5060019a9950505050505050505050565b60008130331461193657600080fd5b8b15611d9957604051630da0f6c760e41b81527f71ecc01da16acc23ab0eca549b0aaa7659ae183a220304fe5072243bc984fd796004820152600160248201526001600160a01b0382169063da0f6c7090604401600060405180830381600087803b1580156119a457600080fd5b505af11580156119b8573d6000803e3d6000fd5b50508b51604051630da0f6c760e41b81527f84580f9d926113d2c801e908a914b652340b3d8527c171bcea8d1868e92a507c600482015260248101919091526001600160a01b038416925063da0f6c709150604401600060405180830381600087803b158015611a2757600080fd5b505af1158015611a3b573d6000803e3d6000fd5b5050505089600060068110611a6057634e487b7160e01b600052603260045260246000fd5b60200201511580611a72575089516001145b80611a7e575089516002145b15611b8b5760208a0151604051630da0f6c760e41b81527f50c40dbbb38d5b02b04e0c6d7be02f4391fc8c14a98860284871ef1834c8390b600482015260248101919091526001600160a01b0382169063da0f6c7090604401600060405180830381600087803b158015611af157600080fd5b505af1158015611b05573d6000803e3d6000fd5b5050604051631da7c90d60e11b81527f0bfac56541ded449415df8f96f54b002e55665d7fd2fafc884184e8c17f3c77260048201526001600160a01b038c8116602483015284169250633b4f921a9150604401600060405180830381600087803b158015611b7257600080fd5b505af1158015611b86573d6000803e3d6000fd5b505050505b895160021415611c1c576040808b01519051630da0f6c760e41b81527f93cc40268a57b3f7e5eb22a016a12d19010736289cceac5742a116fea3491b35600482015260248101919091526001600160a01b0382169063da0f6c7090604401600060405180830381600087803b158015611c0357600080fd5b505af1158015611c17573d6000803e3d6000fd5b505050505b89516003148015611c2c57508615155b15611d99576040516317ba7d8560e01b81527fcad7b0867188190920a10bf710c45443f6358175d56a759e7dc109e6d7b5d75360048201526000906001600160a01b038316906317ba7d859060240160206040518083038186803b158015611c9357600080fd5b505afa158015611ca7573d6000803e3d6000fd5b505050506040513d601f19601f82011682018060405250810190611ccb91906141ce565b905060005b60ff8116891115611d9657816001600160a01b03166333f7bc0c848c8c8560ff16818110611d0e57634e487b7160e01b600052603260045260246000fd5b9050602002016020810190611d2391906141ab565b6040516001600160e01b031960e085901b1681526001600160a01b03928316600482015291166024820152604401600060405180830381600087803b158015611d6b57600080fd5b505af1158015611d7f573d6000803e3d6000fd5b505050508080611d8e906151df565b915050611cd0565b50505b8a15611e5c57604051630da0f6c760e41b81527f2073e6ba5c75026b006fdd165596d94b89cada2e00d8e44a99d422de8ea467e06004820152600160248201526001600160a01b0382169063da0f6c7090604401600060405180830381600087803b158015611e0757600080fd5b505af1158015611e1b573d6000803e3d6000fd5b50505050611e5c818b600360068110611e4457634e487b7160e01b600052603260045260246000fd5b602002015160a08d015160808e01518a908a8a613298565b5060019b9a5050505050505050505050565b600082303314611e7d57600080fd5b611e8b81848a8a8a8a6134d5565b506001979650505050505050565b600081303314611ea857600080fd5b8a15611ebe57611ebe818b8b8b8b8b8b8b613756565b806001600160a01b0316630b1ca49a826001600160a01b03166348f7f2a36040518163ffffffff1660e01b815260040160206040518083038186803b158015611f0657600080fd5b505afa158015611f1a573d6000803e3d6000fd5b505050506040513d601f19601f82011682018060405250810190611f3e91906141ce565b6040516001600160e01b031960e084901b1681526001600160a01b039091166004820152602401600060405180830381600087803b158015611f7f57600080fd5b505af1158015611f93573d6000803e3d6000fd5b50505050806001600160a01b0316636503287f6040518163ffffffff1660e01b8152600401600060405180830381600087803b158015611fd257600080fd5b505af1158015611fe6573d6000803e3d6000fd5b50506040516317ba7d8560e01b81527fcad7b0867188190920a10bf710c45443f6358175d56a759e7dc109e6d7b5d7536004820152600092506001600160a01b03841691506317ba7d859060240160206040518083038186803b15801561204c57600080fd5b505afa158015612060573d6000803e3d6000fd5b505050506040513d601f19601f8201168201806040525081019061208491906141ce565b6040517fd32b91dd0000000000000000000000000000000000000000000000000000000081526001600160a01b0384811660048301529192509082169063d32b91dd90602401600060405180830381600087803b1580156120e457600080fd5b505af11580156120f8573d6000803e3d6000fd5b505050506001925050505b9998505050505050505050565b60008130331461211f57600080fd5b6040517f9bb2008400000000000000000000000000000000000000000000000000000000815286906001600160a01b03821690639bb20084906118e89085908a908a90600401614e3c565b60008530331461217957600080fd5b604051630da0f6c760e41b81527f64c49ee5084f4940c312104c41603e43791b03dad28152afd6eadb5b960a8a876004820152602481018b90526001600160a01b0382169063da0f6c7090604401600060405180830381600087803b1580156121e157600080fd5b505af11580156121f5573d6000803e3d6000fd5b5050604051631da7c90d60e11b81527f8987d08c67963e4cacd5e5936c122a968c66853d58299dd822c194222710983960048201526001600160a01b038c8116602483015284169250633b4f921a9150604401600060405180830381600087803b15801561226257600080fd5b505af1158015612276573d6000803e3d6000fd5b5050604051630da0f6c760e41b81527fea659d8e1a730b10af1cecb4f8ee391adf80e75302d6aaeb9642dc8a4a5e5dbb6004820152602481018b90526001600160a01b038416925063da0f6c709150604401600060405180830381600087803b1580156122e257600080fd5b505af11580156122f6573d6000803e3d6000fd5b5050604051630da0f6c760e41b81527f9876c0f0505bfb2b1c38d3bbd25ba13159172cd0868972d76927723f5a9480fc6004820152853560248201526001600160a01b038416925063da0f6c709150604401600060405180830381600087803b15801561236257600080fd5b505af1158015612376573d6000803e3d6000fd5b5050604051630da0f6c760e41b81527fb4c601c38beae7eebb719eda3438f59fcbfd4c6dd7d38c00665b6fd5b432df326004820152602086013560248201526001600160a01b038416925063da0f6c709150604401600060405180830381600087803b1580156123e557600080fd5b505af11580156123f9573d6000803e3d6000fd5b505060408051630da0f6c760e41b81527f75b7d343967750d1f6c15979b7559cea8be22ff1a06a51681b9cbef0d2fff4fe60048201529086013560248201526001600160a01b038416925063da0f6c709150604401600060405180830381600087803b15801561246857600080fd5b505af115801561247c573d6000803e3d6000fd5b5050604051630da0f6c760e41b81527f18ef0b57fe939edb640a200fdf533493bd8f26a274151543a109b64c857e20f3600482015260ff891660248201526001600160a01b038416925063da0f6c709150604401600060405180830381600087803b1580156124ea57600080fd5b505af11580156124fe573d6000803e3d6000fd5b505050508260026006811061252357634e487b7160e01b600052603260045260246000fd5b6020020135600214156125b157604051630da0f6c760e41b81527f77b1580d1632c74a32483c26a7156260a89ae4138b020ea7d09b0dcf24f1ea246004820152602481018690526001600160a01b0382169063da0f6c7090604401600060405180830381600087803b15801561259857600080fd5b505af11580156125ac573d6000803e3d6000fd5b505050505b604083013515806125c6575060016040840135145b806125d5575060408301356002145b1561265c57604051631da7c90d60e11b81527fb5a1ad3f04728d7c38547e3d43006a1ec090a02fce04bbb1d0ee4519a1921e5760048201526001600160a01b038581166024830152821690633b4f921a90604401600060405180830381600087803b15801561264357600080fd5b505af1158015612657573d6000803e3d6000fd5b505050505b604051630da0f6c760e41b81527f0324de13a5a6e302ddb95a9fdf81cc736fc8acee2abe558970daac27395904e76004820152606084013560248201526001600160a01b0382169063da0f6c7090604401600060405180830381600087803b1580156126c757600080fd5b505af11580156126db573d6000803e3d6000fd5b5050604051630da0f6c760e41b81527fe815a3c082eed7f7f7baab546f11a8718682c0eb3017b099ddc301a92f6673e36004820152608086013560248201526001600160a01b038416925063da0f6c709150604401600060405180830381600087803b15801561274a57600080fd5b505af115801561275e573d6000803e3d6000fd5b5050604051630da0f6c760e41b81527f730faccfe82f70711a34ce5202c6e1b1f79f421c16fcef745a9d92d06a7c0d4c600482015260a086013560248201526001600160a01b038416925063da0f6c709150604401600060405180830381600087803b15801561150b57600080fd5b604051630da0f6c760e41b81527f77041e0d128001928f30b976713fed530b452bc354a9bad49ad1bcf93121f9dc6004820152602481018590526001600160a01b0386169063da0f6c7090604401600060405180830381600087803b15801561283557600080fd5b505af1158015612849573d6000803e3d6000fd5b5050604051630da0f6c760e41b81527fcab672166d6a1c8dae3ca0b03fed2e7258db17c3c3801ac2651987b066d396476004820152602481018690526001600160a01b038816925063da0f6c709150604401600060405180830381600087803b1580156128b557600080fd5b505af11580156128c9573d6000803e3d6000fd5b5050604051630da0f6c760e41b81527fcdc3057ec9c82a3ea3fd34ef56b1825924525fbab071e1a2b9d664a07f4004806004820152602481018590526001600160a01b038816925063da0f6c709150604401600060405180830381600087803b15801561293557600080fd5b505af1158015612949573d6000803e3d6000fd5b5050604051631da7c90d60e11b81527f0f57fc3a39a8a66c31f52eab69ced65d5ac74e4a182b215146a45a0281de53e860048201526001600160a01b03848116602483015288169250633b4f921a9150604401600060405180830381600087803b1580156129b657600080fd5b505af11580156129ca573d6000803e3d6000fd5b505050505050505050565b8015612b43576040516317ba7d8560e01b81527f2207fd6117465cefcba0abc867150698c0464aa41a293ec29ca01b67a6350c3c60048201526000906001600160a01b038516906317ba7d859060240160206040518083038186803b158015612a3d57600080fd5b505afa158015612a51573d6000803e3d6000fd5b505050506040513d601f19601f82011682018060405250810190612a7591906141ce565b905060005b60ff8116831115612b4057816001600160a01b031663ac7e7eba8686868560ff16818110612ab857634e487b7160e01b600052603260045260246000fd5b9050602002016020810190612acd91906141ab565b6040516001600160e01b031960e085901b1681526001600160a01b03928316600482015291166024820152604401600060405180830381600087803b158015612b1557600080fd5b505af1158015612b29573d6000803e3d6000fd5b505050508080612b38906151df565b915050612a7a565b50505b505050565b606081612b8857505060408051808201909152600181527f3000000000000000000000000000000000000000000000000000000000000000602082015290565b8160005b8115612bb25780612b9c816151a6565b9150612bab9050600a8361514f565b9150612b8c565b60008167ffffffffffffffff811115612bdb57634e487b7160e01b600052604160045260246000fd5b6040519080825280601f01601f191660200182016040528015612c05576020820181803683370190505b5090505b8415612c9657612c1a600183615163565b9150612c27600a866151ff565b612c32906030615112565b60f81b818381518110612c5557634e487b7160e01b600052603260045260246000fd5b60200101907effffffffffffffffffffffffffffffffffffffffffffffffffffffffffffff1916908160001a905350612c8f600a8661514f565b9450612c09565b949350505050565b604051630da0f6c760e41b81527fee63cc82ca6990a4cc5fa3ca10d8a5281ae1758a8d8f22892c4badb7cacd111e6004820152602481018890526001600160a01b0389169063da0f6c7090604401600060405180830381600087803b158015612d0657600080fd5b505af1158015612d1a573d6000803e3d6000fd5b5050604051630da0f6c760e41b81527f18ccfaf5deb9f2b0bd666344fa9c46950fbcee85fbfd05c3959876dfe502c2096004820152602481018990526001600160a01b038b16925063da0f6c709150604401600060405180830381600087803b158015612d8657600080fd5b505af1158015612d9a573d6000803e3d6000fd5b5050604051630da0f6c760e41b81527f777270e51451e60c2ce5118fc8e5844441dcc4d102e9052e60fb41312dbb848a6004820152602481018890526001600160a01b038b16925063da0f6c709150604401600060405180830381600087803b158015612e0657600080fd5b505af1158015612e1a573d6000803e3d6000fd5b5050604051630da0f6c760e41b81527f7789eea44dccd66529026559d1b36215cb5766016b41a8a8f16e08b2ec8758376004820152602481018790526001600160a01b038b16925063da0f6c709150604401600060405180830381600087803b158015612e8657600080fd5b505af1158015612e9a573d6000803e3d6000fd5b5050604051630da0f6c760e41b81527ff873703084a7a9b6b81a595d5038f888fd90f4f9a530d4950a46c89eab0211886004820152602481018690526001600160a01b038b16925063da0f6c709150604401600060405180830381600087803b158015612f0657600080fd5b505af1158015612f1a573d6000803e3d6000fd5b505050508260021415612fa857604051630da0f6c760e41b81527f4e640b0dd9bf7618f23df95b8d516df2ff38868970d2d109c5b4b0455980659f6004820152602481018390526001600160a01b0389169063da0f6c7090604401600060405180830381600087803b158015612f8f57600080fd5b505af1158015612fa3573d6000803e3d6000fd5b505050505b821580612fb55750826001145b80612fc05750826002145b156112cb57604051631da7c90d60e11b81527fa23a2786abcf8c551ce7fba1966ec456144d9caa0db070879d03a4ea4fd9b2fd60048201526001600160a01b038281166024830152891690633b4f921a90604401600060405180830381600087803b15801561302e57600080fd5b505af1158015613042573d6000803e3d6000fd5b505050505050505050505050565b604051630da0f6c760e41b81527f249486eeae30287051f65673dfa390711fd4587950c33b4150a633763f8697246004820152602481018790526001600160a01b0388169063da0f6c7090604401600060405180830381600087803b1580156130b857600080fd5b505af11580156130cc573d6000803e3d6000fd5b5050505085600014806130df5750856001145b806130ea5750856002145b156131f157604051630da0f6c760e41b81527f6839e94cab6f83f7a12a5a3d1d6f3bbcaf0185a49b20b86e6f47b8c78494ac3d6004820152602481018690526001600160a01b0388169063da0f6c7090604401600060405180830381600087803b15801561315757600080fd5b505af115801561316b573d6000803e3d6000fd5b5050604051631da7c90d60e11b81527f770ef80745dba2953f780c8b963701e76fd3ac982923200f9214126e80f5f03260048201526001600160a01b0387811660248301528a169250633b4f921a9150604401600060405180830381600087803b1580156131d857600080fd5b505af11580156131ec573d6000803e3d6000fd5b505050505b856002141561327b57604051630da0f6c760e41b81527ff2b332c307ef460e99eb866928b78eca9f8af0da0626b4b48a13f9b52842fa6a6004820152602481018490526001600160a01b0388169063da0f6c7090604401600060405180830381600087803b15801561326257600080fd5b505af1158015613276573d6000803e3d6000fd5b505050505b856003141561328f5761328f878383613a95565b50505050505050565b8515806132a55750856001145b806132b05750856002145b156133b757604051630da0f6c760e41b81527ff6d5f030b79ca78dad001b87a49239ec96be97e62d13501da94c9a392700509e6004820152602481018690526001600160a01b0388169063da0f6c7090604401600060405180830381600087803b15801561331d57600080fd5b505af1158015613331573d6000803e3d6000fd5b5050604051631da7c90d60e11b81527f30091caaedd0994beeeeb3b7b5734296263687ae0126aaf79e5e0f8e5c1706b260048201526001600160a01b0387811660248301528a169250633b4f921a9150604401600060405180830381600087803b15801561339e57600080fd5b505af11580156133b2573d6000803e3d6000fd5b505050505b856002141561344157604051630da0f6c760e41b81527fb34f156369747125f679c86d97f51861a5a2a9f927a1addd4354acbaaa88ae576004820152602481018490526001600160a01b0388169063da0f6c7090604401600060405180830381600087803b15801561342857600080fd5b505af115801561343c573d6000803e3d6000fd5b505050505b604051630da0f6c760e41b81527f57901982635f8a470a3648422f8f769cf08dc2057489be5bf0099fcb44f7d43c6004820152602481018790526001600160a01b0388169063da0f6c7090604401600060405180830381600087803b1580156134a957600080fd5b505af11580156134bd573d6000803e3d6000fd5b50505050856003141561328f5761328f878383613c00565b6040516317ba7d8560e01b81527f37cbe06c1044f98864ea25736326bc1d488e24e5e23781ea2ad64c4069cb9e6e60048201526000906001600160a01b038816906317ba7d859060240160206040518083038186803b15801561353757600080fd5b505afa15801561354b573d6000803e3d6000fd5b505050506040513d601f19601f8201168201806040525081019061356f91906141ce565b9050856003141561361d5761361d8188896001600160a01b031663149acf9a6040518163ffffffff1660e01b815260040160206040518083038186803b1580156135b857600080fd5b505afa1580156135cc573d6000803e3d6000fd5b505050506040513d601f19601f820116820180604052508101906135f091906141ce565b8686600081811061361157634e487b7160e01b600052603260045260246000fd5b90506020020135613d6b565b831561328f5760005b60ff81168511156112cb57876001600160a01b031663dc929f4a87878460ff1681811061366357634e487b7160e01b600052603260045260246000fd5b905060200201602081019061367891906141ab565b6040516001600160e01b031960e084901b1681526001600160a01b039091166004820152602401600060405180830381600087803b1580156136b957600080fd5b505af11580156136cd573d6000803e3d6000fd5b50505050866003141561374457613744828988888560ff1681811061370257634e487b7160e01b600052603260045260246000fd5b905060200201602081019061371791906141ab565b878761372487600161512a565b60ff1681811061361157634e487b7160e01b600052603260045260246000fd5b8061374e816151df565b915050613626565b604051630da0f6c760e41b81527f522d712abf06d7a4ec6dac3c77461903ee7523b623709d23acad0c6ae24dccc26004820152600160248201526001600160a01b0389169063da0f6c7090604401600060405180830381600087803b1580156137be57600080fd5b505af11580156137d2573d6000803e3d6000fd5b5050604051630da0f6c760e41b81527fb1f9461b62129e5e1283e29f3e1ced18d2e86af86241cfcb424f6ba4fb7f454c6004820152602481018a90526001600160a01b038b16925063da0f6c709150604401600060405180830381600087803b15801561383e57600080fd5b505af1158015613852573d6000803e3d6000fd5b5050604051630da0f6c760e41b81527f46021a9d9de6e72975a5d8d7d00e797ad1d45b789f6119571dc599350897dcb56004820152602481018990526001600160a01b038b16925063da0f6c709150604401600060405180830381600087803b1580156138be57600080fd5b505af11580156138d2573d6000803e3d6000fd5b5050505086600014806138e55750866001145b806138f05750866002145b156139f757604051630da0f6c760e41b81527fa8b1c741b883d35410d6186bbec4278982b7e509115b304ea7443665f139cc5a6004820152602481018690526001600160a01b0389169063da0f6c7090604401600060405180830381600087803b15801561395d57600080fd5b505af1158015613971573d6000803e3d6000fd5b5050604051631da7c90d60e11b81527fea1256a286695b4929ba634b6e0a36015d2a908045a29f78da51cee1a0d82b6b60048201526001600160a01b0384811660248301528b169250633b4f921a9150604401600060405180830381600087803b1580156139de57600080fd5b505af11580156139f2573d6000803e3d6000fd5b505050505b8660021415613a8157604051630da0f6c760e41b81527f461c66a772f861188d09f9684d5e0953afbfc97e19709fe20d9f2757f401e7816004820152602481018590526001600160a01b0389169063da0f6c7090604401600060405180830381600087803b158015613a6857600080fd5b505af1158015613a7c573d6000803e3d6000fd5b505050505b86600314156112cb576112cb888484613dea565b8015612b43576040516317ba7d8560e01b81527f6f48e16963713446db50a1503860d8e1fc3c888da56a85afcaa6dc29503cc61060048201526000906001600160a01b038516906317ba7d859060240160206040518083038186803b158015613afd57600080fd5b505afa158015613b11573d6000803e3d6000fd5b505050506040513d601f19601f82011682018060405250810190613b3591906141ce565b905060005b60ff8116831115612b4057816001600160a01b0316636f2cd5d38686868560ff16818110613b7857634e487b7160e01b600052603260045260246000fd5b9050602002016020810190613b8d91906141ab565b6040516001600160e01b031960e085901b1681526001600160a01b03928316600482015291166024820152604401600060405180830381600087803b158015613bd557600080fd5b505af1158015613be9573d6000803e3d6000fd5b505050508080613bf8906151df565b915050613b3a565b8015612b43576040516317ba7d8560e01b81527f7a8526bca00f0726b2fab8c3bfd5b00bfa84d07f111e48263b13de605eefcdda60048201526000906001600160a01b038516906317ba7d859060240160206040518083038186803b158015613c6857600080fd5b505afa158015613c7c573d6000803e3d6000fd5b505050506040513d601f19601f82011682018060405250810190613ca091906141ce565b905060005b60ff8116831115612b4057816001600160a01b031663c7aa00dd8686868560ff16818110613ce357634e487b7160e01b600052603260045260246000fd5b9050602002016020810190613cf891906141ab565b6040516001600160e01b031960e085901b1681526001600160a01b03928316600482015291166024820152604401600060405180830381600087803b158015613d4057600080fd5b505af1158015613d54573d6000803e3d6000fd5b505050508080613d63906151df565b915050613ca5565b6040517f5f15b1d90000000000000000000000000000000000000000000000000000000081526001600160a01b038481166004830152838116602483015260448201839052851690635f15b1d990606401600060405180830381600087803b158015613dd657600080fd5b505af11580156112cb573d6000803e3d6000fd5b8015612b43576040516317ba7d8560e01b81527f2207fd6117465cefcba0abc867150698c0464aa41a293ec29ca01b67a6350c3c60048201526000906001600160a01b038516906317ba7d859060240160206040518083038186803b158015613e5257600080fd5b505afa158015613e66573d6000803e3d6000fd5b505050506040513d601f19601f82011682018060405250810190613e8a91906141ce565b905060005b60ff8116831115612b4057816001600160a01b03166307832bfd8686868560ff16818110613ecd57634e487b7160e01b600052603260045260246000fd5b9050602002016020810190613ee291906141ab565b6040516001600160e01b031960e085901b1681526001600160a01b03928316600482015291166024820152604401600060405180830381600087803b158015613f2a57600080fd5b505af1158015613f3e573d6000803e3d6000fd5b505050508080613f4d906151df565b915050613e8f565b604051806101c00160405280606081526020016060815260200160608152602001606081526020016060815260200160608152602001606081526020016060815260200160608152602001606081526020016000151581526020016060815260200160006001600160a01b03168152602001613fcf613fd4565b905290565b6040518061012001604052806009905b604080518082019091526000815260606020820152815260200190600190039081613fe45790505090565b600060405160c0810181811067ffffffffffffffff821117156140345761403461523f565b6040529050808260c0810185101561404b57600080fd5b60005b600681101561406d57813583526020928301929091019060010161404e565b50505092915050565b803561408181615255565b919050565b60008083601f840112614097578182fd5b50813567ffffffffffffffff8111156140ae578182fd5b6020830191508360208260051b85010111156140c957600080fd5b9250929050565b60008083601f8401126140e1578182fd5b50813567ffffffffffffffff8111156140f8578182fd5b6020830191508360206060830285010111156140c957600080fd5b600082601f830112614123578081fd5b60405161014080820182811067ffffffffffffffff821117156141485761414861523f565b604052818482810187101561415b578485fd5b8492505b600a83101561417f5780358252600192909201916020918201910161415f565b509195945050505050565b8035801515811461408157600080fd5b803560ff8116811461408157600080fd5b6000602082840312156141bc578081fd5b81356141c781615255565b9392505050565b6000602082840312156141df578081fd5b81516141c781615255565b6000806000606084860312156141fe578182fd5b833561420981615255565b9250602084013561421981615255565b9150604084013561422981615255565b809150509250925092565b60008060008060006080868803121561424b578283fd5b853561425681615255565b9450602086013561426681615255565b9350604086013567ffffffffffffffff811115614281578384fd5b61428d888289016140d0565b90945092505060608601356142a181615255565b809150509295509295909350565b600080600080606085870312156142c4578182fd5b84356142cf81615255565b9350602085013567ffffffffffffffff8111156142ea578283fd5b6142f6878288016140d0565b909450925050604085013561430a81615255565b939692955090935050565b6000806000806060858703121561432a578182fd5b843561433581615255565b9350602085013567ffffffffffffffff80821115614351578384fd5b818701915087601f830112614364578384fd5b813581811115614372578485fd5b886020828501011115614383578485fd5b602083019550809450505050604085013561430a81615255565b600080600080600080608087890312156143b5578384fd5b863567ffffffffffffffff808211156143cc578586fd5b6143d88a838b01614086565b909850965060208901359150808211156143f0578586fd5b506143fd89828a01614086565b909550935050604087013561441181615255565b80925050606087013590509295509295509295565b6000806000806000806000610200888a031215614441578485fd5b88601f89011261444f578485fd5b614457615094565b808960408b018c811115614469578889fd5b885b60028110156144925761447d8361418a565b8552602094850194929092019160010161446b565b50829a506144a08d82614113565b9950505050506144b36101808901614076565b94506101a088013567ffffffffffffffff8111156144cf578182fd5b6144db8a828b01614086565b90955093506144ef90506101c08901614076565b91506144fe6101e08901614076565b905092959891949750929550565b6000602080838503121561451e578182fd5b823567ffffffffffffffff80821115614535578384fd5b8185019150601f8681840112614549578485fd5b6145516150bd565b80848961012087011115614563578788fd5b875b60098110156146225781358681111561457c57898afd5b87016040818d03121561458d57898afd5b614595615094565b81356145a081615255565b8152818a0135888111156145b2578b8cfd5b8083019250508c878301126145c5578a8bfd5b8135888111156145d7576145d761523f565b6145e88b601f198a840116016150e1565b8181528e8c8386010111156145fb578c8dfd5b818c85018d8301379081018b018c9052818b01528552509287019290870190600101614565565b50909998505050505050505050565b600060208284031215614642578081fd5b6141c78261418a565b6000806000806000806000806000806101a08b8d03121561466a578384fd5b6146738b61418a565b995061468160208c0161418a565b98508b605f8c0112614691578384fd5b61469e8c60408d0161400f565b97506146ad6101008c01614076565b96506101208b013567ffffffffffffffff808211156146ca578586fd5b6146d68e838f01614086565b90985096508691506146eb6101408e01614076565b95506101608d0135915080821115614701578485fd5b5061470e8d828e01614086565b909450925061472290506101808c01614076565b90509295989b9194979a5092959850565b60008060008060008060008060e0898b03121561474e578182fd5b6147578961418a565b9750602089013596506040890135955060608901359450608089013561477c81615255565b935060a089013567ffffffffffffffff811115614797578283fd5b6147a38b828c01614086565b90945092505060c08901356147b781615255565b809150509295985092959890939650565b60008060008060008060008060006101008a8c0312156147e6578283fd5b6147ef8a61418a565b985060208a0135975060408a0135965060608a0135955060808a0135945060a08a013567ffffffffffffffff811115614826578384fd5b6148328c828d01614086565b90955093505060c08a013561484681615255565b915060e08a013561485681615255565b809150509295985092959850929598565b600060208284031215614878578081fd5b813567ffffffffffffffff81111561488e578182fd5b820161040081850312156141c7578182fd5b6000806000806000806000806101a0808a8c0312156148bd578283fd5b8935985060208a01356148cf81615255565b975060408a0135965060608a01356148e681615255565b95506148f460808b0161419a565b945060a08a0135935060c08a013561490b81615255565b92508981018b101561491b578182fd5b5060e0890190509295985092959890939650565b600060208284031215614940578081fd5b6141c78261419a565b81835260006020808501945082825b8581101561498657813561496b81615255565b6001600160a01b031687529582019590820190600101614958565b509495945050505050565b81835260006020808501945082825b858110156149865781358752828201356149b981615255565b6001600160a01b0316878401526040828101356fffffffffffffffffffffffffffffffff81168082146149ea578687fd5b918901919091525060609687019691909101906001016149a0565b8060005b6006811015614a28578151845260209384019390910190600101614a09565b50505050565b8183528181602085013750600080602083850101526020601f19601f840116840101905092915050565b60008251614a6a81846020870161517a565b9190910192915050565b7f6c6f772d6c6576656c2063616c6c206f662073756d6d6f6e466c657844616f00815260008251614aac81601f85016020870161517a565b7f206661696c656400000000000000000000000000000000000000000000000000601f939091019283015250602601919050565b60006001600160a01b038088168352808716602084015260806040840152614b0c608084018688614991565b91508084166060840152509695505050505050565b60006001600160a01b038088168352808716602084015260806040840152614b0c608084018688614a2e565b60006001600160a01b03808716835260606020840152614b71606084018688614991565b915080841660408401525095945050505050565b60006001600160a01b03808716835260606020840152614b71606084018688614a2e565b608081526000614bbd60808301888a614949565b82810360208401528581527f07ffffffffffffffffffffffffffffffffffffffffffffffffffffffffffffff861115614bf4578182fd5b8560051b80886020840137016020019081526001600160a01b0393909316604082015260600152949350505050565b6000610200828a835b6002811015614c4d5781511515835260209283019290910190600101614c2c565b5050506040830189835b600a811015614c76578151835260209283019290910190600101614c57565b5050506001600160a01b038816610180840152806101a0840152614c9d8184018789614949565b915050614cb66101c08301856001600160a01b03169052565b6001600160a01b0383166101e0830152610483565b60006101a08c151583528b15156020840152614cea604084018c614a05565b6001600160a01b03808b1661010085015281610120850152614d0f8285018a8c614949565b9150808816610140850152838203610160850152614d2e828789614949565b925080851661018085015250509b9a5050505050505050505050565b881515815260ff8816602082015286604082015285606082015260006001600160a01b03808716608084015260e060a0840152614d8b60e084018688614949565b915080841660c0840152509998505050505050505050565b60006101008b1515835260ff8b1660208401528960408401528860608401528760808401528060a0840152614ddb8184018789614949565b9150506001600160a01b0380851660c084015280841660e0840152509a9950505050505050505050565b60006001600160a01b03808716835280861660208401525060606040830152614e32606083018486614991565b9695505050505050565b6001600160a01b0384168152604060208201526000614e5f604083018486614991565b95945050505050565b602081526000612c96602083018486614a2e565b604081526000614e90604083018587614a2e565b90506001600160a01b0383166020830152949350505050565b6020815260008251806020840152614ec881604085016020870161517a565b601f01601f19169190910160400192915050565b8881526001600160a01b03888116602083015260408201889052868116606083015260ff8616608083015260a08201859052831660c08201526101a0810161210360e0830184614a05565b6000808335601e19843603018112614f3d578283fd5b83018035915067ffffffffffffffff821115614f57578283fd5b6020019150600581901b36038213156140c957600080fd5b6000808335601e19843603018112614f85578283fd5b83018035915067ffffffffffffffff821115614f9f578283fd5b60200191506060810236038213156140c957600080fd5b6000808335601e19843603018112614fcc578283fd5b83018035915067ffffffffffffffff821115614fe6578283fd5b6020019150368190038213156140c957600080fd5b600082357fffffffffffffffffffffffffffffffffffffffffffffffffffffffffffffff21833603018112614a6a578182fd5b600082357fffffffffffffffffffffffffffffffffffffffffffffffffffffffffffffff61833603018112614a6a578182fd5b600082357fffffffffffffffffffffffffffffffffffffffffffffffffffffffffffffff41833603018112614a6a578182fd5b6040805190810167ffffffffffffffff811182821017156150b7576150b761523f565b60405290565b604051610120810167ffffffffffffffff811182821017156150b7576150b761523f565b604051601f8201601f1916810167ffffffffffffffff8111828210171561510a5761510a61523f565b604052919050565b6000821982111561512557615125615213565b500190565b600060ff821660ff84168060ff0382111561514757615147615213565b019392505050565b60008261515e5761515e615229565b500490565b60008282101561517557615175615213565b500390565b60005b8381101561519557818101518382015260200161517d565b83811115614a285750506000910152565b60007fffffffffffffffffffffffffffffffffffffffffffffffffffffffffffffffff8214156151d8576151d8615213565b5060010190565b600060ff821660ff8114156151f6576151f6615213565b60010192915050565b60008261520e5761520e615229565b500690565b634e487b7160e01b600052601160045260246000fd5b634e487b7160e01b600052601260045260246000fd5b634e487b7160e01b600052604160045260246000fd5b6001600160a01b038116811461526a57600080fd5b5056fea26469706673582212204858b943c2b3ddb33ef240f3eb67242070fda3b0ee0ae39955fb5c6654176fdc64736f6c63430008040033",
  "linkReferences": {},
  "deployedLinkReferences": {}
}