{
  "_format": "hh-sol-artifact-1",
  "contractName": "SummonVintageDao",
  "sourceName": "contracts/SummonVintageDao.sol",
  "abi": [
    {
      "anonymous": false,
      "inputs": [
        {
          "indexed": false,
          "internalType": "address",
          "name": "daoFactoryAddress",
          "type": "address"
        },
        {
          "indexed": false,
          "internalType": "address",
          "name": "daoAddr",
          "type": "address"
        },
        {
          "indexed": false,
          "internalType": "string",
          "name": "name",
          "type": "string"
        },
        {
          "indexed": false,
          "internalType": "address",
          "name": "creator",
          "type": "address"
        }
      ],
      "name": "VintageDaoCreated",
      "type": "event"
    },
    {
      "inputs": [
        {
          "components": [
            {
              "internalType": "address",
              "name": "target",
              "type": "address"
            },
            {
              "internalType": "bytes",
              "name": "callData",
              "type": "bytes"
            }
          ],
          "internalType": "struct SummonVintageDao.VintageCall[8]",
          "name": "calls",
          "type": "tuple[8]"
        }
      ],
      "name": "multiVintageCall",
      "outputs": [],
      "stateMutability": "nonpayable",
      "type": "function"
    },
    {
      "inputs": [
        {
          "components": [
            {
              "internalType": "string",
              "name": "daoName",
              "type": "string"
            },
            {
              "internalType": "address",
              "name": "creator",
              "type": "address"
            },
            {
              "internalType": "address[]",
              "name": "daoFactoriesAddress",
              "type": "address[]"
            },
            {
              "components": [
                {
                  "internalType": "bytes32",
                  "name": "id",
                  "type": "bytes32"
                },
                {
                  "internalType": "address",
                  "name": "addr",
                  "type": "address"
                },
                {
                  "internalType": "uint128",
                  "name": "flags",
                  "type": "uint128"
                }
              ],
              "internalType": "struct DaoFactory.Adapter[]",
              "name": "enalbeAdapters",
              "type": "tuple[]"
            },
            {
              "components": [
                {
                  "internalType": "bytes32",
                  "name": "id",
                  "type": "bytes32"
                },
                {
                  "internalType": "address",
                  "name": "addr",
                  "type": "address"
                },
                {
                  "internalType": "uint128",
                  "name": "flags",
                  "type": "uint128"
                }
              ],
              "internalType": "struct DaoFactory.Adapter[]",
              "name": "adapters1",
              "type": "tuple[]"
            },
            {
              "components": [
                {
                  "internalType": "bool",
                  "name": "enable",
                  "type": "bool"
                },
                {
                  "internalType": "uint256",
                  "name": "cap",
                  "type": "uint256"
                }
              ],
              "internalType": "struct SummonVintageDao.VintageInvestorCapInfo",
              "name": "investorCap",
              "type": "tuple"
            },
            {
              "components": [
                {
                  "internalType": "bool",
                  "name": "enable",
                  "type": "bool"
                },
                {
                  "internalType": "uint8",
                  "name": "varifyType",
                  "type": "uint8"
                },
                {
                  "internalType": "uint256",
                  "name": "minAmount",
                  "type": "uint256"
                },
                {
                  "internalType": "address",
                  "name": "tokenAddress",
                  "type": "address"
                },
                {
                  "internalType": "uint256",
                  "name": "tokenId",
                  "type": "uint256"
                },
                {
                  "internalType": "address[]",
                  "name": "whiteList",
                  "type": "address[]"
                }
              ],
              "internalType": "struct SummonVintageDao.VintageBackerMembership",
              "name": "backerMembership",
              "type": "tuple"
            },
            {
              "components": [
                {
                  "internalType": "bool",
                  "name": "enable",
                  "type": "bool"
                },
                {
                  "internalType": "uint8",
                  "name": "varifyType",
                  "type": "uint8"
                },
                {
                  "internalType": "uint256",
                  "name": "minAmount",
                  "type": "uint256"
                },
                {
                  "internalType": "address",
                  "name": "tokenAddress",
                  "type": "address"
                },
                {
                  "internalType": "uint256",
                  "name": "tokenId",
                  "type": "uint256"
                },
                {
                  "internalType": "address[]",
                  "name": "whiteList",
                  "type": "address[]"
                }
              ],
              "internalType": "struct SummonVintageDao.VintageGovernorMembership",
              "name": "governorMembership",
              "type": "tuple"
            },
            {
              "components": [
                {
                  "internalType": "uint256",
                  "name": "votingAssetType",
                  "type": "uint256"
                },
                {
                  "internalType": "address",
                  "name": "tokenAddress",
                  "type": "address"
                },
                {
                  "internalType": "uint256",
                  "name": "tokenID",
                  "type": "uint256"
                },
                {
                  "internalType": "uint256",
                  "name": "votingWeightedType",
                  "type": "uint256"
                },
                {
                  "internalType": "uint256",
                  "name": "supportType",
                  "type": "uint256"
                },
                {
                  "internalType": "uint256",
                  "name": "quorumType",
                  "type": "uint256"
                },
                {
                  "internalType": "uint256",
                  "name": "support",
                  "type": "uint256"
                },
                {
                  "internalType": "uint256",
                  "name": "quorum",
                  "type": "uint256"
                },
                {
                  "internalType": "uint256",
                  "name": "votingPeriod",
                  "type": "uint256"
                },
                {
                  "internalType": "uint256",
                  "name": "executingPeriod",
                  "type": "uint256"
                }
              ],
              "internalType": "struct SummonVintageDao.VintageVotingInfo",
              "name": "votingInfo",
              "type": "tuple"
            },
            {
              "internalType": "address[]",
              "name": "genesisGovernors",
              "type": "address[]"
            },
            {
              "internalType": "uint256[]",
              "name": "allocations",
              "type": "uint256[]"
            }
          ],
          "internalType": "struct SummonVintageDao.VintageDaoParams",
          "name": "params",
          "type": "tuple"
        }
      ],
      "name": "summonVintageDao",
      "outputs": [],
      "stateMutability": "nonpayable",
      "type": "function"
    },
    {
      "inputs": [
        {
          "internalType": "address",
          "name": "daoFacAddr",
          "type": "address"
        },
        {
          "internalType": "string",
          "name": "daoName",
          "type": "string"
        },
        {
          "internalType": "address",
          "name": "creator",
          "type": "address"
        }
      ],
      "name": "summonVintageDao1",
      "outputs": [
        {
          "internalType": "bool",
          "name": "",
          "type": "bool"
        }
      ],
      "stateMutability": "nonpayable",
      "type": "function"
    },
    {
      "inputs": [
        {
          "internalType": "address",
          "name": "vintageFundingPoolFacAddr",
          "type": "address"
        },
        {
          "internalType": "address",
          "name": "newDaoAddr",
          "type": "address"
        },
        {
          "internalType": "address",
          "name": "creator",
          "type": "address"
        }
      ],
      "name": "summonVintageDao2",
      "outputs": [
        {
          "internalType": "bool",
          "name": "",
          "type": "bool"
        }
      ],
      "stateMutability": "nonpayable",
      "type": "function"
    },
    {
      "inputs": [
        {
          "internalType": "address",
          "name": "daoFacAddr",
          "type": "address"
        },
        {
          "components": [
            {
              "internalType": "bytes32",
              "name": "id",
              "type": "bytes32"
            },
            {
              "internalType": "address",
              "name": "addr",
              "type": "address"
            },
            {
              "internalType": "uint128",
              "name": "flags",
              "type": "uint128"
            }
          ],
          "internalType": "struct DaoFactory.Adapter[]",
          "name": "enalbeAdapters",
          "type": "tuple[]"
        },
        {
          "internalType": "address",
          "name": "newDaoAddr",
          "type": "address"
        }
      ],
      "name": "summonVintageDao3",
      "outputs": [
        {
          "internalType": "bool",
          "name": "",
          "type": "bool"
        }
      ],
      "stateMutability": "nonpayable",
      "type": "function"
    },
    {
      "inputs": [
        {
          "internalType": "address",
          "name": "daoFacAddr",
          "type": "address"
        },
        {
          "internalType": "address",
          "name": "vintageFundingPoolFacAddr",
          "type": "address"
        },
        {
          "components": [
            {
              "internalType": "bytes32",
              "name": "id",
              "type": "bytes32"
            },
            {
              "internalType": "address",
              "name": "addr",
              "type": "address"
            },
            {
              "internalType": "uint128",
              "name": "flags",
              "type": "uint128"
            }
          ],
          "internalType": "struct DaoFactory.Adapter[]",
          "name": "adapters1",
          "type": "tuple[]"
        },
        {
          "internalType": "address",
          "name": "newDaoAddr",
          "type": "address"
        }
      ],
      "name": "summonVintageDao4",
      "outputs": [
        {
          "internalType": "bool",
          "name": "",
          "type": "bool"
        }
      ],
      "stateMutability": "nonpayable",
      "type": "function"
    },
    {
      "inputs": [
        {
          "internalType": "bool",
          "name": "vintageDaoStewardMembershipEnable",
          "type": "bool"
        },
        {
          "internalType": "uint256[3]",
          "name": "uint256Params",
          "type": "uint256[3]"
        },
        {
          "internalType": "address",
          "name": "vintageDaoStewardMembershipTokenAddress",
          "type": "address"
        },
        {
          "internalType": "address[]",
          "name": "vintageDaoGovernorMembershipWhitelist",
          "type": "address[]"
        },
        {
          "internalType": "address",
          "name": "newDaoAddr",
          "type": "address"
        }
      ],
      "name": "summonVintageDao5",
      "outputs": [
        {
          "internalType": "bool",
          "name": "",
          "type": "bool"
        }
      ],
      "stateMutability": "nonpayable",
      "type": "function"
    },
    {
      "inputs": [
        {
          "internalType": "address",
          "name": "newDaoAddr",
          "type": "address"
        },
        {
          "internalType": "address",
          "name": "tokenAddress",
          "type": "address"
        },
        {
          "internalType": "uint256[9]",
          "name": "votingInfo",
          "type": "uint256[9]"
        }
      ],
      "name": "summonVintageDao6",
      "outputs": [
        {
          "internalType": "bool",
          "name": "",
          "type": "bool"
        }
      ],
      "stateMutability": "nonpayable",
      "type": "function"
    },
    {
      "inputs": [
        {
          "internalType": "address",
          "name": "newDaoAddr",
          "type": "address"
        },
        {
          "internalType": "uint256",
          "name": "votingAssetType",
          "type": "uint256"
        },
        {
          "internalType": "address[]",
          "name": "genesisGovernors",
          "type": "address[]"
        },
        {
          "internalType": "uint256[]",
          "name": "allcationValues",
          "type": "uint256[]"
        }
      ],
      "name": "summonVintageDao7",
      "outputs": [
        {
          "internalType": "bool",
          "name": "",
          "type": "bool"
        }
      ],
      "stateMutability": "nonpayable",
      "type": "function"
    },
    {
      "inputs": [
        {
          "internalType": "bool",
          "name": "enable",
          "type": "bool"
        },
        {
          "internalType": "address",
          "name": "newDaoAddr",
          "type": "address"
        },
        {
          "internalType": "uint8",
          "name": "varifyType",
          "type": "uint8"
        },
        {
          "internalType": "uint256",
          "name": "minHolding",
          "type": "uint256"
        },
        {
          "internalType": "uint256",
          "name": "tokenId",
          "type": "uint256"
        },
        {
          "internalType": "address",
          "name": "tokenAddress",
          "type": "address"
        },
        {
          "internalType": "address[]",
          "name": "vintageDaoInvestorMembershipWhitelist",
          "type": "address[]"
        }
      ],
      "name": "summonVintageDao8",
      "outputs": [
        {
          "internalType": "bool",
          "name": "",
          "type": "bool"
        }
      ],
      "stateMutability": "nonpayable",
      "type": "function"
    },
    {
      "inputs": [
        {
          "internalType": "address",
          "name": "newDaoAddr",
          "type": "address"
        },
        {
          "internalType": "bool",
          "name": "enable",
          "type": "bool"
        },
        {
          "internalType": "uint256",
          "name": "cap",
          "type": "uint256"
        }
      ],
      "name": "summonVintageDao9",
      "outputs": [
        {
          "internalType": "bool",
          "name": "",
          "type": "bool"
        }
      ],
      "stateMutability": "nonpayable",
      "type": "function"
    }
  ],
  "bytecode": "0x608060405234801561001057600080fd5b506138a8806100206000396000f3fe608060405234801561001057600080fd5b50600436106100c95760003560e01c80635247f78e11610081578063ded2e7691161005b578063ded2e7691461017c578063e7528f591461018f578063fd00f123146101a257600080fd5b80635247f78e14610141578063aca5399314610154578063d78888f71461016957600080fd5b806317d0c640116100b257806317d0c640146101085780632c87c58f1461011b5780634a1ec9921461012e57600080fd5b80630d56658a146100ce57806312f58612146100f5575b600080fd5b6100e16100dc366004612bb1565b6101b5565b604051901515815260200160405180910390f35b6100e1610103366004612c66565b6106de565b6100e1610116366004612b36565b6107f4565b6100e1610129366004612c00565b61092d565b6100e161013c366004612aec565b6109c6565b6100e161014f366004612d2b565b610b6f565b610167610162366004612db4565b610e1c565b005b6100e1610177366004612ef3565b610f4a565b61016761018a366004613054565b6113bf565b6100e161019d366004612f8e565b612045565b6100e16101b0366004612ca3565b61256e565b604051630da0f6c760e41b81527f686efe7bd1699b408d306db6bbee658ed667971c52d48d6912d7ee496e36e62760048201528135602482015260009084906001600160a01b0382169063da0f6c7090604401600060405180830381600087803b15801561022257600080fd5b505af1158015610236573d6000803e3d6000fd5b5050604051631da7c90d60e11b81527fcd9b30ab6388c165d825b60b7d393528191ba59d975b4b1b52b7184b63b8a97c60048201526001600160a01b03878116602483015284169250633b4f921a9150604401600060405180830381600087803b1580156102a357600080fd5b505af11580156102b7573d6000803e3d6000fd5b5050604051630da0f6c760e41b81527e634460a4b60c2e1bf8c87bfc42b6b68fd2a71f4bb2d760816eabc5038b50366004820152602086013560248201526001600160a01b038416925063da0f6c709150604401600060405180830381600087803b15801561032557600080fd5b505af1158015610339573d6000803e3d6000fd5b505060408051630da0f6c760e41b81527fb75eae231d9582c6afc6491273df4a0ffbccd48ab2c48dbce59e5d68f2d19dc460048201529086013560248201526001600160a01b038416925063da0f6c709150604401600060405180830381600087803b1580156103a857600080fd5b505af11580156103bc573d6000803e3d6000fd5b5050604051630da0f6c760e41b81527f561bc86bc227a0f760218574791a84f180f6f9f02be9519a1f99c14fce07a3106004820152606086013560248201526001600160a01b038416925063da0f6c709150604401600060405180830381600087803b15801561042b57600080fd5b505af115801561043f573d6000803e3d6000fd5b5050604051630da0f6c760e41b81527f8097540b5ab8a4c18e0b10cfbfd2c69e65e8da78f4f0485467006bafa39359646004820152608086013560248201526001600160a01b038416925063da0f6c709150604401600060405180830381600087803b1580156104ae57600080fd5b505af11580156104c2573d6000803e3d6000fd5b5050604051630da0f6c760e41b81527f0324de13a5a6e302ddb95a9fdf81cc736fc8acee2abe558970daac27395904e7600482015260a086013560248201526001600160a01b038416925063da0f6c709150604401600060405180830381600087803b15801561053157600080fd5b505af1158015610545573d6000803e3d6000fd5b5050604051630da0f6c760e41b81527fb4c601c38beae7eebb719eda3438f59fcbfd4c6dd7d38c00665b6fd5b432df32600482015260c086013560248201526001600160a01b038416925063da0f6c709150604401600060405180830381600087803b1580156105b457600080fd5b505af11580156105c8573d6000803e3d6000fd5b5050604051630da0f6c760e41b81527f9876c0f0505bfb2b1c38d3bbd25ba13159172cd0868972d76927723f5a9480fc600482015260e086013560248201526001600160a01b038416925063da0f6c709150604401600060405180830381600087803b15801561063757600080fd5b505af115801561064b573d6000803e3d6000fd5b5050604051630da0f6c760e41b81527f02a3530cbb6e7c084516c86f68bd62c3e3fcd783c6c5d7e138616207f7a32250600482015261010086013560248201526001600160a01b038416925063da0f6c709150604401600060405180830381600087803b1580156106bb57600080fd5b505af11580156106cf573d6000803e3d6000fd5b50600198975050505050505050565b600082156107ea57604051630da0f6c760e41b81527f69f4ffb3ebcb7809550bddd3e4d449a47e737bf6635bc7a730996643997b0e4860048201526001602482015284906001600160a01b0382169063da0f6c7090604401600060405180830381600087803b15801561075057600080fd5b505af1158015610764573d6000803e3d6000fd5b5050604051630da0f6c760e41b81527fecbde689cc6337d29a750b8b8a8abbfa97427b4ac800ab55be2f2c87311510f26004820152602481018690526001600160a01b038416925063da0f6c709150604401600060405180830381600087803b1580156107d057600080fd5b505af11580156107e4573d6000803e3d6000fd5b50505050505b5060019392505050565b60008130331461080357600080fd5b6040517f3146637e0000000000000000000000000000000000000000000000000000000081526001600160a01b0384811660048301528891889160009190831690633146637e9060240160206040518083038186803b15801561086557600080fd5b505afa158015610879573d6000803e3d6000fd5b505050506040513d601f19601f8201168201806040525081019061089d9190612ad0565b6040517f29ca12ed0000000000000000000000000000000000000000000000000000000081529091506001600160a01b038416906329ca12ed906108eb90879085908d908d90600401613494565b600060405180830381600087803b15801561090557600080fd5b505af1158015610919573d6000803e3d6000fd5b5060019d9c50505050505050505050505050565b60008130331461093c57600080fd5b6040517f9bb2008400000000000000000000000000000000000000000000000000000000815286906001600160a01b03821690639bb20084906109879085908a908a906004016134cb565b600060405180830381600087803b1580156109a157600080fd5b505af11580156109b5573d6000803e3d6000fd5b5060019a9950505050505050505050565b60003033146109d457600080fd5b6040517f9ed933180000000000000000000000000000000000000000000000000000000081526001600160a01b038481166004830152859190821690639ed9331890602401600060405180830381600087803b158015610a3357600080fd5b505af1158015610a47573d6000803e3d6000fd5b50506040517f3146637e0000000000000000000000000000000000000000000000000000000081526001600160a01b0387811660048301526000935084169150633146637e9060240160206040518083038186803b158015610aa857600080fd5b505afa158015610abc573d6000803e3d6000fd5b505050506040513d601f19601f82011682018060405250810190610ae09190612ad0565b6040517fc130c6390000000000000000000000000000000000000000000000000000000081527f161fca6912f107b0f13c9c7275de7391b32d2ea1c52ffba65a3c961880a0c60f60048201526001600160a01b0380831660248301528681166044830152919250869182169063c130c63990606401600060405180830381600087803b1580156109a157600080fd5b6040516317ba7d8560e01b81527f1fa6846b165d822fff79e37c67625706652fa9380c2aa49fd513ce534cc72ed46004820152600090879082906001600160a01b038316906317ba7d859060240160206040518083038186803b158015610bd557600080fd5b505afa158015610be9573d6000803e3d6000fd5b505050506040513d601f19601f82011682018060405250810190610c0d9190612ad0565b90508760031415610cbb57610cbb8183846001600160a01b031663149acf9a6040518163ffffffff1660e01b815260040160206040518083038186803b158015610c5657600080fd5b505afa158015610c6a573d6000803e3d6000fd5b505050506040513d601f19601f82011682018060405250810190610c8e9190612ad0565b88886000818110610caf57634e487b7160e01b600052603260045260246000fd5b9050602002013561275d565b85156106cf5760005b60ff8116871115610e0c57826001600160a01b031663dc929f4a89898460ff16818110610d0157634e487b7160e01b600052603260045260246000fd5b9050602002016020810190610d169190612aad565b6040517fffffffff0000000000000000000000000000000000000000000000000000000060e084901b1681526001600160a01b039091166004820152602401600060405180830381600087803b158015610d6f57600080fd5b505af1158015610d83573d6000803e3d6000fd5b505050508860031415610dfa57610dfa82848a8a8560ff16818110610db857634e487b7160e01b600052603260045260246000fd5b9050602002016020810190610dcd9190612aad565b8989610dda87600161372b565b60ff16818110610caf57634e487b7160e01b600052603260045260246000fd5b80610e04816137e4565b915050610cc4565b5050600198975050505050505050565b60005b6008811015610f46576000828260088110610e4a57634e487b7160e01b600052603260045260246000fd5b6020020151516001600160a01b0316838360088110610e7957634e487b7160e01b600052603260045260246000fd5b602002015160200151604051610e8f919061318d565b6000604051808303816000865af19150503d8060008114610ecc576040519150601f19603f3d011682016040523d82523d6000602084013e610ed1565b606091505b5050905080610eeb836002610ee69190613713565b6127e6565b604051602001610efb91906131a9565b60405160208183030381529060405290610f315760405162461bcd60e51b8152600401610f289190613538565b60405180910390fd5b50508080610f3e906137ab565b915050610e1f565b5050565b600087303314610f5957600080fd5b89156113af57604051630da0f6c760e41b81527f1405d0156cf64c805704fdf6691baebfcfa0d409ea827c231693ff0581b0b7776004820152600160248201526001600160a01b0382169063da0f6c7090604401600060405180830381600087803b158015610fc757600080fd5b505af1158015610fdb573d6000803e3d6000fd5b5050604051630da0f6c760e41b81527f80140cd7e0b1d935bee578a67a41547c82987de8e7d6b3827d411b738110258b600482015260ff8b1660248201526001600160a01b038416925063da0f6c709150604401600060405180830381600087803b15801561104957600080fd5b505af115801561105d573d6000803e3d6000fd5b505050508760ff166000148061107657508760ff166001145b8061108457508760ff166002145b1561118b57604051630da0f6c760e41b81527f04ecaf460eb9f82aeb70035e3f24c18a3650fa0da9ddbe7e63d70de659b9b9016004820152602481018890526001600160a01b0382169063da0f6c7090604401600060405180830381600087803b1580156110f157600080fd5b505af1158015611105573d6000803e3d6000fd5b5050604051631da7c90d60e11b81527fe373ab56628c86db3f0e36774c2c5e0393f9272ff5c976bc3f0db2db60cdbc1460048201526001600160a01b03888116602483015284169250633b4f921a9150604401600060405180830381600087803b15801561117257600080fd5b505af1158015611186573d6000803e3d6000fd5b505050505b8760ff166002141561121857604051630da0f6c760e41b81527f6cb5bc3796b0717ca4ff665886c96fb0178d6341366eb7b6c737fe79083b836a6004820152602481018790526001600160a01b0382169063da0f6c7090604401600060405180830381600087803b1580156111ff57600080fd5b505af1158015611213573d6000803e3d6000fd5b505050505b8760ff16600314801561122a57508215155b156113af576040516317ba7d8560e01b81527faaff643bdbd909f604d46ce015336f7e20fee3ac4a55cef3610188dee176c89260048201526000906001600160a01b038316906317ba7d859060240160206040518083038186803b15801561129157600080fd5b505afa1580156112a5573d6000803e3d6000fd5b505050506040513d601f19601f820116820180604052508101906112c99190612ad0565b905060005b60ff81168511156113ac57816001600160a01b031663ac7e7eba8488888560ff1681811061130c57634e487b7160e01b600052603260045260246000fd5b90506020020160208101906113219190612aad565b6040517fffffffff0000000000000000000000000000000000000000000000000000000060e085901b1681526001600160a01b03928316600482015291166024820152604401600060405180830381600087803b15801561138157600080fd5b505af1158015611395573d6000803e3d6000fd5b5050505080806113a4906137e4565b9150506112ce565b50505b5060019998505050505050505050565b6113c761293c565b6113d4604083018361356b565b60008181106113f357634e487b7160e01b600052603260045260246000fd5b90506020020160208101906114089190612aad565b61141283806135fa565b6114226040860160208701612aad565b6040516024016114359493929190613330565b60408051601f198184030181529181526020820180516001600160e01b03167ffd00f123000000000000000000000000000000000000000000000000000000001790528183525130916114879161318d565b6000604051808303816000865af19150503d80600081146114c4576040519150601f19603f3d011682016040523d82523d6000602084013e6114c9565b606091505b506101408301521515610120820181905261154c5760405162461bcd60e51b815260206004820152603360248201527f6c6f772d6c6576656c2063616c6c206f662066756e6374696f6e2073756d6d6f60448201527f6e56696e7461676544616f31206661696c6564000000000000000000000000006064820152608401610f28565b600061155883806135fa565b6040516024016115699291906134f7565b60408051601f198184030181529181526020820180516001600160e01b03167f1d1f0a27000000000000000000000000000000000000000000000000000000001790529091506115bb9084018461356b565b60008181106115da57634e487b7160e01b600052603260045260246000fd5b90506020020160208101906115ef9190612aad565b6001600160a01b031681604051611606919061318d565b6000604051808303816000865af19150503d8060008114611643576040519150601f19603f3d011682016040523d82523d6000602084013e611648565b606091505b5061014084018190529015801561012085018190526020909201516001600160a01b031661016085015261168957506101608201516001600160a01b031615155b61169257600080fd5b61169f604084018461356b565b60018181106116be57634e487b7160e01b600052603260045260246000fd5b90506020020160208101906116d39190612aad565b6101608301516116e96040860160208701612aad565b6040516001600160a01b0393841660248201529183166044830152909116606482015260840160408051601f19818403018152918152602080830180516001600160e01b03167f4a1ec992000000000000000000000000000000000000000000000000000000001790528401919091526117659084018461356b565b600081811061178457634e487b7160e01b600052603260045260246000fd5b90506020020160208101906117999190612aad565b6117a660608501856135b3565b8461016001516040516024016117bf94939291906132f8565b60408051601f198184030181529181526020820180516001600160e01b03167f2c87c58f00000000000000000000000000000000000000000000000000000000179052838101919091526118159084018461356b565b600081811061183457634e487b7160e01b600052603260045260246000fd5b90506020020160208101906118499190612aad565b611856604085018561356b565b600181811061187557634e487b7160e01b600052603260045260246000fd5b905060200201602081019061188a9190612aad565b61189760808601866135b3565b8561016001516040516024016118b195949392919061323b565b60408051601f198184030181529181526020820180516001600160e01b03167f17d0c64000000000000000000000000000000000000000000000000000000000179052606080850192909252805191820190526000908061191661010087018761363f565b61192790604081019060200161308d565b60ff16815260200161193d61010087018761363f565b60400135815260200161195461010087018761363f565b608001359052905061196a61010085018561363f565b611978906020810190612ed9565b8161198761010087018761363f565b611998906080810190606001612aad565b6119a661010088018861363f565b6119b49060a081019061356b565b8761016001516040516024016119cf96959493929190613429565b60408051601f19818403018152918152602080830180516001600160e01b03167fe7528f5900000000000000000000000000000000000000000000000000000000179052608080870193909352815161012080820184528801358152610160808901803593830193909352610180890135938201939093526101a088013560608201526101c08801359381019390935261020087013560a08401526101e087013560c084015261022087013560e08401526102408701356101008401529085015190611a9f906101408801612aad565b82604051602401611ab29392919061327c565b60408051601f198184030181529190526020810180516001600160e01b03167f0d56658a0000000000000000000000000000000000000000000000000000000017905260a0850152610160840151610120860135611b1461026088018861356b565b611b226102808a018a61356b565b604051602401611b3796959493929190613354565b60408051601f198184030181529190526020810180516001600160e01b03167f5247f78e0000000000000000000000000000000000000000000000000000000017905260c0850152611b8c60e086018661363f565b611b9a906020810190612ed9565b610160850151611bad60e088018861363f565b611bbe90604081019060200161308d565b611bcb60e089018961363f565b60400135611bdc60e08a018a61363f565b60800135611bed60e08b018b61363f565b611bfe906080810190606001612aad565b611c0b60e08c018c61363f565b611c199060a081019061356b565b604051602401611c309897969594939291906133d1565b60408051601f198184030181529190526020810180516001600160e01b03167fd78888f70000000000000000000000000000000000000000000000000000000017905260e0850152610160840151611c8e60c0870160a08801612ed9565b604080516001600160a01b03939093166024840152901515604483015260c0878101356064808501919091528251808503909101815260849093018252602080840180516001600160e01b03167f12f58612000000000000000000000000000000000000000000000000000000001790526101008801938452825180840184523080825289830151828401526101808a01805192909252845180860186528181528a860151818501528251840152845180860186528181526060808c0151828601528351870191909152855180870187528281526080808d0151828701528451909201528551808701875282815260a0808d015182870152845190920152855180870187528281528b860151818601528351909101528451808601865281815260e0808c015182860152835190950152845180860190955284529351908301528251015251611ddc90610e1c565b60008461016001519050806001600160a01b0316630b1ca49a826001600160a01b03166348f7f2a36040518163ffffffff1660e01b815260040160206040518083038186803b158015611e2e57600080fd5b505afa158015611e42573d6000803e3d6000fd5b505050506040513d601f19601f82011682018060405250810190611e669190612ad0565b6040517fffffffff0000000000000000000000000000000000000000000000000000000060e084901b1681526001600160a01b039091166004820152602401600060405180830381600087803b158015611ebf57600080fd5b505af1158015611ed3573d6000803e3d6000fd5b50505050806001600160a01b0316636503287f6040518163ffffffff1660e01b8152600401600060405180830381600087803b158015611f1257600080fd5b505af1158015611f26573d6000803e3d6000fd5b50506040516317ba7d8560e01b81527fd90e10040720d66c9412cb511e3dbb6ba51669248a7495e763d44ab426893efa6004820152600092506001600160a01b03841691506317ba7d859060240160206040518083038186803b158015611f8c57600080fd5b505afa158015611fa0573d6000803e3d6000fd5b505050506040513d601f19601f82011682018060405250810190611fc49190612ad0565b6040517fd32b91dd0000000000000000000000000000000000000000000000000000000081526001600160a01b0384811660048301529192509082169063d32b91dd90602401600060405180830381600087803b15801561202457600080fd5b505af1158015612038573d6000803e3d6000fd5b5050505050505050505050565b60008130331461205457600080fd5b871561256057604051630da0f6c760e41b81527f5b7b19076468102b84afbef323d128866c396a716ce4ce29f84beef8d266f3af6004820152600160248201526001600160a01b0382169063da0f6c7090604401600060405180830381600087803b1580156120c257600080fd5b505af11580156120d6573d6000803e3d6000fd5b50508851604051630da0f6c760e41b81527f23f0530138a805a7a3c83e0d6298d353102473dc25666f75173de90ac5414c82600482015260248101919091526001600160a01b038416925063da0f6c709150604401600060405180830381600087803b15801561214557600080fd5b505af1158015612159573d6000803e3d6000fd5b505050508660006003811061217e57634e487b7160e01b600052603260045260246000fd5b60200201511580612190575086516001145b8061219c575086516002145b156122a9576020870151604051630da0f6c760e41b81527f4481bb4c8bc94e65f81ab5591f704165aab99eb4197df7acf672022476933f58600482015260248101919091526001600160a01b0382169063da0f6c7090604401600060405180830381600087803b15801561220f57600080fd5b505af1158015612223573d6000803e3d6000fd5b5050604051631da7c90d60e11b81527faa2cc36fff47c5c104b89a4abef628c92272c0af9c4db27739bc445b2f51e9a260048201526001600160a01b03898116602483015284169250633b4f921a9150604401600060405180830381600087803b15801561229057600080fd5b505af11580156122a4573d6000803e3d6000fd5b505050505b86516002141561233a576040808801519051630da0f6c760e41b81527fe33a9c3c87c85b9efd09c180b8fd30ca34326eb72e20fdd832b510971ccf71ae600482015260248101919091526001600160a01b0382169063da0f6c7090604401600060405180830381600087803b15801561232157600080fd5b505af1158015612335573d6000803e3d6000fd5b505050505b8651600414156123cb576020870151604051630da0f6c760e41b81527f38cbcea6ba035c1d1890c83ce99918342ef746d839f9c2e2d4966d30a7e70b34600482015260248101919091526001600160a01b0382169063da0f6c7090604401600060405180830381600087803b1580156123b257600080fd5b505af11580156123c6573d6000803e3d6000fd5b505050505b865160031480156123db57508315155b15612560576040516317ba7d8560e01b81527fd90e10040720d66c9412cb511e3dbb6ba51669248a7495e763d44ab426893efa60048201526000906001600160a01b038316906317ba7d859060240160206040518083038186803b15801561244257600080fd5b505afa158015612456573d6000803e3d6000fd5b505050506040513d601f19601f8201168201806040525081019061247a9190612ad0565b905060005b60ff811686111561255d57816001600160a01b03166333f7bc0c8489898560ff168181106124bd57634e487b7160e01b600052603260045260246000fd5b90506020020160208101906124d29190612aad565b6040517fffffffff0000000000000000000000000000000000000000000000000000000060e085901b1681526001600160a01b03928316600482015291166024820152604401600060405180830381600087803b15801561253257600080fd5b505af1158015612546573d6000803e3d6000fd5b505050508080612555906137e4565b91505061247f565b50505b506001979650505050505050565b600030331461257c57600080fd5b6040517f3baeff3f00000000000000000000000000000000000000000000000000000000815285906001600160a01b03821690633baeff3f906125c79088908890889060040161350b565b600060405180830381600087803b1580156125e157600080fd5b505af11580156125f5573d6000803e3d6000fd5b50506040517f1d1f0a27000000000000000000000000000000000000000000000000000000008152600092506001600160a01b0384169150631d1f0a279061264390899089906004016134f7565b60206040518083038186803b15801561265b57600080fd5b505afa15801561266f573d6000803e3d6000fd5b505050506040513d601f19601f820116820180604052508101906126939190612ad0565b90506001600160a01b0381166127115760405162461bcd60e51b815260206004820152602f60248201527f53756d6d6d6f6e44616f3a3a73756d6d6f6e56696e7461676544616f3a3a637260448201527f656174652064616f206661696c656400000000000000000000000000000000006064820152608401610f28565b7fc97f13857137bdfa897b81b7697bbd055e5d99fc946c3a047235235c3bd87db087828888886040516127489594939291906132cc565b60405180910390a15060019695505050505050565b6040517f5f15b1d90000000000000000000000000000000000000000000000000000000081526001600160a01b038481166004830152838116602483015260448201839052851690635f15b1d990606401600060405180830381600087803b1580156127c857600080fd5b505af11580156127dc573d6000803e3d6000fd5b5050505050505050565b60608161282657505060408051808201909152600181527f3000000000000000000000000000000000000000000000000000000000000000602082015290565b8160005b8115612850578061283a816137ab565b91506128499050600a83613750565b915061282a565b60008167ffffffffffffffff81111561287957634e487b7160e01b600052604160045260246000fd5b6040519080825280601f01601f1916602001820160405280156128a3576020820181803683370190505b5090505b8415612934576128b8600183613764565b91506128c5600a86613804565b6128d0906030613713565b60f81b8183815181106128f357634e487b7160e01b600052603260045260246000fd5b60200101907effffffffffffffffffffffffffffffffffffffffffffffffffffffffffffff1916908160001a90535061292d600a86613750565b94506128a7565b949350505050565b604051806101a001604052806060815260200160608152602001606081526020016060815260200160608152602001606081526020016060815260200160608152602001606081526020016000151581526020016060815260200160006001600160a01b031681526020016129af6129b4565b905290565b6040518061010001604052806008905b6040805180820190915260008152606060208201528152602001906001900390816129c45790505090565b80356129fa8161385a565b919050565b60008083601f840112612a10578182fd5b50813567ffffffffffffffff811115612a27578182fd5b6020830191508360208260051b8501011115612a4257600080fd5b9250929050565b60008083601f840112612a5a578182fd5b50813567ffffffffffffffff811115612a71578182fd5b602083019150836020606083028501011115612a4257600080fd5b803580151581146129fa57600080fd5b803560ff811681146129fa57600080fd5b600060208284031215612abe578081fd5b8135612ac98161385a565b9392505050565b600060208284031215612ae1578081fd5b8151612ac98161385a565b600080600060608486031215612b00578182fd5b8335612b0b8161385a565b92506020840135612b1b8161385a565b91506040840135612b2b8161385a565b809150509250925092565b600080600080600060808688031215612b4d578081fd5b8535612b588161385a565b94506020860135612b688161385a565b9350604086013567ffffffffffffffff811115612b83578182fd5b612b8f88828901612a49565b9094509250506060860135612ba38161385a565b809150509295509295909350565b6000806000610160808587031215612bc7578384fd5b8435612bd28161385a565b93506020850135612be28161385a565b9250848101861015612bf2578182fd5b506040840190509250925092565b60008060008060608587031215612c15578182fd5b8435612c208161385a565b9350602085013567ffffffffffffffff811115612c3b578283fd5b612c4787828801612a49565b9094509250506040850135612c5b8161385a565b939692955090935050565b600080600060608486031215612c7a578081fd5b8335612c858161385a565b9250612c9360208501612a8c565b9150604084013590509250925092565b60008060008060608587031215612cb8578182fd5b8435612cc38161385a565b9350602085013567ffffffffffffffff80821115612cdf578384fd5b818701915087601f830112612cf2578384fd5b813581811115612d00578485fd5b886020828501011115612d11578485fd5b6020830195508094505050506040850135612c5b8161385a565b60008060008060008060808789031215612d43578384fd5b8635612d4e8161385a565b955060208701359450604087013567ffffffffffffffff80821115612d71578586fd5b612d7d8a838b016129ff565b90965094506060890135915080821115612d95578283fd5b50612da289828a016129ff565b979a9699509497509295939492505050565b60006020808385031215612dc6578182fd5b823567ffffffffffffffff80821115612ddd578384fd5b8185019150601f8681840112612df1578485fd5b612df961369b565b80848961010087011115612e0b578788fd5b875b6008811015612eca57813586811115612e2457898afd5b87016040818d031215612e3557898afd5b612e3d613672565b8135612e488161385a565b8152818a013588811115612e5a578b8cfd5b8083019250508c87830112612e6d578a8bfd5b813588811115612e7f57612e7f613844565b612e908b601f198a840116016136e2565b8181528e8c838601011115612ea3578c8dfd5b818c85018d8301379081018b018c9052818b01528552509287019290870190600101612e0d565b50909998505050505050505050565b600060208284031215612eea578081fd5b612ac982612a8c565b60008060008060008060008060e0898b031215612f0e578586fd5b612f1789612a8c565b97506020890135612f278161385a565b9650612f3560408a01612a9c565b9550606089013594506080890135935060a0890135612f538161385a565b925060c089013567ffffffffffffffff811115612f6e578283fd5b612f7a8b828c016129ff565b999c989b5096995094979396929594505050565b60008060008060008060e08789031215612fa6578384fd5b612faf87612a8c565b9550602088603f890112612fc1578485fd5b612fc96136bf565b80828a0160808b018c811115612fdd578889fd5b885b6003811015612ffc57823585529385019391850191600101612fdf565b50829950613009816129ef565b9850505050505060a087013567ffffffffffffffff811115613029578283fd5b61303589828a016129ff565b9094509250613048905060c088016129ef565b90509295509295509295565b600060208284031215613065578081fd5b813567ffffffffffffffff81111561307b578182fd5b82016102a08185031215612ac9578182fd5b60006020828403121561309e578081fd5b612ac982612a9c565b81835260006020808501945082825b858110156130e45781356130c98161385a565b6001600160a01b0316875295820195908201906001016130b6565b509495945050505050565b81835260006020808501945082825b858110156130e45781358752828201356131178161385a565b6001600160a01b0316878401526040828101356fffffffffffffffffffffffffffffffff8116808214613148578687fd5b918901919091525060609687019691909101906001016130fe565b8183528181602085013750600080602083850101526020601f19601f840116840101905092915050565b6000825161319f81846020870161377b565b9190910192915050565b7f6c6f772d6c6576656c2063616c6c206f662073756d6d6f6e56696e746167654481527f616f00000000000000000000000000000000000000000000000000000000000060208201526000825161320781602285016020870161377b565b7f206661696c6564000000000000000000000000000000000000000000000000006022939091019283015250602901919050565b60006001600160a01b0380881683528087166020840152608060408401526132676080840186886130ef565b91508084166060840152509695505050505050565b6001600160a01b038481168252831660208083019190915261016082019060408301908460005b60098110156132c0578151845292820192908201906001016132a3565b50505050949350505050565b60006001600160a01b038088168352808716602084015260806040840152613267608084018688613163565b60006001600160a01b0380871683526060602084015261331c6060840186886130ef565b915080841660408401525095945050505050565b60006001600160a01b0380871683526060602084015261331c606084018688613163565b6001600160a01b038716815285602082015260806040820152600061337d6080830186886130a7565b82810360608401528381527f07ffffffffffffffffffffffffffffffffffffffffffffffffffffffffffffff8411156133b4578182fd5b8360051b8086602084013701602001908152979650505050505050565b881515815260006001600160a01b03808a16602084015260ff8916604084015287606084015286608084015280861660a08401525060e060c083015261341b60e0830184866130a7565b9a9950505050505050505050565b86151581526000602080830188835b600381101561345557815183529183019190830190600101613438565b505050506001600160a01b03808716608084015260e060a084015261347e60e0840186886130a7565b915080841660c084015250979650505050505050565b60006001600160a01b038087168352808616602084015250606060408301526134c16060830184866130ef565b9695505050505050565b6001600160a01b03841681526040602082015260006134ee6040830184866130ef565b95945050505050565b602081526000612934602083018486613163565b60408152600061351f604083018587613163565b90506001600160a01b0383166020830152949350505050565b602081526000825180602084015261355781604085016020870161377b565b601f01601f19169190910160400192915050565b6000808335601e19843603018112613581578283fd5b83018035915067ffffffffffffffff82111561359b578283fd5b6020019150600581901b3603821315612a4257600080fd5b6000808335601e198436030181126135c9578283fd5b83018035915067ffffffffffffffff8211156135e3578283fd5b6020019150606081023603821315612a4257600080fd5b6000808335601e19843603018112613610578283fd5b83018035915067ffffffffffffffff82111561362a578283fd5b602001915036819003821315612a4257600080fd5b600082357fffffffffffffffffffffffffffffffffffffffffffffffffffffffffffffff4183360301811261319f578182fd5b6040805190810167ffffffffffffffff8111828210171561369557613695613844565b60405290565b604051610100810167ffffffffffffffff8111828210171561369557613695613844565b6040516060810167ffffffffffffffff8111828210171561369557613695613844565b604051601f8201601f1916810167ffffffffffffffff8111828210171561370b5761370b613844565b604052919050565b6000821982111561372657613726613818565b500190565b600060ff821660ff84168060ff0382111561374857613748613818565b019392505050565b60008261375f5761375f61382e565b500490565b60008282101561377657613776613818565b500390565b60005b8381101561379657818101518382015260200161377e565b838111156137a5576000848401525b50505050565b60007fffffffffffffffffffffffffffffffffffffffffffffffffffffffffffffffff8214156137dd576137dd613818565b5060010190565b600060ff821660ff8114156137fb576137fb613818565b60010192915050565b6000826138135761381361382e565b500690565b634e487b7160e01b600052601160045260246000fd5b634e487b7160e01b600052601260045260246000fd5b634e487b7160e01b600052604160045260246000fd5b6001600160a01b038116811461386f57600080fd5b5056fea264697066735822122044717bf73075b490482e6ad8151eb51b4232e3aa87e863708e44cec698d7262064736f6c63430008040033",
  "linkReferences": {},
  "deployedLinkReferences": {}
}