{
  "_format": "hh-sol-artifact-1",
  "contractName": "TestMath",
  "sourceName": "contracts/test/TestMath.sol",
  "abi": [
    {
      "inputs": [
        {
          "internalType": "uint256",
          "name": "x",
          "type": "uint256"
        }
      ],
      "name": "fromUInt",
      "outputs": [
        {
          "internalType": "int128",
          "name": "",
          "type": "int128"
        }
      ],
      "stateMutability": "pure",
      "type": "function"
    },
    {
      "inputs": [
        {
          "internalType": "uint256",
          "name": "x",
          "type": "uint256"
        }
      ],
      "name": "ln",
      "outputs": [
        {
          "internalType": "uint128",
          "name": "",
          "type": "uint128"
        }
      ],
      "stateMutability": "pure",
      "type": "function"
    },
    {
      "inputs": [
        {
          "internalType": "uint256",
          "name": "x",
          "type": "uint256"
        }
      ],
      "name": "log_2",
      "outputs": [
        {
          "internalType": "uint128",
          "name": "",
          "type": "uint128"
        }
      ],
      "stateMutability": "pure",
      "type": "function"
    }
  ],
  "bytecode": "0x608060405234801561001057600080fd5b506102cd806100206000396000f3fe608060405234801561001057600080fd5b50600436106100405760003560e01c8062ff2fb11461004557806324d4e90a1461007e578063aac4914c14610091575b600080fd5b61005861005336600461027f565b6100b7565b6040516fffffffffffffffffffffffffffffffff90911681526020015b60405180910390f35b61005861008c36600461027f565b6100e2565b6100a461009f36600461027f565b6100f8565b604051600f9190910b8152602001610075565b60006100d26100cd6100c884610109565b610127565b610229565b67ffffffffffffffff1692915050565b60006100d26100cd6100f384610109565b610245565b600061010382610109565b92915050565b6000677fffffffffffffff82111561012057600080fd5b5060401b90565b60008082600f0b1361013857600080fd5b6000600f83900b680100000000000000008112610157576040918201911d5b640100000000811261016b576020918201911d5b62010000811261017d576010918201911d5b610100811261018e576008918201911d5b6010811261019e576004918201911d5b600481126101ae576002918201911d5b600281126101bd576001820191505b7fffffffffffffffffffffffffffffffffffffffffffffffffffffffffffffffc0820160401b600f85900b607f8490031b6780000000000000005b600081131561021e5790800260ff81901c8281029390930192607f011c9060011d6101f8565b509095945050505050565b60008082600f0b121561023b57600080fd5b50600f0b60401d90565b60008082600f0b1361025657600080fd5b608061026183610127565b600f0b6fb17217f7d1cf79abc9e3b39803f2f6af02901c9050919050565b600060208284031215610290578081fd5b503591905056fea2646970667358221220a335e5e8a4cba74c93e648f1c5df6186849a242783e47e6511bc35d66b89db9f64736f6c63430008040033",
  "linkReferences": {},
  "deployedLinkReferences": {}
}