{
  "_format": "hh-sol-artifact-1",
  "contractName": "VestingERC721",
  "sourceName": "contracts/VestingERC721.sol",
  "abi": [
    {
      "inputs": [
        {
          "internalType": "string",
          "name": "name",
          "type": "string"
        },
        {
          "internalType": "string",
          "name": "symbol",
          "type": "string"
        },
        {
          "internalType": "address",
          "name": "_flexvestAddr",
          "type": "address"
        },
        {
          "internalType": "address",
          "name": "_vintageVestAddr",
          "type": "address"
        },
        {
          "internalType": "address",
          "name": "_vestingNFTHelper",
          "type": "address"
        }
      ],
      "stateMutability": "nonpayable",
      "type": "constructor"
    },
    {
      "anonymous": false,
      "inputs": [
        {
          "indexed": true,
          "internalType": "address",
          "name": "owner",
          "type": "address"
        },
        {
          "indexed": true,
          "internalType": "address",
          "name": "spender",
          "type": "address"
        },
        {
          "indexed": true,
          "internalType": "uint256",
          "name": "id",
          "type": "uint256"
        }
      ],
      "name": "Approval",
      "type": "event"
    },
    {
      "anonymous": false,
      "inputs": [
        {
          "indexed": true,
          "internalType": "address",
          "name": "owner",
          "type": "address"
        },
        {
          "indexed": true,
          "internalType": "address",
          "name": "operator",
          "type": "address"
        },
        {
          "indexed": false,
          "internalType": "bool",
          "name": "approved",
          "type": "bool"
        }
      ],
      "name": "ApprovalForAll",
      "type": "event"
    },
    {
      "anonymous": false,
      "inputs": [
        {
          "indexed": true,
          "internalType": "address",
          "name": "from",
          "type": "address"
        },
        {
          "indexed": true,
          "internalType": "address",
          "name": "to",
          "type": "address"
        },
        {
          "indexed": true,
          "internalType": "uint256",
          "name": "id",
          "type": "uint256"
        }
      ],
      "name": "Transfer",
      "type": "event"
    },
    {
      "inputs": [],
      "name": "_owner",
      "outputs": [
        {
          "internalType": "address",
          "name": "",
          "type": "address"
        }
      ],
      "stateMutability": "view",
      "type": "function"
    },
    {
      "inputs": [
        {
          "internalType": "address",
          "name": "spender",
          "type": "address"
        },
        {
          "internalType": "uint256",
          "name": "id",
          "type": "uint256"
        }
      ],
      "name": "approve",
      "outputs": [],
      "stateMutability": "nonpayable",
      "type": "function"
    },
    {
      "inputs": [
        {
          "internalType": "address",
          "name": "owner",
          "type": "address"
        }
      ],
      "name": "balanceOf",
      "outputs": [
        {
          "internalType": "uint256",
          "name": "",
          "type": "uint256"
        }
      ],
      "stateMutability": "view",
      "type": "function"
    },
    {
      "inputs": [],
      "name": "contractURI",
      "outputs": [
        {
          "internalType": "string",
          "name": "",
          "type": "string"
        }
      ],
      "stateMutability": "pure",
      "type": "function"
    },
    {
      "inputs": [],
      "name": "flexVestContrAddress",
      "outputs": [
        {
          "internalType": "address",
          "name": "",
          "type": "address"
        }
      ],
      "stateMutability": "view",
      "type": "function"
    },
    {
      "inputs": [
        {
          "internalType": "uint256",
          "name": "",
          "type": "uint256"
        }
      ],
      "name": "getApproved",
      "outputs": [
        {
          "internalType": "address",
          "name": "",
          "type": "address"
        }
      ],
      "stateMutability": "view",
      "type": "function"
    },
    {
      "inputs": [
        {
          "internalType": "uint256",
          "name": "tokenId",
          "type": "uint256"
        }
      ],
      "name": "getSvg",
      "outputs": [
        {
          "internalType": "string",
          "name": "",
          "type": "string"
        }
      ],
      "stateMutability": "view",
      "type": "function"
    },
    {
      "inputs": [
        {
          "internalType": "address",
          "name": "",
          "type": "address"
        },
        {
          "internalType": "address",
          "name": "",
          "type": "address"
        }
      ],
      "name": "isApprovedForAll",
      "outputs": [
        {
          "internalType": "bool",
          "name": "",
          "type": "bool"
        }
      ],
      "stateMutability": "view",
      "type": "function"
    },
    {
      "inputs": [],
      "name": "maxTotalSupply",
      "outputs": [
        {
          "internalType": "uint256",
          "name": "",
          "type": "uint256"
        }
      ],
      "stateMutability": "view",
      "type": "function"
    },
    {
      "inputs": [],
      "name": "name",
      "outputs": [
        {
          "internalType": "string",
          "name": "",
          "type": "string"
        }
      ],
      "stateMutability": "view",
      "type": "function"
    },
    {
      "inputs": [
        {
          "internalType": "uint256",
          "name": "id",
          "type": "uint256"
        }
      ],
      "name": "ownerOf",
      "outputs": [
        {
          "internalType": "address",
          "name": "owner",
          "type": "address"
        }
      ],
      "stateMutability": "view",
      "type": "function"
    },
    {
      "inputs": [
        {
          "internalType": "address",
          "name": "to",
          "type": "address"
        }
      ],
      "name": "safeMint",
      "outputs": [
        {
          "internalType": "uint256",
          "name": "id",
          "type": "uint256"
        }
      ],
      "stateMutability": "nonpayable",
      "type": "function"
    },
    {
      "inputs": [
        {
          "internalType": "address",
          "name": "from",
          "type": "address"
        },
        {
          "internalType": "address",
          "name": "to",
          "type": "address"
        },
        {
          "internalType": "uint256",
          "name": "id",
          "type": "uint256"
        }
      ],
      "name": "safeTransferFrom",
      "outputs": [],
      "stateMutability": "nonpayable",
      "type": "function"
    },
    {
      "inputs": [
        {
          "internalType": "address",
          "name": "from",
          "type": "address"
        },
        {
          "internalType": "address",
          "name": "to",
          "type": "address"
        },
        {
          "internalType": "uint256",
          "name": "id",
          "type": "uint256"
        },
        {
          "internalType": "bytes",
          "name": "data",
          "type": "bytes"
        }
      ],
      "name": "safeTransferFrom",
      "outputs": [],
      "stateMutability": "nonpayable",
      "type": "function"
    },
    {
      "inputs": [
        {
          "internalType": "address",
          "name": "operator",
          "type": "address"
        },
        {
          "internalType": "bool",
          "name": "approved",
          "type": "bool"
        }
      ],
      "name": "setApprovalForAll",
      "outputs": [],
      "stateMutability": "nonpayable",
      "type": "function"
    },
    {
      "inputs": [
        {
          "internalType": "bytes4",
          "name": "interfaceId",
          "type": "bytes4"
        }
      ],
      "name": "supportsInterface",
      "outputs": [
        {
          "internalType": "bool",
          "name": "",
          "type": "bool"
        }
      ],
      "stateMutability": "view",
      "type": "function"
    },
    {
      "inputs": [],
      "name": "symbol",
      "outputs": [
        {
          "internalType": "string",
          "name": "",
          "type": "string"
        }
      ],
      "stateMutability": "view",
      "type": "function"
    },
    {
      "inputs": [
        {
          "internalType": "uint256",
          "name": "_tokenId",
          "type": "uint256"
        }
      ],
      "name": "tokenURI",
      "outputs": [
        {
          "internalType": "string",
          "name": "",
          "type": "string"
        }
      ],
      "stateMutability": "view",
      "type": "function"
    },
    {
      "inputs": [],
      "name": "totalSupply",
      "outputs": [
        {
          "internalType": "uint256",
          "name": "",
          "type": "uint256"
        }
      ],
      "stateMutability": "view",
      "type": "function"
    },
    {
      "inputs": [
        {
          "internalType": "address",
          "name": "from",
          "type": "address"
        },
        {
          "internalType": "address",
          "name": "to",
          "type": "address"
        },
        {
          "internalType": "uint256",
          "name": "id",
          "type": "uint256"
        }
      ],
      "name": "transferFrom",
      "outputs": [],
      "stateMutability": "nonpayable",
      "type": "function"
    },
    {
      "inputs": [],
      "name": "vestingNFTHelper",
      "outputs": [
        {
          "internalType": "address",
          "name": "",
          "type": "address"
        }
      ],
      "stateMutability": "view",
      "type": "function"
    },
    {
      "inputs": [],
      "name": "vintageVestContrAddress",
      "outputs": [
        {
          "internalType": "address",
          "name": "",
          "type": "address"
        }
      ],
      "stateMutability": "view",
      "type": "function"
    }
  ],
  "bytecode": "0x60806040523480156200001157600080fd5b5060405162001f7738038062001f7783398101604081905262000034916200022a565b8451859085906200004d906000906020850190620000b4565b50805162000063906001906020840190620000b4565b505060078054336001600160a01b0319918216179091556008805482166001600160a01b039687161790556009805482169390951692831790945550600a805490931617909155506200031c915050565b828054620000c290620002c9565b90600052602060002090601f016020900481019282620000e6576000855562000131565b82601f106200010157805160ff191683800117855562000131565b8280016001018555821562000131579182015b828111156200013157825182559160200191906001019062000114565b506200013f92915062000143565b5090565b5b808211156200013f576000815560010162000144565b80516001600160a01b03811681146200017257600080fd5b919050565b600082601f83011262000188578081fd5b81516001600160401b0380821115620001a557620001a562000306565b604051601f8301601f19908116603f01168101908282118183101715620001d057620001d062000306565b81604052838152602092508683858801011115620001ec578485fd5b8491505b838210156200020f5785820183015181830184015290820190620001f0565b838211156200022057848385830101525b9695505050505050565b600080600080600060a0868803121562000242578081fd5b85516001600160401b038082111562000259578283fd5b6200026789838a0162000177565b965060208801519150808211156200027d578283fd5b506200028c8882890162000177565b9450506200029d604087016200015a565b9250620002ad606087016200015a565b9150620002bd608087016200015a565b90509295509295909350565b600181811c90821680620002de57607f821691505b602082108114156200030057634e487b7160e01b600052602260045260246000fd5b50919050565b634e487b7160e01b600052604160045260246000fd5b611c4b806200032c6000396000f3fe608060405234801561001057600080fd5b50600436106101825760003560e01c806395d89b41116100d8578063b88d4fde1161008c578063e8a3d48511610066578063e8a3d48514610321578063e985e9c514610329578063f702a3141461035757600080fd5b8063b88d4fde146102e8578063bc2920de146102fb578063c87b56dd1461030e57600080fd5b8063a7fc5186116100bd578063a7fc5186146102af578063b0dc78fa146102c2578063b2bdfa7b146102d557600080fd5b806395d89b4114610294578063a22cb4651461029c57600080fd5b806323b872dd1161013a57806342842e0e1161011457806342842e0e1461025b5780636352211e1461026e57806370a082311461028157600080fd5b806323b872dd1461022c5780632ab4d0521461023f57806340d097c31461024857600080fd5b8063081812fc1161016b578063081812fc146101c4578063095ea7b31461020557806318160ddd1461021a57600080fd5b806301ffc9a71461018757806306fdde03146101af575b600080fd5b61019a610195366004611504565b61036a565b60405190151581526020015b60405180910390f35b6101b7610407565b6040516101a691906116ab565b6101ed6101d23660046115e5565b6004602052600090815260409020546001600160a01b031681565b6040516001600160a01b0390911681526020016101a6565b6102186102133660046114db565b610495565b005b600b545b6040519081526020016101a6565b61021861023a3660046113d0565b610598565b61021e600b5481565b61021e61025636600461137d565b61079a565b6102186102693660046113d0565b6107e0565b6101ed61027c3660046115e5565b6108f4565b61021e61028f36600461137d565b61095e565b6101b76109d2565b6102186102aa3660046114a1565b6109df565b600a546101ed906001600160a01b031681565b6101b76102d03660046115e5565b610a69565b6007546101ed906001600160a01b031681565b6102186102f636600461140b565b610c63565b6009546101ed906001600160a01b031681565b6101b761031c3660046115e5565b610d67565b6101b7610f09565b61019a61033736600461139e565b600560209081526000928352604080842090915290825290205460ff1681565b6008546101ed906001600160a01b031681565b60007f01ffc9a7000000000000000000000000000000000000000000000000000000006001600160e01b0319831614806103cd57507f80ac58cd000000000000000000000000000000000000000000000000000000006001600160e01b03198316145b8061040157507f5b5e139f000000000000000000000000000000000000000000000000000000006001600160e01b03198316145b92915050565b6000805461041490611765565b80601f016020809104026020016040519081016040528092919081815260200182805461044090611765565b801561048d5780601f106104625761010080835404028352916020019161048d565b820191906000526020600020905b81548152906001019060200180831161047057829003601f168201915b505050505081565b6000818152600260205260409020546001600160a01b0316338114806104de57506001600160a01b038116600090815260056020908152604080832033845290915290205460ff165b61052f5760405162461bcd60e51b815260206004820152600e60248201527f4e4f545f415554484f52495a454400000000000000000000000000000000000060448201526064015b60405180910390fd5b600082815260046020526040808220805473ffffffffffffffffffffffffffffffffffffffff19166001600160a01b0387811691821790925591518593918516917f8c5be1e5ebec7d5bd14f71427d1e84f3dd0314c0f7b2291e5b200ac8c7c3b92591a4505050565b6000818152600260205260409020546001600160a01b038481169116146106015760405162461bcd60e51b815260206004820152600a60248201527f57524f4e475f46524f4d000000000000000000000000000000000000000000006044820152606401610526565b6001600160a01b0382166106575760405162461bcd60e51b815260206004820152601160248201527f494e56414c49445f524543495049454e540000000000000000000000000000006044820152606401610526565b336001600160a01b038416148061069157506001600160a01b038316600090815260056020908152604080832033845290915290205460ff165b806106b257506000818152600460205260409020546001600160a01b031633145b6106fe5760405162461bcd60e51b815260206004820152600e60248201527f4e4f545f415554484f52495a45440000000000000000000000000000000000006044820152606401610526565b6001600160a01b03808416600081815260036020908152604080832080546000190190559386168083528483208054600101905585835260028252848320805473ffffffffffffffffffffffffffffffffffffffff199081168317909155600490925284832080549092169091559251849392917fddf252ad1be2c89b69c2b068fc378daa952ba7f163c4a11628f55a4df523b3ef91a4505050565b60006107aa600680546001019055565b60006107b560065490565b90506107c18382610f59565b6001600b60008282546107d491906116de565b90915550909392505050565b6107eb838383610598565b6001600160a01b0382163b15806108a35750604051630a85bd0160e11b8082523360048301526001600160a01b03858116602484015260448301849052608060648401526000608484015290919084169063150b7a029060a401602060405180830381600087803b15801561085f57600080fd5b505af1158015610873573d6000803e3d6000fd5b505050506040513d601f19601f820116820180604052508101906108979190611520565b6001600160e01b031916145b6108ef5760405162461bcd60e51b815260206004820152601060248201527f554e534146455f524543495049454e54000000000000000000000000000000006044820152606401610526565b505050565b6000818152600260205260409020546001600160a01b0316806109595760405162461bcd60e51b815260206004820152600a60248201527f4e4f545f4d494e544544000000000000000000000000000000000000000000006044820152606401610526565b919050565b60006001600160a01b0382166109b65760405162461bcd60e51b815260206004820152600c60248201527f5a45524f5f4144445245535300000000000000000000000000000000000000006044820152606401610526565b506001600160a01b031660009081526003602052604090205490565b6001805461041490611765565b3360008181526005602090815260408083206001600160a01b0387168085529083529281902080547fffffffffffffffffffffffffffffffffffffffffffffffffffffffffffffff001686151590811790915590519081529192917f17307eab39ab6107e8899845ad3d59bd9653f200f220920489ca2b5937696c31910160405180910390a35050565b600854604051633427dd6760e01b815230600482015260248101839052606091600091829182916001600160a01b0390911690633427dd679060440160206040518083038186803b158015610abd57600080fd5b505afa158015610ad1573d6000803e3d6000fd5b505050506040513d601f19601f82011682018060405250810190610af591906115fd565b1115610b105750506008546001600160a01b03166001610baa565b600954604051633427dd6760e01b8152306004820152602481018690526000916001600160a01b031690633427dd679060440160206040518083038186803b158015610b5b57600080fd5b505afa158015610b6f573d6000803e3d6000fd5b505050506040513d601f19601f82011682018060405250810190610b9391906115fd565b1115610baa5750506009546001600160a01b031660025b600a546040517f93d357e20000000000000000000000000000000000000000000000000000000081526004810186905260ff831660248201523060448201526001600160a01b038481166064830152909116906393d357e2906084015b60006040518083038186803b158015610c1f57600080fd5b505afa158015610c33573d6000803e3d6000fd5b505050506040513d6000823e601f3d908101601f19168201604052610c5b919081019061153c565b949350505050565b610c6e858585610598565b6001600160a01b0384163b1580610d145750604051630a85bd0160e11b808252906001600160a01b0386169063150b7a0290610cb69033908a9089908990899060040161165a565b602060405180830381600087803b158015610cd057600080fd5b505af1158015610ce4573d6000803e3d6000fd5b505050506040513d601f19601f82011682018060405250810190610d089190611520565b6001600160e01b031916145b610d605760405162461bcd60e51b815260206004820152601060248201527f554e534146455f524543495049454e54000000000000000000000000000000006044820152606401610526565b5050505050565b600854604051633427dd6760e01b815230600482015260248101839052606091600091829182916001600160a01b0390911690633427dd679060440160206040518083038186803b158015610dbb57600080fd5b505afa158015610dcf573d6000803e3d6000fd5b505050506040513d601f19601f82011682018060405250810190610df391906115fd565b1115610e0e5750506008546001600160a01b03166001610ea8565b600954604051633427dd6760e01b8152306004820152602481018690526000916001600160a01b031690633427dd679060440160206040518083038186803b158015610e5957600080fd5b505afa158015610e6d573d6000803e3d6000fd5b505050506040513d601f19601f82011682018060405250810190610e9191906115fd565b1115610ea85750506009546001600160a01b031660025b600a546040517fbb89c1640000000000000000000000000000000000000000000000000000000081526004810186905260ff831660248201526001600160a01b0384811660448301523060648301529091169063bb89c16490608401610c07565b606060006040518061042001604052806103f081526020016117e66103f091399050610f3481611068565b604051602001610f449190611615565b60405160208183030381529060405291505090565b610f638282611233565b6001600160a01b0382163b15806110185750604051630a85bd0160e11b80825233600483015260006024830181905260448301849052608060648401526084830152906001600160a01b0384169063150b7a029060a401602060405180830381600087803b158015610fd457600080fd5b505af1158015610fe8573d6000803e3d6000fd5b505050506040513d601f19601f8201168201806040525081019061100c9190611520565b6001600160e01b031916145b6110645760405162461bcd60e51b815260206004820152601060248201527f554e534146455f524543495049454e54000000000000000000000000000000006044820152606401610526565b5050565b606081516000141561108857505060408051602081019091526000815290565b6000604051806060016040528060408152602001611bd660409139905060006003845160026110b791906116de565b6110c191906116f6565b6110cc906004611716565b905060006110db8260206116de565b67ffffffffffffffff81111561110157634e487b7160e01b600052604160045260246000fd5b6040519080825280601f01601f19166020018201604052801561112b576020820181803683370190505b509050818152600183018586518101602084015b818310156111995760039283018051603f601282901c811687015160f890811b8552600c83901c8216880151811b6001860152600683901c8216880151811b60028601529116860151901b9382019390935260040161113f565b6003895106600181146111b357600281146111fd57611225565b7f3d3d0000000000000000000000000000000000000000000000000000000000007ffffffffffffffffffffffffffffffffffffffffffffffffffffffffffffffffe830152611225565b7f3d000000000000000000000000000000000000000000000000000000000000006000198301525b509398975050505050505050565b6001600160a01b0382166112895760405162461bcd60e51b815260206004820152601160248201527f494e56414c49445f524543495049454e540000000000000000000000000000006044820152606401610526565b6000818152600260205260409020546001600160a01b0316156112ee5760405162461bcd60e51b815260206004820152600e60248201527f414c52454144595f4d494e5445440000000000000000000000000000000000006044820152606401610526565b6001600160a01b0382166000818152600360209081526040808320805460010190558483526002909152808220805473ffffffffffffffffffffffffffffffffffffffff19168417905551839291907fddf252ad1be2c89b69c2b068fc378daa952ba7f163c4a11628f55a4df523b3ef908290a45050565b80356001600160a01b038116811461095957600080fd5b60006020828403121561138e578081fd5b61139782611366565b9392505050565b600080604083850312156113b0578081fd5b6113b983611366565b91506113c760208401611366565b90509250929050565b6000806000606084860312156113e4578081fd5b6113ed84611366565b92506113fb60208501611366565b9150604084013590509250925092565b600080600080600060808688031215611422578081fd5b61142b86611366565b945061143960208701611366565b935060408601359250606086013567ffffffffffffffff8082111561145c578283fd5b818801915088601f83011261146f578283fd5b81358181111561147d578384fd5b89602082850101111561148e578384fd5b9699959850939650602001949392505050565b600080604083850312156114b3578182fd5b6114bc83611366565b9150602083013580151581146114d0578182fd5b809150509250929050565b600080604083850312156114ed578182fd5b6114f683611366565b946020939093013593505050565b600060208284031215611515578081fd5b8135611397816117cc565b600060208284031215611531578081fd5b8151611397816117cc565b60006020828403121561154d578081fd5b815167ffffffffffffffff80821115611564578283fd5b818401915084601f830112611577578283fd5b815181811115611589576115896117b6565b604051601f8201601f19908116603f011681019083821181831017156115b1576115b16117b6565b816040528281528760208487010111156115c9578586fd5b6115da836020830160208801611735565b979650505050505050565b6000602082840312156115f6578081fd5b5035919050565b60006020828403121561160e578081fd5b5051919050565b7f646174613a6170706c69636174696f6e2f6a736f6e3b6261736536342c00000081526000825161164d81601d850160208701611735565b91909101601d0192915050565b60006001600160a01b03808816835280871660208401525084604083015260806060830152826080830152828460a084013781830160a090810191909152601f909201601f19160101949350505050565b60208152600082518060208401526116ca816040850160208701611735565b601f01601f19169190910160400192915050565b600082198211156116f1576116f16117a0565b500190565b60008261171157634e487b7160e01b81526012600452602481fd5b500490565b6000816000190483118215151615611730576117306117a0565b500290565b60005b83811015611750578181015183820152602001611738565b8381111561175f576000848401525b50505050565b600181811c9082168061177957607f821691505b6020821081141561179a57634e487b7160e01b600052602260045260246000fd5b50919050565b634e487b7160e01b600052601160045260246000fd5b634e487b7160e01b600052604160045260246000fd5b6001600160e01b0319811681146117e257600080fd5b5056fe7b226e616d65223a202244414f53717561726520496e766573746d656e742056657374696e67222c226465736372697074696f6e223a22546865204e46547320696e2044414f53717561726520496e766573746d656e742056657374696e6720436f6c6c656374696f6e206172652067656e6572617465642066726f6d20696e766573746d656e7473206d6164652062792056656e747572652044414f7320696e2044414f53717561726520496e63756261746f722c207768696368206861766520757365642074686520457363726f772066756e6374696f6e20616e642061637469766174656420746865204e46542066756e6374696f6e2e2045616368204e465420726570726573656e74732074686520726967687420746f20636c61696d205061796261636b20546f6b656e7320666f7220616e20696e766573746d656e74206d61646520627920616e20696e766573746f722e20546865736520746f6b656e732068617665206265656e20657363726f77656420746f2074686520457363726f7720736d61727420636f6e747261637420616e642077696c6c206265206175746f6d61746963616c6c792072656c656173656420746f20746865204e465420686f6c646572207468726f756768207468652056657374696e67206d6f64756c65206f662044414f53717561726520496e63756261746f72206163636f7264696e6720746f207468652056657374696e67205363686564756c6520696e2074686520736d61727420636f6e74726163742e20596f752063616e2076696577207468652064796e616d696320646174612028696d6167652920616e642070726f7065727469657320696e666f726d6174696f6e206f662065616368204e465420746f20636865636b207768657468657220746865204e46542069732063757272656e746c792076616c696420616e64207468652073706563696669632072696768747320696e666f726d6174696f6e2e204e46547320696e207468697320636f6c6c656374696f6e20617265207472616e7366657261626c652e204e465420686f6c646572732063616e20757365207468657365204e46547320746f20636c61696d205061796261636b20546f6b656e73207468726f756768207468652044414f53717561726520496e63756261746f72732056657374696e67206d6f64756c652c207265676172646c657373206f662077686f20746865206f726967696e616c20696e766573746f722069732e222c22696d616765223a2268747470733a2f2f692e6962622e636f2f4a784e636d66342f436f6c6c656374696f6e2d4c6f676f2e706e67222c2265787465726e616c5f6c696e6b223a2268747470733a2f2f64616f7371756172652e6669227d4142434445464748494a4b4c4d4e4f505152535455565758595a6162636465666768696a6b6c6d6e6f707172737475767778797a303132333435363738392b2fa2646970667358221220bd0c25ab086118faef8e0c50f99adc4057ebcb4ebdb456e55fb70e8fff79b79164736f6c63430008040033",
  "linkReferences": {},
  "deployedLinkReferences": {}
}