{
  "_format": "hh-sol-artifact-1",
  "contractName": "VestingERC721Helper",
  "sourceName": "contracts/helpers/VestingERC721Helper.sol",
  "abi": [
    {
      "inputs": [
        {
          "internalType": "uint256",
          "name": "tokenId",
          "type": "uint256"
        },
        {
          "internalType": "uint8",
          "name": "flag",
          "type": "uint8"
        },
        {
          "internalType": "address",
          "name": "vestingNFTAddress",
          "type": "address"
        },
        {
          "internalType": "address",
          "name": "vestingContAdddr",
          "type": "address"
        }
      ],
      "name": "getSvg",
      "outputs": [
        {
          "internalType": "string",
          "name": "",
          "type": "string"
        }
      ],
      "stateMutability": "view",
      "type": "function"
    },
    {
      "inputs": [
        {
          "internalType": "uint256",
          "name": "_tokenId",
          "type": "uint256"
        },
        {
          "internalType": "uint8",
          "name": "flag",
          "type": "uint8"
        },
        {
          "internalType": "address",
          "name": "vestAddress",
          "type": "address"
        },
        {
          "internalType": "address",
          "name": "vestingNFTAddress",
          "type": "address"
        }
      ],
      "name": "getTokenURI",
      "outputs": [
        {
          "internalType": "string",
          "name": "",
          "type": "string"
        }
      ],
      "stateMutability": "view",
      "type": "function"
    }
  ],
  "bytecode": "0x608060405234801561001057600080fd5b5061520c806100206000396000f3fe608060405234801561001057600080fd5b50600436106100365760003560e01c806393d357e21461003b578063bb89c16414610064575b600080fd5b61004e6100493660046133e4565b610077565b60405161005b9190615009565b60405180910390f35b61004e6100723660046133e4565b6105be565b606061015d604080516101a081018252600080825260208083018290528284018290526060808401839052608080850184905260a080860183905260c0860185905260e086018590526101008601859052865180830188528581528085018690528088018690528084018690526101208701528651808201885283815280850184905280880186905280840186905280830186905261014087015286518083018852858152808501869052808801869052808401869052610160870152865190810187528281529283018290529482018390528101829052928301529061018082015290565b8460ff166001141561032057604051631614f0cb60e11b81526001600160a01b038581166004830152602482018890528491600091831690632c29e1969060440160206040518083038186803b1580156101b657600080fd5b505afa1580156101ca573d6000803e3d6000fd5b505050506040513d601f19601f820116820180604052508101906101ee919061339f565b6040516328ef7aab60e11b8152600481018290529091506001600160a01b038316906351def5569060240160006040518083038186803b15801561023157600080fd5b505afa158015610245573d6000803e3d6000fd5b505050506040513d6000823e601f3d908101601f1916820160405261026d91908101906132c2565b6101808b01525061016089015250505060808501526001600160a01b039081166060850152604051633d219a7160e11b81528782166004820152602481018a905290831690637a4334e2906044015b60606040518083038186803b1580156102d457600080fd5b505afa1580156102e8573d6000803e3d6000fd5b505050506040513d601f19601f8201168201806040525081019061030c91906133b7565b61010086015260e0850152506104f2915050565b8460ff16600214156104f257604051631614f0cb60e11b81526001600160a01b038581166004830152602482018890528491600091831690632c29e1969060440160206040518083038186803b15801561037957600080fd5b505afa15801561038d573d6000803e3d6000fd5b505050506040513d601f19601f820116820180604052508101906103b1919061339f565b6040516328ef7aab60e11b8152600481018290529091506001600160a01b038316906351def5569060240160006040518083038186803b1580156103f457600080fd5b505afa158015610408573d6000803e3d6000fd5b505050506040513d6000823e601f3d908101601f1916820160405261043091908101906132c2565b6101408b015250610120890181905260808901949094525050506001600160a01b0390911660608086019190915281015163ffffffff1684526040810151905161047a9190615054565b63ffffffff9081166020858101919091526101208501518101519091166040808601919091526101408501519182015160a08601526080909101516001600160a01b0390811660c08601529051633d219a7160e11b81528782166004820152602481018a905290831690637a4334e2906044016102bc565b6105b48160c001516001600160a01b03166395d89b416040518163ffffffff1660e01b815260040160006040518083038186803b15801561053257600080fd5b505afa158015610546573d6000803e3d6000fd5b505050506040513d6000823e601f3d908101601f1916820160405261056e919081019061336c565b8260c001516040518060a001604052808560e001518152602001856101000151815260200185600001518152602001856020015181526020018560400151815250610bac565b9695505050505050565b60606106a4604080516101a081018252600080825260208083018290528284018290526060808401839052608080850184905260a080860183905260c0860185905260e086018590526101008601859052865180830188528581528085018690528088018690528084018690526101208701528651808201885283815280850184905280880186905280840186905280830186905261014087015286518083018852858152808501869052808801869052808401869052610160870152865190810187528281529283018290529482018390528101829052928301529061018082015290565b8460ff166001141561086757604051631614f0cb60e11b81526001600160a01b038481166004830152602482018890528591600091831690632c29e1969060440160206040518083038186803b1580156106fd57600080fd5b505afa158015610711573d6000803e3d6000fd5b505050506040513d601f19601f82011682018060405250810190610735919061339f565b6040516328ef7aab60e11b8152600481018290529091506001600160a01b038316906351def5569060240160006040518083038186803b15801561077857600080fd5b505afa15801561078c573d6000803e3d6000fd5b505050506040513d6000823e601f3d908101601f191682016040526107b491908101906132c2565b6101808b01525061016089015250505060808501526001600160a01b039081166060850152604051633d219a7160e11b81528682166004820152602481018a905290831690637a4334e2906044015b60606040518083038186803b15801561081b57600080fd5b505afa15801561082f573d6000803e3d6000fd5b505050506040513d601f19601f8201168201806040525081019061085391906133b7565b61010086015260e085015250610a39915050565b8460ff1660021415610a3957604051631614f0cb60e11b81526001600160a01b038481166004830152602482018890528591600091831690632c29e1969060440160206040518083038186803b1580156108c057600080fd5b505afa1580156108d4573d6000803e3d6000fd5b505050506040513d601f19601f820116820180604052508101906108f8919061339f565b6040516328ef7aab60e11b8152600481018290529091506001600160a01b038316906351def5569060240160006040518083038186803b15801561093b57600080fd5b505afa15801561094f573d6000803e3d6000fd5b505050506040513d6000823e601f3d908101601f1916820160405261097791908101906132c2565b6101408b015250610120890181905260808901949094525050506001600160a01b0390911660608086019190915281015163ffffffff168452604081015190516109c19190615054565b63ffffffff9081166020858101919091526101208501518101519091166040808601919091526101408501519182015160a08601526080909101516001600160a01b0390811660c08601529051633d219a7160e11b81528682166004820152602481018a905290831690637a4334e290604401610803565b6000610a5382606001516001600160a01b03166014610bc1565b610a608360800151610e57565b610a7160808560800151901b610e57565b6040517f307800000000000000000000000000000000000000000000000000000000000060208201526022810192909252604282015260620160408051601f1981840301815290829052610ac89291602001613b8c565b6040516020818303038152906040529050610ba18260a001518360c001516001600160a01b03166395d89b416040518163ffffffff1660e01b815260040160006040518083038186803b158015610b1e57600080fd5b505afa158015610b32573d6000803e3d6000fd5b505050506040513d6000823e601f3d908101601f19168201604052610b5a919081019061336c565b838560c001516040518060a00160405280886000015181526020018860e001518152602001886101000151815260200188602001518152602001886040015181525061103f565b979650505050505050565b6060610bb9848484611209565b949350505050565b60606000610bd0836002615090565b610bdb90600261503c565b67ffffffffffffffff811115610c0157634e487b7160e01b600052604160045260246000fd5b6040519080825280601f01601f191660200182016040528015610c2b576020820181803683370190505b5090507f300000000000000000000000000000000000000000000000000000000000000081600081518110610c7057634e487b7160e01b600052603260045260246000fd5b60200101907effffffffffffffffffffffffffffffffffffffffffffffffffffffffffffff1916908160001a9053507f780000000000000000000000000000000000000000000000000000000000000081600181518110610ce157634e487b7160e01b600052603260045260246000fd5b60200101907effffffffffffffffffffffffffffffffffffffffffffffffffffffffffffff1916908160001a9053506000610d1d846002615090565b610d2890600161503c565b90505b6001811115610de1577f303132333435363738396162636465660000000000000000000000000000000085600f1660108110610d7757634e487b7160e01b600052603260045260246000fd5b1a60f81b828281518110610d9b57634e487b7160e01b600052603260045260246000fd5b60200101907effffffffffffffffffffffffffffffffffffffffffffffffffffffffffffff1916908160001a90535060049490941c93610dda816150f6565b9050610d2b565b508315610e4e576040517f08c379a000000000000000000000000000000000000000000000000000000000815260206004820181905260248201527f537472696e67733a20686578206c656e67746820696e73756666696369656e74604482015260640160405180910390fd5b90505b92915050565b7aff00000000000000ff00000000000000ff00000000000000ff00006bffffffff0000000000000000604083901c9081167bffffffff00000000000000000000000000000000000000000000000084161760201c6fffffffff000000000000000000000000919091167fffffffff0000000000000000000000000000000000000000000000000000000084161717601081901c9182167eff00000000000000ff00000000000000ff00000000000000ff000000000000821617600890811c7bff00000000000000ff00000000000000ff00000000000000ff000000939093167fff00000000000000ff00000000000000ff00000000000000ff000000000000009290921691909117919091179081901c7e0f000f000f000f000f000f000f000f000f000f000f000f000f000f000f000f167f0f000f000f000f000f000f000f000f000f000f000f000f000f000f000f000f00600492831c161790610fdb827f060606060606060606060606060606060606060606060606060606060606060661503c565b901c7f0f0f0f0f0f0f0f0f0f0f0f0f0f0f0f0f0f0f0f0f0f0f0f0f0f0f0f0f0f0f0f0f16600761100b9190615090565b611035827f303030303030303030303030303030303030303030303030303030303030303061503c565b610e51919061503c565b6060600061112c86856040518060a001604052808760016005811061107457634e487b7160e01b600052603260045260246000fd5b602002015181526020018760026005811061109f57634e487b7160e01b600052603260045260246000fd5b60200201518152602001876000600581106110ca57634e487b7160e01b600052603260045260246000fd5b60200201518152602001876003600581106110f557634e487b7160e01b600052603260045260246000fd5b602002015181526020018760046005811061112057634e487b7160e01b600052603260045260246000fd5b60200201519052610bac565b905060006111398261131a565b6040516020016111499190613457565b604051602081830303815290604052905060008760405160200161116d91906137f2565b60408051808303601f190181529181526020870151908701518751606089015160808a01519495506000946111a9948e948d94919390926114e5565b90506111db828b8a84876040516020016111c7959493929190613901565b60405160208183030381529060405261131a565b6040516020016111eb919061450c565b60405160208183030381529060405294505050505095945050505050565b6060611213611534565b61121d858561156b565b835161122a9087906115e0565b61123261163f565b6112ee60405180608001604052808860036005811061126157634e487b7160e01b600052603260045260246000fd5b602002015181526020018860046005811061128c57634e487b7160e01b600052603260045260246000fd5b60200201518152602001886002600581106112b757634e487b7160e01b600052603260045260246000fd5b60200201518152602001886001600581106112e257634e487b7160e01b600052603260045260246000fd5b60200201519052611650565b604051602001611302959493929190613518565b60405160208183030381529060405290509392505050565b606081516000141561133a57505060408051602081019091526000815290565b60006040518060600160405280604081526020016151976040913990506000600384516002611369919061503c565b611373919061507c565b61137e906004615090565b9050600061138d82602061503c565b67ffffffffffffffff8111156113b357634e487b7160e01b600052604160045260246000fd5b6040519080825280601f01601f1916602001820160405280156113dd576020820181803683370190505b509050818152600183018586518101602084015b8183101561144b5760039283018051603f601282901c811687015160f890811b8552600c83901c8216880151811b6001860152600683901c8216880151811b60028601529116860151901b938201939093526004016113f1565b60038951066001811461146557600281146114af576114d7565b7f3d3d0000000000000000000000000000000000000000000000000000000000007ffffffffffffffffffffffffffffffffffffffffffffffffffffffffffffffffe8301526114d7565b7f3d000000000000000000000000000000000000000000000000000000000000006000198301525b509398975050505050505050565b60606114f188886117be565b6114fb87876117f2565b611506868686611817565b60405160200161151893929190613d61565b6040516020818303038152906040529050979650505050505050565b606061153e61183d565b6115466119c9565b604051602001611557929190614f16565b604051602081830303815290604052905090565b60606000611583836001600160a01b03166014610bc1565b84604051602001611595929190613833565b60405160208183030381529060405290506115ae611b7d565b6115b782611e91565b6040516020016115c8929190614a27565b60405160208183030381529060405291505092915050565b606060006115ed83611ebc565b905060008460405160200161160291906140db565b60405160208183030381529060405290508082604051602001611626929190614551565b6040516020818303038152906040529250505092915050565b606060405160200161155790614ad2565b606061169a60405180610100016040528060608152602001606081526020016000815260200160008152602001600081526020016060815260200160608152602001606081525090565b825160208401516116ab9190612668565b815260608301516116bb90611ebc565b602082015282516116cb9061277b565b60808401526060830181905260408301919091526116e89061279a565b6116f5826080015161279a565b611702836040015161279a565b6040516020016117149392919061388b565b60408051601f1981840301815291905260c082015261173983600260200201516128e8565b60e0820152611746612ac0565b6117538260200151612bd9565b61175b612bec565b835161176690612cdf565b61176e612cf2565b61177b8660c00151612de5565b611783612df8565b6117908860e00151612f11565b6040516020016117a7989796959493929190613473565b604051602081830303815290604052915050919050565b6060826117ca83612f24565b6040516020016117db929190613dfd565b604051602081830303815290604052905092915050565b60606117fd83611ebc565b61180683611ebc565b6040516020016117db929190613ff3565b60606118238383612668565b61182c856128e8565b604051602001611302929190613f0b565b6040517f3c646566733e000000000000000000000000000000000000000000000000000060208201527f3c636c6970506174682069643d22636f726e657273223e3c726563742077696460268201527f74683d2232393022206865696768743d22353030222072783d2234322220727960468201527f3d22343222202f3e3c2f636c6970506174683e0000000000000000000000000060668201527f3c706174682069643d22746578742d706174682d612220643d224d343020313260798201527f204832353020413238203238203020302031203237382034302056343630204160998201527f323820323820302030203120323530203438382048343020413238203238203060b98201527f203020312031322034363020563430204132382032382030203020312034302060d98201527f3132207a22202f3e00000000000000000000000000000000000000000000000060f98201527f3c2f646566733e0000000000000000000000000000000000000000000000000061010182015260609061010801611557565b6040517f3c6720636c69702d706174683d2275726c2823636f726e65727329223e00000060208201527f3c726563742066696c6c3d226261373937302220783d223070782220793d2230603d8201527f7078222077696474683d22323930707822206865696768743d22353030707822605d8201527f202f3e0000000000000000000000000000000000000000000000000000000000607d8201527f3c67207374796c653d2266696c7465723a75726c2823746f702d726567696f6e60808201527f2d626c7572293b207472616e73666f726d3a7363616c6528312e35293b20747260a08201527f616e73666f726d2d6f726967696e3a63656e74657220746f703b223e3c72656360c08201527f742066696c6c3d226e6f6e652220783d223070782220793d223070782220776960e08201527f6474683d22323930707822206865696768743d22353030707822202f3e203c2f6101008201527f673e0000000000000000000000000000000000000000000000000000000000006101208201527f3c2f673e0000000000000000000000000000000000000000000000000000000061012282015260609061012601611557565b6060604051602001611557907f3c74657874506174682073746172744f66667365743d222d313030252220666981527f6c6c3d2277686974652220666f6e742d66616d696c793d2227436f757269657260208201527f204e6577272c206d6f6e6f73706163652220666f6e742d73697a653d2231307060408201527f782220786c696e6b3a687265663d2223746578742d706174682d61223e44414f60608201527f53717561726520496e63756261746f722056656e747572652044414f2056657360808201527f74696e673c616e696d6174652061646469746976653d2273756d22206174747260a08201527f69627574654e616d653d2273746172744f6666736574222066726f6d3d22302560c08201527f2220746f3d22313030252220626567696e3d22307322206475723d223330732260e08201527f20726570656174436f756e743d22696e646566696e69746522202f3e3c2f74656101008201527f7874506174683e000000000000000000000000000000000000000000000000006101208201527f3c74657874506174682073746172744f66667365743d223025222066696c6c3d6101278201527f2277686974652220666f6e742d66616d696c793d2227436f7572696572204e656101478201527f77272c206d6f6e6f73706163652220666f6e742d73697a653d223130707822206101678201527f786c696e6b3a687265663d2223746578742d706174682d61223e44414f5371756101878201527f61726520496e63756261746f722056656e747572652044414f2056657374696e6101a78201527f673c616e696d6174652061646469746976653d2273756d2220617474726962756101c78201527f74654e616d653d2273746172744f6666736574222066726f6d3d2230252220746101e78201527f6f3d22313030252220626567696e3d22307322206475723d22333073222072656102078201527f70656174436f756e743d22696e646566696e69746522202f3e203c2f746578746102278201527f506174683e00000000000000000000000000000000000000000000000000000061024782015261024c0190565b60608182604051602001611ea6929190614224565b6040516020818303038152906040529050919050565b60606000806000806000683635c9adc5dea000008710156120b057611ee866038d7ea4c680008861507c565b9450611ef7620186a08661507c565b9350611f0b670de0b6b3a76400008861507c565b9350600a60646103e8611f2667016345785d8a00008b61507c565b611f309190615128565b611f3a9190615128565b611f449190615128565b9250600a60646103e8612710611f61662386f26fc100008c61507c565b611f6b9190615128565b611f759190615128565b611f7f9190615128565b611f899190615128565b9150600a60646103e8612710620186a0611faa66038d7ea4c680008d61507c565b611fb49190615128565b611fbe9190615128565b611fc89190615128565b611fd29190615128565b611fdc9190615128565b90506005811061208357600982101561200157611ffa60018361503c565b9150612083565b6000915060098310156120205761201960018461503c565b9250612083565b600092506103e78410612075576040517f312e30304b00000000000000000000000000000000000000000000000000000060208201526025015b60405160208183030381529060405295505050505050919050565b61208060018561503c565b93505b61208c8461279a565b6120958461279a565b61209e8461279a565b60405160200161205a939291906135ab565b683635c9adc5dea0000087101580156120d2575069d3c21bcecceda100000087105b15612281576120ea683635c9adc5dea000008861507c565b945060646120fa866103e8615090565b61210c670de0b6b3a76400008a61507c565b61211691906150af565b612120919061507c565b9350600a61212f856064615090565b61213b876103e8615090565b61214d670de0b6b3a76400008b61507c565b61215791906150af565b61216191906150af565b61216b919061507c565b925061217883600a615090565b612183856064615090565b61218f876103e8615090565b6121a1670de0b6b3a76400008b61507c565b6121ab91906150af565b6121b591906150af565b6121bf91906150af565b9150600582106122545760098310156121e4576121dd60018461503c565b9250612254565b600092506009841015612203576121fc60018561503c565b9350612254565b600093506103e78510156122235761221c60018661503c565b9450612254565b6040517f312e30304d000000000000000000000000000000000000000000000000000000602082015260250161205a565b61225d8561279a565b6122668561279a565b61226f8561279a565b60405160200161205a93929190613775565b69d3c21bcecceda100000087101580156122a657506b033b2e3c9fd0803ce800000087105b156123f5576122bd670de0b6b3a76400008861507c565b9450620f42406122d5670de0b6b3a76400008961507c565b6122df919061507c565b9350620186a06122f2620f424087615128565b6122fc919061507c565b925061271061230e620186a087615128565b612318919061507c565b91506103e861232961271087615128565b612333919061507c565b9050600581106123c85760098210156123585761235160018361503c565b91506123c8565b6000915060098310156123775761237060018461503c565b92506123c8565b600092506103e78410156123975761239060018661503c565b94506123c8565b6040517f312e303042000000000000000000000000000000000000000000000000000000602082015260250161205a565b6123d18461279a565b6123da8461279a565b6123e38461279a565b60405160200161205a9392919061367b565b6b033b2e3c9fd0803ce8000000871015801561241d57506c0c9f2c9cd04674edea4000000087105b1561256057612434670de0b6b3a76400008861507c565b9450612444633b9aca008661507c565b93506305f5e100612459633b9aca0087615128565b612463919061507c565b9250629896806124776305f5e10087615128565b612481919061507c565b9150620f42406124946298968087615128565b61249e919061507c565b9050600581106125335760098210156124c3576124bc60018361503c565b9150612533565b6000915060098310156124e2576124db60018461503c565b9250612533565b600092506103e7841015612502576124fb60018561503c565b9350612533565b6040517f312e303054000000000000000000000000000000000000000000000000000000602082015260250161205a565b61253c8461279a565b6125458461279a565b61254e8461279a565b60405160200161205a939291906135fe565b612572670de0b6b3a76400008861507c565b945061258364e8d4a510008661507c565b935064174876e80061259a64e8d4a5100087615128565b6125a4919061507c565b92506402540be4006125bb64174876e80087615128565b6125c5919061507c565b9150633b9aca006125db6402540be40087615128565b6125e5919061507c565b90506005811061263b57600982101561260a5761260360018361503c565b915061263b565b6000915060098310156126295761262260018461503c565b925061263b565b6000925061263860018561503c565b93505b6126448461279a565b61264d8461279a565b6126568461279a565b60405160200161205a939291906136f8565b606060008311801561267957508242105b156126c1576040517f4c6f636b7570000000000000000000000000000000000000000000000000000060208201526026015b6040516020818303038152906040529050610e51565b82421180156126cf57508142105b15612705576040517f52656c656173696e67000000000000000000000000000000000000000000000060208201526029016126ab565b81421180156127145750600082115b1561274a576040517f456e64000000000000000000000000000000000000000000000000000000000060208201526023016126ab565b6040517f556e6b6e6f77000000000000000000000000000000000000000000000000000060208201526026016117db565b6000808061278d620151808504612f3a565b9196909550909350915050565b6060816127da57505060408051808201909152600181527f3000000000000000000000000000000000000000000000000000000000000000602082015290565b8160005b811561280457806127ee8161510d565b91506127fd9050600a8361507c565b91506127de565b60008167ffffffffffffffff81111561282d57634e487b7160e01b600052604160045260246000fd5b6040519080825280601f01601f191660200182016040528015612857576020820181803683370190505b5090505b8415610bb95761286c6001836150af565b9150612879600a86615128565b61288490603061503c565b60f81b8183815181106128a757634e487b7160e01b600052603260045260246000fd5b60200101907effffffffffffffffffffffffffffffffffffffffffffffffffffffffffffff1916908160001a9053506128e1600a8661507c565b945061285b565b606081610e101415612925576040517f486f7572730000000000000000000000000000000000000000000000000000006020820152602501611ea6565b81620151801415612961576040517f44617973000000000000000000000000000000000000000000000000000000006020820152602401611ea6565b8162093a80141561299d576040517f5765656b730000000000000000000000000000000000000000000000000000006020820152602501611ea6565b8162278d0014156129d9576040517f4d6f6e74687300000000000000000000000000000000000000000000000000006020820152602601611ea6565b816301e133801415612a16576040517f59656172730000000000000000000000000000000000000000000000000000006020820152602501611ea6565b81603c1415612a50576040517f4d696e75746573000000000000000000000000000000000000000000000000006020820152602701611ea6565b8160011415612a8a576040517f5365636f6e6473000000000000000000000000000000000000000000000000006020820152602701611ea6565b6040517f556e6b6e6f7700000000000000000000000000000000000000000000000000006020820152602601611ea6565b919050565b6060604051602001611557907f3c67206d61736b3d2275726c2823666164652d73796d626f6c29223e3c74657881527f742066696c6c3d2277686974652220786d6c3a73706163653d2270726573657260208201527f766522207374796c653d2277686974652d73706163653a207072652220666f6e60408201527f742d66616d696c793d22436f7572696572204e65772220666f6e742d73697a6560608201527f3d22313222206c65747465722d73706163696e673d2230656d223e3c7473706160808201527f6e20783d2233322220793d223338312e313933223e546f74616c3c2f7473706160a08201527f6e3e3c2f746578743e000000000000000000000000000000000000000000000060c082015260c90190565b606081604051602001611ea69190613c5d565b6060604051602001611557907f3c746578742066696c6c3d2277686974652220786d6c3a73706163653d22707281527f65736572766522207374796c653d2277686974652d73706163653a207072652260208201527f20666f6e742d66616d696c793d22436f7572696572204e65772220666f6e742d60408201527f73697a653d22313222206c65747465722d73706163696e673d2230656d223e3c60608201527f747370616e20783d223135342220793d223338312e313933223e53746174653c60808201527f2f747370616e3e3c2f746578743e00000000000000000000000000000000000060a082015260ae0190565b606081604051602001611ea69190614120565b6060604051602001611557907f3c746578742066696c6c3d2277686974652220786d6c3a73706163653d22707281527f65736572766522207374796c653d2277686974652d73706163653a207072652260208201527f20666f6e742d66616d696c793d22436f7572696572204e65772220666f6e742d60408201527f73697a653d22313222206c65747465722d73706163696e673d2230656d223e3c60608201527f747370616e20783d2233322220793d223433332e313933223e436c61696d205360808201527f746172743c2f747370616e3e3c2f746578743e0000000000000000000000000060a082015260b30190565b606081604051602001611ea69190614957565b6060604051602001611557907f3c6720636c69702d706174683d2275726c2823636c6970315f31373331365f3381527f3937303429223e3c746578742066696c6c3d2277686974652220786d6c3a737060208201527f6163653d22707265736572766522207374796c653d2277686974652d7370616360408201527f653a207072652220666f6e742d66616d696c793d22436f7572696572204e657760608201527f2220666f6e742d73697a653d22313222206c65747465722d73706163696e673d60808201527f2230656d223e3c747370616e20783d223135342220793d223433332e3139332260a08201527f3e496e74657276616c3c2f747370616e3e3c2f746578743e000000000000000060c082015260d80190565b606081604051602001611ea69190613a88565b6060610e51826001600160a01b03166014610bc1565b60008080836226496581018262023ab1600483020590506004600362023ab18302010590910390600062164b09610fa0600185010205905060046105b58202058303601f019250600061098f8460500281612fa557634e487b7160e01b600052601260045260246000fd5b0590506000605061098f83020585039050600b82057fffffffffffffffffffffffffffffffffffffffffffffffffffffffffffffffcf94909401606402929092018301996002600c90940290910392909201975095509350505050565b8051612abb8161517e565b600082601f83011261301d578081fd5b815167ffffffffffffffff8082111561303857613038615168565b604051601f8301601f19908116603f0116810190828211818310171561306057613060615168565b81604052838152866020858801011115613078578485fd5b6105b48460208301602089016150c6565b60006060828403121561309a578081fd5b6040516060810181811067ffffffffffffffff821117156130bd576130bd615168565b6040529050806130cc836132ae565b81526130da6020840161328e565b60208201526130eb6040840161328e565b60408201525092915050565b600060808284031215613108578081fd5b6040516080810181811067ffffffffffffffff8211171561312b5761312b615168565b60405290508061313a836132ae565b8152613148602084016132ae565b6020820152613159604084016132ae565b604082015261316a606084016132ae565b60608201525092915050565b600060a08284031215613187578081fd5b60405160a0810167ffffffffffffffff82821081831117156131ab576131ab615168565b8160405282935084519150808211156131c357600080fd5b6131cf8683870161300d565b835260208501519150808211156131e557600080fd5b506131f28582860161300d565b60208301525060408301516132068161517e565b604082015261321760608401613002565b606082015261322860808401613002565b60808201525092915050565b600060408284031215613245578081fd5b6040516040810181811067ffffffffffffffff8211171561326857613268615168565b8060405250809150825161327b8161517e565b8152602092830151920191909152919050565b80516fffffffffffffffffffffffffffffffff81168114612abb57600080fd5b805163ffffffff81168114612abb57600080fd5b6000806000806000806000806101c0898b0312156132de578384fd5b88516132e98161517e565b60208a015190985096506132ff60408a0161328e565b9550606089015194506133158a60808b01613089565b93506133248a60e08b016130f7565b92506133348a6101608b01613234565b91506101a089015167ffffffffffffffff811115613350578182fd5b61335c8b828c01613176565b9150509295985092959890939650565b60006020828403121561337d578081fd5b815167ffffffffffffffff811115613393578182fd5b610bb98482850161300d565b6000602082840312156133b0578081fd5b5051919050565b6000806000606084860312156133cb578081fd5b8351925060208401519150604084015190509250925092565b600080600080608085870312156133f9578182fd5b84359350602085013560ff81168114613410578283fd5b925060408501356134208161517e565b915060608501356134308161517e565b939692955090935050565b6000815161344d8185602086016150c6565b9290920192915050565b600082516134698184602087016150c6565b9190910192915050565b6000895160206134868285838f016150c6565b8a51918401916134998184848f016150c6565b8a519201916134ab8184848e016150c6565b89519201916134bd8184848d016150c6565b88519201916134cf8184848c016150c6565b87519201916134e18184848b016150c6565b86519201916134f38184848a016150c6565b855192019161350581848489016150c6565b919091019b9a5050505050505050505050565b6000865161352a818460208b016150c6565b86519083019061353e818360208b016150c6565b8651910190613551818360208a016150c6565b85519101906135648183602089016150c6565b84519101906135778183602088016150c6565b7f3c2f7376673e00000000000000000000000000000000000000000000000000009101908152600601979650505050505050565b600084516135bd8184602089016150c6565b601760f91b90830190815284516135db8160018401602089016150c6565b84519101906135f18160018401602088016150c6565b0160010195945050505050565b600084516136108184602089016150c6565b601760f91b908301908152845161362e8160018401602089016150c6565b84519101906136448160018401602088016150c6565b7f42000000000000000000000000000000000000000000000000000000000000006001929091019182015260020195945050505050565b6000845161368d8184602089016150c6565b601760f91b90830190815284516136ab8160018401602089016150c6565b84519101906136c18160018401602088016150c6565b7f4d000000000000000000000000000000000000000000000000000000000000006001929091019182015260020195945050505050565b6000845161370a8184602089016150c6565b601760f91b90830190815284516137288160018401602089016150c6565b845191019061373e8160018401602088016150c6565b7f54000000000000000000000000000000000000000000000000000000000000006001929091019182015260020195945050505050565b600084516137878184602089016150c6565b601760f91b90830190815284516137a58160018401602089016150c6565b84519101906137bb8160018401602088016150c6565b7f4b000000000000000000000000000000000000000000000000000000000000006001929091019182015260020195945050505050565b600082516138048184602087016150c6565b7f2056657374696e67000000000000000000000000000000000000000000000000920191825250600801919050565b600083516138458184602088016150c6565b7f20e280a220000000000000000000000000000000000000000000000000000000908301908152835161387f8160058401602088016150c6565b01600501949350505050565b6000845161389d8184602089016150c6565b80830190507f2f0000000000000000000000000000000000000000000000000000000000000080825285516138d9816001850160208a016150c6565b600192019182015283516138f48160028401602088016150c6565b0160020195945050505050565b7f7b226e616d65223a220000000000000000000000000000000000000000000000815260008651613939816009850160208b016150c6565b7f222c20226465736372697074696f6e223a220000000000000000000000000000600991840191820152865161397681601b840160208b016150c6565b7f5c6e50726f706f73616c206c696e6b3a20000000000000000000000000000000601b929091019182015285516139b481602c840160208a016150c6565b7f222c202261747472696275746573223a20000000000000000000000000000000602c929091019182015284516139f281603d8401602089016150c6565b7f2c2022696d616765223a20220000000000000000000000000000000000000000603d92909101918201527f646174613a696d6167652f7376672b786d6c3b6261736536342c0000000000006049820152613a7c613a53606383018661343b565b7f227d000000000000000000000000000000000000000000000000000000000000815260020190565b98975050505050505050565b7f3c746578742066696c6c3d22233933373446462220786d6c3a73706163653d2281527f707265736572766522207374796c653d2277686974652d73706163653a20707260208201527f652220666f6e742d66616d696c793d22436f7572696572204e65772220666f6e60408201527f742d73697a653d22313222206c65747465722d73706163696e673d2230656d2260608201527f3e3c747370616e20783d223135342220793d223435312e313933223e00000000608082015260008251613b5881609c8501602087016150c6565b7f3c2f747370616e3e3c2f746578743e3c2f673e3c2f673e000000000000000000609c93909101928301525060b301919050565b7f68747470733a2f2f67726170682e70686f656e69782e66692f76656e7475726581527f64616f732f666c65782f00000000000000000000000000000000000000000000602082015260008351613bea81602a8501602088016150c6565b7f2f70726f706f73616c732f000000000000000000000000000000000000000000602a918401918201528351613c278160358401602088016150c6565b7f2f696e766573746d656e7400000000000000000000000000000000000000000060359290910191820152604001949350505050565b7f3c746578742066696c6c3d22233933373446462220786d6c3a73706163653d2281527f707265736572766522207374796c653d2277686974652d73706163653a20707260208201527f652220666f6e742d66616d696c793d22436f7572696572204e65772220666f6e60408201527f742d73697a653d22313222206c65747465722d73706163696e673d2230656d2260608201527f3e3c747370616e20783d2233322220793d223339392e313933223e0000000000608082015260008251613d2d81609b8501602087016150c6565b7f3c2f747370616e3e3c2f746578743e0000000000000000000000000000000000609b93909101928301525060aa01919050565b7f5b00000000000000000000000000000000000000000000000000000000000000815260008451613d998160018501602089016150c6565b845190830190613db08160018401602089016150c6565b8451910190613dc68160018401602088016150c6565b7f5d000000000000000000000000000000000000000000000000000000000000006001929091019182015260020195945050505050565b607b60f81b81527f2274726169745f74797065223a2256657374696e6720546f6b656e2053796d6260018201527f6f6c222c2276616c7565223a2200000000000000000000000000000000000000602182015260008351613e6581602e8501602088016150c6565b63227d2c7b60e01b602e918401918201527f2274726169745f74797065223a2256657374696e6720546f6b656e20436f6e7460328201527f72616374222c2276616c7565223a22000000000000000000000000000000000060528201528351613ed58160618401602088016150c6565b7f227d2c000000000000000000000000000000000000000000000000000000000060619290910191820152606401949350505050565b607b60f81b81527f2274726169745f74797065223a225374617465222c2276616c7565223a220000600182015260008351613f4d81601f8501602088016150c6565b63227d2c7b60e01b601f918401918201527f2274726169745f74797065223a22496e74657276616c222c2276616c7565223a60238201527f220000000000000000000000000000000000000000000000000000000000000060438201528351613fbd8160448401602088016150c6565b7f227d00000000000000000000000000000000000000000000000000000000000060449290910191820152604601949350505050565b607b60f81b81527f2274726169745f74797065223a2252656d61696e696e67222c2276616c75652260018201527f3a2200000000000000000000000000000000000000000000000000000000000060218201526000835161405b8160238501602088016150c6565b63227d2c7b60e01b6023918401918201527f2274726169745f74797065223a22546f74616c222c2276616c7565223a220000602782015283516140a58160458401602088016150c6565b7f227d2c000000000000000000000000000000000000000000000000000000000060459290910191820152604801949350505050565b7f24000000000000000000000000000000000000000000000000000000000000008152600082516141138160018501602087016150c6565b9190910160010192915050565b7f3c746578742066696c6c3d22233933373446462220786d6c3a73706163653d2281527f707265736572766522207374796c653d2277686974652d73706163653a20707260208201527f652220666f6e742d66616d696c793d22436f7572696572204e65772220666f6e60408201527f742d73697a653d22313222206c65747465722d73706163696e673d2230656d2260608201527f3e3c747370616e20783d223135342220793d223339392e313933223e000000006080820152600082516141f081609c8501602087016150c6565b7f3c2f747370616e3e3c2f746578743e0000000000000000000000000000000000609c93909101928301525060ab01919050565b7f3c74657874506174682073746172744f66667365743d22353025222066696c6c81527f3d2277686974652220666f6e742d66616d696c793d2227436f7572696572204e60208201527f6577272c206d6f6e6f73706163652220666f6e742d73697a653d22313070782260408201527f20786c696e6b3a687265663d2223746578742d706174682d61223e00000000006060820152600083516142ce81607b8501602088016150c6565b614398607b828501017f3c616e696d6174652061646469746976653d2273756d2220617474726962757481527f654e616d653d2273746172744f6666736574222066726f6d3d2230252220746f60208201527f3d22313030252220626567696e3d22307322206475723d22333073222072657060408201527f656174436f756e743d22696e646566696e69746522202f3e3c2f74657874506160608201527f74683e0000000000000000000000000000000000000000000000000000000000608082015260830190565b90507f3c74657874506174682073746172744f66667365743d222d353025222066696c81527f6c3d2277686974652220666f6e742d66616d696c793d2227436f75726965722060208201527f4e6577272c206d6f6e6f73706163652220666f6e742d73697a653d223130707860408201527f2220786c696e6b3a687265663d2223746578742d706174682d61223e000000006060820152835161444281607c8401602088016150c6565b6105b4607c828401017f3c616e696d6174652061646469746976653d2273756d2220617474726962757481527f654e616d653d2273746172744f6666736574222066726f6d3d2230252220746f60208201527f3d22313030252220626567696e3d22307322206475723d22333073222072657060408201527f656174436f756e743d22696e646566696e69746522202f3e3c2f74657874506160608201527f74683e0000000000000000000000000000000000000000000000000000000000608082015260830190565b7f646174613a6170706c69636174696f6e2f6a736f6e3b6261736536342c00000081526000825161454481601d8501602087016150c6565b91909101601d0192915050565b7f3c67206d61736b3d2275726c2823666164652d73796d626f6c29223e00000000815260007f3c746578742066696c6c3d2277686974652220786d6c3a73706163653d22707280601c8401527f65736572766522207374796c653d2277686974652d73706163653a207072652280603c8501527f20666f6e742d66616d696c793d2227436f7572696572204e6577272220666f6e80605c8601527f742d73697a653d2233362220666f6e742d7765696768743d22373022206c6574607c8601527f7465722d73706163696e673d2230656d223e3c747370616e20783d2233322220609c8601527f793d2236342e30383031223e000000000000000000000000000000000000000060bc86015286516146708160c8880160208b016150c6565b80860190507f3c2f747370616e3e3c2f746578743e000000000000000000000000000000000060c88201528360d78201528260f7820152816101178201527f742d73697a653d2231362220666f6e742d7765696768743d22323022206c65746101378201527f7465722d73706163696e673d2230656d223e3c747370616e20783d22313239226101578201527f20793d2235382e37353738223e3c2f747370616e3e3c2f746578743e00000000610177820152613a7c61484a61482161481b61019385017f3c746578742066696c6c3d22233933373446462220786d6c3a73706163653d2281527f707265736572766522207374796c653d2277686974652d73706163653a20707260208201527f652220666f6e742d66616d696c793d2227436f7572696572204e65772722206660408201527f6f6e742d73697a653d2233362220666f6e742d7765696768743d22333022206c60608201527f65747465722d73706163696e673d2230656d223e3c747370616e20783d22333260808201527f2220793d223130392e3038223e0000000000000000000000000000000000000060a082015260ad0190565b8a61343b565b7f3c2f747370616e3e3c2f746578743e00000000000000000000000000000000008152600f0190565b7f3c746578742066696c6c3d2277686974652220786d6c3a73706163653d22707281527f65736572766522207374796c653d2277686974652d73706163653a207072652260208201527f20666f6e742d66616d696c793d2227436f7572696572204e6577272220666f6e60408201527f742d73697a653d2231362220666f6e742d7765696768743d22323022206c657460608201527f7465722d73706163696e673d2230656d223e3c747370616e20783d223332222060808201527f793d223133392e3038223e52656d61696e696e6720546f20426520436c61696d60a08201527f65643c2f747370616e3e3c2f746578743e3c2f673e000000000000000000000060c082015260d50190565b7f3c746578742066696c6c3d22233933373446462220786d6c3a73706163653d2281527f707265736572766522207374796c653d2277686974652d73706163653a20707260208201527f652220666f6e742d66616d696c793d22436f7572696572204e65772220666f6e60408201527f742d73697a653d22313222206c65747465722d73706163696e673d2230656d2260608201527f3e3c747370616e20783d2233322220793d223435312e313933223e0000000000608082015260008251613d2d81609b8501602087016150c6565b7f3c7465787420746578742d72656e646572696e673d226f7074696d697a65537081527f656564223e000000000000000000000000000000000000000000000000000000602082015260008351614a858160258501602088016150c6565b835190830190614a9c8160258401602088016150c6565b7f3c2f746578743e0000000000000000000000000000000000000000000000000060259290910191820152602c01949350505050565b7f3c6c696e6561724772616469656e742069643d227061696e74335f6c696e656181527f725f31373331365f3339373034222078313d223635222079313d22313838222060208201527f78323d223135382e333939222079323d223237332e313634222067726164696560408201527f6e74556e6974733d227573657253706163654f6e557365223e3c73746f70207360608201527f746f702d636f6c6f723d2223393337344646222073746f702d6f70616369747960808201527f3d22302e33222f3e3c73746f70206f66667365743d2231222073746f702d636f60a08201527f6c6f723d2223393337344646222073746f702d6f7061636974793d2230222f3e60c08201527f3c2f6c696e6561724772616469656e743e00000000000000000000000000000060e08201527f3c7265637420783d2231362220793d223136222077696474683d22323538222060f18201527f6865696768743d22343638222072783d223236222072793d223236222066696c6101118201527f6c3d227267626128302c302c302c302922207374726f6b653d227267626128326101318201527f35352c3235352c3235352c302e3229222f3e00000000000000000000000000006101518201527f3c6d61736b2069643d22706174682d31342d696e736964652d315f31373331366101638201527f5f3339373034222066696c6c3d227768697465223e3c7061746820643d224d366101838201527f35203138384832323556333136483635563138385a222f3e3c2f6d61736b3e006101a38201527f3c7061746820643d224d3635203138384832323556333136483635563138385a6101c28201527f222066696c6c3d2275726c28237061696e74335f6c696e6561725f31373331366101e28201527f5f333937303429222f3e000000000000000000000000000000000000000000006102028201527f3c7061746820643d224d36352031383856313837483634563138384836355a4d61020c8201527f3635203138394832323556313837483635563138395a4d36362033313656313861022c8201527f38483634563331364836365a222066696c6c3d222339333734464622206d617361024c8201527f6b3d2275726c2823706174682d31342d696e736964652d315f31373331365f3361026c8201527f3937303429222f3e00000000000000000000000000000000000000000000000061028c8201527f3c7061746820643d224d3932203139324339342e3230393120313932203936206102948201527f3139302e32303920393620313838433936203138352e3739312039342e3230396102b48201527f3120313834203932203138344338392e3739303920313834203838203138352e6102d48201527f37393120383820313838433838203139302e3230392038392e373930392031396102f48201527f32203932203139325a222066696c6c3d2223393337344646222f3e0000000000610314820152600061032f8201610e51565b7f3c7376672077696474683d2232393022206865696768743d223530302220766981527f6577426f783d2230203020323930203530302220786d6c6e733d22687474703a60208201527f2f2f7777772e77332e6f72672f323030302f7376672220786d6c6e733a786c6960408201527f6e6b3d22687474703a2f2f7777772e77332e6f72672f313939392f786c696e6b60608201527f223e000000000000000000000000000000000000000000000000000000000000608082015260008351614fe68160828501602088016150c6565b835190830190614ffd8160828401602088016150c6565b01608201949350505050565b60208152600082518060208401526150288160408501602087016150c6565b601f01601f19169190910160400192915050565b6000821982111561504f5761504f61513c565b500190565b600063ffffffff8083168185168083038211156150735761507361513c565b01949350505050565b60008261508b5761508b615152565b500490565b60008160001904831182151516156150aa576150aa61513c565b500290565b6000828210156150c1576150c161513c565b500390565b60005b838110156150e15781810151838201526020016150c9565b838111156150f0576000848401525b50505050565b6000816151055761510561513c565b506000190190565b60006000198214156151215761512161513c565b5060010190565b60008261513757615137615152565b500690565b634e487b7160e01b600052601160045260246000fd5b634e487b7160e01b600052601260045260246000fd5b634e487b7160e01b600052604160045260246000fd5b6001600160a01b038116811461519357600080fd5b5056fe4142434445464748494a4b4c4d4e4f505152535455565758595a6162636465666768696a6b6c6d6e6f707172737475767778797a303132333435363738392b2fa26469706673582212205040d1ec453f1d7aa73331a7b170bdec5b0ab2137a5ca1e46b20594890c0414f64736f6c63430008040033",
  "linkReferences": {},
  "deployedLinkReferences": {}
}