{
  "_format": "hh-sol-artifact-1",
  "contractName": "VintageDaoSetHelperAdapterContract",
  "sourceName": "contracts/vintage/adapters/VintageDaoSetHelperAdapter.sol",
  "abi": [
    {
      "inputs": [
        {
          "internalType": "contract DaoRegistry",
          "name": "dao",
          "type": "address"
        },
        {
          "internalType": "bool",
          "name": "enable",
          "type": "bool"
        },
        {
          "internalType": "string",
          "name": "name",
          "type": "string"
        },
        {
          "internalType": "uint256",
          "name": "varifyType",
          "type": "uint256"
        },
        {
          "internalType": "uint256",
          "name": "minAmount",
          "type": "uint256"
        },
        {
          "internalType": "uint256",
          "name": "tokenId",
          "type": "uint256"
        },
        {
          "internalType": "address",
          "name": "tokenAddress",
          "type": "address"
        },
        {
          "internalType": "address[]",
          "name": "whitelist",
          "type": "address[]"
        }
      ],
      "name": "setGovernorMembership",
      "outputs": [],
      "stateMutability": "nonpayable",
      "type": "function"
    },
    {
      "inputs": [
        {
          "internalType": "contract DaoRegistry",
          "name": "dao",
          "type": "address"
        },
        {
          "internalType": "bool",
          "name": "enable",
          "type": "bool"
        },
        {
          "internalType": "uint256",
          "name": "cap",
          "type": "uint256"
        }
      ],
      "name": "setInvestorCap",
      "outputs": [],
      "stateMutability": "nonpayable",
      "type": "function"
    },
    {
      "inputs": [
        {
          "internalType": "contract DaoRegistry",
          "name": "dao",
          "type": "address"
        },
        {
          "internalType": "bool",
          "name": "enable",
          "type": "bool"
        },
        {
          "internalType": "string",
          "name": "name",
          "type": "string"
        },
        {
          "internalType": "uint256",
          "name": "varifyType",
          "type": "uint256"
        },
        {
          "internalType": "uint256",
          "name": "minAmount",
          "type": "uint256"
        },
        {
          "internalType": "uint256",
          "name": "tokenId",
          "type": "uint256"
        },
        {
          "internalType": "address",
          "name": "tokenAddress",
          "type": "address"
        },
        {
          "internalType": "address[]",
          "name": "whitelist",
          "type": "address[]"
        }
      ],
      "name": "setInvestorMembership",
      "outputs": [],
      "stateMutability": "nonpayable",
      "type": "function"
    },
    {
      "inputs": [
        {
          "internalType": "contract DaoRegistry",
          "name": "dao",
          "type": "address"
        },
        {
          "internalType": "uint256[9]",
          "name": "uint256Params",
          "type": "uint256[9]"
        },
        {
          "internalType": "address",
          "name": "tokenAddress",
          "type": "address"
        },
        {
          "internalType": "uint256[]",
          "name": "allocs",
          "type": "uint256[]"
        },
        {
          "internalType": "address[]",
          "name": "governors",
          "type": "address[]"
        }
      ],
      "name": "setVoting",
      "outputs": [],
      "stateMutability": "nonpayable",
      "type": "function"
    }
  ],
  "bytecode": "0x608060405234801561001057600080fd5b50611ae0806100206000396000f3fe608060405234801561001057600080fd5b506004361061004c5760003560e01c80637249b22f1461005157806373cf624f146100665780638217b1aa146100795780638faeecd11461008c575b600080fd5b61006461005f3660046119d5565b61009f565b005b6100646100743660046118eb565b6102c8565b6100646100873660046118eb565b610916565b61006461009a366004611840565b610fd2565b6040516317ba7d8560e01b81527f77cdf6056467142a33aa6f753fc1e3907f6850ebf08c7b63b107b0611a69b04e600482015283906001600160a01b038216906317ba7d859060240160206040518083038186803b15801561010057600080fd5b505afa158015610114573d6000803e3d6000fd5b505050506040513d601f19601f820116820180604052508101906101389190611824565b6001600160a01b0316336001600160a01b03161461018d5760405162461bcd60e51b815260206004820152600d60248201526c1058d8d95cdcc811195b9a5959609a1b60448201526064015b60405180910390fd5b6001600160a01b03841663da0f6c707f69f4ffb3ebcb7809550bddd3e4d449a47e737bf6635bc7a730996643997b0e486001861515146101ce5760006101d1565b60015b6040517fffffffff0000000000000000000000000000000000000000000000000000000060e085901b168152600481019290925260ff166024820152604401600060405180830381600087803b15801561022a57600080fd5b505af115801561023e573d6000803e3d6000fd5b5050604051630da0f6c760e41b81527fecbde689cc6337d29a750b8b8a8abbfa97427b4ac800ab55be2f2c87311510f26004820152602481018590526001600160a01b038716925063da0f6c709150604401600060405180830381600087803b1580156102aa57600080fd5b505af11580156102be573d6000803e3d6000fd5b5050505050505050565b6040516317ba7d8560e01b81527f77cdf6056467142a33aa6f753fc1e3907f6850ebf08c7b63b107b0611a69b04e60048201528a906001600160a01b038216906317ba7d859060240160206040518083038186803b15801561032957600080fd5b505afa15801561033d573d6000803e3d6000fd5b505050506040513d601f19601f820116820180604052508101906103619190611824565b6001600160a01b0316336001600160a01b0316146103b15760405162461bcd60e51b815260206004820152600d60248201526c1058d8d95cdcc811195b9a5959609a1b6044820152606401610184565b6001600160a01b038b1663da0f6c707f1405d0156cf64c805704fdf6691baebfcfa0d409ea827c231693ff0581b0b77760018d1515146103f25760006103f5565b60015b6040517fffffffff0000000000000000000000000000000000000000000000000000000060e085901b168152600481019290925260ff166024820152604401600060405180830381600087803b15801561044e57600080fd5b505af1158015610462573d6000803e3d6000fd5b505050508915610909576040517ff958b7100000000000000000000000000000000000000000000000000000000081526001600160a01b038c169063f958b710906104d5907f324dfda0ffcc38c4650b5df076e6f7b4938c2b723873af58b1be5e221dd2cc30908d908d90600401611a12565b600060405180830381600087803b1580156104ef57600080fd5b505af1158015610503573d6000803e3d6000fd5b5050604051630da0f6c760e41b81527f80140cd7e0b1d935bee578a67a41547c82987de8e7d6b3827d411b738110258b6004820152602481018a90526001600160a01b038e16925063da0f6c709150604401600060405180830381600087803b15801561056f57600080fd5b505af1158015610583573d6000803e3d6000fd5b5050604051630da0f6c760e41b81527f04ecaf460eb9f82aeb70035e3f24c18a3650fa0da9ddbe7e63d70de659b9b9016004820152602481018990526001600160a01b038e16925063da0f6c709150604401600060405180830381600087803b1580156105ef57600080fd5b505af1158015610603573d6000803e3d6000fd5b5050604051631da7c90d60e11b81527fe373ab56628c86db3f0e36774c2c5e0393f9272ff5c976bc3f0db2db60cdbc1460048201526001600160a01b0387811660248301528e169250633b4f921a9150604401600060405180830381600087803b15801561067057600080fd5b505af1158015610684573d6000803e3d6000fd5b5050604051630da0f6c760e41b81527f6cb5bc3796b0717ca4ff665886c96fb0178d6341366eb7b6c737fe79083b836a6004820152602481018890526001600160a01b038e16925063da0f6c709150604401600060405180830381600087803b1580156106f057600080fd5b505af1158015610704573d6000803e3d6000fd5b508492505081159050610907576040516317ba7d8560e01b81527faaff643bdbd909f604d46ce015336f7e20fee3ac4a55cef3610188dee176c89260048201526000906001600160a01b038e16906317ba7d859060240160206040518083038186803b15801561077357600080fd5b505afa158015610787573d6000803e3d6000fd5b505050506040513d601f19601f820116820180604052508101906107ab9190611824565b6040517fff8bb0d00000000000000000000000000000000000000000000000000000000081526001600160a01b038f811660048301529192509082169063ff8bb0d090602401600060405180830381600087803b15801561080b57600080fd5b505af115801561081f573d6000803e3d6000fd5b5050505060005b828160ff16101561090457816001600160a01b031663ac7e7eba8f88888560ff1681811061086457634e487b7160e01b600052603260045260246000fd5b90506020020160208101906108799190611801565b6040517fffffffff0000000000000000000000000000000000000000000000000000000060e085901b1681526001600160a01b03928316600482015291166024820152604401600060405180830381600087803b1580156108d957600080fd5b505af11580156108ed573d6000803e3d6000fd5b5050505080806108fc90611a66565b915050610826565b50505b505b5050505050505050505050565b6040516317ba7d8560e01b81527f77cdf6056467142a33aa6f753fc1e3907f6850ebf08c7b63b107b0611a69b04e60048201528a906001600160a01b038216906317ba7d859060240160206040518083038186803b15801561097757600080fd5b505afa15801561098b573d6000803e3d6000fd5b505050506040513d601f19601f820116820180604052508101906109af9190611824565b6001600160a01b0316336001600160a01b0316146109ff5760405162461bcd60e51b815260206004820152600d60248201526c1058d8d95cdcc811195b9a5959609a1b6044820152606401610184565b6001600160a01b038b1663da0f6c707f5b7b19076468102b84afbef323d128866c396a716ce4ce29f84beef8d266f3af60018d151514610a40576000610a43565b60015b6040517fffffffff0000000000000000000000000000000000000000000000000000000060e085901b168152600481019290925260ff166024820152604401600060405180830381600087803b158015610a9c57600080fd5b505af1158015610ab0573d6000803e3d6000fd5b505050508915610909576040517ff958b7100000000000000000000000000000000000000000000000000000000081526001600160a01b038c169063f958b71090610b23907fa4b6f581a2d1e8b24bacedf9a91a13c8df6147ffb9d2bd4a770d867d91018da6908d908d90600401611a12565b600060405180830381600087803b158015610b3d57600080fd5b505af1158015610b51573d6000803e3d6000fd5b5050604051630da0f6c760e41b81527f23f0530138a805a7a3c83e0d6298d353102473dc25666f75173de90ac5414c826004820152602481018a90526001600160a01b038e16925063da0f6c709150604401600060405180830381600087803b158015610bbd57600080fd5b505af1158015610bd1573d6000803e3d6000fd5b5050604051630da0f6c760e41b81527f4481bb4c8bc94e65f81ab5591f704165aab99eb4197df7acf672022476933f586004820152602481018990526001600160a01b038e16925063da0f6c709150604401600060405180830381600087803b158015610c3d57600080fd5b505af1158015610c51573d6000803e3d6000fd5b5050604051631da7c90d60e11b81527faa2cc36fff47c5c104b89a4abef628c92272c0af9c4db27739bc445b2f51e9a260048201526001600160a01b0387811660248301528e169250633b4f921a9150604401600060405180830381600087803b158015610cbe57600080fd5b505af1158015610cd2573d6000803e3d6000fd5b5050604051630da0f6c760e41b81527fe33a9c3c87c85b9efd09c180b8fd30ca34326eb72e20fdd832b510971ccf71ae6004820152602481018890526001600160a01b038e16925063da0f6c709150604401600060405180830381600087803b158015610d3e57600080fd5b505af1158015610d52573d6000803e3d6000fd5b5050604051630da0f6c760e41b81527f38cbcea6ba035c1d1890c83ce99918342ef746d839f9c2e2d4966d30a7e70b346004820152602481018990526001600160a01b038e16925063da0f6c709150604401600060405180830381600087803b158015610dbe57600080fd5b505af1158015610dd2573d6000803e3d6000fd5b508492505081159050610907576040516317ba7d8560e01b81527fd90e10040720d66c9412cb511e3dbb6ba51669248a7495e763d44ab426893efa60048201526000906001600160a01b038e16906317ba7d859060240160206040518083038186803b158015610e4157600080fd5b505afa158015610e55573d6000803e3d6000fd5b505050506040513d601f19601f82011682018060405250810190610e799190611824565b6040517f22c5c2cc0000000000000000000000000000000000000000000000000000000081526001600160a01b038f81166004830152919250908216906322c5c2cc90602401600060405180830381600087803b158015610ed957600080fd5b505af1158015610eed573d6000803e3d6000fd5b5050505060005b828160ff16101561090457816001600160a01b03166333f7bc0c8f88888560ff16818110610f3257634e487b7160e01b600052603260045260246000fd5b9050602002016020810190610f479190611801565b6040517fffffffff0000000000000000000000000000000000000000000000000000000060e085901b1681526001600160a01b03928316600482015291166024820152604401600060405180830381600087803b158015610fa757600080fd5b505af1158015610fbb573d6000803e3d6000fd5b505050508080610fca90611a66565b915050610ef4565b6040516317ba7d8560e01b81527f77cdf6056467142a33aa6f753fc1e3907f6850ebf08c7b63b107b0611a69b04e600482015287906001600160a01b038216906317ba7d859060240160206040518083038186803b15801561103357600080fd5b505afa158015611047573d6000803e3d6000fd5b505050506040513d601f19601f8201168201806040525081019061106b9190611824565b6001600160a01b0316336001600160a01b0316146110bb5760405162461bcd60e51b815260206004820152600d60248201526c1058d8d95cdcc811195b9a5959609a1b6044820152606401610184565b604051630da0f6c760e41b81527f686efe7bd1699b408d306db6bbee658ed667971c52d48d6912d7ee496e36e6276004820152873560248201526001600160a01b0389169063da0f6c7090604401600060405180830381600087803b15801561112357600080fd5b505af1158015611137573d6000803e3d6000fd5b5050604051631da7c90d60e11b81527fcd9b30ab6388c165d825b60b7d393528191ba59d975b4b1b52b7184b63b8a97c60048201526001600160a01b0389811660248301528b169250633b4f921a9150604401600060405180830381600087803b1580156111a457600080fd5b505af11580156111b8573d6000803e3d6000fd5b5050604051630da0f6c760e41b81527e634460a4b60c2e1bf8c87bfc42b6b68fd2a71f4bb2d760816eabc5038b5036600482015260208a013560248201526001600160a01b038b16925063da0f6c709150604401600060405180830381600087803b15801561122657600080fd5b505af115801561123a573d6000803e3d6000fd5b505060408051630da0f6c760e41b81527fb75eae231d9582c6afc6491273df4a0ffbccd48ab2c48dbce59e5d68f2d19dc46004820152908a013560248201526001600160a01b038b16925063da0f6c709150604401600060405180830381600087803b1580156112a957600080fd5b505af11580156112bd573d6000803e3d6000fd5b5050604051630da0f6c760e41b81527f561bc86bc227a0f760218574791a84f180f6f9f02be9519a1f99c14fce07a310600482015260608a013560248201526001600160a01b038b16925063da0f6c709150604401600060405180830381600087803b15801561132c57600080fd5b505af1158015611340573d6000803e3d6000fd5b5050604051630da0f6c760e41b81527f8097540b5ab8a4c18e0b10cfbfd2c69e65e8da78f4f0485467006bafa3935964600482015260808a013560248201526001600160a01b038b16925063da0f6c709150604401600060405180830381600087803b1580156113af57600080fd5b505af11580156113c3573d6000803e3d6000fd5b5050604051630da0f6c760e41b81527f0324de13a5a6e302ddb95a9fdf81cc736fc8acee2abe558970daac27395904e7600482015260a08a013560248201526001600160a01b038b16925063da0f6c709150604401600060405180830381600087803b15801561143257600080fd5b505af1158015611446573d6000803e3d6000fd5b5050604051630da0f6c760e41b81527fb4c601c38beae7eebb719eda3438f59fcbfd4c6dd7d38c00665b6fd5b432df32600482015260c08a013560248201526001600160a01b038b16925063da0f6c709150604401600060405180830381600087803b1580156114b557600080fd5b505af11580156114c9573d6000803e3d6000fd5b5050604051630da0f6c760e41b81527f9876c0f0505bfb2b1c38d3bbd25ba13159172cd0868972d76927723f5a9480fc600482015260e08a013560248201526001600160a01b038b16925063da0f6c709150604401600060405180830381600087803b15801561153857600080fd5b505af115801561154c573d6000803e3d6000fd5b5050604051630da0f6c760e41b81527f02a3530cbb6e7c084516c86f68bd62c3e3fcd783c6c5d7e138616207f7a3225060048201526101008a013560248201526001600160a01b038b16925063da0f6c709150604401600060405180830381600087803b1580156115bc57600080fd5b505af11580156115d0573d6000803e3d6000fd5b50849250508115905061178c576040516317ba7d8560e01b81527f1fa6846b165d822fff79e37c67625706652fa9380c2aa49fd513ce534cc72ed460048201526000906001600160a01b038b16906317ba7d859060240160206040518083038186803b15801561163f57600080fd5b505afa158015611653573d6000803e3d6000fd5b505050506040513d601f19601f820116820180604052508101906116779190611824565b905060005b828160ff16101561090957816001600160a01b0316635f15b1d98c88888560ff168181106116ba57634e487b7160e01b600052603260045260246000fd5b90506020020160208101906116cf9190611801565b8b8b8660ff168181106116f257634e487b7160e01b600052603260045260246000fd5b6040517fffffffff0000000000000000000000000000000000000000000000000000000060e088901b1681526001600160a01b03958616600482015294909316602485015250602090910201356044820152606401600060405180830381600087803b15801561176157600080fd5b505af1158015611775573d6000803e3d6000fd5b50505050808061178490611a66565b91505061167c565b505050505050505050565b80356117a281611a92565b919050565b60008083601f8401126117b8578182fd5b50813567ffffffffffffffff8111156117cf578182fd5b6020830191508360208260051b85010111156117ea57600080fd5b9250929050565b803580151581146117a257600080fd5b600060208284031215611812578081fd5b813561181d81611a92565b9392505050565b600060208284031215611835578081fd5b815161181d81611a92565b60008060008060008060006101a0888a03121561185b578283fd5b873561186681611a92565b9650610140880189811115611879578384fd5b6020890196503561188981611a92565b945061016088013567ffffffffffffffff808211156118a6578485fd5b6118b28b838c016117a7565b90965094506101808a01359150808211156118cb578384fd5b506118d88a828b016117a7565b989b979a50959850939692959293505050565b6000806000806000806000806000806101008b8d03121561190a578283fd5b8a3561191581611a92565b995061192360208c016117f1565b985060408b013567ffffffffffffffff8082111561193f578485fd5b818d0191508d601f830112611952578485fd5b813581811115611960578586fd5b8e6020828501011115611971578586fd5b602083019a50985060608d0135975060808d0135965060a08d0135955061199a60c08e01611797565b945060e08d01359150808211156119af578384fd5b506119bc8d828e016117a7565b915080935050809150509295989b9194979a5092959850565b6000806000606084860312156119e9578283fd5b83356119f481611a92565b9250611a02602085016117f1565b9150604084013590509250925092565b83815260406020820152816040820152818360608301376000818301606090810191909152601f9092017fffffffffffffffffffffffffffffffffffffffffffffffffffffffffffffffe016010192915050565b600060ff821660ff811415611a8957634e487b7160e01b82526011600452602482fd5b60010192915050565b6001600160a01b0381168114611aa757600080fd5b5056fea26469706673582212208608b89173563038f7730f4b25cf7924227080a13559150e0497972ccaf2885064736f6c63430008040033",
  "linkReferences": {},
  "deployedLinkReferences": {}
}