{
  "_format": "hh-sol-artifact-1",
  "contractName": "VintageRaiserManagementContract",
  "sourceName": "contracts/vintage/adapters/VintageRaiserManagement.sol",
  "abi": [
    {
      "anonymous": false,
      "inputs": [
        {
          "indexed": false,
          "internalType": "address",
          "name": "daoAddr",
          "type": "address"
        },
        {
          "indexed": false,
          "internalType": "bytes32",
          "name": "proposalId",
          "type": "bytes32"
        },
        {
          "indexed": false,
          "internalType": "address",
          "name": "account",
          "type": "address"
        },
        {
          "indexed": false,
          "internalType": "uint256",
          "name": "creationTime",
          "type": "uint256"
        },
        {
          "indexed": false,
          "internalType": "uint256",
          "name": "stopVoteTime",
          "type": "uint256"
        },
        {
          "indexed": false,
          "internalType": "enum VintageRaiserManagementContract.ProposalType",
          "name": "pType",
          "type": "uint8"
        }
      ],
      "name": "ProposalCreated",
      "type": "event"
    },
    {
      "anonymous": false,
      "inputs": [
        {
          "indexed": false,
          "internalType": "address",
          "name": "daoAddr",
          "type": "address"
        },
        {
          "indexed": false,
          "internalType": "bytes32",
          "name": "proposalId",
          "type": "bytes32"
        },
        {
          "indexed": false,
          "internalType": "enum VintageRaiserManagementContract.ProposalState",
          "name": "state",
          "type": "uint8"
        },
        {
          "indexed": false,
          "internalType": "uint256",
          "name": "voteResult",
          "type": "uint256"
        },
        {
          "indexed": false,
          "internalType": "uint128",
          "name": "allVotingWeight",
          "type": "uint128"
        },
        {
          "indexed": false,
          "internalType": "uint128",
          "name": "nbYes",
          "type": "uint128"
        },
        {
          "indexed": false,
          "internalType": "uint128",
          "name": "nbNo",
          "type": "uint128"
        }
      ],
      "name": "ProposalProcessed",
      "type": "event"
    },
    {
      "inputs": [
        {
          "internalType": "contract DaoRegistry",
          "name": "dao",
          "type": "address"
        }
      ],
      "name": "clearGovernorWhitelist",
      "outputs": [],
      "stateMutability": "nonpayable",
      "type": "function"
    },
    {
      "inputs": [
        {
          "internalType": "contract DaoRegistry",
          "name": "dao",
          "type": "address"
        }
      ],
      "name": "getAllGovernor",
      "outputs": [
        {
          "internalType": "address[]",
          "name": "",
          "type": "address[]"
        }
      ],
      "stateMutability": "view",
      "type": "function"
    },
    {
      "inputs": [
        {
          "internalType": "contract DaoRegistry",
          "name": "dao",
          "type": "address"
        }
      ],
      "name": "getGovernorAmount",
      "outputs": [
        {
          "internalType": "uint256",
          "name": "",
          "type": "uint256"
        }
      ],
      "stateMutability": "view",
      "type": "function"
    },
    {
      "inputs": [
        {
          "internalType": "contract DaoRegistry",
          "name": "dao",
          "type": "address"
        }
      ],
      "name": "getGovernorWhitelist",
      "outputs": [
        {
          "internalType": "address[]",
          "name": "",
          "type": "address[]"
        }
      ],
      "stateMutability": "view",
      "type": "function"
    },
    {
      "inputs": [
        {
          "internalType": "contract DaoRegistry",
          "name": "dao",
          "type": "address"
        },
        {
          "internalType": "address",
          "name": "_addr",
          "type": "address"
        }
      ],
      "name": "isActiveMember",
      "outputs": [
        {
          "internalType": "bool",
          "name": "",
          "type": "bool"
        }
      ],
      "stateMutability": "view",
      "type": "function"
    },
    {
      "inputs": [
        {
          "internalType": "contract DaoRegistry",
          "name": "dao",
          "type": "address"
        },
        {
          "internalType": "address",
          "name": "account",
          "type": "address"
        }
      ],
      "name": "isGovernorWhiteList",
      "outputs": [
        {
          "internalType": "bool",
          "name": "",
          "type": "bool"
        }
      ],
      "stateMutability": "view",
      "type": "function"
    },
    {
      "inputs": [
        {
          "internalType": "contract DaoRegistry",
          "name": "dao",
          "type": "address"
        },
        {
          "internalType": "bytes32",
          "name": "proposalId",
          "type": "bytes32"
        }
      ],
      "name": "processProposal",
      "outputs": [],
      "stateMutability": "nonpayable",
      "type": "function"
    },
    {
      "inputs": [
        {
          "internalType": "contract DaoRegistry",
          "name": "",
          "type": "address"
        },
        {
          "internalType": "bytes32",
          "name": "",
          "type": "bytes32"
        }
      ],
      "name": "proposals",
      "outputs": [
        {
          "internalType": "bytes32",
          "name": "id",
          "type": "bytes32"
        },
        {
          "internalType": "address",
          "name": "account",
          "type": "address"
        },
        {
          "internalType": "uint256",
          "name": "allocation",
          "type": "uint256"
        },
        {
          "internalType": "uint256",
          "name": "creationTime",
          "type": "uint256"
        },
        {
          "internalType": "uint256",
          "name": "stopVoteTime",
          "type": "uint256"
        },
        {
          "internalType": "enum VintageRaiserManagementContract.ProposalState",
          "name": "state",
          "type": "uint8"
        },
        {
          "internalType": "enum VintageRaiserManagementContract.ProposalType",
          "name": "pType",
          "type": "uint8"
        }
      ],
      "stateMutability": "view",
      "type": "function"
    },
    {
      "inputs": [
        {
          "internalType": "contract DaoRegistry",
          "name": "dao",
          "type": "address"
        }
      ],
      "name": "quit",
      "outputs": [],
      "stateMutability": "nonpayable",
      "type": "function"
    },
    {
      "inputs": [
        {
          "internalType": "contract DaoRegistry",
          "name": "dao",
          "type": "address"
        },
        {
          "internalType": "address",
          "name": "account",
          "type": "address"
        }
      ],
      "name": "registerGovernorWhiteList",
      "outputs": [],
      "stateMutability": "nonpayable",
      "type": "function"
    },
    {
      "inputs": [
        {
          "internalType": "contract DaoRegistry",
          "name": "dao",
          "type": "address"
        },
        {
          "internalType": "address",
          "name": "applicant",
          "type": "address"
        },
        {
          "internalType": "uint256",
          "name": "allocation",
          "type": "uint256"
        }
      ],
      "name": "submitGovernorInProposal",
      "outputs": [
        {
          "internalType": "bytes32",
          "name": "",
          "type": "bytes32"
        }
      ],
      "stateMutability": "nonpayable",
      "type": "function"
    },
    {
      "inputs": [
        {
          "internalType": "contract DaoRegistry",
          "name": "dao",
          "type": "address"
        },
        {
          "internalType": "address",
          "name": "applicant",
          "type": "address"
        }
      ],
      "name": "submitGovernorOutProposal",
      "outputs": [
        {
          "internalType": "bytes32",
          "name": "",
          "type": "bytes32"
        }
      ],
      "stateMutability": "nonpayable",
      "type": "function"
    }
  ],
  "bytecode": "0x608060405234801561001057600080fd5b50614d12806100206000396000f3fe608060405234801561001057600080fd5b50600436106100d45760003560e01c80637bf8003c11610081578063bda4f9771161005b578063bda4f97714610217578063d32b91dd1461022a578063dab12fee1461023d57600080fd5b80637bf8003c146101ce5780638ecf7720146101e15780639573167d1461020457600080fd5b80635cb75276116100b25780635cb752761461012757806360c5c28f1461019b578063792c4106146101ae57600080fd5b806322c5c2cc146100d95780632d258e72146100ee57806333f7bc0c14610114575b600080fd5b6100ec6100e736600461474f565b610250565b005b6101016100fc36600461474f565b610426565b6040519081526020015b60405180910390f35b6100ec61012236600461476b565b610437565b6101886101353660046147e3565b600060208181529281526040808220909352908152208054600182015460028301546003840154600485015460059095015493946001600160a01b03909316939192909160ff8082169161010090041687565b60405161010b9796959493929190614a95565b6101016101a936600461476b565b6105f8565b6101c16101bc36600461474f565b610900565b60405161010b9190614a48565b6101016101dc3660046147a3565b61090b565b6101f46101ef36600461476b565b6114e4565b604051901515815260200161010b565b6100ec6102123660046147e3565b611568565b6101c161022536600461474f565b611ef3565b6100ec61023836600461474f565b611f17565b6101f461024b36600461476b565b61218a565b6040516317ba7d8560e01b81527f77cdf6056467142a33aa6f753fc1e3907f6850ebf08c7b63b107b0611a69b04e60048201526001600160a01b038216906317ba7d859060240160206040518083038186803b1580156102af57600080fd5b505afa1580156102c3573d6000803e3d6000fd5b505050506040513d601f19601f820116820180604052508101906102e79190614627565b6001600160a01b0316336001600160a01b03161461034c5760405162461bcd60e51b815260206004820152600760248201527f216163636573730000000000000000000000000000000000000000000000000060448201526064015b60405180910390fd5b6001600160a01b038116600090815260016020526040812061036d906121ac565b516001600160a01b0383166000908152600160205260409020909150606090610395906121ac565b905081156104215760005b828160ff16101561041f5761040c828260ff16815181106103d157634e487b7160e01b600052603260045260246000fd5b602002602001015160016000876001600160a01b03166001600160a01b031681526020019081526020016000206121b990919063ffffffff16565b508061041781614c38565b9150506103a0565b505b505050565b6000610431826121ce565b92915050565b60405163288c314960e21b81523360048201526001600160a01b0383169063a230c5249060240160206040518083038186803b15801561047657600080fd5b505afa15801561048a573d6000803e3d6000fd5b505050506040513d601f19601f820116820180604052508101906104ae919061470a565b8061056057506040516317ba7d8560e01b81527f77cdf6056467142a33aa6f753fc1e3907f6850ebf08c7b63b107b0611a69b04e60048201526001600160a01b038316906317ba7d859060240160206040518083038186803b15801561051357600080fd5b505afa158015610527573d6000803e3d6000fd5b505050506040513d601f19601f8201168201806040525081019061054b9190614627565b6001600160a01b0316336001600160a01b0316145b6105ac5760405162461bcd60e51b815260206004820152600760248201527f21616363657373000000000000000000000000000000000000000000000000006044820152606401610343565b6001600160a01b03821660009081526001602052604090206105ce90826123aa565b6105f4576001600160a01b038216600090815260016020526040902061042190826123cc565b5050565b60008261060581336123e1565b83600061061182612437565b60405163288c314960e21b81526001600160a01b0387811660048301529192509087169063a230c5249060240160206040518083038186803b15801561065657600080fd5b505afa15801561066a573d6000803e3d6000fd5b505050506040513d601f19601f8201168201806040525081019061068e919061470a565b6106da5760405162461bcd60e51b815260206004820152601760248201527f6170706c6963616e742069736e7420676f7665726e6f720000000000000000006044820152606401610343565b856001600160a01b031663250a70b76040518163ffffffff1660e01b8152600401600060405180830381600087803b15801561071557600080fd5b505af1158015610729573d6000803e3d6000fd5b5050505060006107d48760c01b6107af896001600160a01b0316633ea34b866040518163ffffffff1660e01b815260040160206040518083038186803b15801561077257600080fd5b505afa158015610786573d6000803e3d6000fd5b505050506040513d601f19601f820116820180604052508101906107aa919061488e565b612702565b6040516020016107c0929190614938565b604051602081830303815290604052612858565b604051634941d71d60e11b81527f9876c0f0505bfb2b1c38d3bbd25ba13159172cd0868972d76927723f5a9480fc600482015290915042906000906001600160a01b038a1690639283ae3a9060240160206040518083038186803b15801561083b57600080fd5b505afa15801561084f573d6000803e3d6000fd5b505050506040513d601f19601f82011682018060405250810190610873919061488e565b61087d9083614b90565b905061088c89848a8585612874565b6108a6898460405180602001604052806000815250612aff565b7ffea2665062ba82dc413c7c18c28f836789917497e349b8c156ebaaae175ddabf89848a858560016040516108e0969594939291906149a6565b60405180910390a150909450506108f78282612d37565b50505092915050565b606061043182612d42565b600083600061091982612437565b90508561092681336123e1565b604051634941d71d60e11b81527f5b7b19076468102b84afbef323d128866c396a716ce4ce29f84beef8d266f3af6004820152879087906001600160a01b03831690639283ae3a9060240160206040518083038186803b15801561098957600080fd5b505afa15801561099d573d6000803e3d6000fd5b505050506040513d601f19601f820116820180604052508101906109c1919061488e565b600114156111f057604051634941d71d60e11b81527f23f0530138a805a7a3c83e0d6298d353102473dc25666f75173de90ac5414c8260048201526000906001600160a01b03841690639283ae3a9060240160206040518083038186803b158015610a2b57600080fd5b505afa158015610a3f573d6000803e3d6000fd5b505050506040513d601f19601f82011682018060405250810190610a63919061488e565b604051634941d71d60e11b81527f4481bb4c8bc94e65f81ab5591f704165aab99eb4197df7acf672022476933f5860048201529091506000906001600160a01b03851690639283ae3a9060240160206040518083038186803b158015610ac857600080fd5b505afa158015610adc573d6000803e3d6000fd5b505050506040513d601f19601f82011682018060405250810190610b00919061488e565b604051634941d71d60e11b81527f38cbcea6ba035c1d1890c83ce99918342ef746d839f9c2e2d4966d30a7e70b3460048201529091506000906001600160a01b03861690639283ae3a9060240160206040518083038186803b158015610b6557600080fd5b505afa158015610b79573d6000803e3d6000fd5b505050506040513d601f19601f82011682018060405250810190610b9d919061488e565b604051634941d71d60e11b81527fe33a9c3c87c85b9efd09c180b8fd30ca34326eb72e20fdd832b510971ccf71ae60048201529091506000906001600160a01b03871690639283ae3a9060240160206040518083038186803b158015610c0257600080fd5b505afa158015610c16573d6000803e3d6000fd5b505050506040513d601f19601f82011682018060405250810190610c3a919061488e565b60405163fd310d2960e01b81527faa2cc36fff47c5c104b89a4abef628c92272c0af9c4db27739bc445b2f51e9a260048201529091506000906001600160a01b0388169063fd310d299060240160206040518083038186803b158015610c9f57600080fd5b505afa158015610cb3573d6000803e3d6000fd5b505050506040513d601f19601f82011682018060405250810190610cd79190614627565b6040516317ba7d8560e01b81527faaff643bdbd909f604d46ce015336f7e20fee3ac4a55cef3610188dee176c89260048201529091506000906001600160a01b038916906317ba7d859060240160206040518083038186803b158015610d3c57600080fd5b505afa158015610d50573d6000803e3d6000fd5b505050506040513d601f19601f82011682018060405250810190610d749190614627565b905085610e70576040516370a0823160e01b81526001600160a01b0388811660048301528691908416906370a082319060240160206040518083038186803b158015610dbf57600080fd5b505afa158015610dd3573d6000803e3d6000fd5b505050506040513d601f19601f82011682018060405250810190610df7919061488e565b1015610e6b5760405162461bcd60e51b815260206004820152602c60248201527f646f6e74206d656574206d696e20657263323020746f6b656e20686f6c64696e60448201527f67207265717569726d656e7400000000000000000000000000000000000000006064820152608401610343565b6111e9565b8560011415610f69576040516370a0823160e01b81526001600160a01b0388811660048301528691908416906370a082319060240160206040518083038186803b158015610ebd57600080fd5b505afa158015610ed1573d6000803e3d6000fd5b505050506040513d601f19601f82011682018060405250810190610ef5919061488e565b1015610e6b5760405162461bcd60e51b815260206004820152602d60248201527f646f6e74206d656574206d696e2065726337323120746f6b656e20686f6c646960448201527f6e67207265717569726d656e74000000000000000000000000000000000000006064820152608401610343565b856002141561106757604051627eeac760e11b81526001600160a01b0388811660048301526024820185905286919084169062fdd58e9060440160206040518083038186803b158015610fbb57600080fd5b505afa158015610fcf573d6000803e3d6000fd5b505050506040513d601f19601f82011682018060405250810190610ff3919061488e565b1015610e6b5760405162461bcd60e51b815260206004820152602e60248201527f646f6e74206d656574206d696e206572633131353520746f6b656e20686f6c6460448201527f696e67207265717569726d656e740000000000000000000000000000000000006064820152608401610343565b85600314156110c65761107a888861218a565b610e6b5760405162461bcd60e51b815260206004820152601960248201527f6e6f7420696e20676f7665726e6f722077686974656c697374000000000000006044820152606401610343565b85600414156111a157604051633de222bb60e21b81526001600160a01b038981166004830152888116602483015285919083169063f7888aec9060440160206040518083038186803b15801561111b57600080fd5b505afa15801561112f573d6000803e3d6000fd5b505050506040513d601f19601f82011682018060405250810190611153919061488e565b1015610e6b5760405162461bcd60e51b815260206004820181905260248201527f646f6e74206d656574206d696e206465706f697374207265717569726d656e746044820152606401610343565b60405162461bcd60e51b815260206004820152601760248201527f696e76616c6964206d656d6265727368697020747970650000000000000000006044820152606401610343565b5050505050505b60405163288c314960e21b81526001600160a01b0389811660048301528a169063a230c5249060240160206040518083038186803b15801561123157600080fd5b505afa158015611245573d6000803e3d6000fd5b505050506040513d601f19601f82011682018060405250810190611269919061470a565b156112b65760405162461bcd60e51b815260206004820152601d60248201527f6170706c6963616e7420697320676f7665726e6f7220616c72656164790000006044820152606401610343565b6112bf88612db9565b61130b5760405162461bcd60e51b815260206004820152601d60248201527f6170706c6963616e7420697320726573657276656420616464726573730000006044820152606401610343565b886001600160a01b031663ec56a1f26040518163ffffffff1660e01b8152600401600060405180830381600087803b15801561134657600080fd5b505af115801561135a573d6000803e3d6000fd5b5050505060006113b48a60c01b6113a38c6001600160a01b03166352c1d9016040518163ffffffff1660e01b815260040160206040518083038186803b15801561077257600080fd5b6040516020016107c09291906148ca565b604051634941d71d60e11b81527f9876c0f0505bfb2b1c38d3bbd25ba13159172cd0868972d76927723f5a9480fc600482015290915042906000906001600160a01b038d1690639283ae3a9060240160206040518083038186803b15801561141b57600080fd5b505afa15801561142f573d6000803e3d6000fd5b505050506040513d601f19601f82011682018060405250810190611453919061488e565b61145d9083614b90565b905061146d8c848d8d8686612dfd565b6114878c8460405180602001604052806000815250612aff565b7ffea2665062ba82dc413c7c18c28f836789917497e349b8c156ebaaae175ddabf8c848d858560006040516114c1969594939291906149a6565b60405180910390a150909650505050506114db8282612d37565b50509392505050565b60405163288c314960e21b81526001600160a01b0382811660048301526000919084169063a230c5249060240160206040518083038186803b15801561152957600080fd5b505afa15801561153d573d6000803e3d6000fd5b505050506040513d601f19601f82011682018060405250810190611561919061470a565b9392505050565b81600061157482612437565b6001600160a01b038516600090815260208181526040808320878452909152902080549192509084146115e95760405162461bcd60e51b815260206004820152601760248201527f70726f706f73616c20646f6573206e6f742065786973740000000000000000006044820152606401610343565b6040517ff941f6910000000000000000000000000000000000000000000000000000000081526001600160a01b0386169063f941f69190611631908790600290600401614ae7565b60206040518083038186803b15801561164957600080fd5b505afa15801561165d573d6000803e3d6000fd5b505050506040513d601f19601f82011682018060405250810190611681919061470a565b156116ce5760405162461bcd60e51b815260206004820152601a60248201527f70726f706f73616c20616c72656164792070726f6365737365640000000000006044820152606401610343565b6040516317ba7d8560e01b81527fd3999c37f8f35da86f802a74f9bf032c4aeb46e49abd9c861f489ef4cb40d0a860048201526000906001600160a01b038716906317ba7d859060240160206040518083038186803b15801561173057600080fd5b505afa158015611744573d6000803e3d6000fd5b505050506040513d601f19601f820116820180604052508101906117689190614627565b90506001600160a01b0381166117c05760405162461bcd60e51b815260206004820152601160248201527f61646170746572206e6f7420666f756e640000000000000000000000000000006044820152606401610343565b6040517f76225e730000000000000000000000000000000000000000000000000000000081526001600160a01b0387811660048301526024820187905260009182918291908516906376225e7390604401606060405180830381600087803b15801561182b57600080fd5b505af115801561183f573d6000803e3d6000fd5b505050506040513d601f19601f82011682018060405250810190611863919061482d565b6040517f30490e91000000000000000000000000000000000000000000000000000000008152600481018c905292955090935091506001600160a01b038a16906330490e9190602401600060405180830381600087803b1580156118c657600080fd5b505af11580156118da573d6000803e3d6000fd5b5050505060006118ea8a8a61308c565b9050600284600581111561190e57634e487b7160e01b600052602160045260246000fd5b1415611d9c576005860180546001919060ff19168280021790555060018601546001600160a01b031660006005880154610100900460ff16600181111561196557634e487b7160e01b600052602160045260246000fd5b1415611bb8576040517fdc929f4a0000000000000000000000000000000000000000000000000000000081526001600160a01b0382811660048301528c169063dc929f4a90602401600060405180830381600087803b1580156119c757600080fd5b505af11580156119db573d6000803e3d6000fd5b5050604051634941d71d60e11b81527f686efe7bd1699b408d306db6bbee658ed667971c52d48d6912d7ee496e36e62760048201526001600160a01b038e169250639283ae3a915060240160206040518083038186803b158015611a3e57600080fd5b505afa158015611a52573d6000803e3d6000fd5b505050506040513d601f19601f82011682018060405250810190611a76919061488e565b60031415611bb8576040516317ba7d8560e01b81527f1fa6846b165d822fff79e37c67625706652fa9380c2aa49fd513ce534cc72ed460048201526000906001600160a01b038d16906317ba7d859060240160206040518083038186803b158015611ae057600080fd5b505afa158015611af4573d6000803e3d6000fd5b505050506040513d601f19601f82011682018060405250810190611b189190614627565b9050806001600160a01b0316635f15b1d98d8a60010160009054906101000a90046001600160a01b03168b600201546040518463ffffffff1660e01b8152600401611b84939291906001600160a01b039384168152919092166020820152604081019190915260600190565b600060405180830381600087803b158015611b9e57600080fd5b505af1158015611bb2573d6000803e3d6000fd5b50505050505b60016005880154610100900460ff166001811115611be657634e487b7160e01b600052602160045260246000fd5b1415611d87576040517f0b1ca49a0000000000000000000000000000000000000000000000000000000081526001600160a01b0382811660048301528c1690630b1ca49a90602401600060405180830381600087803b158015611c4857600080fd5b505af1158015611c5c573d6000803e3d6000fd5b50506040516317ba7d8560e01b81527f1fa6846b165d822fff79e37c67625706652fa9380c2aa49fd513ce534cc72ed46004820152600092506001600160a01b038e1691506317ba7d859060240160206040518083038186803b158015611cc257600080fd5b505afa158015611cd6573d6000803e3d6000fd5b505050506040513d601f19601f82011682018060405250810190611cfa9190614627565b60018901546040517f5f15b1d90000000000000000000000000000000000000000000000000000000081526001600160a01b038f81166004830152918216602482015260006044820152919250821690635f15b1d990606401600060405180830381600087803b158015611d6d57600080fd5b505af1158015611d81573d6000803e3d6000fd5b50505050505b5060058601805460ff19166002179055611e70565b6003846005811115611dbe57634e487b7160e01b600052602160045260246000fd5b1480611de957506001846005811115611de757634e487b7160e01b600052602160045260246000fd5b145b15611e025760058601805460ff19166003179055611e70565b60405162461bcd60e51b815260206004820152602260248201527f70726f706f73616c20686173206e6f74206265656e20766f746564206f6e207960448201527f65740000000000000000000000000000000000000000000000000000000000006064820152608401610343565b7fe0867d363777a6ada708063230ad9d25fe940a2b5913de073948e222345816b28a8a8860050160009054906101000a900460ff16876005811115611ec557634e487b7160e01b600052602160045260246000fd5b858888604051611edb97969594939291906149eb565b60405180910390a150505050505061041f8282612d37565b6001600160a01b0381166000908152600160205260409020606090610431906121ac565b80611f2281336123e1565b336001600160a01b0316826001600160a01b031663149acf9a6040518163ffffffff1660e01b815260040160206040518083038186803b158015611f6557600080fd5b505afa158015611f79573d6000803e3d6000fd5b505050506040513d601f19601f82011682018060405250810190611f9d9190614627565b6001600160a01b03161415611ff45760405162461bcd60e51b815260206004820152601660248201527f64616f2073756d6d6f6e6f722063616e742071756974000000000000000000006044820152606401610343565b6040517f0b1ca49a0000000000000000000000000000000000000000000000000000000081523360048201526001600160a01b03831690630b1ca49a90602401600060405180830381600087803b15801561204e57600080fd5b505af1158015612062573d6000803e3d6000fd5b50506040516317ba7d8560e01b81527f1fa6846b165d822fff79e37c67625706652fa9380c2aa49fd513ce534cc72ed46004820152600092506001600160a01b03851691506317ba7d859060240160206040518083038186803b1580156120c857600080fd5b505afa1580156120dc573d6000803e3d6000fd5b505050506040513d601f19601f820116820180604052508101906121009190614627565b6040517f5f15b1d90000000000000000000000000000000000000000000000000000000081526001600160a01b0385811660048301523360248301526000604483015291925090821690635f15b1d990606401600060405180830381600087803b15801561216d57600080fd5b505af1158015612181573d6000803e3d6000fd5b50505050505050565b6001600160a01b038216600090815260016020526040812061156190836123aa565b60606000611561836133b8565b6000611561836001600160a01b038416613414565b600080826001600160a01b031663c67143666040518163ffffffff1660e01b815260040160206040518083038186803b15801561220a57600080fd5b505afa15801561221e573d6000803e3d6000fd5b505050506040513d601f19601f82011682018060405250810190612242919061488e565b90506000805b828160ff1610156123a2576040517f9029444a00000000000000000000000000000000000000000000000000000000815260ff821660048201526001600160a01b0386169063a230c524908290639029444a9060240160206040518083038186803b1580156122b657600080fd5b505afa1580156122ca573d6000803e3d6000fd5b505050506040513d601f19601f820116820180604052508101906122ee9190614627565b6040517fffffffff0000000000000000000000000000000000000000000000000000000060e084901b1681526001600160a01b03909116600482015260240160206040518083038186803b15801561234557600080fd5b505afa158015612359573d6000803e3d6000fd5b505050506040513d601f19601f8201168201806040525081019061237d919061470a565b156123905761238d600183614b90565b91505b8061239a81614c38565b915050612248565b509392505050565b6001600160a01b03811660009081526001830160205260408120541515611561565b6000611561836001600160a01b038416613531565b6123eb82826114e4565b6105f45760405162461bcd60e51b815260206004820152600c60248201527f6f6e6c79476f7665726e6f7200000000000000000000000000000000000000006044820152606401610343565b6040805160808101825260008082526020820181905291810182905260608101919091525a81600001818152505043826001600160a01b031663b21634826040518163ffffffff1660e01b815260040160206040518083038186803b15801561249f57600080fd5b505afa1580156124b3573d6000803e3d6000fd5b505050506040513d601f19601f820116820180604052508101906124d7919061488e565b14156125255760405162461bcd60e51b815260206004820152601060248201527f7265656e7472616e6379206775617264000000000000000000000000000000006044820152606401610343565b816001600160a01b03166310fdb0a26040518163ffffffff1660e01b8152600401600060405180830381600087803b15801561256057600080fd5b505af1158015612574573d6000803e3d6000fd5b50506040517f72c6838f0000000000000000000000000000000000000000000000000000000081527f1f2fd42ad6a6cacd573c4b212beb7a4e2499ad45d742a65337097f130e71daff6004820152600092506001600160a01b03851691506372c6838f9060240160206040518083038186803b1580156125f357600080fd5b505afa158015612607573d6000803e3d6000fd5b505050506040513d601f19601f8201168201806040525081019061262b9190614627565b90506001600160a01b03811661264757600060208301526126fc565b6001600160a01b038181166060840181905283516040517f43a8a3f1000000000000000000000000000000000000000000000000000000008152928616600484015260248301526000918291906343a8a3f190604401604080518083038186803b1580156126b457600080fd5b505afa1580156126c8573d6000803e3d6000fd5b505050506040513d601f19601f820116820180604052508101906126ec9190614724565b9015156020860152604085015250505b50919050565b60608161274257505060408051808201909152600181527f3000000000000000000000000000000000000000000000000000000000000000602082015290565b8160005b811561276c578061275681614bff565b91506127659050600a83614ba8565b9150612746565b60008167ffffffffffffffff81111561279557634e487b7160e01b600052604160045260246000fd5b6040519080825280601f01601f1916602001820160405280156127bf576020820181803683370190505b5090505b8415612850576127d4600183614bbc565b91506127e1600a86614c58565b6127ec906030614b90565b60f81b81838151811061280f57634e487b7160e01b600052603260045260246000fd5b60200101907effffffffffffffffffffffffffffffffffffffffffffffffffffffffffffff1916908160001a905350612849600a86614ba8565b94506127c3565b949350505050565b600081516000141561286c57506000919050565b506020015190565b60405163288c314960e21b81526001600160a01b03848116600483015286169063a230c5249060240160206040518083038186803b1580156128b557600080fd5b505afa1580156128c9573d6000803e3d6000fd5b505050506040513d601f19601f820116820180604052508101906128ed919061470a565b6129395760405162461bcd60e51b815260206004820152600960248201527f21676f7665726e6f7200000000000000000000000000000000000000000000006044820152606401610343565b6040518060e00160405280858152602001846001600160a01b03168152602001600081526020018381526020018281526020016000600381111561298d57634e487b7160e01b600052602160045260246000fd5b8152600160209182018190526001600160a01b03888116600090815280845260408082208a8352855290819020855181559385015184840180547fffffffffffffffffffffffff0000000000000000000000000000000000000000169190931617909155830151600283015560608301516003808401919091556080840151600484015560a08401516005840180549193909260ff19909216918490811115612a4657634e487b7160e01b600052602160045260246000fd5b021790555060c082015160058201805461ff001916610100836001811115612a7e57634e487b7160e01b600052602160045260246000fd5b0217905550506040517fb73dc389000000000000000000000000000000000000000000000000000000008152600481018690526001600160a01b038716915063b73dc38990602401600060405180830381600087803b158015612ae057600080fd5b505af1158015612af4573d6000803e3d6000fd5b505050505050505050565b6040516317ba7d8560e01b81527fd3999c37f8f35da86f802a74f9bf032c4aeb46e49abd9c861f489ef4cb40d0a860048201526000906001600160a01b038516906317ba7d859060240160206040518083038186803b158015612b6157600080fd5b505afa158015612b75573d6000803e3d6000fd5b505050506040513d601f19601f82011682018060405250810190612b999190614627565b6040516317ba7d8560e01b81527fd3999c37f8f35da86f802a74f9bf032c4aeb46e49abd9c861f489ef4cb40d0a860048201529091506001600160a01b0385169063815a2bf490859083906317ba7d859060240160206040518083038186803b158015612c0557600080fd5b505afa158015612c19573d6000803e3d6000fd5b505050506040513d601f19601f82011682018060405250810190612c3d9190614627565b6040517fffffffff0000000000000000000000000000000000000000000000000000000060e085901b16815260048101929092526001600160a01b03166024820152604401600060405180830381600087803b158015612c9c57600080fd5b505af1158015612cb0573d6000803e3d6000fd5b50506040517f26078cd00000000000000000000000000000000000000000000000000000000081526001600160a01b03841692506326078cd09150612cff908790879042908890600401614b0b565b600060405180830381600087803b158015612d1957600080fd5b505af1158015612d2d573d6000803e3d6000fd5b5050505050505050565b6105f4828233613580565b6060816001600160a01b031663a6f636416040518163ffffffff1660e01b815260040160006040518083038186803b158015612d7d57600080fd5b505afa158015612d91573d6000803e3d6000fd5b505050506040513d6000823e601f3d908101601f191682016040526104319190810190614643565b60006001600160a01b03821661dead14801590612de157506001600160a01b03821661babe14155b801561043157506001600160a01b038216614bec141592915050565b60405163288c314960e21b81526001600160a01b03858116600483015287169063a230c5249060240160206040518083038186803b158015612e3e57600080fd5b505afa158015612e52573d6000803e3d6000fd5b505050506040513d601f19601f82011682018060405250810190612e76919061470a565b15612ec35760405162461bcd60e51b815260206004820152601060248201527f676f7665726e6f722065786973746564000000000000000000000000000000006044820152606401610343565b6040518060e00160405280868152602001856001600160a01b0316815260200184815260200183815260200182815260200160006003811115612f1657634e487b7160e01b600052602160045260246000fd5b8152600060209182018190526001600160a01b03898116825281835260408083208a84528452918290208451815592840151600180850180547fffffffffffffffffffffffff000000000000000000000000000000000000000016929093169190911790915590830151600283015560608301516003808401919091556080840151600484015560a08401516005840180549193909260ff19909216918490811115612fd257634e487b7160e01b600052602160045260246000fd5b021790555060c082015160058201805461ff00191661010083600181111561300a57634e487b7160e01b600052602160045260246000fd5b0217905550506040517fb73dc389000000000000000000000000000000000000000000000000000000008152600481018790526001600160a01b038816915063b73dc38990602401600060405180830381600087803b15801561306c57600080fd5b505af1158015613080573d6000803e3d6000fd5b50505050505050505050565b600080836001600160a01b031663a6f636416040518163ffffffff1660e01b815260040160006040518083038186803b1580156130c857600080fd5b505afa1580156130dc573d6000803e3d6000fd5b505050506040513d6000823e601f3d908101601f191682016040526131049190810190614643565b6040516317ba7d8560e01b81527fd3999c37f8f35da86f802a74f9bf032c4aeb46e49abd9c861f489ef4cb40d0a8600482015290915060009081906001600160a01b038716906317ba7d859060240160206040518083038186803b15801561316b57600080fd5b505afa15801561317f573d6000803e3d6000fd5b505050506040513d601f19601f820116820180604052508101906131a39190614627565b905060005b83518160ff1610156133ad57816001600160a01b03166324a2cceb8888878560ff16815181106131e857634e487b7160e01b600052603260045260246000fd5b60200260200101516040518463ffffffff1660e01b815260040161322c939291906001600160a01b0393841681526020810192909252909116604082015260600190565b60206040518083038186803b15801561324457600080fd5b505afa158015613258573d6000803e3d6000fd5b505050506040513d601f19601f8201168201806040525081019061327c919061470a565b1561335a57816001600160a01b03166391d2fd538888878560ff16815181106132b557634e487b7160e01b600052603260045260246000fd5b60200260200101516040518463ffffffff1660e01b81526004016132f9939291906001600160a01b0393841681526020810192909252909116604082015260600190565b60206040518083038186803b15801561331157600080fd5b505afa158015613325573d6000803e3d6000fd5b505050506040513d601f19601f820116820180604052508101906133499190614874565b6133539084614b5c565b925061339b565b61338e87858360ff168151811061338157634e487b7160e01b600052603260045260246000fd5b6020026020010151613671565b6133989084614b5c565b92505b806133a581614c38565b9150506131a8565b509095945050505050565b60608160000180548060200260200160405190810160405280929190818152602001828054801561340857602002820191906000526020600020905b8154815260200190600101908083116133f4575b50505050509050919050565b60008181526001830160205260408120548015613527576000613438600183614bbc565b855490915060009061344c90600190614bbc565b90508181146134cd57600086600001828154811061347a57634e487b7160e01b600052603260045260246000fd5b90600052602060002001549050808760000184815481106134ab57634e487b7160e01b600052603260045260246000fd5b6000918252602080832090910192909255918252600188019052604090208390555b85548690806134ec57634e487b7160e01b600052603160045260246000fd5b600190038181906000526020600020016000905590558560010160008681526020019081526020016000206000905560019350505050610431565b6000915050610431565b600081815260018301602052604081205461357857508154600181810184556000848152602080822090930184905584548482528286019093526040902091909155610431565b506000610431565b8160200151156136365781606001516001600160a01b0316635e5eb01384835a86516135ac9190614bbc565b60408088015190517fffffffff0000000000000000000000000000000000000000000000000000000060e087901b1681526001600160a01b03948516600482015293909216602484015260448301526064820152608401600060405180830381600087803b15801561361d57600080fd5b505af1158015613631573d6000803e3d6000fd5b505050505b826001600160a01b031663d4f7af436040518163ffffffff1660e01b8152600401600060405180830381600087803b15801561216d57600080fd5b6040516317ba7d8560e01b81527faaff643bdbd909f604d46ce015336f7e20fee3ac4a55cef3610188dee176c892600482015260009081906001600160a01b038516906317ba7d859060240160206040518083038186803b1580156136d557600080fd5b505afa1580156136e9573d6000803e3d6000fd5b505050506040513d601f19601f8201168201806040525081019061370d9190614627565b6040516317ba7d8560e01b81527fa837e34a29b67bf52f684a1c93def79b84b9c012732becee4e5df62809df64ed60048201529091506000906001600160a01b038616906317ba7d859060240160206040518083038186803b15801561377257600080fd5b505afa158015613786573d6000803e3d6000fd5b505050506040513d601f19601f820116820180604052508101906137aa9190614627565b6040516317ba7d8560e01b81527f1fa6846b165d822fff79e37c67625706652fa9380c2aa49fd513ce534cc72ed460048201529091506000906001600160a01b038716906317ba7d859060240160206040518083038186803b15801561380f57600080fd5b505afa158015613823573d6000803e3d6000fd5b505050506040513d601f19601f820116820180604052508101906138479190614627565b604051634941d71d60e11b81527f686efe7bd1699b408d306db6bbee658ed667971c52d48d6912d7ee496e36e62760048201529091506000906001600160a01b03881690639283ae3a9060240160206040518083038186803b1580156138ac57600080fd5b505afa1580156138c0573d6000803e3d6000fd5b505050506040513d601f19601f820116820180604052508101906138e4919061488e565b604051634941d71d60e11b81527fb75eae231d9582c6afc6491273df4a0ffbccd48ab2c48dbce59e5d68f2d19dc460048201529091506000906001600160a01b03891690639283ae3a9060240160206040518083038186803b15801561394957600080fd5b505afa15801561395d573d6000803e3d6000fd5b505050506040513d601f19601f82011682018060405250810190613981919061488e565b90508060011415613f4d57604051634941d71d60e11b81527e634460a4b60c2e1bf8c87bfc42b6b68fd2a71f4bb2d760816eabc5038b503660048201526000906001600160a01b038a1690639283ae3a9060240160206040518083038186803b1580156139ed57600080fd5b505afa158015613a01573d6000803e3d6000fd5b505050506040513d601f19601f82011682018060405250810190613a25919061488e565b60405163fd310d2960e01b81527fcd9b30ab6388c165d825b60b7d393528191ba59d975b4b1b52b7184b63b8a97c60048201529091506000906001600160a01b038b169063fd310d299060240160206040518083038186803b158015613a8a57600080fd5b505afa158015613a9e573d6000803e3d6000fd5b505050506040513d601f19601f82011682018060405250810190613ac29190614627565b9050600084613b61576040516370a0823160e01b81526001600160a01b038b81166004830152670de0b6b3a764000091908416906370a08231906024015b60206040518083038186803b158015613b1857600080fd5b505afa158015613b2c573d6000803e3d6000fd5b505050506040513d601f19601f82011682018060405250810190613b50919061488e565b613b5a9190614ba8565b9050613ede565b8460011415613be4576040516370a0823160e01b81526001600160a01b038b811660048301528316906370a08231906024015b60206040518083038186803b158015613bac57600080fd5b505afa158015613bc0573d6000803e3d6000fd5b505050506040513d601f19601f82011682018060405250810190613b5a919061488e565b8460021415613c2057604051627eeac760e11b81526001600160a01b038b811660048301526024820185905283169062fdd58e90604401613b94565b8460031415613c78576040517fa6d945cc0000000000000000000000000000000000000000000000000000000081526001600160a01b038c811660048301528b8116602483015287169063a6d945cc90604401613b94565b8460041415613ecd5760026040517f1ee1a2b00000000000000000000000000000000000000000000000000000000081526001600160a01b038d811660048301528a1690631ee1a2b09060240160206040518083038186803b158015613cdd57600080fd5b505afa158015613cf1573d6000803e3d6000fd5b505050506040513d601f19601f82011682018060405250810190613d15919061480e565b6003811115613d3457634e487b7160e01b600052602160045260246000fd5b148015613dd65750604051634941d71d60e11b81527f9ce69cf04065e3c7823cc5540c0598d8a694bd7a9a5a2a786d8bccf14ed6e2ea60048201526001600160a01b038c1690639283ae3a9060240160206040518083038186803b158015613d9b57600080fd5b505afa158015613daf573d6000803e3d6000fd5b505050506040513d601f19601f82011682018060405250810190613dd3919061488e565b42105b8015613e7657506040517f4fc0a76d0000000000000000000000000000000000000000000000000000000081526001600160a01b038c8116600483015260019190891690634fc0a76d9060240160206040518083038186803b158015613e3b57600080fd5b505afa158015613e4f573d6000803e3d6000fd5b505050506040513d601f19601f82011682018060405250810190613e73919061488e565b10155b15613ebc57604051633de222bb60e21b81526001600160a01b038c811660048301528b81166024830152670de0b6b3a764000091908a169063f7888aec90604401613b00565b600198505050505050505050610431565b600098505050505050505050610431565b60008111613ef757600098505050505050505050610431565b677fffffffffffffff8110613f1757603298505050505050505050610431565b6000613f32613f2d613f28846144b6565b6144d4565b6145cb565b67ffffffffffffffff16995061043198505050505050505050565b8060021415613f6457600195505050505050610431565b806144a857604051634941d71d60e11b81527e634460a4b60c2e1bf8c87bfc42b6b68fd2a71f4bb2d760816eabc5038b503660048201526000906001600160a01b038a1690639283ae3a9060240160206040518083038186803b158015613fca57600080fd5b505afa158015613fde573d6000803e3d6000fd5b505050506040513d601f19601f82011682018060405250810190614002919061488e565b60405163fd310d2960e01b81527fcd9b30ab6388c165d825b60b7d393528191ba59d975b4b1b52b7184b63b8a97c60048201529091506000906001600160a01b038b169063fd310d299060240160206040518083038186803b15801561406757600080fd5b505afa15801561407b573d6000803e3d6000fd5b505050506040513d601f19601f8201168201806040525081019061409f9190614627565b905060008461413e576040516370a0823160e01b81526001600160a01b038b81166004830152670de0b6b3a764000091908416906370a08231906024015b60206040518083038186803b1580156140f557600080fd5b505afa158015614109573d6000803e3d6000fd5b505050506040513d601f19601f8201168201806040525081019061412d919061488e565b6141379190614ba8565b9050614499565b84600114156141c1576040516370a0823160e01b81526001600160a01b038b811660048301528316906370a08231906024015b60206040518083038186803b15801561418957600080fd5b505afa15801561419d573d6000803e3d6000fd5b505050506040513d601f19601f82011682018060405250810190614137919061488e565b84600214156141fd57604051627eeac760e11b81526001600160a01b038b811660048301526024820185905283169062fdd58e90604401614171565b8460031415614255576040517fa6d945cc0000000000000000000000000000000000000000000000000000000081526001600160a01b038c811660048301528b8116602483015287169063a6d945cc90604401614171565b8460041415613ecd5760026040517f1ee1a2b00000000000000000000000000000000000000000000000000000000081526001600160a01b038d811660048301528a1690631ee1a2b09060240160206040518083038186803b1580156142ba57600080fd5b505afa1580156142ce573d6000803e3d6000fd5b505050506040513d601f19601f820116820180604052508101906142f2919061480e565b600381111561431157634e487b7160e01b600052602160045260246000fd5b1480156143b35750604051634941d71d60e11b81527f9ce69cf04065e3c7823cc5540c0598d8a694bd7a9a5a2a786d8bccf14ed6e2ea60048201526001600160a01b038c1690639283ae3a9060240160206040518083038186803b15801561437857600080fd5b505afa15801561438c573d6000803e3d6000fd5b505050506040513d601f19601f820116820180604052508101906143b0919061488e565b42105b801561445357506040517f4fc0a76d0000000000000000000000000000000000000000000000000000000081526001600160a01b038c8116600483015260019190891690634fc0a76d9060240160206040518083038186803b15801561441857600080fd5b505afa15801561442c573d6000803e3d6000fd5b505050506040513d601f19601f82011682018060405250810190614450919061488e565b10155b15613ebc57604051633de222bb60e21b81526001600160a01b038c811660048301528b81166024830152670de0b6b3a764000091908a169063f7888aec906044016140dd565b97506104319650505050505050565b600095505050505050610431565b6000677fffffffffffffff8211156144cd57600080fd5b5060401b90565b60008082600f0b136144e557600080fd5b6000600f83900b680100000000000000008112614504576040918201911d5b6401000000008112614518576020918201911d5b62010000811261452a576010918201911d5b610100811261453b576008918201911d5b6010811261454b576004918201911d5b6004811261455b576002918201911d5b6002811261456a576001820191505b7fffffffffffffffffffffffffffffffffffffffffffffffffffffffffffffffc0820160401b600f85900b607f8490031b6780000000000000005b60008113156133ad5790800260ff81901c8281029390930192607f011c9060011d6145a5565b60008082600f0b12156145dd57600080fd5b50600f0b60401d90565b80516145f281614cc4565b919050565b805180151581146145f257600080fd5b80516fffffffffffffffffffffffffffffffff811681146145f257600080fd5b600060208284031215614638578081fd5b815161156181614cc4565b60006020808385031215614655578182fd5b825167ffffffffffffffff8082111561466c578384fd5b818501915085601f83011261467f578384fd5b81518181111561469157614691614cae565b8060051b604051601f19603f830116810181811085821117156146b6576146b6614cae565b604052828152858101935084860182860187018a10156146d4578788fd5b8795505b838610156146fd576146e9816145e7565b8552600195909501949386019386016146d8565b5098975050505050505050565b60006020828403121561471b578081fd5b611561826145f7565b60008060408385031215614736578081fd5b61473f836145f7565b9150602083015190509250929050565b600060208284031215614760578081fd5b813561156181614cc4565b6000806040838503121561477d578182fd5b823561478881614cc4565b9150602083013561479881614cc4565b809150509250929050565b6000806000606084860312156147b7578081fd5b83356147c281614cc4565b925060208401356147d281614cc4565b929592945050506040919091013590565b600080604083850312156147f5578182fd5b823561480081614cc4565b946020939093013593505050565b60006020828403121561481f578081fd5b815160048110611561578182fd5b600080600060608486031215614841578283fd5b83516006811061484f578384fd5b925061485d60208501614607565b915061486b60408501614607565b90509250925092565b600060208284031215614885578081fd5b61156182614607565b60006020828403121561489f578081fd5b5051919050565b600481106148b6576148b6614c98565b9052565b600281106148b6576148b6614c98565b7fffffffffffffffff000000000000000000000000000000000000000000000000831681527f476f7665726e6f722d496e23000000000000000000000000000000000000000060088201526000825161492a816014850160208701614bd3565b919091016014019392505050565b7fffffffffffffffff000000000000000000000000000000000000000000000000831681527f476f7665726e6f722d4f75742300000000000000000000000000000000000000600882015260008251614998816015850160208701614bd3565b919091016015019392505050565b6001600160a01b0387811682526020820187905285166040820152606081018490526080810183905260c081016149e060a08301846148ba565b979650505050505050565b6001600160a01b03881681526020810187905260e08101614a0f60408301886148a6565b60608201959095526fffffffffffffffffffffffffffffffff938416608082015291831660a083015290911660c0909101529392505050565b6020808252825182820181905260009190848201906040850190845b81811015614a895783516001600160a01b031683529284019291840191600101614a64565b50909695505050505050565b600060e0820190508882526001600160a01b0388166020830152866040830152856060830152846080830152614ace60a08301856148a6565b614adb60c08301846148ba565b98975050505050505050565b8281526040810160038310614afe57614afe614c98565b8260208301529392505050565b6001600160a01b03851681528360208201528260408201526080606082015260008251806080840152614b458160a0850160208701614bd3565b601f01601f19169190910160a00195945050505050565b60006fffffffffffffffffffffffffffffffff808316818516808303821115614b8757614b87614c6c565b01949350505050565b60008219821115614ba357614ba3614c6c565b500190565b600082614bb757614bb7614c82565b500490565b600082821015614bce57614bce614c6c565b500390565b60005b83811015614bee578181015183820152602001614bd6565b8381111561041f5750506000910152565b60007fffffffffffffffffffffffffffffffffffffffffffffffffffffffffffffffff821415614c3157614c31614c6c565b5060010190565b600060ff821660ff811415614c4f57614c4f614c6c565b60010192915050565b600082614c6757614c67614c82565b500690565b634e487b7160e01b600052601160045260246000fd5b634e487b7160e01b600052601260045260246000fd5b634e487b7160e01b600052602160045260246000fd5b634e487b7160e01b600052604160045260246000fd5b6001600160a01b0381168114614cd957600080fd5b5056fea26469706673582212206da0bd8bfaf374e07bd2480ad03322467008caa93e9cf60846df357042aedca364736f6c63430008040033",
  "linkReferences": {},
  "deployedLinkReferences": {}
}