{
  "_format": "hh-sol-artifact-1",
  "contractName": "VintageFundRaiseAdapterContract",
  "sourceName": "contracts/vintage/adapters/VintageFundRaise.sol",
  "abi": [
    {
      "inputs": [],
      "name": "INVALID_PARAM",
      "type": "error"
    },
    {
      "inputs": [],
      "name": "LAST_NEW_FUND_PROPOSAL_NOT_FINISH",
      "type": "error"
    },
    {
      "inputs": [],
      "name": "VOTING_NOT_FINISH",
      "type": "error"
    },
    {
      "anonymous": false,
      "inputs": [
        {
          "indexed": false,
          "internalType": "address",
          "name": "daoAddr",
          "type": "address"
        },
        {
          "indexed": false,
          "internalType": "bytes32",
          "name": "proposalId",
          "type": "bytes32"
        }
      ],
      "name": "ProposalCreated",
      "type": "event"
    },
    {
      "anonymous": false,
      "inputs": [
        {
          "indexed": false,
          "internalType": "address",
          "name": "daoAddr",
          "type": "address"
        },
        {
          "indexed": false,
          "internalType": "bytes32",
          "name": "proposalId",
          "type": "bytes32"
        },
        {
          "indexed": false,
          "internalType": "enum IVintageFundRaise.ProposalState",
          "name": "state",
          "type": "uint8"
        },
        {
          "indexed": false,
          "internalType": "uint128",
          "name": "allVotingWeight",
          "type": "uint128"
        },
        {
          "indexed": false,
          "internalType": "uint128",
          "name": "nbYes",
          "type": "uint128"
        },
        {
          "indexed": false,
          "internalType": "uint128",
          "name": "nbNo",
          "type": "uint128"
        },
        {
          "indexed": false,
          "internalType": "uint256",
          "name": "voteResult",
          "type": "uint256"
        }
      ],
      "name": "proposalExecuted",
      "type": "event"
    },
    {
      "inputs": [
        {
          "internalType": "address",
          "name": "",
          "type": "address"
        },
        {
          "internalType": "bytes32",
          "name": "",
          "type": "bytes32"
        }
      ],
      "name": "Proposals",
      "outputs": [
        {
          "internalType": "address",
          "name": "acceptTokenAddr",
          "type": "address"
        },
        {
          "components": [
            {
              "internalType": "uint256",
              "name": "fundRaiseTarget",
              "type": "uint256"
            },
            {
              "internalType": "uint256",
              "name": "fundRaiseMaxAmount",
              "type": "uint256"
            },
            {
              "internalType": "uint256",
              "name": "lpMinDepositAmount",
              "type": "uint256"
            },
            {
              "internalType": "uint256",
              "name": "lpMaxDepositAmount",
              "type": "uint256"
            }
          ],
          "internalType": "struct IVintageFundRaise.FundRaiseAmountInfo",
          "name": "amountInfo",
          "type": "tuple"
        },
        {
          "components": [
            {
              "internalType": "uint256",
              "name": "fundRaiseStartTime",
              "type": "uint256"
            },
            {
              "internalType": "uint256",
              "name": "fundRaiseEndTime",
              "type": "uint256"
            },
            {
              "internalType": "uint256",
              "name": "fundTerm",
              "type": "uint256"
            },
            {
              "internalType": "uint256",
              "name": "redemptPeriod",
              "type": "uint256"
            },
            {
              "internalType": "uint256",
              "name": "redemptDuration",
              "type": "uint256"
            },
            {
              "internalType": "uint256",
              "name": "refundDuration",
              "type": "uint256"
            }
          ],
          "internalType": "struct IVintageFundRaise.FundRiaseTimeInfo",
          "name": "timesInfo",
          "type": "tuple"
        },
        {
          "components": [
            {
              "internalType": "uint256",
              "name": "managementFeeRatio",
              "type": "uint256"
            },
            {
              "internalType": "uint256",
              "name": "paybackTokenManagementFeeRatio",
              "type": "uint256"
            },
            {
              "internalType": "uint256",
              "name": "redepmtFeeRatio",
              "type": "uint256"
            },
            {
              "internalType": "uint256",
              "name": "protocolFeeRatio",
              "type": "uint256"
            },
            {
              "internalType": "address",
              "name": "managementFeeAddress",
              "type": "address"
            }
          ],
          "internalType": "struct IVintageFundRaise.FundRaiseRewardAndFeeInfo",
          "name": "feeInfo",
          "type": "tuple"
        },
        {
          "components": [
            {
              "internalType": "uint256",
              "name": "fundFromInverstor",
              "type": "uint256"
            },
            {
              "internalType": "uint256",
              "name": "projectTokenFromInvestor",
              "type": "uint256"
            }
          ],
          "internalType": "struct IVintageFundRaise.ProoserReward",
          "name": "proposerReward",
          "type": "tuple"
        },
        {
          "components": [
            {
              "internalType": "bool",
              "name": "enable",
              "type": "bool"
            },
            {
              "internalType": "uint8",
              "name": "vtype",
              "type": "uint8"
            },
            {
              "internalType": "address",
              "name": "token",
              "type": "address"
            },
            {
              "internalType": "uint256",
              "name": "tokenId",
              "type": "uint256"
            },
            {
              "internalType": "uint256",
              "name": "amount",
              "type": "uint256"
            }
          ],
          "internalType": "struct IVintageFundRaise.PriorityDeposite",
          "name": "priorityDeposite",
          "type": "tuple"
        },
        {
          "internalType": "uint8",
          "name": "fundRaiseType",
          "type": "uint8"
        },
        {
          "internalType": "enum IVintageFundRaise.ProposalState",
          "name": "state",
          "type": "uint8"
        },
        {
          "internalType": "uint256",
          "name": "creationTime",
          "type": "uint256"
        },
        {
          "internalType": "uint256",
          "name": "stopVoteTime",
          "type": "uint256"
        }
      ],
      "stateMutability": "view",
      "type": "function"
    },
    {
      "inputs": [
        {
          "internalType": "address",
          "name": "",
          "type": "address"
        }
      ],
      "name": "createdFundCounter",
      "outputs": [
        {
          "internalType": "uint256",
          "name": "",
          "type": "uint256"
        }
      ],
      "stateMutability": "view",
      "type": "function"
    },
    {
      "inputs": [
        {
          "internalType": "address",
          "name": "dao",
          "type": "address"
        },
        {
          "internalType": "bytes32",
          "name": "proposalId",
          "type": "bytes32"
        }
      ],
      "name": "getWhiteList",
      "outputs": [
        {
          "internalType": "address[]",
          "name": "",
          "type": "address[]"
        }
      ],
      "stateMutability": "view",
      "type": "function"
    },
    {
      "inputs": [
        {
          "internalType": "contract DaoRegistry",
          "name": "dao",
          "type": "address"
        },
        {
          "internalType": "bytes32",
          "name": "proposalId",
          "type": "bytes32"
        },
        {
          "internalType": "address",
          "name": "account",
          "type": "address"
        }
      ],
      "name": "isPriorityDepositer",
      "outputs": [
        {
          "internalType": "bool",
          "name": "",
          "type": "bool"
        }
      ],
      "stateMutability": "view",
      "type": "function"
    },
    {
      "inputs": [
        {
          "internalType": "address",
          "name": "",
          "type": "address"
        }
      ],
      "name": "lastProposalIds",
      "outputs": [
        {
          "internalType": "bytes32",
          "name": "",
          "type": "bytes32"
        }
      ],
      "stateMutability": "view",
      "type": "function"
    },
    {
      "inputs": [
        {
          "internalType": "contract DaoRegistry",
          "name": "dao",
          "type": "address"
        },
        {
          "internalType": "bytes32",
          "name": "proposalId",
          "type": "bytes32"
        }
      ],
      "name": "processProposal",
      "outputs": [],
      "stateMutability": "nonpayable",
      "type": "function"
    },
    {
      "inputs": [
        {
          "components": [
            {
              "internalType": "contract DaoRegistry",
              "name": "dao",
              "type": "address"
            },
            {
              "components": [
                {
                  "internalType": "uint256",
                  "name": "fundRaiseMinTarget",
                  "type": "uint256"
                },
                {
                  "internalType": "uint256",
                  "name": "fundRaiseMaxCap",
                  "type": "uint256"
                },
                {
                  "internalType": "uint256",
                  "name": "lpMinDepositAmount",
                  "type": "uint256"
                },
                {
                  "internalType": "uint256",
                  "name": "lpMaxDepositAmount",
                  "type": "uint256"
                },
                {
                  "internalType": "uint8",
                  "name": "fundRaiseType",
                  "type": "uint8"
                }
              ],
              "internalType": "struct IVintageFundRaise.ProposalFundRaiseInfo",
              "name": "proposalFundRaiseInfo",
              "type": "tuple"
            },
            {
              "components": [
                {
                  "internalType": "uint256",
                  "name": "startTime",
                  "type": "uint256"
                },
                {
                  "internalType": "uint256",
                  "name": "endTime",
                  "type": "uint256"
                },
                {
                  "internalType": "uint256",
                  "name": "fundTerm",
                  "type": "uint256"
                },
                {
                  "internalType": "uint256",
                  "name": "redemptPeriod",
                  "type": "uint256"
                },
                {
                  "internalType": "uint256",
                  "name": "redemptInterval",
                  "type": "uint256"
                },
                {
                  "internalType": "uint256",
                  "name": "refundPeriod",
                  "type": "uint256"
                }
              ],
              "internalType": "struct IVintageFundRaise.ProposalTimeInfo",
              "name": "proposalTimeInfo",
              "type": "tuple"
            },
            {
              "components": [
                {
                  "internalType": "uint256",
                  "name": "managementFeeRatio",
                  "type": "uint256"
                },
                {
                  "internalType": "uint256",
                  "name": "paybackTokenManagementFeeRatio",
                  "type": "uint256"
                },
                {
                  "internalType": "uint256",
                  "name": "redepmtFeeRatio",
                  "type": "uint256"
                }
              ],
              "internalType": "struct IVintageFundRaise.ProposalFeeInfo",
              "name": "proposalFeeInfo",
              "type": "tuple"
            },
            {
              "components": [
                {
                  "internalType": "address",
                  "name": "managementFeeAddress",
                  "type": "address"
                },
                {
                  "internalType": "address",
                  "name": "fundRaiseTokenAddress",
                  "type": "address"
                }
              ],
              "internalType": "struct IVintageFundRaise.ProposalAddressInfo",
              "name": "proposalAddressInfo",
              "type": "tuple"
            },
            {
              "components": [
                {
                  "internalType": "uint256",
                  "name": "fundFromInverstor",
                  "type": "uint256"
                },
                {
                  "internalType": "uint256",
                  "name": "projectTokenFromInvestor",
                  "type": "uint256"
                }
              ],
              "internalType": "struct IVintageFundRaise.ProoserReward",
              "name": "proposerReward",
              "type": "tuple"
            },
            {
              "components": [
                {
                  "internalType": "bool",
                  "name": "enable",
                  "type": "bool"
                },
                {
                  "internalType": "uint8",
                  "name": "vtype",
                  "type": "uint8"
                },
                {
                  "internalType": "address",
                  "name": "token",
                  "type": "address"
                },
                {
                  "internalType": "uint256",
                  "name": "tokenId",
                  "type": "uint256"
                },
                {
                  "internalType": "uint256",
                  "name": "amount",
                  "type": "uint256"
                },
                {
                  "internalType": "address[]",
                  "name": "whitelist",
                  "type": "address[]"
                }
              ],
              "internalType": "struct IVintageFundRaise.ProposalPriorityDepositInfo",
              "name": "priorityDeposite",
              "type": "tuple"
            }
          ],
          "internalType": "struct IVintageFundRaise.ProposalParams",
          "name": "params",
          "type": "tuple"
        }
      ],
      "name": "submitProposal",
      "outputs": [],
      "stateMutability": "nonpayable",
      "type": "function"
    }
  ],
  "bytecode": "0x608060405234801561001057600080fd5b506157fb80620000216000396000f3fe608060405234801561001057600080fd5b506004361061007c5760003560e01c80634fc0a76d1161005b5780634fc0a76d146100e95780636d3cc040146101095780639573167d1461012c578063bf4999941461013f57600080fd5b8062610d721461008157806301c22a3d146100965780634122a485146100c9575b600080fd5b61009461008f366004615265565b6102bc565b005b6100b66100a4366004615005565b60026020526000908152604090205481565b6040519081526020015b60405180910390f35b6100dc6100d736600461503d565b611a7b565b6040516100c09190615505565b6100b66100f7366004615005565b60016020526000908152604090205481565b61011c6101173660046151be565b611ab3565b60405190151581526020016100c0565b61009461013a3660046151ac565b612001565b6102a661014d36600461503d565b60006020818152928152604080822084529181528190208054825160808082018552600184015482526002840154828701526003840154828601526004840154606080840191909152855160c08101875260058601548152600686015481890152600786015481880152600886015481830152600986015481840152600a86015460a08083019190915287518082018952600b8801548152600c880154818b0152600d880154818a0152600e88015481850152600f8801546001600160a01b03908116828701528951808b018b5260108a0154815260118a0154818d01528a519384018b5260128a015460ff8082161515865261010080830482169e87019e909e526201000090910483169b85019b909b5260138a01549584019590955260148901549583019590955260158801546016890154601790990154959097169995989297909693959194848416949290920490921691908a565b6040516100c09a999897969594939291906153c5565b6102c96020820182615005565b6102d38133612738565b6102e06020830183615005565b60006102eb8261281a565b905060006002816102ff6020880188615005565b6001600160a01b03166001600160a01b03168152602001908152602001600020541415801561048557506000808061033a6020880188615005565b6001600160a01b03166001600160a01b031681526020019081526020016000206000600260008860000160208101906103739190615005565b6001600160a01b03166001600160a01b0316815260200190815260200160002054815260200190815260200160002060150160019054906101000a900460ff1660038111156103d257634e487b7160e01b600052602160045260246000fd5b1480610485575060016000806103eb6020880188615005565b6001600160a01b03166001600160a01b031681526020019081526020016000206000600260008860000160208101906104249190615005565b6001600160a01b03166001600160a01b0316815260200190815260200160002054815260200190815260200160002060150160019054906101000a900460ff16600381111561048357634e487b7160e01b600052602160045260246000fd5b145b156104bc576040517fc49f1f0a00000000000000000000000000000000000000000000000000000000815260040160405180910390fd5b6105af604051806102e001604052806000815260200160006001600160a01b0316815260200160006001600160a01b0316815260200160006001600160a01b0316815260200160006001600160a01b0316815260200160008019168152602001600081526020016000815260200160008152602001600081526020016000815260200160008152602001600081526020016000815260200160008152602001600081526020016000815260200160008152602001600081526020016000815260200160006001600160a01b0316815260200160006001600160a01b0316815260200160006001600160a01b031681525090565b6105bc6020860186615005565b6040516317ba7d8560e01b81527f77cdf6056467142a33aa6f753fc1e3907f6850ebf08c7b63b107b0611a69b04e60048201526001600160a01b0391909116906317ba7d859060240160206040518083038186803b15801561061d57600080fd5b505afa158015610631573d6000803e3d6000fd5b505050506040513d601f19601f820116820180604052508101906106559190615021565b6001600160a01b03166102a08201819052639a0242fc6106786020880188615005565b6040516001600160e01b031960e084901b1681526001600160a01b03909116600482015260240160206040518083038186803b1580156106b757600080fd5b505afa1580156106cb573d6000803e3d6000fd5b505050506040513d601f19601f820116820180604052508101906106ef919061514b565b6107405760405162461bcd60e51b815260206004820152601660248201527f44616f5365742050726f706f73616c20556e646f6e650000000000000000000060448201526064015b60405180910390fd5b61074d6020860186615005565b6040516317ba7d8560e01b81527f0fd8cce4ef00a7a8c0c5f91194bc80f122deefe664dd2a2384687da62ab117d160048201526001600160a01b0391909116906317ba7d859060240160206040518083038186803b1580156107ae57600080fd5b505afa1580156107c2573d6000803e3d6000fd5b505050506040513d601f19601f820116820180604052508101906107e69190615021565b6001600160a01b03166102c0820181905260009063a5d6fb1361080c6020890189615005565b6040516001600160e01b031960e084901b1681526001600160a01b03909116600482015260240160206040518083038186803b15801561084b57600080fd5b505afa15801561085f573d6000803e3d6000fd5b505050506040513d601f19601f820116820180604052508101906108839190615194565b1115801561092957506102c08101516000906001600160a01b03166362e86df56108b06020890189615005565b6040516001600160e01b031960e084901b1681526001600160a01b03909116600482015260240160206040518083038186803b1580156108ef57600080fd5b505afa158015610903573d6000803e3d6000fd5b505050506040513d601f19601f820116820180604052508101906109279190615194565b145b6109755760405162461bcd60e51b815260206004820152601a60248201527f556e646f6e6520496e766573746d656e742050726f706f73616c0000000000006044820152606401610737565b6109826020860186615005565b604051634941d71d60e11b81527f9ce69cf04065e3c7823cc5540c0598d8a694bd7a9a5a2a786d8bccf14ed6e2ea60048201526001600160a01b039190911690639283ae3a9060240160206040518083038186803b1580156109e357600080fd5b505afa1580156109f7573d6000803e3d6000fd5b505050506040513d601f19601f82011682018060405250810190610a1b9190615194565b8152610a2a6020860186615005565b604051634941d71d60e11b81527fb0d4178853a5320a41f8c55fa6d58af06637e392beff71e66dba4e8f32c39bb860048201526001600160a01b039190911690639283ae3a9060240160206040518083038186803b158015610a8b57600080fd5b505afa158015610a9f573d6000803e3d6000fd5b505050506040513d601f19601f82011682018060405250810190610ac39190615194565b6101e0820152610ad66020860186615005565b6040516317ba7d8560e01b81527faaff643bdbd909f604d46ce015336f7e20fee3ac4a55cef3610188dee176c89260048201526001600160a01b0391909116906317ba7d859060240160206040518083038186803b158015610b3757600080fd5b505afa158015610b4b573d6000803e3d6000fd5b505050506040513d601f19601f82011682018060405250810190610b6f9190615021565b6001600160a01b031661028082018190526000906368abb5e0610b956020890189615005565b6040516001600160e01b031960e084901b1681526001600160a01b03909116600482015260240160206040518083038186803b158015610bd457600080fd5b505afa158015610be8573d6000803e3d6000fd5b505050506040513d601f19601f82011682018060405250810190610c0c9190615194565b1115610c5a5760405162461bcd60e51b815260206004820152600b60248201527f21636c6561722066756e640000000000000000000000000000000000000000006044820152606401610737565b60006102808201516001600160a01b0316631ee1a2b0610c7d6020890189615005565b6040516001600160e01b031960e084901b1681526001600160a01b03909116600482015260240160206040518083038186803b158015610cbc57600080fd5b505afa158015610cd0573d6000803e3d6000fd5b505050506040513d601f19601f82011682018060405250810190610cf491906151ff565b6003811115610d1357634e487b7160e01b600052602160045260246000fd5b1480610dd5575060036102808201516001600160a01b0316631ee1a2b0610d3d6020890189615005565b6040516001600160e01b031960e084901b1681526001600160a01b03909116600482015260240160206040518083038186803b158015610d7c57600080fd5b505afa158015610d90573d6000803e3d6000fd5b505050506040513d601f19601f82011682018060405250810190610db491906151ff565b6003811115610dd357634e487b7160e01b600052602160045260246000fd5b145b80610eb1575060026102808201516001600160a01b0316631ee1a2b0610dfe6020890189615005565b6040516001600160e01b031960e084901b1681526001600160a01b03909116600482015260240160206040518083038186803b158015610e3d57600080fd5b505afa158015610e51573d6000803e3d6000fd5b505050506040513d601f19601f82011682018060405250810190610e7591906151ff565b6003811115610e9457634e487b7160e01b600052602160045260246000fd5b148015610eb157506101e08101518151610eae9190615681565b42115b610efd5760405162461bcd60e51b815260206004820152600760248201527f6e6f74206e6f77000000000000000000000000000000000000000000000000006044820152606401610737565b8061028001516001600160a01b031663b0e21e8a6040518163ffffffff1660e01b815260040160206040518083038186803b158015610f3b57600080fd5b505afa158015610f4f573d6000803e3d6000fd5b505050506040513d601f19601f82011682018060405250810190610f739190615194565b61026082015260208501351580610f9f5750604085013515801590610f9f575060208501356040860135105b80610fa8575060005b80610fc95750608085013515801590610fc957506060850135608086013511155b80610fd757504260c0860135105b80610fe9575060c085013560e0860135105b80610ff75750610100850135155b8061100b5750610140850135610120860135115b8061101f5750610100850135610140860135115b80611034575061010085013561016086013510155b8061104c5750670de0b6b3a764000061018086013510155b80611055575060005b8061106d5750670de0b6b3a76400006101c086013510155b80611076575060005b8061107f575060005b806110975750670de0b6b3a764000061022086013510155b806110a0575060005b806110b85750670de0b6b3a764000061024086013510155b156110ef576040517f22ee6ae700000000000000000000000000000000000000000000000000000000815260040160405180910390fd5b6110fc6020860186615005565b6040516317ba7d8560e01b81527fd3999c37f8f35da86f802a74f9bf032c4aeb46e49abd9c861f489ef4cb40d0a860048201526001600160a01b0391909116906317ba7d859060240160206040518083038186803b15801561115d57600080fd5b505afa158015611171573d6000803e3d6000fd5b505050506040513d601f19601f820116820180604052508101906111959190615021565b6001600160a01b03166020808301919091526111b390860186615005565b6001600160a01b0316630b9411ba6040518163ffffffff1660e01b8152600401600060405180830381600087803b1580156111ed57600080fd5b505af1158015611201573d6000803e3d6000fd5b506112c492506112179150506020870187615005565b60c01b61129f61122a6020890189615005565b6001600160a01b031663a25950c56040518163ffffffff1660e01b815260040160206040518083038186803b15801561126257600080fd5b505afa158015611276573d6000803e3d6000fd5b505050506040513d601f19601f8201168201806040525081019061129a9190615194565b612ae5565b6040516020016112b09291906152fb565b604051602081830303815290604052612c3b565b60a08201526112d66020860186615005565b6001600160a01b031663b73dc3898260a001516040518263ffffffff1660e01b815260040161130791815260200190565b600060405180830381600087803b15801561132157600080fd5b505af1158015611335573d6000803e3d6000fd5b5050604080516101408101909152915081905061135a61022088016102008901615005565b6001600160a01b03168152604080516080808201835260208a81013583528a840135838201526060808c0135848601528b8301358185015281860193909352835160c080820186528c0135815260e08c0135818301526101008c0135818601526101208c0135818501526101408c0135818401526101608c013560a08083019190915285870191909152845190810185526101808c013581526101a08c0135918101919091526101c08b01359381019390935261026086015183830152920191810161142e6102008a016101e08b01615005565b6001600160a01b0316905281526040805180820182526102208901358152610240890135602082810191909152830152805160a081018252910190806114786102608a018a615610565b61148690602081019061512f565b1515815260200161149b6102608a018a615610565b6114ac9060408101906020016152b8565b60ff1681526020016114c26102608a018a615610565b6114d3906060810190604001615005565b6001600160a01b031681526020016114ef6102608a018a615610565b6060013581526020016115066102608a018a615610565b608001359052815260200161152160c0880160a089016152b8565b60ff168152602001600081526020014281526020018660000160208101906115499190615005565b604051634941d71d60e11b81527f9876c0f0505bfb2b1c38d3bbd25ba13159172cd0868972d76927723f5a9480fc60048201526001600160a01b039190911690639283ae3a9060240160206040518083038186803b1580156115aa57600080fd5b505afa1580156115be573d6000803e3d6000fd5b505050506040513d601f19601f820116820180604052508101906115e29190615194565b6115ec9042615681565b90526000806115fe6020890189615005565b6001600160a01b0390811682526020808301939093526040918201600090812060a080880151835290855290839020855181549084167fffffffffffffffffffffffff000000000000000000000000000000000000000091821617825586860151805160018401558087015160028401558086015160038085019190915560609182015160048501558887015180516005860155808901516006860155808801516007860155808301516008860155608080820151600987015590860151600a860155828a01518051600b870155808a0151600c87015580890151600d87015580840151600e870155810151600f86018054918916919095161790935582890151805160108601558801516011850155938801518051601285018054998301519883015190971662010000027fffffffffffffffffffff0000000000000000000000000000000000000000ffff60ff998a1661010090810261ff0019941515949094167fffffffffffffffffffffffffffffffffffffffffffffffffffffffffffff00009c8d16179390931716179096559081015160138401550151601482015560c0860151601582018054919095167fffffffffffffffffffffffffffffffffffffffffffffffffffffffffffffff0082168117865560e088015192969295949190921690911791849081111561180657634e487b7160e01b600052602160045260246000fd5b0217905550610100820151601682015561012090910151601790910155611831610260860186615610565b61183f90602081019061512f565b801561186c5750611854610260860186615610565b6118659060408101906020016152b8565b60ff166003145b801561189557506000611883610260870187615610565b6118919060a08101906155a3565b9050115b156118d0576118d06118aa6020870187615005565b60a08301516118bd610260890189615610565b6118cb9060a08101906155a3565b612c57565b6020808201516001600160a01b0316906326078cd0906118f290880188615005565b60a0840151604080516020810182526000815290516001600160e01b031960e086901b1681526119289392914291600401615552565b600060405180830381600087803b15801561194257600080fd5b505af1158015611956573d6000803e3d6000fd5b50611968925050506020860186615005565b6001600160a01b031663815a2bf48260a0015183602001516040518363ffffffff1660e01b81526004016119af9291909182526001600160a01b0316602082015260400190565b600060405180830381600087803b1580156119c957600080fd5b505af11580156119dd573d6000803e3d6000fd5b5050505060a0810151600260006119f76020890189615005565b6001600160a01b03168152602080820192909252604001600020919091557ffe22c13d0cc04eef2a813c30901da5f8cd64f5ba91866fccce71c606ce46487490611a4390870187615005565b60a0830151604080516001600160a01b03909316835260208301919091520160405180910390a150611a758282612ce3565b50505050565b6001600160a01b03821660009081526003602090815260408083208484529091529020606090611aaa90612cee565b90505b92915050565b604051634941d71d60e11b81527f6c2aeb5335c37bc984e34d16b5daacfd3a43d3358ad5314ed1a17f8b68bc10a560048201526000906001600160a01b03851690639283ae3a9060240160206040518083038186803b158015611b1557600080fd5b505afa158015611b29573d6000803e3d6000fd5b505050506040513d601f19601f82011682018060405250810190611b4d9190615194565b60011415611ff657604051634941d71d60e11b81527f1710acff43ba8f339e18305d5d5116602e0cf6b226983bae821884b877626aa660048201526000906001600160a01b03861690639283ae3a9060240160206040518083038186803b158015611bb757600080fd5b505afa158015611bcb573d6000803e3d6000fd5b505050506040513d601f19601f82011682018060405250810190611bef9190615194565b60405163fd310d2960e01b81527f3b45967f728449b4fbffd6027f6b8d86035e572016480c7bc2a55edeec4f3ca560048201529091506000906001600160a01b0387169063fd310d299060240160206040518083038186803b158015611c5457600080fd5b505afa158015611c68573d6000803e3d6000fd5b505050506040513d601f19601f82011682018060405250810190611c8c9190615021565b604051634941d71d60e11b81527f20d88b77300b4133cc1f146fdec45d5266086bc18b256e8e607ef37ec1d047b260048201529091506000906001600160a01b03881690639283ae3a9060240160206040518083038186803b158015611cf157600080fd5b505afa158015611d05573d6000803e3d6000fd5b505050506040513d601f19601f82011682018060405250810190611d299190615194565b604051634941d71d60e11b81527f04d4d5cbde9f5c38336ca61af88f78d20a912993a64a3951a1cc2ccd8bb0e89960048201529091506000906001600160a01b03891690639283ae3a9060240160206040518083038186803b158015611d8e57600080fd5b505afa158015611da2573d6000803e3d6000fd5b505050506040513d601f19601f82011682018060405250810190611dc69190615194565b905083158015611e5057506040516370a0823160e01b81526001600160a01b0387811660048301528391908516906370a082319060240160206040518083038186803b158015611e1557600080fd5b505afa158015611e29573d6000803e3d6000fd5b505050506040513d601f19601f82011682018060405250810190611e4d9190615194565b10155b15611e62576001945050505050611ffa565b836001148015611eec57506040516370a0823160e01b81526001600160a01b0387811660048301528391908516906370a082319060240160206040518083038186803b158015611eb157600080fd5b505afa158015611ec5573d6000803e3d6000fd5b505050506040513d601f19601f82011682018060405250810190611ee99190615194565b10155b15611efe576001945050505050611ffa565b836002148015611f8d5750604051627eeac760e11b81526001600160a01b0387811660048301526024820183905283919085169062fdd58e9060440160206040518083038186803b158015611f5257600080fd5b505afa158015611f66573d6000803e3d6000fd5b505050506040513d601f19601f82011682018060405250810190611f8a9190615194565b10155b15611f9f576001945050505050611ffa565b836003148015611fd757506001600160a01b03881660009081526003602090815260408083208a84529091529020611fd79087612cfb565b15611fe9576001945050505050611ffa565b6000945050505050611ffa565b5060005b9392505050565b81600061200d8261281a565b9050612017614e4a565b6001600160a01b0385166000818152602081815260408083208884529091529081902090517f30490e91000000000000000000000000000000000000000000000000000000008152600481018790529091906330490e9190602401600060405180830381600087803b15801561208c57600080fd5b505af11580156120a0573d6000803e3d6000fd5b50506040516317ba7d8560e01b81527faaff643bdbd909f604d46ce015336f7e20fee3ac4a55cef3610188dee176c89260048201526001600160a01b03891692506317ba7d85915060240160206040518083038186803b15801561210357600080fd5b505afa158015612117573d6000803e3d6000fd5b505050506040513d601f19601f8201168201806040525081019061213b9190615021565b6001600160a01b0390811660608401526040517f40de703e00000000000000000000000000000000000000000000000000000000815260048101879052908716906340de703e9060240160206040518083038186803b15801561219d57600080fd5b505afa1580156121b1573d6000803e3d6000fd5b505050506040513d601f19601f820116820180604052508101906121d59190615021565b6001600160a01b0316602083018190526122315760405162461bcd60e51b815260206004820152601860248201527f766f74696e672061646170746572206e6f7420666f756e6400000000000000006044820152606401610737565b60208201516040517f76225e730000000000000000000000000000000000000000000000000000000081526001600160a01b03888116600483015260248201889052909116906376225e739060440160606040518083038186803b15801561229857600080fd5b505afa1580156122ac573d6000803e3d6000fd5b505050506040513d601f19601f820116820180604052508101906122d0919061521e565b6fffffffffffffffffffffffffffffffff80821660c0870152821660a08601526080850183600581111561231457634e487b7160e01b600052602160045260246000fd5b600581111561233357634e487b7160e01b600052602160045260246000fd5b905250600291506123419050565b8260800151600581111561236557634e487b7160e01b600052602160045260246000fd5b14156125fc5760158101805461010061ff00198216811792839055604080516101408101825285546001600160a01b0390811682528251608080820185526001890154825260028901546020808401919091526003808b01548488015260048b015460608086019190915282870194909452865160c0808201895260058d0154825260068d01548285015260078d0154828a015260088d01548287015260098d015482860152600a8d015460a080840191909152888a019290925288518083018a52600b8e01548152600c8e015481860152600d8e0154818b0152600e8e015481880152600f8e0154881681870152868901528851808a018a5260108e0154815260118e0154818601528589015288518083018a5260128e015460ff808216151583528c82048116968301969096526201000090049097169887019890985260138c01549486019490945260148b015492850192909252918401929092529485169282019290925261253b948b949193879360e08601939190920416908111156124ff57634e487b7160e01b600052602160045260246000fd5b600381111561251e57634e487b7160e01b600052602160045260246000fd5b815260200160168201548152602001601782015481525050612d1d565b60608201516040517ff10e6b6b0000000000000000000000000000000000000000000000000000000081526001600160a01b0388811660048301529091169063f10e6b6b90602401600060405180830381600087803b15801561259d57600080fd5b505af11580156125b1573d6000803e3d6000fd5b5050505060158101805461ff0019166102001790556001600160a01b038616600090815260016020819052604082208054919290916125f1908490615681565b9091555061269e9050565b60038260800151600581111561262257634e487b7160e01b600052602160045260246000fd5b1480612651575060018260800151600581111561264f57634e487b7160e01b600052602160045260246000fd5b145b1561266c5760158101805461ff00191661030017905561269e565b6040517f70fc772800000000000000000000000000000000000000000000000000000000815260040160405180910390fd5b60006126aa8787612f12565b90507f2bdcd9364cd03f3b390f2f088b6dcef6ef67097a47a0a392d981c4ee723771be87878460150160019054906101000a900460ff16848760a001518860c001518960800151600581111561271057634e487b7160e01b600052602160045260246000fd5b6040516127239796959493929190615369565b60405180910390a1505050611a758282612ce3565b6040517fa230c5240000000000000000000000000000000000000000000000000000000081526001600160a01b03828116600483015283169063a230c5249060240160206040518083038186803b15801561279257600080fd5b505afa1580156127a6573d6000803e3d6000fd5b505050506040513d601f19601f820116820180604052508101906127ca919061514b565b6128165760405162461bcd60e51b815260206004820152600c60248201527f6f6e6c79476f7665726e6f7200000000000000000000000000000000000000006044820152606401610737565b5050565b6040805160808101825260008082526020820181905291810182905260608101919091525a81600001818152505043826001600160a01b031663b21634826040518163ffffffff1660e01b815260040160206040518083038186803b15801561288257600080fd5b505afa158015612896573d6000803e3d6000fd5b505050506040513d601f19601f820116820180604052508101906128ba9190615194565b14156129085760405162461bcd60e51b815260206004820152601060248201527f7265656e7472616e6379206775617264000000000000000000000000000000006044820152606401610737565b816001600160a01b03166310fdb0a26040518163ffffffff1660e01b8152600401600060405180830381600087803b15801561294357600080fd5b505af1158015612957573d6000803e3d6000fd5b50506040517f72c6838f0000000000000000000000000000000000000000000000000000000081527f1f2fd42ad6a6cacd573c4b212beb7a4e2499ad45d742a65337097f130e71daff6004820152600092506001600160a01b03851691506372c6838f9060240160206040518083038186803b1580156129d657600080fd5b505afa1580156129ea573d6000803e3d6000fd5b505050506040513d601f19601f82011682018060405250810190612a0e9190615021565b90506001600160a01b038116612a2a5760006020830152612adf565b6001600160a01b038181166060840181905283516040517f43a8a3f1000000000000000000000000000000000000000000000000000000008152928616600484015260248301526000918291906343a8a3f190604401604080518083038186803b158015612a9757600080fd5b505afa158015612aab573d6000803e3d6000fd5b505050506040513d601f19601f82011682018060405250810190612acf9190615167565b9015156020860152604085015250505b50919050565b606081612b2557505060408051808201909152600181527f3000000000000000000000000000000000000000000000000000000000000000602082015290565b8160005b8115612b4f5780612b39816156f0565b9150612b489050600a83615699565b9150612b29565b60008167ffffffffffffffff811115612b7857634e487b7160e01b600052604160045260246000fd5b6040519080825280601f01601f191660200182016040528015612ba2576020820181803683370190505b5090505b8415612c3357612bb76001836156ad565b9150612bc4600a86615749565b612bcf906030615681565b60f81b818381518110612bf257634e487b7160e01b600052603260045260246000fd5b60200101907effffffffffffffffffffffffffffffffffffffffffffffffffffffffffffff1916908160001a905350612c2c600a86615699565b9450612ba6565b949350505050565b6000815160001415612c4f57506000919050565b506020015190565b60005b60ff8116821115612cdc57612cc983838360ff16818110612c8b57634e487b7160e01b600052603260045260246000fd5b9050602002016020810190612ca09190615005565b6001600160a01b038716600090815260036020908152604080832089845290915290209061323e565b5080612cd481615729565b915050612c5a565b5050505050565b612816828233613253565b60606000611ffa83613349565b6001600160a01b03811660009081526001830160205260408120541515611aaa565b612d678260405180608001604052808460200151600001518152602001846020015160200151815260200184602001516040015181526020018460200151606001518152506133a5565b612dcd826040518060c0016040528084604001516000015181526020018460400151602001518152602001846040015160400151815260200184604001516060015181526020018460400151608001518152602001846040015160a001518152506135c9565b604080518082019091526060820151608001516001600160a01b0390811682528251166020820152612e0090839061389d565b612e58826040518060a00160405280846060015160000151815260200184606001516040015181526020018460800151600001518152602001846080015160200151815260200184606001516020015181525061397b565b60c0810151604051630da0f6c760e41b81527fbe07eea886ce63e8ab49ef6fd986e9dea247fbb31da43dd1df3e153cc548277a600482015260ff90911660248201526001600160a01b0383169063da0f6c7090604401600060405180830381600087803b158015612ec857600080fd5b505af1158015612edc573d6000803e3d6000fd5b5050505060a081015151156128165760a08101516020810151604082015160608301516080909301516128169386939291613bc9565b600080836001600160a01b031663a6f636416040518163ffffffff1660e01b815260040160006040518083038186803b158015612f4e57600080fd5b505afa158015612f62573d6000803e3d6000fd5b505050506040513d6000823e601f3d908101601f19168201604052612f8a9190810190615068565b6040516317ba7d8560e01b81527fd3999c37f8f35da86f802a74f9bf032c4aeb46e49abd9c861f489ef4cb40d0a8600482015290915060009081906001600160a01b038716906317ba7d859060240160206040518083038186803b158015612ff157600080fd5b505afa158015613005573d6000803e3d6000fd5b505050506040513d601f19601f820116820180604052508101906130299190615021565b905060005b83518160ff16101561323357816001600160a01b03166324a2cceb8888878560ff168151811061306e57634e487b7160e01b600052603260045260246000fd5b60200260200101516040518463ffffffff1660e01b81526004016130b2939291906001600160a01b0393841681526020810192909252909116604082015260600190565b60206040518083038186803b1580156130ca57600080fd5b505afa1580156130de573d6000803e3d6000fd5b505050506040513d601f19601f82011682018060405250810190613102919061514b565b156131e057816001600160a01b03166391d2fd538888878560ff168151811061313b57634e487b7160e01b600052603260045260246000fd5b60200260200101516040518463ffffffff1660e01b815260040161317f939291906001600160a01b0393841681526020810192909252909116604082015260600190565b60206040518083038186803b15801561319757600080fd5b505afa1580156131ab573d6000803e3d6000fd5b505050506040513d601f19601f820116820180604052508101906131cf919061529e565b6131d9908461564d565b9250613221565b61321487858360ff168151811061320757634e487b7160e01b600052603260045260246000fd5b6020026020010151613e53565b61321e908461564d565b92505b8061322b81615729565b91505061302e565b509095945050505050565b6000611aaa836001600160a01b038416614cca565b8160200151156132f15781606001516001600160a01b0316635e5eb01384835a865161327f91906156ad565b60408088015190516001600160e01b031960e087901b1681526001600160a01b03948516600482015293909216602484015260448301526064820152608401600060405180830381600087803b1580156132d857600080fd5b505af11580156132ec573d6000803e3d6000fd5b505050505b826001600160a01b031663d4f7af436040518163ffffffff1660e01b8152600401600060405180830381600087803b15801561332c57600080fd5b505af1158015613340573d6000803e3d6000fd5b50505050505050565b60608160000180548060200260200160405190810160405280929190818152602001828054801561339957602002820191906000526020600020905b815481526020019060010190808311613385575b50505050509050919050565b8051604051630da0f6c760e41b81527f31af571e53636dddd77f772cce9d30b42075760f2da731636acc6962da2fbef8600482015260248101919091526001600160a01b0383169063da0f6c7090604401600060405180830381600087803b15801561341057600080fd5b505af1158015613424573d6000803e3d6000fd5b5050506020820151604051630da0f6c760e41b81527f7e07fb4530796d057ca1d76d83f47aa8629dbb7e942ac28f30ad6f5e9e8d4189600482015260248101919091526001600160a01b038416915063da0f6c7090604401600060405180830381600087803b15801561349657600080fd5b505af11580156134aa573d6000803e3d6000fd5b5050506040808301519051630da0f6c760e41b81527fbdd40865e74210f0a46799ae63462c62010da92014a08cbc32f1d049d0a22c6b600482015260248101919091526001600160a01b038416915063da0f6c7090604401600060405180830381600087803b15801561351c57600080fd5b505af1158015613530573d6000803e3d6000fd5b5050506001600160a01b038316905063da0f6c707f5fa39c8100b49336846e52d39403e353bf782275f905a885f09224779ff1c9248360035b60200201516040516001600160e01b031960e085901b168152600481019290925260248201526044015b600060405180830381600087803b1580156135ad57600080fd5b505af11580156135c1573d6000803e3d6000fd5b505050505050565b8051604051630da0f6c760e41b81527fbd04d44792b7dbfe3b50b0f9f2006f7ef449e374a39021cb9bfa7cd0bdd850d7600482015260248101919091526001600160a01b0383169063da0f6c7090604401600060405180830381600087803b15801561363457600080fd5b505af1158015613648573d6000803e3d6000fd5b5050506020820151604051630da0f6c760e41b81527f533afc15b6312917b5e28e2272ea69d44e5ea8e00d3bd57cada1275c2f14c9e8600482015260248101919091526001600160a01b038416915063da0f6c7090604401600060405180830381600087803b1580156136ba57600080fd5b505af11580156136ce573d6000803e3d6000fd5b5050506040808301519051630da0f6c760e41b81527ffbf58be2732249b32b8ee6ccb5eed8655c2fb8a45fe937b71c312b6e209f1380600482015260248101919091526001600160a01b038416915063da0f6c7090604401600060405180830381600087803b15801561374057600080fd5b505af1158015613754573d6000803e3d6000fd5b5050506060820151604051630da0f6c760e41b81527f6a2acfe6164f3ec20e6d80e2f4e4f7ae2b9962615c9596c872d01f6cd244aed3600482015260248101919091526001600160a01b038416915063da0f6c7090604401600060405180830381600087803b1580156137c657600080fd5b505af11580156137da573d6000803e3d6000fd5b5050506080820151604051630da0f6c760e41b81527f2305fa3a9f84625f75d70f539e621c658cf49e7477ab5af9cacd278ca7904e30600482015260248101919091526001600160a01b038416915063da0f6c7090604401600060405180830381600087803b15801561384c57600080fd5b505af1158015613860573d6000803e3d6000fd5b5050506001600160a01b038316905063da0f6c707fb0d4178853a5320a41f8c55fa6d58af06637e392beff71e66dba4e8f32c39bb8836005613569565b8051604051631da7c90d60e11b81527f5460409b9aa4688f80c10b29c3d7ad16025f050f472a6882a45fa7bb9bd12fb160048201526001600160a01b03918216602482015290831690633b4f921a90604401600060405180830381600087803b15801561390957600080fd5b505af115801561391d573d6000803e3d6000fd5b5050506020820151604051631da7c90d60e11b81527f7fa36390a0e9b8b8004035572fd8345b1128cea12d1763a1baf8fbd4fb7b202760048201526001600160a01b0391821660248201529084169150633b4f921a90604401613593565b8051604051630da0f6c760e41b81527f11618fa890234170104debf73b2563b667bd200bac1d7d8dd024e2f3fadaefd2600482015260248101919091526001600160a01b0383169063da0f6c7090604401600060405180830381600087803b1580156139e657600080fd5b505af11580156139fa573d6000803e3d6000fd5b5050506020820151604051630da0f6c760e41b81527f3e453820e0fc9cb9a1e799559661cf9c1db4cc7d7fbcb7e0fdaf884cbe29c356600482015260248101919091526001600160a01b038416915063da0f6c7090604401600060405180830381600087803b158015613a6c57600080fd5b505af1158015613a80573d6000803e3d6000fd5b5050506040808301519051630da0f6c760e41b81527f66ed99f9a48fc961fffd6425cceb65d9444f5bda8af3bc46d14fd6b5a844fde5600482015260248101919091526001600160a01b038416915063da0f6c7090604401600060405180830381600087803b158015613af257600080fd5b505af1158015613b06573d6000803e3d6000fd5b5050506060820151604051630da0f6c760e41b81527f23bba46e5025fb6d2325c93cad4f861289d697c0913f7e18dab6bb065e2bdc28600482015260248101919091526001600160a01b038416915063da0f6c7090604401600060405180830381600087803b158015613b7857600080fd5b505af1158015613b8c573d6000803e3d6000fd5b5050506001600160a01b038316905063da0f6c707f0e8185cfd5d91894cd75ba6858a811ccb98f89440700b6d75931c8de1e97fa02836004613569565b604051630da0f6c760e41b81527f6c2aeb5335c37bc984e34d16b5daacfd3a43d3358ad5314ed1a17f8b68bc10a56004820152600160248201526001600160a01b0386169063da0f6c7090604401600060405180830381600087803b158015613c3157600080fd5b505af1158015613c45573d6000803e3d6000fd5b5050604051630da0f6c760e41b81527f1710acff43ba8f339e18305d5d5116602e0cf6b226983bae821884b877626aa6600482015260ff871660248201526001600160a01b038816925063da0f6c709150604401600060405180830381600087803b158015613cb357600080fd5b505af1158015613cc7573d6000803e3d6000fd5b5050604051630da0f6c760e41b81527f04d4d5cbde9f5c38336ca61af88f78d20a912993a64a3951a1cc2ccd8bb0e8996004820152602481018590526001600160a01b038816925063da0f6c709150604401600060405180830381600087803b158015613d3357600080fd5b505af1158015613d47573d6000803e3d6000fd5b5050604051630da0f6c760e41b81527f20d88b77300b4133cc1f146fdec45d5266086bc18b256e8e607ef37ec1d047b26004820152602481018490526001600160a01b038816925063da0f6c709150604401600060405180830381600087803b158015613db357600080fd5b505af1158015613dc7573d6000803e3d6000fd5b5050604051631da7c90d60e11b81527f3b45967f728449b4fbffd6027f6b8d86035e572016480c7bc2a55edeec4f3ca560048201526001600160a01b03868116602483015288169250633b4f921a9150604401600060405180830381600087803b158015613e3457600080fd5b505af1158015613e48573d6000803e3d6000fd5b505050505050505050565b6040516317ba7d8560e01b81527faaff643bdbd909f604d46ce015336f7e20fee3ac4a55cef3610188dee176c892600482015260009081906001600160a01b038516906317ba7d859060240160206040518083038186803b158015613eb757600080fd5b505afa158015613ecb573d6000803e3d6000fd5b505050506040513d601f19601f82011682018060405250810190613eef9190615021565b6040516317ba7d8560e01b81527fa837e34a29b67bf52f684a1c93def79b84b9c012732becee4e5df62809df64ed60048201529091506000906001600160a01b038616906317ba7d859060240160206040518083038186803b158015613f5457600080fd5b505afa158015613f68573d6000803e3d6000fd5b505050506040513d601f19601f82011682018060405250810190613f8c9190615021565b6040516317ba7d8560e01b81527f1fa6846b165d822fff79e37c67625706652fa9380c2aa49fd513ce534cc72ed460048201529091506000906001600160a01b038716906317ba7d859060240160206040518083038186803b158015613ff157600080fd5b505afa158015614005573d6000803e3d6000fd5b505050506040513d601f19601f820116820180604052508101906140299190615021565b604051634941d71d60e11b81527f686efe7bd1699b408d306db6bbee658ed667971c52d48d6912d7ee496e36e62760048201529091506000906001600160a01b03881690639283ae3a9060240160206040518083038186803b15801561408e57600080fd5b505afa1580156140a2573d6000803e3d6000fd5b505050506040513d601f19601f820116820180604052508101906140c69190615194565b604051634941d71d60e11b81527fb75eae231d9582c6afc6491273df4a0ffbccd48ab2c48dbce59e5d68f2d19dc460048201529091506000906001600160a01b03891690639283ae3a9060240160206040518083038186803b15801561412b57600080fd5b505afa15801561413f573d6000803e3d6000fd5b505050506040513d601f19601f820116820180604052508101906141639190615194565b9050806001141561474857604051634941d71d60e11b81527e634460a4b60c2e1bf8c87bfc42b6b68fd2a71f4bb2d760816eabc5038b503660048201526000906001600160a01b038a1690639283ae3a9060240160206040518083038186803b1580156141cf57600080fd5b505afa1580156141e3573d6000803e3d6000fd5b505050506040513d601f19601f820116820180604052508101906142079190615194565b60405163fd310d2960e01b81527fcd9b30ab6388c165d825b60b7d393528191ba59d975b4b1b52b7184b63b8a97c60048201529091506000906001600160a01b038b169063fd310d299060240160206040518083038186803b15801561426c57600080fd5b505afa158015614280573d6000803e3d6000fd5b505050506040513d601f19601f820116820180604052508101906142a49190615021565b9050600084614343576040516370a0823160e01b81526001600160a01b038b81166004830152670de0b6b3a764000091908416906370a08231906024015b60206040518083038186803b1580156142fa57600080fd5b505afa15801561430e573d6000803e3d6000fd5b505050506040513d601f19601f820116820180604052508101906143329190615194565b61433c9190615699565b90506146d9565b84600114156143c6576040516370a0823160e01b81526001600160a01b038b811660048301528316906370a08231906024015b60206040518083038186803b15801561438e57600080fd5b505afa1580156143a2573d6000803e3d6000fd5b505050506040513d601f19601f8201168201806040525081019061433c9190615194565b846002141561440257604051627eeac760e11b81526001600160a01b038b811660048301526024820185905283169062fdd58e90604401614376565b846003141561445a576040517fa6d945cc0000000000000000000000000000000000000000000000000000000081526001600160a01b038c811660048301528b8116602483015287169063a6d945cc90604401614376565b84600414156146c85760026040517f1ee1a2b00000000000000000000000000000000000000000000000000000000081526001600160a01b038d811660048301528a1690631ee1a2b09060240160206040518083038186803b1580156144bf57600080fd5b505afa1580156144d3573d6000803e3d6000fd5b505050506040513d601f19601f820116820180604052508101906144f791906151ff565b600381111561451657634e487b7160e01b600052602160045260246000fd5b1480156145b85750604051634941d71d60e11b81527f9ce69cf04065e3c7823cc5540c0598d8a694bd7a9a5a2a786d8bccf14ed6e2ea60048201526001600160a01b038c1690639283ae3a9060240160206040518083038186803b15801561457d57600080fd5b505afa158015614591573d6000803e3d6000fd5b505050506040513d601f19601f820116820180604052508101906145b59190615194565b42105b801561465857506040517f4fc0a76d0000000000000000000000000000000000000000000000000000000081526001600160a01b038c8116600483015260019190891690634fc0a76d9060240160206040518083038186803b15801561461d57600080fd5b505afa158015614631573d6000803e3d6000fd5b505050506040513d601f19601f820116820180604052508101906146559190615194565b10155b156146b7576040517ff7888aec0000000000000000000000000000000000000000000000000000000081526001600160a01b038c811660048301528b81166024830152670de0b6b3a764000091908a169063f7888aec906044016142e2565b600198505050505050505050611aad565b600098505050505050505050611aad565b600081116146f257600098505050505050505050611aad565b677fffffffffffffff811061471257603298505050505050505050611aad565b600061472d61472861472384614d19565b614d37565b614e2e565b67ffffffffffffffff169950611aad98505050505050505050565b806002141561475f57600195505050505050611aad565b80614cbc57604051634941d71d60e11b81527e634460a4b60c2e1bf8c87bfc42b6b68fd2a71f4bb2d760816eabc5038b503660048201526000906001600160a01b038a1690639283ae3a9060240160206040518083038186803b1580156147c557600080fd5b505afa1580156147d9573d6000803e3d6000fd5b505050506040513d601f19601f820116820180604052508101906147fd9190615194565b60405163fd310d2960e01b81527fcd9b30ab6388c165d825b60b7d393528191ba59d975b4b1b52b7184b63b8a97c60048201529091506000906001600160a01b038b169063fd310d299060240160206040518083038186803b15801561486257600080fd5b505afa158015614876573d6000803e3d6000fd5b505050506040513d601f19601f8201168201806040525081019061489a9190615021565b9050600084614939576040516370a0823160e01b81526001600160a01b038b81166004830152670de0b6b3a764000091908416906370a08231906024015b60206040518083038186803b1580156148f057600080fd5b505afa158015614904573d6000803e3d6000fd5b505050506040513d601f19601f820116820180604052508101906149289190615194565b6149329190615699565b9050614cad565b84600114156149bc576040516370a0823160e01b81526001600160a01b038b811660048301528316906370a08231906024015b60206040518083038186803b15801561498457600080fd5b505afa158015614998573d6000803e3d6000fd5b505050506040513d601f19601f820116820180604052508101906149329190615194565b84600214156149f857604051627eeac760e11b81526001600160a01b038b811660048301526024820185905283169062fdd58e9060440161496c565b8460031415614a50576040517fa6d945cc0000000000000000000000000000000000000000000000000000000081526001600160a01b038c811660048301528b8116602483015287169063a6d945cc9060440161496c565b84600414156146c85760026040517f1ee1a2b00000000000000000000000000000000000000000000000000000000081526001600160a01b038d811660048301528a1690631ee1a2b09060240160206040518083038186803b158015614ab557600080fd5b505afa158015614ac9573d6000803e3d6000fd5b505050506040513d601f19601f82011682018060405250810190614aed91906151ff565b6003811115614b0c57634e487b7160e01b600052602160045260246000fd5b148015614bae5750604051634941d71d60e11b81527f9ce69cf04065e3c7823cc5540c0598d8a694bd7a9a5a2a786d8bccf14ed6e2ea60048201526001600160a01b038c1690639283ae3a9060240160206040518083038186803b158015614b7357600080fd5b505afa158015614b87573d6000803e3d6000fd5b505050506040513d601f19601f82011682018060405250810190614bab9190615194565b42105b8015614c4e57506040517f4fc0a76d0000000000000000000000000000000000000000000000000000000081526001600160a01b038c8116600483015260019190891690634fc0a76d9060240160206040518083038186803b158015614c1357600080fd5b505afa158015614c27573d6000803e3d6000fd5b505050506040513d601f19601f82011682018060405250810190614c4b9190615194565b10155b156146b7576040517ff7888aec0000000000000000000000000000000000000000000000000000000081526001600160a01b038c811660048301528b81166024830152670de0b6b3a764000091908a169063f7888aec906044016148d8565b9750611aad9650505050505050565b600095505050505050611aad565b6000818152600183016020526040812054614d1157508154600181810184556000848152602080822090930184905584548482528286019093526040902091909155611aad565b506000611aad565b6000677fffffffffffffff821115614d3057600080fd5b5060401b90565b60008082600f0b13614d4857600080fd5b6000600f83900b680100000000000000008112614d67576040918201911d5b6401000000008112614d7b576020918201911d5b620100008112614d8d576010918201911d5b6101008112614d9e576008918201911d5b60108112614dae576004918201911d5b60048112614dbe576002918201911d5b60028112614dcd576001820191505b7fffffffffffffffffffffffffffffffffffffffffffffffffffffffffffffffc0820160401b600f85900b607f8490031b6780000000000000005b60008113156132335790800260ff81901c8281029390930192607f011c9060011d614e08565b60008082600f0b1215614e4057600080fd5b50600f0b60401d90565b6040805161012081018252600080825260208201819052918101829052606081018290529060808201908152600060208201819052604082018190526060820152608001614e96614e9b565b905290565b60405180610140016040528060006001600160a01b03168152602001614ee26040518060800160405280600081526020016000815260200160008152602001600081525090565b8152602001614f206040518060c001604052806000815260200160008152602001600081526020016000815260200160008152602001600081525090565b8152602001614f606040518060a001604052806000815260200160008152602001600081526020016000815260200160006001600160a01b031681525090565b8152602001614f82604051806040016040528060008152602001600081525090565b81526040805160a081018252600080825260208281018290529282018190526060820181905260808201529101908152600060208201819052604090910190815260200160008152602001600081525090565b8051614fe08161579f565b919050565b80516fffffffffffffffffffffffffffffffff81168114614fe057600080fd5b600060208284031215615016578081fd5b8135611ffa8161579f565b600060208284031215615032578081fd5b8151611ffa8161579f565b6000806040838503121561504f578081fd5b823561505a8161579f565b946020939093013593505050565b6000602080838503121561507a578182fd5b825167ffffffffffffffff80821115615091578384fd5b818501915085601f8301126150a4578384fd5b8151818111156150b6576150b6615789565b8060051b604051601f19603f830116810181811085821117156150db576150db615789565b604052828152858101935084860182860187018a10156150f9578788fd5b8795505b838610156151225761510e81614fd5565b8552600195909501949386019386016150fd565b5098975050505050505050565b600060208284031215615140578081fd5b8135611ffa816157b7565b60006020828403121561515c578081fd5b8151611ffa816157b7565b60008060408385031215615179578182fd5b8251615184816157b7565b6020939093015192949293505050565b6000602082840312156151a5578081fd5b5051919050565b6000806040838503121561504f578182fd5b6000806000606084860312156151d2578081fd5b83356151dd8161579f565b92506020840135915060408401356151f48161579f565b809150509250925092565b600060208284031215615210578081fd5b815160048110611ffa578182fd5b600080600060608486031215615232578081fd5b835160068110615240578182fd5b925061524e60208501614fe5565b915061525c60408501614fe5565b90509250925092565b600060208284031215615276578081fd5b813567ffffffffffffffff81111561528c578182fd5b82016102808185031215611ffa578182fd5b6000602082840312156152af578081fd5b611aaa82614fe5565b6000602082840312156152c9578081fd5b813560ff81168114611ffa578182fd5b600481106152f757634e487b7160e01b600052602160045260246000fd5b9052565b7fffffffffffffffff000000000000000000000000000000000000000000000000831681527f46756e6445737461626c6973686d656e7423000000000000000000000000000060088201526000825161535b81601a8501602087016156c4565b91909101601a019392505050565b6001600160a01b03881681526020810187905260e0810161538d60408301886152d9565b6fffffffffffffffffffffffffffffffff958616606083015293851660808201529190931660a082015260c001919091529392505050565b6000610360820190506001600160a01b038c1682528a51602083015260208b0151604083015260408b0151606083015260608b0151608083015261544160a083018b805182526020810151602083015260408101516040830152606081015160608301526080810151608083015260a081015160a08301525050565b8851610160830152602089015161018083015260408901516101a083015260608901516101c083015260808901516001600160a01b03166101e08301528751610200830152602088015161022083015286511515610240830152602087015160ff1661026083015260408701516001600160a01b031661028083015260608701516102a083015260808701516102c083015260ff86166102e08301526154eb6103008301866152d9565b610320820193909352610340015298975050505050505050565b6020808252825182820181905260009190848201906040850190845b818110156155465783516001600160a01b031683529284019291840191600101615521565b50909695505050505050565b6001600160a01b0385168152836020820152826040820152608060608201526000825180608084015261558c8160a08501602087016156c4565b601f01601f19169190910160a00195945050505050565b60008083357fffffffffffffffffffffffffffffffffffffffffffffffffffffffffffffffe18436030181126155d7578283fd5b83018035915067ffffffffffffffff8211156155f1578283fd5b6020019150600581901b360382131561560957600080fd5b9250929050565b600082357fffffffffffffffffffffffffffffffffffffffffffffffffffffffffffffff41833603018112615643578182fd5b9190910192915050565b60006fffffffffffffffffffffffffffffffff8083168185168083038211156156785761567861575d565b01949350505050565b600082198211156156945761569461575d565b500190565b6000826156a8576156a8615773565b500490565b6000828210156156bf576156bf61575d565b500390565b60005b838110156156df5781810151838201526020016156c7565b83811115611a755750506000910152565b60007fffffffffffffffffffffffffffffffffffffffffffffffffffffffffffffffff8214156157225761572261575d565b5060010190565b600060ff821660ff8114156157405761574061575d565b60010192915050565b60008261575857615758615773565b500690565b634e487b7160e01b600052601160045260246000fd5b634e487b7160e01b600052601260045260246000fd5b634e487b7160e01b600052604160045260246000fd5b6001600160a01b03811681146157b457600080fd5b50565b80151581146157b457600080fdfea264697066735822122055ab3eee183971ea8e6acb19f59696304768586fabda6abbe948a93fe467cf0664736f6c63430008040033",
  "linkReferences": {},
  "deployedLinkReferences": {}
}