{
  "_format": "hh-sol-artifact-1",
  "contractName": "VintageGovernorVotingAssetAllocationProposalAdapterContract",
  "sourceName": "contracts/vintage/adapters/VintageGovernorVotingAssetAllocationAdapter.sol",
  "abi": [
    {
      "inputs": [],
      "name": "ADAPTER_NOT_FUND",
      "type": "error"
    },
    {
      "inputs": [],
      "name": "INVALID_GOVERNOR",
      "type": "error"
    },
    {
      "inputs": [],
      "name": "INVALID_PARAMS",
      "type": "error"
    },
    {
      "inputs": [],
      "name": "PROPOSAL_ALREADY_PROCESSED",
      "type": "error"
    },
    {
      "inputs": [],
      "name": "PROPOSAL_HAS_NOT_BEEN_VOTED_ON_YET",
      "type": "error"
    },
    {
      "anonymous": false,
      "inputs": [
        {
          "indexed": false,
          "internalType": "address",
          "name": "daoAddr",
          "type": "address"
        },
        {
          "indexed": false,
          "internalType": "bytes32",
          "name": "proposalId",
          "type": "bytes32"
        },
        {
          "indexed": false,
          "internalType": "address[]",
          "name": "governors",
          "type": "address[]"
        },
        {
          "indexed": false,
          "internalType": "uint256[]",
          "name": "allocations",
          "type": "uint256[]"
        },
        {
          "indexed": false,
          "internalType": "uint256",
          "name": "stopVoteTime",
          "type": "uint256"
        }
      ],
      "name": "ProposalCreated",
      "type": "event"
    },
    {
      "anonymous": false,
      "inputs": [
        {
          "indexed": false,
          "internalType": "address",
          "name": "daoAddr",
          "type": "address"
        },
        {
          "indexed": false,
          "internalType": "bytes32",
          "name": "proposalId",
          "type": "bytes32"
        },
        {
          "indexed": false,
          "internalType": "enum VintageGovernorVotingAssetAllocationProposalAdapterContract.ProposalState",
          "name": "state",
          "type": "uint8"
        },
        {
          "indexed": false,
          "internalType": "uint128",
          "name": "allVotingWeight",
          "type": "uint128"
        },
        {
          "indexed": false,
          "internalType": "uint256",
          "name": "nbYes",
          "type": "uint256"
        },
        {
          "indexed": false,
          "internalType": "uint256",
          "name": "nbNo",
          "type": "uint256"
        },
        {
          "indexed": false,
          "internalType": "uint256",
          "name": "voteResult",
          "type": "uint256"
        }
      ],
      "name": "ProposalProcessed",
      "type": "event"
    },
    {
      "inputs": [
        {
          "internalType": "contract DaoRegistry",
          "name": "",
          "type": "address"
        }
      ],
      "name": "ongoingProposal",
      "outputs": [
        {
          "internalType": "bytes32",
          "name": "",
          "type": "bytes32"
        }
      ],
      "stateMutability": "view",
      "type": "function"
    },
    {
      "inputs": [
        {
          "internalType": "contract DaoRegistry",
          "name": "dao",
          "type": "address"
        },
        {
          "internalType": "bytes32",
          "name": "proposalId",
          "type": "bytes32"
        }
      ],
      "name": "processProposal",
      "outputs": [],
      "stateMutability": "nonpayable",
      "type": "function"
    },
    {
      "inputs": [
        {
          "internalType": "contract DaoRegistry",
          "name": "",
          "type": "address"
        },
        {
          "internalType": "bytes32",
          "name": "",
          "type": "bytes32"
        }
      ],
      "name": "proposals",
      "outputs": [
        {
          "internalType": "address",
          "name": "proposer",
          "type": "address"
        },
        {
          "components": [
            {
              "internalType": "uint256[]",
              "name": "allocs",
              "type": "uint256[]"
            }
          ],
          "internalType": "struct VintageGovernorVotingAssetAllocationProposalAdapterContract.VotingAllocation",
          "name": "allocs",
          "type": "tuple"
        },
        {
          "components": [
            {
              "internalType": "address[]",
              "name": "governors",
              "type": "address[]"
            }
          ],
          "internalType": "struct VintageGovernorVotingAssetAllocationProposalAdapterContract.VotingGovernor",
          "name": "govs",
          "type": "tuple"
        },
        {
          "internalType": "uint256",
          "name": "creationTime",
          "type": "uint256"
        },
        {
          "internalType": "uint256",
          "name": "stopVoteTime",
          "type": "uint256"
        },
        {
          "internalType": "enum VintageGovernorVotingAssetAllocationProposalAdapterContract.ProposalState",
          "name": "state",
          "type": "uint8"
        }
      ],
      "stateMutability": "view",
      "type": "function"
    },
    {
      "inputs": [
        {
          "internalType": "contract DaoRegistry",
          "name": "dao",
          "type": "address"
        },
        {
          "internalType": "address[]",
          "name": "govs",
          "type": "address[]"
        },
        {
          "internalType": "uint256[]",
          "name": "allocs",
          "type": "uint256[]"
        }
      ],
      "name": "submitProposal",
      "outputs": [],
      "stateMutability": "nonpayable",
      "type": "function"
    }
  ],
  "bytecode": "0x608060405234801561001057600080fd5b50612d1b806100206000396000f3fe608060405234801561001057600080fd5b506004361061004c5760003560e01c80635cb752761461005157806362e86df51461007f5780639573167d146100ad578063fde92fcf146100c2575b600080fd5b61006461005f3660046127d4565b6100d5565b60405161007696959493929190612a64565b60405180910390f35b61009f61008d366004612609565b60016020526000908152604090205481565b604051908152602001610076565b6100c06100bb3660046127d4565b6101d9565b005b6100c06100d0366004612754565b61062c565b6000602081815292815260408082208452918152819020805482516001830180548087028301860186529582018681526001600160a01b039093169593949193909284929091849184018282801561014c57602002820191906000526020600020905b815481526020019060010190808311610138575b5050509190925250506040805160028501805460208181028401850185528301818152959695929450909284929184918401828280156101b557602002820191906000526020600020905b81546001600160a01b03168152600190910190602001808311610197575b50505091909252505050600382015460048301546005909301549192909160ff1686565b6001600160a01b0382166000818152602081815260408083208584529091529081902090517ff941f69100000000000000000000000000000000000000000000000000000000815290919063f941f6919061023b908590600290600401612af7565b60206040518083038186803b15801561025357600080fd5b505afa158015610267573d6000803e3d6000fd5b505050506040513d601f19601f8201168201806040525081019061028b919061270f565b156102c2576040517f35153ac400000000000000000000000000000000000000000000000000000000815260040160405180910390fd5b6040516317ba7d8560e01b81527f0d479c38716a0298633b1dbf1ce145a3fbd1d79ca4527de172afc3bad04a2ba760048201526000906001600160a01b038516906317ba7d859060240160206040518083038186803b15801561032457600080fd5b505afa158015610338573d6000803e3d6000fd5b505050506040513d601f19601f8201168201806040525081019061035c919061262c565b90506001600160a01b03811661039e576040517f5d78cd3c00000000000000000000000000000000000000000000000000000000815260040160405180910390fd5b6040517f76225e730000000000000000000000000000000000000000000000000000000081526001600160a01b0385811660048301526024820185905260009182918291908516906376225e7390604401606060405180830381600087803b15801561040957600080fd5b505af115801561041d573d6000803e3d6000fd5b505050506040513d601f19601f8201168201806040525081019061044191906127ff565b9194509250905060006104548888610e6c565b6040517f30490e91000000000000000000000000000000000000000000000000000000008152600481018990529091506001600160a01b038916906330490e9190602401600060405180830381600087803b1580156104b257600080fd5b505af11580156104c6573d6000803e3d6000fd5b50600292506104d3915050565b8460058111156104f357634e487b7160e01b600052602160045260246000fd5b14156105175760058601805460ff19166001179055610512888861112e565b6105af565b600384600581111561053957634e487b7160e01b600052602160045260246000fd5b14806105645750600184600581111561056257634e487b7160e01b600052602160045260246000fd5b145b1561057d5760058601805460ff191660031790556105af565b6040517fe2489e3300000000000000000000000000000000000000000000000000000000815260040160405180910390fd5b7f7ab29e6deeb60f3b76461422909b7ae5bda1be890b270b70c56a32d54cd2a45688888860050160009054906101000a900460ff168487878a600581111561060757634e487b7160e01b600052602160045260246000fd5b60405161061a9796959493929190612a0a565b60405180910390a15050505050505050565b84600061063882611325565b905086610645813361160f565b85841461067e576040517f6a9c3ed500000000000000000000000000000000000000000000000000000000815260040160405180910390fd5b61068988888861170b565b876001600160a01b031663ccb299d06040518163ffffffff1660e01b8152600401600060405180830381600087803b1580156106c457600080fd5b505af11580156106d8573d6000803e3d6000fd5b5050505060006107838960c01b61075e8b6001600160a01b031663e5b0be456040518163ffffffff1660e01b815260040160206040518083038186803b15801561072157600080fd5b505afa158015610735573d6000803e3d6000fd5b505050506040513d601f19601f820116820180604052508101906107599190612868565b611843565b60405160200161076f9291906128e5565b604051602081830303815290604052611999565b604051634941d71d60e11b81527f9876c0f0505bfb2b1c38d3bbd25ba13159172cd0868972d76927723f5a9480fc60048201529091506000906001600160a01b038b1690639283ae3a9060240160206040518083038186803b1580156107e857600080fd5b505afa1580156107fc573d6000803e3d6000fd5b505050506040513d601f19601f820116820180604052508101906108209190612868565b61082a9042612b99565b90506040518060c00160405280336001600160a01b0316815260200160405180602001604052808c8c905067ffffffffffffffff81111561087b57634e487b7160e01b600052604160045260246000fd5b6040519080825280602002602001820160405280156108a4578160200160208202803683370190505b50815250815260200160405180602001604052808c8c905067ffffffffffffffff8111156108e257634e487b7160e01b600052604160045260246000fd5b60405190808252806020026020018201604052801561090b578160200160208202803683370190505b509052815242602082015260408101839052606001600090526001600160a01b038b811660009081526020818152604080832087845282529091208351815473ffffffffffffffffffffffffffffffffffffffff1916931692909217825582810151805180519192600185019261098592849201906124dd565b50505060408201518051805160028401916109a591839160200190612528565b505050606082015181600301556080820151816004015560a08201518160050160006101000a81548160ff021916908360038111156109f457634e487b7160e01b600052602160045260246000fd5b021790555090505060005b60ff8116891115610b535787878260ff16818110610a2d57634e487b7160e01b600052603260045260246000fd5b6001600160a01b038e166000908152602081815260408083208984528252909120600101805492909102939093013592915060ff8416908110610a8057634e487b7160e01b600052603260045260246000fd5b600091825260209091200155898960ff8316818110610aaf57634e487b7160e01b600052603260045260246000fd5b9050602002016020810190610ac49190612609565b6001600160a01b038c166000908152602081815260408083208784529091529020600201805460ff8416908110610b0b57634e487b7160e01b600052603260045260246000fd5b6000918252602090912001805473ffffffffffffffffffffffffffffffffffffffff19166001600160a01b039290921691909117905580610b4b81612c41565b9150506109ff565b506001600160a01b038a16600081815260016020526040808220859055516317ba7d8560e01b81527f0d479c38716a0298633b1dbf1ce145a3fbd1d79ca4527de172afc3bad04a2ba760048201529091906317ba7d859060240160206040518083038186803b158015610bc557600080fd5b505afa158015610bd9573d6000803e3d6000fd5b505050506040513d601f19601f82011682018060405250810190610bfd919061262c565b6040517fb73dc389000000000000000000000000000000000000000000000000000000008152600481018590529091506001600160a01b038c169063b73dc38990602401600060405180830381600087803b158015610c5b57600080fd5b505af1158015610c6f573d6000803e3d6000fd5b50506040516317ba7d8560e01b81527f0d479c38716a0298633b1dbf1ce145a3fbd1d79ca4527de172afc3bad04a2ba760048201526001600160a01b038e16925063815a2bf49150859083906317ba7d859060240160206040518083038186803b158015610cdc57600080fd5b505afa158015610cf0573d6000803e3d6000fd5b505050506040513d601f19601f82011682018060405250810190610d14919061262c565b6040517fffffffff0000000000000000000000000000000000000000000000000000000060e085901b16815260048101929092526001600160a01b03166024820152604401600060405180830381600087803b158015610d7357600080fd5b505af1158015610d87573d6000803e3d6000fd5b5050604080516020810182526000815290517f2b0974d00000000000000000000000000000000000000000000000000000000081526001600160a01b0385169350632b0974d09250610de0918f91889190600401612b1b565b600060405180830381600087803b158015610dfa57600080fd5b505af1158015610e0e573d6000803e3d6000fd5b505050507f1a430b52b7d2c175591f9e71d42ec16859629de97bdb96f0513d7dc639159f4a8b848c8c8c8c88604051610e4d9796959493929190612953565b60405180910390a150505050610e6382826119b5565b50505050505050565b600080610e78846119c0565b6040516317ba7d8560e01b81527f0d479c38716a0298633b1dbf1ce145a3fbd1d79ca4527de172afc3bad04a2ba7600482015290915060009081906001600160a01b038716906317ba7d859060240160206040518083038186803b158015610edf57600080fd5b505afa158015610ef3573d6000803e3d6000fd5b505050506040513d601f19601f82011682018060405250810190610f17919061262c565b905060005b83518160ff16101561112157816001600160a01b03166324a2cceb8888878560ff1681518110610f5c57634e487b7160e01b600052603260045260246000fd5b60200260200101516040518463ffffffff1660e01b8152600401610fa0939291906001600160a01b0393841681526020810192909252909116604082015260600190565b60206040518083038186803b158015610fb857600080fd5b505afa158015610fcc573d6000803e3d6000fd5b505050506040513d601f19601f82011682018060405250810190610ff0919061270f565b156110ce57816001600160a01b03166391d2fd538888878560ff168151811061102957634e487b7160e01b600052603260045260246000fd5b60200260200101516040518463ffffffff1660e01b815260040161106d939291906001600160a01b0393841681526020810192909252909116604082015260600190565b60206040518083038186803b15801561108557600080fd5b505afa158015611099573d6000803e3d6000fd5b505050506040513d601f19601f820116820180604052508101906110bd9190612838565b6110c79084612b65565b925061110f565b61110287858360ff16815181106110f557634e487b7160e01b600052603260045260246000fd5b6020026020010151611a37565b61110c9084612b65565b92505b8061111981612c41565b915050610f1c565b5090925050505b92915050565b6001600160a01b0382166000908152602081815260408083208484529091529020600281015415611320576040516317ba7d8560e01b81527f1fa6846b165d822fff79e37c67625706652fa9380c2aa49fd513ce534cc72ed460048201526000906001600160a01b038516906317ba7d859060240160206040518083038186803b1580156111bb57600080fd5b505afa1580156111cf573d6000803e3d6000fd5b505050506040513d601f19601f820116820180604052508101906111f3919061262c565b905060005b600283015460ff8216101561131d57816001600160a01b0316635f15b1d986856002016000018460ff168154811061124057634e487b7160e01b600052603260045260246000fd5b6000918252602090912001546001870180546001600160a01b039092169160ff871690811061127f57634e487b7160e01b600052603260045260246000fd5b6000918252602090912001546040517fffffffff0000000000000000000000000000000000000000000000000000000060e086901b1681526001600160a01b0393841660048201529290911660248301526044820152606401600060405180830381600087803b1580156112f257600080fd5b505af1158015611306573d6000803e3d6000fd5b50505050808061131590612c41565b9150506111f8565b50505b505050565b6040805160808101825260008082526020820181905291810182905260608101919091525a81600001818152505043826001600160a01b031663b21634826040518163ffffffff1660e01b815260040160206040518083038186803b15801561138d57600080fd5b505afa1580156113a1573d6000803e3d6000fd5b505050506040513d601f19601f820116820180604052508101906113c59190612868565b1415611432576040517f08c379a000000000000000000000000000000000000000000000000000000000815260206004820152601060248201527f7265656e7472616e63792067756172640000000000000000000000000000000060448201526064015b60405180910390fd5b816001600160a01b03166310fdb0a26040518163ffffffff1660e01b8152600401600060405180830381600087803b15801561146d57600080fd5b505af1158015611481573d6000803e3d6000fd5b50506040517f72c6838f0000000000000000000000000000000000000000000000000000000081527f1f2fd42ad6a6cacd573c4b212beb7a4e2499ad45d742a65337097f130e71daff6004820152600092506001600160a01b03851691506372c6838f9060240160206040518083038186803b15801561150057600080fd5b505afa158015611514573d6000803e3d6000fd5b505050506040513d601f19601f82011682018060405250810190611538919061262c565b90506001600160a01b0381166115545760006020830152611609565b6001600160a01b038181166060840181905283516040517f43a8a3f1000000000000000000000000000000000000000000000000000000008152928616600484015260248301526000918291906343a8a3f190604401604080518083038186803b1580156115c157600080fd5b505afa1580156115d5573d6000803e3d6000fd5b505050506040513d601f19601f820116820180604052508101906115f99190612729565b9015156020860152604085015250505b50919050565b6040517fa230c5240000000000000000000000000000000000000000000000000000000081526001600160a01b03828116600483015283169063a230c5249060240160206040518083038186803b15801561166957600080fd5b505afa15801561167d573d6000803e3d6000fd5b505050506040513d601f19601f820116820180604052508101906116a1919061270f565b611707576040517f08c379a000000000000000000000000000000000000000000000000000000000815260206004820152600c60248201527f6f6e6c79476f7665726e6f7200000000000000000000000000000000000000006044820152606401611429565b5050565b80156113205760005b60ff811682111561183d57836001600160a01b031663a230c52484848460ff1681811061175157634e487b7160e01b600052603260045260246000fd5b90506020020160208101906117669190612609565b6040517fffffffff0000000000000000000000000000000000000000000000000000000060e084901b1681526001600160a01b03909116600482015260240160206040518083038186803b1580156117bd57600080fd5b505afa1580156117d1573d6000803e3d6000fd5b505050506040513d601f19601f820116820180604052508101906117f5919061270f565b61182b576040517f24acff8400000000000000000000000000000000000000000000000000000000815260040160405180910390fd5b8061183581612c41565b915050611714565b50505050565b60608161188357505060408051808201909152600181527f3000000000000000000000000000000000000000000000000000000000000000602082015290565b8160005b81156118ad578061189781612c08565b91506118a69050600a83612bb1565b9150611887565b60008167ffffffffffffffff8111156118d657634e487b7160e01b600052604160045260246000fd5b6040519080825280601f01601f191660200182016040528015611900576020820181803683370190505b5090505b841561199157611915600183612bc5565b9150611922600a86612c61565b61192d906030612b99565b60f81b81838151811061195057634e487b7160e01b600052603260045260246000fd5b60200101907effffffffffffffffffffffffffffffffffffffffffffffffffffffffffffff1916908160001a90535061198a600a86612bb1565b9450611904565b949350505050565b60008151600014156119ad57506000919050565b506020015190565b61170782823361229c565b6060816001600160a01b031663a6f636416040518163ffffffff1660e01b815260040160006040518083038186803b1580156119fb57600080fd5b505afa158015611a0f573d6000803e3d6000fd5b505050506040513d6000823e601f3d908101601f191682016040526111289190810190612648565b604051634941d71d60e11b81527f75b7d343967750d1f6c15979b7559cea8be22ff1a06a51681b9cbef0d2fff4fe600482015260009081906001600160a01b03851690639283ae3a9060240160206040518083038186803b158015611a9b57600080fd5b505afa158015611aaf573d6000803e3d6000fd5b505050506040513d601f19601f82011682018060405250810190611ad39190612868565b604051634941d71d60e11b81527f18ef0b57fe939edb640a200fdf533493bd8f26a274151543a109b64c857e20f360048201529091506000906001600160a01b03861690639283ae3a9060240160206040518083038186803b158015611b3857600080fd5b505afa158015611b4c573d6000803e3d6000fd5b505050506040513d601f19601f82011682018060405250810190611b709190612868565b6040516317ba7d8560e01b81527f37cbe06c1044f98864ea25736326bc1d488e24e5e23781ea2ad64c4069cb9e6e60048201529091506000906001600160a01b038716906317ba7d859060240160206040518083038186803b158015611bd557600080fd5b505afa158015611be9573d6000803e3d6000fd5b505050506040513d601f19601f82011682018060405250810190611c0d919061262c565b604051634941d71d60e11b81527f77b1580d1632c74a32483c26a7156260a89ae4138b020ea7d09b0dcf24f1ea2460048201529091506000906001600160a01b03881690639283ae3a9060240160206040518083038186803b158015611c7257600080fd5b505afa158015611c86573d6000803e3d6000fd5b505050506040513d601f19601f82011682018060405250810190611caa9190612868565b6040517ffd310d290000000000000000000000000000000000000000000000000000000081527fb5a1ad3f04728d7c38547e3d43006a1ec090a02fce04bbb1d0ee4519a1921e5760048201529091506000906001600160a01b0389169063fd310d299060240160206040518083038186803b158015611d2857600080fd5b505afa158015611d3c573d6000803e3d6000fd5b505050506040513d601f19601f82011682018060405250810190611d60919061262c565b90508360011415611f7d57600085611e07576040516370a0823160e01b81526001600160a01b038981166004830152670de0b6b3a764000091908416906370a082319060240160206040518083038186803b158015611dbe57600080fd5b505afa158015611dd2573d6000803e3d6000fd5b505050506040513d601f19601f82011682018060405250810190611df69190612868565b611e009190612bb1565b9050611f14565b8560011415611e8a576040516370a0823160e01b81526001600160a01b0389811660048301528316906370a08231906024015b60206040518083038186803b158015611e5257600080fd5b505afa158015611e66573d6000803e3d6000fd5b505050506040513d601f19601f82011682018060405250810190611e009190612868565b8560021415611ec657604051627eeac760e11b81526001600160a01b0389811660048301526024820185905283169062fdd58e90604401611e3a565b8560031415611f05576040516329b6517360e21b81526001600160a01b038a81166004830152898116602483015285169063a6d945cc90604401611e3a565b60009650505050505050611128565b60008111611f2b5760009650505050505050611128565b677fffffffffffffff8110611f495760329650505050505050611128565b6000611f64611f5f611f5a846123a1565b6123bf565b6124c1565b67ffffffffffffffff1697506111289650505050505050565b83600214156120ef57600085612024576040516370a0823160e01b81526001600160a01b038981166004830152600091908416906370a08231906024015b60206040518083038186803b158015611fd357600080fd5b505afa158015611fe7573d6000803e3d6000fd5b505050506040513d601f19601f8201168201806040525081019061200b9190612868565b1161201757600061201a565b60015b60ff1690506120e2565b856001141561205f576040516370a0823160e01b81526001600160a01b038981166004830152600091908416906370a0823190602401611fbb565b856002141561209f57604051627eeac760e11b81526001600160a01b038981166004830152602482018590526000919084169062fdd58e90604401611fbb565b8560031415611f05576040516329b6517360e21b81526001600160a01b038a8116600483015289811660248301526000919086169063a6d945cc90604401611fbb565b9550611128945050505050565b8361228e57600085612190576040516370a0823160e01b81526001600160a01b038981166004830152670de0b6b3a764000091908416906370a082319060240160206040518083038186803b15801561214757600080fd5b505afa15801561215b573d6000803e3d6000fd5b505050506040513d601f19601f8201168201806040525081019061217f9190612868565b6121899190612bb1565b90506120e2565b8560011415612213576040516370a0823160e01b81526001600160a01b0389811660048301528316906370a08231906024015b60206040518083038186803b1580156121db57600080fd5b505afa1580156121ef573d6000803e3d6000fd5b505050506040513d601f19601f820116820180604052508101906121899190612868565b856002141561224f57604051627eeac760e11b81526001600160a01b0389811660048301526024820185905283169062fdd58e906044016121c3565b8560031415611f05576040516329b6517360e21b81526001600160a01b038a81166004830152898116602483015285169063a6d945cc906044016121c3565b600095505050505050611128565b8160200151156123525781606001516001600160a01b0316635e5eb01384835a86516122c89190612bc5565b60408088015190517fffffffff0000000000000000000000000000000000000000000000000000000060e087901b1681526001600160a01b03948516600482015293909216602484015260448301526064820152608401600060405180830381600087803b15801561233957600080fd5b505af115801561234d573d6000803e3d6000fd5b505050505b826001600160a01b031663d4f7af436040518163ffffffff1660e01b8152600401600060405180830381600087803b15801561238d57600080fd5b505af1158015610e63573d6000803e3d6000fd5b6000677fffffffffffffff8211156123b857600080fd5b5060401b90565b60008082600f0b136123d057600080fd5b6000600f83900b6801000000000000000081126123ef576040918201911d5b6401000000008112612403576020918201911d5b620100008112612415576010918201911d5b6101008112612426576008918201911d5b60108112612436576004918201911d5b60048112612446576002918201911d5b60028112612455576001820191505b7fffffffffffffffffffffffffffffffffffffffffffffffffffffffffffffffc0820160401b600f85900b607f8490031b6780000000000000005b60008113156124b65790800260ff81901c8281029390930192607f011c9060011d612490565b509095945050505050565b60008082600f0b12156124d357600080fd5b50600f0b60401d90565b828054828255906000526020600020908101928215612518579160200282015b828111156125185782518255916020019190600101906124fd565b5061252492915061258a565b5090565b828054828255906000526020600020908101928215612518579160200282015b82811115612518578251825473ffffffffffffffffffffffffffffffffffffffff19166001600160a01b03909116178255602090920191600190910190612548565b5b80821115612524576000815560010161258b565b80516125aa81612ccd565b919050565b60008083601f8401126125c0578081fd5b50813567ffffffffffffffff8111156125d7578182fd5b6020830191508360208260051b85010111156125f257600080fd5b9250929050565b805180151581146125aa57600080fd5b60006020828403121561261a578081fd5b813561262581612ccd565b9392505050565b60006020828403121561263d578081fd5b815161262581612ccd565b6000602080838503121561265a578182fd5b825167ffffffffffffffff80821115612671578384fd5b818501915085601f830112612684578384fd5b81518181111561269657612696612cb7565b8060051b604051601f19603f830116810181811085821117156126bb576126bb612cb7565b604052828152858101935084860182860187018a10156126d9578788fd5b8795505b83861015612702576126ee8161259f565b8552600195909501949386019386016126dd565b5098975050505050505050565b600060208284031215612720578081fd5b612625826125f9565b6000806040838503121561273b578081fd5b612744836125f9565b9150602083015190509250929050565b60008060008060006060868803121561276b578081fd5b853561277681612ccd565b9450602086013567ffffffffffffffff80821115612792578283fd5b61279e89838a016125af565b909650945060408801359150808211156127b6578283fd5b506127c3888289016125af565b969995985093965092949392505050565b600080604083850312156127e6578182fd5b82356127f181612ccd565b946020939093013593505050565b600080600060608486031215612813578283fd5b835160068110612821578384fd5b602085015160409095015190969495509392505050565b600060208284031215612849578081fd5b81516fffffffffffffffffffffffffffffffff81168114612625578182fd5b600060208284031215612879578081fd5b5051919050565b6004811061289057612890612ca1565b9052565b805160208084528151848201819052600092820190839060408701905b808310156128da5783516001600160a01b031682529284019260019290920191908401906128b1565b509695505050505050565b7fffffffffffffffff000000000000000000000000000000000000000000000000831681527f56696e7461676520476f7665726e6f7220416c6c6f636174696f6e2023000000600882015260008251612945816025850160208701612bdc565b919091016025019392505050565b6001600160a01b038881168252602080830189905260a0604084018190528301879052600091889160c08501845b8a8110156129a857843561299481612ccd565b841682529382019390820190600101612981565b5085810360608701528781527f07ffffffffffffffffffffffffffffffffffffffffffffffffffffffffffffff8811156129e0578485fd5b8760051b935083898383013790920190910191825250608091909101919091529695505050505050565b6001600160a01b03881681526020810187905260e08101612a2e6040830188612880565b6fffffffffffffffffffffffffffffffff861660608301528460808301528360a08301528260c083015298975050505050505050565b6001600160a01b038716815260c060208083018290528751918301819052815160e0840181905260009282019083906101008601905b80831015612aba5783518252928401926001929092019190840190612a9a565b508581036040870152612acd818b612894565b945050505050846060830152836080830152612aec60a0830184612880565b979650505050505050565b8281526040810160038310612b0e57612b0e612ca1565b8260208301529392505050565b6001600160a01b03841681528260208201526060604082015260008251806060840152612b4f816080850160208701612bdc565b601f01601f191691909101608001949350505050565b60006fffffffffffffffffffffffffffffffff808316818516808303821115612b9057612b90612c75565b01949350505050565b60008219821115612bac57612bac612c75565b500190565b600082612bc057612bc0612c8b565b500490565b600082821015612bd757612bd7612c75565b500390565b60005b83811015612bf7578181015183820152602001612bdf565b8381111561183d5750506000910152565b60007fffffffffffffffffffffffffffffffffffffffffffffffffffffffffffffffff821415612c3a57612c3a612c75565b5060010190565b600060ff821660ff811415612c5857612c58612c75565b60010192915050565b600082612c7057612c70612c8b565b500690565b634e487b7160e01b600052601160045260246000fd5b634e487b7160e01b600052601260045260246000fd5b634e487b7160e01b600052602160045260246000fd5b634e487b7160e01b600052604160045260246000fd5b6001600160a01b0381168114612ce257600080fd5b5056fea2646970667358221220a649a042ca3a2cd259df0be9d1a133710afd3263a12de81b8320422f1d10f4cc64736f6c63430008040033",
  "linkReferences": {},
  "deployedLinkReferences": {}
}