{
  "_format": "hh-sol-artifact-1",
  "contractName": "CollectiveFreeInEscrowFundAdapterContract",
  "sourceName": "contracts/collective/adapters/CollectiveFreeInFundEscrowAdapter.sol",
  "abi": [
    {
      "inputs": [],
      "name": "ACCESS_DENIED",
      "type": "error"
    },
    {
      "anonymous": false,
      "inputs": [
        {
          "indexed": false,
          "internalType": "address",
          "name": "dao",
          "type": "address"
        },
        {
          "indexed": false,
          "internalType": "bytes32",
          "name": "fundRaiseProposalId",
          "type": "bytes32"
        },
        {
          "indexed": false,
          "internalType": "address",
          "name": "token",
          "type": "address"
        },
        {
          "indexed": false,
          "internalType": "address",
          "name": "account",
          "type": "address"
        },
        {
          "indexed": false,
          "internalType": "uint256",
          "name": "amount",
          "type": "uint256"
        }
      ],
      "name": "EscrowFund",
      "type": "event"
    },
    {
      "anonymous": false,
      "inputs": [
        {
          "indexed": false,
          "internalType": "address",
          "name": "dao",
          "type": "address"
        },
        {
          "indexed": false,
          "internalType": "bytes32",
          "name": "fundRaiseProposalId",
          "type": "bytes32"
        },
        {
          "indexed": false,
          "internalType": "address",
          "name": "token",
          "type": "address"
        },
        {
          "indexed": false,
          "internalType": "address",
          "name": "account",
          "type": "address"
        },
        {
          "indexed": false,
          "internalType": "uint256",
          "name": "amount",
          "type": "uint256"
        }
      ],
      "name": "WithDraw",
      "type": "event"
    },
    {
      "inputs": [
        {
          "internalType": "contract DaoRegistry",
          "name": "dao",
          "type": "address"
        },
        {
          "internalType": "bytes32",
          "name": "fundRaiseProposalId",
          "type": "bytes32"
        },
        {
          "internalType": "address",
          "name": "token",
          "type": "address"
        },
        {
          "internalType": "address",
          "name": "account",
          "type": "address"
        },
        {
          "internalType": "uint256",
          "name": "amount",
          "type": "uint256"
        }
      ],
      "name": "escrowFundFromFundingPool",
      "outputs": [],
      "stateMutability": "nonpayable",
      "type": "function"
    },
    {
      "inputs": [
        {
          "internalType": "address",
          "name": "",
          "type": "address"
        },
        {
          "internalType": "bytes32",
          "name": "",
          "type": "bytes32"
        },
        {
          "internalType": "address",
          "name": "",
          "type": "address"
        }
      ],
      "name": "escrowFunds",
      "outputs": [
        {
          "internalType": "address",
          "name": "token",
          "type": "address"
        },
        {
          "internalType": "uint128",
          "name": "amount",
          "type": "uint128"
        }
      ],
      "stateMutability": "view",
      "type": "function"
    },
    {
      "inputs": [
        {
          "internalType": "contract DaoRegistry",
          "name": "dao",
          "type": "address"
        },
        {
          "internalType": "bytes32",
          "name": "fundRaiseProposalId",
          "type": "bytes32"
        },
        {
          "internalType": "address",
          "name": "account",
          "type": "address"
        }
      ],
      "name": "getEscrowAmount",
      "outputs": [
        {
          "internalType": "address",
          "name": "",
          "type": "address"
        },
        {
          "internalType": "uint256",
          "name": "",
          "type": "uint256"
        }
      ],
      "stateMutability": "view",
      "type": "function"
    },
    {
      "inputs": [
        {
          "internalType": "contract DaoRegistry",
          "name": "dao",
          "type": "address"
        },
        {
          "internalType": "bytes32",
          "name": "fundRaiseProposalId",
          "type": "bytes32"
        }
      ],
      "name": "withdraw",
      "outputs": [],
      "stateMutability": "nonpayable",
      "type": "function"
    }
  ],
  "bytecode": "0x608060405234801561001057600080fd5b50610fed806100206000396000f3fe608060405234801561001057600080fd5b506004361061004b5760003560e01c806275e7eb14610050578063078e209e146100d157806340e5e9aa146100e6578063aa1065af146100f9575b600080fd5b6100ad61005e366004610e06565b6001600160a01b039283166000908152602081815260408083209483529381528382209285168252919091522080546001909101549116916fffffffffffffffffffffffffffffffff90911690565b604080516001600160a01b0390931683526020830191909152015b60405180910390f35b6100e46100df366004610e1a565b61017e565b005b6100e46100f4366004610ddb565b6103a3565b61014e610107366004610d55565b60006020818152938152604080822085529281528281209093528252902080546001909101546001600160a01b03909116906fffffffffffffffffffffffffffffffff1682565b604080516001600160a01b0390931683526fffffffffffffffffffffffffffffffff9091166020830152016100c8565b6040517f17ba7d850000000000000000000000000000000000000000000000000000000081527f8f5b4aabbdb8527d420a29cc90ae207773ad49b73c632c3cfd2f29eb8776f2ea60048201526001600160a01b038616906317ba7d859060240160206040518083038186803b1580156101f657600080fd5b505afa15801561020a573d6000803e3d6000fd5b505050506040513d601f19601f8201168201806040525081019061022e9190610d39565b6001600160a01b0316336001600160a01b031614610278576040517f95383ea100000000000000000000000000000000000000000000000000000000815260040160405180910390fd5b6001600160a01b038086166000908152602081815260408083208884528252808320938616835292905290812060010180548392906102ca9084906fffffffffffffffffffffffffffffffff16610ef9565b82546fffffffffffffffffffffffffffffffff9182166101009390930a9283029190920219909116179055506001600160a01b0385811660008181526020818152604080832089845282528083208786168085529083529281902080549589167fffffffffffffffffffffffff00000000000000000000000000000000000000009096168617905580519384529083018890528281019390935260608201526080810183905290517f6615005a467e8e6e22cc4a4839cbc0e4d364ba01355634056c7706a0931cfc749181900360a00190a15050505050565b8160006103af82610638565b6001600160a01b038516600090815260208181526040808320878452825280832033845290915290206001810154919250906fffffffffffffffffffffffffffffffff166104445760405162461bcd60e51b815260206004820152601360248201527f6e6f2066756e6420746f2077697468647261770000000000000000000000000060448201526064015b60405180910390fd5b600181015481546040517f70a082310000000000000000000000000000000000000000000000000000000081523060048201526fffffffffffffffffffffffffffffffff9092169182916001600160a01b0316906370a082319060240160206040518083038186803b1580156104b957600080fd5b505afa1580156104cd573d6000803e3d6000fd5b505050506040513d601f19601f820116820180604052508101906104f19190610e74565b101561058d5781546040517f70a082310000000000000000000000000000000000000000000000000000000081523060048201526001600160a01b03909116906370a082319060240160206040518083038186803b15801561055257600080fd5b505afa158015610566573d6000803e3d6000fd5b505050506040513d601f19601f8201168201806040525081019061058a9190610e74565b90505b81546105a3906001600160a01b03163383610903565b6001820180547fffffffffffffffffffffffffffffffff000000000000000000000000000000001690558154604080516001600160a01b038981168252602082018990529092168282015233606083015260808201839052517f4faaa152d666332605a6823df828fb0aff5d07a85db7bb3a7076925b73587e929181900360a00190a150506106328282610988565b50505050565b6040805160808101825260008082526020820181905291810182905260608101919091525a81600001818152505043826001600160a01b031663b21634826040518163ffffffff1660e01b815260040160206040518083038186803b1580156106a057600080fd5b505afa1580156106b4573d6000803e3d6000fd5b505050506040513d601f19601f820116820180604052508101906106d89190610e74565b14156107265760405162461bcd60e51b815260206004820152601060248201527f7265656e7472616e637920677561726400000000000000000000000000000000604482015260640161043b565b816001600160a01b03166310fdb0a26040518163ffffffff1660e01b8152600401600060405180830381600087803b15801561076157600080fd5b505af1158015610775573d6000803e3d6000fd5b50506040517f72c6838f0000000000000000000000000000000000000000000000000000000081527f1f2fd42ad6a6cacd573c4b212beb7a4e2499ad45d742a65337097f130e71daff6004820152600092506001600160a01b03851691506372c6838f9060240160206040518083038186803b1580156107f457600080fd5b505afa158015610808573d6000803e3d6000fd5b505050506040513d601f19601f8201168201806040525081019061082c9190610d39565b90506001600160a01b03811661084857600060208301526108fd565b6001600160a01b038181166060840181905283516040517f43a8a3f1000000000000000000000000000000000000000000000000000000008152928616600484015260248301526000918291906343a8a3f190604401604080518083038186803b1580156108b557600080fd5b505afa1580156108c9573d6000803e3d6000fd5b505050506040513d601f19601f820116820180604052508101906108ed9190610db0565b9015156020860152604085015250505b50919050565b604080516001600160a01b038416602482015260448082018490528251808303909101815260649091019091526020810180517bffffffffffffffffffffffffffffffffffffffffffffffffffffffff167fa9059cbb00000000000000000000000000000000000000000000000000000000179052610983908490610997565b505050565b610993828233610a7c565b5050565b60006109ec826040518060400160405280602081526020017f5361666545524332303a206c6f772d6c6576656c2063616c6c206661696c6564815250856001600160a01b0316610b8a9092919063ffffffff16565b8051909150156109835780806020019051810190610a0a9190610d96565b6109835760405162461bcd60e51b815260206004820152602a60248201527f5361666545524332303a204552433230206f7065726174696f6e20646964206e60448201527f6f74207375636365656400000000000000000000000000000000000000000000606482015260840161043b565b816020015115610b325781606001516001600160a01b0316635e5eb01384835a8651610aa89190610f2d565b60408088015190517fffffffff0000000000000000000000000000000000000000000000000000000060e087901b1681526001600160a01b03948516600482015293909216602484015260448301526064820152608401600060405180830381600087803b158015610b1957600080fd5b505af1158015610b2d573d6000803e3d6000fd5b505050505b826001600160a01b031663d4f7af436040518163ffffffff1660e01b8152600401600060405180830381600087803b158015610b6d57600080fd5b505af1158015610b81573d6000803e3d6000fd5b50505050505050565b6060610b998484600085610ba3565b90505b9392505050565b606082471015610c1b5760405162461bcd60e51b815260206004820152602660248201527f416464726573733a20696e73756666696369656e742062616c616e636520666f60448201527f722063616c6c0000000000000000000000000000000000000000000000000000606482015260840161043b565b6001600160a01b0385163b610c725760405162461bcd60e51b815260206004820152601d60248201527f416464726573733a2063616c6c20746f206e6f6e2d636f6e7472616374000000604482015260640161043b565b600080866001600160a01b03168587604051610c8e9190610e8c565b60006040518083038185875af1925050503d8060008114610ccb576040519150601f19603f3d011682016040523d82523d6000602084013e610cd0565b606091505b5091509150610ce0828286610ceb565b979650505050505050565b60608315610cfa575081610b9c565b825115610d0a5782518084602001fd5b8160405162461bcd60e51b815260040161043b9190610ea8565b80518015158114610d3457600080fd5b919050565b600060208284031215610d4a578081fd5b8151610b9c81610f9f565b600080600060608486031215610d69578182fd5b8335610d7481610f9f565b9250602084013591506040840135610d8b81610f9f565b809150509250925092565b600060208284031215610da7578081fd5b610b9c82610d24565b60008060408385031215610dc2578182fd5b610dcb83610d24565b9150602083015190509250929050565b60008060408385031215610ded578182fd5b8235610df881610f9f565b946020939093013593505050565b600080600060608486031215610d69578283fd5b600080600080600060a08688031215610e31578081fd5b8535610e3c81610f9f565b9450602086013593506040860135610e5381610f9f565b92506060860135610e6381610f9f565b949793965091946080013592915050565b600060208284031215610e85578081fd5b5051919050565b60008251610e9e818460208701610f44565b9190910192915050565b6020815260008251806020840152610ec7816040850160208701610f44565b601f017fffffffffffffffffffffffffffffffffffffffffffffffffffffffffffffffe0169190910160400192915050565b60006fffffffffffffffffffffffffffffffff808316818516808303821115610f2457610f24610f70565b01949350505050565b600082821015610f3f57610f3f610f70565b500390565b60005b83811015610f5f578181015183820152602001610f47565b838111156106325750506000910152565b7f4e487b7100000000000000000000000000000000000000000000000000000000600052601160045260246000fd5b6001600160a01b0381168114610fb457600080fd5b5056fea2646970667358221220886df31c880695d7607302e4247fed68e0272ec46273afe0afb4f6a6546f3dc464736f6c63430008040033",
  "linkReferences": {},
  "deployedLinkReferences": {}
}